{
	"contracts/CrowdFund.sol": {
		"CrowdFund": {
			"abi": [
				{
					"inputs": [],
					"stateMutability": "nonpayable",
					"type": "constructor"
				},
				{
					"anonymous": false,
					"inputs": [
						{
							"indexed": false,
							"internalType": "uint256",
							"name": "charityId",
							"type": "uint256"
						},
						{
							"indexed": false,
							"internalType": "uint256",
							"name": "projectId",
							"type": "uint256"
						},
						{
							"indexed": false,
							"internalType": "enum CrowdFund.ProjectStatus",
							"name": "projectStatus",
							"type": "uint8"
						}
					],
					"name": "BoardMessageToCharity",
					"type": "event"
				},
				{
					"anonymous": false,
					"inputs": [
						{
							"indexed": false,
							"internalType": "uint256",
							"name": "charityId",
							"type": "uint256"
						},
						{
							"indexed": false,
							"internalType": "uint256",
							"name": "projectId",
							"type": "uint256"
						},
						{
							"indexed": false,
							"internalType": "enum CrowdFund.ProjectStatus",
							"name": "projectStatus",
							"type": "uint8"
						}
					],
					"name": "CharityMessageToBoard",
					"type": "event"
				},
				{
					"anonymous": false,
					"inputs": [
						{
							"indexed": false,
							"internalType": "uint256",
							"name": "charityId",
							"type": "uint256"
						},
						{
							"indexed": false,
							"internalType": "uint256",
							"name": "projectId",
							"type": "uint256"
						},
						{
							"indexed": false,
							"internalType": "enum CrowdFund.ProjectStatus",
							"name": "projectStatus",
							"type": "uint8"
						}
					],
					"name": "CharityMessageToReceiver",
					"type": "event"
				},
				{
					"anonymous": false,
					"inputs": [
						{
							"indexed": false,
							"internalType": "uint256",
							"name": "charityId",
							"type": "uint256"
						},
						{
							"indexed": false,
							"internalType": "uint256",
							"name": "projectId",
							"type": "uint256"
						},
						{
							"indexed": false,
							"internalType": "enum CrowdFund.ProjectStatus",
							"name": "projectStatus",
							"type": "uint8"
						}
					],
					"name": "ReceiverMessageToCharity",
					"type": "event"
				},
				{
					"inputs": [
						{
							"internalType": "uint256",
							"name": "index",
							"type": "uint256"
						},
						{
							"internalType": "uint256",
							"name": "charityId",
							"type": "uint256"
						}
					],
					"name": "approveCharity",
					"outputs": [],
					"stateMutability": "nonpayable",
					"type": "function"
				},
				{
					"inputs": [],
					"name": "boardAdmin",
					"outputs": [
						{
							"internalType": "address",
							"name": "",
							"type": "address"
						}
					],
					"stateMutability": "view",
					"type": "function"
				},
				{
					"inputs": [
						{
							"internalType": "uint256",
							"name": "projectId",
							"type": "uint256"
						},
						{
							"internalType": "uint256",
							"name": "charityId",
							"type": "uint256"
						},
						{
							"internalType": "uint8",
							"name": "enumValue",
							"type": "uint8"
						}
					],
					"name": "changeProjectStatus",
					"outputs": [],
					"stateMutability": "nonpayable",
					"type": "function"
				},
				{
					"inputs": [
						{
							"internalType": "uint256",
							"name": "",
							"type": "uint256"
						}
					],
					"name": "charities",
					"outputs": [
						{
							"internalType": "uint256",
							"name": "charityId",
							"type": "uint256"
						},
						{
							"internalType": "bool",
							"name": "approved",
							"type": "bool"
						},
						{
							"internalType": "string",
							"name": "reason",
							"type": "string"
						},
						{
							"internalType": "string",
							"name": "licenseDocsLink",
							"type": "string"
						},
						{
							"internalType": "address",
							"name": "owner",
							"type": "address"
						}
					],
					"stateMutability": "view",
					"type": "function"
				},
				{
					"inputs": [
						{
							"internalType": "uint256",
							"name": "_charityId",
							"type": "uint256"
						},
						{
							"internalType": "string",
							"name": "_licenseDocsLink",
							"type": "string"
						},
						{
							"internalType": "address",
							"name": "charity",
							"type": "address"
						}
					],
					"name": "createCharity",
					"outputs": [],
					"stateMutability": "nonpayable",
					"type": "function"
				},
				{
					"inputs": [
						{
							"internalType": "uint256",
							"name": "charityId",
							"type": "uint256"
						},
						{
							"internalType": "uint256",
							"name": "_projectId",
							"type": "uint256"
						},
						{
							"internalType": "uint256",
							"name": "_goal",
							"type": "uint256"
						},
						{
							"internalType": "address",
							"name": "owner",
							"type": "address"
						},
						{
							"internalType": "string",
							"name": "_documentLink",
							"type": "string"
						}
					],
					"name": "createProject",
					"outputs": [],
					"stateMutability": "nonpayable",
					"type": "function"
				},
				{
					"inputs": [
						{
							"internalType": "uint256",
							"name": "charityId",
							"type": "uint256"
						},
						{
							"internalType": "uint256",
							"name": "projectId",
							"type": "uint256"
						},
						{
							"internalType": "uint256",
							"name": "donorId",
							"type": "uint256"
						}
					],
					"name": "donate",
					"outputs": [],
					"stateMutability": "payable",
					"type": "function"
				},
				{
					"inputs": [
						{
							"internalType": "uint256",
							"name": "charityId",
							"type": "uint256"
						},
						{
							"internalType": "uint256",
							"name": "projectId",
							"type": "uint256"
						}
					],
					"name": "getProjectFundDetails",
					"outputs": [
						{
							"internalType": "uint256",
							"name": "",
							"type": "uint256"
						},
						{
							"internalType": "uint256",
							"name": "",
							"type": "uint256"
						},
						{
							"internalType": "uint256",
							"name": "",
							"type": "uint256"
						}
					],
					"stateMutability": "view",
					"type": "function"
				},
				{
					"inputs": [
						{
							"internalType": "uint256",
							"name": "charityId",
							"type": "uint256"
						},
						{
							"internalType": "uint256",
							"name": "projectId",
							"type": "uint256"
						}
					],
					"name": "getProjectStatus",
					"outputs": [
						{
							"internalType": "string",
							"name": "",
							"type": "string"
						}
					],
					"stateMutability": "view",
					"type": "function"
				},
				{
					"inputs": [
						{
							"internalType": "uint256",
							"name": "charityId",
							"type": "uint256"
						},
						{
							"internalType": "uint256",
							"name": "projectId",
							"type": "uint256"
						},
						{
							"internalType": "uint256",
							"name": "donorId",
							"type": "uint256"
						}
					],
					"name": "getRefund",
					"outputs": [],
					"stateMutability": "nonpayable",
					"type": "function"
				},
				{
					"inputs": [],
					"name": "projectStatus",
					"outputs": [
						{
							"internalType": "enum CrowdFund.ProjectStatus",
							"name": "",
							"type": "uint8"
						}
					],
					"stateMutability": "view",
					"type": "function"
				},
				{
					"inputs": [
						{
							"internalType": "enum CrowdFund.ProjectStatus",
							"name": "",
							"type": "uint8"
						}
					],
					"name": "projectStatuses",
					"outputs": [
						{
							"internalType": "string",
							"name": "",
							"type": "string"
						}
					],
					"stateMutability": "view",
					"type": "function"
				},
				{
					"inputs": [
						{
							"internalType": "uint256",
							"name": "",
							"type": "uint256"
						}
					],
					"name": "projects",
					"outputs": [
						{
							"internalType": "uint256",
							"name": "projectId",
							"type": "uint256"
						},
						{
							"internalType": "uint256",
							"name": "minimumAmount",
							"type": "uint256"
						},
						{
							"internalType": "uint256",
							"name": "goal",
							"type": "uint256"
						},
						{
							"internalType": "uint256",
							"name": "raisedAmount",
							"type": "uint256"
						},
						{
							"internalType": "address",
							"name": "owner",
							"type": "address"
						},
						{
							"internalType": "bool",
							"name": "acceptDonation",
							"type": "bool"
						},
						{
							"internalType": "string",
							"name": "documentLink",
							"type": "string"
						},
						{
							"internalType": "enum CrowdFund.ProjectStatus",
							"name": "projectStatus",
							"type": "uint8"
						}
					],
					"stateMutability": "view",
					"type": "function"
				},
				{
					"inputs": [
						{
							"internalType": "uint256",
							"name": "index",
							"type": "uint256"
						},
						{
							"internalType": "string",
							"name": "reason",
							"type": "string"
						}
					],
					"name": "rejectCharity",
					"outputs": [],
					"stateMutability": "nonpayable",
					"type": "function"
				},
				{
					"inputs": [
						{
							"internalType": "uint256",
							"name": "projectId",
							"type": "uint256"
						},
						{
							"internalType": "uint256",
							"name": "charityId",
							"type": "uint256"
						},
						{
							"internalType": "uint8",
							"name": "enumValue",
							"type": "uint8"
						}
					],
					"name": "updateProjectStatus",
					"outputs": [],
					"stateMutability": "nonpayable",
					"type": "function"
				}
			],
			"devdoc": {
				"kind": "dev",
				"methods": {},
				"version": 1
			},
			"evm": {
				"assembly": "    /* \"contracts/CrowdFund.sol\":70:15214  contract CrowdFund {... */\n  mstore(0x40, 0x80)\n    /* \"contracts/CrowdFund.sol\":2892:3447  constructor () {... */\n  callvalue\n  dup1\n  iszero\n  tag_1\n  jumpi\n  0x00\n  dup1\n  revert\ntag_1:\n  pop\n    /* \"contracts/CrowdFund.sol\":2930:2940  msg.sender */\n  caller\n    /* \"contracts/CrowdFund.sol\":2917:2927  boardAdmin */\n  0x02\n  0x00\n    /* \"contracts/CrowdFund.sol\":2917:2940  boardAdmin = msg.sender */\n  0x0100\n  exp\n  dup2\n  sload\n  dup2\n  0xffffffffffffffffffffffffffffffffffffffff\n  mul\n  not\n  and\n  swap1\n  dup4\n  0xffffffffffffffffffffffffffffffffffffffff\n  and\n  mul\n  or\n  swap1\n  sstore\n  pop\n    /* \"contracts/CrowdFund.sol\":2987:2990  WFA */\n  mload(0x40)\n  dup1\n  0x40\n  add\n  0x40\n  mstore\n  dup1\n  0x14\n  dup2\n  mstore\n  0x20\n  add\n  0x57616974696e6720666f7220617070726f76616c000000000000000000000000\n  dup2\n  mstore\n  pop\n    /* \"contracts/CrowdFund.sol\":2950:2965  projectStatuses */\n  0x07\n    /* \"contracts/CrowdFund.sol\":2950:2984  projectStatuses[ProjectStatus.WFA] */\n  0x00\n    /* \"contracts/CrowdFund.sol\":2966:2983  ProjectStatus.WFA */\n  dup1\n    /* \"contracts/CrowdFund.sol\":2950:2984  projectStatuses[ProjectStatus.WFA] */\n  0x09\n  dup2\n  gt\n  iszero\n  tag_4\n  jumpi\n  tag_5\n  tag_6\n  jump\t// in\ntag_5:\ntag_4:\n  0x09\n  dup2\n  gt\n  iszero\n  tag_7\n  jumpi\n  tag_8\n  tag_6\n  jump\t// in\ntag_8:\ntag_7:\n  dup2\n  mstore\n  0x20\n  add\n  swap1\n  dup2\n  mstore\n  0x20\n  add\n  0x00\n  keccak256\n    /* \"contracts/CrowdFund.sol\":2950:2990  projectStatuses[ProjectStatus.WFA] = WFA */\n  swap1\n  dup1\n  mload\n  swap1\n  0x20\n  add\n  swap1\n  tag_9\n  swap3\n  swap2\n  swap1\n  tag_10\n  jump\t// in\ntag_9:\n  pop\n    /* \"contracts/CrowdFund.sol\":3037:3040  APR */\n  mload(0x40)\n  dup1\n  0x40\n  add\n  0x40\n  mstore\n  dup1\n  0x08\n  dup2\n  mstore\n  0x20\n  add\n  0x417070726f766564000000000000000000000000000000000000000000000000\n  dup2\n  mstore\n  pop\n    /* \"contracts/CrowdFund.sol\":3000:3015  projectStatuses */\n  0x07\n    /* \"contracts/CrowdFund.sol\":3000:3034  projectStatuses[ProjectStatus.APR] */\n  0x00\n    /* \"contracts/CrowdFund.sol\":3016:3033  ProjectStatus.APR */\n  0x02\n    /* \"contracts/CrowdFund.sol\":3000:3034  projectStatuses[ProjectStatus.APR] */\n  0x09\n  dup2\n  gt\n  iszero\n  tag_11\n  jumpi\n  tag_12\n  tag_6\n  jump\t// in\ntag_12:\ntag_11:\n  0x09\n  dup2\n  gt\n  iszero\n  tag_13\n  jumpi\n  tag_14\n  tag_6\n  jump\t// in\ntag_14:\ntag_13:\n  dup2\n  mstore\n  0x20\n  add\n  swap1\n  dup2\n  mstore\n  0x20\n  add\n  0x00\n  keccak256\n    /* \"contracts/CrowdFund.sol\":3000:3040  projectStatuses[ProjectStatus.APR] = APR */\n  swap1\n  dup1\n  mload\n  swap1\n  0x20\n  add\n  swap1\n  tag_15\n  swap3\n  swap2\n  swap1\n  tag_10\n  jump\t// in\ntag_15:\n  pop\n    /* \"contracts/CrowdFund.sol\":3087:3090  RJC */\n  mload(0x40)\n  dup1\n  0x40\n  add\n  0x40\n  mstore\n  dup1\n  0x13\n  dup2\n  mstore\n  0x20\n  add\n  0x52656a6563746564206279206368617269747900000000000000000000000000\n  dup2\n  mstore\n  pop\n    /* \"contracts/CrowdFund.sol\":3050:3065  projectStatuses */\n  0x07\n    /* \"contracts/CrowdFund.sol\":3050:3084  projectStatuses[ProjectStatus.RJC] */\n  0x00\n    /* \"contracts/CrowdFund.sol\":3066:3083  ProjectStatus.RJC */\n  0x01\n    /* \"contracts/CrowdFund.sol\":3050:3084  projectStatuses[ProjectStatus.RJC] */\n  0x09\n  dup2\n  gt\n  iszero\n  tag_16\n  jumpi\n  tag_17\n  tag_6\n  jump\t// in\ntag_17:\ntag_16:\n  0x09\n  dup2\n  gt\n  iszero\n  tag_18\n  jumpi\n  tag_19\n  tag_6\n  jump\t// in\ntag_19:\ntag_18:\n  dup2\n  mstore\n  0x20\n  add\n  swap1\n  dup2\n  mstore\n  0x20\n  add\n  0x00\n  keccak256\n    /* \"contracts/CrowdFund.sol\":3050:3090  projectStatuses[ProjectStatus.RJC] = RJC */\n  swap1\n  dup1\n  mload\n  swap1\n  0x20\n  add\n  swap1\n  tag_20\n  swap3\n  swap2\n  swap1\n  tag_10\n  jump\t// in\ntag_20:\n  pop\n    /* \"contracts/CrowdFund.sol\":3137:3140  PGA */\n  mload(0x40)\n  dup1\n  0x40\n  add\n  0x40\n  mstore\n  dup1\n  0x15\n  dup2\n  mstore\n  0x20\n  add\n  0x50726f6a65637420676f616c2061636869657665640000000000000000000000\n  dup2\n  mstore\n  pop\n    /* \"contracts/CrowdFund.sol\":3100:3115  projectStatuses */\n  0x07\n    /* \"contracts/CrowdFund.sol\":3100:3134  projectStatuses[ProjectStatus.PGA] */\n  0x00\n    /* \"contracts/CrowdFund.sol\":3116:3133  ProjectStatus.PGA */\n  0x03\n    /* \"contracts/CrowdFund.sol\":3100:3134  projectStatuses[ProjectStatus.PGA] */\n  0x09\n  dup2\n  gt\n  iszero\n  tag_21\n  jumpi\n  tag_22\n  tag_6\n  jump\t// in\ntag_22:\ntag_21:\n  0x09\n  dup2\n  gt\n  iszero\n  tag_23\n  jumpi\n  tag_24\n  tag_6\n  jump\t// in\ntag_24:\ntag_23:\n  dup2\n  mstore\n  0x20\n  add\n  swap1\n  dup2\n  mstore\n  0x20\n  add\n  0x00\n  keccak256\n    /* \"contracts/CrowdFund.sol\":3100:3140  projectStatuses[ProjectStatus.PGA] = PGA */\n  swap1\n  dup1\n  mload\n  swap1\n  0x20\n  add\n  swap1\n  tag_25\n  swap3\n  swap2\n  swap1\n  tag_10\n  jump\t// in\ntag_25:\n  pop\n    /* \"contracts/CrowdFund.sol\":3187:3190  XRQ */\n  mload(0x40)\n  dup1\n  0x40\n  add\n  0x40\n  mstore\n  dup1\n  0x12\n  dup2\n  mstore\n  0x20\n  add\n  0x45786368616e6765207265717565737465640000000000000000000000000000\n  dup2\n  mstore\n  pop\n    /* \"contracts/CrowdFund.sol\":3150:3165  projectStatuses */\n  0x07\n    /* \"contracts/CrowdFund.sol\":3150:3184  projectStatuses[ProjectStatus.XRQ] */\n  0x00\n    /* \"contracts/CrowdFund.sol\":3166:3183  ProjectStatus.XRQ */\n  0x04\n    /* \"contracts/CrowdFund.sol\":3150:3184  projectStatuses[ProjectStatus.XRQ] */\n  0x09\n  dup2\n  gt\n  iszero\n  tag_26\n  jumpi\n  tag_27\n  tag_6\n  jump\t// in\ntag_27:\ntag_26:\n  0x09\n  dup2\n  gt\n  iszero\n  tag_28\n  jumpi\n  tag_29\n  tag_6\n  jump\t// in\ntag_29:\ntag_28:\n  dup2\n  mstore\n  0x20\n  add\n  swap1\n  dup2\n  mstore\n  0x20\n  add\n  0x00\n  keccak256\n    /* \"contracts/CrowdFund.sol\":3150:3190  projectStatuses[ProjectStatus.XRQ] = XRQ */\n  swap1\n  dup1\n  mload\n  swap1\n  0x20\n  add\n  swap1\n  tag_30\n  swap3\n  swap2\n  swap1\n  tag_10\n  jump\t// in\ntag_30:\n  pop\n    /* \"contracts/CrowdFund.sol\":3237:3240  XRR */\n  mload(0x40)\n  dup1\n  0x40\n  add\n  0x40\n  mstore\n  dup1\n  0x19\n  dup2\n  mstore\n  0x20\n  add\n  0x45786368616e6765207265717565737420726563656976656400000000000000\n  dup2\n  mstore\n  pop\n    /* \"contracts/CrowdFund.sol\":3200:3215  projectStatuses */\n  0x07\n    /* \"contracts/CrowdFund.sol\":3200:3234  projectStatuses[ProjectStatus.XRR] */\n  0x00\n    /* \"contracts/CrowdFund.sol\":3216:3233  ProjectStatus.XRR */\n  0x05\n    /* \"contracts/CrowdFund.sol\":3200:3234  projectStatuses[ProjectStatus.XRR] */\n  0x09\n  dup2\n  gt\n  iszero\n  tag_31\n  jumpi\n  tag_32\n  tag_6\n  jump\t// in\ntag_32:\ntag_31:\n  0x09\n  dup2\n  gt\n  iszero\n  tag_33\n  jumpi\n  tag_34\n  tag_6\n  jump\t// in\ntag_34:\ntag_33:\n  dup2\n  mstore\n  0x20\n  add\n  swap1\n  dup2\n  mstore\n  0x20\n  add\n  0x00\n  keccak256\n    /* \"contracts/CrowdFund.sol\":3200:3240  projectStatuses[ProjectStatus.XRR] = XRR */\n  swap1\n  dup1\n  mload\n  swap1\n  0x20\n  add\n  swap1\n  tag_35\n  swap3\n  swap2\n  swap1\n  tag_10\n  jump\t// in\ntag_35:\n  pop\n    /* \"contracts/CrowdFund.sol\":3287:3290  XRA */\n  mload(0x40)\n  dup1\n  0x40\n  add\n  0x40\n  mstore\n  dup1\n  0x19\n  dup2\n  mstore\n  0x20\n  add\n  0x45786368616e6765207265717565737420617070726f76656400000000000000\n  dup2\n  mstore\n  pop\n    /* \"contracts/CrowdFund.sol\":3250:3265  projectStatuses */\n  0x07\n    /* \"contracts/CrowdFund.sol\":3250:3284  projectStatuses[ProjectStatus.XRA] */\n  0x00\n    /* \"contracts/CrowdFund.sol\":3266:3283  ProjectStatus.XRA */\n  0x06\n    /* \"contracts/CrowdFund.sol\":3250:3284  projectStatuses[ProjectStatus.XRA] */\n  0x09\n  dup2\n  gt\n  iszero\n  tag_36\n  jumpi\n  tag_37\n  tag_6\n  jump\t// in\ntag_37:\ntag_36:\n  0x09\n  dup2\n  gt\n  iszero\n  tag_38\n  jumpi\n  tag_39\n  tag_6\n  jump\t// in\ntag_39:\ntag_38:\n  dup2\n  mstore\n  0x20\n  add\n  swap1\n  dup2\n  mstore\n  0x20\n  add\n  0x00\n  keccak256\n    /* \"contracts/CrowdFund.sol\":3250:3290  projectStatuses[ProjectStatus.XRA] = XRA */\n  swap1\n  dup1\n  mload\n  swap1\n  0x20\n  add\n  swap1\n  tag_40\n  swap3\n  swap2\n  swap1\n  tag_10\n  jump\t// in\ntag_40:\n  pop\n    /* \"contracts/CrowdFund.sol\":3337:3340  XRJ */\n  mload(0x40)\n  dup1\n  0x40\n  add\n  0x40\n  mstore\n  dup1\n  0x19\n  dup2\n  mstore\n  0x20\n  add\n  0x45786368616e676520726571756573742072656a656374656400000000000000\n  dup2\n  mstore\n  pop\n    /* \"contracts/CrowdFund.sol\":3300:3315  projectStatuses */\n  0x07\n    /* \"contracts/CrowdFund.sol\":3300:3334  projectStatuses[ProjectStatus.XRJ] */\n  0x00\n    /* \"contracts/CrowdFund.sol\":3316:3333  ProjectStatus.XRJ */\n  0x07\n    /* \"contracts/CrowdFund.sol\":3300:3334  projectStatuses[ProjectStatus.XRJ] */\n  0x09\n  dup2\n  gt\n  iszero\n  tag_41\n  jumpi\n  tag_42\n  tag_6\n  jump\t// in\ntag_42:\ntag_41:\n  0x09\n  dup2\n  gt\n  iszero\n  tag_43\n  jumpi\n  tag_44\n  tag_6\n  jump\t// in\ntag_44:\ntag_43:\n  dup2\n  mstore\n  0x20\n  add\n  swap1\n  dup2\n  mstore\n  0x20\n  add\n  0x00\n  keccak256\n    /* \"contracts/CrowdFund.sol\":3300:3340  projectStatuses[ProjectStatus.XRJ] = XRJ */\n  swap1\n  dup1\n  mload\n  swap1\n  0x20\n  add\n  swap1\n  tag_45\n  swap3\n  swap2\n  swap1\n  tag_10\n  jump\t// in\ntag_45:\n  pop\n    /* \"contracts/CrowdFund.sol\":3387:3390  RFD */\n  mload(0x40)\n  dup1\n  0x40\n  add\n  0x40\n  mstore\n  dup1\n  0x0e\n  dup2\n  mstore\n  0x20\n  add\n  0x46756e647320726566756e646564000000000000000000000000000000000000\n  dup2\n  mstore\n  pop\n    /* \"contracts/CrowdFund.sol\":3350:3365  projectStatuses */\n  0x07\n    /* \"contracts/CrowdFund.sol\":3350:3384  projectStatuses[ProjectStatus.RFD] */\n  0x00\n    /* \"contracts/CrowdFund.sol\":3366:3383  ProjectStatus.RFD */\n  0x08\n    /* \"contracts/CrowdFund.sol\":3350:3384  projectStatuses[ProjectStatus.RFD] */\n  0x09\n  dup2\n  gt\n  iszero\n  tag_46\n  jumpi\n  tag_47\n  tag_6\n  jump\t// in\ntag_47:\ntag_46:\n  0x09\n  dup2\n  gt\n  iszero\n  tag_48\n  jumpi\n  tag_49\n  tag_6\n  jump\t// in\ntag_49:\ntag_48:\n  dup2\n  mstore\n  0x20\n  add\n  swap1\n  dup2\n  mstore\n  0x20\n  add\n  0x00\n  keccak256\n    /* \"contracts/CrowdFund.sol\":3350:3390  projectStatuses[ProjectStatus.RFD] = RFD */\n  swap1\n  dup1\n  mload\n  swap1\n  0x20\n  add\n  swap1\n  tag_50\n  swap3\n  swap2\n  swap1\n  tag_10\n  jump\t// in\ntag_50:\n  pop\n    /* \"contracts/CrowdFund.sol\":3437:3440  CLD */\n  mload(0x40)\n  dup1\n  0x40\n  add\n  0x40\n  mstore\n  dup1\n  0x0e\n  dup2\n  mstore\n  0x20\n  add\n  0x50726f6a65637420636c6f736564000000000000000000000000000000000000\n  dup2\n  mstore\n  pop\n    /* \"contracts/CrowdFund.sol\":3400:3415  projectStatuses */\n  0x07\n    /* \"contracts/CrowdFund.sol\":3400:3434  projectStatuses[ProjectStatus.CLD] */\n  0x00\n    /* \"contracts/CrowdFund.sol\":3416:3433  ProjectStatus.CLD */\n  0x09\n    /* \"contracts/CrowdFund.sol\":3400:3434  projectStatuses[ProjectStatus.CLD] */\n  dup1\n  dup2\n  gt\n  iszero\n  tag_51\n  jumpi\n  tag_52\n  tag_6\n  jump\t// in\ntag_52:\ntag_51:\n  0x09\n  dup2\n  gt\n  iszero\n  tag_53\n  jumpi\n  tag_54\n  tag_6\n  jump\t// in\ntag_54:\ntag_53:\n  dup2\n  mstore\n  0x20\n  add\n  swap1\n  dup2\n  mstore\n  0x20\n  add\n  0x00\n  keccak256\n    /* \"contracts/CrowdFund.sol\":3400:3440  projectStatuses[ProjectStatus.CLD] = CLD */\n  swap1\n  dup1\n  mload\n  swap1\n  0x20\n  add\n  swap1\n  tag_55\n  swap3\n  swap2\n  swap1\n  tag_10\n  jump\t// in\ntag_55:\n  pop\n    /* \"contracts/CrowdFund.sol\":70:15214  contract CrowdFund {... */\n  jump(tag_56)\ntag_10:\n  dup3\n  dup1\n  sload\n  tag_57\n  swap1\n  tag_58\n  jump\t// in\ntag_57:\n  swap1\n  0x00\n  mstore\n  keccak256(0x00, 0x20)\n  swap1\n  0x1f\n  add\n  0x20\n  swap1\n  div\n  dup2\n  add\n  swap3\n  dup3\n  tag_60\n  jumpi\n  0x00\n  dup6\n  sstore\n  jump(tag_59)\ntag_60:\n  dup3\n  0x1f\n  lt\n  tag_61\n  jumpi\n  dup1\n  mload\n  not(0xff)\n  and\n  dup4\n  dup1\n  add\n  or\n  dup6\n  sstore\n  jump(tag_59)\ntag_61:\n  dup3\n  dup1\n  add\n  0x01\n  add\n  dup6\n  sstore\n  dup3\n  iszero\n  tag_59\n  jumpi\n  swap2\n  dup3\n  add\ntag_62:\n  dup3\n  dup2\n  gt\n  iszero\n  tag_63\n  jumpi\n  dup3\n  mload\n  dup3\n  sstore\n  swap2\n  0x20\n  add\n  swap2\n  swap1\n  0x01\n  add\n  swap1\n  jump(tag_62)\ntag_63:\ntag_59:\n  pop\n  swap1\n  pop\n  tag_64\n  swap2\n  swap1\n  tag_65\n  jump\t// in\ntag_64:\n  pop\n  swap1\n  jump\t// out\ntag_65:\ntag_66:\n  dup1\n  dup3\n  gt\n  iszero\n  tag_67\n  jumpi\n  0x00\n  dup2\n  0x00\n  swap1\n  sstore\n  pop\n  0x01\n  add\n  jump(tag_66)\ntag_67:\n  pop\n  swap1\n  jump\t// out\n    /* \"#utility.yul\":7:327   */\ntag_58:\n    /* \"#utility.yul\":51:57   */\n  0x00\n    /* \"#utility.yul\":88:89   */\n  0x02\n    /* \"#utility.yul\":82:86   */\n  dup3\n    /* \"#utility.yul\":78:90   */\n  div\n    /* \"#utility.yul\":68:90   */\n  swap1\n  pop\n    /* \"#utility.yul\":135:136   */\n  0x01\n    /* \"#utility.yul\":129:133   */\n  dup3\n    /* \"#utility.yul\":125:137   */\n  and\n    /* \"#utility.yul\":156:174   */\n  dup1\n    /* \"#utility.yul\":146:227   */\n  tag_70\n  jumpi\n    /* \"#utility.yul\":212:216   */\n  0x7f\n    /* \"#utility.yul\":204:210   */\n  dup3\n    /* \"#utility.yul\":200:217   */\n  and\n    /* \"#utility.yul\":190:217   */\n  swap2\n  pop\n    /* \"#utility.yul\":146:227   */\ntag_70:\n    /* \"#utility.yul\":274:276   */\n  0x20\n    /* \"#utility.yul\":266:272   */\n  dup3\n    /* \"#utility.yul\":263:277   */\n  lt\n    /* \"#utility.yul\":243:261   */\n  dup2\n    /* \"#utility.yul\":240:278   */\n  eq\n    /* \"#utility.yul\":237:321   */\n  iszero\n  tag_71\n  jumpi\n    /* \"#utility.yul\":293:311   */\n  tag_72\n  tag_73\n  jump\t// in\ntag_72:\n    /* \"#utility.yul\":237:321   */\ntag_71:\n    /* \"#utility.yul\":58:327   */\n  pop\n    /* \"#utility.yul\":7:327   */\n  swap2\n  swap1\n  pop\n  jump\t// out\n    /* \"#utility.yul\":333:513   */\ntag_6:\n    /* \"#utility.yul\":381:458   */\n  0x4e487b7100000000000000000000000000000000000000000000000000000000\n    /* \"#utility.yul\":378:379   */\n  0x00\n    /* \"#utility.yul\":371:459   */\n  mstore\n    /* \"#utility.yul\":478:482   */\n  0x21\n    /* \"#utility.yul\":475:476   */\n  0x04\n    /* \"#utility.yul\":468:483   */\n  mstore\n    /* \"#utility.yul\":502:506   */\n  0x24\n    /* \"#utility.yul\":499:500   */\n  0x00\n    /* \"#utility.yul\":492:507   */\n  revert\n    /* \"#utility.yul\":519:699   */\ntag_73:\n    /* \"#utility.yul\":567:644   */\n  0x4e487b7100000000000000000000000000000000000000000000000000000000\n    /* \"#utility.yul\":564:565   */\n  0x00\n    /* \"#utility.yul\":557:645   */\n  mstore\n    /* \"#utility.yul\":664:668   */\n  0x22\n    /* \"#utility.yul\":661:662   */\n  0x04\n    /* \"#utility.yul\":654:669   */\n  mstore\n    /* \"#utility.yul\":688:692   */\n  0x24\n    /* \"#utility.yul\":685:686   */\n  0x00\n    /* \"#utility.yul\":678:693   */\n  revert\n    /* \"contracts/CrowdFund.sol\":70:15214  contract CrowdFund {... */\ntag_56:\n  dataSize(sub_0)\n  dup1\n  dataOffset(sub_0)\n  0x00\n  codecopy\n  0x00\n  return\nstop\n\nsub_0: assembly {\n        /* \"contracts/CrowdFund.sol\":70:15214  contract CrowdFund {... */\n      mstore(0x40, 0x80)\n      jumpi(tag_1, lt(calldatasize, 0x04))\n      shr(0xe0, calldataload(0x00))\n      dup1\n      0x97ed410c\n      gt\n      tag_17\n      jumpi\n      dup1\n      0xdaf38232\n      gt\n      tag_18\n      jumpi\n      dup1\n      0xdaf38232\n      eq\n      tag_13\n      jumpi\n      dup1\n      0xef6add32\n      eq\n      tag_14\n      jumpi\n      dup1\n      0xef88f48b\n      eq\n      tag_15\n      jumpi\n      dup1\n      0xfb709d2e\n      eq\n      tag_16\n      jumpi\n      jump(tag_1)\n    tag_18:\n      dup1\n      0x97ed410c\n      eq\n      tag_9\n      jumpi\n      dup1\n      0x9d8e7e89\n      eq\n      tag_10\n      jumpi\n      dup1\n      0xa6dbec73\n      eq\n      tag_11\n      jumpi\n      dup1\n      0xb61a7f76\n      eq\n      tag_12\n      jumpi\n      jump(tag_1)\n    tag_17:\n      dup1\n      0x1ed056d8\n      gt\n      tag_19\n      jumpi\n      dup1\n      0x1ed056d8\n      eq\n      tag_5\n      jumpi\n      dup1\n      0x2c3730ef\n      eq\n      tag_6\n      jumpi\n      dup1\n      0x3a8565f0\n      eq\n      tag_7\n      jumpi\n      dup1\n      0x95dcc366\n      eq\n      tag_8\n      jumpi\n      jump(tag_1)\n    tag_19:\n      dup1\n      0x107046bd\n      eq\n      tag_2\n      jumpi\n      dup1\n      0x141020cc\n      eq\n      tag_3\n      jumpi\n      dup1\n      0x1ab33308\n      eq\n      tag_4\n      jumpi\n    tag_1:\n      0x00\n      dup1\n      revert\n        /* \"contracts/CrowdFund.sol\":707:732  Project[] public projects */\n    tag_2:\n      callvalue\n      dup1\n      iszero\n      tag_20\n      jumpi\n      0x00\n      dup1\n      revert\n    tag_20:\n      pop\n      tag_21\n      0x04\n      dup1\n      calldatasize\n      sub\n      dup2\n      add\n      swap1\n      tag_22\n      swap2\n      swap1\n      tag_23\n      jump\t// in\n    tag_22:\n      tag_24\n      jump\t// in\n    tag_21:\n      mload(0x40)\n      tag_25\n      swap9\n      swap8\n      swap7\n      swap6\n      swap5\n      swap4\n      swap3\n      swap2\n      swap1\n      tag_26\n      jump\t// in\n    tag_25:\n      mload(0x40)\n      dup1\n      swap2\n      sub\n      swap1\n      return\n        /* \"contracts/CrowdFund.sol\":3453:4075  function createCharity(uint _charityId, string memory _licenseDocsLink, address charity) public onlyBoardAdmin {... */\n    tag_3:\n      callvalue\n      dup1\n      iszero\n      tag_27\n      jumpi\n      0x00\n      dup1\n      revert\n    tag_27:\n      pop\n      tag_28\n      0x04\n      dup1\n      calldatasize\n      sub\n      dup2\n      add\n      swap1\n      tag_29\n      swap2\n      swap1\n      tag_30\n      jump\t// in\n    tag_29:\n      tag_31\n      jump\t// in\n    tag_28:\n      stop\n        /* \"contracts/CrowdFund.sol\":2618:2652  ProjectStatus public projectStatus */\n    tag_4:\n      callvalue\n      dup1\n      iszero\n      tag_32\n      jumpi\n      0x00\n      dup1\n      revert\n    tag_32:\n      pop\n      tag_33\n      tag_34\n      jump\t// in\n    tag_33:\n      mload(0x40)\n      tag_35\n      swap2\n      swap1\n      tag_36\n      jump\t// in\n    tag_35:\n      mload(0x40)\n      dup1\n      swap2\n      sub\n      swap1\n      return\n        /* \"contracts/CrowdFund.sol\":9800:10496  function getProjectFundDetails(uint charityId, uint projectId) public view returns (... */\n    tag_5:\n      callvalue\n      dup1\n      iszero\n      tag_37\n      jumpi\n      0x00\n      dup1\n      revert\n    tag_37:\n      pop\n      tag_38\n      0x04\n      dup1\n      calldatasize\n      sub\n      dup2\n      add\n      swap1\n      tag_39\n      swap2\n      swap1\n      tag_40\n      jump\t// in\n    tag_39:\n      tag_41\n      jump\t// in\n    tag_38:\n      mload(0x40)\n      tag_42\n      swap4\n      swap3\n      swap2\n      swap1\n      tag_43\n      jump\t// in\n    tag_42:\n      mload(0x40)\n      dup1\n      swap2\n      sub\n      swap1\n      return\n        /* \"contracts/CrowdFund.sol\":6303:7600  function updateProjectStatus(uint projectId, uint charityId, uint8 enumValue) onlyBoardAdmin public {... */\n    tag_6:\n      callvalue\n      dup1\n      iszero\n      tag_44\n      jumpi\n      0x00\n      dup1\n      revert\n    tag_44:\n      pop\n      tag_45\n      0x04\n      dup1\n      calldatasize\n      sub\n      dup2\n      add\n      swap1\n      tag_46\n      swap2\n      swap1\n      tag_47\n      jump\t// in\n    tag_46:\n      tag_48\n      jump\t// in\n    tag_45:\n      stop\n        /* \"contracts/CrowdFund.sol\":7654:9794  function changeProjectStatus(uint projectId, uint charityId, uint8 enumValue) onlyCharity public {... */\n    tag_7:\n      callvalue\n      dup1\n      iszero\n      tag_49\n      jumpi\n      0x00\n      dup1\n      revert\n    tag_49:\n      pop\n      tag_50\n      0x04\n      dup1\n      calldatasize\n      sub\n      dup2\n      add\n      swap1\n      tag_51\n      swap2\n      swap1\n      tag_47\n      jump\t// in\n    tag_51:\n      tag_52\n      jump\t// in\n    tag_50:\n      stop\n        /* \"contracts/CrowdFund.sol\":4829:6074  function createProject(uint charityId, uint _projectId, uint _goal, address owner, string memory _documentLink) onlyCharity public {... */\n    tag_8:\n      callvalue\n      dup1\n      iszero\n      tag_53\n      jumpi\n      0x00\n      dup1\n      revert\n    tag_53:\n      pop\n      tag_54\n      0x04\n      dup1\n      calldatasize\n      sub\n      dup2\n      add\n      swap1\n      tag_55\n      swap2\n      swap1\n      tag_56\n      jump\t// in\n    tag_55:\n      tag_57\n      jump\t// in\n    tag_54:\n      stop\n        /* \"contracts/CrowdFund.sol\":4081:4389  function approveCharity(uint index, uint charityId) public onlyBoardAdmin {... */\n    tag_9:\n      callvalue\n      dup1\n      iszero\n      tag_58\n      jumpi\n      0x00\n      dup1\n      revert\n    tag_58:\n      pop\n      tag_59\n      0x04\n      dup1\n      calldatasize\n      sub\n      dup2\n      add\n      swap1\n      tag_60\n      swap2\n      swap1\n      tag_40\n      jump\t// in\n    tag_60:\n      tag_61\n      jump\t// in\n    tag_59:\n      stop\n        /* \"contracts/CrowdFund.sol\":14677:15212  function getProjectStatus(uint charityId, uint projectId) external view returns (... */\n    tag_10:\n      callvalue\n      dup1\n      iszero\n      tag_62\n      jumpi\n      0x00\n      dup1\n      revert\n    tag_62:\n      pop\n      tag_63\n      0x04\n      dup1\n      calldatasize\n      sub\n      dup2\n      add\n      swap1\n      tag_64\n      swap2\n      swap1\n      tag_40\n      jump\t// in\n    tag_64:\n      tag_65\n      jump\t// in\n    tag_63:\n      mload(0x40)\n      tag_66\n      swap2\n      swap1\n      tag_67\n      jump\t// in\n    tag_66:\n      mload(0x40)\n      dup1\n      swap2\n      sub\n      swap1\n      return\n        /* \"contracts/CrowdFund.sol\":12946:14671  function getRefund(uint charityId, uint projectId, uint donorId) public {... */\n    tag_11:\n      callvalue\n      dup1\n      iszero\n      tag_68\n      jumpi\n      0x00\n      dup1\n      revert\n    tag_68:\n      pop\n      tag_69\n      0x04\n      dup1\n      calldatasize\n      sub\n      dup2\n      add\n      swap1\n      tag_70\n      swap2\n      swap1\n      tag_71\n      jump\t// in\n    tag_70:\n      tag_72\n      jump\t// in\n    tag_69:\n      stop\n        /* \"contracts/CrowdFund.sol\":949:974  address public boardAdmin */\n    tag_12:\n      callvalue\n      dup1\n      iszero\n      tag_73\n      jumpi\n      0x00\n      dup1\n      revert\n    tag_73:\n      pop\n      tag_74\n      tag_75\n      jump\t// in\n    tag_74:\n      mload(0x40)\n      tag_76\n      swap2\n      swap1\n      tag_77\n      jump\t// in\n    tag_76:\n      mload(0x40)\n      dup1\n      swap2\n      sub\n      swap1\n      return\n        /* \"contracts/CrowdFund.sol\":4395:4750  function rejectCharity(uint index, string memory reason) onlyBoardAdmin public {... */\n    tag_13:\n      callvalue\n      dup1\n      iszero\n      tag_78\n      jumpi\n      0x00\n      dup1\n      revert\n    tag_78:\n      pop\n      tag_79\n      0x04\n      dup1\n      calldatasize\n      sub\n      dup2\n      add\n      swap1\n      tag_80\n      swap2\n      swap1\n      tag_81\n      jump\t// in\n    tag_80:\n      tag_82\n      jump\t// in\n    tag_79:\n      stop\n        /* \"contracts/CrowdFund.sol\":2658:2713  mapping(ProjectStatus => string) public projectStatuses */\n    tag_14:\n      callvalue\n      dup1\n      iszero\n      tag_83\n      jumpi\n      0x00\n      dup1\n      revert\n    tag_83:\n      pop\n      tag_84\n      0x04\n      dup1\n      calldatasize\n      sub\n      dup2\n      add\n      swap1\n      tag_85\n      swap2\n      swap1\n      tag_86\n      jump\t// in\n    tag_85:\n      tag_87\n      jump\t// in\n    tag_84:\n      mload(0x40)\n      tag_88\n      swap2\n      swap1\n      tag_67\n      jump\t// in\n    tag_88:\n      mload(0x40)\n      dup1\n      swap2\n      sub\n      swap1\n      return\n        /* \"contracts/CrowdFund.sol\":10502:12940  function donate(uint charityId, uint projectId, uint donorId) public payable {... */\n    tag_15:\n      tag_89\n      0x04\n      dup1\n      calldatasize\n      sub\n      dup2\n      add\n      swap1\n      tag_90\n      swap2\n      swap1\n      tag_71\n      jump\t// in\n    tag_90:\n      tag_91\n      jump\t// in\n    tag_89:\n      stop\n        /* \"contracts/CrowdFund.sol\":789:815  Charity[] public charities */\n    tag_16:\n      callvalue\n      dup1\n      iszero\n      tag_92\n      jumpi\n      0x00\n      dup1\n      revert\n    tag_92:\n      pop\n      tag_93\n      0x04\n      dup1\n      calldatasize\n      sub\n      dup2\n      add\n      swap1\n      tag_94\n      swap2\n      swap1\n      tag_23\n      jump\t// in\n    tag_94:\n      tag_95\n      jump\t// in\n    tag_93:\n      mload(0x40)\n      tag_96\n      swap6\n      swap5\n      swap4\n      swap3\n      swap2\n      swap1\n      tag_97\n      jump\t// in\n    tag_96:\n      mload(0x40)\n      dup1\n      swap2\n      sub\n      swap1\n      return\n        /* \"contracts/CrowdFund.sol\":707:732  Project[] public projects */\n    tag_24:\n      0x00\n      dup2\n      dup2\n      sload\n      dup2\n      lt\n      tag_98\n      jumpi\n      0x00\n      dup1\n      revert\n    tag_98:\n      swap1\n      0x00\n      mstore\n      keccak256(0x00, 0x20)\n      swap1\n      0x07\n      mul\n      add\n      0x00\n      swap2\n      pop\n      swap1\n      pop\n      dup1\n      0x00\n      add\n      sload\n      swap1\n      dup1\n      0x01\n      add\n      sload\n      swap1\n      dup1\n      0x02\n      add\n      sload\n      swap1\n      dup1\n      0x03\n      add\n      sload\n      swap1\n      dup1\n      0x04\n      add\n      0x00\n      swap1\n      sload\n      swap1\n      0x0100\n      exp\n      swap1\n      div\n      0xffffffffffffffffffffffffffffffffffffffff\n      and\n      swap1\n      dup1\n      0x04\n      add\n      0x14\n      swap1\n      sload\n      swap1\n      0x0100\n      exp\n      swap1\n      div\n      0xff\n      and\n      swap1\n      dup1\n      0x05\n      add\n      dup1\n      sload\n      tag_100\n      swap1\n      tag_101\n      jump\t// in\n    tag_100:\n      dup1\n      0x1f\n      add\n      0x20\n      dup1\n      swap2\n      div\n      mul\n      0x20\n      add\n      mload(0x40)\n      swap1\n      dup2\n      add\n      0x40\n      mstore\n      dup1\n      swap3\n      swap2\n      swap1\n      dup2\n      dup2\n      mstore\n      0x20\n      add\n      dup3\n      dup1\n      sload\n      tag_102\n      swap1\n      tag_101\n      jump\t// in\n    tag_102:\n      dup1\n      iszero\n      tag_103\n      jumpi\n      dup1\n      0x1f\n      lt\n      tag_104\n      jumpi\n      0x0100\n      dup1\n      dup4\n      sload\n      div\n      mul\n      dup4\n      mstore\n      swap2\n      0x20\n      add\n      swap2\n      jump(tag_103)\n    tag_104:\n      dup3\n      add\n      swap2\n      swap1\n      0x00\n      mstore\n      keccak256(0x00, 0x20)\n      swap1\n    tag_105:\n      dup2\n      sload\n      dup2\n      mstore\n      swap1\n      0x01\n      add\n      swap1\n      0x20\n      add\n      dup1\n      dup4\n      gt\n      tag_105\n      jumpi\n      dup3\n      swap1\n      sub\n      0x1f\n      and\n      dup3\n      add\n      swap2\n    tag_103:\n      pop\n      pop\n      pop\n      pop\n      pop\n      swap1\n      dup1\n      0x06\n      add\n      0x00\n      swap1\n      sload\n      swap1\n      0x0100\n      exp\n      swap1\n      div\n      0xff\n      and\n      swap1\n      pop\n      dup9\n      jump\t// out\n        /* \"contracts/CrowdFund.sol\":3453:4075  function createCharity(uint _charityId, string memory _licenseDocsLink, address charity) public onlyBoardAdmin {... */\n    tag_31:\n        /* \"contracts/CrowdFund.sol\":2769:2779  boardAdmin */\n      0x02\n      0x00\n      swap1\n      sload\n      swap1\n      0x0100\n      exp\n      swap1\n      div\n      0xffffffffffffffffffffffffffffffffffffffff\n      and\n        /* \"contracts/CrowdFund.sol\":2757:2779  msg.sender==boardAdmin */\n      0xffffffffffffffffffffffffffffffffffffffff\n      and\n        /* \"contracts/CrowdFund.sol\":2757:2767  msg.sender */\n      caller\n        /* \"contracts/CrowdFund.sol\":2757:2779  msg.sender==boardAdmin */\n      0xffffffffffffffffffffffffffffffffffffffff\n      and\n      eq\n        /* \"contracts/CrowdFund.sol\":2780:2790  ONLY_ADMIN */\n      mload(0x40)\n      dup1\n      0x60\n      add\n      0x40\n      mstore\n      dup1\n      0x33\n      dup2\n      mstore\n      0x20\n      add\n      data_0fd57a96508da25173f82e6faabc4b077c36881e53dd1b21682a822e75096b01\n      0x33\n      swap2\n      codecopy\n        /* \"contracts/CrowdFund.sol\":2749:2791  require(msg.sender==boardAdmin,ONLY_ADMIN) */\n      swap1\n      tag_107\n      jumpi\n      mload(0x40)\n      0x08c379a000000000000000000000000000000000000000000000000000000000\n      dup2\n      mstore\n      0x04\n      add\n      tag_108\n      swap2\n      swap1\n      tag_67\n      jump\t// in\n    tag_108:\n      mload(0x40)\n      dup1\n      swap2\n      sub\n      swap1\n      revert\n    tag_107:\n      pop\n        /* \"contracts/CrowdFund.sol\":3771:3796  Charity memory newCharity */\n      0x00\n        /* \"contracts/CrowdFund.sol\":3799:3975  Charity({... */\n      mload(0x40)\n      dup1\n      0xa0\n      add\n      0x40\n      mstore\n      dup1\n        /* \"contracts/CrowdFund.sol\":3831:3841  _charityId */\n      dup6\n        /* \"contracts/CrowdFund.sol\":3799:3975  Charity({... */\n      dup2\n      mstore\n      0x20\n      add\n        /* \"contracts/CrowdFund.sol\":3864:3868  true */\n      0x01\n        /* \"contracts/CrowdFund.sol\":3799:3975  Charity({... */\n      iszero\n      iszero\n      dup2\n      mstore\n      0x20\n      add\n      mload(0x40)\n      dup1\n      0x20\n      add\n      0x40\n      mstore\n      dup1\n      0x00\n      dup2\n      mstore\n      pop\n      dup2\n      mstore\n      0x20\n      add\n        /* \"contracts/CrowdFund.sol\":3921:3937  _licenseDocsLink */\n      dup5\n        /* \"contracts/CrowdFund.sol\":3799:3975  Charity({... */\n      dup2\n      mstore\n      0x20\n      add\n        /* \"contracts/CrowdFund.sol\":3957:3964  charity */\n      dup4\n        /* \"contracts/CrowdFund.sol\":3799:3975  Charity({... */\n      0xffffffffffffffffffffffffffffffffffffffff\n      and\n      dup2\n      mstore\n      pop\n        /* \"contracts/CrowdFund.sol\":3771:3975  Charity memory newCharity = Charity({... */\n      swap1\n      pop\n        /* \"contracts/CrowdFund.sol\":3986:3995  charities */\n      0x01\n        /* \"contracts/CrowdFund.sol\":4001:4011  newCharity */\n      dup2\n        /* \"contracts/CrowdFund.sol\":3986:4012  charities.push(newCharity) */\n      swap1\n      dup1\n      0x01\n      dup2\n      sload\n      add\n      dup1\n      dup3\n      sstore\n      dup1\n      swap2\n      pop\n      pop\n      0x01\n      swap1\n      sub\n      swap1\n      0x00\n      mstore\n      keccak256(0x00, 0x20)\n      swap1\n      0x05\n      mul\n      add\n      0x00\n      swap1\n      swap2\n      swap1\n      swap2\n      swap1\n      swap2\n      pop\n      0x00\n      dup3\n      add\n      mload\n      dup2\n      0x00\n      add\n      sstore\n      0x20\n      dup3\n      add\n      mload\n      dup2\n      0x01\n      add\n      exp(0x0100, 0x00)\n      dup2\n      sload\n      dup2\n      0xff\n      mul\n      not\n      and\n      swap1\n      dup4\n      iszero\n      iszero\n      mul\n      or\n      swap1\n      sstore\n      pop\n      0x40\n      dup3\n      add\n      mload\n      dup2\n      0x02\n      add\n      swap1\n      dup1\n      mload\n      swap1\n      0x20\n      add\n      swap1\n      tag_111\n      swap3\n      swap2\n      swap1\n      tag_112\n      jump\t// in\n    tag_111:\n      pop\n      0x60\n      dup3\n      add\n      mload\n      dup2\n      0x03\n      add\n      swap1\n      dup1\n      mload\n      swap1\n      0x20\n      add\n      swap1\n      tag_113\n      swap3\n      swap2\n      swap1\n      tag_112\n      jump\t// in\n    tag_113:\n      pop\n      0x80\n      dup3\n      add\n      mload\n      dup2\n      0x04\n      add\n      exp(0x0100, 0x00)\n      dup2\n      sload\n      dup2\n      0xffffffffffffffffffffffffffffffffffffffff\n      mul\n      not\n      and\n      swap1\n      dup4\n      0xffffffffffffffffffffffffffffffffffffffff\n      and\n      mul\n      or\n      swap1\n      sstore\n      pop\n      pop\n      pop\n        /* \"contracts/CrowdFund.sol\":4055:4059  true */\n      0x01\n        /* \"contracts/CrowdFund.sol\":4023:4040  approvedCharities */\n      0x05\n        /* \"contracts/CrowdFund.sol\":4023:4052  approvedCharities[_charityId] */\n      0x00\n        /* \"contracts/CrowdFund.sol\":4041:4051  _charityId */\n      dup7\n        /* \"contracts/CrowdFund.sol\":4023:4052  approvedCharities[_charityId] */\n      dup2\n      mstore\n      0x20\n      add\n      swap1\n      dup2\n      mstore\n      0x20\n      add\n      0x00\n      keccak256\n      0x00\n        /* \"contracts/CrowdFund.sol\":4023:4059  approvedCharities[_charityId] = true */\n      0x0100\n      exp\n      dup2\n      sload\n      dup2\n      0xff\n      mul\n      not\n      and\n      swap1\n      dup4\n      iszero\n      iszero\n      mul\n      or\n      swap1\n      sstore\n      pop\n        /* \"contracts/CrowdFund.sol\":3564:4075  {... */\n      pop\n        /* \"contracts/CrowdFund.sol\":3453:4075  function createCharity(uint _charityId, string memory _licenseDocsLink, address charity) public onlyBoardAdmin {... */\n      pop\n      pop\n      pop\n      jump\t// out\n        /* \"contracts/CrowdFund.sol\":2618:2652  ProjectStatus public projectStatus */\n    tag_34:\n      0x06\n      0x00\n      swap1\n      sload\n      swap1\n      0x0100\n      exp\n      swap1\n      div\n      0xff\n      and\n      dup2\n      jump\t// out\n        /* \"contracts/CrowdFund.sol\":9800:10496  function getProjectFundDetails(uint charityId, uint projectId) public view returns (... */\n    tag_41:\n        /* \"contracts/CrowdFund.sol\":9893:9897  uint */\n      0x00\n        /* \"contracts/CrowdFund.sol\":9899:9903  uint */\n      dup1\n        /* \"contracts/CrowdFund.sol\":9905:9909  uint */\n      0x00\n        /* \"contracts/CrowdFund.sol\":9925:9954  Project[] storage projectList */\n      dup1\n        /* \"contracts/CrowdFund.sol\":9957:9972  charityProjects */\n      0x04\n        /* \"contracts/CrowdFund.sol\":9957:9983  charityProjects[charityId] */\n      0x00\n        /* \"contracts/CrowdFund.sol\":9973:9982  charityId */\n      dup8\n        /* \"contracts/CrowdFund.sol\":9957:9983  charityProjects[charityId] */\n      dup2\n      mstore\n      0x20\n      add\n      swap1\n      dup2\n      mstore\n      0x20\n      add\n      0x00\n      keccak256\n        /* \"contracts/CrowdFund.sol\":9925:9983  Project[] storage projectList = charityProjects[charityId] */\n      swap1\n      pop\n        /* \"contracts/CrowdFund.sol\":10026:10027  0 */\n      0x00\n        /* \"contracts/CrowdFund.sol\":10005:10016  projectList */\n      dup2\n        /* \"contracts/CrowdFund.sol\":10005:10023  projectList.length */\n      dup1\n      sload\n      swap1\n      pop\n        /* \"contracts/CrowdFund.sol\":10005:10027  projectList.length > 0 */\n      gt\n        /* \"contracts/CrowdFund.sol\":9997:10052  require(projectList.length > 0,\"Charity doesn't exist\") */\n      tag_115\n      jumpi\n      mload(0x40)\n      0x08c379a000000000000000000000000000000000000000000000000000000000\n      dup2\n      mstore\n      0x04\n      add\n      tag_116\n      swap1\n      tag_117\n      jump\t// in\n    tag_116:\n      mload(0x40)\n      dup1\n      swap2\n      sub\n      swap1\n      revert\n    tag_115:\n        /* \"contracts/CrowdFund.sol\":10071:10077  uint i */\n      0x00\n        /* \"contracts/CrowdFund.sol\":10066:10424  for (uint i=0;i<projectList.length;i++) {... */\n    tag_118:\n        /* \"contracts/CrowdFund.sol\":10082:10093  projectList */\n      dup2\n        /* \"contracts/CrowdFund.sol\":10082:10100  projectList.length */\n      dup1\n      sload\n      swap1\n      pop\n        /* \"contracts/CrowdFund.sol\":10080:10081  i */\n      dup2\n        /* \"contracts/CrowdFund.sol\":10080:10100  i<projectList.length */\n      lt\n        /* \"contracts/CrowdFund.sol\":10066:10424  for (uint i=0;i<projectList.length;i++) {... */\n      iszero\n      tag_119\n      jumpi\n        /* \"contracts/CrowdFund.sol\":10156:10165  projectId */\n      dup6\n        /* \"contracts/CrowdFund.sol\":10128:10139  projectList */\n      dup3\n        /* \"contracts/CrowdFund.sol\":10140:10141  i */\n      dup3\n        /* \"contracts/CrowdFund.sol\":10128:10142  projectList[i] */\n      dup2\n      sload\n      dup2\n      lt\n      tag_121\n      jumpi\n      tag_122\n      tag_123\n      jump\t// in\n    tag_122:\n    tag_121:\n      swap1\n      0x00\n      mstore\n      keccak256(0x00, 0x20)\n      swap1\n      0x07\n      mul\n      add\n        /* \"contracts/CrowdFund.sol\":10128:10152  projectList[i].projectId */\n      0x00\n      add\n      sload\n        /* \"contracts/CrowdFund.sol\":10128:10165  projectList[i].projectId == projectId */\n      eq\n        /* \"contracts/CrowdFund.sol\":10124:10410  if (projectList[i].projectId == projectId) {... */\n      iszero\n      tag_125\n      jumpi\n        /* \"contracts/CrowdFund.sol\":10222:10233  projectList */\n      dup2\n        /* \"contracts/CrowdFund.sol\":10234:10235  i */\n      dup2\n        /* \"contracts/CrowdFund.sol\":10222:10236  projectList[i] */\n      dup2\n      sload\n      dup2\n      lt\n      tag_126\n      jumpi\n      tag_127\n      tag_123\n      jump\t// in\n    tag_127:\n    tag_126:\n      swap1\n      0x00\n      mstore\n      keccak256(0x00, 0x20)\n      swap1\n      0x07\n      mul\n      add\n        /* \"contracts/CrowdFund.sol\":10222:10241  projectList[i].goal */\n      0x02\n      add\n      sload\n        /* \"contracts/CrowdFund.sol\":10267:10278  projectList */\n      dup3\n        /* \"contracts/CrowdFund.sol\":10279:10280  i */\n      dup3\n        /* \"contracts/CrowdFund.sol\":10267:10281  projectList[i] */\n      dup2\n      sload\n      dup2\n      lt\n      tag_129\n      jumpi\n      tag_130\n      tag_123\n      jump\t// in\n    tag_130:\n    tag_129:\n      swap1\n      0x00\n      mstore\n      keccak256(0x00, 0x20)\n      swap1\n      0x07\n      mul\n      add\n        /* \"contracts/CrowdFund.sol\":10267:10294  projectList[i].raisedAmount */\n      0x03\n      add\n      sload\n        /* \"contracts/CrowdFund.sol\":10342:10353  projectList */\n      dup4\n        /* \"contracts/CrowdFund.sol\":10354:10355  i */\n      dup4\n        /* \"contracts/CrowdFund.sol\":10342:10356  projectList[i] */\n      dup2\n      sload\n      dup2\n      lt\n      tag_132\n      jumpi\n      tag_133\n      tag_123\n      jump\t// in\n    tag_133:\n    tag_132:\n      swap1\n      0x00\n      mstore\n      keccak256(0x00, 0x20)\n      swap1\n      0x07\n      mul\n      add\n        /* \"contracts/CrowdFund.sol\":10342:10369  projectList[i].raisedAmount */\n      0x03\n      add\n      sload\n        /* \"contracts/CrowdFund.sol\":10320:10331  projectList */\n      dup5\n        /* \"contracts/CrowdFund.sol\":10332:10333  i */\n      dup5\n        /* \"contracts/CrowdFund.sol\":10320:10334  projectList[i] */\n      dup2\n      sload\n      dup2\n      lt\n      tag_135\n      jumpi\n      tag_136\n      tag_123\n      jump\t// in\n    tag_136:\n    tag_135:\n      swap1\n      0x00\n      mstore\n      keccak256(0x00, 0x20)\n      swap1\n      0x07\n      mul\n      add\n        /* \"contracts/CrowdFund.sol\":10320:10339  projectList[i].goal */\n      0x02\n      add\n      sload\n        /* \"contracts/CrowdFund.sol\":10320:10369  projectList[i].goal - projectList[i].raisedAmount */\n      tag_138\n      swap2\n      swap1\n      tag_139\n      jump\t// in\n    tag_138:\n        /* \"contracts/CrowdFund.sol\":10189:10391  return (... */\n      swap5\n      pop\n      swap5\n      pop\n      swap5\n      pop\n      pop\n      pop\n      jump(tag_114)\n        /* \"contracts/CrowdFund.sol\":10124:10410  if (projectList[i].projectId == projectId) {... */\n    tag_125:\n        /* \"contracts/CrowdFund.sol\":10101:10104  i++ */\n      dup1\n      dup1\n      tag_140\n      swap1\n      tag_141\n      jump\t// in\n    tag_140:\n      swap2\n      pop\n      pop\n        /* \"contracts/CrowdFund.sol\":10066:10424  for (uint i=0;i<projectList.length;i++) {... */\n      jump(tag_118)\n    tag_119:\n      pop\n        /* \"contracts/CrowdFund.sol\":10439:10489  revert(\"No such project exist under this charity\") */\n      mload(0x40)\n      0x08c379a000000000000000000000000000000000000000000000000000000000\n      dup2\n      mstore\n      0x04\n      add\n      tag_142\n      swap1\n      tag_143\n      jump\t// in\n    tag_142:\n      mload(0x40)\n      dup1\n      swap2\n      sub\n      swap1\n      revert\n        /* \"contracts/CrowdFund.sol\":9800:10496  function getProjectFundDetails(uint charityId, uint projectId) public view returns (... */\n    tag_114:\n      swap3\n      pop\n      swap3\n      pop\n      swap3\n      jump\t// out\n        /* \"contracts/CrowdFund.sol\":6303:7600  function updateProjectStatus(uint projectId, uint charityId, uint8 enumValue) onlyBoardAdmin public {... */\n    tag_48:\n        /* \"contracts/CrowdFund.sol\":2769:2779  boardAdmin */\n      0x02\n      0x00\n      swap1\n      sload\n      swap1\n      0x0100\n      exp\n      swap1\n      div\n      0xffffffffffffffffffffffffffffffffffffffff\n      and\n        /* \"contracts/CrowdFund.sol\":2757:2779  msg.sender==boardAdmin */\n      0xffffffffffffffffffffffffffffffffffffffff\n      and\n        /* \"contracts/CrowdFund.sol\":2757:2767  msg.sender */\n      caller\n        /* \"contracts/CrowdFund.sol\":2757:2779  msg.sender==boardAdmin */\n      0xffffffffffffffffffffffffffffffffffffffff\n      and\n      eq\n        /* \"contracts/CrowdFund.sol\":2780:2790  ONLY_ADMIN */\n      mload(0x40)\n      dup1\n      0x60\n      add\n      0x40\n      mstore\n      dup1\n      0x33\n      dup2\n      mstore\n      0x20\n      add\n      data_0fd57a96508da25173f82e6faabc4b077c36881e53dd1b21682a822e75096b01\n      0x33\n      swap2\n      codecopy\n        /* \"contracts/CrowdFund.sol\":2749:2791  require(msg.sender==boardAdmin,ONLY_ADMIN) */\n      swap1\n      tag_145\n      jumpi\n      mload(0x40)\n      0x08c379a000000000000000000000000000000000000000000000000000000000\n      dup2\n      mstore\n      0x04\n      add\n      tag_146\n      swap2\n      swap1\n      tag_67\n      jump\t// in\n    tag_146:\n      mload(0x40)\n      dup1\n      swap2\n      sub\n      swap1\n      revert\n    tag_145:\n      pop\n        /* \"contracts/CrowdFund.sol\":6506:6523  ProjectStatus.WFA */\n      0x00\n        /* \"contracts/CrowdFund.sol\":6478:6523  ProjectStatus(enumValue) != ProjectStatus.WFA */\n      0x09\n      dup2\n      gt\n      iszero\n      tag_148\n      jumpi\n      tag_149\n      tag_150\n      jump\t// in\n    tag_149:\n    tag_148:\n        /* \"contracts/CrowdFund.sol\":6492:6501  enumValue */\n      dup2\n        /* \"contracts/CrowdFund.sol\":6478:6502  ProjectStatus(enumValue) */\n      0xff\n      and\n      0x09\n      dup2\n      gt\n      iszero\n      tag_151\n      jumpi\n      tag_152\n      tag_150\n      jump\t// in\n    tag_152:\n    tag_151:\n        /* \"contracts/CrowdFund.sol\":6478:6523  ProjectStatus(enumValue) != ProjectStatus.WFA */\n      0x09\n      dup2\n      gt\n      iszero\n      tag_153\n      jumpi\n      tag_154\n      tag_150\n      jump\t// in\n    tag_154:\n    tag_153:\n      eq\n      iszero\n        /* \"contracts/CrowdFund.sol\":6524:6531  NO_AUTH */\n      mload(0x40)\n      dup1\n      0x60\n      add\n      0x40\n      mstore\n      dup1\n      0x31\n      dup2\n      mstore\n      0x20\n      add\n      data_5c19b7ff1bcfb320392194574ccc24118e50bba13de42db0a22f05014bb7a7fa\n      0x31\n      swap2\n      codecopy\n        /* \"contracts/CrowdFund.sol\":6470:6532  require(ProjectStatus(enumValue) != ProjectStatus.WFA,NO_AUTH) */\n      swap1\n      tag_155\n      jumpi\n      mload(0x40)\n      0x08c379a000000000000000000000000000000000000000000000000000000000\n      dup2\n      mstore\n      0x04\n      add\n      tag_156\n      swap2\n      swap1\n      tag_67\n      jump\t// in\n    tag_156:\n      mload(0x40)\n      dup1\n      swap2\n      sub\n      swap1\n      revert\n    tag_155:\n      pop\n        /* \"contracts/CrowdFund.sol\":6578:6595  ProjectStatus.APR */\n      0x02\n        /* \"contracts/CrowdFund.sol\":6550:6595  ProjectStatus(enumValue) != ProjectStatus.APR */\n      0x09\n      dup2\n      gt\n      iszero\n      tag_157\n      jumpi\n      tag_158\n      tag_150\n      jump\t// in\n    tag_158:\n    tag_157:\n        /* \"contracts/CrowdFund.sol\":6564:6573  enumValue */\n      dup2\n        /* \"contracts/CrowdFund.sol\":6550:6574  ProjectStatus(enumValue) */\n      0xff\n      and\n      0x09\n      dup2\n      gt\n      iszero\n      tag_159\n      jumpi\n      tag_160\n      tag_150\n      jump\t// in\n    tag_160:\n    tag_159:\n        /* \"contracts/CrowdFund.sol\":6550:6595  ProjectStatus(enumValue) != ProjectStatus.APR */\n      0x09\n      dup2\n      gt\n      iszero\n      tag_161\n      jumpi\n      tag_162\n      tag_150\n      jump\t// in\n    tag_162:\n    tag_161:\n      eq\n      iszero\n        /* \"contracts/CrowdFund.sol\":6596:6603  NO_AUTH */\n      mload(0x40)\n      dup1\n      0x60\n      add\n      0x40\n      mstore\n      dup1\n      0x31\n      dup2\n      mstore\n      0x20\n      add\n      data_5c19b7ff1bcfb320392194574ccc24118e50bba13de42db0a22f05014bb7a7fa\n      0x31\n      swap2\n      codecopy\n        /* \"contracts/CrowdFund.sol\":6542:6604  require(ProjectStatus(enumValue) != ProjectStatus.APR,NO_AUTH) */\n      swap1\n      tag_163\n      jumpi\n      mload(0x40)\n      0x08c379a000000000000000000000000000000000000000000000000000000000\n      dup2\n      mstore\n      0x04\n      add\n      tag_164\n      swap2\n      swap1\n      tag_67\n      jump\t// in\n    tag_164:\n      mload(0x40)\n      dup1\n      swap2\n      sub\n      swap1\n      revert\n    tag_163:\n      pop\n        /* \"contracts/CrowdFund.sol\":6650:6667  ProjectStatus.PGA */\n      0x03\n        /* \"contracts/CrowdFund.sol\":6622:6667  ProjectStatus(enumValue) != ProjectStatus.PGA */\n      0x09\n      dup2\n      gt\n      iszero\n      tag_165\n      jumpi\n      tag_166\n      tag_150\n      jump\t// in\n    tag_166:\n    tag_165:\n        /* \"contracts/CrowdFund.sol\":6636:6645  enumValue */\n      dup2\n        /* \"contracts/CrowdFund.sol\":6622:6646  ProjectStatus(enumValue) */\n      0xff\n      and\n      0x09\n      dup2\n      gt\n      iszero\n      tag_167\n      jumpi\n      tag_168\n      tag_150\n      jump\t// in\n    tag_168:\n    tag_167:\n        /* \"contracts/CrowdFund.sol\":6622:6667  ProjectStatus(enumValue) != ProjectStatus.PGA */\n      0x09\n      dup2\n      gt\n      iszero\n      tag_169\n      jumpi\n      tag_170\n      tag_150\n      jump\t// in\n    tag_170:\n    tag_169:\n      eq\n      iszero\n        /* \"contracts/CrowdFund.sol\":6668:6675  NO_AUTH */\n      mload(0x40)\n      dup1\n      0x60\n      add\n      0x40\n      mstore\n      dup1\n      0x31\n      dup2\n      mstore\n      0x20\n      add\n      data_5c19b7ff1bcfb320392194574ccc24118e50bba13de42db0a22f05014bb7a7fa\n      0x31\n      swap2\n      codecopy\n        /* \"contracts/CrowdFund.sol\":6614:6676  require(ProjectStatus(enumValue) != ProjectStatus.PGA,NO_AUTH) */\n      swap1\n      tag_171\n      jumpi\n      mload(0x40)\n      0x08c379a000000000000000000000000000000000000000000000000000000000\n      dup2\n      mstore\n      0x04\n      add\n      tag_172\n      swap2\n      swap1\n      tag_67\n      jump\t// in\n    tag_172:\n      mload(0x40)\n      dup1\n      swap2\n      sub\n      swap1\n      revert\n    tag_171:\n      pop\n        /* \"contracts/CrowdFund.sol\":6722:6739  ProjectStatus.XRQ */\n      0x04\n        /* \"contracts/CrowdFund.sol\":6694:6739  ProjectStatus(enumValue) != ProjectStatus.XRQ */\n      0x09\n      dup2\n      gt\n      iszero\n      tag_173\n      jumpi\n      tag_174\n      tag_150\n      jump\t// in\n    tag_174:\n    tag_173:\n        /* \"contracts/CrowdFund.sol\":6708:6717  enumValue */\n      dup2\n        /* \"contracts/CrowdFund.sol\":6694:6718  ProjectStatus(enumValue) */\n      0xff\n      and\n      0x09\n      dup2\n      gt\n      iszero\n      tag_175\n      jumpi\n      tag_176\n      tag_150\n      jump\t// in\n    tag_176:\n    tag_175:\n        /* \"contracts/CrowdFund.sol\":6694:6739  ProjectStatus(enumValue) != ProjectStatus.XRQ */\n      0x09\n      dup2\n      gt\n      iszero\n      tag_177\n      jumpi\n      tag_178\n      tag_150\n      jump\t// in\n    tag_178:\n    tag_177:\n      eq\n      iszero\n        /* \"contracts/CrowdFund.sol\":6740:6747  NO_AUTH */\n      mload(0x40)\n      dup1\n      0x60\n      add\n      0x40\n      mstore\n      dup1\n      0x31\n      dup2\n      mstore\n      0x20\n      add\n      data_5c19b7ff1bcfb320392194574ccc24118e50bba13de42db0a22f05014bb7a7fa\n      0x31\n      swap2\n      codecopy\n        /* \"contracts/CrowdFund.sol\":6686:6748  require(ProjectStatus(enumValue) != ProjectStatus.XRQ,NO_AUTH) */\n      swap1\n      tag_179\n      jumpi\n      mload(0x40)\n      0x08c379a000000000000000000000000000000000000000000000000000000000\n      dup2\n      mstore\n      0x04\n      add\n      tag_180\n      swap2\n      swap1\n      tag_67\n      jump\t// in\n    tag_180:\n      mload(0x40)\n      dup1\n      swap2\n      sub\n      swap1\n      revert\n    tag_179:\n      pop\n        /* \"contracts/CrowdFund.sol\":6982:7011  Project[] storage projectList */\n      0x00\n        /* \"contracts/CrowdFund.sol\":7014:7029  charityProjects */\n      0x04\n        /* \"contracts/CrowdFund.sol\":7014:7040  charityProjects[charityId] */\n      0x00\n        /* \"contracts/CrowdFund.sol\":7030:7039  charityId */\n      dup5\n        /* \"contracts/CrowdFund.sol\":7014:7040  charityProjects[charityId] */\n      dup2\n      mstore\n      0x20\n      add\n      swap1\n      dup2\n      mstore\n      0x20\n      add\n      0x00\n      keccak256\n        /* \"contracts/CrowdFund.sol\":6982:7040  Project[] storage projectList = charityProjects[charityId] */\n      swap1\n      pop\n        /* \"contracts/CrowdFund.sol\":7079:7080  0 */\n      0x00\n        /* \"contracts/CrowdFund.sol\":7058:7069  projectList */\n      dup2\n        /* \"contracts/CrowdFund.sol\":7058:7076  projectList.length */\n      dup1\n      sload\n      swap1\n      pop\n        /* \"contracts/CrowdFund.sol\":7058:7080  projectList.length > 0 */\n      gt\n        /* \"contracts/CrowdFund.sol\":7050:7119  require(projectList.length > 0,\"No project exist under this charity\") */\n      tag_181\n      jumpi\n      mload(0x40)\n      0x08c379a000000000000000000000000000000000000000000000000000000000\n      dup2\n      mstore\n      0x04\n      add\n      tag_182\n      swap1\n      tag_183\n      jump\t// in\n    tag_182:\n      mload(0x40)\n      dup1\n      swap2\n      sub\n      swap1\n      revert\n    tag_181:\n        /* \"contracts/CrowdFund.sol\":7134:7140  uint i */\n      0x00\n        /* \"contracts/CrowdFund.sol\":7129:7594  for (uint i=0;i<projectList.length;i++) {... */\n    tag_184:\n        /* \"contracts/CrowdFund.sol\":7145:7156  projectList */\n      dup2\n        /* \"contracts/CrowdFund.sol\":7145:7163  projectList.length */\n      dup1\n      sload\n      swap1\n      pop\n        /* \"contracts/CrowdFund.sol\":7143:7144  i */\n      dup2\n        /* \"contracts/CrowdFund.sol\":7143:7163  i<projectList.length */\n      lt\n        /* \"contracts/CrowdFund.sol\":7129:7594  for (uint i=0;i<projectList.length;i++) {... */\n      iszero\n      tag_185\n      jumpi\n        /* \"contracts/CrowdFund.sol\":7215:7224  projectId */\n      dup5\n        /* \"contracts/CrowdFund.sol\":7187:7198  projectList */\n      dup3\n        /* \"contracts/CrowdFund.sol\":7199:7200  i */\n      dup3\n        /* \"contracts/CrowdFund.sol\":7187:7201  projectList[i] */\n      dup2\n      sload\n      dup2\n      lt\n      tag_187\n      jumpi\n      tag_188\n      tag_123\n      jump\t// in\n    tag_188:\n    tag_187:\n      swap1\n      0x00\n      mstore\n      keccak256(0x00, 0x20)\n      swap1\n      0x07\n      mul\n      add\n        /* \"contracts/CrowdFund.sol\":7187:7211  projectList[i].projectId */\n      0x00\n      add\n      sload\n        /* \"contracts/CrowdFund.sol\":7187:7224  projectList[i].projectId == projectId */\n      eq\n        /* \"contracts/CrowdFund.sol\":7183:7584  if (projectList[i].projectId == projectId) {... */\n      iszero\n      tag_190\n      jumpi\n        /* \"contracts/CrowdFund.sol\":7289:7298  enumValue */\n      dup3\n        /* \"contracts/CrowdFund.sol\":7275:7299  ProjectStatus(enumValue) */\n      0xff\n      and\n      0x09\n      dup2\n      gt\n      iszero\n      tag_191\n      jumpi\n      tag_192\n      tag_150\n      jump\t// in\n    tag_192:\n    tag_191:\n        /* \"contracts/CrowdFund.sol\":7244:7255  projectList */\n      dup3\n        /* \"contracts/CrowdFund.sol\":7256:7257  i */\n      dup3\n        /* \"contracts/CrowdFund.sol\":7244:7258  projectList[i] */\n      dup2\n      sload\n      dup2\n      lt\n      tag_193\n      jumpi\n      tag_194\n      tag_123\n      jump\t// in\n    tag_194:\n    tag_193:\n      swap1\n      0x00\n      mstore\n      keccak256(0x00, 0x20)\n      swap1\n      0x07\n      mul\n      add\n        /* \"contracts/CrowdFund.sol\":7244:7272  projectList[i].projectStatus */\n      0x06\n      add\n      0x00\n        /* \"contracts/CrowdFund.sol\":7244:7299  projectList[i].projectStatus = ProjectStatus(enumValue) */\n      0x0100\n      exp\n      dup2\n      sload\n      dup2\n      0xff\n      mul\n      not\n      and\n      swap1\n      dup4\n      0x09\n      dup2\n      gt\n      iszero\n      tag_196\n      jumpi\n      tag_197\n      tag_150\n      jump\t// in\n    tag_197:\n    tag_196:\n      mul\n      or\n      swap1\n      sstore\n      pop\n        /* \"contracts/CrowdFund.sol\":7472:7545  BoardMessageToCharity(charityId, projectId, projectList[i].projectStatus) */\n      0x42b0281ef1ba120f08ae315789f8639d48731db33eaac502b629a775c997471b\n        /* \"contracts/CrowdFund.sol\":7494:7503  charityId */\n      dup5\n        /* \"contracts/CrowdFund.sol\":7505:7514  projectId */\n      dup7\n        /* \"contracts/CrowdFund.sol\":7516:7527  projectList */\n      dup5\n        /* \"contracts/CrowdFund.sol\":7528:7529  i */\n      dup5\n        /* \"contracts/CrowdFund.sol\":7516:7530  projectList[i] */\n      dup2\n      sload\n      dup2\n      lt\n      tag_198\n      jumpi\n      tag_199\n      tag_123\n      jump\t// in\n    tag_199:\n    tag_198:\n      swap1\n      0x00\n      mstore\n      keccak256(0x00, 0x20)\n      swap1\n      0x07\n      mul\n      add\n        /* \"contracts/CrowdFund.sol\":7516:7544  projectList[i].projectStatus */\n      0x06\n      add\n      0x00\n      swap1\n      sload\n      swap1\n      0x0100\n      exp\n      swap1\n      div\n      0xff\n      and\n        /* \"contracts/CrowdFund.sol\":7472:7545  BoardMessageToCharity(charityId, projectId, projectList[i].projectStatus) */\n      mload(0x40)\n      tag_201\n      swap4\n      swap3\n      swap2\n      swap1\n      tag_202\n      jump\t// in\n    tag_201:\n      mload(0x40)\n      dup1\n      swap2\n      sub\n      swap1\n      log1\n        /* \"contracts/CrowdFund.sol\":7564:7569  break */\n      jump(tag_185)\n        /* \"contracts/CrowdFund.sol\":7183:7584  if (projectList[i].projectId == projectId) {... */\n    tag_190:\n        /* \"contracts/CrowdFund.sol\":7164:7167  i++ */\n      dup1\n      dup1\n      tag_203\n      swap1\n      tag_141\n      jump\t// in\n    tag_203:\n      swap2\n      pop\n      pop\n        /* \"contracts/CrowdFund.sol\":7129:7594  for (uint i=0;i<projectList.length;i++) {... */\n      jump(tag_184)\n    tag_185:\n      pop\n        /* \"contracts/CrowdFund.sol\":6403:7600  {... */\n      pop\n        /* \"contracts/CrowdFund.sol\":6303:7600  function updateProjectStatus(uint projectId, uint charityId, uint8 enumValue) onlyBoardAdmin public {... */\n      pop\n      pop\n      pop\n      jump\t// out\n        /* \"contracts/CrowdFund.sol\":7654:9794  function changeProjectStatus(uint projectId, uint charityId, uint8 enumValue) onlyCharity public {... */\n    tag_52:\n        /* \"contracts/CrowdFund.sol\":2853:2863  boardAdmin */\n      0x02\n      0x00\n      swap1\n      sload\n      swap1\n      0x0100\n      exp\n      swap1\n      div\n      0xffffffffffffffffffffffffffffffffffffffff\n      and\n        /* \"contracts/CrowdFund.sol\":2841:2863  msg.sender!=boardAdmin */\n      0xffffffffffffffffffffffffffffffffffffffff\n      and\n        /* \"contracts/CrowdFund.sol\":2841:2851  msg.sender */\n      caller\n        /* \"contracts/CrowdFund.sol\":2841:2863  msg.sender!=boardAdmin */\n      0xffffffffffffffffffffffffffffffffffffffff\n      and\n      eq\n      iszero\n        /* \"contracts/CrowdFund.sol\":2864:2876  ONLY_CHARITY */\n      mload(0x40)\n      dup1\n      0x60\n      add\n      0x40\n      mstore\n      dup1\n      0x2f\n      dup2\n      mstore\n      0x20\n      add\n      data_ae7511c0e8221605b02a680fd07d0703f28d0f0f32c6884aaca3289d2fe90612\n      0x2f\n      swap2\n      codecopy\n        /* \"contracts/CrowdFund.sol\":2833:2877  require(msg.sender!=boardAdmin,ONLY_CHARITY) */\n      swap1\n      tag_205\n      jumpi\n      mload(0x40)\n      0x08c379a000000000000000000000000000000000000000000000000000000000\n      dup2\n      mstore\n      0x04\n      add\n      tag_206\n      swap2\n      swap1\n      tag_67\n      jump\t// in\n    tag_206:\n      mload(0x40)\n      dup1\n      swap2\n      sub\n      swap1\n      revert\n    tag_205:\n      pop\n        /* \"contracts/CrowdFund.sol\":7770:7780  bool exist */\n      0x00\n        /* \"contracts/CrowdFund.sol\":7835:7852  ProjectStatus.PGA */\n      0x03\n        /* \"contracts/CrowdFund.sol\":7807:7852  ProjectStatus(enumValue) != ProjectStatus.PGA */\n      0x09\n      dup2\n      gt\n      iszero\n      tag_208\n      jumpi\n      tag_209\n      tag_150\n      jump\t// in\n    tag_209:\n    tag_208:\n        /* \"contracts/CrowdFund.sol\":7821:7830  enumValue */\n      dup3\n        /* \"contracts/CrowdFund.sol\":7807:7831  ProjectStatus(enumValue) */\n      0xff\n      and\n      0x09\n      dup2\n      gt\n      iszero\n      tag_210\n      jumpi\n      tag_211\n      tag_150\n      jump\t// in\n    tag_211:\n    tag_210:\n        /* \"contracts/CrowdFund.sol\":7807:7852  ProjectStatus(enumValue) != ProjectStatus.PGA */\n      0x09\n      dup2\n      gt\n      iszero\n      tag_212\n      jumpi\n      tag_213\n      tag_150\n      jump\t// in\n    tag_213:\n    tag_212:\n      eq\n      iszero\n        /* \"contracts/CrowdFund.sol\":7853:7860  NO_AUTH */\n      mload(0x40)\n      dup1\n      0x60\n      add\n      0x40\n      mstore\n      dup1\n      0x31\n      dup2\n      mstore\n      0x20\n      add\n      data_5c19b7ff1bcfb320392194574ccc24118e50bba13de42db0a22f05014bb7a7fa\n      0x31\n      swap2\n      codecopy\n        /* \"contracts/CrowdFund.sol\":7799:7861  require(ProjectStatus(enumValue) != ProjectStatus.PGA,NO_AUTH) */\n      swap1\n      tag_214\n      jumpi\n      mload(0x40)\n      0x08c379a000000000000000000000000000000000000000000000000000000000\n      dup2\n      mstore\n      0x04\n      add\n      tag_215\n      swap2\n      swap1\n      tag_67\n      jump\t// in\n    tag_215:\n      mload(0x40)\n      dup1\n      swap2\n      sub\n      swap1\n      revert\n    tag_214:\n      pop\n        /* \"contracts/CrowdFund.sol\":7907:7924  ProjectStatus.XRR */\n      0x05\n        /* \"contracts/CrowdFund.sol\":7879:7924  ProjectStatus(enumValue) != ProjectStatus.XRR */\n      0x09\n      dup2\n      gt\n      iszero\n      tag_216\n      jumpi\n      tag_217\n      tag_150\n      jump\t// in\n    tag_217:\n    tag_216:\n        /* \"contracts/CrowdFund.sol\":7893:7902  enumValue */\n      dup3\n        /* \"contracts/CrowdFund.sol\":7879:7903  ProjectStatus(enumValue) */\n      0xff\n      and\n      0x09\n      dup2\n      gt\n      iszero\n      tag_218\n      jumpi\n      tag_219\n      tag_150\n      jump\t// in\n    tag_219:\n    tag_218:\n        /* \"contracts/CrowdFund.sol\":7879:7924  ProjectStatus(enumValue) != ProjectStatus.XRR */\n      0x09\n      dup2\n      gt\n      iszero\n      tag_220\n      jumpi\n      tag_221\n      tag_150\n      jump\t// in\n    tag_221:\n    tag_220:\n      eq\n      iszero\n        /* \"contracts/CrowdFund.sol\":7925:7932  NO_AUTH */\n      mload(0x40)\n      dup1\n      0x60\n      add\n      0x40\n      mstore\n      dup1\n      0x31\n      dup2\n      mstore\n      0x20\n      add\n      data_5c19b7ff1bcfb320392194574ccc24118e50bba13de42db0a22f05014bb7a7fa\n      0x31\n      swap2\n      codecopy\n        /* \"contracts/CrowdFund.sol\":7871:7933  require(ProjectStatus(enumValue) != ProjectStatus.XRR,NO_AUTH) */\n      swap1\n      tag_222\n      jumpi\n      mload(0x40)\n      0x08c379a000000000000000000000000000000000000000000000000000000000\n      dup2\n      mstore\n      0x04\n      add\n      tag_223\n      swap2\n      swap1\n      tag_67\n      jump\t// in\n    tag_223:\n      mload(0x40)\n      dup1\n      swap2\n      sub\n      swap1\n      revert\n    tag_222:\n      pop\n        /* \"contracts/CrowdFund.sol\":7979:7996  ProjectStatus.XRA */\n      0x06\n        /* \"contracts/CrowdFund.sol\":7951:7996  ProjectStatus(enumValue) != ProjectStatus.XRA */\n      0x09\n      dup2\n      gt\n      iszero\n      tag_224\n      jumpi\n      tag_225\n      tag_150\n      jump\t// in\n    tag_225:\n    tag_224:\n        /* \"contracts/CrowdFund.sol\":7965:7974  enumValue */\n      dup3\n        /* \"contracts/CrowdFund.sol\":7951:7975  ProjectStatus(enumValue) */\n      0xff\n      and\n      0x09\n      dup2\n      gt\n      iszero\n      tag_226\n      jumpi\n      tag_227\n      tag_150\n      jump\t// in\n    tag_227:\n    tag_226:\n        /* \"contracts/CrowdFund.sol\":7951:7996  ProjectStatus(enumValue) != ProjectStatus.XRA */\n      0x09\n      dup2\n      gt\n      iszero\n      tag_228\n      jumpi\n      tag_229\n      tag_150\n      jump\t// in\n    tag_229:\n    tag_228:\n      eq\n      iszero\n        /* \"contracts/CrowdFund.sol\":7997:8004  NO_AUTH */\n      mload(0x40)\n      dup1\n      0x60\n      add\n      0x40\n      mstore\n      dup1\n      0x31\n      dup2\n      mstore\n      0x20\n      add\n      data_5c19b7ff1bcfb320392194574ccc24118e50bba13de42db0a22f05014bb7a7fa\n      0x31\n      swap2\n      codecopy\n        /* \"contracts/CrowdFund.sol\":7943:8005  require(ProjectStatus(enumValue) != ProjectStatus.XRA,NO_AUTH) */\n      swap1\n      tag_230\n      jumpi\n      mload(0x40)\n      0x08c379a000000000000000000000000000000000000000000000000000000000\n      dup2\n      mstore\n      0x04\n      add\n      tag_231\n      swap2\n      swap1\n      tag_67\n      jump\t// in\n    tag_231:\n      mload(0x40)\n      dup1\n      swap2\n      sub\n      swap1\n      revert\n    tag_230:\n      pop\n        /* \"contracts/CrowdFund.sol\":8090:8119  Project[] storage projectList */\n      0x00\n        /* \"contracts/CrowdFund.sol\":8122:8137  charityProjects */\n      0x04\n        /* \"contracts/CrowdFund.sol\":8122:8148  charityProjects[charityId] */\n      0x00\n        /* \"contracts/CrowdFund.sol\":8138:8147  charityId */\n      dup6\n        /* \"contracts/CrowdFund.sol\":8122:8148  charityProjects[charityId] */\n      dup2\n      mstore\n      0x20\n      add\n      swap1\n      dup2\n      mstore\n      0x20\n      add\n      0x00\n      keccak256\n        /* \"contracts/CrowdFund.sol\":8090:8148  Project[] storage projectList = charityProjects[charityId] */\n      swap1\n      pop\n        /* \"contracts/CrowdFund.sol\":8187:8188  0 */\n      0x00\n        /* \"contracts/CrowdFund.sol\":8166:8177  projectList */\n      dup2\n        /* \"contracts/CrowdFund.sol\":8166:8184  projectList.length */\n      dup1\n      sload\n      swap1\n      pop\n        /* \"contracts/CrowdFund.sol\":8166:8188  projectList.length > 0 */\n      gt\n        /* \"contracts/CrowdFund.sol\":8158:8213  require(projectList.length > 0,\"Project doesn't exist\") */\n      tag_232\n      jumpi\n      mload(0x40)\n      0x08c379a000000000000000000000000000000000000000000000000000000000\n      dup2\n      mstore\n      0x04\n      add\n      tag_233\n      swap1\n      tag_234\n      jump\t// in\n    tag_233:\n      mload(0x40)\n      dup1\n      swap2\n      sub\n      swap1\n      revert\n    tag_232:\n        /* \"contracts/CrowdFund.sol\":8229:8235  uint i */\n      0x00\n        /* \"contracts/CrowdFund.sol\":8224:9788  for (uint i=0;i<projectList.length;i++) {... */\n    tag_235:\n        /* \"contracts/CrowdFund.sol\":8240:8251  projectList */\n      dup2\n        /* \"contracts/CrowdFund.sol\":8240:8258  projectList.length */\n      dup1\n      sload\n      swap1\n      pop\n        /* \"contracts/CrowdFund.sol\":8238:8239  i */\n      dup2\n        /* \"contracts/CrowdFund.sol\":8238:8258  i<projectList.length */\n      lt\n        /* \"contracts/CrowdFund.sol\":8224:9788  for (uint i=0;i<projectList.length;i++) {... */\n      iszero\n      tag_236\n      jumpi\n        /* \"contracts/CrowdFund.sol\":8310:8319  projectId */\n      dup6\n        /* \"contracts/CrowdFund.sol\":8282:8293  projectList */\n      dup3\n        /* \"contracts/CrowdFund.sol\":8294:8295  i */\n      dup3\n        /* \"contracts/CrowdFund.sol\":8282:8296  projectList[i] */\n      dup2\n      sload\n      dup2\n      lt\n      tag_238\n      jumpi\n      tag_239\n      tag_123\n      jump\t// in\n    tag_239:\n    tag_238:\n      swap1\n      0x00\n      mstore\n      keccak256(0x00, 0x20)\n      swap1\n      0x07\n      mul\n      add\n        /* \"contracts/CrowdFund.sol\":8282:8306  projectList[i].projectId */\n      0x00\n      add\n      sload\n        /* \"contracts/CrowdFund.sol\":8282:8319  projectList[i].projectId == projectId */\n      eq\n        /* \"contracts/CrowdFund.sol\":8278:9731  if (projectList[i].projectId == projectId) {... */\n      iszero\n      tag_241\n      jumpi\n        /* \"contracts/CrowdFund.sol\":8364:8368  true */\n      0x01\n        /* \"contracts/CrowdFund.sol\":8356:8368  exist = true */\n      swap3\n      pop\n        /* \"contracts/CrowdFund.sol\":8419:8424  false */\n      0x00\n        /* \"contracts/CrowdFund.sol\":8387:8398  projectList */\n      dup3\n        /* \"contracts/CrowdFund.sol\":8399:8400  i */\n      dup3\n        /* \"contracts/CrowdFund.sol\":8387:8401  projectList[i] */\n      dup2\n      sload\n      dup2\n      lt\n      tag_242\n      jumpi\n      tag_243\n      tag_123\n      jump\t// in\n    tag_243:\n    tag_242:\n      swap1\n      0x00\n      mstore\n      keccak256(0x00, 0x20)\n      swap1\n      0x07\n      mul\n      add\n        /* \"contracts/CrowdFund.sol\":8387:8416  projectList[i].acceptDonation */\n      0x04\n      add\n      0x14\n        /* \"contracts/CrowdFund.sol\":8387:8424  projectList[i].acceptDonation = false */\n      0x0100\n      exp\n      dup2\n      sload\n      dup2\n      0xff\n      mul\n      not\n      and\n      swap1\n      dup4\n      iszero\n      iszero\n      mul\n      or\n      swap1\n      sstore\n      pop\n        /* \"contracts/CrowdFund.sol\":8475:8492  ProjectStatus.XRJ */\n      0x07\n        /* \"contracts/CrowdFund.sol\":8447:8492  ProjectStatus(enumValue) == ProjectStatus.XRJ */\n      0x09\n      dup2\n      gt\n      iszero\n      tag_245\n      jumpi\n      tag_246\n      tag_150\n      jump\t// in\n    tag_246:\n    tag_245:\n        /* \"contracts/CrowdFund.sol\":8461:8470  enumValue */\n      dup5\n        /* \"contracts/CrowdFund.sol\":8447:8471  ProjectStatus(enumValue) */\n      0xff\n      and\n      0x09\n      dup2\n      gt\n      iszero\n      tag_247\n      jumpi\n      tag_248\n      tag_150\n      jump\t// in\n    tag_248:\n    tag_247:\n        /* \"contracts/CrowdFund.sol\":8447:8492  ProjectStatus(enumValue) == ProjectStatus.XRJ */\n      0x09\n      dup2\n      gt\n      iszero\n      tag_249\n      jumpi\n      tag_250\n      tag_150\n      jump\t// in\n    tag_250:\n    tag_249:\n      eq\n        /* \"contracts/CrowdFund.sol\":8447:8561  ProjectStatus(enumValue) == ProjectStatus.XRJ ||... */\n      dup1\n      tag_251\n      jumpi\n      pop\n        /* \"contracts/CrowdFund.sol\":8544:8561  ProjectStatus.XRA */\n      0x06\n        /* \"contracts/CrowdFund.sol\":8516:8561  ProjectStatus(enumValue) == ProjectStatus.XRA */\n      0x09\n      dup2\n      gt\n      iszero\n      tag_252\n      jumpi\n      tag_253\n      tag_150\n      jump\t// in\n    tag_253:\n    tag_252:\n        /* \"contracts/CrowdFund.sol\":8530:8539  enumValue */\n      dup5\n        /* \"contracts/CrowdFund.sol\":8516:8540  ProjectStatus(enumValue) */\n      0xff\n      and\n      0x09\n      dup2\n      gt\n      iszero\n      tag_254\n      jumpi\n      tag_255\n      tag_150\n      jump\t// in\n    tag_255:\n    tag_254:\n        /* \"contracts/CrowdFund.sol\":8516:8561  ProjectStatus(enumValue) == ProjectStatus.XRA */\n      0x09\n      dup2\n      gt\n      iszero\n      tag_256\n      jumpi\n      tag_257\n      tag_150\n      jump\t// in\n    tag_257:\n    tag_256:\n      eq\n        /* \"contracts/CrowdFund.sol\":8447:8561  ProjectStatus(enumValue) == ProjectStatus.XRJ ||... */\n    tag_251:\n        /* \"contracts/CrowdFund.sol\":8443:9717  if (ProjectStatus(enumValue) == ProjectStatus.XRJ ||... */\n      iszero\n      tag_258\n      jumpi\n        /* \"contracts/CrowdFund.sol\":8665:8737  CharityMessageToReceiver(charityId, projectId, ProjectStatus(enumValue)) */\n      0x2de098063448dbe8b26fa82794cd68cf748edb4f3e2cc43166e3ad659757019e\n        /* \"contracts/CrowdFund.sol\":8690:8699  charityId */\n      dup6\n        /* \"contracts/CrowdFund.sol\":8701:8710  projectId */\n      dup8\n        /* \"contracts/CrowdFund.sol\":8726:8735  enumValue */\n      dup7\n        /* \"contracts/CrowdFund.sol\":8712:8736  ProjectStatus(enumValue) */\n      0xff\n      and\n      0x09\n      dup2\n      gt\n      iszero\n      tag_259\n      jumpi\n      tag_260\n      tag_150\n      jump\t// in\n    tag_260:\n    tag_259:\n        /* \"contracts/CrowdFund.sol\":8665:8737  CharityMessageToReceiver(charityId, projectId, ProjectStatus(enumValue)) */\n      mload(0x40)\n      tag_261\n      swap4\n      swap3\n      swap2\n      swap1\n      tag_202\n      jump\t// in\n    tag_261:\n      mload(0x40)\n      dup1\n      swap2\n      sub\n      swap1\n      log1\n        /* \"contracts/CrowdFund.sol\":8840:8857  ProjectStatus.XRJ */\n      0x07\n        /* \"contracts/CrowdFund.sol\":8812:8857  ProjectStatus(enumValue) == ProjectStatus.XRJ */\n      0x09\n      dup2\n      gt\n      iszero\n      tag_262\n      jumpi\n      tag_263\n      tag_150\n      jump\t// in\n    tag_263:\n    tag_262:\n        /* \"contracts/CrowdFund.sol\":8826:8835  enumValue */\n      dup5\n        /* \"contracts/CrowdFund.sol\":8812:8836  ProjectStatus(enumValue) */\n      0xff\n      and\n      0x09\n      dup2\n      gt\n      iszero\n      tag_264\n      jumpi\n      tag_265\n      tag_150\n      jump\t// in\n    tag_265:\n    tag_264:\n        /* \"contracts/CrowdFund.sol\":8812:8857  ProjectStatus(enumValue) == ProjectStatus.XRJ */\n      0x09\n      dup2\n      gt\n      iszero\n      tag_266\n      jumpi\n      tag_267\n      tag_150\n      jump\t// in\n    tag_267:\n    tag_266:\n      eq\n        /* \"contracts/CrowdFund.sol\":8808:9291  if (ProjectStatus(enumValue) == ProjectStatus.XRJ) {... */\n      iszero\n      tag_268\n      jumpi\n      jump(tag_269)\n    tag_268:\n        /* \"contracts/CrowdFund.sol\":9074:9091  ProjectStatus.XRA */\n      0x06\n        /* \"contracts/CrowdFund.sol\":9046:9091  ProjectStatus(enumValue) == ProjectStatus.XRA */\n      0x09\n      dup2\n      gt\n      iszero\n      tag_270\n      jumpi\n      tag_271\n      tag_150\n      jump\t// in\n    tag_271:\n    tag_270:\n        /* \"contracts/CrowdFund.sol\":9060:9069  enumValue */\n      dup5\n        /* \"contracts/CrowdFund.sol\":9046:9070  ProjectStatus(enumValue) */\n      0xff\n      and\n      0x09\n      dup2\n      gt\n      iszero\n      tag_272\n      jumpi\n      tag_273\n      tag_150\n      jump\t// in\n    tag_273:\n    tag_272:\n        /* \"contracts/CrowdFund.sol\":9046:9091  ProjectStatus(enumValue) == ProjectStatus.XRA */\n      0x09\n      dup2\n      gt\n      iszero\n      tag_274\n      jumpi\n      tag_275\n      tag_150\n      jump\t// in\n    tag_275:\n    tag_274:\n      pop\n      pop\n        /* \"contracts/CrowdFund.sol\":8808:9291  if (ProjectStatus(enumValue) == ProjectStatus.XRJ) {... */\n    tag_269:\n        /* \"contracts/CrowdFund.sol\":8443:9717  if (ProjectStatus(enumValue) == ProjectStatus.XRJ ||... */\n      jump(tag_277)\n    tag_258:\n        /* \"contracts/CrowdFund.sol\":9432:9441  enumValue */\n      dup4\n        /* \"contracts/CrowdFund.sol\":9418:9442  ProjectStatus(enumValue) */\n      0xff\n      and\n      0x09\n      dup2\n      gt\n      iszero\n      tag_278\n      jumpi\n      tag_279\n      tag_150\n      jump\t// in\n    tag_279:\n    tag_278:\n        /* \"contracts/CrowdFund.sol\":9387:9398  projectList */\n      dup3\n        /* \"contracts/CrowdFund.sol\":9399:9400  i */\n      dup3\n        /* \"contracts/CrowdFund.sol\":9387:9401  projectList[i] */\n      dup2\n      sload\n      dup2\n      lt\n      tag_280\n      jumpi\n      tag_281\n      tag_123\n      jump\t// in\n    tag_281:\n    tag_280:\n      swap1\n      0x00\n      mstore\n      keccak256(0x00, 0x20)\n      swap1\n      0x07\n      mul\n      add\n        /* \"contracts/CrowdFund.sol\":9387:9415  projectList[i].projectStatus */\n      0x06\n      add\n      0x00\n        /* \"contracts/CrowdFund.sol\":9387:9442  projectList[i].projectStatus = ProjectStatus(enumValue) */\n      0x0100\n      exp\n      dup2\n      sload\n      dup2\n      0xff\n      mul\n      not\n      and\n      swap1\n      dup4\n      0x09\n      dup2\n      gt\n      iszero\n      tag_283\n      jumpi\n      tag_284\n      tag_150\n      jump\t// in\n    tag_284:\n    tag_283:\n      mul\n      or\n      swap1\n      sstore\n      pop\n        /* \"contracts/CrowdFund.sol\":9497:9514  ProjectStatus.XRQ */\n      0x04\n        /* \"contracts/CrowdFund.sol\":9469:9514  ProjectStatus(enumValue) == ProjectStatus.XRQ */\n      0x09\n      dup2\n      gt\n      iszero\n      tag_285\n      jumpi\n      tag_286\n      tag_150\n      jump\t// in\n    tag_286:\n    tag_285:\n        /* \"contracts/CrowdFund.sol\":9483:9492  enumValue */\n      dup5\n        /* \"contracts/CrowdFund.sol\":9469:9493  ProjectStatus(enumValue) */\n      0xff\n      and\n      0x09\n      dup2\n      gt\n      iszero\n      tag_287\n      jumpi\n      tag_288\n      tag_150\n      jump\t// in\n    tag_288:\n    tag_287:\n        /* \"contracts/CrowdFund.sol\":9469:9514  ProjectStatus(enumValue) == ProjectStatus.XRQ */\n      0x09\n      dup2\n      gt\n      iszero\n      tag_289\n      jumpi\n      tag_290\n      tag_150\n      jump\t// in\n    tag_290:\n    tag_289:\n      eq\n        /* \"contracts/CrowdFund.sol\":9465:9699  if (ProjectStatus(enumValue) == ProjectStatus.XRQ) {... */\n      iszero\n      tag_291\n      jumpi\n        /* \"contracts/CrowdFund.sol\":9614:9676  CharityMessageToBoard(charityId, projectId, ProjectStatus.XRQ) */\n      0xd49fc9fa26fa9fc112efd004acb9eeabf80810373d2cbb1a7884d4d64e8e8d2b\n        /* \"contracts/CrowdFund.sol\":9636:9645  charityId */\n      dup6\n        /* \"contracts/CrowdFund.sol\":9647:9656  projectId */\n      dup8\n        /* \"contracts/CrowdFund.sol\":9658:9675  ProjectStatus.XRQ */\n      0x04\n        /* \"contracts/CrowdFund.sol\":9614:9676  CharityMessageToBoard(charityId, projectId, ProjectStatus.XRQ) */\n      mload(0x40)\n      tag_292\n      swap4\n      swap3\n      swap2\n      swap1\n      tag_202\n      jump\t// in\n    tag_292:\n      mload(0x40)\n      dup1\n      swap2\n      sub\n      swap1\n      log1\n        /* \"contracts/CrowdFund.sol\":9465:9699  if (ProjectStatus(enumValue) == ProjectStatus.XRQ) {... */\n    tag_291:\n        /* \"contracts/CrowdFund.sol\":8443:9717  if (ProjectStatus(enumValue) == ProjectStatus.XRJ ||... */\n    tag_277:\n        /* \"contracts/CrowdFund.sol\":8278:9731  if (projectList[i].projectId == projectId) {... */\n    tag_241:\n        /* \"contracts/CrowdFund.sol\":9749:9754  exist */\n      dup3\n        /* \"contracts/CrowdFund.sol\":9745:9777  if (exist)... */\n      iszero\n      tag_293\n      jumpi\n        /* \"contracts/CrowdFund.sol\":9772:9777  break */\n      jump(tag_236)\n        /* \"contracts/CrowdFund.sol\":9745:9777  if (exist)... */\n    tag_293:\n        /* \"contracts/CrowdFund.sol\":8259:8262  i++ */\n      dup1\n      dup1\n      tag_294\n      swap1\n      tag_141\n      jump\t// in\n    tag_294:\n      swap2\n      pop\n      pop\n        /* \"contracts/CrowdFund.sol\":8224:9788  for (uint i=0;i<projectList.length;i++) {... */\n      jump(tag_235)\n    tag_236:\n      pop\n        /* \"contracts/CrowdFund.sol\":7751:9794  {... */\n      pop\n      pop\n        /* \"contracts/CrowdFund.sol\":7654:9794  function changeProjectStatus(uint projectId, uint charityId, uint8 enumValue) onlyCharity public {... */\n      pop\n      pop\n      pop\n      jump\t// out\n        /* \"contracts/CrowdFund.sol\":4829:6074  function createProject(uint charityId, uint _projectId, uint _goal, address owner, string memory _documentLink) onlyCharity public {... */\n    tag_57:\n        /* \"contracts/CrowdFund.sol\":2853:2863  boardAdmin */\n      0x02\n      0x00\n      swap1\n      sload\n      swap1\n      0x0100\n      exp\n      swap1\n      div\n      0xffffffffffffffffffffffffffffffffffffffff\n      and\n        /* \"contracts/CrowdFund.sol\":2841:2863  msg.sender!=boardAdmin */\n      0xffffffffffffffffffffffffffffffffffffffff\n      and\n        /* \"contracts/CrowdFund.sol\":2841:2851  msg.sender */\n      caller\n        /* \"contracts/CrowdFund.sol\":2841:2863  msg.sender!=boardAdmin */\n      0xffffffffffffffffffffffffffffffffffffffff\n      and\n      eq\n      iszero\n        /* \"contracts/CrowdFund.sol\":2864:2876  ONLY_CHARITY */\n      mload(0x40)\n      dup1\n      0x60\n      add\n      0x40\n      mstore\n      dup1\n      0x2f\n      dup2\n      mstore\n      0x20\n      add\n      data_ae7511c0e8221605b02a680fd07d0703f28d0f0f32c6884aaca3289d2fe90612\n      0x2f\n      swap2\n      codecopy\n        /* \"contracts/CrowdFund.sol\":2833:2877  require(msg.sender!=boardAdmin,ONLY_CHARITY) */\n      swap1\n      tag_296\n      jumpi\n      mload(0x40)\n      0x08c379a000000000000000000000000000000000000000000000000000000000\n      dup2\n      mstore\n      0x04\n      add\n      tag_297\n      swap2\n      swap1\n      tag_67\n      jump\t// in\n    tag_297:\n      mload(0x40)\n      dup1\n      swap2\n      sub\n      swap1\n      revert\n    tag_296:\n      pop\n        /* \"contracts/CrowdFund.sol\":4978:4995  approvedCharities */\n      0x05\n        /* \"contracts/CrowdFund.sol\":4978:5006  approvedCharities[charityId] */\n      0x00\n        /* \"contracts/CrowdFund.sol\":4996:5005  charityId */\n      dup7\n        /* \"contracts/CrowdFund.sol\":4978:5006  approvedCharities[charityId] */\n      dup2\n      mstore\n      0x20\n      add\n      swap1\n      dup2\n      mstore\n      0x20\n      add\n      0x00\n      keccak256\n      0x00\n      swap1\n      sload\n      swap1\n      0x0100\n      exp\n      swap1\n      div\n      0xff\n      and\n        /* \"contracts/CrowdFund.sol\":4970:5037  require(approvedCharities[charityId],\"Charity is not yet approved\") */\n      tag_299\n      jumpi\n      mload(0x40)\n      0x08c379a000000000000000000000000000000000000000000000000000000000\n      dup2\n      mstore\n      0x04\n      add\n      tag_300\n      swap1\n      tag_301\n      jump\t// in\n    tag_300:\n      mload(0x40)\n      dup1\n      swap2\n      sub\n      swap1\n      revert\n    tag_299:\n        /* \"contracts/CrowdFund.sol\":5052:5077  Project memory newProject */\n      0x00\n        /* \"contracts/CrowdFund.sol\":5080:5363  Project({... */\n      mload(0x40)\n      dup1\n      0x0100\n      add\n      0x40\n      mstore\n      dup1\n        /* \"contracts/CrowdFund.sol\":5112:5122  _projectId */\n      dup7\n        /* \"contracts/CrowdFund.sol\":5080:5363  Project({... */\n      dup2\n      mstore\n      0x20\n      add\n        /* \"contracts/CrowdFund.sol\":5150:5157  1000000 */\n      0x0f4240\n        /* \"contracts/CrowdFund.sol\":5080:5363  Project({... */\n      dup2\n      mstore\n      0x20\n      add\n        /* \"contracts/CrowdFund.sol\":5176:5181  _goal */\n      dup6\n        /* \"contracts/CrowdFund.sol\":5080:5363  Project({... */\n      dup2\n      mstore\n      0x20\n      add\n        /* \"contracts/CrowdFund.sol\":5208:5209  0 */\n      0x00\n        /* \"contracts/CrowdFund.sol\":5080:5363  Project({... */\n      dup2\n      mstore\n      0x20\n      add\n        /* \"contracts/CrowdFund.sol\":5229:5234  owner */\n      dup5\n        /* \"contracts/CrowdFund.sol\":5080:5363  Project({... */\n      0xffffffffffffffffffffffffffffffffffffffff\n      and\n      dup2\n      mstore\n      0x20\n      add\n        /* \"contracts/CrowdFund.sol\":5263:5267  true */\n      0x01\n        /* \"contracts/CrowdFund.sol\":5080:5363  Project({... */\n      iszero\n      iszero\n      dup2\n      mstore\n      0x20\n      add\n        /* \"contracts/CrowdFund.sol\":5294:5307  _documentLink */\n      dup4\n        /* \"contracts/CrowdFund.sol\":5080:5363  Project({... */\n      dup2\n      mstore\n      0x20\n      add\n        /* \"contracts/CrowdFund.sol\":5335:5352  ProjectStatus.APR */\n      0x02\n        /* \"contracts/CrowdFund.sol\":5080:5363  Project({... */\n      0x09\n      dup2\n      gt\n      iszero\n      tag_302\n      jumpi\n      tag_303\n      tag_150\n      jump\t// in\n    tag_303:\n    tag_302:\n      dup2\n      mstore\n      pop\n        /* \"contracts/CrowdFund.sol\":5052:5363  Project memory newProject = Project({... */\n      swap1\n      pop\n        /* \"contracts/CrowdFund.sol\":5374:5382  projects */\n      0x00\n        /* \"contracts/CrowdFund.sol\":5388:5398  newProject */\n      dup2\n        /* \"contracts/CrowdFund.sol\":5374:5399  projects.push(newProject) */\n      swap1\n      dup1\n      0x01\n      dup2\n      sload\n      add\n      dup1\n      dup3\n      sstore\n      dup1\n      swap2\n      pop\n      pop\n      0x01\n      swap1\n      sub\n      swap1\n      0x00\n      mstore\n      keccak256(0x00, 0x20)\n      swap1\n      0x07\n      mul\n      add\n      0x00\n      swap1\n      swap2\n      swap1\n      swap2\n      swap1\n      swap2\n      pop\n      0x00\n      dup3\n      add\n      mload\n      dup2\n      0x00\n      add\n      sstore\n      0x20\n      dup3\n      add\n      mload\n      dup2\n      0x01\n      add\n      sstore\n      0x40\n      dup3\n      add\n      mload\n      dup2\n      0x02\n      add\n      sstore\n      0x60\n      dup3\n      add\n      mload\n      dup2\n      0x03\n      add\n      sstore\n      0x80\n      dup3\n      add\n      mload\n      dup2\n      0x04\n      add\n      exp(0x0100, 0x00)\n      dup2\n      sload\n      dup2\n      0xffffffffffffffffffffffffffffffffffffffff\n      mul\n      not\n      and\n      swap1\n      dup4\n      0xffffffffffffffffffffffffffffffffffffffff\n      and\n      mul\n      or\n      swap1\n      sstore\n      pop\n      0xa0\n      dup3\n      add\n      mload\n      dup2\n      0x04\n      add\n      exp(0x0100, 0x14)\n      dup2\n      sload\n      dup2\n      0xff\n      mul\n      not\n      and\n      swap1\n      dup4\n      iszero\n      iszero\n      mul\n      or\n      swap1\n      sstore\n      pop\n      0xc0\n      dup3\n      add\n      mload\n      dup2\n      0x05\n      add\n      swap1\n      dup1\n      mload\n      swap1\n      0x20\n      add\n      swap1\n      tag_305\n      swap3\n      swap2\n      swap1\n      tag_112\n      jump\t// in\n    tag_305:\n      pop\n      0xe0\n      dup3\n      add\n      mload\n      dup2\n      0x06\n      add\n      exp(0x0100, 0x00)\n      dup2\n      sload\n      dup2\n      0xff\n      mul\n      not\n      and\n      swap1\n      dup4\n      0x09\n      dup2\n      gt\n      iszero\n      tag_306\n      jumpi\n      tag_307\n      tag_150\n      jump\t// in\n    tag_307:\n    tag_306:\n      mul\n      or\n      swap1\n      sstore\n      pop\n      pop\n      pop\n        /* \"contracts/CrowdFund.sol\":5418:5433  charityProjects */\n      0x04\n        /* \"contracts/CrowdFund.sol\":5418:5444  charityProjects[charityId] */\n      0x00\n        /* \"contracts/CrowdFund.sol\":5434:5443  charityId */\n      dup8\n        /* \"contracts/CrowdFund.sol\":5418:5444  charityProjects[charityId] */\n      dup2\n      mstore\n      0x20\n      add\n      swap1\n      dup2\n      mstore\n      0x20\n      add\n      0x00\n      keccak256\n        /* \"contracts/CrowdFund.sol\":5450:5460  newProject */\n      dup2\n        /* \"contracts/CrowdFund.sol\":5418:5461  charityProjects[charityId].push(newProject) */\n      swap1\n      dup1\n      0x01\n      dup2\n      sload\n      add\n      dup1\n      dup3\n      sstore\n      dup1\n      swap2\n      pop\n      pop\n      0x01\n      swap1\n      sub\n      swap1\n      0x00\n      mstore\n      keccak256(0x00, 0x20)\n      swap1\n      0x07\n      mul\n      add\n      0x00\n      swap1\n      swap2\n      swap1\n      swap2\n      swap1\n      swap2\n      pop\n      0x00\n      dup3\n      add\n      mload\n      dup2\n      0x00\n      add\n      sstore\n      0x20\n      dup3\n      add\n      mload\n      dup2\n      0x01\n      add\n      sstore\n      0x40\n      dup3\n      add\n      mload\n      dup2\n      0x02\n      add\n      sstore\n      0x60\n      dup3\n      add\n      mload\n      dup2\n      0x03\n      add\n      sstore\n      0x80\n      dup3\n      add\n      mload\n      dup2\n      0x04\n      add\n      exp(0x0100, 0x00)\n      dup2\n      sload\n      dup2\n      0xffffffffffffffffffffffffffffffffffffffff\n      mul\n      not\n      and\n      swap1\n      dup4\n      0xffffffffffffffffffffffffffffffffffffffff\n      and\n      mul\n      or\n      swap1\n      sstore\n      pop\n      0xa0\n      dup3\n      add\n      mload\n      dup2\n      0x04\n      add\n      exp(0x0100, 0x14)\n      dup2\n      sload\n      dup2\n      0xff\n      mul\n      not\n      and\n      swap1\n      dup4\n      iszero\n      iszero\n      mul\n      or\n      swap1\n      sstore\n      pop\n      0xc0\n      dup3\n      add\n      mload\n      dup2\n      0x05\n      add\n      swap1\n      dup1\n      mload\n      swap1\n      0x20\n      add\n      swap1\n      tag_309\n      swap3\n      swap2\n      swap1\n      tag_112\n      jump\t// in\n    tag_309:\n      pop\n      0xe0\n      dup3\n      add\n      mload\n      dup2\n      0x06\n      add\n      exp(0x0100, 0x00)\n      dup2\n      sload\n      dup2\n      0xff\n      mul\n      not\n      and\n      swap1\n      dup4\n      0x09\n      dup2\n      gt\n      iszero\n      tag_310\n      jumpi\n      tag_311\n      tag_150\n      jump\t// in\n    tag_311:\n    tag_310:\n      mul\n      or\n      swap1\n      sstore\n      pop\n      pop\n      pop\n        /* \"contracts/CrowdFund.sol\":4960:6074  {... */\n      pop\n        /* \"contracts/CrowdFund.sol\":4829:6074  function createProject(uint charityId, uint _projectId, uint _goal, address owner, string memory _documentLink) onlyCharity public {... */\n      pop\n      pop\n      pop\n      pop\n      pop\n      jump\t// out\n        /* \"contracts/CrowdFund.sol\":4081:4389  function approveCharity(uint index, uint charityId) public onlyBoardAdmin {... */\n    tag_61:\n        /* \"contracts/CrowdFund.sol\":2769:2779  boardAdmin */\n      0x02\n      0x00\n      swap1\n      sload\n      swap1\n      0x0100\n      exp\n      swap1\n      div\n      0xffffffffffffffffffffffffffffffffffffffff\n      and\n        /* \"contracts/CrowdFund.sol\":2757:2779  msg.sender==boardAdmin */\n      0xffffffffffffffffffffffffffffffffffffffff\n      and\n        /* \"contracts/CrowdFund.sol\":2757:2767  msg.sender */\n      caller\n        /* \"contracts/CrowdFund.sol\":2757:2779  msg.sender==boardAdmin */\n      0xffffffffffffffffffffffffffffffffffffffff\n      and\n      eq\n        /* \"contracts/CrowdFund.sol\":2780:2790  ONLY_ADMIN */\n      mload(0x40)\n      dup1\n      0x60\n      add\n      0x40\n      mstore\n      dup1\n      0x33\n      dup2\n      mstore\n      0x20\n      add\n      data_0fd57a96508da25173f82e6faabc4b077c36881e53dd1b21682a822e75096b01\n      0x33\n      swap2\n      codecopy\n        /* \"contracts/CrowdFund.sol\":2749:2791  require(msg.sender==boardAdmin,ONLY_ADMIN) */\n      swap1\n      tag_313\n      jumpi\n      mload(0x40)\n      0x08c379a000000000000000000000000000000000000000000000000000000000\n      dup2\n      mstore\n      0x04\n      add\n      tag_314\n      swap2\n      swap1\n      tag_67\n      jump\t// in\n    tag_314:\n      mload(0x40)\n      dup1\n      swap2\n      sub\n      swap1\n      revert\n    tag_313:\n      pop\n        /* \"contracts/CrowdFund.sol\":4262:4285  Charity storage charity */\n      0x00\n        /* \"contracts/CrowdFund.sol\":4288:4297  charities */\n      0x01\n        /* \"contracts/CrowdFund.sol\":4298:4303  index */\n      dup4\n        /* \"contracts/CrowdFund.sol\":4288:4304  charities[index] */\n      dup2\n      sload\n      dup2\n      lt\n      tag_316\n      jumpi\n      tag_317\n      tag_123\n      jump\t// in\n    tag_317:\n    tag_316:\n      swap1\n      0x00\n      mstore\n      keccak256(0x00, 0x20)\n      swap1\n      0x05\n      mul\n      add\n        /* \"contracts/CrowdFund.sol\":4262:4304  Charity storage charity = charities[index] */\n      swap1\n      pop\n        /* \"contracts/CrowdFund.sol\":4333:4337  true */\n      0x01\n        /* \"contracts/CrowdFund.sol\":4314:4321  charity */\n      dup2\n        /* \"contracts/CrowdFund.sol\":4314:4330  charity.approved */\n      0x01\n      add\n      0x00\n        /* \"contracts/CrowdFund.sol\":4314:4337  charity.approved = true */\n      0x0100\n      exp\n      dup2\n      sload\n      dup2\n      0xff\n      mul\n      not\n      and\n      swap1\n      dup4\n      iszero\n      iszero\n      mul\n      or\n      swap1\n      sstore\n      pop\n        /* \"contracts/CrowdFund.sol\":4378:4382  true */\n      0x01\n        /* \"contracts/CrowdFund.sol\":4347:4364  approvedCharities */\n      0x05\n        /* \"contracts/CrowdFund.sol\":4347:4375  approvedCharities[charityId] */\n      0x00\n        /* \"contracts/CrowdFund.sol\":4365:4374  charityId */\n      dup5\n        /* \"contracts/CrowdFund.sol\":4347:4375  approvedCharities[charityId] */\n      dup2\n      mstore\n      0x20\n      add\n      swap1\n      dup2\n      mstore\n      0x20\n      add\n      0x00\n      keccak256\n      0x00\n        /* \"contracts/CrowdFund.sol\":4347:4382  approvedCharities[charityId] = true */\n      0x0100\n      exp\n      dup2\n      sload\n      dup2\n      0xff\n      mul\n      not\n      and\n      swap1\n      dup4\n      iszero\n      iszero\n      mul\n      or\n      swap1\n      sstore\n      pop\n        /* \"contracts/CrowdFund.sol\":4155:4389  {... */\n      pop\n        /* \"contracts/CrowdFund.sol\":4081:4389  function approveCharity(uint index, uint charityId) public onlyBoardAdmin {... */\n      pop\n      pop\n      jump\t// out\n        /* \"contracts/CrowdFund.sol\":14677:15212  function getProjectStatus(uint charityId, uint projectId) external view returns (... */\n    tag_65:\n        /* \"contracts/CrowdFund.sol\":14767:14780  string memory */\n      0x60\n        /* \"contracts/CrowdFund.sol\":14795:14824  Project[] storage projectList */\n      0x00\n        /* \"contracts/CrowdFund.sol\":14827:14842  charityProjects */\n      0x04\n        /* \"contracts/CrowdFund.sol\":14827:14853  charityProjects[charityId] */\n      0x00\n        /* \"contracts/CrowdFund.sol\":14843:14852  charityId */\n      dup6\n        /* \"contracts/CrowdFund.sol\":14827:14853  charityProjects[charityId] */\n      dup2\n      mstore\n      0x20\n      add\n      swap1\n      dup2\n      mstore\n      0x20\n      add\n      0x00\n      keccak256\n        /* \"contracts/CrowdFund.sol\":14795:14853  Project[] storage projectList = charityProjects[charityId] */\n      swap1\n      pop\n        /* \"contracts/CrowdFund.sol\":14896:14897  0 */\n      0x00\n        /* \"contracts/CrowdFund.sol\":14875:14886  projectList */\n      dup2\n        /* \"contracts/CrowdFund.sol\":14875:14893  projectList.length */\n      dup1\n      sload\n      swap1\n      pop\n        /* \"contracts/CrowdFund.sol\":14875:14897  projectList.length > 0 */\n      gt\n        /* \"contracts/CrowdFund.sol\":14867:14918  require(projectList.length > 0,\"Charity not found\") */\n      tag_320\n      jumpi\n      mload(0x40)\n      0x08c379a000000000000000000000000000000000000000000000000000000000\n      dup2\n      mstore\n      0x04\n      add\n      tag_321\n      swap1\n      tag_322\n      jump\t// in\n    tag_321:\n      mload(0x40)\n      dup1\n      swap2\n      sub\n      swap1\n      revert\n    tag_320:\n        /* \"contracts/CrowdFund.sol\":14937:14943  uint i */\n      0x00\n        /* \"contracts/CrowdFund.sol\":14932:15141  for (uint i=0;i<projectList.length;i++) {... */\n    tag_323:\n        /* \"contracts/CrowdFund.sol\":14948:14959  projectList */\n      dup2\n        /* \"contracts/CrowdFund.sol\":14948:14966  projectList.length */\n      dup1\n      sload\n      swap1\n      pop\n        /* \"contracts/CrowdFund.sol\":14946:14947  i */\n      dup2\n        /* \"contracts/CrowdFund.sol\":14946:14966  i<projectList.length */\n      lt\n        /* \"contracts/CrowdFund.sol\":14932:15141  for (uint i=0;i<projectList.length;i++) {... */\n      iszero\n      tag_324\n      jumpi\n        /* \"contracts/CrowdFund.sol\":15022:15031  projectId */\n      dup4\n        /* \"contracts/CrowdFund.sol\":14994:15005  projectList */\n      dup3\n        /* \"contracts/CrowdFund.sol\":15006:15007  i */\n      dup3\n        /* \"contracts/CrowdFund.sol\":14994:15008  projectList[i] */\n      dup2\n      sload\n      dup2\n      lt\n      tag_326\n      jumpi\n      tag_327\n      tag_123\n      jump\t// in\n    tag_327:\n    tag_326:\n      swap1\n      0x00\n      mstore\n      keccak256(0x00, 0x20)\n      swap1\n      0x07\n      mul\n      add\n        /* \"contracts/CrowdFund.sol\":14994:15018  projectList[i].projectId */\n      0x00\n      add\n      sload\n        /* \"contracts/CrowdFund.sol\":14994:15031  projectList[i].projectId == projectId */\n      eq\n        /* \"contracts/CrowdFund.sol\":14990:15126  if (projectList[i].projectId == projectId) {... */\n      iszero\n      tag_329\n      jumpi\n        /* \"contracts/CrowdFund.sol\":15062:15077  projectStatuses */\n      0x07\n        /* \"contracts/CrowdFund.sol\":15062:15107  projectStatuses[projectList[i].projectStatus] */\n      0x00\n        /* \"contracts/CrowdFund.sol\":15078:15089  projectList */\n      dup4\n        /* \"contracts/CrowdFund.sol\":15090:15091  i */\n      dup4\n        /* \"contracts/CrowdFund.sol\":15078:15092  projectList[i] */\n      dup2\n      sload\n      dup2\n      lt\n      tag_330\n      jumpi\n      tag_331\n      tag_123\n      jump\t// in\n    tag_331:\n    tag_330:\n      swap1\n      0x00\n      mstore\n      keccak256(0x00, 0x20)\n      swap1\n      0x07\n      mul\n      add\n        /* \"contracts/CrowdFund.sol\":15078:15106  projectList[i].projectStatus */\n      0x06\n      add\n      0x00\n      swap1\n      sload\n      swap1\n      0x0100\n      exp\n      swap1\n      div\n      0xff\n      and\n        /* \"contracts/CrowdFund.sol\":15062:15107  projectStatuses[projectList[i].projectStatus] */\n      0x09\n      dup2\n      gt\n      iszero\n      tag_333\n      jumpi\n      tag_334\n      tag_150\n      jump\t// in\n    tag_334:\n    tag_333:\n      0x09\n      dup2\n      gt\n      iszero\n      tag_335\n      jumpi\n      tag_336\n      tag_150\n      jump\t// in\n    tag_336:\n    tag_335:\n      dup2\n      mstore\n      0x20\n      add\n      swap1\n      dup2\n      mstore\n      0x20\n      add\n      0x00\n      keccak256\n        /* \"contracts/CrowdFund.sol\":15055:15107  return projectStatuses[projectList[i].projectStatus] */\n      dup1\n      sload\n      tag_337\n      swap1\n      tag_101\n      jump\t// in\n    tag_337:\n      dup1\n      0x1f\n      add\n      0x20\n      dup1\n      swap2\n      div\n      mul\n      0x20\n      add\n      mload(0x40)\n      swap1\n      dup2\n      add\n      0x40\n      mstore\n      dup1\n      swap3\n      swap2\n      swap1\n      dup2\n      dup2\n      mstore\n      0x20\n      add\n      dup3\n      dup1\n      sload\n      tag_338\n      swap1\n      tag_101\n      jump\t// in\n    tag_338:\n      dup1\n      iszero\n      tag_339\n      jumpi\n      dup1\n      0x1f\n      lt\n      tag_340\n      jumpi\n      0x0100\n      dup1\n      dup4\n      sload\n      div\n      mul\n      dup4\n      mstore\n      swap2\n      0x20\n      add\n      swap2\n      jump(tag_339)\n    tag_340:\n      dup3\n      add\n      swap2\n      swap1\n      0x00\n      mstore\n      keccak256(0x00, 0x20)\n      swap1\n    tag_341:\n      dup2\n      sload\n      dup2\n      mstore\n      swap1\n      0x01\n      add\n      swap1\n      0x20\n      add\n      dup1\n      dup4\n      gt\n      tag_341\n      jumpi\n      dup3\n      swap1\n      sub\n      0x1f\n      and\n      dup3\n      add\n      swap2\n    tag_339:\n      pop\n      pop\n      pop\n      pop\n      pop\n      swap3\n      pop\n      pop\n      pop\n      jump(tag_319)\n        /* \"contracts/CrowdFund.sol\":14990:15126  if (projectList[i].projectId == projectId) {... */\n    tag_329:\n        /* \"contracts/CrowdFund.sol\":14967:14970  i++ */\n      dup1\n      dup1\n      tag_342\n      swap1\n      tag_141\n      jump\t// in\n    tag_342:\n      swap2\n      pop\n      pop\n        /* \"contracts/CrowdFund.sol\":14932:15141  for (uint i=0;i<projectList.length;i++) {... */\n      jump(tag_323)\n    tag_324:\n      pop\n        /* \"contracts/CrowdFund.sol\":15155:15205  revert(\"No such project exist under this charity\") */\n      mload(0x40)\n      0x08c379a000000000000000000000000000000000000000000000000000000000\n      dup2\n      mstore\n      0x04\n      add\n      tag_343\n      swap1\n      tag_143\n      jump\t// in\n    tag_343:\n      mload(0x40)\n      dup1\n      swap2\n      sub\n      swap1\n      revert\n        /* \"contracts/CrowdFund.sol\":14677:15212  function getProjectStatus(uint charityId, uint projectId) external view returns (... */\n    tag_319:\n      swap3\n      swap2\n      pop\n      pop\n      jump\t// out\n        /* \"contracts/CrowdFund.sol\":12946:14671  function getRefund(uint charityId, uint projectId, uint donorId) public {... */\n    tag_72:\n        /* \"contracts/CrowdFund.sol\":13028:13057  Project[] storage projectList */\n      0x00\n        /* \"contracts/CrowdFund.sol\":13060:13075  charityProjects */\n      0x04\n        /* \"contracts/CrowdFund.sol\":13060:13086  charityProjects[charityId] */\n      0x00\n        /* \"contracts/CrowdFund.sol\":13076:13085  charityId */\n      dup6\n        /* \"contracts/CrowdFund.sol\":13060:13086  charityProjects[charityId] */\n      dup2\n      mstore\n      0x20\n      add\n      swap1\n      dup2\n      mstore\n      0x20\n      add\n      0x00\n      keccak256\n        /* \"contracts/CrowdFund.sol\":13028:13086  Project[] storage projectList = charityProjects[charityId] */\n      swap1\n      pop\n        /* \"contracts/CrowdFund.sol\":13129:13130  0 */\n      0x00\n        /* \"contracts/CrowdFund.sol\":13108:13119  projectList */\n      dup2\n        /* \"contracts/CrowdFund.sol\":13108:13126  projectList.length */\n      dup1\n      sload\n      swap1\n      pop\n        /* \"contracts/CrowdFund.sol\":13108:13130  projectList.length > 0 */\n      gt\n        /* \"contracts/CrowdFund.sol\":13100:13151  require(projectList.length > 0,\"Charity not found\") */\n      tag_345\n      jumpi\n      mload(0x40)\n      0x08c379a000000000000000000000000000000000000000000000000000000000\n      dup2\n      mstore\n      0x04\n      add\n      tag_346\n      swap1\n      tag_322\n      jump\t// in\n    tag_346:\n      mload(0x40)\n      dup1\n      swap2\n      sub\n      swap1\n      revert\n    tag_345:\n        /* \"contracts/CrowdFund.sol\":13208:13227  Donor storage donor */\n      0x00\n        /* \"contracts/CrowdFund.sol\":13230:13236  donors */\n      0x03\n        /* \"contracts/CrowdFund.sol\":13230:13245  donors[donorId] */\n      0x00\n        /* \"contracts/CrowdFund.sol\":13237:13244  donorId */\n      dup5\n        /* \"contracts/CrowdFund.sol\":13230:13245  donors[donorId] */\n      dup2\n      mstore\n      0x20\n      add\n      swap1\n      dup2\n      mstore\n      0x20\n      add\n      0x00\n      keccak256\n        /* \"contracts/CrowdFund.sol\":13208:13245  Donor storage donor = donors[donorId] */\n      swap1\n      pop\n        /* \"contracts/CrowdFund.sol\":13383:13393  msg.sender */\n      caller\n        /* \"contracts/CrowdFund.sol\":13368:13393  donor.owner == msg.sender */\n      0xffffffffffffffffffffffffffffffffffffffff\n      and\n        /* \"contracts/CrowdFund.sol\":13368:13373  donor */\n      dup2\n        /* \"contracts/CrowdFund.sol\":13368:13379  donor.owner */\n      0x01\n      add\n      0x00\n      swap1\n      sload\n      swap1\n      0x0100\n      exp\n      swap1\n      div\n      0xffffffffffffffffffffffffffffffffffffffff\n      and\n        /* \"contracts/CrowdFund.sol\":13368:13393  donor.owner == msg.sender */\n      0xffffffffffffffffffffffffffffffffffffffff\n      and\n      eq\n        /* \"contracts/CrowdFund.sol\":13368:13442  donor.owner == msg.sender && donor.projectwiseContributions[projectId] > 0 */\n      dup1\n      iszero\n      tag_347\n      jumpi\n      pop\n        /* \"contracts/CrowdFund.sol\":13441:13442  0 */\n      0x00\n        /* \"contracts/CrowdFund.sol\":13397:13402  donor */\n      dup2\n        /* \"contracts/CrowdFund.sol\":13397:13427  donor.projectwiseContributions */\n      0x02\n      add\n        /* \"contracts/CrowdFund.sol\":13397:13438  donor.projectwiseContributions[projectId] */\n      0x00\n        /* \"contracts/CrowdFund.sol\":13428:13437  projectId */\n      dup7\n        /* \"contracts/CrowdFund.sol\":13397:13438  donor.projectwiseContributions[projectId] */\n      dup2\n      mstore\n      0x20\n      add\n      swap1\n      dup2\n      mstore\n      0x20\n      add\n      0x00\n      keccak256\n      sload\n        /* \"contracts/CrowdFund.sol\":13397:13442  donor.projectwiseContributions[projectId] > 0 */\n      gt\n        /* \"contracts/CrowdFund.sol\":13368:13442  donor.owner == msg.sender && donor.projectwiseContributions[projectId] > 0 */\n    tag_347:\n        /* \"contracts/CrowdFund.sol\":13364:14665  if (donor.owner == msg.sender && donor.projectwiseContributions[projectId] > 0) {... */\n      iszero\n      tag_348\n      jumpi\n        /* \"contracts/CrowdFund.sol\":13467:13473  uint i */\n      0x00\n        /* \"contracts/CrowdFund.sol\":13462:14407  for (uint i=0;i<projectList.length;i++) {... */\n    tag_349:\n        /* \"contracts/CrowdFund.sol\":13478:13489  projectList */\n      dup3\n        /* \"contracts/CrowdFund.sol\":13478:13496  projectList.length */\n      dup1\n      sload\n      swap1\n      pop\n        /* \"contracts/CrowdFund.sol\":13476:13477  i */\n      dup2\n        /* \"contracts/CrowdFund.sol\":13476:13496  i<projectList.length */\n      lt\n        /* \"contracts/CrowdFund.sol\":13462:14407  for (uint i=0;i<projectList.length;i++) {... */\n      iszero\n      tag_350\n      jumpi\n        /* \"contracts/CrowdFund.sol\":13556:13565  projectId */\n      dup5\n        /* \"contracts/CrowdFund.sol\":13528:13539  projectList */\n      dup4\n        /* \"contracts/CrowdFund.sol\":13540:13541  i */\n      dup3\n        /* \"contracts/CrowdFund.sol\":13528:13542  projectList[i] */\n      dup2\n      sload\n      dup2\n      lt\n      tag_352\n      jumpi\n      tag_353\n      tag_123\n      jump\t// in\n    tag_353:\n    tag_352:\n      swap1\n      0x00\n      mstore\n      keccak256(0x00, 0x20)\n      swap1\n      0x07\n      mul\n      add\n        /* \"contracts/CrowdFund.sol\":13528:13552  projectList[i].projectId */\n      0x00\n      add\n      sload\n        /* \"contracts/CrowdFund.sol\":13528:13565  projectList[i].projectId == projectId */\n      eq\n        /* \"contracts/CrowdFund.sol\":13524:14389  if (projectList[i].projectId == projectId) { ... */\n      iszero\n      tag_355\n      jumpi\n        /* \"contracts/CrowdFund.sol\":13629:13646  ProjectStatus.PGA */\n      0x03\n        /* \"contracts/CrowdFund.sol\":13598:13646  projectList[i].projectStatus > ProjectStatus.PGA */\n      0x09\n      dup2\n      gt\n      iszero\n      tag_356\n      jumpi\n      tag_357\n      tag_150\n      jump\t// in\n    tag_357:\n    tag_356:\n        /* \"contracts/CrowdFund.sol\":13598:13609  projectList */\n      dup4\n        /* \"contracts/CrowdFund.sol\":13610:13611  i */\n      dup3\n        /* \"contracts/CrowdFund.sol\":13598:13612  projectList[i] */\n      dup2\n      sload\n      dup2\n      lt\n      tag_358\n      jumpi\n      tag_359\n      tag_123\n      jump\t// in\n    tag_359:\n    tag_358:\n      swap1\n      0x00\n      mstore\n      keccak256(0x00, 0x20)\n      swap1\n      0x07\n      mul\n      add\n        /* \"contracts/CrowdFund.sol\":13598:13626  projectList[i].projectStatus */\n      0x06\n      add\n      0x00\n      swap1\n      sload\n      swap1\n      0x0100\n      exp\n      swap1\n      div\n      0xff\n      and\n        /* \"contracts/CrowdFund.sol\":13598:13646  projectList[i].projectStatus > ProjectStatus.PGA */\n      0x09\n      dup2\n      gt\n      iszero\n      tag_361\n      jumpi\n      tag_362\n      tag_150\n      jump\t// in\n    tag_362:\n    tag_361:\n      gt\n        /* \"contracts/CrowdFund.sol\":13594:14265  if (projectList[i].projectStatus > ProjectStatus.PGA) {... */\n      iszero\n      tag_363\n      jumpi\n        /* \"contracts/CrowdFund.sol\":13678:13753  revert(\"Can't refund as exchange request was already initiated with board\") */\n      mload(0x40)\n      0x08c379a000000000000000000000000000000000000000000000000000000000\n      dup2\n      mstore\n      0x04\n      add\n      tag_364\n      swap1\n      tag_365\n      jump\t// in\n    tag_364:\n      mload(0x40)\n      dup1\n      swap2\n      sub\n      swap1\n      revert\n        /* \"contracts/CrowdFund.sol\":13594:14265  if (projectList[i].projectStatus > ProjectStatus.PGA) {... */\n    tag_363:\n        /* \"contracts/CrowdFund.sol\":13876:13881  donor */\n      dup2\n        /* \"contracts/CrowdFund.sol\":13876:13906  donor.projectwiseContributions */\n      0x02\n      add\n        /* \"contracts/CrowdFund.sol\":13876:13917  donor.projectwiseContributions[projectId] */\n      0x00\n        /* \"contracts/CrowdFund.sol\":13907:13916  projectId */\n      dup7\n        /* \"contracts/CrowdFund.sol\":13876:13917  donor.projectwiseContributions[projectId] */\n      dup2\n      mstore\n      0x20\n      add\n      swap1\n      dup2\n      mstore\n      0x20\n      add\n      0x00\n      keccak256\n      sload\n        /* \"contracts/CrowdFund.sol\":13846:13857  projectList */\n      dup4\n        /* \"contracts/CrowdFund.sol\":13858:13859  i */\n      dup3\n        /* \"contracts/CrowdFund.sol\":13846:13860  projectList[i] */\n      dup2\n      sload\n      dup2\n      lt\n      tag_367\n      jumpi\n      tag_368\n      tag_123\n      jump\t// in\n    tag_368:\n    tag_367:\n      swap1\n      0x00\n      mstore\n      keccak256(0x00, 0x20)\n      swap1\n      0x07\n      mul\n      add\n        /* \"contracts/CrowdFund.sol\":13846:13873  projectList[i].raisedAmount */\n      0x03\n      add\n      sload\n        /* \"contracts/CrowdFund.sol\":13846:13917  projectList[i].raisedAmount - donor.projectwiseContributions[projectId] */\n      tag_370\n      swap2\n      swap1\n      tag_139\n      jump\t// in\n    tag_370:\n        /* \"contracts/CrowdFund.sol\":13816:13827  projectList */\n      dup4\n        /* \"contracts/CrowdFund.sol\":13828:13829  i */\n      dup3\n        /* \"contracts/CrowdFund.sol\":13816:13830  projectList[i] */\n      dup2\n      sload\n      dup2\n      lt\n      tag_371\n      jumpi\n      tag_372\n      tag_123\n      jump\t// in\n    tag_372:\n    tag_371:\n      swap1\n      0x00\n      mstore\n      keccak256(0x00, 0x20)\n      swap1\n      0x07\n      mul\n      add\n        /* \"contracts/CrowdFund.sol\":13816:13843  projectList[i].raisedAmount */\n      0x03\n      add\n        /* \"contracts/CrowdFund.sol\":13816:13917  projectList[i].raisedAmount = projectList[i].raisedAmount - donor.projectwiseContributions[projectId] */\n      dup2\n      swap1\n      sstore\n      pop\n        /* \"contracts/CrowdFund.sol\":14046:14057  projectList */\n      dup3\n        /* \"contracts/CrowdFund.sol\":14058:14059  i */\n      dup2\n        /* \"contracts/CrowdFund.sol\":14046:14060  projectList[i] */\n      dup2\n      sload\n      dup2\n      lt\n      tag_374\n      jumpi\n      tag_375\n      tag_123\n      jump\t// in\n    tag_375:\n    tag_374:\n      swap1\n      0x00\n      mstore\n      keccak256(0x00, 0x20)\n      swap1\n      0x07\n      mul\n      add\n        /* \"contracts/CrowdFund.sol\":14046:14075  projectList[i].acceptDonation */\n      0x04\n      add\n      0x14\n      swap1\n      sload\n      swap1\n      0x0100\n      exp\n      swap1\n      div\n      0xff\n      and\n        /* \"contracts/CrowdFund.sol\":14041:14239  if (!projectList[i].acceptDonation) {... */\n      tag_377\n      jumpi\n        /* \"contracts/CrowdFund.sol\":14204:14208  true */\n      0x01\n        /* \"contracts/CrowdFund.sol\":14172:14183  projectList */\n      dup4\n        /* \"contracts/CrowdFund.sol\":14184:14185  i */\n      dup3\n        /* \"contracts/CrowdFund.sol\":14172:14186  projectList[i] */\n      dup2\n      sload\n      dup2\n      lt\n      tag_378\n      jumpi\n      tag_379\n      tag_123\n      jump\t// in\n    tag_379:\n    tag_378:\n      swap1\n      0x00\n      mstore\n      keccak256(0x00, 0x20)\n      swap1\n      0x07\n      mul\n      add\n        /* \"contracts/CrowdFund.sol\":14172:14201  projectList[i].acceptDonation */\n      0x04\n      add\n      0x14\n        /* \"contracts/CrowdFund.sol\":14172:14208  projectList[i].acceptDonation = true */\n      0x0100\n      exp\n      dup2\n      sload\n      dup2\n      0xff\n      mul\n      not\n      and\n      swap1\n      dup4\n      iszero\n      iszero\n      mul\n      or\n      swap1\n      sstore\n      pop\n        /* \"contracts/CrowdFund.sol\":14041:14239  if (!projectList[i].acceptDonation) {... */\n    tag_377:\n        /* \"contracts/CrowdFund.sol\":13524:14389  if (projectList[i].projectId == projectId) { ... */\n      jump(tag_381)\n    tag_355:\n        /* \"contracts/CrowdFund.sol\":14319:14366  revert(\"No project exist under this projectId\") */\n      mload(0x40)\n      0x08c379a000000000000000000000000000000000000000000000000000000000\n      dup2\n      mstore\n      0x04\n      add\n      tag_382\n      swap1\n      tag_383\n      jump\t// in\n    tag_382:\n      mload(0x40)\n      dup1\n      swap2\n      sub\n      swap1\n      revert\n        /* \"contracts/CrowdFund.sol\":13524:14389  if (projectList[i].projectId == projectId) { ... */\n    tag_381:\n        /* \"contracts/CrowdFund.sol\":13497:13500  i++ */\n      dup1\n      dup1\n      tag_384\n      swap1\n      tag_141\n      jump\t// in\n    tag_384:\n      swap2\n      pop\n      pop\n        /* \"contracts/CrowdFund.sol\":13462:14407  for (uint i=0;i<projectList.length;i++) {... */\n      jump(tag_349)\n    tag_350:\n      pop\n        /* \"contracts/CrowdFund.sol\":14434:14444  msg.sender */\n      caller\n        /* \"contracts/CrowdFund.sol\":14425:14454  payable (msg.sender).transfer */\n      0xffffffffffffffffffffffffffffffffffffffff\n      and\n        /* \"contracts/CrowdFund.sol\":14425:14497  payable (msg.sender).transfer(donor.projectwiseContributions[projectId]) */\n      0x08fc\n        /* \"contracts/CrowdFund.sol\":14455:14460  donor */\n      dup3\n        /* \"contracts/CrowdFund.sol\":14455:14485  donor.projectwiseContributions */\n      0x02\n      add\n        /* \"contracts/CrowdFund.sol\":14455:14496  donor.projectwiseContributions[projectId] */\n      0x00\n        /* \"contracts/CrowdFund.sol\":14486:14495  projectId */\n      dup8\n        /* \"contracts/CrowdFund.sol\":14455:14496  donor.projectwiseContributions[projectId] */\n      dup2\n      mstore\n      0x20\n      add\n      swap1\n      dup2\n      mstore\n      0x20\n      add\n      0x00\n      keccak256\n      sload\n        /* \"contracts/CrowdFund.sol\":14425:14497  payable (msg.sender).transfer(donor.projectwiseContributions[projectId]) */\n      swap1\n      dup2\n      iszero\n      mul\n      swap1\n      mload(0x40)\n      0x00\n      mload(0x40)\n      dup1\n      dup4\n      sub\n      dup2\n      dup6\n      dup9\n      dup9\n      call\n      swap4\n      pop\n      pop\n      pop\n      pop\n      iszero\n      dup1\n      iszero\n      tag_386\n      jumpi\n      returndatasize\n      0x00\n      dup1\n      returndatacopy\n      revert(0x00, returndatasize)\n    tag_386:\n      pop\n        /* \"contracts/CrowdFund.sol\":14559:14560  0 */\n      0x00\n        /* \"contracts/CrowdFund.sol\":14515:14520  donor */\n      dup2\n        /* \"contracts/CrowdFund.sol\":14515:14545  donor.projectwiseContributions */\n      0x02\n      add\n        /* \"contracts/CrowdFund.sol\":14515:14556  donor.projectwiseContributions[projectId] */\n      0x00\n        /* \"contracts/CrowdFund.sol\":14546:14555  projectId */\n      dup7\n        /* \"contracts/CrowdFund.sol\":14515:14556  donor.projectwiseContributions[projectId] */\n      dup2\n      mstore\n      0x20\n      add\n      swap1\n      dup2\n      mstore\n      0x20\n      add\n      0x00\n      keccak256\n        /* \"contracts/CrowdFund.sol\":14515:14560  donor.projectwiseContributions[projectId] = 0 */\n      dup2\n      swap1\n      sstore\n      pop\n        /* \"contracts/CrowdFund.sol\":13364:14665  if (donor.owner == msg.sender && donor.projectwiseContributions[projectId] > 0) {... */\n      jump(tag_387)\n    tag_348:\n        /* \"contracts/CrowdFund.sol\":14600:14650  revert(\"You haven't contributed for this project\") */\n      mload(0x40)\n      0x08c379a000000000000000000000000000000000000000000000000000000000\n      dup2\n      mstore\n      0x04\n      add\n      tag_388\n      swap1\n      tag_389\n      jump\t// in\n    tag_388:\n      mload(0x40)\n      dup1\n      swap2\n      sub\n      swap1\n      revert\n        /* \"contracts/CrowdFund.sol\":13364:14665  if (donor.owner == msg.sender && donor.projectwiseContributions[projectId] > 0) {... */\n    tag_387:\n        /* \"contracts/CrowdFund.sol\":13018:14671  {... */\n      pop\n      pop\n        /* \"contracts/CrowdFund.sol\":12946:14671  function getRefund(uint charityId, uint projectId, uint donorId) public {... */\n      pop\n      pop\n      pop\n      jump\t// out\n        /* \"contracts/CrowdFund.sol\":949:974  address public boardAdmin */\n    tag_75:\n      0x02\n      0x00\n      swap1\n      sload\n      swap1\n      0x0100\n      exp\n      swap1\n      div\n      0xffffffffffffffffffffffffffffffffffffffff\n      and\n      dup2\n      jump\t// out\n        /* \"contracts/CrowdFund.sol\":4395:4750  function rejectCharity(uint index, string memory reason) onlyBoardAdmin public {... */\n    tag_82:\n        /* \"contracts/CrowdFund.sol\":2769:2779  boardAdmin */\n      0x02\n      0x00\n      swap1\n      sload\n      swap1\n      0x0100\n      exp\n      swap1\n      div\n      0xffffffffffffffffffffffffffffffffffffffff\n      and\n        /* \"contracts/CrowdFund.sol\":2757:2779  msg.sender==boardAdmin */\n      0xffffffffffffffffffffffffffffffffffffffff\n      and\n        /* \"contracts/CrowdFund.sol\":2757:2767  msg.sender */\n      caller\n        /* \"contracts/CrowdFund.sol\":2757:2779  msg.sender==boardAdmin */\n      0xffffffffffffffffffffffffffffffffffffffff\n      and\n      eq\n        /* \"contracts/CrowdFund.sol\":2780:2790  ONLY_ADMIN */\n      mload(0x40)\n      dup1\n      0x60\n      add\n      0x40\n      mstore\n      dup1\n      0x33\n      dup2\n      mstore\n      0x20\n      add\n      data_0fd57a96508da25173f82e6faabc4b077c36881e53dd1b21682a822e75096b01\n      0x33\n      swap2\n      codecopy\n        /* \"contracts/CrowdFund.sol\":2749:2791  require(msg.sender==boardAdmin,ONLY_ADMIN) */\n      swap1\n      tag_391\n      jumpi\n      mload(0x40)\n      0x08c379a000000000000000000000000000000000000000000000000000000000\n      dup2\n      mstore\n      0x04\n      add\n      tag_392\n      swap2\n      swap1\n      tag_67\n      jump\t// in\n    tag_392:\n      mload(0x40)\n      dup1\n      swap2\n      sub\n      swap1\n      revert\n    tag_391:\n      pop\n        /* \"contracts/CrowdFund.sol\":4577:4600  Charity storage charity */\n      0x00\n        /* \"contracts/CrowdFund.sol\":4603:4612  charities */\n      0x01\n        /* \"contracts/CrowdFund.sol\":4613:4618  index */\n      dup4\n        /* \"contracts/CrowdFund.sol\":4603:4619  charities[index] */\n      dup2\n      sload\n      dup2\n      lt\n      tag_394\n      jumpi\n      tag_395\n      tag_123\n      jump\t// in\n    tag_395:\n    tag_394:\n      swap1\n      0x00\n      mstore\n      keccak256(0x00, 0x20)\n      swap1\n      0x05\n      mul\n      add\n        /* \"contracts/CrowdFund.sol\":4577:4619  Charity storage charity = charities[index] */\n      swap1\n      pop\n        /* \"contracts/CrowdFund.sol\":4648:4653  false */\n      0x00\n        /* \"contracts/CrowdFund.sol\":4629:4636  charity */\n      dup2\n        /* \"contracts/CrowdFund.sol\":4629:4645  charity.approved */\n      0x01\n      add\n      0x00\n        /* \"contracts/CrowdFund.sol\":4629:4653  charity.approved = false */\n      0x0100\n      exp\n      dup2\n      sload\n      dup2\n      0xff\n      mul\n      not\n      and\n      swap1\n      dup4\n      iszero\n      iszero\n      mul\n      or\n      swap1\n      sstore\n      pop\n        /* \"contracts/CrowdFund.sol\":4680:4686  reason */\n      dup2\n        /* \"contracts/CrowdFund.sol\":4663:4670  charity */\n      dup2\n        /* \"contracts/CrowdFund.sol\":4663:4677  charity.reason */\n      0x02\n      add\n        /* \"contracts/CrowdFund.sol\":4663:4686  charity.reason = reason */\n      swap1\n      dup1\n      mload\n      swap1\n      0x20\n      add\n      swap1\n      tag_397\n      swap3\n      swap2\n      swap1\n      tag_112\n      jump\t// in\n    tag_397:\n      pop\n        /* \"contracts/CrowdFund.sol\":4474:4750  {... */\n      pop\n        /* \"contracts/CrowdFund.sol\":4395:4750  function rejectCharity(uint index, string memory reason) onlyBoardAdmin public {... */\n      pop\n      pop\n      jump\t// out\n        /* \"contracts/CrowdFund.sol\":2658:2713  mapping(ProjectStatus => string) public projectStatuses */\n    tag_87:\n      mstore(0x20, 0x07)\n      dup1\n      0x00\n      mstore\n      keccak256(0x00, 0x40)\n      0x00\n      swap2\n      pop\n      swap1\n      pop\n      dup1\n      sload\n      tag_398\n      swap1\n      tag_101\n      jump\t// in\n    tag_398:\n      dup1\n      0x1f\n      add\n      0x20\n      dup1\n      swap2\n      div\n      mul\n      0x20\n      add\n      mload(0x40)\n      swap1\n      dup2\n      add\n      0x40\n      mstore\n      dup1\n      swap3\n      swap2\n      swap1\n      dup2\n      dup2\n      mstore\n      0x20\n      add\n      dup3\n      dup1\n      sload\n      tag_399\n      swap1\n      tag_101\n      jump\t// in\n    tag_399:\n      dup1\n      iszero\n      tag_400\n      jumpi\n      dup1\n      0x1f\n      lt\n      tag_401\n      jumpi\n      0x0100\n      dup1\n      dup4\n      sload\n      div\n      mul\n      dup4\n      mstore\n      swap2\n      0x20\n      add\n      swap2\n      jump(tag_400)\n    tag_401:\n      dup3\n      add\n      swap2\n      swap1\n      0x00\n      mstore\n      keccak256(0x00, 0x20)\n      swap1\n    tag_402:\n      dup2\n      sload\n      dup2\n      mstore\n      swap1\n      0x01\n      add\n      swap1\n      0x20\n      add\n      dup1\n      dup4\n      gt\n      tag_402\n      jumpi\n      dup3\n      swap1\n      sub\n      0x1f\n      and\n      dup3\n      add\n      swap2\n    tag_400:\n      pop\n      pop\n      pop\n      pop\n      pop\n      dup2\n      jump\t// out\n        /* \"contracts/CrowdFund.sol\":10502:12940  function donate(uint charityId, uint projectId, uint donorId) public payable {... */\n    tag_91:\n        /* \"contracts/CrowdFund.sol\":10593:10610  bool projectExist */\n      0x00\n        /* \"contracts/CrowdFund.sol\":10632:10661  Project[] storage projectList */\n      dup1\n        /* \"contracts/CrowdFund.sol\":10664:10679  charityProjects */\n      0x04\n        /* \"contracts/CrowdFund.sol\":10664:10690  charityProjects[charityId] */\n      0x00\n        /* \"contracts/CrowdFund.sol\":10680:10689  charityId */\n      dup7\n        /* \"contracts/CrowdFund.sol\":10664:10690  charityProjects[charityId] */\n      dup2\n      mstore\n      0x20\n      add\n      swap1\n      dup2\n      mstore\n      0x20\n      add\n      0x00\n      keccak256\n        /* \"contracts/CrowdFund.sol\":10632:10690  Project[] storage projectList = charityProjects[charityId] */\n      swap1\n      pop\n        /* \"contracts/CrowdFund.sol\":10733:10734  0 */\n      0x00\n        /* \"contracts/CrowdFund.sol\":10712:10723  projectList */\n      dup2\n        /* \"contracts/CrowdFund.sol\":10712:10730  projectList.length */\n      dup1\n      sload\n      swap1\n      pop\n        /* \"contracts/CrowdFund.sol\":10712:10734  projectList.length > 0 */\n      gt\n        /* \"contracts/CrowdFund.sol\":10704:10755  require(projectList.length > 0,\"Charity not found\") */\n      tag_404\n      jumpi\n      mload(0x40)\n      0x08c379a000000000000000000000000000000000000000000000000000000000\n      dup2\n      mstore\n      0x04\n      add\n      tag_405\n      swap1\n      tag_322\n      jump\t// in\n    tag_405:\n      mload(0x40)\n      dup1\n      swap2\n      sub\n      swap1\n      revert\n    tag_404:\n        /* \"contracts/CrowdFund.sol\":10774:10780  uint i */\n      0x00\n        /* \"contracts/CrowdFund.sol\":10769:12834  for (uint i=0;i<projectList.length;i++) {... */\n    tag_406:\n        /* \"contracts/CrowdFund.sol\":10785:10796  projectList */\n      dup2\n        /* \"contracts/CrowdFund.sol\":10785:10803  projectList.length */\n      dup1\n      sload\n      swap1\n      pop\n        /* \"contracts/CrowdFund.sol\":10783:10784  i */\n      dup2\n        /* \"contracts/CrowdFund.sol\":10783:10803  i<projectList.length */\n      lt\n        /* \"contracts/CrowdFund.sol\":10769:12834  for (uint i=0;i<projectList.length;i++) {... */\n      iszero\n      tag_407\n      jumpi\n        /* \"contracts/CrowdFund.sol\":10859:10868  projectId */\n      dup5\n        /* \"contracts/CrowdFund.sol\":10831:10842  projectList */\n      dup3\n        /* \"contracts/CrowdFund.sol\":10843:10844  i */\n      dup3\n        /* \"contracts/CrowdFund.sol\":10831:10845  projectList[i] */\n      dup2\n      sload\n      dup2\n      lt\n      tag_409\n      jumpi\n      tag_410\n      tag_123\n      jump\t// in\n    tag_410:\n    tag_409:\n      swap1\n      0x00\n      mstore\n      keccak256(0x00, 0x20)\n      swap1\n      0x07\n      mul\n      add\n        /* \"contracts/CrowdFund.sol\":10831:10855  projectList[i].projectId */\n      0x00\n      add\n      sload\n        /* \"contracts/CrowdFund.sol\":10831:10868  projectList[i].projectId == projectId */\n      eq\n        /* \"contracts/CrowdFund.sol\":10827:12820  if (projectList[i].projectId == projectId) { ... */\n      iszero\n      tag_412\n      jumpi\n        /* \"contracts/CrowdFund.sol\":10897:10908  projectList */\n      dup2\n        /* \"contracts/CrowdFund.sol\":10909:10910  i */\n      dup2\n        /* \"contracts/CrowdFund.sol\":10897:10911  projectList[i] */\n      dup2\n      sload\n      dup2\n      lt\n      tag_413\n      jumpi\n      tag_414\n      tag_123\n      jump\t// in\n    tag_414:\n    tag_413:\n      swap1\n      0x00\n      mstore\n      keccak256(0x00, 0x20)\n      swap1\n      0x07\n      mul\n      add\n        /* \"contracts/CrowdFund.sol\":10897:10926  projectList[i].acceptDonation */\n      0x04\n      add\n      0x14\n      swap1\n      sload\n      swap1\n      0x0100\n      exp\n      swap1\n      div\n      0xff\n      and\n        /* \"contracts/CrowdFund.sol\":10893:12733  if (projectList[i].acceptDonation) {... */\n      iszero\n      tag_416\n      jumpi\n        /* \"contracts/CrowdFund.sol\":10975:10986  projectList */\n      dup2\n        /* \"contracts/CrowdFund.sol\":10987:10988  i */\n      dup2\n        /* \"contracts/CrowdFund.sol\":10975:10989  projectList[i] */\n      dup2\n      sload\n      dup2\n      lt\n      tag_417\n      jumpi\n      tag_418\n      tag_123\n      jump\t// in\n    tag_418:\n    tag_417:\n      swap1\n      0x00\n      mstore\n      keccak256(0x00, 0x20)\n      swap1\n      0x07\n      mul\n      add\n        /* \"contracts/CrowdFund.sol\":10975:11003  projectList[i].minimumAmount */\n      0x01\n      add\n      sload\n        /* \"contracts/CrowdFund.sol\":10962:10971  msg.value */\n      callvalue\n        /* \"contracts/CrowdFund.sol\":10962:11003  msg.value >= projectList[i].minimumAmount */\n      lt\n      iszero\n        /* \"contracts/CrowdFund.sol\":10954:11045  require(msg.value >= projectList[i].minimumAmount, \"Should be greater than minimum amount\") */\n      tag_420\n      jumpi\n      mload(0x40)\n      0x08c379a000000000000000000000000000000000000000000000000000000000\n      dup2\n      mstore\n      0x04\n      add\n      tag_421\n      swap1\n      tag_422\n      jump\t// in\n    tag_421:\n      mload(0x40)\n      dup1\n      swap2\n      sub\n      swap1\n      revert\n    tag_420:\n        /* \"contracts/CrowdFund.sol\":11131:11140  msg.value */\n      callvalue\n        /* \"contracts/CrowdFund.sol\":11101:11112  projectList */\n      dup3\n        /* \"contracts/CrowdFund.sol\":11113:11114  i */\n      dup3\n        /* \"contracts/CrowdFund.sol\":11101:11115  projectList[i] */\n      dup2\n      sload\n      dup2\n      lt\n      tag_423\n      jumpi\n      tag_424\n      tag_123\n      jump\t// in\n    tag_424:\n    tag_423:\n      swap1\n      0x00\n      mstore\n      keccak256(0x00, 0x20)\n      swap1\n      0x07\n      mul\n      add\n        /* \"contracts/CrowdFund.sol\":11101:11128  projectList[i].raisedAmount */\n      0x03\n      add\n      sload\n        /* \"contracts/CrowdFund.sol\":11101:11140  projectList[i].raisedAmount + msg.value */\n      tag_426\n      swap2\n      swap1\n      tag_427\n      jump\t// in\n    tag_426:\n        /* \"contracts/CrowdFund.sol\":11071:11082  projectList */\n      dup3\n        /* \"contracts/CrowdFund.sol\":11083:11084  i */\n      dup3\n        /* \"contracts/CrowdFund.sol\":11071:11085  projectList[i] */\n      dup2\n      sload\n      dup2\n      lt\n      tag_428\n      jumpi\n      tag_429\n      tag_123\n      jump\t// in\n    tag_429:\n    tag_428:\n      swap1\n      0x00\n      mstore\n      keccak256(0x00, 0x20)\n      swap1\n      0x07\n      mul\n      add\n        /* \"contracts/CrowdFund.sol\":11071:11098  projectList[i].raisedAmount */\n      0x03\n      add\n        /* \"contracts/CrowdFund.sol\":11071:11140  projectList[i].raisedAmount = projectList[i].raisedAmount + msg.value */\n      dup2\n      swap1\n      sstore\n      pop\n        /* \"contracts/CrowdFund.sol\":11221:11240  Donor storage donor */\n      0x00\n        /* \"contracts/CrowdFund.sol\":11243:11249  donors */\n      0x03\n        /* \"contracts/CrowdFund.sol\":11243:11258  donors[donorId] */\n      0x00\n        /* \"contracts/CrowdFund.sol\":11250:11257  donorId */\n      dup7\n        /* \"contracts/CrowdFund.sol\":11243:11258  donors[donorId] */\n      dup2\n      mstore\n      0x20\n      add\n      swap1\n      dup2\n      mstore\n      0x20\n      add\n      0x00\n      keccak256\n        /* \"contracts/CrowdFund.sol\":11221:11258  Donor storage donor = donors[donorId] */\n      swap1\n      pop\n        /* \"contracts/CrowdFund.sol\":11477:11487  msg.sender */\n      caller\n        /* \"contracts/CrowdFund.sol\":11462:11487  donor.owner == msg.sender */\n      0xffffffffffffffffffffffffffffffffffffffff\n      and\n        /* \"contracts/CrowdFund.sol\":11462:11467  donor */\n      dup2\n        /* \"contracts/CrowdFund.sol\":11462:11473  donor.owner */\n      0x01\n      add\n      0x00\n      swap1\n      sload\n      swap1\n      0x0100\n      exp\n      swap1\n      div\n      0xffffffffffffffffffffffffffffffffffffffff\n      and\n        /* \"contracts/CrowdFund.sol\":11462:11487  donor.owner == msg.sender */\n      0xffffffffffffffffffffffffffffffffffffffff\n      and\n      eq\n        /* \"contracts/CrowdFund.sol\":11458:12006  if (donor.owner == msg.sender) {... */\n      iszero\n      tag_431\n      jumpi\n        /* \"contracts/CrowdFund.sol\":11564:11573  msg.value */\n      callvalue\n        /* \"contracts/CrowdFund.sol\":11519:11524  donor */\n      dup2\n        /* \"contracts/CrowdFund.sol\":11519:11549  donor.projectwiseContributions */\n      0x02\n      add\n        /* \"contracts/CrowdFund.sol\":11519:11560  donor.projectwiseContributions[projectId] */\n      0x00\n        /* \"contracts/CrowdFund.sol\":11550:11559  projectId */\n      dup9\n        /* \"contracts/CrowdFund.sol\":11519:11560  donor.projectwiseContributions[projectId] */\n      dup2\n      mstore\n      0x20\n      add\n      swap1\n      dup2\n      mstore\n      0x20\n      add\n      0x00\n      keccak256\n      0x00\n        /* \"contracts/CrowdFund.sol\":11519:11573  donor.projectwiseContributions[projectId] += msg.value */\n      dup3\n      dup3\n      sload\n      tag_432\n      swap2\n      swap1\n      tag_427\n      jump\t// in\n    tag_432:\n      swap3\n      pop\n      pop\n      dup2\n      swap1\n      sstore\n      pop\n        /* \"contracts/CrowdFund.sol\":11458:12006  if (donor.owner == msg.sender) {... */\n      jump(tag_433)\n    tag_431:\n        /* \"contracts/CrowdFund.sol\":11740:11762  Donor storage newDonor */\n      0x00\n        /* \"contracts/CrowdFund.sol\":11765:11771  donors */\n      0x03\n        /* \"contracts/CrowdFund.sol\":11765:11780  donors[donorId] */\n      0x00\n        /* \"contracts/CrowdFund.sol\":11772:11779  donorId */\n      dup8\n        /* \"contracts/CrowdFund.sol\":11765:11780  donors[donorId] */\n      dup2\n      mstore\n      0x20\n      add\n      swap1\n      dup2\n      mstore\n      0x20\n      add\n      0x00\n      keccak256\n        /* \"contracts/CrowdFund.sol\":11740:11780  Donor storage newDonor = donors[donorId] */\n      swap1\n      pop\n        /* \"contracts/CrowdFund.sol\":11829:11836  donorId */\n      dup6\n        /* \"contracts/CrowdFund.sol\":11810:11818  newDonor */\n      dup2\n        /* \"contracts/CrowdFund.sol\":11810:11826  newDonor.donorId */\n      0x00\n      add\n        /* \"contracts/CrowdFund.sol\":11810:11836  newDonor.donorId = donorId */\n      dup2\n      swap1\n      sstore\n      pop\n        /* \"contracts/CrowdFund.sol\":11883:11893  msg.sender */\n      caller\n        /* \"contracts/CrowdFund.sol\":11866:11874  newDonor */\n      dup2\n        /* \"contracts/CrowdFund.sol\":11866:11880  newDonor.owner */\n      0x01\n      add\n      0x00\n        /* \"contracts/CrowdFund.sol\":11866:11893  newDonor.owner = msg.sender */\n      0x0100\n      exp\n      dup2\n      sload\n      dup2\n      0xffffffffffffffffffffffffffffffffffffffff\n      mul\n      not\n      and\n      swap1\n      dup4\n      0xffffffffffffffffffffffffffffffffffffffff\n      and\n      mul\n      or\n      swap1\n      sstore\n      pop\n        /* \"contracts/CrowdFund.sol\":11970:11979  msg.value */\n      callvalue\n        /* \"contracts/CrowdFund.sol\":11923:11931  newDonor */\n      dup2\n        /* \"contracts/CrowdFund.sol\":11923:11956  newDonor.projectwiseContributions */\n      0x02\n      add\n        /* \"contracts/CrowdFund.sol\":11923:11967  newDonor.projectwiseContributions[projectId] */\n      0x00\n        /* \"contracts/CrowdFund.sol\":11957:11966  projectId */\n      dup10\n        /* \"contracts/CrowdFund.sol\":11923:11967  newDonor.projectwiseContributions[projectId] */\n      dup2\n      mstore\n      0x20\n      add\n      swap1\n      dup2\n      mstore\n      0x20\n      add\n      0x00\n      keccak256\n        /* \"contracts/CrowdFund.sol\":11923:11979  newDonor.projectwiseContributions[projectId] = msg.value */\n      dup2\n      swap1\n      sstore\n      pop\n        /* \"contracts/CrowdFund.sol\":11606:12006  { // It means no donor already exist under this donorId... */\n      pop\n        /* \"contracts/CrowdFund.sol\":11458:12006  if (donor.owner == msg.sender) {... */\n    tag_433:\n        /* \"contracts/CrowdFund.sol\":12125:12136  projectList */\n      dup3\n        /* \"contracts/CrowdFund.sol\":12137:12138  i */\n      dup3\n        /* \"contracts/CrowdFund.sol\":12125:12139  projectList[i] */\n      dup2\n      sload\n      dup2\n      lt\n      tag_434\n      jumpi\n      tag_435\n      tag_123\n      jump\t// in\n    tag_435:\n    tag_434:\n      swap1\n      0x00\n      mstore\n      keccak256(0x00, 0x20)\n      swap1\n      0x07\n      mul\n      add\n        /* \"contracts/CrowdFund.sol\":12125:12144  projectList[i].goal */\n      0x02\n      add\n      sload\n        /* \"contracts/CrowdFund.sol\":12094:12105  projectList */\n      dup4\n        /* \"contracts/CrowdFund.sol\":12106:12107  i */\n      dup4\n        /* \"contracts/CrowdFund.sol\":12094:12108  projectList[i] */\n      dup2\n      sload\n      dup2\n      lt\n      tag_437\n      jumpi\n      tag_438\n      tag_123\n      jump\t// in\n    tag_438:\n    tag_437:\n      swap1\n      0x00\n      mstore\n      keccak256(0x00, 0x20)\n      swap1\n      0x07\n      mul\n      add\n        /* \"contracts/CrowdFund.sol\":12094:12121  projectList[i].raisedAmount */\n      0x03\n      add\n      sload\n        /* \"contracts/CrowdFund.sol\":12094:12144  projectList[i].raisedAmount == projectList[i].goal */\n      eq\n        /* \"contracts/CrowdFund.sol\":12090:12602  if (projectList[i].raisedAmount == projectList[i].goal) {... */\n      iszero\n      tag_440\n      jumpi\n        /* \"contracts/CrowdFund.sol\":12256:12273  ProjectStatus.PGA */\n      0x03\n        /* \"contracts/CrowdFund.sol\":12225:12236  projectList */\n      dup4\n        /* \"contracts/CrowdFund.sol\":12237:12238  i */\n      dup4\n        /* \"contracts/CrowdFund.sol\":12225:12239  projectList[i] */\n      dup2\n      sload\n      dup2\n      lt\n      tag_441\n      jumpi\n      tag_442\n      tag_123\n      jump\t// in\n    tag_442:\n    tag_441:\n      swap1\n      0x00\n      mstore\n      keccak256(0x00, 0x20)\n      swap1\n      0x07\n      mul\n      add\n        /* \"contracts/CrowdFund.sol\":12225:12253  projectList[i].projectStatus */\n      0x06\n      add\n      0x00\n        /* \"contracts/CrowdFund.sol\":12225:12273  projectList[i].projectStatus = ProjectStatus.PGA */\n      0x0100\n      exp\n      dup2\n      sload\n      dup2\n      0xff\n      mul\n      not\n      and\n      swap1\n      dup4\n      0x09\n      dup2\n      gt\n      iszero\n      tag_444\n      jumpi\n      tag_445\n      tag_150\n      jump\t// in\n    tag_445:\n    tag_444:\n      mul\n      or\n      swap1\n      sstore\n      pop\n        /* \"contracts/CrowdFund.sol\":12394:12399  false */\n      0x00\n        /* \"contracts/CrowdFund.sol\":12362:12373  projectList */\n      dup4\n        /* \"contracts/CrowdFund.sol\":12374:12375  i */\n      dup4\n        /* \"contracts/CrowdFund.sol\":12362:12376  projectList[i] */\n      dup2\n      sload\n      dup2\n      lt\n      tag_446\n      jumpi\n      tag_447\n      tag_123\n      jump\t// in\n    tag_447:\n    tag_446:\n      swap1\n      0x00\n      mstore\n      keccak256(0x00, 0x20)\n      swap1\n      0x07\n      mul\n      add\n        /* \"contracts/CrowdFund.sol\":12362:12391  projectList[i].acceptDonation */\n      0x04\n      add\n      0x14\n        /* \"contracts/CrowdFund.sol\":12362:12399  projectList[i].acceptDonation = false */\n      0x0100\n      exp\n      dup2\n      sload\n      dup2\n      0xff\n      mul\n      not\n      and\n      swap1\n      dup4\n      iszero\n      iszero\n      mul\n      or\n      swap1\n      sstore\n      pop\n        /* \"contracts/CrowdFund.sol\":12510:12575  ReceiverMessageToCharity(charityId, projectId, ProjectStatus.PGA) */\n      0x4460a3075d16e0c301975989c352adf5efef3f00e4b1cd798431dddda7179e58\n        /* \"contracts/CrowdFund.sol\":12535:12544  charityId */\n      dup8\n        /* \"contracts/CrowdFund.sol\":12546:12555  projectId */\n      dup8\n        /* \"contracts/CrowdFund.sol\":12557:12574  ProjectStatus.PGA */\n      0x03\n        /* \"contracts/CrowdFund.sol\":12510:12575  ReceiverMessageToCharity(charityId, projectId, ProjectStatus.PGA) */\n      mload(0x40)\n      tag_449\n      swap4\n      swap3\n      swap2\n      swap1\n      tag_202\n      jump\t// in\n    tag_449:\n      mload(0x40)\n      dup1\n      swap2\n      sub\n      swap1\n      log1\n        /* \"contracts/CrowdFund.sol\":12090:12602  if (projectList[i].raisedAmount == projectList[i].goal) {... */\n    tag_440:\n        /* \"contracts/CrowdFund.sol\":10928:12624  {... */\n      pop\n        /* \"contracts/CrowdFund.sol\":10893:12733  if (projectList[i].acceptDonation) {... */\n      jump(tag_450)\n    tag_416:\n        /* \"contracts/CrowdFund.sol\":12656:12710  revert(\"No more donations accepted for this project.\") */\n      mload(0x40)\n      0x08c379a000000000000000000000000000000000000000000000000000000000\n      dup2\n      mstore\n      0x04\n      add\n      tag_451\n      swap1\n      tag_452\n      jump\t// in\n    tag_451:\n      mload(0x40)\n      dup1\n      swap2\n      sub\n      swap1\n      revert\n        /* \"contracts/CrowdFund.sol\":10893:12733  if (projectList[i].acceptDonation) {... */\n    tag_450:\n        /* \"contracts/CrowdFund.sol\":12770:12774  true */\n      0x01\n        /* \"contracts/CrowdFund.sol\":12755:12774  projectExist = true */\n      swap3\n      pop\n        /* \"contracts/CrowdFund.sol\":12796:12801  break */\n      jump(tag_407)\n        /* \"contracts/CrowdFund.sol\":10827:12820  if (projectList[i].projectId == projectId) { ... */\n    tag_412:\n        /* \"contracts/CrowdFund.sol\":10804:10807  i++ */\n      dup1\n      dup1\n      tag_453\n      swap1\n      tag_141\n      jump\t// in\n    tag_453:\n      swap2\n      pop\n      pop\n        /* \"contracts/CrowdFund.sol\":10769:12834  for (uint i=0;i<projectList.length;i++) {... */\n      jump(tag_406)\n    tag_407:\n      pop\n        /* \"contracts/CrowdFund.sol\":12853:12865  projectExist */\n      dup2\n        /* \"contracts/CrowdFund.sol\":12848:12933  if (!projectExist)... */\n      tag_454\n      jumpi\n        /* \"contracts/CrowdFund.sol\":12883:12933  revert(\"No such project exist under this charity\") */\n      mload(0x40)\n      0x08c379a000000000000000000000000000000000000000000000000000000000\n      dup2\n      mstore\n      0x04\n      add\n      tag_455\n      swap1\n      tag_143\n      jump\t// in\n    tag_455:\n      mload(0x40)\n      dup1\n      swap2\n      sub\n      swap1\n      revert\n        /* \"contracts/CrowdFund.sol\":12848:12933  if (!projectExist)... */\n    tag_454:\n        /* \"contracts/CrowdFund.sol\":10579:12940  {... */\n      pop\n      pop\n        /* \"contracts/CrowdFund.sol\":10502:12940  function donate(uint charityId, uint projectId, uint donorId) public payable {... */\n      pop\n      pop\n      pop\n      jump\t// out\n        /* \"contracts/CrowdFund.sol\":789:815  Charity[] public charities */\n    tag_95:\n      0x01\n      dup2\n      dup2\n      sload\n      dup2\n      lt\n      tag_456\n      jumpi\n      0x00\n      dup1\n      revert\n    tag_456:\n      swap1\n      0x00\n      mstore\n      keccak256(0x00, 0x20)\n      swap1\n      0x05\n      mul\n      add\n      0x00\n      swap2\n      pop\n      swap1\n      pop\n      dup1\n      0x00\n      add\n      sload\n      swap1\n      dup1\n      0x01\n      add\n      0x00\n      swap1\n      sload\n      swap1\n      0x0100\n      exp\n      swap1\n      div\n      0xff\n      and\n      swap1\n      dup1\n      0x02\n      add\n      dup1\n      sload\n      tag_458\n      swap1\n      tag_101\n      jump\t// in\n    tag_458:\n      dup1\n      0x1f\n      add\n      0x20\n      dup1\n      swap2\n      div\n      mul\n      0x20\n      add\n      mload(0x40)\n      swap1\n      dup2\n      add\n      0x40\n      mstore\n      dup1\n      swap3\n      swap2\n      swap1\n      dup2\n      dup2\n      mstore\n      0x20\n      add\n      dup3\n      dup1\n      sload\n      tag_459\n      swap1\n      tag_101\n      jump\t// in\n    tag_459:\n      dup1\n      iszero\n      tag_460\n      jumpi\n      dup1\n      0x1f\n      lt\n      tag_461\n      jumpi\n      0x0100\n      dup1\n      dup4\n      sload\n      div\n      mul\n      dup4\n      mstore\n      swap2\n      0x20\n      add\n      swap2\n      jump(tag_460)\n    tag_461:\n      dup3\n      add\n      swap2\n      swap1\n      0x00\n      mstore\n      keccak256(0x00, 0x20)\n      swap1\n    tag_462:\n      dup2\n      sload\n      dup2\n      mstore\n      swap1\n      0x01\n      add\n      swap1\n      0x20\n      add\n      dup1\n      dup4\n      gt\n      tag_462\n      jumpi\n      dup3\n      swap1\n      sub\n      0x1f\n      and\n      dup3\n      add\n      swap2\n    tag_460:\n      pop\n      pop\n      pop\n      pop\n      pop\n      swap1\n      dup1\n      0x03\n      add\n      dup1\n      sload\n      tag_463\n      swap1\n      tag_101\n      jump\t// in\n    tag_463:\n      dup1\n      0x1f\n      add\n      0x20\n      dup1\n      swap2\n      div\n      mul\n      0x20\n      add\n      mload(0x40)\n      swap1\n      dup2\n      add\n      0x40\n      mstore\n      dup1\n      swap3\n      swap2\n      swap1\n      dup2\n      dup2\n      mstore\n      0x20\n      add\n      dup3\n      dup1\n      sload\n      tag_464\n      swap1\n      tag_101\n      jump\t// in\n    tag_464:\n      dup1\n      iszero\n      tag_465\n      jumpi\n      dup1\n      0x1f\n      lt\n      tag_466\n      jumpi\n      0x0100\n      dup1\n      dup4\n      sload\n      div\n      mul\n      dup4\n      mstore\n      swap2\n      0x20\n      add\n      swap2\n      jump(tag_465)\n    tag_466:\n      dup3\n      add\n      swap2\n      swap1\n      0x00\n      mstore\n      keccak256(0x00, 0x20)\n      swap1\n    tag_467:\n      dup2\n      sload\n      dup2\n      mstore\n      swap1\n      0x01\n      add\n      swap1\n      0x20\n      add\n      dup1\n      dup4\n      gt\n      tag_467\n      jumpi\n      dup3\n      swap1\n      sub\n      0x1f\n      and\n      dup3\n      add\n      swap2\n    tag_465:\n      pop\n      pop\n      pop\n      pop\n      pop\n      swap1\n      dup1\n      0x04\n      add\n      0x00\n      swap1\n      sload\n      swap1\n      0x0100\n      exp\n      swap1\n      div\n      0xffffffffffffffffffffffffffffffffffffffff\n      and\n      swap1\n      pop\n      dup6\n      jump\t// out\n    tag_112:\n      dup3\n      dup1\n      sload\n      tag_468\n      swap1\n      tag_101\n      jump\t// in\n    tag_468:\n      swap1\n      0x00\n      mstore\n      keccak256(0x00, 0x20)\n      swap1\n      0x1f\n      add\n      0x20\n      swap1\n      div\n      dup2\n      add\n      swap3\n      dup3\n      tag_470\n      jumpi\n      0x00\n      dup6\n      sstore\n      jump(tag_469)\n    tag_470:\n      dup3\n      0x1f\n      lt\n      tag_471\n      jumpi\n      dup1\n      mload\n      not(0xff)\n      and\n      dup4\n      dup1\n      add\n      or\n      dup6\n      sstore\n      jump(tag_469)\n    tag_471:\n      dup3\n      dup1\n      add\n      0x01\n      add\n      dup6\n      sstore\n      dup3\n      iszero\n      tag_469\n      jumpi\n      swap2\n      dup3\n      add\n    tag_472:\n      dup3\n      dup2\n      gt\n      iszero\n      tag_473\n      jumpi\n      dup3\n      mload\n      dup3\n      sstore\n      swap2\n      0x20\n      add\n      swap2\n      swap1\n      0x01\n      add\n      swap1\n      jump(tag_472)\n    tag_473:\n    tag_469:\n      pop\n      swap1\n      pop\n      tag_474\n      swap2\n      swap1\n      tag_475\n      jump\t// in\n    tag_474:\n      pop\n      swap1\n      jump\t// out\n    tag_475:\n    tag_476:\n      dup1\n      dup3\n      gt\n      iszero\n      tag_477\n      jumpi\n      0x00\n      dup2\n      0x00\n      swap1\n      sstore\n      pop\n      0x01\n      add\n      jump(tag_476)\n    tag_477:\n      pop\n      swap1\n      jump\t// out\n        /* \"#utility.yul\":7:419   */\n    tag_479:\n        /* \"#utility.yul\":85:90   */\n      0x00\n        /* \"#utility.yul\":110:176   */\n      tag_481\n        /* \"#utility.yul\":126:175   */\n      tag_482\n        /* \"#utility.yul\":168:174   */\n      dup5\n        /* \"#utility.yul\":126:175   */\n      tag_483\n      jump\t// in\n    tag_482:\n        /* \"#utility.yul\":110:176   */\n      tag_484\n      jump\t// in\n    tag_481:\n        /* \"#utility.yul\":101:176   */\n      swap1\n      pop\n        /* \"#utility.yul\":199:205   */\n      dup3\n        /* \"#utility.yul\":192:197   */\n      dup2\n        /* \"#utility.yul\":185:206   */\n      mstore\n        /* \"#utility.yul\":237:241   */\n      0x20\n        /* \"#utility.yul\":230:235   */\n      dup2\n        /* \"#utility.yul\":226:242   */\n      add\n        /* \"#utility.yul\":275:278   */\n      dup5\n        /* \"#utility.yul\":266:272   */\n      dup5\n        /* \"#utility.yul\":261:264   */\n      dup5\n        /* \"#utility.yul\":257:273   */\n      add\n        /* \"#utility.yul\":254:279   */\n      gt\n        /* \"#utility.yul\":251:363   */\n      iszero\n      tag_485\n      jumpi\n        /* \"#utility.yul\":282:361   */\n      tag_486\n      tag_487\n      jump\t// in\n    tag_486:\n        /* \"#utility.yul\":251:363   */\n    tag_485:\n        /* \"#utility.yul\":372:413   */\n      tag_488\n        /* \"#utility.yul\":406:412   */\n      dup5\n        /* \"#utility.yul\":401:404   */\n      dup3\n        /* \"#utility.yul\":396:399   */\n      dup6\n        /* \"#utility.yul\":372:413   */\n      tag_489\n      jump\t// in\n    tag_488:\n        /* \"#utility.yul\":91:419   */\n      pop\n        /* \"#utility.yul\":7:419   */\n      swap4\n      swap3\n      pop\n      pop\n      pop\n      jump\t// out\n        /* \"#utility.yul\":425:564   */\n    tag_490:\n        /* \"#utility.yul\":471:476   */\n      0x00\n        /* \"#utility.yul\":509:515   */\n      dup2\n        /* \"#utility.yul\":496:516   */\n      calldataload\n        /* \"#utility.yul\":487:516   */\n      swap1\n      pop\n        /* \"#utility.yul\":525:558   */\n      tag_492\n        /* \"#utility.yul\":552:557   */\n      dup2\n        /* \"#utility.yul\":525:558   */\n      tag_493\n      jump\t// in\n    tag_492:\n        /* \"#utility.yul\":425:564   */\n      swap3\n      swap2\n      pop\n      pop\n      jump\t// out\n        /* \"#utility.yul\":570:741   */\n    tag_494:\n        /* \"#utility.yul\":632:637   */\n      0x00\n        /* \"#utility.yul\":670:676   */\n      dup2\n        /* \"#utility.yul\":657:677   */\n      calldataload\n        /* \"#utility.yul\":648:677   */\n      swap1\n      pop\n        /* \"#utility.yul\":686:735   */\n      tag_496\n        /* \"#utility.yul\":729:734   */\n      dup2\n        /* \"#utility.yul\":686:735   */\n      tag_497\n      jump\t// in\n    tag_496:\n        /* \"#utility.yul\":570:741   */\n      swap3\n      swap2\n      pop\n      pop\n      jump\t// out\n        /* \"#utility.yul\":761:1101   */\n    tag_498:\n        /* \"#utility.yul\":817:822   */\n      0x00\n        /* \"#utility.yul\":866:869   */\n      dup3\n        /* \"#utility.yul\":859:863   */\n      0x1f\n        /* \"#utility.yul\":851:857   */\n      dup4\n        /* \"#utility.yul\":847:864   */\n      add\n        /* \"#utility.yul\":843:870   */\n      slt\n        /* \"#utility.yul\":833:955   */\n      tag_500\n      jumpi\n        /* \"#utility.yul\":874:953   */\n      tag_501\n      tag_502\n      jump\t// in\n    tag_501:\n        /* \"#utility.yul\":833:955   */\n    tag_500:\n        /* \"#utility.yul\":991:997   */\n      dup2\n        /* \"#utility.yul\":978:998   */\n      calldataload\n        /* \"#utility.yul\":1016:1095   */\n      tag_503\n        /* \"#utility.yul\":1091:1094   */\n      dup5\n        /* \"#utility.yul\":1083:1089   */\n      dup3\n        /* \"#utility.yul\":1076:1080   */\n      0x20\n        /* \"#utility.yul\":1068:1074   */\n      dup7\n        /* \"#utility.yul\":1064:1081   */\n      add\n        /* \"#utility.yul\":1016:1095   */\n      tag_479\n      jump\t// in\n    tag_503:\n        /* \"#utility.yul\":1007:1095   */\n      swap2\n      pop\n        /* \"#utility.yul\":823:1101   */\n      pop\n        /* \"#utility.yul\":761:1101   */\n      swap3\n      swap2\n      pop\n      pop\n      jump\t// out\n        /* \"#utility.yul\":1107:1246   */\n    tag_504:\n        /* \"#utility.yul\":1153:1158   */\n      0x00\n        /* \"#utility.yul\":1191:1197   */\n      dup2\n        /* \"#utility.yul\":1178:1198   */\n      calldataload\n        /* \"#utility.yul\":1169:1198   */\n      swap1\n      pop\n        /* \"#utility.yul\":1207:1240   */\n      tag_506\n        /* \"#utility.yul\":1234:1239   */\n      dup2\n        /* \"#utility.yul\":1207:1240   */\n      tag_507\n      jump\t// in\n    tag_506:\n        /* \"#utility.yul\":1107:1246   */\n      swap3\n      swap2\n      pop\n      pop\n      jump\t// out\n        /* \"#utility.yul\":1252:1387   */\n    tag_508:\n        /* \"#utility.yul\":1296:1301   */\n      0x00\n        /* \"#utility.yul\":1334:1340   */\n      dup2\n        /* \"#utility.yul\":1321:1341   */\n      calldataload\n        /* \"#utility.yul\":1312:1341   */\n      swap1\n      pop\n        /* \"#utility.yul\":1350:1381   */\n      tag_510\n        /* \"#utility.yul\":1375:1380   */\n      dup2\n        /* \"#utility.yul\":1350:1381   */\n      tag_511\n      jump\t// in\n    tag_510:\n        /* \"#utility.yul\":1252:1387   */\n      swap3\n      swap2\n      pop\n      pop\n      jump\t// out\n        /* \"#utility.yul\":1393:1754   */\n    tag_86:\n        /* \"#utility.yul\":1468:1474   */\n      0x00\n        /* \"#utility.yul\":1517:1519   */\n      0x20\n        /* \"#utility.yul\":1505:1514   */\n      dup3\n        /* \"#utility.yul\":1496:1503   */\n      dup5\n        /* \"#utility.yul\":1492:1515   */\n      sub\n        /* \"#utility.yul\":1488:1520   */\n      slt\n        /* \"#utility.yul\":1485:1604   */\n      iszero\n      tag_513\n      jumpi\n        /* \"#utility.yul\":1523:1602   */\n      tag_514\n      tag_515\n      jump\t// in\n    tag_514:\n        /* \"#utility.yul\":1485:1604   */\n    tag_513:\n        /* \"#utility.yul\":1643:1644   */\n      0x00\n        /* \"#utility.yul\":1668:1737   */\n      tag_516\n        /* \"#utility.yul\":1729:1736   */\n      dup5\n        /* \"#utility.yul\":1720:1726   */\n      dup3\n        /* \"#utility.yul\":1709:1718   */\n      dup6\n        /* \"#utility.yul\":1705:1727   */\n      add\n        /* \"#utility.yul\":1668:1737   */\n      tag_494\n      jump\t// in\n    tag_516:\n        /* \"#utility.yul\":1658:1737   */\n      swap2\n      pop\n        /* \"#utility.yul\":1614:1747   */\n      pop\n        /* \"#utility.yul\":1393:1754   */\n      swap3\n      swap2\n      pop\n      pop\n      jump\t// out\n        /* \"#utility.yul\":1760:2089   */\n    tag_23:\n        /* \"#utility.yul\":1819:1825   */\n      0x00\n        /* \"#utility.yul\":1868:1870   */\n      0x20\n        /* \"#utility.yul\":1856:1865   */\n      dup3\n        /* \"#utility.yul\":1847:1854   */\n      dup5\n        /* \"#utility.yul\":1843:1866   */\n      sub\n        /* \"#utility.yul\":1839:1871   */\n      slt\n        /* \"#utility.yul\":1836:1955   */\n      iszero\n      tag_518\n      jumpi\n        /* \"#utility.yul\":1874:1953   */\n      tag_519\n      tag_515\n      jump\t// in\n    tag_519:\n        /* \"#utility.yul\":1836:1955   */\n    tag_518:\n        /* \"#utility.yul\":1994:1995   */\n      0x00\n        /* \"#utility.yul\":2019:2072   */\n      tag_520\n        /* \"#utility.yul\":2064:2071   */\n      dup5\n        /* \"#utility.yul\":2055:2061   */\n      dup3\n        /* \"#utility.yul\":2044:2053   */\n      dup6\n        /* \"#utility.yul\":2040:2062   */\n      add\n        /* \"#utility.yul\":2019:2072   */\n      tag_504\n      jump\t// in\n    tag_520:\n        /* \"#utility.yul\":2009:2072   */\n      swap2\n      pop\n        /* \"#utility.yul\":1965:2082   */\n      pop\n        /* \"#utility.yul\":1760:2089   */\n      swap3\n      swap2\n      pop\n      pop\n      jump\t// out\n        /* \"#utility.yul\":2095:2749   */\n    tag_81:\n        /* \"#utility.yul\":2173:2179   */\n      0x00\n        /* \"#utility.yul\":2181:2187   */\n      dup1\n        /* \"#utility.yul\":2230:2232   */\n      0x40\n        /* \"#utility.yul\":2218:2227   */\n      dup4\n        /* \"#utility.yul\":2209:2216   */\n      dup6\n        /* \"#utility.yul\":2205:2228   */\n      sub\n        /* \"#utility.yul\":2201:2233   */\n      slt\n        /* \"#utility.yul\":2198:2317   */\n      iszero\n      tag_522\n      jumpi\n        /* \"#utility.yul\":2236:2315   */\n      tag_523\n      tag_515\n      jump\t// in\n    tag_523:\n        /* \"#utility.yul\":2198:2317   */\n    tag_522:\n        /* \"#utility.yul\":2356:2357   */\n      0x00\n        /* \"#utility.yul\":2381:2434   */\n      tag_524\n        /* \"#utility.yul\":2426:2433   */\n      dup6\n        /* \"#utility.yul\":2417:2423   */\n      dup3\n        /* \"#utility.yul\":2406:2415   */\n      dup7\n        /* \"#utility.yul\":2402:2424   */\n      add\n        /* \"#utility.yul\":2381:2434   */\n      tag_504\n      jump\t// in\n    tag_524:\n        /* \"#utility.yul\":2371:2434   */\n      swap3\n      pop\n        /* \"#utility.yul\":2327:2444   */\n      pop\n        /* \"#utility.yul\":2511:2513   */\n      0x20\n        /* \"#utility.yul\":2500:2509   */\n      dup4\n        /* \"#utility.yul\":2496:2514   */\n      add\n        /* \"#utility.yul\":2483:2515   */\n      calldataload\n        /* \"#utility.yul\":2542:2560   */\n      0xffffffffffffffff\n        /* \"#utility.yul\":2534:2540   */\n      dup2\n        /* \"#utility.yul\":2531:2561   */\n      gt\n        /* \"#utility.yul\":2528:2645   */\n      iszero\n      tag_525\n      jumpi\n        /* \"#utility.yul\":2564:2643   */\n      tag_526\n      tag_527\n      jump\t// in\n    tag_526:\n        /* \"#utility.yul\":2528:2645   */\n    tag_525:\n        /* \"#utility.yul\":2669:2732   */\n      tag_528\n        /* \"#utility.yul\":2724:2731   */\n      dup6\n        /* \"#utility.yul\":2715:2721   */\n      dup3\n        /* \"#utility.yul\":2704:2713   */\n      dup7\n        /* \"#utility.yul\":2700:2722   */\n      add\n        /* \"#utility.yul\":2669:2732   */\n      tag_498\n      jump\t// in\n    tag_528:\n        /* \"#utility.yul\":2659:2732   */\n      swap2\n      pop\n        /* \"#utility.yul\":2454:2742   */\n      pop\n        /* \"#utility.yul\":2095:2749   */\n      swap3\n      pop\n      swap3\n      swap1\n      pop\n      jump\t// out\n        /* \"#utility.yul\":2755:3554   */\n    tag_30:\n        /* \"#utility.yul\":2842:2848   */\n      0x00\n        /* \"#utility.yul\":2850:2856   */\n      dup1\n        /* \"#utility.yul\":2858:2864   */\n      0x00\n        /* \"#utility.yul\":2907:2909   */\n      0x60\n        /* \"#utility.yul\":2895:2904   */\n      dup5\n        /* \"#utility.yul\":2886:2893   */\n      dup7\n        /* \"#utility.yul\":2882:2905   */\n      sub\n        /* \"#utility.yul\":2878:2910   */\n      slt\n        /* \"#utility.yul\":2875:2994   */\n      iszero\n      tag_530\n      jumpi\n        /* \"#utility.yul\":2913:2992   */\n      tag_531\n      tag_515\n      jump\t// in\n    tag_531:\n        /* \"#utility.yul\":2875:2994   */\n    tag_530:\n        /* \"#utility.yul\":3033:3034   */\n      0x00\n        /* \"#utility.yul\":3058:3111   */\n      tag_532\n        /* \"#utility.yul\":3103:3110   */\n      dup7\n        /* \"#utility.yul\":3094:3100   */\n      dup3\n        /* \"#utility.yul\":3083:3092   */\n      dup8\n        /* \"#utility.yul\":3079:3101   */\n      add\n        /* \"#utility.yul\":3058:3111   */\n      tag_504\n      jump\t// in\n    tag_532:\n        /* \"#utility.yul\":3048:3111   */\n      swap4\n      pop\n        /* \"#utility.yul\":3004:3121   */\n      pop\n        /* \"#utility.yul\":3188:3190   */\n      0x20\n        /* \"#utility.yul\":3177:3186   */\n      dup5\n        /* \"#utility.yul\":3173:3191   */\n      add\n        /* \"#utility.yul\":3160:3192   */\n      calldataload\n        /* \"#utility.yul\":3219:3237   */\n      0xffffffffffffffff\n        /* \"#utility.yul\":3211:3217   */\n      dup2\n        /* \"#utility.yul\":3208:3238   */\n      gt\n        /* \"#utility.yul\":3205:3322   */\n      iszero\n      tag_533\n      jumpi\n        /* \"#utility.yul\":3241:3320   */\n      tag_534\n      tag_527\n      jump\t// in\n    tag_534:\n        /* \"#utility.yul\":3205:3322   */\n    tag_533:\n        /* \"#utility.yul\":3346:3409   */\n      tag_535\n        /* \"#utility.yul\":3401:3408   */\n      dup7\n        /* \"#utility.yul\":3392:3398   */\n      dup3\n        /* \"#utility.yul\":3381:3390   */\n      dup8\n        /* \"#utility.yul\":3377:3399   */\n      add\n        /* \"#utility.yul\":3346:3409   */\n      tag_498\n      jump\t// in\n    tag_535:\n        /* \"#utility.yul\":3336:3409   */\n      swap3\n      pop\n        /* \"#utility.yul\":3131:3419   */\n      pop\n        /* \"#utility.yul\":3458:3460   */\n      0x40\n        /* \"#utility.yul\":3484:3537   */\n      tag_536\n        /* \"#utility.yul\":3529:3536   */\n      dup7\n        /* \"#utility.yul\":3520:3526   */\n      dup3\n        /* \"#utility.yul\":3509:3518   */\n      dup8\n        /* \"#utility.yul\":3505:3527   */\n      add\n        /* \"#utility.yul\":3484:3537   */\n      tag_490\n      jump\t// in\n    tag_536:\n        /* \"#utility.yul\":3474:3537   */\n      swap2\n      pop\n        /* \"#utility.yul\":3429:3547   */\n      pop\n        /* \"#utility.yul\":2755:3554   */\n      swap3\n      pop\n      swap3\n      pop\n      swap3\n      jump\t// out\n        /* \"#utility.yul\":3560:4034   */\n    tag_40:\n        /* \"#utility.yul\":3628:3634   */\n      0x00\n        /* \"#utility.yul\":3636:3642   */\n      dup1\n        /* \"#utility.yul\":3685:3687   */\n      0x40\n        /* \"#utility.yul\":3673:3682   */\n      dup4\n        /* \"#utility.yul\":3664:3671   */\n      dup6\n        /* \"#utility.yul\":3660:3683   */\n      sub\n        /* \"#utility.yul\":3656:3688   */\n      slt\n        /* \"#utility.yul\":3653:3772   */\n      iszero\n      tag_538\n      jumpi\n        /* \"#utility.yul\":3691:3770   */\n      tag_539\n      tag_515\n      jump\t// in\n    tag_539:\n        /* \"#utility.yul\":3653:3772   */\n    tag_538:\n        /* \"#utility.yul\":3811:3812   */\n      0x00\n        /* \"#utility.yul\":3836:3889   */\n      tag_540\n        /* \"#utility.yul\":3881:3888   */\n      dup6\n        /* \"#utility.yul\":3872:3878   */\n      dup3\n        /* \"#utility.yul\":3861:3870   */\n      dup7\n        /* \"#utility.yul\":3857:3879   */\n      add\n        /* \"#utility.yul\":3836:3889   */\n      tag_504\n      jump\t// in\n    tag_540:\n        /* \"#utility.yul\":3826:3889   */\n      swap3\n      pop\n        /* \"#utility.yul\":3782:3899   */\n      pop\n        /* \"#utility.yul\":3938:3940   */\n      0x20\n        /* \"#utility.yul\":3964:4017   */\n      tag_541\n        /* \"#utility.yul\":4009:4016   */\n      dup6\n        /* \"#utility.yul\":4000:4006   */\n      dup3\n        /* \"#utility.yul\":3989:3998   */\n      dup7\n        /* \"#utility.yul\":3985:4007   */\n      add\n        /* \"#utility.yul\":3964:4017   */\n      tag_504\n      jump\t// in\n    tag_541:\n        /* \"#utility.yul\":3954:4017   */\n      swap2\n      pop\n        /* \"#utility.yul\":3909:4027   */\n      pop\n        /* \"#utility.yul\":3560:4034   */\n      swap3\n      pop\n      swap3\n      swap1\n      pop\n      jump\t// out\n        /* \"#utility.yul\":4040:4659   */\n    tag_71:\n        /* \"#utility.yul\":4117:4123   */\n      0x00\n        /* \"#utility.yul\":4125:4131   */\n      dup1\n        /* \"#utility.yul\":4133:4139   */\n      0x00\n        /* \"#utility.yul\":4182:4184   */\n      0x60\n        /* \"#utility.yul\":4170:4179   */\n      dup5\n        /* \"#utility.yul\":4161:4168   */\n      dup7\n        /* \"#utility.yul\":4157:4180   */\n      sub\n        /* \"#utility.yul\":4153:4185   */\n      slt\n        /* \"#utility.yul\":4150:4269   */\n      iszero\n      tag_543\n      jumpi\n        /* \"#utility.yul\":4188:4267   */\n      tag_544\n      tag_515\n      jump\t// in\n    tag_544:\n        /* \"#utility.yul\":4150:4269   */\n    tag_543:\n        /* \"#utility.yul\":4308:4309   */\n      0x00\n        /* \"#utility.yul\":4333:4386   */\n      tag_545\n        /* \"#utility.yul\":4378:4385   */\n      dup7\n        /* \"#utility.yul\":4369:4375   */\n      dup3\n        /* \"#utility.yul\":4358:4367   */\n      dup8\n        /* \"#utility.yul\":4354:4376   */\n      add\n        /* \"#utility.yul\":4333:4386   */\n      tag_504\n      jump\t// in\n    tag_545:\n        /* \"#utility.yul\":4323:4386   */\n      swap4\n      pop\n        /* \"#utility.yul\":4279:4396   */\n      pop\n        /* \"#utility.yul\":4435:4437   */\n      0x20\n        /* \"#utility.yul\":4461:4514   */\n      tag_546\n        /* \"#utility.yul\":4506:4513   */\n      dup7\n        /* \"#utility.yul\":4497:4503   */\n      dup3\n        /* \"#utility.yul\":4486:4495   */\n      dup8\n        /* \"#utility.yul\":4482:4504   */\n      add\n        /* \"#utility.yul\":4461:4514   */\n      tag_504\n      jump\t// in\n    tag_546:\n        /* \"#utility.yul\":4451:4514   */\n      swap3\n      pop\n        /* \"#utility.yul\":4406:4524   */\n      pop\n        /* \"#utility.yul\":4563:4565   */\n      0x40\n        /* \"#utility.yul\":4589:4642   */\n      tag_547\n        /* \"#utility.yul\":4634:4641   */\n      dup7\n        /* \"#utility.yul\":4625:4631   */\n      dup3\n        /* \"#utility.yul\":4614:4623   */\n      dup8\n        /* \"#utility.yul\":4610:4632   */\n      add\n        /* \"#utility.yul\":4589:4642   */\n      tag_504\n      jump\t// in\n    tag_547:\n        /* \"#utility.yul\":4579:4642   */\n      swap2\n      pop\n        /* \"#utility.yul\":4534:4652   */\n      pop\n        /* \"#utility.yul\":4040:4659   */\n      swap3\n      pop\n      swap3\n      pop\n      swap3\n      jump\t// out\n        /* \"#utility.yul\":4665:5756   */\n    tag_56:\n        /* \"#utility.yul\":4770:4776   */\n      0x00\n        /* \"#utility.yul\":4778:4784   */\n      dup1\n        /* \"#utility.yul\":4786:4792   */\n      0x00\n        /* \"#utility.yul\":4794:4800   */\n      dup1\n        /* \"#utility.yul\":4802:4808   */\n      0x00\n        /* \"#utility.yul\":4851:4854   */\n      0xa0\n        /* \"#utility.yul\":4839:4848   */\n      dup7\n        /* \"#utility.yul\":4830:4837   */\n      dup9\n        /* \"#utility.yul\":4826:4849   */\n      sub\n        /* \"#utility.yul\":4822:4855   */\n      slt\n        /* \"#utility.yul\":4819:4939   */\n      iszero\n      tag_549\n      jumpi\n        /* \"#utility.yul\":4858:4937   */\n      tag_550\n      tag_515\n      jump\t// in\n    tag_550:\n        /* \"#utility.yul\":4819:4939   */\n    tag_549:\n        /* \"#utility.yul\":4978:4979   */\n      0x00\n        /* \"#utility.yul\":5003:5056   */\n      tag_551\n        /* \"#utility.yul\":5048:5055   */\n      dup9\n        /* \"#utility.yul\":5039:5045   */\n      dup3\n        /* \"#utility.yul\":5028:5037   */\n      dup10\n        /* \"#utility.yul\":5024:5046   */\n      add\n        /* \"#utility.yul\":5003:5056   */\n      tag_504\n      jump\t// in\n    tag_551:\n        /* \"#utility.yul\":4993:5056   */\n      swap6\n      pop\n        /* \"#utility.yul\":4949:5066   */\n      pop\n        /* \"#utility.yul\":5105:5107   */\n      0x20\n        /* \"#utility.yul\":5131:5184   */\n      tag_552\n        /* \"#utility.yul\":5176:5183   */\n      dup9\n        /* \"#utility.yul\":5167:5173   */\n      dup3\n        /* \"#utility.yul\":5156:5165   */\n      dup10\n        /* \"#utility.yul\":5152:5174   */\n      add\n        /* \"#utility.yul\":5131:5184   */\n      tag_504\n      jump\t// in\n    tag_552:\n        /* \"#utility.yul\":5121:5184   */\n      swap5\n      pop\n        /* \"#utility.yul\":5076:5194   */\n      pop\n        /* \"#utility.yul\":5233:5235   */\n      0x40\n        /* \"#utility.yul\":5259:5312   */\n      tag_553\n        /* \"#utility.yul\":5304:5311   */\n      dup9\n        /* \"#utility.yul\":5295:5301   */\n      dup3\n        /* \"#utility.yul\":5284:5293   */\n      dup10\n        /* \"#utility.yul\":5280:5302   */\n      add\n        /* \"#utility.yul\":5259:5312   */\n      tag_504\n      jump\t// in\n    tag_553:\n        /* \"#utility.yul\":5249:5312   */\n      swap4\n      pop\n        /* \"#utility.yul\":5204:5322   */\n      pop\n        /* \"#utility.yul\":5361:5363   */\n      0x60\n        /* \"#utility.yul\":5387:5440   */\n      tag_554\n        /* \"#utility.yul\":5432:5439   */\n      dup9\n        /* \"#utility.yul\":5423:5429   */\n      dup3\n        /* \"#utility.yul\":5412:5421   */\n      dup10\n        /* \"#utility.yul\":5408:5430   */\n      add\n        /* \"#utility.yul\":5387:5440   */\n      tag_490\n      jump\t// in\n    tag_554:\n        /* \"#utility.yul\":5377:5440   */\n      swap3\n      pop\n        /* \"#utility.yul\":5332:5450   */\n      pop\n        /* \"#utility.yul\":5517:5520   */\n      0x80\n        /* \"#utility.yul\":5506:5515   */\n      dup7\n        /* \"#utility.yul\":5502:5521   */\n      add\n        /* \"#utility.yul\":5489:5522   */\n      calldataload\n        /* \"#utility.yul\":5549:5567   */\n      0xffffffffffffffff\n        /* \"#utility.yul\":5541:5547   */\n      dup2\n        /* \"#utility.yul\":5538:5568   */\n      gt\n        /* \"#utility.yul\":5535:5652   */\n      iszero\n      tag_555\n      jumpi\n        /* \"#utility.yul\":5571:5650   */\n      tag_556\n      tag_527\n      jump\t// in\n    tag_556:\n        /* \"#utility.yul\":5535:5652   */\n    tag_555:\n        /* \"#utility.yul\":5676:5739   */\n      tag_557\n        /* \"#utility.yul\":5731:5738   */\n      dup9\n        /* \"#utility.yul\":5722:5728   */\n      dup3\n        /* \"#utility.yul\":5711:5720   */\n      dup10\n        /* \"#utility.yul\":5707:5729   */\n      add\n        /* \"#utility.yul\":5676:5739   */\n      tag_498\n      jump\t// in\n    tag_557:\n        /* \"#utility.yul\":5666:5739   */\n      swap2\n      pop\n        /* \"#utility.yul\":5460:5749   */\n      pop\n        /* \"#utility.yul\":4665:5756   */\n      swap3\n      swap6\n      pop\n      swap3\n      swap6\n      swap1\n      swap4\n      pop\n      jump\t// out\n        /* \"#utility.yul\":5762:6377   */\n    tag_47:\n        /* \"#utility.yul\":5837:5843   */\n      0x00\n        /* \"#utility.yul\":5845:5851   */\n      dup1\n        /* \"#utility.yul\":5853:5859   */\n      0x00\n        /* \"#utility.yul\":5902:5904   */\n      0x60\n        /* \"#utility.yul\":5890:5899   */\n      dup5\n        /* \"#utility.yul\":5881:5888   */\n      dup7\n        /* \"#utility.yul\":5877:5900   */\n      sub\n        /* \"#utility.yul\":5873:5905   */\n      slt\n        /* \"#utility.yul\":5870:5989   */\n      iszero\n      tag_559\n      jumpi\n        /* \"#utility.yul\":5908:5987   */\n      tag_560\n      tag_515\n      jump\t// in\n    tag_560:\n        /* \"#utility.yul\":5870:5989   */\n    tag_559:\n        /* \"#utility.yul\":6028:6029   */\n      0x00\n        /* \"#utility.yul\":6053:6106   */\n      tag_561\n        /* \"#utility.yul\":6098:6105   */\n      dup7\n        /* \"#utility.yul\":6089:6095   */\n      dup3\n        /* \"#utility.yul\":6078:6087   */\n      dup8\n        /* \"#utility.yul\":6074:6096   */\n      add\n        /* \"#utility.yul\":6053:6106   */\n      tag_504\n      jump\t// in\n    tag_561:\n        /* \"#utility.yul\":6043:6106   */\n      swap4\n      pop\n        /* \"#utility.yul\":5999:6116   */\n      pop\n        /* \"#utility.yul\":6155:6157   */\n      0x20\n        /* \"#utility.yul\":6181:6234   */\n      tag_562\n        /* \"#utility.yul\":6226:6233   */\n      dup7\n        /* \"#utility.yul\":6217:6223   */\n      dup3\n        /* \"#utility.yul\":6206:6215   */\n      dup8\n        /* \"#utility.yul\":6202:6224   */\n      add\n        /* \"#utility.yul\":6181:6234   */\n      tag_504\n      jump\t// in\n    tag_562:\n        /* \"#utility.yul\":6171:6234   */\n      swap3\n      pop\n        /* \"#utility.yul\":6126:6244   */\n      pop\n        /* \"#utility.yul\":6283:6285   */\n      0x40\n        /* \"#utility.yul\":6309:6360   */\n      tag_563\n        /* \"#utility.yul\":6352:6359   */\n      dup7\n        /* \"#utility.yul\":6343:6349   */\n      dup3\n        /* \"#utility.yul\":6332:6341   */\n      dup8\n        /* \"#utility.yul\":6328:6350   */\n      add\n        /* \"#utility.yul\":6309:6360   */\n      tag_508\n      jump\t// in\n    tag_563:\n        /* \"#utility.yul\":6299:6360   */\n      swap2\n      pop\n        /* \"#utility.yul\":6254:6370   */\n      pop\n        /* \"#utility.yul\":5762:6377   */\n      swap3\n      pop\n      swap3\n      pop\n      swap3\n      jump\t// out\n        /* \"#utility.yul\":6383:6501   */\n    tag_564:\n        /* \"#utility.yul\":6470:6494   */\n      tag_566\n        /* \"#utility.yul\":6488:6493   */\n      dup2\n        /* \"#utility.yul\":6470:6494   */\n      tag_567\n      jump\t// in\n    tag_566:\n        /* \"#utility.yul\":6465:6468   */\n      dup3\n        /* \"#utility.yul\":6458:6495   */\n      mstore\n        /* \"#utility.yul\":6383:6501   */\n      pop\n      pop\n      jump\t// out\n        /* \"#utility.yul\":6507:6616   */\n    tag_568:\n        /* \"#utility.yul\":6588:6609   */\n      tag_570\n        /* \"#utility.yul\":6603:6608   */\n      dup2\n        /* \"#utility.yul\":6588:6609   */\n      tag_571\n      jump\t// in\n    tag_570:\n        /* \"#utility.yul\":6583:6586   */\n      dup3\n        /* \"#utility.yul\":6576:6610   */\n      mstore\n        /* \"#utility.yul\":6507:6616   */\n      pop\n      pop\n      jump\t// out\n        /* \"#utility.yul\":6622:6781   */\n    tag_572:\n        /* \"#utility.yul\":6723:6774   */\n      tag_574\n        /* \"#utility.yul\":6768:6773   */\n      dup2\n        /* \"#utility.yul\":6723:6774   */\n      tag_575\n      jump\t// in\n    tag_574:\n        /* \"#utility.yul\":6718:6721   */\n      dup3\n        /* \"#utility.yul\":6711:6775   */\n      mstore\n        /* \"#utility.yul\":6622:6781   */\n      pop\n      pop\n      jump\t// out\n        /* \"#utility.yul\":6787:7151   */\n    tag_576:\n        /* \"#utility.yul\":6875:6878   */\n      0x00\n        /* \"#utility.yul\":6903:6942   */\n      tag_578\n        /* \"#utility.yul\":6936:6941   */\n      dup3\n        /* \"#utility.yul\":6903:6942   */\n      tag_579\n      jump\t// in\n    tag_578:\n        /* \"#utility.yul\":6958:7029   */\n      tag_580\n        /* \"#utility.yul\":7022:7028   */\n      dup2\n        /* \"#utility.yul\":7017:7020   */\n      dup6\n        /* \"#utility.yul\":6958:7029   */\n      tag_581\n      jump\t// in\n    tag_580:\n        /* \"#utility.yul\":6951:7029   */\n      swap4\n      pop\n        /* \"#utility.yul\":7038:7090   */\n      tag_582\n        /* \"#utility.yul\":7083:7089   */\n      dup2\n        /* \"#utility.yul\":7078:7081   */\n      dup6\n        /* \"#utility.yul\":7071:7075   */\n      0x20\n        /* \"#utility.yul\":7064:7069   */\n      dup7\n        /* \"#utility.yul\":7060:7076   */\n      add\n        /* \"#utility.yul\":7038:7090   */\n      tag_583\n      jump\t// in\n    tag_582:\n        /* \"#utility.yul\":7115:7144   */\n      tag_584\n        /* \"#utility.yul\":7137:7143   */\n      dup2\n        /* \"#utility.yul\":7115:7144   */\n      tag_585\n      jump\t// in\n    tag_584:\n        /* \"#utility.yul\":7110:7113   */\n      dup5\n        /* \"#utility.yul\":7106:7145   */\n      add\n        /* \"#utility.yul\":7099:7145   */\n      swap2\n      pop\n        /* \"#utility.yul\":6879:7151   */\n      pop\n        /* \"#utility.yul\":6787:7151   */\n      swap3\n      swap2\n      pop\n      pop\n      jump\t// out\n        /* \"#utility.yul\":7157:7523   */\n    tag_586:\n        /* \"#utility.yul\":7299:7302   */\n      0x00\n        /* \"#utility.yul\":7320:7387   */\n      tag_588\n        /* \"#utility.yul\":7384:7386   */\n      0x11\n        /* \"#utility.yul\":7379:7382   */\n      dup4\n        /* \"#utility.yul\":7320:7387   */\n      tag_581\n      jump\t// in\n    tag_588:\n        /* \"#utility.yul\":7313:7387   */\n      swap2\n      pop\n        /* \"#utility.yul\":7396:7489   */\n      tag_589\n        /* \"#utility.yul\":7485:7488   */\n      dup3\n        /* \"#utility.yul\":7396:7489   */\n      tag_590\n      jump\t// in\n    tag_589:\n        /* \"#utility.yul\":7514:7516   */\n      0x20\n        /* \"#utility.yul\":7509:7512   */\n      dup3\n        /* \"#utility.yul\":7505:7517   */\n      add\n        /* \"#utility.yul\":7498:7517   */\n      swap1\n      pop\n        /* \"#utility.yul\":7157:7523   */\n      swap2\n      swap1\n      pop\n      jump\t// out\n        /* \"#utility.yul\":7529:7895   */\n    tag_591:\n        /* \"#utility.yul\":7671:7674   */\n      0x00\n        /* \"#utility.yul\":7692:7759   */\n      tag_593\n        /* \"#utility.yul\":7756:7758   */\n      0x28\n        /* \"#utility.yul\":7751:7754   */\n      dup4\n        /* \"#utility.yul\":7692:7759   */\n      tag_581\n      jump\t// in\n    tag_593:\n        /* \"#utility.yul\":7685:7759   */\n      swap2\n      pop\n        /* \"#utility.yul\":7768:7861   */\n      tag_594\n        /* \"#utility.yul\":7857:7860   */\n      dup3\n        /* \"#utility.yul\":7768:7861   */\n      tag_595\n      jump\t// in\n    tag_594:\n        /* \"#utility.yul\":7886:7888   */\n      0x40\n        /* \"#utility.yul\":7881:7884   */\n      dup3\n        /* \"#utility.yul\":7877:7889   */\n      add\n        /* \"#utility.yul\":7870:7889   */\n      swap1\n      pop\n        /* \"#utility.yul\":7529:7895   */\n      swap2\n      swap1\n      pop\n      jump\t// out\n        /* \"#utility.yul\":7901:8267   */\n    tag_596:\n        /* \"#utility.yul\":8043:8046   */\n      0x00\n        /* \"#utility.yul\":8064:8131   */\n      tag_598\n        /* \"#utility.yul\":8128:8130   */\n      0x25\n        /* \"#utility.yul\":8123:8126   */\n      dup4\n        /* \"#utility.yul\":8064:8131   */\n      tag_581\n      jump\t// in\n    tag_598:\n        /* \"#utility.yul\":8057:8131   */\n      swap2\n      pop\n        /* \"#utility.yul\":8140:8233   */\n      tag_599\n        /* \"#utility.yul\":8229:8232   */\n      dup3\n        /* \"#utility.yul\":8140:8233   */\n      tag_600\n      jump\t// in\n    tag_599:\n        /* \"#utility.yul\":8258:8260   */\n      0x40\n        /* \"#utility.yul\":8253:8256   */\n      dup3\n        /* \"#utility.yul\":8249:8261   */\n      add\n        /* \"#utility.yul\":8242:8261   */\n      swap1\n      pop\n        /* \"#utility.yul\":7901:8267   */\n      swap2\n      swap1\n      pop\n      jump\t// out\n        /* \"#utility.yul\":8273:8639   */\n    tag_601:\n        /* \"#utility.yul\":8415:8418   */\n      0x00\n        /* \"#utility.yul\":8436:8503   */\n      tag_603\n        /* \"#utility.yul\":8500:8502   */\n      0x41\n        /* \"#utility.yul\":8495:8498   */\n      dup4\n        /* \"#utility.yul\":8436:8503   */\n      tag_581\n      jump\t// in\n    tag_603:\n        /* \"#utility.yul\":8429:8503   */\n      swap2\n      pop\n        /* \"#utility.yul\":8512:8605   */\n      tag_604\n        /* \"#utility.yul\":8601:8604   */\n      dup3\n        /* \"#utility.yul\":8512:8605   */\n      tag_605\n      jump\t// in\n    tag_604:\n        /* \"#utility.yul\":8630:8632   */\n      0x60\n        /* \"#utility.yul\":8625:8628   */\n      dup3\n        /* \"#utility.yul\":8621:8633   */\n      add\n        /* \"#utility.yul\":8614:8633   */\n      swap1\n      pop\n        /* \"#utility.yul\":8273:8639   */\n      swap2\n      swap1\n      pop\n      jump\t// out\n        /* \"#utility.yul\":8645:9011   */\n    tag_606:\n        /* \"#utility.yul\":8787:8790   */\n      0x00\n        /* \"#utility.yul\":8808:8875   */\n      tag_608\n        /* \"#utility.yul\":8872:8874   */\n      0x15\n        /* \"#utility.yul\":8867:8870   */\n      dup4\n        /* \"#utility.yul\":8808:8875   */\n      tag_581\n      jump\t// in\n    tag_608:\n        /* \"#utility.yul\":8801:8875   */\n      swap2\n      pop\n        /* \"#utility.yul\":8884:8977   */\n      tag_609\n        /* \"#utility.yul\":8973:8976   */\n      dup3\n        /* \"#utility.yul\":8884:8977   */\n      tag_610\n      jump\t// in\n    tag_609:\n        /* \"#utility.yul\":9002:9004   */\n      0x20\n        /* \"#utility.yul\":8997:9000   */\n      dup3\n        /* \"#utility.yul\":8993:9005   */\n      add\n        /* \"#utility.yul\":8986:9005   */\n      swap1\n      pop\n        /* \"#utility.yul\":8645:9011   */\n      swap2\n      swap1\n      pop\n      jump\t// out\n        /* \"#utility.yul\":9017:9383   */\n    tag_611:\n        /* \"#utility.yul\":9159:9162   */\n      0x00\n        /* \"#utility.yul\":9180:9247   */\n      tag_613\n        /* \"#utility.yul\":9244:9246   */\n      0x1b\n        /* \"#utility.yul\":9239:9242   */\n      dup4\n        /* \"#utility.yul\":9180:9247   */\n      tag_581\n      jump\t// in\n    tag_613:\n        /* \"#utility.yul\":9173:9247   */\n      swap2\n      pop\n        /* \"#utility.yul\":9256:9349   */\n      tag_614\n        /* \"#utility.yul\":9345:9348   */\n      dup3\n        /* \"#utility.yul\":9256:9349   */\n      tag_615\n      jump\t// in\n    tag_614:\n        /* \"#utility.yul\":9374:9376   */\n      0x20\n        /* \"#utility.yul\":9369:9372   */\n      dup3\n        /* \"#utility.yul\":9365:9377   */\n      add\n        /* \"#utility.yul\":9358:9377   */\n      swap1\n      pop\n        /* \"#utility.yul\":9017:9383   */\n      swap2\n      swap1\n      pop\n      jump\t// out\n        /* \"#utility.yul\":9389:9755   */\n    tag_616:\n        /* \"#utility.yul\":9531:9534   */\n      0x00\n        /* \"#utility.yul\":9552:9619   */\n      tag_618\n        /* \"#utility.yul\":9616:9618   */\n      0x23\n        /* \"#utility.yul\":9611:9614   */\n      dup4\n        /* \"#utility.yul\":9552:9619   */\n      tag_581\n      jump\t// in\n    tag_618:\n        /* \"#utility.yul\":9545:9619   */\n      swap2\n      pop\n        /* \"#utility.yul\":9628:9721   */\n      tag_619\n        /* \"#utility.yul\":9717:9720   */\n      dup3\n        /* \"#utility.yul\":9628:9721   */\n      tag_620\n      jump\t// in\n    tag_619:\n        /* \"#utility.yul\":9746:9748   */\n      0x40\n        /* \"#utility.yul\":9741:9744   */\n      dup3\n        /* \"#utility.yul\":9737:9749   */\n      add\n        /* \"#utility.yul\":9730:9749   */\n      swap1\n      pop\n        /* \"#utility.yul\":9389:9755   */\n      swap2\n      swap1\n      pop\n      jump\t// out\n        /* \"#utility.yul\":9761:10127   */\n    tag_621:\n        /* \"#utility.yul\":9903:9906   */\n      0x00\n        /* \"#utility.yul\":9924:9991   */\n      tag_623\n        /* \"#utility.yul\":9988:9990   */\n      0x15\n        /* \"#utility.yul\":9983:9986   */\n      dup4\n        /* \"#utility.yul\":9924:9991   */\n      tag_581\n      jump\t// in\n    tag_623:\n        /* \"#utility.yul\":9917:9991   */\n      swap2\n      pop\n        /* \"#utility.yul\":10000:10093   */\n      tag_624\n        /* \"#utility.yul\":10089:10092   */\n      dup3\n        /* \"#utility.yul\":10000:10093   */\n      tag_625\n      jump\t// in\n    tag_624:\n        /* \"#utility.yul\":10118:10120   */\n      0x20\n        /* \"#utility.yul\":10113:10116   */\n      dup3\n        /* \"#utility.yul\":10109:10121   */\n      add\n        /* \"#utility.yul\":10102:10121   */\n      swap1\n      pop\n        /* \"#utility.yul\":9761:10127   */\n      swap2\n      swap1\n      pop\n      jump\t// out\n        /* \"#utility.yul\":10133:10499   */\n    tag_626:\n        /* \"#utility.yul\":10275:10278   */\n      0x00\n        /* \"#utility.yul\":10296:10363   */\n      tag_628\n        /* \"#utility.yul\":10360:10362   */\n      0x25\n        /* \"#utility.yul\":10355:10358   */\n      dup4\n        /* \"#utility.yul\":10296:10363   */\n      tag_581\n      jump\t// in\n    tag_628:\n        /* \"#utility.yul\":10289:10363   */\n      swap2\n      pop\n        /* \"#utility.yul\":10372:10465   */\n      tag_629\n        /* \"#utility.yul\":10461:10464   */\n      dup3\n        /* \"#utility.yul\":10372:10465   */\n      tag_630\n      jump\t// in\n    tag_629:\n        /* \"#utility.yul\":10490:10492   */\n      0x40\n        /* \"#utility.yul\":10485:10488   */\n      dup3\n        /* \"#utility.yul\":10481:10493   */\n      add\n        /* \"#utility.yul\":10474:10493   */\n      swap1\n      pop\n        /* \"#utility.yul\":10133:10499   */\n      swap2\n      swap1\n      pop\n      jump\t// out\n        /* \"#utility.yul\":10505:10871   */\n    tag_631:\n        /* \"#utility.yul\":10647:10650   */\n      0x00\n        /* \"#utility.yul\":10668:10735   */\n      tag_633\n        /* \"#utility.yul\":10732:10734   */\n      0x28\n        /* \"#utility.yul\":10727:10730   */\n      dup4\n        /* \"#utility.yul\":10668:10735   */\n      tag_581\n      jump\t// in\n    tag_633:\n        /* \"#utility.yul\":10661:10735   */\n      swap2\n      pop\n        /* \"#utility.yul\":10744:10837   */\n      tag_634\n        /* \"#utility.yul\":10833:10836   */\n      dup3\n        /* \"#utility.yul\":10744:10837   */\n      tag_635\n      jump\t// in\n    tag_634:\n        /* \"#utility.yul\":10862:10864   */\n      0x40\n        /* \"#utility.yul\":10857:10860   */\n      dup3\n        /* \"#utility.yul\":10853:10865   */\n      add\n        /* \"#utility.yul\":10846:10865   */\n      swap1\n      pop\n        /* \"#utility.yul\":10505:10871   */\n      swap2\n      swap1\n      pop\n      jump\t// out\n        /* \"#utility.yul\":10877:11243   */\n    tag_636:\n        /* \"#utility.yul\":11019:11022   */\n      0x00\n        /* \"#utility.yul\":11040:11107   */\n      tag_638\n        /* \"#utility.yul\":11104:11106   */\n      0x2c\n        /* \"#utility.yul\":11099:11102   */\n      dup4\n        /* \"#utility.yul\":11040:11107   */\n      tag_581\n      jump\t// in\n    tag_638:\n        /* \"#utility.yul\":11033:11107   */\n      swap2\n      pop\n        /* \"#utility.yul\":11116:11209   */\n      tag_639\n        /* \"#utility.yul\":11205:11208   */\n      dup3\n        /* \"#utility.yul\":11116:11209   */\n      tag_640\n      jump\t// in\n    tag_639:\n        /* \"#utility.yul\":11234:11236   */\n      0x40\n        /* \"#utility.yul\":11229:11232   */\n      dup3\n        /* \"#utility.yul\":11225:11237   */\n      add\n        /* \"#utility.yul\":11218:11237   */\n      swap1\n      pop\n        /* \"#utility.yul\":10877:11243   */\n      swap2\n      swap1\n      pop\n      jump\t// out\n        /* \"#utility.yul\":11249:11367   */\n    tag_641:\n        /* \"#utility.yul\":11336:11360   */\n      tag_643\n        /* \"#utility.yul\":11354:11359   */\n      dup2\n        /* \"#utility.yul\":11336:11360   */\n      tag_644\n      jump\t// in\n    tag_643:\n        /* \"#utility.yul\":11331:11334   */\n      dup3\n        /* \"#utility.yul\":11324:11361   */\n      mstore\n        /* \"#utility.yul\":11249:11367   */\n      pop\n      pop\n      jump\t// out\n        /* \"#utility.yul\":11373:11595   */\n    tag_77:\n        /* \"#utility.yul\":11466:11470   */\n      0x00\n        /* \"#utility.yul\":11504:11506   */\n      0x20\n        /* \"#utility.yul\":11493:11502   */\n      dup3\n        /* \"#utility.yul\":11489:11507   */\n      add\n        /* \"#utility.yul\":11481:11507   */\n      swap1\n      pop\n        /* \"#utility.yul\":11517:11588   */\n      tag_646\n        /* \"#utility.yul\":11585:11586   */\n      0x00\n        /* \"#utility.yul\":11574:11583   */\n      dup4\n        /* \"#utility.yul\":11570:11587   */\n      add\n        /* \"#utility.yul\":11561:11567   */\n      dup5\n        /* \"#utility.yul\":11517:11588   */\n      tag_564\n      jump\t// in\n    tag_646:\n        /* \"#utility.yul\":11373:11595   */\n      swap3\n      swap2\n      pop\n      pop\n      jump\t// out\n        /* \"#utility.yul\":11601:11851   */\n    tag_36:\n        /* \"#utility.yul\":11708:11712   */\n      0x00\n        /* \"#utility.yul\":11746:11748   */\n      0x20\n        /* \"#utility.yul\":11735:11744   */\n      dup3\n        /* \"#utility.yul\":11731:11749   */\n      add\n        /* \"#utility.yul\":11723:11749   */\n      swap1\n      pop\n        /* \"#utility.yul\":11759:11844   */\n      tag_648\n        /* \"#utility.yul\":11841:11842   */\n      0x00\n        /* \"#utility.yul\":11830:11839   */\n      dup4\n        /* \"#utility.yul\":11826:11843   */\n      add\n        /* \"#utility.yul\":11817:11823   */\n      dup5\n        /* \"#utility.yul\":11759:11844   */\n      tag_572\n      jump\t// in\n    tag_648:\n        /* \"#utility.yul\":11601:11851   */\n      swap3\n      swap2\n      pop\n      pop\n      jump\t// out\n        /* \"#utility.yul\":11857:12170   */\n    tag_67:\n        /* \"#utility.yul\":11970:11974   */\n      0x00\n        /* \"#utility.yul\":12008:12010   */\n      0x20\n        /* \"#utility.yul\":11997:12006   */\n      dup3\n        /* \"#utility.yul\":11993:12011   */\n      add\n        /* \"#utility.yul\":11985:12011   */\n      swap1\n      pop\n        /* \"#utility.yul\":12057:12066   */\n      dup2\n        /* \"#utility.yul\":12051:12055   */\n      dup2\n        /* \"#utility.yul\":12047:12067   */\n      sub\n        /* \"#utility.yul\":12043:12044   */\n      0x00\n        /* \"#utility.yul\":12032:12041   */\n      dup4\n        /* \"#utility.yul\":12028:12045   */\n      add\n        /* \"#utility.yul\":12021:12068   */\n      mstore\n        /* \"#utility.yul\":12085:12163   */\n      tag_650\n        /* \"#utility.yul\":12158:12162   */\n      dup2\n        /* \"#utility.yul\":12149:12155   */\n      dup5\n        /* \"#utility.yul\":12085:12163   */\n      tag_576\n      jump\t// in\n    tag_650:\n        /* \"#utility.yul\":12077:12163   */\n      swap1\n      pop\n        /* \"#utility.yul\":11857:12170   */\n      swap3\n      swap2\n      pop\n      pop\n      jump\t// out\n        /* \"#utility.yul\":12176:12595   */\n    tag_322:\n        /* \"#utility.yul\":12342:12346   */\n      0x00\n        /* \"#utility.yul\":12380:12382   */\n      0x20\n        /* \"#utility.yul\":12369:12378   */\n      dup3\n        /* \"#utility.yul\":12365:12383   */\n      add\n        /* \"#utility.yul\":12357:12383   */\n      swap1\n      pop\n        /* \"#utility.yul\":12429:12438   */\n      dup2\n        /* \"#utility.yul\":12423:12427   */\n      dup2\n        /* \"#utility.yul\":12419:12439   */\n      sub\n        /* \"#utility.yul\":12415:12416   */\n      0x00\n        /* \"#utility.yul\":12404:12413   */\n      dup4\n        /* \"#utility.yul\":12400:12417   */\n      add\n        /* \"#utility.yul\":12393:12440   */\n      mstore\n        /* \"#utility.yul\":12457:12588   */\n      tag_652\n        /* \"#utility.yul\":12583:12587   */\n      dup2\n        /* \"#utility.yul\":12457:12588   */\n      tag_586\n      jump\t// in\n    tag_652:\n        /* \"#utility.yul\":12449:12588   */\n      swap1\n      pop\n        /* \"#utility.yul\":12176:12595   */\n      swap2\n      swap1\n      pop\n      jump\t// out\n        /* \"#utility.yul\":12601:13020   */\n    tag_389:\n        /* \"#utility.yul\":12767:12771   */\n      0x00\n        /* \"#utility.yul\":12805:12807   */\n      0x20\n        /* \"#utility.yul\":12794:12803   */\n      dup3\n        /* \"#utility.yul\":12790:12808   */\n      add\n        /* \"#utility.yul\":12782:12808   */\n      swap1\n      pop\n        /* \"#utility.yul\":12854:12863   */\n      dup2\n        /* \"#utility.yul\":12848:12852   */\n      dup2\n        /* \"#utility.yul\":12844:12864   */\n      sub\n        /* \"#utility.yul\":12840:12841   */\n      0x00\n        /* \"#utility.yul\":12829:12838   */\n      dup4\n        /* \"#utility.yul\":12825:12842   */\n      add\n        /* \"#utility.yul\":12818:12865   */\n      mstore\n        /* \"#utility.yul\":12882:13013   */\n      tag_654\n        /* \"#utility.yul\":13008:13012   */\n      dup2\n        /* \"#utility.yul\":12882:13013   */\n      tag_591\n      jump\t// in\n    tag_654:\n        /* \"#utility.yul\":12874:13013   */\n      swap1\n      pop\n        /* \"#utility.yul\":12601:13020   */\n      swap2\n      swap1\n      pop\n      jump\t// out\n        /* \"#utility.yul\":13026:13445   */\n    tag_422:\n        /* \"#utility.yul\":13192:13196   */\n      0x00\n        /* \"#utility.yul\":13230:13232   */\n      0x20\n        /* \"#utility.yul\":13219:13228   */\n      dup3\n        /* \"#utility.yul\":13215:13233   */\n      add\n        /* \"#utility.yul\":13207:13233   */\n      swap1\n      pop\n        /* \"#utility.yul\":13279:13288   */\n      dup2\n        /* \"#utility.yul\":13273:13277   */\n      dup2\n        /* \"#utility.yul\":13269:13289   */\n      sub\n        /* \"#utility.yul\":13265:13266   */\n      0x00\n        /* \"#utility.yul\":13254:13263   */\n      dup4\n        /* \"#utility.yul\":13250:13267   */\n      add\n        /* \"#utility.yul\":13243:13290   */\n      mstore\n        /* \"#utility.yul\":13307:13438   */\n      tag_656\n        /* \"#utility.yul\":13433:13437   */\n      dup2\n        /* \"#utility.yul\":13307:13438   */\n      tag_596\n      jump\t// in\n    tag_656:\n        /* \"#utility.yul\":13299:13438   */\n      swap1\n      pop\n        /* \"#utility.yul\":13026:13445   */\n      swap2\n      swap1\n      pop\n      jump\t// out\n        /* \"#utility.yul\":13451:13870   */\n    tag_365:\n        /* \"#utility.yul\":13617:13621   */\n      0x00\n        /* \"#utility.yul\":13655:13657   */\n      0x20\n        /* \"#utility.yul\":13644:13653   */\n      dup3\n        /* \"#utility.yul\":13640:13658   */\n      add\n        /* \"#utility.yul\":13632:13658   */\n      swap1\n      pop\n        /* \"#utility.yul\":13704:13713   */\n      dup2\n        /* \"#utility.yul\":13698:13702   */\n      dup2\n        /* \"#utility.yul\":13694:13714   */\n      sub\n        /* \"#utility.yul\":13690:13691   */\n      0x00\n        /* \"#utility.yul\":13679:13688   */\n      dup4\n        /* \"#utility.yul\":13675:13692   */\n      add\n        /* \"#utility.yul\":13668:13715   */\n      mstore\n        /* \"#utility.yul\":13732:13863   */\n      tag_658\n        /* \"#utility.yul\":13858:13862   */\n      dup2\n        /* \"#utility.yul\":13732:13863   */\n      tag_601\n      jump\t// in\n    tag_658:\n        /* \"#utility.yul\":13724:13863   */\n      swap1\n      pop\n        /* \"#utility.yul\":13451:13870   */\n      swap2\n      swap1\n      pop\n      jump\t// out\n        /* \"#utility.yul\":13876:14295   */\n    tag_234:\n        /* \"#utility.yul\":14042:14046   */\n      0x00\n        /* \"#utility.yul\":14080:14082   */\n      0x20\n        /* \"#utility.yul\":14069:14078   */\n      dup3\n        /* \"#utility.yul\":14065:14083   */\n      add\n        /* \"#utility.yul\":14057:14083   */\n      swap1\n      pop\n        /* \"#utility.yul\":14129:14138   */\n      dup2\n        /* \"#utility.yul\":14123:14127   */\n      dup2\n        /* \"#utility.yul\":14119:14139   */\n      sub\n        /* \"#utility.yul\":14115:14116   */\n      0x00\n        /* \"#utility.yul\":14104:14113   */\n      dup4\n        /* \"#utility.yul\":14100:14117   */\n      add\n        /* \"#utility.yul\":14093:14140   */\n      mstore\n        /* \"#utility.yul\":14157:14288   */\n      tag_660\n        /* \"#utility.yul\":14283:14287   */\n      dup2\n        /* \"#utility.yul\":14157:14288   */\n      tag_606\n      jump\t// in\n    tag_660:\n        /* \"#utility.yul\":14149:14288   */\n      swap1\n      pop\n        /* \"#utility.yul\":13876:14295   */\n      swap2\n      swap1\n      pop\n      jump\t// out\n        /* \"#utility.yul\":14301:14720   */\n    tag_301:\n        /* \"#utility.yul\":14467:14471   */\n      0x00\n        /* \"#utility.yul\":14505:14507   */\n      0x20\n        /* \"#utility.yul\":14494:14503   */\n      dup3\n        /* \"#utility.yul\":14490:14508   */\n      add\n        /* \"#utility.yul\":14482:14508   */\n      swap1\n      pop\n        /* \"#utility.yul\":14554:14563   */\n      dup2\n        /* \"#utility.yul\":14548:14552   */\n      dup2\n        /* \"#utility.yul\":14544:14564   */\n      sub\n        /* \"#utility.yul\":14540:14541   */\n      0x00\n        /* \"#utility.yul\":14529:14538   */\n      dup4\n        /* \"#utility.yul\":14525:14542   */\n      add\n        /* \"#utility.yul\":14518:14565   */\n      mstore\n        /* \"#utility.yul\":14582:14713   */\n      tag_662\n        /* \"#utility.yul\":14708:14712   */\n      dup2\n        /* \"#utility.yul\":14582:14713   */\n      tag_611\n      jump\t// in\n    tag_662:\n        /* \"#utility.yul\":14574:14713   */\n      swap1\n      pop\n        /* \"#utility.yul\":14301:14720   */\n      swap2\n      swap1\n      pop\n      jump\t// out\n        /* \"#utility.yul\":14726:15145   */\n    tag_183:\n        /* \"#utility.yul\":14892:14896   */\n      0x00\n        /* \"#utility.yul\":14930:14932   */\n      0x20\n        /* \"#utility.yul\":14919:14928   */\n      dup3\n        /* \"#utility.yul\":14915:14933   */\n      add\n        /* \"#utility.yul\":14907:14933   */\n      swap1\n      pop\n        /* \"#utility.yul\":14979:14988   */\n      dup2\n        /* \"#utility.yul\":14973:14977   */\n      dup2\n        /* \"#utility.yul\":14969:14989   */\n      sub\n        /* \"#utility.yul\":14965:14966   */\n      0x00\n        /* \"#utility.yul\":14954:14963   */\n      dup4\n        /* \"#utility.yul\":14950:14967   */\n      add\n        /* \"#utility.yul\":14943:14990   */\n      mstore\n        /* \"#utility.yul\":15007:15138   */\n      tag_664\n        /* \"#utility.yul\":15133:15137   */\n      dup2\n        /* \"#utility.yul\":15007:15138   */\n      tag_616\n      jump\t// in\n    tag_664:\n        /* \"#utility.yul\":14999:15138   */\n      swap1\n      pop\n        /* \"#utility.yul\":14726:15145   */\n      swap2\n      swap1\n      pop\n      jump\t// out\n        /* \"#utility.yul\":15151:15570   */\n    tag_117:\n        /* \"#utility.yul\":15317:15321   */\n      0x00\n        /* \"#utility.yul\":15355:15357   */\n      0x20\n        /* \"#utility.yul\":15344:15353   */\n      dup3\n        /* \"#utility.yul\":15340:15358   */\n      add\n        /* \"#utility.yul\":15332:15358   */\n      swap1\n      pop\n        /* \"#utility.yul\":15404:15413   */\n      dup2\n        /* \"#utility.yul\":15398:15402   */\n      dup2\n        /* \"#utility.yul\":15394:15414   */\n      sub\n        /* \"#utility.yul\":15390:15391   */\n      0x00\n        /* \"#utility.yul\":15379:15388   */\n      dup4\n        /* \"#utility.yul\":15375:15392   */\n      add\n        /* \"#utility.yul\":15368:15415   */\n      mstore\n        /* \"#utility.yul\":15432:15563   */\n      tag_666\n        /* \"#utility.yul\":15558:15562   */\n      dup2\n        /* \"#utility.yul\":15432:15563   */\n      tag_621\n      jump\t// in\n    tag_666:\n        /* \"#utility.yul\":15424:15563   */\n      swap1\n      pop\n        /* \"#utility.yul\":15151:15570   */\n      swap2\n      swap1\n      pop\n      jump\t// out\n        /* \"#utility.yul\":15576:15995   */\n    tag_383:\n        /* \"#utility.yul\":15742:15746   */\n      0x00\n        /* \"#utility.yul\":15780:15782   */\n      0x20\n        /* \"#utility.yul\":15769:15778   */\n      dup3\n        /* \"#utility.yul\":15765:15783   */\n      add\n        /* \"#utility.yul\":15757:15783   */\n      swap1\n      pop\n        /* \"#utility.yul\":15829:15838   */\n      dup2\n        /* \"#utility.yul\":15823:15827   */\n      dup2\n        /* \"#utility.yul\":15819:15839   */\n      sub\n        /* \"#utility.yul\":15815:15816   */\n      0x00\n        /* \"#utility.yul\":15804:15813   */\n      dup4\n        /* \"#utility.yul\":15800:15817   */\n      add\n        /* \"#utility.yul\":15793:15840   */\n      mstore\n        /* \"#utility.yul\":15857:15988   */\n      tag_668\n        /* \"#utility.yul\":15983:15987   */\n      dup2\n        /* \"#utility.yul\":15857:15988   */\n      tag_626\n      jump\t// in\n    tag_668:\n        /* \"#utility.yul\":15849:15988   */\n      swap1\n      pop\n        /* \"#utility.yul\":15576:15995   */\n      swap2\n      swap1\n      pop\n      jump\t// out\n        /* \"#utility.yul\":16001:16420   */\n    tag_143:\n        /* \"#utility.yul\":16167:16171   */\n      0x00\n        /* \"#utility.yul\":16205:16207   */\n      0x20\n        /* \"#utility.yul\":16194:16203   */\n      dup3\n        /* \"#utility.yul\":16190:16208   */\n      add\n        /* \"#utility.yul\":16182:16208   */\n      swap1\n      pop\n        /* \"#utility.yul\":16254:16263   */\n      dup2\n        /* \"#utility.yul\":16248:16252   */\n      dup2\n        /* \"#utility.yul\":16244:16264   */\n      sub\n        /* \"#utility.yul\":16240:16241   */\n      0x00\n        /* \"#utility.yul\":16229:16238   */\n      dup4\n        /* \"#utility.yul\":16225:16242   */\n      add\n        /* \"#utility.yul\":16218:16265   */\n      mstore\n        /* \"#utility.yul\":16282:16413   */\n      tag_670\n        /* \"#utility.yul\":16408:16412   */\n      dup2\n        /* \"#utility.yul\":16282:16413   */\n      tag_631\n      jump\t// in\n    tag_670:\n        /* \"#utility.yul\":16274:16413   */\n      swap1\n      pop\n        /* \"#utility.yul\":16001:16420   */\n      swap2\n      swap1\n      pop\n      jump\t// out\n        /* \"#utility.yul\":16426:16845   */\n    tag_452:\n        /* \"#utility.yul\":16592:16596   */\n      0x00\n        /* \"#utility.yul\":16630:16632   */\n      0x20\n        /* \"#utility.yul\":16619:16628   */\n      dup3\n        /* \"#utility.yul\":16615:16633   */\n      add\n        /* \"#utility.yul\":16607:16633   */\n      swap1\n      pop\n        /* \"#utility.yul\":16679:16688   */\n      dup2\n        /* \"#utility.yul\":16673:16677   */\n      dup2\n        /* \"#utility.yul\":16669:16689   */\n      sub\n        /* \"#utility.yul\":16665:16666   */\n      0x00\n        /* \"#utility.yul\":16654:16663   */\n      dup4\n        /* \"#utility.yul\":16650:16667   */\n      add\n        /* \"#utility.yul\":16643:16690   */\n      mstore\n        /* \"#utility.yul\":16707:16838   */\n      tag_672\n        /* \"#utility.yul\":16833:16837   */\n      dup2\n        /* \"#utility.yul\":16707:16838   */\n      tag_636\n      jump\t// in\n    tag_672:\n        /* \"#utility.yul\":16699:16838   */\n      swap1\n      pop\n        /* \"#utility.yul\":16426:16845   */\n      swap2\n      swap1\n      pop\n      jump\t// out\n        /* \"#utility.yul\":16851:17685   */\n    tag_97:\n        /* \"#utility.yul\":17090:17094   */\n      0x00\n        /* \"#utility.yul\":17128:17131   */\n      0xa0\n        /* \"#utility.yul\":17117:17126   */\n      dup3\n        /* \"#utility.yul\":17113:17132   */\n      add\n        /* \"#utility.yul\":17105:17132   */\n      swap1\n      pop\n        /* \"#utility.yul\":17142:17213   */\n      tag_674\n        /* \"#utility.yul\":17210:17211   */\n      0x00\n        /* \"#utility.yul\":17199:17208   */\n      dup4\n        /* \"#utility.yul\":17195:17212   */\n      add\n        /* \"#utility.yul\":17186:17192   */\n      dup9\n        /* \"#utility.yul\":17142:17213   */\n      tag_641\n      jump\t// in\n    tag_674:\n        /* \"#utility.yul\":17223:17289   */\n      tag_675\n        /* \"#utility.yul\":17285:17287   */\n      0x20\n        /* \"#utility.yul\":17274:17283   */\n      dup4\n        /* \"#utility.yul\":17270:17288   */\n      add\n        /* \"#utility.yul\":17261:17267   */\n      dup8\n        /* \"#utility.yul\":17223:17289   */\n      tag_568\n      jump\t// in\n    tag_675:\n        /* \"#utility.yul\":17336:17345   */\n      dup2\n        /* \"#utility.yul\":17330:17334   */\n      dup2\n        /* \"#utility.yul\":17326:17346   */\n      sub\n        /* \"#utility.yul\":17321:17323   */\n      0x40\n        /* \"#utility.yul\":17310:17319   */\n      dup4\n        /* \"#utility.yul\":17306:17324   */\n      add\n        /* \"#utility.yul\":17299:17347   */\n      mstore\n        /* \"#utility.yul\":17364:17442   */\n      tag_676\n        /* \"#utility.yul\":17437:17441   */\n      dup2\n        /* \"#utility.yul\":17428:17434   */\n      dup7\n        /* \"#utility.yul\":17364:17442   */\n      tag_576\n      jump\t// in\n    tag_676:\n        /* \"#utility.yul\":17356:17442   */\n      swap1\n      pop\n        /* \"#utility.yul\":17489:17498   */\n      dup2\n        /* \"#utility.yul\":17483:17487   */\n      dup2\n        /* \"#utility.yul\":17479:17499   */\n      sub\n        /* \"#utility.yul\":17474:17476   */\n      0x60\n        /* \"#utility.yul\":17463:17472   */\n      dup4\n        /* \"#utility.yul\":17459:17477   */\n      add\n        /* \"#utility.yul\":17452:17500   */\n      mstore\n        /* \"#utility.yul\":17517:17595   */\n      tag_677\n        /* \"#utility.yul\":17590:17594   */\n      dup2\n        /* \"#utility.yul\":17581:17587   */\n      dup6\n        /* \"#utility.yul\":17517:17595   */\n      tag_576\n      jump\t// in\n    tag_677:\n        /* \"#utility.yul\":17509:17595   */\n      swap1\n      pop\n        /* \"#utility.yul\":17605:17678   */\n      tag_678\n        /* \"#utility.yul\":17673:17676   */\n      0x80\n        /* \"#utility.yul\":17662:17671   */\n      dup4\n        /* \"#utility.yul\":17658:17677   */\n      add\n        /* \"#utility.yul\":17649:17655   */\n      dup5\n        /* \"#utility.yul\":17605:17678   */\n      tag_564\n      jump\t// in\n    tag_678:\n        /* \"#utility.yul\":16851:17685   */\n      swap7\n      swap6\n      pop\n      pop\n      pop\n      pop\n      pop\n      pop\n      jump\t// out\n        /* \"#utility.yul\":17691:18161   */\n    tag_202:\n        /* \"#utility.yul\":17854:17858   */\n      0x00\n        /* \"#utility.yul\":17892:17894   */\n      0x60\n        /* \"#utility.yul\":17881:17890   */\n      dup3\n        /* \"#utility.yul\":17877:17895   */\n      add\n        /* \"#utility.yul\":17869:17895   */\n      swap1\n      pop\n        /* \"#utility.yul\":17905:17976   */\n      tag_680\n        /* \"#utility.yul\":17973:17974   */\n      0x00\n        /* \"#utility.yul\":17962:17971   */\n      dup4\n        /* \"#utility.yul\":17958:17975   */\n      add\n        /* \"#utility.yul\":17949:17955   */\n      dup7\n        /* \"#utility.yul\":17905:17976   */\n      tag_641\n      jump\t// in\n    tag_680:\n        /* \"#utility.yul\":17986:18058   */\n      tag_681\n        /* \"#utility.yul\":18054:18056   */\n      0x20\n        /* \"#utility.yul\":18043:18052   */\n      dup4\n        /* \"#utility.yul\":18039:18057   */\n      add\n        /* \"#utility.yul\":18030:18036   */\n      dup6\n        /* \"#utility.yul\":17986:18058   */\n      tag_641\n      jump\t// in\n    tag_681:\n        /* \"#utility.yul\":18068:18154   */\n      tag_682\n        /* \"#utility.yul\":18150:18152   */\n      0x40\n        /* \"#utility.yul\":18139:18148   */\n      dup4\n        /* \"#utility.yul\":18135:18153   */\n      add\n        /* \"#utility.yul\":18126:18132   */\n      dup5\n        /* \"#utility.yul\":18068:18154   */\n      tag_572\n      jump\t// in\n    tag_682:\n        /* \"#utility.yul\":17691:18161   */\n      swap5\n      swap4\n      pop\n      pop\n      pop\n      pop\n      jump\t// out\n        /* \"#utility.yul\":18167:18609   */\n    tag_43:\n        /* \"#utility.yul\":18316:18320   */\n      0x00\n        /* \"#utility.yul\":18354:18356   */\n      0x60\n        /* \"#utility.yul\":18343:18352   */\n      dup3\n        /* \"#utility.yul\":18339:18357   */\n      add\n        /* \"#utility.yul\":18331:18357   */\n      swap1\n      pop\n        /* \"#utility.yul\":18367:18438   */\n      tag_684\n        /* \"#utility.yul\":18435:18436   */\n      0x00\n        /* \"#utility.yul\":18424:18433   */\n      dup4\n        /* \"#utility.yul\":18420:18437   */\n      add\n        /* \"#utility.yul\":18411:18417   */\n      dup7\n        /* \"#utility.yul\":18367:18438   */\n      tag_641\n      jump\t// in\n    tag_684:\n        /* \"#utility.yul\":18448:18520   */\n      tag_685\n        /* \"#utility.yul\":18516:18518   */\n      0x20\n        /* \"#utility.yul\":18505:18514   */\n      dup4\n        /* \"#utility.yul\":18501:18519   */\n      add\n        /* \"#utility.yul\":18492:18498   */\n      dup6\n        /* \"#utility.yul\":18448:18520   */\n      tag_641\n      jump\t// in\n    tag_685:\n        /* \"#utility.yul\":18530:18602   */\n      tag_686\n        /* \"#utility.yul\":18598:18600   */\n      0x40\n        /* \"#utility.yul\":18587:18596   */\n      dup4\n        /* \"#utility.yul\":18583:18601   */\n      add\n        /* \"#utility.yul\":18574:18580   */\n      dup5\n        /* \"#utility.yul\":18530:18602   */\n      tag_641\n      jump\t// in\n    tag_686:\n        /* \"#utility.yul\":18167:18609   */\n      swap5\n      swap4\n      pop\n      pop\n      pop\n      pop\n      jump\t// out\n        /* \"#utility.yul\":18615:19719   */\n    tag_26:\n        /* \"#utility.yul\":18932:18936   */\n      0x00\n        /* \"#utility.yul\":18970:18973   */\n      0x0100\n        /* \"#utility.yul\":18959:18968   */\n      dup3\n        /* \"#utility.yul\":18955:18974   */\n      add\n        /* \"#utility.yul\":18947:18974   */\n      swap1\n      pop\n        /* \"#utility.yul\":18984:19055   */\n      tag_688\n        /* \"#utility.yul\":19052:19053   */\n      0x00\n        /* \"#utility.yul\":19041:19050   */\n      dup4\n        /* \"#utility.yul\":19037:19054   */\n      add\n        /* \"#utility.yul\":19028:19034   */\n      dup12\n        /* \"#utility.yul\":18984:19055   */\n      tag_641\n      jump\t// in\n    tag_688:\n        /* \"#utility.yul\":19065:19137   */\n      tag_689\n        /* \"#utility.yul\":19133:19135   */\n      0x20\n        /* \"#utility.yul\":19122:19131   */\n      dup4\n        /* \"#utility.yul\":19118:19136   */\n      add\n        /* \"#utility.yul\":19109:19115   */\n      dup11\n        /* \"#utility.yul\":19065:19137   */\n      tag_641\n      jump\t// in\n    tag_689:\n        /* \"#utility.yul\":19147:19219   */\n      tag_690\n        /* \"#utility.yul\":19215:19217   */\n      0x40\n        /* \"#utility.yul\":19204:19213   */\n      dup4\n        /* \"#utility.yul\":19200:19218   */\n      add\n        /* \"#utility.yul\":19191:19197   */\n      dup10\n        /* \"#utility.yul\":19147:19219   */\n      tag_641\n      jump\t// in\n    tag_690:\n        /* \"#utility.yul\":19229:19301   */\n      tag_691\n        /* \"#utility.yul\":19297:19299   */\n      0x60\n        /* \"#utility.yul\":19286:19295   */\n      dup4\n        /* \"#utility.yul\":19282:19300   */\n      add\n        /* \"#utility.yul\":19273:19279   */\n      dup9\n        /* \"#utility.yul\":19229:19301   */\n      tag_641\n      jump\t// in\n    tag_691:\n        /* \"#utility.yul\":19311:19384   */\n      tag_692\n        /* \"#utility.yul\":19379:19382   */\n      0x80\n        /* \"#utility.yul\":19368:19377   */\n      dup4\n        /* \"#utility.yul\":19364:19383   */\n      add\n        /* \"#utility.yul\":19355:19361   */\n      dup8\n        /* \"#utility.yul\":19311:19384   */\n      tag_564\n      jump\t// in\n    tag_692:\n        /* \"#utility.yul\":19394:19461   */\n      tag_693\n        /* \"#utility.yul\":19456:19459   */\n      0xa0\n        /* \"#utility.yul\":19445:19454   */\n      dup4\n        /* \"#utility.yul\":19441:19460   */\n      add\n        /* \"#utility.yul\":19432:19438   */\n      dup7\n        /* \"#utility.yul\":19394:19461   */\n      tag_568\n      jump\t// in\n    tag_693:\n        /* \"#utility.yul\":19509:19518   */\n      dup2\n        /* \"#utility.yul\":19503:19507   */\n      dup2\n        /* \"#utility.yul\":19499:19519   */\n      sub\n        /* \"#utility.yul\":19493:19496   */\n      0xc0\n        /* \"#utility.yul\":19482:19491   */\n      dup4\n        /* \"#utility.yul\":19478:19497   */\n      add\n        /* \"#utility.yul\":19471:19520   */\n      mstore\n        /* \"#utility.yul\":19537:19615   */\n      tag_694\n        /* \"#utility.yul\":19610:19614   */\n      dup2\n        /* \"#utility.yul\":19601:19607   */\n      dup6\n        /* \"#utility.yul\":19537:19615   */\n      tag_576\n      jump\t// in\n    tag_694:\n        /* \"#utility.yul\":19529:19615   */\n      swap1\n      pop\n        /* \"#utility.yul\":19625:19712   */\n      tag_695\n        /* \"#utility.yul\":19707:19710   */\n      0xe0\n        /* \"#utility.yul\":19696:19705   */\n      dup4\n        /* \"#utility.yul\":19692:19711   */\n      add\n        /* \"#utility.yul\":19683:19689   */\n      dup5\n        /* \"#utility.yul\":19625:19712   */\n      tag_572\n      jump\t// in\n    tag_695:\n        /* \"#utility.yul\":18615:19719   */\n      swap10\n      swap9\n      pop\n      pop\n      pop\n      pop\n      pop\n      pop\n      pop\n      pop\n      pop\n      jump\t// out\n        /* \"#utility.yul\":19725:19854   */\n    tag_484:\n        /* \"#utility.yul\":19759:19765   */\n      0x00\n        /* \"#utility.yul\":19786:19806   */\n      tag_697\n      tag_698\n      jump\t// in\n    tag_697:\n        /* \"#utility.yul\":19776:19806   */\n      swap1\n      pop\n        /* \"#utility.yul\":19815:19848   */\n      tag_699\n        /* \"#utility.yul\":19843:19847   */\n      dup3\n        /* \"#utility.yul\":19835:19841   */\n      dup3\n        /* \"#utility.yul\":19815:19848   */\n      tag_700\n      jump\t// in\n    tag_699:\n        /* \"#utility.yul\":19725:19854   */\n      swap2\n      swap1\n      pop\n      jump\t// out\n        /* \"#utility.yul\":19860:19935   */\n    tag_698:\n        /* \"#utility.yul\":19893:19899   */\n      0x00\n        /* \"#utility.yul\":19926:19928   */\n      0x40\n        /* \"#utility.yul\":19920:19929   */\n      mload\n        /* \"#utility.yul\":19910:19929   */\n      swap1\n      pop\n        /* \"#utility.yul\":19860:19935   */\n      swap1\n      jump\t// out\n        /* \"#utility.yul\":19941:20249   */\n    tag_483:\n        /* \"#utility.yul\":20003:20007   */\n      0x00\n        /* \"#utility.yul\":20093:20111   */\n      0xffffffffffffffff\n        /* \"#utility.yul\":20085:20091   */\n      dup3\n        /* \"#utility.yul\":20082:20112   */\n      gt\n        /* \"#utility.yul\":20079:20135   */\n      iszero\n      tag_703\n      jumpi\n        /* \"#utility.yul\":20115:20133   */\n      tag_704\n      tag_705\n      jump\t// in\n    tag_704:\n        /* \"#utility.yul\":20079:20135   */\n    tag_703:\n        /* \"#utility.yul\":20153:20182   */\n      tag_706\n        /* \"#utility.yul\":20175:20181   */\n      dup3\n        /* \"#utility.yul\":20153:20182   */\n      tag_585\n      jump\t// in\n    tag_706:\n        /* \"#utility.yul\":20145:20182   */\n      swap1\n      pop\n        /* \"#utility.yul\":20237:20241   */\n      0x20\n        /* \"#utility.yul\":20231:20235   */\n      dup2\n        /* \"#utility.yul\":20227:20242   */\n      add\n        /* \"#utility.yul\":20219:20242   */\n      swap1\n      pop\n        /* \"#utility.yul\":19941:20249   */\n      swap2\n      swap1\n      pop\n      jump\t// out\n        /* \"#utility.yul\":20255:20354   */\n    tag_579:\n        /* \"#utility.yul\":20307:20313   */\n      0x00\n        /* \"#utility.yul\":20341:20346   */\n      dup2\n        /* \"#utility.yul\":20335:20347   */\n      mload\n        /* \"#utility.yul\":20325:20347   */\n      swap1\n      pop\n        /* \"#utility.yul\":20255:20354   */\n      swap2\n      swap1\n      pop\n      jump\t// out\n        /* \"#utility.yul\":20360:20529   */\n    tag_581:\n        /* \"#utility.yul\":20444:20455   */\n      0x00\n        /* \"#utility.yul\":20478:20484   */\n      dup3\n        /* \"#utility.yul\":20473:20476   */\n      dup3\n        /* \"#utility.yul\":20466:20485   */\n      mstore\n        /* \"#utility.yul\":20518:20522   */\n      0x20\n        /* \"#utility.yul\":20513:20516   */\n      dup3\n        /* \"#utility.yul\":20509:20523   */\n      add\n        /* \"#utility.yul\":20494:20523   */\n      swap1\n      pop\n        /* \"#utility.yul\":20360:20529   */\n      swap3\n      swap2\n      pop\n      pop\n      jump\t// out\n        /* \"#utility.yul\":20535:20840   */\n    tag_427:\n        /* \"#utility.yul\":20575:20578   */\n      0x00\n        /* \"#utility.yul\":20594:20614   */\n      tag_710\n        /* \"#utility.yul\":20612:20613   */\n      dup3\n        /* \"#utility.yul\":20594:20614   */\n      tag_644\n      jump\t// in\n    tag_710:\n        /* \"#utility.yul\":20589:20614   */\n      swap2\n      pop\n        /* \"#utility.yul\":20628:20648   */\n      tag_711\n        /* \"#utility.yul\":20646:20647   */\n      dup4\n        /* \"#utility.yul\":20628:20648   */\n      tag_644\n      jump\t// in\n    tag_711:\n        /* \"#utility.yul\":20623:20648   */\n      swap3\n      pop\n        /* \"#utility.yul\":20782:20783   */\n      dup3\n        /* \"#utility.yul\":20714:20780   */\n      0xffffffffffffffffffffffffffffffffffffffffffffffffffffffffffffffff\n        /* \"#utility.yul\":20710:20784   */\n      sub\n        /* \"#utility.yul\":20707:20708   */\n      dup3\n        /* \"#utility.yul\":20704:20785   */\n      gt\n        /* \"#utility.yul\":20701:20808   */\n      iszero\n      tag_712\n      jumpi\n        /* \"#utility.yul\":20788:20806   */\n      tag_713\n      tag_714\n      jump\t// in\n    tag_713:\n        /* \"#utility.yul\":20701:20808   */\n    tag_712:\n        /* \"#utility.yul\":20832:20833   */\n      dup3\n        /* \"#utility.yul\":20829:20830   */\n      dup3\n        /* \"#utility.yul\":20825:20834   */\n      add\n        /* \"#utility.yul\":20818:20834   */\n      swap1\n      pop\n        /* \"#utility.yul\":20535:20840   */\n      swap3\n      swap2\n      pop\n      pop\n      jump\t// out\n        /* \"#utility.yul\":20846:21037   */\n    tag_139:\n        /* \"#utility.yul\":20886:20890   */\n      0x00\n        /* \"#utility.yul\":20906:20926   */\n      tag_716\n        /* \"#utility.yul\":20924:20925   */\n      dup3\n        /* \"#utility.yul\":20906:20926   */\n      tag_644\n      jump\t// in\n    tag_716:\n        /* \"#utility.yul\":20901:20926   */\n      swap2\n      pop\n        /* \"#utility.yul\":20940:20960   */\n      tag_717\n        /* \"#utility.yul\":20958:20959   */\n      dup4\n        /* \"#utility.yul\":20940:20960   */\n      tag_644\n      jump\t// in\n    tag_717:\n        /* \"#utility.yul\":20935:20960   */\n      swap3\n      pop\n        /* \"#utility.yul\":20979:20980   */\n      dup3\n        /* \"#utility.yul\":20976:20977   */\n      dup3\n        /* \"#utility.yul\":20973:20981   */\n      lt\n        /* \"#utility.yul\":20970:21004   */\n      iszero\n      tag_718\n      jumpi\n        /* \"#utility.yul\":20984:21002   */\n      tag_719\n      tag_714\n      jump\t// in\n    tag_719:\n        /* \"#utility.yul\":20970:21004   */\n    tag_718:\n        /* \"#utility.yul\":21029:21030   */\n      dup3\n        /* \"#utility.yul\":21026:21027   */\n      dup3\n        /* \"#utility.yul\":21022:21031   */\n      sub\n        /* \"#utility.yul\":21014:21031   */\n      swap1\n      pop\n        /* \"#utility.yul\":20846:21037   */\n      swap3\n      swap2\n      pop\n      pop\n      jump\t// out\n        /* \"#utility.yul\":21043:21139   */\n    tag_567:\n        /* \"#utility.yul\":21080:21087   */\n      0x00\n        /* \"#utility.yul\":21109:21133   */\n      tag_721\n        /* \"#utility.yul\":21127:21132   */\n      dup3\n        /* \"#utility.yul\":21109:21133   */\n      tag_722\n      jump\t// in\n    tag_721:\n        /* \"#utility.yul\":21098:21133   */\n      swap1\n      pop\n        /* \"#utility.yul\":21043:21139   */\n      swap2\n      swap1\n      pop\n      jump\t// out\n        /* \"#utility.yul\":21145:21235   */\n    tag_571:\n        /* \"#utility.yul\":21179:21186   */\n      0x00\n        /* \"#utility.yul\":21222:21227   */\n      dup2\n        /* \"#utility.yul\":21215:21228   */\n      iszero\n        /* \"#utility.yul\":21208:21229   */\n      iszero\n        /* \"#utility.yul\":21197:21229   */\n      swap1\n      pop\n        /* \"#utility.yul\":21145:21235   */\n      swap2\n      swap1\n      pop\n      jump\t// out\n        /* \"#utility.yul\":21241:21384   */\n    tag_724:\n        /* \"#utility.yul\":21294:21301   */\n      0x00\n        /* \"#utility.yul\":21323:21328   */\n      dup2\n        /* \"#utility.yul\":21312:21328   */\n      swap1\n      pop\n        /* \"#utility.yul\":21329:21378   */\n      tag_726\n        /* \"#utility.yul\":21372:21377   */\n      dup3\n        /* \"#utility.yul\":21329:21378   */\n      tag_727\n      jump\t// in\n    tag_726:\n        /* \"#utility.yul\":21241:21384   */\n      swap2\n      swap1\n      pop\n      jump\t// out\n        /* \"#utility.yul\":21390:21516   */\n    tag_722:\n        /* \"#utility.yul\":21427:21434   */\n      0x00\n        /* \"#utility.yul\":21467:21509   */\n      0xffffffffffffffffffffffffffffffffffffffff\n        /* \"#utility.yul\":21460:21465   */\n      dup3\n        /* \"#utility.yul\":21456:21510   */\n      and\n        /* \"#utility.yul\":21445:21510   */\n      swap1\n      pop\n        /* \"#utility.yul\":21390:21516   */\n      swap2\n      swap1\n      pop\n      jump\t// out\n        /* \"#utility.yul\":21522:21599   */\n    tag_644:\n        /* \"#utility.yul\":21559:21566   */\n      0x00\n        /* \"#utility.yul\":21588:21593   */\n      dup2\n        /* \"#utility.yul\":21577:21593   */\n      swap1\n      pop\n        /* \"#utility.yul\":21522:21599   */\n      swap2\n      swap1\n      pop\n      jump\t// out\n        /* \"#utility.yul\":21605:21691   */\n    tag_730:\n        /* \"#utility.yul\":21640:21647   */\n      0x00\n        /* \"#utility.yul\":21680:21684   */\n      0xff\n        /* \"#utility.yul\":21673:21678   */\n      dup3\n        /* \"#utility.yul\":21669:21685   */\n      and\n        /* \"#utility.yul\":21658:21685   */\n      swap1\n      pop\n        /* \"#utility.yul\":21605:21691   */\n      swap2\n      swap1\n      pop\n      jump\t// out\n        /* \"#utility.yul\":21697:21840   */\n    tag_575:\n        /* \"#utility.yul\":21761:21770   */\n      0x00\n        /* \"#utility.yul\":21794:21834   */\n      tag_733\n        /* \"#utility.yul\":21828:21833   */\n      dup3\n        /* \"#utility.yul\":21794:21834   */\n      tag_724\n      jump\t// in\n    tag_733:\n        /* \"#utility.yul\":21781:21834   */\n      swap1\n      pop\n        /* \"#utility.yul\":21697:21840   */\n      swap2\n      swap1\n      pop\n      jump\t// out\n        /* \"#utility.yul\":21846:22000   */\n    tag_489:\n        /* \"#utility.yul\":21930:21936   */\n      dup3\n        /* \"#utility.yul\":21925:21928   */\n      dup2\n        /* \"#utility.yul\":21920:21923   */\n      dup4\n        /* \"#utility.yul\":21907:21937   */\n      calldatacopy\n        /* \"#utility.yul\":21992:21993   */\n      0x00\n        /* \"#utility.yul\":21983:21989   */\n      dup4\n        /* \"#utility.yul\":21978:21981   */\n      dup4\n        /* \"#utility.yul\":21974:21990   */\n      add\n        /* \"#utility.yul\":21967:21994   */\n      mstore\n        /* \"#utility.yul\":21846:22000   */\n      pop\n      pop\n      pop\n      jump\t// out\n        /* \"#utility.yul\":22006:22313   */\n    tag_583:\n        /* \"#utility.yul\":22074:22075   */\n      0x00\n        /* \"#utility.yul\":22084:22197   */\n    tag_736:\n        /* \"#utility.yul\":22098:22104   */\n      dup4\n        /* \"#utility.yul\":22095:22096   */\n      dup2\n        /* \"#utility.yul\":22092:22105   */\n      lt\n        /* \"#utility.yul\":22084:22197   */\n      iszero\n      tag_738\n      jumpi\n        /* \"#utility.yul\":22183:22184   */\n      dup1\n        /* \"#utility.yul\":22178:22181   */\n      dup3\n        /* \"#utility.yul\":22174:22185   */\n      add\n        /* \"#utility.yul\":22168:22186   */\n      mload\n        /* \"#utility.yul\":22164:22165   */\n      dup2\n        /* \"#utility.yul\":22159:22162   */\n      dup5\n        /* \"#utility.yul\":22155:22166   */\n      add\n        /* \"#utility.yul\":22148:22187   */\n      mstore\n        /* \"#utility.yul\":22120:22122   */\n      0x20\n        /* \"#utility.yul\":22117:22118   */\n      dup2\n        /* \"#utility.yul\":22113:22123   */\n      add\n        /* \"#utility.yul\":22108:22123   */\n      swap1\n      pop\n        /* \"#utility.yul\":22084:22197   */\n      jump(tag_736)\n    tag_738:\n        /* \"#utility.yul\":22215:22221   */\n      dup4\n        /* \"#utility.yul\":22212:22213   */\n      dup2\n        /* \"#utility.yul\":22209:22222   */\n      gt\n        /* \"#utility.yul\":22206:22307   */\n      iszero\n      tag_739\n      jumpi\n        /* \"#utility.yul\":22295:22296   */\n      0x00\n        /* \"#utility.yul\":22286:22292   */\n      dup5\n        /* \"#utility.yul\":22281:22284   */\n      dup5\n        /* \"#utility.yul\":22277:22293   */\n      add\n        /* \"#utility.yul\":22270:22297   */\n      mstore\n        /* \"#utility.yul\":22206:22307   */\n    tag_739:\n        /* \"#utility.yul\":22055:22313   */\n      pop\n        /* \"#utility.yul\":22006:22313   */\n      pop\n      pop\n      pop\n      jump\t// out\n        /* \"#utility.yul\":22319:22639   */\n    tag_101:\n        /* \"#utility.yul\":22363:22369   */\n      0x00\n        /* \"#utility.yul\":22400:22401   */\n      0x02\n        /* \"#utility.yul\":22394:22398   */\n      dup3\n        /* \"#utility.yul\":22390:22402   */\n      div\n        /* \"#utility.yul\":22380:22402   */\n      swap1\n      pop\n        /* \"#utility.yul\":22447:22448   */\n      0x01\n        /* \"#utility.yul\":22441:22445   */\n      dup3\n        /* \"#utility.yul\":22437:22449   */\n      and\n        /* \"#utility.yul\":22468:22486   */\n      dup1\n        /* \"#utility.yul\":22458:22539   */\n      tag_741\n      jumpi\n        /* \"#utility.yul\":22524:22528   */\n      0x7f\n        /* \"#utility.yul\":22516:22522   */\n      dup3\n        /* \"#utility.yul\":22512:22529   */\n      and\n        /* \"#utility.yul\":22502:22529   */\n      swap2\n      pop\n        /* \"#utility.yul\":22458:22539   */\n    tag_741:\n        /* \"#utility.yul\":22586:22588   */\n      0x20\n        /* \"#utility.yul\":22578:22584   */\n      dup3\n        /* \"#utility.yul\":22575:22589   */\n      lt\n        /* \"#utility.yul\":22555:22573   */\n      dup2\n        /* \"#utility.yul\":22552:22590   */\n      eq\n        /* \"#utility.yul\":22549:22633   */\n      iszero\n      tag_742\n      jumpi\n        /* \"#utility.yul\":22605:22623   */\n      tag_743\n      tag_744\n      jump\t// in\n    tag_743:\n        /* \"#utility.yul\":22549:22633   */\n    tag_742:\n        /* \"#utility.yul\":22370:22639   */\n      pop\n        /* \"#utility.yul\":22319:22639   */\n      swap2\n      swap1\n      pop\n      jump\t// out\n        /* \"#utility.yul\":22645:22926   */\n    tag_700:\n        /* \"#utility.yul\":22728:22755   */\n      tag_746\n        /* \"#utility.yul\":22750:22754   */\n      dup3\n        /* \"#utility.yul\":22728:22755   */\n      tag_585\n      jump\t// in\n    tag_746:\n        /* \"#utility.yul\":22720:22726   */\n      dup2\n        /* \"#utility.yul\":22716:22756   */\n      add\n        /* \"#utility.yul\":22858:22864   */\n      dup2\n        /* \"#utility.yul\":22846:22856   */\n      dup2\n        /* \"#utility.yul\":22843:22865   */\n      lt\n        /* \"#utility.yul\":22822:22840   */\n      0xffffffffffffffff\n        /* \"#utility.yul\":22810:22820   */\n      dup3\n        /* \"#utility.yul\":22807:22841   */\n      gt\n        /* \"#utility.yul\":22804:22866   */\n      or\n        /* \"#utility.yul\":22801:22889   */\n      iszero\n      tag_747\n      jumpi\n        /* \"#utility.yul\":22869:22887   */\n      tag_748\n      tag_705\n      jump\t// in\n    tag_748:\n        /* \"#utility.yul\":22801:22889   */\n    tag_747:\n        /* \"#utility.yul\":22909:22919   */\n      dup1\n        /* \"#utility.yul\":22905:22907   */\n      0x40\n        /* \"#utility.yul\":22898:22920   */\n      mstore\n        /* \"#utility.yul\":22688:22926   */\n      pop\n        /* \"#utility.yul\":22645:22926   */\n      pop\n      pop\n      jump\t// out\n        /* \"#utility.yul\":22932:23165   */\n    tag_141:\n        /* \"#utility.yul\":22971:22974   */\n      0x00\n        /* \"#utility.yul\":22994:23018   */\n      tag_750\n        /* \"#utility.yul\":23012:23017   */\n      dup3\n        /* \"#utility.yul\":22994:23018   */\n      tag_644\n      jump\t// in\n    tag_750:\n        /* \"#utility.yul\":22985:23018   */\n      swap2\n      pop\n        /* \"#utility.yul\":23040:23106   */\n      0xffffffffffffffffffffffffffffffffffffffffffffffffffffffffffffffff\n        /* \"#utility.yul\":23033:23038   */\n      dup3\n        /* \"#utility.yul\":23030:23107   */\n      eq\n        /* \"#utility.yul\":23027:23130   */\n      iszero\n      tag_751\n      jumpi\n        /* \"#utility.yul\":23110:23128   */\n      tag_752\n      tag_714\n      jump\t// in\n    tag_752:\n        /* \"#utility.yul\":23027:23130   */\n    tag_751:\n        /* \"#utility.yul\":23157:23158   */\n      0x01\n        /* \"#utility.yul\":23150:23155   */\n      dup3\n        /* \"#utility.yul\":23146:23159   */\n      add\n        /* \"#utility.yul\":23139:23159   */\n      swap1\n      pop\n        /* \"#utility.yul\":22932:23165   */\n      swap2\n      swap1\n      pop\n      jump\t// out\n        /* \"#utility.yul\":23171:23351   */\n    tag_714:\n        /* \"#utility.yul\":23219:23296   */\n      0x4e487b7100000000000000000000000000000000000000000000000000000000\n        /* \"#utility.yul\":23216:23217   */\n      0x00\n        /* \"#utility.yul\":23209:23297   */\n      mstore\n        /* \"#utility.yul\":23316:23320   */\n      0x11\n        /* \"#utility.yul\":23313:23314   */\n      0x04\n        /* \"#utility.yul\":23306:23321   */\n      mstore\n        /* \"#utility.yul\":23340:23344   */\n      0x24\n        /* \"#utility.yul\":23337:23338   */\n      0x00\n        /* \"#utility.yul\":23330:23345   */\n      revert\n        /* \"#utility.yul\":23357:23537   */\n    tag_150:\n        /* \"#utility.yul\":23405:23482   */\n      0x4e487b7100000000000000000000000000000000000000000000000000000000\n        /* \"#utility.yul\":23402:23403   */\n      0x00\n        /* \"#utility.yul\":23395:23483   */\n      mstore\n        /* \"#utility.yul\":23502:23506   */\n      0x21\n        /* \"#utility.yul\":23499:23500   */\n      0x04\n        /* \"#utility.yul\":23492:23507   */\n      mstore\n        /* \"#utility.yul\":23526:23530   */\n      0x24\n        /* \"#utility.yul\":23523:23524   */\n      0x00\n        /* \"#utility.yul\":23516:23531   */\n      revert\n        /* \"#utility.yul\":23543:23723   */\n    tag_744:\n        /* \"#utility.yul\":23591:23668   */\n      0x4e487b7100000000000000000000000000000000000000000000000000000000\n        /* \"#utility.yul\":23588:23589   */\n      0x00\n        /* \"#utility.yul\":23581:23669   */\n      mstore\n        /* \"#utility.yul\":23688:23692   */\n      0x22\n        /* \"#utility.yul\":23685:23686   */\n      0x04\n        /* \"#utility.yul\":23678:23693   */\n      mstore\n        /* \"#utility.yul\":23712:23716   */\n      0x24\n        /* \"#utility.yul\":23709:23710   */\n      0x00\n        /* \"#utility.yul\":23702:23717   */\n      revert\n        /* \"#utility.yul\":23729:23909   */\n    tag_123:\n        /* \"#utility.yul\":23777:23854   */\n      0x4e487b7100000000000000000000000000000000000000000000000000000000\n        /* \"#utility.yul\":23774:23775   */\n      0x00\n        /* \"#utility.yul\":23767:23855   */\n      mstore\n        /* \"#utility.yul\":23874:23878   */\n      0x32\n        /* \"#utility.yul\":23871:23872   */\n      0x04\n        /* \"#utility.yul\":23864:23879   */\n      mstore\n        /* \"#utility.yul\":23898:23902   */\n      0x24\n        /* \"#utility.yul\":23895:23896   */\n      0x00\n        /* \"#utility.yul\":23888:23903   */\n      revert\n        /* \"#utility.yul\":23915:24095   */\n    tag_705:\n        /* \"#utility.yul\":23963:24040   */\n      0x4e487b7100000000000000000000000000000000000000000000000000000000\n        /* \"#utility.yul\":23960:23961   */\n      0x00\n        /* \"#utility.yul\":23953:24041   */\n      mstore\n        /* \"#utility.yul\":24060:24064   */\n      0x41\n        /* \"#utility.yul\":24057:24058   */\n      0x04\n        /* \"#utility.yul\":24050:24065   */\n      mstore\n        /* \"#utility.yul\":24084:24088   */\n      0x24\n        /* \"#utility.yul\":24081:24082   */\n      0x00\n        /* \"#utility.yul\":24074:24089   */\n      revert\n        /* \"#utility.yul\":24101:24218   */\n    tag_502:\n        /* \"#utility.yul\":24210:24211   */\n      0x00\n        /* \"#utility.yul\":24207:24208   */\n      dup1\n        /* \"#utility.yul\":24200:24212   */\n      revert\n        /* \"#utility.yul\":24224:24341   */\n    tag_487:\n        /* \"#utility.yul\":24333:24334   */\n      0x00\n        /* \"#utility.yul\":24330:24331   */\n      dup1\n        /* \"#utility.yul\":24323:24335   */\n      revert\n        /* \"#utility.yul\":24347:24464   */\n    tag_527:\n        /* \"#utility.yul\":24456:24457   */\n      0x00\n        /* \"#utility.yul\":24453:24454   */\n      dup1\n        /* \"#utility.yul\":24446:24458   */\n      revert\n        /* \"#utility.yul\":24470:24587   */\n    tag_515:\n        /* \"#utility.yul\":24579:24580   */\n      0x00\n        /* \"#utility.yul\":24576:24577   */\n      dup1\n        /* \"#utility.yul\":24569:24581   */\n      revert\n        /* \"#utility.yul\":24593:24695   */\n    tag_585:\n        /* \"#utility.yul\":24634:24640   */\n      0x00\n        /* \"#utility.yul\":24685:24687   */\n      0x1f\n        /* \"#utility.yul\":24681:24688   */\n      not\n        /* \"#utility.yul\":24676:24678   */\n      0x1f\n        /* \"#utility.yul\":24669:24674   */\n      dup4\n        /* \"#utility.yul\":24665:24679   */\n      add\n        /* \"#utility.yul\":24661:24689   */\n      and\n        /* \"#utility.yul\":24651:24689   */\n      swap1\n      pop\n        /* \"#utility.yul\":24593:24695   */\n      swap2\n      swap1\n      pop\n      jump\t// out\n        /* \"#utility.yul\":24701:24868   */\n    tag_590:\n        /* \"#utility.yul\":24841:24860   */\n      0x43686172697479206e6f7420666f756e64000000000000000000000000000000\n        /* \"#utility.yul\":24837:24838   */\n      0x00\n        /* \"#utility.yul\":24829:24835   */\n      dup3\n        /* \"#utility.yul\":24825:24839   */\n      add\n        /* \"#utility.yul\":24818:24861   */\n      mstore\n        /* \"#utility.yul\":24701:24868   */\n      pop\n      jump\t// out\n        /* \"#utility.yul\":24874:25101   */\n    tag_595:\n        /* \"#utility.yul\":25014:25048   */\n      0x596f7520686176656e277420636f6e747269627574656420666f722074686973\n        /* \"#utility.yul\":25010:25011   */\n      0x00\n        /* \"#utility.yul\":25002:25008   */\n      dup3\n        /* \"#utility.yul\":24998:25012   */\n      add\n        /* \"#utility.yul\":24991:25049   */\n      mstore\n        /* \"#utility.yul\":25083:25093   */\n      0x2070726f6a656374000000000000000000000000000000000000000000000000\n        /* \"#utility.yul\":25078:25080   */\n      0x20\n        /* \"#utility.yul\":25070:25076   */\n      dup3\n        /* \"#utility.yul\":25066:25081   */\n      add\n        /* \"#utility.yul\":25059:25094   */\n      mstore\n        /* \"#utility.yul\":24874:25101   */\n      pop\n      jump\t// out\n        /* \"#utility.yul\":25107:25331   */\n    tag_600:\n        /* \"#utility.yul\":25247:25281   */\n      0x53686f756c642062652067726561746572207468616e206d696e696d756d2061\n        /* \"#utility.yul\":25243:25244   */\n      0x00\n        /* \"#utility.yul\":25235:25241   */\n      dup3\n        /* \"#utility.yul\":25231:25245   */\n      add\n        /* \"#utility.yul\":25224:25282   */\n      mstore\n        /* \"#utility.yul\":25316:25323   */\n      0x6d6f756e74000000000000000000000000000000000000000000000000000000\n        /* \"#utility.yul\":25311:25313   */\n      0x20\n        /* \"#utility.yul\":25303:25309   */\n      dup3\n        /* \"#utility.yul\":25299:25314   */\n      add\n        /* \"#utility.yul\":25292:25324   */\n      mstore\n        /* \"#utility.yul\":25107:25331   */\n      pop\n      jump\t// out\n        /* \"#utility.yul\":25337:25626   */\n    tag_605:\n        /* \"#utility.yul\":25477:25511   */\n      0x43616e277420726566756e642061732065786368616e67652072657175657374\n        /* \"#utility.yul\":25473:25474   */\n      0x00\n        /* \"#utility.yul\":25465:25471   */\n      dup3\n        /* \"#utility.yul\":25461:25475   */\n      add\n        /* \"#utility.yul\":25454:25512   */\n      mstore\n        /* \"#utility.yul\":25546:25580   */\n      0x2077617320616c726561647920696e69746961746564207769746820626f6172\n        /* \"#utility.yul\":25541:25543   */\n      0x20\n        /* \"#utility.yul\":25533:25539   */\n      dup3\n        /* \"#utility.yul\":25529:25544   */\n      add\n        /* \"#utility.yul\":25522:25581   */\n      mstore\n        /* \"#utility.yul\":25615:25618   */\n      0x6400000000000000000000000000000000000000000000000000000000000000\n        /* \"#utility.yul\":25610:25612   */\n      0x40\n        /* \"#utility.yul\":25602:25608   */\n      dup3\n        /* \"#utility.yul\":25598:25613   */\n      add\n        /* \"#utility.yul\":25591:25619   */\n      mstore\n        /* \"#utility.yul\":25337:25626   */\n      pop\n      jump\t// out\n        /* \"#utility.yul\":25632:25803   */\n    tag_610:\n        /* \"#utility.yul\":25772:25795   */\n      0x50726f6a65637420646f65736e27742065786973740000000000000000000000\n        /* \"#utility.yul\":25768:25769   */\n      0x00\n        /* \"#utility.yul\":25760:25766   */\n      dup3\n        /* \"#utility.yul\":25756:25770   */\n      add\n        /* \"#utility.yul\":25749:25796   */\n      mstore\n        /* \"#utility.yul\":25632:25803   */\n      pop\n      jump\t// out\n        /* \"#utility.yul\":25809:25986   */\n    tag_615:\n        /* \"#utility.yul\":25949:25978   */\n      0x43686172697479206973206e6f742079657420617070726f7665640000000000\n        /* \"#utility.yul\":25945:25946   */\n      0x00\n        /* \"#utility.yul\":25937:25943   */\n      dup3\n        /* \"#utility.yul\":25933:25947   */\n      add\n        /* \"#utility.yul\":25926:25979   */\n      mstore\n        /* \"#utility.yul\":25809:25986   */\n      pop\n      jump\t// out\n        /* \"#utility.yul\":25992:26214   */\n    tag_620:\n        /* \"#utility.yul\":26132:26166   */\n      0x4e6f2070726f6a65637420657869737420756e64657220746869732063686172\n        /* \"#utility.yul\":26128:26129   */\n      0x00\n        /* \"#utility.yul\":26120:26126   */\n      dup3\n        /* \"#utility.yul\":26116:26130   */\n      add\n        /* \"#utility.yul\":26109:26167   */\n      mstore\n        /* \"#utility.yul\":26201:26206   */\n      0x6974790000000000000000000000000000000000000000000000000000000000\n        /* \"#utility.yul\":26196:26198   */\n      0x20\n        /* \"#utility.yul\":26188:26194   */\n      dup3\n        /* \"#utility.yul\":26184:26199   */\n      add\n        /* \"#utility.yul\":26177:26207   */\n      mstore\n        /* \"#utility.yul\":25992:26214   */\n      pop\n      jump\t// out\n        /* \"#utility.yul\":26220:26391   */\n    tag_625:\n        /* \"#utility.yul\":26360:26383   */\n      0x4368617269747920646f65736e27742065786973740000000000000000000000\n        /* \"#utility.yul\":26356:26357   */\n      0x00\n        /* \"#utility.yul\":26348:26354   */\n      dup3\n        /* \"#utility.yul\":26344:26358   */\n      add\n        /* \"#utility.yul\":26337:26384   */\n      mstore\n        /* \"#utility.yul\":26220:26391   */\n      pop\n      jump\t// out\n        /* \"#utility.yul\":26397:26621   */\n    tag_630:\n        /* \"#utility.yul\":26537:26571   */\n      0x4e6f2070726f6a65637420657869737420756e64657220746869732070726f6a\n        /* \"#utility.yul\":26533:26534   */\n      0x00\n        /* \"#utility.yul\":26525:26531   */\n      dup3\n        /* \"#utility.yul\":26521:26535   */\n      add\n        /* \"#utility.yul\":26514:26572   */\n      mstore\n        /* \"#utility.yul\":26606:26613   */\n      0x6563744964000000000000000000000000000000000000000000000000000000\n        /* \"#utility.yul\":26601:26603   */\n      0x20\n        /* \"#utility.yul\":26593:26599   */\n      dup3\n        /* \"#utility.yul\":26589:26604   */\n      add\n        /* \"#utility.yul\":26582:26614   */\n      mstore\n        /* \"#utility.yul\":26397:26621   */\n      pop\n      jump\t// out\n        /* \"#utility.yul\":26627:26854   */\n    tag_635:\n        /* \"#utility.yul\":26767:26801   */\n      0x4e6f20737563682070726f6a65637420657869737420756e6465722074686973\n        /* \"#utility.yul\":26763:26764   */\n      0x00\n        /* \"#utility.yul\":26755:26761   */\n      dup3\n        /* \"#utility.yul\":26751:26765   */\n      add\n        /* \"#utility.yul\":26744:26802   */\n      mstore\n        /* \"#utility.yul\":26836:26846   */\n      0x2063686172697479000000000000000000000000000000000000000000000000\n        /* \"#utility.yul\":26831:26833   */\n      0x20\n        /* \"#utility.yul\":26823:26829   */\n      dup3\n        /* \"#utility.yul\":26819:26834   */\n      add\n        /* \"#utility.yul\":26812:26847   */\n      mstore\n        /* \"#utility.yul\":26627:26854   */\n      pop\n      jump\t// out\n        /* \"#utility.yul\":26860:27091   */\n    tag_640:\n        /* \"#utility.yul\":27000:27034   */\n      0x4e6f206d6f726520646f6e6174696f6e7320616363657074656420666f722074\n        /* \"#utility.yul\":26996:26997   */\n      0x00\n        /* \"#utility.yul\":26988:26994   */\n      dup3\n        /* \"#utility.yul\":26984:26998   */\n      add\n        /* \"#utility.yul\":26977:27035   */\n      mstore\n        /* \"#utility.yul\":27069:27083   */\n      0x6869732070726f6a6563742e0000000000000000000000000000000000000000\n        /* \"#utility.yul\":27064:27066   */\n      0x20\n        /* \"#utility.yul\":27056:27062   */\n      dup3\n        /* \"#utility.yul\":27052:27067   */\n      add\n        /* \"#utility.yul\":27045:27084   */\n      mstore\n        /* \"#utility.yul\":26860:27091   */\n      pop\n      jump\t// out\n        /* \"#utility.yul\":27097:27219   */\n    tag_727:\n        /* \"#utility.yul\":27186:27188   */\n      0x0a\n        /* \"#utility.yul\":27179:27184   */\n      dup2\n        /* \"#utility.yul\":27176:27189   */\n      lt\n        /* \"#utility.yul\":27166:27213   */\n      tag_775\n      jumpi\n        /* \"#utility.yul\":27193:27211   */\n      tag_776\n      tag_150\n      jump\t// in\n    tag_776:\n        /* \"#utility.yul\":27166:27213   */\n    tag_775:\n        /* \"#utility.yul\":27097:27219   */\n      pop\n      jump\t// out\n        /* \"#utility.yul\":27225:27347   */\n    tag_493:\n        /* \"#utility.yul\":27298:27322   */\n      tag_778\n        /* \"#utility.yul\":27316:27321   */\n      dup2\n        /* \"#utility.yul\":27298:27322   */\n      tag_567\n      jump\t// in\n    tag_778:\n        /* \"#utility.yul\":27291:27296   */\n      dup2\n        /* \"#utility.yul\":27288:27323   */\n      eq\n        /* \"#utility.yul\":27278:27341   */\n      tag_779\n      jumpi\n        /* \"#utility.yul\":27337:27338   */\n      0x00\n        /* \"#utility.yul\":27334:27335   */\n      dup1\n        /* \"#utility.yul\":27327:27339   */\n      revert\n        /* \"#utility.yul\":27278:27341   */\n    tag_779:\n        /* \"#utility.yul\":27225:27347   */\n      pop\n      jump\t// out\n        /* \"#utility.yul\":27353:27469   */\n    tag_497:\n        /* \"#utility.yul\":27442:27444   */\n      0x0a\n        /* \"#utility.yul\":27435:27440   */\n      dup2\n        /* \"#utility.yul\":27432:27445   */\n      lt\n        /* \"#utility.yul\":27422:27463   */\n      tag_781\n      jumpi\n        /* \"#utility.yul\":27459:27460   */\n      0x00\n        /* \"#utility.yul\":27456:27457   */\n      dup1\n        /* \"#utility.yul\":27449:27461   */\n      revert\n        /* \"#utility.yul\":27422:27463   */\n    tag_781:\n        /* \"#utility.yul\":27353:27469   */\n      pop\n      jump\t// out\n        /* \"#utility.yul\":27475:27597   */\n    tag_507:\n        /* \"#utility.yul\":27548:27572   */\n      tag_783\n        /* \"#utility.yul\":27566:27571   */\n      dup2\n        /* \"#utility.yul\":27548:27572   */\n      tag_644\n      jump\t// in\n    tag_783:\n        /* \"#utility.yul\":27541:27546   */\n      dup2\n        /* \"#utility.yul\":27538:27573   */\n      eq\n        /* \"#utility.yul\":27528:27591   */\n      tag_784\n      jumpi\n        /* \"#utility.yul\":27587:27588   */\n      0x00\n        /* \"#utility.yul\":27584:27585   */\n      dup1\n        /* \"#utility.yul\":27577:27589   */\n      revert\n        /* \"#utility.yul\":27528:27591   */\n    tag_784:\n        /* \"#utility.yul\":27475:27597   */\n      pop\n      jump\t// out\n        /* \"#utility.yul\":27603:27721   */\n    tag_511:\n        /* \"#utility.yul\":27674:27696   */\n      tag_786\n        /* \"#utility.yul\":27690:27695   */\n      dup2\n        /* \"#utility.yul\":27674:27696   */\n      tag_730\n      jump\t// in\n    tag_786:\n        /* \"#utility.yul\":27667:27672   */\n      dup2\n        /* \"#utility.yul\":27664:27697   */\n      eq\n        /* \"#utility.yul\":27654:27715   */\n      tag_787\n      jumpi\n        /* \"#utility.yul\":27711:27712   */\n      0x00\n        /* \"#utility.yul\":27708:27709   */\n      dup1\n        /* \"#utility.yul\":27701:27713   */\n      revert\n        /* \"#utility.yul\":27654:27715   */\n    tag_787:\n        /* \"#utility.yul\":27603:27721   */\n      pop\n      jump\t// out\n    stop\n    data_0fd57a96508da25173f82e6faabc4b077c36881e53dd1b21682a822e75096b01 54686973206f7065726174696f6e2063616e20626520706572666f726d6564206f6e6c7920627920426f6172642061646d696e\n    data_5c19b7ff1bcfb320392194574ccc24118e50bba13de42db0a22f05014bb7a7fa 596f7520617265206e6f7420617574686f72697a656420746f207570646174652077697468207468697320737461747573\n    data_ae7511c0e8221605b02a680fd07d0703f28d0f0f32c6884aaca3289d2fe90612 54686973206f7065726174696f6e2063616e20626520706572666f726d6564206f6e6c792062792043686172697479\n\n    auxdata: 0xa2646970667358221220332dfc10c10a6303871d631895ff158842aacde1d202c6fcc293426a20a803c864736f6c63430008070033\n}\n",
				"bytecode": {
					"linkReferences": {},
					"object": "60806040523480156200001157600080fd5b5033600260006101000a81548173ffffffffffffffffffffffffffffffffffffffff021916908373ffffffffffffffffffffffffffffffffffffffff1602179055506040518060400160405280601481526020017f57616974696e6720666f7220617070726f76616c00000000000000000000000081525060076000806009811115620000a357620000a2620006a1565b5b6009811115620000b857620000b7620006a1565b5b81526020019081526020016000209080519060200190620000db929190620005bb565b506040518060400160405280600881526020017f417070726f76656400000000000000000000000000000000000000000000000081525060076000600260098111156200012d576200012c620006a1565b5b6009811115620001425762000141620006a1565b5b8152602001908152602001600020908051906020019062000165929190620005bb565b506040518060400160405280601381526020017f52656a65637465642062792063686172697479000000000000000000000000008152506007600060016009811115620001b757620001b6620006a1565b5b6009811115620001cc57620001cb620006a1565b5b81526020019081526020016000209080519060200190620001ef929190620005bb565b506040518060400160405280601581526020017f50726f6a65637420676f616c20616368696576656400000000000000000000008152506007600060036009811115620002415762000240620006a1565b5b6009811115620002565762000255620006a1565b5b8152602001908152602001600020908051906020019062000279929190620005bb565b506040518060400160405280601281526020017f45786368616e67652072657175657374656400000000000000000000000000008152506007600060046009811115620002cb57620002ca620006a1565b5b6009811115620002e057620002df620006a1565b5b8152602001908152602001600020908051906020019062000303929190620005bb565b506040518060400160405280601981526020017f45786368616e67652072657175657374207265636569766564000000000000008152506007600060056009811115620003555762000354620006a1565b5b60098111156200036a5762000369620006a1565b5b815260200190815260200160002090805190602001906200038d929190620005bb565b506040518060400160405280601981526020017f45786368616e6765207265717565737420617070726f766564000000000000008152506007600060066009811115620003df57620003de620006a1565b5b6009811115620003f457620003f3620006a1565b5b8152602001908152602001600020908051906020019062000417929190620005bb565b506040518060400160405280601981526020017f45786368616e676520726571756573742072656a6563746564000000000000008152506007600060076009811115620004695762000468620006a1565b5b60098111156200047e576200047d620006a1565b5b81526020019081526020016000209080519060200190620004a1929190620005bb565b506040518060400160405280600e81526020017f46756e647320726566756e6465640000000000000000000000000000000000008152506007600060086009811115620004f357620004f2620006a1565b5b6009811115620005085762000507620006a1565b5b815260200190815260200160002090805190602001906200052b929190620005bb565b506040518060400160405280600e81526020017f50726f6a65637420636c6f736564000000000000000000000000000000000000815250600760006009808111156200057c576200057b620006a1565b5b6009811115620005915762000590620006a1565b5b81526020019081526020016000209080519060200190620005b4929190620005bb565b50620006ff565b828054620005c9906200066b565b90600052602060002090601f016020900481019282620005ed576000855562000639565b82601f106200060857805160ff191683800117855562000639565b8280016001018555821562000639579182015b82811115620006385782518255916020019190600101906200061b565b5b5090506200064891906200064c565b5090565b5b80821115620006675760008160009055506001016200064d565b5090565b600060028204905060018216806200068457607f821691505b602082108114156200069b576200069a620006d0565b5b50919050565b7f4e487b7100000000000000000000000000000000000000000000000000000000600052602160045260246000fd5b7f4e487b7100000000000000000000000000000000000000000000000000000000600052602260045260246000fd5b6135af806200070f6000396000f3fe6080604052600436106100e85760003560e01c806397ed410c1161008a578063daf3823211610059578063daf38232146102f9578063ef6add3214610322578063ef88f48b1461035f578063fb709d2e1461037b576100e8565b806397ed410c1461023f5780639d8e7e8914610268578063a6dbec73146102a5578063b61a7f76146102ce576100e8565b80631ed056d8116100c65780631ed056d8146101855780632c3730ef146101c45780633a8565f0146101ed57806395dcc36614610216576100e8565b8063107046bd146100ed578063141020cc146101315780631ab333081461015a575b600080fd5b3480156100f957600080fd5b50610114600480360381019061010f919061269f565b6103bc565b604051610128989796959493929190612d91565b60405180910390f35b34801561013d57600080fd5b5061015860048036038101906101539190612728565b6104d6565b005b34801561016657600080fd5b5061016f6106e0565b60405161017c9190612b25565b60405180910390f35b34801561019157600080fd5b506101ac60048036038101906101a79190612797565b6106f3565b6040516101bb93929190612d5a565b60405180910390f35b3480156101d057600080fd5b506101eb60048036038101906101e691906128c1565b610891565b005b3480156101f957600080fd5b50610214600480360381019061020f91906128c1565b610d26565b005b34801561022257600080fd5b5061023d6004803603810190610238919061282a565b6112e3565b005b34801561024b57600080fd5b5061026660048036038101906102619190612797565b61168b565b005b34801561027457600080fd5b5061028f600480360381019061028a9190612797565b6117ab565b60405161029c9190612b40565b60405180910390f35b3480156102b157600080fd5b506102cc60048036038101906102c791906127d7565b611995565b005b3480156102da57600080fd5b506102e3611d4a565b6040516102f09190612b0a565b60405180910390f35b34801561030557600080fd5b50610320600480360381019061031b91906126cc565b611d70565b005b34801561032e57600080fd5b5061034960048036038101906103449190612672565b611e7d565b6040516103569190612b40565b60405180910390f35b610379600480360381019061037491906127d7565b611f1d565b005b34801561038757600080fd5b506103a2600480360381019061039d919061269f565b612388565b6040516103b3959493929190612cc2565b60405180910390f35b600081815481106103cc57600080fd5b90600052602060002090600702016000915090508060000154908060010154908060020154908060030154908060040160009054906101000a900473ffffffffffffffffffffffffffffffffffffffff16908060040160149054906101000a900460ff169080600501805461044090612fce565b80601f016020809104026020016040519081016040528092919081815260200182805461046c90612fce565b80156104b95780601f1061048e576101008083540402835291602001916104b9565b820191906000526020600020905b81548152906001019060200180831161049c57829003601f168201915b5050505050908060060160009054906101000a900460ff16905088565b600260009054906101000a900473ffffffffffffffffffffffffffffffffffffffff1673ffffffffffffffffffffffffffffffffffffffff163373ffffffffffffffffffffffffffffffffffffffff16146040518060600160405280603381526020016134e76033913990610581576040517f08c379a00000000000000000000000000000000000000000000000000000000081526004016105789190612b40565b60405180910390fd5b5060006040518060a001604052808581526020016001151581526020016040518060200160405280600081525081526020018481526020018373ffffffffffffffffffffffffffffffffffffffff16815250905060018190806001815401808255809150506001900390600052602060002090600502016000909190919091506000820151816000015560208201518160010160006101000a81548160ff021916908315150217905550604082015181600201908051906020019061064792919061250b565b50606082015181600301908051906020019061066492919061250b565b5060808201518160040160006101000a81548173ffffffffffffffffffffffffffffffffffffffff021916908373ffffffffffffffffffffffffffffffffffffffff160217905550505060016005600086815260200190815260200160002060006101000a81548160ff02191690831515021790555050505050565b600660009054906101000a900460ff1681565b6000806000806004600087815260200190815260200160002090506000818054905011610755576040517f08c379a000000000000000000000000000000000000000000000000000000000815260040161074c90612c42565b60405180910390fd5b60005b818054905081101561084e578582828154811061077857610777613107565b5b906000526020600020906007020160000154141561083b578181815481106107a3576107a2613107565b5b9060005260206000209060070201600201548282815481106107c8576107c7613107565b5b9060005260206000209060070201600301548383815481106107ed576107ec613107565b5b90600052602060002090600702016003015484848154811061081257610811613107565b5b90600052602060002090600702016002015461082e9190612ede565b945094509450505061088a565b808061084690613031565b915050610758565b506040517f08c379a000000000000000000000000000000000000000000000000000000000815260040161088190612c82565b60405180910390fd5b9250925092565b600260009054906101000a900473ffffffffffffffffffffffffffffffffffffffff1673ffffffffffffffffffffffffffffffffffffffff163373ffffffffffffffffffffffffffffffffffffffff16146040518060600160405280603381526020016134e7603391399061093c576040517f08c379a00000000000000000000000000000000000000000000000000000000081526004016109339190612b40565b60405180910390fd5b5060006009811115610951576109506130a9565b5b8160ff166009811115610967576109666130a9565b5b6009811115610979576109786130a9565b5b141560405180606001604052806031815260200161351a60319139906109d5576040517f08c379a00000000000000000000000000000000000000000000000000000000081526004016109cc9190612b40565b60405180910390fd5b50600260098111156109ea576109e96130a9565b5b8160ff166009811115610a00576109ff6130a9565b5b6009811115610a1257610a116130a9565b5b141560405180606001604052806031815260200161351a6031913990610a6e576040517f08c379a0000000000000000000000000000000000000000000000000000000008152600401610a659190612b40565b60405180910390fd5b5060036009811115610a8357610a826130a9565b5b8160ff166009811115610a9957610a986130a9565b5b6009811115610aab57610aaa6130a9565b5b141560405180606001604052806031815260200161351a6031913990610b07576040517f08c379a0000000000000000000000000000000000000000000000000000000008152600401610afe9190612b40565b60405180910390fd5b5060046009811115610b1c57610b1b6130a9565b5b8160ff166009811115610b3257610b316130a9565b5b6009811115610b4457610b436130a9565b5b141560405180606001604052806031815260200161351a6031913990610ba0576040517f08c379a0000000000000000000000000000000000000000000000000000000008152600401610b979190612b40565b60405180910390fd5b5060006004600084815260200190815260200160002090506000818054905011610bff576040517f08c379a0000000000000000000000000000000000000000000000000000000008152600401610bf690612c22565b60405180910390fd5b60005b8180549050811015610d1f5784828281548110610c2257610c21613107565b5b9060005260206000209060070201600001541415610d0c578260ff166009811115610c5057610c4f6130a9565b5b828281548110610c6357610c62613107565b5b906000526020600020906007020160060160006101000a81548160ff02191690836009811115610c9657610c956130a9565b5b02179055507f42b0281ef1ba120f08ae315789f8639d48731db33eaac502b629a775c997471b8486848481548110610cd157610cd0613107565b5b906000526020600020906007020160060160009054906101000a900460ff16604051610cff93929190612d23565b60405180910390a1610d1f565b8080610d1790613031565b915050610c02565b5050505050565b600260009054906101000a900473ffffffffffffffffffffffffffffffffffffffff1673ffffffffffffffffffffffffffffffffffffffff163373ffffffffffffffffffffffffffffffffffffffff1614156040518060600160405280602f815260200161354b602f913990610dd2576040517f08c379a0000000000000000000000000000000000000000000000000000000008152600401610dc99190612b40565b60405180910390fd5b50600060036009811115610de957610de86130a9565b5b8260ff166009811115610dff57610dfe6130a9565b5b6009811115610e1157610e106130a9565b5b141560405180606001604052806031815260200161351a6031913990610e6d576040517f08c379a0000000000000000000000000000000000000000000000000000000008152600401610e649190612b40565b60405180910390fd5b5060056009811115610e8257610e816130a9565b5b8260ff166009811115610e9857610e976130a9565b5b6009811115610eaa57610ea96130a9565b5b141560405180606001604052806031815260200161351a6031913990610f06576040517f08c379a0000000000000000000000000000000000000000000000000000000008152600401610efd9190612b40565b60405180910390fd5b5060066009811115610f1b57610f1a6130a9565b5b8260ff166009811115610f3157610f306130a9565b5b6009811115610f4357610f426130a9565b5b141560405180606001604052806031815260200161351a6031913990610f9f576040517f08c379a0000000000000000000000000000000000000000000000000000000008152600401610f969190612b40565b60405180910390fd5b5060006004600085815260200190815260200160002090506000818054905011610ffe576040517f08c379a0000000000000000000000000000000000000000000000000000000008152600401610ff590612be2565b60405180910390fd5b60005b81805490508110156112db578582828154811061102157611020613107565b5b90600052602060002090600702016000015414156112bd5760019250600082828154811061105257611051613107565b5b906000526020600020906007020160040160146101000a81548160ff0219169083151502179055506007600981111561108e5761108d6130a9565b5b8460ff1660098111156110a4576110a36130a9565b5b60098111156110b6576110b56130a9565b5b14806110fb5750600660098111156110d1576110d06130a9565b5b8460ff1660098111156110e7576110e66130a9565b5b60098111156110f9576110f86130a9565b5b145b156111db577f2de098063448dbe8b26fa82794cd68cf748edb4f3e2cc43166e3ad659757019e85878660ff166009811115611139576111386130a9565b5b60405161114893929190612d23565b60405180910390a160076009811115611164576111636130a9565b5b8460ff16600981111561117a576111796130a9565b5b600981111561118c5761118b6130a9565b5b1415611197576111d6565b600660098111156111ab576111aa6130a9565b5b8460ff1660098111156111c1576111c06130a9565b5b60098111156111d3576111d26130a9565b5b50505b6112bc565b8360ff1660098111156111f1576111f06130a9565b5b82828154811061120457611203613107565b5b906000526020600020906007020160060160006101000a81548160ff02191690836009811115611237576112366130a9565b5b0217905550600460098111156112505761124f6130a9565b5b8460ff166009811115611266576112656130a9565b5b6009811115611278576112776130a9565b5b14156112bb577fd49fc9fa26fa9fc112efd004acb9eeabf80810373d2cbb1a7884d4d64e8e8d2b858760046040516112b293929190612d23565b60405180910390a15b5b5b82156112c8576112db565b80806112d390613031565b915050611001565b505050505050565b600260009054906101000a900473ffffffffffffffffffffffffffffffffffffffff1673ffffffffffffffffffffffffffffffffffffffff163373ffffffffffffffffffffffffffffffffffffffff1614156040518060600160405280602f815260200161354b602f91399061138f576040517f08c379a00000000000000000000000000000000000000000000000000000000081526004016113869190612b40565b60405180910390fd5b506005600086815260200190815260200160002060009054906101000a900460ff166113f0576040517f08c379a00000000000000000000000000000000000000000000000000000000081526004016113e790612c02565b60405180910390fd5b6000604051806101000160405280868152602001620f42408152602001858152602001600081526020018473ffffffffffffffffffffffffffffffffffffffff16815260200160011515815260200183815260200160026009811115611459576114586130a9565b5b815250905060008190806001815401808255809150506001900390600052602060002090600702016000909190919091506000820151816000015560208201518160010155604082015181600201556060820151816003015560808201518160040160006101000a81548173ffffffffffffffffffffffffffffffffffffffff021916908373ffffffffffffffffffffffffffffffffffffffff16021790555060a08201518160040160146101000a81548160ff02191690831515021790555060c082015181600501908051906020019061153592919061250b565b5060e08201518160060160006101000a81548160ff02191690836009811115611561576115606130a9565b5b02179055505050600460008781526020019081526020016000208190806001815401808255809150506001900390600052602060002090600702016000909190919091506000820151816000015560208201518160010155604082015181600201556060820151816003015560808201518160040160006101000a81548173ffffffffffffffffffffffffffffffffffffffff021916908373ffffffffffffffffffffffffffffffffffffffff16021790555060a08201518160040160146101000a81548160ff02191690831515021790555060c082015181600501908051906020019061165092919061250b565b5060e08201518160060160006101000a81548160ff0219169083600981111561167c5761167b6130a9565b5b02179055505050505050505050565b600260009054906101000a900473ffffffffffffffffffffffffffffffffffffffff1673ffffffffffffffffffffffffffffffffffffffff163373ffffffffffffffffffffffffffffffffffffffff16146040518060600160405280603381526020016134e76033913990611736576040517f08c379a000000000000000000000000000000000000000000000000000000000815260040161172d9190612b40565b60405180910390fd5b5060006001838154811061174d5761174c613107565b5b9060005260206000209060050201905060018160010160006101000a81548160ff02191690831515021790555060016005600084815260200190815260200160002060006101000a81548160ff021916908315150217905550505050565b60606000600460008581526020019081526020016000209050600081805490501161180b576040517f08c379a000000000000000000000000000000000000000000000000000000000815260040161180290612b62565b60405180910390fd5b60005b8180549050811015611953578382828154811061182e5761182d613107565b5b9060005260206000209060070201600001541415611940576007600083838154811061185d5761185c613107565b5b906000526020600020906007020160060160009054906101000a900460ff16600981111561188e5761188d6130a9565b5b60098111156118a05761189f6130a9565b5b815260200190815260200160002080546118b990612fce565b80601f01602080910402602001604051908101604052809291908181526020018280546118e590612fce565b80156119325780601f1061190757610100808354040283529160200191611932565b820191906000526020600020905b81548152906001019060200180831161191557829003601f168201915b50505050509250505061198f565b808061194b90613031565b91505061180e565b506040517f08c379a000000000000000000000000000000000000000000000000000000000815260040161198690612c82565b60405180910390fd5b92915050565b600060046000858152602001908152602001600020905060008180549050116119f3576040517f08c379a00000000000000000000000000000000000000000000000000000000081526004016119ea90612b62565b60405180910390fd5b60006003600084815260200190815260200160002090503373ffffffffffffffffffffffffffffffffffffffff168160010160009054906101000a900473ffffffffffffffffffffffffffffffffffffffff1673ffffffffffffffffffffffffffffffffffffffff16148015611a7e5750600081600201600086815260200190815260200160002054115b15611d085760005b8280549050811015611c8b5784838281548110611aa657611aa5613107565b5b9060005260206000209060070201600001541415611c3d5760036009811115611ad257611ad16130a9565b5b838281548110611ae557611ae4613107565b5b906000526020600020906007020160060160009054906101000a900460ff166009811115611b1657611b156130a9565b5b1115611b57576040517f08c379a0000000000000000000000000000000000000000000000000000000008152600401611b4e90612bc2565b60405180910390fd5b81600201600086815260200190815260200160002054838281548110611b8057611b7f613107565b5b906000526020600020906007020160030154611b9c9190612ede565b838281548110611baf57611bae613107565b5b906000526020600020906007020160030181905550828181548110611bd757611bd6613107565b5b906000526020600020906007020160040160149054906101000a900460ff16611c38576001838281548110611c0f57611c0e613107565b5b906000526020600020906007020160040160146101000a81548160ff0219169083151502179055505b611c78565b6040517f08c379a0000000000000000000000000000000000000000000000000000000008152600401611c6f90612c62565b60405180910390fd5b8080611c8390613031565b915050611a86565b503373ffffffffffffffffffffffffffffffffffffffff166108fc826002016000878152602001908152602001600020549081150290604051600060405180830381858888f19350505050158015611ce7573d6000803e3d6000fd5b50600081600201600086815260200190815260200160002081905550611d43565b6040517f08c379a0000000000000000000000000000000000000000000000000000000008152600401611d3a90612b82565b60405180910390fd5b5050505050565b600260009054906101000a900473ffffffffffffffffffffffffffffffffffffffff1681565b600260009054906101000a900473ffffffffffffffffffffffffffffffffffffffff1673ffffffffffffffffffffffffffffffffffffffff163373ffffffffffffffffffffffffffffffffffffffff16146040518060600160405280603381526020016134e76033913990611e1b576040517f08c379a0000000000000000000000000000000000000000000000000000000008152600401611e129190612b40565b60405180910390fd5b50600060018381548110611e3257611e31613107565b5b9060005260206000209060050201905060008160010160006101000a81548160ff02191690831515021790555081816002019080519060200190611e7792919061250b565b50505050565b60076020528060005260406000206000915090508054611e9c90612fce565b80601f0160208091040260200160405190810160405280929190818152602001828054611ec890612fce565b8015611f155780601f10611eea57610100808354040283529160200191611f15565b820191906000526020600020905b815481529060010190602001808311611ef857829003601f168201915b505050505081565b6000806004600086815260200190815260200160002090506000818054905011611f7c576040517f08c379a0000000000000000000000000000000000000000000000000000000008152600401611f7390612b62565b60405180910390fd5b60005b81805490508110156123405784828281548110611f9f57611f9e613107565b5b906000526020600020906007020160000154141561232d57818181548110611fca57611fc9613107565b5b906000526020600020906007020160040160149054906101000a900460ff16156122e95781818154811061200157612000613107565b5b906000526020600020906007020160010154341015612055576040517f08c379a000000000000000000000000000000000000000000000000000000000815260040161204c90612ba2565b60405180910390fd5b3482828154811061206957612068613107565b5b9060005260206000209060070201600301546120859190612e88565b82828154811061209857612097613107565b5b90600052602060002090600702016003018190555060006003600086815260200190815260200160002090503373ffffffffffffffffffffffffffffffffffffffff168160010160009054906101000a900473ffffffffffffffffffffffffffffffffffffffff1673ffffffffffffffffffffffffffffffffffffffff16141561214d573481600201600088815260200190815260200160002060008282546121419190612e88565b925050819055506121cc565b6000600360008781526020019081526020016000209050858160000181905550338160010160006101000a81548173ffffffffffffffffffffffffffffffffffffffff021916908373ffffffffffffffffffffffffffffffffffffffff1602179055503481600201600089815260200190815260200160002081905550505b8282815481106121df576121de613107565b5b90600052602060002090600702016002015483838154811061220457612203613107565b5b90600052602060002090600702016003015414156122e357600383838154811061223157612230613107565b5b906000526020600020906007020160060160006101000a81548160ff02191690836009811115612264576122636130a9565b5b0217905550600083838154811061227e5761227d613107565b5b906000526020600020906007020160040160146101000a81548160ff0219169083151502179055507f4460a3075d16e0c301975989c352adf5efef3f00e4b1cd798431dddda7179e58878760036040516122da93929190612d23565b60405180910390a15b50612324565b6040517f08c379a000000000000000000000000000000000000000000000000000000000815260040161231b90612ca2565b60405180910390fd5b60019250612340565b808061233890613031565b915050611f7f565b5081612381576040517f08c379a000000000000000000000000000000000000000000000000000000000815260040161237890612c82565b60405180910390fd5b5050505050565b6001818154811061239857600080fd5b90600052602060002090600502016000915090508060000154908060010160009054906101000a900460ff16908060020180546123d490612fce565b80601f016020809104026020016040519081016040528092919081815260200182805461240090612fce565b801561244d5780601f106124225761010080835404028352916020019161244d565b820191906000526020600020905b81548152906001019060200180831161243057829003601f168201915b50505050509080600301805461246290612fce565b80601f016020809104026020016040519081016040528092919081815260200182805461248e90612fce565b80156124db5780601f106124b0576101008083540402835291602001916124db565b820191906000526020600020905b8154815290600101906020018083116124be57829003601f168201915b5050505050908060040160009054906101000a900473ffffffffffffffffffffffffffffffffffffffff16905085565b82805461251790612fce565b90600052602060002090601f0160209004810192826125395760008555612580565b82601f1061255257805160ff1916838001178555612580565b82800160010185558215612580579182015b8281111561257f578251825591602001919060010190612564565b5b50905061258d9190612591565b5090565b5b808211156125aa576000816000905550600101612592565b5090565b60006125c16125bc84612e3b565b612e16565b9050828152602081018484840111156125dd576125dc61316a565b5b6125e8848285612f8c565b509392505050565b6000813590506125ff81613491565b92915050565b600081359050612614816134a8565b92915050565b600082601f83011261262f5761262e613165565b5b813561263f8482602086016125ae565b91505092915050565b600081359050612657816134b8565b92915050565b60008135905061266c816134cf565b92915050565b60006020828403121561268857612687613174565b5b600061269684828501612605565b91505092915050565b6000602082840312156126b5576126b4613174565b5b60006126c384828501612648565b91505092915050565b600080604083850312156126e3576126e2613174565b5b60006126f185828601612648565b925050602083013567ffffffffffffffff8111156127125761271161316f565b5b61271e8582860161261a565b9150509250929050565b60008060006060848603121561274157612740613174565b5b600061274f86828701612648565b935050602084013567ffffffffffffffff8111156127705761276f61316f565b5b61277c8682870161261a565b925050604061278d868287016125f0565b9150509250925092565b600080604083850312156127ae576127ad613174565b5b60006127bc85828601612648565b92505060206127cd85828601612648565b9150509250929050565b6000806000606084860312156127f0576127ef613174565b5b60006127fe86828701612648565b935050602061280f86828701612648565b925050604061282086828701612648565b9150509250925092565b600080600080600060a0868803121561284657612845613174565b5b600061285488828901612648565b955050602061286588828901612648565b945050604061287688828901612648565b9350506060612887888289016125f0565b925050608086013567ffffffffffffffff8111156128a8576128a761316f565b5b6128b48882890161261a565b9150509295509295909350565b6000806000606084860312156128da576128d9613174565b5b60006128e886828701612648565b93505060206128f986828701612648565b925050604061290a8682870161265d565b9150509250925092565b61291d81612f12565b82525050565b61292c81612f24565b82525050565b61293b81612f7a565b82525050565b600061294c82612e6c565b6129568185612e77565b9350612966818560208601612f9b565b61296f81613179565b840191505092915050565b6000612987601183612e77565b91506129928261318a565b602082019050919050565b60006129aa602883612e77565b91506129b5826131b3565b604082019050919050565b60006129cd602583612e77565b91506129d882613202565b604082019050919050565b60006129f0604183612e77565b91506129fb82613251565b606082019050919050565b6000612a13601583612e77565b9150612a1e826132c6565b602082019050919050565b6000612a36601b83612e77565b9150612a41826132ef565b602082019050919050565b6000612a59602383612e77565b9150612a6482613318565b604082019050919050565b6000612a7c601583612e77565b9150612a8782613367565b602082019050919050565b6000612a9f602583612e77565b9150612aaa82613390565b604082019050919050565b6000612ac2602883612e77565b9150612acd826133df565b604082019050919050565b6000612ae5602c83612e77565b9150612af08261342e565b604082019050919050565b612b0481612f63565b82525050565b6000602082019050612b1f6000830184612914565b92915050565b6000602082019050612b3a6000830184612932565b92915050565b60006020820190508181036000830152612b5a8184612941565b905092915050565b60006020820190508181036000830152612b7b8161297a565b9050919050565b60006020820190508181036000830152612b9b8161299d565b9050919050565b60006020820190508181036000830152612bbb816129c0565b9050919050565b60006020820190508181036000830152612bdb816129e3565b9050919050565b60006020820190508181036000830152612bfb81612a06565b9050919050565b60006020820190508181036000830152612c1b81612a29565b9050919050565b60006020820190508181036000830152612c3b81612a4c565b9050919050565b60006020820190508181036000830152612c5b81612a6f565b9050919050565b60006020820190508181036000830152612c7b81612a92565b9050919050565b60006020820190508181036000830152612c9b81612ab5565b9050919050565b60006020820190508181036000830152612cbb81612ad8565b9050919050565b600060a082019050612cd76000830188612afb565b612ce46020830187612923565b8181036040830152612cf68186612941565b90508181036060830152612d0a8185612941565b9050612d196080830184612914565b9695505050505050565b6000606082019050612d386000830186612afb565b612d456020830185612afb565b612d526040830184612932565b949350505050565b6000606082019050612d6f6000830186612afb565b612d7c6020830185612afb565b612d896040830184612afb565b949350505050565b600061010082019050612da7600083018b612afb565b612db4602083018a612afb565b612dc16040830189612afb565b612dce6060830188612afb565b612ddb6080830187612914565b612de860a0830186612923565b81810360c0830152612dfa8185612941565b9050612e0960e0830184612932565b9998505050505050505050565b6000612e20612e31565b9050612e2c8282613000565b919050565b6000604051905090565b600067ffffffffffffffff821115612e5657612e55613136565b5b612e5f82613179565b9050602081019050919050565b600081519050919050565b600082825260208201905092915050565b6000612e9382612f63565b9150612e9e83612f63565b9250827fffffffffffffffffffffffffffffffffffffffffffffffffffffffffffffffff03821115612ed357612ed261307a565b5b828201905092915050565b6000612ee982612f63565b9150612ef483612f63565b925082821015612f0757612f0661307a565b5b828203905092915050565b6000612f1d82612f43565b9050919050565b60008115159050919050565b6000819050612f3e8261347d565b919050565b600073ffffffffffffffffffffffffffffffffffffffff82169050919050565b6000819050919050565b600060ff82169050919050565b6000612f8582612f30565b9050919050565b82818337600083830152505050565b60005b83811015612fb9578082015181840152602081019050612f9e565b83811115612fc8576000848401525b50505050565b60006002820490506001821680612fe657607f821691505b60208210811415612ffa57612ff96130d8565b5b50919050565b61300982613179565b810181811067ffffffffffffffff8211171561302857613027613136565b5b80604052505050565b600061303c82612f63565b91507fffffffffffffffffffffffffffffffffffffffffffffffffffffffffffffffff82141561306f5761306e61307a565b5b600182019050919050565b7f4e487b7100000000000000000000000000000000000000000000000000000000600052601160045260246000fd5b7f4e487b7100000000000000000000000000000000000000000000000000000000600052602160045260246000fd5b7f4e487b7100000000000000000000000000000000000000000000000000000000600052602260045260246000fd5b7f4e487b7100000000000000000000000000000000000000000000000000000000600052603260045260246000fd5b7f4e487b7100000000000000000000000000000000000000000000000000000000600052604160045260246000fd5b600080fd5b600080fd5b600080fd5b600080fd5b6000601f19601f8301169050919050565b7f43686172697479206e6f7420666f756e64000000000000000000000000000000600082015250565b7f596f7520686176656e277420636f6e747269627574656420666f72207468697360008201527f2070726f6a656374000000000000000000000000000000000000000000000000602082015250565b7f53686f756c642062652067726561746572207468616e206d696e696d756d206160008201527f6d6f756e74000000000000000000000000000000000000000000000000000000602082015250565b7f43616e277420726566756e642061732065786368616e6765207265717565737460008201527f2077617320616c726561647920696e69746961746564207769746820626f617260208201527f6400000000000000000000000000000000000000000000000000000000000000604082015250565b7f50726f6a65637420646f65736e27742065786973740000000000000000000000600082015250565b7f43686172697479206973206e6f742079657420617070726f7665640000000000600082015250565b7f4e6f2070726f6a65637420657869737420756e6465722074686973206368617260008201527f6974790000000000000000000000000000000000000000000000000000000000602082015250565b7f4368617269747920646f65736e27742065786973740000000000000000000000600082015250565b7f4e6f2070726f6a65637420657869737420756e64657220746869732070726f6a60008201527f6563744964000000000000000000000000000000000000000000000000000000602082015250565b7f4e6f20737563682070726f6a65637420657869737420756e646572207468697360008201527f2063686172697479000000000000000000000000000000000000000000000000602082015250565b7f4e6f206d6f726520646f6e6174696f6e7320616363657074656420666f72207460008201527f6869732070726f6a6563742e0000000000000000000000000000000000000000602082015250565b600a811061348e5761348d6130a9565b5b50565b61349a81612f12565b81146134a557600080fd5b50565b600a81106134b557600080fd5b50565b6134c181612f63565b81146134cc57600080fd5b50565b6134d881612f6d565b81146134e357600080fd5b5056fe54686973206f7065726174696f6e2063616e20626520706572666f726d6564206f6e6c7920627920426f6172642061646d696e596f7520617265206e6f7420617574686f72697a656420746f20757064617465207769746820746869732073746174757354686973206f7065726174696f6e2063616e20626520706572666f726d6564206f6e6c792062792043686172697479a2646970667358221220332dfc10c10a6303871d631895ff158842aacde1d202c6fcc293426a20a803c864736f6c63430008070033",
					"opcodes": "PUSH1 0x80 PUSH1 0x40 MSTORE CALLVALUE DUP1 ISZERO PUSH3 0x11 JUMPI PUSH1 0x0 DUP1 REVERT JUMPDEST POP CALLER PUSH1 0x2 PUSH1 0x0 PUSH2 0x100 EXP DUP2 SLOAD DUP2 PUSH20 0xFFFFFFFFFFFFFFFFFFFFFFFFFFFFFFFFFFFFFFFF MUL NOT AND SWAP1 DUP4 PUSH20 0xFFFFFFFFFFFFFFFFFFFFFFFFFFFFFFFFFFFFFFFF AND MUL OR SWAP1 SSTORE POP PUSH1 0x40 MLOAD DUP1 PUSH1 0x40 ADD PUSH1 0x40 MSTORE DUP1 PUSH1 0x14 DUP2 MSTORE PUSH1 0x20 ADD PUSH32 0x57616974696E6720666F7220617070726F76616C000000000000000000000000 DUP2 MSTORE POP PUSH1 0x7 PUSH1 0x0 DUP1 PUSH1 0x9 DUP2 GT ISZERO PUSH3 0xA3 JUMPI PUSH3 0xA2 PUSH3 0x6A1 JUMP JUMPDEST JUMPDEST PUSH1 0x9 DUP2 GT ISZERO PUSH3 0xB8 JUMPI PUSH3 0xB7 PUSH3 0x6A1 JUMP JUMPDEST JUMPDEST DUP2 MSTORE PUSH1 0x20 ADD SWAP1 DUP2 MSTORE PUSH1 0x20 ADD PUSH1 0x0 KECCAK256 SWAP1 DUP1 MLOAD SWAP1 PUSH1 0x20 ADD SWAP1 PUSH3 0xDB SWAP3 SWAP2 SWAP1 PUSH3 0x5BB JUMP JUMPDEST POP PUSH1 0x40 MLOAD DUP1 PUSH1 0x40 ADD PUSH1 0x40 MSTORE DUP1 PUSH1 0x8 DUP2 MSTORE PUSH1 0x20 ADD PUSH32 0x417070726F766564000000000000000000000000000000000000000000000000 DUP2 MSTORE POP PUSH1 0x7 PUSH1 0x0 PUSH1 0x2 PUSH1 0x9 DUP2 GT ISZERO PUSH3 0x12D JUMPI PUSH3 0x12C PUSH3 0x6A1 JUMP JUMPDEST JUMPDEST PUSH1 0x9 DUP2 GT ISZERO PUSH3 0x142 JUMPI PUSH3 0x141 PUSH3 0x6A1 JUMP JUMPDEST JUMPDEST DUP2 MSTORE PUSH1 0x20 ADD SWAP1 DUP2 MSTORE PUSH1 0x20 ADD PUSH1 0x0 KECCAK256 SWAP1 DUP1 MLOAD SWAP1 PUSH1 0x20 ADD SWAP1 PUSH3 0x165 SWAP3 SWAP2 SWAP1 PUSH3 0x5BB JUMP JUMPDEST POP PUSH1 0x40 MLOAD DUP1 PUSH1 0x40 ADD PUSH1 0x40 MSTORE DUP1 PUSH1 0x13 DUP2 MSTORE PUSH1 0x20 ADD PUSH32 0x52656A6563746564206279206368617269747900000000000000000000000000 DUP2 MSTORE POP PUSH1 0x7 PUSH1 0x0 PUSH1 0x1 PUSH1 0x9 DUP2 GT ISZERO PUSH3 0x1B7 JUMPI PUSH3 0x1B6 PUSH3 0x6A1 JUMP JUMPDEST JUMPDEST PUSH1 0x9 DUP2 GT ISZERO PUSH3 0x1CC JUMPI PUSH3 0x1CB PUSH3 0x6A1 JUMP JUMPDEST JUMPDEST DUP2 MSTORE PUSH1 0x20 ADD SWAP1 DUP2 MSTORE PUSH1 0x20 ADD PUSH1 0x0 KECCAK256 SWAP1 DUP1 MLOAD SWAP1 PUSH1 0x20 ADD SWAP1 PUSH3 0x1EF SWAP3 SWAP2 SWAP1 PUSH3 0x5BB JUMP JUMPDEST POP PUSH1 0x40 MLOAD DUP1 PUSH1 0x40 ADD PUSH1 0x40 MSTORE DUP1 PUSH1 0x15 DUP2 MSTORE PUSH1 0x20 ADD PUSH32 0x50726F6A65637420676F616C2061636869657665640000000000000000000000 DUP2 MSTORE POP PUSH1 0x7 PUSH1 0x0 PUSH1 0x3 PUSH1 0x9 DUP2 GT ISZERO PUSH3 0x241 JUMPI PUSH3 0x240 PUSH3 0x6A1 JUMP JUMPDEST JUMPDEST PUSH1 0x9 DUP2 GT ISZERO PUSH3 0x256 JUMPI PUSH3 0x255 PUSH3 0x6A1 JUMP JUMPDEST JUMPDEST DUP2 MSTORE PUSH1 0x20 ADD SWAP1 DUP2 MSTORE PUSH1 0x20 ADD PUSH1 0x0 KECCAK256 SWAP1 DUP1 MLOAD SWAP1 PUSH1 0x20 ADD SWAP1 PUSH3 0x279 SWAP3 SWAP2 SWAP1 PUSH3 0x5BB JUMP JUMPDEST POP PUSH1 0x40 MLOAD DUP1 PUSH1 0x40 ADD PUSH1 0x40 MSTORE DUP1 PUSH1 0x12 DUP2 MSTORE PUSH1 0x20 ADD PUSH32 0x45786368616E6765207265717565737465640000000000000000000000000000 DUP2 MSTORE POP PUSH1 0x7 PUSH1 0x0 PUSH1 0x4 PUSH1 0x9 DUP2 GT ISZERO PUSH3 0x2CB JUMPI PUSH3 0x2CA PUSH3 0x6A1 JUMP JUMPDEST JUMPDEST PUSH1 0x9 DUP2 GT ISZERO PUSH3 0x2E0 JUMPI PUSH3 0x2DF PUSH3 0x6A1 JUMP JUMPDEST JUMPDEST DUP2 MSTORE PUSH1 0x20 ADD SWAP1 DUP2 MSTORE PUSH1 0x20 ADD PUSH1 0x0 KECCAK256 SWAP1 DUP1 MLOAD SWAP1 PUSH1 0x20 ADD SWAP1 PUSH3 0x303 SWAP3 SWAP2 SWAP1 PUSH3 0x5BB JUMP JUMPDEST POP PUSH1 0x40 MLOAD DUP1 PUSH1 0x40 ADD PUSH1 0x40 MSTORE DUP1 PUSH1 0x19 DUP2 MSTORE PUSH1 0x20 ADD PUSH32 0x45786368616E6765207265717565737420726563656976656400000000000000 DUP2 MSTORE POP PUSH1 0x7 PUSH1 0x0 PUSH1 0x5 PUSH1 0x9 DUP2 GT ISZERO PUSH3 0x355 JUMPI PUSH3 0x354 PUSH3 0x6A1 JUMP JUMPDEST JUMPDEST PUSH1 0x9 DUP2 GT ISZERO PUSH3 0x36A JUMPI PUSH3 0x369 PUSH3 0x6A1 JUMP JUMPDEST JUMPDEST DUP2 MSTORE PUSH1 0x20 ADD SWAP1 DUP2 MSTORE PUSH1 0x20 ADD PUSH1 0x0 KECCAK256 SWAP1 DUP1 MLOAD SWAP1 PUSH1 0x20 ADD SWAP1 PUSH3 0x38D SWAP3 SWAP2 SWAP1 PUSH3 0x5BB JUMP JUMPDEST POP PUSH1 0x40 MLOAD DUP1 PUSH1 0x40 ADD PUSH1 0x40 MSTORE DUP1 PUSH1 0x19 DUP2 MSTORE PUSH1 0x20 ADD PUSH32 0x45786368616E6765207265717565737420617070726F76656400000000000000 DUP2 MSTORE POP PUSH1 0x7 PUSH1 0x0 PUSH1 0x6 PUSH1 0x9 DUP2 GT ISZERO PUSH3 0x3DF JUMPI PUSH3 0x3DE PUSH3 0x6A1 JUMP JUMPDEST JUMPDEST PUSH1 0x9 DUP2 GT ISZERO PUSH3 0x3F4 JUMPI PUSH3 0x3F3 PUSH3 0x6A1 JUMP JUMPDEST JUMPDEST DUP2 MSTORE PUSH1 0x20 ADD SWAP1 DUP2 MSTORE PUSH1 0x20 ADD PUSH1 0x0 KECCAK256 SWAP1 DUP1 MLOAD SWAP1 PUSH1 0x20 ADD SWAP1 PUSH3 0x417 SWAP3 SWAP2 SWAP1 PUSH3 0x5BB JUMP JUMPDEST POP PUSH1 0x40 MLOAD DUP1 PUSH1 0x40 ADD PUSH1 0x40 MSTORE DUP1 PUSH1 0x19 DUP2 MSTORE PUSH1 0x20 ADD PUSH32 0x45786368616E676520726571756573742072656A656374656400000000000000 DUP2 MSTORE POP PUSH1 0x7 PUSH1 0x0 PUSH1 0x7 PUSH1 0x9 DUP2 GT ISZERO PUSH3 0x469 JUMPI PUSH3 0x468 PUSH3 0x6A1 JUMP JUMPDEST JUMPDEST PUSH1 0x9 DUP2 GT ISZERO PUSH3 0x47E JUMPI PUSH3 0x47D PUSH3 0x6A1 JUMP JUMPDEST JUMPDEST DUP2 MSTORE PUSH1 0x20 ADD SWAP1 DUP2 MSTORE PUSH1 0x20 ADD PUSH1 0x0 KECCAK256 SWAP1 DUP1 MLOAD SWAP1 PUSH1 0x20 ADD SWAP1 PUSH3 0x4A1 SWAP3 SWAP2 SWAP1 PUSH3 0x5BB JUMP JUMPDEST POP PUSH1 0x40 MLOAD DUP1 PUSH1 0x40 ADD PUSH1 0x40 MSTORE DUP1 PUSH1 0xE DUP2 MSTORE PUSH1 0x20 ADD PUSH32 0x46756E647320726566756E646564000000000000000000000000000000000000 DUP2 MSTORE POP PUSH1 0x7 PUSH1 0x0 PUSH1 0x8 PUSH1 0x9 DUP2 GT ISZERO PUSH3 0x4F3 JUMPI PUSH3 0x4F2 PUSH3 0x6A1 JUMP JUMPDEST JUMPDEST PUSH1 0x9 DUP2 GT ISZERO PUSH3 0x508 JUMPI PUSH3 0x507 PUSH3 0x6A1 JUMP JUMPDEST JUMPDEST DUP2 MSTORE PUSH1 0x20 ADD SWAP1 DUP2 MSTORE PUSH1 0x20 ADD PUSH1 0x0 KECCAK256 SWAP1 DUP1 MLOAD SWAP1 PUSH1 0x20 ADD SWAP1 PUSH3 0x52B SWAP3 SWAP2 SWAP1 PUSH3 0x5BB JUMP JUMPDEST POP PUSH1 0x40 MLOAD DUP1 PUSH1 0x40 ADD PUSH1 0x40 MSTORE DUP1 PUSH1 0xE DUP2 MSTORE PUSH1 0x20 ADD PUSH32 0x50726F6A65637420636C6F736564000000000000000000000000000000000000 DUP2 MSTORE POP PUSH1 0x7 PUSH1 0x0 PUSH1 0x9 DUP1 DUP2 GT ISZERO PUSH3 0x57C JUMPI PUSH3 0x57B PUSH3 0x6A1 JUMP JUMPDEST JUMPDEST PUSH1 0x9 DUP2 GT ISZERO PUSH3 0x591 JUMPI PUSH3 0x590 PUSH3 0x6A1 JUMP JUMPDEST JUMPDEST DUP2 MSTORE PUSH1 0x20 ADD SWAP1 DUP2 MSTORE PUSH1 0x20 ADD PUSH1 0x0 KECCAK256 SWAP1 DUP1 MLOAD SWAP1 PUSH1 0x20 ADD SWAP1 PUSH3 0x5B4 SWAP3 SWAP2 SWAP1 PUSH3 0x5BB JUMP JUMPDEST POP PUSH3 0x6FF JUMP JUMPDEST DUP3 DUP1 SLOAD PUSH3 0x5C9 SWAP1 PUSH3 0x66B JUMP JUMPDEST SWAP1 PUSH1 0x0 MSTORE PUSH1 0x20 PUSH1 0x0 KECCAK256 SWAP1 PUSH1 0x1F ADD PUSH1 0x20 SWAP1 DIV DUP2 ADD SWAP3 DUP3 PUSH3 0x5ED JUMPI PUSH1 0x0 DUP6 SSTORE PUSH3 0x639 JUMP JUMPDEST DUP3 PUSH1 0x1F LT PUSH3 0x608 JUMPI DUP1 MLOAD PUSH1 0xFF NOT AND DUP4 DUP1 ADD OR DUP6 SSTORE PUSH3 0x639 JUMP JUMPDEST DUP3 DUP1 ADD PUSH1 0x1 ADD DUP6 SSTORE DUP3 ISZERO PUSH3 0x639 JUMPI SWAP2 DUP3 ADD JUMPDEST DUP3 DUP2 GT ISZERO PUSH3 0x638 JUMPI DUP3 MLOAD DUP3 SSTORE SWAP2 PUSH1 0x20 ADD SWAP2 SWAP1 PUSH1 0x1 ADD SWAP1 PUSH3 0x61B JUMP JUMPDEST JUMPDEST POP SWAP1 POP PUSH3 0x648 SWAP2 SWAP1 PUSH3 0x64C JUMP JUMPDEST POP SWAP1 JUMP JUMPDEST JUMPDEST DUP1 DUP3 GT ISZERO PUSH3 0x667 JUMPI PUSH1 0x0 DUP2 PUSH1 0x0 SWAP1 SSTORE POP PUSH1 0x1 ADD PUSH3 0x64D JUMP JUMPDEST POP SWAP1 JUMP JUMPDEST PUSH1 0x0 PUSH1 0x2 DUP3 DIV SWAP1 POP PUSH1 0x1 DUP3 AND DUP1 PUSH3 0x684 JUMPI PUSH1 0x7F DUP3 AND SWAP2 POP JUMPDEST PUSH1 0x20 DUP3 LT DUP2 EQ ISZERO PUSH3 0x69B JUMPI PUSH3 0x69A PUSH3 0x6D0 JUMP JUMPDEST JUMPDEST POP SWAP2 SWAP1 POP JUMP JUMPDEST PUSH32 0x4E487B7100000000000000000000000000000000000000000000000000000000 PUSH1 0x0 MSTORE PUSH1 0x21 PUSH1 0x4 MSTORE PUSH1 0x24 PUSH1 0x0 REVERT JUMPDEST PUSH32 0x4E487B7100000000000000000000000000000000000000000000000000000000 PUSH1 0x0 MSTORE PUSH1 0x22 PUSH1 0x4 MSTORE PUSH1 0x24 PUSH1 0x0 REVERT JUMPDEST PUSH2 0x35AF DUP1 PUSH3 0x70F PUSH1 0x0 CODECOPY PUSH1 0x0 RETURN INVALID PUSH1 0x80 PUSH1 0x40 MSTORE PUSH1 0x4 CALLDATASIZE LT PUSH2 0xE8 JUMPI PUSH1 0x0 CALLDATALOAD PUSH1 0xE0 SHR DUP1 PUSH4 0x97ED410C GT PUSH2 0x8A JUMPI DUP1 PUSH4 0xDAF38232 GT PUSH2 0x59 JUMPI DUP1 PUSH4 0xDAF38232 EQ PUSH2 0x2F9 JUMPI DUP1 PUSH4 0xEF6ADD32 EQ PUSH2 0x322 JUMPI DUP1 PUSH4 0xEF88F48B EQ PUSH2 0x35F JUMPI DUP1 PUSH4 0xFB709D2E EQ PUSH2 0x37B JUMPI PUSH2 0xE8 JUMP JUMPDEST DUP1 PUSH4 0x97ED410C EQ PUSH2 0x23F JUMPI DUP1 PUSH4 0x9D8E7E89 EQ PUSH2 0x268 JUMPI DUP1 PUSH4 0xA6DBEC73 EQ PUSH2 0x2A5 JUMPI DUP1 PUSH4 0xB61A7F76 EQ PUSH2 0x2CE JUMPI PUSH2 0xE8 JUMP JUMPDEST DUP1 PUSH4 0x1ED056D8 GT PUSH2 0xC6 JUMPI DUP1 PUSH4 0x1ED056D8 EQ PUSH2 0x185 JUMPI DUP1 PUSH4 0x2C3730EF EQ PUSH2 0x1C4 JUMPI DUP1 PUSH4 0x3A8565F0 EQ PUSH2 0x1ED JUMPI DUP1 PUSH4 0x95DCC366 EQ PUSH2 0x216 JUMPI PUSH2 0xE8 JUMP JUMPDEST DUP1 PUSH4 0x107046BD EQ PUSH2 0xED JUMPI DUP1 PUSH4 0x141020CC EQ PUSH2 0x131 JUMPI DUP1 PUSH4 0x1AB33308 EQ PUSH2 0x15A JUMPI JUMPDEST PUSH1 0x0 DUP1 REVERT JUMPDEST CALLVALUE DUP1 ISZERO PUSH2 0xF9 JUMPI PUSH1 0x0 DUP1 REVERT JUMPDEST POP PUSH2 0x114 PUSH1 0x4 DUP1 CALLDATASIZE SUB DUP2 ADD SWAP1 PUSH2 0x10F SWAP2 SWAP1 PUSH2 0x269F JUMP JUMPDEST PUSH2 0x3BC JUMP JUMPDEST PUSH1 0x40 MLOAD PUSH2 0x128 SWAP9 SWAP8 SWAP7 SWAP6 SWAP5 SWAP4 SWAP3 SWAP2 SWAP1 PUSH2 0x2D91 JUMP JUMPDEST PUSH1 0x40 MLOAD DUP1 SWAP2 SUB SWAP1 RETURN JUMPDEST CALLVALUE DUP1 ISZERO PUSH2 0x13D JUMPI PUSH1 0x0 DUP1 REVERT JUMPDEST POP PUSH2 0x158 PUSH1 0x4 DUP1 CALLDATASIZE SUB DUP2 ADD SWAP1 PUSH2 0x153 SWAP2 SWAP1 PUSH2 0x2728 JUMP JUMPDEST PUSH2 0x4D6 JUMP JUMPDEST STOP JUMPDEST CALLVALUE DUP1 ISZERO PUSH2 0x166 JUMPI PUSH1 0x0 DUP1 REVERT JUMPDEST POP PUSH2 0x16F PUSH2 0x6E0 JUMP JUMPDEST PUSH1 0x40 MLOAD PUSH2 0x17C SWAP2 SWAP1 PUSH2 0x2B25 JUMP JUMPDEST PUSH1 0x40 MLOAD DUP1 SWAP2 SUB SWAP1 RETURN JUMPDEST CALLVALUE DUP1 ISZERO PUSH2 0x191 JUMPI PUSH1 0x0 DUP1 REVERT JUMPDEST POP PUSH2 0x1AC PUSH1 0x4 DUP1 CALLDATASIZE SUB DUP2 ADD SWAP1 PUSH2 0x1A7 SWAP2 SWAP1 PUSH2 0x2797 JUMP JUMPDEST PUSH2 0x6F3 JUMP JUMPDEST PUSH1 0x40 MLOAD PUSH2 0x1BB SWAP4 SWAP3 SWAP2 SWAP1 PUSH2 0x2D5A JUMP JUMPDEST PUSH1 0x40 MLOAD DUP1 SWAP2 SUB SWAP1 RETURN JUMPDEST CALLVALUE DUP1 ISZERO PUSH2 0x1D0 JUMPI PUSH1 0x0 DUP1 REVERT JUMPDEST POP PUSH2 0x1EB PUSH1 0x4 DUP1 CALLDATASIZE SUB DUP2 ADD SWAP1 PUSH2 0x1E6 SWAP2 SWAP1 PUSH2 0x28C1 JUMP JUMPDEST PUSH2 0x891 JUMP JUMPDEST STOP JUMPDEST CALLVALUE DUP1 ISZERO PUSH2 0x1F9 JUMPI PUSH1 0x0 DUP1 REVERT JUMPDEST POP PUSH2 0x214 PUSH1 0x4 DUP1 CALLDATASIZE SUB DUP2 ADD SWAP1 PUSH2 0x20F SWAP2 SWAP1 PUSH2 0x28C1 JUMP JUMPDEST PUSH2 0xD26 JUMP JUMPDEST STOP JUMPDEST CALLVALUE DUP1 ISZERO PUSH2 0x222 JUMPI PUSH1 0x0 DUP1 REVERT JUMPDEST POP PUSH2 0x23D PUSH1 0x4 DUP1 CALLDATASIZE SUB DUP2 ADD SWAP1 PUSH2 0x238 SWAP2 SWAP1 PUSH2 0x282A JUMP JUMPDEST PUSH2 0x12E3 JUMP JUMPDEST STOP JUMPDEST CALLVALUE DUP1 ISZERO PUSH2 0x24B JUMPI PUSH1 0x0 DUP1 REVERT JUMPDEST POP PUSH2 0x266 PUSH1 0x4 DUP1 CALLDATASIZE SUB DUP2 ADD SWAP1 PUSH2 0x261 SWAP2 SWAP1 PUSH2 0x2797 JUMP JUMPDEST PUSH2 0x168B JUMP JUMPDEST STOP JUMPDEST CALLVALUE DUP1 ISZERO PUSH2 0x274 JUMPI PUSH1 0x0 DUP1 REVERT JUMPDEST POP PUSH2 0x28F PUSH1 0x4 DUP1 CALLDATASIZE SUB DUP2 ADD SWAP1 PUSH2 0x28A SWAP2 SWAP1 PUSH2 0x2797 JUMP JUMPDEST PUSH2 0x17AB JUMP JUMPDEST PUSH1 0x40 MLOAD PUSH2 0x29C SWAP2 SWAP1 PUSH2 0x2B40 JUMP JUMPDEST PUSH1 0x40 MLOAD DUP1 SWAP2 SUB SWAP1 RETURN JUMPDEST CALLVALUE DUP1 ISZERO PUSH2 0x2B1 JUMPI PUSH1 0x0 DUP1 REVERT JUMPDEST POP PUSH2 0x2CC PUSH1 0x4 DUP1 CALLDATASIZE SUB DUP2 ADD SWAP1 PUSH2 0x2C7 SWAP2 SWAP1 PUSH2 0x27D7 JUMP JUMPDEST PUSH2 0x1995 JUMP JUMPDEST STOP JUMPDEST CALLVALUE DUP1 ISZERO PUSH2 0x2DA JUMPI PUSH1 0x0 DUP1 REVERT JUMPDEST POP PUSH2 0x2E3 PUSH2 0x1D4A JUMP JUMPDEST PUSH1 0x40 MLOAD PUSH2 0x2F0 SWAP2 SWAP1 PUSH2 0x2B0A JUMP JUMPDEST PUSH1 0x40 MLOAD DUP1 SWAP2 SUB SWAP1 RETURN JUMPDEST CALLVALUE DUP1 ISZERO PUSH2 0x305 JUMPI PUSH1 0x0 DUP1 REVERT JUMPDEST POP PUSH2 0x320 PUSH1 0x4 DUP1 CALLDATASIZE SUB DUP2 ADD SWAP1 PUSH2 0x31B SWAP2 SWAP1 PUSH2 0x26CC JUMP JUMPDEST PUSH2 0x1D70 JUMP JUMPDEST STOP JUMPDEST CALLVALUE DUP1 ISZERO PUSH2 0x32E JUMPI PUSH1 0x0 DUP1 REVERT JUMPDEST POP PUSH2 0x349 PUSH1 0x4 DUP1 CALLDATASIZE SUB DUP2 ADD SWAP1 PUSH2 0x344 SWAP2 SWAP1 PUSH2 0x2672 JUMP JUMPDEST PUSH2 0x1E7D JUMP JUMPDEST PUSH1 0x40 MLOAD PUSH2 0x356 SWAP2 SWAP1 PUSH2 0x2B40 JUMP JUMPDEST PUSH1 0x40 MLOAD DUP1 SWAP2 SUB SWAP1 RETURN JUMPDEST PUSH2 0x379 PUSH1 0x4 DUP1 CALLDATASIZE SUB DUP2 ADD SWAP1 PUSH2 0x374 SWAP2 SWAP1 PUSH2 0x27D7 JUMP JUMPDEST PUSH2 0x1F1D JUMP JUMPDEST STOP JUMPDEST CALLVALUE DUP1 ISZERO PUSH2 0x387 JUMPI PUSH1 0x0 DUP1 REVERT JUMPDEST POP PUSH2 0x3A2 PUSH1 0x4 DUP1 CALLDATASIZE SUB DUP2 ADD SWAP1 PUSH2 0x39D SWAP2 SWAP1 PUSH2 0x269F JUMP JUMPDEST PUSH2 0x2388 JUMP JUMPDEST PUSH1 0x40 MLOAD PUSH2 0x3B3 SWAP6 SWAP5 SWAP4 SWAP3 SWAP2 SWAP1 PUSH2 0x2CC2 JUMP JUMPDEST PUSH1 0x40 MLOAD DUP1 SWAP2 SUB SWAP1 RETURN JUMPDEST PUSH1 0x0 DUP2 DUP2 SLOAD DUP2 LT PUSH2 0x3CC JUMPI PUSH1 0x0 DUP1 REVERT JUMPDEST SWAP1 PUSH1 0x0 MSTORE PUSH1 0x20 PUSH1 0x0 KECCAK256 SWAP1 PUSH1 0x7 MUL ADD PUSH1 0x0 SWAP2 POP SWAP1 POP DUP1 PUSH1 0x0 ADD SLOAD SWAP1 DUP1 PUSH1 0x1 ADD SLOAD SWAP1 DUP1 PUSH1 0x2 ADD SLOAD SWAP1 DUP1 PUSH1 0x3 ADD SLOAD SWAP1 DUP1 PUSH1 0x4 ADD PUSH1 0x0 SWAP1 SLOAD SWAP1 PUSH2 0x100 EXP SWAP1 DIV PUSH20 0xFFFFFFFFFFFFFFFFFFFFFFFFFFFFFFFFFFFFFFFF AND SWAP1 DUP1 PUSH1 0x4 ADD PUSH1 0x14 SWAP1 SLOAD SWAP1 PUSH2 0x100 EXP SWAP1 DIV PUSH1 0xFF AND SWAP1 DUP1 PUSH1 0x5 ADD DUP1 SLOAD PUSH2 0x440 SWAP1 PUSH2 0x2FCE JUMP JUMPDEST DUP1 PUSH1 0x1F ADD PUSH1 0x20 DUP1 SWAP2 DIV MUL PUSH1 0x20 ADD PUSH1 0x40 MLOAD SWAP1 DUP2 ADD PUSH1 0x40 MSTORE DUP1 SWAP3 SWAP2 SWAP1 DUP2 DUP2 MSTORE PUSH1 0x20 ADD DUP3 DUP1 SLOAD PUSH2 0x46C SWAP1 PUSH2 0x2FCE JUMP JUMPDEST DUP1 ISZERO PUSH2 0x4B9 JUMPI DUP1 PUSH1 0x1F LT PUSH2 0x48E JUMPI PUSH2 0x100 DUP1 DUP4 SLOAD DIV MUL DUP4 MSTORE SWAP2 PUSH1 0x20 ADD SWAP2 PUSH2 0x4B9 JUMP JUMPDEST DUP3 ADD SWAP2 SWAP1 PUSH1 0x0 MSTORE PUSH1 0x20 PUSH1 0x0 KECCAK256 SWAP1 JUMPDEST DUP2 SLOAD DUP2 MSTORE SWAP1 PUSH1 0x1 ADD SWAP1 PUSH1 0x20 ADD DUP1 DUP4 GT PUSH2 0x49C JUMPI DUP3 SWAP1 SUB PUSH1 0x1F AND DUP3 ADD SWAP2 JUMPDEST POP POP POP POP POP SWAP1 DUP1 PUSH1 0x6 ADD PUSH1 0x0 SWAP1 SLOAD SWAP1 PUSH2 0x100 EXP SWAP1 DIV PUSH1 0xFF AND SWAP1 POP DUP9 JUMP JUMPDEST PUSH1 0x2 PUSH1 0x0 SWAP1 SLOAD SWAP1 PUSH2 0x100 EXP SWAP1 DIV PUSH20 0xFFFFFFFFFFFFFFFFFFFFFFFFFFFFFFFFFFFFFFFF AND PUSH20 0xFFFFFFFFFFFFFFFFFFFFFFFFFFFFFFFFFFFFFFFF AND CALLER PUSH20 0xFFFFFFFFFFFFFFFFFFFFFFFFFFFFFFFFFFFFFFFF AND EQ PUSH1 0x40 MLOAD DUP1 PUSH1 0x60 ADD PUSH1 0x40 MSTORE DUP1 PUSH1 0x33 DUP2 MSTORE PUSH1 0x20 ADD PUSH2 0x34E7 PUSH1 0x33 SWAP2 CODECOPY SWAP1 PUSH2 0x581 JUMPI PUSH1 0x40 MLOAD PUSH32 0x8C379A000000000000000000000000000000000000000000000000000000000 DUP2 MSTORE PUSH1 0x4 ADD PUSH2 0x578 SWAP2 SWAP1 PUSH2 0x2B40 JUMP JUMPDEST PUSH1 0x40 MLOAD DUP1 SWAP2 SUB SWAP1 REVERT JUMPDEST POP PUSH1 0x0 PUSH1 0x40 MLOAD DUP1 PUSH1 0xA0 ADD PUSH1 0x40 MSTORE DUP1 DUP6 DUP2 MSTORE PUSH1 0x20 ADD PUSH1 0x1 ISZERO ISZERO DUP2 MSTORE PUSH1 0x20 ADD PUSH1 0x40 MLOAD DUP1 PUSH1 0x20 ADD PUSH1 0x40 MSTORE DUP1 PUSH1 0x0 DUP2 MSTORE POP DUP2 MSTORE PUSH1 0x20 ADD DUP5 DUP2 MSTORE PUSH1 0x20 ADD DUP4 PUSH20 0xFFFFFFFFFFFFFFFFFFFFFFFFFFFFFFFFFFFFFFFF AND DUP2 MSTORE POP SWAP1 POP PUSH1 0x1 DUP2 SWAP1 DUP1 PUSH1 0x1 DUP2 SLOAD ADD DUP1 DUP3 SSTORE DUP1 SWAP2 POP POP PUSH1 0x1 SWAP1 SUB SWAP1 PUSH1 0x0 MSTORE PUSH1 0x20 PUSH1 0x0 KECCAK256 SWAP1 PUSH1 0x5 MUL ADD PUSH1 0x0 SWAP1 SWAP2 SWAP1 SWAP2 SWAP1 SWAP2 POP PUSH1 0x0 DUP3 ADD MLOAD DUP2 PUSH1 0x0 ADD SSTORE PUSH1 0x20 DUP3 ADD MLOAD DUP2 PUSH1 0x1 ADD PUSH1 0x0 PUSH2 0x100 EXP DUP2 SLOAD DUP2 PUSH1 0xFF MUL NOT AND SWAP1 DUP4 ISZERO ISZERO MUL OR SWAP1 SSTORE POP PUSH1 0x40 DUP3 ADD MLOAD DUP2 PUSH1 0x2 ADD SWAP1 DUP1 MLOAD SWAP1 PUSH1 0x20 ADD SWAP1 PUSH2 0x647 SWAP3 SWAP2 SWAP1 PUSH2 0x250B JUMP JUMPDEST POP PUSH1 0x60 DUP3 ADD MLOAD DUP2 PUSH1 0x3 ADD SWAP1 DUP1 MLOAD SWAP1 PUSH1 0x20 ADD SWAP1 PUSH2 0x664 SWAP3 SWAP2 SWAP1 PUSH2 0x250B JUMP JUMPDEST POP PUSH1 0x80 DUP3 ADD MLOAD DUP2 PUSH1 0x4 ADD PUSH1 0x0 PUSH2 0x100 EXP DUP2 SLOAD DUP2 PUSH20 0xFFFFFFFFFFFFFFFFFFFFFFFFFFFFFFFFFFFFFFFF MUL NOT AND SWAP1 DUP4 PUSH20 0xFFFFFFFFFFFFFFFFFFFFFFFFFFFFFFFFFFFFFFFF AND MUL OR SWAP1 SSTORE POP POP POP PUSH1 0x1 PUSH1 0x5 PUSH1 0x0 DUP7 DUP2 MSTORE PUSH1 0x20 ADD SWAP1 DUP2 MSTORE PUSH1 0x20 ADD PUSH1 0x0 KECCAK256 PUSH1 0x0 PUSH2 0x100 EXP DUP2 SLOAD DUP2 PUSH1 0xFF MUL NOT AND SWAP1 DUP4 ISZERO ISZERO MUL OR SWAP1 SSTORE POP POP POP POP POP JUMP JUMPDEST PUSH1 0x6 PUSH1 0x0 SWAP1 SLOAD SWAP1 PUSH2 0x100 EXP SWAP1 DIV PUSH1 0xFF AND DUP2 JUMP JUMPDEST PUSH1 0x0 DUP1 PUSH1 0x0 DUP1 PUSH1 0x4 PUSH1 0x0 DUP8 DUP2 MSTORE PUSH1 0x20 ADD SWAP1 DUP2 MSTORE PUSH1 0x20 ADD PUSH1 0x0 KECCAK256 SWAP1 POP PUSH1 0x0 DUP2 DUP1 SLOAD SWAP1 POP GT PUSH2 0x755 JUMPI PUSH1 0x40 MLOAD PUSH32 0x8C379A000000000000000000000000000000000000000000000000000000000 DUP2 MSTORE PUSH1 0x4 ADD PUSH2 0x74C SWAP1 PUSH2 0x2C42 JUMP JUMPDEST PUSH1 0x40 MLOAD DUP1 SWAP2 SUB SWAP1 REVERT JUMPDEST PUSH1 0x0 JUMPDEST DUP2 DUP1 SLOAD SWAP1 POP DUP2 LT ISZERO PUSH2 0x84E JUMPI DUP6 DUP3 DUP3 DUP2 SLOAD DUP2 LT PUSH2 0x778 JUMPI PUSH2 0x777 PUSH2 0x3107 JUMP JUMPDEST JUMPDEST SWAP1 PUSH1 0x0 MSTORE PUSH1 0x20 PUSH1 0x0 KECCAK256 SWAP1 PUSH1 0x7 MUL ADD PUSH1 0x0 ADD SLOAD EQ ISZERO PUSH2 0x83B JUMPI DUP2 DUP2 DUP2 SLOAD DUP2 LT PUSH2 0x7A3 JUMPI PUSH2 0x7A2 PUSH2 0x3107 JUMP JUMPDEST JUMPDEST SWAP1 PUSH1 0x0 MSTORE PUSH1 0x20 PUSH1 0x0 KECCAK256 SWAP1 PUSH1 0x7 MUL ADD PUSH1 0x2 ADD SLOAD DUP3 DUP3 DUP2 SLOAD DUP2 LT PUSH2 0x7C8 JUMPI PUSH2 0x7C7 PUSH2 0x3107 JUMP JUMPDEST JUMPDEST SWAP1 PUSH1 0x0 MSTORE PUSH1 0x20 PUSH1 0x0 KECCAK256 SWAP1 PUSH1 0x7 MUL ADD PUSH1 0x3 ADD SLOAD DUP4 DUP4 DUP2 SLOAD DUP2 LT PUSH2 0x7ED JUMPI PUSH2 0x7EC PUSH2 0x3107 JUMP JUMPDEST JUMPDEST SWAP1 PUSH1 0x0 MSTORE PUSH1 0x20 PUSH1 0x0 KECCAK256 SWAP1 PUSH1 0x7 MUL ADD PUSH1 0x3 ADD SLOAD DUP5 DUP5 DUP2 SLOAD DUP2 LT PUSH2 0x812 JUMPI PUSH2 0x811 PUSH2 0x3107 JUMP JUMPDEST JUMPDEST SWAP1 PUSH1 0x0 MSTORE PUSH1 0x20 PUSH1 0x0 KECCAK256 SWAP1 PUSH1 0x7 MUL ADD PUSH1 0x2 ADD SLOAD PUSH2 0x82E SWAP2 SWAP1 PUSH2 0x2EDE JUMP JUMPDEST SWAP5 POP SWAP5 POP SWAP5 POP POP POP PUSH2 0x88A JUMP JUMPDEST DUP1 DUP1 PUSH2 0x846 SWAP1 PUSH2 0x3031 JUMP JUMPDEST SWAP2 POP POP PUSH2 0x758 JUMP JUMPDEST POP PUSH1 0x40 MLOAD PUSH32 0x8C379A000000000000000000000000000000000000000000000000000000000 DUP2 MSTORE PUSH1 0x4 ADD PUSH2 0x881 SWAP1 PUSH2 0x2C82 JUMP JUMPDEST PUSH1 0x40 MLOAD DUP1 SWAP2 SUB SWAP1 REVERT JUMPDEST SWAP3 POP SWAP3 POP SWAP3 JUMP JUMPDEST PUSH1 0x2 PUSH1 0x0 SWAP1 SLOAD SWAP1 PUSH2 0x100 EXP SWAP1 DIV PUSH20 0xFFFFFFFFFFFFFFFFFFFFFFFFFFFFFFFFFFFFFFFF AND PUSH20 0xFFFFFFFFFFFFFFFFFFFFFFFFFFFFFFFFFFFFFFFF AND CALLER PUSH20 0xFFFFFFFFFFFFFFFFFFFFFFFFFFFFFFFFFFFFFFFF AND EQ PUSH1 0x40 MLOAD DUP1 PUSH1 0x60 ADD PUSH1 0x40 MSTORE DUP1 PUSH1 0x33 DUP2 MSTORE PUSH1 0x20 ADD PUSH2 0x34E7 PUSH1 0x33 SWAP2 CODECOPY SWAP1 PUSH2 0x93C JUMPI PUSH1 0x40 MLOAD PUSH32 0x8C379A000000000000000000000000000000000000000000000000000000000 DUP2 MSTORE PUSH1 0x4 ADD PUSH2 0x933 SWAP2 SWAP1 PUSH2 0x2B40 JUMP JUMPDEST PUSH1 0x40 MLOAD DUP1 SWAP2 SUB SWAP1 REVERT JUMPDEST POP PUSH1 0x0 PUSH1 0x9 DUP2 GT ISZERO PUSH2 0x951 JUMPI PUSH2 0x950 PUSH2 0x30A9 JUMP JUMPDEST JUMPDEST DUP2 PUSH1 0xFF AND PUSH1 0x9 DUP2 GT ISZERO PUSH2 0x967 JUMPI PUSH2 0x966 PUSH2 0x30A9 JUMP JUMPDEST JUMPDEST PUSH1 0x9 DUP2 GT ISZERO PUSH2 0x979 JUMPI PUSH2 0x978 PUSH2 0x30A9 JUMP JUMPDEST JUMPDEST EQ ISZERO PUSH1 0x40 MLOAD DUP1 PUSH1 0x60 ADD PUSH1 0x40 MSTORE DUP1 PUSH1 0x31 DUP2 MSTORE PUSH1 0x20 ADD PUSH2 0x351A PUSH1 0x31 SWAP2 CODECOPY SWAP1 PUSH2 0x9D5 JUMPI PUSH1 0x40 MLOAD PUSH32 0x8C379A000000000000000000000000000000000000000000000000000000000 DUP2 MSTORE PUSH1 0x4 ADD PUSH2 0x9CC SWAP2 SWAP1 PUSH2 0x2B40 JUMP JUMPDEST PUSH1 0x40 MLOAD DUP1 SWAP2 SUB SWAP1 REVERT JUMPDEST POP PUSH1 0x2 PUSH1 0x9 DUP2 GT ISZERO PUSH2 0x9EA JUMPI PUSH2 0x9E9 PUSH2 0x30A9 JUMP JUMPDEST JUMPDEST DUP2 PUSH1 0xFF AND PUSH1 0x9 DUP2 GT ISZERO PUSH2 0xA00 JUMPI PUSH2 0x9FF PUSH2 0x30A9 JUMP JUMPDEST JUMPDEST PUSH1 0x9 DUP2 GT ISZERO PUSH2 0xA12 JUMPI PUSH2 0xA11 PUSH2 0x30A9 JUMP JUMPDEST JUMPDEST EQ ISZERO PUSH1 0x40 MLOAD DUP1 PUSH1 0x60 ADD PUSH1 0x40 MSTORE DUP1 PUSH1 0x31 DUP2 MSTORE PUSH1 0x20 ADD PUSH2 0x351A PUSH1 0x31 SWAP2 CODECOPY SWAP1 PUSH2 0xA6E JUMPI PUSH1 0x40 MLOAD PUSH32 0x8C379A000000000000000000000000000000000000000000000000000000000 DUP2 MSTORE PUSH1 0x4 ADD PUSH2 0xA65 SWAP2 SWAP1 PUSH2 0x2B40 JUMP JUMPDEST PUSH1 0x40 MLOAD DUP1 SWAP2 SUB SWAP1 REVERT JUMPDEST POP PUSH1 0x3 PUSH1 0x9 DUP2 GT ISZERO PUSH2 0xA83 JUMPI PUSH2 0xA82 PUSH2 0x30A9 JUMP JUMPDEST JUMPDEST DUP2 PUSH1 0xFF AND PUSH1 0x9 DUP2 GT ISZERO PUSH2 0xA99 JUMPI PUSH2 0xA98 PUSH2 0x30A9 JUMP JUMPDEST JUMPDEST PUSH1 0x9 DUP2 GT ISZERO PUSH2 0xAAB JUMPI PUSH2 0xAAA PUSH2 0x30A9 JUMP JUMPDEST JUMPDEST EQ ISZERO PUSH1 0x40 MLOAD DUP1 PUSH1 0x60 ADD PUSH1 0x40 MSTORE DUP1 PUSH1 0x31 DUP2 MSTORE PUSH1 0x20 ADD PUSH2 0x351A PUSH1 0x31 SWAP2 CODECOPY SWAP1 PUSH2 0xB07 JUMPI PUSH1 0x40 MLOAD PUSH32 0x8C379A000000000000000000000000000000000000000000000000000000000 DUP2 MSTORE PUSH1 0x4 ADD PUSH2 0xAFE SWAP2 SWAP1 PUSH2 0x2B40 JUMP JUMPDEST PUSH1 0x40 MLOAD DUP1 SWAP2 SUB SWAP1 REVERT JUMPDEST POP PUSH1 0x4 PUSH1 0x9 DUP2 GT ISZERO PUSH2 0xB1C JUMPI PUSH2 0xB1B PUSH2 0x30A9 JUMP JUMPDEST JUMPDEST DUP2 PUSH1 0xFF AND PUSH1 0x9 DUP2 GT ISZERO PUSH2 0xB32 JUMPI PUSH2 0xB31 PUSH2 0x30A9 JUMP JUMPDEST JUMPDEST PUSH1 0x9 DUP2 GT ISZERO PUSH2 0xB44 JUMPI PUSH2 0xB43 PUSH2 0x30A9 JUMP JUMPDEST JUMPDEST EQ ISZERO PUSH1 0x40 MLOAD DUP1 PUSH1 0x60 ADD PUSH1 0x40 MSTORE DUP1 PUSH1 0x31 DUP2 MSTORE PUSH1 0x20 ADD PUSH2 0x351A PUSH1 0x31 SWAP2 CODECOPY SWAP1 PUSH2 0xBA0 JUMPI PUSH1 0x40 MLOAD PUSH32 0x8C379A000000000000000000000000000000000000000000000000000000000 DUP2 MSTORE PUSH1 0x4 ADD PUSH2 0xB97 SWAP2 SWAP1 PUSH2 0x2B40 JUMP JUMPDEST PUSH1 0x40 MLOAD DUP1 SWAP2 SUB SWAP1 REVERT JUMPDEST POP PUSH1 0x0 PUSH1 0x4 PUSH1 0x0 DUP5 DUP2 MSTORE PUSH1 0x20 ADD SWAP1 DUP2 MSTORE PUSH1 0x20 ADD PUSH1 0x0 KECCAK256 SWAP1 POP PUSH1 0x0 DUP2 DUP1 SLOAD SWAP1 POP GT PUSH2 0xBFF JUMPI PUSH1 0x40 MLOAD PUSH32 0x8C379A000000000000000000000000000000000000000000000000000000000 DUP2 MSTORE PUSH1 0x4 ADD PUSH2 0xBF6 SWAP1 PUSH2 0x2C22 JUMP JUMPDEST PUSH1 0x40 MLOAD DUP1 SWAP2 SUB SWAP1 REVERT JUMPDEST PUSH1 0x0 JUMPDEST DUP2 DUP1 SLOAD SWAP1 POP DUP2 LT ISZERO PUSH2 0xD1F JUMPI DUP5 DUP3 DUP3 DUP2 SLOAD DUP2 LT PUSH2 0xC22 JUMPI PUSH2 0xC21 PUSH2 0x3107 JUMP JUMPDEST JUMPDEST SWAP1 PUSH1 0x0 MSTORE PUSH1 0x20 PUSH1 0x0 KECCAK256 SWAP1 PUSH1 0x7 MUL ADD PUSH1 0x0 ADD SLOAD EQ ISZERO PUSH2 0xD0C JUMPI DUP3 PUSH1 0xFF AND PUSH1 0x9 DUP2 GT ISZERO PUSH2 0xC50 JUMPI PUSH2 0xC4F PUSH2 0x30A9 JUMP JUMPDEST JUMPDEST DUP3 DUP3 DUP2 SLOAD DUP2 LT PUSH2 0xC63 JUMPI PUSH2 0xC62 PUSH2 0x3107 JUMP JUMPDEST JUMPDEST SWAP1 PUSH1 0x0 MSTORE PUSH1 0x20 PUSH1 0x0 KECCAK256 SWAP1 PUSH1 0x7 MUL ADD PUSH1 0x6 ADD PUSH1 0x0 PUSH2 0x100 EXP DUP2 SLOAD DUP2 PUSH1 0xFF MUL NOT AND SWAP1 DUP4 PUSH1 0x9 DUP2 GT ISZERO PUSH2 0xC96 JUMPI PUSH2 0xC95 PUSH2 0x30A9 JUMP JUMPDEST JUMPDEST MUL OR SWAP1 SSTORE POP PUSH32 0x42B0281EF1BA120F08AE315789F8639D48731DB33EAAC502B629A775C997471B DUP5 DUP7 DUP5 DUP5 DUP2 SLOAD DUP2 LT PUSH2 0xCD1 JUMPI PUSH2 0xCD0 PUSH2 0x3107 JUMP JUMPDEST JUMPDEST SWAP1 PUSH1 0x0 MSTORE PUSH1 0x20 PUSH1 0x0 KECCAK256 SWAP1 PUSH1 0x7 MUL ADD PUSH1 0x6 ADD PUSH1 0x0 SWAP1 SLOAD SWAP1 PUSH2 0x100 EXP SWAP1 DIV PUSH1 0xFF AND PUSH1 0x40 MLOAD PUSH2 0xCFF SWAP4 SWAP3 SWAP2 SWAP1 PUSH2 0x2D23 JUMP JUMPDEST PUSH1 0x40 MLOAD DUP1 SWAP2 SUB SWAP1 LOG1 PUSH2 0xD1F JUMP JUMPDEST DUP1 DUP1 PUSH2 0xD17 SWAP1 PUSH2 0x3031 JUMP JUMPDEST SWAP2 POP POP PUSH2 0xC02 JUMP JUMPDEST POP POP POP POP POP JUMP JUMPDEST PUSH1 0x2 PUSH1 0x0 SWAP1 SLOAD SWAP1 PUSH2 0x100 EXP SWAP1 DIV PUSH20 0xFFFFFFFFFFFFFFFFFFFFFFFFFFFFFFFFFFFFFFFF AND PUSH20 0xFFFFFFFFFFFFFFFFFFFFFFFFFFFFFFFFFFFFFFFF AND CALLER PUSH20 0xFFFFFFFFFFFFFFFFFFFFFFFFFFFFFFFFFFFFFFFF AND EQ ISZERO PUSH1 0x40 MLOAD DUP1 PUSH1 0x60 ADD PUSH1 0x40 MSTORE DUP1 PUSH1 0x2F DUP2 MSTORE PUSH1 0x20 ADD PUSH2 0x354B PUSH1 0x2F SWAP2 CODECOPY SWAP1 PUSH2 0xDD2 JUMPI PUSH1 0x40 MLOAD PUSH32 0x8C379A000000000000000000000000000000000000000000000000000000000 DUP2 MSTORE PUSH1 0x4 ADD PUSH2 0xDC9 SWAP2 SWAP1 PUSH2 0x2B40 JUMP JUMPDEST PUSH1 0x40 MLOAD DUP1 SWAP2 SUB SWAP1 REVERT JUMPDEST POP PUSH1 0x0 PUSH1 0x3 PUSH1 0x9 DUP2 GT ISZERO PUSH2 0xDE9 JUMPI PUSH2 0xDE8 PUSH2 0x30A9 JUMP JUMPDEST JUMPDEST DUP3 PUSH1 0xFF AND PUSH1 0x9 DUP2 GT ISZERO PUSH2 0xDFF JUMPI PUSH2 0xDFE PUSH2 0x30A9 JUMP JUMPDEST JUMPDEST PUSH1 0x9 DUP2 GT ISZERO PUSH2 0xE11 JUMPI PUSH2 0xE10 PUSH2 0x30A9 JUMP JUMPDEST JUMPDEST EQ ISZERO PUSH1 0x40 MLOAD DUP1 PUSH1 0x60 ADD PUSH1 0x40 MSTORE DUP1 PUSH1 0x31 DUP2 MSTORE PUSH1 0x20 ADD PUSH2 0x351A PUSH1 0x31 SWAP2 CODECOPY SWAP1 PUSH2 0xE6D JUMPI PUSH1 0x40 MLOAD PUSH32 0x8C379A000000000000000000000000000000000000000000000000000000000 DUP2 MSTORE PUSH1 0x4 ADD PUSH2 0xE64 SWAP2 SWAP1 PUSH2 0x2B40 JUMP JUMPDEST PUSH1 0x40 MLOAD DUP1 SWAP2 SUB SWAP1 REVERT JUMPDEST POP PUSH1 0x5 PUSH1 0x9 DUP2 GT ISZERO PUSH2 0xE82 JUMPI PUSH2 0xE81 PUSH2 0x30A9 JUMP JUMPDEST JUMPDEST DUP3 PUSH1 0xFF AND PUSH1 0x9 DUP2 GT ISZERO PUSH2 0xE98 JUMPI PUSH2 0xE97 PUSH2 0x30A9 JUMP JUMPDEST JUMPDEST PUSH1 0x9 DUP2 GT ISZERO PUSH2 0xEAA JUMPI PUSH2 0xEA9 PUSH2 0x30A9 JUMP JUMPDEST JUMPDEST EQ ISZERO PUSH1 0x40 MLOAD DUP1 PUSH1 0x60 ADD PUSH1 0x40 MSTORE DUP1 PUSH1 0x31 DUP2 MSTORE PUSH1 0x20 ADD PUSH2 0x351A PUSH1 0x31 SWAP2 CODECOPY SWAP1 PUSH2 0xF06 JUMPI PUSH1 0x40 MLOAD PUSH32 0x8C379A000000000000000000000000000000000000000000000000000000000 DUP2 MSTORE PUSH1 0x4 ADD PUSH2 0xEFD SWAP2 SWAP1 PUSH2 0x2B40 JUMP JUMPDEST PUSH1 0x40 MLOAD DUP1 SWAP2 SUB SWAP1 REVERT JUMPDEST POP PUSH1 0x6 PUSH1 0x9 DUP2 GT ISZERO PUSH2 0xF1B JUMPI PUSH2 0xF1A PUSH2 0x30A9 JUMP JUMPDEST JUMPDEST DUP3 PUSH1 0xFF AND PUSH1 0x9 DUP2 GT ISZERO PUSH2 0xF31 JUMPI PUSH2 0xF30 PUSH2 0x30A9 JUMP JUMPDEST JUMPDEST PUSH1 0x9 DUP2 GT ISZERO PUSH2 0xF43 JUMPI PUSH2 0xF42 PUSH2 0x30A9 JUMP JUMPDEST JUMPDEST EQ ISZERO PUSH1 0x40 MLOAD DUP1 PUSH1 0x60 ADD PUSH1 0x40 MSTORE DUP1 PUSH1 0x31 DUP2 MSTORE PUSH1 0x20 ADD PUSH2 0x351A PUSH1 0x31 SWAP2 CODECOPY SWAP1 PUSH2 0xF9F JUMPI PUSH1 0x40 MLOAD PUSH32 0x8C379A000000000000000000000000000000000000000000000000000000000 DUP2 MSTORE PUSH1 0x4 ADD PUSH2 0xF96 SWAP2 SWAP1 PUSH2 0x2B40 JUMP JUMPDEST PUSH1 0x40 MLOAD DUP1 SWAP2 SUB SWAP1 REVERT JUMPDEST POP PUSH1 0x0 PUSH1 0x4 PUSH1 0x0 DUP6 DUP2 MSTORE PUSH1 0x20 ADD SWAP1 DUP2 MSTORE PUSH1 0x20 ADD PUSH1 0x0 KECCAK256 SWAP1 POP PUSH1 0x0 DUP2 DUP1 SLOAD SWAP1 POP GT PUSH2 0xFFE JUMPI PUSH1 0x40 MLOAD PUSH32 0x8C379A000000000000000000000000000000000000000000000000000000000 DUP2 MSTORE PUSH1 0x4 ADD PUSH2 0xFF5 SWAP1 PUSH2 0x2BE2 JUMP JUMPDEST PUSH1 0x40 MLOAD DUP1 SWAP2 SUB SWAP1 REVERT JUMPDEST PUSH1 0x0 JUMPDEST DUP2 DUP1 SLOAD SWAP1 POP DUP2 LT ISZERO PUSH2 0x12DB JUMPI DUP6 DUP3 DUP3 DUP2 SLOAD DUP2 LT PUSH2 0x1021 JUMPI PUSH2 0x1020 PUSH2 0x3107 JUMP JUMPDEST JUMPDEST SWAP1 PUSH1 0x0 MSTORE PUSH1 0x20 PUSH1 0x0 KECCAK256 SWAP1 PUSH1 0x7 MUL ADD PUSH1 0x0 ADD SLOAD EQ ISZERO PUSH2 0x12BD JUMPI PUSH1 0x1 SWAP3 POP PUSH1 0x0 DUP3 DUP3 DUP2 SLOAD DUP2 LT PUSH2 0x1052 JUMPI PUSH2 0x1051 PUSH2 0x3107 JUMP JUMPDEST JUMPDEST SWAP1 PUSH1 0x0 MSTORE PUSH1 0x20 PUSH1 0x0 KECCAK256 SWAP1 PUSH1 0x7 MUL ADD PUSH1 0x4 ADD PUSH1 0x14 PUSH2 0x100 EXP DUP2 SLOAD DUP2 PUSH1 0xFF MUL NOT AND SWAP1 DUP4 ISZERO ISZERO MUL OR SWAP1 SSTORE POP PUSH1 0x7 PUSH1 0x9 DUP2 GT ISZERO PUSH2 0x108E JUMPI PUSH2 0x108D PUSH2 0x30A9 JUMP JUMPDEST JUMPDEST DUP5 PUSH1 0xFF AND PUSH1 0x9 DUP2 GT ISZERO PUSH2 0x10A4 JUMPI PUSH2 0x10A3 PUSH2 0x30A9 JUMP JUMPDEST JUMPDEST PUSH1 0x9 DUP2 GT ISZERO PUSH2 0x10B6 JUMPI PUSH2 0x10B5 PUSH2 0x30A9 JUMP JUMPDEST JUMPDEST EQ DUP1 PUSH2 0x10FB JUMPI POP PUSH1 0x6 PUSH1 0x9 DUP2 GT ISZERO PUSH2 0x10D1 JUMPI PUSH2 0x10D0 PUSH2 0x30A9 JUMP JUMPDEST JUMPDEST DUP5 PUSH1 0xFF AND PUSH1 0x9 DUP2 GT ISZERO PUSH2 0x10E7 JUMPI PUSH2 0x10E6 PUSH2 0x30A9 JUMP JUMPDEST JUMPDEST PUSH1 0x9 DUP2 GT ISZERO PUSH2 0x10F9 JUMPI PUSH2 0x10F8 PUSH2 0x30A9 JUMP JUMPDEST JUMPDEST EQ JUMPDEST ISZERO PUSH2 0x11DB JUMPI PUSH32 0x2DE098063448DBE8B26FA82794CD68CF748EDB4F3E2CC43166E3AD659757019E DUP6 DUP8 DUP7 PUSH1 0xFF AND PUSH1 0x9 DUP2 GT ISZERO PUSH2 0x1139 JUMPI PUSH2 0x1138 PUSH2 0x30A9 JUMP JUMPDEST JUMPDEST PUSH1 0x40 MLOAD PUSH2 0x1148 SWAP4 SWAP3 SWAP2 SWAP1 PUSH2 0x2D23 JUMP JUMPDEST PUSH1 0x40 MLOAD DUP1 SWAP2 SUB SWAP1 LOG1 PUSH1 0x7 PUSH1 0x9 DUP2 GT ISZERO PUSH2 0x1164 JUMPI PUSH2 0x1163 PUSH2 0x30A9 JUMP JUMPDEST JUMPDEST DUP5 PUSH1 0xFF AND PUSH1 0x9 DUP2 GT ISZERO PUSH2 0x117A JUMPI PUSH2 0x1179 PUSH2 0x30A9 JUMP JUMPDEST JUMPDEST PUSH1 0x9 DUP2 GT ISZERO PUSH2 0x118C JUMPI PUSH2 0x118B PUSH2 0x30A9 JUMP JUMPDEST JUMPDEST EQ ISZERO PUSH2 0x1197 JUMPI PUSH2 0x11D6 JUMP JUMPDEST PUSH1 0x6 PUSH1 0x9 DUP2 GT ISZERO PUSH2 0x11AB JUMPI PUSH2 0x11AA PUSH2 0x30A9 JUMP JUMPDEST JUMPDEST DUP5 PUSH1 0xFF AND PUSH1 0x9 DUP2 GT ISZERO PUSH2 0x11C1 JUMPI PUSH2 0x11C0 PUSH2 0x30A9 JUMP JUMPDEST JUMPDEST PUSH1 0x9 DUP2 GT ISZERO PUSH2 0x11D3 JUMPI PUSH2 0x11D2 PUSH2 0x30A9 JUMP JUMPDEST JUMPDEST POP POP JUMPDEST PUSH2 0x12BC JUMP JUMPDEST DUP4 PUSH1 0xFF AND PUSH1 0x9 DUP2 GT ISZERO PUSH2 0x11F1 JUMPI PUSH2 0x11F0 PUSH2 0x30A9 JUMP JUMPDEST JUMPDEST DUP3 DUP3 DUP2 SLOAD DUP2 LT PUSH2 0x1204 JUMPI PUSH2 0x1203 PUSH2 0x3107 JUMP JUMPDEST JUMPDEST SWAP1 PUSH1 0x0 MSTORE PUSH1 0x20 PUSH1 0x0 KECCAK256 SWAP1 PUSH1 0x7 MUL ADD PUSH1 0x6 ADD PUSH1 0x0 PUSH2 0x100 EXP DUP2 SLOAD DUP2 PUSH1 0xFF MUL NOT AND SWAP1 DUP4 PUSH1 0x9 DUP2 GT ISZERO PUSH2 0x1237 JUMPI PUSH2 0x1236 PUSH2 0x30A9 JUMP JUMPDEST JUMPDEST MUL OR SWAP1 SSTORE POP PUSH1 0x4 PUSH1 0x9 DUP2 GT ISZERO PUSH2 0x1250 JUMPI PUSH2 0x124F PUSH2 0x30A9 JUMP JUMPDEST JUMPDEST DUP5 PUSH1 0xFF AND PUSH1 0x9 DUP2 GT ISZERO PUSH2 0x1266 JUMPI PUSH2 0x1265 PUSH2 0x30A9 JUMP JUMPDEST JUMPDEST PUSH1 0x9 DUP2 GT ISZERO PUSH2 0x1278 JUMPI PUSH2 0x1277 PUSH2 0x30A9 JUMP JUMPDEST JUMPDEST EQ ISZERO PUSH2 0x12BB JUMPI PUSH32 0xD49FC9FA26FA9FC112EFD004ACB9EEABF80810373D2CBB1A7884D4D64E8E8D2B DUP6 DUP8 PUSH1 0x4 PUSH1 0x40 MLOAD PUSH2 0x12B2 SWAP4 SWAP3 SWAP2 SWAP1 PUSH2 0x2D23 JUMP JUMPDEST PUSH1 0x40 MLOAD DUP1 SWAP2 SUB SWAP1 LOG1 JUMPDEST JUMPDEST JUMPDEST DUP3 ISZERO PUSH2 0x12C8 JUMPI PUSH2 0x12DB JUMP JUMPDEST DUP1 DUP1 PUSH2 0x12D3 SWAP1 PUSH2 0x3031 JUMP JUMPDEST SWAP2 POP POP PUSH2 0x1001 JUMP JUMPDEST POP POP POP POP POP POP JUMP JUMPDEST PUSH1 0x2 PUSH1 0x0 SWAP1 SLOAD SWAP1 PUSH2 0x100 EXP SWAP1 DIV PUSH20 0xFFFFFFFFFFFFFFFFFFFFFFFFFFFFFFFFFFFFFFFF AND PUSH20 0xFFFFFFFFFFFFFFFFFFFFFFFFFFFFFFFFFFFFFFFF AND CALLER PUSH20 0xFFFFFFFFFFFFFFFFFFFFFFFFFFFFFFFFFFFFFFFF AND EQ ISZERO PUSH1 0x40 MLOAD DUP1 PUSH1 0x60 ADD PUSH1 0x40 MSTORE DUP1 PUSH1 0x2F DUP2 MSTORE PUSH1 0x20 ADD PUSH2 0x354B PUSH1 0x2F SWAP2 CODECOPY SWAP1 PUSH2 0x138F JUMPI PUSH1 0x40 MLOAD PUSH32 0x8C379A000000000000000000000000000000000000000000000000000000000 DUP2 MSTORE PUSH1 0x4 ADD PUSH2 0x1386 SWAP2 SWAP1 PUSH2 0x2B40 JUMP JUMPDEST PUSH1 0x40 MLOAD DUP1 SWAP2 SUB SWAP1 REVERT JUMPDEST POP PUSH1 0x5 PUSH1 0x0 DUP7 DUP2 MSTORE PUSH1 0x20 ADD SWAP1 DUP2 MSTORE PUSH1 0x20 ADD PUSH1 0x0 KECCAK256 PUSH1 0x0 SWAP1 SLOAD SWAP1 PUSH2 0x100 EXP SWAP1 DIV PUSH1 0xFF AND PUSH2 0x13F0 JUMPI PUSH1 0x40 MLOAD PUSH32 0x8C379A000000000000000000000000000000000000000000000000000000000 DUP2 MSTORE PUSH1 0x4 ADD PUSH2 0x13E7 SWAP1 PUSH2 0x2C02 JUMP JUMPDEST PUSH1 0x40 MLOAD DUP1 SWAP2 SUB SWAP1 REVERT JUMPDEST PUSH1 0x0 PUSH1 0x40 MLOAD DUP1 PUSH2 0x100 ADD PUSH1 0x40 MSTORE DUP1 DUP7 DUP2 MSTORE PUSH1 0x20 ADD PUSH3 0xF4240 DUP2 MSTORE PUSH1 0x20 ADD DUP6 DUP2 MSTORE PUSH1 0x20 ADD PUSH1 0x0 DUP2 MSTORE PUSH1 0x20 ADD DUP5 PUSH20 0xFFFFFFFFFFFFFFFFFFFFFFFFFFFFFFFFFFFFFFFF AND DUP2 MSTORE PUSH1 0x20 ADD PUSH1 0x1 ISZERO ISZERO DUP2 MSTORE PUSH1 0x20 ADD DUP4 DUP2 MSTORE PUSH1 0x20 ADD PUSH1 0x2 PUSH1 0x9 DUP2 GT ISZERO PUSH2 0x1459 JUMPI PUSH2 0x1458 PUSH2 0x30A9 JUMP JUMPDEST JUMPDEST DUP2 MSTORE POP SWAP1 POP PUSH1 0x0 DUP2 SWAP1 DUP1 PUSH1 0x1 DUP2 SLOAD ADD DUP1 DUP3 SSTORE DUP1 SWAP2 POP POP PUSH1 0x1 SWAP1 SUB SWAP1 PUSH1 0x0 MSTORE PUSH1 0x20 PUSH1 0x0 KECCAK256 SWAP1 PUSH1 0x7 MUL ADD PUSH1 0x0 SWAP1 SWAP2 SWAP1 SWAP2 SWAP1 SWAP2 POP PUSH1 0x0 DUP3 ADD MLOAD DUP2 PUSH1 0x0 ADD SSTORE PUSH1 0x20 DUP3 ADD MLOAD DUP2 PUSH1 0x1 ADD SSTORE PUSH1 0x40 DUP3 ADD MLOAD DUP2 PUSH1 0x2 ADD SSTORE PUSH1 0x60 DUP3 ADD MLOAD DUP2 PUSH1 0x3 ADD SSTORE PUSH1 0x80 DUP3 ADD MLOAD DUP2 PUSH1 0x4 ADD PUSH1 0x0 PUSH2 0x100 EXP DUP2 SLOAD DUP2 PUSH20 0xFFFFFFFFFFFFFFFFFFFFFFFFFFFFFFFFFFFFFFFF MUL NOT AND SWAP1 DUP4 PUSH20 0xFFFFFFFFFFFFFFFFFFFFFFFFFFFFFFFFFFFFFFFF AND MUL OR SWAP1 SSTORE POP PUSH1 0xA0 DUP3 ADD MLOAD DUP2 PUSH1 0x4 ADD PUSH1 0x14 PUSH2 0x100 EXP DUP2 SLOAD DUP2 PUSH1 0xFF MUL NOT AND SWAP1 DUP4 ISZERO ISZERO MUL OR SWAP1 SSTORE POP PUSH1 0xC0 DUP3 ADD MLOAD DUP2 PUSH1 0x5 ADD SWAP1 DUP1 MLOAD SWAP1 PUSH1 0x20 ADD SWAP1 PUSH2 0x1535 SWAP3 SWAP2 SWAP1 PUSH2 0x250B JUMP JUMPDEST POP PUSH1 0xE0 DUP3 ADD MLOAD DUP2 PUSH1 0x6 ADD PUSH1 0x0 PUSH2 0x100 EXP DUP2 SLOAD DUP2 PUSH1 0xFF MUL NOT AND SWAP1 DUP4 PUSH1 0x9 DUP2 GT ISZERO PUSH2 0x1561 JUMPI PUSH2 0x1560 PUSH2 0x30A9 JUMP JUMPDEST JUMPDEST MUL OR SWAP1 SSTORE POP POP POP PUSH1 0x4 PUSH1 0x0 DUP8 DUP2 MSTORE PUSH1 0x20 ADD SWAP1 DUP2 MSTORE PUSH1 0x20 ADD PUSH1 0x0 KECCAK256 DUP2 SWAP1 DUP1 PUSH1 0x1 DUP2 SLOAD ADD DUP1 DUP3 SSTORE DUP1 SWAP2 POP POP PUSH1 0x1 SWAP1 SUB SWAP1 PUSH1 0x0 MSTORE PUSH1 0x20 PUSH1 0x0 KECCAK256 SWAP1 PUSH1 0x7 MUL ADD PUSH1 0x0 SWAP1 SWAP2 SWAP1 SWAP2 SWAP1 SWAP2 POP PUSH1 0x0 DUP3 ADD MLOAD DUP2 PUSH1 0x0 ADD SSTORE PUSH1 0x20 DUP3 ADD MLOAD DUP2 PUSH1 0x1 ADD SSTORE PUSH1 0x40 DUP3 ADD MLOAD DUP2 PUSH1 0x2 ADD SSTORE PUSH1 0x60 DUP3 ADD MLOAD DUP2 PUSH1 0x3 ADD SSTORE PUSH1 0x80 DUP3 ADD MLOAD DUP2 PUSH1 0x4 ADD PUSH1 0x0 PUSH2 0x100 EXP DUP2 SLOAD DUP2 PUSH20 0xFFFFFFFFFFFFFFFFFFFFFFFFFFFFFFFFFFFFFFFF MUL NOT AND SWAP1 DUP4 PUSH20 0xFFFFFFFFFFFFFFFFFFFFFFFFFFFFFFFFFFFFFFFF AND MUL OR SWAP1 SSTORE POP PUSH1 0xA0 DUP3 ADD MLOAD DUP2 PUSH1 0x4 ADD PUSH1 0x14 PUSH2 0x100 EXP DUP2 SLOAD DUP2 PUSH1 0xFF MUL NOT AND SWAP1 DUP4 ISZERO ISZERO MUL OR SWAP1 SSTORE POP PUSH1 0xC0 DUP3 ADD MLOAD DUP2 PUSH1 0x5 ADD SWAP1 DUP1 MLOAD SWAP1 PUSH1 0x20 ADD SWAP1 PUSH2 0x1650 SWAP3 SWAP2 SWAP1 PUSH2 0x250B JUMP JUMPDEST POP PUSH1 0xE0 DUP3 ADD MLOAD DUP2 PUSH1 0x6 ADD PUSH1 0x0 PUSH2 0x100 EXP DUP2 SLOAD DUP2 PUSH1 0xFF MUL NOT AND SWAP1 DUP4 PUSH1 0x9 DUP2 GT ISZERO PUSH2 0x167C JUMPI PUSH2 0x167B PUSH2 0x30A9 JUMP JUMPDEST JUMPDEST MUL OR SWAP1 SSTORE POP POP POP POP POP POP POP POP POP JUMP JUMPDEST PUSH1 0x2 PUSH1 0x0 SWAP1 SLOAD SWAP1 PUSH2 0x100 EXP SWAP1 DIV PUSH20 0xFFFFFFFFFFFFFFFFFFFFFFFFFFFFFFFFFFFFFFFF AND PUSH20 0xFFFFFFFFFFFFFFFFFFFFFFFFFFFFFFFFFFFFFFFF AND CALLER PUSH20 0xFFFFFFFFFFFFFFFFFFFFFFFFFFFFFFFFFFFFFFFF AND EQ PUSH1 0x40 MLOAD DUP1 PUSH1 0x60 ADD PUSH1 0x40 MSTORE DUP1 PUSH1 0x33 DUP2 MSTORE PUSH1 0x20 ADD PUSH2 0x34E7 PUSH1 0x33 SWAP2 CODECOPY SWAP1 PUSH2 0x1736 JUMPI PUSH1 0x40 MLOAD PUSH32 0x8C379A000000000000000000000000000000000000000000000000000000000 DUP2 MSTORE PUSH1 0x4 ADD PUSH2 0x172D SWAP2 SWAP1 PUSH2 0x2B40 JUMP JUMPDEST PUSH1 0x40 MLOAD DUP1 SWAP2 SUB SWAP1 REVERT JUMPDEST POP PUSH1 0x0 PUSH1 0x1 DUP4 DUP2 SLOAD DUP2 LT PUSH2 0x174D JUMPI PUSH2 0x174C PUSH2 0x3107 JUMP JUMPDEST JUMPDEST SWAP1 PUSH1 0x0 MSTORE PUSH1 0x20 PUSH1 0x0 KECCAK256 SWAP1 PUSH1 0x5 MUL ADD SWAP1 POP PUSH1 0x1 DUP2 PUSH1 0x1 ADD PUSH1 0x0 PUSH2 0x100 EXP DUP2 SLOAD DUP2 PUSH1 0xFF MUL NOT AND SWAP1 DUP4 ISZERO ISZERO MUL OR SWAP1 SSTORE POP PUSH1 0x1 PUSH1 0x5 PUSH1 0x0 DUP5 DUP2 MSTORE PUSH1 0x20 ADD SWAP1 DUP2 MSTORE PUSH1 0x20 ADD PUSH1 0x0 KECCAK256 PUSH1 0x0 PUSH2 0x100 EXP DUP2 SLOAD DUP2 PUSH1 0xFF MUL NOT AND SWAP1 DUP4 ISZERO ISZERO MUL OR SWAP1 SSTORE POP POP POP POP JUMP JUMPDEST PUSH1 0x60 PUSH1 0x0 PUSH1 0x4 PUSH1 0x0 DUP6 DUP2 MSTORE PUSH1 0x20 ADD SWAP1 DUP2 MSTORE PUSH1 0x20 ADD PUSH1 0x0 KECCAK256 SWAP1 POP PUSH1 0x0 DUP2 DUP1 SLOAD SWAP1 POP GT PUSH2 0x180B JUMPI PUSH1 0x40 MLOAD PUSH32 0x8C379A000000000000000000000000000000000000000000000000000000000 DUP2 MSTORE PUSH1 0x4 ADD PUSH2 0x1802 SWAP1 PUSH2 0x2B62 JUMP JUMPDEST PUSH1 0x40 MLOAD DUP1 SWAP2 SUB SWAP1 REVERT JUMPDEST PUSH1 0x0 JUMPDEST DUP2 DUP1 SLOAD SWAP1 POP DUP2 LT ISZERO PUSH2 0x1953 JUMPI DUP4 DUP3 DUP3 DUP2 SLOAD DUP2 LT PUSH2 0x182E JUMPI PUSH2 0x182D PUSH2 0x3107 JUMP JUMPDEST JUMPDEST SWAP1 PUSH1 0x0 MSTORE PUSH1 0x20 PUSH1 0x0 KECCAK256 SWAP1 PUSH1 0x7 MUL ADD PUSH1 0x0 ADD SLOAD EQ ISZERO PUSH2 0x1940 JUMPI PUSH1 0x7 PUSH1 0x0 DUP4 DUP4 DUP2 SLOAD DUP2 LT PUSH2 0x185D JUMPI PUSH2 0x185C PUSH2 0x3107 JUMP JUMPDEST JUMPDEST SWAP1 PUSH1 0x0 MSTORE PUSH1 0x20 PUSH1 0x0 KECCAK256 SWAP1 PUSH1 0x7 MUL ADD PUSH1 0x6 ADD PUSH1 0x0 SWAP1 SLOAD SWAP1 PUSH2 0x100 EXP SWAP1 DIV PUSH1 0xFF AND PUSH1 0x9 DUP2 GT ISZERO PUSH2 0x188E JUMPI PUSH2 0x188D PUSH2 0x30A9 JUMP JUMPDEST JUMPDEST PUSH1 0x9 DUP2 GT ISZERO PUSH2 0x18A0 JUMPI PUSH2 0x189F PUSH2 0x30A9 JUMP JUMPDEST JUMPDEST DUP2 MSTORE PUSH1 0x20 ADD SWAP1 DUP2 MSTORE PUSH1 0x20 ADD PUSH1 0x0 KECCAK256 DUP1 SLOAD PUSH2 0x18B9 SWAP1 PUSH2 0x2FCE JUMP JUMPDEST DUP1 PUSH1 0x1F ADD PUSH1 0x20 DUP1 SWAP2 DIV MUL PUSH1 0x20 ADD PUSH1 0x40 MLOAD SWAP1 DUP2 ADD PUSH1 0x40 MSTORE DUP1 SWAP3 SWAP2 SWAP1 DUP2 DUP2 MSTORE PUSH1 0x20 ADD DUP3 DUP1 SLOAD PUSH2 0x18E5 SWAP1 PUSH2 0x2FCE JUMP JUMPDEST DUP1 ISZERO PUSH2 0x1932 JUMPI DUP1 PUSH1 0x1F LT PUSH2 0x1907 JUMPI PUSH2 0x100 DUP1 DUP4 SLOAD DIV MUL DUP4 MSTORE SWAP2 PUSH1 0x20 ADD SWAP2 PUSH2 0x1932 JUMP JUMPDEST DUP3 ADD SWAP2 SWAP1 PUSH1 0x0 MSTORE PUSH1 0x20 PUSH1 0x0 KECCAK256 SWAP1 JUMPDEST DUP2 SLOAD DUP2 MSTORE SWAP1 PUSH1 0x1 ADD SWAP1 PUSH1 0x20 ADD DUP1 DUP4 GT PUSH2 0x1915 JUMPI DUP3 SWAP1 SUB PUSH1 0x1F AND DUP3 ADD SWAP2 JUMPDEST POP POP POP POP POP SWAP3 POP POP POP PUSH2 0x198F JUMP JUMPDEST DUP1 DUP1 PUSH2 0x194B SWAP1 PUSH2 0x3031 JUMP JUMPDEST SWAP2 POP POP PUSH2 0x180E JUMP JUMPDEST POP PUSH1 0x40 MLOAD PUSH32 0x8C379A000000000000000000000000000000000000000000000000000000000 DUP2 MSTORE PUSH1 0x4 ADD PUSH2 0x1986 SWAP1 PUSH2 0x2C82 JUMP JUMPDEST PUSH1 0x40 MLOAD DUP1 SWAP2 SUB SWAP1 REVERT JUMPDEST SWAP3 SWAP2 POP POP JUMP JUMPDEST PUSH1 0x0 PUSH1 0x4 PUSH1 0x0 DUP6 DUP2 MSTORE PUSH1 0x20 ADD SWAP1 DUP2 MSTORE PUSH1 0x20 ADD PUSH1 0x0 KECCAK256 SWAP1 POP PUSH1 0x0 DUP2 DUP1 SLOAD SWAP1 POP GT PUSH2 0x19F3 JUMPI PUSH1 0x40 MLOAD PUSH32 0x8C379A000000000000000000000000000000000000000000000000000000000 DUP2 MSTORE PUSH1 0x4 ADD PUSH2 0x19EA SWAP1 PUSH2 0x2B62 JUMP JUMPDEST PUSH1 0x40 MLOAD DUP1 SWAP2 SUB SWAP1 REVERT JUMPDEST PUSH1 0x0 PUSH1 0x3 PUSH1 0x0 DUP5 DUP2 MSTORE PUSH1 0x20 ADD SWAP1 DUP2 MSTORE PUSH1 0x20 ADD PUSH1 0x0 KECCAK256 SWAP1 POP CALLER PUSH20 0xFFFFFFFFFFFFFFFFFFFFFFFFFFFFFFFFFFFFFFFF AND DUP2 PUSH1 0x1 ADD PUSH1 0x0 SWAP1 SLOAD SWAP1 PUSH2 0x100 EXP SWAP1 DIV PUSH20 0xFFFFFFFFFFFFFFFFFFFFFFFFFFFFFFFFFFFFFFFF AND PUSH20 0xFFFFFFFFFFFFFFFFFFFFFFFFFFFFFFFFFFFFFFFF AND EQ DUP1 ISZERO PUSH2 0x1A7E JUMPI POP PUSH1 0x0 DUP2 PUSH1 0x2 ADD PUSH1 0x0 DUP7 DUP2 MSTORE PUSH1 0x20 ADD SWAP1 DUP2 MSTORE PUSH1 0x20 ADD PUSH1 0x0 KECCAK256 SLOAD GT JUMPDEST ISZERO PUSH2 0x1D08 JUMPI PUSH1 0x0 JUMPDEST DUP3 DUP1 SLOAD SWAP1 POP DUP2 LT ISZERO PUSH2 0x1C8B JUMPI DUP5 DUP4 DUP3 DUP2 SLOAD DUP2 LT PUSH2 0x1AA6 JUMPI PUSH2 0x1AA5 PUSH2 0x3107 JUMP JUMPDEST JUMPDEST SWAP1 PUSH1 0x0 MSTORE PUSH1 0x20 PUSH1 0x0 KECCAK256 SWAP1 PUSH1 0x7 MUL ADD PUSH1 0x0 ADD SLOAD EQ ISZERO PUSH2 0x1C3D JUMPI PUSH1 0x3 PUSH1 0x9 DUP2 GT ISZERO PUSH2 0x1AD2 JUMPI PUSH2 0x1AD1 PUSH2 0x30A9 JUMP JUMPDEST JUMPDEST DUP4 DUP3 DUP2 SLOAD DUP2 LT PUSH2 0x1AE5 JUMPI PUSH2 0x1AE4 PUSH2 0x3107 JUMP JUMPDEST JUMPDEST SWAP1 PUSH1 0x0 MSTORE PUSH1 0x20 PUSH1 0x0 KECCAK256 SWAP1 PUSH1 0x7 MUL ADD PUSH1 0x6 ADD PUSH1 0x0 SWAP1 SLOAD SWAP1 PUSH2 0x100 EXP SWAP1 DIV PUSH1 0xFF AND PUSH1 0x9 DUP2 GT ISZERO PUSH2 0x1B16 JUMPI PUSH2 0x1B15 PUSH2 0x30A9 JUMP JUMPDEST JUMPDEST GT ISZERO PUSH2 0x1B57 JUMPI PUSH1 0x40 MLOAD PUSH32 0x8C379A000000000000000000000000000000000000000000000000000000000 DUP2 MSTORE PUSH1 0x4 ADD PUSH2 0x1B4E SWAP1 PUSH2 0x2BC2 JUMP JUMPDEST PUSH1 0x40 MLOAD DUP1 SWAP2 SUB SWAP1 REVERT JUMPDEST DUP2 PUSH1 0x2 ADD PUSH1 0x0 DUP7 DUP2 MSTORE PUSH1 0x20 ADD SWAP1 DUP2 MSTORE PUSH1 0x20 ADD PUSH1 0x0 KECCAK256 SLOAD DUP4 DUP3 DUP2 SLOAD DUP2 LT PUSH2 0x1B80 JUMPI PUSH2 0x1B7F PUSH2 0x3107 JUMP JUMPDEST JUMPDEST SWAP1 PUSH1 0x0 MSTORE PUSH1 0x20 PUSH1 0x0 KECCAK256 SWAP1 PUSH1 0x7 MUL ADD PUSH1 0x3 ADD SLOAD PUSH2 0x1B9C SWAP2 SWAP1 PUSH2 0x2EDE JUMP JUMPDEST DUP4 DUP3 DUP2 SLOAD DUP2 LT PUSH2 0x1BAF JUMPI PUSH2 0x1BAE PUSH2 0x3107 JUMP JUMPDEST JUMPDEST SWAP1 PUSH1 0x0 MSTORE PUSH1 0x20 PUSH1 0x0 KECCAK256 SWAP1 PUSH1 0x7 MUL ADD PUSH1 0x3 ADD DUP2 SWAP1 SSTORE POP DUP3 DUP2 DUP2 SLOAD DUP2 LT PUSH2 0x1BD7 JUMPI PUSH2 0x1BD6 PUSH2 0x3107 JUMP JUMPDEST JUMPDEST SWAP1 PUSH1 0x0 MSTORE PUSH1 0x20 PUSH1 0x0 KECCAK256 SWAP1 PUSH1 0x7 MUL ADD PUSH1 0x4 ADD PUSH1 0x14 SWAP1 SLOAD SWAP1 PUSH2 0x100 EXP SWAP1 DIV PUSH1 0xFF AND PUSH2 0x1C38 JUMPI PUSH1 0x1 DUP4 DUP3 DUP2 SLOAD DUP2 LT PUSH2 0x1C0F JUMPI PUSH2 0x1C0E PUSH2 0x3107 JUMP JUMPDEST JUMPDEST SWAP1 PUSH1 0x0 MSTORE PUSH1 0x20 PUSH1 0x0 KECCAK256 SWAP1 PUSH1 0x7 MUL ADD PUSH1 0x4 ADD PUSH1 0x14 PUSH2 0x100 EXP DUP2 SLOAD DUP2 PUSH1 0xFF MUL NOT AND SWAP1 DUP4 ISZERO ISZERO MUL OR SWAP1 SSTORE POP JUMPDEST PUSH2 0x1C78 JUMP JUMPDEST PUSH1 0x40 MLOAD PUSH32 0x8C379A000000000000000000000000000000000000000000000000000000000 DUP2 MSTORE PUSH1 0x4 ADD PUSH2 0x1C6F SWAP1 PUSH2 0x2C62 JUMP JUMPDEST PUSH1 0x40 MLOAD DUP1 SWAP2 SUB SWAP1 REVERT JUMPDEST DUP1 DUP1 PUSH2 0x1C83 SWAP1 PUSH2 0x3031 JUMP JUMPDEST SWAP2 POP POP PUSH2 0x1A86 JUMP JUMPDEST POP CALLER PUSH20 0xFFFFFFFFFFFFFFFFFFFFFFFFFFFFFFFFFFFFFFFF AND PUSH2 0x8FC DUP3 PUSH1 0x2 ADD PUSH1 0x0 DUP8 DUP2 MSTORE PUSH1 0x20 ADD SWAP1 DUP2 MSTORE PUSH1 0x20 ADD PUSH1 0x0 KECCAK256 SLOAD SWAP1 DUP2 ISZERO MUL SWAP1 PUSH1 0x40 MLOAD PUSH1 0x0 PUSH1 0x40 MLOAD DUP1 DUP4 SUB DUP2 DUP6 DUP9 DUP9 CALL SWAP4 POP POP POP POP ISZERO DUP1 ISZERO PUSH2 0x1CE7 JUMPI RETURNDATASIZE PUSH1 0x0 DUP1 RETURNDATACOPY RETURNDATASIZE PUSH1 0x0 REVERT JUMPDEST POP PUSH1 0x0 DUP2 PUSH1 0x2 ADD PUSH1 0x0 DUP7 DUP2 MSTORE PUSH1 0x20 ADD SWAP1 DUP2 MSTORE PUSH1 0x20 ADD PUSH1 0x0 KECCAK256 DUP2 SWAP1 SSTORE POP PUSH2 0x1D43 JUMP JUMPDEST PUSH1 0x40 MLOAD PUSH32 0x8C379A000000000000000000000000000000000000000000000000000000000 DUP2 MSTORE PUSH1 0x4 ADD PUSH2 0x1D3A SWAP1 PUSH2 0x2B82 JUMP JUMPDEST PUSH1 0x40 MLOAD DUP1 SWAP2 SUB SWAP1 REVERT JUMPDEST POP POP POP POP POP JUMP JUMPDEST PUSH1 0x2 PUSH1 0x0 SWAP1 SLOAD SWAP1 PUSH2 0x100 EXP SWAP1 DIV PUSH20 0xFFFFFFFFFFFFFFFFFFFFFFFFFFFFFFFFFFFFFFFF AND DUP2 JUMP JUMPDEST PUSH1 0x2 PUSH1 0x0 SWAP1 SLOAD SWAP1 PUSH2 0x100 EXP SWAP1 DIV PUSH20 0xFFFFFFFFFFFFFFFFFFFFFFFFFFFFFFFFFFFFFFFF AND PUSH20 0xFFFFFFFFFFFFFFFFFFFFFFFFFFFFFFFFFFFFFFFF AND CALLER PUSH20 0xFFFFFFFFFFFFFFFFFFFFFFFFFFFFFFFFFFFFFFFF AND EQ PUSH1 0x40 MLOAD DUP1 PUSH1 0x60 ADD PUSH1 0x40 MSTORE DUP1 PUSH1 0x33 DUP2 MSTORE PUSH1 0x20 ADD PUSH2 0x34E7 PUSH1 0x33 SWAP2 CODECOPY SWAP1 PUSH2 0x1E1B JUMPI PUSH1 0x40 MLOAD PUSH32 0x8C379A000000000000000000000000000000000000000000000000000000000 DUP2 MSTORE PUSH1 0x4 ADD PUSH2 0x1E12 SWAP2 SWAP1 PUSH2 0x2B40 JUMP JUMPDEST PUSH1 0x40 MLOAD DUP1 SWAP2 SUB SWAP1 REVERT JUMPDEST POP PUSH1 0x0 PUSH1 0x1 DUP4 DUP2 SLOAD DUP2 LT PUSH2 0x1E32 JUMPI PUSH2 0x1E31 PUSH2 0x3107 JUMP JUMPDEST JUMPDEST SWAP1 PUSH1 0x0 MSTORE PUSH1 0x20 PUSH1 0x0 KECCAK256 SWAP1 PUSH1 0x5 MUL ADD SWAP1 POP PUSH1 0x0 DUP2 PUSH1 0x1 ADD PUSH1 0x0 PUSH2 0x100 EXP DUP2 SLOAD DUP2 PUSH1 0xFF MUL NOT AND SWAP1 DUP4 ISZERO ISZERO MUL OR SWAP1 SSTORE POP DUP2 DUP2 PUSH1 0x2 ADD SWAP1 DUP1 MLOAD SWAP1 PUSH1 0x20 ADD SWAP1 PUSH2 0x1E77 SWAP3 SWAP2 SWAP1 PUSH2 0x250B JUMP JUMPDEST POP POP POP POP JUMP JUMPDEST PUSH1 0x7 PUSH1 0x20 MSTORE DUP1 PUSH1 0x0 MSTORE PUSH1 0x40 PUSH1 0x0 KECCAK256 PUSH1 0x0 SWAP2 POP SWAP1 POP DUP1 SLOAD PUSH2 0x1E9C SWAP1 PUSH2 0x2FCE JUMP JUMPDEST DUP1 PUSH1 0x1F ADD PUSH1 0x20 DUP1 SWAP2 DIV MUL PUSH1 0x20 ADD PUSH1 0x40 MLOAD SWAP1 DUP2 ADD PUSH1 0x40 MSTORE DUP1 SWAP3 SWAP2 SWAP1 DUP2 DUP2 MSTORE PUSH1 0x20 ADD DUP3 DUP1 SLOAD PUSH2 0x1EC8 SWAP1 PUSH2 0x2FCE JUMP JUMPDEST DUP1 ISZERO PUSH2 0x1F15 JUMPI DUP1 PUSH1 0x1F LT PUSH2 0x1EEA JUMPI PUSH2 0x100 DUP1 DUP4 SLOAD DIV MUL DUP4 MSTORE SWAP2 PUSH1 0x20 ADD SWAP2 PUSH2 0x1F15 JUMP JUMPDEST DUP3 ADD SWAP2 SWAP1 PUSH1 0x0 MSTORE PUSH1 0x20 PUSH1 0x0 KECCAK256 SWAP1 JUMPDEST DUP2 SLOAD DUP2 MSTORE SWAP1 PUSH1 0x1 ADD SWAP1 PUSH1 0x20 ADD DUP1 DUP4 GT PUSH2 0x1EF8 JUMPI DUP3 SWAP1 SUB PUSH1 0x1F AND DUP3 ADD SWAP2 JUMPDEST POP POP POP POP POP DUP2 JUMP JUMPDEST PUSH1 0x0 DUP1 PUSH1 0x4 PUSH1 0x0 DUP7 DUP2 MSTORE PUSH1 0x20 ADD SWAP1 DUP2 MSTORE PUSH1 0x20 ADD PUSH1 0x0 KECCAK256 SWAP1 POP PUSH1 0x0 DUP2 DUP1 SLOAD SWAP1 POP GT PUSH2 0x1F7C JUMPI PUSH1 0x40 MLOAD PUSH32 0x8C379A000000000000000000000000000000000000000000000000000000000 DUP2 MSTORE PUSH1 0x4 ADD PUSH2 0x1F73 SWAP1 PUSH2 0x2B62 JUMP JUMPDEST PUSH1 0x40 MLOAD DUP1 SWAP2 SUB SWAP1 REVERT JUMPDEST PUSH1 0x0 JUMPDEST DUP2 DUP1 SLOAD SWAP1 POP DUP2 LT ISZERO PUSH2 0x2340 JUMPI DUP5 DUP3 DUP3 DUP2 SLOAD DUP2 LT PUSH2 0x1F9F JUMPI PUSH2 0x1F9E PUSH2 0x3107 JUMP JUMPDEST JUMPDEST SWAP1 PUSH1 0x0 MSTORE PUSH1 0x20 PUSH1 0x0 KECCAK256 SWAP1 PUSH1 0x7 MUL ADD PUSH1 0x0 ADD SLOAD EQ ISZERO PUSH2 0x232D JUMPI DUP2 DUP2 DUP2 SLOAD DUP2 LT PUSH2 0x1FCA JUMPI PUSH2 0x1FC9 PUSH2 0x3107 JUMP JUMPDEST JUMPDEST SWAP1 PUSH1 0x0 MSTORE PUSH1 0x20 PUSH1 0x0 KECCAK256 SWAP1 PUSH1 0x7 MUL ADD PUSH1 0x4 ADD PUSH1 0x14 SWAP1 SLOAD SWAP1 PUSH2 0x100 EXP SWAP1 DIV PUSH1 0xFF AND ISZERO PUSH2 0x22E9 JUMPI DUP2 DUP2 DUP2 SLOAD DUP2 LT PUSH2 0x2001 JUMPI PUSH2 0x2000 PUSH2 0x3107 JUMP JUMPDEST JUMPDEST SWAP1 PUSH1 0x0 MSTORE PUSH1 0x20 PUSH1 0x0 KECCAK256 SWAP1 PUSH1 0x7 MUL ADD PUSH1 0x1 ADD SLOAD CALLVALUE LT ISZERO PUSH2 0x2055 JUMPI PUSH1 0x40 MLOAD PUSH32 0x8C379A000000000000000000000000000000000000000000000000000000000 DUP2 MSTORE PUSH1 0x4 ADD PUSH2 0x204C SWAP1 PUSH2 0x2BA2 JUMP JUMPDEST PUSH1 0x40 MLOAD DUP1 SWAP2 SUB SWAP1 REVERT JUMPDEST CALLVALUE DUP3 DUP3 DUP2 SLOAD DUP2 LT PUSH2 0x2069 JUMPI PUSH2 0x2068 PUSH2 0x3107 JUMP JUMPDEST JUMPDEST SWAP1 PUSH1 0x0 MSTORE PUSH1 0x20 PUSH1 0x0 KECCAK256 SWAP1 PUSH1 0x7 MUL ADD PUSH1 0x3 ADD SLOAD PUSH2 0x2085 SWAP2 SWAP1 PUSH2 0x2E88 JUMP JUMPDEST DUP3 DUP3 DUP2 SLOAD DUP2 LT PUSH2 0x2098 JUMPI PUSH2 0x2097 PUSH2 0x3107 JUMP JUMPDEST JUMPDEST SWAP1 PUSH1 0x0 MSTORE PUSH1 0x20 PUSH1 0x0 KECCAK256 SWAP1 PUSH1 0x7 MUL ADD PUSH1 0x3 ADD DUP2 SWAP1 SSTORE POP PUSH1 0x0 PUSH1 0x3 PUSH1 0x0 DUP7 DUP2 MSTORE PUSH1 0x20 ADD SWAP1 DUP2 MSTORE PUSH1 0x20 ADD PUSH1 0x0 KECCAK256 SWAP1 POP CALLER PUSH20 0xFFFFFFFFFFFFFFFFFFFFFFFFFFFFFFFFFFFFFFFF AND DUP2 PUSH1 0x1 ADD PUSH1 0x0 SWAP1 SLOAD SWAP1 PUSH2 0x100 EXP SWAP1 DIV PUSH20 0xFFFFFFFFFFFFFFFFFFFFFFFFFFFFFFFFFFFFFFFF AND PUSH20 0xFFFFFFFFFFFFFFFFFFFFFFFFFFFFFFFFFFFFFFFF AND EQ ISZERO PUSH2 0x214D JUMPI CALLVALUE DUP2 PUSH1 0x2 ADD PUSH1 0x0 DUP9 DUP2 MSTORE PUSH1 0x20 ADD SWAP1 DUP2 MSTORE PUSH1 0x20 ADD PUSH1 0x0 KECCAK256 PUSH1 0x0 DUP3 DUP3 SLOAD PUSH2 0x2141 SWAP2 SWAP1 PUSH2 0x2E88 JUMP JUMPDEST SWAP3 POP POP DUP2 SWAP1 SSTORE POP PUSH2 0x21CC JUMP JUMPDEST PUSH1 0x0 PUSH1 0x3 PUSH1 0x0 DUP8 DUP2 MSTORE PUSH1 0x20 ADD SWAP1 DUP2 MSTORE PUSH1 0x20 ADD PUSH1 0x0 KECCAK256 SWAP1 POP DUP6 DUP2 PUSH1 0x0 ADD DUP2 SWAP1 SSTORE POP CALLER DUP2 PUSH1 0x1 ADD PUSH1 0x0 PUSH2 0x100 EXP DUP2 SLOAD DUP2 PUSH20 0xFFFFFFFFFFFFFFFFFFFFFFFFFFFFFFFFFFFFFFFF MUL NOT AND SWAP1 DUP4 PUSH20 0xFFFFFFFFFFFFFFFFFFFFFFFFFFFFFFFFFFFFFFFF AND MUL OR SWAP1 SSTORE POP CALLVALUE DUP2 PUSH1 0x2 ADD PUSH1 0x0 DUP10 DUP2 MSTORE PUSH1 0x20 ADD SWAP1 DUP2 MSTORE PUSH1 0x20 ADD PUSH1 0x0 KECCAK256 DUP2 SWAP1 SSTORE POP POP JUMPDEST DUP3 DUP3 DUP2 SLOAD DUP2 LT PUSH2 0x21DF JUMPI PUSH2 0x21DE PUSH2 0x3107 JUMP JUMPDEST JUMPDEST SWAP1 PUSH1 0x0 MSTORE PUSH1 0x20 PUSH1 0x0 KECCAK256 SWAP1 PUSH1 0x7 MUL ADD PUSH1 0x2 ADD SLOAD DUP4 DUP4 DUP2 SLOAD DUP2 LT PUSH2 0x2204 JUMPI PUSH2 0x2203 PUSH2 0x3107 JUMP JUMPDEST JUMPDEST SWAP1 PUSH1 0x0 MSTORE PUSH1 0x20 PUSH1 0x0 KECCAK256 SWAP1 PUSH1 0x7 MUL ADD PUSH1 0x3 ADD SLOAD EQ ISZERO PUSH2 0x22E3 JUMPI PUSH1 0x3 DUP4 DUP4 DUP2 SLOAD DUP2 LT PUSH2 0x2231 JUMPI PUSH2 0x2230 PUSH2 0x3107 JUMP JUMPDEST JUMPDEST SWAP1 PUSH1 0x0 MSTORE PUSH1 0x20 PUSH1 0x0 KECCAK256 SWAP1 PUSH1 0x7 MUL ADD PUSH1 0x6 ADD PUSH1 0x0 PUSH2 0x100 EXP DUP2 SLOAD DUP2 PUSH1 0xFF MUL NOT AND SWAP1 DUP4 PUSH1 0x9 DUP2 GT ISZERO PUSH2 0x2264 JUMPI PUSH2 0x2263 PUSH2 0x30A9 JUMP JUMPDEST JUMPDEST MUL OR SWAP1 SSTORE POP PUSH1 0x0 DUP4 DUP4 DUP2 SLOAD DUP2 LT PUSH2 0x227E JUMPI PUSH2 0x227D PUSH2 0x3107 JUMP JUMPDEST JUMPDEST SWAP1 PUSH1 0x0 MSTORE PUSH1 0x20 PUSH1 0x0 KECCAK256 SWAP1 PUSH1 0x7 MUL ADD PUSH1 0x4 ADD PUSH1 0x14 PUSH2 0x100 EXP DUP2 SLOAD DUP2 PUSH1 0xFF MUL NOT AND SWAP1 DUP4 ISZERO ISZERO MUL OR SWAP1 SSTORE POP PUSH32 0x4460A3075D16E0C301975989C352ADF5EFEF3F00E4B1CD798431DDDDA7179E58 DUP8 DUP8 PUSH1 0x3 PUSH1 0x40 MLOAD PUSH2 0x22DA SWAP4 SWAP3 SWAP2 SWAP1 PUSH2 0x2D23 JUMP JUMPDEST PUSH1 0x40 MLOAD DUP1 SWAP2 SUB SWAP1 LOG1 JUMPDEST POP PUSH2 0x2324 JUMP JUMPDEST PUSH1 0x40 MLOAD PUSH32 0x8C379A000000000000000000000000000000000000000000000000000000000 DUP2 MSTORE PUSH1 0x4 ADD PUSH2 0x231B SWAP1 PUSH2 0x2CA2 JUMP JUMPDEST PUSH1 0x40 MLOAD DUP1 SWAP2 SUB SWAP1 REVERT JUMPDEST PUSH1 0x1 SWAP3 POP PUSH2 0x2340 JUMP JUMPDEST DUP1 DUP1 PUSH2 0x2338 SWAP1 PUSH2 0x3031 JUMP JUMPDEST SWAP2 POP POP PUSH2 0x1F7F JUMP JUMPDEST POP DUP2 PUSH2 0x2381 JUMPI PUSH1 0x40 MLOAD PUSH32 0x8C379A000000000000000000000000000000000000000000000000000000000 DUP2 MSTORE PUSH1 0x4 ADD PUSH2 0x2378 SWAP1 PUSH2 0x2C82 JUMP JUMPDEST PUSH1 0x40 MLOAD DUP1 SWAP2 SUB SWAP1 REVERT JUMPDEST POP POP POP POP POP JUMP JUMPDEST PUSH1 0x1 DUP2 DUP2 SLOAD DUP2 LT PUSH2 0x2398 JUMPI PUSH1 0x0 DUP1 REVERT JUMPDEST SWAP1 PUSH1 0x0 MSTORE PUSH1 0x20 PUSH1 0x0 KECCAK256 SWAP1 PUSH1 0x5 MUL ADD PUSH1 0x0 SWAP2 POP SWAP1 POP DUP1 PUSH1 0x0 ADD SLOAD SWAP1 DUP1 PUSH1 0x1 ADD PUSH1 0x0 SWAP1 SLOAD SWAP1 PUSH2 0x100 EXP SWAP1 DIV PUSH1 0xFF AND SWAP1 DUP1 PUSH1 0x2 ADD DUP1 SLOAD PUSH2 0x23D4 SWAP1 PUSH2 0x2FCE JUMP JUMPDEST DUP1 PUSH1 0x1F ADD PUSH1 0x20 DUP1 SWAP2 DIV MUL PUSH1 0x20 ADD PUSH1 0x40 MLOAD SWAP1 DUP2 ADD PUSH1 0x40 MSTORE DUP1 SWAP3 SWAP2 SWAP1 DUP2 DUP2 MSTORE PUSH1 0x20 ADD DUP3 DUP1 SLOAD PUSH2 0x2400 SWAP1 PUSH2 0x2FCE JUMP JUMPDEST DUP1 ISZERO PUSH2 0x244D JUMPI DUP1 PUSH1 0x1F LT PUSH2 0x2422 JUMPI PUSH2 0x100 DUP1 DUP4 SLOAD DIV MUL DUP4 MSTORE SWAP2 PUSH1 0x20 ADD SWAP2 PUSH2 0x244D JUMP JUMPDEST DUP3 ADD SWAP2 SWAP1 PUSH1 0x0 MSTORE PUSH1 0x20 PUSH1 0x0 KECCAK256 SWAP1 JUMPDEST DUP2 SLOAD DUP2 MSTORE SWAP1 PUSH1 0x1 ADD SWAP1 PUSH1 0x20 ADD DUP1 DUP4 GT PUSH2 0x2430 JUMPI DUP3 SWAP1 SUB PUSH1 0x1F AND DUP3 ADD SWAP2 JUMPDEST POP POP POP POP POP SWAP1 DUP1 PUSH1 0x3 ADD DUP1 SLOAD PUSH2 0x2462 SWAP1 PUSH2 0x2FCE JUMP JUMPDEST DUP1 PUSH1 0x1F ADD PUSH1 0x20 DUP1 SWAP2 DIV MUL PUSH1 0x20 ADD PUSH1 0x40 MLOAD SWAP1 DUP2 ADD PUSH1 0x40 MSTORE DUP1 SWAP3 SWAP2 SWAP1 DUP2 DUP2 MSTORE PUSH1 0x20 ADD DUP3 DUP1 SLOAD PUSH2 0x248E SWAP1 PUSH2 0x2FCE JUMP JUMPDEST DUP1 ISZERO PUSH2 0x24DB JUMPI DUP1 PUSH1 0x1F LT PUSH2 0x24B0 JUMPI PUSH2 0x100 DUP1 DUP4 SLOAD DIV MUL DUP4 MSTORE SWAP2 PUSH1 0x20 ADD SWAP2 PUSH2 0x24DB JUMP JUMPDEST DUP3 ADD SWAP2 SWAP1 PUSH1 0x0 MSTORE PUSH1 0x20 PUSH1 0x0 KECCAK256 SWAP1 JUMPDEST DUP2 SLOAD DUP2 MSTORE SWAP1 PUSH1 0x1 ADD SWAP1 PUSH1 0x20 ADD DUP1 DUP4 GT PUSH2 0x24BE JUMPI DUP3 SWAP1 SUB PUSH1 0x1F AND DUP3 ADD SWAP2 JUMPDEST POP POP POP POP POP SWAP1 DUP1 PUSH1 0x4 ADD PUSH1 0x0 SWAP1 SLOAD SWAP1 PUSH2 0x100 EXP SWAP1 DIV PUSH20 0xFFFFFFFFFFFFFFFFFFFFFFFFFFFFFFFFFFFFFFFF AND SWAP1 POP DUP6 JUMP JUMPDEST DUP3 DUP1 SLOAD PUSH2 0x2517 SWAP1 PUSH2 0x2FCE JUMP JUMPDEST SWAP1 PUSH1 0x0 MSTORE PUSH1 0x20 PUSH1 0x0 KECCAK256 SWAP1 PUSH1 0x1F ADD PUSH1 0x20 SWAP1 DIV DUP2 ADD SWAP3 DUP3 PUSH2 0x2539 JUMPI PUSH1 0x0 DUP6 SSTORE PUSH2 0x2580 JUMP JUMPDEST DUP3 PUSH1 0x1F LT PUSH2 0x2552 JUMPI DUP1 MLOAD PUSH1 0xFF NOT AND DUP4 DUP1 ADD OR DUP6 SSTORE PUSH2 0x2580 JUMP JUMPDEST DUP3 DUP1 ADD PUSH1 0x1 ADD DUP6 SSTORE DUP3 ISZERO PUSH2 0x2580 JUMPI SWAP2 DUP3 ADD JUMPDEST DUP3 DUP2 GT ISZERO PUSH2 0x257F JUMPI DUP3 MLOAD DUP3 SSTORE SWAP2 PUSH1 0x20 ADD SWAP2 SWAP1 PUSH1 0x1 ADD SWAP1 PUSH2 0x2564 JUMP JUMPDEST JUMPDEST POP SWAP1 POP PUSH2 0x258D SWAP2 SWAP1 PUSH2 0x2591 JUMP JUMPDEST POP SWAP1 JUMP JUMPDEST JUMPDEST DUP1 DUP3 GT ISZERO PUSH2 0x25AA JUMPI PUSH1 0x0 DUP2 PUSH1 0x0 SWAP1 SSTORE POP PUSH1 0x1 ADD PUSH2 0x2592 JUMP JUMPDEST POP SWAP1 JUMP JUMPDEST PUSH1 0x0 PUSH2 0x25C1 PUSH2 0x25BC DUP5 PUSH2 0x2E3B JUMP JUMPDEST PUSH2 0x2E16 JUMP JUMPDEST SWAP1 POP DUP3 DUP2 MSTORE PUSH1 0x20 DUP2 ADD DUP5 DUP5 DUP5 ADD GT ISZERO PUSH2 0x25DD JUMPI PUSH2 0x25DC PUSH2 0x316A JUMP JUMPDEST JUMPDEST PUSH2 0x25E8 DUP5 DUP3 DUP6 PUSH2 0x2F8C JUMP JUMPDEST POP SWAP4 SWAP3 POP POP POP JUMP JUMPDEST PUSH1 0x0 DUP2 CALLDATALOAD SWAP1 POP PUSH2 0x25FF DUP2 PUSH2 0x3491 JUMP JUMPDEST SWAP3 SWAP2 POP POP JUMP JUMPDEST PUSH1 0x0 DUP2 CALLDATALOAD SWAP1 POP PUSH2 0x2614 DUP2 PUSH2 0x34A8 JUMP JUMPDEST SWAP3 SWAP2 POP POP JUMP JUMPDEST PUSH1 0x0 DUP3 PUSH1 0x1F DUP4 ADD SLT PUSH2 0x262F JUMPI PUSH2 0x262E PUSH2 0x3165 JUMP JUMPDEST JUMPDEST DUP2 CALLDATALOAD PUSH2 0x263F DUP5 DUP3 PUSH1 0x20 DUP7 ADD PUSH2 0x25AE JUMP JUMPDEST SWAP2 POP POP SWAP3 SWAP2 POP POP JUMP JUMPDEST PUSH1 0x0 DUP2 CALLDATALOAD SWAP1 POP PUSH2 0x2657 DUP2 PUSH2 0x34B8 JUMP JUMPDEST SWAP3 SWAP2 POP POP JUMP JUMPDEST PUSH1 0x0 DUP2 CALLDATALOAD SWAP1 POP PUSH2 0x266C DUP2 PUSH2 0x34CF JUMP JUMPDEST SWAP3 SWAP2 POP POP JUMP JUMPDEST PUSH1 0x0 PUSH1 0x20 DUP3 DUP5 SUB SLT ISZERO PUSH2 0x2688 JUMPI PUSH2 0x2687 PUSH2 0x3174 JUMP JUMPDEST JUMPDEST PUSH1 0x0 PUSH2 0x2696 DUP5 DUP3 DUP6 ADD PUSH2 0x2605 JUMP JUMPDEST SWAP2 POP POP SWAP3 SWAP2 POP POP JUMP JUMPDEST PUSH1 0x0 PUSH1 0x20 DUP3 DUP5 SUB SLT ISZERO PUSH2 0x26B5 JUMPI PUSH2 0x26B4 PUSH2 0x3174 JUMP JUMPDEST JUMPDEST PUSH1 0x0 PUSH2 0x26C3 DUP5 DUP3 DUP6 ADD PUSH2 0x2648 JUMP JUMPDEST SWAP2 POP POP SWAP3 SWAP2 POP POP JUMP JUMPDEST PUSH1 0x0 DUP1 PUSH1 0x40 DUP4 DUP6 SUB SLT ISZERO PUSH2 0x26E3 JUMPI PUSH2 0x26E2 PUSH2 0x3174 JUMP JUMPDEST JUMPDEST PUSH1 0x0 PUSH2 0x26F1 DUP6 DUP3 DUP7 ADD PUSH2 0x2648 JUMP JUMPDEST SWAP3 POP POP PUSH1 0x20 DUP4 ADD CALLDATALOAD PUSH8 0xFFFFFFFFFFFFFFFF DUP2 GT ISZERO PUSH2 0x2712 JUMPI PUSH2 0x2711 PUSH2 0x316F JUMP JUMPDEST JUMPDEST PUSH2 0x271E DUP6 DUP3 DUP7 ADD PUSH2 0x261A JUMP JUMPDEST SWAP2 POP POP SWAP3 POP SWAP3 SWAP1 POP JUMP JUMPDEST PUSH1 0x0 DUP1 PUSH1 0x0 PUSH1 0x60 DUP5 DUP7 SUB SLT ISZERO PUSH2 0x2741 JUMPI PUSH2 0x2740 PUSH2 0x3174 JUMP JUMPDEST JUMPDEST PUSH1 0x0 PUSH2 0x274F DUP7 DUP3 DUP8 ADD PUSH2 0x2648 JUMP JUMPDEST SWAP4 POP POP PUSH1 0x20 DUP5 ADD CALLDATALOAD PUSH8 0xFFFFFFFFFFFFFFFF DUP2 GT ISZERO PUSH2 0x2770 JUMPI PUSH2 0x276F PUSH2 0x316F JUMP JUMPDEST JUMPDEST PUSH2 0x277C DUP7 DUP3 DUP8 ADD PUSH2 0x261A JUMP JUMPDEST SWAP3 POP POP PUSH1 0x40 PUSH2 0x278D DUP7 DUP3 DUP8 ADD PUSH2 0x25F0 JUMP JUMPDEST SWAP2 POP POP SWAP3 POP SWAP3 POP SWAP3 JUMP JUMPDEST PUSH1 0x0 DUP1 PUSH1 0x40 DUP4 DUP6 SUB SLT ISZERO PUSH2 0x27AE JUMPI PUSH2 0x27AD PUSH2 0x3174 JUMP JUMPDEST JUMPDEST PUSH1 0x0 PUSH2 0x27BC DUP6 DUP3 DUP7 ADD PUSH2 0x2648 JUMP JUMPDEST SWAP3 POP POP PUSH1 0x20 PUSH2 0x27CD DUP6 DUP3 DUP7 ADD PUSH2 0x2648 JUMP JUMPDEST SWAP2 POP POP SWAP3 POP SWAP3 SWAP1 POP JUMP JUMPDEST PUSH1 0x0 DUP1 PUSH1 0x0 PUSH1 0x60 DUP5 DUP7 SUB SLT ISZERO PUSH2 0x27F0 JUMPI PUSH2 0x27EF PUSH2 0x3174 JUMP JUMPDEST JUMPDEST PUSH1 0x0 PUSH2 0x27FE DUP7 DUP3 DUP8 ADD PUSH2 0x2648 JUMP JUMPDEST SWAP4 POP POP PUSH1 0x20 PUSH2 0x280F DUP7 DUP3 DUP8 ADD PUSH2 0x2648 JUMP JUMPDEST SWAP3 POP POP PUSH1 0x40 PUSH2 0x2820 DUP7 DUP3 DUP8 ADD PUSH2 0x2648 JUMP JUMPDEST SWAP2 POP POP SWAP3 POP SWAP3 POP SWAP3 JUMP JUMPDEST PUSH1 0x0 DUP1 PUSH1 0x0 DUP1 PUSH1 0x0 PUSH1 0xA0 DUP7 DUP9 SUB SLT ISZERO PUSH2 0x2846 JUMPI PUSH2 0x2845 PUSH2 0x3174 JUMP JUMPDEST JUMPDEST PUSH1 0x0 PUSH2 0x2854 DUP9 DUP3 DUP10 ADD PUSH2 0x2648 JUMP JUMPDEST SWAP6 POP POP PUSH1 0x20 PUSH2 0x2865 DUP9 DUP3 DUP10 ADD PUSH2 0x2648 JUMP JUMPDEST SWAP5 POP POP PUSH1 0x40 PUSH2 0x2876 DUP9 DUP3 DUP10 ADD PUSH2 0x2648 JUMP JUMPDEST SWAP4 POP POP PUSH1 0x60 PUSH2 0x2887 DUP9 DUP3 DUP10 ADD PUSH2 0x25F0 JUMP JUMPDEST SWAP3 POP POP PUSH1 0x80 DUP7 ADD CALLDATALOAD PUSH8 0xFFFFFFFFFFFFFFFF DUP2 GT ISZERO PUSH2 0x28A8 JUMPI PUSH2 0x28A7 PUSH2 0x316F JUMP JUMPDEST JUMPDEST PUSH2 0x28B4 DUP9 DUP3 DUP10 ADD PUSH2 0x261A JUMP JUMPDEST SWAP2 POP POP SWAP3 SWAP6 POP SWAP3 SWAP6 SWAP1 SWAP4 POP JUMP JUMPDEST PUSH1 0x0 DUP1 PUSH1 0x0 PUSH1 0x60 DUP5 DUP7 SUB SLT ISZERO PUSH2 0x28DA JUMPI PUSH2 0x28D9 PUSH2 0x3174 JUMP JUMPDEST JUMPDEST PUSH1 0x0 PUSH2 0x28E8 DUP7 DUP3 DUP8 ADD PUSH2 0x2648 JUMP JUMPDEST SWAP4 POP POP PUSH1 0x20 PUSH2 0x28F9 DUP7 DUP3 DUP8 ADD PUSH2 0x2648 JUMP JUMPDEST SWAP3 POP POP PUSH1 0x40 PUSH2 0x290A DUP7 DUP3 DUP8 ADD PUSH2 0x265D JUMP JUMPDEST SWAP2 POP POP SWAP3 POP SWAP3 POP SWAP3 JUMP JUMPDEST PUSH2 0x291D DUP2 PUSH2 0x2F12 JUMP JUMPDEST DUP3 MSTORE POP POP JUMP JUMPDEST PUSH2 0x292C DUP2 PUSH2 0x2F24 JUMP JUMPDEST DUP3 MSTORE POP POP JUMP JUMPDEST PUSH2 0x293B DUP2 PUSH2 0x2F7A JUMP JUMPDEST DUP3 MSTORE POP POP JUMP JUMPDEST PUSH1 0x0 PUSH2 0x294C DUP3 PUSH2 0x2E6C JUMP JUMPDEST PUSH2 0x2956 DUP2 DUP6 PUSH2 0x2E77 JUMP JUMPDEST SWAP4 POP PUSH2 0x2966 DUP2 DUP6 PUSH1 0x20 DUP7 ADD PUSH2 0x2F9B JUMP JUMPDEST PUSH2 0x296F DUP2 PUSH2 0x3179 JUMP JUMPDEST DUP5 ADD SWAP2 POP POP SWAP3 SWAP2 POP POP JUMP JUMPDEST PUSH1 0x0 PUSH2 0x2987 PUSH1 0x11 DUP4 PUSH2 0x2E77 JUMP JUMPDEST SWAP2 POP PUSH2 0x2992 DUP3 PUSH2 0x318A JUMP JUMPDEST PUSH1 0x20 DUP3 ADD SWAP1 POP SWAP2 SWAP1 POP JUMP JUMPDEST PUSH1 0x0 PUSH2 0x29AA PUSH1 0x28 DUP4 PUSH2 0x2E77 JUMP JUMPDEST SWAP2 POP PUSH2 0x29B5 DUP3 PUSH2 0x31B3 JUMP JUMPDEST PUSH1 0x40 DUP3 ADD SWAP1 POP SWAP2 SWAP1 POP JUMP JUMPDEST PUSH1 0x0 PUSH2 0x29CD PUSH1 0x25 DUP4 PUSH2 0x2E77 JUMP JUMPDEST SWAP2 POP PUSH2 0x29D8 DUP3 PUSH2 0x3202 JUMP JUMPDEST PUSH1 0x40 DUP3 ADD SWAP1 POP SWAP2 SWAP1 POP JUMP JUMPDEST PUSH1 0x0 PUSH2 0x29F0 PUSH1 0x41 DUP4 PUSH2 0x2E77 JUMP JUMPDEST SWAP2 POP PUSH2 0x29FB DUP3 PUSH2 0x3251 JUMP JUMPDEST PUSH1 0x60 DUP3 ADD SWAP1 POP SWAP2 SWAP1 POP JUMP JUMPDEST PUSH1 0x0 PUSH2 0x2A13 PUSH1 0x15 DUP4 PUSH2 0x2E77 JUMP JUMPDEST SWAP2 POP PUSH2 0x2A1E DUP3 PUSH2 0x32C6 JUMP JUMPDEST PUSH1 0x20 DUP3 ADD SWAP1 POP SWAP2 SWAP1 POP JUMP JUMPDEST PUSH1 0x0 PUSH2 0x2A36 PUSH1 0x1B DUP4 PUSH2 0x2E77 JUMP JUMPDEST SWAP2 POP PUSH2 0x2A41 DUP3 PUSH2 0x32EF JUMP JUMPDEST PUSH1 0x20 DUP3 ADD SWAP1 POP SWAP2 SWAP1 POP JUMP JUMPDEST PUSH1 0x0 PUSH2 0x2A59 PUSH1 0x23 DUP4 PUSH2 0x2E77 JUMP JUMPDEST SWAP2 POP PUSH2 0x2A64 DUP3 PUSH2 0x3318 JUMP JUMPDEST PUSH1 0x40 DUP3 ADD SWAP1 POP SWAP2 SWAP1 POP JUMP JUMPDEST PUSH1 0x0 PUSH2 0x2A7C PUSH1 0x15 DUP4 PUSH2 0x2E77 JUMP JUMPDEST SWAP2 POP PUSH2 0x2A87 DUP3 PUSH2 0x3367 JUMP JUMPDEST PUSH1 0x20 DUP3 ADD SWAP1 POP SWAP2 SWAP1 POP JUMP JUMPDEST PUSH1 0x0 PUSH2 0x2A9F PUSH1 0x25 DUP4 PUSH2 0x2E77 JUMP JUMPDEST SWAP2 POP PUSH2 0x2AAA DUP3 PUSH2 0x3390 JUMP JUMPDEST PUSH1 0x40 DUP3 ADD SWAP1 POP SWAP2 SWAP1 POP JUMP JUMPDEST PUSH1 0x0 PUSH2 0x2AC2 PUSH1 0x28 DUP4 PUSH2 0x2E77 JUMP JUMPDEST SWAP2 POP PUSH2 0x2ACD DUP3 PUSH2 0x33DF JUMP JUMPDEST PUSH1 0x40 DUP3 ADD SWAP1 POP SWAP2 SWAP1 POP JUMP JUMPDEST PUSH1 0x0 PUSH2 0x2AE5 PUSH1 0x2C DUP4 PUSH2 0x2E77 JUMP JUMPDEST SWAP2 POP PUSH2 0x2AF0 DUP3 PUSH2 0x342E JUMP JUMPDEST PUSH1 0x40 DUP3 ADD SWAP1 POP SWAP2 SWAP1 POP JUMP JUMPDEST PUSH2 0x2B04 DUP2 PUSH2 0x2F63 JUMP JUMPDEST DUP3 MSTORE POP POP JUMP JUMPDEST PUSH1 0x0 PUSH1 0x20 DUP3 ADD SWAP1 POP PUSH2 0x2B1F PUSH1 0x0 DUP4 ADD DUP5 PUSH2 0x2914 JUMP JUMPDEST SWAP3 SWAP2 POP POP JUMP JUMPDEST PUSH1 0x0 PUSH1 0x20 DUP3 ADD SWAP1 POP PUSH2 0x2B3A PUSH1 0x0 DUP4 ADD DUP5 PUSH2 0x2932 JUMP JUMPDEST SWAP3 SWAP2 POP POP JUMP JUMPDEST PUSH1 0x0 PUSH1 0x20 DUP3 ADD SWAP1 POP DUP2 DUP2 SUB PUSH1 0x0 DUP4 ADD MSTORE PUSH2 0x2B5A DUP2 DUP5 PUSH2 0x2941 JUMP JUMPDEST SWAP1 POP SWAP3 SWAP2 POP POP JUMP JUMPDEST PUSH1 0x0 PUSH1 0x20 DUP3 ADD SWAP1 POP DUP2 DUP2 SUB PUSH1 0x0 DUP4 ADD MSTORE PUSH2 0x2B7B DUP2 PUSH2 0x297A JUMP JUMPDEST SWAP1 POP SWAP2 SWAP1 POP JUMP JUMPDEST PUSH1 0x0 PUSH1 0x20 DUP3 ADD SWAP1 POP DUP2 DUP2 SUB PUSH1 0x0 DUP4 ADD MSTORE PUSH2 0x2B9B DUP2 PUSH2 0x299D JUMP JUMPDEST SWAP1 POP SWAP2 SWAP1 POP JUMP JUMPDEST PUSH1 0x0 PUSH1 0x20 DUP3 ADD SWAP1 POP DUP2 DUP2 SUB PUSH1 0x0 DUP4 ADD MSTORE PUSH2 0x2BBB DUP2 PUSH2 0x29C0 JUMP JUMPDEST SWAP1 POP SWAP2 SWAP1 POP JUMP JUMPDEST PUSH1 0x0 PUSH1 0x20 DUP3 ADD SWAP1 POP DUP2 DUP2 SUB PUSH1 0x0 DUP4 ADD MSTORE PUSH2 0x2BDB DUP2 PUSH2 0x29E3 JUMP JUMPDEST SWAP1 POP SWAP2 SWAP1 POP JUMP JUMPDEST PUSH1 0x0 PUSH1 0x20 DUP3 ADD SWAP1 POP DUP2 DUP2 SUB PUSH1 0x0 DUP4 ADD MSTORE PUSH2 0x2BFB DUP2 PUSH2 0x2A06 JUMP JUMPDEST SWAP1 POP SWAP2 SWAP1 POP JUMP JUMPDEST PUSH1 0x0 PUSH1 0x20 DUP3 ADD SWAP1 POP DUP2 DUP2 SUB PUSH1 0x0 DUP4 ADD MSTORE PUSH2 0x2C1B DUP2 PUSH2 0x2A29 JUMP JUMPDEST SWAP1 POP SWAP2 SWAP1 POP JUMP JUMPDEST PUSH1 0x0 PUSH1 0x20 DUP3 ADD SWAP1 POP DUP2 DUP2 SUB PUSH1 0x0 DUP4 ADD MSTORE PUSH2 0x2C3B DUP2 PUSH2 0x2A4C JUMP JUMPDEST SWAP1 POP SWAP2 SWAP1 POP JUMP JUMPDEST PUSH1 0x0 PUSH1 0x20 DUP3 ADD SWAP1 POP DUP2 DUP2 SUB PUSH1 0x0 DUP4 ADD MSTORE PUSH2 0x2C5B DUP2 PUSH2 0x2A6F JUMP JUMPDEST SWAP1 POP SWAP2 SWAP1 POP JUMP JUMPDEST PUSH1 0x0 PUSH1 0x20 DUP3 ADD SWAP1 POP DUP2 DUP2 SUB PUSH1 0x0 DUP4 ADD MSTORE PUSH2 0x2C7B DUP2 PUSH2 0x2A92 JUMP JUMPDEST SWAP1 POP SWAP2 SWAP1 POP JUMP JUMPDEST PUSH1 0x0 PUSH1 0x20 DUP3 ADD SWAP1 POP DUP2 DUP2 SUB PUSH1 0x0 DUP4 ADD MSTORE PUSH2 0x2C9B DUP2 PUSH2 0x2AB5 JUMP JUMPDEST SWAP1 POP SWAP2 SWAP1 POP JUMP JUMPDEST PUSH1 0x0 PUSH1 0x20 DUP3 ADD SWAP1 POP DUP2 DUP2 SUB PUSH1 0x0 DUP4 ADD MSTORE PUSH2 0x2CBB DUP2 PUSH2 0x2AD8 JUMP JUMPDEST SWAP1 POP SWAP2 SWAP1 POP JUMP JUMPDEST PUSH1 0x0 PUSH1 0xA0 DUP3 ADD SWAP1 POP PUSH2 0x2CD7 PUSH1 0x0 DUP4 ADD DUP9 PUSH2 0x2AFB JUMP JUMPDEST PUSH2 0x2CE4 PUSH1 0x20 DUP4 ADD DUP8 PUSH2 0x2923 JUMP JUMPDEST DUP2 DUP2 SUB PUSH1 0x40 DUP4 ADD MSTORE PUSH2 0x2CF6 DUP2 DUP7 PUSH2 0x2941 JUMP JUMPDEST SWAP1 POP DUP2 DUP2 SUB PUSH1 0x60 DUP4 ADD MSTORE PUSH2 0x2D0A DUP2 DUP6 PUSH2 0x2941 JUMP JUMPDEST SWAP1 POP PUSH2 0x2D19 PUSH1 0x80 DUP4 ADD DUP5 PUSH2 0x2914 JUMP JUMPDEST SWAP7 SWAP6 POP POP POP POP POP POP JUMP JUMPDEST PUSH1 0x0 PUSH1 0x60 DUP3 ADD SWAP1 POP PUSH2 0x2D38 PUSH1 0x0 DUP4 ADD DUP7 PUSH2 0x2AFB JUMP JUMPDEST PUSH2 0x2D45 PUSH1 0x20 DUP4 ADD DUP6 PUSH2 0x2AFB JUMP JUMPDEST PUSH2 0x2D52 PUSH1 0x40 DUP4 ADD DUP5 PUSH2 0x2932 JUMP JUMPDEST SWAP5 SWAP4 POP POP POP POP JUMP JUMPDEST PUSH1 0x0 PUSH1 0x60 DUP3 ADD SWAP1 POP PUSH2 0x2D6F PUSH1 0x0 DUP4 ADD DUP7 PUSH2 0x2AFB JUMP JUMPDEST PUSH2 0x2D7C PUSH1 0x20 DUP4 ADD DUP6 PUSH2 0x2AFB JUMP JUMPDEST PUSH2 0x2D89 PUSH1 0x40 DUP4 ADD DUP5 PUSH2 0x2AFB JUMP JUMPDEST SWAP5 SWAP4 POP POP POP POP JUMP JUMPDEST PUSH1 0x0 PUSH2 0x100 DUP3 ADD SWAP1 POP PUSH2 0x2DA7 PUSH1 0x0 DUP4 ADD DUP12 PUSH2 0x2AFB JUMP JUMPDEST PUSH2 0x2DB4 PUSH1 0x20 DUP4 ADD DUP11 PUSH2 0x2AFB JUMP JUMPDEST PUSH2 0x2DC1 PUSH1 0x40 DUP4 ADD DUP10 PUSH2 0x2AFB JUMP JUMPDEST PUSH2 0x2DCE PUSH1 0x60 DUP4 ADD DUP9 PUSH2 0x2AFB JUMP JUMPDEST PUSH2 0x2DDB PUSH1 0x80 DUP4 ADD DUP8 PUSH2 0x2914 JUMP JUMPDEST PUSH2 0x2DE8 PUSH1 0xA0 DUP4 ADD DUP7 PUSH2 0x2923 JUMP JUMPDEST DUP2 DUP2 SUB PUSH1 0xC0 DUP4 ADD MSTORE PUSH2 0x2DFA DUP2 DUP6 PUSH2 0x2941 JUMP JUMPDEST SWAP1 POP PUSH2 0x2E09 PUSH1 0xE0 DUP4 ADD DUP5 PUSH2 0x2932 JUMP JUMPDEST SWAP10 SWAP9 POP POP POP POP POP POP POP POP POP JUMP JUMPDEST PUSH1 0x0 PUSH2 0x2E20 PUSH2 0x2E31 JUMP JUMPDEST SWAP1 POP PUSH2 0x2E2C DUP3 DUP3 PUSH2 0x3000 JUMP JUMPDEST SWAP2 SWAP1 POP JUMP JUMPDEST PUSH1 0x0 PUSH1 0x40 MLOAD SWAP1 POP SWAP1 JUMP JUMPDEST PUSH1 0x0 PUSH8 0xFFFFFFFFFFFFFFFF DUP3 GT ISZERO PUSH2 0x2E56 JUMPI PUSH2 0x2E55 PUSH2 0x3136 JUMP JUMPDEST JUMPDEST PUSH2 0x2E5F DUP3 PUSH2 0x3179 JUMP JUMPDEST SWAP1 POP PUSH1 0x20 DUP2 ADD SWAP1 POP SWAP2 SWAP1 POP JUMP JUMPDEST PUSH1 0x0 DUP2 MLOAD SWAP1 POP SWAP2 SWAP1 POP JUMP JUMPDEST PUSH1 0x0 DUP3 DUP3 MSTORE PUSH1 0x20 DUP3 ADD SWAP1 POP SWAP3 SWAP2 POP POP JUMP JUMPDEST PUSH1 0x0 PUSH2 0x2E93 DUP3 PUSH2 0x2F63 JUMP JUMPDEST SWAP2 POP PUSH2 0x2E9E DUP4 PUSH2 0x2F63 JUMP JUMPDEST SWAP3 POP DUP3 PUSH32 0xFFFFFFFFFFFFFFFFFFFFFFFFFFFFFFFFFFFFFFFFFFFFFFFFFFFFFFFFFFFFFFFF SUB DUP3 GT ISZERO PUSH2 0x2ED3 JUMPI PUSH2 0x2ED2 PUSH2 0x307A JUMP JUMPDEST JUMPDEST DUP3 DUP3 ADD SWAP1 POP SWAP3 SWAP2 POP POP JUMP JUMPDEST PUSH1 0x0 PUSH2 0x2EE9 DUP3 PUSH2 0x2F63 JUMP JUMPDEST SWAP2 POP PUSH2 0x2EF4 DUP4 PUSH2 0x2F63 JUMP JUMPDEST SWAP3 POP DUP3 DUP3 LT ISZERO PUSH2 0x2F07 JUMPI PUSH2 0x2F06 PUSH2 0x307A JUMP JUMPDEST JUMPDEST DUP3 DUP3 SUB SWAP1 POP SWAP3 SWAP2 POP POP JUMP JUMPDEST PUSH1 0x0 PUSH2 0x2F1D DUP3 PUSH2 0x2F43 JUMP JUMPDEST SWAP1 POP SWAP2 SWAP1 POP JUMP JUMPDEST PUSH1 0x0 DUP2 ISZERO ISZERO SWAP1 POP SWAP2 SWAP1 POP JUMP JUMPDEST PUSH1 0x0 DUP2 SWAP1 POP PUSH2 0x2F3E DUP3 PUSH2 0x347D JUMP JUMPDEST SWAP2 SWAP1 POP JUMP JUMPDEST PUSH1 0x0 PUSH20 0xFFFFFFFFFFFFFFFFFFFFFFFFFFFFFFFFFFFFFFFF DUP3 AND SWAP1 POP SWAP2 SWAP1 POP JUMP JUMPDEST PUSH1 0x0 DUP2 SWAP1 POP SWAP2 SWAP1 POP JUMP JUMPDEST PUSH1 0x0 PUSH1 0xFF DUP3 AND SWAP1 POP SWAP2 SWAP1 POP JUMP JUMPDEST PUSH1 0x0 PUSH2 0x2F85 DUP3 PUSH2 0x2F30 JUMP JUMPDEST SWAP1 POP SWAP2 SWAP1 POP JUMP JUMPDEST DUP3 DUP2 DUP4 CALLDATACOPY PUSH1 0x0 DUP4 DUP4 ADD MSTORE POP POP POP JUMP JUMPDEST PUSH1 0x0 JUMPDEST DUP4 DUP2 LT ISZERO PUSH2 0x2FB9 JUMPI DUP1 DUP3 ADD MLOAD DUP2 DUP5 ADD MSTORE PUSH1 0x20 DUP2 ADD SWAP1 POP PUSH2 0x2F9E JUMP JUMPDEST DUP4 DUP2 GT ISZERO PUSH2 0x2FC8 JUMPI PUSH1 0x0 DUP5 DUP5 ADD MSTORE JUMPDEST POP POP POP POP JUMP JUMPDEST PUSH1 0x0 PUSH1 0x2 DUP3 DIV SWAP1 POP PUSH1 0x1 DUP3 AND DUP1 PUSH2 0x2FE6 JUMPI PUSH1 0x7F DUP3 AND SWAP2 POP JUMPDEST PUSH1 0x20 DUP3 LT DUP2 EQ ISZERO PUSH2 0x2FFA JUMPI PUSH2 0x2FF9 PUSH2 0x30D8 JUMP JUMPDEST JUMPDEST POP SWAP2 SWAP1 POP JUMP JUMPDEST PUSH2 0x3009 DUP3 PUSH2 0x3179 JUMP JUMPDEST DUP2 ADD DUP2 DUP2 LT PUSH8 0xFFFFFFFFFFFFFFFF DUP3 GT OR ISZERO PUSH2 0x3028 JUMPI PUSH2 0x3027 PUSH2 0x3136 JUMP JUMPDEST JUMPDEST DUP1 PUSH1 0x40 MSTORE POP POP POP JUMP JUMPDEST PUSH1 0x0 PUSH2 0x303C DUP3 PUSH2 0x2F63 JUMP JUMPDEST SWAP2 POP PUSH32 0xFFFFFFFFFFFFFFFFFFFFFFFFFFFFFFFFFFFFFFFFFFFFFFFFFFFFFFFFFFFFFFFF DUP3 EQ ISZERO PUSH2 0x306F JUMPI PUSH2 0x306E PUSH2 0x307A JUMP JUMPDEST JUMPDEST PUSH1 0x1 DUP3 ADD SWAP1 POP SWAP2 SWAP1 POP JUMP JUMPDEST PUSH32 0x4E487B7100000000000000000000000000000000000000000000000000000000 PUSH1 0x0 MSTORE PUSH1 0x11 PUSH1 0x4 MSTORE PUSH1 0x24 PUSH1 0x0 REVERT JUMPDEST PUSH32 0x4E487B7100000000000000000000000000000000000000000000000000000000 PUSH1 0x0 MSTORE PUSH1 0x21 PUSH1 0x4 MSTORE PUSH1 0x24 PUSH1 0x0 REVERT JUMPDEST PUSH32 0x4E487B7100000000000000000000000000000000000000000000000000000000 PUSH1 0x0 MSTORE PUSH1 0x22 PUSH1 0x4 MSTORE PUSH1 0x24 PUSH1 0x0 REVERT JUMPDEST PUSH32 0x4E487B7100000000000000000000000000000000000000000000000000000000 PUSH1 0x0 MSTORE PUSH1 0x32 PUSH1 0x4 MSTORE PUSH1 0x24 PUSH1 0x0 REVERT JUMPDEST PUSH32 0x4E487B7100000000000000000000000000000000000000000000000000000000 PUSH1 0x0 MSTORE PUSH1 0x41 PUSH1 0x4 MSTORE PUSH1 0x24 PUSH1 0x0 REVERT JUMPDEST PUSH1 0x0 DUP1 REVERT JUMPDEST PUSH1 0x0 DUP1 REVERT JUMPDEST PUSH1 0x0 DUP1 REVERT JUMPDEST PUSH1 0x0 DUP1 REVERT JUMPDEST PUSH1 0x0 PUSH1 0x1F NOT PUSH1 0x1F DUP4 ADD AND SWAP1 POP SWAP2 SWAP1 POP JUMP JUMPDEST PUSH32 0x43686172697479206E6F7420666F756E64000000000000000000000000000000 PUSH1 0x0 DUP3 ADD MSTORE POP JUMP JUMPDEST PUSH32 0x596F7520686176656E277420636F6E747269627574656420666F722074686973 PUSH1 0x0 DUP3 ADD MSTORE PUSH32 0x2070726F6A656374000000000000000000000000000000000000000000000000 PUSH1 0x20 DUP3 ADD MSTORE POP JUMP JUMPDEST PUSH32 0x53686F756C642062652067726561746572207468616E206D696E696D756D2061 PUSH1 0x0 DUP3 ADD MSTORE PUSH32 0x6D6F756E74000000000000000000000000000000000000000000000000000000 PUSH1 0x20 DUP3 ADD MSTORE POP JUMP JUMPDEST PUSH32 0x43616E277420726566756E642061732065786368616E67652072657175657374 PUSH1 0x0 DUP3 ADD MSTORE PUSH32 0x2077617320616C726561647920696E69746961746564207769746820626F6172 PUSH1 0x20 DUP3 ADD MSTORE PUSH32 0x6400000000000000000000000000000000000000000000000000000000000000 PUSH1 0x40 DUP3 ADD MSTORE POP JUMP JUMPDEST PUSH32 0x50726F6A65637420646F65736E27742065786973740000000000000000000000 PUSH1 0x0 DUP3 ADD MSTORE POP JUMP JUMPDEST PUSH32 0x43686172697479206973206E6F742079657420617070726F7665640000000000 PUSH1 0x0 DUP3 ADD MSTORE POP JUMP JUMPDEST PUSH32 0x4E6F2070726F6A65637420657869737420756E64657220746869732063686172 PUSH1 0x0 DUP3 ADD MSTORE PUSH32 0x6974790000000000000000000000000000000000000000000000000000000000 PUSH1 0x20 DUP3 ADD MSTORE POP JUMP JUMPDEST PUSH32 0x4368617269747920646F65736E27742065786973740000000000000000000000 PUSH1 0x0 DUP3 ADD MSTORE POP JUMP JUMPDEST PUSH32 0x4E6F2070726F6A65637420657869737420756E64657220746869732070726F6A PUSH1 0x0 DUP3 ADD MSTORE PUSH32 0x6563744964000000000000000000000000000000000000000000000000000000 PUSH1 0x20 DUP3 ADD MSTORE POP JUMP JUMPDEST PUSH32 0x4E6F20737563682070726F6A65637420657869737420756E6465722074686973 PUSH1 0x0 DUP3 ADD MSTORE PUSH32 0x2063686172697479000000000000000000000000000000000000000000000000 PUSH1 0x20 DUP3 ADD MSTORE POP JUMP JUMPDEST PUSH32 0x4E6F206D6F726520646F6E6174696F6E7320616363657074656420666F722074 PUSH1 0x0 DUP3 ADD MSTORE PUSH32 0x6869732070726F6A6563742E0000000000000000000000000000000000000000 PUSH1 0x20 DUP3 ADD MSTORE POP JUMP JUMPDEST PUSH1 0xA DUP2 LT PUSH2 0x348E JUMPI PUSH2 0x348D PUSH2 0x30A9 JUMP JUMPDEST JUMPDEST POP JUMP JUMPDEST PUSH2 0x349A DUP2 PUSH2 0x2F12 JUMP JUMPDEST DUP2 EQ PUSH2 0x34A5 JUMPI PUSH1 0x0 DUP1 REVERT JUMPDEST POP JUMP JUMPDEST PUSH1 0xA DUP2 LT PUSH2 0x34B5 JUMPI PUSH1 0x0 DUP1 REVERT JUMPDEST POP JUMP JUMPDEST PUSH2 0x34C1 DUP2 PUSH2 0x2F63 JUMP JUMPDEST DUP2 EQ PUSH2 0x34CC JUMPI PUSH1 0x0 DUP1 REVERT JUMPDEST POP JUMP JUMPDEST PUSH2 0x34D8 DUP2 PUSH2 0x2F6D JUMP JUMPDEST DUP2 EQ PUSH2 0x34E3 JUMPI PUSH1 0x0 DUP1 REVERT JUMPDEST POP JUMP INVALID SLOAD PUSH9 0x6973206F7065726174 PUSH10 0x6F6E2063616E20626520 PUSH17 0x6572666F726D6564206F6E6C7920627920 TIMESTAMP PUSH16 0x6172642061646D696E596F7520617265 KECCAK256 PUSH15 0x6F7420617574686F72697A65642074 PUSH16 0x20757064617465207769746820746869 PUSH20 0x2073746174757354686973206F7065726174696F PUSH15 0x2063616E20626520706572666F726D PUSH6 0x64206F6E6C79 KECCAK256 PUSH3 0x792043 PUSH9 0x6172697479A2646970 PUSH7 0x7358221220332D 0xFC LT 0xC1 EXP PUSH4 0x3871D63 XOR SWAP6 SELFDESTRUCT ISZERO DUP9 TIMESTAMP 0xAA 0xCD 0xE1 0xD2 MUL 0xC6 0xFC 0xC2 SWAP4 TIMESTAMP PUSH11 0x20A803C864736F6C634300 ADDMOD SMOD STOP CALLER "
				},
				"gasEstimates": {
					"creation": {
						"codeDepositCost": "2748600",
						"executionCost": "infinite",
						"totalCost": "infinite"
					},
					"external": {
						"approveCharity(uint256,uint256)": "infinite",
						"boardAdmin()": "2603",
						"changeProjectStatus(uint256,uint256,uint8)": "infinite",
						"charities(uint256)": "infinite",
						"createCharity(uint256,string,address)": "infinite",
						"createProject(uint256,uint256,uint256,address,string)": "infinite",
						"donate(uint256,uint256,uint256)": "infinite",
						"getProjectFundDetails(uint256,uint256)": "infinite",
						"getProjectStatus(uint256,uint256)": "infinite",
						"getRefund(uint256,uint256,uint256)": "infinite",
						"projectStatus()": "2628",
						"projectStatuses(uint8)": "infinite",
						"projects(uint256)": "infinite",
						"rejectCharity(uint256,string)": "infinite",
						"updateProjectStatus(uint256,uint256,uint8)": "infinite"
					}
				},
				"methodIdentifiers": {
					"approveCharity(uint256,uint256)": "97ed410c",
					"boardAdmin()": "b61a7f76",
					"changeProjectStatus(uint256,uint256,uint8)": "3a8565f0",
					"charities(uint256)": "fb709d2e",
					"createCharity(uint256,string,address)": "141020cc",
					"createProject(uint256,uint256,uint256,address,string)": "95dcc366",
					"donate(uint256,uint256,uint256)": "ef88f48b",
					"getProjectFundDetails(uint256,uint256)": "1ed056d8",
					"getProjectStatus(uint256,uint256)": "9d8e7e89",
					"getRefund(uint256,uint256,uint256)": "a6dbec73",
					"projectStatus()": "1ab33308",
					"projectStatuses(uint8)": "ef6add32",
					"projects(uint256)": "107046bd",
					"rejectCharity(uint256,string)": "daf38232",
					"updateProjectStatus(uint256,uint256,uint8)": "2c3730ef"
				}
			},
			"storageLayout": {
				"storage": [
					{
						"astId": 54,
						"contract": "contracts/CrowdFund.sol:CrowdFund",
						"label": "projects",
						"offset": 0,
						"slot": "0",
						"type": "t_array(t_struct(Project)30_storage)dyn_storage"
					},
					{
						"astId": 58,
						"contract": "contracts/CrowdFund.sol:CrowdFund",
						"label": "charities",
						"offset": 0,
						"slot": "1",
						"type": "t_array(t_struct(Charity)41_storage)dyn_storage"
					},
					{
						"astId": 60,
						"contract": "contracts/CrowdFund.sol:CrowdFund",
						"label": "boardAdmin",
						"offset": 0,
						"slot": "2",
						"type": "t_address"
					},
					{
						"astId": 65,
						"contract": "contracts/CrowdFund.sol:CrowdFund",
						"label": "donors",
						"offset": 0,
						"slot": "3",
						"type": "t_mapping(t_uint256,t_struct(Donor)50_storage)"
					},
					{
						"astId": 71,
						"contract": "contracts/CrowdFund.sol:CrowdFund",
						"label": "charityProjects",
						"offset": 0,
						"slot": "4",
						"type": "t_mapping(t_uint256,t_array(t_struct(Project)30_storage)dyn_storage)"
					},
					{
						"astId": 75,
						"contract": "contracts/CrowdFund.sol:CrowdFund",
						"label": "approvedCharities",
						"offset": 0,
						"slot": "5",
						"type": "t_mapping(t_uint256,t_bool)"
					},
					{
						"astId": 153,
						"contract": "contracts/CrowdFund.sol:CrowdFund",
						"label": "projectStatus",
						"offset": 0,
						"slot": "6",
						"type": "t_enum(ProjectStatus)12"
					},
					{
						"astId": 158,
						"contract": "contracts/CrowdFund.sol:CrowdFund",
						"label": "projectStatuses",
						"offset": 0,
						"slot": "7",
						"type": "t_mapping(t_enum(ProjectStatus)12,t_string_storage)"
					}
				],
				"types": {
					"t_address": {
						"encoding": "inplace",
						"label": "address",
						"numberOfBytes": "20"
					},
					"t_array(t_struct(Charity)41_storage)dyn_storage": {
						"base": "t_struct(Charity)41_storage",
						"encoding": "dynamic_array",
						"label": "struct CrowdFund.Charity[]",
						"numberOfBytes": "32"
					},
					"t_array(t_struct(Project)30_storage)dyn_storage": {
						"base": "t_struct(Project)30_storage",
						"encoding": "dynamic_array",
						"label": "struct CrowdFund.Project[]",
						"numberOfBytes": "32"
					},
					"t_bool": {
						"encoding": "inplace",
						"label": "bool",
						"numberOfBytes": "1"
					},
					"t_enum(ProjectStatus)12": {
						"encoding": "inplace",
						"label": "enum CrowdFund.ProjectStatus",
						"numberOfBytes": "1"
					},
					"t_mapping(t_enum(ProjectStatus)12,t_string_storage)": {
						"encoding": "mapping",
						"key": "t_enum(ProjectStatus)12",
						"label": "mapping(enum CrowdFund.ProjectStatus => string)",
						"numberOfBytes": "32",
						"value": "t_string_storage"
					},
					"t_mapping(t_uint256,t_array(t_struct(Project)30_storage)dyn_storage)": {
						"encoding": "mapping",
						"key": "t_uint256",
						"label": "mapping(uint256 => struct CrowdFund.Project[])",
						"numberOfBytes": "32",
						"value": "t_array(t_struct(Project)30_storage)dyn_storage"
					},
					"t_mapping(t_uint256,t_bool)": {
						"encoding": "mapping",
						"key": "t_uint256",
						"label": "mapping(uint256 => bool)",
						"numberOfBytes": "32",
						"value": "t_bool"
					},
					"t_mapping(t_uint256,t_struct(Donor)50_storage)": {
						"encoding": "mapping",
						"key": "t_uint256",
						"label": "mapping(uint256 => struct CrowdFund.Donor)",
						"numberOfBytes": "32",
						"value": "t_struct(Donor)50_storage"
					},
					"t_mapping(t_uint256,t_uint256)": {
						"encoding": "mapping",
						"key": "t_uint256",
						"label": "mapping(uint256 => uint256)",
						"numberOfBytes": "32",
						"value": "t_uint256"
					},
					"t_string_storage": {
						"encoding": "bytes",
						"label": "string",
						"numberOfBytes": "32"
					},
					"t_struct(Charity)41_storage": {
						"encoding": "inplace",
						"label": "struct CrowdFund.Charity",
						"members": [
							{
								"astId": 32,
								"contract": "contracts/CrowdFund.sol:CrowdFund",
								"label": "charityId",
								"offset": 0,
								"slot": "0",
								"type": "t_uint256"
							},
							{
								"astId": 34,
								"contract": "contracts/CrowdFund.sol:CrowdFund",
								"label": "approved",
								"offset": 0,
								"slot": "1",
								"type": "t_bool"
							},
							{
								"astId": 36,
								"contract": "contracts/CrowdFund.sol:CrowdFund",
								"label": "reason",
								"offset": 0,
								"slot": "2",
								"type": "t_string_storage"
							},
							{
								"astId": 38,
								"contract": "contracts/CrowdFund.sol:CrowdFund",
								"label": "licenseDocsLink",
								"offset": 0,
								"slot": "3",
								"type": "t_string_storage"
							},
							{
								"astId": 40,
								"contract": "contracts/CrowdFund.sol:CrowdFund",
								"label": "owner",
								"offset": 0,
								"slot": "4",
								"type": "t_address"
							}
						],
						"numberOfBytes": "160"
					},
					"t_struct(Donor)50_storage": {
						"encoding": "inplace",
						"label": "struct CrowdFund.Donor",
						"members": [
							{
								"astId": 43,
								"contract": "contracts/CrowdFund.sol:CrowdFund",
								"label": "donorId",
								"offset": 0,
								"slot": "0",
								"type": "t_uint256"
							},
							{
								"astId": 45,
								"contract": "contracts/CrowdFund.sol:CrowdFund",
								"label": "owner",
								"offset": 0,
								"slot": "1",
								"type": "t_address"
							},
							{
								"astId": 49,
								"contract": "contracts/CrowdFund.sol:CrowdFund",
								"label": "projectwiseContributions",
								"offset": 0,
								"slot": "2",
								"type": "t_mapping(t_uint256,t_uint256)"
							}
						],
						"numberOfBytes": "96"
					},
					"t_struct(Project)30_storage": {
						"encoding": "inplace",
						"label": "struct CrowdFund.Project",
						"members": [
							{
								"astId": 14,
								"contract": "contracts/CrowdFund.sol:CrowdFund",
								"label": "projectId",
								"offset": 0,
								"slot": "0",
								"type": "t_uint256"
							},
							{
								"astId": 16,
								"contract": "contracts/CrowdFund.sol:CrowdFund",
								"label": "minimumAmount",
								"offset": 0,
								"slot": "1",
								"type": "t_uint256"
							},
							{
								"astId": 18,
								"contract": "contracts/CrowdFund.sol:CrowdFund",
								"label": "goal",
								"offset": 0,
								"slot": "2",
								"type": "t_uint256"
							},
							{
								"astId": 20,
								"contract": "contracts/CrowdFund.sol:CrowdFund",
								"label": "raisedAmount",
								"offset": 0,
								"slot": "3",
								"type": "t_uint256"
							},
							{
								"astId": 22,
								"contract": "contracts/CrowdFund.sol:CrowdFund",
								"label": "owner",
								"offset": 0,
								"slot": "4",
								"type": "t_address"
							},
							{
								"astId": 24,
								"contract": "contracts/CrowdFund.sol:CrowdFund",
								"label": "acceptDonation",
								"offset": 20,
								"slot": "4",
								"type": "t_bool"
							},
							{
								"astId": 26,
								"contract": "contracts/CrowdFund.sol:CrowdFund",
								"label": "documentLink",
								"offset": 0,
								"slot": "5",
								"type": "t_string_storage"
							},
							{
								"astId": 29,
								"contract": "contracts/CrowdFund.sol:CrowdFund",
								"label": "projectStatus",
								"offset": 0,
								"slot": "6",
								"type": "t_enum(ProjectStatus)12"
							}
						],
						"numberOfBytes": "224"
					},
					"t_uint256": {
						"encoding": "inplace",
						"label": "uint256",
						"numberOfBytes": "32"
					}
				}
			},
			"userdoc": {
				"kind": "user",
				"methods": {},
				"version": 1
			}
		}
	}
}