{
	"contracts/CrowdFund.sol": {
		"CrowdFund": {
			"abi": [
				{
					"inputs": [],
					"stateMutability": "nonpayable",
					"type": "constructor"
				},
				{
					"anonymous": false,
					"inputs": [
						{
							"indexed": false,
							"internalType": "uint256",
							"name": "charityId",
							"type": "uint256"
						},
						{
							"indexed": false,
							"internalType": "uint256",
							"name": "projectId",
							"type": "uint256"
						},
						{
							"indexed": false,
							"internalType": "enum CrowdFund.ProjectStatus",
							"name": "projectStatus",
							"type": "uint8"
						}
					],
					"name": "BoardMessageToCharity",
					"type": "event"
				},
				{
					"anonymous": false,
					"inputs": [
						{
							"indexed": false,
							"internalType": "uint256",
							"name": "charityId",
							"type": "uint256"
						},
						{
							"indexed": false,
							"internalType": "uint256",
							"name": "projectId",
							"type": "uint256"
						},
						{
							"indexed": false,
							"internalType": "enum CrowdFund.ProjectStatus",
							"name": "projectStatus",
							"type": "uint8"
						}
					],
					"name": "CharityMessageToBoard",
					"type": "event"
				},
				{
					"anonymous": false,
					"inputs": [
						{
							"indexed": false,
							"internalType": "uint256",
							"name": "charityId",
							"type": "uint256"
						},
						{
							"indexed": false,
							"internalType": "uint256",
							"name": "projectId",
							"type": "uint256"
						},
						{
							"indexed": false,
							"internalType": "enum CrowdFund.ProjectStatus",
							"name": "projectStatus",
							"type": "uint8"
						}
					],
					"name": "CharityMessageToDonor",
					"type": "event"
				},
				{
					"anonymous": false,
					"inputs": [
						{
							"indexed": false,
							"internalType": "uint256",
							"name": "charityId",
							"type": "uint256"
						},
						{
							"indexed": false,
							"internalType": "uint256",
							"name": "projectId",
							"type": "uint256"
						},
						{
							"indexed": false,
							"internalType": "enum CrowdFund.ProjectStatus",
							"name": "projectStatus",
							"type": "uint8"
						}
					],
					"name": "CharityMessageToReceiver",
					"type": "event"
				},
				{
					"anonymous": false,
					"inputs": [
						{
							"indexed": false,
							"internalType": "uint256",
							"name": "charityId",
							"type": "uint256"
						},
						{
							"indexed": false,
							"internalType": "uint256",
							"name": "projectId",
							"type": "uint256"
						},
						{
							"indexed": false,
							"internalType": "enum CrowdFund.ProjectStatus",
							"name": "projectStatus",
							"type": "uint8"
						}
					],
					"name": "ReceiverMessageToCharity",
					"type": "event"
				},
				{
					"inputs": [],
					"name": "boardAdmin",
					"outputs": [
						{
							"internalType": "address",
							"name": "",
							"type": "address"
						}
					],
					"stateMutability": "view",
					"type": "function"
				},
				{
					"inputs": [
						{
							"internalType": "uint256",
							"name": "",
							"type": "uint256"
						}
					],
					"name": "charities",
					"outputs": [
						{
							"internalType": "uint256",
							"name": "charityId",
							"type": "uint256"
						},
						{
							"internalType": "bool",
							"name": "approved",
							"type": "bool"
						},
						{
							"internalType": "string",
							"name": "reason",
							"type": "string"
						},
						{
							"internalType": "string",
							"name": "licenseDocsLink",
							"type": "string"
						},
						{
							"internalType": "address",
							"name": "owner",
							"type": "address"
						}
					],
					"stateMutability": "view",
					"type": "function"
				},
				{
					"inputs": [
						{
							"internalType": "uint256",
							"name": "_charityId",
							"type": "uint256"
						},
						{
							"internalType": "string",
							"name": "_licenseDocsLink",
							"type": "string"
						},
						{
							"internalType": "address",
							"name": "charity",
							"type": "address"
						}
					],
					"name": "createCharity",
					"outputs": [],
					"stateMutability": "nonpayable",
					"type": "function"
				},
				{
					"inputs": [
						{
							"internalType": "uint256",
							"name": "charityId",
							"type": "uint256"
						},
						{
							"internalType": "uint256",
							"name": "_projectId",
							"type": "uint256"
						},
						{
							"internalType": "uint256",
							"name": "_minimumAmount",
							"type": "uint256"
						},
						{
							"internalType": "uint256",
							"name": "_goal",
							"type": "uint256"
						},
						{
							"internalType": "address",
							"name": "owner",
							"type": "address"
						},
						{
							"internalType": "string",
							"name": "_documentLink",
							"type": "string"
						}
					],
					"name": "createProject",
					"outputs": [],
					"stateMutability": "nonpayable",
					"type": "function"
				},
				{
					"inputs": [
						{
							"internalType": "uint256",
							"name": "charityId",
							"type": "uint256"
						},
						{
							"internalType": "uint256",
							"name": "projectId",
							"type": "uint256"
						},
						{
							"internalType": "uint256",
							"name": "donorId",
							"type": "uint256"
						},
						{
							"internalType": "uint256",
							"name": "amount",
							"type": "uint256"
						}
					],
					"name": "donate",
					"outputs": [],
					"stateMutability": "payable",
					"type": "function"
				},
				{
					"inputs": [
						{
							"internalType": "uint256",
							"name": "charityId",
							"type": "uint256"
						},
						{
							"internalType": "uint256",
							"name": "projectId",
							"type": "uint256"
						},
						{
							"internalType": "uint256",
							"name": "donorId",
							"type": "uint256"
						}
					],
					"name": "getDonorBalance",
					"outputs": [
						{
							"internalType": "uint256",
							"name": "",
							"type": "uint256"
						}
					],
					"stateMutability": "view",
					"type": "function"
				},
				{
					"inputs": [
						{
							"internalType": "uint256",
							"name": "charityId",
							"type": "uint256"
						},
						{
							"internalType": "uint256",
							"name": "projectId",
							"type": "uint256"
						}
					],
					"name": "getProjectFundDetails",
					"outputs": [
						{
							"internalType": "uint256",
							"name": "",
							"type": "uint256"
						},
						{
							"internalType": "uint256",
							"name": "",
							"type": "uint256"
						},
						{
							"internalType": "uint256",
							"name": "",
							"type": "uint256"
						}
					],
					"stateMutability": "view",
					"type": "function"
				},
				{
					"inputs": [
						{
							"internalType": "uint256",
							"name": "charityId",
							"type": "uint256"
						}
					],
					"name": "getProjectListByCharity",
					"outputs": [
						{
							"internalType": "uint256[]",
							"name": "_projectIds",
							"type": "uint256[]"
						},
						{
							"internalType": "uint256[]",
							"name": "_minimumAmounts",
							"type": "uint256[]"
						},
						{
							"internalType": "uint256[]",
							"name": "_goals",
							"type": "uint256[]"
						},
						{
							"internalType": "uint256[]",
							"name": "_raisedAmounts",
							"type": "uint256[]"
						}
					],
					"stateMutability": "view",
					"type": "function"
				},
				{
					"inputs": [
						{
							"internalType": "uint256",
							"name": "charityId",
							"type": "uint256"
						},
						{
							"internalType": "uint256",
							"name": "projectId",
							"type": "uint256"
						}
					],
					"name": "getProjectOwnerBalance",
					"outputs": [
						{
							"internalType": "uint256",
							"name": "",
							"type": "uint256"
						}
					],
					"stateMutability": "view",
					"type": "function"
				},
				{
					"inputs": [
						{
							"internalType": "uint256",
							"name": "charityId",
							"type": "uint256"
						},
						{
							"internalType": "uint256",
							"name": "projectId",
							"type": "uint256"
						}
					],
					"name": "getProjectStatus",
					"outputs": [
						{
							"internalType": "string",
							"name": "",
							"type": "string"
						}
					],
					"stateMutability": "view",
					"type": "function"
				},
				{
					"inputs": [
						{
							"internalType": "uint256",
							"name": "charityId",
							"type": "uint256"
						},
						{
							"internalType": "uint256",
							"name": "projectId",
							"type": "uint256"
						}
					],
					"name": "getRefund",
					"outputs": [],
					"stateMutability": "nonpayable",
					"type": "function"
				},
				{
					"inputs": [],
					"name": "projectStatus",
					"outputs": [
						{
							"internalType": "enum CrowdFund.ProjectStatus",
							"name": "",
							"type": "uint8"
						}
					],
					"stateMutability": "view",
					"type": "function"
				},
				{
					"inputs": [
						{
							"internalType": "enum CrowdFund.ProjectStatus",
							"name": "",
							"type": "uint8"
						}
					],
					"name": "projectStatuses",
					"outputs": [
						{
							"internalType": "string",
							"name": "",
							"type": "string"
						}
					],
					"stateMutability": "view",
					"type": "function"
				},
				{
					"inputs": [
						{
							"internalType": "uint256",
							"name": "",
							"type": "uint256"
						}
					],
					"name": "projects",
					"outputs": [
						{
							"internalType": "uint256",
							"name": "projectId",
							"type": "uint256"
						},
						{
							"internalType": "uint256",
							"name": "minimumAmount",
							"type": "uint256"
						},
						{
							"internalType": "uint256",
							"name": "goal",
							"type": "uint256"
						},
						{
							"internalType": "uint256",
							"name": "raisedAmount",
							"type": "uint256"
						},
						{
							"internalType": "address",
							"name": "owner",
							"type": "address"
						},
						{
							"internalType": "bool",
							"name": "acceptDonation",
							"type": "bool"
						},
						{
							"internalType": "string",
							"name": "documentLink",
							"type": "string"
						},
						{
							"internalType": "enum CrowdFund.ProjectStatus",
							"name": "projectStatus",
							"type": "uint8"
						}
					],
					"stateMutability": "view",
					"type": "function"
				},
				{
					"inputs": [
						{
							"internalType": "uint256",
							"name": "charityId",
							"type": "uint256"
						},
						{
							"internalType": "bool",
							"name": "status",
							"type": "bool"
						},
						{
							"internalType": "string",
							"name": "reason",
							"type": "string"
						}
					],
					"name": "updateCharityStatus",
					"outputs": [],
					"stateMutability": "nonpayable",
					"type": "function"
				},
				{
					"inputs": [
						{
							"internalType": "uint256",
							"name": "projectId",
							"type": "uint256"
						},
						{
							"internalType": "uint256",
							"name": "charityId",
							"type": "uint256"
						},
						{
							"internalType": "uint8",
							"name": "enumValue",
							"type": "uint8"
						}
					],
					"name": "updateProjectStatusByAdmin",
					"outputs": [],
					"stateMutability": "nonpayable",
					"type": "function"
				},
				{
					"inputs": [
						{
							"internalType": "uint256",
							"name": "projectId",
							"type": "uint256"
						},
						{
							"internalType": "uint256",
							"name": "charityId",
							"type": "uint256"
						},
						{
							"internalType": "uint8",
							"name": "enumValue",
							"type": "uint8"
						}
					],
					"name": "updateProjectStatusByCharity",
					"outputs": [],
					"stateMutability": "nonpayable",
					"type": "function"
				}
			],
			"devdoc": {
				"kind": "dev",
				"methods": {},
				"version": 1
			},
			"evm": {
				"assembly": "    /* \"contracts/CrowdFund.sol\":70:20341  contract CrowdFund {... */\n  mstore(0x40, 0x80)\n    /* \"contracts/CrowdFund.sol\":2955:3511  constructor () {... */\n  callvalue\n  dup1\n  iszero\n  tag_1\n  jumpi\n  0x00\n  dup1\n  revert\ntag_1:\n  pop\n    /* \"contracts/CrowdFund.sol\":2993:3003  msg.sender */\n  caller\n    /* \"contracts/CrowdFund.sol\":2980:2990  boardAdmin */\n  0x02\n  0x00\n    /* \"contracts/CrowdFund.sol\":2980:3003  boardAdmin = msg.sender */\n  0x0100\n  exp\n  dup2\n  sload\n  dup2\n  0xffffffffffffffffffffffffffffffffffffffff\n  mul\n  not\n  and\n  swap1\n  dup4\n  0xffffffffffffffffffffffffffffffffffffffff\n  and\n  mul\n  or\n  swap1\n  sstore\n  pop\n    /* \"contracts/CrowdFund.sol\":3051:3054  WFA */\n  mload(0x40)\n  dup1\n  0x40\n  add\n  0x40\n  mstore\n  dup1\n  0x14\n  dup2\n  mstore\n  0x20\n  add\n  0x57616974696e6720666f7220617070726f76616c000000000000000000000000\n  dup2\n  mstore\n  pop\n    /* \"contracts/CrowdFund.sol\":3014:3029  projectStatuses */\n  0x07\n    /* \"contracts/CrowdFund.sol\":3014:3048  projectStatuses[ProjectStatus.WFA] */\n  0x00\n    /* \"contracts/CrowdFund.sol\":3030:3047  ProjectStatus.WFA */\n  dup1\n    /* \"contracts/CrowdFund.sol\":3014:3048  projectStatuses[ProjectStatus.WFA] */\n  0x09\n  dup2\n  gt\n  iszero\n  tag_4\n  jumpi\n  tag_5\n  tag_6\n  jump\t// in\ntag_5:\ntag_4:\n  0x09\n  dup2\n  gt\n  iszero\n  tag_7\n  jumpi\n  tag_8\n  tag_6\n  jump\t// in\ntag_8:\ntag_7:\n  dup2\n  mstore\n  0x20\n  add\n  swap1\n  dup2\n  mstore\n  0x20\n  add\n  0x00\n  keccak256\n    /* \"contracts/CrowdFund.sol\":3014:3054  projectStatuses[ProjectStatus.WFA] = WFA */\n  swap1\n  dup1\n  mload\n  swap1\n  0x20\n  add\n  swap1\n  tag_9\n  swap3\n  swap2\n  swap1\n  tag_10\n  jump\t// in\ntag_9:\n  pop\n    /* \"contracts/CrowdFund.sol\":3101:3104  APR */\n  mload(0x40)\n  dup1\n  0x40\n  add\n  0x40\n  mstore\n  dup1\n  0x08\n  dup2\n  mstore\n  0x20\n  add\n  0x417070726f766564000000000000000000000000000000000000000000000000\n  dup2\n  mstore\n  pop\n    /* \"contracts/CrowdFund.sol\":3064:3079  projectStatuses */\n  0x07\n    /* \"contracts/CrowdFund.sol\":3064:3098  projectStatuses[ProjectStatus.APR] */\n  0x00\n    /* \"contracts/CrowdFund.sol\":3080:3097  ProjectStatus.APR */\n  0x02\n    /* \"contracts/CrowdFund.sol\":3064:3098  projectStatuses[ProjectStatus.APR] */\n  0x09\n  dup2\n  gt\n  iszero\n  tag_11\n  jumpi\n  tag_12\n  tag_6\n  jump\t// in\ntag_12:\ntag_11:\n  0x09\n  dup2\n  gt\n  iszero\n  tag_13\n  jumpi\n  tag_14\n  tag_6\n  jump\t// in\ntag_14:\ntag_13:\n  dup2\n  mstore\n  0x20\n  add\n  swap1\n  dup2\n  mstore\n  0x20\n  add\n  0x00\n  keccak256\n    /* \"contracts/CrowdFund.sol\":3064:3104  projectStatuses[ProjectStatus.APR] = APR */\n  swap1\n  dup1\n  mload\n  swap1\n  0x20\n  add\n  swap1\n  tag_15\n  swap3\n  swap2\n  swap1\n  tag_10\n  jump\t// in\ntag_15:\n  pop\n    /* \"contracts/CrowdFund.sol\":3151:3154  RJC */\n  mload(0x40)\n  dup1\n  0x40\n  add\n  0x40\n  mstore\n  dup1\n  0x13\n  dup2\n  mstore\n  0x20\n  add\n  0x52656a6563746564206279206368617269747900000000000000000000000000\n  dup2\n  mstore\n  pop\n    /* \"contracts/CrowdFund.sol\":3114:3129  projectStatuses */\n  0x07\n    /* \"contracts/CrowdFund.sol\":3114:3148  projectStatuses[ProjectStatus.RJC] */\n  0x00\n    /* \"contracts/CrowdFund.sol\":3130:3147  ProjectStatus.RJC */\n  0x01\n    /* \"contracts/CrowdFund.sol\":3114:3148  projectStatuses[ProjectStatus.RJC] */\n  0x09\n  dup2\n  gt\n  iszero\n  tag_16\n  jumpi\n  tag_17\n  tag_6\n  jump\t// in\ntag_17:\ntag_16:\n  0x09\n  dup2\n  gt\n  iszero\n  tag_18\n  jumpi\n  tag_19\n  tag_6\n  jump\t// in\ntag_19:\ntag_18:\n  dup2\n  mstore\n  0x20\n  add\n  swap1\n  dup2\n  mstore\n  0x20\n  add\n  0x00\n  keccak256\n    /* \"contracts/CrowdFund.sol\":3114:3154  projectStatuses[ProjectStatus.RJC] = RJC */\n  swap1\n  dup1\n  mload\n  swap1\n  0x20\n  add\n  swap1\n  tag_20\n  swap3\n  swap2\n  swap1\n  tag_10\n  jump\t// in\ntag_20:\n  pop\n    /* \"contracts/CrowdFund.sol\":3201:3204  PGA */\n  mload(0x40)\n  dup1\n  0x40\n  add\n  0x40\n  mstore\n  dup1\n  0x15\n  dup2\n  mstore\n  0x20\n  add\n  0x50726f6a65637420676f616c2061636869657665640000000000000000000000\n  dup2\n  mstore\n  pop\n    /* \"contracts/CrowdFund.sol\":3164:3179  projectStatuses */\n  0x07\n    /* \"contracts/CrowdFund.sol\":3164:3198  projectStatuses[ProjectStatus.PGA] */\n  0x00\n    /* \"contracts/CrowdFund.sol\":3180:3197  ProjectStatus.PGA */\n  0x03\n    /* \"contracts/CrowdFund.sol\":3164:3198  projectStatuses[ProjectStatus.PGA] */\n  0x09\n  dup2\n  gt\n  iszero\n  tag_21\n  jumpi\n  tag_22\n  tag_6\n  jump\t// in\ntag_22:\ntag_21:\n  0x09\n  dup2\n  gt\n  iszero\n  tag_23\n  jumpi\n  tag_24\n  tag_6\n  jump\t// in\ntag_24:\ntag_23:\n  dup2\n  mstore\n  0x20\n  add\n  swap1\n  dup2\n  mstore\n  0x20\n  add\n  0x00\n  keccak256\n    /* \"contracts/CrowdFund.sol\":3164:3204  projectStatuses[ProjectStatus.PGA] = PGA */\n  swap1\n  dup1\n  mload\n  swap1\n  0x20\n  add\n  swap1\n  tag_25\n  swap3\n  swap2\n  swap1\n  tag_10\n  jump\t// in\ntag_25:\n  pop\n    /* \"contracts/CrowdFund.sol\":3251:3254  XRQ */\n  mload(0x40)\n  dup1\n  0x40\n  add\n  0x40\n  mstore\n  dup1\n  0x12\n  dup2\n  mstore\n  0x20\n  add\n  0x45786368616e6765207265717565737465640000000000000000000000000000\n  dup2\n  mstore\n  pop\n    /* \"contracts/CrowdFund.sol\":3214:3229  projectStatuses */\n  0x07\n    /* \"contracts/CrowdFund.sol\":3214:3248  projectStatuses[ProjectStatus.XRQ] */\n  0x00\n    /* \"contracts/CrowdFund.sol\":3230:3247  ProjectStatus.XRQ */\n  0x04\n    /* \"contracts/CrowdFund.sol\":3214:3248  projectStatuses[ProjectStatus.XRQ] */\n  0x09\n  dup2\n  gt\n  iszero\n  tag_26\n  jumpi\n  tag_27\n  tag_6\n  jump\t// in\ntag_27:\ntag_26:\n  0x09\n  dup2\n  gt\n  iszero\n  tag_28\n  jumpi\n  tag_29\n  tag_6\n  jump\t// in\ntag_29:\ntag_28:\n  dup2\n  mstore\n  0x20\n  add\n  swap1\n  dup2\n  mstore\n  0x20\n  add\n  0x00\n  keccak256\n    /* \"contracts/CrowdFund.sol\":3214:3254  projectStatuses[ProjectStatus.XRQ] = XRQ */\n  swap1\n  dup1\n  mload\n  swap1\n  0x20\n  add\n  swap1\n  tag_30\n  swap3\n  swap2\n  swap1\n  tag_10\n  jump\t// in\ntag_30:\n  pop\n    /* \"contracts/CrowdFund.sol\":3301:3304  XRR */\n  mload(0x40)\n  dup1\n  0x40\n  add\n  0x40\n  mstore\n  dup1\n  0x19\n  dup2\n  mstore\n  0x20\n  add\n  0x45786368616e6765207265717565737420726563656976656400000000000000\n  dup2\n  mstore\n  pop\n    /* \"contracts/CrowdFund.sol\":3264:3279  projectStatuses */\n  0x07\n    /* \"contracts/CrowdFund.sol\":3264:3298  projectStatuses[ProjectStatus.XRR] */\n  0x00\n    /* \"contracts/CrowdFund.sol\":3280:3297  ProjectStatus.XRR */\n  0x05\n    /* \"contracts/CrowdFund.sol\":3264:3298  projectStatuses[ProjectStatus.XRR] */\n  0x09\n  dup2\n  gt\n  iszero\n  tag_31\n  jumpi\n  tag_32\n  tag_6\n  jump\t// in\ntag_32:\ntag_31:\n  0x09\n  dup2\n  gt\n  iszero\n  tag_33\n  jumpi\n  tag_34\n  tag_6\n  jump\t// in\ntag_34:\ntag_33:\n  dup2\n  mstore\n  0x20\n  add\n  swap1\n  dup2\n  mstore\n  0x20\n  add\n  0x00\n  keccak256\n    /* \"contracts/CrowdFund.sol\":3264:3304  projectStatuses[ProjectStatus.XRR] = XRR */\n  swap1\n  dup1\n  mload\n  swap1\n  0x20\n  add\n  swap1\n  tag_35\n  swap3\n  swap2\n  swap1\n  tag_10\n  jump\t// in\ntag_35:\n  pop\n    /* \"contracts/CrowdFund.sol\":3351:3354  XRA */\n  mload(0x40)\n  dup1\n  0x40\n  add\n  0x40\n  mstore\n  dup1\n  0x19\n  dup2\n  mstore\n  0x20\n  add\n  0x45786368616e6765207265717565737420617070726f76656400000000000000\n  dup2\n  mstore\n  pop\n    /* \"contracts/CrowdFund.sol\":3314:3329  projectStatuses */\n  0x07\n    /* \"contracts/CrowdFund.sol\":3314:3348  projectStatuses[ProjectStatus.XRA] */\n  0x00\n    /* \"contracts/CrowdFund.sol\":3330:3347  ProjectStatus.XRA */\n  0x06\n    /* \"contracts/CrowdFund.sol\":3314:3348  projectStatuses[ProjectStatus.XRA] */\n  0x09\n  dup2\n  gt\n  iszero\n  tag_36\n  jumpi\n  tag_37\n  tag_6\n  jump\t// in\ntag_37:\ntag_36:\n  0x09\n  dup2\n  gt\n  iszero\n  tag_38\n  jumpi\n  tag_39\n  tag_6\n  jump\t// in\ntag_39:\ntag_38:\n  dup2\n  mstore\n  0x20\n  add\n  swap1\n  dup2\n  mstore\n  0x20\n  add\n  0x00\n  keccak256\n    /* \"contracts/CrowdFund.sol\":3314:3354  projectStatuses[ProjectStatus.XRA] = XRA */\n  swap1\n  dup1\n  mload\n  swap1\n  0x20\n  add\n  swap1\n  tag_40\n  swap3\n  swap2\n  swap1\n  tag_10\n  jump\t// in\ntag_40:\n  pop\n    /* \"contracts/CrowdFund.sol\":3401:3404  XRJ */\n  mload(0x40)\n  dup1\n  0x40\n  add\n  0x40\n  mstore\n  dup1\n  0x19\n  dup2\n  mstore\n  0x20\n  add\n  0x45786368616e676520726571756573742072656a656374656400000000000000\n  dup2\n  mstore\n  pop\n    /* \"contracts/CrowdFund.sol\":3364:3379  projectStatuses */\n  0x07\n    /* \"contracts/CrowdFund.sol\":3364:3398  projectStatuses[ProjectStatus.XRJ] */\n  0x00\n    /* \"contracts/CrowdFund.sol\":3380:3397  ProjectStatus.XRJ */\n  0x07\n    /* \"contracts/CrowdFund.sol\":3364:3398  projectStatuses[ProjectStatus.XRJ] */\n  0x09\n  dup2\n  gt\n  iszero\n  tag_41\n  jumpi\n  tag_42\n  tag_6\n  jump\t// in\ntag_42:\ntag_41:\n  0x09\n  dup2\n  gt\n  iszero\n  tag_43\n  jumpi\n  tag_44\n  tag_6\n  jump\t// in\ntag_44:\ntag_43:\n  dup2\n  mstore\n  0x20\n  add\n  swap1\n  dup2\n  mstore\n  0x20\n  add\n  0x00\n  keccak256\n    /* \"contracts/CrowdFund.sol\":3364:3404  projectStatuses[ProjectStatus.XRJ] = XRJ */\n  swap1\n  dup1\n  mload\n  swap1\n  0x20\n  add\n  swap1\n  tag_45\n  swap3\n  swap2\n  swap1\n  tag_10\n  jump\t// in\ntag_45:\n  pop\n    /* \"contracts/CrowdFund.sol\":3451:3454  RFD */\n  mload(0x40)\n  dup1\n  0x40\n  add\n  0x40\n  mstore\n  dup1\n  0x0e\n  dup2\n  mstore\n  0x20\n  add\n  0x46756e647320726566756e646564000000000000000000000000000000000000\n  dup2\n  mstore\n  pop\n    /* \"contracts/CrowdFund.sol\":3414:3429  projectStatuses */\n  0x07\n    /* \"contracts/CrowdFund.sol\":3414:3448  projectStatuses[ProjectStatus.RFD] */\n  0x00\n    /* \"contracts/CrowdFund.sol\":3430:3447  ProjectStatus.RFD */\n  0x08\n    /* \"contracts/CrowdFund.sol\":3414:3448  projectStatuses[ProjectStatus.RFD] */\n  0x09\n  dup2\n  gt\n  iszero\n  tag_46\n  jumpi\n  tag_47\n  tag_6\n  jump\t// in\ntag_47:\ntag_46:\n  0x09\n  dup2\n  gt\n  iszero\n  tag_48\n  jumpi\n  tag_49\n  tag_6\n  jump\t// in\ntag_49:\ntag_48:\n  dup2\n  mstore\n  0x20\n  add\n  swap1\n  dup2\n  mstore\n  0x20\n  add\n  0x00\n  keccak256\n    /* \"contracts/CrowdFund.sol\":3414:3454  projectStatuses[ProjectStatus.RFD] = RFD */\n  swap1\n  dup1\n  mload\n  swap1\n  0x20\n  add\n  swap1\n  tag_50\n  swap3\n  swap2\n  swap1\n  tag_10\n  jump\t// in\ntag_50:\n  pop\n    /* \"contracts/CrowdFund.sol\":3501:3504  CLD */\n  mload(0x40)\n  dup1\n  0x40\n  add\n  0x40\n  mstore\n  dup1\n  0x0e\n  dup2\n  mstore\n  0x20\n  add\n  0x50726f6a65637420636c6f736564000000000000000000000000000000000000\n  dup2\n  mstore\n  pop\n    /* \"contracts/CrowdFund.sol\":3464:3479  projectStatuses */\n  0x07\n    /* \"contracts/CrowdFund.sol\":3464:3498  projectStatuses[ProjectStatus.CLD] */\n  0x00\n    /* \"contracts/CrowdFund.sol\":3480:3497  ProjectStatus.CLD */\n  0x09\n    /* \"contracts/CrowdFund.sol\":3464:3498  projectStatuses[ProjectStatus.CLD] */\n  dup1\n  dup2\n  gt\n  iszero\n  tag_51\n  jumpi\n  tag_52\n  tag_6\n  jump\t// in\ntag_52:\ntag_51:\n  0x09\n  dup2\n  gt\n  iszero\n  tag_53\n  jumpi\n  tag_54\n  tag_6\n  jump\t// in\ntag_54:\ntag_53:\n  dup2\n  mstore\n  0x20\n  add\n  swap1\n  dup2\n  mstore\n  0x20\n  add\n  0x00\n  keccak256\n    /* \"contracts/CrowdFund.sol\":3464:3504  projectStatuses[ProjectStatus.CLD] = CLD */\n  swap1\n  dup1\n  mload\n  swap1\n  0x20\n  add\n  swap1\n  tag_55\n  swap3\n  swap2\n  swap1\n  tag_10\n  jump\t// in\ntag_55:\n  pop\n    /* \"contracts/CrowdFund.sol\":70:20341  contract CrowdFund {... */\n  jump(tag_56)\ntag_10:\n  dup3\n  dup1\n  sload\n  tag_57\n  swap1\n  tag_58\n  jump\t// in\ntag_57:\n  swap1\n  0x00\n  mstore\n  keccak256(0x00, 0x20)\n  swap1\n  0x1f\n  add\n  0x20\n  swap1\n  div\n  dup2\n  add\n  swap3\n  dup3\n  tag_60\n  jumpi\n  0x00\n  dup6\n  sstore\n  jump(tag_59)\ntag_60:\n  dup3\n  0x1f\n  lt\n  tag_61\n  jumpi\n  dup1\n  mload\n  not(0xff)\n  and\n  dup4\n  dup1\n  add\n  or\n  dup6\n  sstore\n  jump(tag_59)\ntag_61:\n  dup3\n  dup1\n  add\n  0x01\n  add\n  dup6\n  sstore\n  dup3\n  iszero\n  tag_59\n  jumpi\n  swap2\n  dup3\n  add\ntag_62:\n  dup3\n  dup2\n  gt\n  iszero\n  tag_63\n  jumpi\n  dup3\n  mload\n  dup3\n  sstore\n  swap2\n  0x20\n  add\n  swap2\n  swap1\n  0x01\n  add\n  swap1\n  jump(tag_62)\ntag_63:\ntag_59:\n  pop\n  swap1\n  pop\n  tag_64\n  swap2\n  swap1\n  tag_65\n  jump\t// in\ntag_64:\n  pop\n  swap1\n  jump\t// out\ntag_65:\ntag_66:\n  dup1\n  dup3\n  gt\n  iszero\n  tag_67\n  jumpi\n  0x00\n  dup2\n  0x00\n  swap1\n  sstore\n  pop\n  0x01\n  add\n  jump(tag_66)\ntag_67:\n  pop\n  swap1\n  jump\t// out\n    /* \"#utility.yul\":7:327   */\ntag_58:\n    /* \"#utility.yul\":51:57   */\n  0x00\n    /* \"#utility.yul\":88:89   */\n  0x02\n    /* \"#utility.yul\":82:86   */\n  dup3\n    /* \"#utility.yul\":78:90   */\n  div\n    /* \"#utility.yul\":68:90   */\n  swap1\n  pop\n    /* \"#utility.yul\":135:136   */\n  0x01\n    /* \"#utility.yul\":129:133   */\n  dup3\n    /* \"#utility.yul\":125:137   */\n  and\n    /* \"#utility.yul\":156:174   */\n  dup1\n    /* \"#utility.yul\":146:227   */\n  tag_70\n  jumpi\n    /* \"#utility.yul\":212:216   */\n  0x7f\n    /* \"#utility.yul\":204:210   */\n  dup3\n    /* \"#utility.yul\":200:217   */\n  and\n    /* \"#utility.yul\":190:217   */\n  swap2\n  pop\n    /* \"#utility.yul\":146:227   */\ntag_70:\n    /* \"#utility.yul\":274:276   */\n  0x20\n    /* \"#utility.yul\":266:272   */\n  dup3\n    /* \"#utility.yul\":263:277   */\n  lt\n    /* \"#utility.yul\":243:261   */\n  dup2\n    /* \"#utility.yul\":240:278   */\n  eq\n    /* \"#utility.yul\":237:321   */\n  iszero\n  tag_71\n  jumpi\n    /* \"#utility.yul\":293:311   */\n  tag_72\n  tag_73\n  jump\t// in\ntag_72:\n    /* \"#utility.yul\":237:321   */\ntag_71:\n    /* \"#utility.yul\":58:327   */\n  pop\n    /* \"#utility.yul\":7:327   */\n  swap2\n  swap1\n  pop\n  jump\t// out\n    /* \"#utility.yul\":333:513   */\ntag_6:\n    /* \"#utility.yul\":381:458   */\n  0x4e487b7100000000000000000000000000000000000000000000000000000000\n    /* \"#utility.yul\":378:379   */\n  0x00\n    /* \"#utility.yul\":371:459   */\n  mstore\n    /* \"#utility.yul\":478:482   */\n  0x21\n    /* \"#utility.yul\":475:476   */\n  0x04\n    /* \"#utility.yul\":468:483   */\n  mstore\n    /* \"#utility.yul\":502:506   */\n  0x24\n    /* \"#utility.yul\":499:500   */\n  0x00\n    /* \"#utility.yul\":492:507   */\n  revert\n    /* \"#utility.yul\":519:699   */\ntag_73:\n    /* \"#utility.yul\":567:644   */\n  0x4e487b7100000000000000000000000000000000000000000000000000000000\n    /* \"#utility.yul\":564:565   */\n  0x00\n    /* \"#utility.yul\":557:645   */\n  mstore\n    /* \"#utility.yul\":664:668   */\n  0x22\n    /* \"#utility.yul\":661:662   */\n  0x04\n    /* \"#utility.yul\":654:669   */\n  mstore\n    /* \"#utility.yul\":688:692   */\n  0x24\n    /* \"#utility.yul\":685:686   */\n  0x00\n    /* \"#utility.yul\":678:693   */\n  revert\n    /* \"contracts/CrowdFund.sol\":70:20341  contract CrowdFund {... */\ntag_56:\n  dataSize(sub_0)\n  dup1\n  dataOffset(sub_0)\n  0x00\n  codecopy\n  0x00\n  return\nstop\n\nsub_0: assembly {\n        /* \"contracts/CrowdFund.sol\":70:20341  contract CrowdFund {... */\n      mstore(0x40, 0x80)\n      jumpi(tag_1, lt(calldatasize, 0x04))\n      shr(0xe0, calldataload(0x00))\n      dup1\n      0x9d8e7e89\n      gt\n      tag_19\n      jumpi\n      dup1\n      0xb9d093bf\n      gt\n      tag_20\n      jumpi\n      dup1\n      0xb9d093bf\n      eq\n      tag_14\n      jumpi\n      dup1\n      0xcfc3d434\n      eq\n      tag_15\n      jumpi\n      dup1\n      0xe8620d14\n      eq\n      tag_16\n      jumpi\n      dup1\n      0xef6add32\n      eq\n      tag_17\n      jumpi\n      dup1\n      0xfb709d2e\n      eq\n      tag_18\n      jumpi\n      jump(tag_1)\n    tag_20:\n      dup1\n      0x9d8e7e89\n      eq\n      tag_10\n      jumpi\n      dup1\n      0xa0fd6622\n      eq\n      tag_11\n      jumpi\n      dup1\n      0xace1bcf8\n      eq\n      tag_12\n      jumpi\n      dup1\n      0xb61a7f76\n      eq\n      tag_13\n      jumpi\n      jump(tag_1)\n    tag_19:\n      dup1\n      0x1ed056d8\n      gt\n      tag_21\n      jumpi\n      dup1\n      0x1ed056d8\n      eq\n      tag_6\n      jumpi\n      dup1\n      0x5ea34326\n      eq\n      tag_7\n      jumpi\n      dup1\n      0x85a93223\n      eq\n      tag_8\n      jumpi\n      dup1\n      0x85fa74bc\n      eq\n      tag_9\n      jumpi\n      jump(tag_1)\n    tag_21:\n      dup1\n      0x107046bd\n      eq\n      tag_2\n      jumpi\n      dup1\n      0x141020cc\n      eq\n      tag_3\n      jumpi\n      dup1\n      0x17f308b5\n      eq\n      tag_4\n      jumpi\n      dup1\n      0x1ab33308\n      eq\n      tag_5\n      jumpi\n    tag_1:\n      0x00\n      dup1\n      revert\n        /* \"contracts/CrowdFund.sol\":706:731  Project[] public projects */\n    tag_2:\n      callvalue\n      dup1\n      iszero\n      tag_22\n      jumpi\n      0x00\n      dup1\n      revert\n    tag_22:\n      pop\n      tag_23\n      0x04\n      dup1\n      calldatasize\n      sub\n      dup2\n      add\n      swap1\n      tag_24\n      swap2\n      swap1\n      tag_25\n      jump\t// in\n    tag_24:\n      tag_26\n      jump\t// in\n    tag_23:\n      mload(0x40)\n      tag_27\n      swap9\n      swap8\n      swap7\n      swap6\n      swap5\n      swap4\n      swap3\n      swap2\n      swap1\n      tag_28\n      jump\t// in\n    tag_27:\n      mload(0x40)\n      dup1\n      swap2\n      sub\n      swap1\n      return\n        /* \"contracts/CrowdFund.sol\":3517:3906  function createCharity(uint _charityId, string memory _licenseDocsLink, address charity) public onlyBoardAdmin {... */\n    tag_3:\n      callvalue\n      dup1\n      iszero\n      tag_29\n      jumpi\n      0x00\n      dup1\n      revert\n    tag_29:\n      pop\n      tag_30\n      0x04\n      dup1\n      calldatasize\n      sub\n      dup2\n      add\n      swap1\n      tag_31\n      swap2\n      swap1\n      tag_32\n      jump\t// in\n    tag_31:\n      tag_33\n      jump\t// in\n    tag_30:\n      stop\n        /* \"contracts/CrowdFund.sol\":9990:10575  function getProjectOwnerBalance(uint charityId, uint projectId) public view returns (... */\n    tag_4:\n      callvalue\n      dup1\n      iszero\n      tag_34\n      jumpi\n      0x00\n      dup1\n      revert\n    tag_34:\n      pop\n      tag_35\n      0x04\n      dup1\n      calldatasize\n      sub\n      dup2\n      add\n      swap1\n      tag_36\n      swap2\n      swap1\n      tag_37\n      jump\t// in\n    tag_36:\n      tag_38\n      jump\t// in\n    tag_35:\n      mload(0x40)\n      tag_39\n      swap2\n      swap1\n      tag_40\n      jump\t// in\n    tag_39:\n      mload(0x40)\n      dup1\n      swap2\n      sub\n      swap1\n      return\n        /* \"contracts/CrowdFund.sol\":2681:2715  ProjectStatus public projectStatus */\n    tag_5:\n      callvalue\n      dup1\n      iszero\n      tag_41\n      jumpi\n      0x00\n      dup1\n      revert\n    tag_41:\n      pop\n      tag_42\n      tag_43\n      jump\t// in\n    tag_42:\n      mload(0x40)\n      tag_44\n      swap2\n      swap1\n      tag_45\n      jump\t// in\n    tag_44:\n      mload(0x40)\n      dup1\n      swap2\n      sub\n      swap1\n      return\n        /* \"contracts/CrowdFund.sol\":9175:9938  function getProjectFundDetails(uint charityId, uint projectId) public view returns (... */\n    tag_6:\n      callvalue\n      dup1\n      iszero\n      tag_46\n      jumpi\n      0x00\n      dup1\n      revert\n    tag_46:\n      pop\n      tag_47\n      0x04\n      dup1\n      calldatasize\n      sub\n      dup2\n      add\n      swap1\n      tag_48\n      swap2\n      swap1\n      tag_37\n      jump\t// in\n    tag_48:\n      tag_49\n      jump\t// in\n    tag_47:\n      mload(0x40)\n      tag_50\n      swap4\n      swap3\n      swap2\n      swap1\n      tag_51\n      jump\t// in\n    tag_50:\n      mload(0x40)\n      dup1\n      swap2\n      sub\n      swap1\n      return\n        /* \"contracts/CrowdFund.sol\":5481:6629  function updateProjectStatusByAdmin(uint projectId, uint charityId, uint8 enumValue) onlyBoardAdmin public {... */\n    tag_7:\n      callvalue\n      dup1\n      iszero\n      tag_52\n      jumpi\n      0x00\n      dup1\n      revert\n    tag_52:\n      pop\n      tag_53\n      0x04\n      dup1\n      calldatasize\n      sub\n      dup2\n      add\n      swap1\n      tag_54\n      swap2\n      swap1\n      tag_55\n      jump\t// in\n    tag_54:\n      tag_56\n      jump\t// in\n    tag_53:\n      stop\n        /* \"contracts/CrowdFund.sol\":6683:9123  function updateProjectStatusByCharity(uint projectId, uint charityId, uint8 enumValue) onlyCharity public {... */\n    tag_8:\n      callvalue\n      dup1\n      iszero\n      tag_57\n      jumpi\n      0x00\n      dup1\n      revert\n    tag_57:\n      pop\n      tag_58\n      0x04\n      dup1\n      calldatasize\n      sub\n      dup2\n      add\n      swap1\n      tag_59\n      swap2\n      swap1\n      tag_55\n      jump\t// in\n    tag_59:\n      tag_60\n      jump\t// in\n    tag_58:\n      stop\n        /* \"contracts/CrowdFund.sol\":16064:18104  function getRefund(uint charityId, uint projectId) public {... */\n    tag_9:\n      callvalue\n      dup1\n      iszero\n      tag_61\n      jumpi\n      0x00\n      dup1\n      revert\n    tag_61:\n      pop\n      tag_62\n      0x04\n      dup1\n      calldatasize\n      sub\n      dup2\n      add\n      swap1\n      tag_63\n      swap2\n      swap1\n      tag_37\n      jump\t// in\n    tag_63:\n      tag_64\n      jump\t// in\n    tag_62:\n      stop\n        /* \"contracts/CrowdFund.sol\":19804:20339  function getProjectStatus(uint charityId, uint projectId) external view returns (... */\n    tag_10:\n      callvalue\n      dup1\n      iszero\n      tag_65\n      jumpi\n      0x00\n      dup1\n      revert\n    tag_65:\n      pop\n      tag_66\n      0x04\n      dup1\n      calldatasize\n      sub\n      dup2\n      add\n      swap1\n      tag_67\n      swap2\n      swap1\n      tag_37\n      jump\t// in\n    tag_67:\n      tag_68\n      jump\t// in\n    tag_66:\n      mload(0x40)\n      tag_69\n      swap2\n      swap1\n      tag_70\n      jump\t// in\n    tag_69:\n      mload(0x40)\n      dup1\n      swap2\n      sub\n      swap1\n      return\n        /* \"contracts/CrowdFund.sol\":11569:12901  function getProjectListByCharity(uint charityId) public view returns (... */\n    tag_11:\n      callvalue\n      dup1\n      iszero\n      tag_71\n      jumpi\n      0x00\n      dup1\n      revert\n    tag_71:\n      pop\n      tag_72\n      0x04\n      dup1\n      calldatasize\n      sub\n      dup2\n      add\n      swap1\n      tag_73\n      swap2\n      swap1\n      tag_25\n      jump\t// in\n    tag_73:\n      tag_74\n      jump\t// in\n    tag_72:\n      mload(0x40)\n      tag_75\n      swap5\n      swap4\n      swap3\n      swap2\n      swap1\n      tag_76\n      jump\t// in\n    tag_75:\n      mload(0x40)\n      dup1\n      swap2\n      sub\n      swap1\n      return\n        /* \"contracts/CrowdFund.sol\":3912:4650  function updateCharityStatus(uint charityId, bool status, string memory reason) public onlyBoardAdmin {... */\n    tag_12:\n      callvalue\n      dup1\n      iszero\n      tag_77\n      jumpi\n      0x00\n      dup1\n      revert\n    tag_77:\n      pop\n      tag_78\n      0x04\n      dup1\n      calldatasize\n      sub\n      dup2\n      add\n      swap1\n      tag_79\n      swap2\n      swap1\n      tag_80\n      jump\t// in\n    tag_79:\n      tag_81\n      jump\t// in\n    tag_78:\n      stop\n        /* \"contracts/CrowdFund.sol\":769:794  address public boardAdmin */\n    tag_13:\n      callvalue\n      dup1\n      iszero\n      tag_82\n      jumpi\n      0x00\n      dup1\n      revert\n    tag_82:\n      pop\n      tag_83\n      tag_84\n      jump\t// in\n    tag_83:\n      mload(0x40)\n      tag_85\n      swap2\n      swap1\n      tag_86\n      jump\t// in\n    tag_85:\n      mload(0x40)\n      dup1\n      swap2\n      sub\n      swap1\n      return\n        /* \"contracts/CrowdFund.sol\":4730:5472  function createProject(uint charityId, uint _projectId, uint _minimumAmount, uint _goal, address owner, string memory _documentLink) onlyCharity public {... */\n    tag_14:\n      callvalue\n      dup1\n      iszero\n      tag_87\n      jumpi\n      0x00\n      dup1\n      revert\n    tag_87:\n      pop\n      tag_88\n      0x04\n      dup1\n      calldatasize\n      sub\n      dup2\n      add\n      swap1\n      tag_89\n      swap2\n      swap1\n      tag_90\n      jump\t// in\n    tag_89:\n      tag_91\n      jump\t// in\n    tag_88:\n      stop\n        /* \"contracts/CrowdFund.sol\":10627:11512  function getDonorBalance(uint charityId, uint projectId, uint donorId) public view returns (... */\n    tag_15:\n      callvalue\n      dup1\n      iszero\n      tag_92\n      jumpi\n      0x00\n      dup1\n      revert\n    tag_92:\n      pop\n      tag_93\n      0x04\n      dup1\n      calldatasize\n      sub\n      dup2\n      add\n      swap1\n      tag_94\n      swap2\n      swap1\n      tag_95\n      jump\t// in\n    tag_94:\n      tag_96\n      jump\t// in\n    tag_93:\n      mload(0x40)\n      tag_97\n      swap2\n      swap1\n      tag_40\n      jump\t// in\n    tag_97:\n      mload(0x40)\n      dup1\n      swap2\n      sub\n      swap1\n      return\n        /* \"contracts/CrowdFund.sol\":12944:16021  function donate(uint charityId, uint projectId, uint donorId, uint amount) public payable {... */\n    tag_16:\n      tag_98\n      0x04\n      dup1\n      calldatasize\n      sub\n      dup2\n      add\n      swap1\n      tag_99\n      swap2\n      swap1\n      tag_100\n      jump\t// in\n    tag_99:\n      tag_101\n      jump\t// in\n    tag_98:\n      stop\n        /* \"contracts/CrowdFund.sol\":2721:2776  mapping(ProjectStatus => string) public projectStatuses */\n    tag_17:\n      callvalue\n      dup1\n      iszero\n      tag_102\n      jumpi\n      0x00\n      dup1\n      revert\n    tag_102:\n      pop\n      tag_103\n      0x04\n      dup1\n      calldatasize\n      sub\n      dup2\n      add\n      swap1\n      tag_104\n      swap2\n      swap1\n      tag_105\n      jump\t// in\n    tag_104:\n      tag_106\n      jump\t// in\n    tag_103:\n      mload(0x40)\n      tag_107\n      swap2\n      swap1\n      tag_70\n      jump\t// in\n    tag_107:\n      mload(0x40)\n      dup1\n      swap2\n      sub\n      swap1\n      return\n        /* \"contracts/CrowdFund.sol\":737:763  Charity[] public charities */\n    tag_18:\n      callvalue\n      dup1\n      iszero\n      tag_108\n      jumpi\n      0x00\n      dup1\n      revert\n    tag_108:\n      pop\n      tag_109\n      0x04\n      dup1\n      calldatasize\n      sub\n      dup2\n      add\n      swap1\n      tag_110\n      swap2\n      swap1\n      tag_25\n      jump\t// in\n    tag_110:\n      tag_111\n      jump\t// in\n    tag_109:\n      mload(0x40)\n      tag_112\n      swap6\n      swap5\n      swap4\n      swap3\n      swap2\n      swap1\n      tag_113\n      jump\t// in\n    tag_112:\n      mload(0x40)\n      dup1\n      swap2\n      sub\n      swap1\n      return\n        /* \"contracts/CrowdFund.sol\":706:731  Project[] public projects */\n    tag_26:\n      0x00\n      dup2\n      dup2\n      sload\n      dup2\n      lt\n      tag_114\n      jumpi\n      0x00\n      dup1\n      revert\n    tag_114:\n      swap1\n      0x00\n      mstore\n      keccak256(0x00, 0x20)\n      swap1\n      0x07\n      mul\n      add\n      0x00\n      swap2\n      pop\n      swap1\n      pop\n      dup1\n      0x00\n      add\n      sload\n      swap1\n      dup1\n      0x01\n      add\n      sload\n      swap1\n      dup1\n      0x02\n      add\n      sload\n      swap1\n      dup1\n      0x03\n      add\n      sload\n      swap1\n      dup1\n      0x04\n      add\n      0x00\n      swap1\n      sload\n      swap1\n      0x0100\n      exp\n      swap1\n      div\n      0xffffffffffffffffffffffffffffffffffffffff\n      and\n      swap1\n      dup1\n      0x04\n      add\n      0x14\n      swap1\n      sload\n      swap1\n      0x0100\n      exp\n      swap1\n      div\n      0xff\n      and\n      swap1\n      dup1\n      0x05\n      add\n      dup1\n      sload\n      tag_116\n      swap1\n      tag_117\n      jump\t// in\n    tag_116:\n      dup1\n      0x1f\n      add\n      0x20\n      dup1\n      swap2\n      div\n      mul\n      0x20\n      add\n      mload(0x40)\n      swap1\n      dup2\n      add\n      0x40\n      mstore\n      dup1\n      swap3\n      swap2\n      swap1\n      dup2\n      dup2\n      mstore\n      0x20\n      add\n      dup3\n      dup1\n      sload\n      tag_118\n      swap1\n      tag_117\n      jump\t// in\n    tag_118:\n      dup1\n      iszero\n      tag_119\n      jumpi\n      dup1\n      0x1f\n      lt\n      tag_120\n      jumpi\n      0x0100\n      dup1\n      dup4\n      sload\n      div\n      mul\n      dup4\n      mstore\n      swap2\n      0x20\n      add\n      swap2\n      jump(tag_119)\n    tag_120:\n      dup3\n      add\n      swap2\n      swap1\n      0x00\n      mstore\n      keccak256(0x00, 0x20)\n      swap1\n    tag_121:\n      dup2\n      sload\n      dup2\n      mstore\n      swap1\n      0x01\n      add\n      swap1\n      0x20\n      add\n      dup1\n      dup4\n      gt\n      tag_121\n      jumpi\n      dup3\n      swap1\n      sub\n      0x1f\n      and\n      dup3\n      add\n      swap2\n    tag_119:\n      pop\n      pop\n      pop\n      pop\n      pop\n      swap1\n      dup1\n      0x06\n      add\n      0x00\n      swap1\n      sload\n      swap1\n      0x0100\n      exp\n      swap1\n      div\n      0xff\n      and\n      swap1\n      pop\n      dup9\n      jump\t// out\n        /* \"contracts/CrowdFund.sol\":3517:3906  function createCharity(uint _charityId, string memory _licenseDocsLink, address charity) public onlyBoardAdmin {... */\n    tag_33:\n        /* \"contracts/CrowdFund.sol\":2832:2842  boardAdmin */\n      0x02\n      0x00\n      swap1\n      sload\n      swap1\n      0x0100\n      exp\n      swap1\n      div\n      0xffffffffffffffffffffffffffffffffffffffff\n      and\n        /* \"contracts/CrowdFund.sol\":2820:2842  msg.sender==boardAdmin */\n      0xffffffffffffffffffffffffffffffffffffffff\n      and\n        /* \"contracts/CrowdFund.sol\":2820:2830  msg.sender */\n      caller\n        /* \"contracts/CrowdFund.sol\":2820:2842  msg.sender==boardAdmin */\n      0xffffffffffffffffffffffffffffffffffffffff\n      and\n      eq\n        /* \"contracts/CrowdFund.sol\":2843:2853  ONLY_ADMIN */\n      mload(0x40)\n      dup1\n      0x60\n      add\n      0x40\n      mstore\n      dup1\n      0x33\n      dup2\n      mstore\n      0x20\n      add\n      data_0fd57a96508da25173f82e6faabc4b077c36881e53dd1b21682a822e75096b01\n      0x33\n      swap2\n      codecopy\n        /* \"contracts/CrowdFund.sol\":2812:2854  require(msg.sender==boardAdmin,ONLY_ADMIN) */\n      swap1\n      tag_123\n      jumpi\n      mload(0x40)\n      0x08c379a000000000000000000000000000000000000000000000000000000000\n      dup2\n      mstore\n      0x04\n      add\n      tag_124\n      swap2\n      swap1\n      tag_70\n      jump\t// in\n    tag_124:\n      mload(0x40)\n      dup1\n      swap2\n      sub\n      swap1\n      revert\n    tag_123:\n      pop\n        /* \"contracts/CrowdFund.sol\":3647:3672  Charity memory newCharity */\n      0x00\n        /* \"contracts/CrowdFund.sol\":3675:3852  Charity({... */\n      mload(0x40)\n      dup1\n      0xa0\n      add\n      0x40\n      mstore\n      dup1\n        /* \"contracts/CrowdFund.sol\":3707:3717  _charityId */\n      dup6\n        /* \"contracts/CrowdFund.sol\":3675:3852  Charity({... */\n      dup2\n      mstore\n      0x20\n      add\n        /* \"contracts/CrowdFund.sol\":3740:3745  false */\n      0x00\n        /* \"contracts/CrowdFund.sol\":3675:3852  Charity({... */\n      iszero\n      iszero\n      dup2\n      mstore\n      0x20\n      add\n      mload(0x40)\n      dup1\n      0x20\n      add\n      0x40\n      mstore\n      dup1\n      0x00\n      dup2\n      mstore\n      pop\n      dup2\n      mstore\n      0x20\n      add\n        /* \"contracts/CrowdFund.sol\":3798:3814  _licenseDocsLink */\n      dup5\n        /* \"contracts/CrowdFund.sol\":3675:3852  Charity({... */\n      dup2\n      mstore\n      0x20\n      add\n        /* \"contracts/CrowdFund.sol\":3834:3841  charity */\n      dup4\n        /* \"contracts/CrowdFund.sol\":3675:3852  Charity({... */\n      0xffffffffffffffffffffffffffffffffffffffff\n      and\n      dup2\n      mstore\n      pop\n        /* \"contracts/CrowdFund.sol\":3647:3852  Charity memory newCharity = Charity({... */\n      swap1\n      pop\n        /* \"contracts/CrowdFund.sol\":3863:3872  charities */\n      0x01\n        /* \"contracts/CrowdFund.sol\":3878:3888  newCharity */\n      dup2\n        /* \"contracts/CrowdFund.sol\":3863:3889  charities.push(newCharity) */\n      swap1\n      dup1\n      0x01\n      dup2\n      sload\n      add\n      dup1\n      dup3\n      sstore\n      dup1\n      swap2\n      pop\n      pop\n      0x01\n      swap1\n      sub\n      swap1\n      0x00\n      mstore\n      keccak256(0x00, 0x20)\n      swap1\n      0x05\n      mul\n      add\n      0x00\n      swap1\n      swap2\n      swap1\n      swap2\n      swap1\n      swap2\n      pop\n      0x00\n      dup3\n      add\n      mload\n      dup2\n      0x00\n      add\n      sstore\n      0x20\n      dup3\n      add\n      mload\n      dup2\n      0x01\n      add\n      exp(0x0100, 0x00)\n      dup2\n      sload\n      dup2\n      0xff\n      mul\n      not\n      and\n      swap1\n      dup4\n      iszero\n      iszero\n      mul\n      or\n      swap1\n      sstore\n      pop\n      0x40\n      dup3\n      add\n      mload\n      dup2\n      0x02\n      add\n      swap1\n      dup1\n      mload\n      swap1\n      0x20\n      add\n      swap1\n      tag_127\n      swap3\n      swap2\n      swap1\n      tag_128\n      jump\t// in\n    tag_127:\n      pop\n      0x60\n      dup3\n      add\n      mload\n      dup2\n      0x03\n      add\n      swap1\n      dup1\n      mload\n      swap1\n      0x20\n      add\n      swap1\n      tag_129\n      swap3\n      swap2\n      swap1\n      tag_128\n      jump\t// in\n    tag_129:\n      pop\n      0x80\n      dup3\n      add\n      mload\n      dup2\n      0x04\n      add\n      exp(0x0100, 0x00)\n      dup2\n      sload\n      dup2\n      0xffffffffffffffffffffffffffffffffffffffff\n      mul\n      not\n      and\n      swap1\n      dup4\n      0xffffffffffffffffffffffffffffffffffffffff\n      and\n      mul\n      or\n      swap1\n      sstore\n      pop\n      pop\n      pop\n        /* \"contracts/CrowdFund.sol\":3628:3906  {... */\n      pop\n        /* \"contracts/CrowdFund.sol\":3517:3906  function createCharity(uint _charityId, string memory _licenseDocsLink, address charity) public onlyBoardAdmin {... */\n      pop\n      pop\n      pop\n      jump\t// out\n        /* \"contracts/CrowdFund.sol\":9990:10575  function getProjectOwnerBalance(uint charityId, uint projectId) public view returns (... */\n    tag_38:\n        /* \"contracts/CrowdFund.sol\":10084:10088  uint */\n      0x00\n        /* \"contracts/CrowdFund.sol\":10130:10131  0 */\n      dup1\n        /* \"contracts/CrowdFund.sol\":10112:10120  projects */\n      0x00\n        /* \"contracts/CrowdFund.sol\":10112:10127  projects.length */\n      dup1\n      sload\n      swap1\n      pop\n        /* \"contracts/CrowdFund.sol\":10112:10131  projects.length > 0 */\n      gt\n        /* \"contracts/CrowdFund.sol\":10104:10160  require(projects.length > 0,\"No project is created yet\") */\n      tag_131\n      jumpi\n      mload(0x40)\n      0x08c379a000000000000000000000000000000000000000000000000000000000\n      dup2\n      mstore\n      0x04\n      add\n      tag_132\n      swap1\n      tag_133\n      jump\t// in\n    tag_132:\n      mload(0x40)\n      dup1\n      swap2\n      sub\n      swap1\n      revert\n    tag_131:\n        /* \"contracts/CrowdFund.sol\":10175:10204  Project[] storage projectList */\n      0x00\n        /* \"contracts/CrowdFund.sol\":10207:10222  charityProjects */\n      0x03\n        /* \"contracts/CrowdFund.sol\":10207:10233  charityProjects[charityId] */\n      0x00\n        /* \"contracts/CrowdFund.sol\":10223:10232  charityId */\n      dup6\n        /* \"contracts/CrowdFund.sol\":10207:10233  charityProjects[charityId] */\n      dup2\n      mstore\n      0x20\n      add\n      swap1\n      dup2\n      mstore\n      0x20\n      add\n      0x00\n      keccak256\n        /* \"contracts/CrowdFund.sol\":10175:10233  Project[] storage projectList = charityProjects[charityId] */\n      swap1\n      pop\n        /* \"contracts/CrowdFund.sol\":10276:10277  0 */\n      0x00\n        /* \"contracts/CrowdFund.sol\":10255:10266  projectList */\n      dup2\n        /* \"contracts/CrowdFund.sol\":10255:10273  projectList.length */\n      dup1\n      sload\n      swap1\n      pop\n        /* \"contracts/CrowdFund.sol\":10255:10277  projectList.length > 0 */\n      gt\n        /* \"contracts/CrowdFund.sol\":10247:10298  require(projectList.length > 0,\"Charity not found\") */\n      tag_134\n      jumpi\n      mload(0x40)\n      0x08c379a000000000000000000000000000000000000000000000000000000000\n      dup2\n      mstore\n      0x04\n      add\n      tag_135\n      swap1\n      tag_136\n      jump\t// in\n    tag_135:\n      mload(0x40)\n      dup1\n      swap2\n      sub\n      swap1\n      revert\n    tag_134:\n        /* \"contracts/CrowdFund.sol\":10317:10323  uint i */\n      0x00\n        /* \"contracts/CrowdFund.sol\":10312:10503  for (uint i=0;i<projectList.length;i++) {... */\n    tag_137:\n        /* \"contracts/CrowdFund.sol\":10328:10339  projectList */\n      dup2\n        /* \"contracts/CrowdFund.sol\":10328:10346  projectList.length */\n      dup1\n      sload\n      swap1\n      pop\n        /* \"contracts/CrowdFund.sol\":10326:10327  i */\n      dup2\n        /* \"contracts/CrowdFund.sol\":10326:10346  i<projectList.length */\n      lt\n        /* \"contracts/CrowdFund.sol\":10312:10503  for (uint i=0;i<projectList.length;i++) {... */\n      iszero\n      tag_138\n      jumpi\n        /* \"contracts/CrowdFund.sol\":10402:10411  projectId */\n      dup4\n        /* \"contracts/CrowdFund.sol\":10374:10385  projectList */\n      dup3\n        /* \"contracts/CrowdFund.sol\":10386:10387  i */\n      dup3\n        /* \"contracts/CrowdFund.sol\":10374:10388  projectList[i] */\n      dup2\n      sload\n      dup2\n      lt\n      tag_140\n      jumpi\n      tag_141\n      tag_142\n      jump\t// in\n    tag_141:\n    tag_140:\n      swap1\n      0x00\n      mstore\n      keccak256(0x00, 0x20)\n      swap1\n      0x07\n      mul\n      add\n        /* \"contracts/CrowdFund.sol\":10374:10398  projectList[i].projectId */\n      0x00\n      add\n      sload\n        /* \"contracts/CrowdFund.sol\":10374:10411  projectList[i].projectId == projectId */\n      eq\n        /* \"contracts/CrowdFund.sol\":10370:10489  if (projectList[i].projectId == projectId) {... */\n      iszero\n      tag_144\n      jumpi\n        /* \"contracts/CrowdFund.sol\":10442:10453  projectList */\n      dup2\n        /* \"contracts/CrowdFund.sol\":10454:10455  i */\n      dup2\n        /* \"contracts/CrowdFund.sol\":10442:10456  projectList[i] */\n      dup2\n      sload\n      dup2\n      lt\n      tag_145\n      jumpi\n      tag_146\n      tag_142\n      jump\t// in\n    tag_146:\n    tag_145:\n      swap1\n      0x00\n      mstore\n      keccak256(0x00, 0x20)\n      swap1\n      0x07\n      mul\n      add\n        /* \"contracts/CrowdFund.sol\":10442:10462  projectList[i].owner */\n      0x04\n      add\n      0x00\n      swap1\n      sload\n      swap1\n      0x0100\n      exp\n      swap1\n      div\n      0xffffffffffffffffffffffffffffffffffffffff\n      and\n        /* \"contracts/CrowdFund.sol\":10442:10470  projectList[i].owner.balance */\n      0xffffffffffffffffffffffffffffffffffffffff\n      and\n      balance\n        /* \"contracts/CrowdFund.sol\":10435:10470  return projectList[i].owner.balance */\n      swap3\n      pop\n      pop\n      pop\n      jump(tag_130)\n        /* \"contracts/CrowdFund.sol\":10370:10489  if (projectList[i].projectId == projectId) {... */\n    tag_144:\n        /* \"contracts/CrowdFund.sol\":10347:10350  i++ */\n      dup1\n      dup1\n      tag_148\n      swap1\n      tag_149\n      jump\t// in\n    tag_148:\n      swap2\n      pop\n      pop\n        /* \"contracts/CrowdFund.sol\":10312:10503  for (uint i=0;i<projectList.length;i++) {... */\n      jump(tag_137)\n    tag_138:\n      pop\n        /* \"contracts/CrowdFund.sol\":10518:10568  revert(\"No such project exist under this charity\") */\n      mload(0x40)\n      0x08c379a000000000000000000000000000000000000000000000000000000000\n      dup2\n      mstore\n      0x04\n      add\n      tag_150\n      swap1\n      tag_151\n      jump\t// in\n    tag_150:\n      mload(0x40)\n      dup1\n      swap2\n      sub\n      swap1\n      revert\n        /* \"contracts/CrowdFund.sol\":9990:10575  function getProjectOwnerBalance(uint charityId, uint projectId) public view returns (... */\n    tag_130:\n      swap3\n      swap2\n      pop\n      pop\n      jump\t// out\n        /* \"contracts/CrowdFund.sol\":2681:2715  ProjectStatus public projectStatus */\n    tag_43:\n      0x06\n      0x00\n      swap1\n      sload\n      swap1\n      0x0100\n      exp\n      swap1\n      div\n      0xff\n      and\n      dup2\n      jump\t// out\n        /* \"contracts/CrowdFund.sol\":9175:9938  function getProjectFundDetails(uint charityId, uint projectId) public view returns (... */\n    tag_49:\n        /* \"contracts/CrowdFund.sol\":9268:9272  uint */\n      0x00\n        /* \"contracts/CrowdFund.sol\":9274:9278  uint */\n      dup1\n        /* \"contracts/CrowdFund.sol\":9280:9284  uint */\n      0x00\n        /* \"contracts/CrowdFund.sol\":9326:9327  0 */\n      dup1\n        /* \"contracts/CrowdFund.sol\":9308:9316  projects */\n      0x00\n        /* \"contracts/CrowdFund.sol\":9308:9323  projects.length */\n      dup1\n      sload\n      swap1\n      pop\n        /* \"contracts/CrowdFund.sol\":9308:9327  projects.length > 0 */\n      gt\n        /* \"contracts/CrowdFund.sol\":9300:9356  require(projects.length > 0,\"No project is created yet\") */\n      tag_153\n      jumpi\n      mload(0x40)\n      0x08c379a000000000000000000000000000000000000000000000000000000000\n      dup2\n      mstore\n      0x04\n      add\n      tag_154\n      swap1\n      tag_133\n      jump\t// in\n    tag_154:\n      mload(0x40)\n      dup1\n      swap2\n      sub\n      swap1\n      revert\n    tag_153:\n        /* \"contracts/CrowdFund.sol\":9371:9400  Project[] storage projectList */\n      0x00\n        /* \"contracts/CrowdFund.sol\":9403:9418  charityProjects */\n      0x03\n        /* \"contracts/CrowdFund.sol\":9403:9429  charityProjects[charityId] */\n      0x00\n        /* \"contracts/CrowdFund.sol\":9419:9428  charityId */\n      dup8\n        /* \"contracts/CrowdFund.sol\":9403:9429  charityProjects[charityId] */\n      dup2\n      mstore\n      0x20\n      add\n      swap1\n      dup2\n      mstore\n      0x20\n      add\n      0x00\n      keccak256\n        /* \"contracts/CrowdFund.sol\":9371:9429  Project[] storage projectList = charityProjects[charityId] */\n      swap1\n      pop\n        /* \"contracts/CrowdFund.sol\":9472:9473  0 */\n      0x00\n        /* \"contracts/CrowdFund.sol\":9451:9462  projectList */\n      dup2\n        /* \"contracts/CrowdFund.sol\":9451:9469  projectList.length */\n      dup1\n      sload\n      swap1\n      pop\n        /* \"contracts/CrowdFund.sol\":9451:9473  projectList.length > 0 */\n      gt\n        /* \"contracts/CrowdFund.sol\":9443:9494  require(projectList.length > 0,\"Charity not found\") */\n      tag_155\n      jumpi\n      mload(0x40)\n      0x08c379a000000000000000000000000000000000000000000000000000000000\n      dup2\n      mstore\n      0x04\n      add\n      tag_156\n      swap1\n      tag_136\n      jump\t// in\n    tag_156:\n      mload(0x40)\n      dup1\n      swap2\n      sub\n      swap1\n      revert\n    tag_155:\n        /* \"contracts/CrowdFund.sol\":9513:9519  uint i */\n      0x00\n        /* \"contracts/CrowdFund.sol\":9508:9866  for (uint i=0;i<projectList.length;i++) {... */\n    tag_157:\n        /* \"contracts/CrowdFund.sol\":9524:9535  projectList */\n      dup2\n        /* \"contracts/CrowdFund.sol\":9524:9542  projectList.length */\n      dup1\n      sload\n      swap1\n      pop\n        /* \"contracts/CrowdFund.sol\":9522:9523  i */\n      dup2\n        /* \"contracts/CrowdFund.sol\":9522:9542  i<projectList.length */\n      lt\n        /* \"contracts/CrowdFund.sol\":9508:9866  for (uint i=0;i<projectList.length;i++) {... */\n      iszero\n      tag_158\n      jumpi\n        /* \"contracts/CrowdFund.sol\":9598:9607  projectId */\n      dup6\n        /* \"contracts/CrowdFund.sol\":9570:9581  projectList */\n      dup3\n        /* \"contracts/CrowdFund.sol\":9582:9583  i */\n      dup3\n        /* \"contracts/CrowdFund.sol\":9570:9584  projectList[i] */\n      dup2\n      sload\n      dup2\n      lt\n      tag_160\n      jumpi\n      tag_161\n      tag_142\n      jump\t// in\n    tag_161:\n    tag_160:\n      swap1\n      0x00\n      mstore\n      keccak256(0x00, 0x20)\n      swap1\n      0x07\n      mul\n      add\n        /* \"contracts/CrowdFund.sol\":9570:9594  projectList[i].projectId */\n      0x00\n      add\n      sload\n        /* \"contracts/CrowdFund.sol\":9570:9607  projectList[i].projectId == projectId */\n      eq\n        /* \"contracts/CrowdFund.sol\":9566:9852  if (projectList[i].projectId == projectId) {... */\n      iszero\n      tag_163\n      jumpi\n        /* \"contracts/CrowdFund.sol\":9664:9675  projectList */\n      dup2\n        /* \"contracts/CrowdFund.sol\":9676:9677  i */\n      dup2\n        /* \"contracts/CrowdFund.sol\":9664:9678  projectList[i] */\n      dup2\n      sload\n      dup2\n      lt\n      tag_164\n      jumpi\n      tag_165\n      tag_142\n      jump\t// in\n    tag_165:\n    tag_164:\n      swap1\n      0x00\n      mstore\n      keccak256(0x00, 0x20)\n      swap1\n      0x07\n      mul\n      add\n        /* \"contracts/CrowdFund.sol\":9664:9683  projectList[i].goal */\n      0x02\n      add\n      sload\n        /* \"contracts/CrowdFund.sol\":9709:9720  projectList */\n      dup3\n        /* \"contracts/CrowdFund.sol\":9721:9722  i */\n      dup3\n        /* \"contracts/CrowdFund.sol\":9709:9723  projectList[i] */\n      dup2\n      sload\n      dup2\n      lt\n      tag_167\n      jumpi\n      tag_168\n      tag_142\n      jump\t// in\n    tag_168:\n    tag_167:\n      swap1\n      0x00\n      mstore\n      keccak256(0x00, 0x20)\n      swap1\n      0x07\n      mul\n      add\n        /* \"contracts/CrowdFund.sol\":9709:9736  projectList[i].raisedAmount */\n      0x03\n      add\n      sload\n        /* \"contracts/CrowdFund.sol\":9784:9795  projectList */\n      dup4\n        /* \"contracts/CrowdFund.sol\":9796:9797  i */\n      dup4\n        /* \"contracts/CrowdFund.sol\":9784:9798  projectList[i] */\n      dup2\n      sload\n      dup2\n      lt\n      tag_170\n      jumpi\n      tag_171\n      tag_142\n      jump\t// in\n    tag_171:\n    tag_170:\n      swap1\n      0x00\n      mstore\n      keccak256(0x00, 0x20)\n      swap1\n      0x07\n      mul\n      add\n        /* \"contracts/CrowdFund.sol\":9784:9811  projectList[i].raisedAmount */\n      0x03\n      add\n      sload\n        /* \"contracts/CrowdFund.sol\":9762:9773  projectList */\n      dup5\n        /* \"contracts/CrowdFund.sol\":9774:9775  i */\n      dup5\n        /* \"contracts/CrowdFund.sol\":9762:9776  projectList[i] */\n      dup2\n      sload\n      dup2\n      lt\n      tag_173\n      jumpi\n      tag_174\n      tag_142\n      jump\t// in\n    tag_174:\n    tag_173:\n      swap1\n      0x00\n      mstore\n      keccak256(0x00, 0x20)\n      swap1\n      0x07\n      mul\n      add\n        /* \"contracts/CrowdFund.sol\":9762:9781  projectList[i].goal */\n      0x02\n      add\n      sload\n        /* \"contracts/CrowdFund.sol\":9762:9811  projectList[i].goal - projectList[i].raisedAmount */\n      tag_176\n      swap2\n      swap1\n      tag_177\n      jump\t// in\n    tag_176:\n        /* \"contracts/CrowdFund.sol\":9631:9833  return (... */\n      swap5\n      pop\n      swap5\n      pop\n      swap5\n      pop\n      pop\n      pop\n      jump(tag_152)\n        /* \"contracts/CrowdFund.sol\":9566:9852  if (projectList[i].projectId == projectId) {... */\n    tag_163:\n        /* \"contracts/CrowdFund.sol\":9543:9546  i++ */\n      dup1\n      dup1\n      tag_178\n      swap1\n      tag_149\n      jump\t// in\n    tag_178:\n      swap2\n      pop\n      pop\n        /* \"contracts/CrowdFund.sol\":9508:9866  for (uint i=0;i<projectList.length;i++) {... */\n      jump(tag_157)\n    tag_158:\n      pop\n        /* \"contracts/CrowdFund.sol\":9881:9931  revert(\"No such project exist under this charity\") */\n      mload(0x40)\n      0x08c379a000000000000000000000000000000000000000000000000000000000\n      dup2\n      mstore\n      0x04\n      add\n      tag_179\n      swap1\n      tag_151\n      jump\t// in\n    tag_179:\n      mload(0x40)\n      dup1\n      swap2\n      sub\n      swap1\n      revert\n        /* \"contracts/CrowdFund.sol\":9175:9938  function getProjectFundDetails(uint charityId, uint projectId) public view returns (... */\n    tag_152:\n      swap3\n      pop\n      swap3\n      pop\n      swap3\n      jump\t// out\n        /* \"contracts/CrowdFund.sol\":5481:6629  function updateProjectStatusByAdmin(uint projectId, uint charityId, uint8 enumValue) onlyBoardAdmin public {... */\n    tag_56:\n        /* \"contracts/CrowdFund.sol\":2832:2842  boardAdmin */\n      0x02\n      0x00\n      swap1\n      sload\n      swap1\n      0x0100\n      exp\n      swap1\n      div\n      0xffffffffffffffffffffffffffffffffffffffff\n      and\n        /* \"contracts/CrowdFund.sol\":2820:2842  msg.sender==boardAdmin */\n      0xffffffffffffffffffffffffffffffffffffffff\n      and\n        /* \"contracts/CrowdFund.sol\":2820:2830  msg.sender */\n      caller\n        /* \"contracts/CrowdFund.sol\":2820:2842  msg.sender==boardAdmin */\n      0xffffffffffffffffffffffffffffffffffffffff\n      and\n      eq\n        /* \"contracts/CrowdFund.sol\":2843:2853  ONLY_ADMIN */\n      mload(0x40)\n      dup1\n      0x60\n      add\n      0x40\n      mstore\n      dup1\n      0x33\n      dup2\n      mstore\n      0x20\n      add\n      data_0fd57a96508da25173f82e6faabc4b077c36881e53dd1b21682a822e75096b01\n      0x33\n      swap2\n      codecopy\n        /* \"contracts/CrowdFund.sol\":2812:2854  require(msg.sender==boardAdmin,ONLY_ADMIN) */\n      swap1\n      tag_181\n      jumpi\n      mload(0x40)\n      0x08c379a000000000000000000000000000000000000000000000000000000000\n      dup2\n      mstore\n      0x04\n      add\n      tag_182\n      swap2\n      swap1\n      tag_70\n      jump\t// in\n    tag_182:\n      mload(0x40)\n      dup1\n      swap2\n      sub\n      swap1\n      revert\n    tag_181:\n      pop\n        /* \"contracts/CrowdFund.sol\":5633:5634  0 */\n      0x00\n        /* \"contracts/CrowdFund.sol\":5615:5623  projects */\n      dup1\n        /* \"contracts/CrowdFund.sol\":5615:5630  projects.length */\n      dup1\n      sload\n      swap1\n      pop\n        /* \"contracts/CrowdFund.sol\":5615:5634  projects.length > 0 */\n      gt\n        /* \"contracts/CrowdFund.sol\":5607:5663  require(projects.length > 0,\"No project is created yet\") */\n      tag_184\n      jumpi\n      mload(0x40)\n      0x08c379a000000000000000000000000000000000000000000000000000000000\n      dup2\n      mstore\n      0x04\n      add\n      tag_185\n      swap1\n      tag_133\n      jump\t// in\n    tag_185:\n      mload(0x40)\n      dup1\n      swap2\n      sub\n      swap1\n      revert\n    tag_184:\n        /* \"contracts/CrowdFund.sol\":5758:5775  ProjectStatus.WFA */\n      0x00\n        /* \"contracts/CrowdFund.sol\":5730:5775  ProjectStatus(enumValue) != ProjectStatus.WFA */\n      0x09\n      dup2\n      gt\n      iszero\n      tag_186\n      jumpi\n      tag_187\n      tag_188\n      jump\t// in\n    tag_187:\n    tag_186:\n        /* \"contracts/CrowdFund.sol\":5744:5753  enumValue */\n      dup2\n        /* \"contracts/CrowdFund.sol\":5730:5754  ProjectStatus(enumValue) */\n      0xff\n      and\n      0x09\n      dup2\n      gt\n      iszero\n      tag_189\n      jumpi\n      tag_190\n      tag_188\n      jump\t// in\n    tag_190:\n    tag_189:\n        /* \"contracts/CrowdFund.sol\":5730:5775  ProjectStatus(enumValue) != ProjectStatus.WFA */\n      0x09\n      dup2\n      gt\n      iszero\n      tag_191\n      jumpi\n      tag_192\n      tag_188\n      jump\t// in\n    tag_192:\n    tag_191:\n      eq\n      iszero\n        /* \"contracts/CrowdFund.sol\":5776:5783  NO_AUTH */\n      mload(0x40)\n      dup1\n      0x60\n      add\n      0x40\n      mstore\n      dup1\n      0x31\n      dup2\n      mstore\n      0x20\n      add\n      data_5c19b7ff1bcfb320392194574ccc24118e50bba13de42db0a22f05014bb7a7fa\n      0x31\n      swap2\n      codecopy\n        /* \"contracts/CrowdFund.sol\":5722:5784  require(ProjectStatus(enumValue) != ProjectStatus.WFA,NO_AUTH) */\n      swap1\n      tag_193\n      jumpi\n      mload(0x40)\n      0x08c379a000000000000000000000000000000000000000000000000000000000\n      dup2\n      mstore\n      0x04\n      add\n      tag_194\n      swap2\n      swap1\n      tag_70\n      jump\t// in\n    tag_194:\n      mload(0x40)\n      dup1\n      swap2\n      sub\n      swap1\n      revert\n    tag_193:\n      pop\n        /* \"contracts/CrowdFund.sol\":5830:5847  ProjectStatus.APR */\n      0x02\n        /* \"contracts/CrowdFund.sol\":5802:5847  ProjectStatus(enumValue) != ProjectStatus.APR */\n      0x09\n      dup2\n      gt\n      iszero\n      tag_195\n      jumpi\n      tag_196\n      tag_188\n      jump\t// in\n    tag_196:\n    tag_195:\n        /* \"contracts/CrowdFund.sol\":5816:5825  enumValue */\n      dup2\n        /* \"contracts/CrowdFund.sol\":5802:5826  ProjectStatus(enumValue) */\n      0xff\n      and\n      0x09\n      dup2\n      gt\n      iszero\n      tag_197\n      jumpi\n      tag_198\n      tag_188\n      jump\t// in\n    tag_198:\n    tag_197:\n        /* \"contracts/CrowdFund.sol\":5802:5847  ProjectStatus(enumValue) != ProjectStatus.APR */\n      0x09\n      dup2\n      gt\n      iszero\n      tag_199\n      jumpi\n      tag_200\n      tag_188\n      jump\t// in\n    tag_200:\n    tag_199:\n      eq\n      iszero\n        /* \"contracts/CrowdFund.sol\":5848:5855  NO_AUTH */\n      mload(0x40)\n      dup1\n      0x60\n      add\n      0x40\n      mstore\n      dup1\n      0x31\n      dup2\n      mstore\n      0x20\n      add\n      data_5c19b7ff1bcfb320392194574ccc24118e50bba13de42db0a22f05014bb7a7fa\n      0x31\n      swap2\n      codecopy\n        /* \"contracts/CrowdFund.sol\":5794:5856  require(ProjectStatus(enumValue) != ProjectStatus.APR,NO_AUTH) */\n      swap1\n      tag_201\n      jumpi\n      mload(0x40)\n      0x08c379a000000000000000000000000000000000000000000000000000000000\n      dup2\n      mstore\n      0x04\n      add\n      tag_202\n      swap2\n      swap1\n      tag_70\n      jump\t// in\n    tag_202:\n      mload(0x40)\n      dup1\n      swap2\n      sub\n      swap1\n      revert\n    tag_201:\n      pop\n        /* \"contracts/CrowdFund.sol\":5902:5919  ProjectStatus.PGA */\n      0x03\n        /* \"contracts/CrowdFund.sol\":5874:5919  ProjectStatus(enumValue) != ProjectStatus.PGA */\n      0x09\n      dup2\n      gt\n      iszero\n      tag_203\n      jumpi\n      tag_204\n      tag_188\n      jump\t// in\n    tag_204:\n    tag_203:\n        /* \"contracts/CrowdFund.sol\":5888:5897  enumValue */\n      dup2\n        /* \"contracts/CrowdFund.sol\":5874:5898  ProjectStatus(enumValue) */\n      0xff\n      and\n      0x09\n      dup2\n      gt\n      iszero\n      tag_205\n      jumpi\n      tag_206\n      tag_188\n      jump\t// in\n    tag_206:\n    tag_205:\n        /* \"contracts/CrowdFund.sol\":5874:5919  ProjectStatus(enumValue) != ProjectStatus.PGA */\n      0x09\n      dup2\n      gt\n      iszero\n      tag_207\n      jumpi\n      tag_208\n      tag_188\n      jump\t// in\n    tag_208:\n    tag_207:\n      eq\n      iszero\n        /* \"contracts/CrowdFund.sol\":5920:5927  NO_AUTH */\n      mload(0x40)\n      dup1\n      0x60\n      add\n      0x40\n      mstore\n      dup1\n      0x31\n      dup2\n      mstore\n      0x20\n      add\n      data_5c19b7ff1bcfb320392194574ccc24118e50bba13de42db0a22f05014bb7a7fa\n      0x31\n      swap2\n      codecopy\n        /* \"contracts/CrowdFund.sol\":5866:5928  require(ProjectStatus(enumValue) != ProjectStatus.PGA,NO_AUTH) */\n      swap1\n      tag_209\n      jumpi\n      mload(0x40)\n      0x08c379a000000000000000000000000000000000000000000000000000000000\n      dup2\n      mstore\n      0x04\n      add\n      tag_210\n      swap2\n      swap1\n      tag_70\n      jump\t// in\n    tag_210:\n      mload(0x40)\n      dup1\n      swap2\n      sub\n      swap1\n      revert\n    tag_209:\n      pop\n        /* \"contracts/CrowdFund.sol\":5974:5991  ProjectStatus.XRQ */\n      0x04\n        /* \"contracts/CrowdFund.sol\":5946:5991  ProjectStatus(enumValue) != ProjectStatus.XRQ */\n      0x09\n      dup2\n      gt\n      iszero\n      tag_211\n      jumpi\n      tag_212\n      tag_188\n      jump\t// in\n    tag_212:\n    tag_211:\n        /* \"contracts/CrowdFund.sol\":5960:5969  enumValue */\n      dup2\n        /* \"contracts/CrowdFund.sol\":5946:5970  ProjectStatus(enumValue) */\n      0xff\n      and\n      0x09\n      dup2\n      gt\n      iszero\n      tag_213\n      jumpi\n      tag_214\n      tag_188\n      jump\t// in\n    tag_214:\n    tag_213:\n        /* \"contracts/CrowdFund.sol\":5946:5991  ProjectStatus(enumValue) != ProjectStatus.XRQ */\n      0x09\n      dup2\n      gt\n      iszero\n      tag_215\n      jumpi\n      tag_216\n      tag_188\n      jump\t// in\n    tag_216:\n    tag_215:\n      eq\n      iszero\n        /* \"contracts/CrowdFund.sol\":5992:5999  NO_AUTH */\n      mload(0x40)\n      dup1\n      0x60\n      add\n      0x40\n      mstore\n      dup1\n      0x31\n      dup2\n      mstore\n      0x20\n      add\n      data_5c19b7ff1bcfb320392194574ccc24118e50bba13de42db0a22f05014bb7a7fa\n      0x31\n      swap2\n      codecopy\n        /* \"contracts/CrowdFund.sol\":5938:6000  require(ProjectStatus(enumValue) != ProjectStatus.XRQ,NO_AUTH) */\n      swap1\n      tag_217\n      jumpi\n      mload(0x40)\n      0x08c379a000000000000000000000000000000000000000000000000000000000\n      dup2\n      mstore\n      0x04\n      add\n      tag_218\n      swap2\n      swap1\n      tag_70\n      jump\t// in\n    tag_218:\n      mload(0x40)\n      dup1\n      swap2\n      sub\n      swap1\n      revert\n    tag_217:\n      pop\n        /* \"contracts/CrowdFund.sol\":6011:6040  Project[] storage projectList */\n      0x00\n        /* \"contracts/CrowdFund.sol\":6043:6058  charityProjects */\n      0x03\n        /* \"contracts/CrowdFund.sol\":6043:6069  charityProjects[charityId] */\n      0x00\n        /* \"contracts/CrowdFund.sol\":6059:6068  charityId */\n      dup5\n        /* \"contracts/CrowdFund.sol\":6043:6069  charityProjects[charityId] */\n      dup2\n      mstore\n      0x20\n      add\n      swap1\n      dup2\n      mstore\n      0x20\n      add\n      0x00\n      keccak256\n        /* \"contracts/CrowdFund.sol\":6011:6069  Project[] storage projectList = charityProjects[charityId] */\n      swap1\n      pop\n        /* \"contracts/CrowdFund.sol\":6108:6109  0 */\n      0x00\n        /* \"contracts/CrowdFund.sol\":6087:6098  projectList */\n      dup2\n        /* \"contracts/CrowdFund.sol\":6087:6105  projectList.length */\n      dup1\n      sload\n      swap1\n      pop\n        /* \"contracts/CrowdFund.sol\":6087:6109  projectList.length > 0 */\n      gt\n        /* \"contracts/CrowdFund.sol\":6079:6148  require(projectList.length > 0,\"No project exist under this charity\") */\n      tag_219\n      jumpi\n      mload(0x40)\n      0x08c379a000000000000000000000000000000000000000000000000000000000\n      dup2\n      mstore\n      0x04\n      add\n      tag_220\n      swap1\n      tag_221\n      jump\t// in\n    tag_220:\n      mload(0x40)\n      dup1\n      swap2\n      sub\n      swap1\n      revert\n    tag_219:\n        /* \"contracts/CrowdFund.sol\":6163:6169  uint i */\n      0x00\n        /* \"contracts/CrowdFund.sol\":6158:6623  for (uint i=0;i<projectList.length;i++) {... */\n    tag_222:\n        /* \"contracts/CrowdFund.sol\":6174:6185  projectList */\n      dup2\n        /* \"contracts/CrowdFund.sol\":6174:6192  projectList.length */\n      dup1\n      sload\n      swap1\n      pop\n        /* \"contracts/CrowdFund.sol\":6172:6173  i */\n      dup2\n        /* \"contracts/CrowdFund.sol\":6172:6192  i<projectList.length */\n      lt\n        /* \"contracts/CrowdFund.sol\":6158:6623  for (uint i=0;i<projectList.length;i++) {... */\n      iszero\n      tag_223\n      jumpi\n        /* \"contracts/CrowdFund.sol\":6244:6253  projectId */\n      dup5\n        /* \"contracts/CrowdFund.sol\":6216:6227  projectList */\n      dup3\n        /* \"contracts/CrowdFund.sol\":6228:6229  i */\n      dup3\n        /* \"contracts/CrowdFund.sol\":6216:6230  projectList[i] */\n      dup2\n      sload\n      dup2\n      lt\n      tag_225\n      jumpi\n      tag_226\n      tag_142\n      jump\t// in\n    tag_226:\n    tag_225:\n      swap1\n      0x00\n      mstore\n      keccak256(0x00, 0x20)\n      swap1\n      0x07\n      mul\n      add\n        /* \"contracts/CrowdFund.sol\":6216:6240  projectList[i].projectId */\n      0x00\n      add\n      sload\n        /* \"contracts/CrowdFund.sol\":6216:6253  projectList[i].projectId == projectId */\n      eq\n        /* \"contracts/CrowdFund.sol\":6212:6613  if (projectList[i].projectId == projectId) {... */\n      iszero\n      tag_228\n      jumpi\n        /* \"contracts/CrowdFund.sol\":6318:6327  enumValue */\n      dup3\n        /* \"contracts/CrowdFund.sol\":6304:6328  ProjectStatus(enumValue) */\n      0xff\n      and\n      0x09\n      dup2\n      gt\n      iszero\n      tag_229\n      jumpi\n      tag_230\n      tag_188\n      jump\t// in\n    tag_230:\n    tag_229:\n        /* \"contracts/CrowdFund.sol\":6273:6284  projectList */\n      dup3\n        /* \"contracts/CrowdFund.sol\":6285:6286  i */\n      dup3\n        /* \"contracts/CrowdFund.sol\":6273:6287  projectList[i] */\n      dup2\n      sload\n      dup2\n      lt\n      tag_231\n      jumpi\n      tag_232\n      tag_142\n      jump\t// in\n    tag_232:\n    tag_231:\n      swap1\n      0x00\n      mstore\n      keccak256(0x00, 0x20)\n      swap1\n      0x07\n      mul\n      add\n        /* \"contracts/CrowdFund.sol\":6273:6301  projectList[i].projectStatus */\n      0x06\n      add\n      0x00\n        /* \"contracts/CrowdFund.sol\":6273:6328  projectList[i].projectStatus = ProjectStatus(enumValue) */\n      0x0100\n      exp\n      dup2\n      sload\n      dup2\n      0xff\n      mul\n      not\n      and\n      swap1\n      dup4\n      0x09\n      dup2\n      gt\n      iszero\n      tag_234\n      jumpi\n      tag_235\n      tag_188\n      jump\t// in\n    tag_235:\n    tag_234:\n      mul\n      or\n      swap1\n      sstore\n      pop\n        /* \"contracts/CrowdFund.sol\":6501:6574  BoardMessageToCharity(charityId, projectId, projectList[i].projectStatus) */\n      0x42b0281ef1ba120f08ae315789f8639d48731db33eaac502b629a775c997471b\n        /* \"contracts/CrowdFund.sol\":6523:6532  charityId */\n      dup5\n        /* \"contracts/CrowdFund.sol\":6534:6543  projectId */\n      dup7\n        /* \"contracts/CrowdFund.sol\":6545:6556  projectList */\n      dup5\n        /* \"contracts/CrowdFund.sol\":6557:6558  i */\n      dup5\n        /* \"contracts/CrowdFund.sol\":6545:6559  projectList[i] */\n      dup2\n      sload\n      dup2\n      lt\n      tag_236\n      jumpi\n      tag_237\n      tag_142\n      jump\t// in\n    tag_237:\n    tag_236:\n      swap1\n      0x00\n      mstore\n      keccak256(0x00, 0x20)\n      swap1\n      0x07\n      mul\n      add\n        /* \"contracts/CrowdFund.sol\":6545:6573  projectList[i].projectStatus */\n      0x06\n      add\n      0x00\n      swap1\n      sload\n      swap1\n      0x0100\n      exp\n      swap1\n      div\n      0xff\n      and\n        /* \"contracts/CrowdFund.sol\":6501:6574  BoardMessageToCharity(charityId, projectId, projectList[i].projectStatus) */\n      mload(0x40)\n      tag_239\n      swap4\n      swap3\n      swap2\n      swap1\n      tag_240\n      jump\t// in\n    tag_239:\n      mload(0x40)\n      dup1\n      swap2\n      sub\n      swap1\n      log1\n        /* \"contracts/CrowdFund.sol\":6593:6598  break */\n      jump(tag_223)\n        /* \"contracts/CrowdFund.sol\":6212:6613  if (projectList[i].projectId == projectId) {... */\n    tag_228:\n        /* \"contracts/CrowdFund.sol\":6193:6196  i++ */\n      dup1\n      dup1\n      tag_241\n      swap1\n      tag_149\n      jump\t// in\n    tag_241:\n      swap2\n      pop\n      pop\n        /* \"contracts/CrowdFund.sol\":6158:6623  for (uint i=0;i<projectList.length;i++) {... */\n      jump(tag_222)\n    tag_223:\n      pop\n        /* \"contracts/CrowdFund.sol\":5588:6629  {... */\n      pop\n        /* \"contracts/CrowdFund.sol\":5481:6629  function updateProjectStatusByAdmin(uint projectId, uint charityId, uint8 enumValue) onlyBoardAdmin public {... */\n      pop\n      pop\n      pop\n      jump\t// out\n        /* \"contracts/CrowdFund.sol\":6683:9123  function updateProjectStatusByCharity(uint projectId, uint charityId, uint8 enumValue) onlyCharity public {... */\n    tag_60:\n        /* \"contracts/CrowdFund.sol\":2916:2926  boardAdmin */\n      0x02\n      0x00\n      swap1\n      sload\n      swap1\n      0x0100\n      exp\n      swap1\n      div\n      0xffffffffffffffffffffffffffffffffffffffff\n      and\n        /* \"contracts/CrowdFund.sol\":2904:2926  msg.sender!=boardAdmin */\n      0xffffffffffffffffffffffffffffffffffffffff\n      and\n        /* \"contracts/CrowdFund.sol\":2904:2914  msg.sender */\n      caller\n        /* \"contracts/CrowdFund.sol\":2904:2926  msg.sender!=boardAdmin */\n      0xffffffffffffffffffffffffffffffffffffffff\n      and\n      eq\n      iszero\n        /* \"contracts/CrowdFund.sol\":2927:2939  ONLY_CHARITY */\n      mload(0x40)\n      dup1\n      0x60\n      add\n      0x40\n      mstore\n      dup1\n      0x2f\n      dup2\n      mstore\n      0x20\n      add\n      data_ae7511c0e8221605b02a680fd07d0703f28d0f0f32c6884aaca3289d2fe90612\n      0x2f\n      swap2\n      codecopy\n        /* \"contracts/CrowdFund.sol\":2896:2940  require(msg.sender!=boardAdmin,ONLY_CHARITY) */\n      swap1\n      tag_243\n      jumpi\n      mload(0x40)\n      0x08c379a000000000000000000000000000000000000000000000000000000000\n      dup2\n      mstore\n      0x04\n      add\n      tag_244\n      swap2\n      swap1\n      tag_70\n      jump\t// in\n    tag_244:\n      mload(0x40)\n      dup1\n      swap2\n      sub\n      swap1\n      revert\n    tag_243:\n      pop\n        /* \"contracts/CrowdFund.sol\":6800:6810  bool exist */\n      0x00\n        /* \"contracts/CrowdFund.sol\":6865:6882  ProjectStatus.PGA */\n      0x03\n        /* \"contracts/CrowdFund.sol\":6837:6882  ProjectStatus(enumValue) != ProjectStatus.PGA */\n      0x09\n      dup2\n      gt\n      iszero\n      tag_246\n      jumpi\n      tag_247\n      tag_188\n      jump\t// in\n    tag_247:\n    tag_246:\n        /* \"contracts/CrowdFund.sol\":6851:6860  enumValue */\n      dup3\n        /* \"contracts/CrowdFund.sol\":6837:6861  ProjectStatus(enumValue) */\n      0xff\n      and\n      0x09\n      dup2\n      gt\n      iszero\n      tag_248\n      jumpi\n      tag_249\n      tag_188\n      jump\t// in\n    tag_249:\n    tag_248:\n        /* \"contracts/CrowdFund.sol\":6837:6882  ProjectStatus(enumValue) != ProjectStatus.PGA */\n      0x09\n      dup2\n      gt\n      iszero\n      tag_250\n      jumpi\n      tag_251\n      tag_188\n      jump\t// in\n    tag_251:\n    tag_250:\n      eq\n      iszero\n        /* \"contracts/CrowdFund.sol\":6883:6890  NO_AUTH */\n      mload(0x40)\n      dup1\n      0x60\n      add\n      0x40\n      mstore\n      dup1\n      0x31\n      dup2\n      mstore\n      0x20\n      add\n      data_5c19b7ff1bcfb320392194574ccc24118e50bba13de42db0a22f05014bb7a7fa\n      0x31\n      swap2\n      codecopy\n        /* \"contracts/CrowdFund.sol\":6829:6891  require(ProjectStatus(enumValue) != ProjectStatus.PGA,NO_AUTH) */\n      swap1\n      tag_252\n      jumpi\n      mload(0x40)\n      0x08c379a000000000000000000000000000000000000000000000000000000000\n      dup2\n      mstore\n      0x04\n      add\n      tag_253\n      swap2\n      swap1\n      tag_70\n      jump\t// in\n    tag_253:\n      mload(0x40)\n      dup1\n      swap2\n      sub\n      swap1\n      revert\n    tag_252:\n      pop\n        /* \"contracts/CrowdFund.sol\":6937:6954  ProjectStatus.XRR */\n      0x05\n        /* \"contracts/CrowdFund.sol\":6909:6954  ProjectStatus(enumValue) != ProjectStatus.XRR */\n      0x09\n      dup2\n      gt\n      iszero\n      tag_254\n      jumpi\n      tag_255\n      tag_188\n      jump\t// in\n    tag_255:\n    tag_254:\n        /* \"contracts/CrowdFund.sol\":6923:6932  enumValue */\n      dup3\n        /* \"contracts/CrowdFund.sol\":6909:6933  ProjectStatus(enumValue) */\n      0xff\n      and\n      0x09\n      dup2\n      gt\n      iszero\n      tag_256\n      jumpi\n      tag_257\n      tag_188\n      jump\t// in\n    tag_257:\n    tag_256:\n        /* \"contracts/CrowdFund.sol\":6909:6954  ProjectStatus(enumValue) != ProjectStatus.XRR */\n      0x09\n      dup2\n      gt\n      iszero\n      tag_258\n      jumpi\n      tag_259\n      tag_188\n      jump\t// in\n    tag_259:\n    tag_258:\n      eq\n      iszero\n        /* \"contracts/CrowdFund.sol\":6955:6962  NO_AUTH */\n      mload(0x40)\n      dup1\n      0x60\n      add\n      0x40\n      mstore\n      dup1\n      0x31\n      dup2\n      mstore\n      0x20\n      add\n      data_5c19b7ff1bcfb320392194574ccc24118e50bba13de42db0a22f05014bb7a7fa\n      0x31\n      swap2\n      codecopy\n        /* \"contracts/CrowdFund.sol\":6901:6963  require(ProjectStatus(enumValue) != ProjectStatus.XRR,NO_AUTH) */\n      swap1\n      tag_260\n      jumpi\n      mload(0x40)\n      0x08c379a000000000000000000000000000000000000000000000000000000000\n      dup2\n      mstore\n      0x04\n      add\n      tag_261\n      swap2\n      swap1\n      tag_70\n      jump\t// in\n    tag_261:\n      mload(0x40)\n      dup1\n      swap2\n      sub\n      swap1\n      revert\n    tag_260:\n      pop\n        /* \"contracts/CrowdFund.sol\":7122:7151  Project[] storage projectList */\n      0x00\n        /* \"contracts/CrowdFund.sol\":7154:7169  charityProjects */\n      0x03\n        /* \"contracts/CrowdFund.sol\":7154:7180  charityProjects[charityId] */\n      0x00\n        /* \"contracts/CrowdFund.sol\":7170:7179  charityId */\n      dup6\n        /* \"contracts/CrowdFund.sol\":7154:7180  charityProjects[charityId] */\n      dup2\n      mstore\n      0x20\n      add\n      swap1\n      dup2\n      mstore\n      0x20\n      add\n      0x00\n      keccak256\n        /* \"contracts/CrowdFund.sol\":7122:7180  Project[] storage projectList = charityProjects[charityId] */\n      swap1\n      pop\n        /* \"contracts/CrowdFund.sol\":7219:7220  0 */\n      0x00\n        /* \"contracts/CrowdFund.sol\":7198:7209  projectList */\n      dup2\n        /* \"contracts/CrowdFund.sol\":7198:7216  projectList.length */\n      dup1\n      sload\n      swap1\n      pop\n        /* \"contracts/CrowdFund.sol\":7198:7220  projectList.length > 0 */\n      gt\n        /* \"contracts/CrowdFund.sol\":7190:7262  require(projectList.length > 0,\"No project exist under this project id\") */\n      tag_262\n      jumpi\n      mload(0x40)\n      0x08c379a000000000000000000000000000000000000000000000000000000000\n      dup2\n      mstore\n      0x04\n      add\n      tag_263\n      swap1\n      tag_264\n      jump\t// in\n    tag_263:\n      mload(0x40)\n      dup1\n      swap2\n      sub\n      swap1\n      revert\n    tag_262:\n        /* \"contracts/CrowdFund.sol\":7278:7284  uint i */\n      0x00\n        /* \"contracts/CrowdFund.sol\":7273:9117  for (uint i=0;i<projectList.length;i++) {... */\n    tag_265:\n        /* \"contracts/CrowdFund.sol\":7289:7300  projectList */\n      dup2\n        /* \"contracts/CrowdFund.sol\":7289:7307  projectList.length */\n      dup1\n      sload\n      swap1\n      pop\n        /* \"contracts/CrowdFund.sol\":7287:7288  i */\n      dup2\n        /* \"contracts/CrowdFund.sol\":7287:7307  i<projectList.length */\n      lt\n        /* \"contracts/CrowdFund.sol\":7273:9117  for (uint i=0;i<projectList.length;i++) {... */\n      iszero\n      tag_266\n      jumpi\n        /* \"contracts/CrowdFund.sol\":7359:7368  projectId */\n      dup6\n        /* \"contracts/CrowdFund.sol\":7331:7342  projectList */\n      dup3\n        /* \"contracts/CrowdFund.sol\":7343:7344  i */\n      dup3\n        /* \"contracts/CrowdFund.sol\":7331:7345  projectList[i] */\n      dup2\n      sload\n      dup2\n      lt\n      tag_268\n      jumpi\n      tag_269\n      tag_142\n      jump\t// in\n    tag_269:\n    tag_268:\n      swap1\n      0x00\n      mstore\n      keccak256(0x00, 0x20)\n      swap1\n      0x07\n      mul\n      add\n        /* \"contracts/CrowdFund.sol\":7331:7355  projectList[i].projectId */\n      0x00\n      add\n      sload\n        /* \"contracts/CrowdFund.sol\":7331:7368  projectList[i].projectId == projectId */\n      eq\n        /* \"contracts/CrowdFund.sol\":7327:9060  if (projectList[i].projectId == projectId) {... */\n      iszero\n      tag_271\n      jumpi\n        /* \"contracts/CrowdFund.sol\":7413:7417  true */\n      0x01\n        /* \"contracts/CrowdFund.sol\":7405:7417  exist = true */\n      swap3\n      pop\n        /* \"contracts/CrowdFund.sol\":7468:7473  false */\n      0x00\n        /* \"contracts/CrowdFund.sol\":7436:7447  projectList */\n      dup3\n        /* \"contracts/CrowdFund.sol\":7448:7449  i */\n      dup3\n        /* \"contracts/CrowdFund.sol\":7436:7450  projectList[i] */\n      dup2\n      sload\n      dup2\n      lt\n      tag_272\n      jumpi\n      tag_273\n      tag_142\n      jump\t// in\n    tag_273:\n    tag_272:\n      swap1\n      0x00\n      mstore\n      keccak256(0x00, 0x20)\n      swap1\n      0x07\n      mul\n      add\n        /* \"contracts/CrowdFund.sol\":7436:7465  projectList[i].acceptDonation */\n      0x04\n      add\n      0x14\n        /* \"contracts/CrowdFund.sol\":7436:7473  projectList[i].acceptDonation = false */\n      0x0100\n      exp\n      dup2\n      sload\n      dup2\n      0xff\n      mul\n      not\n      and\n      swap1\n      dup4\n      iszero\n      iszero\n      mul\n      or\n      swap1\n      sstore\n      pop\n        /* \"contracts/CrowdFund.sol\":7524:7541  ProjectStatus.XRJ */\n      0x07\n        /* \"contracts/CrowdFund.sol\":7496:7541  ProjectStatus(enumValue) == ProjectStatus.XRJ */\n      0x09\n      dup2\n      gt\n      iszero\n      tag_275\n      jumpi\n      tag_276\n      tag_188\n      jump\t// in\n    tag_276:\n    tag_275:\n        /* \"contracts/CrowdFund.sol\":7510:7519  enumValue */\n      dup5\n        /* \"contracts/CrowdFund.sol\":7496:7520  ProjectStatus(enumValue) */\n      0xff\n      and\n      0x09\n      dup2\n      gt\n      iszero\n      tag_277\n      jumpi\n      tag_278\n      tag_188\n      jump\t// in\n    tag_278:\n    tag_277:\n        /* \"contracts/CrowdFund.sol\":7496:7541  ProjectStatus(enumValue) == ProjectStatus.XRJ */\n      0x09\n      dup2\n      gt\n      iszero\n      tag_279\n      jumpi\n      tag_280\n      tag_188\n      jump\t// in\n    tag_280:\n    tag_279:\n      eq\n        /* \"contracts/CrowdFund.sol\":7496:7610  ProjectStatus(enumValue) == ProjectStatus.XRJ ||... */\n      dup1\n      tag_281\n      jumpi\n      pop\n        /* \"contracts/CrowdFund.sol\":7593:7610  ProjectStatus.XRA */\n      0x06\n        /* \"contracts/CrowdFund.sol\":7565:7610  ProjectStatus(enumValue) == ProjectStatus.XRA */\n      0x09\n      dup2\n      gt\n      iszero\n      tag_282\n      jumpi\n      tag_283\n      tag_188\n      jump\t// in\n    tag_283:\n    tag_282:\n        /* \"contracts/CrowdFund.sol\":7579:7588  enumValue */\n      dup5\n        /* \"contracts/CrowdFund.sol\":7565:7589  ProjectStatus(enumValue) */\n      0xff\n      and\n      0x09\n      dup2\n      gt\n      iszero\n      tag_284\n      jumpi\n      tag_285\n      tag_188\n      jump\t// in\n    tag_285:\n    tag_284:\n        /* \"contracts/CrowdFund.sol\":7565:7610  ProjectStatus(enumValue) == ProjectStatus.XRA */\n      0x09\n      dup2\n      gt\n      iszero\n      tag_286\n      jumpi\n      tag_287\n      tag_188\n      jump\t// in\n    tag_287:\n    tag_286:\n      eq\n        /* \"contracts/CrowdFund.sol\":7496:7610  ProjectStatus(enumValue) == ProjectStatus.XRJ ||... */\n    tag_281:\n        /* \"contracts/CrowdFund.sol\":7492:9046  if (ProjectStatus(enumValue) == ProjectStatus.XRJ ||... */\n      iszero\n      tag_288\n      jumpi\n        /* \"contracts/CrowdFund.sol\":7714:7786  CharityMessageToReceiver(charityId, projectId, ProjectStatus(enumValue)) */\n      0x2de098063448dbe8b26fa82794cd68cf748edb4f3e2cc43166e3ad659757019e\n        /* \"contracts/CrowdFund.sol\":7739:7748  charityId */\n      dup6\n        /* \"contracts/CrowdFund.sol\":7750:7759  projectId */\n      dup8\n        /* \"contracts/CrowdFund.sol\":7775:7784  enumValue */\n      dup7\n        /* \"contracts/CrowdFund.sol\":7761:7785  ProjectStatus(enumValue) */\n      0xff\n      and\n      0x09\n      dup2\n      gt\n      iszero\n      tag_289\n      jumpi\n      tag_290\n      tag_188\n      jump\t// in\n    tag_290:\n    tag_289:\n        /* \"contracts/CrowdFund.sol\":7714:7786  CharityMessageToReceiver(charityId, projectId, ProjectStatus(enumValue)) */\n      mload(0x40)\n      tag_291\n      swap4\n      swap3\n      swap2\n      swap1\n      tag_240\n      jump\t// in\n    tag_291:\n      mload(0x40)\n      dup1\n      swap2\n      sub\n      swap1\n      log1\n        /* \"contracts/CrowdFund.sol\":7889:7906  ProjectStatus.XRJ */\n      0x07\n        /* \"contracts/CrowdFund.sol\":7861:7906  ProjectStatus(enumValue) == ProjectStatus.XRJ */\n      0x09\n      dup2\n      gt\n      iszero\n      tag_292\n      jumpi\n      tag_293\n      tag_188\n      jump\t// in\n    tag_293:\n    tag_292:\n        /* \"contracts/CrowdFund.sol\":7875:7884  enumValue */\n      dup5\n        /* \"contracts/CrowdFund.sol\":7861:7885  ProjectStatus(enumValue) */\n      0xff\n      and\n      0x09\n      dup2\n      gt\n      iszero\n      tag_294\n      jumpi\n      tag_295\n      tag_188\n      jump\t// in\n    tag_295:\n    tag_294:\n        /* \"contracts/CrowdFund.sol\":7861:7906  ProjectStatus(enumValue) == ProjectStatus.XRJ */\n      0x09\n      dup2\n      gt\n      iszero\n      tag_296\n      jumpi\n      tag_297\n      tag_188\n      jump\t// in\n    tag_297:\n    tag_296:\n      eq\n        /* \"contracts/CrowdFund.sol\":7857:8620  if (ProjectStatus(enumValue) == ProjectStatus.XRJ) {... */\n      iszero\n      tag_298\n      jumpi\n        /* \"contracts/CrowdFund.sol\":8007:8046  refundToAllDonors(charityId, projectId) */\n      tag_299\n        /* \"contracts/CrowdFund.sol\":8025:8034  charityId */\n      dup6\n        /* \"contracts/CrowdFund.sol\":8036:8045  projectId */\n      dup8\n        /* \"contracts/CrowdFund.sol\":8007:8024  refundToAllDonors */\n      tag_300\n        /* \"contracts/CrowdFund.sol\":8007:8046  refundToAllDonors(charityId, projectId) */\n      jump\t// in\n    tag_299:\n        /* \"contracts/CrowdFund.sol\":8162:8224  CharityMessageToDonor(charityId, projectId, ProjectStatus.RFD) */\n      0xbd0e0cbb7f526d9c7052b56c5d1873ee7b834959cd785b696dd0f9d418d9617a\n        /* \"contracts/CrowdFund.sol\":8184:8193  charityId */\n      dup6\n        /* \"contracts/CrowdFund.sol\":8195:8204  projectId */\n      dup8\n        /* \"contracts/CrowdFund.sol\":8206:8223  ProjectStatus.RFD */\n      0x08\n        /* \"contracts/CrowdFund.sol\":8162:8224  CharityMessageToDonor(charityId, projectId, ProjectStatus.RFD) */\n      mload(0x40)\n      tag_301\n      swap4\n      swap3\n      swap2\n      swap1\n      tag_240\n      jump\t// in\n    tag_301:\n      mload(0x40)\n      dup1\n      swap2\n      sub\n      swap1\n      log1\n        /* \"contracts/CrowdFund.sol\":7857:8620  if (ProjectStatus(enumValue) == ProjectStatus.XRJ) {... */\n      jump(tag_302)\n    tag_298:\n        /* \"contracts/CrowdFund.sol\":8286:8303  ProjectStatus.XRA */\n      0x06\n        /* \"contracts/CrowdFund.sol\":8258:8303  ProjectStatus(enumValue) == ProjectStatus.XRA */\n      0x09\n      dup2\n      gt\n      iszero\n      tag_303\n      jumpi\n      tag_304\n      tag_188\n      jump\t// in\n    tag_304:\n    tag_303:\n        /* \"contracts/CrowdFund.sol\":8272:8281  enumValue */\n      dup5\n        /* \"contracts/CrowdFund.sol\":8258:8282  ProjectStatus(enumValue) */\n      0xff\n      and\n      0x09\n      dup2\n      gt\n      iszero\n      tag_305\n      jumpi\n      tag_306\n      tag_188\n      jump\t// in\n    tag_306:\n    tag_305:\n        /* \"contracts/CrowdFund.sol\":8258:8303  ProjectStatus(enumValue) == ProjectStatus.XRA */\n      0x09\n      dup2\n      gt\n      iszero\n      tag_307\n      jumpi\n      tag_308\n      tag_188\n      jump\t// in\n    tag_308:\n    tag_307:\n      eq\n        /* \"contracts/CrowdFund.sol\":8254:8620  if (ProjectStatus(enumValue) == ProjectStatus.XRA) {... */\n      iszero\n      tag_309\n      jumpi\n        /* \"contracts/CrowdFund.sol\":8404:8443  tranferToReceiver(charityId, projectId) */\n      tag_310\n        /* \"contracts/CrowdFund.sol\":8422:8431  charityId */\n      dup6\n        /* \"contracts/CrowdFund.sol\":8433:8442  projectId */\n      dup8\n        /* \"contracts/CrowdFund.sol\":8404:8421  tranferToReceiver */\n      tag_311\n        /* \"contracts/CrowdFund.sol\":8404:8443  tranferToReceiver(charityId, projectId) */\n      jump\t// in\n    tag_310:\n        /* \"contracts/CrowdFund.sol\":8535:8597  CharityMessageToDonor(charityId, projectId, ProjectStatus.CLD) */\n      0xbd0e0cbb7f526d9c7052b56c5d1873ee7b834959cd785b696dd0f9d418d9617a\n        /* \"contracts/CrowdFund.sol\":8557:8566  charityId */\n      dup6\n        /* \"contracts/CrowdFund.sol\":8568:8577  projectId */\n      dup8\n        /* \"contracts/CrowdFund.sol\":8579:8596  ProjectStatus.CLD */\n      0x09\n        /* \"contracts/CrowdFund.sol\":8535:8597  CharityMessageToDonor(charityId, projectId, ProjectStatus.CLD) */\n      mload(0x40)\n      tag_312\n      swap4\n      swap3\n      swap2\n      swap1\n      tag_240\n      jump\t// in\n    tag_312:\n      mload(0x40)\n      dup1\n      swap2\n      sub\n      swap1\n      log1\n        /* \"contracts/CrowdFund.sol\":8254:8620  if (ProjectStatus(enumValue) == ProjectStatus.XRA) {... */\n    tag_309:\n        /* \"contracts/CrowdFund.sol\":7857:8620  if (ProjectStatus(enumValue) == ProjectStatus.XRJ) {... */\n    tag_302:\n        /* \"contracts/CrowdFund.sol\":7492:9046  if (ProjectStatus(enumValue) == ProjectStatus.XRJ ||... */\n      jump(tag_313)\n    tag_288:\n        /* \"contracts/CrowdFund.sol\":8761:8770  enumValue */\n      dup4\n        /* \"contracts/CrowdFund.sol\":8747:8771  ProjectStatus(enumValue) */\n      0xff\n      and\n      0x09\n      dup2\n      gt\n      iszero\n      tag_314\n      jumpi\n      tag_315\n      tag_188\n      jump\t// in\n    tag_315:\n    tag_314:\n        /* \"contracts/CrowdFund.sol\":8716:8727  projectList */\n      dup3\n        /* \"contracts/CrowdFund.sol\":8728:8729  i */\n      dup3\n        /* \"contracts/CrowdFund.sol\":8716:8730  projectList[i] */\n      dup2\n      sload\n      dup2\n      lt\n      tag_316\n      jumpi\n      tag_317\n      tag_142\n      jump\t// in\n    tag_317:\n    tag_316:\n      swap1\n      0x00\n      mstore\n      keccak256(0x00, 0x20)\n      swap1\n      0x07\n      mul\n      add\n        /* \"contracts/CrowdFund.sol\":8716:8744  projectList[i].projectStatus */\n      0x06\n      add\n      0x00\n        /* \"contracts/CrowdFund.sol\":8716:8771  projectList[i].projectStatus = ProjectStatus(enumValue) */\n      0x0100\n      exp\n      dup2\n      sload\n      dup2\n      0xff\n      mul\n      not\n      and\n      swap1\n      dup4\n      0x09\n      dup2\n      gt\n      iszero\n      tag_319\n      jumpi\n      tag_320\n      tag_188\n      jump\t// in\n    tag_320:\n    tag_319:\n      mul\n      or\n      swap1\n      sstore\n      pop\n        /* \"contracts/CrowdFund.sol\":8826:8843  ProjectStatus.XRQ */\n      0x04\n        /* \"contracts/CrowdFund.sol\":8798:8843  ProjectStatus(enumValue) == ProjectStatus.XRQ */\n      0x09\n      dup2\n      gt\n      iszero\n      tag_321\n      jumpi\n      tag_322\n      tag_188\n      jump\t// in\n    tag_322:\n    tag_321:\n        /* \"contracts/CrowdFund.sol\":8812:8821  enumValue */\n      dup5\n        /* \"contracts/CrowdFund.sol\":8798:8822  ProjectStatus(enumValue) */\n      0xff\n      and\n      0x09\n      dup2\n      gt\n      iszero\n      tag_323\n      jumpi\n      tag_324\n      tag_188\n      jump\t// in\n    tag_324:\n    tag_323:\n        /* \"contracts/CrowdFund.sol\":8798:8843  ProjectStatus(enumValue) == ProjectStatus.XRQ */\n      0x09\n      dup2\n      gt\n      iszero\n      tag_325\n      jumpi\n      tag_326\n      tag_188\n      jump\t// in\n    tag_326:\n    tag_325:\n      eq\n        /* \"contracts/CrowdFund.sol\":8794:9028  if (ProjectStatus(enumValue) == ProjectStatus.XRQ) {... */\n      iszero\n      tag_327\n      jumpi\n        /* \"contracts/CrowdFund.sol\":8943:9005  CharityMessageToBoard(charityId, projectId, ProjectStatus.XRQ) */\n      0xd49fc9fa26fa9fc112efd004acb9eeabf80810373d2cbb1a7884d4d64e8e8d2b\n        /* \"contracts/CrowdFund.sol\":8965:8974  charityId */\n      dup6\n        /* \"contracts/CrowdFund.sol\":8976:8985  projectId */\n      dup8\n        /* \"contracts/CrowdFund.sol\":8987:9004  ProjectStatus.XRQ */\n      0x04\n        /* \"contracts/CrowdFund.sol\":8943:9005  CharityMessageToBoard(charityId, projectId, ProjectStatus.XRQ) */\n      mload(0x40)\n      tag_328\n      swap4\n      swap3\n      swap2\n      swap1\n      tag_240\n      jump\t// in\n    tag_328:\n      mload(0x40)\n      dup1\n      swap2\n      sub\n      swap1\n      log1\n        /* \"contracts/CrowdFund.sol\":8794:9028  if (ProjectStatus(enumValue) == ProjectStatus.XRQ) {... */\n    tag_327:\n        /* \"contracts/CrowdFund.sol\":7492:9046  if (ProjectStatus(enumValue) == ProjectStatus.XRJ ||... */\n    tag_313:\n        /* \"contracts/CrowdFund.sol\":7327:9060  if (projectList[i].projectId == projectId) {... */\n    tag_271:\n        /* \"contracts/CrowdFund.sol\":9078:9083  exist */\n      dup3\n        /* \"contracts/CrowdFund.sol\":9074:9106  if (exist)... */\n      iszero\n      tag_329\n      jumpi\n        /* \"contracts/CrowdFund.sol\":9101:9106  break */\n      jump(tag_266)\n        /* \"contracts/CrowdFund.sol\":9074:9106  if (exist)... */\n    tag_329:\n        /* \"contracts/CrowdFund.sol\":7308:7311  i++ */\n      dup1\n      dup1\n      tag_330\n      swap1\n      tag_149\n      jump\t// in\n    tag_330:\n      swap2\n      pop\n      pop\n        /* \"contracts/CrowdFund.sol\":7273:9117  for (uint i=0;i<projectList.length;i++) {... */\n      jump(tag_265)\n    tag_266:\n      pop\n        /* \"contracts/CrowdFund.sol\":6789:9123  {... */\n      pop\n      pop\n        /* \"contracts/CrowdFund.sol\":6683:9123  function updateProjectStatusByCharity(uint projectId, uint charityId, uint8 enumValue) onlyCharity public {... */\n      pop\n      pop\n      pop\n      jump\t// out\n        /* \"contracts/CrowdFund.sol\":16064:18104  function getRefund(uint charityId, uint projectId) public {... */\n    tag_64:\n        /* \"contracts/CrowdFund.sol\":16132:16149  bool projectExist */\n      0x00\n        /* \"contracts/CrowdFund.sol\":16167:16182  bool donorExist */\n      dup1\n        /* \"contracts/CrowdFund.sol\":16200:16229  Project[] storage projectList */\n      0x00\n        /* \"contracts/CrowdFund.sol\":16232:16247  charityProjects */\n      0x03\n        /* \"contracts/CrowdFund.sol\":16232:16258  charityProjects[charityId] */\n      0x00\n        /* \"contracts/CrowdFund.sol\":16248:16257  charityId */\n      dup7\n        /* \"contracts/CrowdFund.sol\":16232:16258  charityProjects[charityId] */\n      dup2\n      mstore\n      0x20\n      add\n      swap1\n      dup2\n      mstore\n      0x20\n      add\n      0x00\n      keccak256\n        /* \"contracts/CrowdFund.sol\":16200:16258  Project[] storage projectList = charityProjects[charityId] */\n      swap1\n      pop\n        /* \"contracts/CrowdFund.sol\":16297:16298  0 */\n      0x00\n        /* \"contracts/CrowdFund.sol\":16276:16287  projectList */\n      dup2\n        /* \"contracts/CrowdFund.sol\":16276:16294  projectList.length */\n      dup1\n      sload\n      swap1\n      pop\n        /* \"contracts/CrowdFund.sol\":16276:16298  projectList.length > 0 */\n      gt\n        /* \"contracts/CrowdFund.sol\":16268:16319  require(projectList.length > 0,\"Charity not found\") */\n      tag_332\n      jumpi\n      mload(0x40)\n      0x08c379a000000000000000000000000000000000000000000000000000000000\n      dup2\n      mstore\n      0x04\n      add\n      tag_333\n      swap1\n      tag_136\n      jump\t// in\n    tag_333:\n      mload(0x40)\n      dup1\n      swap2\n      sub\n      swap1\n      revert\n    tag_332:\n        /* \"contracts/CrowdFund.sol\":16330:16355  Donor[] storage allDonors */\n      0x00\n        /* \"contracts/CrowdFund.sol\":16358:16371  projectDonors */\n      0x05\n        /* \"contracts/CrowdFund.sol\":16358:16382  projectDonors[projectId] */\n      0x00\n        /* \"contracts/CrowdFund.sol\":16372:16381  projectId */\n      dup7\n        /* \"contracts/CrowdFund.sol\":16358:16382  projectDonors[projectId] */\n      dup2\n      mstore\n      0x20\n      add\n      swap1\n      dup2\n      mstore\n      0x20\n      add\n      0x00\n      keccak256\n        /* \"contracts/CrowdFund.sol\":16330:16382  Donor[] storage allDonors = projectDonors[projectId] */\n      swap1\n      pop\n        /* \"contracts/CrowdFund.sol\":16398:16404  uint j */\n      0x00\n        /* \"contracts/CrowdFund.sol\":16393:18008  for (uint j=0;j<allDonors.length;j++) {... */\n    tag_334:\n        /* \"contracts/CrowdFund.sol\":16409:16418  allDonors */\n      dup2\n        /* \"contracts/CrowdFund.sol\":16409:16425  allDonors.length */\n      dup1\n      sload\n      swap1\n      pop\n        /* \"contracts/CrowdFund.sol\":16407:16408  j */\n      dup2\n        /* \"contracts/CrowdFund.sol\":16407:16425  j<allDonors.length */\n      lt\n        /* \"contracts/CrowdFund.sol\":16393:18008  for (uint j=0;j<allDonors.length;j++) {... */\n      iszero\n      tag_335\n      jumpi\n        /* \"contracts/CrowdFund.sol\":16575:16585  msg.sender */\n      caller\n        /* \"contracts/CrowdFund.sol\":16553:16585  allDonors[j].owner == msg.sender */\n      0xffffffffffffffffffffffffffffffffffffffff\n      and\n        /* \"contracts/CrowdFund.sol\":16553:16562  allDonors */\n      dup3\n        /* \"contracts/CrowdFund.sol\":16563:16564  j */\n      dup3\n        /* \"contracts/CrowdFund.sol\":16553:16565  allDonors[j] */\n      dup2\n      sload\n      dup2\n      lt\n      tag_337\n      jumpi\n      tag_338\n      tag_142\n      jump\t// in\n    tag_338:\n    tag_337:\n      swap1\n      0x00\n      mstore\n      keccak256(0x00, 0x20)\n      swap1\n      0x03\n      mul\n      add\n        /* \"contracts/CrowdFund.sol\":16553:16571  allDonors[j].owner */\n      0x01\n      add\n      0x00\n      swap1\n      sload\n      swap1\n      0x0100\n      exp\n      swap1\n      div\n      0xffffffffffffffffffffffffffffffffffffffff\n      and\n        /* \"contracts/CrowdFund.sol\":16553:16585  allDonors[j].owner == msg.sender */\n      0xffffffffffffffffffffffffffffffffffffffff\n      and\n      eq\n        /* \"contracts/CrowdFund.sol\":16553:16641  allDonors[j].owner == msg.sender && allDonors[j].projectwiseContributions[projectId] > 0 */\n      dup1\n      iszero\n      tag_340\n      jumpi\n      pop\n        /* \"contracts/CrowdFund.sol\":16640:16641  0 */\n      0x00\n        /* \"contracts/CrowdFund.sol\":16589:16598  allDonors */\n      dup3\n        /* \"contracts/CrowdFund.sol\":16599:16600  j */\n      dup3\n        /* \"contracts/CrowdFund.sol\":16589:16601  allDonors[j] */\n      dup2\n      sload\n      dup2\n      lt\n      tag_341\n      jumpi\n      tag_342\n      tag_142\n      jump\t// in\n    tag_342:\n    tag_341:\n      swap1\n      0x00\n      mstore\n      keccak256(0x00, 0x20)\n      swap1\n      0x03\n      mul\n      add\n        /* \"contracts/CrowdFund.sol\":16589:16626  allDonors[j].projectwiseContributions */\n      0x02\n      add\n        /* \"contracts/CrowdFund.sol\":16589:16637  allDonors[j].projectwiseContributions[projectId] */\n      0x00\n        /* \"contracts/CrowdFund.sol\":16627:16636  projectId */\n      dup9\n        /* \"contracts/CrowdFund.sol\":16589:16637  allDonors[j].projectwiseContributions[projectId] */\n      dup2\n      mstore\n      0x20\n      add\n      swap1\n      dup2\n      mstore\n      0x20\n      add\n      0x00\n      keccak256\n      sload\n        /* \"contracts/CrowdFund.sol\":16589:16641  allDonors[j].projectwiseContributions[projectId] > 0 */\n      gt\n        /* \"contracts/CrowdFund.sol\":16553:16641  allDonors[j].owner == msg.sender && allDonors[j].projectwiseContributions[projectId] > 0 */\n    tag_340:\n        /* \"contracts/CrowdFund.sol\":16549:17998  if (allDonors[j].owner == msg.sender && allDonors[j].projectwiseContributions[projectId] > 0) {... */\n      iszero\n      tag_344\n      jumpi\n        /* \"contracts/CrowdFund.sol\":16666:16672  uint i */\n      0x00\n        /* \"contracts/CrowdFund.sol\":16661:17589  for (uint i=0;i<projectList.length;i++) {... */\n    tag_345:\n        /* \"contracts/CrowdFund.sol\":16677:16688  projectList */\n      dup4\n        /* \"contracts/CrowdFund.sol\":16677:16695  projectList.length */\n      dup1\n      sload\n      swap1\n      pop\n        /* \"contracts/CrowdFund.sol\":16675:16676  i */\n      dup2\n        /* \"contracts/CrowdFund.sol\":16675:16695  i<projectList.length */\n      lt\n        /* \"contracts/CrowdFund.sol\":16661:17589  for (uint i=0;i<projectList.length;i++) {... */\n      iszero\n      tag_346\n      jumpi\n        /* \"contracts/CrowdFund.sol\":16755:16764  projectId */\n      dup7\n        /* \"contracts/CrowdFund.sol\":16727:16738  projectList */\n      dup5\n        /* \"contracts/CrowdFund.sol\":16739:16740  i */\n      dup3\n        /* \"contracts/CrowdFund.sol\":16727:16741  projectList[i] */\n      dup2\n      sload\n      dup2\n      lt\n      tag_348\n      jumpi\n      tag_349\n      tag_142\n      jump\t// in\n    tag_349:\n    tag_348:\n      swap1\n      0x00\n      mstore\n      keccak256(0x00, 0x20)\n      swap1\n      0x07\n      mul\n      add\n        /* \"contracts/CrowdFund.sol\":16727:16751  projectList[i].projectId */\n      0x00\n      add\n      sload\n        /* \"contracts/CrowdFund.sol\":16727:16764  projectList[i].projectId == projectId */\n      eq\n        /* \"contracts/CrowdFund.sol\":16723:17570  if (projectList[i].projectId == projectId) { ... */\n      iszero\n      tag_351\n      jumpi\n        /* \"contracts/CrowdFund.sol\":16828:16845  ProjectStatus.PGA */\n      0x03\n        /* \"contracts/CrowdFund.sol\":16797:16845  projectList[i].projectStatus > ProjectStatus.PGA */\n      0x09\n      dup2\n      gt\n      iszero\n      tag_352\n      jumpi\n      tag_353\n      tag_188\n      jump\t// in\n    tag_353:\n    tag_352:\n        /* \"contracts/CrowdFund.sol\":16797:16808  projectList */\n      dup5\n        /* \"contracts/CrowdFund.sol\":16809:16810  i */\n      dup3\n        /* \"contracts/CrowdFund.sol\":16797:16811  projectList[i] */\n      dup2\n      sload\n      dup2\n      lt\n      tag_354\n      jumpi\n      tag_355\n      tag_142\n      jump\t// in\n    tag_355:\n    tag_354:\n      swap1\n      0x00\n      mstore\n      keccak256(0x00, 0x20)\n      swap1\n      0x07\n      mul\n      add\n        /* \"contracts/CrowdFund.sol\":16797:16825  projectList[i].projectStatus */\n      0x06\n      add\n      0x00\n      swap1\n      sload\n      swap1\n      0x0100\n      exp\n      swap1\n      div\n      0xff\n      and\n        /* \"contracts/CrowdFund.sol\":16797:16845  projectList[i].projectStatus > ProjectStatus.PGA */\n      0x09\n      dup2\n      gt\n      iszero\n      tag_357\n      jumpi\n      tag_358\n      tag_188\n      jump\t// in\n    tag_358:\n    tag_357:\n      gt\n        /* \"contracts/CrowdFund.sol\":16793:17471  if (projectList[i].projectStatus > ProjectStatus.PGA) {... */\n      iszero\n      tag_359\n      jumpi\n        /* \"contracts/CrowdFund.sol\":16877:16952  revert(\"Can't refund as exchange request was already initiated with board\") */\n      mload(0x40)\n      0x08c379a000000000000000000000000000000000000000000000000000000000\n      dup2\n      mstore\n      0x04\n      add\n      tag_360\n      swap1\n      tag_361\n      jump\t// in\n    tag_360:\n      mload(0x40)\n      dup1\n      swap2\n      sub\n      swap1\n      revert\n        /* \"contracts/CrowdFund.sol\":16793:17471  if (projectList[i].projectStatus > ProjectStatus.PGA) {... */\n    tag_359:\n        /* \"contracts/CrowdFund.sol\":17075:17084  allDonors */\n      dup3\n        /* \"contracts/CrowdFund.sol\":17085:17086  j */\n      dup3\n        /* \"contracts/CrowdFund.sol\":17075:17087  allDonors[j] */\n      dup2\n      sload\n      dup2\n      lt\n      tag_363\n      jumpi\n      tag_364\n      tag_142\n      jump\t// in\n    tag_364:\n    tag_363:\n      swap1\n      0x00\n      mstore\n      keccak256(0x00, 0x20)\n      swap1\n      0x03\n      mul\n      add\n        /* \"contracts/CrowdFund.sol\":17075:17112  allDonors[j].projectwiseContributions */\n      0x02\n      add\n        /* \"contracts/CrowdFund.sol\":17075:17123  allDonors[j].projectwiseContributions[projectId] */\n      0x00\n        /* \"contracts/CrowdFund.sol\":17113:17122  projectId */\n      dup9\n        /* \"contracts/CrowdFund.sol\":17075:17123  allDonors[j].projectwiseContributions[projectId] */\n      dup2\n      mstore\n      0x20\n      add\n      swap1\n      dup2\n      mstore\n      0x20\n      add\n      0x00\n      keccak256\n      sload\n        /* \"contracts/CrowdFund.sol\":17045:17056  projectList */\n      dup5\n        /* \"contracts/CrowdFund.sol\":17057:17058  i */\n      dup3\n        /* \"contracts/CrowdFund.sol\":17045:17059  projectList[i] */\n      dup2\n      sload\n      dup2\n      lt\n      tag_366\n      jumpi\n      tag_367\n      tag_142\n      jump\t// in\n    tag_367:\n    tag_366:\n      swap1\n      0x00\n      mstore\n      keccak256(0x00, 0x20)\n      swap1\n      0x07\n      mul\n      add\n        /* \"contracts/CrowdFund.sol\":17045:17072  projectList[i].raisedAmount */\n      0x03\n      add\n      sload\n        /* \"contracts/CrowdFund.sol\":17045:17123  projectList[i].raisedAmount - allDonors[j].projectwiseContributions[projectId] */\n      tag_369\n      swap2\n      swap1\n      tag_177\n      jump\t// in\n    tag_369:\n        /* \"contracts/CrowdFund.sol\":17015:17026  projectList */\n      dup5\n        /* \"contracts/CrowdFund.sol\":17027:17028  i */\n      dup3\n        /* \"contracts/CrowdFund.sol\":17015:17029  projectList[i] */\n      dup2\n      sload\n      dup2\n      lt\n      tag_370\n      jumpi\n      tag_371\n      tag_142\n      jump\t// in\n    tag_371:\n    tag_370:\n      swap1\n      0x00\n      mstore\n      keccak256(0x00, 0x20)\n      swap1\n      0x07\n      mul\n      add\n        /* \"contracts/CrowdFund.sol\":17015:17042  projectList[i].raisedAmount */\n      0x03\n      add\n        /* \"contracts/CrowdFund.sol\":17015:17123  projectList[i].raisedAmount = projectList[i].raisedAmount - allDonors[j].projectwiseContributions[projectId] */\n      dup2\n      swap1\n      sstore\n      pop\n        /* \"contracts/CrowdFund.sol\":17252:17263  projectList */\n      dup4\n        /* \"contracts/CrowdFund.sol\":17264:17265  i */\n      dup2\n        /* \"contracts/CrowdFund.sol\":17252:17266  projectList[i] */\n      dup2\n      sload\n      dup2\n      lt\n      tag_373\n      jumpi\n      tag_374\n      tag_142\n      jump\t// in\n    tag_374:\n    tag_373:\n      swap1\n      0x00\n      mstore\n      keccak256(0x00, 0x20)\n      swap1\n      0x07\n      mul\n      add\n        /* \"contracts/CrowdFund.sol\":17252:17281  projectList[i].acceptDonation */\n      0x04\n      add\n      0x14\n      swap1\n      sload\n      swap1\n      0x0100\n      exp\n      swap1\n      div\n      0xff\n      and\n        /* \"contracts/CrowdFund.sol\":17247:17445  if (!projectList[i].acceptDonation) {... */\n      tag_376\n      jumpi\n        /* \"contracts/CrowdFund.sol\":17410:17414  true */\n      0x01\n        /* \"contracts/CrowdFund.sol\":17378:17389  projectList */\n      dup5\n        /* \"contracts/CrowdFund.sol\":17390:17391  i */\n      dup3\n        /* \"contracts/CrowdFund.sol\":17378:17392  projectList[i] */\n      dup2\n      sload\n      dup2\n      lt\n      tag_377\n      jumpi\n      tag_378\n      tag_142\n      jump\t// in\n    tag_378:\n    tag_377:\n      swap1\n      0x00\n      mstore\n      keccak256(0x00, 0x20)\n      swap1\n      0x07\n      mul\n      add\n        /* \"contracts/CrowdFund.sol\":17378:17407  projectList[i].acceptDonation */\n      0x04\n      add\n      0x14\n        /* \"contracts/CrowdFund.sol\":17378:17414  projectList[i].acceptDonation = true */\n      0x0100\n      exp\n      dup2\n      sload\n      dup2\n      0xff\n      mul\n      not\n      and\n      swap1\n      dup4\n      iszero\n      iszero\n      mul\n      or\n      swap1\n      sstore\n      pop\n        /* \"contracts/CrowdFund.sol\":17247:17445  if (!projectList[i].acceptDonation) {... */\n    tag_376:\n        /* \"contracts/CrowdFund.sol\":17512:17516  true */\n      0x01\n        /* \"contracts/CrowdFund.sol\":17497:17516  projectExist = true */\n      swap6\n      pop\n        /* \"contracts/CrowdFund.sol\":17542:17547  break */\n      jump(tag_346)\n        /* \"contracts/CrowdFund.sol\":16723:17570  if (projectList[i].projectId == projectId) { ... */\n    tag_351:\n        /* \"contracts/CrowdFund.sol\":16696:16699  i++ */\n      dup1\n      dup1\n      tag_380\n      swap1\n      tag_149\n      jump\t// in\n    tag_380:\n      swap2\n      pop\n      pop\n        /* \"contracts/CrowdFund.sol\":16661:17589  for (uint i=0;i<projectList.length;i++) {... */\n      jump(tag_345)\n    tag_346:\n      pop\n        /* \"contracts/CrowdFund.sol\":17628:17640  projectExist */\n      dup5\n        /* \"contracts/CrowdFund.sol\":17623:17730  if (!projectExist) {... */\n      tag_381\n      jumpi\n        /* \"contracts/CrowdFund.sol\":17664:17711  revert(\"No project exist under this projectId\") */\n      mload(0x40)\n      0x08c379a000000000000000000000000000000000000000000000000000000000\n      dup2\n      mstore\n      0x04\n      add\n      tag_382\n      swap1\n      tag_383\n      jump\t// in\n    tag_382:\n      mload(0x40)\n      dup1\n      swap2\n      sub\n      swap1\n      revert\n        /* \"contracts/CrowdFund.sol\":17623:17730  if (!projectExist) {... */\n    tag_381:\n        /* \"contracts/CrowdFund.sol\":17784:17794  msg.sender */\n      caller\n        /* \"contracts/CrowdFund.sol\":17775:17804  payable (msg.sender).transfer */\n      0xffffffffffffffffffffffffffffffffffffffff\n      and\n        /* \"contracts/CrowdFund.sol\":17775:17854  payable (msg.sender).transfer(allDonors[j].projectwiseContributions[projectId]) */\n      0x08fc\n        /* \"contracts/CrowdFund.sol\":17805:17814  allDonors */\n      dup4\n        /* \"contracts/CrowdFund.sol\":17815:17816  j */\n      dup4\n        /* \"contracts/CrowdFund.sol\":17805:17817  allDonors[j] */\n      dup2\n      sload\n      dup2\n      lt\n      tag_384\n      jumpi\n      tag_385\n      tag_142\n      jump\t// in\n    tag_385:\n    tag_384:\n      swap1\n      0x00\n      mstore\n      keccak256(0x00, 0x20)\n      swap1\n      0x03\n      mul\n      add\n        /* \"contracts/CrowdFund.sol\":17805:17842  allDonors[j].projectwiseContributions */\n      0x02\n      add\n        /* \"contracts/CrowdFund.sol\":17805:17853  allDonors[j].projectwiseContributions[projectId] */\n      0x00\n        /* \"contracts/CrowdFund.sol\":17843:17852  projectId */\n      dup10\n        /* \"contracts/CrowdFund.sol\":17805:17853  allDonors[j].projectwiseContributions[projectId] */\n      dup2\n      mstore\n      0x20\n      add\n      swap1\n      dup2\n      mstore\n      0x20\n      add\n      0x00\n      keccak256\n      sload\n        /* \"contracts/CrowdFund.sol\":17775:17854  payable (msg.sender).transfer(allDonors[j].projectwiseContributions[projectId]) */\n      swap1\n      dup2\n      iszero\n      mul\n      swap1\n      mload(0x40)\n      0x00\n      mload(0x40)\n      dup1\n      dup4\n      sub\n      dup2\n      dup6\n      dup9\n      dup9\n      call\n      swap4\n      pop\n      pop\n      pop\n      pop\n      iszero\n      dup1\n      iszero\n      tag_388\n      jumpi\n      returndatasize\n      0x00\n      dup1\n      returndatacopy\n      revert(0x00, returndatasize)\n    tag_388:\n      pop\n        /* \"contracts/CrowdFund.sol\":17923:17924  0 */\n      0x00\n        /* \"contracts/CrowdFund.sol\":17872:17881  allDonors */\n      dup3\n        /* \"contracts/CrowdFund.sol\":17882:17883  j */\n      dup3\n        /* \"contracts/CrowdFund.sol\":17872:17884  allDonors[j] */\n      dup2\n      sload\n      dup2\n      lt\n      tag_389\n      jumpi\n      tag_390\n      tag_142\n      jump\t// in\n    tag_390:\n    tag_389:\n      swap1\n      0x00\n      mstore\n      keccak256(0x00, 0x20)\n      swap1\n      0x03\n      mul\n      add\n        /* \"contracts/CrowdFund.sol\":17872:17909  allDonors[j].projectwiseContributions */\n      0x02\n      add\n        /* \"contracts/CrowdFund.sol\":17872:17920  allDonors[j].projectwiseContributions[projectId] */\n      0x00\n        /* \"contracts/CrowdFund.sol\":17910:17919  projectId */\n      dup9\n        /* \"contracts/CrowdFund.sol\":17872:17920  allDonors[j].projectwiseContributions[projectId] */\n      dup2\n      mstore\n      0x20\n      add\n      swap1\n      dup2\n      mstore\n      0x20\n      add\n      0x00\n      keccak256\n        /* \"contracts/CrowdFund.sol\":17872:17924  allDonors[j].projectwiseContributions[projectId] = 0 */\n      dup2\n      swap1\n      sstore\n      pop\n        /* \"contracts/CrowdFund.sol\":17956:17960  true */\n      0x01\n        /* \"contracts/CrowdFund.sol\":17943:17960  donorExist = true */\n      swap4\n      pop\n        /* \"contracts/CrowdFund.sol\":17978:17983  break */\n      jump(tag_335)\n        /* \"contracts/CrowdFund.sol\":16549:17998  if (allDonors[j].owner == msg.sender && allDonors[j].projectwiseContributions[projectId] > 0) {... */\n    tag_344:\n        /* \"contracts/CrowdFund.sol\":16426:16429  j++ */\n      dup1\n      dup1\n      tag_392\n      swap1\n      tag_149\n      jump\t// in\n    tag_392:\n      swap2\n      pop\n      pop\n        /* \"contracts/CrowdFund.sol\":16393:18008  for (uint j=0;j<allDonors.length;j++) {... */\n      jump(tag_334)\n    tag_335:\n      pop\n        /* \"contracts/CrowdFund.sol\":18023:18033  donorExist */\n      dup3\n        /* \"contracts/CrowdFund.sol\":18018:18097  if (!donorExist)... */\n      tag_393\n      jumpi\n        /* \"contracts/CrowdFund.sol\":18047:18097  revert(\"You haven't contributed for this project\") */\n      mload(0x40)\n      0x08c379a000000000000000000000000000000000000000000000000000000000\n      dup2\n      mstore\n      0x04\n      add\n      tag_394\n      swap1\n      tag_395\n      jump\t// in\n    tag_394:\n      mload(0x40)\n      dup1\n      swap2\n      sub\n      swap1\n      revert\n        /* \"contracts/CrowdFund.sol\":18018:18097  if (!donorExist)... */\n    tag_393:\n        /* \"contracts/CrowdFund.sol\":16122:18104  {... */\n      pop\n      pop\n      pop\n      pop\n        /* \"contracts/CrowdFund.sol\":16064:18104  function getRefund(uint charityId, uint projectId) public {... */\n      pop\n      pop\n      jump\t// out\n        /* \"contracts/CrowdFund.sol\":19804:20339  function getProjectStatus(uint charityId, uint projectId) external view returns (... */\n    tag_68:\n        /* \"contracts/CrowdFund.sol\":19894:19907  string memory */\n      0x60\n        /* \"contracts/CrowdFund.sol\":19922:19951  Project[] storage projectList */\n      0x00\n        /* \"contracts/CrowdFund.sol\":19954:19969  charityProjects */\n      0x03\n        /* \"contracts/CrowdFund.sol\":19954:19980  charityProjects[charityId] */\n      0x00\n        /* \"contracts/CrowdFund.sol\":19970:19979  charityId */\n      dup6\n        /* \"contracts/CrowdFund.sol\":19954:19980  charityProjects[charityId] */\n      dup2\n      mstore\n      0x20\n      add\n      swap1\n      dup2\n      mstore\n      0x20\n      add\n      0x00\n      keccak256\n        /* \"contracts/CrowdFund.sol\":19922:19980  Project[] storage projectList = charityProjects[charityId] */\n      swap1\n      pop\n        /* \"contracts/CrowdFund.sol\":20023:20024  0 */\n      0x00\n        /* \"contracts/CrowdFund.sol\":20002:20013  projectList */\n      dup2\n        /* \"contracts/CrowdFund.sol\":20002:20020  projectList.length */\n      dup1\n      sload\n      swap1\n      pop\n        /* \"contracts/CrowdFund.sol\":20002:20024  projectList.length > 0 */\n      gt\n        /* \"contracts/CrowdFund.sol\":19994:20045  require(projectList.length > 0,\"Charity not found\") */\n      tag_397\n      jumpi\n      mload(0x40)\n      0x08c379a000000000000000000000000000000000000000000000000000000000\n      dup2\n      mstore\n      0x04\n      add\n      tag_398\n      swap1\n      tag_136\n      jump\t// in\n    tag_398:\n      mload(0x40)\n      dup1\n      swap2\n      sub\n      swap1\n      revert\n    tag_397:\n        /* \"contracts/CrowdFund.sol\":20064:20070  uint i */\n      0x00\n        /* \"contracts/CrowdFund.sol\":20059:20268  for (uint i=0;i<projectList.length;i++) {... */\n    tag_399:\n        /* \"contracts/CrowdFund.sol\":20075:20086  projectList */\n      dup2\n        /* \"contracts/CrowdFund.sol\":20075:20093  projectList.length */\n      dup1\n      sload\n      swap1\n      pop\n        /* \"contracts/CrowdFund.sol\":20073:20074  i */\n      dup2\n        /* \"contracts/CrowdFund.sol\":20073:20093  i<projectList.length */\n      lt\n        /* \"contracts/CrowdFund.sol\":20059:20268  for (uint i=0;i<projectList.length;i++) {... */\n      iszero\n      tag_400\n      jumpi\n        /* \"contracts/CrowdFund.sol\":20149:20158  projectId */\n      dup4\n        /* \"contracts/CrowdFund.sol\":20121:20132  projectList */\n      dup3\n        /* \"contracts/CrowdFund.sol\":20133:20134  i */\n      dup3\n        /* \"contracts/CrowdFund.sol\":20121:20135  projectList[i] */\n      dup2\n      sload\n      dup2\n      lt\n      tag_402\n      jumpi\n      tag_403\n      tag_142\n      jump\t// in\n    tag_403:\n    tag_402:\n      swap1\n      0x00\n      mstore\n      keccak256(0x00, 0x20)\n      swap1\n      0x07\n      mul\n      add\n        /* \"contracts/CrowdFund.sol\":20121:20145  projectList[i].projectId */\n      0x00\n      add\n      sload\n        /* \"contracts/CrowdFund.sol\":20121:20158  projectList[i].projectId == projectId */\n      eq\n        /* \"contracts/CrowdFund.sol\":20117:20253  if (projectList[i].projectId == projectId) {... */\n      iszero\n      tag_405\n      jumpi\n        /* \"contracts/CrowdFund.sol\":20189:20204  projectStatuses */\n      0x07\n        /* \"contracts/CrowdFund.sol\":20189:20234  projectStatuses[projectList[i].projectStatus] */\n      0x00\n        /* \"contracts/CrowdFund.sol\":20205:20216  projectList */\n      dup4\n        /* \"contracts/CrowdFund.sol\":20217:20218  i */\n      dup4\n        /* \"contracts/CrowdFund.sol\":20205:20219  projectList[i] */\n      dup2\n      sload\n      dup2\n      lt\n      tag_406\n      jumpi\n      tag_407\n      tag_142\n      jump\t// in\n    tag_407:\n    tag_406:\n      swap1\n      0x00\n      mstore\n      keccak256(0x00, 0x20)\n      swap1\n      0x07\n      mul\n      add\n        /* \"contracts/CrowdFund.sol\":20205:20233  projectList[i].projectStatus */\n      0x06\n      add\n      0x00\n      swap1\n      sload\n      swap1\n      0x0100\n      exp\n      swap1\n      div\n      0xff\n      and\n        /* \"contracts/CrowdFund.sol\":20189:20234  projectStatuses[projectList[i].projectStatus] */\n      0x09\n      dup2\n      gt\n      iszero\n      tag_409\n      jumpi\n      tag_410\n      tag_188\n      jump\t// in\n    tag_410:\n    tag_409:\n      0x09\n      dup2\n      gt\n      iszero\n      tag_411\n      jumpi\n      tag_412\n      tag_188\n      jump\t// in\n    tag_412:\n    tag_411:\n      dup2\n      mstore\n      0x20\n      add\n      swap1\n      dup2\n      mstore\n      0x20\n      add\n      0x00\n      keccak256\n        /* \"contracts/CrowdFund.sol\":20182:20234  return projectStatuses[projectList[i].projectStatus] */\n      dup1\n      sload\n      tag_413\n      swap1\n      tag_117\n      jump\t// in\n    tag_413:\n      dup1\n      0x1f\n      add\n      0x20\n      dup1\n      swap2\n      div\n      mul\n      0x20\n      add\n      mload(0x40)\n      swap1\n      dup2\n      add\n      0x40\n      mstore\n      dup1\n      swap3\n      swap2\n      swap1\n      dup2\n      dup2\n      mstore\n      0x20\n      add\n      dup3\n      dup1\n      sload\n      tag_414\n      swap1\n      tag_117\n      jump\t// in\n    tag_414:\n      dup1\n      iszero\n      tag_415\n      jumpi\n      dup1\n      0x1f\n      lt\n      tag_416\n      jumpi\n      0x0100\n      dup1\n      dup4\n      sload\n      div\n      mul\n      dup4\n      mstore\n      swap2\n      0x20\n      add\n      swap2\n      jump(tag_415)\n    tag_416:\n      dup3\n      add\n      swap2\n      swap1\n      0x00\n      mstore\n      keccak256(0x00, 0x20)\n      swap1\n    tag_417:\n      dup2\n      sload\n      dup2\n      mstore\n      swap1\n      0x01\n      add\n      swap1\n      0x20\n      add\n      dup1\n      dup4\n      gt\n      tag_417\n      jumpi\n      dup3\n      swap1\n      sub\n      0x1f\n      and\n      dup3\n      add\n      swap2\n    tag_415:\n      pop\n      pop\n      pop\n      pop\n      pop\n      swap3\n      pop\n      pop\n      pop\n      jump(tag_396)\n        /* \"contracts/CrowdFund.sol\":20117:20253  if (projectList[i].projectId == projectId) {... */\n    tag_405:\n        /* \"contracts/CrowdFund.sol\":20094:20097  i++ */\n      dup1\n      dup1\n      tag_418\n      swap1\n      tag_149\n      jump\t// in\n    tag_418:\n      swap2\n      pop\n      pop\n        /* \"contracts/CrowdFund.sol\":20059:20268  for (uint i=0;i<projectList.length;i++) {... */\n      jump(tag_399)\n    tag_400:\n      pop\n        /* \"contracts/CrowdFund.sol\":20282:20332  revert(\"No such project exist under this charity\") */\n      mload(0x40)\n      0x08c379a000000000000000000000000000000000000000000000000000000000\n      dup2\n      mstore\n      0x04\n      add\n      tag_419\n      swap1\n      tag_151\n      jump\t// in\n    tag_419:\n      mload(0x40)\n      dup1\n      swap2\n      sub\n      swap1\n      revert\n        /* \"contracts/CrowdFund.sol\":19804:20339  function getProjectStatus(uint charityId, uint projectId) external view returns (... */\n    tag_396:\n      swap3\n      swap2\n      pop\n      pop\n      jump\t// out\n        /* \"contracts/CrowdFund.sol\":11569:12901  function getProjectListByCharity(uint charityId) public view returns (... */\n    tag_74:\n        /* \"contracts/CrowdFund.sol\":11647:11672  uint[] memory _projectIds */\n      0x60\n        /* \"contracts/CrowdFund.sol\":11674:11703  uint[] memory _minimumAmounts */\n      dup1\n        /* \"contracts/CrowdFund.sol\":11705:11725  uint[] memory _goals */\n      0x60\n        /* \"contracts/CrowdFund.sol\":11727:11755  uint[] memory _raisedAmounts */\n      dup1\n        /* \"contracts/CrowdFund.sol\":11797:11798  0 */\n      0x00\n        /* \"contracts/CrowdFund.sol\":11779:11787  projects */\n      dup1\n        /* \"contracts/CrowdFund.sol\":11779:11794  projects.length */\n      dup1\n      sload\n      swap1\n      pop\n        /* \"contracts/CrowdFund.sol\":11779:11798  projects.length > 0 */\n      gt\n        /* \"contracts/CrowdFund.sol\":11771:11827  require(projects.length > 0,\"No project is created yet\") */\n      tag_421\n      jumpi\n      mload(0x40)\n      0x08c379a000000000000000000000000000000000000000000000000000000000\n      dup2\n      mstore\n      0x04\n      add\n      tag_422\n      swap1\n      tag_133\n      jump\t// in\n    tag_422:\n      mload(0x40)\n      dup1\n      swap2\n      sub\n      swap1\n      revert\n    tag_421:\n        /* \"contracts/CrowdFund.sol\":11842:11871  Project[] storage projectList */\n      0x00\n        /* \"contracts/CrowdFund.sol\":11874:11889  charityProjects */\n      0x03\n        /* \"contracts/CrowdFund.sol\":11874:11900  charityProjects[charityId] */\n      0x00\n        /* \"contracts/CrowdFund.sol\":11890:11899  charityId */\n      dup8\n        /* \"contracts/CrowdFund.sol\":11874:11900  charityProjects[charityId] */\n      dup2\n      mstore\n      0x20\n      add\n      swap1\n      dup2\n      mstore\n      0x20\n      add\n      0x00\n      keccak256\n        /* \"contracts/CrowdFund.sol\":11842:11900  Project[] storage projectList = charityProjects[charityId] */\n      swap1\n      pop\n        /* \"contracts/CrowdFund.sol\":11943:11944  0 */\n      0x00\n        /* \"contracts/CrowdFund.sol\":11922:11933  projectList */\n      dup2\n        /* \"contracts/CrowdFund.sol\":11922:11940  projectList.length */\n      dup1\n      sload\n      swap1\n      pop\n        /* \"contracts/CrowdFund.sol\":11922:11944  projectList.length > 0 */\n      gt\n        /* \"contracts/CrowdFund.sol\":11914:11984  require(projectList.length > 0,\"No projects found under this charity\") */\n      tag_423\n      jumpi\n      mload(0x40)\n      0x08c379a000000000000000000000000000000000000000000000000000000000\n      dup2\n      mstore\n      0x04\n      add\n      tag_424\n      swap1\n      tag_425\n      jump\t// in\n    tag_424:\n      mload(0x40)\n      dup1\n      swap2\n      sub\n      swap1\n      revert\n    tag_423:\n        /* \"contracts/CrowdFund.sol\":11999:12023  uint[] memory projectIds */\n      0x00\n        /* \"contracts/CrowdFund.sol\":12038:12049  projectList */\n      dup2\n        /* \"contracts/CrowdFund.sol\":12038:12056  projectList.length */\n      dup1\n      sload\n      swap1\n      pop\n        /* \"contracts/CrowdFund.sol\":12026:12057  new uint[] (projectList.length) */\n      0xffffffffffffffff\n      dup2\n      gt\n      iszero\n      tag_426\n      jumpi\n      tag_427\n      tag_428\n      jump\t// in\n    tag_427:\n    tag_426:\n      mload(0x40)\n      swap1\n      dup1\n      dup3\n      mstore\n      dup1\n      0x20\n      mul\n      0x20\n      add\n      dup3\n      add\n      0x40\n      mstore\n      dup1\n      iszero\n      tag_429\n      jumpi\n      dup2\n      0x20\n      add\n      0x20\n      dup3\n      mul\n      dup1\n      calldatasize\n      dup4\n      calldatacopy\n      dup1\n      dup3\n      add\n      swap2\n      pop\n      pop\n      swap1\n      pop\n    tag_429:\n      pop\n        /* \"contracts/CrowdFund.sol\":11999:12057  uint[] memory projectIds = new uint[] (projectList.length) */\n      swap1\n      pop\n        /* \"contracts/CrowdFund.sol\":12071:12099  uint[] memory minimumAmounts */\n      0x00\n        /* \"contracts/CrowdFund.sol\":12114:12125  projectList */\n      dup3\n        /* \"contracts/CrowdFund.sol\":12114:12132  projectList.length */\n      dup1\n      sload\n      swap1\n      pop\n        /* \"contracts/CrowdFund.sol\":12102:12133  new uint[] (projectList.length) */\n      0xffffffffffffffff\n      dup2\n      gt\n      iszero\n      tag_430\n      jumpi\n      tag_431\n      tag_428\n      jump\t// in\n    tag_431:\n    tag_430:\n      mload(0x40)\n      swap1\n      dup1\n      dup3\n      mstore\n      dup1\n      0x20\n      mul\n      0x20\n      add\n      dup3\n      add\n      0x40\n      mstore\n      dup1\n      iszero\n      tag_432\n      jumpi\n      dup2\n      0x20\n      add\n      0x20\n      dup3\n      mul\n      dup1\n      calldatasize\n      dup4\n      calldatacopy\n      dup1\n      dup3\n      add\n      swap2\n      pop\n      pop\n      swap1\n      pop\n    tag_432:\n      pop\n        /* \"contracts/CrowdFund.sol\":12071:12133  uint[] memory minimumAmounts = new uint[] (projectList.length) */\n      swap1\n      pop\n        /* \"contracts/CrowdFund.sol\":12147:12166  uint[] memory goals */\n      0x00\n        /* \"contracts/CrowdFund.sol\":12181:12192  projectList */\n      dup4\n        /* \"contracts/CrowdFund.sol\":12181:12199  projectList.length */\n      dup1\n      sload\n      swap1\n      pop\n        /* \"contracts/CrowdFund.sol\":12169:12200  new uint[] (projectList.length) */\n      0xffffffffffffffff\n      dup2\n      gt\n      iszero\n      tag_433\n      jumpi\n      tag_434\n      tag_428\n      jump\t// in\n    tag_434:\n    tag_433:\n      mload(0x40)\n      swap1\n      dup1\n      dup3\n      mstore\n      dup1\n      0x20\n      mul\n      0x20\n      add\n      dup3\n      add\n      0x40\n      mstore\n      dup1\n      iszero\n      tag_435\n      jumpi\n      dup2\n      0x20\n      add\n      0x20\n      dup3\n      mul\n      dup1\n      calldatasize\n      dup4\n      calldatacopy\n      dup1\n      dup3\n      add\n      swap2\n      pop\n      pop\n      swap1\n      pop\n    tag_435:\n      pop\n        /* \"contracts/CrowdFund.sol\":12147:12200  uint[] memory goals = new uint[] (projectList.length) */\n      swap1\n      pop\n        /* \"contracts/CrowdFund.sol\":12214:12241  uint[] memory raisedAmounts */\n      0x00\n        /* \"contracts/CrowdFund.sol\":12256:12267  projectList */\n      dup5\n        /* \"contracts/CrowdFund.sol\":12256:12274  projectList.length */\n      dup1\n      sload\n      swap1\n      pop\n        /* \"contracts/CrowdFund.sol\":12244:12275  new uint[] (projectList.length) */\n      0xffffffffffffffff\n      dup2\n      gt\n      iszero\n      tag_436\n      jumpi\n      tag_437\n      tag_428\n      jump\t// in\n    tag_437:\n    tag_436:\n      mload(0x40)\n      swap1\n      dup1\n      dup3\n      mstore\n      dup1\n      0x20\n      mul\n      0x20\n      add\n      dup3\n      add\n      0x40\n      mstore\n      dup1\n      iszero\n      tag_438\n      jumpi\n      dup2\n      0x20\n      add\n      0x20\n      dup3\n      mul\n      dup1\n      calldatasize\n      dup4\n      calldatacopy\n      dup1\n      dup3\n      add\n      swap2\n      pop\n      pop\n      swap1\n      pop\n    tag_438:\n      pop\n        /* \"contracts/CrowdFund.sol\":12214:12275  uint[] memory raisedAmounts = new uint[] (projectList.length) */\n      swap1\n      pop\n        /* \"contracts/CrowdFund.sol\":12290:12296  uint j */\n      0x00\n        /* \"contracts/CrowdFund.sol\":12319:12325  uint i */\n      dup1\n        /* \"contracts/CrowdFund.sol\":12314:12717  for (uint i=0;i<projectList.length;i++) {... */\n    tag_439:\n        /* \"contracts/CrowdFund.sol\":12330:12341  projectList */\n      dup7\n        /* \"contracts/CrowdFund.sol\":12330:12348  projectList.length */\n      dup1\n      sload\n      swap1\n      pop\n        /* \"contracts/CrowdFund.sol\":12328:12329  i */\n      dup2\n        /* \"contracts/CrowdFund.sol\":12328:12348  i<projectList.length */\n      lt\n        /* \"contracts/CrowdFund.sol\":12314:12717  for (uint i=0;i<projectList.length;i++) {... */\n      iszero\n      tag_440\n      jumpi\n        /* \"contracts/CrowdFund.sol\":12376:12387  projectList */\n      dup7\n        /* \"contracts/CrowdFund.sol\":12388:12389  i */\n      dup2\n        /* \"contracts/CrowdFund.sol\":12376:12390  projectList[i] */\n      dup2\n      sload\n      dup2\n      lt\n      tag_442\n      jumpi\n      tag_443\n      tag_142\n      jump\t// in\n    tag_443:\n    tag_442:\n      swap1\n      0x00\n      mstore\n      keccak256(0x00, 0x20)\n      swap1\n      0x07\n      mul\n      add\n        /* \"contracts/CrowdFund.sol\":12376:12405  projectList[i].acceptDonation */\n      0x04\n      add\n      0x14\n      swap1\n      sload\n      swap1\n      0x0100\n      exp\n      swap1\n      div\n      0xff\n      and\n        /* \"contracts/CrowdFund.sol\":12372:12703  if (projectList[i].acceptDonation) {... */\n      iszero\n      tag_445\n      jumpi\n        /* \"contracts/CrowdFund.sol\":12445:12456  projectList */\n      dup7\n        /* \"contracts/CrowdFund.sol\":12457:12458  i */\n      dup2\n        /* \"contracts/CrowdFund.sol\":12445:12459  projectList[i] */\n      dup2\n      sload\n      dup2\n      lt\n      tag_446\n      jumpi\n      tag_447\n      tag_142\n      jump\t// in\n    tag_447:\n    tag_446:\n      swap1\n      0x00\n      mstore\n      keccak256(0x00, 0x20)\n      swap1\n      0x07\n      mul\n      add\n        /* \"contracts/CrowdFund.sol\":12445:12469  projectList[i].projectId */\n      0x00\n      add\n      sload\n        /* \"contracts/CrowdFund.sol\":12429:12439  projectIds */\n      dup7\n        /* \"contracts/CrowdFund.sol\":12440:12441  j */\n      dup4\n        /* \"contracts/CrowdFund.sol\":12429:12442  projectIds[j] */\n      dup2\n      mload\n      dup2\n      lt\n      tag_449\n      jumpi\n      tag_450\n      tag_142\n      jump\t// in\n    tag_450:\n    tag_449:\n      0x20\n      mul\n      0x20\n      add\n      add\n        /* \"contracts/CrowdFund.sol\":12429:12469  projectIds[j] = projectList[i].projectId */\n      dup2\n      dup2\n      mstore\n      pop\n      pop\n        /* \"contracts/CrowdFund.sol\":12511:12522  projectList */\n      dup7\n        /* \"contracts/CrowdFund.sol\":12523:12524  i */\n      dup2\n        /* \"contracts/CrowdFund.sol\":12511:12525  projectList[i] */\n      dup2\n      sload\n      dup2\n      lt\n      tag_451\n      jumpi\n      tag_452\n      tag_142\n      jump\t// in\n    tag_452:\n    tag_451:\n      swap1\n      0x00\n      mstore\n      keccak256(0x00, 0x20)\n      swap1\n      0x07\n      mul\n      add\n        /* \"contracts/CrowdFund.sol\":12511:12539  projectList[i].minimumAmount */\n      0x01\n      add\n      sload\n        /* \"contracts/CrowdFund.sol\":12491:12505  minimumAmounts */\n      dup6\n        /* \"contracts/CrowdFund.sol\":12506:12507  j */\n      dup4\n        /* \"contracts/CrowdFund.sol\":12491:12508  minimumAmounts[j] */\n      dup2\n      mload\n      dup2\n      lt\n      tag_454\n      jumpi\n      tag_455\n      tag_142\n      jump\t// in\n    tag_455:\n    tag_454:\n      0x20\n      mul\n      0x20\n      add\n      add\n        /* \"contracts/CrowdFund.sol\":12491:12539  minimumAmounts[j] = projectList[i].minimumAmount */\n      dup2\n      dup2\n      mstore\n      pop\n      pop\n        /* \"contracts/CrowdFund.sol\":12572:12583  projectList */\n      dup7\n        /* \"contracts/CrowdFund.sol\":12584:12585  i */\n      dup2\n        /* \"contracts/CrowdFund.sol\":12572:12586  projectList[i] */\n      dup2\n      sload\n      dup2\n      lt\n      tag_456\n      jumpi\n      tag_457\n      tag_142\n      jump\t// in\n    tag_457:\n    tag_456:\n      swap1\n      0x00\n      mstore\n      keccak256(0x00, 0x20)\n      swap1\n      0x07\n      mul\n      add\n        /* \"contracts/CrowdFund.sol\":12572:12591  projectList[i].goal */\n      0x02\n      add\n      sload\n        /* \"contracts/CrowdFund.sol\":12561:12566  goals */\n      dup5\n        /* \"contracts/CrowdFund.sol\":12567:12568  j */\n      dup4\n        /* \"contracts/CrowdFund.sol\":12561:12569  goals[j] */\n      dup2\n      mload\n      dup2\n      lt\n      tag_459\n      jumpi\n      tag_460\n      tag_142\n      jump\t// in\n    tag_460:\n    tag_459:\n      0x20\n      mul\n      0x20\n      add\n      add\n        /* \"contracts/CrowdFund.sol\":12561:12591  goals[j] = projectList[i].goal */\n      dup2\n      dup2\n      mstore\n      pop\n      pop\n        /* \"contracts/CrowdFund.sol\":12632:12643  projectList */\n      dup7\n        /* \"contracts/CrowdFund.sol\":12644:12645  i */\n      dup2\n        /* \"contracts/CrowdFund.sol\":12632:12646  projectList[i] */\n      dup2\n      sload\n      dup2\n      lt\n      tag_461\n      jumpi\n      tag_462\n      tag_142\n      jump\t// in\n    tag_462:\n    tag_461:\n      swap1\n      0x00\n      mstore\n      keccak256(0x00, 0x20)\n      swap1\n      0x07\n      mul\n      add\n        /* \"contracts/CrowdFund.sol\":12632:12659  projectList[i].raisedAmount */\n      0x03\n      add\n      sload\n        /* \"contracts/CrowdFund.sol\":12613:12626  raisedAmounts */\n      dup4\n        /* \"contracts/CrowdFund.sol\":12627:12628  j */\n      dup4\n        /* \"contracts/CrowdFund.sol\":12613:12629  raisedAmounts[j] */\n      dup2\n      mload\n      dup2\n      lt\n      tag_464\n      jumpi\n      tag_465\n      tag_142\n      jump\t// in\n    tag_465:\n    tag_464:\n      0x20\n      mul\n      0x20\n      add\n      add\n        /* \"contracts/CrowdFund.sol\":12613:12659  raisedAmounts[j] = projectList[i].raisedAmount */\n      dup2\n      dup2\n      mstore\n      pop\n      pop\n        /* \"contracts/CrowdFund.sol\":12681:12684  j++ */\n      dup2\n      dup1\n      tag_466\n      swap1\n      tag_149\n      jump\t// in\n    tag_466:\n      swap3\n      pop\n      pop\n        /* \"contracts/CrowdFund.sol\":12372:12703  if (projectList[i].acceptDonation) {... */\n    tag_445:\n        /* \"contracts/CrowdFund.sol\":12349:12352  i++ */\n      dup1\n      dup1\n      tag_467\n      swap1\n      tag_149\n      jump\t// in\n    tag_467:\n      swap2\n      pop\n      pop\n        /* \"contracts/CrowdFund.sol\":12314:12717  for (uint i=0;i<projectList.length;i++) {... */\n      jump(tag_439)\n    tag_440:\n      pop\n        /* \"contracts/CrowdFund.sol\":12771:12772  0 */\n      0x00\n        /* \"contracts/CrowdFund.sol\":12751:12761  projectIds */\n      dup6\n        /* \"contracts/CrowdFund.sol\":12751:12768  projectIds.length */\n      mload\n        /* \"contracts/CrowdFund.sol\":12751:12772  projectIds.length > 0 */\n      gt\n        /* \"contracts/CrowdFund.sol\":12743:12821  require(projectIds.length > 0,\"No projects available for accepting donations\") */\n      tag_468\n      jumpi\n      mload(0x40)\n      0x08c379a000000000000000000000000000000000000000000000000000000000\n      dup2\n      mstore\n      0x04\n      add\n      tag_469\n      swap1\n      tag_470\n      jump\t// in\n    tag_469:\n      mload(0x40)\n      dup1\n      swap2\n      sub\n      swap1\n      revert\n    tag_468:\n        /* \"contracts/CrowdFund.sol\":12844:12854  projectIds */\n      dup5\n        /* \"contracts/CrowdFund.sol\":12856:12870  minimumAmounts */\n      dup5\n        /* \"contracts/CrowdFund.sol\":12872:12877  goals */\n      dup5\n        /* \"contracts/CrowdFund.sol\":12879:12892  raisedAmounts */\n      dup5\n        /* \"contracts/CrowdFund.sol\":12836:12893  return (projectIds, minimumAmounts, goals, raisedAmounts) */\n      swap10\n      pop\n      swap10\n      pop\n      swap10\n      pop\n      swap10\n      pop\n      pop\n      pop\n      pop\n      pop\n      pop\n      pop\n        /* \"contracts/CrowdFund.sol\":11569:12901  function getProjectListByCharity(uint charityId) public view returns (... */\n      swap2\n      swap4\n      pop\n      swap2\n      swap4\n      jump\t// out\n        /* \"contracts/CrowdFund.sol\":3912:4650  function updateCharityStatus(uint charityId, bool status, string memory reason) public onlyBoardAdmin {... */\n    tag_81:\n        /* \"contracts/CrowdFund.sol\":2832:2842  boardAdmin */\n      0x02\n      0x00\n      swap1\n      sload\n      swap1\n      0x0100\n      exp\n      swap1\n      div\n      0xffffffffffffffffffffffffffffffffffffffff\n      and\n        /* \"contracts/CrowdFund.sol\":2820:2842  msg.sender==boardAdmin */\n      0xffffffffffffffffffffffffffffffffffffffff\n      and\n        /* \"contracts/CrowdFund.sol\":2820:2830  msg.sender */\n      caller\n        /* \"contracts/CrowdFund.sol\":2820:2842  msg.sender==boardAdmin */\n      0xffffffffffffffffffffffffffffffffffffffff\n      and\n      eq\n        /* \"contracts/CrowdFund.sol\":2843:2853  ONLY_ADMIN */\n      mload(0x40)\n      dup1\n      0x60\n      add\n      0x40\n      mstore\n      dup1\n      0x33\n      dup2\n      mstore\n      0x20\n      add\n      data_0fd57a96508da25173f82e6faabc4b077c36881e53dd1b21682a822e75096b01\n      0x33\n      swap2\n      codecopy\n        /* \"contracts/CrowdFund.sol\":2812:2854  require(msg.sender==boardAdmin,ONLY_ADMIN) */\n      swap1\n      tag_472\n      jumpi\n      mload(0x40)\n      0x08c379a000000000000000000000000000000000000000000000000000000000\n      dup2\n      mstore\n      0x04\n      add\n      tag_473\n      swap2\n      swap1\n      tag_70\n      jump\t// in\n    tag_473:\n      mload(0x40)\n      dup1\n      swap2\n      sub\n      swap1\n      revert\n    tag_472:\n      pop\n        /* \"contracts/CrowdFund.sol\":4051:4052  0 */\n      0x00\n        /* \"contracts/CrowdFund.sol\":4032:4041  charities */\n      0x01\n        /* \"contracts/CrowdFund.sol\":4032:4048  charities.length */\n      dup1\n      sload\n      swap1\n      pop\n        /* \"contracts/CrowdFund.sol\":4032:4052  charities.length > 0 */\n      gt\n        /* \"contracts/CrowdFund.sol\":4024:4084  require(charities.length > 0,\"No charity is registered yet\") */\n      tag_475\n      jumpi\n      mload(0x40)\n      0x08c379a000000000000000000000000000000000000000000000000000000000\n      dup2\n      mstore\n      0x04\n      add\n      tag_476\n      swap1\n      tag_477\n      jump\t// in\n    tag_476:\n      mload(0x40)\n      dup1\n      swap2\n      sub\n      swap1\n      revert\n    tag_475:\n        /* \"contracts/CrowdFund.sol\":4094:4104  bool found */\n      0x00\n        /* \"contracts/CrowdFund.sol\":4127:4133  uint i */\n      dup1\n        /* \"contracts/CrowdFund.sol\":4122:4560  for (uint i=0;i<charities.length;i++) {... */\n    tag_478:\n        /* \"contracts/CrowdFund.sol\":4138:4147  charities */\n      0x01\n        /* \"contracts/CrowdFund.sol\":4138:4154  charities.length */\n      dup1\n      sload\n      swap1\n      pop\n        /* \"contracts/CrowdFund.sol\":4136:4137  i */\n      dup2\n        /* \"contracts/CrowdFund.sol\":4136:4154  i<charities.length */\n      lt\n        /* \"contracts/CrowdFund.sol\":4122:4560  for (uint i=0;i<charities.length;i++) {... */\n      iszero\n      tag_479\n      jumpi\n        /* \"contracts/CrowdFund.sol\":4204:4213  charityId */\n      dup5\n        /* \"contracts/CrowdFund.sol\":4178:4187  charities */\n      0x01\n        /* \"contracts/CrowdFund.sol\":4188:4189  i */\n      dup3\n        /* \"contracts/CrowdFund.sol\":4178:4190  charities[i] */\n      dup2\n      sload\n      dup2\n      lt\n      tag_481\n      jumpi\n      tag_482\n      tag_142\n      jump\t// in\n    tag_482:\n    tag_481:\n      swap1\n      0x00\n      mstore\n      keccak256(0x00, 0x20)\n      swap1\n      0x05\n      mul\n      add\n        /* \"contracts/CrowdFund.sol\":4178:4200  charities[i].charityId */\n      0x00\n      add\n      sload\n        /* \"contracts/CrowdFund.sol\":4178:4213  charities[i].charityId == charityId */\n      eq\n        /* \"contracts/CrowdFund.sol\":4174:4550  if (charities[i].charityId == charityId) {... */\n      iszero\n      tag_484\n      jumpi\n        /* \"contracts/CrowdFund.sol\":4257:4263  status */\n      dup4\n        /* \"contracts/CrowdFund.sol\":4233:4242  charities */\n      0x01\n        /* \"contracts/CrowdFund.sol\":4243:4244  i */\n      dup3\n        /* \"contracts/CrowdFund.sol\":4233:4245  charities[i] */\n      dup2\n      sload\n      dup2\n      lt\n      tag_485\n      jumpi\n      tag_486\n      tag_142\n      jump\t// in\n    tag_486:\n    tag_485:\n      swap1\n      0x00\n      mstore\n      keccak256(0x00, 0x20)\n      swap1\n      0x05\n      mul\n      add\n        /* \"contracts/CrowdFund.sol\":4233:4254  charities[i].approved */\n      0x01\n      add\n      0x00\n        /* \"contracts/CrowdFund.sol\":4233:4263  charities[i].approved = status */\n      0x0100\n      exp\n      dup2\n      sload\n      dup2\n      0xff\n      mul\n      not\n      and\n      swap1\n      dup4\n      iszero\n      iszero\n      mul\n      or\n      swap1\n      sstore\n      pop\n        /* \"contracts/CrowdFund.sol\":4312:4316  true */\n      0x01\n        /* \"contracts/CrowdFund.sol\":4302:4316  status == true */\n      iszero\n      iszero\n        /* \"contracts/CrowdFund.sol\":4302:4308  status */\n      dup5\n        /* \"contracts/CrowdFund.sol\":4302:4316  status == true */\n      iszero\n      iszero\n      eq\n        /* \"contracts/CrowdFund.sol\":4298:4444  if (status == true)... */\n      iszero\n      tag_488\n      jumpi\n        /* \"contracts/CrowdFund.sol\":4369:4373  true */\n      0x01\n        /* \"contracts/CrowdFund.sol\":4338:4355  approvedCharities */\n      0x04\n        /* \"contracts/CrowdFund.sol\":4338:4366  approvedCharities[charityId] */\n      0x00\n        /* \"contracts/CrowdFund.sol\":4356:4365  charityId */\n      dup8\n        /* \"contracts/CrowdFund.sol\":4338:4366  approvedCharities[charityId] */\n      dup2\n      mstore\n      0x20\n      add\n      swap1\n      dup2\n      mstore\n      0x20\n      add\n      0x00\n      keccak256\n      0x00\n        /* \"contracts/CrowdFund.sol\":4338:4373  approvedCharities[charityId] = true */\n      0x0100\n      exp\n      dup2\n      sload\n      dup2\n      0xff\n      mul\n      not\n      and\n      swap1\n      dup4\n      iszero\n      iszero\n      mul\n      or\n      swap1\n      sstore\n      pop\n        /* \"contracts/CrowdFund.sol\":4298:4444  if (status == true)... */\n      jump(tag_489)\n    tag_488:\n        /* \"contracts/CrowdFund.sol\":4438:4444  reason */\n      dup3\n        /* \"contracts/CrowdFund.sol\":4416:4425  charities */\n      0x01\n        /* \"contracts/CrowdFund.sol\":4426:4427  i */\n      dup3\n        /* \"contracts/CrowdFund.sol\":4416:4428  charities[i] */\n      dup2\n      sload\n      dup2\n      lt\n      tag_490\n      jumpi\n      tag_491\n      tag_142\n      jump\t// in\n    tag_491:\n    tag_490:\n      swap1\n      0x00\n      mstore\n      keccak256(0x00, 0x20)\n      swap1\n      0x05\n      mul\n      add\n        /* \"contracts/CrowdFund.sol\":4416:4435  charities[i].reason */\n      0x02\n      add\n        /* \"contracts/CrowdFund.sol\":4416:4444  charities[i].reason = reason */\n      swap1\n      dup1\n      mload\n      swap1\n      0x20\n      add\n      swap1\n      tag_493\n      swap3\n      swap2\n      swap1\n      tag_128\n      jump\t// in\n    tag_493:\n      pop\n        /* \"contracts/CrowdFund.sol\":4298:4444  if (status == true)... */\n    tag_489:\n        /* \"contracts/CrowdFund.sol\":4491:4495  true */\n      0x01\n        /* \"contracts/CrowdFund.sol\":4483:4495  found = true */\n      swap2\n      pop\n        /* \"contracts/CrowdFund.sol\":4530:4535  break */\n      jump(tag_479)\n        /* \"contracts/CrowdFund.sol\":4174:4550  if (charities[i].charityId == charityId) {... */\n    tag_484:\n        /* \"contracts/CrowdFund.sol\":4155:4158  i++ */\n      dup1\n      dup1\n      tag_494\n      swap1\n      tag_149\n      jump\t// in\n    tag_494:\n      swap2\n      pop\n      pop\n        /* \"contracts/CrowdFund.sol\":4122:4560  for (uint i=0;i<charities.length;i++) {... */\n      jump(tag_478)\n    tag_479:\n      pop\n        /* \"contracts/CrowdFund.sol\":4575:4580  found */\n      dup1\n        /* \"contracts/CrowdFund.sol\":4570:4642  if (!found)... */\n      tag_495\n      jumpi\n        /* \"contracts/CrowdFund.sol\":4594:4642  revert(\"No charity exist under this charity id\") */\n      mload(0x40)\n      0x08c379a000000000000000000000000000000000000000000000000000000000\n      dup2\n      mstore\n      0x04\n      add\n      tag_496\n      swap1\n      tag_497\n      jump\t// in\n    tag_496:\n      mload(0x40)\n      dup1\n      swap2\n      sub\n      swap1\n      revert\n        /* \"contracts/CrowdFund.sol\":4570:4642  if (!found)... */\n    tag_495:\n        /* \"contracts/CrowdFund.sol\":4014:4650  {... */\n      pop\n        /* \"contracts/CrowdFund.sol\":3912:4650  function updateCharityStatus(uint charityId, bool status, string memory reason) public onlyBoardAdmin {... */\n      pop\n      pop\n      pop\n      jump\t// out\n        /* \"contracts/CrowdFund.sol\":769:794  address public boardAdmin */\n    tag_84:\n      0x02\n      0x00\n      swap1\n      sload\n      swap1\n      0x0100\n      exp\n      swap1\n      div\n      0xffffffffffffffffffffffffffffffffffffffff\n      and\n      dup2\n      jump\t// out\n        /* \"contracts/CrowdFund.sol\":4730:5472  function createProject(uint charityId, uint _projectId, uint _minimumAmount, uint _goal, address owner, string memory _documentLink) onlyCharity public {... */\n    tag_91:\n        /* \"contracts/CrowdFund.sol\":2916:2926  boardAdmin */\n      0x02\n      0x00\n      swap1\n      sload\n      swap1\n      0x0100\n      exp\n      swap1\n      div\n      0xffffffffffffffffffffffffffffffffffffffff\n      and\n        /* \"contracts/CrowdFund.sol\":2904:2926  msg.sender!=boardAdmin */\n      0xffffffffffffffffffffffffffffffffffffffff\n      and\n        /* \"contracts/CrowdFund.sol\":2904:2914  msg.sender */\n      caller\n        /* \"contracts/CrowdFund.sol\":2904:2926  msg.sender!=boardAdmin */\n      0xffffffffffffffffffffffffffffffffffffffff\n      and\n      eq\n      iszero\n        /* \"contracts/CrowdFund.sol\":2927:2939  ONLY_CHARITY */\n      mload(0x40)\n      dup1\n      0x60\n      add\n      0x40\n      mstore\n      dup1\n      0x2f\n      dup2\n      mstore\n      0x20\n      add\n      data_ae7511c0e8221605b02a680fd07d0703f28d0f0f32c6884aaca3289d2fe90612\n      0x2f\n      swap2\n      codecopy\n        /* \"contracts/CrowdFund.sol\":2896:2940  require(msg.sender!=boardAdmin,ONLY_CHARITY) */\n      swap1\n      tag_499\n      jumpi\n      mload(0x40)\n      0x08c379a000000000000000000000000000000000000000000000000000000000\n      dup2\n      mstore\n      0x04\n      add\n      tag_500\n      swap2\n      swap1\n      tag_70\n      jump\t// in\n    tag_500:\n      mload(0x40)\n      dup1\n      swap2\n      sub\n      swap1\n      revert\n    tag_499:\n      pop\n        /* \"contracts/CrowdFund.sol\":4919:4920  0 */\n      0x00\n        /* \"contracts/CrowdFund.sol\":4900:4909  charities */\n      0x01\n        /* \"contracts/CrowdFund.sol\":4900:4916  charities.length */\n      dup1\n      sload\n      swap1\n      pop\n        /* \"contracts/CrowdFund.sol\":4900:4920  charities.length > 0 */\n      gt\n        /* \"contracts/CrowdFund.sol\":4892:4952  require(charities.length > 0,\"No charity is registered yet\") */\n      tag_502\n      jumpi\n      mload(0x40)\n      0x08c379a000000000000000000000000000000000000000000000000000000000\n      dup2\n      mstore\n      0x04\n      add\n      tag_503\n      swap1\n      tag_477\n      jump\t// in\n    tag_503:\n      mload(0x40)\n      dup1\n      swap2\n      sub\n      swap1\n      revert\n    tag_502:\n        /* \"contracts/CrowdFund.sol\":4970:4987  approvedCharities */\n      0x04\n        /* \"contracts/CrowdFund.sol\":4970:4998  approvedCharities[charityId] */\n      0x00\n        /* \"contracts/CrowdFund.sol\":4988:4997  charityId */\n      dup8\n        /* \"contracts/CrowdFund.sol\":4970:4998  approvedCharities[charityId] */\n      dup2\n      mstore\n      0x20\n      add\n      swap1\n      dup2\n      mstore\n      0x20\n      add\n      0x00\n      keccak256\n      0x00\n      swap1\n      sload\n      swap1\n      0x0100\n      exp\n      swap1\n      div\n      0xff\n      and\n        /* \"contracts/CrowdFund.sol\":4962:5034  require(approvedCharities[charityId],\"This charity is not yet approved\") */\n      tag_504\n      jumpi\n      mload(0x40)\n      0x08c379a000000000000000000000000000000000000000000000000000000000\n      dup2\n      mstore\n      0x04\n      add\n      tag_505\n      swap1\n      tag_506\n      jump\t// in\n    tag_505:\n      mload(0x40)\n      dup1\n      swap2\n      sub\n      swap1\n      revert\n    tag_504:\n        /* \"contracts/CrowdFund.sol\":5049:5074  Project memory newProject */\n      0x00\n        /* \"contracts/CrowdFund.sol\":5077:5367  Project({... */\n      mload(0x40)\n      dup1\n      0x0100\n      add\n      0x40\n      mstore\n      dup1\n        /* \"contracts/CrowdFund.sol\":5109:5119  _projectId */\n      dup8\n        /* \"contracts/CrowdFund.sol\":5077:5367  Project({... */\n      dup2\n      mstore\n      0x20\n      add\n        /* \"contracts/CrowdFund.sol\":5147:5161  _minimumAmount */\n      dup7\n        /* \"contracts/CrowdFund.sol\":5077:5367  Project({... */\n      dup2\n      mstore\n      0x20\n      add\n        /* \"contracts/CrowdFund.sol\":5180:5185  _goal */\n      dup6\n        /* \"contracts/CrowdFund.sol\":5077:5367  Project({... */\n      dup2\n      mstore\n      0x20\n      add\n        /* \"contracts/CrowdFund.sol\":5212:5213  0 */\n      0x00\n        /* \"contracts/CrowdFund.sol\":5077:5367  Project({... */\n      dup2\n      mstore\n      0x20\n      add\n        /* \"contracts/CrowdFund.sol\":5233:5238  owner */\n      dup5\n        /* \"contracts/CrowdFund.sol\":5077:5367  Project({... */\n      0xffffffffffffffffffffffffffffffffffffffff\n      and\n      dup2\n      mstore\n      0x20\n      add\n        /* \"contracts/CrowdFund.sol\":5267:5271  true */\n      0x01\n        /* \"contracts/CrowdFund.sol\":5077:5367  Project({... */\n      iszero\n      iszero\n      dup2\n      mstore\n      0x20\n      add\n        /* \"contracts/CrowdFund.sol\":5298:5311  _documentLink */\n      dup4\n        /* \"contracts/CrowdFund.sol\":5077:5367  Project({... */\n      dup2\n      mstore\n      0x20\n      add\n        /* \"contracts/CrowdFund.sol\":5339:5356  ProjectStatus.APR */\n      0x02\n        /* \"contracts/CrowdFund.sol\":5077:5367  Project({... */\n      0x09\n      dup2\n      gt\n      iszero\n      tag_507\n      jumpi\n      tag_508\n      tag_188\n      jump\t// in\n    tag_508:\n    tag_507:\n      dup2\n      mstore\n      pop\n        /* \"contracts/CrowdFund.sol\":5049:5367  Project memory newProject = Project({... */\n      swap1\n      pop\n        /* \"contracts/CrowdFund.sol\":5378:5386  projects */\n      0x00\n        /* \"contracts/CrowdFund.sol\":5392:5402  newProject */\n      dup2\n        /* \"contracts/CrowdFund.sol\":5378:5403  projects.push(newProject) */\n      swap1\n      dup1\n      0x01\n      dup2\n      sload\n      add\n      dup1\n      dup3\n      sstore\n      dup1\n      swap2\n      pop\n      pop\n      0x01\n      swap1\n      sub\n      swap1\n      0x00\n      mstore\n      keccak256(0x00, 0x20)\n      swap1\n      0x07\n      mul\n      add\n      0x00\n      swap1\n      swap2\n      swap1\n      swap2\n      swap1\n      swap2\n      pop\n      0x00\n      dup3\n      add\n      mload\n      dup2\n      0x00\n      add\n      sstore\n      0x20\n      dup3\n      add\n      mload\n      dup2\n      0x01\n      add\n      sstore\n      0x40\n      dup3\n      add\n      mload\n      dup2\n      0x02\n      add\n      sstore\n      0x60\n      dup3\n      add\n      mload\n      dup2\n      0x03\n      add\n      sstore\n      0x80\n      dup3\n      add\n      mload\n      dup2\n      0x04\n      add\n      exp(0x0100, 0x00)\n      dup2\n      sload\n      dup2\n      0xffffffffffffffffffffffffffffffffffffffff\n      mul\n      not\n      and\n      swap1\n      dup4\n      0xffffffffffffffffffffffffffffffffffffffff\n      and\n      mul\n      or\n      swap1\n      sstore\n      pop\n      0xa0\n      dup3\n      add\n      mload\n      dup2\n      0x04\n      add\n      exp(0x0100, 0x14)\n      dup2\n      sload\n      dup2\n      0xff\n      mul\n      not\n      and\n      swap1\n      dup4\n      iszero\n      iszero\n      mul\n      or\n      swap1\n      sstore\n      pop\n      0xc0\n      dup3\n      add\n      mload\n      dup2\n      0x05\n      add\n      swap1\n      dup1\n      mload\n      swap1\n      0x20\n      add\n      swap1\n      tag_510\n      swap3\n      swap2\n      swap1\n      tag_128\n      jump\t// in\n    tag_510:\n      pop\n      0xe0\n      dup3\n      add\n      mload\n      dup2\n      0x06\n      add\n      exp(0x0100, 0x00)\n      dup2\n      sload\n      dup2\n      0xff\n      mul\n      not\n      and\n      swap1\n      dup4\n      0x09\n      dup2\n      gt\n      iszero\n      tag_511\n      jumpi\n      tag_512\n      tag_188\n      jump\t// in\n    tag_512:\n    tag_511:\n      mul\n      or\n      swap1\n      sstore\n      pop\n      pop\n      pop\n        /* \"contracts/CrowdFund.sol\":5422:5437  charityProjects */\n      0x03\n        /* \"contracts/CrowdFund.sol\":5422:5448  charityProjects[charityId] */\n      0x00\n        /* \"contracts/CrowdFund.sol\":5438:5447  charityId */\n      dup9\n        /* \"contracts/CrowdFund.sol\":5422:5448  charityProjects[charityId] */\n      dup2\n      mstore\n      0x20\n      add\n      swap1\n      dup2\n      mstore\n      0x20\n      add\n      0x00\n      keccak256\n        /* \"contracts/CrowdFund.sol\":5454:5464  newProject */\n      dup2\n        /* \"contracts/CrowdFund.sol\":5422:5465  charityProjects[charityId].push(newProject) */\n      swap1\n      dup1\n      0x01\n      dup2\n      sload\n      add\n      dup1\n      dup3\n      sstore\n      dup1\n      swap2\n      pop\n      pop\n      0x01\n      swap1\n      sub\n      swap1\n      0x00\n      mstore\n      keccak256(0x00, 0x20)\n      swap1\n      0x07\n      mul\n      add\n      0x00\n      swap1\n      swap2\n      swap1\n      swap2\n      swap1\n      swap2\n      pop\n      0x00\n      dup3\n      add\n      mload\n      dup2\n      0x00\n      add\n      sstore\n      0x20\n      dup3\n      add\n      mload\n      dup2\n      0x01\n      add\n      sstore\n      0x40\n      dup3\n      add\n      mload\n      dup2\n      0x02\n      add\n      sstore\n      0x60\n      dup3\n      add\n      mload\n      dup2\n      0x03\n      add\n      sstore\n      0x80\n      dup3\n      add\n      mload\n      dup2\n      0x04\n      add\n      exp(0x0100, 0x00)\n      dup2\n      sload\n      dup2\n      0xffffffffffffffffffffffffffffffffffffffff\n      mul\n      not\n      and\n      swap1\n      dup4\n      0xffffffffffffffffffffffffffffffffffffffff\n      and\n      mul\n      or\n      swap1\n      sstore\n      pop\n      0xa0\n      dup3\n      add\n      mload\n      dup2\n      0x04\n      add\n      exp(0x0100, 0x14)\n      dup2\n      sload\n      dup2\n      0xff\n      mul\n      not\n      and\n      swap1\n      dup4\n      iszero\n      iszero\n      mul\n      or\n      swap1\n      sstore\n      pop\n      0xc0\n      dup3\n      add\n      mload\n      dup2\n      0x05\n      add\n      swap1\n      dup1\n      mload\n      swap1\n      0x20\n      add\n      swap1\n      tag_514\n      swap3\n      swap2\n      swap1\n      tag_128\n      jump\t// in\n    tag_514:\n      pop\n      0xe0\n      dup3\n      add\n      mload\n      dup2\n      0x06\n      add\n      exp(0x0100, 0x00)\n      dup2\n      sload\n      dup2\n      0xff\n      mul\n      not\n      and\n      swap1\n      dup4\n      0x09\n      dup2\n      gt\n      iszero\n      tag_515\n      jumpi\n      tag_516\n      tag_188\n      jump\t// in\n    tag_516:\n    tag_515:\n      mul\n      or\n      swap1\n      sstore\n      pop\n      pop\n      pop\n        /* \"contracts/CrowdFund.sol\":4882:5472  {... */\n      pop\n        /* \"contracts/CrowdFund.sol\":4730:5472  function createProject(uint charityId, uint _projectId, uint _minimumAmount, uint _goal, address owner, string memory _documentLink) onlyCharity public {... */\n      pop\n      pop\n      pop\n      pop\n      pop\n      pop\n      jump\t// out\n        /* \"contracts/CrowdFund.sol\":10627:11512  function getDonorBalance(uint charityId, uint projectId, uint donorId) public view returns (... */\n    tag_96:\n        /* \"contracts/CrowdFund.sol\":10728:10732  uint */\n      0x00\n        /* \"contracts/CrowdFund.sol\":10774:10775  0 */\n      dup1\n        /* \"contracts/CrowdFund.sol\":10756:10764  projects */\n      0x00\n        /* \"contracts/CrowdFund.sol\":10756:10771  projects.length */\n      dup1\n      sload\n      swap1\n      pop\n        /* \"contracts/CrowdFund.sol\":10756:10775  projects.length > 0 */\n      gt\n        /* \"contracts/CrowdFund.sol\":10748:10804  require(projects.length > 0,\"No project is created yet\") */\n      tag_518\n      jumpi\n      mload(0x40)\n      0x08c379a000000000000000000000000000000000000000000000000000000000\n      dup2\n      mstore\n      0x04\n      add\n      tag_519\n      swap1\n      tag_133\n      jump\t// in\n    tag_519:\n      mload(0x40)\n      dup1\n      swap2\n      sub\n      swap1\n      revert\n    tag_518:\n        /* \"contracts/CrowdFund.sol\":10819:10848  Project[] storage projectList */\n      0x00\n        /* \"contracts/CrowdFund.sol\":10851:10866  charityProjects */\n      0x03\n        /* \"contracts/CrowdFund.sol\":10851:10877  charityProjects[charityId] */\n      0x00\n        /* \"contracts/CrowdFund.sol\":10867:10876  charityId */\n      dup7\n        /* \"contracts/CrowdFund.sol\":10851:10877  charityProjects[charityId] */\n      dup2\n      mstore\n      0x20\n      add\n      swap1\n      dup2\n      mstore\n      0x20\n      add\n      0x00\n      keccak256\n        /* \"contracts/CrowdFund.sol\":10819:10877  Project[] storage projectList = charityProjects[charityId] */\n      swap1\n      pop\n        /* \"contracts/CrowdFund.sol\":10920:10921  0 */\n      0x00\n        /* \"contracts/CrowdFund.sol\":10899:10910  projectList */\n      dup2\n        /* \"contracts/CrowdFund.sol\":10899:10917  projectList.length */\n      dup1\n      sload\n      swap1\n      pop\n        /* \"contracts/CrowdFund.sol\":10899:10921  projectList.length > 0 */\n      gt\n        /* \"contracts/CrowdFund.sol\":10891:10942  require(projectList.length > 0,\"Charity not found\") */\n      tag_520\n      jumpi\n      mload(0x40)\n      0x08c379a000000000000000000000000000000000000000000000000000000000\n      dup2\n      mstore\n      0x04\n      add\n      tag_521\n      swap1\n      tag_136\n      jump\t// in\n    tag_521:\n      mload(0x40)\n      dup1\n      swap2\n      sub\n      swap1\n      revert\n    tag_520:\n        /* \"contracts/CrowdFund.sol\":10961:10967  uint i */\n      0x00\n        /* \"contracts/CrowdFund.sol\":10956:11423  for (uint i=0;i<projectList.length;i++) {... */\n    tag_522:\n        /* \"contracts/CrowdFund.sol\":10972:10983  projectList */\n      dup2\n        /* \"contracts/CrowdFund.sol\":10972:10990  projectList.length */\n      dup1\n      sload\n      swap1\n      pop\n        /* \"contracts/CrowdFund.sol\":10970:10971  i */\n      dup2\n        /* \"contracts/CrowdFund.sol\":10970:10990  i<projectList.length */\n      lt\n        /* \"contracts/CrowdFund.sol\":10956:11423  for (uint i=0;i<projectList.length;i++) {... */\n      iszero\n      tag_523\n      jumpi\n        /* \"contracts/CrowdFund.sol\":11046:11055  projectId */\n      dup5\n        /* \"contracts/CrowdFund.sol\":11018:11029  projectList */\n      dup3\n        /* \"contracts/CrowdFund.sol\":11030:11031  i */\n      dup3\n        /* \"contracts/CrowdFund.sol\":11018:11032  projectList[i] */\n      dup2\n      sload\n      dup2\n      lt\n      tag_525\n      jumpi\n      tag_526\n      tag_142\n      jump\t// in\n    tag_526:\n    tag_525:\n      swap1\n      0x00\n      mstore\n      keccak256(0x00, 0x20)\n      swap1\n      0x07\n      mul\n      add\n        /* \"contracts/CrowdFund.sol\":11018:11042  projectList[i].projectId */\n      0x00\n      add\n      sload\n        /* \"contracts/CrowdFund.sol\":11018:11055  projectList[i].projectId == projectId */\n      eq\n        /* \"contracts/CrowdFund.sol\":11014:11409  if (projectList[i].projectId == projectId) {... */\n      iszero\n      tag_528\n      jumpi\n        /* \"contracts/CrowdFund.sol\":11080:11105  Donor[] storage allDonors */\n      0x00\n        /* \"contracts/CrowdFund.sol\":11108:11121  projectDonors */\n      0x05\n        /* \"contracts/CrowdFund.sol\":11108:11132  projectDonors[projectId] */\n      0x00\n        /* \"contracts/CrowdFund.sol\":11122:11131  projectId */\n      dup8\n        /* \"contracts/CrowdFund.sol\":11108:11132  projectDonors[projectId] */\n      dup2\n      mstore\n      0x20\n      add\n      swap1\n      dup2\n      mstore\n      0x20\n      add\n      0x00\n      keccak256\n        /* \"contracts/CrowdFund.sol\":11080:11132  Donor[] storage allDonors = projectDonors[projectId] */\n      swap1\n      pop\n        /* \"contracts/CrowdFund.sol\":11160:11166  uint j */\n      0x00\n        /* \"contracts/CrowdFund.sol\":11155:11370  for (uint j=0;j<allDonors.length;j++) {... */\n    tag_529:\n        /* \"contracts/CrowdFund.sol\":11171:11180  allDonors */\n      dup2\n        /* \"contracts/CrowdFund.sol\":11171:11187  allDonors.length */\n      dup1\n      sload\n      swap1\n      pop\n        /* \"contracts/CrowdFund.sol\":11169:11170  j */\n      dup2\n        /* \"contracts/CrowdFund.sol\":11169:11187  j<allDonors.length */\n      lt\n        /* \"contracts/CrowdFund.sol\":11155:11370  for (uint j=0;j<allDonors.length;j++) {... */\n      iszero\n      tag_530\n      jumpi\n        /* \"contracts/CrowdFund.sol\":11248:11255  donorId */\n      dup6\n        /* \"contracts/CrowdFund.sol\":11224:11233  allDonors */\n      dup3\n        /* \"contracts/CrowdFund.sol\":11234:11235  j */\n      dup3\n        /* \"contracts/CrowdFund.sol\":11224:11236  allDonors[j] */\n      dup2\n      sload\n      dup2\n      lt\n      tag_532\n      jumpi\n      tag_533\n      tag_142\n      jump\t// in\n    tag_533:\n    tag_532:\n      swap1\n      0x00\n      mstore\n      keccak256(0x00, 0x20)\n      swap1\n      0x03\n      mul\n      add\n        /* \"contracts/CrowdFund.sol\":11224:11244  allDonors[j].donorId */\n      0x00\n      add\n      sload\n        /* \"contracts/CrowdFund.sol\":11224:11255  allDonors[j].donorId == donorId */\n      eq\n        /* \"contracts/CrowdFund.sol\":11220:11347  if (allDonors[j].donorId == donorId) {... */\n      iszero\n      tag_535\n      jumpi\n        /* \"contracts/CrowdFund.sol\":11294:11303  allDonors */\n      dup2\n        /* \"contracts/CrowdFund.sol\":11304:11305  j */\n      dup2\n        /* \"contracts/CrowdFund.sol\":11294:11306  allDonors[j] */\n      dup2\n      sload\n      dup2\n      lt\n      tag_536\n      jumpi\n      tag_537\n      tag_142\n      jump\t// in\n    tag_537:\n    tag_536:\n      swap1\n      0x00\n      mstore\n      keccak256(0x00, 0x20)\n      swap1\n      0x03\n      mul\n      add\n        /* \"contracts/CrowdFund.sol\":11294:11312  allDonors[j].owner */\n      0x01\n      add\n      0x00\n      swap1\n      sload\n      swap1\n      0x0100\n      exp\n      swap1\n      div\n      0xffffffffffffffffffffffffffffffffffffffff\n      and\n        /* \"contracts/CrowdFund.sol\":11294:11320  allDonors[j].owner.balance */\n      0xffffffffffffffffffffffffffffffffffffffff\n      and\n      balance\n        /* \"contracts/CrowdFund.sol\":11287:11320  return allDonors[j].owner.balance */\n      swap5\n      pop\n      pop\n      pop\n      pop\n      pop\n      jump(tag_517)\n        /* \"contracts/CrowdFund.sol\":11220:11347  if (allDonors[j].donorId == donorId) {... */\n    tag_535:\n        /* \"contracts/CrowdFund.sol\":11188:11191  j++ */\n      dup1\n      dup1\n      tag_539\n      swap1\n      tag_149\n      jump\t// in\n    tag_539:\n      swap2\n      pop\n      pop\n        /* \"contracts/CrowdFund.sol\":11155:11370  for (uint j=0;j<allDonors.length;j++) {... */\n      jump(tag_529)\n    tag_530:\n      pop\n        /* \"contracts/CrowdFund.sol\":11057:11409  {... */\n      pop\n        /* \"contracts/CrowdFund.sol\":11014:11409  if (projectList[i].projectId == projectId) {... */\n    tag_528:\n        /* \"contracts/CrowdFund.sol\":10991:10994  i++ */\n      dup1\n      dup1\n      tag_540\n      swap1\n      tag_149\n      jump\t// in\n    tag_540:\n      swap2\n      pop\n      pop\n        /* \"contracts/CrowdFund.sol\":10956:11423  for (uint i=0;i<projectList.length;i++) {... */\n      jump(tag_522)\n    tag_523:\n      pop\n        /* \"contracts/CrowdFund.sol\":11438:11505  revert(\"No such donor exist under this project under this charity\") */\n      mload(0x40)\n      0x08c379a000000000000000000000000000000000000000000000000000000000\n      dup2\n      mstore\n      0x04\n      add\n      tag_541\n      swap1\n      tag_542\n      jump\t// in\n    tag_541:\n      mload(0x40)\n      dup1\n      swap2\n      sub\n      swap1\n      revert\n        /* \"contracts/CrowdFund.sol\":10627:11512  function getDonorBalance(uint charityId, uint projectId, uint donorId) public view returns (... */\n    tag_517:\n      swap4\n      swap3\n      pop\n      pop\n      pop\n      jump\t// out\n        /* \"contracts/CrowdFund.sol\":12944:16021  function donate(uint charityId, uint projectId, uint donorId, uint amount) public payable {... */\n    tag_101:\n        /* \"contracts/CrowdFund.sol\":13048:13065  bool projectExist */\n      0x00\n        /* \"contracts/CrowdFund.sol\":13087:13116  Project[] storage projectList */\n      dup1\n        /* \"contracts/CrowdFund.sol\":13119:13134  charityProjects */\n      0x03\n        /* \"contracts/CrowdFund.sol\":13119:13145  charityProjects[charityId] */\n      0x00\n        /* \"contracts/CrowdFund.sol\":13135:13144  charityId */\n      dup8\n        /* \"contracts/CrowdFund.sol\":13119:13145  charityProjects[charityId] */\n      dup2\n      mstore\n      0x20\n      add\n      swap1\n      dup2\n      mstore\n      0x20\n      add\n      0x00\n      keccak256\n        /* \"contracts/CrowdFund.sol\":13087:13145  Project[] storage projectList = charityProjects[charityId] */\n      swap1\n      pop\n        /* \"contracts/CrowdFund.sol\":13188:13189  0 */\n      0x00\n        /* \"contracts/CrowdFund.sol\":13167:13178  projectList */\n      dup2\n        /* \"contracts/CrowdFund.sol\":13167:13185  projectList.length */\n      dup1\n      sload\n      swap1\n      pop\n        /* \"contracts/CrowdFund.sol\":13167:13189  projectList.length > 0 */\n      gt\n        /* \"contracts/CrowdFund.sol\":13159:13210  require(projectList.length > 0,\"Charity not found\") */\n      tag_544\n      jumpi\n      mload(0x40)\n      0x08c379a000000000000000000000000000000000000000000000000000000000\n      dup2\n      mstore\n      0x04\n      add\n      tag_545\n      swap1\n      tag_136\n      jump\t// in\n    tag_545:\n      mload(0x40)\n      dup1\n      swap2\n      sub\n      swap1\n      revert\n    tag_544:\n        /* \"contracts/CrowdFund.sol\":13229:13235  uint i */\n      0x00\n        /* \"contracts/CrowdFund.sol\":13224:15915  for (uint i=0;i<projectList.length;i++) {... */\n    tag_546:\n        /* \"contracts/CrowdFund.sol\":13240:13251  projectList */\n      dup2\n        /* \"contracts/CrowdFund.sol\":13240:13258  projectList.length */\n      dup1\n      sload\n      swap1\n      pop\n        /* \"contracts/CrowdFund.sol\":13238:13239  i */\n      dup2\n        /* \"contracts/CrowdFund.sol\":13238:13258  i<projectList.length */\n      lt\n        /* \"contracts/CrowdFund.sol\":13224:15915  for (uint i=0;i<projectList.length;i++) {... */\n      iszero\n      tag_547\n      jumpi\n        /* \"contracts/CrowdFund.sol\":13314:13323  projectId */\n      dup6\n        /* \"contracts/CrowdFund.sol\":13286:13297  projectList */\n      dup3\n        /* \"contracts/CrowdFund.sol\":13298:13299  i */\n      dup3\n        /* \"contracts/CrowdFund.sol\":13286:13300  projectList[i] */\n      dup2\n      sload\n      dup2\n      lt\n      tag_549\n      jumpi\n      tag_550\n      tag_142\n      jump\t// in\n    tag_550:\n    tag_549:\n      swap1\n      0x00\n      mstore\n      keccak256(0x00, 0x20)\n      swap1\n      0x07\n      mul\n      add\n        /* \"contracts/CrowdFund.sol\":13286:13310  projectList[i].projectId */\n      0x00\n      add\n      sload\n        /* \"contracts/CrowdFund.sol\":13286:13323  projectList[i].projectId == projectId */\n      eq\n        /* \"contracts/CrowdFund.sol\":13282:15901  if (projectList[i].projectId == projectId) { ... */\n      iszero\n      tag_552\n      jumpi\n        /* \"contracts/CrowdFund.sol\":13352:13363  projectList */\n      dup2\n        /* \"contracts/CrowdFund.sol\":13364:13365  i */\n      dup2\n        /* \"contracts/CrowdFund.sol\":13352:13366  projectList[i] */\n      dup2\n      sload\n      dup2\n      lt\n      tag_553\n      jumpi\n      tag_554\n      tag_142\n      jump\t// in\n    tag_554:\n    tag_553:\n      swap1\n      0x00\n      mstore\n      keccak256(0x00, 0x20)\n      swap1\n      0x07\n      mul\n      add\n        /* \"contracts/CrowdFund.sol\":13352:13381  projectList[i].acceptDonation */\n      0x04\n      add\n      0x14\n      swap1\n      sload\n      swap1\n      0x0100\n      exp\n      swap1\n      div\n      0xff\n      and\n        /* \"contracts/CrowdFund.sol\":13348:15814  if (projectList[i].acceptDonation) {... */\n      iszero\n      tag_556\n      jumpi\n        /* \"contracts/CrowdFund.sol\":13452:13463  projectList */\n      dup2\n        /* \"contracts/CrowdFund.sol\":13464:13465  i */\n      dup2\n        /* \"contracts/CrowdFund.sol\":13452:13466  projectList[i] */\n      dup2\n      sload\n      dup2\n      lt\n      tag_557\n      jumpi\n      tag_558\n      tag_142\n      jump\t// in\n    tag_558:\n    tag_557:\n      swap1\n      0x00\n      mstore\n      keccak256(0x00, 0x20)\n      swap1\n      0x07\n      mul\n      add\n        /* \"contracts/CrowdFund.sol\":13452:13480  projectList[i].minimumAmount */\n      0x01\n      add\n      sload\n        /* \"contracts/CrowdFund.sol\":13442:13448  amount */\n      dup5\n        /* \"contracts/CrowdFund.sol\":13442:13480  amount >= projectList[i].minimumAmount */\n      lt\n      iszero\n        /* \"contracts/CrowdFund.sol\":13434:13534  require(amount >= projectList[i].minimumAmount, \"Should be greater than or equal to minimum amount\") */\n      tag_560\n      jumpi\n      mload(0x40)\n      0x08c379a000000000000000000000000000000000000000000000000000000000\n      dup2\n      mstore\n      0x04\n      add\n      tag_561\n      swap1\n      tag_562\n      jump\t// in\n    tag_561:\n      mload(0x40)\n      dup1\n      swap2\n      sub\n      swap1\n      revert\n    tag_560:\n        /* \"contracts/CrowdFund.sol\":13633:13644  projectList */\n      dup2\n        /* \"contracts/CrowdFund.sol\":13645:13646  i */\n      dup2\n        /* \"contracts/CrowdFund.sol\":13633:13647  projectList[i] */\n      dup2\n      sload\n      dup2\n      lt\n      tag_563\n      jumpi\n      tag_564\n      tag_142\n      jump\t// in\n    tag_564:\n    tag_563:\n      swap1\n      0x00\n      mstore\n      keccak256(0x00, 0x20)\n      swap1\n      0x07\n      mul\n      add\n        /* \"contracts/CrowdFund.sol\":13633:13652  projectList[i].goal */\n      0x02\n      add\n      sload\n        /* \"contracts/CrowdFund.sol\":13602:13613  projectList */\n      dup3\n        /* \"contracts/CrowdFund.sol\":13614:13615  i */\n      dup3\n        /* \"contracts/CrowdFund.sol\":13602:13616  projectList[i] */\n      dup2\n      sload\n      dup2\n      lt\n      tag_566\n      jumpi\n      tag_567\n      tag_142\n      jump\t// in\n    tag_567:\n    tag_566:\n      swap1\n      0x00\n      mstore\n      keccak256(0x00, 0x20)\n      swap1\n      0x07\n      mul\n      add\n        /* \"contracts/CrowdFund.sol\":13602:13629  projectList[i].raisedAmount */\n      0x03\n      add\n      sload\n        /* \"contracts/CrowdFund.sol\":13593:13599  amount */\n      dup6\n        /* \"contracts/CrowdFund.sol\":13593:13629  amount + projectList[i].raisedAmount */\n      tag_569\n      swap2\n      swap1\n      tag_570\n      jump\t// in\n    tag_569:\n        /* \"contracts/CrowdFund.sol\":13593:13652  amount + projectList[i].raisedAmount <= projectList[i].goal */\n      gt\n      iszero\n        /* \"contracts/CrowdFund.sol\":13585:13699  require(amount + projectList[i].raisedAmount <= projectList[i].goal, \"Your contribution exceeds required amount.\") */\n      tag_571\n      jumpi\n      mload(0x40)\n      0x08c379a000000000000000000000000000000000000000000000000000000000\n      dup2\n      mstore\n      0x04\n      add\n      tag_572\n      swap1\n      tag_573\n      jump\t// in\n    tag_572:\n      mload(0x40)\n      dup1\n      swap2\n      sub\n      swap1\n      revert\n    tag_571:\n        /* \"contracts/CrowdFund.sol\":13786:13792  amount */\n      dup4\n        /* \"contracts/CrowdFund.sol\":13756:13767  projectList */\n      dup3\n        /* \"contracts/CrowdFund.sol\":13768:13769  i */\n      dup3\n        /* \"contracts/CrowdFund.sol\":13756:13770  projectList[i] */\n      dup2\n      sload\n      dup2\n      lt\n      tag_574\n      jumpi\n      tag_575\n      tag_142\n      jump\t// in\n    tag_575:\n    tag_574:\n      swap1\n      0x00\n      mstore\n      keccak256(0x00, 0x20)\n      swap1\n      0x07\n      mul\n      add\n        /* \"contracts/CrowdFund.sol\":13756:13783  projectList[i].raisedAmount */\n      0x03\n      add\n      sload\n        /* \"contracts/CrowdFund.sol\":13756:13792  projectList[i].raisedAmount + amount */\n      tag_577\n      swap2\n      swap1\n      tag_570\n      jump\t// in\n    tag_577:\n        /* \"contracts/CrowdFund.sol\":13726:13737  projectList */\n      dup3\n        /* \"contracts/CrowdFund.sol\":13738:13739  i */\n      dup3\n        /* \"contracts/CrowdFund.sol\":13726:13740  projectList[i] */\n      dup2\n      sload\n      dup2\n      lt\n      tag_578\n      jumpi\n      tag_579\n      tag_142\n      jump\t// in\n    tag_579:\n    tag_578:\n      swap1\n      0x00\n      mstore\n      keccak256(0x00, 0x20)\n      swap1\n      0x07\n      mul\n      add\n        /* \"contracts/CrowdFund.sol\":13726:13753  projectList[i].raisedAmount */\n      0x03\n      add\n        /* \"contracts/CrowdFund.sol\":13726:13792  projectList[i].raisedAmount = projectList[i].raisedAmount + amount */\n      dup2\n      swap1\n      sstore\n      pop\n        /* \"contracts/CrowdFund.sol\":13819:13844  Donor[] storage allDonors */\n      0x00\n        /* \"contracts/CrowdFund.sol\":13847:13860  projectDonors */\n      0x05\n        /* \"contracts/CrowdFund.sol\":13847:13871  projectDonors[projectId] */\n      0x00\n        /* \"contracts/CrowdFund.sol\":13861:13870  projectId */\n      dup9\n        /* \"contracts/CrowdFund.sol\":13847:13871  projectDonors[projectId] */\n      dup2\n      mstore\n      0x20\n      add\n      swap1\n      dup2\n      mstore\n      0x20\n      add\n      0x00\n      keccak256\n        /* \"contracts/CrowdFund.sol\":13819:13871  Donor[] storage allDonors = projectDonors[projectId] */\n      swap1\n      pop\n        /* \"contracts/CrowdFund.sol\":13897:13905  uint idx */\n      0x00\n        /* \"contracts/CrowdFund.sol\":13908:13917  allDonors */\n      dup2\n        /* \"contracts/CrowdFund.sol\":13908:13924  allDonors.length */\n      dup1\n      sload\n      swap1\n      pop\n        /* \"contracts/CrowdFund.sol\":13897:13924  uint idx = allDonors.length */\n      swap1\n      pop\n        /* \"contracts/CrowdFund.sol\":13950:13965  bool donorExist */\n      0x00\n        /* \"contracts/CrowdFund.sol\":13997:14003  uint j */\n      dup1\n        /* \"contracts/CrowdFund.sol\":14004:14005  0 */\n      0x00\n        /* \"contracts/CrowdFund.sol\":13997:14005  uint j=0 */\n      swap1\n      pop\n        /* \"contracts/CrowdFund.sol\":13992:14519  for (uint j=0;j<allDonors.length;j++) {... */\n    tag_581:\n        /* \"contracts/CrowdFund.sol\":14008:14017  allDonors */\n      dup4\n        /* \"contracts/CrowdFund.sol\":14008:14024  allDonors.length */\n      dup1\n      sload\n      swap1\n      pop\n        /* \"contracts/CrowdFund.sol\":14006:14007  j */\n      dup2\n        /* \"contracts/CrowdFund.sol\":14006:14024  j<allDonors.length */\n      lt\n        /* \"contracts/CrowdFund.sol\":13992:14519  for (uint j=0;j<allDonors.length;j++) {... */\n      iszero\n      tag_582\n      jumpi\n        /* \"contracts/CrowdFund.sol\":14268:14278  msg.sender */\n      caller\n        /* \"contracts/CrowdFund.sol\":14246:14278  allDonors[j].owner == msg.sender */\n      0xffffffffffffffffffffffffffffffffffffffff\n      and\n        /* \"contracts/CrowdFund.sol\":14246:14255  allDonors */\n      dup5\n        /* \"contracts/CrowdFund.sol\":14256:14257  j */\n      dup3\n        /* \"contracts/CrowdFund.sol\":14246:14258  allDonors[j] */\n      dup2\n      sload\n      dup2\n      lt\n      tag_584\n      jumpi\n      tag_585\n      tag_142\n      jump\t// in\n    tag_585:\n    tag_584:\n      swap1\n      0x00\n      mstore\n      keccak256(0x00, 0x20)\n      swap1\n      0x03\n      mul\n      add\n        /* \"contracts/CrowdFund.sol\":14246:14264  allDonors[j].owner */\n      0x01\n      add\n      0x00\n      swap1\n      sload\n      swap1\n      0x0100\n      exp\n      swap1\n      div\n      0xffffffffffffffffffffffffffffffffffffffff\n      and\n        /* \"contracts/CrowdFund.sol\":14246:14278  allDonors[j].owner == msg.sender */\n      0xffffffffffffffffffffffffffffffffffffffff\n      and\n      eq\n        /* \"contracts/CrowdFund.sol\":14242:14493  if (allDonors[j].owner == msg.sender) {... */\n      iszero\n      tag_587\n      jumpi\n        /* \"contracts/CrowdFund.sol\":14366:14372  amount */\n      dup8\n        /* \"contracts/CrowdFund.sol\":14314:14323  allDonors */\n      dup5\n        /* \"contracts/CrowdFund.sol\":14324:14325  j */\n      dup3\n        /* \"contracts/CrowdFund.sol\":14314:14326  allDonors[j] */\n      dup2\n      sload\n      dup2\n      lt\n      tag_588\n      jumpi\n      tag_589\n      tag_142\n      jump\t// in\n    tag_589:\n    tag_588:\n      swap1\n      0x00\n      mstore\n      keccak256(0x00, 0x20)\n      swap1\n      0x03\n      mul\n      add\n        /* \"contracts/CrowdFund.sol\":14314:14351  allDonors[j].projectwiseContributions */\n      0x02\n      add\n        /* \"contracts/CrowdFund.sol\":14314:14362  allDonors[j].projectwiseContributions[projectId] */\n      0x00\n        /* \"contracts/CrowdFund.sol\":14352:14361  projectId */\n      dup13\n        /* \"contracts/CrowdFund.sol\":14314:14362  allDonors[j].projectwiseContributions[projectId] */\n      dup2\n      mstore\n      0x20\n      add\n      swap1\n      dup2\n      mstore\n      0x20\n      add\n      0x00\n      keccak256\n      0x00\n        /* \"contracts/CrowdFund.sol\":14314:14372  allDonors[j].projectwiseContributions[projectId] += amount */\n      dup3\n      dup3\n      sload\n      tag_591\n      swap2\n      swap1\n      tag_570\n      jump\t// in\n    tag_591:\n      swap3\n      pop\n      pop\n      dup2\n      swap1\n      sstore\n      pop\n        /* \"contracts/CrowdFund.sol\":14419:14423  true */\n      0x01\n        /* \"contracts/CrowdFund.sol\":14406:14423  donorExist = true */\n      swap2\n      pop\n        /* \"contracts/CrowdFund.sol\":14457:14462  break */\n      jump(tag_582)\n        /* \"contracts/CrowdFund.sol\":14242:14493  if (allDonors[j].owner == msg.sender) {... */\n    tag_587:\n        /* \"contracts/CrowdFund.sol\":14025:14028  j++ */\n      dup1\n      dup1\n      tag_592\n      swap1\n      tag_149\n      jump\t// in\n    tag_592:\n      swap2\n      pop\n      pop\n        /* \"contracts/CrowdFund.sol\":13992:14519  for (uint j=0;j<allDonors.length;j++) {... */\n      jump(tag_581)\n    tag_582:\n      pop\n        /* \"contracts/CrowdFund.sol\":14550:14560  donorExist */\n      dup1\n        /* \"contracts/CrowdFund.sol\":14545:15058  if (!donorExist) {   ... */\n      tag_593\n      jumpi\n        /* \"contracts/CrowdFund.sol\":14749:14758  allDonors */\n      dup3\n        /* \"contracts/CrowdFund.sol\":14749:14765  allDonors.push() */\n      0x01\n      dup2\n      0x01\n      dup2\n      sload\n      add\n      dup1\n      dup3\n      sstore\n      dup1\n      swap2\n      pop\n      pop\n      sub\n      swap1\n      0x00\n      mstore\n      keccak256(0x00, 0x20)\n      swap1\n      pop\n      pop\n        /* \"contracts/CrowdFund.sol\":14796:14818  Donor storage newDonor */\n      0x00\n        /* \"contracts/CrowdFund.sol\":14821:14830  allDonors */\n      dup4\n        /* \"contracts/CrowdFund.sol\":14831:14834  idx */\n      dup4\n        /* \"contracts/CrowdFund.sol\":14821:14835  allDonors[idx] */\n      dup2\n      sload\n      dup2\n      lt\n      tag_595\n      jumpi\n      tag_596\n      tag_142\n      jump\t// in\n    tag_596:\n    tag_595:\n      swap1\n      0x00\n      mstore\n      keccak256(0x00, 0x20)\n      swap1\n      0x03\n      mul\n      add\n        /* \"contracts/CrowdFund.sol\":14796:14835  Donor storage newDonor = allDonors[idx] */\n      swap1\n      pop\n        /* \"contracts/CrowdFund.sol\":14884:14891  donorId */\n      dup9\n        /* \"contracts/CrowdFund.sol\":14865:14873  newDonor */\n      dup2\n        /* \"contracts/CrowdFund.sol\":14865:14881  newDonor.donorId */\n      0x00\n      add\n        /* \"contracts/CrowdFund.sol\":14865:14891  newDonor.donorId = donorId */\n      dup2\n      swap1\n      sstore\n      pop\n        /* \"contracts/CrowdFund.sol\":14938:14948  msg.sender */\n      caller\n        /* \"contracts/CrowdFund.sol\":14921:14929  newDonor */\n      dup2\n        /* \"contracts/CrowdFund.sol\":14921:14935  newDonor.owner */\n      0x01\n      add\n      0x00\n        /* \"contracts/CrowdFund.sol\":14921:14948  newDonor.owner = msg.sender */\n      0x0100\n      exp\n      dup2\n      sload\n      dup2\n      0xffffffffffffffffffffffffffffffffffffffff\n      mul\n      not\n      and\n      swap1\n      dup4\n      0xffffffffffffffffffffffffffffffffffffffff\n      and\n      mul\n      or\n      swap1\n      sstore\n      pop\n        /* \"contracts/CrowdFund.sol\":15025:15031  amount */\n      dup8\n        /* \"contracts/CrowdFund.sol\":14978:14986  newDonor */\n      dup2\n        /* \"contracts/CrowdFund.sol\":14978:15011  newDonor.projectwiseContributions */\n      0x02\n      add\n        /* \"contracts/CrowdFund.sol\":14978:15022  newDonor.projectwiseContributions[projectId] */\n      0x00\n        /* \"contracts/CrowdFund.sol\":15012:15021  projectId */\n      dup13\n        /* \"contracts/CrowdFund.sol\":14978:15022  newDonor.projectwiseContributions[projectId] */\n      dup2\n      mstore\n      0x20\n      add\n      swap1\n      dup2\n      mstore\n      0x20\n      add\n      0x00\n      keccak256\n        /* \"contracts/CrowdFund.sol\":14978:15031  newDonor.projectwiseContributions[projectId] = amount */\n      dup2\n      swap1\n      sstore\n      pop\n        /* \"contracts/CrowdFund.sol\":14562:15058  {   ... */\n      pop\n        /* \"contracts/CrowdFund.sol\":14545:15058  if (!donorExist) {   ... */\n    tag_593:\n        /* \"contracts/CrowdFund.sol\":15177:15188  projectList */\n      dup5\n        /* \"contracts/CrowdFund.sol\":15189:15190  i */\n      dup5\n        /* \"contracts/CrowdFund.sol\":15177:15191  projectList[i] */\n      dup2\n      sload\n      dup2\n      lt\n      tag_598\n      jumpi\n      tag_599\n      tag_142\n      jump\t// in\n    tag_599:\n    tag_598:\n      swap1\n      0x00\n      mstore\n      keccak256(0x00, 0x20)\n      swap1\n      0x07\n      mul\n      add\n        /* \"contracts/CrowdFund.sol\":15177:15196  projectList[i].goal */\n      0x02\n      add\n      sload\n        /* \"contracts/CrowdFund.sol\":15146:15157  projectList */\n      dup6\n        /* \"contracts/CrowdFund.sol\":15158:15159  i */\n      dup6\n        /* \"contracts/CrowdFund.sol\":15146:15160  projectList[i] */\n      dup2\n      sload\n      dup2\n      lt\n      tag_601\n      jumpi\n      tag_602\n      tag_142\n      jump\t// in\n    tag_602:\n    tag_601:\n      swap1\n      0x00\n      mstore\n      keccak256(0x00, 0x20)\n      swap1\n      0x07\n      mul\n      add\n        /* \"contracts/CrowdFund.sol\":15146:15173  projectList[i].raisedAmount */\n      0x03\n      add\n      sload\n        /* \"contracts/CrowdFund.sol\":15146:15196  projectList[i].raisedAmount == projectList[i].goal */\n      eq\n        /* \"contracts/CrowdFund.sol\":15142:15683  if (projectList[i].raisedAmount == projectList[i].goal) {... */\n      iszero\n      tag_604\n      jumpi\n        /* \"contracts/CrowdFund.sol\":15337:15354  ProjectStatus.PGA */\n      0x03\n        /* \"contracts/CrowdFund.sol\":15306:15317  projectList */\n      dup6\n        /* \"contracts/CrowdFund.sol\":15318:15319  i */\n      dup6\n        /* \"contracts/CrowdFund.sol\":15306:15320  projectList[i] */\n      dup2\n      sload\n      dup2\n      lt\n      tag_605\n      jumpi\n      tag_606\n      tag_142\n      jump\t// in\n    tag_606:\n    tag_605:\n      swap1\n      0x00\n      mstore\n      keccak256(0x00, 0x20)\n      swap1\n      0x07\n      mul\n      add\n        /* \"contracts/CrowdFund.sol\":15306:15334  projectList[i].projectStatus */\n      0x06\n      add\n      0x00\n        /* \"contracts/CrowdFund.sol\":15306:15354  projectList[i].projectStatus = ProjectStatus.PGA */\n      0x0100\n      exp\n      dup2\n      sload\n      dup2\n      0xff\n      mul\n      not\n      and\n      swap1\n      dup4\n      0x09\n      dup2\n      gt\n      iszero\n      tag_608\n      jumpi\n      tag_609\n      tag_188\n      jump\t// in\n    tag_609:\n    tag_608:\n      mul\n      or\n      swap1\n      sstore\n      pop\n        /* \"contracts/CrowdFund.sol\":15475:15480  false */\n      0x00\n        /* \"contracts/CrowdFund.sol\":15443:15454  projectList */\n      dup6\n        /* \"contracts/CrowdFund.sol\":15455:15456  i */\n      dup6\n        /* \"contracts/CrowdFund.sol\":15443:15457  projectList[i] */\n      dup2\n      sload\n      dup2\n      lt\n      tag_610\n      jumpi\n      tag_611\n      tag_142\n      jump\t// in\n    tag_611:\n    tag_610:\n      swap1\n      0x00\n      mstore\n      keccak256(0x00, 0x20)\n      swap1\n      0x07\n      mul\n      add\n        /* \"contracts/CrowdFund.sol\":15443:15472  projectList[i].acceptDonation */\n      0x04\n      add\n      0x14\n        /* \"contracts/CrowdFund.sol\":15443:15480  projectList[i].acceptDonation = false */\n      0x0100\n      exp\n      dup2\n      sload\n      dup2\n      0xff\n      mul\n      not\n      and\n      swap1\n      dup4\n      iszero\n      iszero\n      mul\n      or\n      swap1\n      sstore\n      pop\n        /* \"contracts/CrowdFund.sol\":15591:15656  ReceiverMessageToCharity(charityId, projectId, ProjectStatus.PGA) */\n      0x4460a3075d16e0c301975989c352adf5efef3f00e4b1cd798431dddda7179e58\n        /* \"contracts/CrowdFund.sol\":15616:15625  charityId */\n      dup11\n        /* \"contracts/CrowdFund.sol\":15627:15636  projectId */\n      dup11\n        /* \"contracts/CrowdFund.sol\":15638:15655  ProjectStatus.PGA */\n      0x03\n        /* \"contracts/CrowdFund.sol\":15591:15656  ReceiverMessageToCharity(charityId, projectId, ProjectStatus.PGA) */\n      mload(0x40)\n      tag_613\n      swap4\n      swap3\n      swap2\n      swap1\n      tag_240\n      jump\t// in\n    tag_613:\n      mload(0x40)\n      dup1\n      swap2\n      sub\n      swap1\n      log1\n        /* \"contracts/CrowdFund.sol\":15142:15683  if (projectList[i].raisedAmount == projectList[i].goal) {... */\n    tag_604:\n        /* \"contracts/CrowdFund.sol\":13383:15705  {... */\n      pop\n      pop\n      pop\n        /* \"contracts/CrowdFund.sol\":13348:15814  if (projectList[i].acceptDonation) {... */\n      jump(tag_614)\n    tag_556:\n        /* \"contracts/CrowdFund.sol\":15737:15791  revert(\"No more donations accepted for this project.\") */\n      mload(0x40)\n      0x08c379a000000000000000000000000000000000000000000000000000000000\n      dup2\n      mstore\n      0x04\n      add\n      tag_615\n      swap1\n      tag_616\n      jump\t// in\n    tag_615:\n      mload(0x40)\n      dup1\n      swap2\n      sub\n      swap1\n      revert\n        /* \"contracts/CrowdFund.sol\":13348:15814  if (projectList[i].acceptDonation) {... */\n    tag_614:\n        /* \"contracts/CrowdFund.sol\":15851:15855  true */\n      0x01\n        /* \"contracts/CrowdFund.sol\":15836:15855  projectExist = true */\n      swap3\n      pop\n        /* \"contracts/CrowdFund.sol\":15877:15882  break */\n      jump(tag_547)\n        /* \"contracts/CrowdFund.sol\":13282:15901  if (projectList[i].projectId == projectId) { ... */\n    tag_552:\n        /* \"contracts/CrowdFund.sol\":13259:13262  i++ */\n      dup1\n      dup1\n      tag_617\n      swap1\n      tag_149\n      jump\t// in\n    tag_617:\n      swap2\n      pop\n      pop\n        /* \"contracts/CrowdFund.sol\":13224:15915  for (uint i=0;i<projectList.length;i++) {... */\n      jump(tag_546)\n    tag_547:\n      pop\n        /* \"contracts/CrowdFund.sol\":15934:15946  projectExist */\n      dup2\n        /* \"contracts/CrowdFund.sol\":15929:16014  if (!projectExist)... */\n      tag_618\n      jumpi\n        /* \"contracts/CrowdFund.sol\":15964:16014  revert(\"No such project exist under this charity\") */\n      mload(0x40)\n      0x08c379a000000000000000000000000000000000000000000000000000000000\n      dup2\n      mstore\n      0x04\n      add\n      tag_619\n      swap1\n      tag_151\n      jump\t// in\n    tag_619:\n      mload(0x40)\n      dup1\n      swap2\n      sub\n      swap1\n      revert\n        /* \"contracts/CrowdFund.sol\":15929:16014  if (!projectExist)... */\n    tag_618:\n        /* \"contracts/CrowdFund.sol\":13034:16021  {... */\n      pop\n      pop\n        /* \"contracts/CrowdFund.sol\":12944:16021  function donate(uint charityId, uint projectId, uint donorId, uint amount) public payable {... */\n      pop\n      pop\n      pop\n      pop\n      jump\t// out\n        /* \"contracts/CrowdFund.sol\":2721:2776  mapping(ProjectStatus => string) public projectStatuses */\n    tag_106:\n      mstore(0x20, 0x07)\n      dup1\n      0x00\n      mstore\n      keccak256(0x00, 0x40)\n      0x00\n      swap2\n      pop\n      swap1\n      pop\n      dup1\n      sload\n      tag_620\n      swap1\n      tag_117\n      jump\t// in\n    tag_620:\n      dup1\n      0x1f\n      add\n      0x20\n      dup1\n      swap2\n      div\n      mul\n      0x20\n      add\n      mload(0x40)\n      swap1\n      dup2\n      add\n      0x40\n      mstore\n      dup1\n      swap3\n      swap2\n      swap1\n      dup2\n      dup2\n      mstore\n      0x20\n      add\n      dup3\n      dup1\n      sload\n      tag_621\n      swap1\n      tag_117\n      jump\t// in\n    tag_621:\n      dup1\n      iszero\n      tag_622\n      jumpi\n      dup1\n      0x1f\n      lt\n      tag_623\n      jumpi\n      0x0100\n      dup1\n      dup4\n      sload\n      div\n      mul\n      dup4\n      mstore\n      swap2\n      0x20\n      add\n      swap2\n      jump(tag_622)\n    tag_623:\n      dup3\n      add\n      swap2\n      swap1\n      0x00\n      mstore\n      keccak256(0x00, 0x20)\n      swap1\n    tag_624:\n      dup2\n      sload\n      dup2\n      mstore\n      swap1\n      0x01\n      add\n      swap1\n      0x20\n      add\n      dup1\n      dup4\n      gt\n      tag_624\n      jumpi\n      dup3\n      swap1\n      sub\n      0x1f\n      and\n      dup3\n      add\n      swap2\n    tag_622:\n      pop\n      pop\n      pop\n      pop\n      pop\n      dup2\n      jump\t// out\n        /* \"contracts/CrowdFund.sol\":737:763  Charity[] public charities */\n    tag_111:\n      0x01\n      dup2\n      dup2\n      sload\n      dup2\n      lt\n      tag_625\n      jumpi\n      0x00\n      dup1\n      revert\n    tag_625:\n      swap1\n      0x00\n      mstore\n      keccak256(0x00, 0x20)\n      swap1\n      0x05\n      mul\n      add\n      0x00\n      swap2\n      pop\n      swap1\n      pop\n      dup1\n      0x00\n      add\n      sload\n      swap1\n      dup1\n      0x01\n      add\n      0x00\n      swap1\n      sload\n      swap1\n      0x0100\n      exp\n      swap1\n      div\n      0xff\n      and\n      swap1\n      dup1\n      0x02\n      add\n      dup1\n      sload\n      tag_627\n      swap1\n      tag_117\n      jump\t// in\n    tag_627:\n      dup1\n      0x1f\n      add\n      0x20\n      dup1\n      swap2\n      div\n      mul\n      0x20\n      add\n      mload(0x40)\n      swap1\n      dup2\n      add\n      0x40\n      mstore\n      dup1\n      swap3\n      swap2\n      swap1\n      dup2\n      dup2\n      mstore\n      0x20\n      add\n      dup3\n      dup1\n      sload\n      tag_628\n      swap1\n      tag_117\n      jump\t// in\n    tag_628:\n      dup1\n      iszero\n      tag_629\n      jumpi\n      dup1\n      0x1f\n      lt\n      tag_630\n      jumpi\n      0x0100\n      dup1\n      dup4\n      sload\n      div\n      mul\n      dup4\n      mstore\n      swap2\n      0x20\n      add\n      swap2\n      jump(tag_629)\n    tag_630:\n      dup3\n      add\n      swap2\n      swap1\n      0x00\n      mstore\n      keccak256(0x00, 0x20)\n      swap1\n    tag_631:\n      dup2\n      sload\n      dup2\n      mstore\n      swap1\n      0x01\n      add\n      swap1\n      0x20\n      add\n      dup1\n      dup4\n      gt\n      tag_631\n      jumpi\n      dup3\n      swap1\n      sub\n      0x1f\n      and\n      dup3\n      add\n      swap2\n    tag_629:\n      pop\n      pop\n      pop\n      pop\n      pop\n      swap1\n      dup1\n      0x03\n      add\n      dup1\n      sload\n      tag_632\n      swap1\n      tag_117\n      jump\t// in\n    tag_632:\n      dup1\n      0x1f\n      add\n      0x20\n      dup1\n      swap2\n      div\n      mul\n      0x20\n      add\n      mload(0x40)\n      swap1\n      dup2\n      add\n      0x40\n      mstore\n      dup1\n      swap3\n      swap2\n      swap1\n      dup2\n      dup2\n      mstore\n      0x20\n      add\n      dup3\n      dup1\n      sload\n      tag_633\n      swap1\n      tag_117\n      jump\t// in\n    tag_633:\n      dup1\n      iszero\n      tag_634\n      jumpi\n      dup1\n      0x1f\n      lt\n      tag_635\n      jumpi\n      0x0100\n      dup1\n      dup4\n      sload\n      div\n      mul\n      dup4\n      mstore\n      swap2\n      0x20\n      add\n      swap2\n      jump(tag_634)\n    tag_635:\n      dup3\n      add\n      swap2\n      swap1\n      0x00\n      mstore\n      keccak256(0x00, 0x20)\n      swap1\n    tag_636:\n      dup2\n      sload\n      dup2\n      mstore\n      swap1\n      0x01\n      add\n      swap1\n      0x20\n      add\n      dup1\n      dup4\n      gt\n      tag_636\n      jumpi\n      dup3\n      swap1\n      sub\n      0x1f\n      and\n      dup3\n      add\n      swap2\n    tag_634:\n      pop\n      pop\n      pop\n      pop\n      pop\n      swap1\n      dup1\n      0x04\n      add\n      0x00\n      swap1\n      sload\n      swap1\n      0x0100\n      exp\n      swap1\n      div\n      0xffffffffffffffffffffffffffffffffffffffff\n      and\n      swap1\n      pop\n      dup6\n      jump\t// out\n        /* \"contracts/CrowdFund.sol\":18149:19148  function refundToAllDonors(uint charityId, uint projectId) private {... */\n    tag_300:\n        /* \"contracts/CrowdFund.sol\":18226:18243  bool projectExist */\n      0x00\n        /* \"contracts/CrowdFund.sol\":18261:18290  Project[] storage projectList */\n      dup1\n        /* \"contracts/CrowdFund.sol\":18293:18308  charityProjects */\n      0x03\n        /* \"contracts/CrowdFund.sol\":18293:18319  charityProjects[charityId] */\n      0x00\n        /* \"contracts/CrowdFund.sol\":18309:18318  charityId */\n      dup6\n        /* \"contracts/CrowdFund.sol\":18293:18319  charityProjects[charityId] */\n      dup2\n      mstore\n      0x20\n      add\n      swap1\n      dup2\n      mstore\n      0x20\n      add\n      0x00\n      keccak256\n        /* \"contracts/CrowdFund.sol\":18261:18319  Project[] storage projectList = charityProjects[charityId] */\n      swap1\n      pop\n        /* \"contracts/CrowdFund.sol\":18358:18359  0 */\n      0x00\n        /* \"contracts/CrowdFund.sol\":18337:18348  projectList */\n      dup2\n        /* \"contracts/CrowdFund.sol\":18337:18355  projectList.length */\n      dup1\n      sload\n      swap1\n      pop\n        /* \"contracts/CrowdFund.sol\":18337:18359  projectList.length > 0 */\n      gt\n        /* \"contracts/CrowdFund.sol\":18329:18380  require(projectList.length > 0,\"Charity not found\") */\n      tag_638\n      jumpi\n      mload(0x40)\n      0x08c379a000000000000000000000000000000000000000000000000000000000\n      dup2\n      mstore\n      0x04\n      add\n      tag_639\n      swap1\n      tag_136\n      jump\t// in\n    tag_639:\n      mload(0x40)\n      dup1\n      swap2\n      sub\n      swap1\n      revert\n    tag_638:\n        /* \"contracts/CrowdFund.sol\":18395:18401  uint i */\n      0x00\n        /* \"contracts/CrowdFund.sol\":18390:19053  for (uint i=0;i<projectList.length;i++) {... */\n    tag_640:\n        /* \"contracts/CrowdFund.sol\":18406:18417  projectList */\n      dup2\n        /* \"contracts/CrowdFund.sol\":18406:18424  projectList.length */\n      dup1\n      sload\n      swap1\n      pop\n        /* \"contracts/CrowdFund.sol\":18404:18405  i */\n      dup2\n        /* \"contracts/CrowdFund.sol\":18404:18424  i<projectList.length */\n      lt\n        /* \"contracts/CrowdFund.sol\":18390:19053  for (uint i=0;i<projectList.length;i++) {... */\n      iszero\n      tag_641\n      jumpi\n        /* \"contracts/CrowdFund.sol\":18476:18485  projectId */\n      dup4\n        /* \"contracts/CrowdFund.sol\":18448:18459  projectList */\n      dup3\n        /* \"contracts/CrowdFund.sol\":18460:18461  i */\n      dup3\n        /* \"contracts/CrowdFund.sol\":18448:18462  projectList[i] */\n      dup2\n      sload\n      dup2\n      lt\n      tag_643\n      jumpi\n      tag_644\n      tag_142\n      jump\t// in\n    tag_644:\n    tag_643:\n      swap1\n      0x00\n      mstore\n      keccak256(0x00, 0x20)\n      swap1\n      0x07\n      mul\n      add\n        /* \"contracts/CrowdFund.sol\":18448:18472  projectList[i].projectId */\n      0x00\n      add\n      sload\n        /* \"contracts/CrowdFund.sol\":18448:18485  projectList[i].projectId == projectId */\n      eq\n        /* \"contracts/CrowdFund.sol\":18444:19043  if (projectList[i].projectId == projectId) { ... */\n      iszero\n      tag_646\n      jumpi\n        /* \"contracts/CrowdFund.sol\":18546:18563  ProjectStatus.XRJ */\n      0x07\n        /* \"contracts/CrowdFund.sol\":18514:18563  projectList[i].projectStatus == ProjectStatus.XRJ */\n      0x09\n      dup2\n      gt\n      iszero\n      tag_647\n      jumpi\n      tag_648\n      tag_188\n      jump\t// in\n    tag_648:\n    tag_647:\n        /* \"contracts/CrowdFund.sol\":18514:18525  projectList */\n      dup3\n        /* \"contracts/CrowdFund.sol\":18526:18527  i */\n      dup3\n        /* \"contracts/CrowdFund.sol\":18514:18528  projectList[i] */\n      dup2\n      sload\n      dup2\n      lt\n      tag_649\n      jumpi\n      tag_650\n      tag_142\n      jump\t// in\n    tag_650:\n    tag_649:\n      swap1\n      0x00\n      mstore\n      keccak256(0x00, 0x20)\n      swap1\n      0x07\n      mul\n      add\n        /* \"contracts/CrowdFund.sol\":18514:18542  projectList[i].projectStatus */\n      0x06\n      add\n      0x00\n      swap1\n      sload\n      swap1\n      0x0100\n      exp\n      swap1\n      div\n      0xff\n      and\n        /* \"contracts/CrowdFund.sol\":18514:18563  projectList[i].projectStatus == ProjectStatus.XRJ */\n      0x09\n      dup2\n      gt\n      iszero\n      tag_652\n      jumpi\n      tag_653\n      tag_188\n      jump\t// in\n    tag_653:\n    tag_652:\n      eq\n        /* \"contracts/CrowdFund.sol\":18506:18630  require(projectList[i].projectStatus == ProjectStatus.XRJ, \"Can't refund as exchange request was not rejected by the board\") */\n      tag_654\n      jumpi\n      mload(0x40)\n      0x08c379a000000000000000000000000000000000000000000000000000000000\n      dup2\n      mstore\n      0x04\n      add\n      tag_655\n      swap1\n      tag_656\n      jump\t// in\n    tag_655:\n      mload(0x40)\n      dup1\n      swap2\n      sub\n      swap1\n      revert\n    tag_654:\n        /* \"contracts/CrowdFund.sol\":18661:18686  Donor[] storage allDonors */\n      0x00\n        /* \"contracts/CrowdFund.sol\":18689:18702  projectDonors */\n      0x05\n        /* \"contracts/CrowdFund.sol\":18689:18713  projectDonors[projectId] */\n      0x00\n        /* \"contracts/CrowdFund.sol\":18703:18712  projectId */\n      dup7\n        /* \"contracts/CrowdFund.sol\":18689:18713  projectDonors[projectId] */\n      dup2\n      mstore\n      0x20\n      add\n      swap1\n      dup2\n      mstore\n      0x20\n      add\n      0x00\n      keccak256\n        /* \"contracts/CrowdFund.sol\":18661:18713  Donor[] storage allDonors = projectDonors[projectId] */\n      swap1\n      pop\n        /* \"contracts/CrowdFund.sol\":18737:18743  uint j */\n      0x00\n        /* \"contracts/CrowdFund.sol\":18732:18952  for (uint j=0;j<allDonors.length;j++) {... */\n    tag_657:\n        /* \"contracts/CrowdFund.sol\":18748:18757  allDonors */\n      dup2\n        /* \"contracts/CrowdFund.sol\":18748:18764  allDonors.length */\n      dup1\n      sload\n      swap1\n      pop\n        /* \"contracts/CrowdFund.sol\":18746:18747  j */\n      dup2\n        /* \"contracts/CrowdFund.sol\":18746:18764  j<allDonors.length */\n      lt\n        /* \"contracts/CrowdFund.sol\":18732:18952  for (uint j=0;j<allDonors.length;j++) {... */\n      iszero\n      tag_658\n      jumpi\n        /* \"contracts/CrowdFund.sol\":18792:18809  uint contribution */\n      0x00\n        /* \"contracts/CrowdFund.sol\":18812:18821  allDonors */\n      dup3\n        /* \"contracts/CrowdFund.sol\":18822:18823  j */\n      dup3\n        /* \"contracts/CrowdFund.sol\":18812:18824  allDonors[j] */\n      dup2\n      sload\n      dup2\n      lt\n      tag_660\n      jumpi\n      tag_661\n      tag_142\n      jump\t// in\n    tag_661:\n    tag_660:\n      swap1\n      0x00\n      mstore\n      keccak256(0x00, 0x20)\n      swap1\n      0x03\n      mul\n      add\n        /* \"contracts/CrowdFund.sol\":18812:18849  allDonors[j].projectwiseContributions */\n      0x02\n      add\n        /* \"contracts/CrowdFund.sol\":18812:18860  allDonors[j].projectwiseContributions[projectId] */\n      0x00\n        /* \"contracts/CrowdFund.sol\":18850:18859  projectId */\n      dup9\n        /* \"contracts/CrowdFund.sol\":18812:18860  allDonors[j].projectwiseContributions[projectId] */\n      dup2\n      mstore\n      0x20\n      add\n      swap1\n      dup2\n      mstore\n      0x20\n      add\n      0x00\n      keccak256\n      sload\n        /* \"contracts/CrowdFund.sol\":18792:18860  uint contribution = allDonors[j].projectwiseContributions[projectId] */\n      swap1\n      pop\n        /* \"contracts/CrowdFund.sol\":18891:18900  allDonors */\n      dup3\n        /* \"contracts/CrowdFund.sol\":18901:18902  j */\n      dup3\n        /* \"contracts/CrowdFund.sol\":18891:18903  allDonors[j] */\n      dup2\n      sload\n      dup2\n      lt\n      tag_663\n      jumpi\n      tag_664\n      tag_142\n      jump\t// in\n    tag_664:\n    tag_663:\n      swap1\n      0x00\n      mstore\n      keccak256(0x00, 0x20)\n      swap1\n      0x03\n      mul\n      add\n        /* \"contracts/CrowdFund.sol\":18891:18909  allDonors[j].owner */\n      0x01\n      add\n      0x00\n      swap1\n      sload\n      swap1\n      0x0100\n      exp\n      swap1\n      div\n      0xffffffffffffffffffffffffffffffffffffffff\n      and\n        /* \"contracts/CrowdFund.sol\":18882:18919  payable (allDonors[j].owner).transfer */\n      0xffffffffffffffffffffffffffffffffffffffff\n      and\n        /* \"contracts/CrowdFund.sol\":18882:18933  payable (allDonors[j].owner).transfer(contribution) */\n      0x08fc\n        /* \"contracts/CrowdFund.sol\":18920:18932  contribution */\n      dup3\n        /* \"contracts/CrowdFund.sol\":18882:18933  payable (allDonors[j].owner).transfer(contribution) */\n      swap1\n      dup2\n      iszero\n      mul\n      swap1\n      mload(0x40)\n      0x00\n      mload(0x40)\n      dup1\n      dup4\n      sub\n      dup2\n      dup6\n      dup9\n      dup9\n      call\n      swap4\n      pop\n      pop\n      pop\n      pop\n      iszero\n      dup1\n      iszero\n      tag_667\n      jumpi\n      returndatasize\n      0x00\n      dup1\n      returndatacopy\n      revert(0x00, returndatasize)\n    tag_667:\n      pop\n        /* \"contracts/CrowdFund.sol\":18770:18952  {... */\n      pop\n        /* \"contracts/CrowdFund.sol\":18765:18768  j++ */\n      dup1\n      dup1\n      tag_668\n      swap1\n      tag_149\n      jump\t// in\n    tag_668:\n      swap2\n      pop\n      pop\n        /* \"contracts/CrowdFund.sol\":18732:18952  for (uint j=0;j<allDonors.length;j++) {... */\n      jump(tag_657)\n    tag_658:\n      pop\n        /* \"contracts/CrowdFund.sol\":19001:19005  true */\n      0x01\n        /* \"contracts/CrowdFund.sol\":18986:19005  projectExist = true */\n      swap4\n      pop\n        /* \"contracts/CrowdFund.sol\":19023:19028  break */\n      pop\n      jump(tag_641)\n        /* \"contracts/CrowdFund.sol\":18444:19043  if (projectList[i].projectId == projectId) { ... */\n    tag_646:\n        /* \"contracts/CrowdFund.sol\":18425:18428  i++ */\n      dup1\n      dup1\n      tag_669\n      swap1\n      tag_149\n      jump\t// in\n    tag_669:\n      swap2\n      pop\n      pop\n        /* \"contracts/CrowdFund.sol\":18390:19053  for (uint i=0;i<projectList.length;i++) {... */\n      jump(tag_640)\n    tag_641:\n      pop\n        /* \"contracts/CrowdFund.sol\":19068:19080  projectExist */\n      dup2\n        /* \"contracts/CrowdFund.sol\":19063:19141  if (!projectExist)... */\n      tag_670\n      jumpi\n        /* \"contracts/CrowdFund.sol\":19094:19141  revert(\"No project exist under this projectId\") */\n      mload(0x40)\n      0x08c379a000000000000000000000000000000000000000000000000000000000\n      dup2\n      mstore\n      0x04\n      add\n      tag_671\n      swap1\n      tag_383\n      jump\t// in\n    tag_671:\n      mload(0x40)\n      dup1\n      swap2\n      sub\n      swap1\n      revert\n        /* \"contracts/CrowdFund.sol\":19063:19141  if (!projectExist)... */\n    tag_670:\n        /* \"contracts/CrowdFund.sol\":18216:19148  {... */\n      pop\n      pop\n        /* \"contracts/CrowdFund.sol\":18149:19148  function refundToAllDonors(uint charityId, uint projectId) private {... */\n      pop\n      pop\n      jump\t// out\n        /* \"contracts/CrowdFund.sol\":19193:19798  function tranferToReceiver(uint charityId, uint projectId) private {... */\n    tag_311:\n        /* \"contracts/CrowdFund.sol\":19270:19287  bool projectExist */\n      0x00\n        /* \"contracts/CrowdFund.sol\":19305:19334  Project[] storage projectList */\n      dup1\n        /* \"contracts/CrowdFund.sol\":19337:19352  charityProjects */\n      0x03\n        /* \"contracts/CrowdFund.sol\":19337:19363  charityProjects[charityId] */\n      0x00\n        /* \"contracts/CrowdFund.sol\":19353:19362  charityId */\n      dup6\n        /* \"contracts/CrowdFund.sol\":19337:19363  charityProjects[charityId] */\n      dup2\n      mstore\n      0x20\n      add\n      swap1\n      dup2\n      mstore\n      0x20\n      add\n      0x00\n      keccak256\n        /* \"contracts/CrowdFund.sol\":19305:19363  Project[] storage projectList = charityProjects[charityId] */\n      swap1\n      pop\n        /* \"contracts/CrowdFund.sol\":19402:19403  0 */\n      0x00\n        /* \"contracts/CrowdFund.sol\":19381:19392  projectList */\n      dup2\n        /* \"contracts/CrowdFund.sol\":19381:19399  projectList.length */\n      dup1\n      sload\n      swap1\n      pop\n        /* \"contracts/CrowdFund.sol\":19381:19403  projectList.length > 0 */\n      gt\n        /* \"contracts/CrowdFund.sol\":19373:19424  require(projectList.length > 0,\"Charity not found\") */\n      tag_673\n      jumpi\n      mload(0x40)\n      0x08c379a000000000000000000000000000000000000000000000000000000000\n      dup2\n      mstore\n      0x04\n      add\n      tag_674\n      swap1\n      tag_136\n      jump\t// in\n    tag_674:\n      mload(0x40)\n      dup1\n      swap2\n      sub\n      swap1\n      revert\n    tag_673:\n        /* \"contracts/CrowdFund.sol\":19439:19445  uint i */\n      0x00\n        /* \"contracts/CrowdFund.sol\":19434:19703  for (uint i=0;i<projectList.length;i++) {... */\n    tag_675:\n        /* \"contracts/CrowdFund.sol\":19450:19461  projectList */\n      dup2\n        /* \"contracts/CrowdFund.sol\":19450:19468  projectList.length */\n      dup1\n      sload\n      swap1\n      pop\n        /* \"contracts/CrowdFund.sol\":19448:19449  i */\n      dup2\n        /* \"contracts/CrowdFund.sol\":19448:19468  i<projectList.length */\n      lt\n        /* \"contracts/CrowdFund.sol\":19434:19703  for (uint i=0;i<projectList.length;i++) {... */\n      iszero\n      tag_676\n      jumpi\n        /* \"contracts/CrowdFund.sol\":19520:19529  projectId */\n      dup4\n        /* \"contracts/CrowdFund.sol\":19492:19503  projectList */\n      dup3\n        /* \"contracts/CrowdFund.sol\":19504:19505  i */\n      dup3\n        /* \"contracts/CrowdFund.sol\":19492:19506  projectList[i] */\n      dup2\n      sload\n      dup2\n      lt\n      tag_678\n      jumpi\n      tag_679\n      tag_142\n      jump\t// in\n    tag_679:\n    tag_678:\n      swap1\n      0x00\n      mstore\n      keccak256(0x00, 0x20)\n      swap1\n      0x07\n      mul\n      add\n        /* \"contracts/CrowdFund.sol\":19492:19516  projectList[i].projectId */\n      0x00\n      add\n      sload\n        /* \"contracts/CrowdFund.sol\":19492:19529  projectList[i].projectId == projectId */\n      eq\n        /* \"contracts/CrowdFund.sol\":19488:19693  if (projectList[i].projectId == projectId) { ... */\n      iszero\n      tag_681\n      jumpi\n        /* \"contracts/CrowdFund.sol\":19559:19570  projectList */\n      dup2\n        /* \"contracts/CrowdFund.sol\":19571:19572  i */\n      dup2\n        /* \"contracts/CrowdFund.sol\":19559:19573  projectList[i] */\n      dup2\n      sload\n      dup2\n      lt\n      tag_682\n      jumpi\n      tag_683\n      tag_142\n      jump\t// in\n    tag_683:\n    tag_682:\n      swap1\n      0x00\n      mstore\n      keccak256(0x00, 0x20)\n      swap1\n      0x07\n      mul\n      add\n        /* \"contracts/CrowdFund.sol\":19559:19579  projectList[i].owner */\n      0x04\n      add\n      0x00\n      swap1\n      sload\n      swap1\n      0x0100\n      exp\n      swap1\n      div\n      0xffffffffffffffffffffffffffffffffffffffff\n      and\n        /* \"contracts/CrowdFund.sol\":19550:19589  payable (projectList[i].owner).transfer */\n      0xffffffffffffffffffffffffffffffffffffffff\n      and\n        /* \"contracts/CrowdFund.sol\":19550:19618  payable (projectList[i].owner).transfer(projectList[i].raisedAmount) */\n      0x08fc\n        /* \"contracts/CrowdFund.sol\":19590:19601  projectList */\n      dup4\n        /* \"contracts/CrowdFund.sol\":19602:19603  i */\n      dup4\n        /* \"contracts/CrowdFund.sol\":19590:19604  projectList[i] */\n      dup2\n      sload\n      dup2\n      lt\n      tag_685\n      jumpi\n      tag_686\n      tag_142\n      jump\t// in\n    tag_686:\n    tag_685:\n      swap1\n      0x00\n      mstore\n      keccak256(0x00, 0x20)\n      swap1\n      0x07\n      mul\n      add\n        /* \"contracts/CrowdFund.sol\":19590:19617  projectList[i].raisedAmount */\n      0x03\n      add\n      sload\n        /* \"contracts/CrowdFund.sol\":19550:19618  payable (projectList[i].owner).transfer(projectList[i].raisedAmount) */\n      swap1\n      dup2\n      iszero\n      mul\n      swap1\n      mload(0x40)\n      0x00\n      mload(0x40)\n      dup1\n      dup4\n      sub\n      dup2\n      dup6\n      dup9\n      dup9\n      call\n      swap4\n      pop\n      pop\n      pop\n      pop\n      iszero\n      dup1\n      iszero\n      tag_689\n      jumpi\n      returndatasize\n      0x00\n      dup1\n      returndatacopy\n      revert(0x00, returndatasize)\n    tag_689:\n      pop\n        /* \"contracts/CrowdFund.sol\":19651:19655  true */\n      0x01\n        /* \"contracts/CrowdFund.sol\":19636:19655  projectExist = true */\n      swap3\n      pop\n        /* \"contracts/CrowdFund.sol\":19673:19678  break */\n      jump(tag_676)\n        /* \"contracts/CrowdFund.sol\":19488:19693  if (projectList[i].projectId == projectId) { ... */\n    tag_681:\n        /* \"contracts/CrowdFund.sol\":19469:19472  i++ */\n      dup1\n      dup1\n      tag_690\n      swap1\n      tag_149\n      jump\t// in\n    tag_690:\n      swap2\n      pop\n      pop\n        /* \"contracts/CrowdFund.sol\":19434:19703  for (uint i=0;i<projectList.length;i++) {... */\n      jump(tag_675)\n    tag_676:\n      pop\n        /* \"contracts/CrowdFund.sol\":19718:19730  projectExist */\n      dup2\n        /* \"contracts/CrowdFund.sol\":19713:19791  if (!projectExist)... */\n      tag_691\n      jumpi\n        /* \"contracts/CrowdFund.sol\":19744:19791  revert(\"No project exist under this projectId\") */\n      mload(0x40)\n      0x08c379a000000000000000000000000000000000000000000000000000000000\n      dup2\n      mstore\n      0x04\n      add\n      tag_692\n      swap1\n      tag_383\n      jump\t// in\n    tag_692:\n      mload(0x40)\n      dup1\n      swap2\n      sub\n      swap1\n      revert\n        /* \"contracts/CrowdFund.sol\":19713:19791  if (!projectExist)... */\n    tag_691:\n        /* \"contracts/CrowdFund.sol\":19260:19798  {... */\n      pop\n      pop\n        /* \"contracts/CrowdFund.sol\":19193:19798  function tranferToReceiver(uint charityId, uint projectId) private {... */\n      pop\n      pop\n      jump\t// out\n    tag_128:\n      dup3\n      dup1\n      sload\n      tag_693\n      swap1\n      tag_117\n      jump\t// in\n    tag_693:\n      swap1\n      0x00\n      mstore\n      keccak256(0x00, 0x20)\n      swap1\n      0x1f\n      add\n      0x20\n      swap1\n      div\n      dup2\n      add\n      swap3\n      dup3\n      tag_695\n      jumpi\n      0x00\n      dup6\n      sstore\n      jump(tag_694)\n    tag_695:\n      dup3\n      0x1f\n      lt\n      tag_696\n      jumpi\n      dup1\n      mload\n      not(0xff)\n      and\n      dup4\n      dup1\n      add\n      or\n      dup6\n      sstore\n      jump(tag_694)\n    tag_696:\n      dup3\n      dup1\n      add\n      0x01\n      add\n      dup6\n      sstore\n      dup3\n      iszero\n      tag_694\n      jumpi\n      swap2\n      dup3\n      add\n    tag_697:\n      dup3\n      dup2\n      gt\n      iszero\n      tag_698\n      jumpi\n      dup3\n      mload\n      dup3\n      sstore\n      swap2\n      0x20\n      add\n      swap2\n      swap1\n      0x01\n      add\n      swap1\n      jump(tag_697)\n    tag_698:\n    tag_694:\n      pop\n      swap1\n      pop\n      tag_699\n      swap2\n      swap1\n      tag_700\n      jump\t// in\n    tag_699:\n      pop\n      swap1\n      jump\t// out\n    tag_700:\n    tag_701:\n      dup1\n      dup3\n      gt\n      iszero\n      tag_702\n      jumpi\n      0x00\n      dup2\n      0x00\n      swap1\n      sstore\n      pop\n      0x01\n      add\n      jump(tag_701)\n    tag_702:\n      pop\n      swap1\n      jump\t// out\n        /* \"#utility.yul\":7:419   */\n    tag_704:\n        /* \"#utility.yul\":85:90   */\n      0x00\n        /* \"#utility.yul\":110:176   */\n      tag_706\n        /* \"#utility.yul\":126:175   */\n      tag_707\n        /* \"#utility.yul\":168:174   */\n      dup5\n        /* \"#utility.yul\":126:175   */\n      tag_708\n      jump\t// in\n    tag_707:\n        /* \"#utility.yul\":110:176   */\n      tag_709\n      jump\t// in\n    tag_706:\n        /* \"#utility.yul\":101:176   */\n      swap1\n      pop\n        /* \"#utility.yul\":199:205   */\n      dup3\n        /* \"#utility.yul\":192:197   */\n      dup2\n        /* \"#utility.yul\":185:206   */\n      mstore\n        /* \"#utility.yul\":237:241   */\n      0x20\n        /* \"#utility.yul\":230:235   */\n      dup2\n        /* \"#utility.yul\":226:242   */\n      add\n        /* \"#utility.yul\":275:278   */\n      dup5\n        /* \"#utility.yul\":266:272   */\n      dup5\n        /* \"#utility.yul\":261:264   */\n      dup5\n        /* \"#utility.yul\":257:273   */\n      add\n        /* \"#utility.yul\":254:279   */\n      gt\n        /* \"#utility.yul\":251:363   */\n      iszero\n      tag_710\n      jumpi\n        /* \"#utility.yul\":282:361   */\n      tag_711\n      tag_712\n      jump\t// in\n    tag_711:\n        /* \"#utility.yul\":251:363   */\n    tag_710:\n        /* \"#utility.yul\":372:413   */\n      tag_713\n        /* \"#utility.yul\":406:412   */\n      dup5\n        /* \"#utility.yul\":401:404   */\n      dup3\n        /* \"#utility.yul\":396:399   */\n      dup6\n        /* \"#utility.yul\":372:413   */\n      tag_714\n      jump\t// in\n    tag_713:\n        /* \"#utility.yul\":91:419   */\n      pop\n        /* \"#utility.yul\":7:419   */\n      swap4\n      swap3\n      pop\n      pop\n      pop\n      jump\t// out\n        /* \"#utility.yul\":425:564   */\n    tag_715:\n        /* \"#utility.yul\":471:476   */\n      0x00\n        /* \"#utility.yul\":509:515   */\n      dup2\n        /* \"#utility.yul\":496:516   */\n      calldataload\n        /* \"#utility.yul\":487:516   */\n      swap1\n      pop\n        /* \"#utility.yul\":525:558   */\n      tag_717\n        /* \"#utility.yul\":552:557   */\n      dup2\n        /* \"#utility.yul\":525:558   */\n      tag_718\n      jump\t// in\n    tag_717:\n        /* \"#utility.yul\":425:564   */\n      swap3\n      swap2\n      pop\n      pop\n      jump\t// out\n        /* \"#utility.yul\":570:703   */\n    tag_719:\n        /* \"#utility.yul\":613:618   */\n      0x00\n        /* \"#utility.yul\":651:657   */\n      dup2\n        /* \"#utility.yul\":638:658   */\n      calldataload\n        /* \"#utility.yul\":629:658   */\n      swap1\n      pop\n        /* \"#utility.yul\":667:697   */\n      tag_721\n        /* \"#utility.yul\":691:696   */\n      dup2\n        /* \"#utility.yul\":667:697   */\n      tag_722\n      jump\t// in\n    tag_721:\n        /* \"#utility.yul\":570:703   */\n      swap3\n      swap2\n      pop\n      pop\n      jump\t// out\n        /* \"#utility.yul\":709:880   */\n    tag_723:\n        /* \"#utility.yul\":771:776   */\n      0x00\n        /* \"#utility.yul\":809:815   */\n      dup2\n        /* \"#utility.yul\":796:816   */\n      calldataload\n        /* \"#utility.yul\":787:816   */\n      swap1\n      pop\n        /* \"#utility.yul\":825:874   */\n      tag_725\n        /* \"#utility.yul\":868:873   */\n      dup2\n        /* \"#utility.yul\":825:874   */\n      tag_726\n      jump\t// in\n    tag_725:\n        /* \"#utility.yul\":709:880   */\n      swap3\n      swap2\n      pop\n      pop\n      jump\t// out\n        /* \"#utility.yul\":900:1240   */\n    tag_727:\n        /* \"#utility.yul\":956:961   */\n      0x00\n        /* \"#utility.yul\":1005:1008   */\n      dup3\n        /* \"#utility.yul\":998:1002   */\n      0x1f\n        /* \"#utility.yul\":990:996   */\n      dup4\n        /* \"#utility.yul\":986:1003   */\n      add\n        /* \"#utility.yul\":982:1009   */\n      slt\n        /* \"#utility.yul\":972:1094   */\n      tag_729\n      jumpi\n        /* \"#utility.yul\":1013:1092   */\n      tag_730\n      tag_731\n      jump\t// in\n    tag_730:\n        /* \"#utility.yul\":972:1094   */\n    tag_729:\n        /* \"#utility.yul\":1130:1136   */\n      dup2\n        /* \"#utility.yul\":1117:1137   */\n      calldataload\n        /* \"#utility.yul\":1155:1234   */\n      tag_732\n        /* \"#utility.yul\":1230:1233   */\n      dup5\n        /* \"#utility.yul\":1222:1228   */\n      dup3\n        /* \"#utility.yul\":1215:1219   */\n      0x20\n        /* \"#utility.yul\":1207:1213   */\n      dup7\n        /* \"#utility.yul\":1203:1220   */\n      add\n        /* \"#utility.yul\":1155:1234   */\n      tag_704\n      jump\t// in\n    tag_732:\n        /* \"#utility.yul\":1146:1234   */\n      swap2\n      pop\n        /* \"#utility.yul\":962:1240   */\n      pop\n        /* \"#utility.yul\":900:1240   */\n      swap3\n      swap2\n      pop\n      pop\n      jump\t// out\n        /* \"#utility.yul\":1246:1385   */\n    tag_733:\n        /* \"#utility.yul\":1292:1297   */\n      0x00\n        /* \"#utility.yul\":1330:1336   */\n      dup2\n        /* \"#utility.yul\":1317:1337   */\n      calldataload\n        /* \"#utility.yul\":1308:1337   */\n      swap1\n      pop\n        /* \"#utility.yul\":1346:1379   */\n      tag_735\n        /* \"#utility.yul\":1373:1378   */\n      dup2\n        /* \"#utility.yul\":1346:1379   */\n      tag_736\n      jump\t// in\n    tag_735:\n        /* \"#utility.yul\":1246:1385   */\n      swap3\n      swap2\n      pop\n      pop\n      jump\t// out\n        /* \"#utility.yul\":1391:1526   */\n    tag_737:\n        /* \"#utility.yul\":1435:1440   */\n      0x00\n        /* \"#utility.yul\":1473:1479   */\n      dup2\n        /* \"#utility.yul\":1460:1480   */\n      calldataload\n        /* \"#utility.yul\":1451:1480   */\n      swap1\n      pop\n        /* \"#utility.yul\":1489:1520   */\n      tag_739\n        /* \"#utility.yul\":1514:1519   */\n      dup2\n        /* \"#utility.yul\":1489:1520   */\n      tag_740\n      jump\t// in\n    tag_739:\n        /* \"#utility.yul\":1391:1526   */\n      swap3\n      swap2\n      pop\n      pop\n      jump\t// out\n        /* \"#utility.yul\":1532:1893   */\n    tag_105:\n        /* \"#utility.yul\":1607:1613   */\n      0x00\n        /* \"#utility.yul\":1656:1658   */\n      0x20\n        /* \"#utility.yul\":1644:1653   */\n      dup3\n        /* \"#utility.yul\":1635:1642   */\n      dup5\n        /* \"#utility.yul\":1631:1654   */\n      sub\n        /* \"#utility.yul\":1627:1659   */\n      slt\n        /* \"#utility.yul\":1624:1743   */\n      iszero\n      tag_742\n      jumpi\n        /* \"#utility.yul\":1662:1741   */\n      tag_743\n      tag_744\n      jump\t// in\n    tag_743:\n        /* \"#utility.yul\":1624:1743   */\n    tag_742:\n        /* \"#utility.yul\":1782:1783   */\n      0x00\n        /* \"#utility.yul\":1807:1876   */\n      tag_745\n        /* \"#utility.yul\":1868:1875   */\n      dup5\n        /* \"#utility.yul\":1859:1865   */\n      dup3\n        /* \"#utility.yul\":1848:1857   */\n      dup6\n        /* \"#utility.yul\":1844:1866   */\n      add\n        /* \"#utility.yul\":1807:1876   */\n      tag_723\n      jump\t// in\n    tag_745:\n        /* \"#utility.yul\":1797:1876   */\n      swap2\n      pop\n        /* \"#utility.yul\":1753:1886   */\n      pop\n        /* \"#utility.yul\":1532:1893   */\n      swap3\n      swap2\n      pop\n      pop\n      jump\t// out\n        /* \"#utility.yul\":1899:2228   */\n    tag_25:\n        /* \"#utility.yul\":1958:1964   */\n      0x00\n        /* \"#utility.yul\":2007:2009   */\n      0x20\n        /* \"#utility.yul\":1995:2004   */\n      dup3\n        /* \"#utility.yul\":1986:1993   */\n      dup5\n        /* \"#utility.yul\":1982:2005   */\n      sub\n        /* \"#utility.yul\":1978:2010   */\n      slt\n        /* \"#utility.yul\":1975:2094   */\n      iszero\n      tag_747\n      jumpi\n        /* \"#utility.yul\":2013:2092   */\n      tag_748\n      tag_744\n      jump\t// in\n    tag_748:\n        /* \"#utility.yul\":1975:2094   */\n    tag_747:\n        /* \"#utility.yul\":2133:2134   */\n      0x00\n        /* \"#utility.yul\":2158:2211   */\n      tag_749\n        /* \"#utility.yul\":2203:2210   */\n      dup5\n        /* \"#utility.yul\":2194:2200   */\n      dup3\n        /* \"#utility.yul\":2183:2192   */\n      dup6\n        /* \"#utility.yul\":2179:2201   */\n      add\n        /* \"#utility.yul\":2158:2211   */\n      tag_733\n      jump\t// in\n    tag_749:\n        /* \"#utility.yul\":2148:2211   */\n      swap2\n      pop\n        /* \"#utility.yul\":2104:2221   */\n      pop\n        /* \"#utility.yul\":1899:2228   */\n      swap3\n      swap2\n      pop\n      pop\n      jump\t// out\n        /* \"#utility.yul\":2234:3027   */\n    tag_80:\n        /* \"#utility.yul\":2318:2324   */\n      0x00\n        /* \"#utility.yul\":2326:2332   */\n      dup1\n        /* \"#utility.yul\":2334:2340   */\n      0x00\n        /* \"#utility.yul\":2383:2385   */\n      0x60\n        /* \"#utility.yul\":2371:2380   */\n      dup5\n        /* \"#utility.yul\":2362:2369   */\n      dup7\n        /* \"#utility.yul\":2358:2381   */\n      sub\n        /* \"#utility.yul\":2354:2386   */\n      slt\n        /* \"#utility.yul\":2351:2470   */\n      iszero\n      tag_751\n      jumpi\n        /* \"#utility.yul\":2389:2468   */\n      tag_752\n      tag_744\n      jump\t// in\n    tag_752:\n        /* \"#utility.yul\":2351:2470   */\n    tag_751:\n        /* \"#utility.yul\":2509:2510   */\n      0x00\n        /* \"#utility.yul\":2534:2587   */\n      tag_753\n        /* \"#utility.yul\":2579:2586   */\n      dup7\n        /* \"#utility.yul\":2570:2576   */\n      dup3\n        /* \"#utility.yul\":2559:2568   */\n      dup8\n        /* \"#utility.yul\":2555:2577   */\n      add\n        /* \"#utility.yul\":2534:2587   */\n      tag_733\n      jump\t// in\n    tag_753:\n        /* \"#utility.yul\":2524:2587   */\n      swap4\n      pop\n        /* \"#utility.yul\":2480:2597   */\n      pop\n        /* \"#utility.yul\":2636:2638   */\n      0x20\n        /* \"#utility.yul\":2662:2712   */\n      tag_754\n        /* \"#utility.yul\":2704:2711   */\n      dup7\n        /* \"#utility.yul\":2695:2701   */\n      dup3\n        /* \"#utility.yul\":2684:2693   */\n      dup8\n        /* \"#utility.yul\":2680:2702   */\n      add\n        /* \"#utility.yul\":2662:2712   */\n      tag_719\n      jump\t// in\n    tag_754:\n        /* \"#utility.yul\":2652:2712   */\n      swap3\n      pop\n        /* \"#utility.yul\":2607:2722   */\n      pop\n        /* \"#utility.yul\":2789:2791   */\n      0x40\n        /* \"#utility.yul\":2778:2787   */\n      dup5\n        /* \"#utility.yul\":2774:2792   */\n      add\n        /* \"#utility.yul\":2761:2793   */\n      calldataload\n        /* \"#utility.yul\":2820:2838   */\n      0xffffffffffffffff\n        /* \"#utility.yul\":2812:2818   */\n      dup2\n        /* \"#utility.yul\":2809:2839   */\n      gt\n        /* \"#utility.yul\":2806:2923   */\n      iszero\n      tag_755\n      jumpi\n        /* \"#utility.yul\":2842:2921   */\n      tag_756\n      tag_757\n      jump\t// in\n    tag_756:\n        /* \"#utility.yul\":2806:2923   */\n    tag_755:\n        /* \"#utility.yul\":2947:3010   */\n      tag_758\n        /* \"#utility.yul\":3002:3009   */\n      dup7\n        /* \"#utility.yul\":2993:2999   */\n      dup3\n        /* \"#utility.yul\":2982:2991   */\n      dup8\n        /* \"#utility.yul\":2978:3000   */\n      add\n        /* \"#utility.yul\":2947:3010   */\n      tag_727\n      jump\t// in\n    tag_758:\n        /* \"#utility.yul\":2937:3010   */\n      swap2\n      pop\n        /* \"#utility.yul\":2732:3020   */\n      pop\n        /* \"#utility.yul\":2234:3027   */\n      swap3\n      pop\n      swap3\n      pop\n      swap3\n      jump\t// out\n        /* \"#utility.yul\":3033:3832   */\n    tag_32:\n        /* \"#utility.yul\":3120:3126   */\n      0x00\n        /* \"#utility.yul\":3128:3134   */\n      dup1\n        /* \"#utility.yul\":3136:3142   */\n      0x00\n        /* \"#utility.yul\":3185:3187   */\n      0x60\n        /* \"#utility.yul\":3173:3182   */\n      dup5\n        /* \"#utility.yul\":3164:3171   */\n      dup7\n        /* \"#utility.yul\":3160:3183   */\n      sub\n        /* \"#utility.yul\":3156:3188   */\n      slt\n        /* \"#utility.yul\":3153:3272   */\n      iszero\n      tag_760\n      jumpi\n        /* \"#utility.yul\":3191:3270   */\n      tag_761\n      tag_744\n      jump\t// in\n    tag_761:\n        /* \"#utility.yul\":3153:3272   */\n    tag_760:\n        /* \"#utility.yul\":3311:3312   */\n      0x00\n        /* \"#utility.yul\":3336:3389   */\n      tag_762\n        /* \"#utility.yul\":3381:3388   */\n      dup7\n        /* \"#utility.yul\":3372:3378   */\n      dup3\n        /* \"#utility.yul\":3361:3370   */\n      dup8\n        /* \"#utility.yul\":3357:3379   */\n      add\n        /* \"#utility.yul\":3336:3389   */\n      tag_733\n      jump\t// in\n    tag_762:\n        /* \"#utility.yul\":3326:3389   */\n      swap4\n      pop\n        /* \"#utility.yul\":3282:3399   */\n      pop\n        /* \"#utility.yul\":3466:3468   */\n      0x20\n        /* \"#utility.yul\":3455:3464   */\n      dup5\n        /* \"#utility.yul\":3451:3469   */\n      add\n        /* \"#utility.yul\":3438:3470   */\n      calldataload\n        /* \"#utility.yul\":3497:3515   */\n      0xffffffffffffffff\n        /* \"#utility.yul\":3489:3495   */\n      dup2\n        /* \"#utility.yul\":3486:3516   */\n      gt\n        /* \"#utility.yul\":3483:3600   */\n      iszero\n      tag_763\n      jumpi\n        /* \"#utility.yul\":3519:3598   */\n      tag_764\n      tag_757\n      jump\t// in\n    tag_764:\n        /* \"#utility.yul\":3483:3600   */\n    tag_763:\n        /* \"#utility.yul\":3624:3687   */\n      tag_765\n        /* \"#utility.yul\":3679:3686   */\n      dup7\n        /* \"#utility.yul\":3670:3676   */\n      dup3\n        /* \"#utility.yul\":3659:3668   */\n      dup8\n        /* \"#utility.yul\":3655:3677   */\n      add\n        /* \"#utility.yul\":3624:3687   */\n      tag_727\n      jump\t// in\n    tag_765:\n        /* \"#utility.yul\":3614:3687   */\n      swap3\n      pop\n        /* \"#utility.yul\":3409:3697   */\n      pop\n        /* \"#utility.yul\":3736:3738   */\n      0x40\n        /* \"#utility.yul\":3762:3815   */\n      tag_766\n        /* \"#utility.yul\":3807:3814   */\n      dup7\n        /* \"#utility.yul\":3798:3804   */\n      dup3\n        /* \"#utility.yul\":3787:3796   */\n      dup8\n        /* \"#utility.yul\":3783:3805   */\n      add\n        /* \"#utility.yul\":3762:3815   */\n      tag_715\n      jump\t// in\n    tag_766:\n        /* \"#utility.yul\":3752:3815   */\n      swap2\n      pop\n        /* \"#utility.yul\":3707:3825   */\n      pop\n        /* \"#utility.yul\":3033:3832   */\n      swap3\n      pop\n      swap3\n      pop\n      swap3\n      jump\t// out\n        /* \"#utility.yul\":3838:4312   */\n    tag_37:\n        /* \"#utility.yul\":3906:3912   */\n      0x00\n        /* \"#utility.yul\":3914:3920   */\n      dup1\n        /* \"#utility.yul\":3963:3965   */\n      0x40\n        /* \"#utility.yul\":3951:3960   */\n      dup4\n        /* \"#utility.yul\":3942:3949   */\n      dup6\n        /* \"#utility.yul\":3938:3961   */\n      sub\n        /* \"#utility.yul\":3934:3966   */\n      slt\n        /* \"#utility.yul\":3931:4050   */\n      iszero\n      tag_768\n      jumpi\n        /* \"#utility.yul\":3969:4048   */\n      tag_769\n      tag_744\n      jump\t// in\n    tag_769:\n        /* \"#utility.yul\":3931:4050   */\n    tag_768:\n        /* \"#utility.yul\":4089:4090   */\n      0x00\n        /* \"#utility.yul\":4114:4167   */\n      tag_770\n        /* \"#utility.yul\":4159:4166   */\n      dup6\n        /* \"#utility.yul\":4150:4156   */\n      dup3\n        /* \"#utility.yul\":4139:4148   */\n      dup7\n        /* \"#utility.yul\":4135:4157   */\n      add\n        /* \"#utility.yul\":4114:4167   */\n      tag_733\n      jump\t// in\n    tag_770:\n        /* \"#utility.yul\":4104:4167   */\n      swap3\n      pop\n        /* \"#utility.yul\":4060:4177   */\n      pop\n        /* \"#utility.yul\":4216:4218   */\n      0x20\n        /* \"#utility.yul\":4242:4295   */\n      tag_771\n        /* \"#utility.yul\":4287:4294   */\n      dup6\n        /* \"#utility.yul\":4278:4284   */\n      dup3\n        /* \"#utility.yul\":4267:4276   */\n      dup7\n        /* \"#utility.yul\":4263:4285   */\n      add\n        /* \"#utility.yul\":4242:4295   */\n      tag_733\n      jump\t// in\n    tag_771:\n        /* \"#utility.yul\":4232:4295   */\n      swap2\n      pop\n        /* \"#utility.yul\":4187:4305   */\n      pop\n        /* \"#utility.yul\":3838:4312   */\n      swap3\n      pop\n      swap3\n      swap1\n      pop\n      jump\t// out\n        /* \"#utility.yul\":4318:4937   */\n    tag_95:\n        /* \"#utility.yul\":4395:4401   */\n      0x00\n        /* \"#utility.yul\":4403:4409   */\n      dup1\n        /* \"#utility.yul\":4411:4417   */\n      0x00\n        /* \"#utility.yul\":4460:4462   */\n      0x60\n        /* \"#utility.yul\":4448:4457   */\n      dup5\n        /* \"#utility.yul\":4439:4446   */\n      dup7\n        /* \"#utility.yul\":4435:4458   */\n      sub\n        /* \"#utility.yul\":4431:4463   */\n      slt\n        /* \"#utility.yul\":4428:4547   */\n      iszero\n      tag_773\n      jumpi\n        /* \"#utility.yul\":4466:4545   */\n      tag_774\n      tag_744\n      jump\t// in\n    tag_774:\n        /* \"#utility.yul\":4428:4547   */\n    tag_773:\n        /* \"#utility.yul\":4586:4587   */\n      0x00\n        /* \"#utility.yul\":4611:4664   */\n      tag_775\n        /* \"#utility.yul\":4656:4663   */\n      dup7\n        /* \"#utility.yul\":4647:4653   */\n      dup3\n        /* \"#utility.yul\":4636:4645   */\n      dup8\n        /* \"#utility.yul\":4632:4654   */\n      add\n        /* \"#utility.yul\":4611:4664   */\n      tag_733\n      jump\t// in\n    tag_775:\n        /* \"#utility.yul\":4601:4664   */\n      swap4\n      pop\n        /* \"#utility.yul\":4557:4674   */\n      pop\n        /* \"#utility.yul\":4713:4715   */\n      0x20\n        /* \"#utility.yul\":4739:4792   */\n      tag_776\n        /* \"#utility.yul\":4784:4791   */\n      dup7\n        /* \"#utility.yul\":4775:4781   */\n      dup3\n        /* \"#utility.yul\":4764:4773   */\n      dup8\n        /* \"#utility.yul\":4760:4782   */\n      add\n        /* \"#utility.yul\":4739:4792   */\n      tag_733\n      jump\t// in\n    tag_776:\n        /* \"#utility.yul\":4729:4792   */\n      swap3\n      pop\n        /* \"#utility.yul\":4684:4802   */\n      pop\n        /* \"#utility.yul\":4841:4843   */\n      0x40\n        /* \"#utility.yul\":4867:4920   */\n      tag_777\n        /* \"#utility.yul\":4912:4919   */\n      dup7\n        /* \"#utility.yul\":4903:4909   */\n      dup3\n        /* \"#utility.yul\":4892:4901   */\n      dup8\n        /* \"#utility.yul\":4888:4910   */\n      add\n        /* \"#utility.yul\":4867:4920   */\n      tag_733\n      jump\t// in\n    tag_777:\n        /* \"#utility.yul\":4857:4920   */\n      swap2\n      pop\n        /* \"#utility.yul\":4812:4930   */\n      pop\n        /* \"#utility.yul\":4318:4937   */\n      swap3\n      pop\n      swap3\n      pop\n      swap3\n      jump\t// out\n        /* \"#utility.yul\":4943:5708   */\n    tag_100:\n        /* \"#utility.yul\":5029:5035   */\n      0x00\n        /* \"#utility.yul\":5037:5043   */\n      dup1\n        /* \"#utility.yul\":5045:5051   */\n      0x00\n        /* \"#utility.yul\":5053:5059   */\n      dup1\n        /* \"#utility.yul\":5102:5105   */\n      0x80\n        /* \"#utility.yul\":5090:5099   */\n      dup6\n        /* \"#utility.yul\":5081:5088   */\n      dup8\n        /* \"#utility.yul\":5077:5100   */\n      sub\n        /* \"#utility.yul\":5073:5106   */\n      slt\n        /* \"#utility.yul\":5070:5190   */\n      iszero\n      tag_779\n      jumpi\n        /* \"#utility.yul\":5109:5188   */\n      tag_780\n      tag_744\n      jump\t// in\n    tag_780:\n        /* \"#utility.yul\":5070:5190   */\n    tag_779:\n        /* \"#utility.yul\":5229:5230   */\n      0x00\n        /* \"#utility.yul\":5254:5307   */\n      tag_781\n        /* \"#utility.yul\":5299:5306   */\n      dup8\n        /* \"#utility.yul\":5290:5296   */\n      dup3\n        /* \"#utility.yul\":5279:5288   */\n      dup9\n        /* \"#utility.yul\":5275:5297   */\n      add\n        /* \"#utility.yul\":5254:5307   */\n      tag_733\n      jump\t// in\n    tag_781:\n        /* \"#utility.yul\":5244:5307   */\n      swap5\n      pop\n        /* \"#utility.yul\":5200:5317   */\n      pop\n        /* \"#utility.yul\":5356:5358   */\n      0x20\n        /* \"#utility.yul\":5382:5435   */\n      tag_782\n        /* \"#utility.yul\":5427:5434   */\n      dup8\n        /* \"#utility.yul\":5418:5424   */\n      dup3\n        /* \"#utility.yul\":5407:5416   */\n      dup9\n        /* \"#utility.yul\":5403:5425   */\n      add\n        /* \"#utility.yul\":5382:5435   */\n      tag_733\n      jump\t// in\n    tag_782:\n        /* \"#utility.yul\":5372:5435   */\n      swap4\n      pop\n        /* \"#utility.yul\":5327:5445   */\n      pop\n        /* \"#utility.yul\":5484:5486   */\n      0x40\n        /* \"#utility.yul\":5510:5563   */\n      tag_783\n        /* \"#utility.yul\":5555:5562   */\n      dup8\n        /* \"#utility.yul\":5546:5552   */\n      dup3\n        /* \"#utility.yul\":5535:5544   */\n      dup9\n        /* \"#utility.yul\":5531:5553   */\n      add\n        /* \"#utility.yul\":5510:5563   */\n      tag_733\n      jump\t// in\n    tag_783:\n        /* \"#utility.yul\":5500:5563   */\n      swap3\n      pop\n        /* \"#utility.yul\":5455:5573   */\n      pop\n        /* \"#utility.yul\":5612:5614   */\n      0x60\n        /* \"#utility.yul\":5638:5691   */\n      tag_784\n        /* \"#utility.yul\":5683:5690   */\n      dup8\n        /* \"#utility.yul\":5674:5680   */\n      dup3\n        /* \"#utility.yul\":5663:5672   */\n      dup9\n        /* \"#utility.yul\":5659:5681   */\n      add\n        /* \"#utility.yul\":5638:5691   */\n      tag_733\n      jump\t// in\n    tag_784:\n        /* \"#utility.yul\":5628:5691   */\n      swap2\n      pop\n        /* \"#utility.yul\":5583:5701   */\n      pop\n        /* \"#utility.yul\":4943:5708   */\n      swap3\n      swap6\n      swap2\n      swap5\n      pop\n      swap3\n      pop\n      jump\t// out\n        /* \"#utility.yul\":5714:6951   */\n    tag_90:\n        /* \"#utility.yul\":5828:5834   */\n      0x00\n        /* \"#utility.yul\":5836:5842   */\n      dup1\n        /* \"#utility.yul\":5844:5850   */\n      0x00\n        /* \"#utility.yul\":5852:5858   */\n      dup1\n        /* \"#utility.yul\":5860:5866   */\n      0x00\n        /* \"#utility.yul\":5868:5874   */\n      dup1\n        /* \"#utility.yul\":5917:5920   */\n      0xc0\n        /* \"#utility.yul\":5905:5914   */\n      dup8\n        /* \"#utility.yul\":5896:5903   */\n      dup10\n        /* \"#utility.yul\":5892:5915   */\n      sub\n        /* \"#utility.yul\":5888:5921   */\n      slt\n        /* \"#utility.yul\":5885:6005   */\n      iszero\n      tag_786\n      jumpi\n        /* \"#utility.yul\":5924:6003   */\n      tag_787\n      tag_744\n      jump\t// in\n    tag_787:\n        /* \"#utility.yul\":5885:6005   */\n    tag_786:\n        /* \"#utility.yul\":6044:6045   */\n      0x00\n        /* \"#utility.yul\":6069:6122   */\n      tag_788\n        /* \"#utility.yul\":6114:6121   */\n      dup10\n        /* \"#utility.yul\":6105:6111   */\n      dup3\n        /* \"#utility.yul\":6094:6103   */\n      dup11\n        /* \"#utility.yul\":6090:6112   */\n      add\n        /* \"#utility.yul\":6069:6122   */\n      tag_733\n      jump\t// in\n    tag_788:\n        /* \"#utility.yul\":6059:6122   */\n      swap7\n      pop\n        /* \"#utility.yul\":6015:6132   */\n      pop\n        /* \"#utility.yul\":6171:6173   */\n      0x20\n        /* \"#utility.yul\":6197:6250   */\n      tag_789\n        /* \"#utility.yul\":6242:6249   */\n      dup10\n        /* \"#utility.yul\":6233:6239   */\n      dup3\n        /* \"#utility.yul\":6222:6231   */\n      dup11\n        /* \"#utility.yul\":6218:6240   */\n      add\n        /* \"#utility.yul\":6197:6250   */\n      tag_733\n      jump\t// in\n    tag_789:\n        /* \"#utility.yul\":6187:6250   */\n      swap6\n      pop\n        /* \"#utility.yul\":6142:6260   */\n      pop\n        /* \"#utility.yul\":6299:6301   */\n      0x40\n        /* \"#utility.yul\":6325:6378   */\n      tag_790\n        /* \"#utility.yul\":6370:6377   */\n      dup10\n        /* \"#utility.yul\":6361:6367   */\n      dup3\n        /* \"#utility.yul\":6350:6359   */\n      dup11\n        /* \"#utility.yul\":6346:6368   */\n      add\n        /* \"#utility.yul\":6325:6378   */\n      tag_733\n      jump\t// in\n    tag_790:\n        /* \"#utility.yul\":6315:6378   */\n      swap5\n      pop\n        /* \"#utility.yul\":6270:6388   */\n      pop\n        /* \"#utility.yul\":6427:6429   */\n      0x60\n        /* \"#utility.yul\":6453:6506   */\n      tag_791\n        /* \"#utility.yul\":6498:6505   */\n      dup10\n        /* \"#utility.yul\":6489:6495   */\n      dup3\n        /* \"#utility.yul\":6478:6487   */\n      dup11\n        /* \"#utility.yul\":6474:6496   */\n      add\n        /* \"#utility.yul\":6453:6506   */\n      tag_733\n      jump\t// in\n    tag_791:\n        /* \"#utility.yul\":6443:6506   */\n      swap4\n      pop\n        /* \"#utility.yul\":6398:6516   */\n      pop\n        /* \"#utility.yul\":6555:6558   */\n      0x80\n        /* \"#utility.yul\":6582:6635   */\n      tag_792\n        /* \"#utility.yul\":6627:6634   */\n      dup10\n        /* \"#utility.yul\":6618:6624   */\n      dup3\n        /* \"#utility.yul\":6607:6616   */\n      dup11\n        /* \"#utility.yul\":6603:6625   */\n      add\n        /* \"#utility.yul\":6582:6635   */\n      tag_715\n      jump\t// in\n    tag_792:\n        /* \"#utility.yul\":6572:6635   */\n      swap3\n      pop\n        /* \"#utility.yul\":6526:6645   */\n      pop\n        /* \"#utility.yul\":6712:6715   */\n      0xa0\n        /* \"#utility.yul\":6701:6710   */\n      dup8\n        /* \"#utility.yul\":6697:6716   */\n      add\n        /* \"#utility.yul\":6684:6717   */\n      calldataload\n        /* \"#utility.yul\":6744:6762   */\n      0xffffffffffffffff\n        /* \"#utility.yul\":6736:6742   */\n      dup2\n        /* \"#utility.yul\":6733:6763   */\n      gt\n        /* \"#utility.yul\":6730:6847   */\n      iszero\n      tag_793\n      jumpi\n        /* \"#utility.yul\":6766:6845   */\n      tag_794\n      tag_757\n      jump\t// in\n    tag_794:\n        /* \"#utility.yul\":6730:6847   */\n    tag_793:\n        /* \"#utility.yul\":6871:6934   */\n      tag_795\n        /* \"#utility.yul\":6926:6933   */\n      dup10\n        /* \"#utility.yul\":6917:6923   */\n      dup3\n        /* \"#utility.yul\":6906:6915   */\n      dup11\n        /* \"#utility.yul\":6902:6924   */\n      add\n        /* \"#utility.yul\":6871:6934   */\n      tag_727\n      jump\t// in\n    tag_795:\n        /* \"#utility.yul\":6861:6934   */\n      swap2\n      pop\n        /* \"#utility.yul\":6655:6944   */\n      pop\n        /* \"#utility.yul\":5714:6951   */\n      swap3\n      swap6\n      pop\n      swap3\n      swap6\n      pop\n      swap3\n      swap6\n      jump\t// out\n        /* \"#utility.yul\":6957:7572   */\n    tag_55:\n        /* \"#utility.yul\":7032:7038   */\n      0x00\n        /* \"#utility.yul\":7040:7046   */\n      dup1\n        /* \"#utility.yul\":7048:7054   */\n      0x00\n        /* \"#utility.yul\":7097:7099   */\n      0x60\n        /* \"#utility.yul\":7085:7094   */\n      dup5\n        /* \"#utility.yul\":7076:7083   */\n      dup7\n        /* \"#utility.yul\":7072:7095   */\n      sub\n        /* \"#utility.yul\":7068:7100   */\n      slt\n        /* \"#utility.yul\":7065:7184   */\n      iszero\n      tag_797\n      jumpi\n        /* \"#utility.yul\":7103:7182   */\n      tag_798\n      tag_744\n      jump\t// in\n    tag_798:\n        /* \"#utility.yul\":7065:7184   */\n    tag_797:\n        /* \"#utility.yul\":7223:7224   */\n      0x00\n        /* \"#utility.yul\":7248:7301   */\n      tag_799\n        /* \"#utility.yul\":7293:7300   */\n      dup7\n        /* \"#utility.yul\":7284:7290   */\n      dup3\n        /* \"#utility.yul\":7273:7282   */\n      dup8\n        /* \"#utility.yul\":7269:7291   */\n      add\n        /* \"#utility.yul\":7248:7301   */\n      tag_733\n      jump\t// in\n    tag_799:\n        /* \"#utility.yul\":7238:7301   */\n      swap4\n      pop\n        /* \"#utility.yul\":7194:7311   */\n      pop\n        /* \"#utility.yul\":7350:7352   */\n      0x20\n        /* \"#utility.yul\":7376:7429   */\n      tag_800\n        /* \"#utility.yul\":7421:7428   */\n      dup7\n        /* \"#utility.yul\":7412:7418   */\n      dup3\n        /* \"#utility.yul\":7401:7410   */\n      dup8\n        /* \"#utility.yul\":7397:7419   */\n      add\n        /* \"#utility.yul\":7376:7429   */\n      tag_733\n      jump\t// in\n    tag_800:\n        /* \"#utility.yul\":7366:7429   */\n      swap3\n      pop\n        /* \"#utility.yul\":7321:7439   */\n      pop\n        /* \"#utility.yul\":7478:7480   */\n      0x40\n        /* \"#utility.yul\":7504:7555   */\n      tag_801\n        /* \"#utility.yul\":7547:7554   */\n      dup7\n        /* \"#utility.yul\":7538:7544   */\n      dup3\n        /* \"#utility.yul\":7527:7536   */\n      dup8\n        /* \"#utility.yul\":7523:7545   */\n      add\n        /* \"#utility.yul\":7504:7555   */\n      tag_737\n      jump\t// in\n    tag_801:\n        /* \"#utility.yul\":7494:7555   */\n      swap2\n      pop\n        /* \"#utility.yul\":7449:7565   */\n      pop\n        /* \"#utility.yul\":6957:7572   */\n      swap3\n      pop\n      swap3\n      pop\n      swap3\n      jump\t// out\n        /* \"#utility.yul\":7578:7757   */\n    tag_802:\n        /* \"#utility.yul\":7647:7657   */\n      0x00\n        /* \"#utility.yul\":7668:7714   */\n      tag_804\n        /* \"#utility.yul\":7710:7713   */\n      dup4\n        /* \"#utility.yul\":7702:7708   */\n      dup4\n        /* \"#utility.yul\":7668:7714   */\n      tag_805\n      jump\t// in\n    tag_804:\n        /* \"#utility.yul\":7746:7750   */\n      0x20\n        /* \"#utility.yul\":7741:7744   */\n      dup4\n        /* \"#utility.yul\":7737:7751   */\n      add\n        /* \"#utility.yul\":7723:7751   */\n      swap1\n      pop\n        /* \"#utility.yul\":7578:7757   */\n      swap3\n      swap2\n      pop\n      pop\n      jump\t// out\n        /* \"#utility.yul\":7763:7881   */\n    tag_806:\n        /* \"#utility.yul\":7850:7874   */\n      tag_808\n        /* \"#utility.yul\":7868:7873   */\n      dup2\n        /* \"#utility.yul\":7850:7874   */\n      tag_809\n      jump\t// in\n    tag_808:\n        /* \"#utility.yul\":7845:7848   */\n      dup3\n        /* \"#utility.yul\":7838:7875   */\n      mstore\n        /* \"#utility.yul\":7763:7881   */\n      pop\n      pop\n      jump\t// out\n        /* \"#utility.yul\":7917:8649   */\n    tag_810:\n        /* \"#utility.yul\":8036:8039   */\n      0x00\n        /* \"#utility.yul\":8065:8119   */\n      tag_812\n        /* \"#utility.yul\":8113:8118   */\n      dup3\n        /* \"#utility.yul\":8065:8119   */\n      tag_813\n      jump\t// in\n    tag_812:\n        /* \"#utility.yul\":8135:8221   */\n      tag_814\n        /* \"#utility.yul\":8214:8220   */\n      dup2\n        /* \"#utility.yul\":8209:8212   */\n      dup6\n        /* \"#utility.yul\":8135:8221   */\n      tag_815\n      jump\t// in\n    tag_814:\n        /* \"#utility.yul\":8128:8221   */\n      swap4\n      pop\n        /* \"#utility.yul\":8245:8301   */\n      tag_816\n        /* \"#utility.yul\":8295:8300   */\n      dup4\n        /* \"#utility.yul\":8245:8301   */\n      tag_817\n      jump\t// in\n    tag_816:\n        /* \"#utility.yul\":8324:8331   */\n      dup1\n        /* \"#utility.yul\":8355:8356   */\n      0x00\n        /* \"#utility.yul\":8340:8624   */\n    tag_818:\n        /* \"#utility.yul\":8365:8371   */\n      dup4\n        /* \"#utility.yul\":8362:8363   */\n      dup2\n        /* \"#utility.yul\":8359:8372   */\n      lt\n        /* \"#utility.yul\":8340:8624   */\n      iszero\n      tag_820\n      jumpi\n        /* \"#utility.yul\":8441:8447   */\n      dup2\n        /* \"#utility.yul\":8435:8448   */\n      mload\n        /* \"#utility.yul\":8468:8531   */\n      tag_821\n        /* \"#utility.yul\":8527:8530   */\n      dup9\n        /* \"#utility.yul\":8512:8525   */\n      dup3\n        /* \"#utility.yul\":8468:8531   */\n      tag_802\n      jump\t// in\n    tag_821:\n        /* \"#utility.yul\":8461:8531   */\n      swap8\n      pop\n        /* \"#utility.yul\":8554:8614   */\n      tag_822\n        /* \"#utility.yul\":8607:8613   */\n      dup4\n        /* \"#utility.yul\":8554:8614   */\n      tag_823\n      jump\t// in\n    tag_822:\n        /* \"#utility.yul\":8544:8614   */\n      swap3\n      pop\n        /* \"#utility.yul\":8400:8624   */\n      pop\n        /* \"#utility.yul\":8387:8388   */\n      0x01\n        /* \"#utility.yul\":8384:8385   */\n      dup2\n        /* \"#utility.yul\":8380:8389   */\n      add\n        /* \"#utility.yul\":8375:8389   */\n      swap1\n      pop\n        /* \"#utility.yul\":8340:8624   */\n      jump(tag_818)\n    tag_820:\n        /* \"#utility.yul\":8344:8358   */\n      pop\n        /* \"#utility.yul\":8640:8643   */\n      dup6\n        /* \"#utility.yul\":8633:8643   */\n      swap4\n      pop\n        /* \"#utility.yul\":8041:8649   */\n      pop\n      pop\n      pop\n        /* \"#utility.yul\":7917:8649   */\n      swap3\n      swap2\n      pop\n      pop\n      jump\t// out\n        /* \"#utility.yul\":8655:8764   */\n    tag_824:\n        /* \"#utility.yul\":8736:8757   */\n      tag_826\n        /* \"#utility.yul\":8751:8756   */\n      dup2\n        /* \"#utility.yul\":8736:8757   */\n      tag_827\n      jump\t// in\n    tag_826:\n        /* \"#utility.yul\":8731:8734   */\n      dup3\n        /* \"#utility.yul\":8724:8758   */\n      mstore\n        /* \"#utility.yul\":8655:8764   */\n      pop\n      pop\n      jump\t// out\n        /* \"#utility.yul\":8770:8929   */\n    tag_828:\n        /* \"#utility.yul\":8871:8922   */\n      tag_830\n        /* \"#utility.yul\":8916:8921   */\n      dup2\n        /* \"#utility.yul\":8871:8922   */\n      tag_831\n      jump\t// in\n    tag_830:\n        /* \"#utility.yul\":8866:8869   */\n      dup3\n        /* \"#utility.yul\":8859:8923   */\n      mstore\n        /* \"#utility.yul\":8770:8929   */\n      pop\n      pop\n      jump\t// out\n        /* \"#utility.yul\":8935:9299   */\n    tag_832:\n        /* \"#utility.yul\":9023:9026   */\n      0x00\n        /* \"#utility.yul\":9051:9090   */\n      tag_834\n        /* \"#utility.yul\":9084:9089   */\n      dup3\n        /* \"#utility.yul\":9051:9090   */\n      tag_835\n      jump\t// in\n    tag_834:\n        /* \"#utility.yul\":9106:9177   */\n      tag_836\n        /* \"#utility.yul\":9170:9176   */\n      dup2\n        /* \"#utility.yul\":9165:9168   */\n      dup6\n        /* \"#utility.yul\":9106:9177   */\n      tag_837\n      jump\t// in\n    tag_836:\n        /* \"#utility.yul\":9099:9177   */\n      swap4\n      pop\n        /* \"#utility.yul\":9186:9238   */\n      tag_838\n        /* \"#utility.yul\":9231:9237   */\n      dup2\n        /* \"#utility.yul\":9226:9229   */\n      dup6\n        /* \"#utility.yul\":9219:9223   */\n      0x20\n        /* \"#utility.yul\":9212:9217   */\n      dup7\n        /* \"#utility.yul\":9208:9224   */\n      add\n        /* \"#utility.yul\":9186:9238   */\n      tag_839\n      jump\t// in\n    tag_838:\n        /* \"#utility.yul\":9263:9292   */\n      tag_840\n        /* \"#utility.yul\":9285:9291   */\n      dup2\n        /* \"#utility.yul\":9263:9292   */\n      tag_841\n      jump\t// in\n    tag_840:\n        /* \"#utility.yul\":9258:9261   */\n      dup5\n        /* \"#utility.yul\":9254:9293   */\n      add\n        /* \"#utility.yul\":9247:9293   */\n      swap2\n      pop\n        /* \"#utility.yul\":9027:9299   */\n      pop\n        /* \"#utility.yul\":8935:9299   */\n      swap3\n      swap2\n      pop\n      pop\n      jump\t// out\n        /* \"#utility.yul\":9305:9671   */\n    tag_842:\n        /* \"#utility.yul\":9447:9450   */\n      0x00\n        /* \"#utility.yul\":9468:9535   */\n      tag_844\n        /* \"#utility.yul\":9532:9534   */\n      0x11\n        /* \"#utility.yul\":9527:9530   */\n      dup4\n        /* \"#utility.yul\":9468:9535   */\n      tag_837\n      jump\t// in\n    tag_844:\n        /* \"#utility.yul\":9461:9535   */\n      swap2\n      pop\n        /* \"#utility.yul\":9544:9637   */\n      tag_845\n        /* \"#utility.yul\":9633:9636   */\n      dup3\n        /* \"#utility.yul\":9544:9637   */\n      tag_846\n      jump\t// in\n    tag_845:\n        /* \"#utility.yul\":9662:9664   */\n      0x20\n        /* \"#utility.yul\":9657:9660   */\n      dup3\n        /* \"#utility.yul\":9653:9665   */\n      add\n        /* \"#utility.yul\":9646:9665   */\n      swap1\n      pop\n        /* \"#utility.yul\":9305:9671   */\n      swap2\n      swap1\n      pop\n      jump\t// out\n        /* \"#utility.yul\":9677:10043   */\n    tag_847:\n        /* \"#utility.yul\":9819:9822   */\n      0x00\n        /* \"#utility.yul\":9840:9907   */\n      tag_849\n        /* \"#utility.yul\":9904:9906   */\n      0x2d\n        /* \"#utility.yul\":9899:9902   */\n      dup4\n        /* \"#utility.yul\":9840:9907   */\n      tag_837\n      jump\t// in\n    tag_849:\n        /* \"#utility.yul\":9833:9907   */\n      swap2\n      pop\n        /* \"#utility.yul\":9916:10009   */\n      tag_850\n        /* \"#utility.yul\":10005:10008   */\n      dup3\n        /* \"#utility.yul\":9916:10009   */\n      tag_851\n      jump\t// in\n    tag_850:\n        /* \"#utility.yul\":10034:10036   */\n      0x40\n        /* \"#utility.yul\":10029:10032   */\n      dup3\n        /* \"#utility.yul\":10025:10037   */\n      add\n        /* \"#utility.yul\":10018:10037   */\n      swap1\n      pop\n        /* \"#utility.yul\":9677:10043   */\n      swap2\n      swap1\n      pop\n      jump\t// out\n        /* \"#utility.yul\":10049:10415   */\n    tag_852:\n        /* \"#utility.yul\":10191:10194   */\n      0x00\n        /* \"#utility.yul\":10212:10279   */\n      tag_854\n        /* \"#utility.yul\":10276:10278   */\n      0x39\n        /* \"#utility.yul\":10271:10274   */\n      dup4\n        /* \"#utility.yul\":10212:10279   */\n      tag_837\n      jump\t// in\n    tag_854:\n        /* \"#utility.yul\":10205:10279   */\n      swap2\n      pop\n        /* \"#utility.yul\":10288:10381   */\n      tag_855\n        /* \"#utility.yul\":10377:10380   */\n      dup3\n        /* \"#utility.yul\":10288:10381   */\n      tag_856\n      jump\t// in\n    tag_855:\n        /* \"#utility.yul\":10406:10408   */\n      0x40\n        /* \"#utility.yul\":10401:10404   */\n      dup3\n        /* \"#utility.yul\":10397:10409   */\n      add\n        /* \"#utility.yul\":10390:10409   */\n      swap1\n      pop\n        /* \"#utility.yul\":10049:10415   */\n      swap2\n      swap1\n      pop\n      jump\t// out\n        /* \"#utility.yul\":10421:10787   */\n    tag_857:\n        /* \"#utility.yul\":10563:10566   */\n      0x00\n        /* \"#utility.yul\":10584:10651   */\n      tag_859\n        /* \"#utility.yul\":10648:10650   */\n      0x2a\n        /* \"#utility.yul\":10643:10646   */\n      dup4\n        /* \"#utility.yul\":10584:10651   */\n      tag_837\n      jump\t// in\n    tag_859:\n        /* \"#utility.yul\":10577:10651   */\n      swap2\n      pop\n        /* \"#utility.yul\":10660:10753   */\n      tag_860\n        /* \"#utility.yul\":10749:10752   */\n      dup3\n        /* \"#utility.yul\":10660:10753   */\n      tag_861\n      jump\t// in\n    tag_860:\n        /* \"#utility.yul\":10778:10780   */\n      0x40\n        /* \"#utility.yul\":10773:10776   */\n      dup3\n        /* \"#utility.yul\":10769:10781   */\n      add\n        /* \"#utility.yul\":10762:10781   */\n      swap1\n      pop\n        /* \"#utility.yul\":10421:10787   */\n      swap2\n      swap1\n      pop\n      jump\t// out\n        /* \"#utility.yul\":10793:11159   */\n    tag_862:\n        /* \"#utility.yul\":10935:10938   */\n      0x00\n        /* \"#utility.yul\":10956:11023   */\n      tag_864\n        /* \"#utility.yul\":11020:11022   */\n      0x24\n        /* \"#utility.yul\":11015:11018   */\n      dup4\n        /* \"#utility.yul\":10956:11023   */\n      tag_837\n      jump\t// in\n    tag_864:\n        /* \"#utility.yul\":10949:11023   */\n      swap2\n      pop\n        /* \"#utility.yul\":11032:11125   */\n      tag_865\n        /* \"#utility.yul\":11121:11124   */\n      dup3\n        /* \"#utility.yul\":11032:11125   */\n      tag_866\n      jump\t// in\n    tag_865:\n        /* \"#utility.yul\":11150:11152   */\n      0x40\n        /* \"#utility.yul\":11145:11148   */\n      dup3\n        /* \"#utility.yul\":11141:11153   */\n      add\n        /* \"#utility.yul\":11134:11153   */\n      swap1\n      pop\n        /* \"#utility.yul\":10793:11159   */\n      swap2\n      swap1\n      pop\n      jump\t// out\n        /* \"#utility.yul\":11165:11531   */\n    tag_867:\n        /* \"#utility.yul\":11307:11310   */\n      0x00\n        /* \"#utility.yul\":11328:11395   */\n      tag_869\n        /* \"#utility.yul\":11392:11394   */\n      0x26\n        /* \"#utility.yul\":11387:11390   */\n      dup4\n        /* \"#utility.yul\":11328:11395   */\n      tag_837\n      jump\t// in\n    tag_869:\n        /* \"#utility.yul\":11321:11395   */\n      swap2\n      pop\n        /* \"#utility.yul\":11404:11497   */\n      tag_870\n        /* \"#utility.yul\":11493:11496   */\n      dup3\n        /* \"#utility.yul\":11404:11497   */\n      tag_871\n      jump\t// in\n    tag_870:\n        /* \"#utility.yul\":11522:11524   */\n      0x40\n        /* \"#utility.yul\":11517:11520   */\n      dup3\n        /* \"#utility.yul\":11513:11525   */\n      add\n        /* \"#utility.yul\":11506:11525   */\n      swap1\n      pop\n        /* \"#utility.yul\":11165:11531   */\n      swap2\n      swap1\n      pop\n      jump\t// out\n        /* \"#utility.yul\":11537:11903   */\n    tag_872:\n        /* \"#utility.yul\":11679:11682   */\n      0x00\n        /* \"#utility.yul\":11700:11767   */\n      tag_874\n        /* \"#utility.yul\":11764:11766   */\n      0x28\n        /* \"#utility.yul\":11759:11762   */\n      dup4\n        /* \"#utility.yul\":11700:11767   */\n      tag_837\n      jump\t// in\n    tag_874:\n        /* \"#utility.yul\":11693:11767   */\n      swap2\n      pop\n        /* \"#utility.yul\":11776:11869   */\n      tag_875\n        /* \"#utility.yul\":11865:11868   */\n      dup3\n        /* \"#utility.yul\":11776:11869   */\n      tag_876\n      jump\t// in\n    tag_875:\n        /* \"#utility.yul\":11894:11896   */\n      0x40\n        /* \"#utility.yul\":11889:11892   */\n      dup3\n        /* \"#utility.yul\":11885:11897   */\n      add\n        /* \"#utility.yul\":11878:11897   */\n      swap1\n      pop\n        /* \"#utility.yul\":11537:11903   */\n      swap2\n      swap1\n      pop\n      jump\t// out\n        /* \"#utility.yul\":11909:12275   */\n    tag_877:\n        /* \"#utility.yul\":12051:12054   */\n      0x00\n        /* \"#utility.yul\":12072:12139   */\n      tag_879\n        /* \"#utility.yul\":12136:12138   */\n      0x31\n        /* \"#utility.yul\":12131:12134   */\n      dup4\n        /* \"#utility.yul\":12072:12139   */\n      tag_837\n      jump\t// in\n    tag_879:\n        /* \"#utility.yul\":12065:12139   */\n      swap2\n      pop\n        /* \"#utility.yul\":12148:12241   */\n      tag_880\n        /* \"#utility.yul\":12237:12240   */\n      dup3\n        /* \"#utility.yul\":12148:12241   */\n      tag_881\n      jump\t// in\n    tag_880:\n        /* \"#utility.yul\":12266:12268   */\n      0x40\n        /* \"#utility.yul\":12261:12264   */\n      dup3\n        /* \"#utility.yul\":12257:12269   */\n      add\n        /* \"#utility.yul\":12250:12269   */\n      swap1\n      pop\n        /* \"#utility.yul\":11909:12275   */\n      swap2\n      swap1\n      pop\n      jump\t// out\n        /* \"#utility.yul\":12281:12647   */\n    tag_882:\n        /* \"#utility.yul\":12423:12426   */\n      0x00\n        /* \"#utility.yul\":12444:12511   */\n      tag_884\n        /* \"#utility.yul\":12508:12510   */\n      0x41\n        /* \"#utility.yul\":12503:12506   */\n      dup4\n        /* \"#utility.yul\":12444:12511   */\n      tag_837\n      jump\t// in\n    tag_884:\n        /* \"#utility.yul\":12437:12511   */\n      swap2\n      pop\n        /* \"#utility.yul\":12520:12613   */\n      tag_885\n        /* \"#utility.yul\":12609:12612   */\n      dup3\n        /* \"#utility.yul\":12520:12613   */\n      tag_886\n      jump\t// in\n    tag_885:\n        /* \"#utility.yul\":12638:12640   */\n      0x60\n        /* \"#utility.yul\":12633:12636   */\n      dup3\n        /* \"#utility.yul\":12629:12641   */\n      add\n        /* \"#utility.yul\":12622:12641   */\n      swap1\n      pop\n        /* \"#utility.yul\":12281:12647   */\n      swap2\n      swap1\n      pop\n      jump\t// out\n        /* \"#utility.yul\":12653:13019   */\n    tag_887:\n        /* \"#utility.yul\":12795:12798   */\n      0x00\n        /* \"#utility.yul\":12816:12883   */\n      tag_889\n        /* \"#utility.yul\":12880:12882   */\n      0x19\n        /* \"#utility.yul\":12875:12878   */\n      dup4\n        /* \"#utility.yul\":12816:12883   */\n      tag_837\n      jump\t// in\n    tag_889:\n        /* \"#utility.yul\":12809:12883   */\n      swap2\n      pop\n        /* \"#utility.yul\":12892:12985   */\n      tag_890\n        /* \"#utility.yul\":12981:12984   */\n      dup3\n        /* \"#utility.yul\":12892:12985   */\n      tag_891\n      jump\t// in\n    tag_890:\n        /* \"#utility.yul\":13010:13012   */\n      0x20\n        /* \"#utility.yul\":13005:13008   */\n      dup3\n        /* \"#utility.yul\":13001:13013   */\n      add\n        /* \"#utility.yul\":12994:13013   */\n      swap1\n      pop\n        /* \"#utility.yul\":12653:13019   */\n      swap2\n      swap1\n      pop\n      jump\t// out\n        /* \"#utility.yul\":13025:13391   */\n    tag_892:\n        /* \"#utility.yul\":13167:13170   */\n      0x00\n        /* \"#utility.yul\":13188:13255   */\n      tag_894\n        /* \"#utility.yul\":13252:13254   */\n      0x3e\n        /* \"#utility.yul\":13247:13250   */\n      dup4\n        /* \"#utility.yul\":13188:13255   */\n      tag_837\n      jump\t// in\n    tag_894:\n        /* \"#utility.yul\":13181:13255   */\n      swap2\n      pop\n        /* \"#utility.yul\":13264:13357   */\n      tag_895\n        /* \"#utility.yul\":13353:13356   */\n      dup3\n        /* \"#utility.yul\":13264:13357   */\n      tag_896\n      jump\t// in\n    tag_895:\n        /* \"#utility.yul\":13382:13384   */\n      0x40\n        /* \"#utility.yul\":13377:13380   */\n      dup3\n        /* \"#utility.yul\":13373:13385   */\n      add\n        /* \"#utility.yul\":13366:13385   */\n      swap1\n      pop\n        /* \"#utility.yul\":13025:13391   */\n      swap2\n      swap1\n      pop\n      jump\t// out\n        /* \"#utility.yul\":13397:13763   */\n    tag_897:\n        /* \"#utility.yul\":13539:13542   */\n      0x00\n        /* \"#utility.yul\":13560:13627   */\n      tag_899\n        /* \"#utility.yul\":13624:13626   */\n      0x26\n        /* \"#utility.yul\":13619:13622   */\n      dup4\n        /* \"#utility.yul\":13560:13627   */\n      tag_837\n      jump\t// in\n    tag_899:\n        /* \"#utility.yul\":13553:13627   */\n      swap2\n      pop\n        /* \"#utility.yul\":13636:13729   */\n      tag_900\n        /* \"#utility.yul\":13725:13728   */\n      dup3\n        /* \"#utility.yul\":13636:13729   */\n      tag_901\n      jump\t// in\n    tag_900:\n        /* \"#utility.yul\":13754:13756   */\n      0x40\n        /* \"#utility.yul\":13749:13752   */\n      dup3\n        /* \"#utility.yul\":13745:13757   */\n      add\n        /* \"#utility.yul\":13738:13757   */\n      swap1\n      pop\n        /* \"#utility.yul\":13397:13763   */\n      swap2\n      swap1\n      pop\n      jump\t// out\n        /* \"#utility.yul\":13769:14135   */\n    tag_902:\n        /* \"#utility.yul\":13911:13914   */\n      0x00\n        /* \"#utility.yul\":13932:13999   */\n      tag_904\n        /* \"#utility.yul\":13996:13998   */\n      0x23\n        /* \"#utility.yul\":13991:13994   */\n      dup4\n        /* \"#utility.yul\":13932:13999   */\n      tag_837\n      jump\t// in\n    tag_904:\n        /* \"#utility.yul\":13925:13999   */\n      swap2\n      pop\n        /* \"#utility.yul\":14008:14101   */\n      tag_905\n        /* \"#utility.yul\":14097:14100   */\n      dup3\n        /* \"#utility.yul\":14008:14101   */\n      tag_906\n      jump\t// in\n    tag_905:\n        /* \"#utility.yul\":14126:14128   */\n      0x40\n        /* \"#utility.yul\":14121:14124   */\n      dup3\n        /* \"#utility.yul\":14117:14129   */\n      add\n        /* \"#utility.yul\":14110:14129   */\n      swap1\n      pop\n        /* \"#utility.yul\":13769:14135   */\n      swap2\n      swap1\n      pop\n      jump\t// out\n        /* \"#utility.yul\":14141:14507   */\n    tag_907:\n        /* \"#utility.yul\":14283:14286   */\n      0x00\n        /* \"#utility.yul\":14304:14371   */\n      tag_909\n        /* \"#utility.yul\":14368:14370   */\n      0x25\n        /* \"#utility.yul\":14363:14366   */\n      dup4\n        /* \"#utility.yul\":14304:14371   */\n      tag_837\n      jump\t// in\n    tag_909:\n        /* \"#utility.yul\":14297:14371   */\n      swap2\n      pop\n        /* \"#utility.yul\":14380:14473   */\n      tag_910\n        /* \"#utility.yul\":14469:14472   */\n      dup3\n        /* \"#utility.yul\":14380:14473   */\n      tag_911\n      jump\t// in\n    tag_910:\n        /* \"#utility.yul\":14498:14500   */\n      0x40\n        /* \"#utility.yul\":14493:14496   */\n      dup3\n        /* \"#utility.yul\":14489:14501   */\n      add\n        /* \"#utility.yul\":14482:14501   */\n      swap1\n      pop\n        /* \"#utility.yul\":14141:14507   */\n      swap2\n      swap1\n      pop\n      jump\t// out\n        /* \"#utility.yul\":14513:14879   */\n    tag_912:\n        /* \"#utility.yul\":14655:14658   */\n      0x00\n        /* \"#utility.yul\":14676:14743   */\n      tag_914\n        /* \"#utility.yul\":14740:14742   */\n      0x28\n        /* \"#utility.yul\":14735:14738   */\n      dup4\n        /* \"#utility.yul\":14676:14743   */\n      tag_837\n      jump\t// in\n    tag_914:\n        /* \"#utility.yul\":14669:14743   */\n      swap2\n      pop\n        /* \"#utility.yul\":14752:14845   */\n      tag_915\n        /* \"#utility.yul\":14841:14844   */\n      dup3\n        /* \"#utility.yul\":14752:14845   */\n      tag_916\n      jump\t// in\n    tag_915:\n        /* \"#utility.yul\":14870:14872   */\n      0x40\n        /* \"#utility.yul\":14865:14868   */\n      dup3\n        /* \"#utility.yul\":14861:14873   */\n      add\n        /* \"#utility.yul\":14854:14873   */\n      swap1\n      pop\n        /* \"#utility.yul\":14513:14879   */\n      swap2\n      swap1\n      pop\n      jump\t// out\n        /* \"#utility.yul\":14885:15251   */\n    tag_917:\n        /* \"#utility.yul\":15027:15030   */\n      0x00\n        /* \"#utility.yul\":15048:15115   */\n      tag_919\n        /* \"#utility.yul\":15112:15114   */\n      0x20\n        /* \"#utility.yul\":15107:15110   */\n      dup4\n        /* \"#utility.yul\":15048:15115   */\n      tag_837\n      jump\t// in\n    tag_919:\n        /* \"#utility.yul\":15041:15115   */\n      swap2\n      pop\n        /* \"#utility.yul\":15124:15217   */\n      tag_920\n        /* \"#utility.yul\":15213:15216   */\n      dup3\n        /* \"#utility.yul\":15124:15217   */\n      tag_921\n      jump\t// in\n    tag_920:\n        /* \"#utility.yul\":15242:15244   */\n      0x20\n        /* \"#utility.yul\":15237:15240   */\n      dup3\n        /* \"#utility.yul\":15233:15245   */\n      add\n        /* \"#utility.yul\":15226:15245   */\n      swap1\n      pop\n        /* \"#utility.yul\":14885:15251   */\n      swap2\n      swap1\n      pop\n      jump\t// out\n        /* \"#utility.yul\":15257:15623   */\n    tag_922:\n        /* \"#utility.yul\":15399:15402   */\n      0x00\n        /* \"#utility.yul\":15420:15487   */\n      tag_924\n        /* \"#utility.yul\":15484:15486   */\n      0x1c\n        /* \"#utility.yul\":15479:15482   */\n      dup4\n        /* \"#utility.yul\":15420:15487   */\n      tag_837\n      jump\t// in\n    tag_924:\n        /* \"#utility.yul\":15413:15487   */\n      swap2\n      pop\n        /* \"#utility.yul\":15496:15589   */\n      tag_925\n        /* \"#utility.yul\":15585:15588   */\n      dup3\n        /* \"#utility.yul\":15496:15589   */\n      tag_926\n      jump\t// in\n    tag_925:\n        /* \"#utility.yul\":15614:15616   */\n      0x20\n        /* \"#utility.yul\":15609:15612   */\n      dup3\n        /* \"#utility.yul\":15605:15617   */\n      add\n        /* \"#utility.yul\":15598:15617   */\n      swap1\n      pop\n        /* \"#utility.yul\":15257:15623   */\n      swap2\n      swap1\n      pop\n      jump\t// out\n        /* \"#utility.yul\":15629:15995   */\n    tag_927:\n        /* \"#utility.yul\":15771:15774   */\n      0x00\n        /* \"#utility.yul\":15792:15859   */\n      tag_929\n        /* \"#utility.yul\":15856:15858   */\n      0x2c\n        /* \"#utility.yul\":15851:15854   */\n      dup4\n        /* \"#utility.yul\":15792:15859   */\n      tag_837\n      jump\t// in\n    tag_929:\n        /* \"#utility.yul\":15785:15859   */\n      swap2\n      pop\n        /* \"#utility.yul\":15868:15961   */\n      tag_930\n        /* \"#utility.yul\":15957:15960   */\n      dup3\n        /* \"#utility.yul\":15868:15961   */\n      tag_931\n      jump\t// in\n    tag_930:\n        /* \"#utility.yul\":15986:15988   */\n      0x40\n        /* \"#utility.yul\":15981:15984   */\n      dup3\n        /* \"#utility.yul\":15977:15989   */\n      add\n        /* \"#utility.yul\":15970:15989   */\n      swap1\n      pop\n        /* \"#utility.yul\":15629:15995   */\n      swap2\n      swap1\n      pop\n      jump\t// out\n        /* \"#utility.yul\":16001:16109   */\n    tag_805:\n        /* \"#utility.yul\":16078:16102   */\n      tag_933\n        /* \"#utility.yul\":16096:16101   */\n      dup2\n        /* \"#utility.yul\":16078:16102   */\n      tag_934\n      jump\t// in\n    tag_933:\n        /* \"#utility.yul\":16073:16076   */\n      dup3\n        /* \"#utility.yul\":16066:16103   */\n      mstore\n        /* \"#utility.yul\":16001:16109   */\n      pop\n      pop\n      jump\t// out\n        /* \"#utility.yul\":16115:16233   */\n    tag_935:\n        /* \"#utility.yul\":16202:16226   */\n      tag_937\n        /* \"#utility.yul\":16220:16225   */\n      dup2\n        /* \"#utility.yul\":16202:16226   */\n      tag_934\n      jump\t// in\n    tag_937:\n        /* \"#utility.yul\":16197:16200   */\n      dup3\n        /* \"#utility.yul\":16190:16227   */\n      mstore\n        /* \"#utility.yul\":16115:16233   */\n      pop\n      pop\n      jump\t// out\n        /* \"#utility.yul\":16239:16461   */\n    tag_86:\n        /* \"#utility.yul\":16332:16336   */\n      0x00\n        /* \"#utility.yul\":16370:16372   */\n      0x20\n        /* \"#utility.yul\":16359:16368   */\n      dup3\n        /* \"#utility.yul\":16355:16373   */\n      add\n        /* \"#utility.yul\":16347:16373   */\n      swap1\n      pop\n        /* \"#utility.yul\":16383:16454   */\n      tag_939\n        /* \"#utility.yul\":16451:16452   */\n      0x00\n        /* \"#utility.yul\":16440:16449   */\n      dup4\n        /* \"#utility.yul\":16436:16453   */\n      add\n        /* \"#utility.yul\":16427:16433   */\n      dup5\n        /* \"#utility.yul\":16383:16454   */\n      tag_806\n      jump\t// in\n    tag_939:\n        /* \"#utility.yul\":16239:16461   */\n      swap3\n      swap2\n      pop\n      pop\n      jump\t// out\n        /* \"#utility.yul\":16467:17624   */\n    tag_76:\n        /* \"#utility.yul\":16844:16848   */\n      0x00\n        /* \"#utility.yul\":16882:16885   */\n      0x80\n        /* \"#utility.yul\":16871:16880   */\n      dup3\n        /* \"#utility.yul\":16867:16886   */\n      add\n        /* \"#utility.yul\":16859:16886   */\n      swap1\n      pop\n        /* \"#utility.yul\":16932:16941   */\n      dup2\n        /* \"#utility.yul\":16926:16930   */\n      dup2\n        /* \"#utility.yul\":16922:16942   */\n      sub\n        /* \"#utility.yul\":16918:16919   */\n      0x00\n        /* \"#utility.yul\":16907:16916   */\n      dup4\n        /* \"#utility.yul\":16903:16920   */\n      add\n        /* \"#utility.yul\":16896:16943   */\n      mstore\n        /* \"#utility.yul\":16960:17068   */\n      tag_941\n        /* \"#utility.yul\":17063:17067   */\n      dup2\n        /* \"#utility.yul\":17054:17060   */\n      dup8\n        /* \"#utility.yul\":16960:17068   */\n      tag_810\n      jump\t// in\n    tag_941:\n        /* \"#utility.yul\":16952:17068   */\n      swap1\n      pop\n        /* \"#utility.yul\":17115:17124   */\n      dup2\n        /* \"#utility.yul\":17109:17113   */\n      dup2\n        /* \"#utility.yul\":17105:17125   */\n      sub\n        /* \"#utility.yul\":17100:17102   */\n      0x20\n        /* \"#utility.yul\":17089:17098   */\n      dup4\n        /* \"#utility.yul\":17085:17103   */\n      add\n        /* \"#utility.yul\":17078:17126   */\n      mstore\n        /* \"#utility.yul\":17143:17251   */\n      tag_942\n        /* \"#utility.yul\":17246:17250   */\n      dup2\n        /* \"#utility.yul\":17237:17243   */\n      dup7\n        /* \"#utility.yul\":17143:17251   */\n      tag_810\n      jump\t// in\n    tag_942:\n        /* \"#utility.yul\":17135:17251   */\n      swap1\n      pop\n        /* \"#utility.yul\":17298:17307   */\n      dup2\n        /* \"#utility.yul\":17292:17296   */\n      dup2\n        /* \"#utility.yul\":17288:17308   */\n      sub\n        /* \"#utility.yul\":17283:17285   */\n      0x40\n        /* \"#utility.yul\":17272:17281   */\n      dup4\n        /* \"#utility.yul\":17268:17286   */\n      add\n        /* \"#utility.yul\":17261:17309   */\n      mstore\n        /* \"#utility.yul\":17326:17434   */\n      tag_943\n        /* \"#utility.yul\":17429:17433   */\n      dup2\n        /* \"#utility.yul\":17420:17426   */\n      dup6\n        /* \"#utility.yul\":17326:17434   */\n      tag_810\n      jump\t// in\n    tag_943:\n        /* \"#utility.yul\":17318:17434   */\n      swap1\n      pop\n        /* \"#utility.yul\":17481:17490   */\n      dup2\n        /* \"#utility.yul\":17475:17479   */\n      dup2\n        /* \"#utility.yul\":17471:17491   */\n      sub\n        /* \"#utility.yul\":17466:17468   */\n      0x60\n        /* \"#utility.yul\":17455:17464   */\n      dup4\n        /* \"#utility.yul\":17451:17469   */\n      add\n        /* \"#utility.yul\":17444:17492   */\n      mstore\n        /* \"#utility.yul\":17509:17617   */\n      tag_944\n        /* \"#utility.yul\":17612:17616   */\n      dup2\n        /* \"#utility.yul\":17603:17609   */\n      dup5\n        /* \"#utility.yul\":17509:17617   */\n      tag_810\n      jump\t// in\n    tag_944:\n        /* \"#utility.yul\":17501:17617   */\n      swap1\n      pop\n        /* \"#utility.yul\":16467:17624   */\n      swap6\n      swap5\n      pop\n      pop\n      pop\n      pop\n      pop\n      jump\t// out\n        /* \"#utility.yul\":17630:17880   */\n    tag_45:\n        /* \"#utility.yul\":17737:17741   */\n      0x00\n        /* \"#utility.yul\":17775:17777   */\n      0x20\n        /* \"#utility.yul\":17764:17773   */\n      dup3\n        /* \"#utility.yul\":17760:17778   */\n      add\n        /* \"#utility.yul\":17752:17778   */\n      swap1\n      pop\n        /* \"#utility.yul\":17788:17873   */\n      tag_946\n        /* \"#utility.yul\":17870:17871   */\n      0x00\n        /* \"#utility.yul\":17859:17868   */\n      dup4\n        /* \"#utility.yul\":17855:17872   */\n      add\n        /* \"#utility.yul\":17846:17852   */\n      dup5\n        /* \"#utility.yul\":17788:17873   */\n      tag_828\n      jump\t// in\n    tag_946:\n        /* \"#utility.yul\":17630:17880   */\n      swap3\n      swap2\n      pop\n      pop\n      jump\t// out\n        /* \"#utility.yul\":17886:18199   */\n    tag_70:\n        /* \"#utility.yul\":17999:18003   */\n      0x00\n        /* \"#utility.yul\":18037:18039   */\n      0x20\n        /* \"#utility.yul\":18026:18035   */\n      dup3\n        /* \"#utility.yul\":18022:18040   */\n      add\n        /* \"#utility.yul\":18014:18040   */\n      swap1\n      pop\n        /* \"#utility.yul\":18086:18095   */\n      dup2\n        /* \"#utility.yul\":18080:18084   */\n      dup2\n        /* \"#utility.yul\":18076:18096   */\n      sub\n        /* \"#utility.yul\":18072:18073   */\n      0x00\n        /* \"#utility.yul\":18061:18070   */\n      dup4\n        /* \"#utility.yul\":18057:18074   */\n      add\n        /* \"#utility.yul\":18050:18097   */\n      mstore\n        /* \"#utility.yul\":18114:18192   */\n      tag_948\n        /* \"#utility.yul\":18187:18191   */\n      dup2\n        /* \"#utility.yul\":18178:18184   */\n      dup5\n        /* \"#utility.yul\":18114:18192   */\n      tag_832\n      jump\t// in\n    tag_948:\n        /* \"#utility.yul\":18106:18192   */\n      swap1\n      pop\n        /* \"#utility.yul\":17886:18199   */\n      swap3\n      swap2\n      pop\n      pop\n      jump\t// out\n        /* \"#utility.yul\":18205:18624   */\n    tag_136:\n        /* \"#utility.yul\":18371:18375   */\n      0x00\n        /* \"#utility.yul\":18409:18411   */\n      0x20\n        /* \"#utility.yul\":18398:18407   */\n      dup3\n        /* \"#utility.yul\":18394:18412   */\n      add\n        /* \"#utility.yul\":18386:18412   */\n      swap1\n      pop\n        /* \"#utility.yul\":18458:18467   */\n      dup2\n        /* \"#utility.yul\":18452:18456   */\n      dup2\n        /* \"#utility.yul\":18448:18468   */\n      sub\n        /* \"#utility.yul\":18444:18445   */\n      0x00\n        /* \"#utility.yul\":18433:18442   */\n      dup4\n        /* \"#utility.yul\":18429:18446   */\n      add\n        /* \"#utility.yul\":18422:18469   */\n      mstore\n        /* \"#utility.yul\":18486:18617   */\n      tag_950\n        /* \"#utility.yul\":18612:18616   */\n      dup2\n        /* \"#utility.yul\":18486:18617   */\n      tag_842\n      jump\t// in\n    tag_950:\n        /* \"#utility.yul\":18478:18617   */\n      swap1\n      pop\n        /* \"#utility.yul\":18205:18624   */\n      swap2\n      swap1\n      pop\n      jump\t// out\n        /* \"#utility.yul\":18630:19049   */\n    tag_470:\n        /* \"#utility.yul\":18796:18800   */\n      0x00\n        /* \"#utility.yul\":18834:18836   */\n      0x20\n        /* \"#utility.yul\":18823:18832   */\n      dup3\n        /* \"#utility.yul\":18819:18837   */\n      add\n        /* \"#utility.yul\":18811:18837   */\n      swap1\n      pop\n        /* \"#utility.yul\":18883:18892   */\n      dup2\n        /* \"#utility.yul\":18877:18881   */\n      dup2\n        /* \"#utility.yul\":18873:18893   */\n      sub\n        /* \"#utility.yul\":18869:18870   */\n      0x00\n        /* \"#utility.yul\":18858:18867   */\n      dup4\n        /* \"#utility.yul\":18854:18871   */\n      add\n        /* \"#utility.yul\":18847:18894   */\n      mstore\n        /* \"#utility.yul\":18911:19042   */\n      tag_952\n        /* \"#utility.yul\":19037:19041   */\n      dup2\n        /* \"#utility.yul\":18911:19042   */\n      tag_847\n      jump\t// in\n    tag_952:\n        /* \"#utility.yul\":18903:19042   */\n      swap1\n      pop\n        /* \"#utility.yul\":18630:19049   */\n      swap2\n      swap1\n      pop\n      jump\t// out\n        /* \"#utility.yul\":19055:19474   */\n    tag_542:\n        /* \"#utility.yul\":19221:19225   */\n      0x00\n        /* \"#utility.yul\":19259:19261   */\n      0x20\n        /* \"#utility.yul\":19248:19257   */\n      dup3\n        /* \"#utility.yul\":19244:19262   */\n      add\n        /* \"#utility.yul\":19236:19262   */\n      swap1\n      pop\n        /* \"#utility.yul\":19308:19317   */\n      dup2\n        /* \"#utility.yul\":19302:19306   */\n      dup2\n        /* \"#utility.yul\":19298:19318   */\n      sub\n        /* \"#utility.yul\":19294:19295   */\n      0x00\n        /* \"#utility.yul\":19283:19292   */\n      dup4\n        /* \"#utility.yul\":19279:19296   */\n      add\n        /* \"#utility.yul\":19272:19319   */\n      mstore\n        /* \"#utility.yul\":19336:19467   */\n      tag_954\n        /* \"#utility.yul\":19462:19466   */\n      dup2\n        /* \"#utility.yul\":19336:19467   */\n      tag_852\n      jump\t// in\n    tag_954:\n        /* \"#utility.yul\":19328:19467   */\n      swap1\n      pop\n        /* \"#utility.yul\":19055:19474   */\n      swap2\n      swap1\n      pop\n      jump\t// out\n        /* \"#utility.yul\":19480:19899   */\n    tag_573:\n        /* \"#utility.yul\":19646:19650   */\n      0x00\n        /* \"#utility.yul\":19684:19686   */\n      0x20\n        /* \"#utility.yul\":19673:19682   */\n      dup3\n        /* \"#utility.yul\":19669:19687   */\n      add\n        /* \"#utility.yul\":19661:19687   */\n      swap1\n      pop\n        /* \"#utility.yul\":19733:19742   */\n      dup2\n        /* \"#utility.yul\":19727:19731   */\n      dup2\n        /* \"#utility.yul\":19723:19743   */\n      sub\n        /* \"#utility.yul\":19719:19720   */\n      0x00\n        /* \"#utility.yul\":19708:19717   */\n      dup4\n        /* \"#utility.yul\":19704:19721   */\n      add\n        /* \"#utility.yul\":19697:19744   */\n      mstore\n        /* \"#utility.yul\":19761:19892   */\n      tag_956\n        /* \"#utility.yul\":19887:19891   */\n      dup2\n        /* \"#utility.yul\":19761:19892   */\n      tag_857\n      jump\t// in\n    tag_956:\n        /* \"#utility.yul\":19753:19892   */\n      swap1\n      pop\n        /* \"#utility.yul\":19480:19899   */\n      swap2\n      swap1\n      pop\n      jump\t// out\n        /* \"#utility.yul\":19905:20324   */\n    tag_425:\n        /* \"#utility.yul\":20071:20075   */\n      0x00\n        /* \"#utility.yul\":20109:20111   */\n      0x20\n        /* \"#utility.yul\":20098:20107   */\n      dup3\n        /* \"#utility.yul\":20094:20112   */\n      add\n        /* \"#utility.yul\":20086:20112   */\n      swap1\n      pop\n        /* \"#utility.yul\":20158:20167   */\n      dup2\n        /* \"#utility.yul\":20152:20156   */\n      dup2\n        /* \"#utility.yul\":20148:20168   */\n      sub\n        /* \"#utility.yul\":20144:20145   */\n      0x00\n        /* \"#utility.yul\":20133:20142   */\n      dup4\n        /* \"#utility.yul\":20129:20146   */\n      add\n        /* \"#utility.yul\":20122:20169   */\n      mstore\n        /* \"#utility.yul\":20186:20317   */\n      tag_958\n        /* \"#utility.yul\":20312:20316   */\n      dup2\n        /* \"#utility.yul\":20186:20317   */\n      tag_862\n      jump\t// in\n    tag_958:\n        /* \"#utility.yul\":20178:20317   */\n      swap1\n      pop\n        /* \"#utility.yul\":19905:20324   */\n      swap2\n      swap1\n      pop\n      jump\t// out\n        /* \"#utility.yul\":20330:20749   */\n    tag_497:\n        /* \"#utility.yul\":20496:20500   */\n      0x00\n        /* \"#utility.yul\":20534:20536   */\n      0x20\n        /* \"#utility.yul\":20523:20532   */\n      dup3\n        /* \"#utility.yul\":20519:20537   */\n      add\n        /* \"#utility.yul\":20511:20537   */\n      swap1\n      pop\n        /* \"#utility.yul\":20583:20592   */\n      dup2\n        /* \"#utility.yul\":20577:20581   */\n      dup2\n        /* \"#utility.yul\":20573:20593   */\n      sub\n        /* \"#utility.yul\":20569:20570   */\n      0x00\n        /* \"#utility.yul\":20558:20567   */\n      dup4\n        /* \"#utility.yul\":20554:20571   */\n      add\n        /* \"#utility.yul\":20547:20594   */\n      mstore\n        /* \"#utility.yul\":20611:20742   */\n      tag_960\n        /* \"#utility.yul\":20737:20741   */\n      dup2\n        /* \"#utility.yul\":20611:20742   */\n      tag_867\n      jump\t// in\n    tag_960:\n        /* \"#utility.yul\":20603:20742   */\n      swap1\n      pop\n        /* \"#utility.yul\":20330:20749   */\n      swap2\n      swap1\n      pop\n      jump\t// out\n        /* \"#utility.yul\":20755:21174   */\n    tag_395:\n        /* \"#utility.yul\":20921:20925   */\n      0x00\n        /* \"#utility.yul\":20959:20961   */\n      0x20\n        /* \"#utility.yul\":20948:20957   */\n      dup3\n        /* \"#utility.yul\":20944:20962   */\n      add\n        /* \"#utility.yul\":20936:20962   */\n      swap1\n      pop\n        /* \"#utility.yul\":21008:21017   */\n      dup2\n        /* \"#utility.yul\":21002:21006   */\n      dup2\n        /* \"#utility.yul\":20998:21018   */\n      sub\n        /* \"#utility.yul\":20994:20995   */\n      0x00\n        /* \"#utility.yul\":20983:20992   */\n      dup4\n        /* \"#utility.yul\":20979:20996   */\n      add\n        /* \"#utility.yul\":20972:21019   */\n      mstore\n        /* \"#utility.yul\":21036:21167   */\n      tag_962\n        /* \"#utility.yul\":21162:21166   */\n      dup2\n        /* \"#utility.yul\":21036:21167   */\n      tag_872\n      jump\t// in\n    tag_962:\n        /* \"#utility.yul\":21028:21167   */\n      swap1\n      pop\n        /* \"#utility.yul\":20755:21174   */\n      swap2\n      swap1\n      pop\n      jump\t// out\n        /* \"#utility.yul\":21180:21599   */\n    tag_562:\n        /* \"#utility.yul\":21346:21350   */\n      0x00\n        /* \"#utility.yul\":21384:21386   */\n      0x20\n        /* \"#utility.yul\":21373:21382   */\n      dup3\n        /* \"#utility.yul\":21369:21387   */\n      add\n        /* \"#utility.yul\":21361:21387   */\n      swap1\n      pop\n        /* \"#utility.yul\":21433:21442   */\n      dup2\n        /* \"#utility.yul\":21427:21431   */\n      dup2\n        /* \"#utility.yul\":21423:21443   */\n      sub\n        /* \"#utility.yul\":21419:21420   */\n      0x00\n        /* \"#utility.yul\":21408:21417   */\n      dup4\n        /* \"#utility.yul\":21404:21421   */\n      add\n        /* \"#utility.yul\":21397:21444   */\n      mstore\n        /* \"#utility.yul\":21461:21592   */\n      tag_964\n        /* \"#utility.yul\":21587:21591   */\n      dup2\n        /* \"#utility.yul\":21461:21592   */\n      tag_877\n      jump\t// in\n    tag_964:\n        /* \"#utility.yul\":21453:21592   */\n      swap1\n      pop\n        /* \"#utility.yul\":21180:21599   */\n      swap2\n      swap1\n      pop\n      jump\t// out\n        /* \"#utility.yul\":21605:22024   */\n    tag_361:\n        /* \"#utility.yul\":21771:21775   */\n      0x00\n        /* \"#utility.yul\":21809:21811   */\n      0x20\n        /* \"#utility.yul\":21798:21807   */\n      dup3\n        /* \"#utility.yul\":21794:21812   */\n      add\n        /* \"#utility.yul\":21786:21812   */\n      swap1\n      pop\n        /* \"#utility.yul\":21858:21867   */\n      dup2\n        /* \"#utility.yul\":21852:21856   */\n      dup2\n        /* \"#utility.yul\":21848:21868   */\n      sub\n        /* \"#utility.yul\":21844:21845   */\n      0x00\n        /* \"#utility.yul\":21833:21842   */\n      dup4\n        /* \"#utility.yul\":21829:21846   */\n      add\n        /* \"#utility.yul\":21822:21869   */\n      mstore\n        /* \"#utility.yul\":21886:22017   */\n      tag_966\n        /* \"#utility.yul\":22012:22016   */\n      dup2\n        /* \"#utility.yul\":21886:22017   */\n      tag_882\n      jump\t// in\n    tag_966:\n        /* \"#utility.yul\":21878:22017   */\n      swap1\n      pop\n        /* \"#utility.yul\":21605:22024   */\n      swap2\n      swap1\n      pop\n      jump\t// out\n        /* \"#utility.yul\":22030:22449   */\n    tag_133:\n        /* \"#utility.yul\":22196:22200   */\n      0x00\n        /* \"#utility.yul\":22234:22236   */\n      0x20\n        /* \"#utility.yul\":22223:22232   */\n      dup3\n        /* \"#utility.yul\":22219:22237   */\n      add\n        /* \"#utility.yul\":22211:22237   */\n      swap1\n      pop\n        /* \"#utility.yul\":22283:22292   */\n      dup2\n        /* \"#utility.yul\":22277:22281   */\n      dup2\n        /* \"#utility.yul\":22273:22293   */\n      sub\n        /* \"#utility.yul\":22269:22270   */\n      0x00\n        /* \"#utility.yul\":22258:22267   */\n      dup4\n        /* \"#utility.yul\":22254:22271   */\n      add\n        /* \"#utility.yul\":22247:22294   */\n      mstore\n        /* \"#utility.yul\":22311:22442   */\n      tag_968\n        /* \"#utility.yul\":22437:22441   */\n      dup2\n        /* \"#utility.yul\":22311:22442   */\n      tag_887\n      jump\t// in\n    tag_968:\n        /* \"#utility.yul\":22303:22442   */\n      swap1\n      pop\n        /* \"#utility.yul\":22030:22449   */\n      swap2\n      swap1\n      pop\n      jump\t// out\n        /* \"#utility.yul\":22455:22874   */\n    tag_656:\n        /* \"#utility.yul\":22621:22625   */\n      0x00\n        /* \"#utility.yul\":22659:22661   */\n      0x20\n        /* \"#utility.yul\":22648:22657   */\n      dup3\n        /* \"#utility.yul\":22644:22662   */\n      add\n        /* \"#utility.yul\":22636:22662   */\n      swap1\n      pop\n        /* \"#utility.yul\":22708:22717   */\n      dup2\n        /* \"#utility.yul\":22702:22706   */\n      dup2\n        /* \"#utility.yul\":22698:22718   */\n      sub\n        /* \"#utility.yul\":22694:22695   */\n      0x00\n        /* \"#utility.yul\":22683:22692   */\n      dup4\n        /* \"#utility.yul\":22679:22696   */\n      add\n        /* \"#utility.yul\":22672:22719   */\n      mstore\n        /* \"#utility.yul\":22736:22867   */\n      tag_970\n        /* \"#utility.yul\":22862:22866   */\n      dup2\n        /* \"#utility.yul\":22736:22867   */\n      tag_892\n      jump\t// in\n    tag_970:\n        /* \"#utility.yul\":22728:22867   */\n      swap1\n      pop\n        /* \"#utility.yul\":22455:22874   */\n      swap2\n      swap1\n      pop\n      jump\t// out\n        /* \"#utility.yul\":22880:23299   */\n    tag_264:\n        /* \"#utility.yul\":23046:23050   */\n      0x00\n        /* \"#utility.yul\":23084:23086   */\n      0x20\n        /* \"#utility.yul\":23073:23082   */\n      dup3\n        /* \"#utility.yul\":23069:23087   */\n      add\n        /* \"#utility.yul\":23061:23087   */\n      swap1\n      pop\n        /* \"#utility.yul\":23133:23142   */\n      dup2\n        /* \"#utility.yul\":23127:23131   */\n      dup2\n        /* \"#utility.yul\":23123:23143   */\n      sub\n        /* \"#utility.yul\":23119:23120   */\n      0x00\n        /* \"#utility.yul\":23108:23117   */\n      dup4\n        /* \"#utility.yul\":23104:23121   */\n      add\n        /* \"#utility.yul\":23097:23144   */\n      mstore\n        /* \"#utility.yul\":23161:23292   */\n      tag_972\n        /* \"#utility.yul\":23287:23291   */\n      dup2\n        /* \"#utility.yul\":23161:23292   */\n      tag_897\n      jump\t// in\n    tag_972:\n        /* \"#utility.yul\":23153:23292   */\n      swap1\n      pop\n        /* \"#utility.yul\":22880:23299   */\n      swap2\n      swap1\n      pop\n      jump\t// out\n        /* \"#utility.yul\":23305:23724   */\n    tag_221:\n        /* \"#utility.yul\":23471:23475   */\n      0x00\n        /* \"#utility.yul\":23509:23511   */\n      0x20\n        /* \"#utility.yul\":23498:23507   */\n      dup3\n        /* \"#utility.yul\":23494:23512   */\n      add\n        /* \"#utility.yul\":23486:23512   */\n      swap1\n      pop\n        /* \"#utility.yul\":23558:23567   */\n      dup2\n        /* \"#utility.yul\":23552:23556   */\n      dup2\n        /* \"#utility.yul\":23548:23568   */\n      sub\n        /* \"#utility.yul\":23544:23545   */\n      0x00\n        /* \"#utility.yul\":23533:23542   */\n      dup4\n        /* \"#utility.yul\":23529:23546   */\n      add\n        /* \"#utility.yul\":23522:23569   */\n      mstore\n        /* \"#utility.yul\":23586:23717   */\n      tag_974\n        /* \"#utility.yul\":23712:23716   */\n      dup2\n        /* \"#utility.yul\":23586:23717   */\n      tag_902\n      jump\t// in\n    tag_974:\n        /* \"#utility.yul\":23578:23717   */\n      swap1\n      pop\n        /* \"#utility.yul\":23305:23724   */\n      swap2\n      swap1\n      pop\n      jump\t// out\n        /* \"#utility.yul\":23730:24149   */\n    tag_383:\n        /* \"#utility.yul\":23896:23900   */\n      0x00\n        /* \"#utility.yul\":23934:23936   */\n      0x20\n        /* \"#utility.yul\":23923:23932   */\n      dup3\n        /* \"#utility.yul\":23919:23937   */\n      add\n        /* \"#utility.yul\":23911:23937   */\n      swap1\n      pop\n        /* \"#utility.yul\":23983:23992   */\n      dup2\n        /* \"#utility.yul\":23977:23981   */\n      dup2\n        /* \"#utility.yul\":23973:23993   */\n      sub\n        /* \"#utility.yul\":23969:23970   */\n      0x00\n        /* \"#utility.yul\":23958:23967   */\n      dup4\n        /* \"#utility.yul\":23954:23971   */\n      add\n        /* \"#utility.yul\":23947:23994   */\n      mstore\n        /* \"#utility.yul\":24011:24142   */\n      tag_976\n        /* \"#utility.yul\":24137:24141   */\n      dup2\n        /* \"#utility.yul\":24011:24142   */\n      tag_907\n      jump\t// in\n    tag_976:\n        /* \"#utility.yul\":24003:24142   */\n      swap1\n      pop\n        /* \"#utility.yul\":23730:24149   */\n      swap2\n      swap1\n      pop\n      jump\t// out\n        /* \"#utility.yul\":24155:24574   */\n    tag_151:\n        /* \"#utility.yul\":24321:24325   */\n      0x00\n        /* \"#utility.yul\":24359:24361   */\n      0x20\n        /* \"#utility.yul\":24348:24357   */\n      dup3\n        /* \"#utility.yul\":24344:24362   */\n      add\n        /* \"#utility.yul\":24336:24362   */\n      swap1\n      pop\n        /* \"#utility.yul\":24408:24417   */\n      dup2\n        /* \"#utility.yul\":24402:24406   */\n      dup2\n        /* \"#utility.yul\":24398:24418   */\n      sub\n        /* \"#utility.yul\":24394:24395   */\n      0x00\n        /* \"#utility.yul\":24383:24392   */\n      dup4\n        /* \"#utility.yul\":24379:24396   */\n      add\n        /* \"#utility.yul\":24372:24419   */\n      mstore\n        /* \"#utility.yul\":24436:24567   */\n      tag_978\n        /* \"#utility.yul\":24562:24566   */\n      dup2\n        /* \"#utility.yul\":24436:24567   */\n      tag_912\n      jump\t// in\n    tag_978:\n        /* \"#utility.yul\":24428:24567   */\n      swap1\n      pop\n        /* \"#utility.yul\":24155:24574   */\n      swap2\n      swap1\n      pop\n      jump\t// out\n        /* \"#utility.yul\":24580:24999   */\n    tag_506:\n        /* \"#utility.yul\":24746:24750   */\n      0x00\n        /* \"#utility.yul\":24784:24786   */\n      0x20\n        /* \"#utility.yul\":24773:24782   */\n      dup3\n        /* \"#utility.yul\":24769:24787   */\n      add\n        /* \"#utility.yul\":24761:24787   */\n      swap1\n      pop\n        /* \"#utility.yul\":24833:24842   */\n      dup2\n        /* \"#utility.yul\":24827:24831   */\n      dup2\n        /* \"#utility.yul\":24823:24843   */\n      sub\n        /* \"#utility.yul\":24819:24820   */\n      0x00\n        /* \"#utility.yul\":24808:24817   */\n      dup4\n        /* \"#utility.yul\":24804:24821   */\n      add\n        /* \"#utility.yul\":24797:24844   */\n      mstore\n        /* \"#utility.yul\":24861:24992   */\n      tag_980\n        /* \"#utility.yul\":24987:24991   */\n      dup2\n        /* \"#utility.yul\":24861:24992   */\n      tag_917\n      jump\t// in\n    tag_980:\n        /* \"#utility.yul\":24853:24992   */\n      swap1\n      pop\n        /* \"#utility.yul\":24580:24999   */\n      swap2\n      swap1\n      pop\n      jump\t// out\n        /* \"#utility.yul\":25005:25424   */\n    tag_477:\n        /* \"#utility.yul\":25171:25175   */\n      0x00\n        /* \"#utility.yul\":25209:25211   */\n      0x20\n        /* \"#utility.yul\":25198:25207   */\n      dup3\n        /* \"#utility.yul\":25194:25212   */\n      add\n        /* \"#utility.yul\":25186:25212   */\n      swap1\n      pop\n        /* \"#utility.yul\":25258:25267   */\n      dup2\n        /* \"#utility.yul\":25252:25256   */\n      dup2\n        /* \"#utility.yul\":25248:25268   */\n      sub\n        /* \"#utility.yul\":25244:25245   */\n      0x00\n        /* \"#utility.yul\":25233:25242   */\n      dup4\n        /* \"#utility.yul\":25229:25246   */\n      add\n        /* \"#utility.yul\":25222:25269   */\n      mstore\n        /* \"#utility.yul\":25286:25417   */\n      tag_982\n        /* \"#utility.yul\":25412:25416   */\n      dup2\n        /* \"#utility.yul\":25286:25417   */\n      tag_922\n      jump\t// in\n    tag_982:\n        /* \"#utility.yul\":25278:25417   */\n      swap1\n      pop\n        /* \"#utility.yul\":25005:25424   */\n      swap2\n      swap1\n      pop\n      jump\t// out\n        /* \"#utility.yul\":25430:25849   */\n    tag_616:\n        /* \"#utility.yul\":25596:25600   */\n      0x00\n        /* \"#utility.yul\":25634:25636   */\n      0x20\n        /* \"#utility.yul\":25623:25632   */\n      dup3\n        /* \"#utility.yul\":25619:25637   */\n      add\n        /* \"#utility.yul\":25611:25637   */\n      swap1\n      pop\n        /* \"#utility.yul\":25683:25692   */\n      dup2\n        /* \"#utility.yul\":25677:25681   */\n      dup2\n        /* \"#utility.yul\":25673:25693   */\n      sub\n        /* \"#utility.yul\":25669:25670   */\n      0x00\n        /* \"#utility.yul\":25658:25667   */\n      dup4\n        /* \"#utility.yul\":25654:25671   */\n      add\n        /* \"#utility.yul\":25647:25694   */\n      mstore\n        /* \"#utility.yul\":25711:25842   */\n      tag_984\n        /* \"#utility.yul\":25837:25841   */\n      dup2\n        /* \"#utility.yul\":25711:25842   */\n      tag_927\n      jump\t// in\n    tag_984:\n        /* \"#utility.yul\":25703:25842   */\n      swap1\n      pop\n        /* \"#utility.yul\":25430:25849   */\n      swap2\n      swap1\n      pop\n      jump\t// out\n        /* \"#utility.yul\":25855:26077   */\n    tag_40:\n        /* \"#utility.yul\":25948:25952   */\n      0x00\n        /* \"#utility.yul\":25986:25988   */\n      0x20\n        /* \"#utility.yul\":25975:25984   */\n      dup3\n        /* \"#utility.yul\":25971:25989   */\n      add\n        /* \"#utility.yul\":25963:25989   */\n      swap1\n      pop\n        /* \"#utility.yul\":25999:26070   */\n      tag_986\n        /* \"#utility.yul\":26067:26068   */\n      0x00\n        /* \"#utility.yul\":26056:26065   */\n      dup4\n        /* \"#utility.yul\":26052:26069   */\n      add\n        /* \"#utility.yul\":26043:26049   */\n      dup5\n        /* \"#utility.yul\":25999:26070   */\n      tag_935\n      jump\t// in\n    tag_986:\n        /* \"#utility.yul\":25855:26077   */\n      swap3\n      swap2\n      pop\n      pop\n      jump\t// out\n        /* \"#utility.yul\":26083:26917   */\n    tag_113:\n        /* \"#utility.yul\":26322:26326   */\n      0x00\n        /* \"#utility.yul\":26360:26363   */\n      0xa0\n        /* \"#utility.yul\":26349:26358   */\n      dup3\n        /* \"#utility.yul\":26345:26364   */\n      add\n        /* \"#utility.yul\":26337:26364   */\n      swap1\n      pop\n        /* \"#utility.yul\":26374:26445   */\n      tag_988\n        /* \"#utility.yul\":26442:26443   */\n      0x00\n        /* \"#utility.yul\":26431:26440   */\n      dup4\n        /* \"#utility.yul\":26427:26444   */\n      add\n        /* \"#utility.yul\":26418:26424   */\n      dup9\n        /* \"#utility.yul\":26374:26445   */\n      tag_935\n      jump\t// in\n    tag_988:\n        /* \"#utility.yul\":26455:26521   */\n      tag_989\n        /* \"#utility.yul\":26517:26519   */\n      0x20\n        /* \"#utility.yul\":26506:26515   */\n      dup4\n        /* \"#utility.yul\":26502:26520   */\n      add\n        /* \"#utility.yul\":26493:26499   */\n      dup8\n        /* \"#utility.yul\":26455:26521   */\n      tag_824\n      jump\t// in\n    tag_989:\n        /* \"#utility.yul\":26568:26577   */\n      dup2\n        /* \"#utility.yul\":26562:26566   */\n      dup2\n        /* \"#utility.yul\":26558:26578   */\n      sub\n        /* \"#utility.yul\":26553:26555   */\n      0x40\n        /* \"#utility.yul\":26542:26551   */\n      dup4\n        /* \"#utility.yul\":26538:26556   */\n      add\n        /* \"#utility.yul\":26531:26579   */\n      mstore\n        /* \"#utility.yul\":26596:26674   */\n      tag_990\n        /* \"#utility.yul\":26669:26673   */\n      dup2\n        /* \"#utility.yul\":26660:26666   */\n      dup7\n        /* \"#utility.yul\":26596:26674   */\n      tag_832\n      jump\t// in\n    tag_990:\n        /* \"#utility.yul\":26588:26674   */\n      swap1\n      pop\n        /* \"#utility.yul\":26721:26730   */\n      dup2\n        /* \"#utility.yul\":26715:26719   */\n      dup2\n        /* \"#utility.yul\":26711:26731   */\n      sub\n        /* \"#utility.yul\":26706:26708   */\n      0x60\n        /* \"#utility.yul\":26695:26704   */\n      dup4\n        /* \"#utility.yul\":26691:26709   */\n      add\n        /* \"#utility.yul\":26684:26732   */\n      mstore\n        /* \"#utility.yul\":26749:26827   */\n      tag_991\n        /* \"#utility.yul\":26822:26826   */\n      dup2\n        /* \"#utility.yul\":26813:26819   */\n      dup6\n        /* \"#utility.yul\":26749:26827   */\n      tag_832\n      jump\t// in\n    tag_991:\n        /* \"#utility.yul\":26741:26827   */\n      swap1\n      pop\n        /* \"#utility.yul\":26837:26910   */\n      tag_992\n        /* \"#utility.yul\":26905:26908   */\n      0x80\n        /* \"#utility.yul\":26894:26903   */\n      dup4\n        /* \"#utility.yul\":26890:26909   */\n      add\n        /* \"#utility.yul\":26881:26887   */\n      dup5\n        /* \"#utility.yul\":26837:26910   */\n      tag_806\n      jump\t// in\n    tag_992:\n        /* \"#utility.yul\":26083:26917   */\n      swap7\n      swap6\n      pop\n      pop\n      pop\n      pop\n      pop\n      pop\n      jump\t// out\n        /* \"#utility.yul\":26923:27393   */\n    tag_240:\n        /* \"#utility.yul\":27086:27090   */\n      0x00\n        /* \"#utility.yul\":27124:27126   */\n      0x60\n        /* \"#utility.yul\":27113:27122   */\n      dup3\n        /* \"#utility.yul\":27109:27127   */\n      add\n        /* \"#utility.yul\":27101:27127   */\n      swap1\n      pop\n        /* \"#utility.yul\":27137:27208   */\n      tag_994\n        /* \"#utility.yul\":27205:27206   */\n      0x00\n        /* \"#utility.yul\":27194:27203   */\n      dup4\n        /* \"#utility.yul\":27190:27207   */\n      add\n        /* \"#utility.yul\":27181:27187   */\n      dup7\n        /* \"#utility.yul\":27137:27208   */\n      tag_935\n      jump\t// in\n    tag_994:\n        /* \"#utility.yul\":27218:27290   */\n      tag_995\n        /* \"#utility.yul\":27286:27288   */\n      0x20\n        /* \"#utility.yul\":27275:27284   */\n      dup4\n        /* \"#utility.yul\":27271:27289   */\n      add\n        /* \"#utility.yul\":27262:27268   */\n      dup6\n        /* \"#utility.yul\":27218:27290   */\n      tag_935\n      jump\t// in\n    tag_995:\n        /* \"#utility.yul\":27300:27386   */\n      tag_996\n        /* \"#utility.yul\":27382:27384   */\n      0x40\n        /* \"#utility.yul\":27371:27380   */\n      dup4\n        /* \"#utility.yul\":27367:27385   */\n      add\n        /* \"#utility.yul\":27358:27364   */\n      dup5\n        /* \"#utility.yul\":27300:27386   */\n      tag_828\n      jump\t// in\n    tag_996:\n        /* \"#utility.yul\":26923:27393   */\n      swap5\n      swap4\n      pop\n      pop\n      pop\n      pop\n      jump\t// out\n        /* \"#utility.yul\":27399:27841   */\n    tag_51:\n        /* \"#utility.yul\":27548:27552   */\n      0x00\n        /* \"#utility.yul\":27586:27588   */\n      0x60\n        /* \"#utility.yul\":27575:27584   */\n      dup3\n        /* \"#utility.yul\":27571:27589   */\n      add\n        /* \"#utility.yul\":27563:27589   */\n      swap1\n      pop\n        /* \"#utility.yul\":27599:27670   */\n      tag_998\n        /* \"#utility.yul\":27667:27668   */\n      0x00\n        /* \"#utility.yul\":27656:27665   */\n      dup4\n        /* \"#utility.yul\":27652:27669   */\n      add\n        /* \"#utility.yul\":27643:27649   */\n      dup7\n        /* \"#utility.yul\":27599:27670   */\n      tag_935\n      jump\t// in\n    tag_998:\n        /* \"#utility.yul\":27680:27752   */\n      tag_999\n        /* \"#utility.yul\":27748:27750   */\n      0x20\n        /* \"#utility.yul\":27737:27746   */\n      dup4\n        /* \"#utility.yul\":27733:27751   */\n      add\n        /* \"#utility.yul\":27724:27730   */\n      dup6\n        /* \"#utility.yul\":27680:27752   */\n      tag_935\n      jump\t// in\n    tag_999:\n        /* \"#utility.yul\":27762:27834   */\n      tag_1000\n        /* \"#utility.yul\":27830:27832   */\n      0x40\n        /* \"#utility.yul\":27819:27828   */\n      dup4\n        /* \"#utility.yul\":27815:27833   */\n      add\n        /* \"#utility.yul\":27806:27812   */\n      dup5\n        /* \"#utility.yul\":27762:27834   */\n      tag_935\n      jump\t// in\n    tag_1000:\n        /* \"#utility.yul\":27399:27841   */\n      swap5\n      swap4\n      pop\n      pop\n      pop\n      pop\n      jump\t// out\n        /* \"#utility.yul\":27847:28951   */\n    tag_28:\n        /* \"#utility.yul\":28164:28168   */\n      0x00\n        /* \"#utility.yul\":28202:28205   */\n      0x0100\n        /* \"#utility.yul\":28191:28200   */\n      dup3\n        /* \"#utility.yul\":28187:28206   */\n      add\n        /* \"#utility.yul\":28179:28206   */\n      swap1\n      pop\n        /* \"#utility.yul\":28216:28287   */\n      tag_1002\n        /* \"#utility.yul\":28284:28285   */\n      0x00\n        /* \"#utility.yul\":28273:28282   */\n      dup4\n        /* \"#utility.yul\":28269:28286   */\n      add\n        /* \"#utility.yul\":28260:28266   */\n      dup12\n        /* \"#utility.yul\":28216:28287   */\n      tag_935\n      jump\t// in\n    tag_1002:\n        /* \"#utility.yul\":28297:28369   */\n      tag_1003\n        /* \"#utility.yul\":28365:28367   */\n      0x20\n        /* \"#utility.yul\":28354:28363   */\n      dup4\n        /* \"#utility.yul\":28350:28368   */\n      add\n        /* \"#utility.yul\":28341:28347   */\n      dup11\n        /* \"#utility.yul\":28297:28369   */\n      tag_935\n      jump\t// in\n    tag_1003:\n        /* \"#utility.yul\":28379:28451   */\n      tag_1004\n        /* \"#utility.yul\":28447:28449   */\n      0x40\n        /* \"#utility.yul\":28436:28445   */\n      dup4\n        /* \"#utility.yul\":28432:28450   */\n      add\n        /* \"#utility.yul\":28423:28429   */\n      dup10\n        /* \"#utility.yul\":28379:28451   */\n      tag_935\n      jump\t// in\n    tag_1004:\n        /* \"#utility.yul\":28461:28533   */\n      tag_1005\n        /* \"#utility.yul\":28529:28531   */\n      0x60\n        /* \"#utility.yul\":28518:28527   */\n      dup4\n        /* \"#utility.yul\":28514:28532   */\n      add\n        /* \"#utility.yul\":28505:28511   */\n      dup9\n        /* \"#utility.yul\":28461:28533   */\n      tag_935\n      jump\t// in\n    tag_1005:\n        /* \"#utility.yul\":28543:28616   */\n      tag_1006\n        /* \"#utility.yul\":28611:28614   */\n      0x80\n        /* \"#utility.yul\":28600:28609   */\n      dup4\n        /* \"#utility.yul\":28596:28615   */\n      add\n        /* \"#utility.yul\":28587:28593   */\n      dup8\n        /* \"#utility.yul\":28543:28616   */\n      tag_806\n      jump\t// in\n    tag_1006:\n        /* \"#utility.yul\":28626:28693   */\n      tag_1007\n        /* \"#utility.yul\":28688:28691   */\n      0xa0\n        /* \"#utility.yul\":28677:28686   */\n      dup4\n        /* \"#utility.yul\":28673:28692   */\n      add\n        /* \"#utility.yul\":28664:28670   */\n      dup7\n        /* \"#utility.yul\":28626:28693   */\n      tag_824\n      jump\t// in\n    tag_1007:\n        /* \"#utility.yul\":28741:28750   */\n      dup2\n        /* \"#utility.yul\":28735:28739   */\n      dup2\n        /* \"#utility.yul\":28731:28751   */\n      sub\n        /* \"#utility.yul\":28725:28728   */\n      0xc0\n        /* \"#utility.yul\":28714:28723   */\n      dup4\n        /* \"#utility.yul\":28710:28729   */\n      add\n        /* \"#utility.yul\":28703:28752   */\n      mstore\n        /* \"#utility.yul\":28769:28847   */\n      tag_1008\n        /* \"#utility.yul\":28842:28846   */\n      dup2\n        /* \"#utility.yul\":28833:28839   */\n      dup6\n        /* \"#utility.yul\":28769:28847   */\n      tag_832\n      jump\t// in\n    tag_1008:\n        /* \"#utility.yul\":28761:28847   */\n      swap1\n      pop\n        /* \"#utility.yul\":28857:28944   */\n      tag_1009\n        /* \"#utility.yul\":28939:28942   */\n      0xe0\n        /* \"#utility.yul\":28928:28937   */\n      dup4\n        /* \"#utility.yul\":28924:28943   */\n      add\n        /* \"#utility.yul\":28915:28921   */\n      dup5\n        /* \"#utility.yul\":28857:28944   */\n      tag_828\n      jump\t// in\n    tag_1009:\n        /* \"#utility.yul\":27847:28951   */\n      swap10\n      swap9\n      pop\n      pop\n      pop\n      pop\n      pop\n      pop\n      pop\n      pop\n      pop\n      jump\t// out\n        /* \"#utility.yul\":28957:29086   */\n    tag_709:\n        /* \"#utility.yul\":28991:28997   */\n      0x00\n        /* \"#utility.yul\":29018:29038   */\n      tag_1011\n      tag_1012\n      jump\t// in\n    tag_1011:\n        /* \"#utility.yul\":29008:29038   */\n      swap1\n      pop\n        /* \"#utility.yul\":29047:29080   */\n      tag_1013\n        /* \"#utility.yul\":29075:29079   */\n      dup3\n        /* \"#utility.yul\":29067:29073   */\n      dup3\n        /* \"#utility.yul\":29047:29080   */\n      tag_1014\n      jump\t// in\n    tag_1013:\n        /* \"#utility.yul\":28957:29086   */\n      swap2\n      swap1\n      pop\n      jump\t// out\n        /* \"#utility.yul\":29092:29167   */\n    tag_1012:\n        /* \"#utility.yul\":29125:29131   */\n      0x00\n        /* \"#utility.yul\":29158:29160   */\n      0x40\n        /* \"#utility.yul\":29152:29161   */\n      mload\n        /* \"#utility.yul\":29142:29161   */\n      swap1\n      pop\n        /* \"#utility.yul\":29092:29167   */\n      swap1\n      jump\t// out\n        /* \"#utility.yul\":29173:29481   */\n    tag_708:\n        /* \"#utility.yul\":29235:29239   */\n      0x00\n        /* \"#utility.yul\":29325:29343   */\n      0xffffffffffffffff\n        /* \"#utility.yul\":29317:29323   */\n      dup3\n        /* \"#utility.yul\":29314:29344   */\n      gt\n        /* \"#utility.yul\":29311:29367   */\n      iszero\n      tag_1017\n      jumpi\n        /* \"#utility.yul\":29347:29365   */\n      tag_1018\n      tag_428\n      jump\t// in\n    tag_1018:\n        /* \"#utility.yul\":29311:29367   */\n    tag_1017:\n        /* \"#utility.yul\":29385:29414   */\n      tag_1019\n        /* \"#utility.yul\":29407:29413   */\n      dup3\n        /* \"#utility.yul\":29385:29414   */\n      tag_841\n      jump\t// in\n    tag_1019:\n        /* \"#utility.yul\":29377:29414   */\n      swap1\n      pop\n        /* \"#utility.yul\":29469:29473   */\n      0x20\n        /* \"#utility.yul\":29463:29467   */\n      dup2\n        /* \"#utility.yul\":29459:29474   */\n      add\n        /* \"#utility.yul\":29451:29474   */\n      swap1\n      pop\n        /* \"#utility.yul\":29173:29481   */\n      swap2\n      swap1\n      pop\n      jump\t// out\n        /* \"#utility.yul\":29487:29619   */\n    tag_817:\n        /* \"#utility.yul\":29554:29558   */\n      0x00\n        /* \"#utility.yul\":29577:29580   */\n      dup2\n        /* \"#utility.yul\":29569:29580   */\n      swap1\n      pop\n        /* \"#utility.yul\":29607:29611   */\n      0x20\n        /* \"#utility.yul\":29602:29605   */\n      dup3\n        /* \"#utility.yul\":29598:29612   */\n      add\n        /* \"#utility.yul\":29590:29612   */\n      swap1\n      pop\n        /* \"#utility.yul\":29487:29619   */\n      swap2\n      swap1\n      pop\n      jump\t// out\n        /* \"#utility.yul\":29625:29739   */\n    tag_813:\n        /* \"#utility.yul\":29692:29698   */\n      0x00\n        /* \"#utility.yul\":29726:29731   */\n      dup2\n        /* \"#utility.yul\":29720:29732   */\n      mload\n        /* \"#utility.yul\":29710:29732   */\n      swap1\n      pop\n        /* \"#utility.yul\":29625:29739   */\n      swap2\n      swap1\n      pop\n      jump\t// out\n        /* \"#utility.yul\":29745:29844   */\n    tag_835:\n        /* \"#utility.yul\":29797:29803   */\n      0x00\n        /* \"#utility.yul\":29831:29836   */\n      dup2\n        /* \"#utility.yul\":29825:29837   */\n      mload\n        /* \"#utility.yul\":29815:29837   */\n      swap1\n      pop\n        /* \"#utility.yul\":29745:29844   */\n      swap2\n      swap1\n      pop\n      jump\t// out\n        /* \"#utility.yul\":29850:29963   */\n    tag_823:\n        /* \"#utility.yul\":29920:29924   */\n      0x00\n        /* \"#utility.yul\":29952:29956   */\n      0x20\n        /* \"#utility.yul\":29947:29950   */\n      dup3\n        /* \"#utility.yul\":29943:29957   */\n      add\n        /* \"#utility.yul\":29935:29957   */\n      swap1\n      pop\n        /* \"#utility.yul\":29850:29963   */\n      swap2\n      swap1\n      pop\n      jump\t// out\n        /* \"#utility.yul\":29969:30153   */\n    tag_815:\n        /* \"#utility.yul\":30068:30079   */\n      0x00\n        /* \"#utility.yul\":30102:30108   */\n      dup3\n        /* \"#utility.yul\":30097:30100   */\n      dup3\n        /* \"#utility.yul\":30090:30109   */\n      mstore\n        /* \"#utility.yul\":30142:30146   */\n      0x20\n        /* \"#utility.yul\":30137:30140   */\n      dup3\n        /* \"#utility.yul\":30133:30147   */\n      add\n        /* \"#utility.yul\":30118:30147   */\n      swap1\n      pop\n        /* \"#utility.yul\":29969:30153   */\n      swap3\n      swap2\n      pop\n      pop\n      jump\t// out\n        /* \"#utility.yul\":30159:30328   */\n    tag_837:\n        /* \"#utility.yul\":30243:30254   */\n      0x00\n        /* \"#utility.yul\":30277:30283   */\n      dup3\n        /* \"#utility.yul\":30272:30275   */\n      dup3\n        /* \"#utility.yul\":30265:30284   */\n      mstore\n        /* \"#utility.yul\":30317:30321   */\n      0x20\n        /* \"#utility.yul\":30312:30315   */\n      dup3\n        /* \"#utility.yul\":30308:30322   */\n      add\n        /* \"#utility.yul\":30293:30322   */\n      swap1\n      pop\n        /* \"#utility.yul\":30159:30328   */\n      swap3\n      swap2\n      pop\n      pop\n      jump\t// out\n        /* \"#utility.yul\":30334:30639   */\n    tag_570:\n        /* \"#utility.yul\":30374:30377   */\n      0x00\n        /* \"#utility.yul\":30393:30413   */\n      tag_1027\n        /* \"#utility.yul\":30411:30412   */\n      dup3\n        /* \"#utility.yul\":30393:30413   */\n      tag_934\n      jump\t// in\n    tag_1027:\n        /* \"#utility.yul\":30388:30413   */\n      swap2\n      pop\n        /* \"#utility.yul\":30427:30447   */\n      tag_1028\n        /* \"#utility.yul\":30445:30446   */\n      dup4\n        /* \"#utility.yul\":30427:30447   */\n      tag_934\n      jump\t// in\n    tag_1028:\n        /* \"#utility.yul\":30422:30447   */\n      swap3\n      pop\n        /* \"#utility.yul\":30581:30582   */\n      dup3\n        /* \"#utility.yul\":30513:30579   */\n      0xffffffffffffffffffffffffffffffffffffffffffffffffffffffffffffffff\n        /* \"#utility.yul\":30509:30583   */\n      sub\n        /* \"#utility.yul\":30506:30507   */\n      dup3\n        /* \"#utility.yul\":30503:30584   */\n      gt\n        /* \"#utility.yul\":30500:30607   */\n      iszero\n      tag_1029\n      jumpi\n        /* \"#utility.yul\":30587:30605   */\n      tag_1030\n      tag_1031\n      jump\t// in\n    tag_1030:\n        /* \"#utility.yul\":30500:30607   */\n    tag_1029:\n        /* \"#utility.yul\":30631:30632   */\n      dup3\n        /* \"#utility.yul\":30628:30629   */\n      dup3\n        /* \"#utility.yul\":30624:30633   */\n      add\n        /* \"#utility.yul\":30617:30633   */\n      swap1\n      pop\n        /* \"#utility.yul\":30334:30639   */\n      swap3\n      swap2\n      pop\n      pop\n      jump\t// out\n        /* \"#utility.yul\":30645:30836   */\n    tag_177:\n        /* \"#utility.yul\":30685:30689   */\n      0x00\n        /* \"#utility.yul\":30705:30725   */\n      tag_1033\n        /* \"#utility.yul\":30723:30724   */\n      dup3\n        /* \"#utility.yul\":30705:30725   */\n      tag_934\n      jump\t// in\n    tag_1033:\n        /* \"#utility.yul\":30700:30725   */\n      swap2\n      pop\n        /* \"#utility.yul\":30739:30759   */\n      tag_1034\n        /* \"#utility.yul\":30757:30758   */\n      dup4\n        /* \"#utility.yul\":30739:30759   */\n      tag_934\n      jump\t// in\n    tag_1034:\n        /* \"#utility.yul\":30734:30759   */\n      swap3\n      pop\n        /* \"#utility.yul\":30778:30779   */\n      dup3\n        /* \"#utility.yul\":30775:30776   */\n      dup3\n        /* \"#utility.yul\":30772:30780   */\n      lt\n        /* \"#utility.yul\":30769:30803   */\n      iszero\n      tag_1035\n      jumpi\n        /* \"#utility.yul\":30783:30801   */\n      tag_1036\n      tag_1031\n      jump\t// in\n    tag_1036:\n        /* \"#utility.yul\":30769:30803   */\n    tag_1035:\n        /* \"#utility.yul\":30828:30829   */\n      dup3\n        /* \"#utility.yul\":30825:30826   */\n      dup3\n        /* \"#utility.yul\":30821:30830   */\n      sub\n        /* \"#utility.yul\":30813:30830   */\n      swap1\n      pop\n        /* \"#utility.yul\":30645:30836   */\n      swap3\n      swap2\n      pop\n      pop\n      jump\t// out\n        /* \"#utility.yul\":30842:30938   */\n    tag_809:\n        /* \"#utility.yul\":30879:30886   */\n      0x00\n        /* \"#utility.yul\":30908:30932   */\n      tag_1038\n        /* \"#utility.yul\":30926:30931   */\n      dup3\n        /* \"#utility.yul\":30908:30932   */\n      tag_1039\n      jump\t// in\n    tag_1038:\n        /* \"#utility.yul\":30897:30932   */\n      swap1\n      pop\n        /* \"#utility.yul\":30842:30938   */\n      swap2\n      swap1\n      pop\n      jump\t// out\n        /* \"#utility.yul\":30944:31034   */\n    tag_827:\n        /* \"#utility.yul\":30978:30985   */\n      0x00\n        /* \"#utility.yul\":31021:31026   */\n      dup2\n        /* \"#utility.yul\":31014:31027   */\n      iszero\n        /* \"#utility.yul\":31007:31028   */\n      iszero\n        /* \"#utility.yul\":30996:31028   */\n      swap1\n      pop\n        /* \"#utility.yul\":30944:31034   */\n      swap2\n      swap1\n      pop\n      jump\t// out\n        /* \"#utility.yul\":31040:31183   */\n    tag_1041:\n        /* \"#utility.yul\":31093:31100   */\n      0x00\n        /* \"#utility.yul\":31122:31127   */\n      dup2\n        /* \"#utility.yul\":31111:31127   */\n      swap1\n      pop\n        /* \"#utility.yul\":31128:31177   */\n      tag_1043\n        /* \"#utility.yul\":31171:31176   */\n      dup3\n        /* \"#utility.yul\":31128:31177   */\n      tag_1044\n      jump\t// in\n    tag_1043:\n        /* \"#utility.yul\":31040:31183   */\n      swap2\n      swap1\n      pop\n      jump\t// out\n        /* \"#utility.yul\":31189:31315   */\n    tag_1039:\n        /* \"#utility.yul\":31226:31233   */\n      0x00\n        /* \"#utility.yul\":31266:31308   */\n      0xffffffffffffffffffffffffffffffffffffffff\n        /* \"#utility.yul\":31259:31264   */\n      dup3\n        /* \"#utility.yul\":31255:31309   */\n      and\n        /* \"#utility.yul\":31244:31309   */\n      swap1\n      pop\n        /* \"#utility.yul\":31189:31315   */\n      swap2\n      swap1\n      pop\n      jump\t// out\n        /* \"#utility.yul\":31321:31398   */\n    tag_934:\n        /* \"#utility.yul\":31358:31365   */\n      0x00\n        /* \"#utility.yul\":31387:31392   */\n      dup2\n        /* \"#utility.yul\":31376:31392   */\n      swap1\n      pop\n        /* \"#utility.yul\":31321:31398   */\n      swap2\n      swap1\n      pop\n      jump\t// out\n        /* \"#utility.yul\":31404:31490   */\n    tag_1047:\n        /* \"#utility.yul\":31439:31446   */\n      0x00\n        /* \"#utility.yul\":31479:31483   */\n      0xff\n        /* \"#utility.yul\":31472:31477   */\n      dup3\n        /* \"#utility.yul\":31468:31484   */\n      and\n        /* \"#utility.yul\":31457:31484   */\n      swap1\n      pop\n        /* \"#utility.yul\":31404:31490   */\n      swap2\n      swap1\n      pop\n      jump\t// out\n        /* \"#utility.yul\":31496:31639   */\n    tag_831:\n        /* \"#utility.yul\":31560:31569   */\n      0x00\n        /* \"#utility.yul\":31593:31633   */\n      tag_1050\n        /* \"#utility.yul\":31627:31632   */\n      dup3\n        /* \"#utility.yul\":31593:31633   */\n      tag_1041\n      jump\t// in\n    tag_1050:\n        /* \"#utility.yul\":31580:31633   */\n      swap1\n      pop\n        /* \"#utility.yul\":31496:31639   */\n      swap2\n      swap1\n      pop\n      jump\t// out\n        /* \"#utility.yul\":31645:31799   */\n    tag_714:\n        /* \"#utility.yul\":31729:31735   */\n      dup3\n        /* \"#utility.yul\":31724:31727   */\n      dup2\n        /* \"#utility.yul\":31719:31722   */\n      dup4\n        /* \"#utility.yul\":31706:31736   */\n      calldatacopy\n        /* \"#utility.yul\":31791:31792   */\n      0x00\n        /* \"#utility.yul\":31782:31788   */\n      dup4\n        /* \"#utility.yul\":31777:31780   */\n      dup4\n        /* \"#utility.yul\":31773:31789   */\n      add\n        /* \"#utility.yul\":31766:31793   */\n      mstore\n        /* \"#utility.yul\":31645:31799   */\n      pop\n      pop\n      pop\n      jump\t// out\n        /* \"#utility.yul\":31805:32112   */\n    tag_839:\n        /* \"#utility.yul\":31873:31874   */\n      0x00\n        /* \"#utility.yul\":31883:31996   */\n    tag_1053:\n        /* \"#utility.yul\":31897:31903   */\n      dup4\n        /* \"#utility.yul\":31894:31895   */\n      dup2\n        /* \"#utility.yul\":31891:31904   */\n      lt\n        /* \"#utility.yul\":31883:31996   */\n      iszero\n      tag_1055\n      jumpi\n        /* \"#utility.yul\":31982:31983   */\n      dup1\n        /* \"#utility.yul\":31977:31980   */\n      dup3\n        /* \"#utility.yul\":31973:31984   */\n      add\n        /* \"#utility.yul\":31967:31985   */\n      mload\n        /* \"#utility.yul\":31963:31964   */\n      dup2\n        /* \"#utility.yul\":31958:31961   */\n      dup5\n        /* \"#utility.yul\":31954:31965   */\n      add\n        /* \"#utility.yul\":31947:31986   */\n      mstore\n        /* \"#utility.yul\":31919:31921   */\n      0x20\n        /* \"#utility.yul\":31916:31917   */\n      dup2\n        /* \"#utility.yul\":31912:31922   */\n      add\n        /* \"#utility.yul\":31907:31922   */\n      swap1\n      pop\n        /* \"#utility.yul\":31883:31996   */\n      jump(tag_1053)\n    tag_1055:\n        /* \"#utility.yul\":32014:32020   */\n      dup4\n        /* \"#utility.yul\":32011:32012   */\n      dup2\n        /* \"#utility.yul\":32008:32021   */\n      gt\n        /* \"#utility.yul\":32005:32106   */\n      iszero\n      tag_1056\n      jumpi\n        /* \"#utility.yul\":32094:32095   */\n      0x00\n        /* \"#utility.yul\":32085:32091   */\n      dup5\n        /* \"#utility.yul\":32080:32083   */\n      dup5\n        /* \"#utility.yul\":32076:32092   */\n      add\n        /* \"#utility.yul\":32069:32096   */\n      mstore\n        /* \"#utility.yul\":32005:32106   */\n    tag_1056:\n        /* \"#utility.yul\":31854:32112   */\n      pop\n        /* \"#utility.yul\":31805:32112   */\n      pop\n      pop\n      pop\n      jump\t// out\n        /* \"#utility.yul\":32118:32438   */\n    tag_117:\n        /* \"#utility.yul\":32162:32168   */\n      0x00\n        /* \"#utility.yul\":32199:32200   */\n      0x02\n        /* \"#utility.yul\":32193:32197   */\n      dup3\n        /* \"#utility.yul\":32189:32201   */\n      div\n        /* \"#utility.yul\":32179:32201   */\n      swap1\n      pop\n        /* \"#utility.yul\":32246:32247   */\n      0x01\n        /* \"#utility.yul\":32240:32244   */\n      dup3\n        /* \"#utility.yul\":32236:32248   */\n      and\n        /* \"#utility.yul\":32267:32285   */\n      dup1\n        /* \"#utility.yul\":32257:32338   */\n      tag_1058\n      jumpi\n        /* \"#utility.yul\":32323:32327   */\n      0x7f\n        /* \"#utility.yul\":32315:32321   */\n      dup3\n        /* \"#utility.yul\":32311:32328   */\n      and\n        /* \"#utility.yul\":32301:32328   */\n      swap2\n      pop\n        /* \"#utility.yul\":32257:32338   */\n    tag_1058:\n        /* \"#utility.yul\":32385:32387   */\n      0x20\n        /* \"#utility.yul\":32377:32383   */\n      dup3\n        /* \"#utility.yul\":32374:32388   */\n      lt\n        /* \"#utility.yul\":32354:32372   */\n      dup2\n        /* \"#utility.yul\":32351:32389   */\n      eq\n        /* \"#utility.yul\":32348:32432   */\n      iszero\n      tag_1059\n      jumpi\n        /* \"#utility.yul\":32404:32422   */\n      tag_1060\n      tag_1061\n      jump\t// in\n    tag_1060:\n        /* \"#utility.yul\":32348:32432   */\n    tag_1059:\n        /* \"#utility.yul\":32169:32438   */\n      pop\n        /* \"#utility.yul\":32118:32438   */\n      swap2\n      swap1\n      pop\n      jump\t// out\n        /* \"#utility.yul\":32444:32725   */\n    tag_1014:\n        /* \"#utility.yul\":32527:32554   */\n      tag_1063\n        /* \"#utility.yul\":32549:32553   */\n      dup3\n        /* \"#utility.yul\":32527:32554   */\n      tag_841\n      jump\t// in\n    tag_1063:\n        /* \"#utility.yul\":32519:32525   */\n      dup2\n        /* \"#utility.yul\":32515:32555   */\n      add\n        /* \"#utility.yul\":32657:32663   */\n      dup2\n        /* \"#utility.yul\":32645:32655   */\n      dup2\n        /* \"#utility.yul\":32642:32664   */\n      lt\n        /* \"#utility.yul\":32621:32639   */\n      0xffffffffffffffff\n        /* \"#utility.yul\":32609:32619   */\n      dup3\n        /* \"#utility.yul\":32606:32640   */\n      gt\n        /* \"#utility.yul\":32603:32665   */\n      or\n        /* \"#utility.yul\":32600:32688   */\n      iszero\n      tag_1064\n      jumpi\n        /* \"#utility.yul\":32668:32686   */\n      tag_1065\n      tag_428\n      jump\t// in\n    tag_1065:\n        /* \"#utility.yul\":32600:32688   */\n    tag_1064:\n        /* \"#utility.yul\":32708:32718   */\n      dup1\n        /* \"#utility.yul\":32704:32706   */\n      0x40\n        /* \"#utility.yul\":32697:32719   */\n      mstore\n        /* \"#utility.yul\":32487:32725   */\n      pop\n        /* \"#utility.yul\":32444:32725   */\n      pop\n      pop\n      jump\t// out\n        /* \"#utility.yul\":32731:32964   */\n    tag_149:\n        /* \"#utility.yul\":32770:32773   */\n      0x00\n        /* \"#utility.yul\":32793:32817   */\n      tag_1067\n        /* \"#utility.yul\":32811:32816   */\n      dup3\n        /* \"#utility.yul\":32793:32817   */\n      tag_934\n      jump\t// in\n    tag_1067:\n        /* \"#utility.yul\":32784:32817   */\n      swap2\n      pop\n        /* \"#utility.yul\":32839:32905   */\n      0xffffffffffffffffffffffffffffffffffffffffffffffffffffffffffffffff\n        /* \"#utility.yul\":32832:32837   */\n      dup3\n        /* \"#utility.yul\":32829:32906   */\n      eq\n        /* \"#utility.yul\":32826:32929   */\n      iszero\n      tag_1068\n      jumpi\n        /* \"#utility.yul\":32909:32927   */\n      tag_1069\n      tag_1031\n      jump\t// in\n    tag_1069:\n        /* \"#utility.yul\":32826:32929   */\n    tag_1068:\n        /* \"#utility.yul\":32956:32957   */\n      0x01\n        /* \"#utility.yul\":32949:32954   */\n      dup3\n        /* \"#utility.yul\":32945:32958   */\n      add\n        /* \"#utility.yul\":32938:32958   */\n      swap1\n      pop\n        /* \"#utility.yul\":32731:32964   */\n      swap2\n      swap1\n      pop\n      jump\t// out\n        /* \"#utility.yul\":32970:33150   */\n    tag_1031:\n        /* \"#utility.yul\":33018:33095   */\n      0x4e487b7100000000000000000000000000000000000000000000000000000000\n        /* \"#utility.yul\":33015:33016   */\n      0x00\n        /* \"#utility.yul\":33008:33096   */\n      mstore\n        /* \"#utility.yul\":33115:33119   */\n      0x11\n        /* \"#utility.yul\":33112:33113   */\n      0x04\n        /* \"#utility.yul\":33105:33120   */\n      mstore\n        /* \"#utility.yul\":33139:33143   */\n      0x24\n        /* \"#utility.yul\":33136:33137   */\n      0x00\n        /* \"#utility.yul\":33129:33144   */\n      revert\n        /* \"#utility.yul\":33156:33336   */\n    tag_188:\n        /* \"#utility.yul\":33204:33281   */\n      0x4e487b7100000000000000000000000000000000000000000000000000000000\n        /* \"#utility.yul\":33201:33202   */\n      0x00\n        /* \"#utility.yul\":33194:33282   */\n      mstore\n        /* \"#utility.yul\":33301:33305   */\n      0x21\n        /* \"#utility.yul\":33298:33299   */\n      0x04\n        /* \"#utility.yul\":33291:33306   */\n      mstore\n        /* \"#utility.yul\":33325:33329   */\n      0x24\n        /* \"#utility.yul\":33322:33323   */\n      0x00\n        /* \"#utility.yul\":33315:33330   */\n      revert\n        /* \"#utility.yul\":33342:33522   */\n    tag_1061:\n        /* \"#utility.yul\":33390:33467   */\n      0x4e487b7100000000000000000000000000000000000000000000000000000000\n        /* \"#utility.yul\":33387:33388   */\n      0x00\n        /* \"#utility.yul\":33380:33468   */\n      mstore\n        /* \"#utility.yul\":33487:33491   */\n      0x22\n        /* \"#utility.yul\":33484:33485   */\n      0x04\n        /* \"#utility.yul\":33477:33492   */\n      mstore\n        /* \"#utility.yul\":33511:33515   */\n      0x24\n        /* \"#utility.yul\":33508:33509   */\n      0x00\n        /* \"#utility.yul\":33501:33516   */\n      revert\n        /* \"#utility.yul\":33528:33708   */\n    tag_142:\n        /* \"#utility.yul\":33576:33653   */\n      0x4e487b7100000000000000000000000000000000000000000000000000000000\n        /* \"#utility.yul\":33573:33574   */\n      0x00\n        /* \"#utility.yul\":33566:33654   */\n      mstore\n        /* \"#utility.yul\":33673:33677   */\n      0x32\n        /* \"#utility.yul\":33670:33671   */\n      0x04\n        /* \"#utility.yul\":33663:33678   */\n      mstore\n        /* \"#utility.yul\":33697:33701   */\n      0x24\n        /* \"#utility.yul\":33694:33695   */\n      0x00\n        /* \"#utility.yul\":33687:33702   */\n      revert\n        /* \"#utility.yul\":33714:33894   */\n    tag_428:\n        /* \"#utility.yul\":33762:33839   */\n      0x4e487b7100000000000000000000000000000000000000000000000000000000\n        /* \"#utility.yul\":33759:33760   */\n      0x00\n        /* \"#utility.yul\":33752:33840   */\n      mstore\n        /* \"#utility.yul\":33859:33863   */\n      0x41\n        /* \"#utility.yul\":33856:33857   */\n      0x04\n        /* \"#utility.yul\":33849:33864   */\n      mstore\n        /* \"#utility.yul\":33883:33887   */\n      0x24\n        /* \"#utility.yul\":33880:33881   */\n      0x00\n        /* \"#utility.yul\":33873:33888   */\n      revert\n        /* \"#utility.yul\":33900:34017   */\n    tag_731:\n        /* \"#utility.yul\":34009:34010   */\n      0x00\n        /* \"#utility.yul\":34006:34007   */\n      dup1\n        /* \"#utility.yul\":33999:34011   */\n      revert\n        /* \"#utility.yul\":34023:34140   */\n    tag_712:\n        /* \"#utility.yul\":34132:34133   */\n      0x00\n        /* \"#utility.yul\":34129:34130   */\n      dup1\n        /* \"#utility.yul\":34122:34134   */\n      revert\n        /* \"#utility.yul\":34146:34263   */\n    tag_757:\n        /* \"#utility.yul\":34255:34256   */\n      0x00\n        /* \"#utility.yul\":34252:34253   */\n      dup1\n        /* \"#utility.yul\":34245:34257   */\n      revert\n        /* \"#utility.yul\":34269:34386   */\n    tag_744:\n        /* \"#utility.yul\":34378:34379   */\n      0x00\n        /* \"#utility.yul\":34375:34376   */\n      dup1\n        /* \"#utility.yul\":34368:34380   */\n      revert\n        /* \"#utility.yul\":34392:34494   */\n    tag_841:\n        /* \"#utility.yul\":34433:34439   */\n      0x00\n        /* \"#utility.yul\":34484:34486   */\n      0x1f\n        /* \"#utility.yul\":34480:34487   */\n      not\n        /* \"#utility.yul\":34475:34477   */\n      0x1f\n        /* \"#utility.yul\":34468:34473   */\n      dup4\n        /* \"#utility.yul\":34464:34478   */\n      add\n        /* \"#utility.yul\":34460:34488   */\n      and\n        /* \"#utility.yul\":34450:34488   */\n      swap1\n      pop\n        /* \"#utility.yul\":34392:34494   */\n      swap2\n      swap1\n      pop\n      jump\t// out\n        /* \"#utility.yul\":34500:34667   */\n    tag_846:\n        /* \"#utility.yul\":34640:34659   */\n      0x43686172697479206e6f7420666f756e64000000000000000000000000000000\n        /* \"#utility.yul\":34636:34637   */\n      0x00\n        /* \"#utility.yul\":34628:34634   */\n      dup3\n        /* \"#utility.yul\":34624:34638   */\n      add\n        /* \"#utility.yul\":34617:34660   */\n      mstore\n        /* \"#utility.yul\":34500:34667   */\n      pop\n      jump\t// out\n        /* \"#utility.yul\":34673:34905   */\n    tag_851:\n        /* \"#utility.yul\":34813:34847   */\n      0x4e6f2070726f6a6563747320617661696c61626c6520666f7220616363657074\n        /* \"#utility.yul\":34809:34810   */\n      0x00\n        /* \"#utility.yul\":34801:34807   */\n      dup3\n        /* \"#utility.yul\":34797:34811   */\n      add\n        /* \"#utility.yul\":34790:34848   */\n      mstore\n        /* \"#utility.yul\":34882:34897   */\n      0x696e6720646f6e6174696f6e7300000000000000000000000000000000000000\n        /* \"#utility.yul\":34877:34879   */\n      0x20\n        /* \"#utility.yul\":34869:34875   */\n      dup3\n        /* \"#utility.yul\":34865:34880   */\n      add\n        /* \"#utility.yul\":34858:34898   */\n      mstore\n        /* \"#utility.yul\":34673:34905   */\n      pop\n      jump\t// out\n        /* \"#utility.yul\":34911:35155   */\n    tag_856:\n        /* \"#utility.yul\":35051:35085   */\n      0x4e6f207375636820646f6e6f7220657869737420756e64657220746869732070\n        /* \"#utility.yul\":35047:35048   */\n      0x00\n        /* \"#utility.yul\":35039:35045   */\n      dup3\n        /* \"#utility.yul\":35035:35049   */\n      add\n        /* \"#utility.yul\":35028:35086   */\n      mstore\n        /* \"#utility.yul\":35120:35147   */\n      0x726f6a65637420756e6465722074686973206368617269747900000000000000\n        /* \"#utility.yul\":35115:35117   */\n      0x20\n        /* \"#utility.yul\":35107:35113   */\n      dup3\n        /* \"#utility.yul\":35103:35118   */\n      add\n        /* \"#utility.yul\":35096:35148   */\n      mstore\n        /* \"#utility.yul\":34911:35155   */\n      pop\n      jump\t// out\n        /* \"#utility.yul\":35161:35390   */\n    tag_861:\n        /* \"#utility.yul\":35301:35335   */\n      0x596f757220636f6e747269627574696f6e206578636565647320726571756972\n        /* \"#utility.yul\":35297:35298   */\n      0x00\n        /* \"#utility.yul\":35289:35295   */\n      dup3\n        /* \"#utility.yul\":35285:35299   */\n      add\n        /* \"#utility.yul\":35278:35336   */\n      mstore\n        /* \"#utility.yul\":35370:35382   */\n      0x656420616d6f756e742e00000000000000000000000000000000000000000000\n        /* \"#utility.yul\":35365:35367   */\n      0x20\n        /* \"#utility.yul\":35357:35363   */\n      dup3\n        /* \"#utility.yul\":35353:35368   */\n      add\n        /* \"#utility.yul\":35346:35383   */\n      mstore\n        /* \"#utility.yul\":35161:35390   */\n      pop\n      jump\t// out\n        /* \"#utility.yul\":35396:35619   */\n    tag_866:\n        /* \"#utility.yul\":35536:35570   */\n      0x4e6f2070726f6a6563747320666f756e6420756e646572207468697320636861\n        /* \"#utility.yul\":35532:35533   */\n      0x00\n        /* \"#utility.yul\":35524:35530   */\n      dup3\n        /* \"#utility.yul\":35520:35534   */\n      add\n        /* \"#utility.yul\":35513:35571   */\n      mstore\n        /* \"#utility.yul\":35605:35611   */\n      0x7269747900000000000000000000000000000000000000000000000000000000\n        /* \"#utility.yul\":35600:35602   */\n      0x20\n        /* \"#utility.yul\":35592:35598   */\n      dup3\n        /* \"#utility.yul\":35588:35603   */\n      add\n        /* \"#utility.yul\":35581:35612   */\n      mstore\n        /* \"#utility.yul\":35396:35619   */\n      pop\n      jump\t// out\n        /* \"#utility.yul\":35625:35850   */\n    tag_871:\n        /* \"#utility.yul\":35765:35799   */\n      0x4e6f206368617269747920657869737420756e64657220746869732063686172\n        /* \"#utility.yul\":35761:35762   */\n      0x00\n        /* \"#utility.yul\":35753:35759   */\n      dup3\n        /* \"#utility.yul\":35749:35763   */\n      add\n        /* \"#utility.yul\":35742:35800   */\n      mstore\n        /* \"#utility.yul\":35834:35842   */\n      0x6974792069640000000000000000000000000000000000000000000000000000\n        /* \"#utility.yul\":35829:35831   */\n      0x20\n        /* \"#utility.yul\":35821:35827   */\n      dup3\n        /* \"#utility.yul\":35817:35832   */\n      add\n        /* \"#utility.yul\":35810:35843   */\n      mstore\n        /* \"#utility.yul\":35625:35850   */\n      pop\n      jump\t// out\n        /* \"#utility.yul\":35856:36083   */\n    tag_876:\n        /* \"#utility.yul\":35996:36030   */\n      0x596f7520686176656e277420636f6e747269627574656420666f722074686973\n        /* \"#utility.yul\":35992:35993   */\n      0x00\n        /* \"#utility.yul\":35984:35990   */\n      dup3\n        /* \"#utility.yul\":35980:35994   */\n      add\n        /* \"#utility.yul\":35973:36031   */\n      mstore\n        /* \"#utility.yul\":36065:36075   */\n      0x2070726f6a656374000000000000000000000000000000000000000000000000\n        /* \"#utility.yul\":36060:36062   */\n      0x20\n        /* \"#utility.yul\":36052:36058   */\n      dup3\n        /* \"#utility.yul\":36048:36063   */\n      add\n        /* \"#utility.yul\":36041:36076   */\n      mstore\n        /* \"#utility.yul\":35856:36083   */\n      pop\n      jump\t// out\n        /* \"#utility.yul\":36089:36325   */\n    tag_881:\n        /* \"#utility.yul\":36229:36263   */\n      0x53686f756c642062652067726561746572207468616e206f7220657175616c20\n        /* \"#utility.yul\":36225:36226   */\n      0x00\n        /* \"#utility.yul\":36217:36223   */\n      dup3\n        /* \"#utility.yul\":36213:36227   */\n      add\n        /* \"#utility.yul\":36206:36264   */\n      mstore\n        /* \"#utility.yul\":36298:36317   */\n      0x746f206d696e696d756d20616d6f756e74000000000000000000000000000000\n        /* \"#utility.yul\":36293:36295   */\n      0x20\n        /* \"#utility.yul\":36285:36291   */\n      dup3\n        /* \"#utility.yul\":36281:36296   */\n      add\n        /* \"#utility.yul\":36274:36318   */\n      mstore\n        /* \"#utility.yul\":36089:36325   */\n      pop\n      jump\t// out\n        /* \"#utility.yul\":36331:36620   */\n    tag_886:\n        /* \"#utility.yul\":36471:36505   */\n      0x43616e277420726566756e642061732065786368616e67652072657175657374\n        /* \"#utility.yul\":36467:36468   */\n      0x00\n        /* \"#utility.yul\":36459:36465   */\n      dup3\n        /* \"#utility.yul\":36455:36469   */\n      add\n        /* \"#utility.yul\":36448:36506   */\n      mstore\n        /* \"#utility.yul\":36540:36574   */\n      0x2077617320616c726561647920696e69746961746564207769746820626f6172\n        /* \"#utility.yul\":36535:36537   */\n      0x20\n        /* \"#utility.yul\":36527:36533   */\n      dup3\n        /* \"#utility.yul\":36523:36538   */\n      add\n        /* \"#utility.yul\":36516:36575   */\n      mstore\n        /* \"#utility.yul\":36609:36612   */\n      0x6400000000000000000000000000000000000000000000000000000000000000\n        /* \"#utility.yul\":36604:36606   */\n      0x40\n        /* \"#utility.yul\":36596:36602   */\n      dup3\n        /* \"#utility.yul\":36592:36607   */\n      add\n        /* \"#utility.yul\":36585:36613   */\n      mstore\n        /* \"#utility.yul\":36331:36620   */\n      pop\n      jump\t// out\n        /* \"#utility.yul\":36626:36801   */\n    tag_891:\n        /* \"#utility.yul\":36766:36793   */\n      0x4e6f2070726f6a65637420697320637265617465642079657400000000000000\n        /* \"#utility.yul\":36762:36763   */\n      0x00\n        /* \"#utility.yul\":36754:36760   */\n      dup3\n        /* \"#utility.yul\":36750:36764   */\n      add\n        /* \"#utility.yul\":36743:36794   */\n      mstore\n        /* \"#utility.yul\":36626:36801   */\n      pop\n      jump\t// out\n        /* \"#utility.yul\":36807:37056   */\n    tag_896:\n        /* \"#utility.yul\":36947:36981   */\n      0x43616e277420726566756e642061732065786368616e67652072657175657374\n        /* \"#utility.yul\":36943:36944   */\n      0x00\n        /* \"#utility.yul\":36935:36941   */\n      dup3\n        /* \"#utility.yul\":36931:36945   */\n      add\n        /* \"#utility.yul\":36924:36982   */\n      mstore\n        /* \"#utility.yul\":37016:37048   */\n      0x20776173206e6f742072656a65637465642062792074686520626f6172640000\n        /* \"#utility.yul\":37011:37013   */\n      0x20\n        /* \"#utility.yul\":37003:37009   */\n      dup3\n        /* \"#utility.yul\":36999:37014   */\n      add\n        /* \"#utility.yul\":36992:37049   */\n      mstore\n        /* \"#utility.yul\":36807:37056   */\n      pop\n      jump\t// out\n        /* \"#utility.yul\":37062:37287   */\n    tag_901:\n        /* \"#utility.yul\":37202:37236   */\n      0x4e6f2070726f6a65637420657869737420756e64657220746869732070726f6a\n        /* \"#utility.yul\":37198:37199   */\n      0x00\n        /* \"#utility.yul\":37190:37196   */\n      dup3\n        /* \"#utility.yul\":37186:37200   */\n      add\n        /* \"#utility.yul\":37179:37237   */\n      mstore\n        /* \"#utility.yul\":37271:37279   */\n      0x6563742069640000000000000000000000000000000000000000000000000000\n        /* \"#utility.yul\":37266:37268   */\n      0x20\n        /* \"#utility.yul\":37258:37264   */\n      dup3\n        /* \"#utility.yul\":37254:37269   */\n      add\n        /* \"#utility.yul\":37247:37280   */\n      mstore\n        /* \"#utility.yul\":37062:37287   */\n      pop\n      jump\t// out\n        /* \"#utility.yul\":37293:37515   */\n    tag_906:\n        /* \"#utility.yul\":37433:37467   */\n      0x4e6f2070726f6a65637420657869737420756e64657220746869732063686172\n        /* \"#utility.yul\":37429:37430   */\n      0x00\n        /* \"#utility.yul\":37421:37427   */\n      dup3\n        /* \"#utility.yul\":37417:37431   */\n      add\n        /* \"#utility.yul\":37410:37468   */\n      mstore\n        /* \"#utility.yul\":37502:37507   */\n      0x6974790000000000000000000000000000000000000000000000000000000000\n        /* \"#utility.yul\":37497:37499   */\n      0x20\n        /* \"#utility.yul\":37489:37495   */\n      dup3\n        /* \"#utility.yul\":37485:37500   */\n      add\n        /* \"#utility.yul\":37478:37508   */\n      mstore\n        /* \"#utility.yul\":37293:37515   */\n      pop\n      jump\t// out\n        /* \"#utility.yul\":37521:37745   */\n    tag_911:\n        /* \"#utility.yul\":37661:37695   */\n      0x4e6f2070726f6a65637420657869737420756e64657220746869732070726f6a\n        /* \"#utility.yul\":37657:37658   */\n      0x00\n        /* \"#utility.yul\":37649:37655   */\n      dup3\n        /* \"#utility.yul\":37645:37659   */\n      add\n        /* \"#utility.yul\":37638:37696   */\n      mstore\n        /* \"#utility.yul\":37730:37737   */\n      0x6563744964000000000000000000000000000000000000000000000000000000\n        /* \"#utility.yul\":37725:37727   */\n      0x20\n        /* \"#utility.yul\":37717:37723   */\n      dup3\n        /* \"#utility.yul\":37713:37728   */\n      add\n        /* \"#utility.yul\":37706:37738   */\n      mstore\n        /* \"#utility.yul\":37521:37745   */\n      pop\n      jump\t// out\n        /* \"#utility.yul\":37751:37978   */\n    tag_916:\n        /* \"#utility.yul\":37891:37925   */\n      0x4e6f20737563682070726f6a65637420657869737420756e6465722074686973\n        /* \"#utility.yul\":37887:37888   */\n      0x00\n        /* \"#utility.yul\":37879:37885   */\n      dup3\n        /* \"#utility.yul\":37875:37889   */\n      add\n        /* \"#utility.yul\":37868:37926   */\n      mstore\n        /* \"#utility.yul\":37960:37970   */\n      0x2063686172697479000000000000000000000000000000000000000000000000\n        /* \"#utility.yul\":37955:37957   */\n      0x20\n        /* \"#utility.yul\":37947:37953   */\n      dup3\n        /* \"#utility.yul\":37943:37958   */\n      add\n        /* \"#utility.yul\":37936:37971   */\n      mstore\n        /* \"#utility.yul\":37751:37978   */\n      pop\n      jump\t// out\n        /* \"#utility.yul\":37984:38166   */\n    tag_921:\n        /* \"#utility.yul\":38124:38158   */\n      0x546869732063686172697479206973206e6f742079657420617070726f766564\n        /* \"#utility.yul\":38120:38121   */\n      0x00\n        /* \"#utility.yul\":38112:38118   */\n      dup3\n        /* \"#utility.yul\":38108:38122   */\n      add\n        /* \"#utility.yul\":38101:38159   */\n      mstore\n        /* \"#utility.yul\":37984:38166   */\n      pop\n      jump\t// out\n        /* \"#utility.yul\":38172:38350   */\n    tag_926:\n        /* \"#utility.yul\":38312:38342   */\n      0x4e6f206368617269747920697320726567697374657265642079657400000000\n        /* \"#utility.yul\":38308:38309   */\n      0x00\n        /* \"#utility.yul\":38300:38306   */\n      dup3\n        /* \"#utility.yul\":38296:38310   */\n      add\n        /* \"#utility.yul\":38289:38343   */\n      mstore\n        /* \"#utility.yul\":38172:38350   */\n      pop\n      jump\t// out\n        /* \"#utility.yul\":38356:38587   */\n    tag_931:\n        /* \"#utility.yul\":38496:38530   */\n      0x4e6f206d6f726520646f6e6174696f6e7320616363657074656420666f722074\n        /* \"#utility.yul\":38492:38493   */\n      0x00\n        /* \"#utility.yul\":38484:38490   */\n      dup3\n        /* \"#utility.yul\":38480:38494   */\n      add\n        /* \"#utility.yul\":38473:38531   */\n      mstore\n        /* \"#utility.yul\":38565:38579   */\n      0x6869732070726f6a6563742e0000000000000000000000000000000000000000\n        /* \"#utility.yul\":38560:38562   */\n      0x20\n        /* \"#utility.yul\":38552:38558   */\n      dup3\n        /* \"#utility.yul\":38548:38563   */\n      add\n        /* \"#utility.yul\":38541:38580   */\n      mstore\n        /* \"#utility.yul\":38356:38587   */\n      pop\n      jump\t// out\n        /* \"#utility.yul\":38593:38715   */\n    tag_1044:\n        /* \"#utility.yul\":38682:38684   */\n      0x0a\n        /* \"#utility.yul\":38675:38680   */\n      dup2\n        /* \"#utility.yul\":38672:38685   */\n      lt\n        /* \"#utility.yul\":38662:38709   */\n      tag_1099\n      jumpi\n        /* \"#utility.yul\":38689:38707   */\n      tag_1100\n      tag_188\n      jump\t// in\n    tag_1100:\n        /* \"#utility.yul\":38662:38709   */\n    tag_1099:\n        /* \"#utility.yul\":38593:38715   */\n      pop\n      jump\t// out\n        /* \"#utility.yul\":38721:38843   */\n    tag_718:\n        /* \"#utility.yul\":38794:38818   */\n      tag_1102\n        /* \"#utility.yul\":38812:38817   */\n      dup2\n        /* \"#utility.yul\":38794:38818   */\n      tag_809\n      jump\t// in\n    tag_1102:\n        /* \"#utility.yul\":38787:38792   */\n      dup2\n        /* \"#utility.yul\":38784:38819   */\n      eq\n        /* \"#utility.yul\":38774:38837   */\n      tag_1103\n      jumpi\n        /* \"#utility.yul\":38833:38834   */\n      0x00\n        /* \"#utility.yul\":38830:38831   */\n      dup1\n        /* \"#utility.yul\":38823:38835   */\n      revert\n        /* \"#utility.yul\":38774:38837   */\n    tag_1103:\n        /* \"#utility.yul\":38721:38843   */\n      pop\n      jump\t// out\n        /* \"#utility.yul\":38849:38965   */\n    tag_722:\n        /* \"#utility.yul\":38919:38940   */\n      tag_1105\n        /* \"#utility.yul\":38934:38939   */\n      dup2\n        /* \"#utility.yul\":38919:38940   */\n      tag_827\n      jump\t// in\n    tag_1105:\n        /* \"#utility.yul\":38912:38917   */\n      dup2\n        /* \"#utility.yul\":38909:38941   */\n      eq\n        /* \"#utility.yul\":38899:38959   */\n      tag_1106\n      jumpi\n        /* \"#utility.yul\":38955:38956   */\n      0x00\n        /* \"#utility.yul\":38952:38953   */\n      dup1\n        /* \"#utility.yul\":38945:38957   */\n      revert\n        /* \"#utility.yul\":38899:38959   */\n    tag_1106:\n        /* \"#utility.yul\":38849:38965   */\n      pop\n      jump\t// out\n        /* \"#utility.yul\":38971:39087   */\n    tag_726:\n        /* \"#utility.yul\":39060:39062   */\n      0x0a\n        /* \"#utility.yul\":39053:39058   */\n      dup2\n        /* \"#utility.yul\":39050:39063   */\n      lt\n        /* \"#utility.yul\":39040:39081   */\n      tag_1108\n      jumpi\n        /* \"#utility.yul\":39077:39078   */\n      0x00\n        /* \"#utility.yul\":39074:39075   */\n      dup1\n        /* \"#utility.yul\":39067:39079   */\n      revert\n        /* \"#utility.yul\":39040:39081   */\n    tag_1108:\n        /* \"#utility.yul\":38971:39087   */\n      pop\n      jump\t// out\n        /* \"#utility.yul\":39093:39215   */\n    tag_736:\n        /* \"#utility.yul\":39166:39190   */\n      tag_1110\n        /* \"#utility.yul\":39184:39189   */\n      dup2\n        /* \"#utility.yul\":39166:39190   */\n      tag_934\n      jump\t// in\n    tag_1110:\n        /* \"#utility.yul\":39159:39164   */\n      dup2\n        /* \"#utility.yul\":39156:39191   */\n      eq\n        /* \"#utility.yul\":39146:39209   */\n      tag_1111\n      jumpi\n        /* \"#utility.yul\":39205:39206   */\n      0x00\n        /* \"#utility.yul\":39202:39203   */\n      dup1\n        /* \"#utility.yul\":39195:39207   */\n      revert\n        /* \"#utility.yul\":39146:39209   */\n    tag_1111:\n        /* \"#utility.yul\":39093:39215   */\n      pop\n      jump\t// out\n        /* \"#utility.yul\":39221:39339   */\n    tag_740:\n        /* \"#utility.yul\":39292:39314   */\n      tag_1113\n        /* \"#utility.yul\":39308:39313   */\n      dup2\n        /* \"#utility.yul\":39292:39314   */\n      tag_1047\n      jump\t// in\n    tag_1113:\n        /* \"#utility.yul\":39285:39290   */\n      dup2\n        /* \"#utility.yul\":39282:39315   */\n      eq\n        /* \"#utility.yul\":39272:39333   */\n      tag_1114\n      jumpi\n        /* \"#utility.yul\":39329:39330   */\n      0x00\n        /* \"#utility.yul\":39326:39327   */\n      dup1\n        /* \"#utility.yul\":39319:39331   */\n      revert\n        /* \"#utility.yul\":39272:39333   */\n    tag_1114:\n        /* \"#utility.yul\":39221:39339   */\n      pop\n      jump\t// out\n    stop\n    data_0fd57a96508da25173f82e6faabc4b077c36881e53dd1b21682a822e75096b01 54686973206f7065726174696f6e2063616e20626520706572666f726d6564206f6e6c7920627920426f6172642061646d696e\n    data_5c19b7ff1bcfb320392194574ccc24118e50bba13de42db0a22f05014bb7a7fa 596f7520617265206e6f7420617574686f72697a656420746f207570646174652077697468207468697320737461747573\n    data_ae7511c0e8221605b02a680fd07d0703f28d0f0f32c6884aaca3289d2fe90612 54686973206f7065726174696f6e2063616e20626520706572666f726d6564206f6e6c792062792043686172697479\n\n    auxdata: 0xa26469706673582212202f046fb7037b8e69e95199c1964eb040b5e45f23c8eec5d1c8371ba454ed163b64736f6c63430008070033\n}\n",
				"bytecode": {
					"linkReferences": {},
					"object": "60806040523480156200001157600080fd5b5033600260006101000a81548173ffffffffffffffffffffffffffffffffffffffff021916908373ffffffffffffffffffffffffffffffffffffffff1602179055506040518060400160405280601481526020017f57616974696e6720666f7220617070726f76616c00000000000000000000000081525060076000806009811115620000a357620000a2620006a1565b5b6009811115620000b857620000b7620006a1565b5b81526020019081526020016000209080519060200190620000db929190620005bb565b506040518060400160405280600881526020017f417070726f76656400000000000000000000000000000000000000000000000081525060076000600260098111156200012d576200012c620006a1565b5b6009811115620001425762000141620006a1565b5b8152602001908152602001600020908051906020019062000165929190620005bb565b506040518060400160405280601381526020017f52656a65637465642062792063686172697479000000000000000000000000008152506007600060016009811115620001b757620001b6620006a1565b5b6009811115620001cc57620001cb620006a1565b5b81526020019081526020016000209080519060200190620001ef929190620005bb565b506040518060400160405280601581526020017f50726f6a65637420676f616c20616368696576656400000000000000000000008152506007600060036009811115620002415762000240620006a1565b5b6009811115620002565762000255620006a1565b5b8152602001908152602001600020908051906020019062000279929190620005bb565b506040518060400160405280601281526020017f45786368616e67652072657175657374656400000000000000000000000000008152506007600060046009811115620002cb57620002ca620006a1565b5b6009811115620002e057620002df620006a1565b5b8152602001908152602001600020908051906020019062000303929190620005bb565b506040518060400160405280601981526020017f45786368616e67652072657175657374207265636569766564000000000000008152506007600060056009811115620003555762000354620006a1565b5b60098111156200036a5762000369620006a1565b5b815260200190815260200160002090805190602001906200038d929190620005bb565b506040518060400160405280601981526020017f45786368616e6765207265717565737420617070726f766564000000000000008152506007600060066009811115620003df57620003de620006a1565b5b6009811115620003f457620003f3620006a1565b5b8152602001908152602001600020908051906020019062000417929190620005bb565b506040518060400160405280601981526020017f45786368616e676520726571756573742072656a6563746564000000000000008152506007600060076009811115620004695762000468620006a1565b5b60098111156200047e576200047d620006a1565b5b81526020019081526020016000209080519060200190620004a1929190620005bb565b506040518060400160405280600e81526020017f46756e647320726566756e6465640000000000000000000000000000000000008152506007600060086009811115620004f357620004f2620006a1565b5b6009811115620005085762000507620006a1565b5b815260200190815260200160002090805190602001906200052b929190620005bb565b506040518060400160405280600e81526020017f50726f6a65637420636c6f736564000000000000000000000000000000000000815250600760006009808111156200057c576200057b620006a1565b5b6009811115620005915762000590620006a1565b5b81526020019081526020016000209080519060200190620005b4929190620005bb565b50620006ff565b828054620005c9906200066b565b90600052602060002090601f016020900481019282620005ed576000855562000639565b82601f106200060857805160ff191683800117855562000639565b8280016001018555821562000639579182015b82811115620006385782518255916020019190600101906200061b565b5b5090506200064891906200064c565b5090565b5b80821115620006675760008160009055506001016200064d565b5090565b600060028204905060018216806200068457607f821691505b602082108114156200069b576200069a620006d0565b5b50919050565b7f4e487b7100000000000000000000000000000000000000000000000000000000600052602160045260246000fd5b7f4e487b7100000000000000000000000000000000000000000000000000000000600052602260045260246000fd5b614ac7806200070f6000396000f3fe6080604052600436106100fe5760003560e01c80639d8e7e8911610095578063b9d093bf11610064578063b9d093bf14610363578063cfc3d4341461038c578063e8620d14146103c9578063ef6add32146103e5578063fb709d2e14610422576100fe565b80639d8e7e8914610292578063a0fd6622146102cf578063ace1bcf81461030f578063b61a7f7614610338576100fe565b80631ed056d8116100d15780631ed056d8146101d85780635ea343261461021757806385a932231461024057806385fa74bc14610269576100fe565b8063107046bd14610103578063141020cc1461014757806317f308b5146101705780631ab33308146101ad575b600080fd5b34801561010f57600080fd5b5061012a600480360381019061012591906135dc565b610463565b60405161013e989796959493929190614030565b60405180910390f35b34801561015357600080fd5b5061016e60048036038101906101699190613678565b61057d565b005b34801561017c57600080fd5b50610197600480360381019061019291906136e7565b61075b565b6040516101a49190613f46565b60405180910390f35b3480156101b957600080fd5b506101c26108f7565b6040516101cf9190613cc9565b60405180910390f35b3480156101e457600080fd5b506101ff60048036038101906101fa91906136e7565b61090a565b60405161020e93929190613ff9565b60405180910390f35b34801561022357600080fd5b5061023e6004803603810190610239919061388a565b610af0565b005b34801561024c57600080fd5b506102676004803603810190610262919061388a565b610fcc565b005b34801561027557600080fd5b50610290600480360381019061028b91906136e7565b611581565b005b34801561029e57600080fd5b506102b960048036038101906102b491906136e7565b611a0f565b6040516102c69190613ce4565b60405180910390f35b3480156102db57600080fd5b506102f660048036038101906102f191906135dc565b611bf9565b6040516103069493929190613c68565b60405180910390f35b34801561031b57600080fd5b5061033660048036038101906103319190613609565b611fbf565b005b34801561034457600080fd5b5061034d61220a565b60405161035a9190613c4d565b60405180910390f35b34801561036f57600080fd5b5061038a600480360381019061038591906137e1565b612230565b005b34801561039857600080fd5b506103b360048036038101906103ae9190613727565b61261e565b6040516103c09190613f46565b60405180910390f35b6103e360048036038101906103de919061377a565b612825565b005b3480156103f157600080fd5b5061040c600480360381019061040791906135af565b612dce565b6040516104199190613ce4565b60405180910390f35b34801561042e57600080fd5b50610449600480360381019061044491906135dc565b612e6e565b60405161045a959493929190613f61565b60405180910390f35b6000818154811061047357600080fd5b90600052602060002090600702016000915090508060000154908060010154908060020154908060030154908060040160009054906101000a900473ffffffffffffffffffffffffffffffffffffffff16908060040160149054906101000a900460ff16908060050180546104e7906142a6565b80601f0160208091040260200160405190810160405280929190818152602001828054610513906142a6565b80156105605780601f1061053557610100808354040283529160200191610560565b820191906000526020600020905b81548152906001019060200180831161054357829003601f168201915b5050505050908060060160009054906101000a900460ff16905088565b600260009054906101000a900473ffffffffffffffffffffffffffffffffffffffff1673ffffffffffffffffffffffffffffffffffffffff163373ffffffffffffffffffffffffffffffffffffffff16146040518060600160405280603381526020016149ff6033913990610628576040517f08c379a000000000000000000000000000000000000000000000000000000000815260040161061f9190613ce4565b60405180910390fd5b5060006040518060a001604052808581526020016000151581526020016040518060200160405280600081525081526020018481526020018373ffffffffffffffffffffffffffffffffffffffff16815250905060018190806001815401808255809150506001900390600052602060002090600502016000909190919091506000820151816000015560208201518160010160006101000a81548160ff02191690831515021790555060408201518160020190805190602001906106ee929190613433565b50606082015181600301908051906020019061070b929190613433565b5060808201518160040160006101000a81548173ffffffffffffffffffffffffffffffffffffffff021916908373ffffffffffffffffffffffffffffffffffffffff160217905550505050505050565b600080600080549050116107a4576040517f08c379a000000000000000000000000000000000000000000000000000000000815260040161079b90613e26565b60405180910390fd5b60006003600085815260200190815260200160002090506000818054905011610802576040517f08c379a00000000000000000000000000000000000000000000000000000000081526004016107f990613d06565b60405180910390fd5b60005b81805490508110156108b55783828281548110610825576108246143df565b5b90600052602060002090600702016000015414156108a2578181815481106108505761084f6143df565b5b906000526020600020906007020160040160009054906101000a900473ffffffffffffffffffffffffffffffffffffffff1673ffffffffffffffffffffffffffffffffffffffff1631925050506108f1565b80806108ad90614309565b915050610805565b506040517f08c379a00000000000000000000000000000000000000000000000000000000081526004016108e890613ec6565b60405180910390fd5b92915050565b600660009054906101000a900460ff1681565b60008060008060008054905011610956576040517f08c379a000000000000000000000000000000000000000000000000000000000815260040161094d90613e26565b60405180910390fd5b600060036000878152602001908152602001600020905060008180549050116109b4576040517f08c379a00000000000000000000000000000000000000000000000000000000081526004016109ab90613d06565b60405180910390fd5b60005b8180549050811015610aad57858282815481106109d7576109d66143df565b5b9060005260206000209060070201600001541415610a9a57818181548110610a0257610a016143df565b5b906000526020600020906007020160020154828281548110610a2757610a266143df565b5b906000526020600020906007020160030154838381548110610a4c57610a4b6143df565b5b906000526020600020906007020160030154848481548110610a7157610a706143df565b5b906000526020600020906007020160020154610a8d91906141b6565b9450945094505050610ae9565b8080610aa590614309565b9150506109b7565b506040517f08c379a0000000000000000000000000000000000000000000000000000000008152600401610ae090613ec6565b60405180910390fd5b9250925092565b600260009054906101000a900473ffffffffffffffffffffffffffffffffffffffff1673ffffffffffffffffffffffffffffffffffffffff163373ffffffffffffffffffffffffffffffffffffffff16146040518060600160405280603381526020016149ff6033913990610b9b576040517f08c379a0000000000000000000000000000000000000000000000000000000008152600401610b929190613ce4565b60405180910390fd5b506000808054905011610be3576040517f08c379a0000000000000000000000000000000000000000000000000000000008152600401610bda90613e26565b60405180910390fd5b60006009811115610bf757610bf6614381565b5b8160ff166009811115610c0d57610c0c614381565b5b6009811115610c1f57610c1e614381565b5b1415604051806060016040528060318152602001614a326031913990610c7b576040517f08c379a0000000000000000000000000000000000000000000000000000000008152600401610c729190613ce4565b60405180910390fd5b5060026009811115610c9057610c8f614381565b5b8160ff166009811115610ca657610ca5614381565b5b6009811115610cb857610cb7614381565b5b1415604051806060016040528060318152602001614a326031913990610d14576040517f08c379a0000000000000000000000000000000000000000000000000000000008152600401610d0b9190613ce4565b60405180910390fd5b5060036009811115610d2957610d28614381565b5b8160ff166009811115610d3f57610d3e614381565b5b6009811115610d5157610d50614381565b5b1415604051806060016040528060318152602001614a326031913990610dad576040517f08c379a0000000000000000000000000000000000000000000000000000000008152600401610da49190613ce4565b60405180910390fd5b5060046009811115610dc257610dc1614381565b5b8160ff166009811115610dd857610dd7614381565b5b6009811115610dea57610de9614381565b5b1415604051806060016040528060318152602001614a326031913990610e46576040517f08c379a0000000000000000000000000000000000000000000000000000000008152600401610e3d9190613ce4565b60405180910390fd5b5060006003600084815260200190815260200160002090506000818054905011610ea5576040517f08c379a0000000000000000000000000000000000000000000000000000000008152600401610e9c90613e86565b60405180910390fd5b60005b8180549050811015610fc55784828281548110610ec857610ec76143df565b5b9060005260206000209060070201600001541415610fb2578260ff166009811115610ef657610ef5614381565b5b828281548110610f0957610f086143df565b5b906000526020600020906007020160060160006101000a81548160ff02191690836009811115610f3c57610f3b614381565b5b02179055507f42b0281ef1ba120f08ae315789f8639d48731db33eaac502b629a775c997471b8486848481548110610f7757610f766143df565b5b906000526020600020906007020160060160009054906101000a900460ff16604051610fa593929190613fc2565b60405180910390a1610fc5565b8080610fbd90614309565b915050610ea8565b5050505050565b600260009054906101000a900473ffffffffffffffffffffffffffffffffffffffff1673ffffffffffffffffffffffffffffffffffffffff163373ffffffffffffffffffffffffffffffffffffffff1614156040518060600160405280602f8152602001614a63602f913990611078576040517f08c379a000000000000000000000000000000000000000000000000000000000815260040161106f9190613ce4565b60405180910390fd5b5060006003600981111561108f5761108e614381565b5b8260ff1660098111156110a5576110a4614381565b5b60098111156110b7576110b6614381565b5b1415604051806060016040528060318152602001614a326031913990611113576040517f08c379a000000000000000000000000000000000000000000000000000000000815260040161110a9190613ce4565b60405180910390fd5b506005600981111561112857611127614381565b5b8260ff16600981111561113e5761113d614381565b5b60098111156111505761114f614381565b5b1415604051806060016040528060318152602001614a3260319139906111ac576040517f08c379a00000000000000000000000000000000000000000000000000000000081526004016111a39190613ce4565b60405180910390fd5b506000600360008581526020019081526020016000209050600081805490501161120b576040517f08c379a000000000000000000000000000000000000000000000000000000000815260040161120290613e66565b60405180910390fd5b60005b8180549050811015611579578582828154811061122e5761122d6143df565b5b906000526020600020906007020160000154141561155b5760019250600082828154811061125f5761125e6143df565b5b906000526020600020906007020160040160146101000a81548160ff0219169083151502179055506007600981111561129b5761129a614381565b5b8460ff1660098111156112b1576112b0614381565b5b60098111156112c3576112c2614381565b5b14806113085750600660098111156112de576112dd614381565b5b8460ff1660098111156112f4576112f3614381565b5b600981111561130657611305614381565b5b145b15611479577f2de098063448dbe8b26fa82794cd68cf748edb4f3e2cc43166e3ad659757019e85878660ff16600981111561134657611345614381565b5b60405161135593929190613fc2565b60405180910390a16007600981111561137157611370614381565b5b8460ff16600981111561138757611386614381565b5b600981111561139957611398614381565b5b14156113ea576113a98587612ff1565b7fbd0e0cbb7f526d9c7052b56c5d1873ee7b834959cd785b696dd0f9d418d9617a858760086040516113dd93929190613fc2565b60405180910390a1611474565b600660098111156113fe576113fd614381565b5b8460ff16600981111561141457611413614381565b5b600981111561142657611425614381565b5b1415611473576114368587613287565b7fbd0e0cbb7f526d9c7052b56c5d1873ee7b834959cd785b696dd0f9d418d9617a8587600960405161146a93929190613fc2565b60405180910390a15b5b61155a565b8360ff16600981111561148f5761148e614381565b5b8282815481106114a2576114a16143df565b5b906000526020600020906007020160060160006101000a81548160ff021916908360098111156114d5576114d4614381565b5b0217905550600460098111156114ee576114ed614381565b5b8460ff16600981111561150457611503614381565b5b600981111561151657611515614381565b5b1415611559577fd49fc9fa26fa9fc112efd004acb9eeabf80810373d2cbb1a7884d4d64e8e8d2b8587600460405161155093929190613fc2565b60405180910390a15b5b5b821561156657611579565b808061157190614309565b91505061120e565b505050505050565b600080600060036000868152602001908152602001600020905060008180549050116115e2576040517f08c379a00000000000000000000000000000000000000000000000000000000081526004016115d990613d06565b60405180910390fd5b600060056000868152602001908152602001600020905060005b81805490508110156119c6573373ffffffffffffffffffffffffffffffffffffffff16828281548110611632576116316143df565b5b906000526020600020906003020160010160009054906101000a900473ffffffffffffffffffffffffffffffffffffffff1673ffffffffffffffffffffffffffffffffffffffff161480156116bc57506000828281548110611697576116966143df565b5b9060005260206000209060030201600201600088815260200190815260200160002054115b156119b35760005b83805490508110156118b257868482815481106116e4576116e36143df565b5b906000526020600020906007020160000154141561189f57600360098111156117105761170f614381565b5b848281548110611723576117226143df565b5b906000526020600020906007020160060160009054906101000a900460ff16600981111561175457611753614381565b5b1115611795576040517f08c379a000000000000000000000000000000000000000000000000000000000815260040161178c90613e06565b60405180910390fd5b8282815481106117a8576117a76143df565b5b90600052602060002090600302016002016000888152602001908152602001600020548482815481106117de576117dd6143df565b5b9060005260206000209060070201600301546117fa91906141b6565b84828154811061180d5761180c6143df565b5b906000526020600020906007020160030181905550838181548110611835576118346143df565b5b906000526020600020906007020160040160149054906101000a900460ff1661189657600184828154811061186d5761186c6143df565b5b906000526020600020906007020160040160146101000a81548160ff0219169083151502179055505b600195506118b2565b80806118aa90614309565b9150506116c4565b50846118f3576040517f08c379a00000000000000000000000000000000000000000000000000000000081526004016118ea90613ea6565b60405180910390fd5b3373ffffffffffffffffffffffffffffffffffffffff166108fc8383815481106119205761191f6143df565b5b90600052602060002090600302016002016000898152602001908152602001600020549081150290604051600060405180830381858888f1935050505015801561196e573d6000803e3d6000fd5b506000828281548110611984576119836143df565b5b9060005260206000209060030201600201600088815260200190815260200160002081905550600193506119c6565b80806119be90614309565b9150506115fc565b5082611a07576040517f08c379a00000000000000000000000000000000000000000000000000000000081526004016119fe90613dc6565b60405180910390fd5b505050505050565b606060006003600085815260200190815260200160002090506000818054905011611a6f576040517f08c379a0000000000000000000000000000000000000000000000000000000008152600401611a6690613d06565b60405180910390fd5b60005b8180549050811015611bb75783828281548110611a9257611a916143df565b5b9060005260206000209060070201600001541415611ba45760076000838381548110611ac157611ac06143df565b5b906000526020600020906007020160060160009054906101000a900460ff166009811115611af257611af1614381565b5b6009811115611b0457611b03614381565b5b81526020019081526020016000208054611b1d906142a6565b80601f0160208091040260200160405190810160405280929190818152602001828054611b49906142a6565b8015611b965780601f10611b6b57610100808354040283529160200191611b96565b820191906000526020600020905b815481529060010190602001808311611b7957829003601f168201915b505050505092505050611bf3565b8080611baf90614309565b915050611a72565b506040517f08c379a0000000000000000000000000000000000000000000000000000000008152600401611bea90613ec6565b60405180910390fd5b92915050565b6060806060806000808054905011611c46576040517f08c379a0000000000000000000000000000000000000000000000000000000008152600401611c3d90613e26565b60405180910390fd5b60006003600087815260200190815260200160002090506000818054905011611ca4576040517f08c379a0000000000000000000000000000000000000000000000000000000008152600401611c9b90613d86565b60405180910390fd5b6000818054905067ffffffffffffffff811115611cc457611cc361440e565b5b604051908082528060200260200182016040528015611cf25781602001602082028036833780820191505090505b5090506000828054905067ffffffffffffffff811115611d1557611d1461440e565b5b604051908082528060200260200182016040528015611d435781602001602082028036833780820191505090505b5090506000838054905067ffffffffffffffff811115611d6657611d6561440e565b5b604051908082528060200260200182016040528015611d945781602001602082028036833780820191505090505b5090506000848054905067ffffffffffffffff811115611db757611db661440e565b5b604051908082528060200260200182016040528015611de55781602001602082028036833780820191505090505b5090506000805b8680549050811015611f6157868181548110611e0b57611e0a6143df565b5b906000526020600020906007020160040160149054906101000a900460ff1615611f4e57868181548110611e4257611e416143df565b5b906000526020600020906007020160000154868381518110611e6757611e666143df565b5b602002602001018181525050868181548110611e8657611e856143df565b5b906000526020600020906007020160010154858381518110611eab57611eaa6143df565b5b602002602001018181525050868181548110611eca57611ec96143df565b5b906000526020600020906007020160020154848381518110611eef57611eee6143df565b5b602002602001018181525050868181548110611f0e57611f0d6143df565b5b906000526020600020906007020160030154838381518110611f3357611f326143df565b5b6020026020010181815250508180611f4a90614309565b9250505b8080611f5990614309565b915050611dec565b506000855111611fa6576040517f08c379a0000000000000000000000000000000000000000000000000000000008152600401611f9d90613d26565b60405180910390fd5b8484848499509950995099505050505050509193509193565b600260009054906101000a900473ffffffffffffffffffffffffffffffffffffffff1673ffffffffffffffffffffffffffffffffffffffff163373ffffffffffffffffffffffffffffffffffffffff16146040518060600160405280603381526020016149ff603391399061206a576040517f08c379a00000000000000000000000000000000000000000000000000000000081526004016120619190613ce4565b60405180910390fd5b506000600180549050116120b3576040517f08c379a00000000000000000000000000000000000000000000000000000000081526004016120aa90613f06565b60405180910390fd5b6000805b6001805490508110156121c35784600182815481106120d9576120d86143df565b5b90600052602060002090600502016000015414156121b0578360018281548110612106576121056143df565b5b906000526020600020906005020160010160006101000a81548160ff02191690831515021790555060011515841515141561216c5760016004600087815260200190815260200160002060006101000a81548160ff0219169083151502179055506121a7565b8260018281548110612181576121806143df565b5b906000526020600020906005020160020190805190602001906121a5929190613433565b505b600191506121c3565b80806121bb90614309565b9150506120b7565b5080612204576040517f08c379a00000000000000000000000000000000000000000000000000000000081526004016121fb90613da6565b60405180910390fd5b50505050565b600260009054906101000a900473ffffffffffffffffffffffffffffffffffffffff1681565b600260009054906101000a900473ffffffffffffffffffffffffffffffffffffffff1673ffffffffffffffffffffffffffffffffffffffff163373ffffffffffffffffffffffffffffffffffffffff1614156040518060600160405280602f8152602001614a63602f9139906122dc576040517f08c379a00000000000000000000000000000000000000000000000000000000081526004016122d39190613ce4565b60405180910390fd5b50600060018054905011612325576040517f08c379a000000000000000000000000000000000000000000000000000000000815260040161231c90613f06565b60405180910390fd5b6004600087815260200190815260200160002060009054906101000a900460ff16612385576040517f08c379a000000000000000000000000000000000000000000000000000000000815260040161237c90613ee6565b60405180910390fd5b6000604051806101000160405280878152602001868152602001858152602001600081526020018473ffffffffffffffffffffffffffffffffffffffff168152602001600115158152602001838152602001600260098111156123eb576123ea614381565b5b815250905060008190806001815401808255809150506001900390600052602060002090600702016000909190919091506000820151816000015560208201518160010155604082015181600201556060820151816003015560808201518160040160006101000a81548173ffffffffffffffffffffffffffffffffffffffff021916908373ffffffffffffffffffffffffffffffffffffffff16021790555060a08201518160040160146101000a81548160ff02191690831515021790555060c08201518160050190805190602001906124c7929190613433565b5060e08201518160060160006101000a81548160ff021916908360098111156124f3576124f2614381565b5b02179055505050600360008881526020019081526020016000208190806001815401808255809150506001900390600052602060002090600702016000909190919091506000820151816000015560208201518160010155604082015181600201556060820151816003015560808201518160040160006101000a81548173ffffffffffffffffffffffffffffffffffffffff021916908373ffffffffffffffffffffffffffffffffffffffff16021790555060a08201518160040160146101000a81548160ff02191690831515021790555060c08201518160050190805190602001906125e2929190613433565b5060e08201518160060160006101000a81548160ff0219169083600981111561260e5761260d614381565b5b0217905550505050505050505050565b60008060008054905011612667576040517f08c379a000000000000000000000000000000000000000000000000000000000815260040161265e90613e26565b60405180910390fd5b600060036000868152602001908152602001600020905060008180549050116126c5576040517f08c379a00000000000000000000000000000000000000000000000000000000081526004016126bc90613d06565b60405180910390fd5b60005b81805490508110156127e257848282815481106126e8576126e76143df565b5b90600052602060002090600702016000015414156127cf57600060056000878152602001908152602001600020905060005b81805490508110156127cc578582828154811061273a576127396143df565b5b90600052602060002090600302016000015414156127b957818181548110612765576127646143df565b5b906000526020600020906003020160010160009054906101000a900473ffffffffffffffffffffffffffffffffffffffff1673ffffffffffffffffffffffffffffffffffffffff163194505050505061281e565b80806127c490614309565b91505061271a565b50505b80806127da90614309565b9150506126c8565b506040517f08c379a000000000000000000000000000000000000000000000000000000000815260040161281590613d46565b60405180910390fd5b9392505050565b6000806003600087815260200190815260200160002090506000818054905011612884576040517f08c379a000000000000000000000000000000000000000000000000000000000815260040161287b90613d06565b60405180910390fd5b60005b8180549050811015612d8557858282815481106128a7576128a66143df565b5b9060005260206000209060070201600001541415612d72578181815481106128d2576128d16143df565b5b906000526020600020906007020160040160149054906101000a900460ff1615612d2e57818181548110612909576129086143df565b5b90600052602060002090600702016001015484101561295d576040517f08c379a000000000000000000000000000000000000000000000000000000000815260040161295490613de6565b60405180910390fd5b8181815481106129705761296f6143df565b5b906000526020600020906007020160020154828281548110612995576129946143df565b5b906000526020600020906007020160030154856129b29190614160565b11156129f3576040517f08c379a00000000000000000000000000000000000000000000000000000000081526004016129ea90613d66565b60405180910390fd5b83828281548110612a0757612a066143df565b5b906000526020600020906007020160030154612a239190614160565b828281548110612a3657612a356143df565b5b9060005260206000209060070201600301819055506000600560008881526020019081526020016000209050600081805490509050600080600090505b8380549050811015612b5f573373ffffffffffffffffffffffffffffffffffffffff16848281548110612aa957612aa86143df565b5b906000526020600020906003020160010160009054906101000a900473ffffffffffffffffffffffffffffffffffffffff1673ffffffffffffffffffffffffffffffffffffffff161415612b4c5787848281548110612b0b57612b0a6143df565b5b906000526020600020906003020160020160008c81526020019081526020016000206000828254612b3c9190614160565b9250508190555060019150612b5f565b8080612b5790614309565b915050612a73565b5080612c0f5782600181600181540180825580915050039060005260206000209050506000838381548110612b9757612b966143df565b5b90600052602060002090600302019050888160000181905550338160010160006101000a81548173ffffffffffffffffffffffffffffffffffffffff021916908373ffffffffffffffffffffffffffffffffffffffff160217905550878160020160008c815260200190815260200160002081905550505b848481548110612c2257612c216143df565b5b906000526020600020906007020160020154858581548110612c4757612c466143df565b5b9060005260206000209060070201600301541415612d26576003858581548110612c7457612c736143df565b5b906000526020600020906007020160060160006101000a81548160ff02191690836009811115612ca757612ca6614381565b5b02179055506000858581548110612cc157612cc06143df565b5b906000526020600020906007020160040160146101000a81548160ff0219169083151502179055507f4460a3075d16e0c301975989c352adf5efef3f00e4b1cd798431dddda7179e588a8a6003604051612d1d93929190613fc2565b60405180910390a15b505050612d69565b6040517f08c379a0000000000000000000000000000000000000000000000000000000008152600401612d6090613f26565b60405180910390fd5b60019250612d85565b8080612d7d90614309565b915050612887565b5081612dc6576040517f08c379a0000000000000000000000000000000000000000000000000000000008152600401612dbd90613ec6565b60405180910390fd5b505050505050565b60076020528060005260406000206000915090508054612ded906142a6565b80601f0160208091040260200160405190810160405280929190818152602001828054612e19906142a6565b8015612e665780601f10612e3b57610100808354040283529160200191612e66565b820191906000526020600020905b815481529060010190602001808311612e4957829003601f168201915b505050505081565b60018181548110612e7e57600080fd5b90600052602060002090600502016000915090508060000154908060010160009054906101000a900460ff1690806002018054612eba906142a6565b80601f0160208091040260200160405190810160405280929190818152602001828054612ee6906142a6565b8015612f335780601f10612f0857610100808354040283529160200191612f33565b820191906000526020600020905b815481529060010190602001808311612f1657829003601f168201915b505050505090806003018054612f48906142a6565b80601f0160208091040260200160405190810160405280929190818152602001828054612f74906142a6565b8015612fc15780601f10612f9657610100808354040283529160200191612fc1565b820191906000526020600020905b815481529060010190602001808311612fa457829003601f168201915b5050505050908060040160009054906101000a900473ffffffffffffffffffffffffffffffffffffffff16905085565b6000806003600085815260200190815260200160002090506000818054905011613050576040517f08c379a000000000000000000000000000000000000000000000000000000000815260040161304790613d06565b60405180910390fd5b60005b81805490508110156132405783828281548110613073576130726143df565b5b906000526020600020906007020160000154141561322d576007600981111561309f5761309e614381565b5b8282815481106130b2576130b16143df565b5b906000526020600020906007020160060160009054906101000a900460ff1660098111156130e3576130e2614381565b5b14613123576040517f08c379a000000000000000000000000000000000000000000000000000000000815260040161311a90613e46565b60405180910390fd5b600060056000868152602001908152602001600020905060005b818054905081101561322257600082828154811061315e5761315d6143df565b5b90600052602060002090600302016002016000888152602001908152602001600020549050828281548110613196576131956143df565b5b906000526020600020906003020160010160009054906101000a900473ffffffffffffffffffffffffffffffffffffffff1673ffffffffffffffffffffffffffffffffffffffff166108fc829081150290604051600060405180830381858888f1935050505015801561320d573d6000803e3d6000fd5b5050808061321a90614309565b91505061313d565b506001935050613240565b808061323890614309565b915050613053565b5081613281576040517f08c379a000000000000000000000000000000000000000000000000000000000815260040161327890613ea6565b60405180910390fd5b50505050565b60008060036000858152602001908152602001600020905060008180549050116132e6576040517f08c379a00000000000000000000000000000000000000000000000000000000081526004016132dd90613d06565b60405180910390fd5b60005b81805490508110156133ec5783828281548110613309576133086143df565b5b90600052602060002090600702016000015414156133d957818181548110613334576133336143df565b5b906000526020600020906007020160040160009054906101000a900473ffffffffffffffffffffffffffffffffffffffff1673ffffffffffffffffffffffffffffffffffffffff166108fc838381548110613392576133916143df565b5b9060005260206000209060070201600301549081150290604051600060405180830381858888f193505050501580156133cf573d6000803e3d6000fd5b50600192506133ec565b80806133e490614309565b9150506132e9565b508161342d576040517f08c379a000000000000000000000000000000000000000000000000000000000815260040161342490613ea6565b60405180910390fd5b50505050565b82805461343f906142a6565b90600052602060002090601f01602090048101928261346157600085556134a8565b82601f1061347a57805160ff19168380011785556134a8565b828001600101855582156134a8579182015b828111156134a757825182559160200191906001019061348c565b5b5090506134b591906134b9565b5090565b5b808211156134d25760008160009055506001016134ba565b5090565b60006134e96134e4846140da565b6140b5565b90508281526020810184848401111561350557613504614442565b5b613510848285614264565b509392505050565b60008135905061352781614992565b92915050565b60008135905061353c816149a9565b92915050565b600081359050613551816149c0565b92915050565b600082601f83011261356c5761356b61443d565b5b813561357c8482602086016134d6565b91505092915050565b600081359050613594816149d0565b92915050565b6000813590506135a9816149e7565b92915050565b6000602082840312156135c5576135c461444c565b5b60006135d384828501613542565b91505092915050565b6000602082840312156135f2576135f161444c565b5b600061360084828501613585565b91505092915050565b6000806000606084860312156136225761362161444c565b5b600061363086828701613585565b93505060206136418682870161352d565b925050604084013567ffffffffffffffff81111561366257613661614447565b5b61366e86828701613557565b9150509250925092565b6000806000606084860312156136915761369061444c565b5b600061369f86828701613585565b935050602084013567ffffffffffffffff8111156136c0576136bf614447565b5b6136cc86828701613557565b92505060406136dd86828701613518565b9150509250925092565b600080604083850312156136fe576136fd61444c565b5b600061370c85828601613585565b925050602061371d85828601613585565b9150509250929050565b6000806000606084860312156137405761373f61444c565b5b600061374e86828701613585565b935050602061375f86828701613585565b925050604061377086828701613585565b9150509250925092565b600080600080608085870312156137945761379361444c565b5b60006137a287828801613585565b94505060206137b387828801613585565b93505060406137c487828801613585565b92505060606137d587828801613585565b91505092959194509250565b60008060008060008060c087890312156137fe576137fd61444c565b5b600061380c89828a01613585565b965050602061381d89828a01613585565b955050604061382e89828a01613585565b945050606061383f89828a01613585565b935050608061385089828a01613518565b92505060a087013567ffffffffffffffff81111561387157613870614447565b5b61387d89828a01613557565b9150509295509295509295565b6000806000606084860312156138a3576138a261444c565b5b60006138b186828701613585565b93505060206138c286828701613585565b92505060406138d38682870161359a565b9150509250925092565b60006138e98383613c2f565b60208301905092915050565b6138fe816141ea565b82525050565b600061390f8261411b565b613919818561413e565b93506139248361410b565b8060005b8381101561395557815161393c88826138dd565b975061394783614131565b925050600181019050613928565b5085935050505092915050565b61396b816141fc565b82525050565b61397a81614252565b82525050565b600061398b82614126565b613995818561414f565b93506139a5818560208601614273565b6139ae81614451565b840191505092915050565b60006139c660118361414f565b91506139d182614462565b602082019050919050565b60006139e9602d8361414f565b91506139f48261448b565b604082019050919050565b6000613a0c60398361414f565b9150613a17826144da565b604082019050919050565b6000613a2f602a8361414f565b9150613a3a82614529565b604082019050919050565b6000613a5260248361414f565b9150613a5d82614578565b604082019050919050565b6000613a7560268361414f565b9150613a80826145c7565b604082019050919050565b6000613a9860288361414f565b9150613aa382614616565b604082019050919050565b6000613abb60318361414f565b9150613ac682614665565b604082019050919050565b6000613ade60418361414f565b9150613ae9826146b4565b606082019050919050565b6000613b0160198361414f565b9150613b0c82614729565b602082019050919050565b6000613b24603e8361414f565b9150613b2f82614752565b604082019050919050565b6000613b4760268361414f565b9150613b52826147a1565b604082019050919050565b6000613b6a60238361414f565b9150613b75826147f0565b604082019050919050565b6000613b8d60258361414f565b9150613b988261483f565b604082019050919050565b6000613bb060288361414f565b9150613bbb8261488e565b604082019050919050565b6000613bd360208361414f565b9150613bde826148dd565b602082019050919050565b6000613bf6601c8361414f565b9150613c0182614906565b602082019050919050565b6000613c19602c8361414f565b9150613c248261492f565b604082019050919050565b613c388161423b565b82525050565b613c478161423b565b82525050565b6000602082019050613c6260008301846138f5565b92915050565b60006080820190508181036000830152613c828187613904565b90508181036020830152613c968186613904565b90508181036040830152613caa8185613904565b90508181036060830152613cbe8184613904565b905095945050505050565b6000602082019050613cde6000830184613971565b92915050565b60006020820190508181036000830152613cfe8184613980565b905092915050565b60006020820190508181036000830152613d1f816139b9565b9050919050565b60006020820190508181036000830152613d3f816139dc565b9050919050565b60006020820190508181036000830152613d5f816139ff565b9050919050565b60006020820190508181036000830152613d7f81613a22565b9050919050565b60006020820190508181036000830152613d9f81613a45565b9050919050565b60006020820190508181036000830152613dbf81613a68565b9050919050565b60006020820190508181036000830152613ddf81613a8b565b9050919050565b60006020820190508181036000830152613dff81613aae565b9050919050565b60006020820190508181036000830152613e1f81613ad1565b9050919050565b60006020820190508181036000830152613e3f81613af4565b9050919050565b60006020820190508181036000830152613e5f81613b17565b9050919050565b60006020820190508181036000830152613e7f81613b3a565b9050919050565b60006020820190508181036000830152613e9f81613b5d565b9050919050565b60006020820190508181036000830152613ebf81613b80565b9050919050565b60006020820190508181036000830152613edf81613ba3565b9050919050565b60006020820190508181036000830152613eff81613bc6565b9050919050565b60006020820190508181036000830152613f1f81613be9565b9050919050565b60006020820190508181036000830152613f3f81613c0c565b9050919050565b6000602082019050613f5b6000830184613c3e565b92915050565b600060a082019050613f766000830188613c3e565b613f836020830187613962565b8181036040830152613f958186613980565b90508181036060830152613fa98185613980565b9050613fb860808301846138f5565b9695505050505050565b6000606082019050613fd76000830186613c3e565b613fe46020830185613c3e565b613ff16040830184613971565b949350505050565b600060608201905061400e6000830186613c3e565b61401b6020830185613c3e565b6140286040830184613c3e565b949350505050565b600061010082019050614046600083018b613c3e565b614053602083018a613c3e565b6140606040830189613c3e565b61406d6060830188613c3e565b61407a60808301876138f5565b61408760a0830186613962565b81810360c08301526140998185613980565b90506140a860e0830184613971565b9998505050505050505050565b60006140bf6140d0565b90506140cb82826142d8565b919050565b6000604051905090565b600067ffffffffffffffff8211156140f5576140f461440e565b5b6140fe82614451565b9050602081019050919050565b6000819050602082019050919050565b600081519050919050565b600081519050919050565b6000602082019050919050565b600082825260208201905092915050565b600082825260208201905092915050565b600061416b8261423b565b91506141768361423b565b9250827fffffffffffffffffffffffffffffffffffffffffffffffffffffffffffffffff038211156141ab576141aa614352565b5b828201905092915050565b60006141c18261423b565b91506141cc8361423b565b9250828210156141df576141de614352565b5b828203905092915050565b60006141f58261421b565b9050919050565b60008115159050919050565b60008190506142168261497e565b919050565b600073ffffffffffffffffffffffffffffffffffffffff82169050919050565b6000819050919050565b600060ff82169050919050565b600061425d82614208565b9050919050565b82818337600083830152505050565b60005b83811015614291578082015181840152602081019050614276565b838111156142a0576000848401525b50505050565b600060028204905060018216806142be57607f821691505b602082108114156142d2576142d16143b0565b5b50919050565b6142e182614451565b810181811067ffffffffffffffff82111715614300576142ff61440e565b5b80604052505050565b60006143148261423b565b91507fffffffffffffffffffffffffffffffffffffffffffffffffffffffffffffffff82141561434757614346614352565b5b600182019050919050565b7f4e487b7100000000000000000000000000000000000000000000000000000000600052601160045260246000fd5b7f4e487b7100000000000000000000000000000000000000000000000000000000600052602160045260246000fd5b7f4e487b7100000000000000000000000000000000000000000000000000000000600052602260045260246000fd5b7f4e487b7100000000000000000000000000000000000000000000000000000000600052603260045260246000fd5b7f4e487b7100000000000000000000000000000000000000000000000000000000600052604160045260246000fd5b600080fd5b600080fd5b600080fd5b600080fd5b6000601f19601f8301169050919050565b7f43686172697479206e6f7420666f756e64000000000000000000000000000000600082015250565b7f4e6f2070726f6a6563747320617661696c61626c6520666f722061636365707460008201527f696e6720646f6e6174696f6e7300000000000000000000000000000000000000602082015250565b7f4e6f207375636820646f6e6f7220657869737420756e6465722074686973207060008201527f726f6a65637420756e6465722074686973206368617269747900000000000000602082015250565b7f596f757220636f6e747269627574696f6e20657863656564732072657175697260008201527f656420616d6f756e742e00000000000000000000000000000000000000000000602082015250565b7f4e6f2070726f6a6563747320666f756e6420756e64657220746869732063686160008201527f7269747900000000000000000000000000000000000000000000000000000000602082015250565b7f4e6f206368617269747920657869737420756e6465722074686973206368617260008201527f6974792069640000000000000000000000000000000000000000000000000000602082015250565b7f596f7520686176656e277420636f6e747269627574656420666f72207468697360008201527f2070726f6a656374000000000000000000000000000000000000000000000000602082015250565b7f53686f756c642062652067726561746572207468616e206f7220657175616c2060008201527f746f206d696e696d756d20616d6f756e74000000000000000000000000000000602082015250565b7f43616e277420726566756e642061732065786368616e6765207265717565737460008201527f2077617320616c726561647920696e69746961746564207769746820626f617260208201527f6400000000000000000000000000000000000000000000000000000000000000604082015250565b7f4e6f2070726f6a65637420697320637265617465642079657400000000000000600082015250565b7f43616e277420726566756e642061732065786368616e6765207265717565737460008201527f20776173206e6f742072656a65637465642062792074686520626f6172640000602082015250565b7f4e6f2070726f6a65637420657869737420756e64657220746869732070726f6a60008201527f6563742069640000000000000000000000000000000000000000000000000000602082015250565b7f4e6f2070726f6a65637420657869737420756e6465722074686973206368617260008201527f6974790000000000000000000000000000000000000000000000000000000000602082015250565b7f4e6f2070726f6a65637420657869737420756e64657220746869732070726f6a60008201527f6563744964000000000000000000000000000000000000000000000000000000602082015250565b7f4e6f20737563682070726f6a65637420657869737420756e646572207468697360008201527f2063686172697479000000000000000000000000000000000000000000000000602082015250565b7f546869732063686172697479206973206e6f742079657420617070726f766564600082015250565b7f4e6f206368617269747920697320726567697374657265642079657400000000600082015250565b7f4e6f206d6f726520646f6e6174696f6e7320616363657074656420666f72207460008201527f6869732070726f6a6563742e0000000000000000000000000000000000000000602082015250565b600a811061498f5761498e614381565b5b50565b61499b816141ea565b81146149a657600080fd5b50565b6149b2816141fc565b81146149bd57600080fd5b50565b600a81106149cd57600080fd5b50565b6149d98161423b565b81146149e457600080fd5b50565b6149f081614245565b81146149fb57600080fd5b5056fe54686973206f7065726174696f6e2063616e20626520706572666f726d6564206f6e6c7920627920426f6172642061646d696e596f7520617265206e6f7420617574686f72697a656420746f20757064617465207769746820746869732073746174757354686973206f7065726174696f6e2063616e20626520706572666f726d6564206f6e6c792062792043686172697479a26469706673582212202f046fb7037b8e69e95199c1964eb040b5e45f23c8eec5d1c8371ba454ed163b64736f6c63430008070033",
					"opcodes": "PUSH1 0x80 PUSH1 0x40 MSTORE CALLVALUE DUP1 ISZERO PUSH3 0x11 JUMPI PUSH1 0x0 DUP1 REVERT JUMPDEST POP CALLER PUSH1 0x2 PUSH1 0x0 PUSH2 0x100 EXP DUP2 SLOAD DUP2 PUSH20 0xFFFFFFFFFFFFFFFFFFFFFFFFFFFFFFFFFFFFFFFF MUL NOT AND SWAP1 DUP4 PUSH20 0xFFFFFFFFFFFFFFFFFFFFFFFFFFFFFFFFFFFFFFFF AND MUL OR SWAP1 SSTORE POP PUSH1 0x40 MLOAD DUP1 PUSH1 0x40 ADD PUSH1 0x40 MSTORE DUP1 PUSH1 0x14 DUP2 MSTORE PUSH1 0x20 ADD PUSH32 0x57616974696E6720666F7220617070726F76616C000000000000000000000000 DUP2 MSTORE POP PUSH1 0x7 PUSH1 0x0 DUP1 PUSH1 0x9 DUP2 GT ISZERO PUSH3 0xA3 JUMPI PUSH3 0xA2 PUSH3 0x6A1 JUMP JUMPDEST JUMPDEST PUSH1 0x9 DUP2 GT ISZERO PUSH3 0xB8 JUMPI PUSH3 0xB7 PUSH3 0x6A1 JUMP JUMPDEST JUMPDEST DUP2 MSTORE PUSH1 0x20 ADD SWAP1 DUP2 MSTORE PUSH1 0x20 ADD PUSH1 0x0 KECCAK256 SWAP1 DUP1 MLOAD SWAP1 PUSH1 0x20 ADD SWAP1 PUSH3 0xDB SWAP3 SWAP2 SWAP1 PUSH3 0x5BB JUMP JUMPDEST POP PUSH1 0x40 MLOAD DUP1 PUSH1 0x40 ADD PUSH1 0x40 MSTORE DUP1 PUSH1 0x8 DUP2 MSTORE PUSH1 0x20 ADD PUSH32 0x417070726F766564000000000000000000000000000000000000000000000000 DUP2 MSTORE POP PUSH1 0x7 PUSH1 0x0 PUSH1 0x2 PUSH1 0x9 DUP2 GT ISZERO PUSH3 0x12D JUMPI PUSH3 0x12C PUSH3 0x6A1 JUMP JUMPDEST JUMPDEST PUSH1 0x9 DUP2 GT ISZERO PUSH3 0x142 JUMPI PUSH3 0x141 PUSH3 0x6A1 JUMP JUMPDEST JUMPDEST DUP2 MSTORE PUSH1 0x20 ADD SWAP1 DUP2 MSTORE PUSH1 0x20 ADD PUSH1 0x0 KECCAK256 SWAP1 DUP1 MLOAD SWAP1 PUSH1 0x20 ADD SWAP1 PUSH3 0x165 SWAP3 SWAP2 SWAP1 PUSH3 0x5BB JUMP JUMPDEST POP PUSH1 0x40 MLOAD DUP1 PUSH1 0x40 ADD PUSH1 0x40 MSTORE DUP1 PUSH1 0x13 DUP2 MSTORE PUSH1 0x20 ADD PUSH32 0x52656A6563746564206279206368617269747900000000000000000000000000 DUP2 MSTORE POP PUSH1 0x7 PUSH1 0x0 PUSH1 0x1 PUSH1 0x9 DUP2 GT ISZERO PUSH3 0x1B7 JUMPI PUSH3 0x1B6 PUSH3 0x6A1 JUMP JUMPDEST JUMPDEST PUSH1 0x9 DUP2 GT ISZERO PUSH3 0x1CC JUMPI PUSH3 0x1CB PUSH3 0x6A1 JUMP JUMPDEST JUMPDEST DUP2 MSTORE PUSH1 0x20 ADD SWAP1 DUP2 MSTORE PUSH1 0x20 ADD PUSH1 0x0 KECCAK256 SWAP1 DUP1 MLOAD SWAP1 PUSH1 0x20 ADD SWAP1 PUSH3 0x1EF SWAP3 SWAP2 SWAP1 PUSH3 0x5BB JUMP JUMPDEST POP PUSH1 0x40 MLOAD DUP1 PUSH1 0x40 ADD PUSH1 0x40 MSTORE DUP1 PUSH1 0x15 DUP2 MSTORE PUSH1 0x20 ADD PUSH32 0x50726F6A65637420676F616C2061636869657665640000000000000000000000 DUP2 MSTORE POP PUSH1 0x7 PUSH1 0x0 PUSH1 0x3 PUSH1 0x9 DUP2 GT ISZERO PUSH3 0x241 JUMPI PUSH3 0x240 PUSH3 0x6A1 JUMP JUMPDEST JUMPDEST PUSH1 0x9 DUP2 GT ISZERO PUSH3 0x256 JUMPI PUSH3 0x255 PUSH3 0x6A1 JUMP JUMPDEST JUMPDEST DUP2 MSTORE PUSH1 0x20 ADD SWAP1 DUP2 MSTORE PUSH1 0x20 ADD PUSH1 0x0 KECCAK256 SWAP1 DUP1 MLOAD SWAP1 PUSH1 0x20 ADD SWAP1 PUSH3 0x279 SWAP3 SWAP2 SWAP1 PUSH3 0x5BB JUMP JUMPDEST POP PUSH1 0x40 MLOAD DUP1 PUSH1 0x40 ADD PUSH1 0x40 MSTORE DUP1 PUSH1 0x12 DUP2 MSTORE PUSH1 0x20 ADD PUSH32 0x45786368616E6765207265717565737465640000000000000000000000000000 DUP2 MSTORE POP PUSH1 0x7 PUSH1 0x0 PUSH1 0x4 PUSH1 0x9 DUP2 GT ISZERO PUSH3 0x2CB JUMPI PUSH3 0x2CA PUSH3 0x6A1 JUMP JUMPDEST JUMPDEST PUSH1 0x9 DUP2 GT ISZERO PUSH3 0x2E0 JUMPI PUSH3 0x2DF PUSH3 0x6A1 JUMP JUMPDEST JUMPDEST DUP2 MSTORE PUSH1 0x20 ADD SWAP1 DUP2 MSTORE PUSH1 0x20 ADD PUSH1 0x0 KECCAK256 SWAP1 DUP1 MLOAD SWAP1 PUSH1 0x20 ADD SWAP1 PUSH3 0x303 SWAP3 SWAP2 SWAP1 PUSH3 0x5BB JUMP JUMPDEST POP PUSH1 0x40 MLOAD DUP1 PUSH1 0x40 ADD PUSH1 0x40 MSTORE DUP1 PUSH1 0x19 DUP2 MSTORE PUSH1 0x20 ADD PUSH32 0x45786368616E6765207265717565737420726563656976656400000000000000 DUP2 MSTORE POP PUSH1 0x7 PUSH1 0x0 PUSH1 0x5 PUSH1 0x9 DUP2 GT ISZERO PUSH3 0x355 JUMPI PUSH3 0x354 PUSH3 0x6A1 JUMP JUMPDEST JUMPDEST PUSH1 0x9 DUP2 GT ISZERO PUSH3 0x36A JUMPI PUSH3 0x369 PUSH3 0x6A1 JUMP JUMPDEST JUMPDEST DUP2 MSTORE PUSH1 0x20 ADD SWAP1 DUP2 MSTORE PUSH1 0x20 ADD PUSH1 0x0 KECCAK256 SWAP1 DUP1 MLOAD SWAP1 PUSH1 0x20 ADD SWAP1 PUSH3 0x38D SWAP3 SWAP2 SWAP1 PUSH3 0x5BB JUMP JUMPDEST POP PUSH1 0x40 MLOAD DUP1 PUSH1 0x40 ADD PUSH1 0x40 MSTORE DUP1 PUSH1 0x19 DUP2 MSTORE PUSH1 0x20 ADD PUSH32 0x45786368616E6765207265717565737420617070726F76656400000000000000 DUP2 MSTORE POP PUSH1 0x7 PUSH1 0x0 PUSH1 0x6 PUSH1 0x9 DUP2 GT ISZERO PUSH3 0x3DF JUMPI PUSH3 0x3DE PUSH3 0x6A1 JUMP JUMPDEST JUMPDEST PUSH1 0x9 DUP2 GT ISZERO PUSH3 0x3F4 JUMPI PUSH3 0x3F3 PUSH3 0x6A1 JUMP JUMPDEST JUMPDEST DUP2 MSTORE PUSH1 0x20 ADD SWAP1 DUP2 MSTORE PUSH1 0x20 ADD PUSH1 0x0 KECCAK256 SWAP1 DUP1 MLOAD SWAP1 PUSH1 0x20 ADD SWAP1 PUSH3 0x417 SWAP3 SWAP2 SWAP1 PUSH3 0x5BB JUMP JUMPDEST POP PUSH1 0x40 MLOAD DUP1 PUSH1 0x40 ADD PUSH1 0x40 MSTORE DUP1 PUSH1 0x19 DUP2 MSTORE PUSH1 0x20 ADD PUSH32 0x45786368616E676520726571756573742072656A656374656400000000000000 DUP2 MSTORE POP PUSH1 0x7 PUSH1 0x0 PUSH1 0x7 PUSH1 0x9 DUP2 GT ISZERO PUSH3 0x469 JUMPI PUSH3 0x468 PUSH3 0x6A1 JUMP JUMPDEST JUMPDEST PUSH1 0x9 DUP2 GT ISZERO PUSH3 0x47E JUMPI PUSH3 0x47D PUSH3 0x6A1 JUMP JUMPDEST JUMPDEST DUP2 MSTORE PUSH1 0x20 ADD SWAP1 DUP2 MSTORE PUSH1 0x20 ADD PUSH1 0x0 KECCAK256 SWAP1 DUP1 MLOAD SWAP1 PUSH1 0x20 ADD SWAP1 PUSH3 0x4A1 SWAP3 SWAP2 SWAP1 PUSH3 0x5BB JUMP JUMPDEST POP PUSH1 0x40 MLOAD DUP1 PUSH1 0x40 ADD PUSH1 0x40 MSTORE DUP1 PUSH1 0xE DUP2 MSTORE PUSH1 0x20 ADD PUSH32 0x46756E647320726566756E646564000000000000000000000000000000000000 DUP2 MSTORE POP PUSH1 0x7 PUSH1 0x0 PUSH1 0x8 PUSH1 0x9 DUP2 GT ISZERO PUSH3 0x4F3 JUMPI PUSH3 0x4F2 PUSH3 0x6A1 JUMP JUMPDEST JUMPDEST PUSH1 0x9 DUP2 GT ISZERO PUSH3 0x508 JUMPI PUSH3 0x507 PUSH3 0x6A1 JUMP JUMPDEST JUMPDEST DUP2 MSTORE PUSH1 0x20 ADD SWAP1 DUP2 MSTORE PUSH1 0x20 ADD PUSH1 0x0 KECCAK256 SWAP1 DUP1 MLOAD SWAP1 PUSH1 0x20 ADD SWAP1 PUSH3 0x52B SWAP3 SWAP2 SWAP1 PUSH3 0x5BB JUMP JUMPDEST POP PUSH1 0x40 MLOAD DUP1 PUSH1 0x40 ADD PUSH1 0x40 MSTORE DUP1 PUSH1 0xE DUP2 MSTORE PUSH1 0x20 ADD PUSH32 0x50726F6A65637420636C6F736564000000000000000000000000000000000000 DUP2 MSTORE POP PUSH1 0x7 PUSH1 0x0 PUSH1 0x9 DUP1 DUP2 GT ISZERO PUSH3 0x57C JUMPI PUSH3 0x57B PUSH3 0x6A1 JUMP JUMPDEST JUMPDEST PUSH1 0x9 DUP2 GT ISZERO PUSH3 0x591 JUMPI PUSH3 0x590 PUSH3 0x6A1 JUMP JUMPDEST JUMPDEST DUP2 MSTORE PUSH1 0x20 ADD SWAP1 DUP2 MSTORE PUSH1 0x20 ADD PUSH1 0x0 KECCAK256 SWAP1 DUP1 MLOAD SWAP1 PUSH1 0x20 ADD SWAP1 PUSH3 0x5B4 SWAP3 SWAP2 SWAP1 PUSH3 0x5BB JUMP JUMPDEST POP PUSH3 0x6FF JUMP JUMPDEST DUP3 DUP1 SLOAD PUSH3 0x5C9 SWAP1 PUSH3 0x66B JUMP JUMPDEST SWAP1 PUSH1 0x0 MSTORE PUSH1 0x20 PUSH1 0x0 KECCAK256 SWAP1 PUSH1 0x1F ADD PUSH1 0x20 SWAP1 DIV DUP2 ADD SWAP3 DUP3 PUSH3 0x5ED JUMPI PUSH1 0x0 DUP6 SSTORE PUSH3 0x639 JUMP JUMPDEST DUP3 PUSH1 0x1F LT PUSH3 0x608 JUMPI DUP1 MLOAD PUSH1 0xFF NOT AND DUP4 DUP1 ADD OR DUP6 SSTORE PUSH3 0x639 JUMP JUMPDEST DUP3 DUP1 ADD PUSH1 0x1 ADD DUP6 SSTORE DUP3 ISZERO PUSH3 0x639 JUMPI SWAP2 DUP3 ADD JUMPDEST DUP3 DUP2 GT ISZERO PUSH3 0x638 JUMPI DUP3 MLOAD DUP3 SSTORE SWAP2 PUSH1 0x20 ADD SWAP2 SWAP1 PUSH1 0x1 ADD SWAP1 PUSH3 0x61B JUMP JUMPDEST JUMPDEST POP SWAP1 POP PUSH3 0x648 SWAP2 SWAP1 PUSH3 0x64C JUMP JUMPDEST POP SWAP1 JUMP JUMPDEST JUMPDEST DUP1 DUP3 GT ISZERO PUSH3 0x667 JUMPI PUSH1 0x0 DUP2 PUSH1 0x0 SWAP1 SSTORE POP PUSH1 0x1 ADD PUSH3 0x64D JUMP JUMPDEST POP SWAP1 JUMP JUMPDEST PUSH1 0x0 PUSH1 0x2 DUP3 DIV SWAP1 POP PUSH1 0x1 DUP3 AND DUP1 PUSH3 0x684 JUMPI PUSH1 0x7F DUP3 AND SWAP2 POP JUMPDEST PUSH1 0x20 DUP3 LT DUP2 EQ ISZERO PUSH3 0x69B JUMPI PUSH3 0x69A PUSH3 0x6D0 JUMP JUMPDEST JUMPDEST POP SWAP2 SWAP1 POP JUMP JUMPDEST PUSH32 0x4E487B7100000000000000000000000000000000000000000000000000000000 PUSH1 0x0 MSTORE PUSH1 0x21 PUSH1 0x4 MSTORE PUSH1 0x24 PUSH1 0x0 REVERT JUMPDEST PUSH32 0x4E487B7100000000000000000000000000000000000000000000000000000000 PUSH1 0x0 MSTORE PUSH1 0x22 PUSH1 0x4 MSTORE PUSH1 0x24 PUSH1 0x0 REVERT JUMPDEST PUSH2 0x4AC7 DUP1 PUSH3 0x70F PUSH1 0x0 CODECOPY PUSH1 0x0 RETURN INVALID PUSH1 0x80 PUSH1 0x40 MSTORE PUSH1 0x4 CALLDATASIZE LT PUSH2 0xFE JUMPI PUSH1 0x0 CALLDATALOAD PUSH1 0xE0 SHR DUP1 PUSH4 0x9D8E7E89 GT PUSH2 0x95 JUMPI DUP1 PUSH4 0xB9D093BF GT PUSH2 0x64 JUMPI DUP1 PUSH4 0xB9D093BF EQ PUSH2 0x363 JUMPI DUP1 PUSH4 0xCFC3D434 EQ PUSH2 0x38C JUMPI DUP1 PUSH4 0xE8620D14 EQ PUSH2 0x3C9 JUMPI DUP1 PUSH4 0xEF6ADD32 EQ PUSH2 0x3E5 JUMPI DUP1 PUSH4 0xFB709D2E EQ PUSH2 0x422 JUMPI PUSH2 0xFE JUMP JUMPDEST DUP1 PUSH4 0x9D8E7E89 EQ PUSH2 0x292 JUMPI DUP1 PUSH4 0xA0FD6622 EQ PUSH2 0x2CF JUMPI DUP1 PUSH4 0xACE1BCF8 EQ PUSH2 0x30F JUMPI DUP1 PUSH4 0xB61A7F76 EQ PUSH2 0x338 JUMPI PUSH2 0xFE JUMP JUMPDEST DUP1 PUSH4 0x1ED056D8 GT PUSH2 0xD1 JUMPI DUP1 PUSH4 0x1ED056D8 EQ PUSH2 0x1D8 JUMPI DUP1 PUSH4 0x5EA34326 EQ PUSH2 0x217 JUMPI DUP1 PUSH4 0x85A93223 EQ PUSH2 0x240 JUMPI DUP1 PUSH4 0x85FA74BC EQ PUSH2 0x269 JUMPI PUSH2 0xFE JUMP JUMPDEST DUP1 PUSH4 0x107046BD EQ PUSH2 0x103 JUMPI DUP1 PUSH4 0x141020CC EQ PUSH2 0x147 JUMPI DUP1 PUSH4 0x17F308B5 EQ PUSH2 0x170 JUMPI DUP1 PUSH4 0x1AB33308 EQ PUSH2 0x1AD JUMPI JUMPDEST PUSH1 0x0 DUP1 REVERT JUMPDEST CALLVALUE DUP1 ISZERO PUSH2 0x10F JUMPI PUSH1 0x0 DUP1 REVERT JUMPDEST POP PUSH2 0x12A PUSH1 0x4 DUP1 CALLDATASIZE SUB DUP2 ADD SWAP1 PUSH2 0x125 SWAP2 SWAP1 PUSH2 0x35DC JUMP JUMPDEST PUSH2 0x463 JUMP JUMPDEST PUSH1 0x40 MLOAD PUSH2 0x13E SWAP9 SWAP8 SWAP7 SWAP6 SWAP5 SWAP4 SWAP3 SWAP2 SWAP1 PUSH2 0x4030 JUMP JUMPDEST PUSH1 0x40 MLOAD DUP1 SWAP2 SUB SWAP1 RETURN JUMPDEST CALLVALUE DUP1 ISZERO PUSH2 0x153 JUMPI PUSH1 0x0 DUP1 REVERT JUMPDEST POP PUSH2 0x16E PUSH1 0x4 DUP1 CALLDATASIZE SUB DUP2 ADD SWAP1 PUSH2 0x169 SWAP2 SWAP1 PUSH2 0x3678 JUMP JUMPDEST PUSH2 0x57D JUMP JUMPDEST STOP JUMPDEST CALLVALUE DUP1 ISZERO PUSH2 0x17C JUMPI PUSH1 0x0 DUP1 REVERT JUMPDEST POP PUSH2 0x197 PUSH1 0x4 DUP1 CALLDATASIZE SUB DUP2 ADD SWAP1 PUSH2 0x192 SWAP2 SWAP1 PUSH2 0x36E7 JUMP JUMPDEST PUSH2 0x75B JUMP JUMPDEST PUSH1 0x40 MLOAD PUSH2 0x1A4 SWAP2 SWAP1 PUSH2 0x3F46 JUMP JUMPDEST PUSH1 0x40 MLOAD DUP1 SWAP2 SUB SWAP1 RETURN JUMPDEST CALLVALUE DUP1 ISZERO PUSH2 0x1B9 JUMPI PUSH1 0x0 DUP1 REVERT JUMPDEST POP PUSH2 0x1C2 PUSH2 0x8F7 JUMP JUMPDEST PUSH1 0x40 MLOAD PUSH2 0x1CF SWAP2 SWAP1 PUSH2 0x3CC9 JUMP JUMPDEST PUSH1 0x40 MLOAD DUP1 SWAP2 SUB SWAP1 RETURN JUMPDEST CALLVALUE DUP1 ISZERO PUSH2 0x1E4 JUMPI PUSH1 0x0 DUP1 REVERT JUMPDEST POP PUSH2 0x1FF PUSH1 0x4 DUP1 CALLDATASIZE SUB DUP2 ADD SWAP1 PUSH2 0x1FA SWAP2 SWAP1 PUSH2 0x36E7 JUMP JUMPDEST PUSH2 0x90A JUMP JUMPDEST PUSH1 0x40 MLOAD PUSH2 0x20E SWAP4 SWAP3 SWAP2 SWAP1 PUSH2 0x3FF9 JUMP JUMPDEST PUSH1 0x40 MLOAD DUP1 SWAP2 SUB SWAP1 RETURN JUMPDEST CALLVALUE DUP1 ISZERO PUSH2 0x223 JUMPI PUSH1 0x0 DUP1 REVERT JUMPDEST POP PUSH2 0x23E PUSH1 0x4 DUP1 CALLDATASIZE SUB DUP2 ADD SWAP1 PUSH2 0x239 SWAP2 SWAP1 PUSH2 0x388A JUMP JUMPDEST PUSH2 0xAF0 JUMP JUMPDEST STOP JUMPDEST CALLVALUE DUP1 ISZERO PUSH2 0x24C JUMPI PUSH1 0x0 DUP1 REVERT JUMPDEST POP PUSH2 0x267 PUSH1 0x4 DUP1 CALLDATASIZE SUB DUP2 ADD SWAP1 PUSH2 0x262 SWAP2 SWAP1 PUSH2 0x388A JUMP JUMPDEST PUSH2 0xFCC JUMP JUMPDEST STOP JUMPDEST CALLVALUE DUP1 ISZERO PUSH2 0x275 JUMPI PUSH1 0x0 DUP1 REVERT JUMPDEST POP PUSH2 0x290 PUSH1 0x4 DUP1 CALLDATASIZE SUB DUP2 ADD SWAP1 PUSH2 0x28B SWAP2 SWAP1 PUSH2 0x36E7 JUMP JUMPDEST PUSH2 0x1581 JUMP JUMPDEST STOP JUMPDEST CALLVALUE DUP1 ISZERO PUSH2 0x29E JUMPI PUSH1 0x0 DUP1 REVERT JUMPDEST POP PUSH2 0x2B9 PUSH1 0x4 DUP1 CALLDATASIZE SUB DUP2 ADD SWAP1 PUSH2 0x2B4 SWAP2 SWAP1 PUSH2 0x36E7 JUMP JUMPDEST PUSH2 0x1A0F JUMP JUMPDEST PUSH1 0x40 MLOAD PUSH2 0x2C6 SWAP2 SWAP1 PUSH2 0x3CE4 JUMP JUMPDEST PUSH1 0x40 MLOAD DUP1 SWAP2 SUB SWAP1 RETURN JUMPDEST CALLVALUE DUP1 ISZERO PUSH2 0x2DB JUMPI PUSH1 0x0 DUP1 REVERT JUMPDEST POP PUSH2 0x2F6 PUSH1 0x4 DUP1 CALLDATASIZE SUB DUP2 ADD SWAP1 PUSH2 0x2F1 SWAP2 SWAP1 PUSH2 0x35DC JUMP JUMPDEST PUSH2 0x1BF9 JUMP JUMPDEST PUSH1 0x40 MLOAD PUSH2 0x306 SWAP5 SWAP4 SWAP3 SWAP2 SWAP1 PUSH2 0x3C68 JUMP JUMPDEST PUSH1 0x40 MLOAD DUP1 SWAP2 SUB SWAP1 RETURN JUMPDEST CALLVALUE DUP1 ISZERO PUSH2 0x31B JUMPI PUSH1 0x0 DUP1 REVERT JUMPDEST POP PUSH2 0x336 PUSH1 0x4 DUP1 CALLDATASIZE SUB DUP2 ADD SWAP1 PUSH2 0x331 SWAP2 SWAP1 PUSH2 0x3609 JUMP JUMPDEST PUSH2 0x1FBF JUMP JUMPDEST STOP JUMPDEST CALLVALUE DUP1 ISZERO PUSH2 0x344 JUMPI PUSH1 0x0 DUP1 REVERT JUMPDEST POP PUSH2 0x34D PUSH2 0x220A JUMP JUMPDEST PUSH1 0x40 MLOAD PUSH2 0x35A SWAP2 SWAP1 PUSH2 0x3C4D JUMP JUMPDEST PUSH1 0x40 MLOAD DUP1 SWAP2 SUB SWAP1 RETURN JUMPDEST CALLVALUE DUP1 ISZERO PUSH2 0x36F JUMPI PUSH1 0x0 DUP1 REVERT JUMPDEST POP PUSH2 0x38A PUSH1 0x4 DUP1 CALLDATASIZE SUB DUP2 ADD SWAP1 PUSH2 0x385 SWAP2 SWAP1 PUSH2 0x37E1 JUMP JUMPDEST PUSH2 0x2230 JUMP JUMPDEST STOP JUMPDEST CALLVALUE DUP1 ISZERO PUSH2 0x398 JUMPI PUSH1 0x0 DUP1 REVERT JUMPDEST POP PUSH2 0x3B3 PUSH1 0x4 DUP1 CALLDATASIZE SUB DUP2 ADD SWAP1 PUSH2 0x3AE SWAP2 SWAP1 PUSH2 0x3727 JUMP JUMPDEST PUSH2 0x261E JUMP JUMPDEST PUSH1 0x40 MLOAD PUSH2 0x3C0 SWAP2 SWAP1 PUSH2 0x3F46 JUMP JUMPDEST PUSH1 0x40 MLOAD DUP1 SWAP2 SUB SWAP1 RETURN JUMPDEST PUSH2 0x3E3 PUSH1 0x4 DUP1 CALLDATASIZE SUB DUP2 ADD SWAP1 PUSH2 0x3DE SWAP2 SWAP1 PUSH2 0x377A JUMP JUMPDEST PUSH2 0x2825 JUMP JUMPDEST STOP JUMPDEST CALLVALUE DUP1 ISZERO PUSH2 0x3F1 JUMPI PUSH1 0x0 DUP1 REVERT JUMPDEST POP PUSH2 0x40C PUSH1 0x4 DUP1 CALLDATASIZE SUB DUP2 ADD SWAP1 PUSH2 0x407 SWAP2 SWAP1 PUSH2 0x35AF JUMP JUMPDEST PUSH2 0x2DCE JUMP JUMPDEST PUSH1 0x40 MLOAD PUSH2 0x419 SWAP2 SWAP1 PUSH2 0x3CE4 JUMP JUMPDEST PUSH1 0x40 MLOAD DUP1 SWAP2 SUB SWAP1 RETURN JUMPDEST CALLVALUE DUP1 ISZERO PUSH2 0x42E JUMPI PUSH1 0x0 DUP1 REVERT JUMPDEST POP PUSH2 0x449 PUSH1 0x4 DUP1 CALLDATASIZE SUB DUP2 ADD SWAP1 PUSH2 0x444 SWAP2 SWAP1 PUSH2 0x35DC JUMP JUMPDEST PUSH2 0x2E6E JUMP JUMPDEST PUSH1 0x40 MLOAD PUSH2 0x45A SWAP6 SWAP5 SWAP4 SWAP3 SWAP2 SWAP1 PUSH2 0x3F61 JUMP JUMPDEST PUSH1 0x40 MLOAD DUP1 SWAP2 SUB SWAP1 RETURN JUMPDEST PUSH1 0x0 DUP2 DUP2 SLOAD DUP2 LT PUSH2 0x473 JUMPI PUSH1 0x0 DUP1 REVERT JUMPDEST SWAP1 PUSH1 0x0 MSTORE PUSH1 0x20 PUSH1 0x0 KECCAK256 SWAP1 PUSH1 0x7 MUL ADD PUSH1 0x0 SWAP2 POP SWAP1 POP DUP1 PUSH1 0x0 ADD SLOAD SWAP1 DUP1 PUSH1 0x1 ADD SLOAD SWAP1 DUP1 PUSH1 0x2 ADD SLOAD SWAP1 DUP1 PUSH1 0x3 ADD SLOAD SWAP1 DUP1 PUSH1 0x4 ADD PUSH1 0x0 SWAP1 SLOAD SWAP1 PUSH2 0x100 EXP SWAP1 DIV PUSH20 0xFFFFFFFFFFFFFFFFFFFFFFFFFFFFFFFFFFFFFFFF AND SWAP1 DUP1 PUSH1 0x4 ADD PUSH1 0x14 SWAP1 SLOAD SWAP1 PUSH2 0x100 EXP SWAP1 DIV PUSH1 0xFF AND SWAP1 DUP1 PUSH1 0x5 ADD DUP1 SLOAD PUSH2 0x4E7 SWAP1 PUSH2 0x42A6 JUMP JUMPDEST DUP1 PUSH1 0x1F ADD PUSH1 0x20 DUP1 SWAP2 DIV MUL PUSH1 0x20 ADD PUSH1 0x40 MLOAD SWAP1 DUP2 ADD PUSH1 0x40 MSTORE DUP1 SWAP3 SWAP2 SWAP1 DUP2 DUP2 MSTORE PUSH1 0x20 ADD DUP3 DUP1 SLOAD PUSH2 0x513 SWAP1 PUSH2 0x42A6 JUMP JUMPDEST DUP1 ISZERO PUSH2 0x560 JUMPI DUP1 PUSH1 0x1F LT PUSH2 0x535 JUMPI PUSH2 0x100 DUP1 DUP4 SLOAD DIV MUL DUP4 MSTORE SWAP2 PUSH1 0x20 ADD SWAP2 PUSH2 0x560 JUMP JUMPDEST DUP3 ADD SWAP2 SWAP1 PUSH1 0x0 MSTORE PUSH1 0x20 PUSH1 0x0 KECCAK256 SWAP1 JUMPDEST DUP2 SLOAD DUP2 MSTORE SWAP1 PUSH1 0x1 ADD SWAP1 PUSH1 0x20 ADD DUP1 DUP4 GT PUSH2 0x543 JUMPI DUP3 SWAP1 SUB PUSH1 0x1F AND DUP3 ADD SWAP2 JUMPDEST POP POP POP POP POP SWAP1 DUP1 PUSH1 0x6 ADD PUSH1 0x0 SWAP1 SLOAD SWAP1 PUSH2 0x100 EXP SWAP1 DIV PUSH1 0xFF AND SWAP1 POP DUP9 JUMP JUMPDEST PUSH1 0x2 PUSH1 0x0 SWAP1 SLOAD SWAP1 PUSH2 0x100 EXP SWAP1 DIV PUSH20 0xFFFFFFFFFFFFFFFFFFFFFFFFFFFFFFFFFFFFFFFF AND PUSH20 0xFFFFFFFFFFFFFFFFFFFFFFFFFFFFFFFFFFFFFFFF AND CALLER PUSH20 0xFFFFFFFFFFFFFFFFFFFFFFFFFFFFFFFFFFFFFFFF AND EQ PUSH1 0x40 MLOAD DUP1 PUSH1 0x60 ADD PUSH1 0x40 MSTORE DUP1 PUSH1 0x33 DUP2 MSTORE PUSH1 0x20 ADD PUSH2 0x49FF PUSH1 0x33 SWAP2 CODECOPY SWAP1 PUSH2 0x628 JUMPI PUSH1 0x40 MLOAD PUSH32 0x8C379A000000000000000000000000000000000000000000000000000000000 DUP2 MSTORE PUSH1 0x4 ADD PUSH2 0x61F SWAP2 SWAP1 PUSH2 0x3CE4 JUMP JUMPDEST PUSH1 0x40 MLOAD DUP1 SWAP2 SUB SWAP1 REVERT JUMPDEST POP PUSH1 0x0 PUSH1 0x40 MLOAD DUP1 PUSH1 0xA0 ADD PUSH1 0x40 MSTORE DUP1 DUP6 DUP2 MSTORE PUSH1 0x20 ADD PUSH1 0x0 ISZERO ISZERO DUP2 MSTORE PUSH1 0x20 ADD PUSH1 0x40 MLOAD DUP1 PUSH1 0x20 ADD PUSH1 0x40 MSTORE DUP1 PUSH1 0x0 DUP2 MSTORE POP DUP2 MSTORE PUSH1 0x20 ADD DUP5 DUP2 MSTORE PUSH1 0x20 ADD DUP4 PUSH20 0xFFFFFFFFFFFFFFFFFFFFFFFFFFFFFFFFFFFFFFFF AND DUP2 MSTORE POP SWAP1 POP PUSH1 0x1 DUP2 SWAP1 DUP1 PUSH1 0x1 DUP2 SLOAD ADD DUP1 DUP3 SSTORE DUP1 SWAP2 POP POP PUSH1 0x1 SWAP1 SUB SWAP1 PUSH1 0x0 MSTORE PUSH1 0x20 PUSH1 0x0 KECCAK256 SWAP1 PUSH1 0x5 MUL ADD PUSH1 0x0 SWAP1 SWAP2 SWAP1 SWAP2 SWAP1 SWAP2 POP PUSH1 0x0 DUP3 ADD MLOAD DUP2 PUSH1 0x0 ADD SSTORE PUSH1 0x20 DUP3 ADD MLOAD DUP2 PUSH1 0x1 ADD PUSH1 0x0 PUSH2 0x100 EXP DUP2 SLOAD DUP2 PUSH1 0xFF MUL NOT AND SWAP1 DUP4 ISZERO ISZERO MUL OR SWAP1 SSTORE POP PUSH1 0x40 DUP3 ADD MLOAD DUP2 PUSH1 0x2 ADD SWAP1 DUP1 MLOAD SWAP1 PUSH1 0x20 ADD SWAP1 PUSH2 0x6EE SWAP3 SWAP2 SWAP1 PUSH2 0x3433 JUMP JUMPDEST POP PUSH1 0x60 DUP3 ADD MLOAD DUP2 PUSH1 0x3 ADD SWAP1 DUP1 MLOAD SWAP1 PUSH1 0x20 ADD SWAP1 PUSH2 0x70B SWAP3 SWAP2 SWAP1 PUSH2 0x3433 JUMP JUMPDEST POP PUSH1 0x80 DUP3 ADD MLOAD DUP2 PUSH1 0x4 ADD PUSH1 0x0 PUSH2 0x100 EXP DUP2 SLOAD DUP2 PUSH20 0xFFFFFFFFFFFFFFFFFFFFFFFFFFFFFFFFFFFFFFFF MUL NOT AND SWAP1 DUP4 PUSH20 0xFFFFFFFFFFFFFFFFFFFFFFFFFFFFFFFFFFFFFFFF AND MUL OR SWAP1 SSTORE POP POP POP POP POP POP POP JUMP JUMPDEST PUSH1 0x0 DUP1 PUSH1 0x0 DUP1 SLOAD SWAP1 POP GT PUSH2 0x7A4 JUMPI PUSH1 0x40 MLOAD PUSH32 0x8C379A000000000000000000000000000000000000000000000000000000000 DUP2 MSTORE PUSH1 0x4 ADD PUSH2 0x79B SWAP1 PUSH2 0x3E26 JUMP JUMPDEST PUSH1 0x40 MLOAD DUP1 SWAP2 SUB SWAP1 REVERT JUMPDEST PUSH1 0x0 PUSH1 0x3 PUSH1 0x0 DUP6 DUP2 MSTORE PUSH1 0x20 ADD SWAP1 DUP2 MSTORE PUSH1 0x20 ADD PUSH1 0x0 KECCAK256 SWAP1 POP PUSH1 0x0 DUP2 DUP1 SLOAD SWAP1 POP GT PUSH2 0x802 JUMPI PUSH1 0x40 MLOAD PUSH32 0x8C379A000000000000000000000000000000000000000000000000000000000 DUP2 MSTORE PUSH1 0x4 ADD PUSH2 0x7F9 SWAP1 PUSH2 0x3D06 JUMP JUMPDEST PUSH1 0x40 MLOAD DUP1 SWAP2 SUB SWAP1 REVERT JUMPDEST PUSH1 0x0 JUMPDEST DUP2 DUP1 SLOAD SWAP1 POP DUP2 LT ISZERO PUSH2 0x8B5 JUMPI DUP4 DUP3 DUP3 DUP2 SLOAD DUP2 LT PUSH2 0x825 JUMPI PUSH2 0x824 PUSH2 0x43DF JUMP JUMPDEST JUMPDEST SWAP1 PUSH1 0x0 MSTORE PUSH1 0x20 PUSH1 0x0 KECCAK256 SWAP1 PUSH1 0x7 MUL ADD PUSH1 0x0 ADD SLOAD EQ ISZERO PUSH2 0x8A2 JUMPI DUP2 DUP2 DUP2 SLOAD DUP2 LT PUSH2 0x850 JUMPI PUSH2 0x84F PUSH2 0x43DF JUMP JUMPDEST JUMPDEST SWAP1 PUSH1 0x0 MSTORE PUSH1 0x20 PUSH1 0x0 KECCAK256 SWAP1 PUSH1 0x7 MUL ADD PUSH1 0x4 ADD PUSH1 0x0 SWAP1 SLOAD SWAP1 PUSH2 0x100 EXP SWAP1 DIV PUSH20 0xFFFFFFFFFFFFFFFFFFFFFFFFFFFFFFFFFFFFFFFF AND PUSH20 0xFFFFFFFFFFFFFFFFFFFFFFFFFFFFFFFFFFFFFFFF AND BALANCE SWAP3 POP POP POP PUSH2 0x8F1 JUMP JUMPDEST DUP1 DUP1 PUSH2 0x8AD SWAP1 PUSH2 0x4309 JUMP JUMPDEST SWAP2 POP POP PUSH2 0x805 JUMP JUMPDEST POP PUSH1 0x40 MLOAD PUSH32 0x8C379A000000000000000000000000000000000000000000000000000000000 DUP2 MSTORE PUSH1 0x4 ADD PUSH2 0x8E8 SWAP1 PUSH2 0x3EC6 JUMP JUMPDEST PUSH1 0x40 MLOAD DUP1 SWAP2 SUB SWAP1 REVERT JUMPDEST SWAP3 SWAP2 POP POP JUMP JUMPDEST PUSH1 0x6 PUSH1 0x0 SWAP1 SLOAD SWAP1 PUSH2 0x100 EXP SWAP1 DIV PUSH1 0xFF AND DUP2 JUMP JUMPDEST PUSH1 0x0 DUP1 PUSH1 0x0 DUP1 PUSH1 0x0 DUP1 SLOAD SWAP1 POP GT PUSH2 0x956 JUMPI PUSH1 0x40 MLOAD PUSH32 0x8C379A000000000000000000000000000000000000000000000000000000000 DUP2 MSTORE PUSH1 0x4 ADD PUSH2 0x94D SWAP1 PUSH2 0x3E26 JUMP JUMPDEST PUSH1 0x40 MLOAD DUP1 SWAP2 SUB SWAP1 REVERT JUMPDEST PUSH1 0x0 PUSH1 0x3 PUSH1 0x0 DUP8 DUP2 MSTORE PUSH1 0x20 ADD SWAP1 DUP2 MSTORE PUSH1 0x20 ADD PUSH1 0x0 KECCAK256 SWAP1 POP PUSH1 0x0 DUP2 DUP1 SLOAD SWAP1 POP GT PUSH2 0x9B4 JUMPI PUSH1 0x40 MLOAD PUSH32 0x8C379A000000000000000000000000000000000000000000000000000000000 DUP2 MSTORE PUSH1 0x4 ADD PUSH2 0x9AB SWAP1 PUSH2 0x3D06 JUMP JUMPDEST PUSH1 0x40 MLOAD DUP1 SWAP2 SUB SWAP1 REVERT JUMPDEST PUSH1 0x0 JUMPDEST DUP2 DUP1 SLOAD SWAP1 POP DUP2 LT ISZERO PUSH2 0xAAD JUMPI DUP6 DUP3 DUP3 DUP2 SLOAD DUP2 LT PUSH2 0x9D7 JUMPI PUSH2 0x9D6 PUSH2 0x43DF JUMP JUMPDEST JUMPDEST SWAP1 PUSH1 0x0 MSTORE PUSH1 0x20 PUSH1 0x0 KECCAK256 SWAP1 PUSH1 0x7 MUL ADD PUSH1 0x0 ADD SLOAD EQ ISZERO PUSH2 0xA9A JUMPI DUP2 DUP2 DUP2 SLOAD DUP2 LT PUSH2 0xA02 JUMPI PUSH2 0xA01 PUSH2 0x43DF JUMP JUMPDEST JUMPDEST SWAP1 PUSH1 0x0 MSTORE PUSH1 0x20 PUSH1 0x0 KECCAK256 SWAP1 PUSH1 0x7 MUL ADD PUSH1 0x2 ADD SLOAD DUP3 DUP3 DUP2 SLOAD DUP2 LT PUSH2 0xA27 JUMPI PUSH2 0xA26 PUSH2 0x43DF JUMP JUMPDEST JUMPDEST SWAP1 PUSH1 0x0 MSTORE PUSH1 0x20 PUSH1 0x0 KECCAK256 SWAP1 PUSH1 0x7 MUL ADD PUSH1 0x3 ADD SLOAD DUP4 DUP4 DUP2 SLOAD DUP2 LT PUSH2 0xA4C JUMPI PUSH2 0xA4B PUSH2 0x43DF JUMP JUMPDEST JUMPDEST SWAP1 PUSH1 0x0 MSTORE PUSH1 0x20 PUSH1 0x0 KECCAK256 SWAP1 PUSH1 0x7 MUL ADD PUSH1 0x3 ADD SLOAD DUP5 DUP5 DUP2 SLOAD DUP2 LT PUSH2 0xA71 JUMPI PUSH2 0xA70 PUSH2 0x43DF JUMP JUMPDEST JUMPDEST SWAP1 PUSH1 0x0 MSTORE PUSH1 0x20 PUSH1 0x0 KECCAK256 SWAP1 PUSH1 0x7 MUL ADD PUSH1 0x2 ADD SLOAD PUSH2 0xA8D SWAP2 SWAP1 PUSH2 0x41B6 JUMP JUMPDEST SWAP5 POP SWAP5 POP SWAP5 POP POP POP PUSH2 0xAE9 JUMP JUMPDEST DUP1 DUP1 PUSH2 0xAA5 SWAP1 PUSH2 0x4309 JUMP JUMPDEST SWAP2 POP POP PUSH2 0x9B7 JUMP JUMPDEST POP PUSH1 0x40 MLOAD PUSH32 0x8C379A000000000000000000000000000000000000000000000000000000000 DUP2 MSTORE PUSH1 0x4 ADD PUSH2 0xAE0 SWAP1 PUSH2 0x3EC6 JUMP JUMPDEST PUSH1 0x40 MLOAD DUP1 SWAP2 SUB SWAP1 REVERT JUMPDEST SWAP3 POP SWAP3 POP SWAP3 JUMP JUMPDEST PUSH1 0x2 PUSH1 0x0 SWAP1 SLOAD SWAP1 PUSH2 0x100 EXP SWAP1 DIV PUSH20 0xFFFFFFFFFFFFFFFFFFFFFFFFFFFFFFFFFFFFFFFF AND PUSH20 0xFFFFFFFFFFFFFFFFFFFFFFFFFFFFFFFFFFFFFFFF AND CALLER PUSH20 0xFFFFFFFFFFFFFFFFFFFFFFFFFFFFFFFFFFFFFFFF AND EQ PUSH1 0x40 MLOAD DUP1 PUSH1 0x60 ADD PUSH1 0x40 MSTORE DUP1 PUSH1 0x33 DUP2 MSTORE PUSH1 0x20 ADD PUSH2 0x49FF PUSH1 0x33 SWAP2 CODECOPY SWAP1 PUSH2 0xB9B JUMPI PUSH1 0x40 MLOAD PUSH32 0x8C379A000000000000000000000000000000000000000000000000000000000 DUP2 MSTORE PUSH1 0x4 ADD PUSH2 0xB92 SWAP2 SWAP1 PUSH2 0x3CE4 JUMP JUMPDEST PUSH1 0x40 MLOAD DUP1 SWAP2 SUB SWAP1 REVERT JUMPDEST POP PUSH1 0x0 DUP1 DUP1 SLOAD SWAP1 POP GT PUSH2 0xBE3 JUMPI PUSH1 0x40 MLOAD PUSH32 0x8C379A000000000000000000000000000000000000000000000000000000000 DUP2 MSTORE PUSH1 0x4 ADD PUSH2 0xBDA SWAP1 PUSH2 0x3E26 JUMP JUMPDEST PUSH1 0x40 MLOAD DUP1 SWAP2 SUB SWAP1 REVERT JUMPDEST PUSH1 0x0 PUSH1 0x9 DUP2 GT ISZERO PUSH2 0xBF7 JUMPI PUSH2 0xBF6 PUSH2 0x4381 JUMP JUMPDEST JUMPDEST DUP2 PUSH1 0xFF AND PUSH1 0x9 DUP2 GT ISZERO PUSH2 0xC0D JUMPI PUSH2 0xC0C PUSH2 0x4381 JUMP JUMPDEST JUMPDEST PUSH1 0x9 DUP2 GT ISZERO PUSH2 0xC1F JUMPI PUSH2 0xC1E PUSH2 0x4381 JUMP JUMPDEST JUMPDEST EQ ISZERO PUSH1 0x40 MLOAD DUP1 PUSH1 0x60 ADD PUSH1 0x40 MSTORE DUP1 PUSH1 0x31 DUP2 MSTORE PUSH1 0x20 ADD PUSH2 0x4A32 PUSH1 0x31 SWAP2 CODECOPY SWAP1 PUSH2 0xC7B JUMPI PUSH1 0x40 MLOAD PUSH32 0x8C379A000000000000000000000000000000000000000000000000000000000 DUP2 MSTORE PUSH1 0x4 ADD PUSH2 0xC72 SWAP2 SWAP1 PUSH2 0x3CE4 JUMP JUMPDEST PUSH1 0x40 MLOAD DUP1 SWAP2 SUB SWAP1 REVERT JUMPDEST POP PUSH1 0x2 PUSH1 0x9 DUP2 GT ISZERO PUSH2 0xC90 JUMPI PUSH2 0xC8F PUSH2 0x4381 JUMP JUMPDEST JUMPDEST DUP2 PUSH1 0xFF AND PUSH1 0x9 DUP2 GT ISZERO PUSH2 0xCA6 JUMPI PUSH2 0xCA5 PUSH2 0x4381 JUMP JUMPDEST JUMPDEST PUSH1 0x9 DUP2 GT ISZERO PUSH2 0xCB8 JUMPI PUSH2 0xCB7 PUSH2 0x4381 JUMP JUMPDEST JUMPDEST EQ ISZERO PUSH1 0x40 MLOAD DUP1 PUSH1 0x60 ADD PUSH1 0x40 MSTORE DUP1 PUSH1 0x31 DUP2 MSTORE PUSH1 0x20 ADD PUSH2 0x4A32 PUSH1 0x31 SWAP2 CODECOPY SWAP1 PUSH2 0xD14 JUMPI PUSH1 0x40 MLOAD PUSH32 0x8C379A000000000000000000000000000000000000000000000000000000000 DUP2 MSTORE PUSH1 0x4 ADD PUSH2 0xD0B SWAP2 SWAP1 PUSH2 0x3CE4 JUMP JUMPDEST PUSH1 0x40 MLOAD DUP1 SWAP2 SUB SWAP1 REVERT JUMPDEST POP PUSH1 0x3 PUSH1 0x9 DUP2 GT ISZERO PUSH2 0xD29 JUMPI PUSH2 0xD28 PUSH2 0x4381 JUMP JUMPDEST JUMPDEST DUP2 PUSH1 0xFF AND PUSH1 0x9 DUP2 GT ISZERO PUSH2 0xD3F JUMPI PUSH2 0xD3E PUSH2 0x4381 JUMP JUMPDEST JUMPDEST PUSH1 0x9 DUP2 GT ISZERO PUSH2 0xD51 JUMPI PUSH2 0xD50 PUSH2 0x4381 JUMP JUMPDEST JUMPDEST EQ ISZERO PUSH1 0x40 MLOAD DUP1 PUSH1 0x60 ADD PUSH1 0x40 MSTORE DUP1 PUSH1 0x31 DUP2 MSTORE PUSH1 0x20 ADD PUSH2 0x4A32 PUSH1 0x31 SWAP2 CODECOPY SWAP1 PUSH2 0xDAD JUMPI PUSH1 0x40 MLOAD PUSH32 0x8C379A000000000000000000000000000000000000000000000000000000000 DUP2 MSTORE PUSH1 0x4 ADD PUSH2 0xDA4 SWAP2 SWAP1 PUSH2 0x3CE4 JUMP JUMPDEST PUSH1 0x40 MLOAD DUP1 SWAP2 SUB SWAP1 REVERT JUMPDEST POP PUSH1 0x4 PUSH1 0x9 DUP2 GT ISZERO PUSH2 0xDC2 JUMPI PUSH2 0xDC1 PUSH2 0x4381 JUMP JUMPDEST JUMPDEST DUP2 PUSH1 0xFF AND PUSH1 0x9 DUP2 GT ISZERO PUSH2 0xDD8 JUMPI PUSH2 0xDD7 PUSH2 0x4381 JUMP JUMPDEST JUMPDEST PUSH1 0x9 DUP2 GT ISZERO PUSH2 0xDEA JUMPI PUSH2 0xDE9 PUSH2 0x4381 JUMP JUMPDEST JUMPDEST EQ ISZERO PUSH1 0x40 MLOAD DUP1 PUSH1 0x60 ADD PUSH1 0x40 MSTORE DUP1 PUSH1 0x31 DUP2 MSTORE PUSH1 0x20 ADD PUSH2 0x4A32 PUSH1 0x31 SWAP2 CODECOPY SWAP1 PUSH2 0xE46 JUMPI PUSH1 0x40 MLOAD PUSH32 0x8C379A000000000000000000000000000000000000000000000000000000000 DUP2 MSTORE PUSH1 0x4 ADD PUSH2 0xE3D SWAP2 SWAP1 PUSH2 0x3CE4 JUMP JUMPDEST PUSH1 0x40 MLOAD DUP1 SWAP2 SUB SWAP1 REVERT JUMPDEST POP PUSH1 0x0 PUSH1 0x3 PUSH1 0x0 DUP5 DUP2 MSTORE PUSH1 0x20 ADD SWAP1 DUP2 MSTORE PUSH1 0x20 ADD PUSH1 0x0 KECCAK256 SWAP1 POP PUSH1 0x0 DUP2 DUP1 SLOAD SWAP1 POP GT PUSH2 0xEA5 JUMPI PUSH1 0x40 MLOAD PUSH32 0x8C379A000000000000000000000000000000000000000000000000000000000 DUP2 MSTORE PUSH1 0x4 ADD PUSH2 0xE9C SWAP1 PUSH2 0x3E86 JUMP JUMPDEST PUSH1 0x40 MLOAD DUP1 SWAP2 SUB SWAP1 REVERT JUMPDEST PUSH1 0x0 JUMPDEST DUP2 DUP1 SLOAD SWAP1 POP DUP2 LT ISZERO PUSH2 0xFC5 JUMPI DUP5 DUP3 DUP3 DUP2 SLOAD DUP2 LT PUSH2 0xEC8 JUMPI PUSH2 0xEC7 PUSH2 0x43DF JUMP JUMPDEST JUMPDEST SWAP1 PUSH1 0x0 MSTORE PUSH1 0x20 PUSH1 0x0 KECCAK256 SWAP1 PUSH1 0x7 MUL ADD PUSH1 0x0 ADD SLOAD EQ ISZERO PUSH2 0xFB2 JUMPI DUP3 PUSH1 0xFF AND PUSH1 0x9 DUP2 GT ISZERO PUSH2 0xEF6 JUMPI PUSH2 0xEF5 PUSH2 0x4381 JUMP JUMPDEST JUMPDEST DUP3 DUP3 DUP2 SLOAD DUP2 LT PUSH2 0xF09 JUMPI PUSH2 0xF08 PUSH2 0x43DF JUMP JUMPDEST JUMPDEST SWAP1 PUSH1 0x0 MSTORE PUSH1 0x20 PUSH1 0x0 KECCAK256 SWAP1 PUSH1 0x7 MUL ADD PUSH1 0x6 ADD PUSH1 0x0 PUSH2 0x100 EXP DUP2 SLOAD DUP2 PUSH1 0xFF MUL NOT AND SWAP1 DUP4 PUSH1 0x9 DUP2 GT ISZERO PUSH2 0xF3C JUMPI PUSH2 0xF3B PUSH2 0x4381 JUMP JUMPDEST JUMPDEST MUL OR SWAP1 SSTORE POP PUSH32 0x42B0281EF1BA120F08AE315789F8639D48731DB33EAAC502B629A775C997471B DUP5 DUP7 DUP5 DUP5 DUP2 SLOAD DUP2 LT PUSH2 0xF77 JUMPI PUSH2 0xF76 PUSH2 0x43DF JUMP JUMPDEST JUMPDEST SWAP1 PUSH1 0x0 MSTORE PUSH1 0x20 PUSH1 0x0 KECCAK256 SWAP1 PUSH1 0x7 MUL ADD PUSH1 0x6 ADD PUSH1 0x0 SWAP1 SLOAD SWAP1 PUSH2 0x100 EXP SWAP1 DIV PUSH1 0xFF AND PUSH1 0x40 MLOAD PUSH2 0xFA5 SWAP4 SWAP3 SWAP2 SWAP1 PUSH2 0x3FC2 JUMP JUMPDEST PUSH1 0x40 MLOAD DUP1 SWAP2 SUB SWAP1 LOG1 PUSH2 0xFC5 JUMP JUMPDEST DUP1 DUP1 PUSH2 0xFBD SWAP1 PUSH2 0x4309 JUMP JUMPDEST SWAP2 POP POP PUSH2 0xEA8 JUMP JUMPDEST POP POP POP POP POP JUMP JUMPDEST PUSH1 0x2 PUSH1 0x0 SWAP1 SLOAD SWAP1 PUSH2 0x100 EXP SWAP1 DIV PUSH20 0xFFFFFFFFFFFFFFFFFFFFFFFFFFFFFFFFFFFFFFFF AND PUSH20 0xFFFFFFFFFFFFFFFFFFFFFFFFFFFFFFFFFFFFFFFF AND CALLER PUSH20 0xFFFFFFFFFFFFFFFFFFFFFFFFFFFFFFFFFFFFFFFF AND EQ ISZERO PUSH1 0x40 MLOAD DUP1 PUSH1 0x60 ADD PUSH1 0x40 MSTORE DUP1 PUSH1 0x2F DUP2 MSTORE PUSH1 0x20 ADD PUSH2 0x4A63 PUSH1 0x2F SWAP2 CODECOPY SWAP1 PUSH2 0x1078 JUMPI PUSH1 0x40 MLOAD PUSH32 0x8C379A000000000000000000000000000000000000000000000000000000000 DUP2 MSTORE PUSH1 0x4 ADD PUSH2 0x106F SWAP2 SWAP1 PUSH2 0x3CE4 JUMP JUMPDEST PUSH1 0x40 MLOAD DUP1 SWAP2 SUB SWAP1 REVERT JUMPDEST POP PUSH1 0x0 PUSH1 0x3 PUSH1 0x9 DUP2 GT ISZERO PUSH2 0x108F JUMPI PUSH2 0x108E PUSH2 0x4381 JUMP JUMPDEST JUMPDEST DUP3 PUSH1 0xFF AND PUSH1 0x9 DUP2 GT ISZERO PUSH2 0x10A5 JUMPI PUSH2 0x10A4 PUSH2 0x4381 JUMP JUMPDEST JUMPDEST PUSH1 0x9 DUP2 GT ISZERO PUSH2 0x10B7 JUMPI PUSH2 0x10B6 PUSH2 0x4381 JUMP JUMPDEST JUMPDEST EQ ISZERO PUSH1 0x40 MLOAD DUP1 PUSH1 0x60 ADD PUSH1 0x40 MSTORE DUP1 PUSH1 0x31 DUP2 MSTORE PUSH1 0x20 ADD PUSH2 0x4A32 PUSH1 0x31 SWAP2 CODECOPY SWAP1 PUSH2 0x1113 JUMPI PUSH1 0x40 MLOAD PUSH32 0x8C379A000000000000000000000000000000000000000000000000000000000 DUP2 MSTORE PUSH1 0x4 ADD PUSH2 0x110A SWAP2 SWAP1 PUSH2 0x3CE4 JUMP JUMPDEST PUSH1 0x40 MLOAD DUP1 SWAP2 SUB SWAP1 REVERT JUMPDEST POP PUSH1 0x5 PUSH1 0x9 DUP2 GT ISZERO PUSH2 0x1128 JUMPI PUSH2 0x1127 PUSH2 0x4381 JUMP JUMPDEST JUMPDEST DUP3 PUSH1 0xFF AND PUSH1 0x9 DUP2 GT ISZERO PUSH2 0x113E JUMPI PUSH2 0x113D PUSH2 0x4381 JUMP JUMPDEST JUMPDEST PUSH1 0x9 DUP2 GT ISZERO PUSH2 0x1150 JUMPI PUSH2 0x114F PUSH2 0x4381 JUMP JUMPDEST JUMPDEST EQ ISZERO PUSH1 0x40 MLOAD DUP1 PUSH1 0x60 ADD PUSH1 0x40 MSTORE DUP1 PUSH1 0x31 DUP2 MSTORE PUSH1 0x20 ADD PUSH2 0x4A32 PUSH1 0x31 SWAP2 CODECOPY SWAP1 PUSH2 0x11AC JUMPI PUSH1 0x40 MLOAD PUSH32 0x8C379A000000000000000000000000000000000000000000000000000000000 DUP2 MSTORE PUSH1 0x4 ADD PUSH2 0x11A3 SWAP2 SWAP1 PUSH2 0x3CE4 JUMP JUMPDEST PUSH1 0x40 MLOAD DUP1 SWAP2 SUB SWAP1 REVERT JUMPDEST POP PUSH1 0x0 PUSH1 0x3 PUSH1 0x0 DUP6 DUP2 MSTORE PUSH1 0x20 ADD SWAP1 DUP2 MSTORE PUSH1 0x20 ADD PUSH1 0x0 KECCAK256 SWAP1 POP PUSH1 0x0 DUP2 DUP1 SLOAD SWAP1 POP GT PUSH2 0x120B JUMPI PUSH1 0x40 MLOAD PUSH32 0x8C379A000000000000000000000000000000000000000000000000000000000 DUP2 MSTORE PUSH1 0x4 ADD PUSH2 0x1202 SWAP1 PUSH2 0x3E66 JUMP JUMPDEST PUSH1 0x40 MLOAD DUP1 SWAP2 SUB SWAP1 REVERT JUMPDEST PUSH1 0x0 JUMPDEST DUP2 DUP1 SLOAD SWAP1 POP DUP2 LT ISZERO PUSH2 0x1579 JUMPI DUP6 DUP3 DUP3 DUP2 SLOAD DUP2 LT PUSH2 0x122E JUMPI PUSH2 0x122D PUSH2 0x43DF JUMP JUMPDEST JUMPDEST SWAP1 PUSH1 0x0 MSTORE PUSH1 0x20 PUSH1 0x0 KECCAK256 SWAP1 PUSH1 0x7 MUL ADD PUSH1 0x0 ADD SLOAD EQ ISZERO PUSH2 0x155B JUMPI PUSH1 0x1 SWAP3 POP PUSH1 0x0 DUP3 DUP3 DUP2 SLOAD DUP2 LT PUSH2 0x125F JUMPI PUSH2 0x125E PUSH2 0x43DF JUMP JUMPDEST JUMPDEST SWAP1 PUSH1 0x0 MSTORE PUSH1 0x20 PUSH1 0x0 KECCAK256 SWAP1 PUSH1 0x7 MUL ADD PUSH1 0x4 ADD PUSH1 0x14 PUSH2 0x100 EXP DUP2 SLOAD DUP2 PUSH1 0xFF MUL NOT AND SWAP1 DUP4 ISZERO ISZERO MUL OR SWAP1 SSTORE POP PUSH1 0x7 PUSH1 0x9 DUP2 GT ISZERO PUSH2 0x129B JUMPI PUSH2 0x129A PUSH2 0x4381 JUMP JUMPDEST JUMPDEST DUP5 PUSH1 0xFF AND PUSH1 0x9 DUP2 GT ISZERO PUSH2 0x12B1 JUMPI PUSH2 0x12B0 PUSH2 0x4381 JUMP JUMPDEST JUMPDEST PUSH1 0x9 DUP2 GT ISZERO PUSH2 0x12C3 JUMPI PUSH2 0x12C2 PUSH2 0x4381 JUMP JUMPDEST JUMPDEST EQ DUP1 PUSH2 0x1308 JUMPI POP PUSH1 0x6 PUSH1 0x9 DUP2 GT ISZERO PUSH2 0x12DE JUMPI PUSH2 0x12DD PUSH2 0x4381 JUMP JUMPDEST JUMPDEST DUP5 PUSH1 0xFF AND PUSH1 0x9 DUP2 GT ISZERO PUSH2 0x12F4 JUMPI PUSH2 0x12F3 PUSH2 0x4381 JUMP JUMPDEST JUMPDEST PUSH1 0x9 DUP2 GT ISZERO PUSH2 0x1306 JUMPI PUSH2 0x1305 PUSH2 0x4381 JUMP JUMPDEST JUMPDEST EQ JUMPDEST ISZERO PUSH2 0x1479 JUMPI PUSH32 0x2DE098063448DBE8B26FA82794CD68CF748EDB4F3E2CC43166E3AD659757019E DUP6 DUP8 DUP7 PUSH1 0xFF AND PUSH1 0x9 DUP2 GT ISZERO PUSH2 0x1346 JUMPI PUSH2 0x1345 PUSH2 0x4381 JUMP JUMPDEST JUMPDEST PUSH1 0x40 MLOAD PUSH2 0x1355 SWAP4 SWAP3 SWAP2 SWAP1 PUSH2 0x3FC2 JUMP JUMPDEST PUSH1 0x40 MLOAD DUP1 SWAP2 SUB SWAP1 LOG1 PUSH1 0x7 PUSH1 0x9 DUP2 GT ISZERO PUSH2 0x1371 JUMPI PUSH2 0x1370 PUSH2 0x4381 JUMP JUMPDEST JUMPDEST DUP5 PUSH1 0xFF AND PUSH1 0x9 DUP2 GT ISZERO PUSH2 0x1387 JUMPI PUSH2 0x1386 PUSH2 0x4381 JUMP JUMPDEST JUMPDEST PUSH1 0x9 DUP2 GT ISZERO PUSH2 0x1399 JUMPI PUSH2 0x1398 PUSH2 0x4381 JUMP JUMPDEST JUMPDEST EQ ISZERO PUSH2 0x13EA JUMPI PUSH2 0x13A9 DUP6 DUP8 PUSH2 0x2FF1 JUMP JUMPDEST PUSH32 0xBD0E0CBB7F526D9C7052B56C5D1873EE7B834959CD785B696DD0F9D418D9617A DUP6 DUP8 PUSH1 0x8 PUSH1 0x40 MLOAD PUSH2 0x13DD SWAP4 SWAP3 SWAP2 SWAP1 PUSH2 0x3FC2 JUMP JUMPDEST PUSH1 0x40 MLOAD DUP1 SWAP2 SUB SWAP1 LOG1 PUSH2 0x1474 JUMP JUMPDEST PUSH1 0x6 PUSH1 0x9 DUP2 GT ISZERO PUSH2 0x13FE JUMPI PUSH2 0x13FD PUSH2 0x4381 JUMP JUMPDEST JUMPDEST DUP5 PUSH1 0xFF AND PUSH1 0x9 DUP2 GT ISZERO PUSH2 0x1414 JUMPI PUSH2 0x1413 PUSH2 0x4381 JUMP JUMPDEST JUMPDEST PUSH1 0x9 DUP2 GT ISZERO PUSH2 0x1426 JUMPI PUSH2 0x1425 PUSH2 0x4381 JUMP JUMPDEST JUMPDEST EQ ISZERO PUSH2 0x1473 JUMPI PUSH2 0x1436 DUP6 DUP8 PUSH2 0x3287 JUMP JUMPDEST PUSH32 0xBD0E0CBB7F526D9C7052B56C5D1873EE7B834959CD785B696DD0F9D418D9617A DUP6 DUP8 PUSH1 0x9 PUSH1 0x40 MLOAD PUSH2 0x146A SWAP4 SWAP3 SWAP2 SWAP1 PUSH2 0x3FC2 JUMP JUMPDEST PUSH1 0x40 MLOAD DUP1 SWAP2 SUB SWAP1 LOG1 JUMPDEST JUMPDEST PUSH2 0x155A JUMP JUMPDEST DUP4 PUSH1 0xFF AND PUSH1 0x9 DUP2 GT ISZERO PUSH2 0x148F JUMPI PUSH2 0x148E PUSH2 0x4381 JUMP JUMPDEST JUMPDEST DUP3 DUP3 DUP2 SLOAD DUP2 LT PUSH2 0x14A2 JUMPI PUSH2 0x14A1 PUSH2 0x43DF JUMP JUMPDEST JUMPDEST SWAP1 PUSH1 0x0 MSTORE PUSH1 0x20 PUSH1 0x0 KECCAK256 SWAP1 PUSH1 0x7 MUL ADD PUSH1 0x6 ADD PUSH1 0x0 PUSH2 0x100 EXP DUP2 SLOAD DUP2 PUSH1 0xFF MUL NOT AND SWAP1 DUP4 PUSH1 0x9 DUP2 GT ISZERO PUSH2 0x14D5 JUMPI PUSH2 0x14D4 PUSH2 0x4381 JUMP JUMPDEST JUMPDEST MUL OR SWAP1 SSTORE POP PUSH1 0x4 PUSH1 0x9 DUP2 GT ISZERO PUSH2 0x14EE JUMPI PUSH2 0x14ED PUSH2 0x4381 JUMP JUMPDEST JUMPDEST DUP5 PUSH1 0xFF AND PUSH1 0x9 DUP2 GT ISZERO PUSH2 0x1504 JUMPI PUSH2 0x1503 PUSH2 0x4381 JUMP JUMPDEST JUMPDEST PUSH1 0x9 DUP2 GT ISZERO PUSH2 0x1516 JUMPI PUSH2 0x1515 PUSH2 0x4381 JUMP JUMPDEST JUMPDEST EQ ISZERO PUSH2 0x1559 JUMPI PUSH32 0xD49FC9FA26FA9FC112EFD004ACB9EEABF80810373D2CBB1A7884D4D64E8E8D2B DUP6 DUP8 PUSH1 0x4 PUSH1 0x40 MLOAD PUSH2 0x1550 SWAP4 SWAP3 SWAP2 SWAP1 PUSH2 0x3FC2 JUMP JUMPDEST PUSH1 0x40 MLOAD DUP1 SWAP2 SUB SWAP1 LOG1 JUMPDEST JUMPDEST JUMPDEST DUP3 ISZERO PUSH2 0x1566 JUMPI PUSH2 0x1579 JUMP JUMPDEST DUP1 DUP1 PUSH2 0x1571 SWAP1 PUSH2 0x4309 JUMP JUMPDEST SWAP2 POP POP PUSH2 0x120E JUMP JUMPDEST POP POP POP POP POP POP JUMP JUMPDEST PUSH1 0x0 DUP1 PUSH1 0x0 PUSH1 0x3 PUSH1 0x0 DUP7 DUP2 MSTORE PUSH1 0x20 ADD SWAP1 DUP2 MSTORE PUSH1 0x20 ADD PUSH1 0x0 KECCAK256 SWAP1 POP PUSH1 0x0 DUP2 DUP1 SLOAD SWAP1 POP GT PUSH2 0x15E2 JUMPI PUSH1 0x40 MLOAD PUSH32 0x8C379A000000000000000000000000000000000000000000000000000000000 DUP2 MSTORE PUSH1 0x4 ADD PUSH2 0x15D9 SWAP1 PUSH2 0x3D06 JUMP JUMPDEST PUSH1 0x40 MLOAD DUP1 SWAP2 SUB SWAP1 REVERT JUMPDEST PUSH1 0x0 PUSH1 0x5 PUSH1 0x0 DUP7 DUP2 MSTORE PUSH1 0x20 ADD SWAP1 DUP2 MSTORE PUSH1 0x20 ADD PUSH1 0x0 KECCAK256 SWAP1 POP PUSH1 0x0 JUMPDEST DUP2 DUP1 SLOAD SWAP1 POP DUP2 LT ISZERO PUSH2 0x19C6 JUMPI CALLER PUSH20 0xFFFFFFFFFFFFFFFFFFFFFFFFFFFFFFFFFFFFFFFF AND DUP3 DUP3 DUP2 SLOAD DUP2 LT PUSH2 0x1632 JUMPI PUSH2 0x1631 PUSH2 0x43DF JUMP JUMPDEST JUMPDEST SWAP1 PUSH1 0x0 MSTORE PUSH1 0x20 PUSH1 0x0 KECCAK256 SWAP1 PUSH1 0x3 MUL ADD PUSH1 0x1 ADD PUSH1 0x0 SWAP1 SLOAD SWAP1 PUSH2 0x100 EXP SWAP1 DIV PUSH20 0xFFFFFFFFFFFFFFFFFFFFFFFFFFFFFFFFFFFFFFFF AND PUSH20 0xFFFFFFFFFFFFFFFFFFFFFFFFFFFFFFFFFFFFFFFF AND EQ DUP1 ISZERO PUSH2 0x16BC JUMPI POP PUSH1 0x0 DUP3 DUP3 DUP2 SLOAD DUP2 LT PUSH2 0x1697 JUMPI PUSH2 0x1696 PUSH2 0x43DF JUMP JUMPDEST JUMPDEST SWAP1 PUSH1 0x0 MSTORE PUSH1 0x20 PUSH1 0x0 KECCAK256 SWAP1 PUSH1 0x3 MUL ADD PUSH1 0x2 ADD PUSH1 0x0 DUP9 DUP2 MSTORE PUSH1 0x20 ADD SWAP1 DUP2 MSTORE PUSH1 0x20 ADD PUSH1 0x0 KECCAK256 SLOAD GT JUMPDEST ISZERO PUSH2 0x19B3 JUMPI PUSH1 0x0 JUMPDEST DUP4 DUP1 SLOAD SWAP1 POP DUP2 LT ISZERO PUSH2 0x18B2 JUMPI DUP7 DUP5 DUP3 DUP2 SLOAD DUP2 LT PUSH2 0x16E4 JUMPI PUSH2 0x16E3 PUSH2 0x43DF JUMP JUMPDEST JUMPDEST SWAP1 PUSH1 0x0 MSTORE PUSH1 0x20 PUSH1 0x0 KECCAK256 SWAP1 PUSH1 0x7 MUL ADD PUSH1 0x0 ADD SLOAD EQ ISZERO PUSH2 0x189F JUMPI PUSH1 0x3 PUSH1 0x9 DUP2 GT ISZERO PUSH2 0x1710 JUMPI PUSH2 0x170F PUSH2 0x4381 JUMP JUMPDEST JUMPDEST DUP5 DUP3 DUP2 SLOAD DUP2 LT PUSH2 0x1723 JUMPI PUSH2 0x1722 PUSH2 0x43DF JUMP JUMPDEST JUMPDEST SWAP1 PUSH1 0x0 MSTORE PUSH1 0x20 PUSH1 0x0 KECCAK256 SWAP1 PUSH1 0x7 MUL ADD PUSH1 0x6 ADD PUSH1 0x0 SWAP1 SLOAD SWAP1 PUSH2 0x100 EXP SWAP1 DIV PUSH1 0xFF AND PUSH1 0x9 DUP2 GT ISZERO PUSH2 0x1754 JUMPI PUSH2 0x1753 PUSH2 0x4381 JUMP JUMPDEST JUMPDEST GT ISZERO PUSH2 0x1795 JUMPI PUSH1 0x40 MLOAD PUSH32 0x8C379A000000000000000000000000000000000000000000000000000000000 DUP2 MSTORE PUSH1 0x4 ADD PUSH2 0x178C SWAP1 PUSH2 0x3E06 JUMP JUMPDEST PUSH1 0x40 MLOAD DUP1 SWAP2 SUB SWAP1 REVERT JUMPDEST DUP3 DUP3 DUP2 SLOAD DUP2 LT PUSH2 0x17A8 JUMPI PUSH2 0x17A7 PUSH2 0x43DF JUMP JUMPDEST JUMPDEST SWAP1 PUSH1 0x0 MSTORE PUSH1 0x20 PUSH1 0x0 KECCAK256 SWAP1 PUSH1 0x3 MUL ADD PUSH1 0x2 ADD PUSH1 0x0 DUP9 DUP2 MSTORE PUSH1 0x20 ADD SWAP1 DUP2 MSTORE PUSH1 0x20 ADD PUSH1 0x0 KECCAK256 SLOAD DUP5 DUP3 DUP2 SLOAD DUP2 LT PUSH2 0x17DE JUMPI PUSH2 0x17DD PUSH2 0x43DF JUMP JUMPDEST JUMPDEST SWAP1 PUSH1 0x0 MSTORE PUSH1 0x20 PUSH1 0x0 KECCAK256 SWAP1 PUSH1 0x7 MUL ADD PUSH1 0x3 ADD SLOAD PUSH2 0x17FA SWAP2 SWAP1 PUSH2 0x41B6 JUMP JUMPDEST DUP5 DUP3 DUP2 SLOAD DUP2 LT PUSH2 0x180D JUMPI PUSH2 0x180C PUSH2 0x43DF JUMP JUMPDEST JUMPDEST SWAP1 PUSH1 0x0 MSTORE PUSH1 0x20 PUSH1 0x0 KECCAK256 SWAP1 PUSH1 0x7 MUL ADD PUSH1 0x3 ADD DUP2 SWAP1 SSTORE POP DUP4 DUP2 DUP2 SLOAD DUP2 LT PUSH2 0x1835 JUMPI PUSH2 0x1834 PUSH2 0x43DF JUMP JUMPDEST JUMPDEST SWAP1 PUSH1 0x0 MSTORE PUSH1 0x20 PUSH1 0x0 KECCAK256 SWAP1 PUSH1 0x7 MUL ADD PUSH1 0x4 ADD PUSH1 0x14 SWAP1 SLOAD SWAP1 PUSH2 0x100 EXP SWAP1 DIV PUSH1 0xFF AND PUSH2 0x1896 JUMPI PUSH1 0x1 DUP5 DUP3 DUP2 SLOAD DUP2 LT PUSH2 0x186D JUMPI PUSH2 0x186C PUSH2 0x43DF JUMP JUMPDEST JUMPDEST SWAP1 PUSH1 0x0 MSTORE PUSH1 0x20 PUSH1 0x0 KECCAK256 SWAP1 PUSH1 0x7 MUL ADD PUSH1 0x4 ADD PUSH1 0x14 PUSH2 0x100 EXP DUP2 SLOAD DUP2 PUSH1 0xFF MUL NOT AND SWAP1 DUP4 ISZERO ISZERO MUL OR SWAP1 SSTORE POP JUMPDEST PUSH1 0x1 SWAP6 POP PUSH2 0x18B2 JUMP JUMPDEST DUP1 DUP1 PUSH2 0x18AA SWAP1 PUSH2 0x4309 JUMP JUMPDEST SWAP2 POP POP PUSH2 0x16C4 JUMP JUMPDEST POP DUP5 PUSH2 0x18F3 JUMPI PUSH1 0x40 MLOAD PUSH32 0x8C379A000000000000000000000000000000000000000000000000000000000 DUP2 MSTORE PUSH1 0x4 ADD PUSH2 0x18EA SWAP1 PUSH2 0x3EA6 JUMP JUMPDEST PUSH1 0x40 MLOAD DUP1 SWAP2 SUB SWAP1 REVERT JUMPDEST CALLER PUSH20 0xFFFFFFFFFFFFFFFFFFFFFFFFFFFFFFFFFFFFFFFF AND PUSH2 0x8FC DUP4 DUP4 DUP2 SLOAD DUP2 LT PUSH2 0x1920 JUMPI PUSH2 0x191F PUSH2 0x43DF JUMP JUMPDEST JUMPDEST SWAP1 PUSH1 0x0 MSTORE PUSH1 0x20 PUSH1 0x0 KECCAK256 SWAP1 PUSH1 0x3 MUL ADD PUSH1 0x2 ADD PUSH1 0x0 DUP10 DUP2 MSTORE PUSH1 0x20 ADD SWAP1 DUP2 MSTORE PUSH1 0x20 ADD PUSH1 0x0 KECCAK256 SLOAD SWAP1 DUP2 ISZERO MUL SWAP1 PUSH1 0x40 MLOAD PUSH1 0x0 PUSH1 0x40 MLOAD DUP1 DUP4 SUB DUP2 DUP6 DUP9 DUP9 CALL SWAP4 POP POP POP POP ISZERO DUP1 ISZERO PUSH2 0x196E JUMPI RETURNDATASIZE PUSH1 0x0 DUP1 RETURNDATACOPY RETURNDATASIZE PUSH1 0x0 REVERT JUMPDEST POP PUSH1 0x0 DUP3 DUP3 DUP2 SLOAD DUP2 LT PUSH2 0x1984 JUMPI PUSH2 0x1983 PUSH2 0x43DF JUMP JUMPDEST JUMPDEST SWAP1 PUSH1 0x0 MSTORE PUSH1 0x20 PUSH1 0x0 KECCAK256 SWAP1 PUSH1 0x3 MUL ADD PUSH1 0x2 ADD PUSH1 0x0 DUP9 DUP2 MSTORE PUSH1 0x20 ADD SWAP1 DUP2 MSTORE PUSH1 0x20 ADD PUSH1 0x0 KECCAK256 DUP2 SWAP1 SSTORE POP PUSH1 0x1 SWAP4 POP PUSH2 0x19C6 JUMP JUMPDEST DUP1 DUP1 PUSH2 0x19BE SWAP1 PUSH2 0x4309 JUMP JUMPDEST SWAP2 POP POP PUSH2 0x15FC JUMP JUMPDEST POP DUP3 PUSH2 0x1A07 JUMPI PUSH1 0x40 MLOAD PUSH32 0x8C379A000000000000000000000000000000000000000000000000000000000 DUP2 MSTORE PUSH1 0x4 ADD PUSH2 0x19FE SWAP1 PUSH2 0x3DC6 JUMP JUMPDEST PUSH1 0x40 MLOAD DUP1 SWAP2 SUB SWAP1 REVERT JUMPDEST POP POP POP POP POP POP JUMP JUMPDEST PUSH1 0x60 PUSH1 0x0 PUSH1 0x3 PUSH1 0x0 DUP6 DUP2 MSTORE PUSH1 0x20 ADD SWAP1 DUP2 MSTORE PUSH1 0x20 ADD PUSH1 0x0 KECCAK256 SWAP1 POP PUSH1 0x0 DUP2 DUP1 SLOAD SWAP1 POP GT PUSH2 0x1A6F JUMPI PUSH1 0x40 MLOAD PUSH32 0x8C379A000000000000000000000000000000000000000000000000000000000 DUP2 MSTORE PUSH1 0x4 ADD PUSH2 0x1A66 SWAP1 PUSH2 0x3D06 JUMP JUMPDEST PUSH1 0x40 MLOAD DUP1 SWAP2 SUB SWAP1 REVERT JUMPDEST PUSH1 0x0 JUMPDEST DUP2 DUP1 SLOAD SWAP1 POP DUP2 LT ISZERO PUSH2 0x1BB7 JUMPI DUP4 DUP3 DUP3 DUP2 SLOAD DUP2 LT PUSH2 0x1A92 JUMPI PUSH2 0x1A91 PUSH2 0x43DF JUMP JUMPDEST JUMPDEST SWAP1 PUSH1 0x0 MSTORE PUSH1 0x20 PUSH1 0x0 KECCAK256 SWAP1 PUSH1 0x7 MUL ADD PUSH1 0x0 ADD SLOAD EQ ISZERO PUSH2 0x1BA4 JUMPI PUSH1 0x7 PUSH1 0x0 DUP4 DUP4 DUP2 SLOAD DUP2 LT PUSH2 0x1AC1 JUMPI PUSH2 0x1AC0 PUSH2 0x43DF JUMP JUMPDEST JUMPDEST SWAP1 PUSH1 0x0 MSTORE PUSH1 0x20 PUSH1 0x0 KECCAK256 SWAP1 PUSH1 0x7 MUL ADD PUSH1 0x6 ADD PUSH1 0x0 SWAP1 SLOAD SWAP1 PUSH2 0x100 EXP SWAP1 DIV PUSH1 0xFF AND PUSH1 0x9 DUP2 GT ISZERO PUSH2 0x1AF2 JUMPI PUSH2 0x1AF1 PUSH2 0x4381 JUMP JUMPDEST JUMPDEST PUSH1 0x9 DUP2 GT ISZERO PUSH2 0x1B04 JUMPI PUSH2 0x1B03 PUSH2 0x4381 JUMP JUMPDEST JUMPDEST DUP2 MSTORE PUSH1 0x20 ADD SWAP1 DUP2 MSTORE PUSH1 0x20 ADD PUSH1 0x0 KECCAK256 DUP1 SLOAD PUSH2 0x1B1D SWAP1 PUSH2 0x42A6 JUMP JUMPDEST DUP1 PUSH1 0x1F ADD PUSH1 0x20 DUP1 SWAP2 DIV MUL PUSH1 0x20 ADD PUSH1 0x40 MLOAD SWAP1 DUP2 ADD PUSH1 0x40 MSTORE DUP1 SWAP3 SWAP2 SWAP1 DUP2 DUP2 MSTORE PUSH1 0x20 ADD DUP3 DUP1 SLOAD PUSH2 0x1B49 SWAP1 PUSH2 0x42A6 JUMP JUMPDEST DUP1 ISZERO PUSH2 0x1B96 JUMPI DUP1 PUSH1 0x1F LT PUSH2 0x1B6B JUMPI PUSH2 0x100 DUP1 DUP4 SLOAD DIV MUL DUP4 MSTORE SWAP2 PUSH1 0x20 ADD SWAP2 PUSH2 0x1B96 JUMP JUMPDEST DUP3 ADD SWAP2 SWAP1 PUSH1 0x0 MSTORE PUSH1 0x20 PUSH1 0x0 KECCAK256 SWAP1 JUMPDEST DUP2 SLOAD DUP2 MSTORE SWAP1 PUSH1 0x1 ADD SWAP1 PUSH1 0x20 ADD DUP1 DUP4 GT PUSH2 0x1B79 JUMPI DUP3 SWAP1 SUB PUSH1 0x1F AND DUP3 ADD SWAP2 JUMPDEST POP POP POP POP POP SWAP3 POP POP POP PUSH2 0x1BF3 JUMP JUMPDEST DUP1 DUP1 PUSH2 0x1BAF SWAP1 PUSH2 0x4309 JUMP JUMPDEST SWAP2 POP POP PUSH2 0x1A72 JUMP JUMPDEST POP PUSH1 0x40 MLOAD PUSH32 0x8C379A000000000000000000000000000000000000000000000000000000000 DUP2 MSTORE PUSH1 0x4 ADD PUSH2 0x1BEA SWAP1 PUSH2 0x3EC6 JUMP JUMPDEST PUSH1 0x40 MLOAD DUP1 SWAP2 SUB SWAP1 REVERT JUMPDEST SWAP3 SWAP2 POP POP JUMP JUMPDEST PUSH1 0x60 DUP1 PUSH1 0x60 DUP1 PUSH1 0x0 DUP1 DUP1 SLOAD SWAP1 POP GT PUSH2 0x1C46 JUMPI PUSH1 0x40 MLOAD PUSH32 0x8C379A000000000000000000000000000000000000000000000000000000000 DUP2 MSTORE PUSH1 0x4 ADD PUSH2 0x1C3D SWAP1 PUSH2 0x3E26 JUMP JUMPDEST PUSH1 0x40 MLOAD DUP1 SWAP2 SUB SWAP1 REVERT JUMPDEST PUSH1 0x0 PUSH1 0x3 PUSH1 0x0 DUP8 DUP2 MSTORE PUSH1 0x20 ADD SWAP1 DUP2 MSTORE PUSH1 0x20 ADD PUSH1 0x0 KECCAK256 SWAP1 POP PUSH1 0x0 DUP2 DUP1 SLOAD SWAP1 POP GT PUSH2 0x1CA4 JUMPI PUSH1 0x40 MLOAD PUSH32 0x8C379A000000000000000000000000000000000000000000000000000000000 DUP2 MSTORE PUSH1 0x4 ADD PUSH2 0x1C9B SWAP1 PUSH2 0x3D86 JUMP JUMPDEST PUSH1 0x40 MLOAD DUP1 SWAP2 SUB SWAP1 REVERT JUMPDEST PUSH1 0x0 DUP2 DUP1 SLOAD SWAP1 POP PUSH8 0xFFFFFFFFFFFFFFFF DUP2 GT ISZERO PUSH2 0x1CC4 JUMPI PUSH2 0x1CC3 PUSH2 0x440E JUMP JUMPDEST JUMPDEST PUSH1 0x40 MLOAD SWAP1 DUP1 DUP3 MSTORE DUP1 PUSH1 0x20 MUL PUSH1 0x20 ADD DUP3 ADD PUSH1 0x40 MSTORE DUP1 ISZERO PUSH2 0x1CF2 JUMPI DUP2 PUSH1 0x20 ADD PUSH1 0x20 DUP3 MUL DUP1 CALLDATASIZE DUP4 CALLDATACOPY DUP1 DUP3 ADD SWAP2 POP POP SWAP1 POP JUMPDEST POP SWAP1 POP PUSH1 0x0 DUP3 DUP1 SLOAD SWAP1 POP PUSH8 0xFFFFFFFFFFFFFFFF DUP2 GT ISZERO PUSH2 0x1D15 JUMPI PUSH2 0x1D14 PUSH2 0x440E JUMP JUMPDEST JUMPDEST PUSH1 0x40 MLOAD SWAP1 DUP1 DUP3 MSTORE DUP1 PUSH1 0x20 MUL PUSH1 0x20 ADD DUP3 ADD PUSH1 0x40 MSTORE DUP1 ISZERO PUSH2 0x1D43 JUMPI DUP2 PUSH1 0x20 ADD PUSH1 0x20 DUP3 MUL DUP1 CALLDATASIZE DUP4 CALLDATACOPY DUP1 DUP3 ADD SWAP2 POP POP SWAP1 POP JUMPDEST POP SWAP1 POP PUSH1 0x0 DUP4 DUP1 SLOAD SWAP1 POP PUSH8 0xFFFFFFFFFFFFFFFF DUP2 GT ISZERO PUSH2 0x1D66 JUMPI PUSH2 0x1D65 PUSH2 0x440E JUMP JUMPDEST JUMPDEST PUSH1 0x40 MLOAD SWAP1 DUP1 DUP3 MSTORE DUP1 PUSH1 0x20 MUL PUSH1 0x20 ADD DUP3 ADD PUSH1 0x40 MSTORE DUP1 ISZERO PUSH2 0x1D94 JUMPI DUP2 PUSH1 0x20 ADD PUSH1 0x20 DUP3 MUL DUP1 CALLDATASIZE DUP4 CALLDATACOPY DUP1 DUP3 ADD SWAP2 POP POP SWAP1 POP JUMPDEST POP SWAP1 POP PUSH1 0x0 DUP5 DUP1 SLOAD SWAP1 POP PUSH8 0xFFFFFFFFFFFFFFFF DUP2 GT ISZERO PUSH2 0x1DB7 JUMPI PUSH2 0x1DB6 PUSH2 0x440E JUMP JUMPDEST JUMPDEST PUSH1 0x40 MLOAD SWAP1 DUP1 DUP3 MSTORE DUP1 PUSH1 0x20 MUL PUSH1 0x20 ADD DUP3 ADD PUSH1 0x40 MSTORE DUP1 ISZERO PUSH2 0x1DE5 JUMPI DUP2 PUSH1 0x20 ADD PUSH1 0x20 DUP3 MUL DUP1 CALLDATASIZE DUP4 CALLDATACOPY DUP1 DUP3 ADD SWAP2 POP POP SWAP1 POP JUMPDEST POP SWAP1 POP PUSH1 0x0 DUP1 JUMPDEST DUP7 DUP1 SLOAD SWAP1 POP DUP2 LT ISZERO PUSH2 0x1F61 JUMPI DUP7 DUP2 DUP2 SLOAD DUP2 LT PUSH2 0x1E0B JUMPI PUSH2 0x1E0A PUSH2 0x43DF JUMP JUMPDEST JUMPDEST SWAP1 PUSH1 0x0 MSTORE PUSH1 0x20 PUSH1 0x0 KECCAK256 SWAP1 PUSH1 0x7 MUL ADD PUSH1 0x4 ADD PUSH1 0x14 SWAP1 SLOAD SWAP1 PUSH2 0x100 EXP SWAP1 DIV PUSH1 0xFF AND ISZERO PUSH2 0x1F4E JUMPI DUP7 DUP2 DUP2 SLOAD DUP2 LT PUSH2 0x1E42 JUMPI PUSH2 0x1E41 PUSH2 0x43DF JUMP JUMPDEST JUMPDEST SWAP1 PUSH1 0x0 MSTORE PUSH1 0x20 PUSH1 0x0 KECCAK256 SWAP1 PUSH1 0x7 MUL ADD PUSH1 0x0 ADD SLOAD DUP7 DUP4 DUP2 MLOAD DUP2 LT PUSH2 0x1E67 JUMPI PUSH2 0x1E66 PUSH2 0x43DF JUMP JUMPDEST JUMPDEST PUSH1 0x20 MUL PUSH1 0x20 ADD ADD DUP2 DUP2 MSTORE POP POP DUP7 DUP2 DUP2 SLOAD DUP2 LT PUSH2 0x1E86 JUMPI PUSH2 0x1E85 PUSH2 0x43DF JUMP JUMPDEST JUMPDEST SWAP1 PUSH1 0x0 MSTORE PUSH1 0x20 PUSH1 0x0 KECCAK256 SWAP1 PUSH1 0x7 MUL ADD PUSH1 0x1 ADD SLOAD DUP6 DUP4 DUP2 MLOAD DUP2 LT PUSH2 0x1EAB JUMPI PUSH2 0x1EAA PUSH2 0x43DF JUMP JUMPDEST JUMPDEST PUSH1 0x20 MUL PUSH1 0x20 ADD ADD DUP2 DUP2 MSTORE POP POP DUP7 DUP2 DUP2 SLOAD DUP2 LT PUSH2 0x1ECA JUMPI PUSH2 0x1EC9 PUSH2 0x43DF JUMP JUMPDEST JUMPDEST SWAP1 PUSH1 0x0 MSTORE PUSH1 0x20 PUSH1 0x0 KECCAK256 SWAP1 PUSH1 0x7 MUL ADD PUSH1 0x2 ADD SLOAD DUP5 DUP4 DUP2 MLOAD DUP2 LT PUSH2 0x1EEF JUMPI PUSH2 0x1EEE PUSH2 0x43DF JUMP JUMPDEST JUMPDEST PUSH1 0x20 MUL PUSH1 0x20 ADD ADD DUP2 DUP2 MSTORE POP POP DUP7 DUP2 DUP2 SLOAD DUP2 LT PUSH2 0x1F0E JUMPI PUSH2 0x1F0D PUSH2 0x43DF JUMP JUMPDEST JUMPDEST SWAP1 PUSH1 0x0 MSTORE PUSH1 0x20 PUSH1 0x0 KECCAK256 SWAP1 PUSH1 0x7 MUL ADD PUSH1 0x3 ADD SLOAD DUP4 DUP4 DUP2 MLOAD DUP2 LT PUSH2 0x1F33 JUMPI PUSH2 0x1F32 PUSH2 0x43DF JUMP JUMPDEST JUMPDEST PUSH1 0x20 MUL PUSH1 0x20 ADD ADD DUP2 DUP2 MSTORE POP POP DUP2 DUP1 PUSH2 0x1F4A SWAP1 PUSH2 0x4309 JUMP JUMPDEST SWAP3 POP POP JUMPDEST DUP1 DUP1 PUSH2 0x1F59 SWAP1 PUSH2 0x4309 JUMP JUMPDEST SWAP2 POP POP PUSH2 0x1DEC JUMP JUMPDEST POP PUSH1 0x0 DUP6 MLOAD GT PUSH2 0x1FA6 JUMPI PUSH1 0x40 MLOAD PUSH32 0x8C379A000000000000000000000000000000000000000000000000000000000 DUP2 MSTORE PUSH1 0x4 ADD PUSH2 0x1F9D SWAP1 PUSH2 0x3D26 JUMP JUMPDEST PUSH1 0x40 MLOAD DUP1 SWAP2 SUB SWAP1 REVERT JUMPDEST DUP5 DUP5 DUP5 DUP5 SWAP10 POP SWAP10 POP SWAP10 POP SWAP10 POP POP POP POP POP POP POP SWAP2 SWAP4 POP SWAP2 SWAP4 JUMP JUMPDEST PUSH1 0x2 PUSH1 0x0 SWAP1 SLOAD SWAP1 PUSH2 0x100 EXP SWAP1 DIV PUSH20 0xFFFFFFFFFFFFFFFFFFFFFFFFFFFFFFFFFFFFFFFF AND PUSH20 0xFFFFFFFFFFFFFFFFFFFFFFFFFFFFFFFFFFFFFFFF AND CALLER PUSH20 0xFFFFFFFFFFFFFFFFFFFFFFFFFFFFFFFFFFFFFFFF AND EQ PUSH1 0x40 MLOAD DUP1 PUSH1 0x60 ADD PUSH1 0x40 MSTORE DUP1 PUSH1 0x33 DUP2 MSTORE PUSH1 0x20 ADD PUSH2 0x49FF PUSH1 0x33 SWAP2 CODECOPY SWAP1 PUSH2 0x206A JUMPI PUSH1 0x40 MLOAD PUSH32 0x8C379A000000000000000000000000000000000000000000000000000000000 DUP2 MSTORE PUSH1 0x4 ADD PUSH2 0x2061 SWAP2 SWAP1 PUSH2 0x3CE4 JUMP JUMPDEST PUSH1 0x40 MLOAD DUP1 SWAP2 SUB SWAP1 REVERT JUMPDEST POP PUSH1 0x0 PUSH1 0x1 DUP1 SLOAD SWAP1 POP GT PUSH2 0x20B3 JUMPI PUSH1 0x40 MLOAD PUSH32 0x8C379A000000000000000000000000000000000000000000000000000000000 DUP2 MSTORE PUSH1 0x4 ADD PUSH2 0x20AA SWAP1 PUSH2 0x3F06 JUMP JUMPDEST PUSH1 0x40 MLOAD DUP1 SWAP2 SUB SWAP1 REVERT JUMPDEST PUSH1 0x0 DUP1 JUMPDEST PUSH1 0x1 DUP1 SLOAD SWAP1 POP DUP2 LT ISZERO PUSH2 0x21C3 JUMPI DUP5 PUSH1 0x1 DUP3 DUP2 SLOAD DUP2 LT PUSH2 0x20D9 JUMPI PUSH2 0x20D8 PUSH2 0x43DF JUMP JUMPDEST JUMPDEST SWAP1 PUSH1 0x0 MSTORE PUSH1 0x20 PUSH1 0x0 KECCAK256 SWAP1 PUSH1 0x5 MUL ADD PUSH1 0x0 ADD SLOAD EQ ISZERO PUSH2 0x21B0 JUMPI DUP4 PUSH1 0x1 DUP3 DUP2 SLOAD DUP2 LT PUSH2 0x2106 JUMPI PUSH2 0x2105 PUSH2 0x43DF JUMP JUMPDEST JUMPDEST SWAP1 PUSH1 0x0 MSTORE PUSH1 0x20 PUSH1 0x0 KECCAK256 SWAP1 PUSH1 0x5 MUL ADD PUSH1 0x1 ADD PUSH1 0x0 PUSH2 0x100 EXP DUP2 SLOAD DUP2 PUSH1 0xFF MUL NOT AND SWAP1 DUP4 ISZERO ISZERO MUL OR SWAP1 SSTORE POP PUSH1 0x1 ISZERO ISZERO DUP5 ISZERO ISZERO EQ ISZERO PUSH2 0x216C JUMPI PUSH1 0x1 PUSH1 0x4 PUSH1 0x0 DUP8 DUP2 MSTORE PUSH1 0x20 ADD SWAP1 DUP2 MSTORE PUSH1 0x20 ADD PUSH1 0x0 KECCAK256 PUSH1 0x0 PUSH2 0x100 EXP DUP2 SLOAD DUP2 PUSH1 0xFF MUL NOT AND SWAP1 DUP4 ISZERO ISZERO MUL OR SWAP1 SSTORE POP PUSH2 0x21A7 JUMP JUMPDEST DUP3 PUSH1 0x1 DUP3 DUP2 SLOAD DUP2 LT PUSH2 0x2181 JUMPI PUSH2 0x2180 PUSH2 0x43DF JUMP JUMPDEST JUMPDEST SWAP1 PUSH1 0x0 MSTORE PUSH1 0x20 PUSH1 0x0 KECCAK256 SWAP1 PUSH1 0x5 MUL ADD PUSH1 0x2 ADD SWAP1 DUP1 MLOAD SWAP1 PUSH1 0x20 ADD SWAP1 PUSH2 0x21A5 SWAP3 SWAP2 SWAP1 PUSH2 0x3433 JUMP JUMPDEST POP JUMPDEST PUSH1 0x1 SWAP2 POP PUSH2 0x21C3 JUMP JUMPDEST DUP1 DUP1 PUSH2 0x21BB SWAP1 PUSH2 0x4309 JUMP JUMPDEST SWAP2 POP POP PUSH2 0x20B7 JUMP JUMPDEST POP DUP1 PUSH2 0x2204 JUMPI PUSH1 0x40 MLOAD PUSH32 0x8C379A000000000000000000000000000000000000000000000000000000000 DUP2 MSTORE PUSH1 0x4 ADD PUSH2 0x21FB SWAP1 PUSH2 0x3DA6 JUMP JUMPDEST PUSH1 0x40 MLOAD DUP1 SWAP2 SUB SWAP1 REVERT JUMPDEST POP POP POP POP JUMP JUMPDEST PUSH1 0x2 PUSH1 0x0 SWAP1 SLOAD SWAP1 PUSH2 0x100 EXP SWAP1 DIV PUSH20 0xFFFFFFFFFFFFFFFFFFFFFFFFFFFFFFFFFFFFFFFF AND DUP2 JUMP JUMPDEST PUSH1 0x2 PUSH1 0x0 SWAP1 SLOAD SWAP1 PUSH2 0x100 EXP SWAP1 DIV PUSH20 0xFFFFFFFFFFFFFFFFFFFFFFFFFFFFFFFFFFFFFFFF AND PUSH20 0xFFFFFFFFFFFFFFFFFFFFFFFFFFFFFFFFFFFFFFFF AND CALLER PUSH20 0xFFFFFFFFFFFFFFFFFFFFFFFFFFFFFFFFFFFFFFFF AND EQ ISZERO PUSH1 0x40 MLOAD DUP1 PUSH1 0x60 ADD PUSH1 0x40 MSTORE DUP1 PUSH1 0x2F DUP2 MSTORE PUSH1 0x20 ADD PUSH2 0x4A63 PUSH1 0x2F SWAP2 CODECOPY SWAP1 PUSH2 0x22DC JUMPI PUSH1 0x40 MLOAD PUSH32 0x8C379A000000000000000000000000000000000000000000000000000000000 DUP2 MSTORE PUSH1 0x4 ADD PUSH2 0x22D3 SWAP2 SWAP1 PUSH2 0x3CE4 JUMP JUMPDEST PUSH1 0x40 MLOAD DUP1 SWAP2 SUB SWAP1 REVERT JUMPDEST POP PUSH1 0x0 PUSH1 0x1 DUP1 SLOAD SWAP1 POP GT PUSH2 0x2325 JUMPI PUSH1 0x40 MLOAD PUSH32 0x8C379A000000000000000000000000000000000000000000000000000000000 DUP2 MSTORE PUSH1 0x4 ADD PUSH2 0x231C SWAP1 PUSH2 0x3F06 JUMP JUMPDEST PUSH1 0x40 MLOAD DUP1 SWAP2 SUB SWAP1 REVERT JUMPDEST PUSH1 0x4 PUSH1 0x0 DUP8 DUP2 MSTORE PUSH1 0x20 ADD SWAP1 DUP2 MSTORE PUSH1 0x20 ADD PUSH1 0x0 KECCAK256 PUSH1 0x0 SWAP1 SLOAD SWAP1 PUSH2 0x100 EXP SWAP1 DIV PUSH1 0xFF AND PUSH2 0x2385 JUMPI PUSH1 0x40 MLOAD PUSH32 0x8C379A000000000000000000000000000000000000000000000000000000000 DUP2 MSTORE PUSH1 0x4 ADD PUSH2 0x237C SWAP1 PUSH2 0x3EE6 JUMP JUMPDEST PUSH1 0x40 MLOAD DUP1 SWAP2 SUB SWAP1 REVERT JUMPDEST PUSH1 0x0 PUSH1 0x40 MLOAD DUP1 PUSH2 0x100 ADD PUSH1 0x40 MSTORE DUP1 DUP8 DUP2 MSTORE PUSH1 0x20 ADD DUP7 DUP2 MSTORE PUSH1 0x20 ADD DUP6 DUP2 MSTORE PUSH1 0x20 ADD PUSH1 0x0 DUP2 MSTORE PUSH1 0x20 ADD DUP5 PUSH20 0xFFFFFFFFFFFFFFFFFFFFFFFFFFFFFFFFFFFFFFFF AND DUP2 MSTORE PUSH1 0x20 ADD PUSH1 0x1 ISZERO ISZERO DUP2 MSTORE PUSH1 0x20 ADD DUP4 DUP2 MSTORE PUSH1 0x20 ADD PUSH1 0x2 PUSH1 0x9 DUP2 GT ISZERO PUSH2 0x23EB JUMPI PUSH2 0x23EA PUSH2 0x4381 JUMP JUMPDEST JUMPDEST DUP2 MSTORE POP SWAP1 POP PUSH1 0x0 DUP2 SWAP1 DUP1 PUSH1 0x1 DUP2 SLOAD ADD DUP1 DUP3 SSTORE DUP1 SWAP2 POP POP PUSH1 0x1 SWAP1 SUB SWAP1 PUSH1 0x0 MSTORE PUSH1 0x20 PUSH1 0x0 KECCAK256 SWAP1 PUSH1 0x7 MUL ADD PUSH1 0x0 SWAP1 SWAP2 SWAP1 SWAP2 SWAP1 SWAP2 POP PUSH1 0x0 DUP3 ADD MLOAD DUP2 PUSH1 0x0 ADD SSTORE PUSH1 0x20 DUP3 ADD MLOAD DUP2 PUSH1 0x1 ADD SSTORE PUSH1 0x40 DUP3 ADD MLOAD DUP2 PUSH1 0x2 ADD SSTORE PUSH1 0x60 DUP3 ADD MLOAD DUP2 PUSH1 0x3 ADD SSTORE PUSH1 0x80 DUP3 ADD MLOAD DUP2 PUSH1 0x4 ADD PUSH1 0x0 PUSH2 0x100 EXP DUP2 SLOAD DUP2 PUSH20 0xFFFFFFFFFFFFFFFFFFFFFFFFFFFFFFFFFFFFFFFF MUL NOT AND SWAP1 DUP4 PUSH20 0xFFFFFFFFFFFFFFFFFFFFFFFFFFFFFFFFFFFFFFFF AND MUL OR SWAP1 SSTORE POP PUSH1 0xA0 DUP3 ADD MLOAD DUP2 PUSH1 0x4 ADD PUSH1 0x14 PUSH2 0x100 EXP DUP2 SLOAD DUP2 PUSH1 0xFF MUL NOT AND SWAP1 DUP4 ISZERO ISZERO MUL OR SWAP1 SSTORE POP PUSH1 0xC0 DUP3 ADD MLOAD DUP2 PUSH1 0x5 ADD SWAP1 DUP1 MLOAD SWAP1 PUSH1 0x20 ADD SWAP1 PUSH2 0x24C7 SWAP3 SWAP2 SWAP1 PUSH2 0x3433 JUMP JUMPDEST POP PUSH1 0xE0 DUP3 ADD MLOAD DUP2 PUSH1 0x6 ADD PUSH1 0x0 PUSH2 0x100 EXP DUP2 SLOAD DUP2 PUSH1 0xFF MUL NOT AND SWAP1 DUP4 PUSH1 0x9 DUP2 GT ISZERO PUSH2 0x24F3 JUMPI PUSH2 0x24F2 PUSH2 0x4381 JUMP JUMPDEST JUMPDEST MUL OR SWAP1 SSTORE POP POP POP PUSH1 0x3 PUSH1 0x0 DUP9 DUP2 MSTORE PUSH1 0x20 ADD SWAP1 DUP2 MSTORE PUSH1 0x20 ADD PUSH1 0x0 KECCAK256 DUP2 SWAP1 DUP1 PUSH1 0x1 DUP2 SLOAD ADD DUP1 DUP3 SSTORE DUP1 SWAP2 POP POP PUSH1 0x1 SWAP1 SUB SWAP1 PUSH1 0x0 MSTORE PUSH1 0x20 PUSH1 0x0 KECCAK256 SWAP1 PUSH1 0x7 MUL ADD PUSH1 0x0 SWAP1 SWAP2 SWAP1 SWAP2 SWAP1 SWAP2 POP PUSH1 0x0 DUP3 ADD MLOAD DUP2 PUSH1 0x0 ADD SSTORE PUSH1 0x20 DUP3 ADD MLOAD DUP2 PUSH1 0x1 ADD SSTORE PUSH1 0x40 DUP3 ADD MLOAD DUP2 PUSH1 0x2 ADD SSTORE PUSH1 0x60 DUP3 ADD MLOAD DUP2 PUSH1 0x3 ADD SSTORE PUSH1 0x80 DUP3 ADD MLOAD DUP2 PUSH1 0x4 ADD PUSH1 0x0 PUSH2 0x100 EXP DUP2 SLOAD DUP2 PUSH20 0xFFFFFFFFFFFFFFFFFFFFFFFFFFFFFFFFFFFFFFFF MUL NOT AND SWAP1 DUP4 PUSH20 0xFFFFFFFFFFFFFFFFFFFFFFFFFFFFFFFFFFFFFFFF AND MUL OR SWAP1 SSTORE POP PUSH1 0xA0 DUP3 ADD MLOAD DUP2 PUSH1 0x4 ADD PUSH1 0x14 PUSH2 0x100 EXP DUP2 SLOAD DUP2 PUSH1 0xFF MUL NOT AND SWAP1 DUP4 ISZERO ISZERO MUL OR SWAP1 SSTORE POP PUSH1 0xC0 DUP3 ADD MLOAD DUP2 PUSH1 0x5 ADD SWAP1 DUP1 MLOAD SWAP1 PUSH1 0x20 ADD SWAP1 PUSH2 0x25E2 SWAP3 SWAP2 SWAP1 PUSH2 0x3433 JUMP JUMPDEST POP PUSH1 0xE0 DUP3 ADD MLOAD DUP2 PUSH1 0x6 ADD PUSH1 0x0 PUSH2 0x100 EXP DUP2 SLOAD DUP2 PUSH1 0xFF MUL NOT AND SWAP1 DUP4 PUSH1 0x9 DUP2 GT ISZERO PUSH2 0x260E JUMPI PUSH2 0x260D PUSH2 0x4381 JUMP JUMPDEST JUMPDEST MUL OR SWAP1 SSTORE POP POP POP POP POP POP POP POP POP POP JUMP JUMPDEST PUSH1 0x0 DUP1 PUSH1 0x0 DUP1 SLOAD SWAP1 POP GT PUSH2 0x2667 JUMPI PUSH1 0x40 MLOAD PUSH32 0x8C379A000000000000000000000000000000000000000000000000000000000 DUP2 MSTORE PUSH1 0x4 ADD PUSH2 0x265E SWAP1 PUSH2 0x3E26 JUMP JUMPDEST PUSH1 0x40 MLOAD DUP1 SWAP2 SUB SWAP1 REVERT JUMPDEST PUSH1 0x0 PUSH1 0x3 PUSH1 0x0 DUP7 DUP2 MSTORE PUSH1 0x20 ADD SWAP1 DUP2 MSTORE PUSH1 0x20 ADD PUSH1 0x0 KECCAK256 SWAP1 POP PUSH1 0x0 DUP2 DUP1 SLOAD SWAP1 POP GT PUSH2 0x26C5 JUMPI PUSH1 0x40 MLOAD PUSH32 0x8C379A000000000000000000000000000000000000000000000000000000000 DUP2 MSTORE PUSH1 0x4 ADD PUSH2 0x26BC SWAP1 PUSH2 0x3D06 JUMP JUMPDEST PUSH1 0x40 MLOAD DUP1 SWAP2 SUB SWAP1 REVERT JUMPDEST PUSH1 0x0 JUMPDEST DUP2 DUP1 SLOAD SWAP1 POP DUP2 LT ISZERO PUSH2 0x27E2 JUMPI DUP5 DUP3 DUP3 DUP2 SLOAD DUP2 LT PUSH2 0x26E8 JUMPI PUSH2 0x26E7 PUSH2 0x43DF JUMP JUMPDEST JUMPDEST SWAP1 PUSH1 0x0 MSTORE PUSH1 0x20 PUSH1 0x0 KECCAK256 SWAP1 PUSH1 0x7 MUL ADD PUSH1 0x0 ADD SLOAD EQ ISZERO PUSH2 0x27CF JUMPI PUSH1 0x0 PUSH1 0x5 PUSH1 0x0 DUP8 DUP2 MSTORE PUSH1 0x20 ADD SWAP1 DUP2 MSTORE PUSH1 0x20 ADD PUSH1 0x0 KECCAK256 SWAP1 POP PUSH1 0x0 JUMPDEST DUP2 DUP1 SLOAD SWAP1 POP DUP2 LT ISZERO PUSH2 0x27CC JUMPI DUP6 DUP3 DUP3 DUP2 SLOAD DUP2 LT PUSH2 0x273A JUMPI PUSH2 0x2739 PUSH2 0x43DF JUMP JUMPDEST JUMPDEST SWAP1 PUSH1 0x0 MSTORE PUSH1 0x20 PUSH1 0x0 KECCAK256 SWAP1 PUSH1 0x3 MUL ADD PUSH1 0x0 ADD SLOAD EQ ISZERO PUSH2 0x27B9 JUMPI DUP2 DUP2 DUP2 SLOAD DUP2 LT PUSH2 0x2765 JUMPI PUSH2 0x2764 PUSH2 0x43DF JUMP JUMPDEST JUMPDEST SWAP1 PUSH1 0x0 MSTORE PUSH1 0x20 PUSH1 0x0 KECCAK256 SWAP1 PUSH1 0x3 MUL ADD PUSH1 0x1 ADD PUSH1 0x0 SWAP1 SLOAD SWAP1 PUSH2 0x100 EXP SWAP1 DIV PUSH20 0xFFFFFFFFFFFFFFFFFFFFFFFFFFFFFFFFFFFFFFFF AND PUSH20 0xFFFFFFFFFFFFFFFFFFFFFFFFFFFFFFFFFFFFFFFF AND BALANCE SWAP5 POP POP POP POP POP PUSH2 0x281E JUMP JUMPDEST DUP1 DUP1 PUSH2 0x27C4 SWAP1 PUSH2 0x4309 JUMP JUMPDEST SWAP2 POP POP PUSH2 0x271A JUMP JUMPDEST POP POP JUMPDEST DUP1 DUP1 PUSH2 0x27DA SWAP1 PUSH2 0x4309 JUMP JUMPDEST SWAP2 POP POP PUSH2 0x26C8 JUMP JUMPDEST POP PUSH1 0x40 MLOAD PUSH32 0x8C379A000000000000000000000000000000000000000000000000000000000 DUP2 MSTORE PUSH1 0x4 ADD PUSH2 0x2815 SWAP1 PUSH2 0x3D46 JUMP JUMPDEST PUSH1 0x40 MLOAD DUP1 SWAP2 SUB SWAP1 REVERT JUMPDEST SWAP4 SWAP3 POP POP POP JUMP JUMPDEST PUSH1 0x0 DUP1 PUSH1 0x3 PUSH1 0x0 DUP8 DUP2 MSTORE PUSH1 0x20 ADD SWAP1 DUP2 MSTORE PUSH1 0x20 ADD PUSH1 0x0 KECCAK256 SWAP1 POP PUSH1 0x0 DUP2 DUP1 SLOAD SWAP1 POP GT PUSH2 0x2884 JUMPI PUSH1 0x40 MLOAD PUSH32 0x8C379A000000000000000000000000000000000000000000000000000000000 DUP2 MSTORE PUSH1 0x4 ADD PUSH2 0x287B SWAP1 PUSH2 0x3D06 JUMP JUMPDEST PUSH1 0x40 MLOAD DUP1 SWAP2 SUB SWAP1 REVERT JUMPDEST PUSH1 0x0 JUMPDEST DUP2 DUP1 SLOAD SWAP1 POP DUP2 LT ISZERO PUSH2 0x2D85 JUMPI DUP6 DUP3 DUP3 DUP2 SLOAD DUP2 LT PUSH2 0x28A7 JUMPI PUSH2 0x28A6 PUSH2 0x43DF JUMP JUMPDEST JUMPDEST SWAP1 PUSH1 0x0 MSTORE PUSH1 0x20 PUSH1 0x0 KECCAK256 SWAP1 PUSH1 0x7 MUL ADD PUSH1 0x0 ADD SLOAD EQ ISZERO PUSH2 0x2D72 JUMPI DUP2 DUP2 DUP2 SLOAD DUP2 LT PUSH2 0x28D2 JUMPI PUSH2 0x28D1 PUSH2 0x43DF JUMP JUMPDEST JUMPDEST SWAP1 PUSH1 0x0 MSTORE PUSH1 0x20 PUSH1 0x0 KECCAK256 SWAP1 PUSH1 0x7 MUL ADD PUSH1 0x4 ADD PUSH1 0x14 SWAP1 SLOAD SWAP1 PUSH2 0x100 EXP SWAP1 DIV PUSH1 0xFF AND ISZERO PUSH2 0x2D2E JUMPI DUP2 DUP2 DUP2 SLOAD DUP2 LT PUSH2 0x2909 JUMPI PUSH2 0x2908 PUSH2 0x43DF JUMP JUMPDEST JUMPDEST SWAP1 PUSH1 0x0 MSTORE PUSH1 0x20 PUSH1 0x0 KECCAK256 SWAP1 PUSH1 0x7 MUL ADD PUSH1 0x1 ADD SLOAD DUP5 LT ISZERO PUSH2 0x295D JUMPI PUSH1 0x40 MLOAD PUSH32 0x8C379A000000000000000000000000000000000000000000000000000000000 DUP2 MSTORE PUSH1 0x4 ADD PUSH2 0x2954 SWAP1 PUSH2 0x3DE6 JUMP JUMPDEST PUSH1 0x40 MLOAD DUP1 SWAP2 SUB SWAP1 REVERT JUMPDEST DUP2 DUP2 DUP2 SLOAD DUP2 LT PUSH2 0x2970 JUMPI PUSH2 0x296F PUSH2 0x43DF JUMP JUMPDEST JUMPDEST SWAP1 PUSH1 0x0 MSTORE PUSH1 0x20 PUSH1 0x0 KECCAK256 SWAP1 PUSH1 0x7 MUL ADD PUSH1 0x2 ADD SLOAD DUP3 DUP3 DUP2 SLOAD DUP2 LT PUSH2 0x2995 JUMPI PUSH2 0x2994 PUSH2 0x43DF JUMP JUMPDEST JUMPDEST SWAP1 PUSH1 0x0 MSTORE PUSH1 0x20 PUSH1 0x0 KECCAK256 SWAP1 PUSH1 0x7 MUL ADD PUSH1 0x3 ADD SLOAD DUP6 PUSH2 0x29B2 SWAP2 SWAP1 PUSH2 0x4160 JUMP JUMPDEST GT ISZERO PUSH2 0x29F3 JUMPI PUSH1 0x40 MLOAD PUSH32 0x8C379A000000000000000000000000000000000000000000000000000000000 DUP2 MSTORE PUSH1 0x4 ADD PUSH2 0x29EA SWAP1 PUSH2 0x3D66 JUMP JUMPDEST PUSH1 0x40 MLOAD DUP1 SWAP2 SUB SWAP1 REVERT JUMPDEST DUP4 DUP3 DUP3 DUP2 SLOAD DUP2 LT PUSH2 0x2A07 JUMPI PUSH2 0x2A06 PUSH2 0x43DF JUMP JUMPDEST JUMPDEST SWAP1 PUSH1 0x0 MSTORE PUSH1 0x20 PUSH1 0x0 KECCAK256 SWAP1 PUSH1 0x7 MUL ADD PUSH1 0x3 ADD SLOAD PUSH2 0x2A23 SWAP2 SWAP1 PUSH2 0x4160 JUMP JUMPDEST DUP3 DUP3 DUP2 SLOAD DUP2 LT PUSH2 0x2A36 JUMPI PUSH2 0x2A35 PUSH2 0x43DF JUMP JUMPDEST JUMPDEST SWAP1 PUSH1 0x0 MSTORE PUSH1 0x20 PUSH1 0x0 KECCAK256 SWAP1 PUSH1 0x7 MUL ADD PUSH1 0x3 ADD DUP2 SWAP1 SSTORE POP PUSH1 0x0 PUSH1 0x5 PUSH1 0x0 DUP9 DUP2 MSTORE PUSH1 0x20 ADD SWAP1 DUP2 MSTORE PUSH1 0x20 ADD PUSH1 0x0 KECCAK256 SWAP1 POP PUSH1 0x0 DUP2 DUP1 SLOAD SWAP1 POP SWAP1 POP PUSH1 0x0 DUP1 PUSH1 0x0 SWAP1 POP JUMPDEST DUP4 DUP1 SLOAD SWAP1 POP DUP2 LT ISZERO PUSH2 0x2B5F JUMPI CALLER PUSH20 0xFFFFFFFFFFFFFFFFFFFFFFFFFFFFFFFFFFFFFFFF AND DUP5 DUP3 DUP2 SLOAD DUP2 LT PUSH2 0x2AA9 JUMPI PUSH2 0x2AA8 PUSH2 0x43DF JUMP JUMPDEST JUMPDEST SWAP1 PUSH1 0x0 MSTORE PUSH1 0x20 PUSH1 0x0 KECCAK256 SWAP1 PUSH1 0x3 MUL ADD PUSH1 0x1 ADD PUSH1 0x0 SWAP1 SLOAD SWAP1 PUSH2 0x100 EXP SWAP1 DIV PUSH20 0xFFFFFFFFFFFFFFFFFFFFFFFFFFFFFFFFFFFFFFFF AND PUSH20 0xFFFFFFFFFFFFFFFFFFFFFFFFFFFFFFFFFFFFFFFF AND EQ ISZERO PUSH2 0x2B4C JUMPI DUP8 DUP5 DUP3 DUP2 SLOAD DUP2 LT PUSH2 0x2B0B JUMPI PUSH2 0x2B0A PUSH2 0x43DF JUMP JUMPDEST JUMPDEST SWAP1 PUSH1 0x0 MSTORE PUSH1 0x20 PUSH1 0x0 KECCAK256 SWAP1 PUSH1 0x3 MUL ADD PUSH1 0x2 ADD PUSH1 0x0 DUP13 DUP2 MSTORE PUSH1 0x20 ADD SWAP1 DUP2 MSTORE PUSH1 0x20 ADD PUSH1 0x0 KECCAK256 PUSH1 0x0 DUP3 DUP3 SLOAD PUSH2 0x2B3C SWAP2 SWAP1 PUSH2 0x4160 JUMP JUMPDEST SWAP3 POP POP DUP2 SWAP1 SSTORE POP PUSH1 0x1 SWAP2 POP PUSH2 0x2B5F JUMP JUMPDEST DUP1 DUP1 PUSH2 0x2B57 SWAP1 PUSH2 0x4309 JUMP JUMPDEST SWAP2 POP POP PUSH2 0x2A73 JUMP JUMPDEST POP DUP1 PUSH2 0x2C0F JUMPI DUP3 PUSH1 0x1 DUP2 PUSH1 0x1 DUP2 SLOAD ADD DUP1 DUP3 SSTORE DUP1 SWAP2 POP POP SUB SWAP1 PUSH1 0x0 MSTORE PUSH1 0x20 PUSH1 0x0 KECCAK256 SWAP1 POP POP PUSH1 0x0 DUP4 DUP4 DUP2 SLOAD DUP2 LT PUSH2 0x2B97 JUMPI PUSH2 0x2B96 PUSH2 0x43DF JUMP JUMPDEST JUMPDEST SWAP1 PUSH1 0x0 MSTORE PUSH1 0x20 PUSH1 0x0 KECCAK256 SWAP1 PUSH1 0x3 MUL ADD SWAP1 POP DUP9 DUP2 PUSH1 0x0 ADD DUP2 SWAP1 SSTORE POP CALLER DUP2 PUSH1 0x1 ADD PUSH1 0x0 PUSH2 0x100 EXP DUP2 SLOAD DUP2 PUSH20 0xFFFFFFFFFFFFFFFFFFFFFFFFFFFFFFFFFFFFFFFF MUL NOT AND SWAP1 DUP4 PUSH20 0xFFFFFFFFFFFFFFFFFFFFFFFFFFFFFFFFFFFFFFFF AND MUL OR SWAP1 SSTORE POP DUP8 DUP2 PUSH1 0x2 ADD PUSH1 0x0 DUP13 DUP2 MSTORE PUSH1 0x20 ADD SWAP1 DUP2 MSTORE PUSH1 0x20 ADD PUSH1 0x0 KECCAK256 DUP2 SWAP1 SSTORE POP POP JUMPDEST DUP5 DUP5 DUP2 SLOAD DUP2 LT PUSH2 0x2C22 JUMPI PUSH2 0x2C21 PUSH2 0x43DF JUMP JUMPDEST JUMPDEST SWAP1 PUSH1 0x0 MSTORE PUSH1 0x20 PUSH1 0x0 KECCAK256 SWAP1 PUSH1 0x7 MUL ADD PUSH1 0x2 ADD SLOAD DUP6 DUP6 DUP2 SLOAD DUP2 LT PUSH2 0x2C47 JUMPI PUSH2 0x2C46 PUSH2 0x43DF JUMP JUMPDEST JUMPDEST SWAP1 PUSH1 0x0 MSTORE PUSH1 0x20 PUSH1 0x0 KECCAK256 SWAP1 PUSH1 0x7 MUL ADD PUSH1 0x3 ADD SLOAD EQ ISZERO PUSH2 0x2D26 JUMPI PUSH1 0x3 DUP6 DUP6 DUP2 SLOAD DUP2 LT PUSH2 0x2C74 JUMPI PUSH2 0x2C73 PUSH2 0x43DF JUMP JUMPDEST JUMPDEST SWAP1 PUSH1 0x0 MSTORE PUSH1 0x20 PUSH1 0x0 KECCAK256 SWAP1 PUSH1 0x7 MUL ADD PUSH1 0x6 ADD PUSH1 0x0 PUSH2 0x100 EXP DUP2 SLOAD DUP2 PUSH1 0xFF MUL NOT AND SWAP1 DUP4 PUSH1 0x9 DUP2 GT ISZERO PUSH2 0x2CA7 JUMPI PUSH2 0x2CA6 PUSH2 0x4381 JUMP JUMPDEST JUMPDEST MUL OR SWAP1 SSTORE POP PUSH1 0x0 DUP6 DUP6 DUP2 SLOAD DUP2 LT PUSH2 0x2CC1 JUMPI PUSH2 0x2CC0 PUSH2 0x43DF JUMP JUMPDEST JUMPDEST SWAP1 PUSH1 0x0 MSTORE PUSH1 0x20 PUSH1 0x0 KECCAK256 SWAP1 PUSH1 0x7 MUL ADD PUSH1 0x4 ADD PUSH1 0x14 PUSH2 0x100 EXP DUP2 SLOAD DUP2 PUSH1 0xFF MUL NOT AND SWAP1 DUP4 ISZERO ISZERO MUL OR SWAP1 SSTORE POP PUSH32 0x4460A3075D16E0C301975989C352ADF5EFEF3F00E4B1CD798431DDDDA7179E58 DUP11 DUP11 PUSH1 0x3 PUSH1 0x40 MLOAD PUSH2 0x2D1D SWAP4 SWAP3 SWAP2 SWAP1 PUSH2 0x3FC2 JUMP JUMPDEST PUSH1 0x40 MLOAD DUP1 SWAP2 SUB SWAP1 LOG1 JUMPDEST POP POP POP PUSH2 0x2D69 JUMP JUMPDEST PUSH1 0x40 MLOAD PUSH32 0x8C379A000000000000000000000000000000000000000000000000000000000 DUP2 MSTORE PUSH1 0x4 ADD PUSH2 0x2D60 SWAP1 PUSH2 0x3F26 JUMP JUMPDEST PUSH1 0x40 MLOAD DUP1 SWAP2 SUB SWAP1 REVERT JUMPDEST PUSH1 0x1 SWAP3 POP PUSH2 0x2D85 JUMP JUMPDEST DUP1 DUP1 PUSH2 0x2D7D SWAP1 PUSH2 0x4309 JUMP JUMPDEST SWAP2 POP POP PUSH2 0x2887 JUMP JUMPDEST POP DUP2 PUSH2 0x2DC6 JUMPI PUSH1 0x40 MLOAD PUSH32 0x8C379A000000000000000000000000000000000000000000000000000000000 DUP2 MSTORE PUSH1 0x4 ADD PUSH2 0x2DBD SWAP1 PUSH2 0x3EC6 JUMP JUMPDEST PUSH1 0x40 MLOAD DUP1 SWAP2 SUB SWAP1 REVERT JUMPDEST POP POP POP POP POP POP JUMP JUMPDEST PUSH1 0x7 PUSH1 0x20 MSTORE DUP1 PUSH1 0x0 MSTORE PUSH1 0x40 PUSH1 0x0 KECCAK256 PUSH1 0x0 SWAP2 POP SWAP1 POP DUP1 SLOAD PUSH2 0x2DED SWAP1 PUSH2 0x42A6 JUMP JUMPDEST DUP1 PUSH1 0x1F ADD PUSH1 0x20 DUP1 SWAP2 DIV MUL PUSH1 0x20 ADD PUSH1 0x40 MLOAD SWAP1 DUP2 ADD PUSH1 0x40 MSTORE DUP1 SWAP3 SWAP2 SWAP1 DUP2 DUP2 MSTORE PUSH1 0x20 ADD DUP3 DUP1 SLOAD PUSH2 0x2E19 SWAP1 PUSH2 0x42A6 JUMP JUMPDEST DUP1 ISZERO PUSH2 0x2E66 JUMPI DUP1 PUSH1 0x1F LT PUSH2 0x2E3B JUMPI PUSH2 0x100 DUP1 DUP4 SLOAD DIV MUL DUP4 MSTORE SWAP2 PUSH1 0x20 ADD SWAP2 PUSH2 0x2E66 JUMP JUMPDEST DUP3 ADD SWAP2 SWAP1 PUSH1 0x0 MSTORE PUSH1 0x20 PUSH1 0x0 KECCAK256 SWAP1 JUMPDEST DUP2 SLOAD DUP2 MSTORE SWAP1 PUSH1 0x1 ADD SWAP1 PUSH1 0x20 ADD DUP1 DUP4 GT PUSH2 0x2E49 JUMPI DUP3 SWAP1 SUB PUSH1 0x1F AND DUP3 ADD SWAP2 JUMPDEST POP POP POP POP POP DUP2 JUMP JUMPDEST PUSH1 0x1 DUP2 DUP2 SLOAD DUP2 LT PUSH2 0x2E7E JUMPI PUSH1 0x0 DUP1 REVERT JUMPDEST SWAP1 PUSH1 0x0 MSTORE PUSH1 0x20 PUSH1 0x0 KECCAK256 SWAP1 PUSH1 0x5 MUL ADD PUSH1 0x0 SWAP2 POP SWAP1 POP DUP1 PUSH1 0x0 ADD SLOAD SWAP1 DUP1 PUSH1 0x1 ADD PUSH1 0x0 SWAP1 SLOAD SWAP1 PUSH2 0x100 EXP SWAP1 DIV PUSH1 0xFF AND SWAP1 DUP1 PUSH1 0x2 ADD DUP1 SLOAD PUSH2 0x2EBA SWAP1 PUSH2 0x42A6 JUMP JUMPDEST DUP1 PUSH1 0x1F ADD PUSH1 0x20 DUP1 SWAP2 DIV MUL PUSH1 0x20 ADD PUSH1 0x40 MLOAD SWAP1 DUP2 ADD PUSH1 0x40 MSTORE DUP1 SWAP3 SWAP2 SWAP1 DUP2 DUP2 MSTORE PUSH1 0x20 ADD DUP3 DUP1 SLOAD PUSH2 0x2EE6 SWAP1 PUSH2 0x42A6 JUMP JUMPDEST DUP1 ISZERO PUSH2 0x2F33 JUMPI DUP1 PUSH1 0x1F LT PUSH2 0x2F08 JUMPI PUSH2 0x100 DUP1 DUP4 SLOAD DIV MUL DUP4 MSTORE SWAP2 PUSH1 0x20 ADD SWAP2 PUSH2 0x2F33 JUMP JUMPDEST DUP3 ADD SWAP2 SWAP1 PUSH1 0x0 MSTORE PUSH1 0x20 PUSH1 0x0 KECCAK256 SWAP1 JUMPDEST DUP2 SLOAD DUP2 MSTORE SWAP1 PUSH1 0x1 ADD SWAP1 PUSH1 0x20 ADD DUP1 DUP4 GT PUSH2 0x2F16 JUMPI DUP3 SWAP1 SUB PUSH1 0x1F AND DUP3 ADD SWAP2 JUMPDEST POP POP POP POP POP SWAP1 DUP1 PUSH1 0x3 ADD DUP1 SLOAD PUSH2 0x2F48 SWAP1 PUSH2 0x42A6 JUMP JUMPDEST DUP1 PUSH1 0x1F ADD PUSH1 0x20 DUP1 SWAP2 DIV MUL PUSH1 0x20 ADD PUSH1 0x40 MLOAD SWAP1 DUP2 ADD PUSH1 0x40 MSTORE DUP1 SWAP3 SWAP2 SWAP1 DUP2 DUP2 MSTORE PUSH1 0x20 ADD DUP3 DUP1 SLOAD PUSH2 0x2F74 SWAP1 PUSH2 0x42A6 JUMP JUMPDEST DUP1 ISZERO PUSH2 0x2FC1 JUMPI DUP1 PUSH1 0x1F LT PUSH2 0x2F96 JUMPI PUSH2 0x100 DUP1 DUP4 SLOAD DIV MUL DUP4 MSTORE SWAP2 PUSH1 0x20 ADD SWAP2 PUSH2 0x2FC1 JUMP JUMPDEST DUP3 ADD SWAP2 SWAP1 PUSH1 0x0 MSTORE PUSH1 0x20 PUSH1 0x0 KECCAK256 SWAP1 JUMPDEST DUP2 SLOAD DUP2 MSTORE SWAP1 PUSH1 0x1 ADD SWAP1 PUSH1 0x20 ADD DUP1 DUP4 GT PUSH2 0x2FA4 JUMPI DUP3 SWAP1 SUB PUSH1 0x1F AND DUP3 ADD SWAP2 JUMPDEST POP POP POP POP POP SWAP1 DUP1 PUSH1 0x4 ADD PUSH1 0x0 SWAP1 SLOAD SWAP1 PUSH2 0x100 EXP SWAP1 DIV PUSH20 0xFFFFFFFFFFFFFFFFFFFFFFFFFFFFFFFFFFFFFFFF AND SWAP1 POP DUP6 JUMP JUMPDEST PUSH1 0x0 DUP1 PUSH1 0x3 PUSH1 0x0 DUP6 DUP2 MSTORE PUSH1 0x20 ADD SWAP1 DUP2 MSTORE PUSH1 0x20 ADD PUSH1 0x0 KECCAK256 SWAP1 POP PUSH1 0x0 DUP2 DUP1 SLOAD SWAP1 POP GT PUSH2 0x3050 JUMPI PUSH1 0x40 MLOAD PUSH32 0x8C379A000000000000000000000000000000000000000000000000000000000 DUP2 MSTORE PUSH1 0x4 ADD PUSH2 0x3047 SWAP1 PUSH2 0x3D06 JUMP JUMPDEST PUSH1 0x40 MLOAD DUP1 SWAP2 SUB SWAP1 REVERT JUMPDEST PUSH1 0x0 JUMPDEST DUP2 DUP1 SLOAD SWAP1 POP DUP2 LT ISZERO PUSH2 0x3240 JUMPI DUP4 DUP3 DUP3 DUP2 SLOAD DUP2 LT PUSH2 0x3073 JUMPI PUSH2 0x3072 PUSH2 0x43DF JUMP JUMPDEST JUMPDEST SWAP1 PUSH1 0x0 MSTORE PUSH1 0x20 PUSH1 0x0 KECCAK256 SWAP1 PUSH1 0x7 MUL ADD PUSH1 0x0 ADD SLOAD EQ ISZERO PUSH2 0x322D JUMPI PUSH1 0x7 PUSH1 0x9 DUP2 GT ISZERO PUSH2 0x309F JUMPI PUSH2 0x309E PUSH2 0x4381 JUMP JUMPDEST JUMPDEST DUP3 DUP3 DUP2 SLOAD DUP2 LT PUSH2 0x30B2 JUMPI PUSH2 0x30B1 PUSH2 0x43DF JUMP JUMPDEST JUMPDEST SWAP1 PUSH1 0x0 MSTORE PUSH1 0x20 PUSH1 0x0 KECCAK256 SWAP1 PUSH1 0x7 MUL ADD PUSH1 0x6 ADD PUSH1 0x0 SWAP1 SLOAD SWAP1 PUSH2 0x100 EXP SWAP1 DIV PUSH1 0xFF AND PUSH1 0x9 DUP2 GT ISZERO PUSH2 0x30E3 JUMPI PUSH2 0x30E2 PUSH2 0x4381 JUMP JUMPDEST JUMPDEST EQ PUSH2 0x3123 JUMPI PUSH1 0x40 MLOAD PUSH32 0x8C379A000000000000000000000000000000000000000000000000000000000 DUP2 MSTORE PUSH1 0x4 ADD PUSH2 0x311A SWAP1 PUSH2 0x3E46 JUMP JUMPDEST PUSH1 0x40 MLOAD DUP1 SWAP2 SUB SWAP1 REVERT JUMPDEST PUSH1 0x0 PUSH1 0x5 PUSH1 0x0 DUP7 DUP2 MSTORE PUSH1 0x20 ADD SWAP1 DUP2 MSTORE PUSH1 0x20 ADD PUSH1 0x0 KECCAK256 SWAP1 POP PUSH1 0x0 JUMPDEST DUP2 DUP1 SLOAD SWAP1 POP DUP2 LT ISZERO PUSH2 0x3222 JUMPI PUSH1 0x0 DUP3 DUP3 DUP2 SLOAD DUP2 LT PUSH2 0x315E JUMPI PUSH2 0x315D PUSH2 0x43DF JUMP JUMPDEST JUMPDEST SWAP1 PUSH1 0x0 MSTORE PUSH1 0x20 PUSH1 0x0 KECCAK256 SWAP1 PUSH1 0x3 MUL ADD PUSH1 0x2 ADD PUSH1 0x0 DUP9 DUP2 MSTORE PUSH1 0x20 ADD SWAP1 DUP2 MSTORE PUSH1 0x20 ADD PUSH1 0x0 KECCAK256 SLOAD SWAP1 POP DUP3 DUP3 DUP2 SLOAD DUP2 LT PUSH2 0x3196 JUMPI PUSH2 0x3195 PUSH2 0x43DF JUMP JUMPDEST JUMPDEST SWAP1 PUSH1 0x0 MSTORE PUSH1 0x20 PUSH1 0x0 KECCAK256 SWAP1 PUSH1 0x3 MUL ADD PUSH1 0x1 ADD PUSH1 0x0 SWAP1 SLOAD SWAP1 PUSH2 0x100 EXP SWAP1 DIV PUSH20 0xFFFFFFFFFFFFFFFFFFFFFFFFFFFFFFFFFFFFFFFF AND PUSH20 0xFFFFFFFFFFFFFFFFFFFFFFFFFFFFFFFFFFFFFFFF AND PUSH2 0x8FC DUP3 SWAP1 DUP2 ISZERO MUL SWAP1 PUSH1 0x40 MLOAD PUSH1 0x0 PUSH1 0x40 MLOAD DUP1 DUP4 SUB DUP2 DUP6 DUP9 DUP9 CALL SWAP4 POP POP POP POP ISZERO DUP1 ISZERO PUSH2 0x320D JUMPI RETURNDATASIZE PUSH1 0x0 DUP1 RETURNDATACOPY RETURNDATASIZE PUSH1 0x0 REVERT JUMPDEST POP POP DUP1 DUP1 PUSH2 0x321A SWAP1 PUSH2 0x4309 JUMP JUMPDEST SWAP2 POP POP PUSH2 0x313D JUMP JUMPDEST POP PUSH1 0x1 SWAP4 POP POP PUSH2 0x3240 JUMP JUMPDEST DUP1 DUP1 PUSH2 0x3238 SWAP1 PUSH2 0x4309 JUMP JUMPDEST SWAP2 POP POP PUSH2 0x3053 JUMP JUMPDEST POP DUP2 PUSH2 0x3281 JUMPI PUSH1 0x40 MLOAD PUSH32 0x8C379A000000000000000000000000000000000000000000000000000000000 DUP2 MSTORE PUSH1 0x4 ADD PUSH2 0x3278 SWAP1 PUSH2 0x3EA6 JUMP JUMPDEST PUSH1 0x40 MLOAD DUP1 SWAP2 SUB SWAP1 REVERT JUMPDEST POP POP POP POP JUMP JUMPDEST PUSH1 0x0 DUP1 PUSH1 0x3 PUSH1 0x0 DUP6 DUP2 MSTORE PUSH1 0x20 ADD SWAP1 DUP2 MSTORE PUSH1 0x20 ADD PUSH1 0x0 KECCAK256 SWAP1 POP PUSH1 0x0 DUP2 DUP1 SLOAD SWAP1 POP GT PUSH2 0x32E6 JUMPI PUSH1 0x40 MLOAD PUSH32 0x8C379A000000000000000000000000000000000000000000000000000000000 DUP2 MSTORE PUSH1 0x4 ADD PUSH2 0x32DD SWAP1 PUSH2 0x3D06 JUMP JUMPDEST PUSH1 0x40 MLOAD DUP1 SWAP2 SUB SWAP1 REVERT JUMPDEST PUSH1 0x0 JUMPDEST DUP2 DUP1 SLOAD SWAP1 POP DUP2 LT ISZERO PUSH2 0x33EC JUMPI DUP4 DUP3 DUP3 DUP2 SLOAD DUP2 LT PUSH2 0x3309 JUMPI PUSH2 0x3308 PUSH2 0x43DF JUMP JUMPDEST JUMPDEST SWAP1 PUSH1 0x0 MSTORE PUSH1 0x20 PUSH1 0x0 KECCAK256 SWAP1 PUSH1 0x7 MUL ADD PUSH1 0x0 ADD SLOAD EQ ISZERO PUSH2 0x33D9 JUMPI DUP2 DUP2 DUP2 SLOAD DUP2 LT PUSH2 0x3334 JUMPI PUSH2 0x3333 PUSH2 0x43DF JUMP JUMPDEST JUMPDEST SWAP1 PUSH1 0x0 MSTORE PUSH1 0x20 PUSH1 0x0 KECCAK256 SWAP1 PUSH1 0x7 MUL ADD PUSH1 0x4 ADD PUSH1 0x0 SWAP1 SLOAD SWAP1 PUSH2 0x100 EXP SWAP1 DIV PUSH20 0xFFFFFFFFFFFFFFFFFFFFFFFFFFFFFFFFFFFFFFFF AND PUSH20 0xFFFFFFFFFFFFFFFFFFFFFFFFFFFFFFFFFFFFFFFF AND PUSH2 0x8FC DUP4 DUP4 DUP2 SLOAD DUP2 LT PUSH2 0x3392 JUMPI PUSH2 0x3391 PUSH2 0x43DF JUMP JUMPDEST JUMPDEST SWAP1 PUSH1 0x0 MSTORE PUSH1 0x20 PUSH1 0x0 KECCAK256 SWAP1 PUSH1 0x7 MUL ADD PUSH1 0x3 ADD SLOAD SWAP1 DUP2 ISZERO MUL SWAP1 PUSH1 0x40 MLOAD PUSH1 0x0 PUSH1 0x40 MLOAD DUP1 DUP4 SUB DUP2 DUP6 DUP9 DUP9 CALL SWAP4 POP POP POP POP ISZERO DUP1 ISZERO PUSH2 0x33CF JUMPI RETURNDATASIZE PUSH1 0x0 DUP1 RETURNDATACOPY RETURNDATASIZE PUSH1 0x0 REVERT JUMPDEST POP PUSH1 0x1 SWAP3 POP PUSH2 0x33EC JUMP JUMPDEST DUP1 DUP1 PUSH2 0x33E4 SWAP1 PUSH2 0x4309 JUMP JUMPDEST SWAP2 POP POP PUSH2 0x32E9 JUMP JUMPDEST POP DUP2 PUSH2 0x342D JUMPI PUSH1 0x40 MLOAD PUSH32 0x8C379A000000000000000000000000000000000000000000000000000000000 DUP2 MSTORE PUSH1 0x4 ADD PUSH2 0x3424 SWAP1 PUSH2 0x3EA6 JUMP JUMPDEST PUSH1 0x40 MLOAD DUP1 SWAP2 SUB SWAP1 REVERT JUMPDEST POP POP POP POP JUMP JUMPDEST DUP3 DUP1 SLOAD PUSH2 0x343F SWAP1 PUSH2 0x42A6 JUMP JUMPDEST SWAP1 PUSH1 0x0 MSTORE PUSH1 0x20 PUSH1 0x0 KECCAK256 SWAP1 PUSH1 0x1F ADD PUSH1 0x20 SWAP1 DIV DUP2 ADD SWAP3 DUP3 PUSH2 0x3461 JUMPI PUSH1 0x0 DUP6 SSTORE PUSH2 0x34A8 JUMP JUMPDEST DUP3 PUSH1 0x1F LT PUSH2 0x347A JUMPI DUP1 MLOAD PUSH1 0xFF NOT AND DUP4 DUP1 ADD OR DUP6 SSTORE PUSH2 0x34A8 JUMP JUMPDEST DUP3 DUP1 ADD PUSH1 0x1 ADD DUP6 SSTORE DUP3 ISZERO PUSH2 0x34A8 JUMPI SWAP2 DUP3 ADD JUMPDEST DUP3 DUP2 GT ISZERO PUSH2 0x34A7 JUMPI DUP3 MLOAD DUP3 SSTORE SWAP2 PUSH1 0x20 ADD SWAP2 SWAP1 PUSH1 0x1 ADD SWAP1 PUSH2 0x348C JUMP JUMPDEST JUMPDEST POP SWAP1 POP PUSH2 0x34B5 SWAP2 SWAP1 PUSH2 0x34B9 JUMP JUMPDEST POP SWAP1 JUMP JUMPDEST JUMPDEST DUP1 DUP3 GT ISZERO PUSH2 0x34D2 JUMPI PUSH1 0x0 DUP2 PUSH1 0x0 SWAP1 SSTORE POP PUSH1 0x1 ADD PUSH2 0x34BA JUMP JUMPDEST POP SWAP1 JUMP JUMPDEST PUSH1 0x0 PUSH2 0x34E9 PUSH2 0x34E4 DUP5 PUSH2 0x40DA JUMP JUMPDEST PUSH2 0x40B5 JUMP JUMPDEST SWAP1 POP DUP3 DUP2 MSTORE PUSH1 0x20 DUP2 ADD DUP5 DUP5 DUP5 ADD GT ISZERO PUSH2 0x3505 JUMPI PUSH2 0x3504 PUSH2 0x4442 JUMP JUMPDEST JUMPDEST PUSH2 0x3510 DUP5 DUP3 DUP6 PUSH2 0x4264 JUMP JUMPDEST POP SWAP4 SWAP3 POP POP POP JUMP JUMPDEST PUSH1 0x0 DUP2 CALLDATALOAD SWAP1 POP PUSH2 0x3527 DUP2 PUSH2 0x4992 JUMP JUMPDEST SWAP3 SWAP2 POP POP JUMP JUMPDEST PUSH1 0x0 DUP2 CALLDATALOAD SWAP1 POP PUSH2 0x353C DUP2 PUSH2 0x49A9 JUMP JUMPDEST SWAP3 SWAP2 POP POP JUMP JUMPDEST PUSH1 0x0 DUP2 CALLDATALOAD SWAP1 POP PUSH2 0x3551 DUP2 PUSH2 0x49C0 JUMP JUMPDEST SWAP3 SWAP2 POP POP JUMP JUMPDEST PUSH1 0x0 DUP3 PUSH1 0x1F DUP4 ADD SLT PUSH2 0x356C JUMPI PUSH2 0x356B PUSH2 0x443D JUMP JUMPDEST JUMPDEST DUP2 CALLDATALOAD PUSH2 0x357C DUP5 DUP3 PUSH1 0x20 DUP7 ADD PUSH2 0x34D6 JUMP JUMPDEST SWAP2 POP POP SWAP3 SWAP2 POP POP JUMP JUMPDEST PUSH1 0x0 DUP2 CALLDATALOAD SWAP1 POP PUSH2 0x3594 DUP2 PUSH2 0x49D0 JUMP JUMPDEST SWAP3 SWAP2 POP POP JUMP JUMPDEST PUSH1 0x0 DUP2 CALLDATALOAD SWAP1 POP PUSH2 0x35A9 DUP2 PUSH2 0x49E7 JUMP JUMPDEST SWAP3 SWAP2 POP POP JUMP JUMPDEST PUSH1 0x0 PUSH1 0x20 DUP3 DUP5 SUB SLT ISZERO PUSH2 0x35C5 JUMPI PUSH2 0x35C4 PUSH2 0x444C JUMP JUMPDEST JUMPDEST PUSH1 0x0 PUSH2 0x35D3 DUP5 DUP3 DUP6 ADD PUSH2 0x3542 JUMP JUMPDEST SWAP2 POP POP SWAP3 SWAP2 POP POP JUMP JUMPDEST PUSH1 0x0 PUSH1 0x20 DUP3 DUP5 SUB SLT ISZERO PUSH2 0x35F2 JUMPI PUSH2 0x35F1 PUSH2 0x444C JUMP JUMPDEST JUMPDEST PUSH1 0x0 PUSH2 0x3600 DUP5 DUP3 DUP6 ADD PUSH2 0x3585 JUMP JUMPDEST SWAP2 POP POP SWAP3 SWAP2 POP POP JUMP JUMPDEST PUSH1 0x0 DUP1 PUSH1 0x0 PUSH1 0x60 DUP5 DUP7 SUB SLT ISZERO PUSH2 0x3622 JUMPI PUSH2 0x3621 PUSH2 0x444C JUMP JUMPDEST JUMPDEST PUSH1 0x0 PUSH2 0x3630 DUP7 DUP3 DUP8 ADD PUSH2 0x3585 JUMP JUMPDEST SWAP4 POP POP PUSH1 0x20 PUSH2 0x3641 DUP7 DUP3 DUP8 ADD PUSH2 0x352D JUMP JUMPDEST SWAP3 POP POP PUSH1 0x40 DUP5 ADD CALLDATALOAD PUSH8 0xFFFFFFFFFFFFFFFF DUP2 GT ISZERO PUSH2 0x3662 JUMPI PUSH2 0x3661 PUSH2 0x4447 JUMP JUMPDEST JUMPDEST PUSH2 0x366E DUP7 DUP3 DUP8 ADD PUSH2 0x3557 JUMP JUMPDEST SWAP2 POP POP SWAP3 POP SWAP3 POP SWAP3 JUMP JUMPDEST PUSH1 0x0 DUP1 PUSH1 0x0 PUSH1 0x60 DUP5 DUP7 SUB SLT ISZERO PUSH2 0x3691 JUMPI PUSH2 0x3690 PUSH2 0x444C JUMP JUMPDEST JUMPDEST PUSH1 0x0 PUSH2 0x369F DUP7 DUP3 DUP8 ADD PUSH2 0x3585 JUMP JUMPDEST SWAP4 POP POP PUSH1 0x20 DUP5 ADD CALLDATALOAD PUSH8 0xFFFFFFFFFFFFFFFF DUP2 GT ISZERO PUSH2 0x36C0 JUMPI PUSH2 0x36BF PUSH2 0x4447 JUMP JUMPDEST JUMPDEST PUSH2 0x36CC DUP7 DUP3 DUP8 ADD PUSH2 0x3557 JUMP JUMPDEST SWAP3 POP POP PUSH1 0x40 PUSH2 0x36DD DUP7 DUP3 DUP8 ADD PUSH2 0x3518 JUMP JUMPDEST SWAP2 POP POP SWAP3 POP SWAP3 POP SWAP3 JUMP JUMPDEST PUSH1 0x0 DUP1 PUSH1 0x40 DUP4 DUP6 SUB SLT ISZERO PUSH2 0x36FE JUMPI PUSH2 0x36FD PUSH2 0x444C JUMP JUMPDEST JUMPDEST PUSH1 0x0 PUSH2 0x370C DUP6 DUP3 DUP7 ADD PUSH2 0x3585 JUMP JUMPDEST SWAP3 POP POP PUSH1 0x20 PUSH2 0x371D DUP6 DUP3 DUP7 ADD PUSH2 0x3585 JUMP JUMPDEST SWAP2 POP POP SWAP3 POP SWAP3 SWAP1 POP JUMP JUMPDEST PUSH1 0x0 DUP1 PUSH1 0x0 PUSH1 0x60 DUP5 DUP7 SUB SLT ISZERO PUSH2 0x3740 JUMPI PUSH2 0x373F PUSH2 0x444C JUMP JUMPDEST JUMPDEST PUSH1 0x0 PUSH2 0x374E DUP7 DUP3 DUP8 ADD PUSH2 0x3585 JUMP JUMPDEST SWAP4 POP POP PUSH1 0x20 PUSH2 0x375F DUP7 DUP3 DUP8 ADD PUSH2 0x3585 JUMP JUMPDEST SWAP3 POP POP PUSH1 0x40 PUSH2 0x3770 DUP7 DUP3 DUP8 ADD PUSH2 0x3585 JUMP JUMPDEST SWAP2 POP POP SWAP3 POP SWAP3 POP SWAP3 JUMP JUMPDEST PUSH1 0x0 DUP1 PUSH1 0x0 DUP1 PUSH1 0x80 DUP6 DUP8 SUB SLT ISZERO PUSH2 0x3794 JUMPI PUSH2 0x3793 PUSH2 0x444C JUMP JUMPDEST JUMPDEST PUSH1 0x0 PUSH2 0x37A2 DUP8 DUP3 DUP9 ADD PUSH2 0x3585 JUMP JUMPDEST SWAP5 POP POP PUSH1 0x20 PUSH2 0x37B3 DUP8 DUP3 DUP9 ADD PUSH2 0x3585 JUMP JUMPDEST SWAP4 POP POP PUSH1 0x40 PUSH2 0x37C4 DUP8 DUP3 DUP9 ADD PUSH2 0x3585 JUMP JUMPDEST SWAP3 POP POP PUSH1 0x60 PUSH2 0x37D5 DUP8 DUP3 DUP9 ADD PUSH2 0x3585 JUMP JUMPDEST SWAP2 POP POP SWAP3 SWAP6 SWAP2 SWAP5 POP SWAP3 POP JUMP JUMPDEST PUSH1 0x0 DUP1 PUSH1 0x0 DUP1 PUSH1 0x0 DUP1 PUSH1 0xC0 DUP8 DUP10 SUB SLT ISZERO PUSH2 0x37FE JUMPI PUSH2 0x37FD PUSH2 0x444C JUMP JUMPDEST JUMPDEST PUSH1 0x0 PUSH2 0x380C DUP10 DUP3 DUP11 ADD PUSH2 0x3585 JUMP JUMPDEST SWAP7 POP POP PUSH1 0x20 PUSH2 0x381D DUP10 DUP3 DUP11 ADD PUSH2 0x3585 JUMP JUMPDEST SWAP6 POP POP PUSH1 0x40 PUSH2 0x382E DUP10 DUP3 DUP11 ADD PUSH2 0x3585 JUMP JUMPDEST SWAP5 POP POP PUSH1 0x60 PUSH2 0x383F DUP10 DUP3 DUP11 ADD PUSH2 0x3585 JUMP JUMPDEST SWAP4 POP POP PUSH1 0x80 PUSH2 0x3850 DUP10 DUP3 DUP11 ADD PUSH2 0x3518 JUMP JUMPDEST SWAP3 POP POP PUSH1 0xA0 DUP8 ADD CALLDATALOAD PUSH8 0xFFFFFFFFFFFFFFFF DUP2 GT ISZERO PUSH2 0x3871 JUMPI PUSH2 0x3870 PUSH2 0x4447 JUMP JUMPDEST JUMPDEST PUSH2 0x387D DUP10 DUP3 DUP11 ADD PUSH2 0x3557 JUMP JUMPDEST SWAP2 POP POP SWAP3 SWAP6 POP SWAP3 SWAP6 POP SWAP3 SWAP6 JUMP JUMPDEST PUSH1 0x0 DUP1 PUSH1 0x0 PUSH1 0x60 DUP5 DUP7 SUB SLT ISZERO PUSH2 0x38A3 JUMPI PUSH2 0x38A2 PUSH2 0x444C JUMP JUMPDEST JUMPDEST PUSH1 0x0 PUSH2 0x38B1 DUP7 DUP3 DUP8 ADD PUSH2 0x3585 JUMP JUMPDEST SWAP4 POP POP PUSH1 0x20 PUSH2 0x38C2 DUP7 DUP3 DUP8 ADD PUSH2 0x3585 JUMP JUMPDEST SWAP3 POP POP PUSH1 0x40 PUSH2 0x38D3 DUP7 DUP3 DUP8 ADD PUSH2 0x359A JUMP JUMPDEST SWAP2 POP POP SWAP3 POP SWAP3 POP SWAP3 JUMP JUMPDEST PUSH1 0x0 PUSH2 0x38E9 DUP4 DUP4 PUSH2 0x3C2F JUMP JUMPDEST PUSH1 0x20 DUP4 ADD SWAP1 POP SWAP3 SWAP2 POP POP JUMP JUMPDEST PUSH2 0x38FE DUP2 PUSH2 0x41EA JUMP JUMPDEST DUP3 MSTORE POP POP JUMP JUMPDEST PUSH1 0x0 PUSH2 0x390F DUP3 PUSH2 0x411B JUMP JUMPDEST PUSH2 0x3919 DUP2 DUP6 PUSH2 0x413E JUMP JUMPDEST SWAP4 POP PUSH2 0x3924 DUP4 PUSH2 0x410B JUMP JUMPDEST DUP1 PUSH1 0x0 JUMPDEST DUP4 DUP2 LT ISZERO PUSH2 0x3955 JUMPI DUP2 MLOAD PUSH2 0x393C DUP9 DUP3 PUSH2 0x38DD JUMP JUMPDEST SWAP8 POP PUSH2 0x3947 DUP4 PUSH2 0x4131 JUMP JUMPDEST SWAP3 POP POP PUSH1 0x1 DUP2 ADD SWAP1 POP PUSH2 0x3928 JUMP JUMPDEST POP DUP6 SWAP4 POP POP POP POP SWAP3 SWAP2 POP POP JUMP JUMPDEST PUSH2 0x396B DUP2 PUSH2 0x41FC JUMP JUMPDEST DUP3 MSTORE POP POP JUMP JUMPDEST PUSH2 0x397A DUP2 PUSH2 0x4252 JUMP JUMPDEST DUP3 MSTORE POP POP JUMP JUMPDEST PUSH1 0x0 PUSH2 0x398B DUP3 PUSH2 0x4126 JUMP JUMPDEST PUSH2 0x3995 DUP2 DUP6 PUSH2 0x414F JUMP JUMPDEST SWAP4 POP PUSH2 0x39A5 DUP2 DUP6 PUSH1 0x20 DUP7 ADD PUSH2 0x4273 JUMP JUMPDEST PUSH2 0x39AE DUP2 PUSH2 0x4451 JUMP JUMPDEST DUP5 ADD SWAP2 POP POP SWAP3 SWAP2 POP POP JUMP JUMPDEST PUSH1 0x0 PUSH2 0x39C6 PUSH1 0x11 DUP4 PUSH2 0x414F JUMP JUMPDEST SWAP2 POP PUSH2 0x39D1 DUP3 PUSH2 0x4462 JUMP JUMPDEST PUSH1 0x20 DUP3 ADD SWAP1 POP SWAP2 SWAP1 POP JUMP JUMPDEST PUSH1 0x0 PUSH2 0x39E9 PUSH1 0x2D DUP4 PUSH2 0x414F JUMP JUMPDEST SWAP2 POP PUSH2 0x39F4 DUP3 PUSH2 0x448B JUMP JUMPDEST PUSH1 0x40 DUP3 ADD SWAP1 POP SWAP2 SWAP1 POP JUMP JUMPDEST PUSH1 0x0 PUSH2 0x3A0C PUSH1 0x39 DUP4 PUSH2 0x414F JUMP JUMPDEST SWAP2 POP PUSH2 0x3A17 DUP3 PUSH2 0x44DA JUMP JUMPDEST PUSH1 0x40 DUP3 ADD SWAP1 POP SWAP2 SWAP1 POP JUMP JUMPDEST PUSH1 0x0 PUSH2 0x3A2F PUSH1 0x2A DUP4 PUSH2 0x414F JUMP JUMPDEST SWAP2 POP PUSH2 0x3A3A DUP3 PUSH2 0x4529 JUMP JUMPDEST PUSH1 0x40 DUP3 ADD SWAP1 POP SWAP2 SWAP1 POP JUMP JUMPDEST PUSH1 0x0 PUSH2 0x3A52 PUSH1 0x24 DUP4 PUSH2 0x414F JUMP JUMPDEST SWAP2 POP PUSH2 0x3A5D DUP3 PUSH2 0x4578 JUMP JUMPDEST PUSH1 0x40 DUP3 ADD SWAP1 POP SWAP2 SWAP1 POP JUMP JUMPDEST PUSH1 0x0 PUSH2 0x3A75 PUSH1 0x26 DUP4 PUSH2 0x414F JUMP JUMPDEST SWAP2 POP PUSH2 0x3A80 DUP3 PUSH2 0x45C7 JUMP JUMPDEST PUSH1 0x40 DUP3 ADD SWAP1 POP SWAP2 SWAP1 POP JUMP JUMPDEST PUSH1 0x0 PUSH2 0x3A98 PUSH1 0x28 DUP4 PUSH2 0x414F JUMP JUMPDEST SWAP2 POP PUSH2 0x3AA3 DUP3 PUSH2 0x4616 JUMP JUMPDEST PUSH1 0x40 DUP3 ADD SWAP1 POP SWAP2 SWAP1 POP JUMP JUMPDEST PUSH1 0x0 PUSH2 0x3ABB PUSH1 0x31 DUP4 PUSH2 0x414F JUMP JUMPDEST SWAP2 POP PUSH2 0x3AC6 DUP3 PUSH2 0x4665 JUMP JUMPDEST PUSH1 0x40 DUP3 ADD SWAP1 POP SWAP2 SWAP1 POP JUMP JUMPDEST PUSH1 0x0 PUSH2 0x3ADE PUSH1 0x41 DUP4 PUSH2 0x414F JUMP JUMPDEST SWAP2 POP PUSH2 0x3AE9 DUP3 PUSH2 0x46B4 JUMP JUMPDEST PUSH1 0x60 DUP3 ADD SWAP1 POP SWAP2 SWAP1 POP JUMP JUMPDEST PUSH1 0x0 PUSH2 0x3B01 PUSH1 0x19 DUP4 PUSH2 0x414F JUMP JUMPDEST SWAP2 POP PUSH2 0x3B0C DUP3 PUSH2 0x4729 JUMP JUMPDEST PUSH1 0x20 DUP3 ADD SWAP1 POP SWAP2 SWAP1 POP JUMP JUMPDEST PUSH1 0x0 PUSH2 0x3B24 PUSH1 0x3E DUP4 PUSH2 0x414F JUMP JUMPDEST SWAP2 POP PUSH2 0x3B2F DUP3 PUSH2 0x4752 JUMP JUMPDEST PUSH1 0x40 DUP3 ADD SWAP1 POP SWAP2 SWAP1 POP JUMP JUMPDEST PUSH1 0x0 PUSH2 0x3B47 PUSH1 0x26 DUP4 PUSH2 0x414F JUMP JUMPDEST SWAP2 POP PUSH2 0x3B52 DUP3 PUSH2 0x47A1 JUMP JUMPDEST PUSH1 0x40 DUP3 ADD SWAP1 POP SWAP2 SWAP1 POP JUMP JUMPDEST PUSH1 0x0 PUSH2 0x3B6A PUSH1 0x23 DUP4 PUSH2 0x414F JUMP JUMPDEST SWAP2 POP PUSH2 0x3B75 DUP3 PUSH2 0x47F0 JUMP JUMPDEST PUSH1 0x40 DUP3 ADD SWAP1 POP SWAP2 SWAP1 POP JUMP JUMPDEST PUSH1 0x0 PUSH2 0x3B8D PUSH1 0x25 DUP4 PUSH2 0x414F JUMP JUMPDEST SWAP2 POP PUSH2 0x3B98 DUP3 PUSH2 0x483F JUMP JUMPDEST PUSH1 0x40 DUP3 ADD SWAP1 POP SWAP2 SWAP1 POP JUMP JUMPDEST PUSH1 0x0 PUSH2 0x3BB0 PUSH1 0x28 DUP4 PUSH2 0x414F JUMP JUMPDEST SWAP2 POP PUSH2 0x3BBB DUP3 PUSH2 0x488E JUMP JUMPDEST PUSH1 0x40 DUP3 ADD SWAP1 POP SWAP2 SWAP1 POP JUMP JUMPDEST PUSH1 0x0 PUSH2 0x3BD3 PUSH1 0x20 DUP4 PUSH2 0x414F JUMP JUMPDEST SWAP2 POP PUSH2 0x3BDE DUP3 PUSH2 0x48DD JUMP JUMPDEST PUSH1 0x20 DUP3 ADD SWAP1 POP SWAP2 SWAP1 POP JUMP JUMPDEST PUSH1 0x0 PUSH2 0x3BF6 PUSH1 0x1C DUP4 PUSH2 0x414F JUMP JUMPDEST SWAP2 POP PUSH2 0x3C01 DUP3 PUSH2 0x4906 JUMP JUMPDEST PUSH1 0x20 DUP3 ADD SWAP1 POP SWAP2 SWAP1 POP JUMP JUMPDEST PUSH1 0x0 PUSH2 0x3C19 PUSH1 0x2C DUP4 PUSH2 0x414F JUMP JUMPDEST SWAP2 POP PUSH2 0x3C24 DUP3 PUSH2 0x492F JUMP JUMPDEST PUSH1 0x40 DUP3 ADD SWAP1 POP SWAP2 SWAP1 POP JUMP JUMPDEST PUSH2 0x3C38 DUP2 PUSH2 0x423B JUMP JUMPDEST DUP3 MSTORE POP POP JUMP JUMPDEST PUSH2 0x3C47 DUP2 PUSH2 0x423B JUMP JUMPDEST DUP3 MSTORE POP POP JUMP JUMPDEST PUSH1 0x0 PUSH1 0x20 DUP3 ADD SWAP1 POP PUSH2 0x3C62 PUSH1 0x0 DUP4 ADD DUP5 PUSH2 0x38F5 JUMP JUMPDEST SWAP3 SWAP2 POP POP JUMP JUMPDEST PUSH1 0x0 PUSH1 0x80 DUP3 ADD SWAP1 POP DUP2 DUP2 SUB PUSH1 0x0 DUP4 ADD MSTORE PUSH2 0x3C82 DUP2 DUP8 PUSH2 0x3904 JUMP JUMPDEST SWAP1 POP DUP2 DUP2 SUB PUSH1 0x20 DUP4 ADD MSTORE PUSH2 0x3C96 DUP2 DUP7 PUSH2 0x3904 JUMP JUMPDEST SWAP1 POP DUP2 DUP2 SUB PUSH1 0x40 DUP4 ADD MSTORE PUSH2 0x3CAA DUP2 DUP6 PUSH2 0x3904 JUMP JUMPDEST SWAP1 POP DUP2 DUP2 SUB PUSH1 0x60 DUP4 ADD MSTORE PUSH2 0x3CBE DUP2 DUP5 PUSH2 0x3904 JUMP JUMPDEST SWAP1 POP SWAP6 SWAP5 POP POP POP POP POP JUMP JUMPDEST PUSH1 0x0 PUSH1 0x20 DUP3 ADD SWAP1 POP PUSH2 0x3CDE PUSH1 0x0 DUP4 ADD DUP5 PUSH2 0x3971 JUMP JUMPDEST SWAP3 SWAP2 POP POP JUMP JUMPDEST PUSH1 0x0 PUSH1 0x20 DUP3 ADD SWAP1 POP DUP2 DUP2 SUB PUSH1 0x0 DUP4 ADD MSTORE PUSH2 0x3CFE DUP2 DUP5 PUSH2 0x3980 JUMP JUMPDEST SWAP1 POP SWAP3 SWAP2 POP POP JUMP JUMPDEST PUSH1 0x0 PUSH1 0x20 DUP3 ADD SWAP1 POP DUP2 DUP2 SUB PUSH1 0x0 DUP4 ADD MSTORE PUSH2 0x3D1F DUP2 PUSH2 0x39B9 JUMP JUMPDEST SWAP1 POP SWAP2 SWAP1 POP JUMP JUMPDEST PUSH1 0x0 PUSH1 0x20 DUP3 ADD SWAP1 POP DUP2 DUP2 SUB PUSH1 0x0 DUP4 ADD MSTORE PUSH2 0x3D3F DUP2 PUSH2 0x39DC JUMP JUMPDEST SWAP1 POP SWAP2 SWAP1 POP JUMP JUMPDEST PUSH1 0x0 PUSH1 0x20 DUP3 ADD SWAP1 POP DUP2 DUP2 SUB PUSH1 0x0 DUP4 ADD MSTORE PUSH2 0x3D5F DUP2 PUSH2 0x39FF JUMP JUMPDEST SWAP1 POP SWAP2 SWAP1 POP JUMP JUMPDEST PUSH1 0x0 PUSH1 0x20 DUP3 ADD SWAP1 POP DUP2 DUP2 SUB PUSH1 0x0 DUP4 ADD MSTORE PUSH2 0x3D7F DUP2 PUSH2 0x3A22 JUMP JUMPDEST SWAP1 POP SWAP2 SWAP1 POP JUMP JUMPDEST PUSH1 0x0 PUSH1 0x20 DUP3 ADD SWAP1 POP DUP2 DUP2 SUB PUSH1 0x0 DUP4 ADD MSTORE PUSH2 0x3D9F DUP2 PUSH2 0x3A45 JUMP JUMPDEST SWAP1 POP SWAP2 SWAP1 POP JUMP JUMPDEST PUSH1 0x0 PUSH1 0x20 DUP3 ADD SWAP1 POP DUP2 DUP2 SUB PUSH1 0x0 DUP4 ADD MSTORE PUSH2 0x3DBF DUP2 PUSH2 0x3A68 JUMP JUMPDEST SWAP1 POP SWAP2 SWAP1 POP JUMP JUMPDEST PUSH1 0x0 PUSH1 0x20 DUP3 ADD SWAP1 POP DUP2 DUP2 SUB PUSH1 0x0 DUP4 ADD MSTORE PUSH2 0x3DDF DUP2 PUSH2 0x3A8B JUMP JUMPDEST SWAP1 POP SWAP2 SWAP1 POP JUMP JUMPDEST PUSH1 0x0 PUSH1 0x20 DUP3 ADD SWAP1 POP DUP2 DUP2 SUB PUSH1 0x0 DUP4 ADD MSTORE PUSH2 0x3DFF DUP2 PUSH2 0x3AAE JUMP JUMPDEST SWAP1 POP SWAP2 SWAP1 POP JUMP JUMPDEST PUSH1 0x0 PUSH1 0x20 DUP3 ADD SWAP1 POP DUP2 DUP2 SUB PUSH1 0x0 DUP4 ADD MSTORE PUSH2 0x3E1F DUP2 PUSH2 0x3AD1 JUMP JUMPDEST SWAP1 POP SWAP2 SWAP1 POP JUMP JUMPDEST PUSH1 0x0 PUSH1 0x20 DUP3 ADD SWAP1 POP DUP2 DUP2 SUB PUSH1 0x0 DUP4 ADD MSTORE PUSH2 0x3E3F DUP2 PUSH2 0x3AF4 JUMP JUMPDEST SWAP1 POP SWAP2 SWAP1 POP JUMP JUMPDEST PUSH1 0x0 PUSH1 0x20 DUP3 ADD SWAP1 POP DUP2 DUP2 SUB PUSH1 0x0 DUP4 ADD MSTORE PUSH2 0x3E5F DUP2 PUSH2 0x3B17 JUMP JUMPDEST SWAP1 POP SWAP2 SWAP1 POP JUMP JUMPDEST PUSH1 0x0 PUSH1 0x20 DUP3 ADD SWAP1 POP DUP2 DUP2 SUB PUSH1 0x0 DUP4 ADD MSTORE PUSH2 0x3E7F DUP2 PUSH2 0x3B3A JUMP JUMPDEST SWAP1 POP SWAP2 SWAP1 POP JUMP JUMPDEST PUSH1 0x0 PUSH1 0x20 DUP3 ADD SWAP1 POP DUP2 DUP2 SUB PUSH1 0x0 DUP4 ADD MSTORE PUSH2 0x3E9F DUP2 PUSH2 0x3B5D JUMP JUMPDEST SWAP1 POP SWAP2 SWAP1 POP JUMP JUMPDEST PUSH1 0x0 PUSH1 0x20 DUP3 ADD SWAP1 POP DUP2 DUP2 SUB PUSH1 0x0 DUP4 ADD MSTORE PUSH2 0x3EBF DUP2 PUSH2 0x3B80 JUMP JUMPDEST SWAP1 POP SWAP2 SWAP1 POP JUMP JUMPDEST PUSH1 0x0 PUSH1 0x20 DUP3 ADD SWAP1 POP DUP2 DUP2 SUB PUSH1 0x0 DUP4 ADD MSTORE PUSH2 0x3EDF DUP2 PUSH2 0x3BA3 JUMP JUMPDEST SWAP1 POP SWAP2 SWAP1 POP JUMP JUMPDEST PUSH1 0x0 PUSH1 0x20 DUP3 ADD SWAP1 POP DUP2 DUP2 SUB PUSH1 0x0 DUP4 ADD MSTORE PUSH2 0x3EFF DUP2 PUSH2 0x3BC6 JUMP JUMPDEST SWAP1 POP SWAP2 SWAP1 POP JUMP JUMPDEST PUSH1 0x0 PUSH1 0x20 DUP3 ADD SWAP1 POP DUP2 DUP2 SUB PUSH1 0x0 DUP4 ADD MSTORE PUSH2 0x3F1F DUP2 PUSH2 0x3BE9 JUMP JUMPDEST SWAP1 POP SWAP2 SWAP1 POP JUMP JUMPDEST PUSH1 0x0 PUSH1 0x20 DUP3 ADD SWAP1 POP DUP2 DUP2 SUB PUSH1 0x0 DUP4 ADD MSTORE PUSH2 0x3F3F DUP2 PUSH2 0x3C0C JUMP JUMPDEST SWAP1 POP SWAP2 SWAP1 POP JUMP JUMPDEST PUSH1 0x0 PUSH1 0x20 DUP3 ADD SWAP1 POP PUSH2 0x3F5B PUSH1 0x0 DUP4 ADD DUP5 PUSH2 0x3C3E JUMP JUMPDEST SWAP3 SWAP2 POP POP JUMP JUMPDEST PUSH1 0x0 PUSH1 0xA0 DUP3 ADD SWAP1 POP PUSH2 0x3F76 PUSH1 0x0 DUP4 ADD DUP9 PUSH2 0x3C3E JUMP JUMPDEST PUSH2 0x3F83 PUSH1 0x20 DUP4 ADD DUP8 PUSH2 0x3962 JUMP JUMPDEST DUP2 DUP2 SUB PUSH1 0x40 DUP4 ADD MSTORE PUSH2 0x3F95 DUP2 DUP7 PUSH2 0x3980 JUMP JUMPDEST SWAP1 POP DUP2 DUP2 SUB PUSH1 0x60 DUP4 ADD MSTORE PUSH2 0x3FA9 DUP2 DUP6 PUSH2 0x3980 JUMP JUMPDEST SWAP1 POP PUSH2 0x3FB8 PUSH1 0x80 DUP4 ADD DUP5 PUSH2 0x38F5 JUMP JUMPDEST SWAP7 SWAP6 POP POP POP POP POP POP JUMP JUMPDEST PUSH1 0x0 PUSH1 0x60 DUP3 ADD SWAP1 POP PUSH2 0x3FD7 PUSH1 0x0 DUP4 ADD DUP7 PUSH2 0x3C3E JUMP JUMPDEST PUSH2 0x3FE4 PUSH1 0x20 DUP4 ADD DUP6 PUSH2 0x3C3E JUMP JUMPDEST PUSH2 0x3FF1 PUSH1 0x40 DUP4 ADD DUP5 PUSH2 0x3971 JUMP JUMPDEST SWAP5 SWAP4 POP POP POP POP JUMP JUMPDEST PUSH1 0x0 PUSH1 0x60 DUP3 ADD SWAP1 POP PUSH2 0x400E PUSH1 0x0 DUP4 ADD DUP7 PUSH2 0x3C3E JUMP JUMPDEST PUSH2 0x401B PUSH1 0x20 DUP4 ADD DUP6 PUSH2 0x3C3E JUMP JUMPDEST PUSH2 0x4028 PUSH1 0x40 DUP4 ADD DUP5 PUSH2 0x3C3E JUMP JUMPDEST SWAP5 SWAP4 POP POP POP POP JUMP JUMPDEST PUSH1 0x0 PUSH2 0x100 DUP3 ADD SWAP1 POP PUSH2 0x4046 PUSH1 0x0 DUP4 ADD DUP12 PUSH2 0x3C3E JUMP JUMPDEST PUSH2 0x4053 PUSH1 0x20 DUP4 ADD DUP11 PUSH2 0x3C3E JUMP JUMPDEST PUSH2 0x4060 PUSH1 0x40 DUP4 ADD DUP10 PUSH2 0x3C3E JUMP JUMPDEST PUSH2 0x406D PUSH1 0x60 DUP4 ADD DUP9 PUSH2 0x3C3E JUMP JUMPDEST PUSH2 0x407A PUSH1 0x80 DUP4 ADD DUP8 PUSH2 0x38F5 JUMP JUMPDEST PUSH2 0x4087 PUSH1 0xA0 DUP4 ADD DUP7 PUSH2 0x3962 JUMP JUMPDEST DUP2 DUP2 SUB PUSH1 0xC0 DUP4 ADD MSTORE PUSH2 0x4099 DUP2 DUP6 PUSH2 0x3980 JUMP JUMPDEST SWAP1 POP PUSH2 0x40A8 PUSH1 0xE0 DUP4 ADD DUP5 PUSH2 0x3971 JUMP JUMPDEST SWAP10 SWAP9 POP POP POP POP POP POP POP POP POP JUMP JUMPDEST PUSH1 0x0 PUSH2 0x40BF PUSH2 0x40D0 JUMP JUMPDEST SWAP1 POP PUSH2 0x40CB DUP3 DUP3 PUSH2 0x42D8 JUMP JUMPDEST SWAP2 SWAP1 POP JUMP JUMPDEST PUSH1 0x0 PUSH1 0x40 MLOAD SWAP1 POP SWAP1 JUMP JUMPDEST PUSH1 0x0 PUSH8 0xFFFFFFFFFFFFFFFF DUP3 GT ISZERO PUSH2 0x40F5 JUMPI PUSH2 0x40F4 PUSH2 0x440E JUMP JUMPDEST JUMPDEST PUSH2 0x40FE DUP3 PUSH2 0x4451 JUMP JUMPDEST SWAP1 POP PUSH1 0x20 DUP2 ADD SWAP1 POP SWAP2 SWAP1 POP JUMP JUMPDEST PUSH1 0x0 DUP2 SWAP1 POP PUSH1 0x20 DUP3 ADD SWAP1 POP SWAP2 SWAP1 POP JUMP JUMPDEST PUSH1 0x0 DUP2 MLOAD SWAP1 POP SWAP2 SWAP1 POP JUMP JUMPDEST PUSH1 0x0 DUP2 MLOAD SWAP1 POP SWAP2 SWAP1 POP JUMP JUMPDEST PUSH1 0x0 PUSH1 0x20 DUP3 ADD SWAP1 POP SWAP2 SWAP1 POP JUMP JUMPDEST PUSH1 0x0 DUP3 DUP3 MSTORE PUSH1 0x20 DUP3 ADD SWAP1 POP SWAP3 SWAP2 POP POP JUMP JUMPDEST PUSH1 0x0 DUP3 DUP3 MSTORE PUSH1 0x20 DUP3 ADD SWAP1 POP SWAP3 SWAP2 POP POP JUMP JUMPDEST PUSH1 0x0 PUSH2 0x416B DUP3 PUSH2 0x423B JUMP JUMPDEST SWAP2 POP PUSH2 0x4176 DUP4 PUSH2 0x423B JUMP JUMPDEST SWAP3 POP DUP3 PUSH32 0xFFFFFFFFFFFFFFFFFFFFFFFFFFFFFFFFFFFFFFFFFFFFFFFFFFFFFFFFFFFFFFFF SUB DUP3 GT ISZERO PUSH2 0x41AB JUMPI PUSH2 0x41AA PUSH2 0x4352 JUMP JUMPDEST JUMPDEST DUP3 DUP3 ADD SWAP1 POP SWAP3 SWAP2 POP POP JUMP JUMPDEST PUSH1 0x0 PUSH2 0x41C1 DUP3 PUSH2 0x423B JUMP JUMPDEST SWAP2 POP PUSH2 0x41CC DUP4 PUSH2 0x423B JUMP JUMPDEST SWAP3 POP DUP3 DUP3 LT ISZERO PUSH2 0x41DF JUMPI PUSH2 0x41DE PUSH2 0x4352 JUMP JUMPDEST JUMPDEST DUP3 DUP3 SUB SWAP1 POP SWAP3 SWAP2 POP POP JUMP JUMPDEST PUSH1 0x0 PUSH2 0x41F5 DUP3 PUSH2 0x421B JUMP JUMPDEST SWAP1 POP SWAP2 SWAP1 POP JUMP JUMPDEST PUSH1 0x0 DUP2 ISZERO ISZERO SWAP1 POP SWAP2 SWAP1 POP JUMP JUMPDEST PUSH1 0x0 DUP2 SWAP1 POP PUSH2 0x4216 DUP3 PUSH2 0x497E JUMP JUMPDEST SWAP2 SWAP1 POP JUMP JUMPDEST PUSH1 0x0 PUSH20 0xFFFFFFFFFFFFFFFFFFFFFFFFFFFFFFFFFFFFFFFF DUP3 AND SWAP1 POP SWAP2 SWAP1 POP JUMP JUMPDEST PUSH1 0x0 DUP2 SWAP1 POP SWAP2 SWAP1 POP JUMP JUMPDEST PUSH1 0x0 PUSH1 0xFF DUP3 AND SWAP1 POP SWAP2 SWAP1 POP JUMP JUMPDEST PUSH1 0x0 PUSH2 0x425D DUP3 PUSH2 0x4208 JUMP JUMPDEST SWAP1 POP SWAP2 SWAP1 POP JUMP JUMPDEST DUP3 DUP2 DUP4 CALLDATACOPY PUSH1 0x0 DUP4 DUP4 ADD MSTORE POP POP POP JUMP JUMPDEST PUSH1 0x0 JUMPDEST DUP4 DUP2 LT ISZERO PUSH2 0x4291 JUMPI DUP1 DUP3 ADD MLOAD DUP2 DUP5 ADD MSTORE PUSH1 0x20 DUP2 ADD SWAP1 POP PUSH2 0x4276 JUMP JUMPDEST DUP4 DUP2 GT ISZERO PUSH2 0x42A0 JUMPI PUSH1 0x0 DUP5 DUP5 ADD MSTORE JUMPDEST POP POP POP POP JUMP JUMPDEST PUSH1 0x0 PUSH1 0x2 DUP3 DIV SWAP1 POP PUSH1 0x1 DUP3 AND DUP1 PUSH2 0x42BE JUMPI PUSH1 0x7F DUP3 AND SWAP2 POP JUMPDEST PUSH1 0x20 DUP3 LT DUP2 EQ ISZERO PUSH2 0x42D2 JUMPI PUSH2 0x42D1 PUSH2 0x43B0 JUMP JUMPDEST JUMPDEST POP SWAP2 SWAP1 POP JUMP JUMPDEST PUSH2 0x42E1 DUP3 PUSH2 0x4451 JUMP JUMPDEST DUP2 ADD DUP2 DUP2 LT PUSH8 0xFFFFFFFFFFFFFFFF DUP3 GT OR ISZERO PUSH2 0x4300 JUMPI PUSH2 0x42FF PUSH2 0x440E JUMP JUMPDEST JUMPDEST DUP1 PUSH1 0x40 MSTORE POP POP POP JUMP JUMPDEST PUSH1 0x0 PUSH2 0x4314 DUP3 PUSH2 0x423B JUMP JUMPDEST SWAP2 POP PUSH32 0xFFFFFFFFFFFFFFFFFFFFFFFFFFFFFFFFFFFFFFFFFFFFFFFFFFFFFFFFFFFFFFFF DUP3 EQ ISZERO PUSH2 0x4347 JUMPI PUSH2 0x4346 PUSH2 0x4352 JUMP JUMPDEST JUMPDEST PUSH1 0x1 DUP3 ADD SWAP1 POP SWAP2 SWAP1 POP JUMP JUMPDEST PUSH32 0x4E487B7100000000000000000000000000000000000000000000000000000000 PUSH1 0x0 MSTORE PUSH1 0x11 PUSH1 0x4 MSTORE PUSH1 0x24 PUSH1 0x0 REVERT JUMPDEST PUSH32 0x4E487B7100000000000000000000000000000000000000000000000000000000 PUSH1 0x0 MSTORE PUSH1 0x21 PUSH1 0x4 MSTORE PUSH1 0x24 PUSH1 0x0 REVERT JUMPDEST PUSH32 0x4E487B7100000000000000000000000000000000000000000000000000000000 PUSH1 0x0 MSTORE PUSH1 0x22 PUSH1 0x4 MSTORE PUSH1 0x24 PUSH1 0x0 REVERT JUMPDEST PUSH32 0x4E487B7100000000000000000000000000000000000000000000000000000000 PUSH1 0x0 MSTORE PUSH1 0x32 PUSH1 0x4 MSTORE PUSH1 0x24 PUSH1 0x0 REVERT JUMPDEST PUSH32 0x4E487B7100000000000000000000000000000000000000000000000000000000 PUSH1 0x0 MSTORE PUSH1 0x41 PUSH1 0x4 MSTORE PUSH1 0x24 PUSH1 0x0 REVERT JUMPDEST PUSH1 0x0 DUP1 REVERT JUMPDEST PUSH1 0x0 DUP1 REVERT JUMPDEST PUSH1 0x0 DUP1 REVERT JUMPDEST PUSH1 0x0 DUP1 REVERT JUMPDEST PUSH1 0x0 PUSH1 0x1F NOT PUSH1 0x1F DUP4 ADD AND SWAP1 POP SWAP2 SWAP1 POP JUMP JUMPDEST PUSH32 0x43686172697479206E6F7420666F756E64000000000000000000000000000000 PUSH1 0x0 DUP3 ADD MSTORE POP JUMP JUMPDEST PUSH32 0x4E6F2070726F6A6563747320617661696C61626C6520666F7220616363657074 PUSH1 0x0 DUP3 ADD MSTORE PUSH32 0x696E6720646F6E6174696F6E7300000000000000000000000000000000000000 PUSH1 0x20 DUP3 ADD MSTORE POP JUMP JUMPDEST PUSH32 0x4E6F207375636820646F6E6F7220657869737420756E64657220746869732070 PUSH1 0x0 DUP3 ADD MSTORE PUSH32 0x726F6A65637420756E6465722074686973206368617269747900000000000000 PUSH1 0x20 DUP3 ADD MSTORE POP JUMP JUMPDEST PUSH32 0x596F757220636F6E747269627574696F6E206578636565647320726571756972 PUSH1 0x0 DUP3 ADD MSTORE PUSH32 0x656420616D6F756E742E00000000000000000000000000000000000000000000 PUSH1 0x20 DUP3 ADD MSTORE POP JUMP JUMPDEST PUSH32 0x4E6F2070726F6A6563747320666F756E6420756E646572207468697320636861 PUSH1 0x0 DUP3 ADD MSTORE PUSH32 0x7269747900000000000000000000000000000000000000000000000000000000 PUSH1 0x20 DUP3 ADD MSTORE POP JUMP JUMPDEST PUSH32 0x4E6F206368617269747920657869737420756E64657220746869732063686172 PUSH1 0x0 DUP3 ADD MSTORE PUSH32 0x6974792069640000000000000000000000000000000000000000000000000000 PUSH1 0x20 DUP3 ADD MSTORE POP JUMP JUMPDEST PUSH32 0x596F7520686176656E277420636F6E747269627574656420666F722074686973 PUSH1 0x0 DUP3 ADD MSTORE PUSH32 0x2070726F6A656374000000000000000000000000000000000000000000000000 PUSH1 0x20 DUP3 ADD MSTORE POP JUMP JUMPDEST PUSH32 0x53686F756C642062652067726561746572207468616E206F7220657175616C20 PUSH1 0x0 DUP3 ADD MSTORE PUSH32 0x746F206D696E696D756D20616D6F756E74000000000000000000000000000000 PUSH1 0x20 DUP3 ADD MSTORE POP JUMP JUMPDEST PUSH32 0x43616E277420726566756E642061732065786368616E67652072657175657374 PUSH1 0x0 DUP3 ADD MSTORE PUSH32 0x2077617320616C726561647920696E69746961746564207769746820626F6172 PUSH1 0x20 DUP3 ADD MSTORE PUSH32 0x6400000000000000000000000000000000000000000000000000000000000000 PUSH1 0x40 DUP3 ADD MSTORE POP JUMP JUMPDEST PUSH32 0x4E6F2070726F6A65637420697320637265617465642079657400000000000000 PUSH1 0x0 DUP3 ADD MSTORE POP JUMP JUMPDEST PUSH32 0x43616E277420726566756E642061732065786368616E67652072657175657374 PUSH1 0x0 DUP3 ADD MSTORE PUSH32 0x20776173206E6F742072656A65637465642062792074686520626F6172640000 PUSH1 0x20 DUP3 ADD MSTORE POP JUMP JUMPDEST PUSH32 0x4E6F2070726F6A65637420657869737420756E64657220746869732070726F6A PUSH1 0x0 DUP3 ADD MSTORE PUSH32 0x6563742069640000000000000000000000000000000000000000000000000000 PUSH1 0x20 DUP3 ADD MSTORE POP JUMP JUMPDEST PUSH32 0x4E6F2070726F6A65637420657869737420756E64657220746869732063686172 PUSH1 0x0 DUP3 ADD MSTORE PUSH32 0x6974790000000000000000000000000000000000000000000000000000000000 PUSH1 0x20 DUP3 ADD MSTORE POP JUMP JUMPDEST PUSH32 0x4E6F2070726F6A65637420657869737420756E64657220746869732070726F6A PUSH1 0x0 DUP3 ADD MSTORE PUSH32 0x6563744964000000000000000000000000000000000000000000000000000000 PUSH1 0x20 DUP3 ADD MSTORE POP JUMP JUMPDEST PUSH32 0x4E6F20737563682070726F6A65637420657869737420756E6465722074686973 PUSH1 0x0 DUP3 ADD MSTORE PUSH32 0x2063686172697479000000000000000000000000000000000000000000000000 PUSH1 0x20 DUP3 ADD MSTORE POP JUMP JUMPDEST PUSH32 0x546869732063686172697479206973206E6F742079657420617070726F766564 PUSH1 0x0 DUP3 ADD MSTORE POP JUMP JUMPDEST PUSH32 0x4E6F206368617269747920697320726567697374657265642079657400000000 PUSH1 0x0 DUP3 ADD MSTORE POP JUMP JUMPDEST PUSH32 0x4E6F206D6F726520646F6E6174696F6E7320616363657074656420666F722074 PUSH1 0x0 DUP3 ADD MSTORE PUSH32 0x6869732070726F6A6563742E0000000000000000000000000000000000000000 PUSH1 0x20 DUP3 ADD MSTORE POP JUMP JUMPDEST PUSH1 0xA DUP2 LT PUSH2 0x498F JUMPI PUSH2 0x498E PUSH2 0x4381 JUMP JUMPDEST JUMPDEST POP JUMP JUMPDEST PUSH2 0x499B DUP2 PUSH2 0x41EA JUMP JUMPDEST DUP2 EQ PUSH2 0x49A6 JUMPI PUSH1 0x0 DUP1 REVERT JUMPDEST POP JUMP JUMPDEST PUSH2 0x49B2 DUP2 PUSH2 0x41FC JUMP JUMPDEST DUP2 EQ PUSH2 0x49BD JUMPI PUSH1 0x0 DUP1 REVERT JUMPDEST POP JUMP JUMPDEST PUSH1 0xA DUP2 LT PUSH2 0x49CD JUMPI PUSH1 0x0 DUP1 REVERT JUMPDEST POP JUMP JUMPDEST PUSH2 0x49D9 DUP2 PUSH2 0x423B JUMP JUMPDEST DUP2 EQ PUSH2 0x49E4 JUMPI PUSH1 0x0 DUP1 REVERT JUMPDEST POP JUMP JUMPDEST PUSH2 0x49F0 DUP2 PUSH2 0x4245 JUMP JUMPDEST DUP2 EQ PUSH2 0x49FB JUMPI PUSH1 0x0 DUP1 REVERT JUMPDEST POP JUMP INVALID SLOAD PUSH9 0x6973206F7065726174 PUSH10 0x6F6E2063616E20626520 PUSH17 0x6572666F726D6564206F6E6C7920627920 TIMESTAMP PUSH16 0x6172642061646D696E596F7520617265 KECCAK256 PUSH15 0x6F7420617574686F72697A65642074 PUSH16 0x20757064617465207769746820746869 PUSH20 0x2073746174757354686973206F7065726174696F PUSH15 0x2063616E20626520706572666F726D PUSH6 0x64206F6E6C79 KECCAK256 PUSH3 0x792043 PUSH9 0x6172697479A2646970 PUSH7 0x73582212202F04 PUSH16 0xB7037B8E69E95199C1964EB040B5E45F 0x23 0xC8 0xEE 0xC5 0xD1 0xC8 CALLDATACOPY SHL LOG4 SLOAD 0xED AND EXTCODESIZE PUSH5 0x736F6C6343 STOP ADDMOD SMOD STOP CALLER "
				},
				"gasEstimates": {
					"creation": {
						"codeDepositCost": "3828600",
						"executionCost": "infinite",
						"totalCost": "infinite"
					},
					"external": {
						"boardAdmin()": "2603",
						"charities(uint256)": "infinite",
						"createCharity(uint256,string,address)": "infinite",
						"createProject(uint256,uint256,uint256,uint256,address,string)": "infinite",
						"donate(uint256,uint256,uint256,uint256)": "infinite",
						"getDonorBalance(uint256,uint256,uint256)": "infinite",
						"getProjectFundDetails(uint256,uint256)": "infinite",
						"getProjectListByCharity(uint256)": "infinite",
						"getProjectOwnerBalance(uint256,uint256)": "infinite",
						"getProjectStatus(uint256,uint256)": "infinite",
						"getRefund(uint256,uint256)": "infinite",
						"projectStatus()": "2650",
						"projectStatuses(uint8)": "infinite",
						"projects(uint256)": "infinite",
						"updateCharityStatus(uint256,bool,string)": "infinite",
						"updateProjectStatusByAdmin(uint256,uint256,uint8)": "infinite",
						"updateProjectStatusByCharity(uint256,uint256,uint8)": "infinite"
					},
					"internal": {
						"refundToAllDonors(uint256,uint256)": "infinite",
						"tranferToReceiver(uint256,uint256)": "infinite"
					}
				},
				"methodIdentifiers": {
					"boardAdmin()": "b61a7f76",
					"charities(uint256)": "fb709d2e",
					"createCharity(uint256,string,address)": "141020cc",
					"createProject(uint256,uint256,uint256,uint256,address,string)": "b9d093bf",
					"donate(uint256,uint256,uint256,uint256)": "e8620d14",
					"getDonorBalance(uint256,uint256,uint256)": "cfc3d434",
					"getProjectFundDetails(uint256,uint256)": "1ed056d8",
					"getProjectListByCharity(uint256)": "a0fd6622",
					"getProjectOwnerBalance(uint256,uint256)": "17f308b5",
					"getProjectStatus(uint256,uint256)": "9d8e7e89",
					"getRefund(uint256,uint256)": "85fa74bc",
					"projectStatus()": "1ab33308",
					"projectStatuses(uint8)": "ef6add32",
					"projects(uint256)": "107046bd",
					"updateCharityStatus(uint256,bool,string)": "ace1bcf8",
					"updateProjectStatusByAdmin(uint256,uint256,uint8)": "5ea34326",
					"updateProjectStatusByCharity(uint256,uint256,uint8)": "85a93223"
				}
			},
			"storageLayout": {
				"storage": [
					{
						"astId": 54,
						"contract": "contracts/CrowdFund.sol:CrowdFund",
						"label": "projects",
						"offset": 0,
						"slot": "0",
						"type": "t_array(t_struct(Project)30_storage)dyn_storage"
					},
					{
						"astId": 58,
						"contract": "contracts/CrowdFund.sol:CrowdFund",
						"label": "charities",
						"offset": 0,
						"slot": "1",
						"type": "t_array(t_struct(Charity)41_storage)dyn_storage"
					},
					{
						"astId": 60,
						"contract": "contracts/CrowdFund.sol:CrowdFund",
						"label": "boardAdmin",
						"offset": 0,
						"slot": "2",
						"type": "t_address"
					},
					{
						"astId": 66,
						"contract": "contracts/CrowdFund.sol:CrowdFund",
						"label": "charityProjects",
						"offset": 0,
						"slot": "3",
						"type": "t_mapping(t_uint256,t_array(t_struct(Project)30_storage)dyn_storage)"
					},
					{
						"astId": 70,
						"contract": "contracts/CrowdFund.sol:CrowdFund",
						"label": "approvedCharities",
						"offset": 0,
						"slot": "4",
						"type": "t_mapping(t_uint256,t_bool)"
					},
					{
						"astId": 76,
						"contract": "contracts/CrowdFund.sol:CrowdFund",
						"label": "projectDonors",
						"offset": 0,
						"slot": "5",
						"type": "t_mapping(t_uint256,t_array(t_struct(Donor)50_storage)dyn_storage)"
					},
					{
						"astId": 163,
						"contract": "contracts/CrowdFund.sol:CrowdFund",
						"label": "projectStatus",
						"offset": 0,
						"slot": "6",
						"type": "t_enum(ProjectStatus)12"
					},
					{
						"astId": 168,
						"contract": "contracts/CrowdFund.sol:CrowdFund",
						"label": "projectStatuses",
						"offset": 0,
						"slot": "7",
						"type": "t_mapping(t_enum(ProjectStatus)12,t_string_storage)"
					}
				],
				"types": {
					"t_address": {
						"encoding": "inplace",
						"label": "address",
						"numberOfBytes": "20"
					},
					"t_array(t_struct(Charity)41_storage)dyn_storage": {
						"base": "t_struct(Charity)41_storage",
						"encoding": "dynamic_array",
						"label": "struct CrowdFund.Charity[]",
						"numberOfBytes": "32"
					},
					"t_array(t_struct(Donor)50_storage)dyn_storage": {
						"base": "t_struct(Donor)50_storage",
						"encoding": "dynamic_array",
						"label": "struct CrowdFund.Donor[]",
						"numberOfBytes": "32"
					},
					"t_array(t_struct(Project)30_storage)dyn_storage": {
						"base": "t_struct(Project)30_storage",
						"encoding": "dynamic_array",
						"label": "struct CrowdFund.Project[]",
						"numberOfBytes": "32"
					},
					"t_bool": {
						"encoding": "inplace",
						"label": "bool",
						"numberOfBytes": "1"
					},
					"t_enum(ProjectStatus)12": {
						"encoding": "inplace",
						"label": "enum CrowdFund.ProjectStatus",
						"numberOfBytes": "1"
					},
					"t_mapping(t_enum(ProjectStatus)12,t_string_storage)": {
						"encoding": "mapping",
						"key": "t_enum(ProjectStatus)12",
						"label": "mapping(enum CrowdFund.ProjectStatus => string)",
						"numberOfBytes": "32",
						"value": "t_string_storage"
					},
					"t_mapping(t_uint256,t_array(t_struct(Donor)50_storage)dyn_storage)": {
						"encoding": "mapping",
						"key": "t_uint256",
						"label": "mapping(uint256 => struct CrowdFund.Donor[])",
						"numberOfBytes": "32",
						"value": "t_array(t_struct(Donor)50_storage)dyn_storage"
					},
					"t_mapping(t_uint256,t_array(t_struct(Project)30_storage)dyn_storage)": {
						"encoding": "mapping",
						"key": "t_uint256",
						"label": "mapping(uint256 => struct CrowdFund.Project[])",
						"numberOfBytes": "32",
						"value": "t_array(t_struct(Project)30_storage)dyn_storage"
					},
					"t_mapping(t_uint256,t_bool)": {
						"encoding": "mapping",
						"key": "t_uint256",
						"label": "mapping(uint256 => bool)",
						"numberOfBytes": "32",
						"value": "t_bool"
					},
					"t_mapping(t_uint256,t_uint256)": {
						"encoding": "mapping",
						"key": "t_uint256",
						"label": "mapping(uint256 => uint256)",
						"numberOfBytes": "32",
						"value": "t_uint256"
					},
					"t_string_storage": {
						"encoding": "bytes",
						"label": "string",
						"numberOfBytes": "32"
					},
					"t_struct(Charity)41_storage": {
						"encoding": "inplace",
						"label": "struct CrowdFund.Charity",
						"members": [
							{
								"astId": 32,
								"contract": "contracts/CrowdFund.sol:CrowdFund",
								"label": "charityId",
								"offset": 0,
								"slot": "0",
								"type": "t_uint256"
							},
							{
								"astId": 34,
								"contract": "contracts/CrowdFund.sol:CrowdFund",
								"label": "approved",
								"offset": 0,
								"slot": "1",
								"type": "t_bool"
							},
							{
								"astId": 36,
								"contract": "contracts/CrowdFund.sol:CrowdFund",
								"label": "reason",
								"offset": 0,
								"slot": "2",
								"type": "t_string_storage"
							},
							{
								"astId": 38,
								"contract": "contracts/CrowdFund.sol:CrowdFund",
								"label": "licenseDocsLink",
								"offset": 0,
								"slot": "3",
								"type": "t_string_storage"
							},
							{
								"astId": 40,
								"contract": "contracts/CrowdFund.sol:CrowdFund",
								"label": "owner",
								"offset": 0,
								"slot": "4",
								"type": "t_address"
							}
						],
						"numberOfBytes": "160"
					},
					"t_struct(Donor)50_storage": {
						"encoding": "inplace",
						"label": "struct CrowdFund.Donor",
						"members": [
							{
								"astId": 43,
								"contract": "contracts/CrowdFund.sol:CrowdFund",
								"label": "donorId",
								"offset": 0,
								"slot": "0",
								"type": "t_uint256"
							},
							{
								"astId": 45,
								"contract": "contracts/CrowdFund.sol:CrowdFund",
								"label": "owner",
								"offset": 0,
								"slot": "1",
								"type": "t_address"
							},
							{
								"astId": 49,
								"contract": "contracts/CrowdFund.sol:CrowdFund",
								"label": "projectwiseContributions",
								"offset": 0,
								"slot": "2",
								"type": "t_mapping(t_uint256,t_uint256)"
							}
						],
						"numberOfBytes": "96"
					},
					"t_struct(Project)30_storage": {
						"encoding": "inplace",
						"label": "struct CrowdFund.Project",
						"members": [
							{
								"astId": 14,
								"contract": "contracts/CrowdFund.sol:CrowdFund",
								"label": "projectId",
								"offset": 0,
								"slot": "0",
								"type": "t_uint256"
							},
							{
								"astId": 16,
								"contract": "contracts/CrowdFund.sol:CrowdFund",
								"label": "minimumAmount",
								"offset": 0,
								"slot": "1",
								"type": "t_uint256"
							},
							{
								"astId": 18,
								"contract": "contracts/CrowdFund.sol:CrowdFund",
								"label": "goal",
								"offset": 0,
								"slot": "2",
								"type": "t_uint256"
							},
							{
								"astId": 20,
								"contract": "contracts/CrowdFund.sol:CrowdFund",
								"label": "raisedAmount",
								"offset": 0,
								"slot": "3",
								"type": "t_uint256"
							},
							{
								"astId": 22,
								"contract": "contracts/CrowdFund.sol:CrowdFund",
								"label": "owner",
								"offset": 0,
								"slot": "4",
								"type": "t_address"
							},
							{
								"astId": 24,
								"contract": "contracts/CrowdFund.sol:CrowdFund",
								"label": "acceptDonation",
								"offset": 20,
								"slot": "4",
								"type": "t_bool"
							},
							{
								"astId": 26,
								"contract": "contracts/CrowdFund.sol:CrowdFund",
								"label": "documentLink",
								"offset": 0,
								"slot": "5",
								"type": "t_string_storage"
							},
							{
								"astId": 29,
								"contract": "contracts/CrowdFund.sol:CrowdFund",
								"label": "projectStatus",
								"offset": 0,
								"slot": "6",
								"type": "t_enum(ProjectStatus)12"
							}
						],
						"numberOfBytes": "224"
					},
					"t_uint256": {
						"encoding": "inplace",
						"label": "uint256",
						"numberOfBytes": "32"
					}
				}
			},
			"userdoc": {
				"kind": "user",
				"methods": {},
				"version": 1
			}
		}
	}
}