{
	"contracts/CrowdFund.sol": {
		"CrowdFund": {
			"abi": [
				{
					"inputs": [],
					"stateMutability": "nonpayable",
					"type": "constructor"
				},
				{
					"anonymous": false,
					"inputs": [
						{
							"indexed": false,
							"internalType": "uint256",
							"name": "charityId",
							"type": "uint256"
						},
						{
							"indexed": false,
							"internalType": "uint256",
							"name": "projectId",
							"type": "uint256"
						},
						{
							"indexed": false,
							"internalType": "enum CrowdFund.ProjectStatus",
							"name": "projectStatus",
							"type": "uint8"
						}
					],
					"name": "BoardMessageToCharity",
					"type": "event"
				},
				{
					"anonymous": false,
					"inputs": [
						{
							"indexed": false,
							"internalType": "uint256",
							"name": "charityId",
							"type": "uint256"
						},
						{
							"indexed": false,
							"internalType": "uint256",
							"name": "projectId",
							"type": "uint256"
						},
						{
							"indexed": false,
							"internalType": "enum CrowdFund.ProjectStatus",
							"name": "projectStatus",
							"type": "uint8"
						}
					],
					"name": "CharityMessageToBoard",
					"type": "event"
				},
				{
					"anonymous": false,
					"inputs": [
						{
							"indexed": false,
							"internalType": "uint256",
							"name": "charityId",
							"type": "uint256"
						},
						{
							"indexed": false,
							"internalType": "uint256",
							"name": "projectId",
							"type": "uint256"
						},
						{
							"indexed": false,
							"internalType": "enum CrowdFund.ProjectStatus",
							"name": "projectStatus",
							"type": "uint8"
						}
					],
					"name": "CharityMessageToDonor",
					"type": "event"
				},
				{
					"anonymous": false,
					"inputs": [
						{
							"indexed": false,
							"internalType": "uint256",
							"name": "charityId",
							"type": "uint256"
						},
						{
							"indexed": false,
							"internalType": "uint256",
							"name": "projectId",
							"type": "uint256"
						},
						{
							"indexed": false,
							"internalType": "enum CrowdFund.ProjectStatus",
							"name": "projectStatus",
							"type": "uint8"
						}
					],
					"name": "CharityMessageToReceiver",
					"type": "event"
				},
				{
					"anonymous": false,
					"inputs": [
						{
							"indexed": false,
							"internalType": "uint256",
							"name": "charityId",
							"type": "uint256"
						},
						{
							"indexed": false,
							"internalType": "uint256",
							"name": "projectId",
							"type": "uint256"
						},
						{
							"indexed": false,
							"internalType": "enum CrowdFund.ProjectStatus",
							"name": "projectStatus",
							"type": "uint8"
						}
					],
					"name": "ReceiverMessageToCharity",
					"type": "event"
				},
				{
					"inputs": [
						{
							"internalType": "uint256",
							"name": "index",
							"type": "uint256"
						},
						{
							"internalType": "uint256",
							"name": "charityId",
							"type": "uint256"
						}
					],
					"name": "approveCharity",
					"outputs": [],
					"stateMutability": "nonpayable",
					"type": "function"
				},
				{
					"inputs": [],
					"name": "boardAdmin",
					"outputs": [
						{
							"internalType": "address",
							"name": "",
							"type": "address"
						}
					],
					"stateMutability": "view",
					"type": "function"
				},
				{
					"inputs": [
						{
							"internalType": "uint256",
							"name": "projectId",
							"type": "uint256"
						},
						{
							"internalType": "uint256",
							"name": "charityId",
							"type": "uint256"
						},
						{
							"internalType": "uint8",
							"name": "enumValue",
							"type": "uint8"
						}
					],
					"name": "changeProjectStatus",
					"outputs": [],
					"stateMutability": "nonpayable",
					"type": "function"
				},
				{
					"inputs": [
						{
							"internalType": "uint256",
							"name": "",
							"type": "uint256"
						}
					],
					"name": "charities",
					"outputs": [
						{
							"internalType": "uint256",
							"name": "charityId",
							"type": "uint256"
						},
						{
							"internalType": "bool",
							"name": "approved",
							"type": "bool"
						},
						{
							"internalType": "string",
							"name": "reason",
							"type": "string"
						},
						{
							"internalType": "string",
							"name": "licenseDocsLink",
							"type": "string"
						},
						{
							"internalType": "address",
							"name": "owner",
							"type": "address"
						}
					],
					"stateMutability": "view",
					"type": "function"
				},
				{
					"inputs": [
						{
							"internalType": "uint256",
							"name": "_charityId",
							"type": "uint256"
						},
						{
							"internalType": "string",
							"name": "_licenseDocsLink",
							"type": "string"
						},
						{
							"internalType": "address",
							"name": "charity",
							"type": "address"
						}
					],
					"name": "createCharity",
					"outputs": [],
					"stateMutability": "nonpayable",
					"type": "function"
				},
				{
					"inputs": [
						{
							"internalType": "uint256",
							"name": "charityId",
							"type": "uint256"
						},
						{
							"internalType": "uint256",
							"name": "_projectId",
							"type": "uint256"
						},
						{
							"internalType": "uint256",
							"name": "_goal",
							"type": "uint256"
						},
						{
							"internalType": "address",
							"name": "owner",
							"type": "address"
						},
						{
							"internalType": "string",
							"name": "_documentLink",
							"type": "string"
						}
					],
					"name": "createProject",
					"outputs": [],
					"stateMutability": "nonpayable",
					"type": "function"
				},
				{
					"inputs": [
						{
							"internalType": "uint256",
							"name": "charityId",
							"type": "uint256"
						},
						{
							"internalType": "uint256",
							"name": "projectId",
							"type": "uint256"
						},
						{
							"internalType": "uint256",
							"name": "donorId",
							"type": "uint256"
						}
					],
					"name": "donate",
					"outputs": [],
					"stateMutability": "payable",
					"type": "function"
				},
				{
					"inputs": [
						{
							"internalType": "uint256",
							"name": "charityId",
							"type": "uint256"
						},
						{
							"internalType": "uint256",
							"name": "projectId",
							"type": "uint256"
						}
					],
					"name": "getProjectFundDetails",
					"outputs": [
						{
							"internalType": "uint256",
							"name": "",
							"type": "uint256"
						},
						{
							"internalType": "uint256",
							"name": "",
							"type": "uint256"
						},
						{
							"internalType": "uint256",
							"name": "",
							"type": "uint256"
						}
					],
					"stateMutability": "view",
					"type": "function"
				},
				{
					"inputs": [
						{
							"internalType": "uint256",
							"name": "charityId",
							"type": "uint256"
						},
						{
							"internalType": "uint256",
							"name": "projectId",
							"type": "uint256"
						}
					],
					"name": "getProjectStatus",
					"outputs": [
						{
							"internalType": "string",
							"name": "",
							"type": "string"
						}
					],
					"stateMutability": "view",
					"type": "function"
				},
				{
					"inputs": [
						{
							"internalType": "uint256",
							"name": "charityId",
							"type": "uint256"
						},
						{
							"internalType": "uint256",
							"name": "projectId",
							"type": "uint256"
						}
					],
					"name": "getRefund",
					"outputs": [],
					"stateMutability": "nonpayable",
					"type": "function"
				},
				{
					"inputs": [],
					"name": "projectStatus",
					"outputs": [
						{
							"internalType": "enum CrowdFund.ProjectStatus",
							"name": "",
							"type": "uint8"
						}
					],
					"stateMutability": "view",
					"type": "function"
				},
				{
					"inputs": [
						{
							"internalType": "enum CrowdFund.ProjectStatus",
							"name": "",
							"type": "uint8"
						}
					],
					"name": "projectStatuses",
					"outputs": [
						{
							"internalType": "string",
							"name": "",
							"type": "string"
						}
					],
					"stateMutability": "view",
					"type": "function"
				},
				{
					"inputs": [
						{
							"internalType": "uint256",
							"name": "",
							"type": "uint256"
						}
					],
					"name": "projects",
					"outputs": [
						{
							"internalType": "uint256",
							"name": "projectId",
							"type": "uint256"
						},
						{
							"internalType": "uint256",
							"name": "minimumAmount",
							"type": "uint256"
						},
						{
							"internalType": "uint256",
							"name": "goal",
							"type": "uint256"
						},
						{
							"internalType": "uint256",
							"name": "raisedAmount",
							"type": "uint256"
						},
						{
							"internalType": "address",
							"name": "owner",
							"type": "address"
						},
						{
							"internalType": "bool",
							"name": "acceptDonation",
							"type": "bool"
						},
						{
							"internalType": "string",
							"name": "documentLink",
							"type": "string"
						},
						{
							"internalType": "enum CrowdFund.ProjectStatus",
							"name": "projectStatus",
							"type": "uint8"
						}
					],
					"stateMutability": "view",
					"type": "function"
				},
				{
					"inputs": [
						{
							"internalType": "uint256",
							"name": "charityId",
							"type": "uint256"
						},
						{
							"internalType": "uint256",
							"name": "projectId",
							"type": "uint256"
						}
					],
					"name": "refundToAllDonors",
					"outputs": [],
					"stateMutability": "nonpayable",
					"type": "function"
				},
				{
					"inputs": [
						{
							"internalType": "uint256",
							"name": "index",
							"type": "uint256"
						},
						{
							"internalType": "string",
							"name": "reason",
							"type": "string"
						}
					],
					"name": "rejectCharity",
					"outputs": [],
					"stateMutability": "nonpayable",
					"type": "function"
				},
				{
					"inputs": [
						{
							"internalType": "uint256",
							"name": "projectId",
							"type": "uint256"
						},
						{
							"internalType": "uint256",
							"name": "charityId",
							"type": "uint256"
						},
						{
							"internalType": "uint8",
							"name": "enumValue",
							"type": "uint8"
						}
					],
					"name": "updateProjectStatus",
					"outputs": [],
					"stateMutability": "nonpayable",
					"type": "function"
				}
			],
			"devdoc": {
				"kind": "dev",
				"methods": {},
				"version": 1
			},
			"evm": {
				"assembly": "    /* \"contracts/CrowdFund.sol\":70:17967  contract CrowdFund {... */\n  mstore(0x40, 0x80)\n    /* \"contracts/CrowdFund.sol\":3245:3800  constructor () {... */\n  callvalue\n  dup1\n  iszero\n  tag_1\n  jumpi\n  0x00\n  dup1\n  revert\ntag_1:\n  pop\n    /* \"contracts/CrowdFund.sol\":3283:3293  msg.sender */\n  caller\n    /* \"contracts/CrowdFund.sol\":3270:3280  boardAdmin */\n  0x02\n  0x00\n    /* \"contracts/CrowdFund.sol\":3270:3293  boardAdmin = msg.sender */\n  0x0100\n  exp\n  dup2\n  sload\n  dup2\n  0xffffffffffffffffffffffffffffffffffffffff\n  mul\n  not\n  and\n  swap1\n  dup4\n  0xffffffffffffffffffffffffffffffffffffffff\n  and\n  mul\n  or\n  swap1\n  sstore\n  pop\n    /* \"contracts/CrowdFund.sol\":3340:3343  WFA */\n  mload(0x40)\n  dup1\n  0x40\n  add\n  0x40\n  mstore\n  dup1\n  0x14\n  dup2\n  mstore\n  0x20\n  add\n  0x57616974696e6720666f7220617070726f76616c000000000000000000000000\n  dup2\n  mstore\n  pop\n    /* \"contracts/CrowdFund.sol\":3303:3318  projectStatuses */\n  0x07\n    /* \"contracts/CrowdFund.sol\":3303:3337  projectStatuses[ProjectStatus.WFA] */\n  0x00\n    /* \"contracts/CrowdFund.sol\":3319:3336  ProjectStatus.WFA */\n  dup1\n    /* \"contracts/CrowdFund.sol\":3303:3337  projectStatuses[ProjectStatus.WFA] */\n  0x09\n  dup2\n  gt\n  iszero\n  tag_4\n  jumpi\n  tag_5\n  tag_6\n  jump\t// in\ntag_5:\ntag_4:\n  0x09\n  dup2\n  gt\n  iszero\n  tag_7\n  jumpi\n  tag_8\n  tag_6\n  jump\t// in\ntag_8:\ntag_7:\n  dup2\n  mstore\n  0x20\n  add\n  swap1\n  dup2\n  mstore\n  0x20\n  add\n  0x00\n  keccak256\n    /* \"contracts/CrowdFund.sol\":3303:3343  projectStatuses[ProjectStatus.WFA] = WFA */\n  swap1\n  dup1\n  mload\n  swap1\n  0x20\n  add\n  swap1\n  tag_9\n  swap3\n  swap2\n  swap1\n  tag_10\n  jump\t// in\ntag_9:\n  pop\n    /* \"contracts/CrowdFund.sol\":3390:3393  APR */\n  mload(0x40)\n  dup1\n  0x40\n  add\n  0x40\n  mstore\n  dup1\n  0x08\n  dup2\n  mstore\n  0x20\n  add\n  0x417070726f766564000000000000000000000000000000000000000000000000\n  dup2\n  mstore\n  pop\n    /* \"contracts/CrowdFund.sol\":3353:3368  projectStatuses */\n  0x07\n    /* \"contracts/CrowdFund.sol\":3353:3387  projectStatuses[ProjectStatus.APR] */\n  0x00\n    /* \"contracts/CrowdFund.sol\":3369:3386  ProjectStatus.APR */\n  0x02\n    /* \"contracts/CrowdFund.sol\":3353:3387  projectStatuses[ProjectStatus.APR] */\n  0x09\n  dup2\n  gt\n  iszero\n  tag_11\n  jumpi\n  tag_12\n  tag_6\n  jump\t// in\ntag_12:\ntag_11:\n  0x09\n  dup2\n  gt\n  iszero\n  tag_13\n  jumpi\n  tag_14\n  tag_6\n  jump\t// in\ntag_14:\ntag_13:\n  dup2\n  mstore\n  0x20\n  add\n  swap1\n  dup2\n  mstore\n  0x20\n  add\n  0x00\n  keccak256\n    /* \"contracts/CrowdFund.sol\":3353:3393  projectStatuses[ProjectStatus.APR] = APR */\n  swap1\n  dup1\n  mload\n  swap1\n  0x20\n  add\n  swap1\n  tag_15\n  swap3\n  swap2\n  swap1\n  tag_10\n  jump\t// in\ntag_15:\n  pop\n    /* \"contracts/CrowdFund.sol\":3440:3443  RJC */\n  mload(0x40)\n  dup1\n  0x40\n  add\n  0x40\n  mstore\n  dup1\n  0x13\n  dup2\n  mstore\n  0x20\n  add\n  0x52656a6563746564206279206368617269747900000000000000000000000000\n  dup2\n  mstore\n  pop\n    /* \"contracts/CrowdFund.sol\":3403:3418  projectStatuses */\n  0x07\n    /* \"contracts/CrowdFund.sol\":3403:3437  projectStatuses[ProjectStatus.RJC] */\n  0x00\n    /* \"contracts/CrowdFund.sol\":3419:3436  ProjectStatus.RJC */\n  0x01\n    /* \"contracts/CrowdFund.sol\":3403:3437  projectStatuses[ProjectStatus.RJC] */\n  0x09\n  dup2\n  gt\n  iszero\n  tag_16\n  jumpi\n  tag_17\n  tag_6\n  jump\t// in\ntag_17:\ntag_16:\n  0x09\n  dup2\n  gt\n  iszero\n  tag_18\n  jumpi\n  tag_19\n  tag_6\n  jump\t// in\ntag_19:\ntag_18:\n  dup2\n  mstore\n  0x20\n  add\n  swap1\n  dup2\n  mstore\n  0x20\n  add\n  0x00\n  keccak256\n    /* \"contracts/CrowdFund.sol\":3403:3443  projectStatuses[ProjectStatus.RJC] = RJC */\n  swap1\n  dup1\n  mload\n  swap1\n  0x20\n  add\n  swap1\n  tag_20\n  swap3\n  swap2\n  swap1\n  tag_10\n  jump\t// in\ntag_20:\n  pop\n    /* \"contracts/CrowdFund.sol\":3490:3493  PGA */\n  mload(0x40)\n  dup1\n  0x40\n  add\n  0x40\n  mstore\n  dup1\n  0x15\n  dup2\n  mstore\n  0x20\n  add\n  0x50726f6a65637420676f616c2061636869657665640000000000000000000000\n  dup2\n  mstore\n  pop\n    /* \"contracts/CrowdFund.sol\":3453:3468  projectStatuses */\n  0x07\n    /* \"contracts/CrowdFund.sol\":3453:3487  projectStatuses[ProjectStatus.PGA] */\n  0x00\n    /* \"contracts/CrowdFund.sol\":3469:3486  ProjectStatus.PGA */\n  0x03\n    /* \"contracts/CrowdFund.sol\":3453:3487  projectStatuses[ProjectStatus.PGA] */\n  0x09\n  dup2\n  gt\n  iszero\n  tag_21\n  jumpi\n  tag_22\n  tag_6\n  jump\t// in\ntag_22:\ntag_21:\n  0x09\n  dup2\n  gt\n  iszero\n  tag_23\n  jumpi\n  tag_24\n  tag_6\n  jump\t// in\ntag_24:\ntag_23:\n  dup2\n  mstore\n  0x20\n  add\n  swap1\n  dup2\n  mstore\n  0x20\n  add\n  0x00\n  keccak256\n    /* \"contracts/CrowdFund.sol\":3453:3493  projectStatuses[ProjectStatus.PGA] = PGA */\n  swap1\n  dup1\n  mload\n  swap1\n  0x20\n  add\n  swap1\n  tag_25\n  swap3\n  swap2\n  swap1\n  tag_10\n  jump\t// in\ntag_25:\n  pop\n    /* \"contracts/CrowdFund.sol\":3540:3543  XRQ */\n  mload(0x40)\n  dup1\n  0x40\n  add\n  0x40\n  mstore\n  dup1\n  0x12\n  dup2\n  mstore\n  0x20\n  add\n  0x45786368616e6765207265717565737465640000000000000000000000000000\n  dup2\n  mstore\n  pop\n    /* \"contracts/CrowdFund.sol\":3503:3518  projectStatuses */\n  0x07\n    /* \"contracts/CrowdFund.sol\":3503:3537  projectStatuses[ProjectStatus.XRQ] */\n  0x00\n    /* \"contracts/CrowdFund.sol\":3519:3536  ProjectStatus.XRQ */\n  0x04\n    /* \"contracts/CrowdFund.sol\":3503:3537  projectStatuses[ProjectStatus.XRQ] */\n  0x09\n  dup2\n  gt\n  iszero\n  tag_26\n  jumpi\n  tag_27\n  tag_6\n  jump\t// in\ntag_27:\ntag_26:\n  0x09\n  dup2\n  gt\n  iszero\n  tag_28\n  jumpi\n  tag_29\n  tag_6\n  jump\t// in\ntag_29:\ntag_28:\n  dup2\n  mstore\n  0x20\n  add\n  swap1\n  dup2\n  mstore\n  0x20\n  add\n  0x00\n  keccak256\n    /* \"contracts/CrowdFund.sol\":3503:3543  projectStatuses[ProjectStatus.XRQ] = XRQ */\n  swap1\n  dup1\n  mload\n  swap1\n  0x20\n  add\n  swap1\n  tag_30\n  swap3\n  swap2\n  swap1\n  tag_10\n  jump\t// in\ntag_30:\n  pop\n    /* \"contracts/CrowdFund.sol\":3590:3593  XRR */\n  mload(0x40)\n  dup1\n  0x40\n  add\n  0x40\n  mstore\n  dup1\n  0x19\n  dup2\n  mstore\n  0x20\n  add\n  0x45786368616e6765207265717565737420726563656976656400000000000000\n  dup2\n  mstore\n  pop\n    /* \"contracts/CrowdFund.sol\":3553:3568  projectStatuses */\n  0x07\n    /* \"contracts/CrowdFund.sol\":3553:3587  projectStatuses[ProjectStatus.XRR] */\n  0x00\n    /* \"contracts/CrowdFund.sol\":3569:3586  ProjectStatus.XRR */\n  0x05\n    /* \"contracts/CrowdFund.sol\":3553:3587  projectStatuses[ProjectStatus.XRR] */\n  0x09\n  dup2\n  gt\n  iszero\n  tag_31\n  jumpi\n  tag_32\n  tag_6\n  jump\t// in\ntag_32:\ntag_31:\n  0x09\n  dup2\n  gt\n  iszero\n  tag_33\n  jumpi\n  tag_34\n  tag_6\n  jump\t// in\ntag_34:\ntag_33:\n  dup2\n  mstore\n  0x20\n  add\n  swap1\n  dup2\n  mstore\n  0x20\n  add\n  0x00\n  keccak256\n    /* \"contracts/CrowdFund.sol\":3553:3593  projectStatuses[ProjectStatus.XRR] = XRR */\n  swap1\n  dup1\n  mload\n  swap1\n  0x20\n  add\n  swap1\n  tag_35\n  swap3\n  swap2\n  swap1\n  tag_10\n  jump\t// in\ntag_35:\n  pop\n    /* \"contracts/CrowdFund.sol\":3640:3643  XRA */\n  mload(0x40)\n  dup1\n  0x40\n  add\n  0x40\n  mstore\n  dup1\n  0x19\n  dup2\n  mstore\n  0x20\n  add\n  0x45786368616e6765207265717565737420617070726f76656400000000000000\n  dup2\n  mstore\n  pop\n    /* \"contracts/CrowdFund.sol\":3603:3618  projectStatuses */\n  0x07\n    /* \"contracts/CrowdFund.sol\":3603:3637  projectStatuses[ProjectStatus.XRA] */\n  0x00\n    /* \"contracts/CrowdFund.sol\":3619:3636  ProjectStatus.XRA */\n  0x06\n    /* \"contracts/CrowdFund.sol\":3603:3637  projectStatuses[ProjectStatus.XRA] */\n  0x09\n  dup2\n  gt\n  iszero\n  tag_36\n  jumpi\n  tag_37\n  tag_6\n  jump\t// in\ntag_37:\ntag_36:\n  0x09\n  dup2\n  gt\n  iszero\n  tag_38\n  jumpi\n  tag_39\n  tag_6\n  jump\t// in\ntag_39:\ntag_38:\n  dup2\n  mstore\n  0x20\n  add\n  swap1\n  dup2\n  mstore\n  0x20\n  add\n  0x00\n  keccak256\n    /* \"contracts/CrowdFund.sol\":3603:3643  projectStatuses[ProjectStatus.XRA] = XRA */\n  swap1\n  dup1\n  mload\n  swap1\n  0x20\n  add\n  swap1\n  tag_40\n  swap3\n  swap2\n  swap1\n  tag_10\n  jump\t// in\ntag_40:\n  pop\n    /* \"contracts/CrowdFund.sol\":3690:3693  XRJ */\n  mload(0x40)\n  dup1\n  0x40\n  add\n  0x40\n  mstore\n  dup1\n  0x19\n  dup2\n  mstore\n  0x20\n  add\n  0x45786368616e676520726571756573742072656a656374656400000000000000\n  dup2\n  mstore\n  pop\n    /* \"contracts/CrowdFund.sol\":3653:3668  projectStatuses */\n  0x07\n    /* \"contracts/CrowdFund.sol\":3653:3687  projectStatuses[ProjectStatus.XRJ] */\n  0x00\n    /* \"contracts/CrowdFund.sol\":3669:3686  ProjectStatus.XRJ */\n  0x07\n    /* \"contracts/CrowdFund.sol\":3653:3687  projectStatuses[ProjectStatus.XRJ] */\n  0x09\n  dup2\n  gt\n  iszero\n  tag_41\n  jumpi\n  tag_42\n  tag_6\n  jump\t// in\ntag_42:\ntag_41:\n  0x09\n  dup2\n  gt\n  iszero\n  tag_43\n  jumpi\n  tag_44\n  tag_6\n  jump\t// in\ntag_44:\ntag_43:\n  dup2\n  mstore\n  0x20\n  add\n  swap1\n  dup2\n  mstore\n  0x20\n  add\n  0x00\n  keccak256\n    /* \"contracts/CrowdFund.sol\":3653:3693  projectStatuses[ProjectStatus.XRJ] = XRJ */\n  swap1\n  dup1\n  mload\n  swap1\n  0x20\n  add\n  swap1\n  tag_45\n  swap3\n  swap2\n  swap1\n  tag_10\n  jump\t// in\ntag_45:\n  pop\n    /* \"contracts/CrowdFund.sol\":3740:3743  RFD */\n  mload(0x40)\n  dup1\n  0x40\n  add\n  0x40\n  mstore\n  dup1\n  0x0e\n  dup2\n  mstore\n  0x20\n  add\n  0x46756e647320726566756e646564000000000000000000000000000000000000\n  dup2\n  mstore\n  pop\n    /* \"contracts/CrowdFund.sol\":3703:3718  projectStatuses */\n  0x07\n    /* \"contracts/CrowdFund.sol\":3703:3737  projectStatuses[ProjectStatus.RFD] */\n  0x00\n    /* \"contracts/CrowdFund.sol\":3719:3736  ProjectStatus.RFD */\n  0x08\n    /* \"contracts/CrowdFund.sol\":3703:3737  projectStatuses[ProjectStatus.RFD] */\n  0x09\n  dup2\n  gt\n  iszero\n  tag_46\n  jumpi\n  tag_47\n  tag_6\n  jump\t// in\ntag_47:\ntag_46:\n  0x09\n  dup2\n  gt\n  iszero\n  tag_48\n  jumpi\n  tag_49\n  tag_6\n  jump\t// in\ntag_49:\ntag_48:\n  dup2\n  mstore\n  0x20\n  add\n  swap1\n  dup2\n  mstore\n  0x20\n  add\n  0x00\n  keccak256\n    /* \"contracts/CrowdFund.sol\":3703:3743  projectStatuses[ProjectStatus.RFD] = RFD */\n  swap1\n  dup1\n  mload\n  swap1\n  0x20\n  add\n  swap1\n  tag_50\n  swap3\n  swap2\n  swap1\n  tag_10\n  jump\t// in\ntag_50:\n  pop\n    /* \"contracts/CrowdFund.sol\":3790:3793  CLD */\n  mload(0x40)\n  dup1\n  0x40\n  add\n  0x40\n  mstore\n  dup1\n  0x0e\n  dup2\n  mstore\n  0x20\n  add\n  0x50726f6a65637420636c6f736564000000000000000000000000000000000000\n  dup2\n  mstore\n  pop\n    /* \"contracts/CrowdFund.sol\":3753:3768  projectStatuses */\n  0x07\n    /* \"contracts/CrowdFund.sol\":3753:3787  projectStatuses[ProjectStatus.CLD] */\n  0x00\n    /* \"contracts/CrowdFund.sol\":3769:3786  ProjectStatus.CLD */\n  0x09\n    /* \"contracts/CrowdFund.sol\":3753:3787  projectStatuses[ProjectStatus.CLD] */\n  dup1\n  dup2\n  gt\n  iszero\n  tag_51\n  jumpi\n  tag_52\n  tag_6\n  jump\t// in\ntag_52:\ntag_51:\n  0x09\n  dup2\n  gt\n  iszero\n  tag_53\n  jumpi\n  tag_54\n  tag_6\n  jump\t// in\ntag_54:\ntag_53:\n  dup2\n  mstore\n  0x20\n  add\n  swap1\n  dup2\n  mstore\n  0x20\n  add\n  0x00\n  keccak256\n    /* \"contracts/CrowdFund.sol\":3753:3793  projectStatuses[ProjectStatus.CLD] = CLD */\n  swap1\n  dup1\n  mload\n  swap1\n  0x20\n  add\n  swap1\n  tag_55\n  swap3\n  swap2\n  swap1\n  tag_10\n  jump\t// in\ntag_55:\n  pop\n    /* \"contracts/CrowdFund.sol\":70:17967  contract CrowdFund {... */\n  jump(tag_56)\ntag_10:\n  dup3\n  dup1\n  sload\n  tag_57\n  swap1\n  tag_58\n  jump\t// in\ntag_57:\n  swap1\n  0x00\n  mstore\n  keccak256(0x00, 0x20)\n  swap1\n  0x1f\n  add\n  0x20\n  swap1\n  div\n  dup2\n  add\n  swap3\n  dup3\n  tag_60\n  jumpi\n  0x00\n  dup6\n  sstore\n  jump(tag_59)\ntag_60:\n  dup3\n  0x1f\n  lt\n  tag_61\n  jumpi\n  dup1\n  mload\n  not(0xff)\n  and\n  dup4\n  dup1\n  add\n  or\n  dup6\n  sstore\n  jump(tag_59)\ntag_61:\n  dup3\n  dup1\n  add\n  0x01\n  add\n  dup6\n  sstore\n  dup3\n  iszero\n  tag_59\n  jumpi\n  swap2\n  dup3\n  add\ntag_62:\n  dup3\n  dup2\n  gt\n  iszero\n  tag_63\n  jumpi\n  dup3\n  mload\n  dup3\n  sstore\n  swap2\n  0x20\n  add\n  swap2\n  swap1\n  0x01\n  add\n  swap1\n  jump(tag_62)\ntag_63:\ntag_59:\n  pop\n  swap1\n  pop\n  tag_64\n  swap2\n  swap1\n  tag_65\n  jump\t// in\ntag_64:\n  pop\n  swap1\n  jump\t// out\ntag_65:\ntag_66:\n  dup1\n  dup3\n  gt\n  iszero\n  tag_67\n  jumpi\n  0x00\n  dup2\n  0x00\n  swap1\n  sstore\n  pop\n  0x01\n  add\n  jump(tag_66)\ntag_67:\n  pop\n  swap1\n  jump\t// out\n    /* \"#utility.yul\":7:327   */\ntag_58:\n    /* \"#utility.yul\":51:57   */\n  0x00\n    /* \"#utility.yul\":88:89   */\n  0x02\n    /* \"#utility.yul\":82:86   */\n  dup3\n    /* \"#utility.yul\":78:90   */\n  div\n    /* \"#utility.yul\":68:90   */\n  swap1\n  pop\n    /* \"#utility.yul\":135:136   */\n  0x01\n    /* \"#utility.yul\":129:133   */\n  dup3\n    /* \"#utility.yul\":125:137   */\n  and\n    /* \"#utility.yul\":156:174   */\n  dup1\n    /* \"#utility.yul\":146:227   */\n  tag_70\n  jumpi\n    /* \"#utility.yul\":212:216   */\n  0x7f\n    /* \"#utility.yul\":204:210   */\n  dup3\n    /* \"#utility.yul\":200:217   */\n  and\n    /* \"#utility.yul\":190:217   */\n  swap2\n  pop\n    /* \"#utility.yul\":146:227   */\ntag_70:\n    /* \"#utility.yul\":274:276   */\n  0x20\n    /* \"#utility.yul\":266:272   */\n  dup3\n    /* \"#utility.yul\":263:277   */\n  lt\n    /* \"#utility.yul\":243:261   */\n  dup2\n    /* \"#utility.yul\":240:278   */\n  eq\n    /* \"#utility.yul\":237:321   */\n  iszero\n  tag_71\n  jumpi\n    /* \"#utility.yul\":293:311   */\n  tag_72\n  tag_73\n  jump\t// in\ntag_72:\n    /* \"#utility.yul\":237:321   */\ntag_71:\n    /* \"#utility.yul\":58:327   */\n  pop\n    /* \"#utility.yul\":7:327   */\n  swap2\n  swap1\n  pop\n  jump\t// out\n    /* \"#utility.yul\":333:513   */\ntag_6:\n    /* \"#utility.yul\":381:458   */\n  0x4e487b7100000000000000000000000000000000000000000000000000000000\n    /* \"#utility.yul\":378:379   */\n  0x00\n    /* \"#utility.yul\":371:459   */\n  mstore\n    /* \"#utility.yul\":478:482   */\n  0x21\n    /* \"#utility.yul\":475:476   */\n  0x04\n    /* \"#utility.yul\":468:483   */\n  mstore\n    /* \"#utility.yul\":502:506   */\n  0x24\n    /* \"#utility.yul\":499:500   */\n  0x00\n    /* \"#utility.yul\":492:507   */\n  revert\n    /* \"#utility.yul\":519:699   */\ntag_73:\n    /* \"#utility.yul\":567:644   */\n  0x4e487b7100000000000000000000000000000000000000000000000000000000\n    /* \"#utility.yul\":564:565   */\n  0x00\n    /* \"#utility.yul\":557:645   */\n  mstore\n    /* \"#utility.yul\":664:668   */\n  0x22\n    /* \"#utility.yul\":661:662   */\n  0x04\n    /* \"#utility.yul\":654:669   */\n  mstore\n    /* \"#utility.yul\":688:692   */\n  0x24\n    /* \"#utility.yul\":685:686   */\n  0x00\n    /* \"#utility.yul\":678:693   */\n  revert\n    /* \"contracts/CrowdFund.sol\":70:17967  contract CrowdFund {... */\ntag_56:\n  dataSize(sub_0)\n  dup1\n  dataOffset(sub_0)\n  0x00\n  codecopy\n  0x00\n  return\nstop\n\nsub_0: assembly {\n        /* \"contracts/CrowdFund.sol\":70:17967  contract CrowdFund {... */\n      mstore(0x40, 0x80)\n      jumpi(tag_1, lt(calldatasize, 0x04))\n      shr(0xe0, calldataload(0x00))\n      dup1\n      0x97ed410c\n      gt\n      tag_18\n      jumpi\n      dup1\n      0xdaf38232\n      gt\n      tag_19\n      jumpi\n      dup1\n      0xdaf38232\n      eq\n      tag_14\n      jumpi\n      dup1\n      0xef6add32\n      eq\n      tag_15\n      jumpi\n      dup1\n      0xef88f48b\n      eq\n      tag_16\n      jumpi\n      dup1\n      0xfb709d2e\n      eq\n      tag_17\n      jumpi\n      jump(tag_1)\n    tag_19:\n      dup1\n      0x97ed410c\n      eq\n      tag_10\n      jumpi\n      dup1\n      0x9d8e7e89\n      eq\n      tag_11\n      jumpi\n      dup1\n      0xb0ca4af5\n      eq\n      tag_12\n      jumpi\n      dup1\n      0xb61a7f76\n      eq\n      tag_13\n      jumpi\n      jump(tag_1)\n    tag_18:\n      dup1\n      0x2c3730ef\n      gt\n      tag_20\n      jumpi\n      dup1\n      0x2c3730ef\n      eq\n      tag_6\n      jumpi\n      dup1\n      0x3a8565f0\n      eq\n      tag_7\n      jumpi\n      dup1\n      0x85fa74bc\n      eq\n      tag_8\n      jumpi\n      dup1\n      0x95dcc366\n      eq\n      tag_9\n      jumpi\n      jump(tag_1)\n    tag_20:\n      dup1\n      0x107046bd\n      eq\n      tag_2\n      jumpi\n      dup1\n      0x141020cc\n      eq\n      tag_3\n      jumpi\n      dup1\n      0x1ab33308\n      eq\n      tag_4\n      jumpi\n      dup1\n      0x1ed056d8\n      eq\n      tag_5\n      jumpi\n    tag_1:\n      0x00\n      dup1\n      revert\n        /* \"contracts/CrowdFund.sol\":778:803  Project[] public projects */\n    tag_2:\n      callvalue\n      dup1\n      iszero\n      tag_21\n      jumpi\n      0x00\n      dup1\n      revert\n    tag_21:\n      pop\n      tag_22\n      0x04\n      dup1\n      calldatasize\n      sub\n      dup2\n      add\n      swap1\n      tag_23\n      swap2\n      swap1\n      tag_24\n      jump\t// in\n    tag_23:\n      tag_25\n      jump\t// in\n    tag_22:\n      mload(0x40)\n      tag_26\n      swap9\n      swap8\n      swap7\n      swap6\n      swap5\n      swap4\n      swap3\n      swap2\n      swap1\n      tag_27\n      jump\t// in\n    tag_26:\n      mload(0x40)\n      dup1\n      swap2\n      sub\n      swap1\n      return\n        /* \"contracts/CrowdFund.sol\":3806:4428  function createCharity(uint _charityId, string memory _licenseDocsLink, address charity) public onlyBoardAdmin {... */\n    tag_3:\n      callvalue\n      dup1\n      iszero\n      tag_28\n      jumpi\n      0x00\n      dup1\n      revert\n    tag_28:\n      pop\n      tag_29\n      0x04\n      dup1\n      calldatasize\n      sub\n      dup2\n      add\n      swap1\n      tag_30\n      swap2\n      swap1\n      tag_31\n      jump\t// in\n    tag_30:\n      tag_32\n      jump\t// in\n    tag_29:\n      stop\n        /* \"contracts/CrowdFund.sol\":2971:3005  ProjectStatus public projectStatus */\n    tag_4:\n      callvalue\n      dup1\n      iszero\n      tag_33\n      jumpi\n      0x00\n      dup1\n      revert\n    tag_33:\n      pop\n      tag_34\n      tag_35\n      jump\t// in\n    tag_34:\n      mload(0x40)\n      tag_36\n      swap2\n      swap1\n      tag_37\n      jump\t// in\n    tag_36:\n      mload(0x40)\n      dup1\n      swap2\n      sub\n      swap1\n      return\n        /* \"contracts/CrowdFund.sol\":10340:11036  function getProjectFundDetails(uint charityId, uint projectId) public view returns (... */\n    tag_5:\n      callvalue\n      dup1\n      iszero\n      tag_38\n      jumpi\n      0x00\n      dup1\n      revert\n    tag_38:\n      pop\n      tag_39\n      0x04\n      dup1\n      calldatasize\n      sub\n      dup2\n      add\n      swap1\n      tag_40\n      swap2\n      swap1\n      tag_41\n      jump\t// in\n    tag_40:\n      tag_42\n      jump\t// in\n    tag_39:\n      mload(0x40)\n      tag_43\n      swap4\n      swap3\n      swap2\n      swap1\n      tag_44\n      jump\t// in\n    tag_43:\n      mload(0x40)\n      dup1\n      swap2\n      sub\n      swap1\n      return\n        /* \"contracts/CrowdFund.sol\":6656:7953  function updateProjectStatus(uint projectId, uint charityId, uint8 enumValue) onlyBoardAdmin public {... */\n    tag_6:\n      callvalue\n      dup1\n      iszero\n      tag_45\n      jumpi\n      0x00\n      dup1\n      revert\n    tag_45:\n      pop\n      tag_46\n      0x04\n      dup1\n      calldatasize\n      sub\n      dup2\n      add\n      swap1\n      tag_47\n      swap2\n      swap1\n      tag_48\n      jump\t// in\n    tag_47:\n      tag_49\n      jump\t// in\n    tag_46:\n      stop\n        /* \"contracts/CrowdFund.sol\":8007:10334  function changeProjectStatus(uint projectId, uint charityId, uint8 enumValue) onlyCharity public {... */\n    tag_7:\n      callvalue\n      dup1\n      iszero\n      tag_50\n      jumpi\n      0x00\n      dup1\n      revert\n    tag_50:\n      pop\n      tag_51\n      0x04\n      dup1\n      calldatasize\n      sub\n      dup2\n      add\n      swap1\n      tag_52\n      swap2\n      swap1\n      tag_48\n      jump\t// in\n    tag_52:\n      tag_53\n      jump\t// in\n    tag_51:\n      stop\n        /* \"contracts/CrowdFund.sol\":14341:16381  function getRefund(uint charityId, uint projectId) public {... */\n    tag_8:\n      callvalue\n      dup1\n      iszero\n      tag_54\n      jumpi\n      0x00\n      dup1\n      revert\n    tag_54:\n      pop\n      tag_55\n      0x04\n      dup1\n      calldatasize\n      sub\n      dup2\n      add\n      swap1\n      tag_56\n      swap2\n      swap1\n      tag_41\n      jump\t// in\n    tag_56:\n      tag_57\n      jump\t// in\n    tag_55:\n      stop\n        /* \"contracts/CrowdFund.sol\":5182:6427  function createProject(uint charityId, uint _projectId, uint _goal, address owner, string memory _documentLink) onlyCharity public {... */\n    tag_9:\n      callvalue\n      dup1\n      iszero\n      tag_58\n      jumpi\n      0x00\n      dup1\n      revert\n    tag_58:\n      pop\n      tag_59\n      0x04\n      dup1\n      calldatasize\n      sub\n      dup2\n      add\n      swap1\n      tag_60\n      swap2\n      swap1\n      tag_61\n      jump\t// in\n    tag_60:\n      tag_62\n      jump\t// in\n    tag_59:\n      stop\n        /* \"contracts/CrowdFund.sol\":4434:4742  function approveCharity(uint index, uint charityId) public onlyBoardAdmin {... */\n    tag_10:\n      callvalue\n      dup1\n      iszero\n      tag_63\n      jumpi\n      0x00\n      dup1\n      revert\n    tag_63:\n      pop\n      tag_64\n      0x04\n      dup1\n      calldatasize\n      sub\n      dup2\n      add\n      swap1\n      tag_65\n      swap2\n      swap1\n      tag_41\n      jump\t// in\n    tag_65:\n      tag_66\n      jump\t// in\n    tag_64:\n      stop\n        /* \"contracts/CrowdFund.sol\":17430:17965  function getProjectStatus(uint charityId, uint projectId) external view returns (... */\n    tag_11:\n      callvalue\n      dup1\n      iszero\n      tag_67\n      jumpi\n      0x00\n      dup1\n      revert\n    tag_67:\n      pop\n      tag_68\n      0x04\n      dup1\n      calldatasize\n      sub\n      dup2\n      add\n      swap1\n      tag_69\n      swap2\n      swap1\n      tag_41\n      jump\t// in\n    tag_69:\n      tag_70\n      jump\t// in\n    tag_68:\n      mload(0x40)\n      tag_71\n      swap2\n      swap1\n      tag_72\n      jump\t// in\n    tag_71:\n      mload(0x40)\n      dup1\n      swap2\n      sub\n      swap1\n      return\n        /* \"contracts/CrowdFund.sol\":16426:17424  function refundToAllDonors(uint charityId, uint projectId) public {... */\n    tag_12:\n      callvalue\n      dup1\n      iszero\n      tag_73\n      jumpi\n      0x00\n      dup1\n      revert\n    tag_73:\n      pop\n      tag_74\n      0x04\n      dup1\n      calldatasize\n      sub\n      dup2\n      add\n      swap1\n      tag_75\n      swap2\n      swap1\n      tag_41\n      jump\t// in\n    tag_75:\n      tag_76\n      jump\t// in\n    tag_74:\n      stop\n        /* \"contracts/CrowdFund.sol\":1020:1045  address public boardAdmin */\n    tag_13:\n      callvalue\n      dup1\n      iszero\n      tag_77\n      jumpi\n      0x00\n      dup1\n      revert\n    tag_77:\n      pop\n      tag_78\n      tag_79\n      jump\t// in\n    tag_78:\n      mload(0x40)\n      tag_80\n      swap2\n      swap1\n      tag_81\n      jump\t// in\n    tag_80:\n      mload(0x40)\n      dup1\n      swap2\n      sub\n      swap1\n      return\n        /* \"contracts/CrowdFund.sol\":4748:5103  function rejectCharity(uint index, string memory reason) onlyBoardAdmin public {... */\n    tag_14:\n      callvalue\n      dup1\n      iszero\n      tag_82\n      jumpi\n      0x00\n      dup1\n      revert\n    tag_82:\n      pop\n      tag_83\n      0x04\n      dup1\n      calldatasize\n      sub\n      dup2\n      add\n      swap1\n      tag_84\n      swap2\n      swap1\n      tag_85\n      jump\t// in\n    tag_84:\n      tag_86\n      jump\t// in\n    tag_83:\n      stop\n        /* \"contracts/CrowdFund.sol\":3011:3066  mapping(ProjectStatus => string) public projectStatuses */\n    tag_15:\n      callvalue\n      dup1\n      iszero\n      tag_87\n      jumpi\n      0x00\n      dup1\n      revert\n    tag_87:\n      pop\n      tag_88\n      0x04\n      dup1\n      calldatasize\n      sub\n      dup2\n      add\n      swap1\n      tag_89\n      swap2\n      swap1\n      tag_90\n      jump\t// in\n    tag_89:\n      tag_91\n      jump\t// in\n    tag_88:\n      mload(0x40)\n      tag_92\n      swap2\n      swap1\n      tag_72\n      jump\t// in\n    tag_92:\n      mload(0x40)\n      dup1\n      swap2\n      sub\n      swap1\n      return\n        /* \"contracts/CrowdFund.sol\":11375:14298  function donate(uint charityId, uint projectId, uint donorId) public payable {... */\n    tag_16:\n      tag_93\n      0x04\n      dup1\n      calldatasize\n      sub\n      dup2\n      add\n      swap1\n      tag_94\n      swap2\n      swap1\n      tag_95\n      jump\t// in\n    tag_94:\n      tag_96\n      jump\t// in\n    tag_93:\n      stop\n        /* \"contracts/CrowdFund.sol\":860:886  Charity[] public charities */\n    tag_17:\n      callvalue\n      dup1\n      iszero\n      tag_97\n      jumpi\n      0x00\n      dup1\n      revert\n    tag_97:\n      pop\n      tag_98\n      0x04\n      dup1\n      calldatasize\n      sub\n      dup2\n      add\n      swap1\n      tag_99\n      swap2\n      swap1\n      tag_24\n      jump\t// in\n    tag_99:\n      tag_100\n      jump\t// in\n    tag_98:\n      mload(0x40)\n      tag_101\n      swap6\n      swap5\n      swap4\n      swap3\n      swap2\n      swap1\n      tag_102\n      jump\t// in\n    tag_101:\n      mload(0x40)\n      dup1\n      swap2\n      sub\n      swap1\n      return\n        /* \"contracts/CrowdFund.sol\":778:803  Project[] public projects */\n    tag_25:\n      0x00\n      dup2\n      dup2\n      sload\n      dup2\n      lt\n      tag_103\n      jumpi\n      0x00\n      dup1\n      revert\n    tag_103:\n      swap1\n      0x00\n      mstore\n      keccak256(0x00, 0x20)\n      swap1\n      0x07\n      mul\n      add\n      0x00\n      swap2\n      pop\n      swap1\n      pop\n      dup1\n      0x00\n      add\n      sload\n      swap1\n      dup1\n      0x01\n      add\n      sload\n      swap1\n      dup1\n      0x02\n      add\n      sload\n      swap1\n      dup1\n      0x03\n      add\n      sload\n      swap1\n      dup1\n      0x04\n      add\n      0x00\n      swap1\n      sload\n      swap1\n      0x0100\n      exp\n      swap1\n      div\n      0xffffffffffffffffffffffffffffffffffffffff\n      and\n      swap1\n      dup1\n      0x04\n      add\n      0x14\n      swap1\n      sload\n      swap1\n      0x0100\n      exp\n      swap1\n      div\n      0xff\n      and\n      swap1\n      dup1\n      0x05\n      add\n      dup1\n      sload\n      tag_105\n      swap1\n      tag_106\n      jump\t// in\n    tag_105:\n      dup1\n      0x1f\n      add\n      0x20\n      dup1\n      swap2\n      div\n      mul\n      0x20\n      add\n      mload(0x40)\n      swap1\n      dup2\n      add\n      0x40\n      mstore\n      dup1\n      swap3\n      swap2\n      swap1\n      dup2\n      dup2\n      mstore\n      0x20\n      add\n      dup3\n      dup1\n      sload\n      tag_107\n      swap1\n      tag_106\n      jump\t// in\n    tag_107:\n      dup1\n      iszero\n      tag_108\n      jumpi\n      dup1\n      0x1f\n      lt\n      tag_109\n      jumpi\n      0x0100\n      dup1\n      dup4\n      sload\n      div\n      mul\n      dup4\n      mstore\n      swap2\n      0x20\n      add\n      swap2\n      jump(tag_108)\n    tag_109:\n      dup3\n      add\n      swap2\n      swap1\n      0x00\n      mstore\n      keccak256(0x00, 0x20)\n      swap1\n    tag_110:\n      dup2\n      sload\n      dup2\n      mstore\n      swap1\n      0x01\n      add\n      swap1\n      0x20\n      add\n      dup1\n      dup4\n      gt\n      tag_110\n      jumpi\n      dup3\n      swap1\n      sub\n      0x1f\n      and\n      dup3\n      add\n      swap2\n    tag_108:\n      pop\n      pop\n      pop\n      pop\n      pop\n      swap1\n      dup1\n      0x06\n      add\n      0x00\n      swap1\n      sload\n      swap1\n      0x0100\n      exp\n      swap1\n      div\n      0xff\n      and\n      swap1\n      pop\n      dup9\n      jump\t// out\n        /* \"contracts/CrowdFund.sol\":3806:4428  function createCharity(uint _charityId, string memory _licenseDocsLink, address charity) public onlyBoardAdmin {... */\n    tag_32:\n        /* \"contracts/CrowdFund.sol\":3122:3132  boardAdmin */\n      0x02\n      0x00\n      swap1\n      sload\n      swap1\n      0x0100\n      exp\n      swap1\n      div\n      0xffffffffffffffffffffffffffffffffffffffff\n      and\n        /* \"contracts/CrowdFund.sol\":3110:3132  msg.sender==boardAdmin */\n      0xffffffffffffffffffffffffffffffffffffffff\n      and\n        /* \"contracts/CrowdFund.sol\":3110:3120  msg.sender */\n      caller\n        /* \"contracts/CrowdFund.sol\":3110:3132  msg.sender==boardAdmin */\n      0xffffffffffffffffffffffffffffffffffffffff\n      and\n      eq\n        /* \"contracts/CrowdFund.sol\":3133:3143  ONLY_ADMIN */\n      mload(0x40)\n      dup1\n      0x60\n      add\n      0x40\n      mstore\n      dup1\n      0x33\n      dup2\n      mstore\n      0x20\n      add\n      data_0fd57a96508da25173f82e6faabc4b077c36881e53dd1b21682a822e75096b01\n      0x33\n      swap2\n      codecopy\n        /* \"contracts/CrowdFund.sol\":3102:3144  require(msg.sender==boardAdmin,ONLY_ADMIN) */\n      swap1\n      tag_112\n      jumpi\n      mload(0x40)\n      0x08c379a000000000000000000000000000000000000000000000000000000000\n      dup2\n      mstore\n      0x04\n      add\n      tag_113\n      swap2\n      swap1\n      tag_72\n      jump\t// in\n    tag_113:\n      mload(0x40)\n      dup1\n      swap2\n      sub\n      swap1\n      revert\n    tag_112:\n      pop\n        /* \"contracts/CrowdFund.sol\":4124:4149  Charity memory newCharity */\n      0x00\n        /* \"contracts/CrowdFund.sol\":4152:4328  Charity({... */\n      mload(0x40)\n      dup1\n      0xa0\n      add\n      0x40\n      mstore\n      dup1\n        /* \"contracts/CrowdFund.sol\":4184:4194  _charityId */\n      dup6\n        /* \"contracts/CrowdFund.sol\":4152:4328  Charity({... */\n      dup2\n      mstore\n      0x20\n      add\n        /* \"contracts/CrowdFund.sol\":4217:4221  true */\n      0x01\n        /* \"contracts/CrowdFund.sol\":4152:4328  Charity({... */\n      iszero\n      iszero\n      dup2\n      mstore\n      0x20\n      add\n      mload(0x40)\n      dup1\n      0x20\n      add\n      0x40\n      mstore\n      dup1\n      0x00\n      dup2\n      mstore\n      pop\n      dup2\n      mstore\n      0x20\n      add\n        /* \"contracts/CrowdFund.sol\":4274:4290  _licenseDocsLink */\n      dup5\n        /* \"contracts/CrowdFund.sol\":4152:4328  Charity({... */\n      dup2\n      mstore\n      0x20\n      add\n        /* \"contracts/CrowdFund.sol\":4310:4317  charity */\n      dup4\n        /* \"contracts/CrowdFund.sol\":4152:4328  Charity({... */\n      0xffffffffffffffffffffffffffffffffffffffff\n      and\n      dup2\n      mstore\n      pop\n        /* \"contracts/CrowdFund.sol\":4124:4328  Charity memory newCharity = Charity({... */\n      swap1\n      pop\n        /* \"contracts/CrowdFund.sol\":4339:4348  charities */\n      0x01\n        /* \"contracts/CrowdFund.sol\":4354:4364  newCharity */\n      dup2\n        /* \"contracts/CrowdFund.sol\":4339:4365  charities.push(newCharity) */\n      swap1\n      dup1\n      0x01\n      dup2\n      sload\n      add\n      dup1\n      dup3\n      sstore\n      dup1\n      swap2\n      pop\n      pop\n      0x01\n      swap1\n      sub\n      swap1\n      0x00\n      mstore\n      keccak256(0x00, 0x20)\n      swap1\n      0x05\n      mul\n      add\n      0x00\n      swap1\n      swap2\n      swap1\n      swap2\n      swap1\n      swap2\n      pop\n      0x00\n      dup3\n      add\n      mload\n      dup2\n      0x00\n      add\n      sstore\n      0x20\n      dup3\n      add\n      mload\n      dup2\n      0x01\n      add\n      exp(0x0100, 0x00)\n      dup2\n      sload\n      dup2\n      0xff\n      mul\n      not\n      and\n      swap1\n      dup4\n      iszero\n      iszero\n      mul\n      or\n      swap1\n      sstore\n      pop\n      0x40\n      dup3\n      add\n      mload\n      dup2\n      0x02\n      add\n      swap1\n      dup1\n      mload\n      swap1\n      0x20\n      add\n      swap1\n      tag_116\n      swap3\n      swap2\n      swap1\n      tag_117\n      jump\t// in\n    tag_116:\n      pop\n      0x60\n      dup3\n      add\n      mload\n      dup2\n      0x03\n      add\n      swap1\n      dup1\n      mload\n      swap1\n      0x20\n      add\n      swap1\n      tag_118\n      swap3\n      swap2\n      swap1\n      tag_117\n      jump\t// in\n    tag_118:\n      pop\n      0x80\n      dup3\n      add\n      mload\n      dup2\n      0x04\n      add\n      exp(0x0100, 0x00)\n      dup2\n      sload\n      dup2\n      0xffffffffffffffffffffffffffffffffffffffff\n      mul\n      not\n      and\n      swap1\n      dup4\n      0xffffffffffffffffffffffffffffffffffffffff\n      and\n      mul\n      or\n      swap1\n      sstore\n      pop\n      pop\n      pop\n        /* \"contracts/CrowdFund.sol\":4408:4412  true */\n      0x01\n        /* \"contracts/CrowdFund.sol\":4376:4393  approvedCharities */\n      0x04\n        /* \"contracts/CrowdFund.sol\":4376:4405  approvedCharities[_charityId] */\n      0x00\n        /* \"contracts/CrowdFund.sol\":4394:4404  _charityId */\n      dup7\n        /* \"contracts/CrowdFund.sol\":4376:4405  approvedCharities[_charityId] */\n      dup2\n      mstore\n      0x20\n      add\n      swap1\n      dup2\n      mstore\n      0x20\n      add\n      0x00\n      keccak256\n      0x00\n        /* \"contracts/CrowdFund.sol\":4376:4412  approvedCharities[_charityId] = true */\n      0x0100\n      exp\n      dup2\n      sload\n      dup2\n      0xff\n      mul\n      not\n      and\n      swap1\n      dup4\n      iszero\n      iszero\n      mul\n      or\n      swap1\n      sstore\n      pop\n        /* \"contracts/CrowdFund.sol\":3917:4428  {... */\n      pop\n        /* \"contracts/CrowdFund.sol\":3806:4428  function createCharity(uint _charityId, string memory _licenseDocsLink, address charity) public onlyBoardAdmin {... */\n      pop\n      pop\n      pop\n      jump\t// out\n        /* \"contracts/CrowdFund.sol\":2971:3005  ProjectStatus public projectStatus */\n    tag_35:\n      0x06\n      0x00\n      swap1\n      sload\n      swap1\n      0x0100\n      exp\n      swap1\n      div\n      0xff\n      and\n      dup2\n      jump\t// out\n        /* \"contracts/CrowdFund.sol\":10340:11036  function getProjectFundDetails(uint charityId, uint projectId) public view returns (... */\n    tag_42:\n        /* \"contracts/CrowdFund.sol\":10433:10437  uint */\n      0x00\n        /* \"contracts/CrowdFund.sol\":10439:10443  uint */\n      dup1\n        /* \"contracts/CrowdFund.sol\":10445:10449  uint */\n      0x00\n        /* \"contracts/CrowdFund.sol\":10465:10494  Project[] storage projectList */\n      dup1\n        /* \"contracts/CrowdFund.sol\":10497:10512  charityProjects */\n      0x03\n        /* \"contracts/CrowdFund.sol\":10497:10523  charityProjects[charityId] */\n      0x00\n        /* \"contracts/CrowdFund.sol\":10513:10522  charityId */\n      dup8\n        /* \"contracts/CrowdFund.sol\":10497:10523  charityProjects[charityId] */\n      dup2\n      mstore\n      0x20\n      add\n      swap1\n      dup2\n      mstore\n      0x20\n      add\n      0x00\n      keccak256\n        /* \"contracts/CrowdFund.sol\":10465:10523  Project[] storage projectList = charityProjects[charityId] */\n      swap1\n      pop\n        /* \"contracts/CrowdFund.sol\":10566:10567  0 */\n      0x00\n        /* \"contracts/CrowdFund.sol\":10545:10556  projectList */\n      dup2\n        /* \"contracts/CrowdFund.sol\":10545:10563  projectList.length */\n      dup1\n      sload\n      swap1\n      pop\n        /* \"contracts/CrowdFund.sol\":10545:10567  projectList.length > 0 */\n      gt\n        /* \"contracts/CrowdFund.sol\":10537:10592  require(projectList.length > 0,\"Charity doesn't exist\") */\n      tag_120\n      jumpi\n      mload(0x40)\n      0x08c379a000000000000000000000000000000000000000000000000000000000\n      dup2\n      mstore\n      0x04\n      add\n      tag_121\n      swap1\n      tag_122\n      jump\t// in\n    tag_121:\n      mload(0x40)\n      dup1\n      swap2\n      sub\n      swap1\n      revert\n    tag_120:\n        /* \"contracts/CrowdFund.sol\":10611:10617  uint i */\n      0x00\n        /* \"contracts/CrowdFund.sol\":10606:10964  for (uint i=0;i<projectList.length;i++) {... */\n    tag_123:\n        /* \"contracts/CrowdFund.sol\":10622:10633  projectList */\n      dup2\n        /* \"contracts/CrowdFund.sol\":10622:10640  projectList.length */\n      dup1\n      sload\n      swap1\n      pop\n        /* \"contracts/CrowdFund.sol\":10620:10621  i */\n      dup2\n        /* \"contracts/CrowdFund.sol\":10620:10640  i<projectList.length */\n      lt\n        /* \"contracts/CrowdFund.sol\":10606:10964  for (uint i=0;i<projectList.length;i++) {... */\n      iszero\n      tag_124\n      jumpi\n        /* \"contracts/CrowdFund.sol\":10696:10705  projectId */\n      dup6\n        /* \"contracts/CrowdFund.sol\":10668:10679  projectList */\n      dup3\n        /* \"contracts/CrowdFund.sol\":10680:10681  i */\n      dup3\n        /* \"contracts/CrowdFund.sol\":10668:10682  projectList[i] */\n      dup2\n      sload\n      dup2\n      lt\n      tag_126\n      jumpi\n      tag_127\n      tag_128\n      jump\t// in\n    tag_127:\n    tag_126:\n      swap1\n      0x00\n      mstore\n      keccak256(0x00, 0x20)\n      swap1\n      0x07\n      mul\n      add\n        /* \"contracts/CrowdFund.sol\":10668:10692  projectList[i].projectId */\n      0x00\n      add\n      sload\n        /* \"contracts/CrowdFund.sol\":10668:10705  projectList[i].projectId == projectId */\n      eq\n        /* \"contracts/CrowdFund.sol\":10664:10950  if (projectList[i].projectId == projectId) {... */\n      iszero\n      tag_130\n      jumpi\n        /* \"contracts/CrowdFund.sol\":10762:10773  projectList */\n      dup2\n        /* \"contracts/CrowdFund.sol\":10774:10775  i */\n      dup2\n        /* \"contracts/CrowdFund.sol\":10762:10776  projectList[i] */\n      dup2\n      sload\n      dup2\n      lt\n      tag_131\n      jumpi\n      tag_132\n      tag_128\n      jump\t// in\n    tag_132:\n    tag_131:\n      swap1\n      0x00\n      mstore\n      keccak256(0x00, 0x20)\n      swap1\n      0x07\n      mul\n      add\n        /* \"contracts/CrowdFund.sol\":10762:10781  projectList[i].goal */\n      0x02\n      add\n      sload\n        /* \"contracts/CrowdFund.sol\":10807:10818  projectList */\n      dup3\n        /* \"contracts/CrowdFund.sol\":10819:10820  i */\n      dup3\n        /* \"contracts/CrowdFund.sol\":10807:10821  projectList[i] */\n      dup2\n      sload\n      dup2\n      lt\n      tag_134\n      jumpi\n      tag_135\n      tag_128\n      jump\t// in\n    tag_135:\n    tag_134:\n      swap1\n      0x00\n      mstore\n      keccak256(0x00, 0x20)\n      swap1\n      0x07\n      mul\n      add\n        /* \"contracts/CrowdFund.sol\":10807:10834  projectList[i].raisedAmount */\n      0x03\n      add\n      sload\n        /* \"contracts/CrowdFund.sol\":10882:10893  projectList */\n      dup4\n        /* \"contracts/CrowdFund.sol\":10894:10895  i */\n      dup4\n        /* \"contracts/CrowdFund.sol\":10882:10896  projectList[i] */\n      dup2\n      sload\n      dup2\n      lt\n      tag_137\n      jumpi\n      tag_138\n      tag_128\n      jump\t// in\n    tag_138:\n    tag_137:\n      swap1\n      0x00\n      mstore\n      keccak256(0x00, 0x20)\n      swap1\n      0x07\n      mul\n      add\n        /* \"contracts/CrowdFund.sol\":10882:10909  projectList[i].raisedAmount */\n      0x03\n      add\n      sload\n        /* \"contracts/CrowdFund.sol\":10860:10871  projectList */\n      dup5\n        /* \"contracts/CrowdFund.sol\":10872:10873  i */\n      dup5\n        /* \"contracts/CrowdFund.sol\":10860:10874  projectList[i] */\n      dup2\n      sload\n      dup2\n      lt\n      tag_140\n      jumpi\n      tag_141\n      tag_128\n      jump\t// in\n    tag_141:\n    tag_140:\n      swap1\n      0x00\n      mstore\n      keccak256(0x00, 0x20)\n      swap1\n      0x07\n      mul\n      add\n        /* \"contracts/CrowdFund.sol\":10860:10879  projectList[i].goal */\n      0x02\n      add\n      sload\n        /* \"contracts/CrowdFund.sol\":10860:10909  projectList[i].goal - projectList[i].raisedAmount */\n      tag_143\n      swap2\n      swap1\n      tag_144\n      jump\t// in\n    tag_143:\n        /* \"contracts/CrowdFund.sol\":10729:10931  return (... */\n      swap5\n      pop\n      swap5\n      pop\n      swap5\n      pop\n      pop\n      pop\n      jump(tag_119)\n        /* \"contracts/CrowdFund.sol\":10664:10950  if (projectList[i].projectId == projectId) {... */\n    tag_130:\n        /* \"contracts/CrowdFund.sol\":10641:10644  i++ */\n      dup1\n      dup1\n      tag_145\n      swap1\n      tag_146\n      jump\t// in\n    tag_145:\n      swap2\n      pop\n      pop\n        /* \"contracts/CrowdFund.sol\":10606:10964  for (uint i=0;i<projectList.length;i++) {... */\n      jump(tag_123)\n    tag_124:\n      pop\n        /* \"contracts/CrowdFund.sol\":10979:11029  revert(\"No such project exist under this charity\") */\n      mload(0x40)\n      0x08c379a000000000000000000000000000000000000000000000000000000000\n      dup2\n      mstore\n      0x04\n      add\n      tag_147\n      swap1\n      tag_148\n      jump\t// in\n    tag_147:\n      mload(0x40)\n      dup1\n      swap2\n      sub\n      swap1\n      revert\n        /* \"contracts/CrowdFund.sol\":10340:11036  function getProjectFundDetails(uint charityId, uint projectId) public view returns (... */\n    tag_119:\n      swap3\n      pop\n      swap3\n      pop\n      swap3\n      jump\t// out\n        /* \"contracts/CrowdFund.sol\":6656:7953  function updateProjectStatus(uint projectId, uint charityId, uint8 enumValue) onlyBoardAdmin public {... */\n    tag_49:\n        /* \"contracts/CrowdFund.sol\":3122:3132  boardAdmin */\n      0x02\n      0x00\n      swap1\n      sload\n      swap1\n      0x0100\n      exp\n      swap1\n      div\n      0xffffffffffffffffffffffffffffffffffffffff\n      and\n        /* \"contracts/CrowdFund.sol\":3110:3132  msg.sender==boardAdmin */\n      0xffffffffffffffffffffffffffffffffffffffff\n      and\n        /* \"contracts/CrowdFund.sol\":3110:3120  msg.sender */\n      caller\n        /* \"contracts/CrowdFund.sol\":3110:3132  msg.sender==boardAdmin */\n      0xffffffffffffffffffffffffffffffffffffffff\n      and\n      eq\n        /* \"contracts/CrowdFund.sol\":3133:3143  ONLY_ADMIN */\n      mload(0x40)\n      dup1\n      0x60\n      add\n      0x40\n      mstore\n      dup1\n      0x33\n      dup2\n      mstore\n      0x20\n      add\n      data_0fd57a96508da25173f82e6faabc4b077c36881e53dd1b21682a822e75096b01\n      0x33\n      swap2\n      codecopy\n        /* \"contracts/CrowdFund.sol\":3102:3144  require(msg.sender==boardAdmin,ONLY_ADMIN) */\n      swap1\n      tag_150\n      jumpi\n      mload(0x40)\n      0x08c379a000000000000000000000000000000000000000000000000000000000\n      dup2\n      mstore\n      0x04\n      add\n      tag_151\n      swap2\n      swap1\n      tag_72\n      jump\t// in\n    tag_151:\n      mload(0x40)\n      dup1\n      swap2\n      sub\n      swap1\n      revert\n    tag_150:\n      pop\n        /* \"contracts/CrowdFund.sol\":6859:6876  ProjectStatus.WFA */\n      0x00\n        /* \"contracts/CrowdFund.sol\":6831:6876  ProjectStatus(enumValue) != ProjectStatus.WFA */\n      0x09\n      dup2\n      gt\n      iszero\n      tag_153\n      jumpi\n      tag_154\n      tag_155\n      jump\t// in\n    tag_154:\n    tag_153:\n        /* \"contracts/CrowdFund.sol\":6845:6854  enumValue */\n      dup2\n        /* \"contracts/CrowdFund.sol\":6831:6855  ProjectStatus(enumValue) */\n      0xff\n      and\n      0x09\n      dup2\n      gt\n      iszero\n      tag_156\n      jumpi\n      tag_157\n      tag_155\n      jump\t// in\n    tag_157:\n    tag_156:\n        /* \"contracts/CrowdFund.sol\":6831:6876  ProjectStatus(enumValue) != ProjectStatus.WFA */\n      0x09\n      dup2\n      gt\n      iszero\n      tag_158\n      jumpi\n      tag_159\n      tag_155\n      jump\t// in\n    tag_159:\n    tag_158:\n      eq\n      iszero\n        /* \"contracts/CrowdFund.sol\":6877:6884  NO_AUTH */\n      mload(0x40)\n      dup1\n      0x60\n      add\n      0x40\n      mstore\n      dup1\n      0x31\n      dup2\n      mstore\n      0x20\n      add\n      data_5c19b7ff1bcfb320392194574ccc24118e50bba13de42db0a22f05014bb7a7fa\n      0x31\n      swap2\n      codecopy\n        /* \"contracts/CrowdFund.sol\":6823:6885  require(ProjectStatus(enumValue) != ProjectStatus.WFA,NO_AUTH) */\n      swap1\n      tag_160\n      jumpi\n      mload(0x40)\n      0x08c379a000000000000000000000000000000000000000000000000000000000\n      dup2\n      mstore\n      0x04\n      add\n      tag_161\n      swap2\n      swap1\n      tag_72\n      jump\t// in\n    tag_161:\n      mload(0x40)\n      dup1\n      swap2\n      sub\n      swap1\n      revert\n    tag_160:\n      pop\n        /* \"contracts/CrowdFund.sol\":6931:6948  ProjectStatus.APR */\n      0x02\n        /* \"contracts/CrowdFund.sol\":6903:6948  ProjectStatus(enumValue) != ProjectStatus.APR */\n      0x09\n      dup2\n      gt\n      iszero\n      tag_162\n      jumpi\n      tag_163\n      tag_155\n      jump\t// in\n    tag_163:\n    tag_162:\n        /* \"contracts/CrowdFund.sol\":6917:6926  enumValue */\n      dup2\n        /* \"contracts/CrowdFund.sol\":6903:6927  ProjectStatus(enumValue) */\n      0xff\n      and\n      0x09\n      dup2\n      gt\n      iszero\n      tag_164\n      jumpi\n      tag_165\n      tag_155\n      jump\t// in\n    tag_165:\n    tag_164:\n        /* \"contracts/CrowdFund.sol\":6903:6948  ProjectStatus(enumValue) != ProjectStatus.APR */\n      0x09\n      dup2\n      gt\n      iszero\n      tag_166\n      jumpi\n      tag_167\n      tag_155\n      jump\t// in\n    tag_167:\n    tag_166:\n      eq\n      iszero\n        /* \"contracts/CrowdFund.sol\":6949:6956  NO_AUTH */\n      mload(0x40)\n      dup1\n      0x60\n      add\n      0x40\n      mstore\n      dup1\n      0x31\n      dup2\n      mstore\n      0x20\n      add\n      data_5c19b7ff1bcfb320392194574ccc24118e50bba13de42db0a22f05014bb7a7fa\n      0x31\n      swap2\n      codecopy\n        /* \"contracts/CrowdFund.sol\":6895:6957  require(ProjectStatus(enumValue) != ProjectStatus.APR,NO_AUTH) */\n      swap1\n      tag_168\n      jumpi\n      mload(0x40)\n      0x08c379a000000000000000000000000000000000000000000000000000000000\n      dup2\n      mstore\n      0x04\n      add\n      tag_169\n      swap2\n      swap1\n      tag_72\n      jump\t// in\n    tag_169:\n      mload(0x40)\n      dup1\n      swap2\n      sub\n      swap1\n      revert\n    tag_168:\n      pop\n        /* \"contracts/CrowdFund.sol\":7003:7020  ProjectStatus.PGA */\n      0x03\n        /* \"contracts/CrowdFund.sol\":6975:7020  ProjectStatus(enumValue) != ProjectStatus.PGA */\n      0x09\n      dup2\n      gt\n      iszero\n      tag_170\n      jumpi\n      tag_171\n      tag_155\n      jump\t// in\n    tag_171:\n    tag_170:\n        /* \"contracts/CrowdFund.sol\":6989:6998  enumValue */\n      dup2\n        /* \"contracts/CrowdFund.sol\":6975:6999  ProjectStatus(enumValue) */\n      0xff\n      and\n      0x09\n      dup2\n      gt\n      iszero\n      tag_172\n      jumpi\n      tag_173\n      tag_155\n      jump\t// in\n    tag_173:\n    tag_172:\n        /* \"contracts/CrowdFund.sol\":6975:7020  ProjectStatus(enumValue) != ProjectStatus.PGA */\n      0x09\n      dup2\n      gt\n      iszero\n      tag_174\n      jumpi\n      tag_175\n      tag_155\n      jump\t// in\n    tag_175:\n    tag_174:\n      eq\n      iszero\n        /* \"contracts/CrowdFund.sol\":7021:7028  NO_AUTH */\n      mload(0x40)\n      dup1\n      0x60\n      add\n      0x40\n      mstore\n      dup1\n      0x31\n      dup2\n      mstore\n      0x20\n      add\n      data_5c19b7ff1bcfb320392194574ccc24118e50bba13de42db0a22f05014bb7a7fa\n      0x31\n      swap2\n      codecopy\n        /* \"contracts/CrowdFund.sol\":6967:7029  require(ProjectStatus(enumValue) != ProjectStatus.PGA,NO_AUTH) */\n      swap1\n      tag_176\n      jumpi\n      mload(0x40)\n      0x08c379a000000000000000000000000000000000000000000000000000000000\n      dup2\n      mstore\n      0x04\n      add\n      tag_177\n      swap2\n      swap1\n      tag_72\n      jump\t// in\n    tag_177:\n      mload(0x40)\n      dup1\n      swap2\n      sub\n      swap1\n      revert\n    tag_176:\n      pop\n        /* \"contracts/CrowdFund.sol\":7075:7092  ProjectStatus.XRQ */\n      0x04\n        /* \"contracts/CrowdFund.sol\":7047:7092  ProjectStatus(enumValue) != ProjectStatus.XRQ */\n      0x09\n      dup2\n      gt\n      iszero\n      tag_178\n      jumpi\n      tag_179\n      tag_155\n      jump\t// in\n    tag_179:\n    tag_178:\n        /* \"contracts/CrowdFund.sol\":7061:7070  enumValue */\n      dup2\n        /* \"contracts/CrowdFund.sol\":7047:7071  ProjectStatus(enumValue) */\n      0xff\n      and\n      0x09\n      dup2\n      gt\n      iszero\n      tag_180\n      jumpi\n      tag_181\n      tag_155\n      jump\t// in\n    tag_181:\n    tag_180:\n        /* \"contracts/CrowdFund.sol\":7047:7092  ProjectStatus(enumValue) != ProjectStatus.XRQ */\n      0x09\n      dup2\n      gt\n      iszero\n      tag_182\n      jumpi\n      tag_183\n      tag_155\n      jump\t// in\n    tag_183:\n    tag_182:\n      eq\n      iszero\n        /* \"contracts/CrowdFund.sol\":7093:7100  NO_AUTH */\n      mload(0x40)\n      dup1\n      0x60\n      add\n      0x40\n      mstore\n      dup1\n      0x31\n      dup2\n      mstore\n      0x20\n      add\n      data_5c19b7ff1bcfb320392194574ccc24118e50bba13de42db0a22f05014bb7a7fa\n      0x31\n      swap2\n      codecopy\n        /* \"contracts/CrowdFund.sol\":7039:7101  require(ProjectStatus(enumValue) != ProjectStatus.XRQ,NO_AUTH) */\n      swap1\n      tag_184\n      jumpi\n      mload(0x40)\n      0x08c379a000000000000000000000000000000000000000000000000000000000\n      dup2\n      mstore\n      0x04\n      add\n      tag_185\n      swap2\n      swap1\n      tag_72\n      jump\t// in\n    tag_185:\n      mload(0x40)\n      dup1\n      swap2\n      sub\n      swap1\n      revert\n    tag_184:\n      pop\n        /* \"contracts/CrowdFund.sol\":7335:7364  Project[] storage projectList */\n      0x00\n        /* \"contracts/CrowdFund.sol\":7367:7382  charityProjects */\n      0x03\n        /* \"contracts/CrowdFund.sol\":7367:7393  charityProjects[charityId] */\n      0x00\n        /* \"contracts/CrowdFund.sol\":7383:7392  charityId */\n      dup5\n        /* \"contracts/CrowdFund.sol\":7367:7393  charityProjects[charityId] */\n      dup2\n      mstore\n      0x20\n      add\n      swap1\n      dup2\n      mstore\n      0x20\n      add\n      0x00\n      keccak256\n        /* \"contracts/CrowdFund.sol\":7335:7393  Project[] storage projectList = charityProjects[charityId] */\n      swap1\n      pop\n        /* \"contracts/CrowdFund.sol\":7432:7433  0 */\n      0x00\n        /* \"contracts/CrowdFund.sol\":7411:7422  projectList */\n      dup2\n        /* \"contracts/CrowdFund.sol\":7411:7429  projectList.length */\n      dup1\n      sload\n      swap1\n      pop\n        /* \"contracts/CrowdFund.sol\":7411:7433  projectList.length > 0 */\n      gt\n        /* \"contracts/CrowdFund.sol\":7403:7472  require(projectList.length > 0,\"No project exist under this charity\") */\n      tag_186\n      jumpi\n      mload(0x40)\n      0x08c379a000000000000000000000000000000000000000000000000000000000\n      dup2\n      mstore\n      0x04\n      add\n      tag_187\n      swap1\n      tag_188\n      jump\t// in\n    tag_187:\n      mload(0x40)\n      dup1\n      swap2\n      sub\n      swap1\n      revert\n    tag_186:\n        /* \"contracts/CrowdFund.sol\":7487:7493  uint i */\n      0x00\n        /* \"contracts/CrowdFund.sol\":7482:7947  for (uint i=0;i<projectList.length;i++) {... */\n    tag_189:\n        /* \"contracts/CrowdFund.sol\":7498:7509  projectList */\n      dup2\n        /* \"contracts/CrowdFund.sol\":7498:7516  projectList.length */\n      dup1\n      sload\n      swap1\n      pop\n        /* \"contracts/CrowdFund.sol\":7496:7497  i */\n      dup2\n        /* \"contracts/CrowdFund.sol\":7496:7516  i<projectList.length */\n      lt\n        /* \"contracts/CrowdFund.sol\":7482:7947  for (uint i=0;i<projectList.length;i++) {... */\n      iszero\n      tag_190\n      jumpi\n        /* \"contracts/CrowdFund.sol\":7568:7577  projectId */\n      dup5\n        /* \"contracts/CrowdFund.sol\":7540:7551  projectList */\n      dup3\n        /* \"contracts/CrowdFund.sol\":7552:7553  i */\n      dup3\n        /* \"contracts/CrowdFund.sol\":7540:7554  projectList[i] */\n      dup2\n      sload\n      dup2\n      lt\n      tag_192\n      jumpi\n      tag_193\n      tag_128\n      jump\t// in\n    tag_193:\n    tag_192:\n      swap1\n      0x00\n      mstore\n      keccak256(0x00, 0x20)\n      swap1\n      0x07\n      mul\n      add\n        /* \"contracts/CrowdFund.sol\":7540:7564  projectList[i].projectId */\n      0x00\n      add\n      sload\n        /* \"contracts/CrowdFund.sol\":7540:7577  projectList[i].projectId == projectId */\n      eq\n        /* \"contracts/CrowdFund.sol\":7536:7937  if (projectList[i].projectId == projectId) {... */\n      iszero\n      tag_195\n      jumpi\n        /* \"contracts/CrowdFund.sol\":7642:7651  enumValue */\n      dup3\n        /* \"contracts/CrowdFund.sol\":7628:7652  ProjectStatus(enumValue) */\n      0xff\n      and\n      0x09\n      dup2\n      gt\n      iszero\n      tag_196\n      jumpi\n      tag_197\n      tag_155\n      jump\t// in\n    tag_197:\n    tag_196:\n        /* \"contracts/CrowdFund.sol\":7597:7608  projectList */\n      dup3\n        /* \"contracts/CrowdFund.sol\":7609:7610  i */\n      dup3\n        /* \"contracts/CrowdFund.sol\":7597:7611  projectList[i] */\n      dup2\n      sload\n      dup2\n      lt\n      tag_198\n      jumpi\n      tag_199\n      tag_128\n      jump\t// in\n    tag_199:\n    tag_198:\n      swap1\n      0x00\n      mstore\n      keccak256(0x00, 0x20)\n      swap1\n      0x07\n      mul\n      add\n        /* \"contracts/CrowdFund.sol\":7597:7625  projectList[i].projectStatus */\n      0x06\n      add\n      0x00\n        /* \"contracts/CrowdFund.sol\":7597:7652  projectList[i].projectStatus = ProjectStatus(enumValue) */\n      0x0100\n      exp\n      dup2\n      sload\n      dup2\n      0xff\n      mul\n      not\n      and\n      swap1\n      dup4\n      0x09\n      dup2\n      gt\n      iszero\n      tag_201\n      jumpi\n      tag_202\n      tag_155\n      jump\t// in\n    tag_202:\n    tag_201:\n      mul\n      or\n      swap1\n      sstore\n      pop\n        /* \"contracts/CrowdFund.sol\":7825:7898  BoardMessageToCharity(charityId, projectId, projectList[i].projectStatus) */\n      0x42b0281ef1ba120f08ae315789f8639d48731db33eaac502b629a775c997471b\n        /* \"contracts/CrowdFund.sol\":7847:7856  charityId */\n      dup5\n        /* \"contracts/CrowdFund.sol\":7858:7867  projectId */\n      dup7\n        /* \"contracts/CrowdFund.sol\":7869:7880  projectList */\n      dup5\n        /* \"contracts/CrowdFund.sol\":7881:7882  i */\n      dup5\n        /* \"contracts/CrowdFund.sol\":7869:7883  projectList[i] */\n      dup2\n      sload\n      dup2\n      lt\n      tag_203\n      jumpi\n      tag_204\n      tag_128\n      jump\t// in\n    tag_204:\n    tag_203:\n      swap1\n      0x00\n      mstore\n      keccak256(0x00, 0x20)\n      swap1\n      0x07\n      mul\n      add\n        /* \"contracts/CrowdFund.sol\":7869:7897  projectList[i].projectStatus */\n      0x06\n      add\n      0x00\n      swap1\n      sload\n      swap1\n      0x0100\n      exp\n      swap1\n      div\n      0xff\n      and\n        /* \"contracts/CrowdFund.sol\":7825:7898  BoardMessageToCharity(charityId, projectId, projectList[i].projectStatus) */\n      mload(0x40)\n      tag_206\n      swap4\n      swap3\n      swap2\n      swap1\n      tag_207\n      jump\t// in\n    tag_206:\n      mload(0x40)\n      dup1\n      swap2\n      sub\n      swap1\n      log1\n        /* \"contracts/CrowdFund.sol\":7917:7922  break */\n      jump(tag_190)\n        /* \"contracts/CrowdFund.sol\":7536:7937  if (projectList[i].projectId == projectId) {... */\n    tag_195:\n        /* \"contracts/CrowdFund.sol\":7517:7520  i++ */\n      dup1\n      dup1\n      tag_208\n      swap1\n      tag_146\n      jump\t// in\n    tag_208:\n      swap2\n      pop\n      pop\n        /* \"contracts/CrowdFund.sol\":7482:7947  for (uint i=0;i<projectList.length;i++) {... */\n      jump(tag_189)\n    tag_190:\n      pop\n        /* \"contracts/CrowdFund.sol\":6756:7953  {... */\n      pop\n        /* \"contracts/CrowdFund.sol\":6656:7953  function updateProjectStatus(uint projectId, uint charityId, uint8 enumValue) onlyBoardAdmin public {... */\n      pop\n      pop\n      pop\n      jump\t// out\n        /* \"contracts/CrowdFund.sol\":8007:10334  function changeProjectStatus(uint projectId, uint charityId, uint8 enumValue) onlyCharity public {... */\n    tag_53:\n        /* \"contracts/CrowdFund.sol\":3206:3216  boardAdmin */\n      0x02\n      0x00\n      swap1\n      sload\n      swap1\n      0x0100\n      exp\n      swap1\n      div\n      0xffffffffffffffffffffffffffffffffffffffff\n      and\n        /* \"contracts/CrowdFund.sol\":3194:3216  msg.sender!=boardAdmin */\n      0xffffffffffffffffffffffffffffffffffffffff\n      and\n        /* \"contracts/CrowdFund.sol\":3194:3204  msg.sender */\n      caller\n        /* \"contracts/CrowdFund.sol\":3194:3216  msg.sender!=boardAdmin */\n      0xffffffffffffffffffffffffffffffffffffffff\n      and\n      eq\n      iszero\n        /* \"contracts/CrowdFund.sol\":3217:3229  ONLY_CHARITY */\n      mload(0x40)\n      dup1\n      0x60\n      add\n      0x40\n      mstore\n      dup1\n      0x2f\n      dup2\n      mstore\n      0x20\n      add\n      data_ae7511c0e8221605b02a680fd07d0703f28d0f0f32c6884aaca3289d2fe90612\n      0x2f\n      swap2\n      codecopy\n        /* \"contracts/CrowdFund.sol\":3186:3230  require(msg.sender!=boardAdmin,ONLY_CHARITY) */\n      swap1\n      tag_210\n      jumpi\n      mload(0x40)\n      0x08c379a000000000000000000000000000000000000000000000000000000000\n      dup2\n      mstore\n      0x04\n      add\n      tag_211\n      swap2\n      swap1\n      tag_72\n      jump\t// in\n    tag_211:\n      mload(0x40)\n      dup1\n      swap2\n      sub\n      swap1\n      revert\n    tag_210:\n      pop\n        /* \"contracts/CrowdFund.sol\":8123:8133  bool exist */\n      0x00\n        /* \"contracts/CrowdFund.sol\":8188:8205  ProjectStatus.PGA */\n      0x03\n        /* \"contracts/CrowdFund.sol\":8160:8205  ProjectStatus(enumValue) != ProjectStatus.PGA */\n      0x09\n      dup2\n      gt\n      iszero\n      tag_213\n      jumpi\n      tag_214\n      tag_155\n      jump\t// in\n    tag_214:\n    tag_213:\n        /* \"contracts/CrowdFund.sol\":8174:8183  enumValue */\n      dup3\n        /* \"contracts/CrowdFund.sol\":8160:8184  ProjectStatus(enumValue) */\n      0xff\n      and\n      0x09\n      dup2\n      gt\n      iszero\n      tag_215\n      jumpi\n      tag_216\n      tag_155\n      jump\t// in\n    tag_216:\n    tag_215:\n        /* \"contracts/CrowdFund.sol\":8160:8205  ProjectStatus(enumValue) != ProjectStatus.PGA */\n      0x09\n      dup2\n      gt\n      iszero\n      tag_217\n      jumpi\n      tag_218\n      tag_155\n      jump\t// in\n    tag_218:\n    tag_217:\n      eq\n      iszero\n        /* \"contracts/CrowdFund.sol\":8206:8213  NO_AUTH */\n      mload(0x40)\n      dup1\n      0x60\n      add\n      0x40\n      mstore\n      dup1\n      0x31\n      dup2\n      mstore\n      0x20\n      add\n      data_5c19b7ff1bcfb320392194574ccc24118e50bba13de42db0a22f05014bb7a7fa\n      0x31\n      swap2\n      codecopy\n        /* \"contracts/CrowdFund.sol\":8152:8214  require(ProjectStatus(enumValue) != ProjectStatus.PGA,NO_AUTH) */\n      swap1\n      tag_219\n      jumpi\n      mload(0x40)\n      0x08c379a000000000000000000000000000000000000000000000000000000000\n      dup2\n      mstore\n      0x04\n      add\n      tag_220\n      swap2\n      swap1\n      tag_72\n      jump\t// in\n    tag_220:\n      mload(0x40)\n      dup1\n      swap2\n      sub\n      swap1\n      revert\n    tag_219:\n      pop\n        /* \"contracts/CrowdFund.sol\":8260:8277  ProjectStatus.XRR */\n      0x05\n        /* \"contracts/CrowdFund.sol\":8232:8277  ProjectStatus(enumValue) != ProjectStatus.XRR */\n      0x09\n      dup2\n      gt\n      iszero\n      tag_221\n      jumpi\n      tag_222\n      tag_155\n      jump\t// in\n    tag_222:\n    tag_221:\n        /* \"contracts/CrowdFund.sol\":8246:8255  enumValue */\n      dup3\n        /* \"contracts/CrowdFund.sol\":8232:8256  ProjectStatus(enumValue) */\n      0xff\n      and\n      0x09\n      dup2\n      gt\n      iszero\n      tag_223\n      jumpi\n      tag_224\n      tag_155\n      jump\t// in\n    tag_224:\n    tag_223:\n        /* \"contracts/CrowdFund.sol\":8232:8277  ProjectStatus(enumValue) != ProjectStatus.XRR */\n      0x09\n      dup2\n      gt\n      iszero\n      tag_225\n      jumpi\n      tag_226\n      tag_155\n      jump\t// in\n    tag_226:\n    tag_225:\n      eq\n      iszero\n        /* \"contracts/CrowdFund.sol\":8278:8285  NO_AUTH */\n      mload(0x40)\n      dup1\n      0x60\n      add\n      0x40\n      mstore\n      dup1\n      0x31\n      dup2\n      mstore\n      0x20\n      add\n      data_5c19b7ff1bcfb320392194574ccc24118e50bba13de42db0a22f05014bb7a7fa\n      0x31\n      swap2\n      codecopy\n        /* \"contracts/CrowdFund.sol\":8224:8286  require(ProjectStatus(enumValue) != ProjectStatus.XRR,NO_AUTH) */\n      swap1\n      tag_227\n      jumpi\n      mload(0x40)\n      0x08c379a000000000000000000000000000000000000000000000000000000000\n      dup2\n      mstore\n      0x04\n      add\n      tag_228\n      swap2\n      swap1\n      tag_72\n      jump\t// in\n    tag_228:\n      mload(0x40)\n      dup1\n      swap2\n      sub\n      swap1\n      revert\n    tag_227:\n      pop\n        /* \"contracts/CrowdFund.sol\":8332:8349  ProjectStatus.XRA */\n      0x06\n        /* \"contracts/CrowdFund.sol\":8304:8349  ProjectStatus(enumValue) != ProjectStatus.XRA */\n      0x09\n      dup2\n      gt\n      iszero\n      tag_229\n      jumpi\n      tag_230\n      tag_155\n      jump\t// in\n    tag_230:\n    tag_229:\n        /* \"contracts/CrowdFund.sol\":8318:8327  enumValue */\n      dup3\n        /* \"contracts/CrowdFund.sol\":8304:8328  ProjectStatus(enumValue) */\n      0xff\n      and\n      0x09\n      dup2\n      gt\n      iszero\n      tag_231\n      jumpi\n      tag_232\n      tag_155\n      jump\t// in\n    tag_232:\n    tag_231:\n        /* \"contracts/CrowdFund.sol\":8304:8349  ProjectStatus(enumValue) != ProjectStatus.XRA */\n      0x09\n      dup2\n      gt\n      iszero\n      tag_233\n      jumpi\n      tag_234\n      tag_155\n      jump\t// in\n    tag_234:\n    tag_233:\n      eq\n      iszero\n        /* \"contracts/CrowdFund.sol\":8350:8357  NO_AUTH */\n      mload(0x40)\n      dup1\n      0x60\n      add\n      0x40\n      mstore\n      dup1\n      0x31\n      dup2\n      mstore\n      0x20\n      add\n      data_5c19b7ff1bcfb320392194574ccc24118e50bba13de42db0a22f05014bb7a7fa\n      0x31\n      swap2\n      codecopy\n        /* \"contracts/CrowdFund.sol\":8296:8358  require(ProjectStatus(enumValue) != ProjectStatus.XRA,NO_AUTH) */\n      swap1\n      tag_235\n      jumpi\n      mload(0x40)\n      0x08c379a000000000000000000000000000000000000000000000000000000000\n      dup2\n      mstore\n      0x04\n      add\n      tag_236\n      swap2\n      swap1\n      tag_72\n      jump\t// in\n    tag_236:\n      mload(0x40)\n      dup1\n      swap2\n      sub\n      swap1\n      revert\n    tag_235:\n      pop\n        /* \"contracts/CrowdFund.sol\":8443:8472  Project[] storage projectList */\n      0x00\n        /* \"contracts/CrowdFund.sol\":8475:8490  charityProjects */\n      0x03\n        /* \"contracts/CrowdFund.sol\":8475:8501  charityProjects[charityId] */\n      0x00\n        /* \"contracts/CrowdFund.sol\":8491:8500  charityId */\n      dup6\n        /* \"contracts/CrowdFund.sol\":8475:8501  charityProjects[charityId] */\n      dup2\n      mstore\n      0x20\n      add\n      swap1\n      dup2\n      mstore\n      0x20\n      add\n      0x00\n      keccak256\n        /* \"contracts/CrowdFund.sol\":8443:8501  Project[] storage projectList = charityProjects[charityId] */\n      swap1\n      pop\n        /* \"contracts/CrowdFund.sol\":8540:8541  0 */\n      0x00\n        /* \"contracts/CrowdFund.sol\":8519:8530  projectList */\n      dup2\n        /* \"contracts/CrowdFund.sol\":8519:8537  projectList.length */\n      dup1\n      sload\n      swap1\n      pop\n        /* \"contracts/CrowdFund.sol\":8519:8541  projectList.length > 0 */\n      gt\n        /* \"contracts/CrowdFund.sol\":8511:8566  require(projectList.length > 0,\"Project doesn't exist\") */\n      tag_237\n      jumpi\n      mload(0x40)\n      0x08c379a000000000000000000000000000000000000000000000000000000000\n      dup2\n      mstore\n      0x04\n      add\n      tag_238\n      swap1\n      tag_239\n      jump\t// in\n    tag_238:\n      mload(0x40)\n      dup1\n      swap2\n      sub\n      swap1\n      revert\n    tag_237:\n        /* \"contracts/CrowdFund.sol\":8582:8588  uint i */\n      0x00\n        /* \"contracts/CrowdFund.sol\":8577:10328  for (uint i=0;i<projectList.length;i++) {... */\n    tag_240:\n        /* \"contracts/CrowdFund.sol\":8593:8604  projectList */\n      dup2\n        /* \"contracts/CrowdFund.sol\":8593:8611  projectList.length */\n      dup1\n      sload\n      swap1\n      pop\n        /* \"contracts/CrowdFund.sol\":8591:8592  i */\n      dup2\n        /* \"contracts/CrowdFund.sol\":8591:8611  i<projectList.length */\n      lt\n        /* \"contracts/CrowdFund.sol\":8577:10328  for (uint i=0;i<projectList.length;i++) {... */\n      iszero\n      tag_241\n      jumpi\n        /* \"contracts/CrowdFund.sol\":8663:8672  projectId */\n      dup6\n        /* \"contracts/CrowdFund.sol\":8635:8646  projectList */\n      dup3\n        /* \"contracts/CrowdFund.sol\":8647:8648  i */\n      dup3\n        /* \"contracts/CrowdFund.sol\":8635:8649  projectList[i] */\n      dup2\n      sload\n      dup2\n      lt\n      tag_243\n      jumpi\n      tag_244\n      tag_128\n      jump\t// in\n    tag_244:\n    tag_243:\n      swap1\n      0x00\n      mstore\n      keccak256(0x00, 0x20)\n      swap1\n      0x07\n      mul\n      add\n        /* \"contracts/CrowdFund.sol\":8635:8659  projectList[i].projectId */\n      0x00\n      add\n      sload\n        /* \"contracts/CrowdFund.sol\":8635:8672  projectList[i].projectId == projectId */\n      eq\n        /* \"contracts/CrowdFund.sol\":8631:10271  if (projectList[i].projectId == projectId) {... */\n      iszero\n      tag_246\n      jumpi\n        /* \"contracts/CrowdFund.sol\":8717:8721  true */\n      0x01\n        /* \"contracts/CrowdFund.sol\":8709:8721  exist = true */\n      swap3\n      pop\n        /* \"contracts/CrowdFund.sol\":8772:8777  false */\n      0x00\n        /* \"contracts/CrowdFund.sol\":8740:8751  projectList */\n      dup3\n        /* \"contracts/CrowdFund.sol\":8752:8753  i */\n      dup3\n        /* \"contracts/CrowdFund.sol\":8740:8754  projectList[i] */\n      dup2\n      sload\n      dup2\n      lt\n      tag_247\n      jumpi\n      tag_248\n      tag_128\n      jump\t// in\n    tag_248:\n    tag_247:\n      swap1\n      0x00\n      mstore\n      keccak256(0x00, 0x20)\n      swap1\n      0x07\n      mul\n      add\n        /* \"contracts/CrowdFund.sol\":8740:8769  projectList[i].acceptDonation */\n      0x04\n      add\n      0x14\n        /* \"contracts/CrowdFund.sol\":8740:8777  projectList[i].acceptDonation = false */\n      0x0100\n      exp\n      dup2\n      sload\n      dup2\n      0xff\n      mul\n      not\n      and\n      swap1\n      dup4\n      iszero\n      iszero\n      mul\n      or\n      swap1\n      sstore\n      pop\n        /* \"contracts/CrowdFund.sol\":8828:8845  ProjectStatus.XRJ */\n      0x07\n        /* \"contracts/CrowdFund.sol\":8800:8845  ProjectStatus(enumValue) == ProjectStatus.XRJ */\n      0x09\n      dup2\n      gt\n      iszero\n      tag_250\n      jumpi\n      tag_251\n      tag_155\n      jump\t// in\n    tag_251:\n    tag_250:\n        /* \"contracts/CrowdFund.sol\":8814:8823  enumValue */\n      dup5\n        /* \"contracts/CrowdFund.sol\":8800:8824  ProjectStatus(enumValue) */\n      0xff\n      and\n      0x09\n      dup2\n      gt\n      iszero\n      tag_252\n      jumpi\n      tag_253\n      tag_155\n      jump\t// in\n    tag_253:\n    tag_252:\n        /* \"contracts/CrowdFund.sol\":8800:8845  ProjectStatus(enumValue) == ProjectStatus.XRJ */\n      0x09\n      dup2\n      gt\n      iszero\n      tag_254\n      jumpi\n      tag_255\n      tag_155\n      jump\t// in\n    tag_255:\n    tag_254:\n      eq\n        /* \"contracts/CrowdFund.sol\":8800:8914  ProjectStatus(enumValue) == ProjectStatus.XRJ ||... */\n      dup1\n      tag_256\n      jumpi\n      pop\n        /* \"contracts/CrowdFund.sol\":8897:8914  ProjectStatus.XRA */\n      0x06\n        /* \"contracts/CrowdFund.sol\":8869:8914  ProjectStatus(enumValue) == ProjectStatus.XRA */\n      0x09\n      dup2\n      gt\n      iszero\n      tag_257\n      jumpi\n      tag_258\n      tag_155\n      jump\t// in\n    tag_258:\n    tag_257:\n        /* \"contracts/CrowdFund.sol\":8883:8892  enumValue */\n      dup5\n        /* \"contracts/CrowdFund.sol\":8869:8893  ProjectStatus(enumValue) */\n      0xff\n      and\n      0x09\n      dup2\n      gt\n      iszero\n      tag_259\n      jumpi\n      tag_260\n      tag_155\n      jump\t// in\n    tag_260:\n    tag_259:\n        /* \"contracts/CrowdFund.sol\":8869:8914  ProjectStatus(enumValue) == ProjectStatus.XRA */\n      0x09\n      dup2\n      gt\n      iszero\n      tag_261\n      jumpi\n      tag_262\n      tag_155\n      jump\t// in\n    tag_262:\n    tag_261:\n      eq\n        /* \"contracts/CrowdFund.sol\":8800:8914  ProjectStatus(enumValue) == ProjectStatus.XRJ ||... */\n    tag_256:\n        /* \"contracts/CrowdFund.sol\":8796:10257  if (ProjectStatus(enumValue) == ProjectStatus.XRJ ||... */\n      iszero\n      tag_263\n      jumpi\n        /* \"contracts/CrowdFund.sol\":9018:9090  CharityMessageToReceiver(charityId, projectId, ProjectStatus(enumValue)) */\n      0x2de098063448dbe8b26fa82794cd68cf748edb4f3e2cc43166e3ad659757019e\n        /* \"contracts/CrowdFund.sol\":9043:9052  charityId */\n      dup6\n        /* \"contracts/CrowdFund.sol\":9054:9063  projectId */\n      dup8\n        /* \"contracts/CrowdFund.sol\":9079:9088  enumValue */\n      dup7\n        /* \"contracts/CrowdFund.sol\":9065:9089  ProjectStatus(enumValue) */\n      0xff\n      and\n      0x09\n      dup2\n      gt\n      iszero\n      tag_264\n      jumpi\n      tag_265\n      tag_155\n      jump\t// in\n    tag_265:\n    tag_264:\n        /* \"contracts/CrowdFund.sol\":9018:9090  CharityMessageToReceiver(charityId, projectId, ProjectStatus(enumValue)) */\n      mload(0x40)\n      tag_266\n      swap4\n      swap3\n      swap2\n      swap1\n      tag_207\n      jump\t// in\n    tag_266:\n      mload(0x40)\n      dup1\n      swap2\n      sub\n      swap1\n      log1\n        /* \"contracts/CrowdFund.sol\":9193:9210  ProjectStatus.XRJ */\n      0x07\n        /* \"contracts/CrowdFund.sol\":9165:9210  ProjectStatus(enumValue) == ProjectStatus.XRJ */\n      0x09\n      dup2\n      gt\n      iszero\n      tag_267\n      jumpi\n      tag_268\n      tag_155\n      jump\t// in\n    tag_268:\n    tag_267:\n        /* \"contracts/CrowdFund.sol\":9179:9188  enumValue */\n      dup5\n        /* \"contracts/CrowdFund.sol\":9165:9189  ProjectStatus(enumValue) */\n      0xff\n      and\n      0x09\n      dup2\n      gt\n      iszero\n      tag_269\n      jumpi\n      tag_270\n      tag_155\n      jump\t// in\n    tag_270:\n    tag_269:\n        /* \"contracts/CrowdFund.sol\":9165:9210  ProjectStatus(enumValue) == ProjectStatus.XRJ */\n      0x09\n      dup2\n      gt\n      iszero\n      tag_271\n      jumpi\n      tag_272\n      tag_155\n      jump\t// in\n    tag_272:\n    tag_271:\n      eq\n        /* \"contracts/CrowdFund.sol\":9161:9831  if (ProjectStatus(enumValue) == ProjectStatus.XRJ) {... */\n      iszero\n      tag_273\n      jumpi\n        /* \"contracts/CrowdFund.sol\":9397:9459  CharityMessageToDonor(charityId, projectId, ProjectStatus.RFD) */\n      0xbd0e0cbb7f526d9c7052b56c5d1873ee7b834959cd785b696dd0f9d418d9617a\n        /* \"contracts/CrowdFund.sol\":9419:9428  charityId */\n      dup6\n        /* \"contracts/CrowdFund.sol\":9430:9439  projectId */\n      dup8\n        /* \"contracts/CrowdFund.sol\":9441:9458  ProjectStatus.RFD */\n      0x08\n        /* \"contracts/CrowdFund.sol\":9397:9459  CharityMessageToDonor(charityId, projectId, ProjectStatus.RFD) */\n      mload(0x40)\n      tag_274\n      swap4\n      swap3\n      swap2\n      swap1\n      tag_207\n      jump\t// in\n    tag_274:\n      mload(0x40)\n      dup1\n      swap2\n      sub\n      swap1\n      log1\n        /* \"contracts/CrowdFund.sol\":9161:9831  if (ProjectStatus(enumValue) == ProjectStatus.XRJ) {... */\n      jump(tag_275)\n    tag_273:\n        /* \"contracts/CrowdFund.sol\":9521:9538  ProjectStatus.XRA */\n      0x06\n        /* \"contracts/CrowdFund.sol\":9493:9538  ProjectStatus(enumValue) == ProjectStatus.XRA */\n      0x09\n      dup2\n      gt\n      iszero\n      tag_276\n      jumpi\n      tag_277\n      tag_155\n      jump\t// in\n    tag_277:\n    tag_276:\n        /* \"contracts/CrowdFund.sol\":9507:9516  enumValue */\n      dup5\n        /* \"contracts/CrowdFund.sol\":9493:9517  ProjectStatus(enumValue) */\n      0xff\n      and\n      0x09\n      dup2\n      gt\n      iszero\n      tag_278\n      jumpi\n      tag_279\n      tag_155\n      jump\t// in\n    tag_279:\n    tag_278:\n        /* \"contracts/CrowdFund.sol\":9493:9538  ProjectStatus(enumValue) == ProjectStatus.XRA */\n      0x09\n      dup2\n      gt\n      iszero\n      tag_280\n      jumpi\n      tag_281\n      tag_155\n      jump\t// in\n    tag_281:\n    tag_280:\n      eq\n        /* \"contracts/CrowdFund.sol\":9489:9831  if (ProjectStatus(enumValue) == ProjectStatus.XRA) {... */\n      iszero\n      tag_282\n      jumpi\n        /* \"contracts/CrowdFund.sol\":9746:9808  CharityMessageToDonor(charityId, projectId, ProjectStatus.CLD) */\n      0xbd0e0cbb7f526d9c7052b56c5d1873ee7b834959cd785b696dd0f9d418d9617a\n        /* \"contracts/CrowdFund.sol\":9768:9777  charityId */\n      dup6\n        /* \"contracts/CrowdFund.sol\":9779:9788  projectId */\n      dup8\n        /* \"contracts/CrowdFund.sol\":9790:9807  ProjectStatus.CLD */\n      0x09\n        /* \"contracts/CrowdFund.sol\":9746:9808  CharityMessageToDonor(charityId, projectId, ProjectStatus.CLD) */\n      mload(0x40)\n      tag_283\n      swap4\n      swap3\n      swap2\n      swap1\n      tag_207\n      jump\t// in\n    tag_283:\n      mload(0x40)\n      dup1\n      swap2\n      sub\n      swap1\n      log1\n        /* \"contracts/CrowdFund.sol\":9489:9831  if (ProjectStatus(enumValue) == ProjectStatus.XRA) {... */\n    tag_282:\n        /* \"contracts/CrowdFund.sol\":9161:9831  if (ProjectStatus(enumValue) == ProjectStatus.XRJ) {... */\n    tag_275:\n        /* \"contracts/CrowdFund.sol\":8796:10257  if (ProjectStatus(enumValue) == ProjectStatus.XRJ ||... */\n      jump(tag_284)\n    tag_263:\n        /* \"contracts/CrowdFund.sol\":9972:9981  enumValue */\n      dup4\n        /* \"contracts/CrowdFund.sol\":9958:9982  ProjectStatus(enumValue) */\n      0xff\n      and\n      0x09\n      dup2\n      gt\n      iszero\n      tag_285\n      jumpi\n      tag_286\n      tag_155\n      jump\t// in\n    tag_286:\n    tag_285:\n        /* \"contracts/CrowdFund.sol\":9927:9938  projectList */\n      dup3\n        /* \"contracts/CrowdFund.sol\":9939:9940  i */\n      dup3\n        /* \"contracts/CrowdFund.sol\":9927:9941  projectList[i] */\n      dup2\n      sload\n      dup2\n      lt\n      tag_287\n      jumpi\n      tag_288\n      tag_128\n      jump\t// in\n    tag_288:\n    tag_287:\n      swap1\n      0x00\n      mstore\n      keccak256(0x00, 0x20)\n      swap1\n      0x07\n      mul\n      add\n        /* \"contracts/CrowdFund.sol\":9927:9955  projectList[i].projectStatus */\n      0x06\n      add\n      0x00\n        /* \"contracts/CrowdFund.sol\":9927:9982  projectList[i].projectStatus = ProjectStatus(enumValue) */\n      0x0100\n      exp\n      dup2\n      sload\n      dup2\n      0xff\n      mul\n      not\n      and\n      swap1\n      dup4\n      0x09\n      dup2\n      gt\n      iszero\n      tag_290\n      jumpi\n      tag_291\n      tag_155\n      jump\t// in\n    tag_291:\n    tag_290:\n      mul\n      or\n      swap1\n      sstore\n      pop\n        /* \"contracts/CrowdFund.sol\":10037:10054  ProjectStatus.XRQ */\n      0x04\n        /* \"contracts/CrowdFund.sol\":10009:10054  ProjectStatus(enumValue) == ProjectStatus.XRQ */\n      0x09\n      dup2\n      gt\n      iszero\n      tag_292\n      jumpi\n      tag_293\n      tag_155\n      jump\t// in\n    tag_293:\n    tag_292:\n        /* \"contracts/CrowdFund.sol\":10023:10032  enumValue */\n      dup5\n        /* \"contracts/CrowdFund.sol\":10009:10033  ProjectStatus(enumValue) */\n      0xff\n      and\n      0x09\n      dup2\n      gt\n      iszero\n      tag_294\n      jumpi\n      tag_295\n      tag_155\n      jump\t// in\n    tag_295:\n    tag_294:\n        /* \"contracts/CrowdFund.sol\":10009:10054  ProjectStatus(enumValue) == ProjectStatus.XRQ */\n      0x09\n      dup2\n      gt\n      iszero\n      tag_296\n      jumpi\n      tag_297\n      tag_155\n      jump\t// in\n    tag_297:\n    tag_296:\n      eq\n        /* \"contracts/CrowdFund.sol\":10005:10239  if (ProjectStatus(enumValue) == ProjectStatus.XRQ) {... */\n      iszero\n      tag_298\n      jumpi\n        /* \"contracts/CrowdFund.sol\":10154:10216  CharityMessageToBoard(charityId, projectId, ProjectStatus.XRQ) */\n      0xd49fc9fa26fa9fc112efd004acb9eeabf80810373d2cbb1a7884d4d64e8e8d2b\n        /* \"contracts/CrowdFund.sol\":10176:10185  charityId */\n      dup6\n        /* \"contracts/CrowdFund.sol\":10187:10196  projectId */\n      dup8\n        /* \"contracts/CrowdFund.sol\":10198:10215  ProjectStatus.XRQ */\n      0x04\n        /* \"contracts/CrowdFund.sol\":10154:10216  CharityMessageToBoard(charityId, projectId, ProjectStatus.XRQ) */\n      mload(0x40)\n      tag_299\n      swap4\n      swap3\n      swap2\n      swap1\n      tag_207\n      jump\t// in\n    tag_299:\n      mload(0x40)\n      dup1\n      swap2\n      sub\n      swap1\n      log1\n        /* \"contracts/CrowdFund.sol\":10005:10239  if (ProjectStatus(enumValue) == ProjectStatus.XRQ) {... */\n    tag_298:\n        /* \"contracts/CrowdFund.sol\":8796:10257  if (ProjectStatus(enumValue) == ProjectStatus.XRJ ||... */\n    tag_284:\n        /* \"contracts/CrowdFund.sol\":8631:10271  if (projectList[i].projectId == projectId) {... */\n    tag_246:\n        /* \"contracts/CrowdFund.sol\":10289:10294  exist */\n      dup3\n        /* \"contracts/CrowdFund.sol\":10285:10317  if (exist)... */\n      iszero\n      tag_300\n      jumpi\n        /* \"contracts/CrowdFund.sol\":10312:10317  break */\n      jump(tag_241)\n        /* \"contracts/CrowdFund.sol\":10285:10317  if (exist)... */\n    tag_300:\n        /* \"contracts/CrowdFund.sol\":8612:8615  i++ */\n      dup1\n      dup1\n      tag_301\n      swap1\n      tag_146\n      jump\t// in\n    tag_301:\n      swap2\n      pop\n      pop\n        /* \"contracts/CrowdFund.sol\":8577:10328  for (uint i=0;i<projectList.length;i++) {... */\n      jump(tag_240)\n    tag_241:\n      pop\n        /* \"contracts/CrowdFund.sol\":8104:10334  {... */\n      pop\n      pop\n        /* \"contracts/CrowdFund.sol\":8007:10334  function changeProjectStatus(uint projectId, uint charityId, uint8 enumValue) onlyCharity public {... */\n      pop\n      pop\n      pop\n      jump\t// out\n        /* \"contracts/CrowdFund.sol\":14341:16381  function getRefund(uint charityId, uint projectId) public {... */\n    tag_57:\n        /* \"contracts/CrowdFund.sol\":14409:14426  bool projectExist */\n      0x00\n        /* \"contracts/CrowdFund.sol\":14444:14459  bool donorExist */\n      dup1\n        /* \"contracts/CrowdFund.sol\":14477:14506  Project[] storage projectList */\n      0x00\n        /* \"contracts/CrowdFund.sol\":14509:14524  charityProjects */\n      0x03\n        /* \"contracts/CrowdFund.sol\":14509:14535  charityProjects[charityId] */\n      0x00\n        /* \"contracts/CrowdFund.sol\":14525:14534  charityId */\n      dup7\n        /* \"contracts/CrowdFund.sol\":14509:14535  charityProjects[charityId] */\n      dup2\n      mstore\n      0x20\n      add\n      swap1\n      dup2\n      mstore\n      0x20\n      add\n      0x00\n      keccak256\n        /* \"contracts/CrowdFund.sol\":14477:14535  Project[] storage projectList = charityProjects[charityId] */\n      swap1\n      pop\n        /* \"contracts/CrowdFund.sol\":14574:14575  0 */\n      0x00\n        /* \"contracts/CrowdFund.sol\":14553:14564  projectList */\n      dup2\n        /* \"contracts/CrowdFund.sol\":14553:14571  projectList.length */\n      dup1\n      sload\n      swap1\n      pop\n        /* \"contracts/CrowdFund.sol\":14553:14575  projectList.length > 0 */\n      gt\n        /* \"contracts/CrowdFund.sol\":14545:14596  require(projectList.length > 0,\"Charity not found\") */\n      tag_303\n      jumpi\n      mload(0x40)\n      0x08c379a000000000000000000000000000000000000000000000000000000000\n      dup2\n      mstore\n      0x04\n      add\n      tag_304\n      swap1\n      tag_305\n      jump\t// in\n    tag_304:\n      mload(0x40)\n      dup1\n      swap2\n      sub\n      swap1\n      revert\n    tag_303:\n        /* \"contracts/CrowdFund.sol\":14607:14632  Donor[] storage allDonors */\n      0x00\n        /* \"contracts/CrowdFund.sol\":14635:14648  projectDonors */\n      0x05\n        /* \"contracts/CrowdFund.sol\":14635:14659  projectDonors[projectId] */\n      0x00\n        /* \"contracts/CrowdFund.sol\":14649:14658  projectId */\n      dup7\n        /* \"contracts/CrowdFund.sol\":14635:14659  projectDonors[projectId] */\n      dup2\n      mstore\n      0x20\n      add\n      swap1\n      dup2\n      mstore\n      0x20\n      add\n      0x00\n      keccak256\n        /* \"contracts/CrowdFund.sol\":14607:14659  Donor[] storage allDonors = projectDonors[projectId] */\n      swap1\n      pop\n        /* \"contracts/CrowdFund.sol\":14675:14681  uint j */\n      0x00\n        /* \"contracts/CrowdFund.sol\":14670:16285  for (uint j=0;j<allDonors.length;j++) {... */\n    tag_306:\n        /* \"contracts/CrowdFund.sol\":14686:14695  allDonors */\n      dup2\n        /* \"contracts/CrowdFund.sol\":14686:14702  allDonors.length */\n      dup1\n      sload\n      swap1\n      pop\n        /* \"contracts/CrowdFund.sol\":14684:14685  j */\n      dup2\n        /* \"contracts/CrowdFund.sol\":14684:14702  j<allDonors.length */\n      lt\n        /* \"contracts/CrowdFund.sol\":14670:16285  for (uint j=0;j<allDonors.length;j++) {... */\n      iszero\n      tag_307\n      jumpi\n        /* \"contracts/CrowdFund.sol\":14852:14862  msg.sender */\n      caller\n        /* \"contracts/CrowdFund.sol\":14830:14862  allDonors[j].owner == msg.sender */\n      0xffffffffffffffffffffffffffffffffffffffff\n      and\n        /* \"contracts/CrowdFund.sol\":14830:14839  allDonors */\n      dup3\n        /* \"contracts/CrowdFund.sol\":14840:14841  j */\n      dup3\n        /* \"contracts/CrowdFund.sol\":14830:14842  allDonors[j] */\n      dup2\n      sload\n      dup2\n      lt\n      tag_309\n      jumpi\n      tag_310\n      tag_128\n      jump\t// in\n    tag_310:\n    tag_309:\n      swap1\n      0x00\n      mstore\n      keccak256(0x00, 0x20)\n      swap1\n      0x03\n      mul\n      add\n        /* \"contracts/CrowdFund.sol\":14830:14848  allDonors[j].owner */\n      0x01\n      add\n      0x00\n      swap1\n      sload\n      swap1\n      0x0100\n      exp\n      swap1\n      div\n      0xffffffffffffffffffffffffffffffffffffffff\n      and\n        /* \"contracts/CrowdFund.sol\":14830:14862  allDonors[j].owner == msg.sender */\n      0xffffffffffffffffffffffffffffffffffffffff\n      and\n      eq\n        /* \"contracts/CrowdFund.sol\":14830:14918  allDonors[j].owner == msg.sender && allDonors[j].projectwiseContributions[projectId] > 0 */\n      dup1\n      iszero\n      tag_312\n      jumpi\n      pop\n        /* \"contracts/CrowdFund.sol\":14917:14918  0 */\n      0x00\n        /* \"contracts/CrowdFund.sol\":14866:14875  allDonors */\n      dup3\n        /* \"contracts/CrowdFund.sol\":14876:14877  j */\n      dup3\n        /* \"contracts/CrowdFund.sol\":14866:14878  allDonors[j] */\n      dup2\n      sload\n      dup2\n      lt\n      tag_313\n      jumpi\n      tag_314\n      tag_128\n      jump\t// in\n    tag_314:\n    tag_313:\n      swap1\n      0x00\n      mstore\n      keccak256(0x00, 0x20)\n      swap1\n      0x03\n      mul\n      add\n        /* \"contracts/CrowdFund.sol\":14866:14903  allDonors[j].projectwiseContributions */\n      0x02\n      add\n        /* \"contracts/CrowdFund.sol\":14866:14914  allDonors[j].projectwiseContributions[projectId] */\n      0x00\n        /* \"contracts/CrowdFund.sol\":14904:14913  projectId */\n      dup9\n        /* \"contracts/CrowdFund.sol\":14866:14914  allDonors[j].projectwiseContributions[projectId] */\n      dup2\n      mstore\n      0x20\n      add\n      swap1\n      dup2\n      mstore\n      0x20\n      add\n      0x00\n      keccak256\n      sload\n        /* \"contracts/CrowdFund.sol\":14866:14918  allDonors[j].projectwiseContributions[projectId] > 0 */\n      gt\n        /* \"contracts/CrowdFund.sol\":14830:14918  allDonors[j].owner == msg.sender && allDonors[j].projectwiseContributions[projectId] > 0 */\n    tag_312:\n        /* \"contracts/CrowdFund.sol\":14826:16275  if (allDonors[j].owner == msg.sender && allDonors[j].projectwiseContributions[projectId] > 0) {... */\n      iszero\n      tag_316\n      jumpi\n        /* \"contracts/CrowdFund.sol\":14943:14949  uint i */\n      0x00\n        /* \"contracts/CrowdFund.sol\":14938:15866  for (uint i=0;i<projectList.length;i++) {... */\n    tag_317:\n        /* \"contracts/CrowdFund.sol\":14954:14965  projectList */\n      dup4\n        /* \"contracts/CrowdFund.sol\":14954:14972  projectList.length */\n      dup1\n      sload\n      swap1\n      pop\n        /* \"contracts/CrowdFund.sol\":14952:14953  i */\n      dup2\n        /* \"contracts/CrowdFund.sol\":14952:14972  i<projectList.length */\n      lt\n        /* \"contracts/CrowdFund.sol\":14938:15866  for (uint i=0;i<projectList.length;i++) {... */\n      iszero\n      tag_318\n      jumpi\n        /* \"contracts/CrowdFund.sol\":15032:15041  projectId */\n      dup7\n        /* \"contracts/CrowdFund.sol\":15004:15015  projectList */\n      dup5\n        /* \"contracts/CrowdFund.sol\":15016:15017  i */\n      dup3\n        /* \"contracts/CrowdFund.sol\":15004:15018  projectList[i] */\n      dup2\n      sload\n      dup2\n      lt\n      tag_320\n      jumpi\n      tag_321\n      tag_128\n      jump\t// in\n    tag_321:\n    tag_320:\n      swap1\n      0x00\n      mstore\n      keccak256(0x00, 0x20)\n      swap1\n      0x07\n      mul\n      add\n        /* \"contracts/CrowdFund.sol\":15004:15028  projectList[i].projectId */\n      0x00\n      add\n      sload\n        /* \"contracts/CrowdFund.sol\":15004:15041  projectList[i].projectId == projectId */\n      eq\n        /* \"contracts/CrowdFund.sol\":15000:15847  if (projectList[i].projectId == projectId) { ... */\n      iszero\n      tag_323\n      jumpi\n        /* \"contracts/CrowdFund.sol\":15105:15122  ProjectStatus.PGA */\n      0x03\n        /* \"contracts/CrowdFund.sol\":15074:15122  projectList[i].projectStatus > ProjectStatus.PGA */\n      0x09\n      dup2\n      gt\n      iszero\n      tag_324\n      jumpi\n      tag_325\n      tag_155\n      jump\t// in\n    tag_325:\n    tag_324:\n        /* \"contracts/CrowdFund.sol\":15074:15085  projectList */\n      dup5\n        /* \"contracts/CrowdFund.sol\":15086:15087  i */\n      dup3\n        /* \"contracts/CrowdFund.sol\":15074:15088  projectList[i] */\n      dup2\n      sload\n      dup2\n      lt\n      tag_326\n      jumpi\n      tag_327\n      tag_128\n      jump\t// in\n    tag_327:\n    tag_326:\n      swap1\n      0x00\n      mstore\n      keccak256(0x00, 0x20)\n      swap1\n      0x07\n      mul\n      add\n        /* \"contracts/CrowdFund.sol\":15074:15102  projectList[i].projectStatus */\n      0x06\n      add\n      0x00\n      swap1\n      sload\n      swap1\n      0x0100\n      exp\n      swap1\n      div\n      0xff\n      and\n        /* \"contracts/CrowdFund.sol\":15074:15122  projectList[i].projectStatus > ProjectStatus.PGA */\n      0x09\n      dup2\n      gt\n      iszero\n      tag_329\n      jumpi\n      tag_330\n      tag_155\n      jump\t// in\n    tag_330:\n    tag_329:\n      gt\n        /* \"contracts/CrowdFund.sol\":15070:15748  if (projectList[i].projectStatus > ProjectStatus.PGA) {... */\n      iszero\n      tag_331\n      jumpi\n        /* \"contracts/CrowdFund.sol\":15154:15229  revert(\"Can't refund as exchange request was already initiated with board\") */\n      mload(0x40)\n      0x08c379a000000000000000000000000000000000000000000000000000000000\n      dup2\n      mstore\n      0x04\n      add\n      tag_332\n      swap1\n      tag_333\n      jump\t// in\n    tag_332:\n      mload(0x40)\n      dup1\n      swap2\n      sub\n      swap1\n      revert\n        /* \"contracts/CrowdFund.sol\":15070:15748  if (projectList[i].projectStatus > ProjectStatus.PGA) {... */\n    tag_331:\n        /* \"contracts/CrowdFund.sol\":15352:15361  allDonors */\n      dup3\n        /* \"contracts/CrowdFund.sol\":15362:15363  j */\n      dup3\n        /* \"contracts/CrowdFund.sol\":15352:15364  allDonors[j] */\n      dup2\n      sload\n      dup2\n      lt\n      tag_335\n      jumpi\n      tag_336\n      tag_128\n      jump\t// in\n    tag_336:\n    tag_335:\n      swap1\n      0x00\n      mstore\n      keccak256(0x00, 0x20)\n      swap1\n      0x03\n      mul\n      add\n        /* \"contracts/CrowdFund.sol\":15352:15389  allDonors[j].projectwiseContributions */\n      0x02\n      add\n        /* \"contracts/CrowdFund.sol\":15352:15400  allDonors[j].projectwiseContributions[projectId] */\n      0x00\n        /* \"contracts/CrowdFund.sol\":15390:15399  projectId */\n      dup9\n        /* \"contracts/CrowdFund.sol\":15352:15400  allDonors[j].projectwiseContributions[projectId] */\n      dup2\n      mstore\n      0x20\n      add\n      swap1\n      dup2\n      mstore\n      0x20\n      add\n      0x00\n      keccak256\n      sload\n        /* \"contracts/CrowdFund.sol\":15322:15333  projectList */\n      dup5\n        /* \"contracts/CrowdFund.sol\":15334:15335  i */\n      dup3\n        /* \"contracts/CrowdFund.sol\":15322:15336  projectList[i] */\n      dup2\n      sload\n      dup2\n      lt\n      tag_338\n      jumpi\n      tag_339\n      tag_128\n      jump\t// in\n    tag_339:\n    tag_338:\n      swap1\n      0x00\n      mstore\n      keccak256(0x00, 0x20)\n      swap1\n      0x07\n      mul\n      add\n        /* \"contracts/CrowdFund.sol\":15322:15349  projectList[i].raisedAmount */\n      0x03\n      add\n      sload\n        /* \"contracts/CrowdFund.sol\":15322:15400  projectList[i].raisedAmount - allDonors[j].projectwiseContributions[projectId] */\n      tag_341\n      swap2\n      swap1\n      tag_144\n      jump\t// in\n    tag_341:\n        /* \"contracts/CrowdFund.sol\":15292:15303  projectList */\n      dup5\n        /* \"contracts/CrowdFund.sol\":15304:15305  i */\n      dup3\n        /* \"contracts/CrowdFund.sol\":15292:15306  projectList[i] */\n      dup2\n      sload\n      dup2\n      lt\n      tag_342\n      jumpi\n      tag_343\n      tag_128\n      jump\t// in\n    tag_343:\n    tag_342:\n      swap1\n      0x00\n      mstore\n      keccak256(0x00, 0x20)\n      swap1\n      0x07\n      mul\n      add\n        /* \"contracts/CrowdFund.sol\":15292:15319  projectList[i].raisedAmount */\n      0x03\n      add\n        /* \"contracts/CrowdFund.sol\":15292:15400  projectList[i].raisedAmount = projectList[i].raisedAmount - allDonors[j].projectwiseContributions[projectId] */\n      dup2\n      swap1\n      sstore\n      pop\n        /* \"contracts/CrowdFund.sol\":15529:15540  projectList */\n      dup4\n        /* \"contracts/CrowdFund.sol\":15541:15542  i */\n      dup2\n        /* \"contracts/CrowdFund.sol\":15529:15543  projectList[i] */\n      dup2\n      sload\n      dup2\n      lt\n      tag_345\n      jumpi\n      tag_346\n      tag_128\n      jump\t// in\n    tag_346:\n    tag_345:\n      swap1\n      0x00\n      mstore\n      keccak256(0x00, 0x20)\n      swap1\n      0x07\n      mul\n      add\n        /* \"contracts/CrowdFund.sol\":15529:15558  projectList[i].acceptDonation */\n      0x04\n      add\n      0x14\n      swap1\n      sload\n      swap1\n      0x0100\n      exp\n      swap1\n      div\n      0xff\n      and\n        /* \"contracts/CrowdFund.sol\":15524:15722  if (!projectList[i].acceptDonation) {... */\n      tag_348\n      jumpi\n        /* \"contracts/CrowdFund.sol\":15687:15691  true */\n      0x01\n        /* \"contracts/CrowdFund.sol\":15655:15666  projectList */\n      dup5\n        /* \"contracts/CrowdFund.sol\":15667:15668  i */\n      dup3\n        /* \"contracts/CrowdFund.sol\":15655:15669  projectList[i] */\n      dup2\n      sload\n      dup2\n      lt\n      tag_349\n      jumpi\n      tag_350\n      tag_128\n      jump\t// in\n    tag_350:\n    tag_349:\n      swap1\n      0x00\n      mstore\n      keccak256(0x00, 0x20)\n      swap1\n      0x07\n      mul\n      add\n        /* \"contracts/CrowdFund.sol\":15655:15684  projectList[i].acceptDonation */\n      0x04\n      add\n      0x14\n        /* \"contracts/CrowdFund.sol\":15655:15691  projectList[i].acceptDonation = true */\n      0x0100\n      exp\n      dup2\n      sload\n      dup2\n      0xff\n      mul\n      not\n      and\n      swap1\n      dup4\n      iszero\n      iszero\n      mul\n      or\n      swap1\n      sstore\n      pop\n        /* \"contracts/CrowdFund.sol\":15524:15722  if (!projectList[i].acceptDonation) {... */\n    tag_348:\n        /* \"contracts/CrowdFund.sol\":15789:15793  true */\n      0x01\n        /* \"contracts/CrowdFund.sol\":15774:15793  projectExist = true */\n      swap6\n      pop\n        /* \"contracts/CrowdFund.sol\":15819:15824  break */\n      jump(tag_318)\n        /* \"contracts/CrowdFund.sol\":15000:15847  if (projectList[i].projectId == projectId) { ... */\n    tag_323:\n        /* \"contracts/CrowdFund.sol\":14973:14976  i++ */\n      dup1\n      dup1\n      tag_352\n      swap1\n      tag_146\n      jump\t// in\n    tag_352:\n      swap2\n      pop\n      pop\n        /* \"contracts/CrowdFund.sol\":14938:15866  for (uint i=0;i<projectList.length;i++) {... */\n      jump(tag_317)\n    tag_318:\n      pop\n        /* \"contracts/CrowdFund.sol\":15905:15917  projectExist */\n      dup5\n        /* \"contracts/CrowdFund.sol\":15900:16007  if (!projectExist) {... */\n      tag_353\n      jumpi\n        /* \"contracts/CrowdFund.sol\":15941:15988  revert(\"No project exist under this projectId\") */\n      mload(0x40)\n      0x08c379a000000000000000000000000000000000000000000000000000000000\n      dup2\n      mstore\n      0x04\n      add\n      tag_354\n      swap1\n      tag_355\n      jump\t// in\n    tag_354:\n      mload(0x40)\n      dup1\n      swap2\n      sub\n      swap1\n      revert\n        /* \"contracts/CrowdFund.sol\":15900:16007  if (!projectExist) {... */\n    tag_353:\n        /* \"contracts/CrowdFund.sol\":16061:16071  msg.sender */\n      caller\n        /* \"contracts/CrowdFund.sol\":16052:16081  payable (msg.sender).transfer */\n      0xffffffffffffffffffffffffffffffffffffffff\n      and\n        /* \"contracts/CrowdFund.sol\":16052:16131  payable (msg.sender).transfer(allDonors[j].projectwiseContributions[projectId]) */\n      0x08fc\n        /* \"contracts/CrowdFund.sol\":16082:16091  allDonors */\n      dup4\n        /* \"contracts/CrowdFund.sol\":16092:16093  j */\n      dup4\n        /* \"contracts/CrowdFund.sol\":16082:16094  allDonors[j] */\n      dup2\n      sload\n      dup2\n      lt\n      tag_356\n      jumpi\n      tag_357\n      tag_128\n      jump\t// in\n    tag_357:\n    tag_356:\n      swap1\n      0x00\n      mstore\n      keccak256(0x00, 0x20)\n      swap1\n      0x03\n      mul\n      add\n        /* \"contracts/CrowdFund.sol\":16082:16119  allDonors[j].projectwiseContributions */\n      0x02\n      add\n        /* \"contracts/CrowdFund.sol\":16082:16130  allDonors[j].projectwiseContributions[projectId] */\n      0x00\n        /* \"contracts/CrowdFund.sol\":16120:16129  projectId */\n      dup10\n        /* \"contracts/CrowdFund.sol\":16082:16130  allDonors[j].projectwiseContributions[projectId] */\n      dup2\n      mstore\n      0x20\n      add\n      swap1\n      dup2\n      mstore\n      0x20\n      add\n      0x00\n      keccak256\n      sload\n        /* \"contracts/CrowdFund.sol\":16052:16131  payable (msg.sender).transfer(allDonors[j].projectwiseContributions[projectId]) */\n      swap1\n      dup2\n      iszero\n      mul\n      swap1\n      mload(0x40)\n      0x00\n      mload(0x40)\n      dup1\n      dup4\n      sub\n      dup2\n      dup6\n      dup9\n      dup9\n      call\n      swap4\n      pop\n      pop\n      pop\n      pop\n      iszero\n      dup1\n      iszero\n      tag_360\n      jumpi\n      returndatasize\n      0x00\n      dup1\n      returndatacopy\n      revert(0x00, returndatasize)\n    tag_360:\n      pop\n        /* \"contracts/CrowdFund.sol\":16200:16201  0 */\n      0x00\n        /* \"contracts/CrowdFund.sol\":16149:16158  allDonors */\n      dup3\n        /* \"contracts/CrowdFund.sol\":16159:16160  j */\n      dup3\n        /* \"contracts/CrowdFund.sol\":16149:16161  allDonors[j] */\n      dup2\n      sload\n      dup2\n      lt\n      tag_361\n      jumpi\n      tag_362\n      tag_128\n      jump\t// in\n    tag_362:\n    tag_361:\n      swap1\n      0x00\n      mstore\n      keccak256(0x00, 0x20)\n      swap1\n      0x03\n      mul\n      add\n        /* \"contracts/CrowdFund.sol\":16149:16186  allDonors[j].projectwiseContributions */\n      0x02\n      add\n        /* \"contracts/CrowdFund.sol\":16149:16197  allDonors[j].projectwiseContributions[projectId] */\n      0x00\n        /* \"contracts/CrowdFund.sol\":16187:16196  projectId */\n      dup9\n        /* \"contracts/CrowdFund.sol\":16149:16197  allDonors[j].projectwiseContributions[projectId] */\n      dup2\n      mstore\n      0x20\n      add\n      swap1\n      dup2\n      mstore\n      0x20\n      add\n      0x00\n      keccak256\n        /* \"contracts/CrowdFund.sol\":16149:16201  allDonors[j].projectwiseContributions[projectId] = 0 */\n      dup2\n      swap1\n      sstore\n      pop\n        /* \"contracts/CrowdFund.sol\":16233:16237  true */\n      0x01\n        /* \"contracts/CrowdFund.sol\":16220:16237  donorExist = true */\n      swap4\n      pop\n        /* \"contracts/CrowdFund.sol\":16255:16260  break */\n      jump(tag_307)\n        /* \"contracts/CrowdFund.sol\":14826:16275  if (allDonors[j].owner == msg.sender && allDonors[j].projectwiseContributions[projectId] > 0) {... */\n    tag_316:\n        /* \"contracts/CrowdFund.sol\":14703:14706  j++ */\n      dup1\n      dup1\n      tag_364\n      swap1\n      tag_146\n      jump\t// in\n    tag_364:\n      swap2\n      pop\n      pop\n        /* \"contracts/CrowdFund.sol\":14670:16285  for (uint j=0;j<allDonors.length;j++) {... */\n      jump(tag_306)\n    tag_307:\n      pop\n        /* \"contracts/CrowdFund.sol\":16300:16310  donorExist */\n      dup3\n        /* \"contracts/CrowdFund.sol\":16295:16374  if (!donorExist)... */\n      tag_365\n      jumpi\n        /* \"contracts/CrowdFund.sol\":16324:16374  revert(\"You haven't contributed for this project\") */\n      mload(0x40)\n      0x08c379a000000000000000000000000000000000000000000000000000000000\n      dup2\n      mstore\n      0x04\n      add\n      tag_366\n      swap1\n      tag_367\n      jump\t// in\n    tag_366:\n      mload(0x40)\n      dup1\n      swap2\n      sub\n      swap1\n      revert\n        /* \"contracts/CrowdFund.sol\":16295:16374  if (!donorExist)... */\n    tag_365:\n        /* \"contracts/CrowdFund.sol\":14399:16381  {... */\n      pop\n      pop\n      pop\n      pop\n        /* \"contracts/CrowdFund.sol\":14341:16381  function getRefund(uint charityId, uint projectId) public {... */\n      pop\n      pop\n      jump\t// out\n        /* \"contracts/CrowdFund.sol\":5182:6427  function createProject(uint charityId, uint _projectId, uint _goal, address owner, string memory _documentLink) onlyCharity public {... */\n    tag_62:\n        /* \"contracts/CrowdFund.sol\":3206:3216  boardAdmin */\n      0x02\n      0x00\n      swap1\n      sload\n      swap1\n      0x0100\n      exp\n      swap1\n      div\n      0xffffffffffffffffffffffffffffffffffffffff\n      and\n        /* \"contracts/CrowdFund.sol\":3194:3216  msg.sender!=boardAdmin */\n      0xffffffffffffffffffffffffffffffffffffffff\n      and\n        /* \"contracts/CrowdFund.sol\":3194:3204  msg.sender */\n      caller\n        /* \"contracts/CrowdFund.sol\":3194:3216  msg.sender!=boardAdmin */\n      0xffffffffffffffffffffffffffffffffffffffff\n      and\n      eq\n      iszero\n        /* \"contracts/CrowdFund.sol\":3217:3229  ONLY_CHARITY */\n      mload(0x40)\n      dup1\n      0x60\n      add\n      0x40\n      mstore\n      dup1\n      0x2f\n      dup2\n      mstore\n      0x20\n      add\n      data_ae7511c0e8221605b02a680fd07d0703f28d0f0f32c6884aaca3289d2fe90612\n      0x2f\n      swap2\n      codecopy\n        /* \"contracts/CrowdFund.sol\":3186:3230  require(msg.sender!=boardAdmin,ONLY_CHARITY) */\n      swap1\n      tag_369\n      jumpi\n      mload(0x40)\n      0x08c379a000000000000000000000000000000000000000000000000000000000\n      dup2\n      mstore\n      0x04\n      add\n      tag_370\n      swap2\n      swap1\n      tag_72\n      jump\t// in\n    tag_370:\n      mload(0x40)\n      dup1\n      swap2\n      sub\n      swap1\n      revert\n    tag_369:\n      pop\n        /* \"contracts/CrowdFund.sol\":5331:5348  approvedCharities */\n      0x04\n        /* \"contracts/CrowdFund.sol\":5331:5359  approvedCharities[charityId] */\n      0x00\n        /* \"contracts/CrowdFund.sol\":5349:5358  charityId */\n      dup7\n        /* \"contracts/CrowdFund.sol\":5331:5359  approvedCharities[charityId] */\n      dup2\n      mstore\n      0x20\n      add\n      swap1\n      dup2\n      mstore\n      0x20\n      add\n      0x00\n      keccak256\n      0x00\n      swap1\n      sload\n      swap1\n      0x0100\n      exp\n      swap1\n      div\n      0xff\n      and\n        /* \"contracts/CrowdFund.sol\":5323:5390  require(approvedCharities[charityId],\"Charity is not yet approved\") */\n      tag_372\n      jumpi\n      mload(0x40)\n      0x08c379a000000000000000000000000000000000000000000000000000000000\n      dup2\n      mstore\n      0x04\n      add\n      tag_373\n      swap1\n      tag_374\n      jump\t// in\n    tag_373:\n      mload(0x40)\n      dup1\n      swap2\n      sub\n      swap1\n      revert\n    tag_372:\n        /* \"contracts/CrowdFund.sol\":5405:5430  Project memory newProject */\n      0x00\n        /* \"contracts/CrowdFund.sol\":5433:5716  Project({... */\n      mload(0x40)\n      dup1\n      0x0100\n      add\n      0x40\n      mstore\n      dup1\n        /* \"contracts/CrowdFund.sol\":5465:5475  _projectId */\n      dup7\n        /* \"contracts/CrowdFund.sol\":5433:5716  Project({... */\n      dup2\n      mstore\n      0x20\n      add\n        /* \"contracts/CrowdFund.sol\":5503:5510  1000000 */\n      0x0f4240\n        /* \"contracts/CrowdFund.sol\":5433:5716  Project({... */\n      dup2\n      mstore\n      0x20\n      add\n        /* \"contracts/CrowdFund.sol\":5529:5534  _goal */\n      dup6\n        /* \"contracts/CrowdFund.sol\":5433:5716  Project({... */\n      dup2\n      mstore\n      0x20\n      add\n        /* \"contracts/CrowdFund.sol\":5561:5562  0 */\n      0x00\n        /* \"contracts/CrowdFund.sol\":5433:5716  Project({... */\n      dup2\n      mstore\n      0x20\n      add\n        /* \"contracts/CrowdFund.sol\":5582:5587  owner */\n      dup5\n        /* \"contracts/CrowdFund.sol\":5433:5716  Project({... */\n      0xffffffffffffffffffffffffffffffffffffffff\n      and\n      dup2\n      mstore\n      0x20\n      add\n        /* \"contracts/CrowdFund.sol\":5616:5620  true */\n      0x01\n        /* \"contracts/CrowdFund.sol\":5433:5716  Project({... */\n      iszero\n      iszero\n      dup2\n      mstore\n      0x20\n      add\n        /* \"contracts/CrowdFund.sol\":5647:5660  _documentLink */\n      dup4\n        /* \"contracts/CrowdFund.sol\":5433:5716  Project({... */\n      dup2\n      mstore\n      0x20\n      add\n        /* \"contracts/CrowdFund.sol\":5688:5705  ProjectStatus.APR */\n      0x02\n        /* \"contracts/CrowdFund.sol\":5433:5716  Project({... */\n      0x09\n      dup2\n      gt\n      iszero\n      tag_375\n      jumpi\n      tag_376\n      tag_155\n      jump\t// in\n    tag_376:\n    tag_375:\n      dup2\n      mstore\n      pop\n        /* \"contracts/CrowdFund.sol\":5405:5716  Project memory newProject = Project({... */\n      swap1\n      pop\n        /* \"contracts/CrowdFund.sol\":5727:5735  projects */\n      0x00\n        /* \"contracts/CrowdFund.sol\":5741:5751  newProject */\n      dup2\n        /* \"contracts/CrowdFund.sol\":5727:5752  projects.push(newProject) */\n      swap1\n      dup1\n      0x01\n      dup2\n      sload\n      add\n      dup1\n      dup3\n      sstore\n      dup1\n      swap2\n      pop\n      pop\n      0x01\n      swap1\n      sub\n      swap1\n      0x00\n      mstore\n      keccak256(0x00, 0x20)\n      swap1\n      0x07\n      mul\n      add\n      0x00\n      swap1\n      swap2\n      swap1\n      swap2\n      swap1\n      swap2\n      pop\n      0x00\n      dup3\n      add\n      mload\n      dup2\n      0x00\n      add\n      sstore\n      0x20\n      dup3\n      add\n      mload\n      dup2\n      0x01\n      add\n      sstore\n      0x40\n      dup3\n      add\n      mload\n      dup2\n      0x02\n      add\n      sstore\n      0x60\n      dup3\n      add\n      mload\n      dup2\n      0x03\n      add\n      sstore\n      0x80\n      dup3\n      add\n      mload\n      dup2\n      0x04\n      add\n      exp(0x0100, 0x00)\n      dup2\n      sload\n      dup2\n      0xffffffffffffffffffffffffffffffffffffffff\n      mul\n      not\n      and\n      swap1\n      dup4\n      0xffffffffffffffffffffffffffffffffffffffff\n      and\n      mul\n      or\n      swap1\n      sstore\n      pop\n      0xa0\n      dup3\n      add\n      mload\n      dup2\n      0x04\n      add\n      exp(0x0100, 0x14)\n      dup2\n      sload\n      dup2\n      0xff\n      mul\n      not\n      and\n      swap1\n      dup4\n      iszero\n      iszero\n      mul\n      or\n      swap1\n      sstore\n      pop\n      0xc0\n      dup3\n      add\n      mload\n      dup2\n      0x05\n      add\n      swap1\n      dup1\n      mload\n      swap1\n      0x20\n      add\n      swap1\n      tag_378\n      swap3\n      swap2\n      swap1\n      tag_117\n      jump\t// in\n    tag_378:\n      pop\n      0xe0\n      dup3\n      add\n      mload\n      dup2\n      0x06\n      add\n      exp(0x0100, 0x00)\n      dup2\n      sload\n      dup2\n      0xff\n      mul\n      not\n      and\n      swap1\n      dup4\n      0x09\n      dup2\n      gt\n      iszero\n      tag_379\n      jumpi\n      tag_380\n      tag_155\n      jump\t// in\n    tag_380:\n    tag_379:\n      mul\n      or\n      swap1\n      sstore\n      pop\n      pop\n      pop\n        /* \"contracts/CrowdFund.sol\":5771:5786  charityProjects */\n      0x03\n        /* \"contracts/CrowdFund.sol\":5771:5797  charityProjects[charityId] */\n      0x00\n        /* \"contracts/CrowdFund.sol\":5787:5796  charityId */\n      dup8\n        /* \"contracts/CrowdFund.sol\":5771:5797  charityProjects[charityId] */\n      dup2\n      mstore\n      0x20\n      add\n      swap1\n      dup2\n      mstore\n      0x20\n      add\n      0x00\n      keccak256\n        /* \"contracts/CrowdFund.sol\":5803:5813  newProject */\n      dup2\n        /* \"contracts/CrowdFund.sol\":5771:5814  charityProjects[charityId].push(newProject) */\n      swap1\n      dup1\n      0x01\n      dup2\n      sload\n      add\n      dup1\n      dup3\n      sstore\n      dup1\n      swap2\n      pop\n      pop\n      0x01\n      swap1\n      sub\n      swap1\n      0x00\n      mstore\n      keccak256(0x00, 0x20)\n      swap1\n      0x07\n      mul\n      add\n      0x00\n      swap1\n      swap2\n      swap1\n      swap2\n      swap1\n      swap2\n      pop\n      0x00\n      dup3\n      add\n      mload\n      dup2\n      0x00\n      add\n      sstore\n      0x20\n      dup3\n      add\n      mload\n      dup2\n      0x01\n      add\n      sstore\n      0x40\n      dup3\n      add\n      mload\n      dup2\n      0x02\n      add\n      sstore\n      0x60\n      dup3\n      add\n      mload\n      dup2\n      0x03\n      add\n      sstore\n      0x80\n      dup3\n      add\n      mload\n      dup2\n      0x04\n      add\n      exp(0x0100, 0x00)\n      dup2\n      sload\n      dup2\n      0xffffffffffffffffffffffffffffffffffffffff\n      mul\n      not\n      and\n      swap1\n      dup4\n      0xffffffffffffffffffffffffffffffffffffffff\n      and\n      mul\n      or\n      swap1\n      sstore\n      pop\n      0xa0\n      dup3\n      add\n      mload\n      dup2\n      0x04\n      add\n      exp(0x0100, 0x14)\n      dup2\n      sload\n      dup2\n      0xff\n      mul\n      not\n      and\n      swap1\n      dup4\n      iszero\n      iszero\n      mul\n      or\n      swap1\n      sstore\n      pop\n      0xc0\n      dup3\n      add\n      mload\n      dup2\n      0x05\n      add\n      swap1\n      dup1\n      mload\n      swap1\n      0x20\n      add\n      swap1\n      tag_382\n      swap3\n      swap2\n      swap1\n      tag_117\n      jump\t// in\n    tag_382:\n      pop\n      0xe0\n      dup3\n      add\n      mload\n      dup2\n      0x06\n      add\n      exp(0x0100, 0x00)\n      dup2\n      sload\n      dup2\n      0xff\n      mul\n      not\n      and\n      swap1\n      dup4\n      0x09\n      dup2\n      gt\n      iszero\n      tag_383\n      jumpi\n      tag_384\n      tag_155\n      jump\t// in\n    tag_384:\n    tag_383:\n      mul\n      or\n      swap1\n      sstore\n      pop\n      pop\n      pop\n        /* \"contracts/CrowdFund.sol\":5313:6427  {... */\n      pop\n        /* \"contracts/CrowdFund.sol\":5182:6427  function createProject(uint charityId, uint _projectId, uint _goal, address owner, string memory _documentLink) onlyCharity public {... */\n      pop\n      pop\n      pop\n      pop\n      pop\n      jump\t// out\n        /* \"contracts/CrowdFund.sol\":4434:4742  function approveCharity(uint index, uint charityId) public onlyBoardAdmin {... */\n    tag_66:\n        /* \"contracts/CrowdFund.sol\":3122:3132  boardAdmin */\n      0x02\n      0x00\n      swap1\n      sload\n      swap1\n      0x0100\n      exp\n      swap1\n      div\n      0xffffffffffffffffffffffffffffffffffffffff\n      and\n        /* \"contracts/CrowdFund.sol\":3110:3132  msg.sender==boardAdmin */\n      0xffffffffffffffffffffffffffffffffffffffff\n      and\n        /* \"contracts/CrowdFund.sol\":3110:3120  msg.sender */\n      caller\n        /* \"contracts/CrowdFund.sol\":3110:3132  msg.sender==boardAdmin */\n      0xffffffffffffffffffffffffffffffffffffffff\n      and\n      eq\n        /* \"contracts/CrowdFund.sol\":3133:3143  ONLY_ADMIN */\n      mload(0x40)\n      dup1\n      0x60\n      add\n      0x40\n      mstore\n      dup1\n      0x33\n      dup2\n      mstore\n      0x20\n      add\n      data_0fd57a96508da25173f82e6faabc4b077c36881e53dd1b21682a822e75096b01\n      0x33\n      swap2\n      codecopy\n        /* \"contracts/CrowdFund.sol\":3102:3144  require(msg.sender==boardAdmin,ONLY_ADMIN) */\n      swap1\n      tag_386\n      jumpi\n      mload(0x40)\n      0x08c379a000000000000000000000000000000000000000000000000000000000\n      dup2\n      mstore\n      0x04\n      add\n      tag_387\n      swap2\n      swap1\n      tag_72\n      jump\t// in\n    tag_387:\n      mload(0x40)\n      dup1\n      swap2\n      sub\n      swap1\n      revert\n    tag_386:\n      pop\n        /* \"contracts/CrowdFund.sol\":4615:4638  Charity storage charity */\n      0x00\n        /* \"contracts/CrowdFund.sol\":4641:4650  charities */\n      0x01\n        /* \"contracts/CrowdFund.sol\":4651:4656  index */\n      dup4\n        /* \"contracts/CrowdFund.sol\":4641:4657  charities[index] */\n      dup2\n      sload\n      dup2\n      lt\n      tag_389\n      jumpi\n      tag_390\n      tag_128\n      jump\t// in\n    tag_390:\n    tag_389:\n      swap1\n      0x00\n      mstore\n      keccak256(0x00, 0x20)\n      swap1\n      0x05\n      mul\n      add\n        /* \"contracts/CrowdFund.sol\":4615:4657  Charity storage charity = charities[index] */\n      swap1\n      pop\n        /* \"contracts/CrowdFund.sol\":4686:4690  true */\n      0x01\n        /* \"contracts/CrowdFund.sol\":4667:4674  charity */\n      dup2\n        /* \"contracts/CrowdFund.sol\":4667:4683  charity.approved */\n      0x01\n      add\n      0x00\n        /* \"contracts/CrowdFund.sol\":4667:4690  charity.approved = true */\n      0x0100\n      exp\n      dup2\n      sload\n      dup2\n      0xff\n      mul\n      not\n      and\n      swap1\n      dup4\n      iszero\n      iszero\n      mul\n      or\n      swap1\n      sstore\n      pop\n        /* \"contracts/CrowdFund.sol\":4731:4735  true */\n      0x01\n        /* \"contracts/CrowdFund.sol\":4700:4717  approvedCharities */\n      0x04\n        /* \"contracts/CrowdFund.sol\":4700:4728  approvedCharities[charityId] */\n      0x00\n        /* \"contracts/CrowdFund.sol\":4718:4727  charityId */\n      dup5\n        /* \"contracts/CrowdFund.sol\":4700:4728  approvedCharities[charityId] */\n      dup2\n      mstore\n      0x20\n      add\n      swap1\n      dup2\n      mstore\n      0x20\n      add\n      0x00\n      keccak256\n      0x00\n        /* \"contracts/CrowdFund.sol\":4700:4735  approvedCharities[charityId] = true */\n      0x0100\n      exp\n      dup2\n      sload\n      dup2\n      0xff\n      mul\n      not\n      and\n      swap1\n      dup4\n      iszero\n      iszero\n      mul\n      or\n      swap1\n      sstore\n      pop\n        /* \"contracts/CrowdFund.sol\":4508:4742  {... */\n      pop\n        /* \"contracts/CrowdFund.sol\":4434:4742  function approveCharity(uint index, uint charityId) public onlyBoardAdmin {... */\n      pop\n      pop\n      jump\t// out\n        /* \"contracts/CrowdFund.sol\":17430:17965  function getProjectStatus(uint charityId, uint projectId) external view returns (... */\n    tag_70:\n        /* \"contracts/CrowdFund.sol\":17520:17533  string memory */\n      0x60\n        /* \"contracts/CrowdFund.sol\":17548:17577  Project[] storage projectList */\n      0x00\n        /* \"contracts/CrowdFund.sol\":17580:17595  charityProjects */\n      0x03\n        /* \"contracts/CrowdFund.sol\":17580:17606  charityProjects[charityId] */\n      0x00\n        /* \"contracts/CrowdFund.sol\":17596:17605  charityId */\n      dup6\n        /* \"contracts/CrowdFund.sol\":17580:17606  charityProjects[charityId] */\n      dup2\n      mstore\n      0x20\n      add\n      swap1\n      dup2\n      mstore\n      0x20\n      add\n      0x00\n      keccak256\n        /* \"contracts/CrowdFund.sol\":17548:17606  Project[] storage projectList = charityProjects[charityId] */\n      swap1\n      pop\n        /* \"contracts/CrowdFund.sol\":17649:17650  0 */\n      0x00\n        /* \"contracts/CrowdFund.sol\":17628:17639  projectList */\n      dup2\n        /* \"contracts/CrowdFund.sol\":17628:17646  projectList.length */\n      dup1\n      sload\n      swap1\n      pop\n        /* \"contracts/CrowdFund.sol\":17628:17650  projectList.length > 0 */\n      gt\n        /* \"contracts/CrowdFund.sol\":17620:17671  require(projectList.length > 0,\"Charity not found\") */\n      tag_393\n      jumpi\n      mload(0x40)\n      0x08c379a000000000000000000000000000000000000000000000000000000000\n      dup2\n      mstore\n      0x04\n      add\n      tag_394\n      swap1\n      tag_305\n      jump\t// in\n    tag_394:\n      mload(0x40)\n      dup1\n      swap2\n      sub\n      swap1\n      revert\n    tag_393:\n        /* \"contracts/CrowdFund.sol\":17690:17696  uint i */\n      0x00\n        /* \"contracts/CrowdFund.sol\":17685:17894  for (uint i=0;i<projectList.length;i++) {... */\n    tag_395:\n        /* \"contracts/CrowdFund.sol\":17701:17712  projectList */\n      dup2\n        /* \"contracts/CrowdFund.sol\":17701:17719  projectList.length */\n      dup1\n      sload\n      swap1\n      pop\n        /* \"contracts/CrowdFund.sol\":17699:17700  i */\n      dup2\n        /* \"contracts/CrowdFund.sol\":17699:17719  i<projectList.length */\n      lt\n        /* \"contracts/CrowdFund.sol\":17685:17894  for (uint i=0;i<projectList.length;i++) {... */\n      iszero\n      tag_396\n      jumpi\n        /* \"contracts/CrowdFund.sol\":17775:17784  projectId */\n      dup4\n        /* \"contracts/CrowdFund.sol\":17747:17758  projectList */\n      dup3\n        /* \"contracts/CrowdFund.sol\":17759:17760  i */\n      dup3\n        /* \"contracts/CrowdFund.sol\":17747:17761  projectList[i] */\n      dup2\n      sload\n      dup2\n      lt\n      tag_398\n      jumpi\n      tag_399\n      tag_128\n      jump\t// in\n    tag_399:\n    tag_398:\n      swap1\n      0x00\n      mstore\n      keccak256(0x00, 0x20)\n      swap1\n      0x07\n      mul\n      add\n        /* \"contracts/CrowdFund.sol\":17747:17771  projectList[i].projectId */\n      0x00\n      add\n      sload\n        /* \"contracts/CrowdFund.sol\":17747:17784  projectList[i].projectId == projectId */\n      eq\n        /* \"contracts/CrowdFund.sol\":17743:17879  if (projectList[i].projectId == projectId) {... */\n      iszero\n      tag_401\n      jumpi\n        /* \"contracts/CrowdFund.sol\":17815:17830  projectStatuses */\n      0x07\n        /* \"contracts/CrowdFund.sol\":17815:17860  projectStatuses[projectList[i].projectStatus] */\n      0x00\n        /* \"contracts/CrowdFund.sol\":17831:17842  projectList */\n      dup4\n        /* \"contracts/CrowdFund.sol\":17843:17844  i */\n      dup4\n        /* \"contracts/CrowdFund.sol\":17831:17845  projectList[i] */\n      dup2\n      sload\n      dup2\n      lt\n      tag_402\n      jumpi\n      tag_403\n      tag_128\n      jump\t// in\n    tag_403:\n    tag_402:\n      swap1\n      0x00\n      mstore\n      keccak256(0x00, 0x20)\n      swap1\n      0x07\n      mul\n      add\n        /* \"contracts/CrowdFund.sol\":17831:17859  projectList[i].projectStatus */\n      0x06\n      add\n      0x00\n      swap1\n      sload\n      swap1\n      0x0100\n      exp\n      swap1\n      div\n      0xff\n      and\n        /* \"contracts/CrowdFund.sol\":17815:17860  projectStatuses[projectList[i].projectStatus] */\n      0x09\n      dup2\n      gt\n      iszero\n      tag_405\n      jumpi\n      tag_406\n      tag_155\n      jump\t// in\n    tag_406:\n    tag_405:\n      0x09\n      dup2\n      gt\n      iszero\n      tag_407\n      jumpi\n      tag_408\n      tag_155\n      jump\t// in\n    tag_408:\n    tag_407:\n      dup2\n      mstore\n      0x20\n      add\n      swap1\n      dup2\n      mstore\n      0x20\n      add\n      0x00\n      keccak256\n        /* \"contracts/CrowdFund.sol\":17808:17860  return projectStatuses[projectList[i].projectStatus] */\n      dup1\n      sload\n      tag_409\n      swap1\n      tag_106\n      jump\t// in\n    tag_409:\n      dup1\n      0x1f\n      add\n      0x20\n      dup1\n      swap2\n      div\n      mul\n      0x20\n      add\n      mload(0x40)\n      swap1\n      dup2\n      add\n      0x40\n      mstore\n      dup1\n      swap3\n      swap2\n      swap1\n      dup2\n      dup2\n      mstore\n      0x20\n      add\n      dup3\n      dup1\n      sload\n      tag_410\n      swap1\n      tag_106\n      jump\t// in\n    tag_410:\n      dup1\n      iszero\n      tag_411\n      jumpi\n      dup1\n      0x1f\n      lt\n      tag_412\n      jumpi\n      0x0100\n      dup1\n      dup4\n      sload\n      div\n      mul\n      dup4\n      mstore\n      swap2\n      0x20\n      add\n      swap2\n      jump(tag_411)\n    tag_412:\n      dup3\n      add\n      swap2\n      swap1\n      0x00\n      mstore\n      keccak256(0x00, 0x20)\n      swap1\n    tag_413:\n      dup2\n      sload\n      dup2\n      mstore\n      swap1\n      0x01\n      add\n      swap1\n      0x20\n      add\n      dup1\n      dup4\n      gt\n      tag_413\n      jumpi\n      dup3\n      swap1\n      sub\n      0x1f\n      and\n      dup3\n      add\n      swap2\n    tag_411:\n      pop\n      pop\n      pop\n      pop\n      pop\n      swap3\n      pop\n      pop\n      pop\n      jump(tag_392)\n        /* \"contracts/CrowdFund.sol\":17743:17879  if (projectList[i].projectId == projectId) {... */\n    tag_401:\n        /* \"contracts/CrowdFund.sol\":17720:17723  i++ */\n      dup1\n      dup1\n      tag_414\n      swap1\n      tag_146\n      jump\t// in\n    tag_414:\n      swap2\n      pop\n      pop\n        /* \"contracts/CrowdFund.sol\":17685:17894  for (uint i=0;i<projectList.length;i++) {... */\n      jump(tag_395)\n    tag_396:\n      pop\n        /* \"contracts/CrowdFund.sol\":17908:17958  revert(\"No such project exist under this charity\") */\n      mload(0x40)\n      0x08c379a000000000000000000000000000000000000000000000000000000000\n      dup2\n      mstore\n      0x04\n      add\n      tag_415\n      swap1\n      tag_148\n      jump\t// in\n    tag_415:\n      mload(0x40)\n      dup1\n      swap2\n      sub\n      swap1\n      revert\n        /* \"contracts/CrowdFund.sol\":17430:17965  function getProjectStatus(uint charityId, uint projectId) external view returns (... */\n    tag_392:\n      swap3\n      swap2\n      pop\n      pop\n      jump\t// out\n        /* \"contracts/CrowdFund.sol\":16426:17424  function refundToAllDonors(uint charityId, uint projectId) public {... */\n    tag_76:\n        /* \"contracts/CrowdFund.sol\":16502:16519  bool projectExist */\n      0x00\n        /* \"contracts/CrowdFund.sol\":16537:16566  Project[] storage projectList */\n      dup1\n        /* \"contracts/CrowdFund.sol\":16569:16584  charityProjects */\n      0x03\n        /* \"contracts/CrowdFund.sol\":16569:16595  charityProjects[charityId] */\n      0x00\n        /* \"contracts/CrowdFund.sol\":16585:16594  charityId */\n      dup6\n        /* \"contracts/CrowdFund.sol\":16569:16595  charityProjects[charityId] */\n      dup2\n      mstore\n      0x20\n      add\n      swap1\n      dup2\n      mstore\n      0x20\n      add\n      0x00\n      keccak256\n        /* \"contracts/CrowdFund.sol\":16537:16595  Project[] storage projectList = charityProjects[charityId] */\n      swap1\n      pop\n        /* \"contracts/CrowdFund.sol\":16634:16635  0 */\n      0x00\n        /* \"contracts/CrowdFund.sol\":16613:16624  projectList */\n      dup2\n        /* \"contracts/CrowdFund.sol\":16613:16631  projectList.length */\n      dup1\n      sload\n      swap1\n      pop\n        /* \"contracts/CrowdFund.sol\":16613:16635  projectList.length > 0 */\n      gt\n        /* \"contracts/CrowdFund.sol\":16605:16656  require(projectList.length > 0,\"Charity not found\") */\n      tag_417\n      jumpi\n      mload(0x40)\n      0x08c379a000000000000000000000000000000000000000000000000000000000\n      dup2\n      mstore\n      0x04\n      add\n      tag_418\n      swap1\n      tag_305\n      jump\t// in\n    tag_418:\n      mload(0x40)\n      dup1\n      swap2\n      sub\n      swap1\n      revert\n    tag_417:\n        /* \"contracts/CrowdFund.sol\":16671:16677  uint i */\n      0x00\n        /* \"contracts/CrowdFund.sol\":16666:17329  for (uint i=0;i<projectList.length;i++) {... */\n    tag_419:\n        /* \"contracts/CrowdFund.sol\":16682:16693  projectList */\n      dup2\n        /* \"contracts/CrowdFund.sol\":16682:16700  projectList.length */\n      dup1\n      sload\n      swap1\n      pop\n        /* \"contracts/CrowdFund.sol\":16680:16681  i */\n      dup2\n        /* \"contracts/CrowdFund.sol\":16680:16700  i<projectList.length */\n      lt\n        /* \"contracts/CrowdFund.sol\":16666:17329  for (uint i=0;i<projectList.length;i++) {... */\n      iszero\n      tag_420\n      jumpi\n        /* \"contracts/CrowdFund.sol\":16752:16761  projectId */\n      dup4\n        /* \"contracts/CrowdFund.sol\":16724:16735  projectList */\n      dup3\n        /* \"contracts/CrowdFund.sol\":16736:16737  i */\n      dup3\n        /* \"contracts/CrowdFund.sol\":16724:16738  projectList[i] */\n      dup2\n      sload\n      dup2\n      lt\n      tag_422\n      jumpi\n      tag_423\n      tag_128\n      jump\t// in\n    tag_423:\n    tag_422:\n      swap1\n      0x00\n      mstore\n      keccak256(0x00, 0x20)\n      swap1\n      0x07\n      mul\n      add\n        /* \"contracts/CrowdFund.sol\":16724:16748  projectList[i].projectId */\n      0x00\n      add\n      sload\n        /* \"contracts/CrowdFund.sol\":16724:16761  projectList[i].projectId == projectId */\n      eq\n        /* \"contracts/CrowdFund.sol\":16720:17319  if (projectList[i].projectId == projectId) { ... */\n      iszero\n      tag_425\n      jumpi\n        /* \"contracts/CrowdFund.sol\":16822:16839  ProjectStatus.XRJ */\n      0x07\n        /* \"contracts/CrowdFund.sol\":16790:16839  projectList[i].projectStatus == ProjectStatus.XRJ */\n      0x09\n      dup2\n      gt\n      iszero\n      tag_426\n      jumpi\n      tag_427\n      tag_155\n      jump\t// in\n    tag_427:\n    tag_426:\n        /* \"contracts/CrowdFund.sol\":16790:16801  projectList */\n      dup3\n        /* \"contracts/CrowdFund.sol\":16802:16803  i */\n      dup3\n        /* \"contracts/CrowdFund.sol\":16790:16804  projectList[i] */\n      dup2\n      sload\n      dup2\n      lt\n      tag_428\n      jumpi\n      tag_429\n      tag_128\n      jump\t// in\n    tag_429:\n    tag_428:\n      swap1\n      0x00\n      mstore\n      keccak256(0x00, 0x20)\n      swap1\n      0x07\n      mul\n      add\n        /* \"contracts/CrowdFund.sol\":16790:16818  projectList[i].projectStatus */\n      0x06\n      add\n      0x00\n      swap1\n      sload\n      swap1\n      0x0100\n      exp\n      swap1\n      div\n      0xff\n      and\n        /* \"contracts/CrowdFund.sol\":16790:16839  projectList[i].projectStatus == ProjectStatus.XRJ */\n      0x09\n      dup2\n      gt\n      iszero\n      tag_431\n      jumpi\n      tag_432\n      tag_155\n      jump\t// in\n    tag_432:\n    tag_431:\n      eq\n        /* \"contracts/CrowdFund.sol\":16782:16906  require(projectList[i].projectStatus == ProjectStatus.XRJ, \"Can't refund as exchange request was not rejected by the board\") */\n      tag_433\n      jumpi\n      mload(0x40)\n      0x08c379a000000000000000000000000000000000000000000000000000000000\n      dup2\n      mstore\n      0x04\n      add\n      tag_434\n      swap1\n      tag_435\n      jump\t// in\n    tag_434:\n      mload(0x40)\n      dup1\n      swap2\n      sub\n      swap1\n      revert\n    tag_433:\n        /* \"contracts/CrowdFund.sol\":16937:16962  Donor[] storage allDonors */\n      0x00\n        /* \"contracts/CrowdFund.sol\":16965:16978  projectDonors */\n      0x05\n        /* \"contracts/CrowdFund.sol\":16965:16989  projectDonors[projectId] */\n      0x00\n        /* \"contracts/CrowdFund.sol\":16979:16988  projectId */\n      dup7\n        /* \"contracts/CrowdFund.sol\":16965:16989  projectDonors[projectId] */\n      dup2\n      mstore\n      0x20\n      add\n      swap1\n      dup2\n      mstore\n      0x20\n      add\n      0x00\n      keccak256\n        /* \"contracts/CrowdFund.sol\":16937:16989  Donor[] storage allDonors = projectDonors[projectId] */\n      swap1\n      pop\n        /* \"contracts/CrowdFund.sol\":17013:17019  uint j */\n      0x00\n        /* \"contracts/CrowdFund.sol\":17008:17228  for (uint j=0;j<allDonors.length;j++) {... */\n    tag_436:\n        /* \"contracts/CrowdFund.sol\":17024:17033  allDonors */\n      dup2\n        /* \"contracts/CrowdFund.sol\":17024:17040  allDonors.length */\n      dup1\n      sload\n      swap1\n      pop\n        /* \"contracts/CrowdFund.sol\":17022:17023  j */\n      dup2\n        /* \"contracts/CrowdFund.sol\":17022:17040  j<allDonors.length */\n      lt\n        /* \"contracts/CrowdFund.sol\":17008:17228  for (uint j=0;j<allDonors.length;j++) {... */\n      iszero\n      tag_437\n      jumpi\n        /* \"contracts/CrowdFund.sol\":17068:17085  uint contribution */\n      0x00\n        /* \"contracts/CrowdFund.sol\":17088:17097  allDonors */\n      dup3\n        /* \"contracts/CrowdFund.sol\":17098:17099  j */\n      dup3\n        /* \"contracts/CrowdFund.sol\":17088:17100  allDonors[j] */\n      dup2\n      sload\n      dup2\n      lt\n      tag_439\n      jumpi\n      tag_440\n      tag_128\n      jump\t// in\n    tag_440:\n    tag_439:\n      swap1\n      0x00\n      mstore\n      keccak256(0x00, 0x20)\n      swap1\n      0x03\n      mul\n      add\n        /* \"contracts/CrowdFund.sol\":17088:17125  allDonors[j].projectwiseContributions */\n      0x02\n      add\n        /* \"contracts/CrowdFund.sol\":17088:17136  allDonors[j].projectwiseContributions[projectId] */\n      0x00\n        /* \"contracts/CrowdFund.sol\":17126:17135  projectId */\n      dup9\n        /* \"contracts/CrowdFund.sol\":17088:17136  allDonors[j].projectwiseContributions[projectId] */\n      dup2\n      mstore\n      0x20\n      add\n      swap1\n      dup2\n      mstore\n      0x20\n      add\n      0x00\n      keccak256\n      sload\n        /* \"contracts/CrowdFund.sol\":17068:17136  uint contribution = allDonors[j].projectwiseContributions[projectId] */\n      swap1\n      pop\n        /* \"contracts/CrowdFund.sol\":17167:17176  allDonors */\n      dup3\n        /* \"contracts/CrowdFund.sol\":17177:17178  j */\n      dup3\n        /* \"contracts/CrowdFund.sol\":17167:17179  allDonors[j] */\n      dup2\n      sload\n      dup2\n      lt\n      tag_442\n      jumpi\n      tag_443\n      tag_128\n      jump\t// in\n    tag_443:\n    tag_442:\n      swap1\n      0x00\n      mstore\n      keccak256(0x00, 0x20)\n      swap1\n      0x03\n      mul\n      add\n        /* \"contracts/CrowdFund.sol\":17167:17185  allDonors[j].owner */\n      0x01\n      add\n      0x00\n      swap1\n      sload\n      swap1\n      0x0100\n      exp\n      swap1\n      div\n      0xffffffffffffffffffffffffffffffffffffffff\n      and\n        /* \"contracts/CrowdFund.sol\":17158:17195  payable (allDonors[j].owner).transfer */\n      0xffffffffffffffffffffffffffffffffffffffff\n      and\n        /* \"contracts/CrowdFund.sol\":17158:17209  payable (allDonors[j].owner).transfer(contribution) */\n      0x08fc\n        /* \"contracts/CrowdFund.sol\":17196:17208  contribution */\n      dup3\n        /* \"contracts/CrowdFund.sol\":17158:17209  payable (allDonors[j].owner).transfer(contribution) */\n      swap1\n      dup2\n      iszero\n      mul\n      swap1\n      mload(0x40)\n      0x00\n      mload(0x40)\n      dup1\n      dup4\n      sub\n      dup2\n      dup6\n      dup9\n      dup9\n      call\n      swap4\n      pop\n      pop\n      pop\n      pop\n      iszero\n      dup1\n      iszero\n      tag_446\n      jumpi\n      returndatasize\n      0x00\n      dup1\n      returndatacopy\n      revert(0x00, returndatasize)\n    tag_446:\n      pop\n        /* \"contracts/CrowdFund.sol\":17046:17228  {... */\n      pop\n        /* \"contracts/CrowdFund.sol\":17041:17044  j++ */\n      dup1\n      dup1\n      tag_447\n      swap1\n      tag_146\n      jump\t// in\n    tag_447:\n      swap2\n      pop\n      pop\n        /* \"contracts/CrowdFund.sol\":17008:17228  for (uint j=0;j<allDonors.length;j++) {... */\n      jump(tag_436)\n    tag_437:\n      pop\n        /* \"contracts/CrowdFund.sol\":17277:17281  true */\n      0x01\n        /* \"contracts/CrowdFund.sol\":17262:17281  projectExist = true */\n      swap4\n      pop\n        /* \"contracts/CrowdFund.sol\":17299:17304  break */\n      pop\n      jump(tag_420)\n        /* \"contracts/CrowdFund.sol\":16720:17319  if (projectList[i].projectId == projectId) { ... */\n    tag_425:\n        /* \"contracts/CrowdFund.sol\":16701:16704  i++ */\n      dup1\n      dup1\n      tag_448\n      swap1\n      tag_146\n      jump\t// in\n    tag_448:\n      swap2\n      pop\n      pop\n        /* \"contracts/CrowdFund.sol\":16666:17329  for (uint i=0;i<projectList.length;i++) {... */\n      jump(tag_419)\n    tag_420:\n      pop\n        /* \"contracts/CrowdFund.sol\":17344:17356  projectExist */\n      dup2\n        /* \"contracts/CrowdFund.sol\":17339:17417  if (!projectExist)... */\n      tag_449\n      jumpi\n        /* \"contracts/CrowdFund.sol\":17370:17417  revert(\"No project exist under this projectId\") */\n      mload(0x40)\n      0x08c379a000000000000000000000000000000000000000000000000000000000\n      dup2\n      mstore\n      0x04\n      add\n      tag_450\n      swap1\n      tag_355\n      jump\t// in\n    tag_450:\n      mload(0x40)\n      dup1\n      swap2\n      sub\n      swap1\n      revert\n        /* \"contracts/CrowdFund.sol\":17339:17417  if (!projectExist)... */\n    tag_449:\n        /* \"contracts/CrowdFund.sol\":16492:17424  {... */\n      pop\n      pop\n        /* \"contracts/CrowdFund.sol\":16426:17424  function refundToAllDonors(uint charityId, uint projectId) public {... */\n      pop\n      pop\n      jump\t// out\n        /* \"contracts/CrowdFund.sol\":1020:1045  address public boardAdmin */\n    tag_79:\n      0x02\n      0x00\n      swap1\n      sload\n      swap1\n      0x0100\n      exp\n      swap1\n      div\n      0xffffffffffffffffffffffffffffffffffffffff\n      and\n      dup2\n      jump\t// out\n        /* \"contracts/CrowdFund.sol\":4748:5103  function rejectCharity(uint index, string memory reason) onlyBoardAdmin public {... */\n    tag_86:\n        /* \"contracts/CrowdFund.sol\":3122:3132  boardAdmin */\n      0x02\n      0x00\n      swap1\n      sload\n      swap1\n      0x0100\n      exp\n      swap1\n      div\n      0xffffffffffffffffffffffffffffffffffffffff\n      and\n        /* \"contracts/CrowdFund.sol\":3110:3132  msg.sender==boardAdmin */\n      0xffffffffffffffffffffffffffffffffffffffff\n      and\n        /* \"contracts/CrowdFund.sol\":3110:3120  msg.sender */\n      caller\n        /* \"contracts/CrowdFund.sol\":3110:3132  msg.sender==boardAdmin */\n      0xffffffffffffffffffffffffffffffffffffffff\n      and\n      eq\n        /* \"contracts/CrowdFund.sol\":3133:3143  ONLY_ADMIN */\n      mload(0x40)\n      dup1\n      0x60\n      add\n      0x40\n      mstore\n      dup1\n      0x33\n      dup2\n      mstore\n      0x20\n      add\n      data_0fd57a96508da25173f82e6faabc4b077c36881e53dd1b21682a822e75096b01\n      0x33\n      swap2\n      codecopy\n        /* \"contracts/CrowdFund.sol\":3102:3144  require(msg.sender==boardAdmin,ONLY_ADMIN) */\n      swap1\n      tag_452\n      jumpi\n      mload(0x40)\n      0x08c379a000000000000000000000000000000000000000000000000000000000\n      dup2\n      mstore\n      0x04\n      add\n      tag_453\n      swap2\n      swap1\n      tag_72\n      jump\t// in\n    tag_453:\n      mload(0x40)\n      dup1\n      swap2\n      sub\n      swap1\n      revert\n    tag_452:\n      pop\n        /* \"contracts/CrowdFund.sol\":4930:4953  Charity storage charity */\n      0x00\n        /* \"contracts/CrowdFund.sol\":4956:4965  charities */\n      0x01\n        /* \"contracts/CrowdFund.sol\":4966:4971  index */\n      dup4\n        /* \"contracts/CrowdFund.sol\":4956:4972  charities[index] */\n      dup2\n      sload\n      dup2\n      lt\n      tag_455\n      jumpi\n      tag_456\n      tag_128\n      jump\t// in\n    tag_456:\n    tag_455:\n      swap1\n      0x00\n      mstore\n      keccak256(0x00, 0x20)\n      swap1\n      0x05\n      mul\n      add\n        /* \"contracts/CrowdFund.sol\":4930:4972  Charity storage charity = charities[index] */\n      swap1\n      pop\n        /* \"contracts/CrowdFund.sol\":5001:5006  false */\n      0x00\n        /* \"contracts/CrowdFund.sol\":4982:4989  charity */\n      dup2\n        /* \"contracts/CrowdFund.sol\":4982:4998  charity.approved */\n      0x01\n      add\n      0x00\n        /* \"contracts/CrowdFund.sol\":4982:5006  charity.approved = false */\n      0x0100\n      exp\n      dup2\n      sload\n      dup2\n      0xff\n      mul\n      not\n      and\n      swap1\n      dup4\n      iszero\n      iszero\n      mul\n      or\n      swap1\n      sstore\n      pop\n        /* \"contracts/CrowdFund.sol\":5033:5039  reason */\n      dup2\n        /* \"contracts/CrowdFund.sol\":5016:5023  charity */\n      dup2\n        /* \"contracts/CrowdFund.sol\":5016:5030  charity.reason */\n      0x02\n      add\n        /* \"contracts/CrowdFund.sol\":5016:5039  charity.reason = reason */\n      swap1\n      dup1\n      mload\n      swap1\n      0x20\n      add\n      swap1\n      tag_458\n      swap3\n      swap2\n      swap1\n      tag_117\n      jump\t// in\n    tag_458:\n      pop\n        /* \"contracts/CrowdFund.sol\":4827:5103  {... */\n      pop\n        /* \"contracts/CrowdFund.sol\":4748:5103  function rejectCharity(uint index, string memory reason) onlyBoardAdmin public {... */\n      pop\n      pop\n      jump\t// out\n        /* \"contracts/CrowdFund.sol\":3011:3066  mapping(ProjectStatus => string) public projectStatuses */\n    tag_91:\n      mstore(0x20, 0x07)\n      dup1\n      0x00\n      mstore\n      keccak256(0x00, 0x40)\n      0x00\n      swap2\n      pop\n      swap1\n      pop\n      dup1\n      sload\n      tag_459\n      swap1\n      tag_106\n      jump\t// in\n    tag_459:\n      dup1\n      0x1f\n      add\n      0x20\n      dup1\n      swap2\n      div\n      mul\n      0x20\n      add\n      mload(0x40)\n      swap1\n      dup2\n      add\n      0x40\n      mstore\n      dup1\n      swap3\n      swap2\n      swap1\n      dup2\n      dup2\n      mstore\n      0x20\n      add\n      dup3\n      dup1\n      sload\n      tag_460\n      swap1\n      tag_106\n      jump\t// in\n    tag_460:\n      dup1\n      iszero\n      tag_461\n      jumpi\n      dup1\n      0x1f\n      lt\n      tag_462\n      jumpi\n      0x0100\n      dup1\n      dup4\n      sload\n      div\n      mul\n      dup4\n      mstore\n      swap2\n      0x20\n      add\n      swap2\n      jump(tag_461)\n    tag_462:\n      dup3\n      add\n      swap2\n      swap1\n      0x00\n      mstore\n      keccak256(0x00, 0x20)\n      swap1\n    tag_463:\n      dup2\n      sload\n      dup2\n      mstore\n      swap1\n      0x01\n      add\n      swap1\n      0x20\n      add\n      dup1\n      dup4\n      gt\n      tag_463\n      jumpi\n      dup3\n      swap1\n      sub\n      0x1f\n      and\n      dup3\n      add\n      swap2\n    tag_461:\n      pop\n      pop\n      pop\n      pop\n      pop\n      dup2\n      jump\t// out\n        /* \"contracts/CrowdFund.sol\":11375:14298  function donate(uint charityId, uint projectId, uint donorId) public payable {... */\n    tag_96:\n        /* \"contracts/CrowdFund.sol\":11466:11483  bool projectExist */\n      0x00\n        /* \"contracts/CrowdFund.sol\":11505:11534  Project[] storage projectList */\n      dup1\n        /* \"contracts/CrowdFund.sol\":11537:11552  charityProjects */\n      0x03\n        /* \"contracts/CrowdFund.sol\":11537:11563  charityProjects[charityId] */\n      0x00\n        /* \"contracts/CrowdFund.sol\":11553:11562  charityId */\n      dup7\n        /* \"contracts/CrowdFund.sol\":11537:11563  charityProjects[charityId] */\n      dup2\n      mstore\n      0x20\n      add\n      swap1\n      dup2\n      mstore\n      0x20\n      add\n      0x00\n      keccak256\n        /* \"contracts/CrowdFund.sol\":11505:11563  Project[] storage projectList = charityProjects[charityId] */\n      swap1\n      pop\n        /* \"contracts/CrowdFund.sol\":11606:11607  0 */\n      0x00\n        /* \"contracts/CrowdFund.sol\":11585:11596  projectList */\n      dup2\n        /* \"contracts/CrowdFund.sol\":11585:11603  projectList.length */\n      dup1\n      sload\n      swap1\n      pop\n        /* \"contracts/CrowdFund.sol\":11585:11607  projectList.length > 0 */\n      gt\n        /* \"contracts/CrowdFund.sol\":11577:11628  require(projectList.length > 0,\"Charity not found\") */\n      tag_465\n      jumpi\n      mload(0x40)\n      0x08c379a000000000000000000000000000000000000000000000000000000000\n      dup2\n      mstore\n      0x04\n      add\n      tag_466\n      swap1\n      tag_305\n      jump\t// in\n    tag_466:\n      mload(0x40)\n      dup1\n      swap2\n      sub\n      swap1\n      revert\n    tag_465:\n        /* \"contracts/CrowdFund.sol\":11647:11653  uint i */\n      0x00\n        /* \"contracts/CrowdFund.sol\":11642:14192  for (uint i=0;i<projectList.length;i++) {... */\n    tag_467:\n        /* \"contracts/CrowdFund.sol\":11658:11669  projectList */\n      dup2\n        /* \"contracts/CrowdFund.sol\":11658:11676  projectList.length */\n      dup1\n      sload\n      swap1\n      pop\n        /* \"contracts/CrowdFund.sol\":11656:11657  i */\n      dup2\n        /* \"contracts/CrowdFund.sol\":11656:11676  i<projectList.length */\n      lt\n        /* \"contracts/CrowdFund.sol\":11642:14192  for (uint i=0;i<projectList.length;i++) {... */\n      iszero\n      tag_468\n      jumpi\n        /* \"contracts/CrowdFund.sol\":11732:11741  projectId */\n      dup5\n        /* \"contracts/CrowdFund.sol\":11704:11715  projectList */\n      dup3\n        /* \"contracts/CrowdFund.sol\":11716:11717  i */\n      dup3\n        /* \"contracts/CrowdFund.sol\":11704:11718  projectList[i] */\n      dup2\n      sload\n      dup2\n      lt\n      tag_470\n      jumpi\n      tag_471\n      tag_128\n      jump\t// in\n    tag_471:\n    tag_470:\n      swap1\n      0x00\n      mstore\n      keccak256(0x00, 0x20)\n      swap1\n      0x07\n      mul\n      add\n        /* \"contracts/CrowdFund.sol\":11704:11728  projectList[i].projectId */\n      0x00\n      add\n      sload\n        /* \"contracts/CrowdFund.sol\":11704:11741  projectList[i].projectId == projectId */\n      eq\n        /* \"contracts/CrowdFund.sol\":11700:14178  if (projectList[i].projectId == projectId) { ... */\n      iszero\n      tag_473\n      jumpi\n        /* \"contracts/CrowdFund.sol\":11770:11781  projectList */\n      dup2\n        /* \"contracts/CrowdFund.sol\":11782:11783  i */\n      dup2\n        /* \"contracts/CrowdFund.sol\":11770:11784  projectList[i] */\n      dup2\n      sload\n      dup2\n      lt\n      tag_474\n      jumpi\n      tag_475\n      tag_128\n      jump\t// in\n    tag_475:\n    tag_474:\n      swap1\n      0x00\n      mstore\n      keccak256(0x00, 0x20)\n      swap1\n      0x07\n      mul\n      add\n        /* \"contracts/CrowdFund.sol\":11770:11799  projectList[i].acceptDonation */\n      0x04\n      add\n      0x14\n      swap1\n      sload\n      swap1\n      0x0100\n      exp\n      swap1\n      div\n      0xff\n      and\n        /* \"contracts/CrowdFund.sol\":11766:14091  if (projectList[i].acceptDonation) {... */\n      iszero\n      tag_477\n      jumpi\n        /* \"contracts/CrowdFund.sol\":11873:11884  projectList */\n      dup2\n        /* \"contracts/CrowdFund.sol\":11885:11886  i */\n      dup2\n        /* \"contracts/CrowdFund.sol\":11873:11887  projectList[i] */\n      dup2\n      sload\n      dup2\n      lt\n      tag_478\n      jumpi\n      tag_479\n      tag_128\n      jump\t// in\n    tag_479:\n    tag_478:\n      swap1\n      0x00\n      mstore\n      keccak256(0x00, 0x20)\n      swap1\n      0x07\n      mul\n      add\n        /* \"contracts/CrowdFund.sol\":11873:11901  projectList[i].minimumAmount */\n      0x01\n      add\n      sload\n        /* \"contracts/CrowdFund.sol\":11860:11869  msg.value */\n      callvalue\n        /* \"contracts/CrowdFund.sol\":11860:11901  msg.value >= projectList[i].minimumAmount */\n      lt\n      iszero\n        /* \"contracts/CrowdFund.sol\":11852:11943  require(msg.value >= projectList[i].minimumAmount, \"Should be greater than minimum amount\") */\n      tag_481\n      jumpi\n      mload(0x40)\n      0x08c379a000000000000000000000000000000000000000000000000000000000\n      dup2\n      mstore\n      0x04\n      add\n      tag_482\n      swap1\n      tag_483\n      jump\t// in\n    tag_482:\n      mload(0x40)\n      dup1\n      swap2\n      sub\n      swap1\n      revert\n    tag_481:\n        /* \"contracts/CrowdFund.sol\":12054:12063  msg.value */\n      callvalue\n        /* \"contracts/CrowdFund.sol\":12024:12035  projectList */\n      dup3\n        /* \"contracts/CrowdFund.sol\":12036:12037  i */\n      dup3\n        /* \"contracts/CrowdFund.sol\":12024:12038  projectList[i] */\n      dup2\n      sload\n      dup2\n      lt\n      tag_484\n      jumpi\n      tag_485\n      tag_128\n      jump\t// in\n    tag_485:\n    tag_484:\n      swap1\n      0x00\n      mstore\n      keccak256(0x00, 0x20)\n      swap1\n      0x07\n      mul\n      add\n        /* \"contracts/CrowdFund.sol\":12024:12051  projectList[i].raisedAmount */\n      0x03\n      add\n      sload\n        /* \"contracts/CrowdFund.sol\":12024:12063  projectList[i].raisedAmount + msg.value */\n      tag_487\n      swap2\n      swap1\n      tag_488\n      jump\t// in\n    tag_487:\n        /* \"contracts/CrowdFund.sol\":11994:12005  projectList */\n      dup3\n        /* \"contracts/CrowdFund.sol\":12006:12007  i */\n      dup3\n        /* \"contracts/CrowdFund.sol\":11994:12008  projectList[i] */\n      dup2\n      sload\n      dup2\n      lt\n      tag_489\n      jumpi\n      tag_490\n      tag_128\n      jump\t// in\n    tag_490:\n    tag_489:\n      swap1\n      0x00\n      mstore\n      keccak256(0x00, 0x20)\n      swap1\n      0x07\n      mul\n      add\n        /* \"contracts/CrowdFund.sol\":11994:12021  projectList[i].raisedAmount */\n      0x03\n      add\n        /* \"contracts/CrowdFund.sol\":11994:12063  projectList[i].raisedAmount = projectList[i].raisedAmount + msg.value */\n      dup2\n      swap1\n      sstore\n      pop\n        /* \"contracts/CrowdFund.sol\":12090:12115  Donor[] storage allDonors */\n      0x00\n        /* \"contracts/CrowdFund.sol\":12118:12131  projectDonors */\n      0x05\n        /* \"contracts/CrowdFund.sol\":12118:12142  projectDonors[projectId] */\n      0x00\n        /* \"contracts/CrowdFund.sol\":12132:12141  projectId */\n      dup8\n        /* \"contracts/CrowdFund.sol\":12118:12142  projectDonors[projectId] */\n      dup2\n      mstore\n      0x20\n      add\n      swap1\n      dup2\n      mstore\n      0x20\n      add\n      0x00\n      keccak256\n        /* \"contracts/CrowdFund.sol\":12090:12142  Donor[] storage allDonors = projectDonors[projectId] */\n      swap1\n      pop\n        /* \"contracts/CrowdFund.sol\":12168:12176  uint idx */\n      0x00\n        /* \"contracts/CrowdFund.sol\":12179:12188  allDonors */\n      dup2\n        /* \"contracts/CrowdFund.sol\":12179:12195  allDonors.length */\n      dup1\n      sload\n      swap1\n      pop\n        /* \"contracts/CrowdFund.sol\":12168:12195  uint idx = allDonors.length */\n      swap1\n      pop\n        /* \"contracts/CrowdFund.sol\":12221:12236  bool donorExist */\n      0x00\n        /* \"contracts/CrowdFund.sol\":12268:12274  uint j */\n      dup1\n        /* \"contracts/CrowdFund.sol\":12275:12276  0 */\n      0x00\n        /* \"contracts/CrowdFund.sol\":12268:12276  uint j=0 */\n      swap1\n      pop\n        /* \"contracts/CrowdFund.sol\":12263:12793  for (uint j=0;j<allDonors.length;j++) {... */\n    tag_492:\n        /* \"contracts/CrowdFund.sol\":12279:12288  allDonors */\n      dup4\n        /* \"contracts/CrowdFund.sol\":12279:12295  allDonors.length */\n      dup1\n      sload\n      swap1\n      pop\n        /* \"contracts/CrowdFund.sol\":12277:12278  j */\n      dup2\n        /* \"contracts/CrowdFund.sol\":12277:12295  j<allDonors.length */\n      lt\n        /* \"contracts/CrowdFund.sol\":12263:12793  for (uint j=0;j<allDonors.length;j++) {... */\n      iszero\n      tag_493\n      jumpi\n        /* \"contracts/CrowdFund.sol\":12539:12549  msg.sender */\n      caller\n        /* \"contracts/CrowdFund.sol\":12517:12549  allDonors[j].owner == msg.sender */\n      0xffffffffffffffffffffffffffffffffffffffff\n      and\n        /* \"contracts/CrowdFund.sol\":12517:12526  allDonors */\n      dup5\n        /* \"contracts/CrowdFund.sol\":12527:12528  j */\n      dup3\n        /* \"contracts/CrowdFund.sol\":12517:12529  allDonors[j] */\n      dup2\n      sload\n      dup2\n      lt\n      tag_495\n      jumpi\n      tag_496\n      tag_128\n      jump\t// in\n    tag_496:\n    tag_495:\n      swap1\n      0x00\n      mstore\n      keccak256(0x00, 0x20)\n      swap1\n      0x03\n      mul\n      add\n        /* \"contracts/CrowdFund.sol\":12517:12535  allDonors[j].owner */\n      0x01\n      add\n      0x00\n      swap1\n      sload\n      swap1\n      0x0100\n      exp\n      swap1\n      div\n      0xffffffffffffffffffffffffffffffffffffffff\n      and\n        /* \"contracts/CrowdFund.sol\":12517:12549  allDonors[j].owner == msg.sender */\n      0xffffffffffffffffffffffffffffffffffffffff\n      and\n      eq\n        /* \"contracts/CrowdFund.sol\":12513:12767  if (allDonors[j].owner == msg.sender) {... */\n      iszero\n      tag_498\n      jumpi\n        /* \"contracts/CrowdFund.sol\":12637:12646  msg.value */\n      callvalue\n        /* \"contracts/CrowdFund.sol\":12585:12594  allDonors */\n      dup5\n        /* \"contracts/CrowdFund.sol\":12595:12596  j */\n      dup3\n        /* \"contracts/CrowdFund.sol\":12585:12597  allDonors[j] */\n      dup2\n      sload\n      dup2\n      lt\n      tag_499\n      jumpi\n      tag_500\n      tag_128\n      jump\t// in\n    tag_500:\n    tag_499:\n      swap1\n      0x00\n      mstore\n      keccak256(0x00, 0x20)\n      swap1\n      0x03\n      mul\n      add\n        /* \"contracts/CrowdFund.sol\":12585:12622  allDonors[j].projectwiseContributions */\n      0x02\n      add\n        /* \"contracts/CrowdFund.sol\":12585:12633  allDonors[j].projectwiseContributions[projectId] */\n      0x00\n        /* \"contracts/CrowdFund.sol\":12623:12632  projectId */\n      dup12\n        /* \"contracts/CrowdFund.sol\":12585:12633  allDonors[j].projectwiseContributions[projectId] */\n      dup2\n      mstore\n      0x20\n      add\n      swap1\n      dup2\n      mstore\n      0x20\n      add\n      0x00\n      keccak256\n      0x00\n        /* \"contracts/CrowdFund.sol\":12585:12646  allDonors[j].projectwiseContributions[projectId] += msg.value */\n      dup3\n      dup3\n      sload\n      tag_502\n      swap2\n      swap1\n      tag_488\n      jump\t// in\n    tag_502:\n      swap3\n      pop\n      pop\n      dup2\n      swap1\n      sstore\n      pop\n        /* \"contracts/CrowdFund.sol\":12693:12697  true */\n      0x01\n        /* \"contracts/CrowdFund.sol\":12680:12697  donorExist = true */\n      swap2\n      pop\n        /* \"contracts/CrowdFund.sol\":12731:12736  break */\n      jump(tag_493)\n        /* \"contracts/CrowdFund.sol\":12513:12767  if (allDonors[j].owner == msg.sender) {... */\n    tag_498:\n        /* \"contracts/CrowdFund.sol\":12296:12299  j++ */\n      dup1\n      dup1\n      tag_503\n      swap1\n      tag_146\n      jump\t// in\n    tag_503:\n      swap2\n      pop\n      pop\n        /* \"contracts/CrowdFund.sol\":12263:12793  for (uint j=0;j<allDonors.length;j++) {... */\n      jump(tag_492)\n    tag_493:\n      pop\n        /* \"contracts/CrowdFund.sol\":12824:12834  donorExist */\n      dup1\n        /* \"contracts/CrowdFund.sol\":12819:13335  if (!donorExist) {   ... */\n      tag_504\n      jumpi\n        /* \"contracts/CrowdFund.sol\":13023:13032  allDonors */\n      dup3\n        /* \"contracts/CrowdFund.sol\":13023:13039  allDonors.push() */\n      0x01\n      dup2\n      0x01\n      dup2\n      sload\n      add\n      dup1\n      dup3\n      sstore\n      dup1\n      swap2\n      pop\n      pop\n      sub\n      swap1\n      0x00\n      mstore\n      keccak256(0x00, 0x20)\n      swap1\n      pop\n      pop\n        /* \"contracts/CrowdFund.sol\":13070:13092  Donor storage newDonor */\n      0x00\n        /* \"contracts/CrowdFund.sol\":13095:13104  allDonors */\n      dup4\n        /* \"contracts/CrowdFund.sol\":13105:13108  idx */\n      dup4\n        /* \"contracts/CrowdFund.sol\":13095:13109  allDonors[idx] */\n      dup2\n      sload\n      dup2\n      lt\n      tag_506\n      jumpi\n      tag_507\n      tag_128\n      jump\t// in\n    tag_507:\n    tag_506:\n      swap1\n      0x00\n      mstore\n      keccak256(0x00, 0x20)\n      swap1\n      0x03\n      mul\n      add\n        /* \"contracts/CrowdFund.sol\":13070:13109  Donor storage newDonor = allDonors[idx] */\n      swap1\n      pop\n        /* \"contracts/CrowdFund.sol\":13158:13165  donorId */\n      dup8\n        /* \"contracts/CrowdFund.sol\":13139:13147  newDonor */\n      dup2\n        /* \"contracts/CrowdFund.sol\":13139:13155  newDonor.donorId */\n      0x00\n      add\n        /* \"contracts/CrowdFund.sol\":13139:13165  newDonor.donorId = donorId */\n      dup2\n      swap1\n      sstore\n      pop\n        /* \"contracts/CrowdFund.sol\":13212:13222  msg.sender */\n      caller\n        /* \"contracts/CrowdFund.sol\":13195:13203  newDonor */\n      dup2\n        /* \"contracts/CrowdFund.sol\":13195:13209  newDonor.owner */\n      0x01\n      add\n      0x00\n        /* \"contracts/CrowdFund.sol\":13195:13222  newDonor.owner = msg.sender */\n      0x0100\n      exp\n      dup2\n      sload\n      dup2\n      0xffffffffffffffffffffffffffffffffffffffff\n      mul\n      not\n      and\n      swap1\n      dup4\n      0xffffffffffffffffffffffffffffffffffffffff\n      and\n      mul\n      or\n      swap1\n      sstore\n      pop\n        /* \"contracts/CrowdFund.sol\":13299:13308  msg.value */\n      callvalue\n        /* \"contracts/CrowdFund.sol\":13252:13260  newDonor */\n      dup2\n        /* \"contracts/CrowdFund.sol\":13252:13285  newDonor.projectwiseContributions */\n      0x02\n      add\n        /* \"contracts/CrowdFund.sol\":13252:13296  newDonor.projectwiseContributions[projectId] */\n      0x00\n        /* \"contracts/CrowdFund.sol\":13286:13295  projectId */\n      dup12\n        /* \"contracts/CrowdFund.sol\":13252:13296  newDonor.projectwiseContributions[projectId] */\n      dup2\n      mstore\n      0x20\n      add\n      swap1\n      dup2\n      mstore\n      0x20\n      add\n      0x00\n      keccak256\n        /* \"contracts/CrowdFund.sol\":13252:13308  newDonor.projectwiseContributions[projectId] = msg.value */\n      dup2\n      swap1\n      sstore\n      pop\n        /* \"contracts/CrowdFund.sol\":12836:13335  {   ... */\n      pop\n        /* \"contracts/CrowdFund.sol\":12819:13335  if (!donorExist) {   ... */\n    tag_504:\n        /* \"contracts/CrowdFund.sol\":13454:13465  projectList */\n      dup5\n        /* \"contracts/CrowdFund.sol\":13466:13467  i */\n      dup5\n        /* \"contracts/CrowdFund.sol\":13454:13468  projectList[i] */\n      dup2\n      sload\n      dup2\n      lt\n      tag_509\n      jumpi\n      tag_510\n      tag_128\n      jump\t// in\n    tag_510:\n    tag_509:\n      swap1\n      0x00\n      mstore\n      keccak256(0x00, 0x20)\n      swap1\n      0x07\n      mul\n      add\n        /* \"contracts/CrowdFund.sol\":13454:13473  projectList[i].goal */\n      0x02\n      add\n      sload\n        /* \"contracts/CrowdFund.sol\":13423:13434  projectList */\n      dup6\n        /* \"contracts/CrowdFund.sol\":13435:13436  i */\n      dup6\n        /* \"contracts/CrowdFund.sol\":13423:13437  projectList[i] */\n      dup2\n      sload\n      dup2\n      lt\n      tag_512\n      jumpi\n      tag_513\n      tag_128\n      jump\t// in\n    tag_513:\n    tag_512:\n      swap1\n      0x00\n      mstore\n      keccak256(0x00, 0x20)\n      swap1\n      0x07\n      mul\n      add\n        /* \"contracts/CrowdFund.sol\":13423:13450  projectList[i].raisedAmount */\n      0x03\n      add\n      sload\n        /* \"contracts/CrowdFund.sol\":13423:13473  projectList[i].raisedAmount == projectList[i].goal */\n      eq\n        /* \"contracts/CrowdFund.sol\":13419:13960  if (projectList[i].raisedAmount == projectList[i].goal) {... */\n      iszero\n      tag_515\n      jumpi\n        /* \"contracts/CrowdFund.sol\":13614:13631  ProjectStatus.PGA */\n      0x03\n        /* \"contracts/CrowdFund.sol\":13583:13594  projectList */\n      dup6\n        /* \"contracts/CrowdFund.sol\":13595:13596  i */\n      dup6\n        /* \"contracts/CrowdFund.sol\":13583:13597  projectList[i] */\n      dup2\n      sload\n      dup2\n      lt\n      tag_516\n      jumpi\n      tag_517\n      tag_128\n      jump\t// in\n    tag_517:\n    tag_516:\n      swap1\n      0x00\n      mstore\n      keccak256(0x00, 0x20)\n      swap1\n      0x07\n      mul\n      add\n        /* \"contracts/CrowdFund.sol\":13583:13611  projectList[i].projectStatus */\n      0x06\n      add\n      0x00\n        /* \"contracts/CrowdFund.sol\":13583:13631  projectList[i].projectStatus = ProjectStatus.PGA */\n      0x0100\n      exp\n      dup2\n      sload\n      dup2\n      0xff\n      mul\n      not\n      and\n      swap1\n      dup4\n      0x09\n      dup2\n      gt\n      iszero\n      tag_519\n      jumpi\n      tag_520\n      tag_155\n      jump\t// in\n    tag_520:\n    tag_519:\n      mul\n      or\n      swap1\n      sstore\n      pop\n        /* \"contracts/CrowdFund.sol\":13752:13757  false */\n      0x00\n        /* \"contracts/CrowdFund.sol\":13720:13731  projectList */\n      dup6\n        /* \"contracts/CrowdFund.sol\":13732:13733  i */\n      dup6\n        /* \"contracts/CrowdFund.sol\":13720:13734  projectList[i] */\n      dup2\n      sload\n      dup2\n      lt\n      tag_521\n      jumpi\n      tag_522\n      tag_128\n      jump\t// in\n    tag_522:\n    tag_521:\n      swap1\n      0x00\n      mstore\n      keccak256(0x00, 0x20)\n      swap1\n      0x07\n      mul\n      add\n        /* \"contracts/CrowdFund.sol\":13720:13749  projectList[i].acceptDonation */\n      0x04\n      add\n      0x14\n        /* \"contracts/CrowdFund.sol\":13720:13757  projectList[i].acceptDonation = false */\n      0x0100\n      exp\n      dup2\n      sload\n      dup2\n      0xff\n      mul\n      not\n      and\n      swap1\n      dup4\n      iszero\n      iszero\n      mul\n      or\n      swap1\n      sstore\n      pop\n        /* \"contracts/CrowdFund.sol\":13868:13933  ReceiverMessageToCharity(charityId, projectId, ProjectStatus.PGA) */\n      0x4460a3075d16e0c301975989c352adf5efef3f00e4b1cd798431dddda7179e58\n        /* \"contracts/CrowdFund.sol\":13893:13902  charityId */\n      dup10\n        /* \"contracts/CrowdFund.sol\":13904:13913  projectId */\n      dup10\n        /* \"contracts/CrowdFund.sol\":13915:13932  ProjectStatus.PGA */\n      0x03\n        /* \"contracts/CrowdFund.sol\":13868:13933  ReceiverMessageToCharity(charityId, projectId, ProjectStatus.PGA) */\n      mload(0x40)\n      tag_524\n      swap4\n      swap3\n      swap2\n      swap1\n      tag_207\n      jump\t// in\n    tag_524:\n      mload(0x40)\n      dup1\n      swap2\n      sub\n      swap1\n      log1\n        /* \"contracts/CrowdFund.sol\":13419:13960  if (projectList[i].raisedAmount == projectList[i].goal) {... */\n    tag_515:\n        /* \"contracts/CrowdFund.sol\":11801:13982  {... */\n      pop\n      pop\n      pop\n        /* \"contracts/CrowdFund.sol\":11766:14091  if (projectList[i].acceptDonation) {... */\n      jump(tag_525)\n    tag_477:\n        /* \"contracts/CrowdFund.sol\":14014:14068  revert(\"No more donations accepted for this project.\") */\n      mload(0x40)\n      0x08c379a000000000000000000000000000000000000000000000000000000000\n      dup2\n      mstore\n      0x04\n      add\n      tag_526\n      swap1\n      tag_527\n      jump\t// in\n    tag_526:\n      mload(0x40)\n      dup1\n      swap2\n      sub\n      swap1\n      revert\n        /* \"contracts/CrowdFund.sol\":11766:14091  if (projectList[i].acceptDonation) {... */\n    tag_525:\n        /* \"contracts/CrowdFund.sol\":14128:14132  true */\n      0x01\n        /* \"contracts/CrowdFund.sol\":14113:14132  projectExist = true */\n      swap3\n      pop\n        /* \"contracts/CrowdFund.sol\":14154:14159  break */\n      jump(tag_468)\n        /* \"contracts/CrowdFund.sol\":11700:14178  if (projectList[i].projectId == projectId) { ... */\n    tag_473:\n        /* \"contracts/CrowdFund.sol\":11677:11680  i++ */\n      dup1\n      dup1\n      tag_528\n      swap1\n      tag_146\n      jump\t// in\n    tag_528:\n      swap2\n      pop\n      pop\n        /* \"contracts/CrowdFund.sol\":11642:14192  for (uint i=0;i<projectList.length;i++) {... */\n      jump(tag_467)\n    tag_468:\n      pop\n        /* \"contracts/CrowdFund.sol\":14211:14223  projectExist */\n      dup2\n        /* \"contracts/CrowdFund.sol\":14206:14291  if (!projectExist)... */\n      tag_529\n      jumpi\n        /* \"contracts/CrowdFund.sol\":14241:14291  revert(\"No such project exist under this charity\") */\n      mload(0x40)\n      0x08c379a000000000000000000000000000000000000000000000000000000000\n      dup2\n      mstore\n      0x04\n      add\n      tag_530\n      swap1\n      tag_148\n      jump\t// in\n    tag_530:\n      mload(0x40)\n      dup1\n      swap2\n      sub\n      swap1\n      revert\n        /* \"contracts/CrowdFund.sol\":14206:14291  if (!projectExist)... */\n    tag_529:\n        /* \"contracts/CrowdFund.sol\":11452:14298  {... */\n      pop\n      pop\n        /* \"contracts/CrowdFund.sol\":11375:14298  function donate(uint charityId, uint projectId, uint donorId) public payable {... */\n      pop\n      pop\n      pop\n      jump\t// out\n        /* \"contracts/CrowdFund.sol\":860:886  Charity[] public charities */\n    tag_100:\n      0x01\n      dup2\n      dup2\n      sload\n      dup2\n      lt\n      tag_531\n      jumpi\n      0x00\n      dup1\n      revert\n    tag_531:\n      swap1\n      0x00\n      mstore\n      keccak256(0x00, 0x20)\n      swap1\n      0x05\n      mul\n      add\n      0x00\n      swap2\n      pop\n      swap1\n      pop\n      dup1\n      0x00\n      add\n      sload\n      swap1\n      dup1\n      0x01\n      add\n      0x00\n      swap1\n      sload\n      swap1\n      0x0100\n      exp\n      swap1\n      div\n      0xff\n      and\n      swap1\n      dup1\n      0x02\n      add\n      dup1\n      sload\n      tag_533\n      swap1\n      tag_106\n      jump\t// in\n    tag_533:\n      dup1\n      0x1f\n      add\n      0x20\n      dup1\n      swap2\n      div\n      mul\n      0x20\n      add\n      mload(0x40)\n      swap1\n      dup2\n      add\n      0x40\n      mstore\n      dup1\n      swap3\n      swap2\n      swap1\n      dup2\n      dup2\n      mstore\n      0x20\n      add\n      dup3\n      dup1\n      sload\n      tag_534\n      swap1\n      tag_106\n      jump\t// in\n    tag_534:\n      dup1\n      iszero\n      tag_535\n      jumpi\n      dup1\n      0x1f\n      lt\n      tag_536\n      jumpi\n      0x0100\n      dup1\n      dup4\n      sload\n      div\n      mul\n      dup4\n      mstore\n      swap2\n      0x20\n      add\n      swap2\n      jump(tag_535)\n    tag_536:\n      dup3\n      add\n      swap2\n      swap1\n      0x00\n      mstore\n      keccak256(0x00, 0x20)\n      swap1\n    tag_537:\n      dup2\n      sload\n      dup2\n      mstore\n      swap1\n      0x01\n      add\n      swap1\n      0x20\n      add\n      dup1\n      dup4\n      gt\n      tag_537\n      jumpi\n      dup3\n      swap1\n      sub\n      0x1f\n      and\n      dup3\n      add\n      swap2\n    tag_535:\n      pop\n      pop\n      pop\n      pop\n      pop\n      swap1\n      dup1\n      0x03\n      add\n      dup1\n      sload\n      tag_538\n      swap1\n      tag_106\n      jump\t// in\n    tag_538:\n      dup1\n      0x1f\n      add\n      0x20\n      dup1\n      swap2\n      div\n      mul\n      0x20\n      add\n      mload(0x40)\n      swap1\n      dup2\n      add\n      0x40\n      mstore\n      dup1\n      swap3\n      swap2\n      swap1\n      dup2\n      dup2\n      mstore\n      0x20\n      add\n      dup3\n      dup1\n      sload\n      tag_539\n      swap1\n      tag_106\n      jump\t// in\n    tag_539:\n      dup1\n      iszero\n      tag_540\n      jumpi\n      dup1\n      0x1f\n      lt\n      tag_541\n      jumpi\n      0x0100\n      dup1\n      dup4\n      sload\n      div\n      mul\n      dup4\n      mstore\n      swap2\n      0x20\n      add\n      swap2\n      jump(tag_540)\n    tag_541:\n      dup3\n      add\n      swap2\n      swap1\n      0x00\n      mstore\n      keccak256(0x00, 0x20)\n      swap1\n    tag_542:\n      dup2\n      sload\n      dup2\n      mstore\n      swap1\n      0x01\n      add\n      swap1\n      0x20\n      add\n      dup1\n      dup4\n      gt\n      tag_542\n      jumpi\n      dup3\n      swap1\n      sub\n      0x1f\n      and\n      dup3\n      add\n      swap2\n    tag_540:\n      pop\n      pop\n      pop\n      pop\n      pop\n      swap1\n      dup1\n      0x04\n      add\n      0x00\n      swap1\n      sload\n      swap1\n      0x0100\n      exp\n      swap1\n      div\n      0xffffffffffffffffffffffffffffffffffffffff\n      and\n      swap1\n      pop\n      dup6\n      jump\t// out\n    tag_117:\n      dup3\n      dup1\n      sload\n      tag_543\n      swap1\n      tag_106\n      jump\t// in\n    tag_543:\n      swap1\n      0x00\n      mstore\n      keccak256(0x00, 0x20)\n      swap1\n      0x1f\n      add\n      0x20\n      swap1\n      div\n      dup2\n      add\n      swap3\n      dup3\n      tag_545\n      jumpi\n      0x00\n      dup6\n      sstore\n      jump(tag_544)\n    tag_545:\n      dup3\n      0x1f\n      lt\n      tag_546\n      jumpi\n      dup1\n      mload\n      not(0xff)\n      and\n      dup4\n      dup1\n      add\n      or\n      dup6\n      sstore\n      jump(tag_544)\n    tag_546:\n      dup3\n      dup1\n      add\n      0x01\n      add\n      dup6\n      sstore\n      dup3\n      iszero\n      tag_544\n      jumpi\n      swap2\n      dup3\n      add\n    tag_547:\n      dup3\n      dup2\n      gt\n      iszero\n      tag_548\n      jumpi\n      dup3\n      mload\n      dup3\n      sstore\n      swap2\n      0x20\n      add\n      swap2\n      swap1\n      0x01\n      add\n      swap1\n      jump(tag_547)\n    tag_548:\n    tag_544:\n      pop\n      swap1\n      pop\n      tag_549\n      swap2\n      swap1\n      tag_550\n      jump\t// in\n    tag_549:\n      pop\n      swap1\n      jump\t// out\n    tag_550:\n    tag_551:\n      dup1\n      dup3\n      gt\n      iszero\n      tag_552\n      jumpi\n      0x00\n      dup2\n      0x00\n      swap1\n      sstore\n      pop\n      0x01\n      add\n      jump(tag_551)\n    tag_552:\n      pop\n      swap1\n      jump\t// out\n        /* \"#utility.yul\":7:419   */\n    tag_554:\n        /* \"#utility.yul\":85:90   */\n      0x00\n        /* \"#utility.yul\":110:176   */\n      tag_556\n        /* \"#utility.yul\":126:175   */\n      tag_557\n        /* \"#utility.yul\":168:174   */\n      dup5\n        /* \"#utility.yul\":126:175   */\n      tag_558\n      jump\t// in\n    tag_557:\n        /* \"#utility.yul\":110:176   */\n      tag_559\n      jump\t// in\n    tag_556:\n        /* \"#utility.yul\":101:176   */\n      swap1\n      pop\n        /* \"#utility.yul\":199:205   */\n      dup3\n        /* \"#utility.yul\":192:197   */\n      dup2\n        /* \"#utility.yul\":185:206   */\n      mstore\n        /* \"#utility.yul\":237:241   */\n      0x20\n        /* \"#utility.yul\":230:235   */\n      dup2\n        /* \"#utility.yul\":226:242   */\n      add\n        /* \"#utility.yul\":275:278   */\n      dup5\n        /* \"#utility.yul\":266:272   */\n      dup5\n        /* \"#utility.yul\":261:264   */\n      dup5\n        /* \"#utility.yul\":257:273   */\n      add\n        /* \"#utility.yul\":254:279   */\n      gt\n        /* \"#utility.yul\":251:363   */\n      iszero\n      tag_560\n      jumpi\n        /* \"#utility.yul\":282:361   */\n      tag_561\n      tag_562\n      jump\t// in\n    tag_561:\n        /* \"#utility.yul\":251:363   */\n    tag_560:\n        /* \"#utility.yul\":372:413   */\n      tag_563\n        /* \"#utility.yul\":406:412   */\n      dup5\n        /* \"#utility.yul\":401:404   */\n      dup3\n        /* \"#utility.yul\":396:399   */\n      dup6\n        /* \"#utility.yul\":372:413   */\n      tag_564\n      jump\t// in\n    tag_563:\n        /* \"#utility.yul\":91:419   */\n      pop\n        /* \"#utility.yul\":7:419   */\n      swap4\n      swap3\n      pop\n      pop\n      pop\n      jump\t// out\n        /* \"#utility.yul\":425:564   */\n    tag_565:\n        /* \"#utility.yul\":471:476   */\n      0x00\n        /* \"#utility.yul\":509:515   */\n      dup2\n        /* \"#utility.yul\":496:516   */\n      calldataload\n        /* \"#utility.yul\":487:516   */\n      swap1\n      pop\n        /* \"#utility.yul\":525:558   */\n      tag_567\n        /* \"#utility.yul\":552:557   */\n      dup2\n        /* \"#utility.yul\":525:558   */\n      tag_568\n      jump\t// in\n    tag_567:\n        /* \"#utility.yul\":425:564   */\n      swap3\n      swap2\n      pop\n      pop\n      jump\t// out\n        /* \"#utility.yul\":570:741   */\n    tag_569:\n        /* \"#utility.yul\":632:637   */\n      0x00\n        /* \"#utility.yul\":670:676   */\n      dup2\n        /* \"#utility.yul\":657:677   */\n      calldataload\n        /* \"#utility.yul\":648:677   */\n      swap1\n      pop\n        /* \"#utility.yul\":686:735   */\n      tag_571\n        /* \"#utility.yul\":729:734   */\n      dup2\n        /* \"#utility.yul\":686:735   */\n      tag_572\n      jump\t// in\n    tag_571:\n        /* \"#utility.yul\":570:741   */\n      swap3\n      swap2\n      pop\n      pop\n      jump\t// out\n        /* \"#utility.yul\":761:1101   */\n    tag_573:\n        /* \"#utility.yul\":817:822   */\n      0x00\n        /* \"#utility.yul\":866:869   */\n      dup3\n        /* \"#utility.yul\":859:863   */\n      0x1f\n        /* \"#utility.yul\":851:857   */\n      dup4\n        /* \"#utility.yul\":847:864   */\n      add\n        /* \"#utility.yul\":843:870   */\n      slt\n        /* \"#utility.yul\":833:955   */\n      tag_575\n      jumpi\n        /* \"#utility.yul\":874:953   */\n      tag_576\n      tag_577\n      jump\t// in\n    tag_576:\n        /* \"#utility.yul\":833:955   */\n    tag_575:\n        /* \"#utility.yul\":991:997   */\n      dup2\n        /* \"#utility.yul\":978:998   */\n      calldataload\n        /* \"#utility.yul\":1016:1095   */\n      tag_578\n        /* \"#utility.yul\":1091:1094   */\n      dup5\n        /* \"#utility.yul\":1083:1089   */\n      dup3\n        /* \"#utility.yul\":1076:1080   */\n      0x20\n        /* \"#utility.yul\":1068:1074   */\n      dup7\n        /* \"#utility.yul\":1064:1081   */\n      add\n        /* \"#utility.yul\":1016:1095   */\n      tag_554\n      jump\t// in\n    tag_578:\n        /* \"#utility.yul\":1007:1095   */\n      swap2\n      pop\n        /* \"#utility.yul\":823:1101   */\n      pop\n        /* \"#utility.yul\":761:1101   */\n      swap3\n      swap2\n      pop\n      pop\n      jump\t// out\n        /* \"#utility.yul\":1107:1246   */\n    tag_579:\n        /* \"#utility.yul\":1153:1158   */\n      0x00\n        /* \"#utility.yul\":1191:1197   */\n      dup2\n        /* \"#utility.yul\":1178:1198   */\n      calldataload\n        /* \"#utility.yul\":1169:1198   */\n      swap1\n      pop\n        /* \"#utility.yul\":1207:1240   */\n      tag_581\n        /* \"#utility.yul\":1234:1239   */\n      dup2\n        /* \"#utility.yul\":1207:1240   */\n      tag_582\n      jump\t// in\n    tag_581:\n        /* \"#utility.yul\":1107:1246   */\n      swap3\n      swap2\n      pop\n      pop\n      jump\t// out\n        /* \"#utility.yul\":1252:1387   */\n    tag_583:\n        /* \"#utility.yul\":1296:1301   */\n      0x00\n        /* \"#utility.yul\":1334:1340   */\n      dup2\n        /* \"#utility.yul\":1321:1341   */\n      calldataload\n        /* \"#utility.yul\":1312:1341   */\n      swap1\n      pop\n        /* \"#utility.yul\":1350:1381   */\n      tag_585\n        /* \"#utility.yul\":1375:1380   */\n      dup2\n        /* \"#utility.yul\":1350:1381   */\n      tag_586\n      jump\t// in\n    tag_585:\n        /* \"#utility.yul\":1252:1387   */\n      swap3\n      swap2\n      pop\n      pop\n      jump\t// out\n        /* \"#utility.yul\":1393:1754   */\n    tag_90:\n        /* \"#utility.yul\":1468:1474   */\n      0x00\n        /* \"#utility.yul\":1517:1519   */\n      0x20\n        /* \"#utility.yul\":1505:1514   */\n      dup3\n        /* \"#utility.yul\":1496:1503   */\n      dup5\n        /* \"#utility.yul\":1492:1515   */\n      sub\n        /* \"#utility.yul\":1488:1520   */\n      slt\n        /* \"#utility.yul\":1485:1604   */\n      iszero\n      tag_588\n      jumpi\n        /* \"#utility.yul\":1523:1602   */\n      tag_589\n      tag_590\n      jump\t// in\n    tag_589:\n        /* \"#utility.yul\":1485:1604   */\n    tag_588:\n        /* \"#utility.yul\":1643:1644   */\n      0x00\n        /* \"#utility.yul\":1668:1737   */\n      tag_591\n        /* \"#utility.yul\":1729:1736   */\n      dup5\n        /* \"#utility.yul\":1720:1726   */\n      dup3\n        /* \"#utility.yul\":1709:1718   */\n      dup6\n        /* \"#utility.yul\":1705:1727   */\n      add\n        /* \"#utility.yul\":1668:1737   */\n      tag_569\n      jump\t// in\n    tag_591:\n        /* \"#utility.yul\":1658:1737   */\n      swap2\n      pop\n        /* \"#utility.yul\":1614:1747   */\n      pop\n        /* \"#utility.yul\":1393:1754   */\n      swap3\n      swap2\n      pop\n      pop\n      jump\t// out\n        /* \"#utility.yul\":1760:2089   */\n    tag_24:\n        /* \"#utility.yul\":1819:1825   */\n      0x00\n        /* \"#utility.yul\":1868:1870   */\n      0x20\n        /* \"#utility.yul\":1856:1865   */\n      dup3\n        /* \"#utility.yul\":1847:1854   */\n      dup5\n        /* \"#utility.yul\":1843:1866   */\n      sub\n        /* \"#utility.yul\":1839:1871   */\n      slt\n        /* \"#utility.yul\":1836:1955   */\n      iszero\n      tag_593\n      jumpi\n        /* \"#utility.yul\":1874:1953   */\n      tag_594\n      tag_590\n      jump\t// in\n    tag_594:\n        /* \"#utility.yul\":1836:1955   */\n    tag_593:\n        /* \"#utility.yul\":1994:1995   */\n      0x00\n        /* \"#utility.yul\":2019:2072   */\n      tag_595\n        /* \"#utility.yul\":2064:2071   */\n      dup5\n        /* \"#utility.yul\":2055:2061   */\n      dup3\n        /* \"#utility.yul\":2044:2053   */\n      dup6\n        /* \"#utility.yul\":2040:2062   */\n      add\n        /* \"#utility.yul\":2019:2072   */\n      tag_579\n      jump\t// in\n    tag_595:\n        /* \"#utility.yul\":2009:2072   */\n      swap2\n      pop\n        /* \"#utility.yul\":1965:2082   */\n      pop\n        /* \"#utility.yul\":1760:2089   */\n      swap3\n      swap2\n      pop\n      pop\n      jump\t// out\n        /* \"#utility.yul\":2095:2749   */\n    tag_85:\n        /* \"#utility.yul\":2173:2179   */\n      0x00\n        /* \"#utility.yul\":2181:2187   */\n      dup1\n        /* \"#utility.yul\":2230:2232   */\n      0x40\n        /* \"#utility.yul\":2218:2227   */\n      dup4\n        /* \"#utility.yul\":2209:2216   */\n      dup6\n        /* \"#utility.yul\":2205:2228   */\n      sub\n        /* \"#utility.yul\":2201:2233   */\n      slt\n        /* \"#utility.yul\":2198:2317   */\n      iszero\n      tag_597\n      jumpi\n        /* \"#utility.yul\":2236:2315   */\n      tag_598\n      tag_590\n      jump\t// in\n    tag_598:\n        /* \"#utility.yul\":2198:2317   */\n    tag_597:\n        /* \"#utility.yul\":2356:2357   */\n      0x00\n        /* \"#utility.yul\":2381:2434   */\n      tag_599\n        /* \"#utility.yul\":2426:2433   */\n      dup6\n        /* \"#utility.yul\":2417:2423   */\n      dup3\n        /* \"#utility.yul\":2406:2415   */\n      dup7\n        /* \"#utility.yul\":2402:2424   */\n      add\n        /* \"#utility.yul\":2381:2434   */\n      tag_579\n      jump\t// in\n    tag_599:\n        /* \"#utility.yul\":2371:2434   */\n      swap3\n      pop\n        /* \"#utility.yul\":2327:2444   */\n      pop\n        /* \"#utility.yul\":2511:2513   */\n      0x20\n        /* \"#utility.yul\":2500:2509   */\n      dup4\n        /* \"#utility.yul\":2496:2514   */\n      add\n        /* \"#utility.yul\":2483:2515   */\n      calldataload\n        /* \"#utility.yul\":2542:2560   */\n      0xffffffffffffffff\n        /* \"#utility.yul\":2534:2540   */\n      dup2\n        /* \"#utility.yul\":2531:2561   */\n      gt\n        /* \"#utility.yul\":2528:2645   */\n      iszero\n      tag_600\n      jumpi\n        /* \"#utility.yul\":2564:2643   */\n      tag_601\n      tag_602\n      jump\t// in\n    tag_601:\n        /* \"#utility.yul\":2528:2645   */\n    tag_600:\n        /* \"#utility.yul\":2669:2732   */\n      tag_603\n        /* \"#utility.yul\":2724:2731   */\n      dup6\n        /* \"#utility.yul\":2715:2721   */\n      dup3\n        /* \"#utility.yul\":2704:2713   */\n      dup7\n        /* \"#utility.yul\":2700:2722   */\n      add\n        /* \"#utility.yul\":2669:2732   */\n      tag_573\n      jump\t// in\n    tag_603:\n        /* \"#utility.yul\":2659:2732   */\n      swap2\n      pop\n        /* \"#utility.yul\":2454:2742   */\n      pop\n        /* \"#utility.yul\":2095:2749   */\n      swap3\n      pop\n      swap3\n      swap1\n      pop\n      jump\t// out\n        /* \"#utility.yul\":2755:3554   */\n    tag_31:\n        /* \"#utility.yul\":2842:2848   */\n      0x00\n        /* \"#utility.yul\":2850:2856   */\n      dup1\n        /* \"#utility.yul\":2858:2864   */\n      0x00\n        /* \"#utility.yul\":2907:2909   */\n      0x60\n        /* \"#utility.yul\":2895:2904   */\n      dup5\n        /* \"#utility.yul\":2886:2893   */\n      dup7\n        /* \"#utility.yul\":2882:2905   */\n      sub\n        /* \"#utility.yul\":2878:2910   */\n      slt\n        /* \"#utility.yul\":2875:2994   */\n      iszero\n      tag_605\n      jumpi\n        /* \"#utility.yul\":2913:2992   */\n      tag_606\n      tag_590\n      jump\t// in\n    tag_606:\n        /* \"#utility.yul\":2875:2994   */\n    tag_605:\n        /* \"#utility.yul\":3033:3034   */\n      0x00\n        /* \"#utility.yul\":3058:3111   */\n      tag_607\n        /* \"#utility.yul\":3103:3110   */\n      dup7\n        /* \"#utility.yul\":3094:3100   */\n      dup3\n        /* \"#utility.yul\":3083:3092   */\n      dup8\n        /* \"#utility.yul\":3079:3101   */\n      add\n        /* \"#utility.yul\":3058:3111   */\n      tag_579\n      jump\t// in\n    tag_607:\n        /* \"#utility.yul\":3048:3111   */\n      swap4\n      pop\n        /* \"#utility.yul\":3004:3121   */\n      pop\n        /* \"#utility.yul\":3188:3190   */\n      0x20\n        /* \"#utility.yul\":3177:3186   */\n      dup5\n        /* \"#utility.yul\":3173:3191   */\n      add\n        /* \"#utility.yul\":3160:3192   */\n      calldataload\n        /* \"#utility.yul\":3219:3237   */\n      0xffffffffffffffff\n        /* \"#utility.yul\":3211:3217   */\n      dup2\n        /* \"#utility.yul\":3208:3238   */\n      gt\n        /* \"#utility.yul\":3205:3322   */\n      iszero\n      tag_608\n      jumpi\n        /* \"#utility.yul\":3241:3320   */\n      tag_609\n      tag_602\n      jump\t// in\n    tag_609:\n        /* \"#utility.yul\":3205:3322   */\n    tag_608:\n        /* \"#utility.yul\":3346:3409   */\n      tag_610\n        /* \"#utility.yul\":3401:3408   */\n      dup7\n        /* \"#utility.yul\":3392:3398   */\n      dup3\n        /* \"#utility.yul\":3381:3390   */\n      dup8\n        /* \"#utility.yul\":3377:3399   */\n      add\n        /* \"#utility.yul\":3346:3409   */\n      tag_573\n      jump\t// in\n    tag_610:\n        /* \"#utility.yul\":3336:3409   */\n      swap3\n      pop\n        /* \"#utility.yul\":3131:3419   */\n      pop\n        /* \"#utility.yul\":3458:3460   */\n      0x40\n        /* \"#utility.yul\":3484:3537   */\n      tag_611\n        /* \"#utility.yul\":3529:3536   */\n      dup7\n        /* \"#utility.yul\":3520:3526   */\n      dup3\n        /* \"#utility.yul\":3509:3518   */\n      dup8\n        /* \"#utility.yul\":3505:3527   */\n      add\n        /* \"#utility.yul\":3484:3537   */\n      tag_565\n      jump\t// in\n    tag_611:\n        /* \"#utility.yul\":3474:3537   */\n      swap2\n      pop\n        /* \"#utility.yul\":3429:3547   */\n      pop\n        /* \"#utility.yul\":2755:3554   */\n      swap3\n      pop\n      swap3\n      pop\n      swap3\n      jump\t// out\n        /* \"#utility.yul\":3560:4034   */\n    tag_41:\n        /* \"#utility.yul\":3628:3634   */\n      0x00\n        /* \"#utility.yul\":3636:3642   */\n      dup1\n        /* \"#utility.yul\":3685:3687   */\n      0x40\n        /* \"#utility.yul\":3673:3682   */\n      dup4\n        /* \"#utility.yul\":3664:3671   */\n      dup6\n        /* \"#utility.yul\":3660:3683   */\n      sub\n        /* \"#utility.yul\":3656:3688   */\n      slt\n        /* \"#utility.yul\":3653:3772   */\n      iszero\n      tag_613\n      jumpi\n        /* \"#utility.yul\":3691:3770   */\n      tag_614\n      tag_590\n      jump\t// in\n    tag_614:\n        /* \"#utility.yul\":3653:3772   */\n    tag_613:\n        /* \"#utility.yul\":3811:3812   */\n      0x00\n        /* \"#utility.yul\":3836:3889   */\n      tag_615\n        /* \"#utility.yul\":3881:3888   */\n      dup6\n        /* \"#utility.yul\":3872:3878   */\n      dup3\n        /* \"#utility.yul\":3861:3870   */\n      dup7\n        /* \"#utility.yul\":3857:3879   */\n      add\n        /* \"#utility.yul\":3836:3889   */\n      tag_579\n      jump\t// in\n    tag_615:\n        /* \"#utility.yul\":3826:3889   */\n      swap3\n      pop\n        /* \"#utility.yul\":3782:3899   */\n      pop\n        /* \"#utility.yul\":3938:3940   */\n      0x20\n        /* \"#utility.yul\":3964:4017   */\n      tag_616\n        /* \"#utility.yul\":4009:4016   */\n      dup6\n        /* \"#utility.yul\":4000:4006   */\n      dup3\n        /* \"#utility.yul\":3989:3998   */\n      dup7\n        /* \"#utility.yul\":3985:4007   */\n      add\n        /* \"#utility.yul\":3964:4017   */\n      tag_579\n      jump\t// in\n    tag_616:\n        /* \"#utility.yul\":3954:4017   */\n      swap2\n      pop\n        /* \"#utility.yul\":3909:4027   */\n      pop\n        /* \"#utility.yul\":3560:4034   */\n      swap3\n      pop\n      swap3\n      swap1\n      pop\n      jump\t// out\n        /* \"#utility.yul\":4040:4659   */\n    tag_95:\n        /* \"#utility.yul\":4117:4123   */\n      0x00\n        /* \"#utility.yul\":4125:4131   */\n      dup1\n        /* \"#utility.yul\":4133:4139   */\n      0x00\n        /* \"#utility.yul\":4182:4184   */\n      0x60\n        /* \"#utility.yul\":4170:4179   */\n      dup5\n        /* \"#utility.yul\":4161:4168   */\n      dup7\n        /* \"#utility.yul\":4157:4180   */\n      sub\n        /* \"#utility.yul\":4153:4185   */\n      slt\n        /* \"#utility.yul\":4150:4269   */\n      iszero\n      tag_618\n      jumpi\n        /* \"#utility.yul\":4188:4267   */\n      tag_619\n      tag_590\n      jump\t// in\n    tag_619:\n        /* \"#utility.yul\":4150:4269   */\n    tag_618:\n        /* \"#utility.yul\":4308:4309   */\n      0x00\n        /* \"#utility.yul\":4333:4386   */\n      tag_620\n        /* \"#utility.yul\":4378:4385   */\n      dup7\n        /* \"#utility.yul\":4369:4375   */\n      dup3\n        /* \"#utility.yul\":4358:4367   */\n      dup8\n        /* \"#utility.yul\":4354:4376   */\n      add\n        /* \"#utility.yul\":4333:4386   */\n      tag_579\n      jump\t// in\n    tag_620:\n        /* \"#utility.yul\":4323:4386   */\n      swap4\n      pop\n        /* \"#utility.yul\":4279:4396   */\n      pop\n        /* \"#utility.yul\":4435:4437   */\n      0x20\n        /* \"#utility.yul\":4461:4514   */\n      tag_621\n        /* \"#utility.yul\":4506:4513   */\n      dup7\n        /* \"#utility.yul\":4497:4503   */\n      dup3\n        /* \"#utility.yul\":4486:4495   */\n      dup8\n        /* \"#utility.yul\":4482:4504   */\n      add\n        /* \"#utility.yul\":4461:4514   */\n      tag_579\n      jump\t// in\n    tag_621:\n        /* \"#utility.yul\":4451:4514   */\n      swap3\n      pop\n        /* \"#utility.yul\":4406:4524   */\n      pop\n        /* \"#utility.yul\":4563:4565   */\n      0x40\n        /* \"#utility.yul\":4589:4642   */\n      tag_622\n        /* \"#utility.yul\":4634:4641   */\n      dup7\n        /* \"#utility.yul\":4625:4631   */\n      dup3\n        /* \"#utility.yul\":4614:4623   */\n      dup8\n        /* \"#utility.yul\":4610:4632   */\n      add\n        /* \"#utility.yul\":4589:4642   */\n      tag_579\n      jump\t// in\n    tag_622:\n        /* \"#utility.yul\":4579:4642   */\n      swap2\n      pop\n        /* \"#utility.yul\":4534:4652   */\n      pop\n        /* \"#utility.yul\":4040:4659   */\n      swap3\n      pop\n      swap3\n      pop\n      swap3\n      jump\t// out\n        /* \"#utility.yul\":4665:5756   */\n    tag_61:\n        /* \"#utility.yul\":4770:4776   */\n      0x00\n        /* \"#utility.yul\":4778:4784   */\n      dup1\n        /* \"#utility.yul\":4786:4792   */\n      0x00\n        /* \"#utility.yul\":4794:4800   */\n      dup1\n        /* \"#utility.yul\":4802:4808   */\n      0x00\n        /* \"#utility.yul\":4851:4854   */\n      0xa0\n        /* \"#utility.yul\":4839:4848   */\n      dup7\n        /* \"#utility.yul\":4830:4837   */\n      dup9\n        /* \"#utility.yul\":4826:4849   */\n      sub\n        /* \"#utility.yul\":4822:4855   */\n      slt\n        /* \"#utility.yul\":4819:4939   */\n      iszero\n      tag_624\n      jumpi\n        /* \"#utility.yul\":4858:4937   */\n      tag_625\n      tag_590\n      jump\t// in\n    tag_625:\n        /* \"#utility.yul\":4819:4939   */\n    tag_624:\n        /* \"#utility.yul\":4978:4979   */\n      0x00\n        /* \"#utility.yul\":5003:5056   */\n      tag_626\n        /* \"#utility.yul\":5048:5055   */\n      dup9\n        /* \"#utility.yul\":5039:5045   */\n      dup3\n        /* \"#utility.yul\":5028:5037   */\n      dup10\n        /* \"#utility.yul\":5024:5046   */\n      add\n        /* \"#utility.yul\":5003:5056   */\n      tag_579\n      jump\t// in\n    tag_626:\n        /* \"#utility.yul\":4993:5056   */\n      swap6\n      pop\n        /* \"#utility.yul\":4949:5066   */\n      pop\n        /* \"#utility.yul\":5105:5107   */\n      0x20\n        /* \"#utility.yul\":5131:5184   */\n      tag_627\n        /* \"#utility.yul\":5176:5183   */\n      dup9\n        /* \"#utility.yul\":5167:5173   */\n      dup3\n        /* \"#utility.yul\":5156:5165   */\n      dup10\n        /* \"#utility.yul\":5152:5174   */\n      add\n        /* \"#utility.yul\":5131:5184   */\n      tag_579\n      jump\t// in\n    tag_627:\n        /* \"#utility.yul\":5121:5184   */\n      swap5\n      pop\n        /* \"#utility.yul\":5076:5194   */\n      pop\n        /* \"#utility.yul\":5233:5235   */\n      0x40\n        /* \"#utility.yul\":5259:5312   */\n      tag_628\n        /* \"#utility.yul\":5304:5311   */\n      dup9\n        /* \"#utility.yul\":5295:5301   */\n      dup3\n        /* \"#utility.yul\":5284:5293   */\n      dup10\n        /* \"#utility.yul\":5280:5302   */\n      add\n        /* \"#utility.yul\":5259:5312   */\n      tag_579\n      jump\t// in\n    tag_628:\n        /* \"#utility.yul\":5249:5312   */\n      swap4\n      pop\n        /* \"#utility.yul\":5204:5322   */\n      pop\n        /* \"#utility.yul\":5361:5363   */\n      0x60\n        /* \"#utility.yul\":5387:5440   */\n      tag_629\n        /* \"#utility.yul\":5432:5439   */\n      dup9\n        /* \"#utility.yul\":5423:5429   */\n      dup3\n        /* \"#utility.yul\":5412:5421   */\n      dup10\n        /* \"#utility.yul\":5408:5430   */\n      add\n        /* \"#utility.yul\":5387:5440   */\n      tag_565\n      jump\t// in\n    tag_629:\n        /* \"#utility.yul\":5377:5440   */\n      swap3\n      pop\n        /* \"#utility.yul\":5332:5450   */\n      pop\n        /* \"#utility.yul\":5517:5520   */\n      0x80\n        /* \"#utility.yul\":5506:5515   */\n      dup7\n        /* \"#utility.yul\":5502:5521   */\n      add\n        /* \"#utility.yul\":5489:5522   */\n      calldataload\n        /* \"#utility.yul\":5549:5567   */\n      0xffffffffffffffff\n        /* \"#utility.yul\":5541:5547   */\n      dup2\n        /* \"#utility.yul\":5538:5568   */\n      gt\n        /* \"#utility.yul\":5535:5652   */\n      iszero\n      tag_630\n      jumpi\n        /* \"#utility.yul\":5571:5650   */\n      tag_631\n      tag_602\n      jump\t// in\n    tag_631:\n        /* \"#utility.yul\":5535:5652   */\n    tag_630:\n        /* \"#utility.yul\":5676:5739   */\n      tag_632\n        /* \"#utility.yul\":5731:5738   */\n      dup9\n        /* \"#utility.yul\":5722:5728   */\n      dup3\n        /* \"#utility.yul\":5711:5720   */\n      dup10\n        /* \"#utility.yul\":5707:5729   */\n      add\n        /* \"#utility.yul\":5676:5739   */\n      tag_573\n      jump\t// in\n    tag_632:\n        /* \"#utility.yul\":5666:5739   */\n      swap2\n      pop\n        /* \"#utility.yul\":5460:5749   */\n      pop\n        /* \"#utility.yul\":4665:5756   */\n      swap3\n      swap6\n      pop\n      swap3\n      swap6\n      swap1\n      swap4\n      pop\n      jump\t// out\n        /* \"#utility.yul\":5762:6377   */\n    tag_48:\n        /* \"#utility.yul\":5837:5843   */\n      0x00\n        /* \"#utility.yul\":5845:5851   */\n      dup1\n        /* \"#utility.yul\":5853:5859   */\n      0x00\n        /* \"#utility.yul\":5902:5904   */\n      0x60\n        /* \"#utility.yul\":5890:5899   */\n      dup5\n        /* \"#utility.yul\":5881:5888   */\n      dup7\n        /* \"#utility.yul\":5877:5900   */\n      sub\n        /* \"#utility.yul\":5873:5905   */\n      slt\n        /* \"#utility.yul\":5870:5989   */\n      iszero\n      tag_634\n      jumpi\n        /* \"#utility.yul\":5908:5987   */\n      tag_635\n      tag_590\n      jump\t// in\n    tag_635:\n        /* \"#utility.yul\":5870:5989   */\n    tag_634:\n        /* \"#utility.yul\":6028:6029   */\n      0x00\n        /* \"#utility.yul\":6053:6106   */\n      tag_636\n        /* \"#utility.yul\":6098:6105   */\n      dup7\n        /* \"#utility.yul\":6089:6095   */\n      dup3\n        /* \"#utility.yul\":6078:6087   */\n      dup8\n        /* \"#utility.yul\":6074:6096   */\n      add\n        /* \"#utility.yul\":6053:6106   */\n      tag_579\n      jump\t// in\n    tag_636:\n        /* \"#utility.yul\":6043:6106   */\n      swap4\n      pop\n        /* \"#utility.yul\":5999:6116   */\n      pop\n        /* \"#utility.yul\":6155:6157   */\n      0x20\n        /* \"#utility.yul\":6181:6234   */\n      tag_637\n        /* \"#utility.yul\":6226:6233   */\n      dup7\n        /* \"#utility.yul\":6217:6223   */\n      dup3\n        /* \"#utility.yul\":6206:6215   */\n      dup8\n        /* \"#utility.yul\":6202:6224   */\n      add\n        /* \"#utility.yul\":6181:6234   */\n      tag_579\n      jump\t// in\n    tag_637:\n        /* \"#utility.yul\":6171:6234   */\n      swap3\n      pop\n        /* \"#utility.yul\":6126:6244   */\n      pop\n        /* \"#utility.yul\":6283:6285   */\n      0x40\n        /* \"#utility.yul\":6309:6360   */\n      tag_638\n        /* \"#utility.yul\":6352:6359   */\n      dup7\n        /* \"#utility.yul\":6343:6349   */\n      dup3\n        /* \"#utility.yul\":6332:6341   */\n      dup8\n        /* \"#utility.yul\":6328:6350   */\n      add\n        /* \"#utility.yul\":6309:6360   */\n      tag_583\n      jump\t// in\n    tag_638:\n        /* \"#utility.yul\":6299:6360   */\n      swap2\n      pop\n        /* \"#utility.yul\":6254:6370   */\n      pop\n        /* \"#utility.yul\":5762:6377   */\n      swap3\n      pop\n      swap3\n      pop\n      swap3\n      jump\t// out\n        /* \"#utility.yul\":6383:6501   */\n    tag_639:\n        /* \"#utility.yul\":6470:6494   */\n      tag_641\n        /* \"#utility.yul\":6488:6493   */\n      dup2\n        /* \"#utility.yul\":6470:6494   */\n      tag_642\n      jump\t// in\n    tag_641:\n        /* \"#utility.yul\":6465:6468   */\n      dup3\n        /* \"#utility.yul\":6458:6495   */\n      mstore\n        /* \"#utility.yul\":6383:6501   */\n      pop\n      pop\n      jump\t// out\n        /* \"#utility.yul\":6507:6616   */\n    tag_643:\n        /* \"#utility.yul\":6588:6609   */\n      tag_645\n        /* \"#utility.yul\":6603:6608   */\n      dup2\n        /* \"#utility.yul\":6588:6609   */\n      tag_646\n      jump\t// in\n    tag_645:\n        /* \"#utility.yul\":6583:6586   */\n      dup3\n        /* \"#utility.yul\":6576:6610   */\n      mstore\n        /* \"#utility.yul\":6507:6616   */\n      pop\n      pop\n      jump\t// out\n        /* \"#utility.yul\":6622:6781   */\n    tag_647:\n        /* \"#utility.yul\":6723:6774   */\n      tag_649\n        /* \"#utility.yul\":6768:6773   */\n      dup2\n        /* \"#utility.yul\":6723:6774   */\n      tag_650\n      jump\t// in\n    tag_649:\n        /* \"#utility.yul\":6718:6721   */\n      dup3\n        /* \"#utility.yul\":6711:6775   */\n      mstore\n        /* \"#utility.yul\":6622:6781   */\n      pop\n      pop\n      jump\t// out\n        /* \"#utility.yul\":6787:7151   */\n    tag_651:\n        /* \"#utility.yul\":6875:6878   */\n      0x00\n        /* \"#utility.yul\":6903:6942   */\n      tag_653\n        /* \"#utility.yul\":6936:6941   */\n      dup3\n        /* \"#utility.yul\":6903:6942   */\n      tag_654\n      jump\t// in\n    tag_653:\n        /* \"#utility.yul\":6958:7029   */\n      tag_655\n        /* \"#utility.yul\":7022:7028   */\n      dup2\n        /* \"#utility.yul\":7017:7020   */\n      dup6\n        /* \"#utility.yul\":6958:7029   */\n      tag_656\n      jump\t// in\n    tag_655:\n        /* \"#utility.yul\":6951:7029   */\n      swap4\n      pop\n        /* \"#utility.yul\":7038:7090   */\n      tag_657\n        /* \"#utility.yul\":7083:7089   */\n      dup2\n        /* \"#utility.yul\":7078:7081   */\n      dup6\n        /* \"#utility.yul\":7071:7075   */\n      0x20\n        /* \"#utility.yul\":7064:7069   */\n      dup7\n        /* \"#utility.yul\":7060:7076   */\n      add\n        /* \"#utility.yul\":7038:7090   */\n      tag_658\n      jump\t// in\n    tag_657:\n        /* \"#utility.yul\":7115:7144   */\n      tag_659\n        /* \"#utility.yul\":7137:7143   */\n      dup2\n        /* \"#utility.yul\":7115:7144   */\n      tag_660\n      jump\t// in\n    tag_659:\n        /* \"#utility.yul\":7110:7113   */\n      dup5\n        /* \"#utility.yul\":7106:7145   */\n      add\n        /* \"#utility.yul\":7099:7145   */\n      swap2\n      pop\n        /* \"#utility.yul\":6879:7151   */\n      pop\n        /* \"#utility.yul\":6787:7151   */\n      swap3\n      swap2\n      pop\n      pop\n      jump\t// out\n        /* \"#utility.yul\":7157:7523   */\n    tag_661:\n        /* \"#utility.yul\":7299:7302   */\n      0x00\n        /* \"#utility.yul\":7320:7387   */\n      tag_663\n        /* \"#utility.yul\":7384:7386   */\n      0x11\n        /* \"#utility.yul\":7379:7382   */\n      dup4\n        /* \"#utility.yul\":7320:7387   */\n      tag_656\n      jump\t// in\n    tag_663:\n        /* \"#utility.yul\":7313:7387   */\n      swap2\n      pop\n        /* \"#utility.yul\":7396:7489   */\n      tag_664\n        /* \"#utility.yul\":7485:7488   */\n      dup3\n        /* \"#utility.yul\":7396:7489   */\n      tag_665\n      jump\t// in\n    tag_664:\n        /* \"#utility.yul\":7514:7516   */\n      0x20\n        /* \"#utility.yul\":7509:7512   */\n      dup3\n        /* \"#utility.yul\":7505:7517   */\n      add\n        /* \"#utility.yul\":7498:7517   */\n      swap1\n      pop\n        /* \"#utility.yul\":7157:7523   */\n      swap2\n      swap1\n      pop\n      jump\t// out\n        /* \"#utility.yul\":7529:7895   */\n    tag_666:\n        /* \"#utility.yul\":7671:7674   */\n      0x00\n        /* \"#utility.yul\":7692:7759   */\n      tag_668\n        /* \"#utility.yul\":7756:7758   */\n      0x28\n        /* \"#utility.yul\":7751:7754   */\n      dup4\n        /* \"#utility.yul\":7692:7759   */\n      tag_656\n      jump\t// in\n    tag_668:\n        /* \"#utility.yul\":7685:7759   */\n      swap2\n      pop\n        /* \"#utility.yul\":7768:7861   */\n      tag_669\n        /* \"#utility.yul\":7857:7860   */\n      dup3\n        /* \"#utility.yul\":7768:7861   */\n      tag_670\n      jump\t// in\n    tag_669:\n        /* \"#utility.yul\":7886:7888   */\n      0x40\n        /* \"#utility.yul\":7881:7884   */\n      dup3\n        /* \"#utility.yul\":7877:7889   */\n      add\n        /* \"#utility.yul\":7870:7889   */\n      swap1\n      pop\n        /* \"#utility.yul\":7529:7895   */\n      swap2\n      swap1\n      pop\n      jump\t// out\n        /* \"#utility.yul\":7901:8267   */\n    tag_671:\n        /* \"#utility.yul\":8043:8046   */\n      0x00\n        /* \"#utility.yul\":8064:8131   */\n      tag_673\n        /* \"#utility.yul\":8128:8130   */\n      0x25\n        /* \"#utility.yul\":8123:8126   */\n      dup4\n        /* \"#utility.yul\":8064:8131   */\n      tag_656\n      jump\t// in\n    tag_673:\n        /* \"#utility.yul\":8057:8131   */\n      swap2\n      pop\n        /* \"#utility.yul\":8140:8233   */\n      tag_674\n        /* \"#utility.yul\":8229:8232   */\n      dup3\n        /* \"#utility.yul\":8140:8233   */\n      tag_675\n      jump\t// in\n    tag_674:\n        /* \"#utility.yul\":8258:8260   */\n      0x40\n        /* \"#utility.yul\":8253:8256   */\n      dup3\n        /* \"#utility.yul\":8249:8261   */\n      add\n        /* \"#utility.yul\":8242:8261   */\n      swap1\n      pop\n        /* \"#utility.yul\":7901:8267   */\n      swap2\n      swap1\n      pop\n      jump\t// out\n        /* \"#utility.yul\":8273:8639   */\n    tag_676:\n        /* \"#utility.yul\":8415:8418   */\n      0x00\n        /* \"#utility.yul\":8436:8503   */\n      tag_678\n        /* \"#utility.yul\":8500:8502   */\n      0x41\n        /* \"#utility.yul\":8495:8498   */\n      dup4\n        /* \"#utility.yul\":8436:8503   */\n      tag_656\n      jump\t// in\n    tag_678:\n        /* \"#utility.yul\":8429:8503   */\n      swap2\n      pop\n        /* \"#utility.yul\":8512:8605   */\n      tag_679\n        /* \"#utility.yul\":8601:8604   */\n      dup3\n        /* \"#utility.yul\":8512:8605   */\n      tag_680\n      jump\t// in\n    tag_679:\n        /* \"#utility.yul\":8630:8632   */\n      0x60\n        /* \"#utility.yul\":8625:8628   */\n      dup3\n        /* \"#utility.yul\":8621:8633   */\n      add\n        /* \"#utility.yul\":8614:8633   */\n      swap1\n      pop\n        /* \"#utility.yul\":8273:8639   */\n      swap2\n      swap1\n      pop\n      jump\t// out\n        /* \"#utility.yul\":8645:9011   */\n    tag_681:\n        /* \"#utility.yul\":8787:8790   */\n      0x00\n        /* \"#utility.yul\":8808:8875   */\n      tag_683\n        /* \"#utility.yul\":8872:8874   */\n      0x3e\n        /* \"#utility.yul\":8867:8870   */\n      dup4\n        /* \"#utility.yul\":8808:8875   */\n      tag_656\n      jump\t// in\n    tag_683:\n        /* \"#utility.yul\":8801:8875   */\n      swap2\n      pop\n        /* \"#utility.yul\":8884:8977   */\n      tag_684\n        /* \"#utility.yul\":8973:8976   */\n      dup3\n        /* \"#utility.yul\":8884:8977   */\n      tag_685\n      jump\t// in\n    tag_684:\n        /* \"#utility.yul\":9002:9004   */\n      0x40\n        /* \"#utility.yul\":8997:9000   */\n      dup3\n        /* \"#utility.yul\":8993:9005   */\n      add\n        /* \"#utility.yul\":8986:9005   */\n      swap1\n      pop\n        /* \"#utility.yul\":8645:9011   */\n      swap2\n      swap1\n      pop\n      jump\t// out\n        /* \"#utility.yul\":9017:9383   */\n    tag_686:\n        /* \"#utility.yul\":9159:9162   */\n      0x00\n        /* \"#utility.yul\":9180:9247   */\n      tag_688\n        /* \"#utility.yul\":9244:9246   */\n      0x15\n        /* \"#utility.yul\":9239:9242   */\n      dup4\n        /* \"#utility.yul\":9180:9247   */\n      tag_656\n      jump\t// in\n    tag_688:\n        /* \"#utility.yul\":9173:9247   */\n      swap2\n      pop\n        /* \"#utility.yul\":9256:9349   */\n      tag_689\n        /* \"#utility.yul\":9345:9348   */\n      dup3\n        /* \"#utility.yul\":9256:9349   */\n      tag_690\n      jump\t// in\n    tag_689:\n        /* \"#utility.yul\":9374:9376   */\n      0x20\n        /* \"#utility.yul\":9369:9372   */\n      dup3\n        /* \"#utility.yul\":9365:9377   */\n      add\n        /* \"#utility.yul\":9358:9377   */\n      swap1\n      pop\n        /* \"#utility.yul\":9017:9383   */\n      swap2\n      swap1\n      pop\n      jump\t// out\n        /* \"#utility.yul\":9389:9755   */\n    tag_691:\n        /* \"#utility.yul\":9531:9534   */\n      0x00\n        /* \"#utility.yul\":9552:9619   */\n      tag_693\n        /* \"#utility.yul\":9616:9618   */\n      0x1b\n        /* \"#utility.yul\":9611:9614   */\n      dup4\n        /* \"#utility.yul\":9552:9619   */\n      tag_656\n      jump\t// in\n    tag_693:\n        /* \"#utility.yul\":9545:9619   */\n      swap2\n      pop\n        /* \"#utility.yul\":9628:9721   */\n      tag_694\n        /* \"#utility.yul\":9717:9720   */\n      dup3\n        /* \"#utility.yul\":9628:9721   */\n      tag_695\n      jump\t// in\n    tag_694:\n        /* \"#utility.yul\":9746:9748   */\n      0x20\n        /* \"#utility.yul\":9741:9744   */\n      dup3\n        /* \"#utility.yul\":9737:9749   */\n      add\n        /* \"#utility.yul\":9730:9749   */\n      swap1\n      pop\n        /* \"#utility.yul\":9389:9755   */\n      swap2\n      swap1\n      pop\n      jump\t// out\n        /* \"#utility.yul\":9761:10127   */\n    tag_696:\n        /* \"#utility.yul\":9903:9906   */\n      0x00\n        /* \"#utility.yul\":9924:9991   */\n      tag_698\n        /* \"#utility.yul\":9988:9990   */\n      0x23\n        /* \"#utility.yul\":9983:9986   */\n      dup4\n        /* \"#utility.yul\":9924:9991   */\n      tag_656\n      jump\t// in\n    tag_698:\n        /* \"#utility.yul\":9917:9991   */\n      swap2\n      pop\n        /* \"#utility.yul\":10000:10093   */\n      tag_699\n        /* \"#utility.yul\":10089:10092   */\n      dup3\n        /* \"#utility.yul\":10000:10093   */\n      tag_700\n      jump\t// in\n    tag_699:\n        /* \"#utility.yul\":10118:10120   */\n      0x40\n        /* \"#utility.yul\":10113:10116   */\n      dup3\n        /* \"#utility.yul\":10109:10121   */\n      add\n        /* \"#utility.yul\":10102:10121   */\n      swap1\n      pop\n        /* \"#utility.yul\":9761:10127   */\n      swap2\n      swap1\n      pop\n      jump\t// out\n        /* \"#utility.yul\":10133:10499   */\n    tag_701:\n        /* \"#utility.yul\":10275:10278   */\n      0x00\n        /* \"#utility.yul\":10296:10363   */\n      tag_703\n        /* \"#utility.yul\":10360:10362   */\n      0x15\n        /* \"#utility.yul\":10355:10358   */\n      dup4\n        /* \"#utility.yul\":10296:10363   */\n      tag_656\n      jump\t// in\n    tag_703:\n        /* \"#utility.yul\":10289:10363   */\n      swap2\n      pop\n        /* \"#utility.yul\":10372:10465   */\n      tag_704\n        /* \"#utility.yul\":10461:10464   */\n      dup3\n        /* \"#utility.yul\":10372:10465   */\n      tag_705\n      jump\t// in\n    tag_704:\n        /* \"#utility.yul\":10490:10492   */\n      0x20\n        /* \"#utility.yul\":10485:10488   */\n      dup3\n        /* \"#utility.yul\":10481:10493   */\n      add\n        /* \"#utility.yul\":10474:10493   */\n      swap1\n      pop\n        /* \"#utility.yul\":10133:10499   */\n      swap2\n      swap1\n      pop\n      jump\t// out\n        /* \"#utility.yul\":10505:10871   */\n    tag_706:\n        /* \"#utility.yul\":10647:10650   */\n      0x00\n        /* \"#utility.yul\":10668:10735   */\n      tag_708\n        /* \"#utility.yul\":10732:10734   */\n      0x25\n        /* \"#utility.yul\":10727:10730   */\n      dup4\n        /* \"#utility.yul\":10668:10735   */\n      tag_656\n      jump\t// in\n    tag_708:\n        /* \"#utility.yul\":10661:10735   */\n      swap2\n      pop\n        /* \"#utility.yul\":10744:10837   */\n      tag_709\n        /* \"#utility.yul\":10833:10836   */\n      dup3\n        /* \"#utility.yul\":10744:10837   */\n      tag_710\n      jump\t// in\n    tag_709:\n        /* \"#utility.yul\":10862:10864   */\n      0x40\n        /* \"#utility.yul\":10857:10860   */\n      dup3\n        /* \"#utility.yul\":10853:10865   */\n      add\n        /* \"#utility.yul\":10846:10865   */\n      swap1\n      pop\n        /* \"#utility.yul\":10505:10871   */\n      swap2\n      swap1\n      pop\n      jump\t// out\n        /* \"#utility.yul\":10877:11243   */\n    tag_711:\n        /* \"#utility.yul\":11019:11022   */\n      0x00\n        /* \"#utility.yul\":11040:11107   */\n      tag_713\n        /* \"#utility.yul\":11104:11106   */\n      0x28\n        /* \"#utility.yul\":11099:11102   */\n      dup4\n        /* \"#utility.yul\":11040:11107   */\n      tag_656\n      jump\t// in\n    tag_713:\n        /* \"#utility.yul\":11033:11107   */\n      swap2\n      pop\n        /* \"#utility.yul\":11116:11209   */\n      tag_714\n        /* \"#utility.yul\":11205:11208   */\n      dup3\n        /* \"#utility.yul\":11116:11209   */\n      tag_715\n      jump\t// in\n    tag_714:\n        /* \"#utility.yul\":11234:11236   */\n      0x40\n        /* \"#utility.yul\":11229:11232   */\n      dup3\n        /* \"#utility.yul\":11225:11237   */\n      add\n        /* \"#utility.yul\":11218:11237   */\n      swap1\n      pop\n        /* \"#utility.yul\":10877:11243   */\n      swap2\n      swap1\n      pop\n      jump\t// out\n        /* \"#utility.yul\":11249:11615   */\n    tag_716:\n        /* \"#utility.yul\":11391:11394   */\n      0x00\n        /* \"#utility.yul\":11412:11479   */\n      tag_718\n        /* \"#utility.yul\":11476:11478   */\n      0x2c\n        /* \"#utility.yul\":11471:11474   */\n      dup4\n        /* \"#utility.yul\":11412:11479   */\n      tag_656\n      jump\t// in\n    tag_718:\n        /* \"#utility.yul\":11405:11479   */\n      swap2\n      pop\n        /* \"#utility.yul\":11488:11581   */\n      tag_719\n        /* \"#utility.yul\":11577:11580   */\n      dup3\n        /* \"#utility.yul\":11488:11581   */\n      tag_720\n      jump\t// in\n    tag_719:\n        /* \"#utility.yul\":11606:11608   */\n      0x40\n        /* \"#utility.yul\":11601:11604   */\n      dup3\n        /* \"#utility.yul\":11597:11609   */\n      add\n        /* \"#utility.yul\":11590:11609   */\n      swap1\n      pop\n        /* \"#utility.yul\":11249:11615   */\n      swap2\n      swap1\n      pop\n      jump\t// out\n        /* \"#utility.yul\":11621:11739   */\n    tag_721:\n        /* \"#utility.yul\":11708:11732   */\n      tag_723\n        /* \"#utility.yul\":11726:11731   */\n      dup2\n        /* \"#utility.yul\":11708:11732   */\n      tag_724\n      jump\t// in\n    tag_723:\n        /* \"#utility.yul\":11703:11706   */\n      dup3\n        /* \"#utility.yul\":11696:11733   */\n      mstore\n        /* \"#utility.yul\":11621:11739   */\n      pop\n      pop\n      jump\t// out\n        /* \"#utility.yul\":11745:11967   */\n    tag_81:\n        /* \"#utility.yul\":11838:11842   */\n      0x00\n        /* \"#utility.yul\":11876:11878   */\n      0x20\n        /* \"#utility.yul\":11865:11874   */\n      dup3\n        /* \"#utility.yul\":11861:11879   */\n      add\n        /* \"#utility.yul\":11853:11879   */\n      swap1\n      pop\n        /* \"#utility.yul\":11889:11960   */\n      tag_726\n        /* \"#utility.yul\":11957:11958   */\n      0x00\n        /* \"#utility.yul\":11946:11955   */\n      dup4\n        /* \"#utility.yul\":11942:11959   */\n      add\n        /* \"#utility.yul\":11933:11939   */\n      dup5\n        /* \"#utility.yul\":11889:11960   */\n      tag_639\n      jump\t// in\n    tag_726:\n        /* \"#utility.yul\":11745:11967   */\n      swap3\n      swap2\n      pop\n      pop\n      jump\t// out\n        /* \"#utility.yul\":11973:12223   */\n    tag_37:\n        /* \"#utility.yul\":12080:12084   */\n      0x00\n        /* \"#utility.yul\":12118:12120   */\n      0x20\n        /* \"#utility.yul\":12107:12116   */\n      dup3\n        /* \"#utility.yul\":12103:12121   */\n      add\n        /* \"#utility.yul\":12095:12121   */\n      swap1\n      pop\n        /* \"#utility.yul\":12131:12216   */\n      tag_728\n        /* \"#utility.yul\":12213:12214   */\n      0x00\n        /* \"#utility.yul\":12202:12211   */\n      dup4\n        /* \"#utility.yul\":12198:12215   */\n      add\n        /* \"#utility.yul\":12189:12195   */\n      dup5\n        /* \"#utility.yul\":12131:12216   */\n      tag_647\n      jump\t// in\n    tag_728:\n        /* \"#utility.yul\":11973:12223   */\n      swap3\n      swap2\n      pop\n      pop\n      jump\t// out\n        /* \"#utility.yul\":12229:12542   */\n    tag_72:\n        /* \"#utility.yul\":12342:12346   */\n      0x00\n        /* \"#utility.yul\":12380:12382   */\n      0x20\n        /* \"#utility.yul\":12369:12378   */\n      dup3\n        /* \"#utility.yul\":12365:12383   */\n      add\n        /* \"#utility.yul\":12357:12383   */\n      swap1\n      pop\n        /* \"#utility.yul\":12429:12438   */\n      dup2\n        /* \"#utility.yul\":12423:12427   */\n      dup2\n        /* \"#utility.yul\":12419:12439   */\n      sub\n        /* \"#utility.yul\":12415:12416   */\n      0x00\n        /* \"#utility.yul\":12404:12413   */\n      dup4\n        /* \"#utility.yul\":12400:12417   */\n      add\n        /* \"#utility.yul\":12393:12440   */\n      mstore\n        /* \"#utility.yul\":12457:12535   */\n      tag_730\n        /* \"#utility.yul\":12530:12534   */\n      dup2\n        /* \"#utility.yul\":12521:12527   */\n      dup5\n        /* \"#utility.yul\":12457:12535   */\n      tag_651\n      jump\t// in\n    tag_730:\n        /* \"#utility.yul\":12449:12535   */\n      swap1\n      pop\n        /* \"#utility.yul\":12229:12542   */\n      swap3\n      swap2\n      pop\n      pop\n      jump\t// out\n        /* \"#utility.yul\":12548:12967   */\n    tag_305:\n        /* \"#utility.yul\":12714:12718   */\n      0x00\n        /* \"#utility.yul\":12752:12754   */\n      0x20\n        /* \"#utility.yul\":12741:12750   */\n      dup3\n        /* \"#utility.yul\":12737:12755   */\n      add\n        /* \"#utility.yul\":12729:12755   */\n      swap1\n      pop\n        /* \"#utility.yul\":12801:12810   */\n      dup2\n        /* \"#utility.yul\":12795:12799   */\n      dup2\n        /* \"#utility.yul\":12791:12811   */\n      sub\n        /* \"#utility.yul\":12787:12788   */\n      0x00\n        /* \"#utility.yul\":12776:12785   */\n      dup4\n        /* \"#utility.yul\":12772:12789   */\n      add\n        /* \"#utility.yul\":12765:12812   */\n      mstore\n        /* \"#utility.yul\":12829:12960   */\n      tag_732\n        /* \"#utility.yul\":12955:12959   */\n      dup2\n        /* \"#utility.yul\":12829:12960   */\n      tag_661\n      jump\t// in\n    tag_732:\n        /* \"#utility.yul\":12821:12960   */\n      swap1\n      pop\n        /* \"#utility.yul\":12548:12967   */\n      swap2\n      swap1\n      pop\n      jump\t// out\n        /* \"#utility.yul\":12973:13392   */\n    tag_367:\n        /* \"#utility.yul\":13139:13143   */\n      0x00\n        /* \"#utility.yul\":13177:13179   */\n      0x20\n        /* \"#utility.yul\":13166:13175   */\n      dup3\n        /* \"#utility.yul\":13162:13180   */\n      add\n        /* \"#utility.yul\":13154:13180   */\n      swap1\n      pop\n        /* \"#utility.yul\":13226:13235   */\n      dup2\n        /* \"#utility.yul\":13220:13224   */\n      dup2\n        /* \"#utility.yul\":13216:13236   */\n      sub\n        /* \"#utility.yul\":13212:13213   */\n      0x00\n        /* \"#utility.yul\":13201:13210   */\n      dup4\n        /* \"#utility.yul\":13197:13214   */\n      add\n        /* \"#utility.yul\":13190:13237   */\n      mstore\n        /* \"#utility.yul\":13254:13385   */\n      tag_734\n        /* \"#utility.yul\":13380:13384   */\n      dup2\n        /* \"#utility.yul\":13254:13385   */\n      tag_666\n      jump\t// in\n    tag_734:\n        /* \"#utility.yul\":13246:13385   */\n      swap1\n      pop\n        /* \"#utility.yul\":12973:13392   */\n      swap2\n      swap1\n      pop\n      jump\t// out\n        /* \"#utility.yul\":13398:13817   */\n    tag_483:\n        /* \"#utility.yul\":13564:13568   */\n      0x00\n        /* \"#utility.yul\":13602:13604   */\n      0x20\n        /* \"#utility.yul\":13591:13600   */\n      dup3\n        /* \"#utility.yul\":13587:13605   */\n      add\n        /* \"#utility.yul\":13579:13605   */\n      swap1\n      pop\n        /* \"#utility.yul\":13651:13660   */\n      dup2\n        /* \"#utility.yul\":13645:13649   */\n      dup2\n        /* \"#utility.yul\":13641:13661   */\n      sub\n        /* \"#utility.yul\":13637:13638   */\n      0x00\n        /* \"#utility.yul\":13626:13635   */\n      dup4\n        /* \"#utility.yul\":13622:13639   */\n      add\n        /* \"#utility.yul\":13615:13662   */\n      mstore\n        /* \"#utility.yul\":13679:13810   */\n      tag_736\n        /* \"#utility.yul\":13805:13809   */\n      dup2\n        /* \"#utility.yul\":13679:13810   */\n      tag_671\n      jump\t// in\n    tag_736:\n        /* \"#utility.yul\":13671:13810   */\n      swap1\n      pop\n        /* \"#utility.yul\":13398:13817   */\n      swap2\n      swap1\n      pop\n      jump\t// out\n        /* \"#utility.yul\":13823:14242   */\n    tag_333:\n        /* \"#utility.yul\":13989:13993   */\n      0x00\n        /* \"#utility.yul\":14027:14029   */\n      0x20\n        /* \"#utility.yul\":14016:14025   */\n      dup3\n        /* \"#utility.yul\":14012:14030   */\n      add\n        /* \"#utility.yul\":14004:14030   */\n      swap1\n      pop\n        /* \"#utility.yul\":14076:14085   */\n      dup2\n        /* \"#utility.yul\":14070:14074   */\n      dup2\n        /* \"#utility.yul\":14066:14086   */\n      sub\n        /* \"#utility.yul\":14062:14063   */\n      0x00\n        /* \"#utility.yul\":14051:14060   */\n      dup4\n        /* \"#utility.yul\":14047:14064   */\n      add\n        /* \"#utility.yul\":14040:14087   */\n      mstore\n        /* \"#utility.yul\":14104:14235   */\n      tag_738\n        /* \"#utility.yul\":14230:14234   */\n      dup2\n        /* \"#utility.yul\":14104:14235   */\n      tag_676\n      jump\t// in\n    tag_738:\n        /* \"#utility.yul\":14096:14235   */\n      swap1\n      pop\n        /* \"#utility.yul\":13823:14242   */\n      swap2\n      swap1\n      pop\n      jump\t// out\n        /* \"#utility.yul\":14248:14667   */\n    tag_435:\n        /* \"#utility.yul\":14414:14418   */\n      0x00\n        /* \"#utility.yul\":14452:14454   */\n      0x20\n        /* \"#utility.yul\":14441:14450   */\n      dup3\n        /* \"#utility.yul\":14437:14455   */\n      add\n        /* \"#utility.yul\":14429:14455   */\n      swap1\n      pop\n        /* \"#utility.yul\":14501:14510   */\n      dup2\n        /* \"#utility.yul\":14495:14499   */\n      dup2\n        /* \"#utility.yul\":14491:14511   */\n      sub\n        /* \"#utility.yul\":14487:14488   */\n      0x00\n        /* \"#utility.yul\":14476:14485   */\n      dup4\n        /* \"#utility.yul\":14472:14489   */\n      add\n        /* \"#utility.yul\":14465:14512   */\n      mstore\n        /* \"#utility.yul\":14529:14660   */\n      tag_740\n        /* \"#utility.yul\":14655:14659   */\n      dup2\n        /* \"#utility.yul\":14529:14660   */\n      tag_681\n      jump\t// in\n    tag_740:\n        /* \"#utility.yul\":14521:14660   */\n      swap1\n      pop\n        /* \"#utility.yul\":14248:14667   */\n      swap2\n      swap1\n      pop\n      jump\t// out\n        /* \"#utility.yul\":14673:15092   */\n    tag_239:\n        /* \"#utility.yul\":14839:14843   */\n      0x00\n        /* \"#utility.yul\":14877:14879   */\n      0x20\n        /* \"#utility.yul\":14866:14875   */\n      dup3\n        /* \"#utility.yul\":14862:14880   */\n      add\n        /* \"#utility.yul\":14854:14880   */\n      swap1\n      pop\n        /* \"#utility.yul\":14926:14935   */\n      dup2\n        /* \"#utility.yul\":14920:14924   */\n      dup2\n        /* \"#utility.yul\":14916:14936   */\n      sub\n        /* \"#utility.yul\":14912:14913   */\n      0x00\n        /* \"#utility.yul\":14901:14910   */\n      dup4\n        /* \"#utility.yul\":14897:14914   */\n      add\n        /* \"#utility.yul\":14890:14937   */\n      mstore\n        /* \"#utility.yul\":14954:15085   */\n      tag_742\n        /* \"#utility.yul\":15080:15084   */\n      dup2\n        /* \"#utility.yul\":14954:15085   */\n      tag_686\n      jump\t// in\n    tag_742:\n        /* \"#utility.yul\":14946:15085   */\n      swap1\n      pop\n        /* \"#utility.yul\":14673:15092   */\n      swap2\n      swap1\n      pop\n      jump\t// out\n        /* \"#utility.yul\":15098:15517   */\n    tag_374:\n        /* \"#utility.yul\":15264:15268   */\n      0x00\n        /* \"#utility.yul\":15302:15304   */\n      0x20\n        /* \"#utility.yul\":15291:15300   */\n      dup3\n        /* \"#utility.yul\":15287:15305   */\n      add\n        /* \"#utility.yul\":15279:15305   */\n      swap1\n      pop\n        /* \"#utility.yul\":15351:15360   */\n      dup2\n        /* \"#utility.yul\":15345:15349   */\n      dup2\n        /* \"#utility.yul\":15341:15361   */\n      sub\n        /* \"#utility.yul\":15337:15338   */\n      0x00\n        /* \"#utility.yul\":15326:15335   */\n      dup4\n        /* \"#utility.yul\":15322:15339   */\n      add\n        /* \"#utility.yul\":15315:15362   */\n      mstore\n        /* \"#utility.yul\":15379:15510   */\n      tag_744\n        /* \"#utility.yul\":15505:15509   */\n      dup2\n        /* \"#utility.yul\":15379:15510   */\n      tag_691\n      jump\t// in\n    tag_744:\n        /* \"#utility.yul\":15371:15510   */\n      swap1\n      pop\n        /* \"#utility.yul\":15098:15517   */\n      swap2\n      swap1\n      pop\n      jump\t// out\n        /* \"#utility.yul\":15523:15942   */\n    tag_188:\n        /* \"#utility.yul\":15689:15693   */\n      0x00\n        /* \"#utility.yul\":15727:15729   */\n      0x20\n        /* \"#utility.yul\":15716:15725   */\n      dup3\n        /* \"#utility.yul\":15712:15730   */\n      add\n        /* \"#utility.yul\":15704:15730   */\n      swap1\n      pop\n        /* \"#utility.yul\":15776:15785   */\n      dup2\n        /* \"#utility.yul\":15770:15774   */\n      dup2\n        /* \"#utility.yul\":15766:15786   */\n      sub\n        /* \"#utility.yul\":15762:15763   */\n      0x00\n        /* \"#utility.yul\":15751:15760   */\n      dup4\n        /* \"#utility.yul\":15747:15764   */\n      add\n        /* \"#utility.yul\":15740:15787   */\n      mstore\n        /* \"#utility.yul\":15804:15935   */\n      tag_746\n        /* \"#utility.yul\":15930:15934   */\n      dup2\n        /* \"#utility.yul\":15804:15935   */\n      tag_696\n      jump\t// in\n    tag_746:\n        /* \"#utility.yul\":15796:15935   */\n      swap1\n      pop\n        /* \"#utility.yul\":15523:15942   */\n      swap2\n      swap1\n      pop\n      jump\t// out\n        /* \"#utility.yul\":15948:16367   */\n    tag_122:\n        /* \"#utility.yul\":16114:16118   */\n      0x00\n        /* \"#utility.yul\":16152:16154   */\n      0x20\n        /* \"#utility.yul\":16141:16150   */\n      dup3\n        /* \"#utility.yul\":16137:16155   */\n      add\n        /* \"#utility.yul\":16129:16155   */\n      swap1\n      pop\n        /* \"#utility.yul\":16201:16210   */\n      dup2\n        /* \"#utility.yul\":16195:16199   */\n      dup2\n        /* \"#utility.yul\":16191:16211   */\n      sub\n        /* \"#utility.yul\":16187:16188   */\n      0x00\n        /* \"#utility.yul\":16176:16185   */\n      dup4\n        /* \"#utility.yul\":16172:16189   */\n      add\n        /* \"#utility.yul\":16165:16212   */\n      mstore\n        /* \"#utility.yul\":16229:16360   */\n      tag_748\n        /* \"#utility.yul\":16355:16359   */\n      dup2\n        /* \"#utility.yul\":16229:16360   */\n      tag_701\n      jump\t// in\n    tag_748:\n        /* \"#utility.yul\":16221:16360   */\n      swap1\n      pop\n        /* \"#utility.yul\":15948:16367   */\n      swap2\n      swap1\n      pop\n      jump\t// out\n        /* \"#utility.yul\":16373:16792   */\n    tag_355:\n        /* \"#utility.yul\":16539:16543   */\n      0x00\n        /* \"#utility.yul\":16577:16579   */\n      0x20\n        /* \"#utility.yul\":16566:16575   */\n      dup3\n        /* \"#utility.yul\":16562:16580   */\n      add\n        /* \"#utility.yul\":16554:16580   */\n      swap1\n      pop\n        /* \"#utility.yul\":16626:16635   */\n      dup2\n        /* \"#utility.yul\":16620:16624   */\n      dup2\n        /* \"#utility.yul\":16616:16636   */\n      sub\n        /* \"#utility.yul\":16612:16613   */\n      0x00\n        /* \"#utility.yul\":16601:16610   */\n      dup4\n        /* \"#utility.yul\":16597:16614   */\n      add\n        /* \"#utility.yul\":16590:16637   */\n      mstore\n        /* \"#utility.yul\":16654:16785   */\n      tag_750\n        /* \"#utility.yul\":16780:16784   */\n      dup2\n        /* \"#utility.yul\":16654:16785   */\n      tag_706\n      jump\t// in\n    tag_750:\n        /* \"#utility.yul\":16646:16785   */\n      swap1\n      pop\n        /* \"#utility.yul\":16373:16792   */\n      swap2\n      swap1\n      pop\n      jump\t// out\n        /* \"#utility.yul\":16798:17217   */\n    tag_148:\n        /* \"#utility.yul\":16964:16968   */\n      0x00\n        /* \"#utility.yul\":17002:17004   */\n      0x20\n        /* \"#utility.yul\":16991:17000   */\n      dup3\n        /* \"#utility.yul\":16987:17005   */\n      add\n        /* \"#utility.yul\":16979:17005   */\n      swap1\n      pop\n        /* \"#utility.yul\":17051:17060   */\n      dup2\n        /* \"#utility.yul\":17045:17049   */\n      dup2\n        /* \"#utility.yul\":17041:17061   */\n      sub\n        /* \"#utility.yul\":17037:17038   */\n      0x00\n        /* \"#utility.yul\":17026:17035   */\n      dup4\n        /* \"#utility.yul\":17022:17039   */\n      add\n        /* \"#utility.yul\":17015:17062   */\n      mstore\n        /* \"#utility.yul\":17079:17210   */\n      tag_752\n        /* \"#utility.yul\":17205:17209   */\n      dup2\n        /* \"#utility.yul\":17079:17210   */\n      tag_711\n      jump\t// in\n    tag_752:\n        /* \"#utility.yul\":17071:17210   */\n      swap1\n      pop\n        /* \"#utility.yul\":16798:17217   */\n      swap2\n      swap1\n      pop\n      jump\t// out\n        /* \"#utility.yul\":17223:17642   */\n    tag_527:\n        /* \"#utility.yul\":17389:17393   */\n      0x00\n        /* \"#utility.yul\":17427:17429   */\n      0x20\n        /* \"#utility.yul\":17416:17425   */\n      dup3\n        /* \"#utility.yul\":17412:17430   */\n      add\n        /* \"#utility.yul\":17404:17430   */\n      swap1\n      pop\n        /* \"#utility.yul\":17476:17485   */\n      dup2\n        /* \"#utility.yul\":17470:17474   */\n      dup2\n        /* \"#utility.yul\":17466:17486   */\n      sub\n        /* \"#utility.yul\":17462:17463   */\n      0x00\n        /* \"#utility.yul\":17451:17460   */\n      dup4\n        /* \"#utility.yul\":17447:17464   */\n      add\n        /* \"#utility.yul\":17440:17487   */\n      mstore\n        /* \"#utility.yul\":17504:17635   */\n      tag_754\n        /* \"#utility.yul\":17630:17634   */\n      dup2\n        /* \"#utility.yul\":17504:17635   */\n      tag_716\n      jump\t// in\n    tag_754:\n        /* \"#utility.yul\":17496:17635   */\n      swap1\n      pop\n        /* \"#utility.yul\":17223:17642   */\n      swap2\n      swap1\n      pop\n      jump\t// out\n        /* \"#utility.yul\":17648:18482   */\n    tag_102:\n        /* \"#utility.yul\":17887:17891   */\n      0x00\n        /* \"#utility.yul\":17925:17928   */\n      0xa0\n        /* \"#utility.yul\":17914:17923   */\n      dup3\n        /* \"#utility.yul\":17910:17929   */\n      add\n        /* \"#utility.yul\":17902:17929   */\n      swap1\n      pop\n        /* \"#utility.yul\":17939:18010   */\n      tag_756\n        /* \"#utility.yul\":18007:18008   */\n      0x00\n        /* \"#utility.yul\":17996:18005   */\n      dup4\n        /* \"#utility.yul\":17992:18009   */\n      add\n        /* \"#utility.yul\":17983:17989   */\n      dup9\n        /* \"#utility.yul\":17939:18010   */\n      tag_721\n      jump\t// in\n    tag_756:\n        /* \"#utility.yul\":18020:18086   */\n      tag_757\n        /* \"#utility.yul\":18082:18084   */\n      0x20\n        /* \"#utility.yul\":18071:18080   */\n      dup4\n        /* \"#utility.yul\":18067:18085   */\n      add\n        /* \"#utility.yul\":18058:18064   */\n      dup8\n        /* \"#utility.yul\":18020:18086   */\n      tag_643\n      jump\t// in\n    tag_757:\n        /* \"#utility.yul\":18133:18142   */\n      dup2\n        /* \"#utility.yul\":18127:18131   */\n      dup2\n        /* \"#utility.yul\":18123:18143   */\n      sub\n        /* \"#utility.yul\":18118:18120   */\n      0x40\n        /* \"#utility.yul\":18107:18116   */\n      dup4\n        /* \"#utility.yul\":18103:18121   */\n      add\n        /* \"#utility.yul\":18096:18144   */\n      mstore\n        /* \"#utility.yul\":18161:18239   */\n      tag_758\n        /* \"#utility.yul\":18234:18238   */\n      dup2\n        /* \"#utility.yul\":18225:18231   */\n      dup7\n        /* \"#utility.yul\":18161:18239   */\n      tag_651\n      jump\t// in\n    tag_758:\n        /* \"#utility.yul\":18153:18239   */\n      swap1\n      pop\n        /* \"#utility.yul\":18286:18295   */\n      dup2\n        /* \"#utility.yul\":18280:18284   */\n      dup2\n        /* \"#utility.yul\":18276:18296   */\n      sub\n        /* \"#utility.yul\":18271:18273   */\n      0x60\n        /* \"#utility.yul\":18260:18269   */\n      dup4\n        /* \"#utility.yul\":18256:18274   */\n      add\n        /* \"#utility.yul\":18249:18297   */\n      mstore\n        /* \"#utility.yul\":18314:18392   */\n      tag_759\n        /* \"#utility.yul\":18387:18391   */\n      dup2\n        /* \"#utility.yul\":18378:18384   */\n      dup6\n        /* \"#utility.yul\":18314:18392   */\n      tag_651\n      jump\t// in\n    tag_759:\n        /* \"#utility.yul\":18306:18392   */\n      swap1\n      pop\n        /* \"#utility.yul\":18402:18475   */\n      tag_760\n        /* \"#utility.yul\":18470:18473   */\n      0x80\n        /* \"#utility.yul\":18459:18468   */\n      dup4\n        /* \"#utility.yul\":18455:18474   */\n      add\n        /* \"#utility.yul\":18446:18452   */\n      dup5\n        /* \"#utility.yul\":18402:18475   */\n      tag_639\n      jump\t// in\n    tag_760:\n        /* \"#utility.yul\":17648:18482   */\n      swap7\n      swap6\n      pop\n      pop\n      pop\n      pop\n      pop\n      pop\n      jump\t// out\n        /* \"#utility.yul\":18488:18958   */\n    tag_207:\n        /* \"#utility.yul\":18651:18655   */\n      0x00\n        /* \"#utility.yul\":18689:18691   */\n      0x60\n        /* \"#utility.yul\":18678:18687   */\n      dup3\n        /* \"#utility.yul\":18674:18692   */\n      add\n        /* \"#utility.yul\":18666:18692   */\n      swap1\n      pop\n        /* \"#utility.yul\":18702:18773   */\n      tag_762\n        /* \"#utility.yul\":18770:18771   */\n      0x00\n        /* \"#utility.yul\":18759:18768   */\n      dup4\n        /* \"#utility.yul\":18755:18772   */\n      add\n        /* \"#utility.yul\":18746:18752   */\n      dup7\n        /* \"#utility.yul\":18702:18773   */\n      tag_721\n      jump\t// in\n    tag_762:\n        /* \"#utility.yul\":18783:18855   */\n      tag_763\n        /* \"#utility.yul\":18851:18853   */\n      0x20\n        /* \"#utility.yul\":18840:18849   */\n      dup4\n        /* \"#utility.yul\":18836:18854   */\n      add\n        /* \"#utility.yul\":18827:18833   */\n      dup6\n        /* \"#utility.yul\":18783:18855   */\n      tag_721\n      jump\t// in\n    tag_763:\n        /* \"#utility.yul\":18865:18951   */\n      tag_764\n        /* \"#utility.yul\":18947:18949   */\n      0x40\n        /* \"#utility.yul\":18936:18945   */\n      dup4\n        /* \"#utility.yul\":18932:18950   */\n      add\n        /* \"#utility.yul\":18923:18929   */\n      dup5\n        /* \"#utility.yul\":18865:18951   */\n      tag_647\n      jump\t// in\n    tag_764:\n        /* \"#utility.yul\":18488:18958   */\n      swap5\n      swap4\n      pop\n      pop\n      pop\n      pop\n      jump\t// out\n        /* \"#utility.yul\":18964:19406   */\n    tag_44:\n        /* \"#utility.yul\":19113:19117   */\n      0x00\n        /* \"#utility.yul\":19151:19153   */\n      0x60\n        /* \"#utility.yul\":19140:19149   */\n      dup3\n        /* \"#utility.yul\":19136:19154   */\n      add\n        /* \"#utility.yul\":19128:19154   */\n      swap1\n      pop\n        /* \"#utility.yul\":19164:19235   */\n      tag_766\n        /* \"#utility.yul\":19232:19233   */\n      0x00\n        /* \"#utility.yul\":19221:19230   */\n      dup4\n        /* \"#utility.yul\":19217:19234   */\n      add\n        /* \"#utility.yul\":19208:19214   */\n      dup7\n        /* \"#utility.yul\":19164:19235   */\n      tag_721\n      jump\t// in\n    tag_766:\n        /* \"#utility.yul\":19245:19317   */\n      tag_767\n        /* \"#utility.yul\":19313:19315   */\n      0x20\n        /* \"#utility.yul\":19302:19311   */\n      dup4\n        /* \"#utility.yul\":19298:19316   */\n      add\n        /* \"#utility.yul\":19289:19295   */\n      dup6\n        /* \"#utility.yul\":19245:19317   */\n      tag_721\n      jump\t// in\n    tag_767:\n        /* \"#utility.yul\":19327:19399   */\n      tag_768\n        /* \"#utility.yul\":19395:19397   */\n      0x40\n        /* \"#utility.yul\":19384:19393   */\n      dup4\n        /* \"#utility.yul\":19380:19398   */\n      add\n        /* \"#utility.yul\":19371:19377   */\n      dup5\n        /* \"#utility.yul\":19327:19399   */\n      tag_721\n      jump\t// in\n    tag_768:\n        /* \"#utility.yul\":18964:19406   */\n      swap5\n      swap4\n      pop\n      pop\n      pop\n      pop\n      jump\t// out\n        /* \"#utility.yul\":19412:20516   */\n    tag_27:\n        /* \"#utility.yul\":19729:19733   */\n      0x00\n        /* \"#utility.yul\":19767:19770   */\n      0x0100\n        /* \"#utility.yul\":19756:19765   */\n      dup3\n        /* \"#utility.yul\":19752:19771   */\n      add\n        /* \"#utility.yul\":19744:19771   */\n      swap1\n      pop\n        /* \"#utility.yul\":19781:19852   */\n      tag_770\n        /* \"#utility.yul\":19849:19850   */\n      0x00\n        /* \"#utility.yul\":19838:19847   */\n      dup4\n        /* \"#utility.yul\":19834:19851   */\n      add\n        /* \"#utility.yul\":19825:19831   */\n      dup12\n        /* \"#utility.yul\":19781:19852   */\n      tag_721\n      jump\t// in\n    tag_770:\n        /* \"#utility.yul\":19862:19934   */\n      tag_771\n        /* \"#utility.yul\":19930:19932   */\n      0x20\n        /* \"#utility.yul\":19919:19928   */\n      dup4\n        /* \"#utility.yul\":19915:19933   */\n      add\n        /* \"#utility.yul\":19906:19912   */\n      dup11\n        /* \"#utility.yul\":19862:19934   */\n      tag_721\n      jump\t// in\n    tag_771:\n        /* \"#utility.yul\":19944:20016   */\n      tag_772\n        /* \"#utility.yul\":20012:20014   */\n      0x40\n        /* \"#utility.yul\":20001:20010   */\n      dup4\n        /* \"#utility.yul\":19997:20015   */\n      add\n        /* \"#utility.yul\":19988:19994   */\n      dup10\n        /* \"#utility.yul\":19944:20016   */\n      tag_721\n      jump\t// in\n    tag_772:\n        /* \"#utility.yul\":20026:20098   */\n      tag_773\n        /* \"#utility.yul\":20094:20096   */\n      0x60\n        /* \"#utility.yul\":20083:20092   */\n      dup4\n        /* \"#utility.yul\":20079:20097   */\n      add\n        /* \"#utility.yul\":20070:20076   */\n      dup9\n        /* \"#utility.yul\":20026:20098   */\n      tag_721\n      jump\t// in\n    tag_773:\n        /* \"#utility.yul\":20108:20181   */\n      tag_774\n        /* \"#utility.yul\":20176:20179   */\n      0x80\n        /* \"#utility.yul\":20165:20174   */\n      dup4\n        /* \"#utility.yul\":20161:20180   */\n      add\n        /* \"#utility.yul\":20152:20158   */\n      dup8\n        /* \"#utility.yul\":20108:20181   */\n      tag_639\n      jump\t// in\n    tag_774:\n        /* \"#utility.yul\":20191:20258   */\n      tag_775\n        /* \"#utility.yul\":20253:20256   */\n      0xa0\n        /* \"#utility.yul\":20242:20251   */\n      dup4\n        /* \"#utility.yul\":20238:20257   */\n      add\n        /* \"#utility.yul\":20229:20235   */\n      dup7\n        /* \"#utility.yul\":20191:20258   */\n      tag_643\n      jump\t// in\n    tag_775:\n        /* \"#utility.yul\":20306:20315   */\n      dup2\n        /* \"#utility.yul\":20300:20304   */\n      dup2\n        /* \"#utility.yul\":20296:20316   */\n      sub\n        /* \"#utility.yul\":20290:20293   */\n      0xc0\n        /* \"#utility.yul\":20279:20288   */\n      dup4\n        /* \"#utility.yul\":20275:20294   */\n      add\n        /* \"#utility.yul\":20268:20317   */\n      mstore\n        /* \"#utility.yul\":20334:20412   */\n      tag_776\n        /* \"#utility.yul\":20407:20411   */\n      dup2\n        /* \"#utility.yul\":20398:20404   */\n      dup6\n        /* \"#utility.yul\":20334:20412   */\n      tag_651\n      jump\t// in\n    tag_776:\n        /* \"#utility.yul\":20326:20412   */\n      swap1\n      pop\n        /* \"#utility.yul\":20422:20509   */\n      tag_777\n        /* \"#utility.yul\":20504:20507   */\n      0xe0\n        /* \"#utility.yul\":20493:20502   */\n      dup4\n        /* \"#utility.yul\":20489:20508   */\n      add\n        /* \"#utility.yul\":20480:20486   */\n      dup5\n        /* \"#utility.yul\":20422:20509   */\n      tag_647\n      jump\t// in\n    tag_777:\n        /* \"#utility.yul\":19412:20516   */\n      swap10\n      swap9\n      pop\n      pop\n      pop\n      pop\n      pop\n      pop\n      pop\n      pop\n      pop\n      jump\t// out\n        /* \"#utility.yul\":20522:20651   */\n    tag_559:\n        /* \"#utility.yul\":20556:20562   */\n      0x00\n        /* \"#utility.yul\":20583:20603   */\n      tag_779\n      tag_780\n      jump\t// in\n    tag_779:\n        /* \"#utility.yul\":20573:20603   */\n      swap1\n      pop\n        /* \"#utility.yul\":20612:20645   */\n      tag_781\n        /* \"#utility.yul\":20640:20644   */\n      dup3\n        /* \"#utility.yul\":20632:20638   */\n      dup3\n        /* \"#utility.yul\":20612:20645   */\n      tag_782\n      jump\t// in\n    tag_781:\n        /* \"#utility.yul\":20522:20651   */\n      swap2\n      swap1\n      pop\n      jump\t// out\n        /* \"#utility.yul\":20657:20732   */\n    tag_780:\n        /* \"#utility.yul\":20690:20696   */\n      0x00\n        /* \"#utility.yul\":20723:20725   */\n      0x40\n        /* \"#utility.yul\":20717:20726   */\n      mload\n        /* \"#utility.yul\":20707:20726   */\n      swap1\n      pop\n        /* \"#utility.yul\":20657:20732   */\n      swap1\n      jump\t// out\n        /* \"#utility.yul\":20738:21046   */\n    tag_558:\n        /* \"#utility.yul\":20800:20804   */\n      0x00\n        /* \"#utility.yul\":20890:20908   */\n      0xffffffffffffffff\n        /* \"#utility.yul\":20882:20888   */\n      dup3\n        /* \"#utility.yul\":20879:20909   */\n      gt\n        /* \"#utility.yul\":20876:20932   */\n      iszero\n      tag_785\n      jumpi\n        /* \"#utility.yul\":20912:20930   */\n      tag_786\n      tag_787\n      jump\t// in\n    tag_786:\n        /* \"#utility.yul\":20876:20932   */\n    tag_785:\n        /* \"#utility.yul\":20950:20979   */\n      tag_788\n        /* \"#utility.yul\":20972:20978   */\n      dup3\n        /* \"#utility.yul\":20950:20979   */\n      tag_660\n      jump\t// in\n    tag_788:\n        /* \"#utility.yul\":20942:20979   */\n      swap1\n      pop\n        /* \"#utility.yul\":21034:21038   */\n      0x20\n        /* \"#utility.yul\":21028:21032   */\n      dup2\n        /* \"#utility.yul\":21024:21039   */\n      add\n        /* \"#utility.yul\":21016:21039   */\n      swap1\n      pop\n        /* \"#utility.yul\":20738:21046   */\n      swap2\n      swap1\n      pop\n      jump\t// out\n        /* \"#utility.yul\":21052:21151   */\n    tag_654:\n        /* \"#utility.yul\":21104:21110   */\n      0x00\n        /* \"#utility.yul\":21138:21143   */\n      dup2\n        /* \"#utility.yul\":21132:21144   */\n      mload\n        /* \"#utility.yul\":21122:21144   */\n      swap1\n      pop\n        /* \"#utility.yul\":21052:21151   */\n      swap2\n      swap1\n      pop\n      jump\t// out\n        /* \"#utility.yul\":21157:21326   */\n    tag_656:\n        /* \"#utility.yul\":21241:21252   */\n      0x00\n        /* \"#utility.yul\":21275:21281   */\n      dup3\n        /* \"#utility.yul\":21270:21273   */\n      dup3\n        /* \"#utility.yul\":21263:21282   */\n      mstore\n        /* \"#utility.yul\":21315:21319   */\n      0x20\n        /* \"#utility.yul\":21310:21313   */\n      dup3\n        /* \"#utility.yul\":21306:21320   */\n      add\n        /* \"#utility.yul\":21291:21320   */\n      swap1\n      pop\n        /* \"#utility.yul\":21157:21326   */\n      swap3\n      swap2\n      pop\n      pop\n      jump\t// out\n        /* \"#utility.yul\":21332:21637   */\n    tag_488:\n        /* \"#utility.yul\":21372:21375   */\n      0x00\n        /* \"#utility.yul\":21391:21411   */\n      tag_792\n        /* \"#utility.yul\":21409:21410   */\n      dup3\n        /* \"#utility.yul\":21391:21411   */\n      tag_724\n      jump\t// in\n    tag_792:\n        /* \"#utility.yul\":21386:21411   */\n      swap2\n      pop\n        /* \"#utility.yul\":21425:21445   */\n      tag_793\n        /* \"#utility.yul\":21443:21444   */\n      dup4\n        /* \"#utility.yul\":21425:21445   */\n      tag_724\n      jump\t// in\n    tag_793:\n        /* \"#utility.yul\":21420:21445   */\n      swap3\n      pop\n        /* \"#utility.yul\":21579:21580   */\n      dup3\n        /* \"#utility.yul\":21511:21577   */\n      0xffffffffffffffffffffffffffffffffffffffffffffffffffffffffffffffff\n        /* \"#utility.yul\":21507:21581   */\n      sub\n        /* \"#utility.yul\":21504:21505   */\n      dup3\n        /* \"#utility.yul\":21501:21582   */\n      gt\n        /* \"#utility.yul\":21498:21605   */\n      iszero\n      tag_794\n      jumpi\n        /* \"#utility.yul\":21585:21603   */\n      tag_795\n      tag_796\n      jump\t// in\n    tag_795:\n        /* \"#utility.yul\":21498:21605   */\n    tag_794:\n        /* \"#utility.yul\":21629:21630   */\n      dup3\n        /* \"#utility.yul\":21626:21627   */\n      dup3\n        /* \"#utility.yul\":21622:21631   */\n      add\n        /* \"#utility.yul\":21615:21631   */\n      swap1\n      pop\n        /* \"#utility.yul\":21332:21637   */\n      swap3\n      swap2\n      pop\n      pop\n      jump\t// out\n        /* \"#utility.yul\":21643:21834   */\n    tag_144:\n        /* \"#utility.yul\":21683:21687   */\n      0x00\n        /* \"#utility.yul\":21703:21723   */\n      tag_798\n        /* \"#utility.yul\":21721:21722   */\n      dup3\n        /* \"#utility.yul\":21703:21723   */\n      tag_724\n      jump\t// in\n    tag_798:\n        /* \"#utility.yul\":21698:21723   */\n      swap2\n      pop\n        /* \"#utility.yul\":21737:21757   */\n      tag_799\n        /* \"#utility.yul\":21755:21756   */\n      dup4\n        /* \"#utility.yul\":21737:21757   */\n      tag_724\n      jump\t// in\n    tag_799:\n        /* \"#utility.yul\":21732:21757   */\n      swap3\n      pop\n        /* \"#utility.yul\":21776:21777   */\n      dup3\n        /* \"#utility.yul\":21773:21774   */\n      dup3\n        /* \"#utility.yul\":21770:21778   */\n      lt\n        /* \"#utility.yul\":21767:21801   */\n      iszero\n      tag_800\n      jumpi\n        /* \"#utility.yul\":21781:21799   */\n      tag_801\n      tag_796\n      jump\t// in\n    tag_801:\n        /* \"#utility.yul\":21767:21801   */\n    tag_800:\n        /* \"#utility.yul\":21826:21827   */\n      dup3\n        /* \"#utility.yul\":21823:21824   */\n      dup3\n        /* \"#utility.yul\":21819:21828   */\n      sub\n        /* \"#utility.yul\":21811:21828   */\n      swap1\n      pop\n        /* \"#utility.yul\":21643:21834   */\n      swap3\n      swap2\n      pop\n      pop\n      jump\t// out\n        /* \"#utility.yul\":21840:21936   */\n    tag_642:\n        /* \"#utility.yul\":21877:21884   */\n      0x00\n        /* \"#utility.yul\":21906:21930   */\n      tag_803\n        /* \"#utility.yul\":21924:21929   */\n      dup3\n        /* \"#utility.yul\":21906:21930   */\n      tag_804\n      jump\t// in\n    tag_803:\n        /* \"#utility.yul\":21895:21930   */\n      swap1\n      pop\n        /* \"#utility.yul\":21840:21936   */\n      swap2\n      swap1\n      pop\n      jump\t// out\n        /* \"#utility.yul\":21942:22032   */\n    tag_646:\n        /* \"#utility.yul\":21976:21983   */\n      0x00\n        /* \"#utility.yul\":22019:22024   */\n      dup2\n        /* \"#utility.yul\":22012:22025   */\n      iszero\n        /* \"#utility.yul\":22005:22026   */\n      iszero\n        /* \"#utility.yul\":21994:22026   */\n      swap1\n      pop\n        /* \"#utility.yul\":21942:22032   */\n      swap2\n      swap1\n      pop\n      jump\t// out\n        /* \"#utility.yul\":22038:22181   */\n    tag_806:\n        /* \"#utility.yul\":22091:22098   */\n      0x00\n        /* \"#utility.yul\":22120:22125   */\n      dup2\n        /* \"#utility.yul\":22109:22125   */\n      swap1\n      pop\n        /* \"#utility.yul\":22126:22175   */\n      tag_808\n        /* \"#utility.yul\":22169:22174   */\n      dup3\n        /* \"#utility.yul\":22126:22175   */\n      tag_809\n      jump\t// in\n    tag_808:\n        /* \"#utility.yul\":22038:22181   */\n      swap2\n      swap1\n      pop\n      jump\t// out\n        /* \"#utility.yul\":22187:22313   */\n    tag_804:\n        /* \"#utility.yul\":22224:22231   */\n      0x00\n        /* \"#utility.yul\":22264:22306   */\n      0xffffffffffffffffffffffffffffffffffffffff\n        /* \"#utility.yul\":22257:22262   */\n      dup3\n        /* \"#utility.yul\":22253:22307   */\n      and\n        /* \"#utility.yul\":22242:22307   */\n      swap1\n      pop\n        /* \"#utility.yul\":22187:22313   */\n      swap2\n      swap1\n      pop\n      jump\t// out\n        /* \"#utility.yul\":22319:22396   */\n    tag_724:\n        /* \"#utility.yul\":22356:22363   */\n      0x00\n        /* \"#utility.yul\":22385:22390   */\n      dup2\n        /* \"#utility.yul\":22374:22390   */\n      swap1\n      pop\n        /* \"#utility.yul\":22319:22396   */\n      swap2\n      swap1\n      pop\n      jump\t// out\n        /* \"#utility.yul\":22402:22488   */\n    tag_812:\n        /* \"#utility.yul\":22437:22444   */\n      0x00\n        /* \"#utility.yul\":22477:22481   */\n      0xff\n        /* \"#utility.yul\":22470:22475   */\n      dup3\n        /* \"#utility.yul\":22466:22482   */\n      and\n        /* \"#utility.yul\":22455:22482   */\n      swap1\n      pop\n        /* \"#utility.yul\":22402:22488   */\n      swap2\n      swap1\n      pop\n      jump\t// out\n        /* \"#utility.yul\":22494:22637   */\n    tag_650:\n        /* \"#utility.yul\":22558:22567   */\n      0x00\n        /* \"#utility.yul\":22591:22631   */\n      tag_815\n        /* \"#utility.yul\":22625:22630   */\n      dup3\n        /* \"#utility.yul\":22591:22631   */\n      tag_806\n      jump\t// in\n    tag_815:\n        /* \"#utility.yul\":22578:22631   */\n      swap1\n      pop\n        /* \"#utility.yul\":22494:22637   */\n      swap2\n      swap1\n      pop\n      jump\t// out\n        /* \"#utility.yul\":22643:22797   */\n    tag_564:\n        /* \"#utility.yul\":22727:22733   */\n      dup3\n        /* \"#utility.yul\":22722:22725   */\n      dup2\n        /* \"#utility.yul\":22717:22720   */\n      dup4\n        /* \"#utility.yul\":22704:22734   */\n      calldatacopy\n        /* \"#utility.yul\":22789:22790   */\n      0x00\n        /* \"#utility.yul\":22780:22786   */\n      dup4\n        /* \"#utility.yul\":22775:22778   */\n      dup4\n        /* \"#utility.yul\":22771:22787   */\n      add\n        /* \"#utility.yul\":22764:22791   */\n      mstore\n        /* \"#utility.yul\":22643:22797   */\n      pop\n      pop\n      pop\n      jump\t// out\n        /* \"#utility.yul\":22803:23110   */\n    tag_658:\n        /* \"#utility.yul\":22871:22872   */\n      0x00\n        /* \"#utility.yul\":22881:22994   */\n    tag_818:\n        /* \"#utility.yul\":22895:22901   */\n      dup4\n        /* \"#utility.yul\":22892:22893   */\n      dup2\n        /* \"#utility.yul\":22889:22902   */\n      lt\n        /* \"#utility.yul\":22881:22994   */\n      iszero\n      tag_820\n      jumpi\n        /* \"#utility.yul\":22980:22981   */\n      dup1\n        /* \"#utility.yul\":22975:22978   */\n      dup3\n        /* \"#utility.yul\":22971:22982   */\n      add\n        /* \"#utility.yul\":22965:22983   */\n      mload\n        /* \"#utility.yul\":22961:22962   */\n      dup2\n        /* \"#utility.yul\":22956:22959   */\n      dup5\n        /* \"#utility.yul\":22952:22963   */\n      add\n        /* \"#utility.yul\":22945:22984   */\n      mstore\n        /* \"#utility.yul\":22917:22919   */\n      0x20\n        /* \"#utility.yul\":22914:22915   */\n      dup2\n        /* \"#utility.yul\":22910:22920   */\n      add\n        /* \"#utility.yul\":22905:22920   */\n      swap1\n      pop\n        /* \"#utility.yul\":22881:22994   */\n      jump(tag_818)\n    tag_820:\n        /* \"#utility.yul\":23012:23018   */\n      dup4\n        /* \"#utility.yul\":23009:23010   */\n      dup2\n        /* \"#utility.yul\":23006:23019   */\n      gt\n        /* \"#utility.yul\":23003:23104   */\n      iszero\n      tag_821\n      jumpi\n        /* \"#utility.yul\":23092:23093   */\n      0x00\n        /* \"#utility.yul\":23083:23089   */\n      dup5\n        /* \"#utility.yul\":23078:23081   */\n      dup5\n        /* \"#utility.yul\":23074:23090   */\n      add\n        /* \"#utility.yul\":23067:23094   */\n      mstore\n        /* \"#utility.yul\":23003:23104   */\n    tag_821:\n        /* \"#utility.yul\":22852:23110   */\n      pop\n        /* \"#utility.yul\":22803:23110   */\n      pop\n      pop\n      pop\n      jump\t// out\n        /* \"#utility.yul\":23116:23436   */\n    tag_106:\n        /* \"#utility.yul\":23160:23166   */\n      0x00\n        /* \"#utility.yul\":23197:23198   */\n      0x02\n        /* \"#utility.yul\":23191:23195   */\n      dup3\n        /* \"#utility.yul\":23187:23199   */\n      div\n        /* \"#utility.yul\":23177:23199   */\n      swap1\n      pop\n        /* \"#utility.yul\":23244:23245   */\n      0x01\n        /* \"#utility.yul\":23238:23242   */\n      dup3\n        /* \"#utility.yul\":23234:23246   */\n      and\n        /* \"#utility.yul\":23265:23283   */\n      dup1\n        /* \"#utility.yul\":23255:23336   */\n      tag_823\n      jumpi\n        /* \"#utility.yul\":23321:23325   */\n      0x7f\n        /* \"#utility.yul\":23313:23319   */\n      dup3\n        /* \"#utility.yul\":23309:23326   */\n      and\n        /* \"#utility.yul\":23299:23326   */\n      swap2\n      pop\n        /* \"#utility.yul\":23255:23336   */\n    tag_823:\n        /* \"#utility.yul\":23383:23385   */\n      0x20\n        /* \"#utility.yul\":23375:23381   */\n      dup3\n        /* \"#utility.yul\":23372:23386   */\n      lt\n        /* \"#utility.yul\":23352:23370   */\n      dup2\n        /* \"#utility.yul\":23349:23387   */\n      eq\n        /* \"#utility.yul\":23346:23430   */\n      iszero\n      tag_824\n      jumpi\n        /* \"#utility.yul\":23402:23420   */\n      tag_825\n      tag_826\n      jump\t// in\n    tag_825:\n        /* \"#utility.yul\":23346:23430   */\n    tag_824:\n        /* \"#utility.yul\":23167:23436   */\n      pop\n        /* \"#utility.yul\":23116:23436   */\n      swap2\n      swap1\n      pop\n      jump\t// out\n        /* \"#utility.yul\":23442:23723   */\n    tag_782:\n        /* \"#utility.yul\":23525:23552   */\n      tag_828\n        /* \"#utility.yul\":23547:23551   */\n      dup3\n        /* \"#utility.yul\":23525:23552   */\n      tag_660\n      jump\t// in\n    tag_828:\n        /* \"#utility.yul\":23517:23523   */\n      dup2\n        /* \"#utility.yul\":23513:23553   */\n      add\n        /* \"#utility.yul\":23655:23661   */\n      dup2\n        /* \"#utility.yul\":23643:23653   */\n      dup2\n        /* \"#utility.yul\":23640:23662   */\n      lt\n        /* \"#utility.yul\":23619:23637   */\n      0xffffffffffffffff\n        /* \"#utility.yul\":23607:23617   */\n      dup3\n        /* \"#utility.yul\":23604:23638   */\n      gt\n        /* \"#utility.yul\":23601:23663   */\n      or\n        /* \"#utility.yul\":23598:23686   */\n      iszero\n      tag_829\n      jumpi\n        /* \"#utility.yul\":23666:23684   */\n      tag_830\n      tag_787\n      jump\t// in\n    tag_830:\n        /* \"#utility.yul\":23598:23686   */\n    tag_829:\n        /* \"#utility.yul\":23706:23716   */\n      dup1\n        /* \"#utility.yul\":23702:23704   */\n      0x40\n        /* \"#utility.yul\":23695:23717   */\n      mstore\n        /* \"#utility.yul\":23485:23723   */\n      pop\n        /* \"#utility.yul\":23442:23723   */\n      pop\n      pop\n      jump\t// out\n        /* \"#utility.yul\":23729:23962   */\n    tag_146:\n        /* \"#utility.yul\":23768:23771   */\n      0x00\n        /* \"#utility.yul\":23791:23815   */\n      tag_832\n        /* \"#utility.yul\":23809:23814   */\n      dup3\n        /* \"#utility.yul\":23791:23815   */\n      tag_724\n      jump\t// in\n    tag_832:\n        /* \"#utility.yul\":23782:23815   */\n      swap2\n      pop\n        /* \"#utility.yul\":23837:23903   */\n      0xffffffffffffffffffffffffffffffffffffffffffffffffffffffffffffffff\n        /* \"#utility.yul\":23830:23835   */\n      dup3\n        /* \"#utility.yul\":23827:23904   */\n      eq\n        /* \"#utility.yul\":23824:23927   */\n      iszero\n      tag_833\n      jumpi\n        /* \"#utility.yul\":23907:23925   */\n      tag_834\n      tag_796\n      jump\t// in\n    tag_834:\n        /* \"#utility.yul\":23824:23927   */\n    tag_833:\n        /* \"#utility.yul\":23954:23955   */\n      0x01\n        /* \"#utility.yul\":23947:23952   */\n      dup3\n        /* \"#utility.yul\":23943:23956   */\n      add\n        /* \"#utility.yul\":23936:23956   */\n      swap1\n      pop\n        /* \"#utility.yul\":23729:23962   */\n      swap2\n      swap1\n      pop\n      jump\t// out\n        /* \"#utility.yul\":23968:24148   */\n    tag_796:\n        /* \"#utility.yul\":24016:24093   */\n      0x4e487b7100000000000000000000000000000000000000000000000000000000\n        /* \"#utility.yul\":24013:24014   */\n      0x00\n        /* \"#utility.yul\":24006:24094   */\n      mstore\n        /* \"#utility.yul\":24113:24117   */\n      0x11\n        /* \"#utility.yul\":24110:24111   */\n      0x04\n        /* \"#utility.yul\":24103:24118   */\n      mstore\n        /* \"#utility.yul\":24137:24141   */\n      0x24\n        /* \"#utility.yul\":24134:24135   */\n      0x00\n        /* \"#utility.yul\":24127:24142   */\n      revert\n        /* \"#utility.yul\":24154:24334   */\n    tag_155:\n        /* \"#utility.yul\":24202:24279   */\n      0x4e487b7100000000000000000000000000000000000000000000000000000000\n        /* \"#utility.yul\":24199:24200   */\n      0x00\n        /* \"#utility.yul\":24192:24280   */\n      mstore\n        /* \"#utility.yul\":24299:24303   */\n      0x21\n        /* \"#utility.yul\":24296:24297   */\n      0x04\n        /* \"#utility.yul\":24289:24304   */\n      mstore\n        /* \"#utility.yul\":24323:24327   */\n      0x24\n        /* \"#utility.yul\":24320:24321   */\n      0x00\n        /* \"#utility.yul\":24313:24328   */\n      revert\n        /* \"#utility.yul\":24340:24520   */\n    tag_826:\n        /* \"#utility.yul\":24388:24465   */\n      0x4e487b7100000000000000000000000000000000000000000000000000000000\n        /* \"#utility.yul\":24385:24386   */\n      0x00\n        /* \"#utility.yul\":24378:24466   */\n      mstore\n        /* \"#utility.yul\":24485:24489   */\n      0x22\n        /* \"#utility.yul\":24482:24483   */\n      0x04\n        /* \"#utility.yul\":24475:24490   */\n      mstore\n        /* \"#utility.yul\":24509:24513   */\n      0x24\n        /* \"#utility.yul\":24506:24507   */\n      0x00\n        /* \"#utility.yul\":24499:24514   */\n      revert\n        /* \"#utility.yul\":24526:24706   */\n    tag_128:\n        /* \"#utility.yul\":24574:24651   */\n      0x4e487b7100000000000000000000000000000000000000000000000000000000\n        /* \"#utility.yul\":24571:24572   */\n      0x00\n        /* \"#utility.yul\":24564:24652   */\n      mstore\n        /* \"#utility.yul\":24671:24675   */\n      0x32\n        /* \"#utility.yul\":24668:24669   */\n      0x04\n        /* \"#utility.yul\":24661:24676   */\n      mstore\n        /* \"#utility.yul\":24695:24699   */\n      0x24\n        /* \"#utility.yul\":24692:24693   */\n      0x00\n        /* \"#utility.yul\":24685:24700   */\n      revert\n        /* \"#utility.yul\":24712:24892   */\n    tag_787:\n        /* \"#utility.yul\":24760:24837   */\n      0x4e487b7100000000000000000000000000000000000000000000000000000000\n        /* \"#utility.yul\":24757:24758   */\n      0x00\n        /* \"#utility.yul\":24750:24838   */\n      mstore\n        /* \"#utility.yul\":24857:24861   */\n      0x41\n        /* \"#utility.yul\":24854:24855   */\n      0x04\n        /* \"#utility.yul\":24847:24862   */\n      mstore\n        /* \"#utility.yul\":24881:24885   */\n      0x24\n        /* \"#utility.yul\":24878:24879   */\n      0x00\n        /* \"#utility.yul\":24871:24886   */\n      revert\n        /* \"#utility.yul\":24898:25015   */\n    tag_577:\n        /* \"#utility.yul\":25007:25008   */\n      0x00\n        /* \"#utility.yul\":25004:25005   */\n      dup1\n        /* \"#utility.yul\":24997:25009   */\n      revert\n        /* \"#utility.yul\":25021:25138   */\n    tag_562:\n        /* \"#utility.yul\":25130:25131   */\n      0x00\n        /* \"#utility.yul\":25127:25128   */\n      dup1\n        /* \"#utility.yul\":25120:25132   */\n      revert\n        /* \"#utility.yul\":25144:25261   */\n    tag_602:\n        /* \"#utility.yul\":25253:25254   */\n      0x00\n        /* \"#utility.yul\":25250:25251   */\n      dup1\n        /* \"#utility.yul\":25243:25255   */\n      revert\n        /* \"#utility.yul\":25267:25384   */\n    tag_590:\n        /* \"#utility.yul\":25376:25377   */\n      0x00\n        /* \"#utility.yul\":25373:25374   */\n      dup1\n        /* \"#utility.yul\":25366:25378   */\n      revert\n        /* \"#utility.yul\":25390:25492   */\n    tag_660:\n        /* \"#utility.yul\":25431:25437   */\n      0x00\n        /* \"#utility.yul\":25482:25484   */\n      0x1f\n        /* \"#utility.yul\":25478:25485   */\n      not\n        /* \"#utility.yul\":25473:25475   */\n      0x1f\n        /* \"#utility.yul\":25466:25471   */\n      dup4\n        /* \"#utility.yul\":25462:25476   */\n      add\n        /* \"#utility.yul\":25458:25486   */\n      and\n        /* \"#utility.yul\":25448:25486   */\n      swap1\n      pop\n        /* \"#utility.yul\":25390:25492   */\n      swap2\n      swap1\n      pop\n      jump\t// out\n        /* \"#utility.yul\":25498:25665   */\n    tag_665:\n        /* \"#utility.yul\":25638:25657   */\n      0x43686172697479206e6f7420666f756e64000000000000000000000000000000\n        /* \"#utility.yul\":25634:25635   */\n      0x00\n        /* \"#utility.yul\":25626:25632   */\n      dup3\n        /* \"#utility.yul\":25622:25636   */\n      add\n        /* \"#utility.yul\":25615:25658   */\n      mstore\n        /* \"#utility.yul\":25498:25665   */\n      pop\n      jump\t// out\n        /* \"#utility.yul\":25671:25898   */\n    tag_670:\n        /* \"#utility.yul\":25811:25845   */\n      0x596f7520686176656e277420636f6e747269627574656420666f722074686973\n        /* \"#utility.yul\":25807:25808   */\n      0x00\n        /* \"#utility.yul\":25799:25805   */\n      dup3\n        /* \"#utility.yul\":25795:25809   */\n      add\n        /* \"#utility.yul\":25788:25846   */\n      mstore\n        /* \"#utility.yul\":25880:25890   */\n      0x2070726f6a656374000000000000000000000000000000000000000000000000\n        /* \"#utility.yul\":25875:25877   */\n      0x20\n        /* \"#utility.yul\":25867:25873   */\n      dup3\n        /* \"#utility.yul\":25863:25878   */\n      add\n        /* \"#utility.yul\":25856:25891   */\n      mstore\n        /* \"#utility.yul\":25671:25898   */\n      pop\n      jump\t// out\n        /* \"#utility.yul\":25904:26128   */\n    tag_675:\n        /* \"#utility.yul\":26044:26078   */\n      0x53686f756c642062652067726561746572207468616e206d696e696d756d2061\n        /* \"#utility.yul\":26040:26041   */\n      0x00\n        /* \"#utility.yul\":26032:26038   */\n      dup3\n        /* \"#utility.yul\":26028:26042   */\n      add\n        /* \"#utility.yul\":26021:26079   */\n      mstore\n        /* \"#utility.yul\":26113:26120   */\n      0x6d6f756e74000000000000000000000000000000000000000000000000000000\n        /* \"#utility.yul\":26108:26110   */\n      0x20\n        /* \"#utility.yul\":26100:26106   */\n      dup3\n        /* \"#utility.yul\":26096:26111   */\n      add\n        /* \"#utility.yul\":26089:26121   */\n      mstore\n        /* \"#utility.yul\":25904:26128   */\n      pop\n      jump\t// out\n        /* \"#utility.yul\":26134:26423   */\n    tag_680:\n        /* \"#utility.yul\":26274:26308   */\n      0x43616e277420726566756e642061732065786368616e67652072657175657374\n        /* \"#utility.yul\":26270:26271   */\n      0x00\n        /* \"#utility.yul\":26262:26268   */\n      dup3\n        /* \"#utility.yul\":26258:26272   */\n      add\n        /* \"#utility.yul\":26251:26309   */\n      mstore\n        /* \"#utility.yul\":26343:26377   */\n      0x2077617320616c726561647920696e69746961746564207769746820626f6172\n        /* \"#utility.yul\":26338:26340   */\n      0x20\n        /* \"#utility.yul\":26330:26336   */\n      dup3\n        /* \"#utility.yul\":26326:26341   */\n      add\n        /* \"#utility.yul\":26319:26378   */\n      mstore\n        /* \"#utility.yul\":26412:26415   */\n      0x6400000000000000000000000000000000000000000000000000000000000000\n        /* \"#utility.yul\":26407:26409   */\n      0x40\n        /* \"#utility.yul\":26399:26405   */\n      dup3\n        /* \"#utility.yul\":26395:26410   */\n      add\n        /* \"#utility.yul\":26388:26416   */\n      mstore\n        /* \"#utility.yul\":26134:26423   */\n      pop\n      jump\t// out\n        /* \"#utility.yul\":26429:26678   */\n    tag_685:\n        /* \"#utility.yul\":26569:26603   */\n      0x43616e277420726566756e642061732065786368616e67652072657175657374\n        /* \"#utility.yul\":26565:26566   */\n      0x00\n        /* \"#utility.yul\":26557:26563   */\n      dup3\n        /* \"#utility.yul\":26553:26567   */\n      add\n        /* \"#utility.yul\":26546:26604   */\n      mstore\n        /* \"#utility.yul\":26638:26670   */\n      0x20776173206e6f742072656a65637465642062792074686520626f6172640000\n        /* \"#utility.yul\":26633:26635   */\n      0x20\n        /* \"#utility.yul\":26625:26631   */\n      dup3\n        /* \"#utility.yul\":26621:26636   */\n      add\n        /* \"#utility.yul\":26614:26671   */\n      mstore\n        /* \"#utility.yul\":26429:26678   */\n      pop\n      jump\t// out\n        /* \"#utility.yul\":26684:26855   */\n    tag_690:\n        /* \"#utility.yul\":26824:26847   */\n      0x50726f6a65637420646f65736e27742065786973740000000000000000000000\n        /* \"#utility.yul\":26820:26821   */\n      0x00\n        /* \"#utility.yul\":26812:26818   */\n      dup3\n        /* \"#utility.yul\":26808:26822   */\n      add\n        /* \"#utility.yul\":26801:26848   */\n      mstore\n        /* \"#utility.yul\":26684:26855   */\n      pop\n      jump\t// out\n        /* \"#utility.yul\":26861:27038   */\n    tag_695:\n        /* \"#utility.yul\":27001:27030   */\n      0x43686172697479206973206e6f742079657420617070726f7665640000000000\n        /* \"#utility.yul\":26997:26998   */\n      0x00\n        /* \"#utility.yul\":26989:26995   */\n      dup3\n        /* \"#utility.yul\":26985:26999   */\n      add\n        /* \"#utility.yul\":26978:27031   */\n      mstore\n        /* \"#utility.yul\":26861:27038   */\n      pop\n      jump\t// out\n        /* \"#utility.yul\":27044:27266   */\n    tag_700:\n        /* \"#utility.yul\":27184:27218   */\n      0x4e6f2070726f6a65637420657869737420756e64657220746869732063686172\n        /* \"#utility.yul\":27180:27181   */\n      0x00\n        /* \"#utility.yul\":27172:27178   */\n      dup3\n        /* \"#utility.yul\":27168:27182   */\n      add\n        /* \"#utility.yul\":27161:27219   */\n      mstore\n        /* \"#utility.yul\":27253:27258   */\n      0x6974790000000000000000000000000000000000000000000000000000000000\n        /* \"#utility.yul\":27248:27250   */\n      0x20\n        /* \"#utility.yul\":27240:27246   */\n      dup3\n        /* \"#utility.yul\":27236:27251   */\n      add\n        /* \"#utility.yul\":27229:27259   */\n      mstore\n        /* \"#utility.yul\":27044:27266   */\n      pop\n      jump\t// out\n        /* \"#utility.yul\":27272:27443   */\n    tag_705:\n        /* \"#utility.yul\":27412:27435   */\n      0x4368617269747920646f65736e27742065786973740000000000000000000000\n        /* \"#utility.yul\":27408:27409   */\n      0x00\n        /* \"#utility.yul\":27400:27406   */\n      dup3\n        /* \"#utility.yul\":27396:27410   */\n      add\n        /* \"#utility.yul\":27389:27436   */\n      mstore\n        /* \"#utility.yul\":27272:27443   */\n      pop\n      jump\t// out\n        /* \"#utility.yul\":27449:27673   */\n    tag_710:\n        /* \"#utility.yul\":27589:27623   */\n      0x4e6f2070726f6a65637420657869737420756e64657220746869732070726f6a\n        /* \"#utility.yul\":27585:27586   */\n      0x00\n        /* \"#utility.yul\":27577:27583   */\n      dup3\n        /* \"#utility.yul\":27573:27587   */\n      add\n        /* \"#utility.yul\":27566:27624   */\n      mstore\n        /* \"#utility.yul\":27658:27665   */\n      0x6563744964000000000000000000000000000000000000000000000000000000\n        /* \"#utility.yul\":27653:27655   */\n      0x20\n        /* \"#utility.yul\":27645:27651   */\n      dup3\n        /* \"#utility.yul\":27641:27656   */\n      add\n        /* \"#utility.yul\":27634:27666   */\n      mstore\n        /* \"#utility.yul\":27449:27673   */\n      pop\n      jump\t// out\n        /* \"#utility.yul\":27679:27906   */\n    tag_715:\n        /* \"#utility.yul\":27819:27853   */\n      0x4e6f20737563682070726f6a65637420657869737420756e6465722074686973\n        /* \"#utility.yul\":27815:27816   */\n      0x00\n        /* \"#utility.yul\":27807:27813   */\n      dup3\n        /* \"#utility.yul\":27803:27817   */\n      add\n        /* \"#utility.yul\":27796:27854   */\n      mstore\n        /* \"#utility.yul\":27888:27898   */\n      0x2063686172697479000000000000000000000000000000000000000000000000\n        /* \"#utility.yul\":27883:27885   */\n      0x20\n        /* \"#utility.yul\":27875:27881   */\n      dup3\n        /* \"#utility.yul\":27871:27886   */\n      add\n        /* \"#utility.yul\":27864:27899   */\n      mstore\n        /* \"#utility.yul\":27679:27906   */\n      pop\n      jump\t// out\n        /* \"#utility.yul\":27912:28143   */\n    tag_720:\n        /* \"#utility.yul\":28052:28086   */\n      0x4e6f206d6f726520646f6e6174696f6e7320616363657074656420666f722074\n        /* \"#utility.yul\":28048:28049   */\n      0x00\n        /* \"#utility.yul\":28040:28046   */\n      dup3\n        /* \"#utility.yul\":28036:28050   */\n      add\n        /* \"#utility.yul\":28029:28087   */\n      mstore\n        /* \"#utility.yul\":28121:28135   */\n      0x6869732070726f6a6563742e0000000000000000000000000000000000000000\n        /* \"#utility.yul\":28116:28118   */\n      0x20\n        /* \"#utility.yul\":28108:28114   */\n      dup3\n        /* \"#utility.yul\":28104:28119   */\n      add\n        /* \"#utility.yul\":28097:28136   */\n      mstore\n        /* \"#utility.yul\":27912:28143   */\n      pop\n      jump\t// out\n        /* \"#utility.yul\":28149:28271   */\n    tag_809:\n        /* \"#utility.yul\":28238:28240   */\n      0x0a\n        /* \"#utility.yul\":28231:28236   */\n      dup2\n        /* \"#utility.yul\":28228:28241   */\n      lt\n        /* \"#utility.yul\":28218:28265   */\n      tag_858\n      jumpi\n        /* \"#utility.yul\":28245:28263   */\n      tag_859\n      tag_155\n      jump\t// in\n    tag_859:\n        /* \"#utility.yul\":28218:28265   */\n    tag_858:\n        /* \"#utility.yul\":28149:28271   */\n      pop\n      jump\t// out\n        /* \"#utility.yul\":28277:28399   */\n    tag_568:\n        /* \"#utility.yul\":28350:28374   */\n      tag_861\n        /* \"#utility.yul\":28368:28373   */\n      dup2\n        /* \"#utility.yul\":28350:28374   */\n      tag_642\n      jump\t// in\n    tag_861:\n        /* \"#utility.yul\":28343:28348   */\n      dup2\n        /* \"#utility.yul\":28340:28375   */\n      eq\n        /* \"#utility.yul\":28330:28393   */\n      tag_862\n      jumpi\n        /* \"#utility.yul\":28389:28390   */\n      0x00\n        /* \"#utility.yul\":28386:28387   */\n      dup1\n        /* \"#utility.yul\":28379:28391   */\n      revert\n        /* \"#utility.yul\":28330:28393   */\n    tag_862:\n        /* \"#utility.yul\":28277:28399   */\n      pop\n      jump\t// out\n        /* \"#utility.yul\":28405:28521   */\n    tag_572:\n        /* \"#utility.yul\":28494:28496   */\n      0x0a\n        /* \"#utility.yul\":28487:28492   */\n      dup2\n        /* \"#utility.yul\":28484:28497   */\n      lt\n        /* \"#utility.yul\":28474:28515   */\n      tag_864\n      jumpi\n        /* \"#utility.yul\":28511:28512   */\n      0x00\n        /* \"#utility.yul\":28508:28509   */\n      dup1\n        /* \"#utility.yul\":28501:28513   */\n      revert\n        /* \"#utility.yul\":28474:28515   */\n    tag_864:\n        /* \"#utility.yul\":28405:28521   */\n      pop\n      jump\t// out\n        /* \"#utility.yul\":28527:28649   */\n    tag_582:\n        /* \"#utility.yul\":28600:28624   */\n      tag_866\n        /* \"#utility.yul\":28618:28623   */\n      dup2\n        /* \"#utility.yul\":28600:28624   */\n      tag_724\n      jump\t// in\n    tag_866:\n        /* \"#utility.yul\":28593:28598   */\n      dup2\n        /* \"#utility.yul\":28590:28625   */\n      eq\n        /* \"#utility.yul\":28580:28643   */\n      tag_867\n      jumpi\n        /* \"#utility.yul\":28639:28640   */\n      0x00\n        /* \"#utility.yul\":28636:28637   */\n      dup1\n        /* \"#utility.yul\":28629:28641   */\n      revert\n        /* \"#utility.yul\":28580:28643   */\n    tag_867:\n        /* \"#utility.yul\":28527:28649   */\n      pop\n      jump\t// out\n        /* \"#utility.yul\":28655:28773   */\n    tag_586:\n        /* \"#utility.yul\":28726:28748   */\n      tag_869\n        /* \"#utility.yul\":28742:28747   */\n      dup2\n        /* \"#utility.yul\":28726:28748   */\n      tag_812\n      jump\t// in\n    tag_869:\n        /* \"#utility.yul\":28719:28724   */\n      dup2\n        /* \"#utility.yul\":28716:28749   */\n      eq\n        /* \"#utility.yul\":28706:28767   */\n      tag_870\n      jumpi\n        /* \"#utility.yul\":28763:28764   */\n      0x00\n        /* \"#utility.yul\":28760:28761   */\n      dup1\n        /* \"#utility.yul\":28753:28765   */\n      revert\n        /* \"#utility.yul\":28706:28767   */\n    tag_870:\n        /* \"#utility.yul\":28655:28773   */\n      pop\n      jump\t// out\n    stop\n    data_0fd57a96508da25173f82e6faabc4b077c36881e53dd1b21682a822e75096b01 54686973206f7065726174696f6e2063616e20626520706572666f726d6564206f6e6c7920627920426f6172642061646d696e\n    data_5c19b7ff1bcfb320392194574ccc24118e50bba13de42db0a22f05014bb7a7fa 596f7520617265206e6f7420617574686f72697a656420746f207570646174652077697468207468697320737461747573\n    data_ae7511c0e8221605b02a680fd07d0703f28d0f0f32c6884aaca3289d2fe90612 54686973206f7065726174696f6e2063616e20626520706572666f726d6564206f6e6c792062792043686172697479\n\n    auxdata: 0xa2646970667358221220db754656e809dae491bf67e1a77a0a3139c645e739ced833f6295b8781c0de9f64736f6c63430008070033\n}\n",
				"bytecode": {
					"linkReferences": {},
					"object": "60806040523480156200001157600080fd5b5033600260006101000a81548173ffffffffffffffffffffffffffffffffffffffff021916908373ffffffffffffffffffffffffffffffffffffffff1602179055506040518060400160405280601481526020017f57616974696e6720666f7220617070726f76616c00000000000000000000000081525060076000806009811115620000a357620000a2620006a1565b5b6009811115620000b857620000b7620006a1565b5b81526020019081526020016000209080519060200190620000db929190620005bb565b506040518060400160405280600881526020017f417070726f76656400000000000000000000000000000000000000000000000081525060076000600260098111156200012d576200012c620006a1565b5b6009811115620001425762000141620006a1565b5b8152602001908152602001600020908051906020019062000165929190620005bb565b506040518060400160405280601381526020017f52656a65637465642062792063686172697479000000000000000000000000008152506007600060016009811115620001b757620001b6620006a1565b5b6009811115620001cc57620001cb620006a1565b5b81526020019081526020016000209080519060200190620001ef929190620005bb565b506040518060400160405280601581526020017f50726f6a65637420676f616c20616368696576656400000000000000000000008152506007600060036009811115620002415762000240620006a1565b5b6009811115620002565762000255620006a1565b5b8152602001908152602001600020908051906020019062000279929190620005bb565b506040518060400160405280601281526020017f45786368616e67652072657175657374656400000000000000000000000000008152506007600060046009811115620002cb57620002ca620006a1565b5b6009811115620002e057620002df620006a1565b5b8152602001908152602001600020908051906020019062000303929190620005bb565b506040518060400160405280601981526020017f45786368616e67652072657175657374207265636569766564000000000000008152506007600060056009811115620003555762000354620006a1565b5b60098111156200036a5762000369620006a1565b5b815260200190815260200160002090805190602001906200038d929190620005bb565b506040518060400160405280601981526020017f45786368616e6765207265717565737420617070726f766564000000000000008152506007600060066009811115620003df57620003de620006a1565b5b6009811115620003f457620003f3620006a1565b5b8152602001908152602001600020908051906020019062000417929190620005bb565b506040518060400160405280601981526020017f45786368616e676520726571756573742072656a6563746564000000000000008152506007600060076009811115620004695762000468620006a1565b5b60098111156200047e576200047d620006a1565b5b81526020019081526020016000209080519060200190620004a1929190620005bb565b506040518060400160405280600e81526020017f46756e647320726566756e6465640000000000000000000000000000000000008152506007600060086009811115620004f357620004f2620006a1565b5b6009811115620005085762000507620006a1565b5b815260200190815260200160002090805190602001906200052b929190620005bb565b506040518060400160405280600e81526020017f50726f6a65637420636c6f736564000000000000000000000000000000000000815250600760006009808111156200057c576200057b620006a1565b5b6009811115620005915762000590620006a1565b5b81526020019081526020016000209080519060200190620005b4929190620005bb565b50620006ff565b828054620005c9906200066b565b90600052602060002090601f016020900481019282620005ed576000855562000639565b82601f106200060857805160ff191683800117855562000639565b8280016001018555821562000639579182015b82811115620006385782518255916020019190600101906200061b565b5b5090506200064891906200064c565b5090565b5b80821115620006675760008160009055506001016200064d565b5090565b600060028204905060018216806200068457607f821691505b602082108114156200069b576200069a620006d0565b5b50919050565b7f4e487b7100000000000000000000000000000000000000000000000000000000600052602160045260246000fd5b7f4e487b7100000000000000000000000000000000000000000000000000000000600052602260045260246000fd5b613b08806200070f6000396000f3fe6080604052600436106100f35760003560e01c806397ed410c1161008a578063daf3823211610059578063daf382321461032d578063ef6add3214610356578063ef88f48b14610393578063fb709d2e146103af576100f3565b806397ed410c146102735780639d8e7e891461029c578063b0ca4af5146102d9578063b61a7f7614610302576100f3565b80632c3730ef116100c65780632c3730ef146101cf5780633a8565f0146101f857806385fa74bc1461022157806395dcc3661461024a576100f3565b8063107046bd146100f8578063141020cc1461013c5780631ab33308146101655780631ed056d814610190575b600080fd5b34801561010457600080fd5b5061011f600480360381019061011a9190612b66565b6103f0565b60405161013398979695949392919061329b565b60405180910390f35b34801561014857600080fd5b50610163600480360381019061015e9190612bef565b61050a565b005b34801561017157600080fd5b5061017a610714565b604051610187919061300f565b60405180910390f35b34801561019c57600080fd5b506101b760048036038101906101b29190612c5e565b610727565b6040516101c693929190613264565b60405180910390f35b3480156101db57600080fd5b506101f660048036038101906101f19190612d88565b6108c5565b005b34801561020457600080fd5b5061021f600480360381019061021a9190612d88565b610d5a565b005b34801561022d57600080fd5b5061024860048036038101906102439190612c5e565b611394565b005b34801561025657600080fd5b50610271600480360381019061026c9190612cf1565b611822565b005b34801561027f57600080fd5b5061029a60048036038101906102959190612c5e565b611bca565b005b3480156102a857600080fd5b506102c360048036038101906102be9190612c5e565b611cea565b6040516102d0919061302a565b60405180910390f35b3480156102e557600080fd5b5061030060048036038101906102fb9190612c5e565b611ed4565b005b34801561030e57600080fd5b5061031761216a565b6040516103249190612ff4565b60405180910390f35b34801561033957600080fd5b50610354600480360381019061034f9190612b93565b612190565b005b34801561036257600080fd5b5061037d60048036038101906103789190612b39565b61229d565b60405161038a919061302a565b60405180910390f35b6103ad60048036038101906103a89190612c9e565b61233d565b005b3480156103bb57600080fd5b506103d660048036038101906103d19190612b66565b61284f565b6040516103e79594939291906131cc565b60405180910390f35b6000818154811061040057600080fd5b90600052602060002090600702016000915090508060000154908060010154908060020154908060030154908060040160009054906101000a900473ffffffffffffffffffffffffffffffffffffffff16908060040160149054906101000a900460ff1690806005018054610474906134d8565b80601f01602080910402602001604051908101604052809291908181526020018280546104a0906134d8565b80156104ed5780601f106104c2576101008083540402835291602001916104ed565b820191906000526020600020905b8154815290600101906020018083116104d057829003601f168201915b5050505050908060060160009054906101000a900460ff16905088565b600260009054906101000a900473ffffffffffffffffffffffffffffffffffffffff1673ffffffffffffffffffffffffffffffffffffffff163373ffffffffffffffffffffffffffffffffffffffff1614604051806060016040528060338152602001613a4060339139906105b5576040517f08c379a00000000000000000000000000000000000000000000000000000000081526004016105ac919061302a565b60405180910390fd5b5060006040518060a001604052808581526020016001151581526020016040518060200160405280600081525081526020018481526020018373ffffffffffffffffffffffffffffffffffffffff16815250905060018190806001815401808255809150506001900390600052602060002090600502016000909190919091506000820151816000015560208201518160010160006101000a81548160ff021916908315150217905550604082015181600201908051906020019061067b9291906129d2565b5060608201518160030190805190602001906106989291906129d2565b5060808201518160040160006101000a81548173ffffffffffffffffffffffffffffffffffffffff021916908373ffffffffffffffffffffffffffffffffffffffff160217905550505060016004600086815260200190815260200160002060006101000a81548160ff02191690831515021790555050505050565b600660009054906101000a900460ff1681565b6000806000806003600087815260200190815260200160002090506000818054905011610789576040517f08c379a00000000000000000000000000000000000000000000000000000000081526004016107809061314c565b60405180910390fd5b60005b818054905081101561088257858282815481106107ac576107ab613611565b5b906000526020600020906007020160000154141561086f578181815481106107d7576107d6613611565b5b9060005260206000209060070201600201548282815481106107fc576107fb613611565b5b90600052602060002090600702016003015483838154811061082157610820613611565b5b90600052602060002090600702016003015484848154811061084657610845613611565b5b90600052602060002090600702016002015461086291906133e8565b94509450945050506108be565b808061087a9061353b565b91505061078c565b506040517f08c379a00000000000000000000000000000000000000000000000000000000081526004016108b59061318c565b60405180910390fd5b9250925092565b600260009054906101000a900473ffffffffffffffffffffffffffffffffffffffff1673ffffffffffffffffffffffffffffffffffffffff163373ffffffffffffffffffffffffffffffffffffffff1614604051806060016040528060338152602001613a406033913990610970576040517f08c379a0000000000000000000000000000000000000000000000000000000008152600401610967919061302a565b60405180910390fd5b5060006009811115610985576109846135b3565b5b8160ff16600981111561099b5761099a6135b3565b5b60098111156109ad576109ac6135b3565b5b1415604051806060016040528060318152602001613a736031913990610a09576040517f08c379a0000000000000000000000000000000000000000000000000000000008152600401610a00919061302a565b60405180910390fd5b5060026009811115610a1e57610a1d6135b3565b5b8160ff166009811115610a3457610a336135b3565b5b6009811115610a4657610a456135b3565b5b1415604051806060016040528060318152602001613a736031913990610aa2576040517f08c379a0000000000000000000000000000000000000000000000000000000008152600401610a99919061302a565b60405180910390fd5b5060036009811115610ab757610ab66135b3565b5b8160ff166009811115610acd57610acc6135b3565b5b6009811115610adf57610ade6135b3565b5b1415604051806060016040528060318152602001613a736031913990610b3b576040517f08c379a0000000000000000000000000000000000000000000000000000000008152600401610b32919061302a565b60405180910390fd5b5060046009811115610b5057610b4f6135b3565b5b8160ff166009811115610b6657610b656135b3565b5b6009811115610b7857610b776135b3565b5b1415604051806060016040528060318152602001613a736031913990610bd4576040517f08c379a0000000000000000000000000000000000000000000000000000000008152600401610bcb919061302a565b60405180910390fd5b5060006003600084815260200190815260200160002090506000818054905011610c33576040517f08c379a0000000000000000000000000000000000000000000000000000000008152600401610c2a9061312c565b60405180910390fd5b60005b8180549050811015610d535784828281548110610c5657610c55613611565b5b9060005260206000209060070201600001541415610d40578260ff166009811115610c8457610c836135b3565b5b828281548110610c9757610c96613611565b5b906000526020600020906007020160060160006101000a81548160ff02191690836009811115610cca57610cc96135b3565b5b02179055507f42b0281ef1ba120f08ae315789f8639d48731db33eaac502b629a775c997471b8486848481548110610d0557610d04613611565b5b906000526020600020906007020160060160009054906101000a900460ff16604051610d339392919061322d565b60405180910390a1610d53565b8080610d4b9061353b565b915050610c36565b5050505050565b600260009054906101000a900473ffffffffffffffffffffffffffffffffffffffff1673ffffffffffffffffffffffffffffffffffffffff163373ffffffffffffffffffffffffffffffffffffffff1614156040518060600160405280602f8152602001613aa4602f913990610e06576040517f08c379a0000000000000000000000000000000000000000000000000000000008152600401610dfd919061302a565b60405180910390fd5b50600060036009811115610e1d57610e1c6135b3565b5b8260ff166009811115610e3357610e326135b3565b5b6009811115610e4557610e446135b3565b5b1415604051806060016040528060318152602001613a736031913990610ea1576040517f08c379a0000000000000000000000000000000000000000000000000000000008152600401610e98919061302a565b60405180910390fd5b5060056009811115610eb657610eb56135b3565b5b8260ff166009811115610ecc57610ecb6135b3565b5b6009811115610ede57610edd6135b3565b5b1415604051806060016040528060318152602001613a736031913990610f3a576040517f08c379a0000000000000000000000000000000000000000000000000000000008152600401610f31919061302a565b60405180910390fd5b5060066009811115610f4f57610f4e6135b3565b5b8260ff166009811115610f6557610f646135b3565b5b6009811115610f7757610f766135b3565b5b1415604051806060016040528060318152602001613a736031913990610fd3576040517f08c379a0000000000000000000000000000000000000000000000000000000008152600401610fca919061302a565b60405180910390fd5b5060006003600085815260200190815260200160002090506000818054905011611032576040517f08c379a0000000000000000000000000000000000000000000000000000000008152600401611029906130ec565b60405180910390fd5b60005b818054905081101561138c578582828154811061105557611054613611565b5b906000526020600020906007020160000154141561136e5760019250600082828154811061108657611085613611565b5b906000526020600020906007020160040160146101000a81548160ff021916908315150217905550600760098111156110c2576110c16135b3565b5b8460ff1660098111156110d8576110d76135b3565b5b60098111156110ea576110e96135b3565b5b148061112f575060066009811115611105576111046135b3565b5b8460ff16600981111561111b5761111a6135b3565b5b600981111561112d5761112c6135b3565b5b145b1561128c577f2de098063448dbe8b26fa82794cd68cf748edb4f3e2cc43166e3ad659757019e85878660ff16600981111561116d5761116c6135b3565b5b60405161117c9392919061322d565b60405180910390a160076009811115611198576111976135b3565b5b8460ff1660098111156111ae576111ad6135b3565b5b60098111156111c0576111bf6135b3565b5b1415611207577fbd0e0cbb7f526d9c7052b56c5d1873ee7b834959cd785b696dd0f9d418d9617a858760086040516111fa9392919061322d565b60405180910390a1611287565b6006600981111561121b5761121a6135b3565b5b8460ff166009811115611231576112306135b3565b5b6009811115611243576112426135b3565b5b1415611286577fbd0e0cbb7f526d9c7052b56c5d1873ee7b834959cd785b696dd0f9d418d9617a8587600960405161127d9392919061322d565b60405180910390a15b5b61136d565b8360ff1660098111156112a2576112a16135b3565b5b8282815481106112b5576112b4613611565b5b906000526020600020906007020160060160006101000a81548160ff021916908360098111156112e8576112e76135b3565b5b021790555060046009811115611301576113006135b3565b5b8460ff166009811115611317576113166135b3565b5b6009811115611329576113286135b3565b5b141561136c577fd49fc9fa26fa9fc112efd004acb9eeabf80810373d2cbb1a7884d4d64e8e8d2b858760046040516113639392919061322d565b60405180910390a15b5b5b82156113795761138c565b80806113849061353b565b915050611035565b505050505050565b600080600060036000868152602001908152602001600020905060008180549050116113f5576040517f08c379a00000000000000000000000000000000000000000000000000000000081526004016113ec9061304c565b60405180910390fd5b600060056000868152602001908152602001600020905060005b81805490508110156117d9573373ffffffffffffffffffffffffffffffffffffffff1682828154811061144557611444613611565b5b906000526020600020906003020160010160009054906101000a900473ffffffffffffffffffffffffffffffffffffffff1673ffffffffffffffffffffffffffffffffffffffff161480156114cf575060008282815481106114aa576114a9613611565b5b9060005260206000209060030201600201600088815260200190815260200160002054115b156117c65760005b83805490508110156116c557868482815481106114f7576114f6613611565b5b90600052602060002090600702016000015414156116b25760036009811115611523576115226135b3565b5b84828154811061153657611535613611565b5b906000526020600020906007020160060160009054906101000a900460ff166009811115611567576115666135b3565b5b11156115a8576040517f08c379a000000000000000000000000000000000000000000000000000000000815260040161159f906130ac565b60405180910390fd5b8282815481106115bb576115ba613611565b5b90600052602060002090600302016002016000888152602001908152602001600020548482815481106115f1576115f0613611565b5b90600052602060002090600702016003015461160d91906133e8565b8482815481106116205761161f613611565b5b90600052602060002090600702016003018190555083818154811061164857611647613611565b5b906000526020600020906007020160040160149054906101000a900460ff166116a95760018482815481106116805761167f613611565b5b906000526020600020906007020160040160146101000a81548160ff0219169083151502179055505b600195506116c5565b80806116bd9061353b565b9150506114d7565b5084611706576040517f08c379a00000000000000000000000000000000000000000000000000000000081526004016116fd9061316c565b60405180910390fd5b3373ffffffffffffffffffffffffffffffffffffffff166108fc83838154811061173357611732613611565b5b90600052602060002090600302016002016000898152602001908152602001600020549081150290604051600060405180830381858888f19350505050158015611781573d6000803e3d6000fd5b50600082828154811061179757611796613611565b5b9060005260206000209060030201600201600088815260200190815260200160002081905550600193506117d9565b80806117d19061353b565b91505061140f565b508261181a576040517f08c379a00000000000000000000000000000000000000000000000000000000081526004016118119061306c565b60405180910390fd5b505050505050565b600260009054906101000a900473ffffffffffffffffffffffffffffffffffffffff1673ffffffffffffffffffffffffffffffffffffffff163373ffffffffffffffffffffffffffffffffffffffff1614156040518060600160405280602f8152602001613aa4602f9139906118ce576040517f08c379a00000000000000000000000000000000000000000000000000000000081526004016118c5919061302a565b60405180910390fd5b506004600086815260200190815260200160002060009054906101000a900460ff1661192f576040517f08c379a00000000000000000000000000000000000000000000000000000000081526004016119269061310c565b60405180910390fd5b6000604051806101000160405280868152602001620f42408152602001858152602001600081526020018473ffffffffffffffffffffffffffffffffffffffff16815260200160011515815260200183815260200160026009811115611998576119976135b3565b5b815250905060008190806001815401808255809150506001900390600052602060002090600702016000909190919091506000820151816000015560208201518160010155604082015181600201556060820151816003015560808201518160040160006101000a81548173ffffffffffffffffffffffffffffffffffffffff021916908373ffffffffffffffffffffffffffffffffffffffff16021790555060a08201518160040160146101000a81548160ff02191690831515021790555060c0820151816005019080519060200190611a749291906129d2565b5060e08201518160060160006101000a81548160ff02191690836009811115611aa057611a9f6135b3565b5b02179055505050600360008781526020019081526020016000208190806001815401808255809150506001900390600052602060002090600702016000909190919091506000820151816000015560208201518160010155604082015181600201556060820151816003015560808201518160040160006101000a81548173ffffffffffffffffffffffffffffffffffffffff021916908373ffffffffffffffffffffffffffffffffffffffff16021790555060a08201518160040160146101000a81548160ff02191690831515021790555060c0820151816005019080519060200190611b8f9291906129d2565b5060e08201518160060160006101000a81548160ff02191690836009811115611bbb57611bba6135b3565b5b02179055505050505050505050565b600260009054906101000a900473ffffffffffffffffffffffffffffffffffffffff1673ffffffffffffffffffffffffffffffffffffffff163373ffffffffffffffffffffffffffffffffffffffff1614604051806060016040528060338152602001613a406033913990611c75576040517f08c379a0000000000000000000000000000000000000000000000000000000008152600401611c6c919061302a565b60405180910390fd5b50600060018381548110611c8c57611c8b613611565b5b9060005260206000209060050201905060018160010160006101000a81548160ff02191690831515021790555060016004600084815260200190815260200160002060006101000a81548160ff021916908315150217905550505050565b606060006003600085815260200190815260200160002090506000818054905011611d4a576040517f08c379a0000000000000000000000000000000000000000000000000000000008152600401611d419061304c565b60405180910390fd5b60005b8180549050811015611e925783828281548110611d6d57611d6c613611565b5b9060005260206000209060070201600001541415611e7f5760076000838381548110611d9c57611d9b613611565b5b906000526020600020906007020160060160009054906101000a900460ff166009811115611dcd57611dcc6135b3565b5b6009811115611ddf57611dde6135b3565b5b81526020019081526020016000208054611df8906134d8565b80601f0160208091040260200160405190810160405280929190818152602001828054611e24906134d8565b8015611e715780601f10611e4657610100808354040283529160200191611e71565b820191906000526020600020905b815481529060010190602001808311611e5457829003601f168201915b505050505092505050611ece565b8080611e8a9061353b565b915050611d4d565b506040517f08c379a0000000000000000000000000000000000000000000000000000000008152600401611ec59061318c565b60405180910390fd5b92915050565b6000806003600085815260200190815260200160002090506000818054905011611f33576040517f08c379a0000000000000000000000000000000000000000000000000000000008152600401611f2a9061304c565b60405180910390fd5b60005b81805490508110156121235783828281548110611f5657611f55613611565b5b90600052602060002090600702016000015414156121105760076009811115611f8257611f816135b3565b5b828281548110611f9557611f94613611565b5b906000526020600020906007020160060160009054906101000a900460ff166009811115611fc657611fc56135b3565b5b14612006576040517f08c379a0000000000000000000000000000000000000000000000000000000008152600401611ffd906130cc565b60405180910390fd5b600060056000868152602001908152602001600020905060005b818054905081101561210557600082828154811061204157612040613611565b5b9060005260206000209060030201600201600088815260200190815260200160002054905082828154811061207957612078613611565b5b906000526020600020906003020160010160009054906101000a900473ffffffffffffffffffffffffffffffffffffffff1673ffffffffffffffffffffffffffffffffffffffff166108fc829081150290604051600060405180830381858888f193505050501580156120f0573d6000803e3d6000fd5b505080806120fd9061353b565b915050612020565b506001935050612123565b808061211b9061353b565b915050611f36565b5081612164576040517f08c379a000000000000000000000000000000000000000000000000000000000815260040161215b9061316c565b60405180910390fd5b50505050565b600260009054906101000a900473ffffffffffffffffffffffffffffffffffffffff1681565b600260009054906101000a900473ffffffffffffffffffffffffffffffffffffffff1673ffffffffffffffffffffffffffffffffffffffff163373ffffffffffffffffffffffffffffffffffffffff1614604051806060016040528060338152602001613a40603391399061223b576040517f08c379a0000000000000000000000000000000000000000000000000000000008152600401612232919061302a565b60405180910390fd5b5060006001838154811061225257612251613611565b5b9060005260206000209060050201905060008160010160006101000a81548160ff021916908315150217905550818160020190805190602001906122979291906129d2565b50505050565b600760205280600052604060002060009150905080546122bc906134d8565b80601f01602080910402602001604051908101604052809291908181526020018280546122e8906134d8565b80156123355780601f1061230a57610100808354040283529160200191612335565b820191906000526020600020905b81548152906001019060200180831161231857829003601f168201915b505050505081565b600080600360008681526020019081526020016000209050600081805490501161239c576040517f08c379a00000000000000000000000000000000000000000000000000000000081526004016123939061304c565b60405180910390fd5b60005b818054905081101561280757848282815481106123bf576123be613611565b5b90600052602060002090600702016000015414156127f4578181815481106123ea576123e9613611565b5b906000526020600020906007020160040160149054906101000a900460ff16156127b05781818154811061242157612420613611565b5b906000526020600020906007020160010154341015612475576040517f08c379a000000000000000000000000000000000000000000000000000000000815260040161246c9061308c565b60405180910390fd5b3482828154811061248957612488613611565b5b9060005260206000209060070201600301546124a59190613392565b8282815481106124b8576124b7613611565b5b9060005260206000209060070201600301819055506000600560008781526020019081526020016000209050600081805490509050600080600090505b83805490508110156125e1573373ffffffffffffffffffffffffffffffffffffffff1684828154811061252b5761252a613611565b5b906000526020600020906003020160010160009054906101000a900473ffffffffffffffffffffffffffffffffffffffff1673ffffffffffffffffffffffffffffffffffffffff1614156125ce573484828154811061258d5761258c613611565b5b906000526020600020906003020160020160008b815260200190815260200160002060008282546125be9190613392565b92505081905550600191506125e1565b80806125d99061353b565b9150506124f5565b5080612691578260018160018154018082558091505003906000526020600020905050600083838154811061261957612618613611565b5b90600052602060002090600302019050878160000181905550338160010160006101000a81548173ffffffffffffffffffffffffffffffffffffffff021916908373ffffffffffffffffffffffffffffffffffffffff160217905550348160020160008b815260200190815260200160002081905550505b8484815481106126a4576126a3613611565b5b9060005260206000209060070201600201548585815481106126c9576126c8613611565b5b90600052602060002090600702016003015414156127a85760038585815481106126f6576126f5613611565b5b906000526020600020906007020160060160006101000a81548160ff02191690836009811115612729576127286135b3565b5b0217905550600085858154811061274357612742613611565b5b906000526020600020906007020160040160146101000a81548160ff0219169083151502179055507f4460a3075d16e0c301975989c352adf5efef3f00e4b1cd798431dddda7179e588989600360405161279f9392919061322d565b60405180910390a15b5050506127eb565b6040517f08c379a00000000000000000000000000000000000000000000000000000000081526004016127e2906131ac565b60405180910390fd5b60019250612807565b80806127ff9061353b565b91505061239f565b5081612848576040517f08c379a000000000000000000000000000000000000000000000000000000000815260040161283f9061318c565b60405180910390fd5b5050505050565b6001818154811061285f57600080fd5b90600052602060002090600502016000915090508060000154908060010160009054906101000a900460ff169080600201805461289b906134d8565b80601f01602080910402602001604051908101604052809291908181526020018280546128c7906134d8565b80156129145780601f106128e957610100808354040283529160200191612914565b820191906000526020600020905b8154815290600101906020018083116128f757829003601f168201915b505050505090806003018054612929906134d8565b80601f0160208091040260200160405190810160405280929190818152602001828054612955906134d8565b80156129a25780601f10612977576101008083540402835291602001916129a2565b820191906000526020600020905b81548152906001019060200180831161298557829003601f168201915b5050505050908060040160009054906101000a900473ffffffffffffffffffffffffffffffffffffffff16905085565b8280546129de906134d8565b90600052602060002090601f016020900481019282612a005760008555612a47565b82601f10612a1957805160ff1916838001178555612a47565b82800160010185558215612a47579182015b82811115612a46578251825591602001919060010190612a2b565b5b509050612a549190612a58565b5090565b5b80821115612a71576000816000905550600101612a59565b5090565b6000612a88612a8384613345565b613320565b905082815260208101848484011115612aa457612aa3613674565b5b612aaf848285613496565b509392505050565b600081359050612ac6816139ea565b92915050565b600081359050612adb81613a01565b92915050565b600082601f830112612af657612af561366f565b5b8135612b06848260208601612a75565b91505092915050565b600081359050612b1e81613a11565b92915050565b600081359050612b3381613a28565b92915050565b600060208284031215612b4f57612b4e61367e565b5b6000612b5d84828501612acc565b91505092915050565b600060208284031215612b7c57612b7b61367e565b5b6000612b8a84828501612b0f565b91505092915050565b60008060408385031215612baa57612ba961367e565b5b6000612bb885828601612b0f565b925050602083013567ffffffffffffffff811115612bd957612bd8613679565b5b612be585828601612ae1565b9150509250929050565b600080600060608486031215612c0857612c0761367e565b5b6000612c1686828701612b0f565b935050602084013567ffffffffffffffff811115612c3757612c36613679565b5b612c4386828701612ae1565b9250506040612c5486828701612ab7565b9150509250925092565b60008060408385031215612c7557612c7461367e565b5b6000612c8385828601612b0f565b9250506020612c9485828601612b0f565b9150509250929050565b600080600060608486031215612cb757612cb661367e565b5b6000612cc586828701612b0f565b9350506020612cd686828701612b0f565b9250506040612ce786828701612b0f565b9150509250925092565b600080600080600060a08688031215612d0d57612d0c61367e565b5b6000612d1b88828901612b0f565b9550506020612d2c88828901612b0f565b9450506040612d3d88828901612b0f565b9350506060612d4e88828901612ab7565b925050608086013567ffffffffffffffff811115612d6f57612d6e613679565b5b612d7b88828901612ae1565b9150509295509295909350565b600080600060608486031215612da157612da061367e565b5b6000612daf86828701612b0f565b9350506020612dc086828701612b0f565b9250506040612dd186828701612b24565b9150509250925092565b612de48161341c565b82525050565b612df38161342e565b82525050565b612e0281613484565b82525050565b6000612e1382613376565b612e1d8185613381565b9350612e2d8185602086016134a5565b612e3681613683565b840191505092915050565b6000612e4e601183613381565b9150612e5982613694565b602082019050919050565b6000612e71602883613381565b9150612e7c826136bd565b604082019050919050565b6000612e94602583613381565b9150612e9f8261370c565b604082019050919050565b6000612eb7604183613381565b9150612ec28261375b565b606082019050919050565b6000612eda603e83613381565b9150612ee5826137d0565b604082019050919050565b6000612efd601583613381565b9150612f088261381f565b602082019050919050565b6000612f20601b83613381565b9150612f2b82613848565b602082019050919050565b6000612f43602383613381565b9150612f4e82613871565b604082019050919050565b6000612f66601583613381565b9150612f71826138c0565b602082019050919050565b6000612f89602583613381565b9150612f94826138e9565b604082019050919050565b6000612fac602883613381565b9150612fb782613938565b604082019050919050565b6000612fcf602c83613381565b9150612fda82613987565b604082019050919050565b612fee8161346d565b82525050565b60006020820190506130096000830184612ddb565b92915050565b60006020820190506130246000830184612df9565b92915050565b600060208201905081810360008301526130448184612e08565b905092915050565b6000602082019050818103600083015261306581612e41565b9050919050565b6000602082019050818103600083015261308581612e64565b9050919050565b600060208201905081810360008301526130a581612e87565b9050919050565b600060208201905081810360008301526130c581612eaa565b9050919050565b600060208201905081810360008301526130e581612ecd565b9050919050565b6000602082019050818103600083015261310581612ef0565b9050919050565b6000602082019050818103600083015261312581612f13565b9050919050565b6000602082019050818103600083015261314581612f36565b9050919050565b6000602082019050818103600083015261316581612f59565b9050919050565b6000602082019050818103600083015261318581612f7c565b9050919050565b600060208201905081810360008301526131a581612f9f565b9050919050565b600060208201905081810360008301526131c581612fc2565b9050919050565b600060a0820190506131e16000830188612fe5565b6131ee6020830187612dea565b81810360408301526132008186612e08565b905081810360608301526132148185612e08565b90506132236080830184612ddb565b9695505050505050565b60006060820190506132426000830186612fe5565b61324f6020830185612fe5565b61325c6040830184612df9565b949350505050565b60006060820190506132796000830186612fe5565b6132866020830185612fe5565b6132936040830184612fe5565b949350505050565b6000610100820190506132b1600083018b612fe5565b6132be602083018a612fe5565b6132cb6040830189612fe5565b6132d86060830188612fe5565b6132e56080830187612ddb565b6132f260a0830186612dea565b81810360c08301526133048185612e08565b905061331360e0830184612df9565b9998505050505050505050565b600061332a61333b565b9050613336828261350a565b919050565b6000604051905090565b600067ffffffffffffffff8211156133605761335f613640565b5b61336982613683565b9050602081019050919050565b600081519050919050565b600082825260208201905092915050565b600061339d8261346d565b91506133a88361346d565b9250827fffffffffffffffffffffffffffffffffffffffffffffffffffffffffffffffff038211156133dd576133dc613584565b5b828201905092915050565b60006133f38261346d565b91506133fe8361346d565b92508282101561341157613410613584565b5b828203905092915050565b60006134278261344d565b9050919050565b60008115159050919050565b6000819050613448826139d6565b919050565b600073ffffffffffffffffffffffffffffffffffffffff82169050919050565b6000819050919050565b600060ff82169050919050565b600061348f8261343a565b9050919050565b82818337600083830152505050565b60005b838110156134c35780820151818401526020810190506134a8565b838111156134d2576000848401525b50505050565b600060028204905060018216806134f057607f821691505b60208210811415613504576135036135e2565b5b50919050565b61351382613683565b810181811067ffffffffffffffff8211171561353257613531613640565b5b80604052505050565b60006135468261346d565b91507fffffffffffffffffffffffffffffffffffffffffffffffffffffffffffffffff82141561357957613578613584565b5b600182019050919050565b7f4e487b7100000000000000000000000000000000000000000000000000000000600052601160045260246000fd5b7f4e487b7100000000000000000000000000000000000000000000000000000000600052602160045260246000fd5b7f4e487b7100000000000000000000000000000000000000000000000000000000600052602260045260246000fd5b7f4e487b7100000000000000000000000000000000000000000000000000000000600052603260045260246000fd5b7f4e487b7100000000000000000000000000000000000000000000000000000000600052604160045260246000fd5b600080fd5b600080fd5b600080fd5b600080fd5b6000601f19601f8301169050919050565b7f43686172697479206e6f7420666f756e64000000000000000000000000000000600082015250565b7f596f7520686176656e277420636f6e747269627574656420666f72207468697360008201527f2070726f6a656374000000000000000000000000000000000000000000000000602082015250565b7f53686f756c642062652067726561746572207468616e206d696e696d756d206160008201527f6d6f756e74000000000000000000000000000000000000000000000000000000602082015250565b7f43616e277420726566756e642061732065786368616e6765207265717565737460008201527f2077617320616c726561647920696e69746961746564207769746820626f617260208201527f6400000000000000000000000000000000000000000000000000000000000000604082015250565b7f43616e277420726566756e642061732065786368616e6765207265717565737460008201527f20776173206e6f742072656a65637465642062792074686520626f6172640000602082015250565b7f50726f6a65637420646f65736e27742065786973740000000000000000000000600082015250565b7f43686172697479206973206e6f742079657420617070726f7665640000000000600082015250565b7f4e6f2070726f6a65637420657869737420756e6465722074686973206368617260008201527f6974790000000000000000000000000000000000000000000000000000000000602082015250565b7f4368617269747920646f65736e27742065786973740000000000000000000000600082015250565b7f4e6f2070726f6a65637420657869737420756e64657220746869732070726f6a60008201527f6563744964000000000000000000000000000000000000000000000000000000602082015250565b7f4e6f20737563682070726f6a65637420657869737420756e646572207468697360008201527f2063686172697479000000000000000000000000000000000000000000000000602082015250565b7f4e6f206d6f726520646f6e6174696f6e7320616363657074656420666f72207460008201527f6869732070726f6a6563742e0000000000000000000000000000000000000000602082015250565b600a81106139e7576139e66135b3565b5b50565b6139f38161341c565b81146139fe57600080fd5b50565b600a8110613a0e57600080fd5b50565b613a1a8161346d565b8114613a2557600080fd5b50565b613a3181613477565b8114613a3c57600080fd5b5056fe54686973206f7065726174696f6e2063616e20626520706572666f726d6564206f6e6c7920627920426f6172642061646d696e596f7520617265206e6f7420617574686f72697a656420746f20757064617465207769746820746869732073746174757354686973206f7065726174696f6e2063616e20626520706572666f726d6564206f6e6c792062792043686172697479a2646970667358221220db754656e809dae491bf67e1a77a0a3139c645e739ced833f6295b8781c0de9f64736f6c63430008070033",
					"opcodes": "PUSH1 0x80 PUSH1 0x40 MSTORE CALLVALUE DUP1 ISZERO PUSH3 0x11 JUMPI PUSH1 0x0 DUP1 REVERT JUMPDEST POP CALLER PUSH1 0x2 PUSH1 0x0 PUSH2 0x100 EXP DUP2 SLOAD DUP2 PUSH20 0xFFFFFFFFFFFFFFFFFFFFFFFFFFFFFFFFFFFFFFFF MUL NOT AND SWAP1 DUP4 PUSH20 0xFFFFFFFFFFFFFFFFFFFFFFFFFFFFFFFFFFFFFFFF AND MUL OR SWAP1 SSTORE POP PUSH1 0x40 MLOAD DUP1 PUSH1 0x40 ADD PUSH1 0x40 MSTORE DUP1 PUSH1 0x14 DUP2 MSTORE PUSH1 0x20 ADD PUSH32 0x57616974696E6720666F7220617070726F76616C000000000000000000000000 DUP2 MSTORE POP PUSH1 0x7 PUSH1 0x0 DUP1 PUSH1 0x9 DUP2 GT ISZERO PUSH3 0xA3 JUMPI PUSH3 0xA2 PUSH3 0x6A1 JUMP JUMPDEST JUMPDEST PUSH1 0x9 DUP2 GT ISZERO PUSH3 0xB8 JUMPI PUSH3 0xB7 PUSH3 0x6A1 JUMP JUMPDEST JUMPDEST DUP2 MSTORE PUSH1 0x20 ADD SWAP1 DUP2 MSTORE PUSH1 0x20 ADD PUSH1 0x0 KECCAK256 SWAP1 DUP1 MLOAD SWAP1 PUSH1 0x20 ADD SWAP1 PUSH3 0xDB SWAP3 SWAP2 SWAP1 PUSH3 0x5BB JUMP JUMPDEST POP PUSH1 0x40 MLOAD DUP1 PUSH1 0x40 ADD PUSH1 0x40 MSTORE DUP1 PUSH1 0x8 DUP2 MSTORE PUSH1 0x20 ADD PUSH32 0x417070726F766564000000000000000000000000000000000000000000000000 DUP2 MSTORE POP PUSH1 0x7 PUSH1 0x0 PUSH1 0x2 PUSH1 0x9 DUP2 GT ISZERO PUSH3 0x12D JUMPI PUSH3 0x12C PUSH3 0x6A1 JUMP JUMPDEST JUMPDEST PUSH1 0x9 DUP2 GT ISZERO PUSH3 0x142 JUMPI PUSH3 0x141 PUSH3 0x6A1 JUMP JUMPDEST JUMPDEST DUP2 MSTORE PUSH1 0x20 ADD SWAP1 DUP2 MSTORE PUSH1 0x20 ADD PUSH1 0x0 KECCAK256 SWAP1 DUP1 MLOAD SWAP1 PUSH1 0x20 ADD SWAP1 PUSH3 0x165 SWAP3 SWAP2 SWAP1 PUSH3 0x5BB JUMP JUMPDEST POP PUSH1 0x40 MLOAD DUP1 PUSH1 0x40 ADD PUSH1 0x40 MSTORE DUP1 PUSH1 0x13 DUP2 MSTORE PUSH1 0x20 ADD PUSH32 0x52656A6563746564206279206368617269747900000000000000000000000000 DUP2 MSTORE POP PUSH1 0x7 PUSH1 0x0 PUSH1 0x1 PUSH1 0x9 DUP2 GT ISZERO PUSH3 0x1B7 JUMPI PUSH3 0x1B6 PUSH3 0x6A1 JUMP JUMPDEST JUMPDEST PUSH1 0x9 DUP2 GT ISZERO PUSH3 0x1CC JUMPI PUSH3 0x1CB PUSH3 0x6A1 JUMP JUMPDEST JUMPDEST DUP2 MSTORE PUSH1 0x20 ADD SWAP1 DUP2 MSTORE PUSH1 0x20 ADD PUSH1 0x0 KECCAK256 SWAP1 DUP1 MLOAD SWAP1 PUSH1 0x20 ADD SWAP1 PUSH3 0x1EF SWAP3 SWAP2 SWAP1 PUSH3 0x5BB JUMP JUMPDEST POP PUSH1 0x40 MLOAD DUP1 PUSH1 0x40 ADD PUSH1 0x40 MSTORE DUP1 PUSH1 0x15 DUP2 MSTORE PUSH1 0x20 ADD PUSH32 0x50726F6A65637420676F616C2061636869657665640000000000000000000000 DUP2 MSTORE POP PUSH1 0x7 PUSH1 0x0 PUSH1 0x3 PUSH1 0x9 DUP2 GT ISZERO PUSH3 0x241 JUMPI PUSH3 0x240 PUSH3 0x6A1 JUMP JUMPDEST JUMPDEST PUSH1 0x9 DUP2 GT ISZERO PUSH3 0x256 JUMPI PUSH3 0x255 PUSH3 0x6A1 JUMP JUMPDEST JUMPDEST DUP2 MSTORE PUSH1 0x20 ADD SWAP1 DUP2 MSTORE PUSH1 0x20 ADD PUSH1 0x0 KECCAK256 SWAP1 DUP1 MLOAD SWAP1 PUSH1 0x20 ADD SWAP1 PUSH3 0x279 SWAP3 SWAP2 SWAP1 PUSH3 0x5BB JUMP JUMPDEST POP PUSH1 0x40 MLOAD DUP1 PUSH1 0x40 ADD PUSH1 0x40 MSTORE DUP1 PUSH1 0x12 DUP2 MSTORE PUSH1 0x20 ADD PUSH32 0x45786368616E6765207265717565737465640000000000000000000000000000 DUP2 MSTORE POP PUSH1 0x7 PUSH1 0x0 PUSH1 0x4 PUSH1 0x9 DUP2 GT ISZERO PUSH3 0x2CB JUMPI PUSH3 0x2CA PUSH3 0x6A1 JUMP JUMPDEST JUMPDEST PUSH1 0x9 DUP2 GT ISZERO PUSH3 0x2E0 JUMPI PUSH3 0x2DF PUSH3 0x6A1 JUMP JUMPDEST JUMPDEST DUP2 MSTORE PUSH1 0x20 ADD SWAP1 DUP2 MSTORE PUSH1 0x20 ADD PUSH1 0x0 KECCAK256 SWAP1 DUP1 MLOAD SWAP1 PUSH1 0x20 ADD SWAP1 PUSH3 0x303 SWAP3 SWAP2 SWAP1 PUSH3 0x5BB JUMP JUMPDEST POP PUSH1 0x40 MLOAD DUP1 PUSH1 0x40 ADD PUSH1 0x40 MSTORE DUP1 PUSH1 0x19 DUP2 MSTORE PUSH1 0x20 ADD PUSH32 0x45786368616E6765207265717565737420726563656976656400000000000000 DUP2 MSTORE POP PUSH1 0x7 PUSH1 0x0 PUSH1 0x5 PUSH1 0x9 DUP2 GT ISZERO PUSH3 0x355 JUMPI PUSH3 0x354 PUSH3 0x6A1 JUMP JUMPDEST JUMPDEST PUSH1 0x9 DUP2 GT ISZERO PUSH3 0x36A JUMPI PUSH3 0x369 PUSH3 0x6A1 JUMP JUMPDEST JUMPDEST DUP2 MSTORE PUSH1 0x20 ADD SWAP1 DUP2 MSTORE PUSH1 0x20 ADD PUSH1 0x0 KECCAK256 SWAP1 DUP1 MLOAD SWAP1 PUSH1 0x20 ADD SWAP1 PUSH3 0x38D SWAP3 SWAP2 SWAP1 PUSH3 0x5BB JUMP JUMPDEST POP PUSH1 0x40 MLOAD DUP1 PUSH1 0x40 ADD PUSH1 0x40 MSTORE DUP1 PUSH1 0x19 DUP2 MSTORE PUSH1 0x20 ADD PUSH32 0x45786368616E6765207265717565737420617070726F76656400000000000000 DUP2 MSTORE POP PUSH1 0x7 PUSH1 0x0 PUSH1 0x6 PUSH1 0x9 DUP2 GT ISZERO PUSH3 0x3DF JUMPI PUSH3 0x3DE PUSH3 0x6A1 JUMP JUMPDEST JUMPDEST PUSH1 0x9 DUP2 GT ISZERO PUSH3 0x3F4 JUMPI PUSH3 0x3F3 PUSH3 0x6A1 JUMP JUMPDEST JUMPDEST DUP2 MSTORE PUSH1 0x20 ADD SWAP1 DUP2 MSTORE PUSH1 0x20 ADD PUSH1 0x0 KECCAK256 SWAP1 DUP1 MLOAD SWAP1 PUSH1 0x20 ADD SWAP1 PUSH3 0x417 SWAP3 SWAP2 SWAP1 PUSH3 0x5BB JUMP JUMPDEST POP PUSH1 0x40 MLOAD DUP1 PUSH1 0x40 ADD PUSH1 0x40 MSTORE DUP1 PUSH1 0x19 DUP2 MSTORE PUSH1 0x20 ADD PUSH32 0x45786368616E676520726571756573742072656A656374656400000000000000 DUP2 MSTORE POP PUSH1 0x7 PUSH1 0x0 PUSH1 0x7 PUSH1 0x9 DUP2 GT ISZERO PUSH3 0x469 JUMPI PUSH3 0x468 PUSH3 0x6A1 JUMP JUMPDEST JUMPDEST PUSH1 0x9 DUP2 GT ISZERO PUSH3 0x47E JUMPI PUSH3 0x47D PUSH3 0x6A1 JUMP JUMPDEST JUMPDEST DUP2 MSTORE PUSH1 0x20 ADD SWAP1 DUP2 MSTORE PUSH1 0x20 ADD PUSH1 0x0 KECCAK256 SWAP1 DUP1 MLOAD SWAP1 PUSH1 0x20 ADD SWAP1 PUSH3 0x4A1 SWAP3 SWAP2 SWAP1 PUSH3 0x5BB JUMP JUMPDEST POP PUSH1 0x40 MLOAD DUP1 PUSH1 0x40 ADD PUSH1 0x40 MSTORE DUP1 PUSH1 0xE DUP2 MSTORE PUSH1 0x20 ADD PUSH32 0x46756E647320726566756E646564000000000000000000000000000000000000 DUP2 MSTORE POP PUSH1 0x7 PUSH1 0x0 PUSH1 0x8 PUSH1 0x9 DUP2 GT ISZERO PUSH3 0x4F3 JUMPI PUSH3 0x4F2 PUSH3 0x6A1 JUMP JUMPDEST JUMPDEST PUSH1 0x9 DUP2 GT ISZERO PUSH3 0x508 JUMPI PUSH3 0x507 PUSH3 0x6A1 JUMP JUMPDEST JUMPDEST DUP2 MSTORE PUSH1 0x20 ADD SWAP1 DUP2 MSTORE PUSH1 0x20 ADD PUSH1 0x0 KECCAK256 SWAP1 DUP1 MLOAD SWAP1 PUSH1 0x20 ADD SWAP1 PUSH3 0x52B SWAP3 SWAP2 SWAP1 PUSH3 0x5BB JUMP JUMPDEST POP PUSH1 0x40 MLOAD DUP1 PUSH1 0x40 ADD PUSH1 0x40 MSTORE DUP1 PUSH1 0xE DUP2 MSTORE PUSH1 0x20 ADD PUSH32 0x50726F6A65637420636C6F736564000000000000000000000000000000000000 DUP2 MSTORE POP PUSH1 0x7 PUSH1 0x0 PUSH1 0x9 DUP1 DUP2 GT ISZERO PUSH3 0x57C JUMPI PUSH3 0x57B PUSH3 0x6A1 JUMP JUMPDEST JUMPDEST PUSH1 0x9 DUP2 GT ISZERO PUSH3 0x591 JUMPI PUSH3 0x590 PUSH3 0x6A1 JUMP JUMPDEST JUMPDEST DUP2 MSTORE PUSH1 0x20 ADD SWAP1 DUP2 MSTORE PUSH1 0x20 ADD PUSH1 0x0 KECCAK256 SWAP1 DUP1 MLOAD SWAP1 PUSH1 0x20 ADD SWAP1 PUSH3 0x5B4 SWAP3 SWAP2 SWAP1 PUSH3 0x5BB JUMP JUMPDEST POP PUSH3 0x6FF JUMP JUMPDEST DUP3 DUP1 SLOAD PUSH3 0x5C9 SWAP1 PUSH3 0x66B JUMP JUMPDEST SWAP1 PUSH1 0x0 MSTORE PUSH1 0x20 PUSH1 0x0 KECCAK256 SWAP1 PUSH1 0x1F ADD PUSH1 0x20 SWAP1 DIV DUP2 ADD SWAP3 DUP3 PUSH3 0x5ED JUMPI PUSH1 0x0 DUP6 SSTORE PUSH3 0x639 JUMP JUMPDEST DUP3 PUSH1 0x1F LT PUSH3 0x608 JUMPI DUP1 MLOAD PUSH1 0xFF NOT AND DUP4 DUP1 ADD OR DUP6 SSTORE PUSH3 0x639 JUMP JUMPDEST DUP3 DUP1 ADD PUSH1 0x1 ADD DUP6 SSTORE DUP3 ISZERO PUSH3 0x639 JUMPI SWAP2 DUP3 ADD JUMPDEST DUP3 DUP2 GT ISZERO PUSH3 0x638 JUMPI DUP3 MLOAD DUP3 SSTORE SWAP2 PUSH1 0x20 ADD SWAP2 SWAP1 PUSH1 0x1 ADD SWAP1 PUSH3 0x61B JUMP JUMPDEST JUMPDEST POP SWAP1 POP PUSH3 0x648 SWAP2 SWAP1 PUSH3 0x64C JUMP JUMPDEST POP SWAP1 JUMP JUMPDEST JUMPDEST DUP1 DUP3 GT ISZERO PUSH3 0x667 JUMPI PUSH1 0x0 DUP2 PUSH1 0x0 SWAP1 SSTORE POP PUSH1 0x1 ADD PUSH3 0x64D JUMP JUMPDEST POP SWAP1 JUMP JUMPDEST PUSH1 0x0 PUSH1 0x2 DUP3 DIV SWAP1 POP PUSH1 0x1 DUP3 AND DUP1 PUSH3 0x684 JUMPI PUSH1 0x7F DUP3 AND SWAP2 POP JUMPDEST PUSH1 0x20 DUP3 LT DUP2 EQ ISZERO PUSH3 0x69B JUMPI PUSH3 0x69A PUSH3 0x6D0 JUMP JUMPDEST JUMPDEST POP SWAP2 SWAP1 POP JUMP JUMPDEST PUSH32 0x4E487B7100000000000000000000000000000000000000000000000000000000 PUSH1 0x0 MSTORE PUSH1 0x21 PUSH1 0x4 MSTORE PUSH1 0x24 PUSH1 0x0 REVERT JUMPDEST PUSH32 0x4E487B7100000000000000000000000000000000000000000000000000000000 PUSH1 0x0 MSTORE PUSH1 0x22 PUSH1 0x4 MSTORE PUSH1 0x24 PUSH1 0x0 REVERT JUMPDEST PUSH2 0x3B08 DUP1 PUSH3 0x70F PUSH1 0x0 CODECOPY PUSH1 0x0 RETURN INVALID PUSH1 0x80 PUSH1 0x40 MSTORE PUSH1 0x4 CALLDATASIZE LT PUSH2 0xF3 JUMPI PUSH1 0x0 CALLDATALOAD PUSH1 0xE0 SHR DUP1 PUSH4 0x97ED410C GT PUSH2 0x8A JUMPI DUP1 PUSH4 0xDAF38232 GT PUSH2 0x59 JUMPI DUP1 PUSH4 0xDAF38232 EQ PUSH2 0x32D JUMPI DUP1 PUSH4 0xEF6ADD32 EQ PUSH2 0x356 JUMPI DUP1 PUSH4 0xEF88F48B EQ PUSH2 0x393 JUMPI DUP1 PUSH4 0xFB709D2E EQ PUSH2 0x3AF JUMPI PUSH2 0xF3 JUMP JUMPDEST DUP1 PUSH4 0x97ED410C EQ PUSH2 0x273 JUMPI DUP1 PUSH4 0x9D8E7E89 EQ PUSH2 0x29C JUMPI DUP1 PUSH4 0xB0CA4AF5 EQ PUSH2 0x2D9 JUMPI DUP1 PUSH4 0xB61A7F76 EQ PUSH2 0x302 JUMPI PUSH2 0xF3 JUMP JUMPDEST DUP1 PUSH4 0x2C3730EF GT PUSH2 0xC6 JUMPI DUP1 PUSH4 0x2C3730EF EQ PUSH2 0x1CF JUMPI DUP1 PUSH4 0x3A8565F0 EQ PUSH2 0x1F8 JUMPI DUP1 PUSH4 0x85FA74BC EQ PUSH2 0x221 JUMPI DUP1 PUSH4 0x95DCC366 EQ PUSH2 0x24A JUMPI PUSH2 0xF3 JUMP JUMPDEST DUP1 PUSH4 0x107046BD EQ PUSH2 0xF8 JUMPI DUP1 PUSH4 0x141020CC EQ PUSH2 0x13C JUMPI DUP1 PUSH4 0x1AB33308 EQ PUSH2 0x165 JUMPI DUP1 PUSH4 0x1ED056D8 EQ PUSH2 0x190 JUMPI JUMPDEST PUSH1 0x0 DUP1 REVERT JUMPDEST CALLVALUE DUP1 ISZERO PUSH2 0x104 JUMPI PUSH1 0x0 DUP1 REVERT JUMPDEST POP PUSH2 0x11F PUSH1 0x4 DUP1 CALLDATASIZE SUB DUP2 ADD SWAP1 PUSH2 0x11A SWAP2 SWAP1 PUSH2 0x2B66 JUMP JUMPDEST PUSH2 0x3F0 JUMP JUMPDEST PUSH1 0x40 MLOAD PUSH2 0x133 SWAP9 SWAP8 SWAP7 SWAP6 SWAP5 SWAP4 SWAP3 SWAP2 SWAP1 PUSH2 0x329B JUMP JUMPDEST PUSH1 0x40 MLOAD DUP1 SWAP2 SUB SWAP1 RETURN JUMPDEST CALLVALUE DUP1 ISZERO PUSH2 0x148 JUMPI PUSH1 0x0 DUP1 REVERT JUMPDEST POP PUSH2 0x163 PUSH1 0x4 DUP1 CALLDATASIZE SUB DUP2 ADD SWAP1 PUSH2 0x15E SWAP2 SWAP1 PUSH2 0x2BEF JUMP JUMPDEST PUSH2 0x50A JUMP JUMPDEST STOP JUMPDEST CALLVALUE DUP1 ISZERO PUSH2 0x171 JUMPI PUSH1 0x0 DUP1 REVERT JUMPDEST POP PUSH2 0x17A PUSH2 0x714 JUMP JUMPDEST PUSH1 0x40 MLOAD PUSH2 0x187 SWAP2 SWAP1 PUSH2 0x300F JUMP JUMPDEST PUSH1 0x40 MLOAD DUP1 SWAP2 SUB SWAP1 RETURN JUMPDEST CALLVALUE DUP1 ISZERO PUSH2 0x19C JUMPI PUSH1 0x0 DUP1 REVERT JUMPDEST POP PUSH2 0x1B7 PUSH1 0x4 DUP1 CALLDATASIZE SUB DUP2 ADD SWAP1 PUSH2 0x1B2 SWAP2 SWAP1 PUSH2 0x2C5E JUMP JUMPDEST PUSH2 0x727 JUMP JUMPDEST PUSH1 0x40 MLOAD PUSH2 0x1C6 SWAP4 SWAP3 SWAP2 SWAP1 PUSH2 0x3264 JUMP JUMPDEST PUSH1 0x40 MLOAD DUP1 SWAP2 SUB SWAP1 RETURN JUMPDEST CALLVALUE DUP1 ISZERO PUSH2 0x1DB JUMPI PUSH1 0x0 DUP1 REVERT JUMPDEST POP PUSH2 0x1F6 PUSH1 0x4 DUP1 CALLDATASIZE SUB DUP2 ADD SWAP1 PUSH2 0x1F1 SWAP2 SWAP1 PUSH2 0x2D88 JUMP JUMPDEST PUSH2 0x8C5 JUMP JUMPDEST STOP JUMPDEST CALLVALUE DUP1 ISZERO PUSH2 0x204 JUMPI PUSH1 0x0 DUP1 REVERT JUMPDEST POP PUSH2 0x21F PUSH1 0x4 DUP1 CALLDATASIZE SUB DUP2 ADD SWAP1 PUSH2 0x21A SWAP2 SWAP1 PUSH2 0x2D88 JUMP JUMPDEST PUSH2 0xD5A JUMP JUMPDEST STOP JUMPDEST CALLVALUE DUP1 ISZERO PUSH2 0x22D JUMPI PUSH1 0x0 DUP1 REVERT JUMPDEST POP PUSH2 0x248 PUSH1 0x4 DUP1 CALLDATASIZE SUB DUP2 ADD SWAP1 PUSH2 0x243 SWAP2 SWAP1 PUSH2 0x2C5E JUMP JUMPDEST PUSH2 0x1394 JUMP JUMPDEST STOP JUMPDEST CALLVALUE DUP1 ISZERO PUSH2 0x256 JUMPI PUSH1 0x0 DUP1 REVERT JUMPDEST POP PUSH2 0x271 PUSH1 0x4 DUP1 CALLDATASIZE SUB DUP2 ADD SWAP1 PUSH2 0x26C SWAP2 SWAP1 PUSH2 0x2CF1 JUMP JUMPDEST PUSH2 0x1822 JUMP JUMPDEST STOP JUMPDEST CALLVALUE DUP1 ISZERO PUSH2 0x27F JUMPI PUSH1 0x0 DUP1 REVERT JUMPDEST POP PUSH2 0x29A PUSH1 0x4 DUP1 CALLDATASIZE SUB DUP2 ADD SWAP1 PUSH2 0x295 SWAP2 SWAP1 PUSH2 0x2C5E JUMP JUMPDEST PUSH2 0x1BCA JUMP JUMPDEST STOP JUMPDEST CALLVALUE DUP1 ISZERO PUSH2 0x2A8 JUMPI PUSH1 0x0 DUP1 REVERT JUMPDEST POP PUSH2 0x2C3 PUSH1 0x4 DUP1 CALLDATASIZE SUB DUP2 ADD SWAP1 PUSH2 0x2BE SWAP2 SWAP1 PUSH2 0x2C5E JUMP JUMPDEST PUSH2 0x1CEA JUMP JUMPDEST PUSH1 0x40 MLOAD PUSH2 0x2D0 SWAP2 SWAP1 PUSH2 0x302A JUMP JUMPDEST PUSH1 0x40 MLOAD DUP1 SWAP2 SUB SWAP1 RETURN JUMPDEST CALLVALUE DUP1 ISZERO PUSH2 0x2E5 JUMPI PUSH1 0x0 DUP1 REVERT JUMPDEST POP PUSH2 0x300 PUSH1 0x4 DUP1 CALLDATASIZE SUB DUP2 ADD SWAP1 PUSH2 0x2FB SWAP2 SWAP1 PUSH2 0x2C5E JUMP JUMPDEST PUSH2 0x1ED4 JUMP JUMPDEST STOP JUMPDEST CALLVALUE DUP1 ISZERO PUSH2 0x30E JUMPI PUSH1 0x0 DUP1 REVERT JUMPDEST POP PUSH2 0x317 PUSH2 0x216A JUMP JUMPDEST PUSH1 0x40 MLOAD PUSH2 0x324 SWAP2 SWAP1 PUSH2 0x2FF4 JUMP JUMPDEST PUSH1 0x40 MLOAD DUP1 SWAP2 SUB SWAP1 RETURN JUMPDEST CALLVALUE DUP1 ISZERO PUSH2 0x339 JUMPI PUSH1 0x0 DUP1 REVERT JUMPDEST POP PUSH2 0x354 PUSH1 0x4 DUP1 CALLDATASIZE SUB DUP2 ADD SWAP1 PUSH2 0x34F SWAP2 SWAP1 PUSH2 0x2B93 JUMP JUMPDEST PUSH2 0x2190 JUMP JUMPDEST STOP JUMPDEST CALLVALUE DUP1 ISZERO PUSH2 0x362 JUMPI PUSH1 0x0 DUP1 REVERT JUMPDEST POP PUSH2 0x37D PUSH1 0x4 DUP1 CALLDATASIZE SUB DUP2 ADD SWAP1 PUSH2 0x378 SWAP2 SWAP1 PUSH2 0x2B39 JUMP JUMPDEST PUSH2 0x229D JUMP JUMPDEST PUSH1 0x40 MLOAD PUSH2 0x38A SWAP2 SWAP1 PUSH2 0x302A JUMP JUMPDEST PUSH1 0x40 MLOAD DUP1 SWAP2 SUB SWAP1 RETURN JUMPDEST PUSH2 0x3AD PUSH1 0x4 DUP1 CALLDATASIZE SUB DUP2 ADD SWAP1 PUSH2 0x3A8 SWAP2 SWAP1 PUSH2 0x2C9E JUMP JUMPDEST PUSH2 0x233D JUMP JUMPDEST STOP JUMPDEST CALLVALUE DUP1 ISZERO PUSH2 0x3BB JUMPI PUSH1 0x0 DUP1 REVERT JUMPDEST POP PUSH2 0x3D6 PUSH1 0x4 DUP1 CALLDATASIZE SUB DUP2 ADD SWAP1 PUSH2 0x3D1 SWAP2 SWAP1 PUSH2 0x2B66 JUMP JUMPDEST PUSH2 0x284F JUMP JUMPDEST PUSH1 0x40 MLOAD PUSH2 0x3E7 SWAP6 SWAP5 SWAP4 SWAP3 SWAP2 SWAP1 PUSH2 0x31CC JUMP JUMPDEST PUSH1 0x40 MLOAD DUP1 SWAP2 SUB SWAP1 RETURN JUMPDEST PUSH1 0x0 DUP2 DUP2 SLOAD DUP2 LT PUSH2 0x400 JUMPI PUSH1 0x0 DUP1 REVERT JUMPDEST SWAP1 PUSH1 0x0 MSTORE PUSH1 0x20 PUSH1 0x0 KECCAK256 SWAP1 PUSH1 0x7 MUL ADD PUSH1 0x0 SWAP2 POP SWAP1 POP DUP1 PUSH1 0x0 ADD SLOAD SWAP1 DUP1 PUSH1 0x1 ADD SLOAD SWAP1 DUP1 PUSH1 0x2 ADD SLOAD SWAP1 DUP1 PUSH1 0x3 ADD SLOAD SWAP1 DUP1 PUSH1 0x4 ADD PUSH1 0x0 SWAP1 SLOAD SWAP1 PUSH2 0x100 EXP SWAP1 DIV PUSH20 0xFFFFFFFFFFFFFFFFFFFFFFFFFFFFFFFFFFFFFFFF AND SWAP1 DUP1 PUSH1 0x4 ADD PUSH1 0x14 SWAP1 SLOAD SWAP1 PUSH2 0x100 EXP SWAP1 DIV PUSH1 0xFF AND SWAP1 DUP1 PUSH1 0x5 ADD DUP1 SLOAD PUSH2 0x474 SWAP1 PUSH2 0x34D8 JUMP JUMPDEST DUP1 PUSH1 0x1F ADD PUSH1 0x20 DUP1 SWAP2 DIV MUL PUSH1 0x20 ADD PUSH1 0x40 MLOAD SWAP1 DUP2 ADD PUSH1 0x40 MSTORE DUP1 SWAP3 SWAP2 SWAP1 DUP2 DUP2 MSTORE PUSH1 0x20 ADD DUP3 DUP1 SLOAD PUSH2 0x4A0 SWAP1 PUSH2 0x34D8 JUMP JUMPDEST DUP1 ISZERO PUSH2 0x4ED JUMPI DUP1 PUSH1 0x1F LT PUSH2 0x4C2 JUMPI PUSH2 0x100 DUP1 DUP4 SLOAD DIV MUL DUP4 MSTORE SWAP2 PUSH1 0x20 ADD SWAP2 PUSH2 0x4ED JUMP JUMPDEST DUP3 ADD SWAP2 SWAP1 PUSH1 0x0 MSTORE PUSH1 0x20 PUSH1 0x0 KECCAK256 SWAP1 JUMPDEST DUP2 SLOAD DUP2 MSTORE SWAP1 PUSH1 0x1 ADD SWAP1 PUSH1 0x20 ADD DUP1 DUP4 GT PUSH2 0x4D0 JUMPI DUP3 SWAP1 SUB PUSH1 0x1F AND DUP3 ADD SWAP2 JUMPDEST POP POP POP POP POP SWAP1 DUP1 PUSH1 0x6 ADD PUSH1 0x0 SWAP1 SLOAD SWAP1 PUSH2 0x100 EXP SWAP1 DIV PUSH1 0xFF AND SWAP1 POP DUP9 JUMP JUMPDEST PUSH1 0x2 PUSH1 0x0 SWAP1 SLOAD SWAP1 PUSH2 0x100 EXP SWAP1 DIV PUSH20 0xFFFFFFFFFFFFFFFFFFFFFFFFFFFFFFFFFFFFFFFF AND PUSH20 0xFFFFFFFFFFFFFFFFFFFFFFFFFFFFFFFFFFFFFFFF AND CALLER PUSH20 0xFFFFFFFFFFFFFFFFFFFFFFFFFFFFFFFFFFFFFFFF AND EQ PUSH1 0x40 MLOAD DUP1 PUSH1 0x60 ADD PUSH1 0x40 MSTORE DUP1 PUSH1 0x33 DUP2 MSTORE PUSH1 0x20 ADD PUSH2 0x3A40 PUSH1 0x33 SWAP2 CODECOPY SWAP1 PUSH2 0x5B5 JUMPI PUSH1 0x40 MLOAD PUSH32 0x8C379A000000000000000000000000000000000000000000000000000000000 DUP2 MSTORE PUSH1 0x4 ADD PUSH2 0x5AC SWAP2 SWAP1 PUSH2 0x302A JUMP JUMPDEST PUSH1 0x40 MLOAD DUP1 SWAP2 SUB SWAP1 REVERT JUMPDEST POP PUSH1 0x0 PUSH1 0x40 MLOAD DUP1 PUSH1 0xA0 ADD PUSH1 0x40 MSTORE DUP1 DUP6 DUP2 MSTORE PUSH1 0x20 ADD PUSH1 0x1 ISZERO ISZERO DUP2 MSTORE PUSH1 0x20 ADD PUSH1 0x40 MLOAD DUP1 PUSH1 0x20 ADD PUSH1 0x40 MSTORE DUP1 PUSH1 0x0 DUP2 MSTORE POP DUP2 MSTORE PUSH1 0x20 ADD DUP5 DUP2 MSTORE PUSH1 0x20 ADD DUP4 PUSH20 0xFFFFFFFFFFFFFFFFFFFFFFFFFFFFFFFFFFFFFFFF AND DUP2 MSTORE POP SWAP1 POP PUSH1 0x1 DUP2 SWAP1 DUP1 PUSH1 0x1 DUP2 SLOAD ADD DUP1 DUP3 SSTORE DUP1 SWAP2 POP POP PUSH1 0x1 SWAP1 SUB SWAP1 PUSH1 0x0 MSTORE PUSH1 0x20 PUSH1 0x0 KECCAK256 SWAP1 PUSH1 0x5 MUL ADD PUSH1 0x0 SWAP1 SWAP2 SWAP1 SWAP2 SWAP1 SWAP2 POP PUSH1 0x0 DUP3 ADD MLOAD DUP2 PUSH1 0x0 ADD SSTORE PUSH1 0x20 DUP3 ADD MLOAD DUP2 PUSH1 0x1 ADD PUSH1 0x0 PUSH2 0x100 EXP DUP2 SLOAD DUP2 PUSH1 0xFF MUL NOT AND SWAP1 DUP4 ISZERO ISZERO MUL OR SWAP1 SSTORE POP PUSH1 0x40 DUP3 ADD MLOAD DUP2 PUSH1 0x2 ADD SWAP1 DUP1 MLOAD SWAP1 PUSH1 0x20 ADD SWAP1 PUSH2 0x67B SWAP3 SWAP2 SWAP1 PUSH2 0x29D2 JUMP JUMPDEST POP PUSH1 0x60 DUP3 ADD MLOAD DUP2 PUSH1 0x3 ADD SWAP1 DUP1 MLOAD SWAP1 PUSH1 0x20 ADD SWAP1 PUSH2 0x698 SWAP3 SWAP2 SWAP1 PUSH2 0x29D2 JUMP JUMPDEST POP PUSH1 0x80 DUP3 ADD MLOAD DUP2 PUSH1 0x4 ADD PUSH1 0x0 PUSH2 0x100 EXP DUP2 SLOAD DUP2 PUSH20 0xFFFFFFFFFFFFFFFFFFFFFFFFFFFFFFFFFFFFFFFF MUL NOT AND SWAP1 DUP4 PUSH20 0xFFFFFFFFFFFFFFFFFFFFFFFFFFFFFFFFFFFFFFFF AND MUL OR SWAP1 SSTORE POP POP POP PUSH1 0x1 PUSH1 0x4 PUSH1 0x0 DUP7 DUP2 MSTORE PUSH1 0x20 ADD SWAP1 DUP2 MSTORE PUSH1 0x20 ADD PUSH1 0x0 KECCAK256 PUSH1 0x0 PUSH2 0x100 EXP DUP2 SLOAD DUP2 PUSH1 0xFF MUL NOT AND SWAP1 DUP4 ISZERO ISZERO MUL OR SWAP1 SSTORE POP POP POP POP POP JUMP JUMPDEST PUSH1 0x6 PUSH1 0x0 SWAP1 SLOAD SWAP1 PUSH2 0x100 EXP SWAP1 DIV PUSH1 0xFF AND DUP2 JUMP JUMPDEST PUSH1 0x0 DUP1 PUSH1 0x0 DUP1 PUSH1 0x3 PUSH1 0x0 DUP8 DUP2 MSTORE PUSH1 0x20 ADD SWAP1 DUP2 MSTORE PUSH1 0x20 ADD PUSH1 0x0 KECCAK256 SWAP1 POP PUSH1 0x0 DUP2 DUP1 SLOAD SWAP1 POP GT PUSH2 0x789 JUMPI PUSH1 0x40 MLOAD PUSH32 0x8C379A000000000000000000000000000000000000000000000000000000000 DUP2 MSTORE PUSH1 0x4 ADD PUSH2 0x780 SWAP1 PUSH2 0x314C JUMP JUMPDEST PUSH1 0x40 MLOAD DUP1 SWAP2 SUB SWAP1 REVERT JUMPDEST PUSH1 0x0 JUMPDEST DUP2 DUP1 SLOAD SWAP1 POP DUP2 LT ISZERO PUSH2 0x882 JUMPI DUP6 DUP3 DUP3 DUP2 SLOAD DUP2 LT PUSH2 0x7AC JUMPI PUSH2 0x7AB PUSH2 0x3611 JUMP JUMPDEST JUMPDEST SWAP1 PUSH1 0x0 MSTORE PUSH1 0x20 PUSH1 0x0 KECCAK256 SWAP1 PUSH1 0x7 MUL ADD PUSH1 0x0 ADD SLOAD EQ ISZERO PUSH2 0x86F JUMPI DUP2 DUP2 DUP2 SLOAD DUP2 LT PUSH2 0x7D7 JUMPI PUSH2 0x7D6 PUSH2 0x3611 JUMP JUMPDEST JUMPDEST SWAP1 PUSH1 0x0 MSTORE PUSH1 0x20 PUSH1 0x0 KECCAK256 SWAP1 PUSH1 0x7 MUL ADD PUSH1 0x2 ADD SLOAD DUP3 DUP3 DUP2 SLOAD DUP2 LT PUSH2 0x7FC JUMPI PUSH2 0x7FB PUSH2 0x3611 JUMP JUMPDEST JUMPDEST SWAP1 PUSH1 0x0 MSTORE PUSH1 0x20 PUSH1 0x0 KECCAK256 SWAP1 PUSH1 0x7 MUL ADD PUSH1 0x3 ADD SLOAD DUP4 DUP4 DUP2 SLOAD DUP2 LT PUSH2 0x821 JUMPI PUSH2 0x820 PUSH2 0x3611 JUMP JUMPDEST JUMPDEST SWAP1 PUSH1 0x0 MSTORE PUSH1 0x20 PUSH1 0x0 KECCAK256 SWAP1 PUSH1 0x7 MUL ADD PUSH1 0x3 ADD SLOAD DUP5 DUP5 DUP2 SLOAD DUP2 LT PUSH2 0x846 JUMPI PUSH2 0x845 PUSH2 0x3611 JUMP JUMPDEST JUMPDEST SWAP1 PUSH1 0x0 MSTORE PUSH1 0x20 PUSH1 0x0 KECCAK256 SWAP1 PUSH1 0x7 MUL ADD PUSH1 0x2 ADD SLOAD PUSH2 0x862 SWAP2 SWAP1 PUSH2 0x33E8 JUMP JUMPDEST SWAP5 POP SWAP5 POP SWAP5 POP POP POP PUSH2 0x8BE JUMP JUMPDEST DUP1 DUP1 PUSH2 0x87A SWAP1 PUSH2 0x353B JUMP JUMPDEST SWAP2 POP POP PUSH2 0x78C JUMP JUMPDEST POP PUSH1 0x40 MLOAD PUSH32 0x8C379A000000000000000000000000000000000000000000000000000000000 DUP2 MSTORE PUSH1 0x4 ADD PUSH2 0x8B5 SWAP1 PUSH2 0x318C JUMP JUMPDEST PUSH1 0x40 MLOAD DUP1 SWAP2 SUB SWAP1 REVERT JUMPDEST SWAP3 POP SWAP3 POP SWAP3 JUMP JUMPDEST PUSH1 0x2 PUSH1 0x0 SWAP1 SLOAD SWAP1 PUSH2 0x100 EXP SWAP1 DIV PUSH20 0xFFFFFFFFFFFFFFFFFFFFFFFFFFFFFFFFFFFFFFFF AND PUSH20 0xFFFFFFFFFFFFFFFFFFFFFFFFFFFFFFFFFFFFFFFF AND CALLER PUSH20 0xFFFFFFFFFFFFFFFFFFFFFFFFFFFFFFFFFFFFFFFF AND EQ PUSH1 0x40 MLOAD DUP1 PUSH1 0x60 ADD PUSH1 0x40 MSTORE DUP1 PUSH1 0x33 DUP2 MSTORE PUSH1 0x20 ADD PUSH2 0x3A40 PUSH1 0x33 SWAP2 CODECOPY SWAP1 PUSH2 0x970 JUMPI PUSH1 0x40 MLOAD PUSH32 0x8C379A000000000000000000000000000000000000000000000000000000000 DUP2 MSTORE PUSH1 0x4 ADD PUSH2 0x967 SWAP2 SWAP1 PUSH2 0x302A JUMP JUMPDEST PUSH1 0x40 MLOAD DUP1 SWAP2 SUB SWAP1 REVERT JUMPDEST POP PUSH1 0x0 PUSH1 0x9 DUP2 GT ISZERO PUSH2 0x985 JUMPI PUSH2 0x984 PUSH2 0x35B3 JUMP JUMPDEST JUMPDEST DUP2 PUSH1 0xFF AND PUSH1 0x9 DUP2 GT ISZERO PUSH2 0x99B JUMPI PUSH2 0x99A PUSH2 0x35B3 JUMP JUMPDEST JUMPDEST PUSH1 0x9 DUP2 GT ISZERO PUSH2 0x9AD JUMPI PUSH2 0x9AC PUSH2 0x35B3 JUMP JUMPDEST JUMPDEST EQ ISZERO PUSH1 0x40 MLOAD DUP1 PUSH1 0x60 ADD PUSH1 0x40 MSTORE DUP1 PUSH1 0x31 DUP2 MSTORE PUSH1 0x20 ADD PUSH2 0x3A73 PUSH1 0x31 SWAP2 CODECOPY SWAP1 PUSH2 0xA09 JUMPI PUSH1 0x40 MLOAD PUSH32 0x8C379A000000000000000000000000000000000000000000000000000000000 DUP2 MSTORE PUSH1 0x4 ADD PUSH2 0xA00 SWAP2 SWAP1 PUSH2 0x302A JUMP JUMPDEST PUSH1 0x40 MLOAD DUP1 SWAP2 SUB SWAP1 REVERT JUMPDEST POP PUSH1 0x2 PUSH1 0x9 DUP2 GT ISZERO PUSH2 0xA1E JUMPI PUSH2 0xA1D PUSH2 0x35B3 JUMP JUMPDEST JUMPDEST DUP2 PUSH1 0xFF AND PUSH1 0x9 DUP2 GT ISZERO PUSH2 0xA34 JUMPI PUSH2 0xA33 PUSH2 0x35B3 JUMP JUMPDEST JUMPDEST PUSH1 0x9 DUP2 GT ISZERO PUSH2 0xA46 JUMPI PUSH2 0xA45 PUSH2 0x35B3 JUMP JUMPDEST JUMPDEST EQ ISZERO PUSH1 0x40 MLOAD DUP1 PUSH1 0x60 ADD PUSH1 0x40 MSTORE DUP1 PUSH1 0x31 DUP2 MSTORE PUSH1 0x20 ADD PUSH2 0x3A73 PUSH1 0x31 SWAP2 CODECOPY SWAP1 PUSH2 0xAA2 JUMPI PUSH1 0x40 MLOAD PUSH32 0x8C379A000000000000000000000000000000000000000000000000000000000 DUP2 MSTORE PUSH1 0x4 ADD PUSH2 0xA99 SWAP2 SWAP1 PUSH2 0x302A JUMP JUMPDEST PUSH1 0x40 MLOAD DUP1 SWAP2 SUB SWAP1 REVERT JUMPDEST POP PUSH1 0x3 PUSH1 0x9 DUP2 GT ISZERO PUSH2 0xAB7 JUMPI PUSH2 0xAB6 PUSH2 0x35B3 JUMP JUMPDEST JUMPDEST DUP2 PUSH1 0xFF AND PUSH1 0x9 DUP2 GT ISZERO PUSH2 0xACD JUMPI PUSH2 0xACC PUSH2 0x35B3 JUMP JUMPDEST JUMPDEST PUSH1 0x9 DUP2 GT ISZERO PUSH2 0xADF JUMPI PUSH2 0xADE PUSH2 0x35B3 JUMP JUMPDEST JUMPDEST EQ ISZERO PUSH1 0x40 MLOAD DUP1 PUSH1 0x60 ADD PUSH1 0x40 MSTORE DUP1 PUSH1 0x31 DUP2 MSTORE PUSH1 0x20 ADD PUSH2 0x3A73 PUSH1 0x31 SWAP2 CODECOPY SWAP1 PUSH2 0xB3B JUMPI PUSH1 0x40 MLOAD PUSH32 0x8C379A000000000000000000000000000000000000000000000000000000000 DUP2 MSTORE PUSH1 0x4 ADD PUSH2 0xB32 SWAP2 SWAP1 PUSH2 0x302A JUMP JUMPDEST PUSH1 0x40 MLOAD DUP1 SWAP2 SUB SWAP1 REVERT JUMPDEST POP PUSH1 0x4 PUSH1 0x9 DUP2 GT ISZERO PUSH2 0xB50 JUMPI PUSH2 0xB4F PUSH2 0x35B3 JUMP JUMPDEST JUMPDEST DUP2 PUSH1 0xFF AND PUSH1 0x9 DUP2 GT ISZERO PUSH2 0xB66 JUMPI PUSH2 0xB65 PUSH2 0x35B3 JUMP JUMPDEST JUMPDEST PUSH1 0x9 DUP2 GT ISZERO PUSH2 0xB78 JUMPI PUSH2 0xB77 PUSH2 0x35B3 JUMP JUMPDEST JUMPDEST EQ ISZERO PUSH1 0x40 MLOAD DUP1 PUSH1 0x60 ADD PUSH1 0x40 MSTORE DUP1 PUSH1 0x31 DUP2 MSTORE PUSH1 0x20 ADD PUSH2 0x3A73 PUSH1 0x31 SWAP2 CODECOPY SWAP1 PUSH2 0xBD4 JUMPI PUSH1 0x40 MLOAD PUSH32 0x8C379A000000000000000000000000000000000000000000000000000000000 DUP2 MSTORE PUSH1 0x4 ADD PUSH2 0xBCB SWAP2 SWAP1 PUSH2 0x302A JUMP JUMPDEST PUSH1 0x40 MLOAD DUP1 SWAP2 SUB SWAP1 REVERT JUMPDEST POP PUSH1 0x0 PUSH1 0x3 PUSH1 0x0 DUP5 DUP2 MSTORE PUSH1 0x20 ADD SWAP1 DUP2 MSTORE PUSH1 0x20 ADD PUSH1 0x0 KECCAK256 SWAP1 POP PUSH1 0x0 DUP2 DUP1 SLOAD SWAP1 POP GT PUSH2 0xC33 JUMPI PUSH1 0x40 MLOAD PUSH32 0x8C379A000000000000000000000000000000000000000000000000000000000 DUP2 MSTORE PUSH1 0x4 ADD PUSH2 0xC2A SWAP1 PUSH2 0x312C JUMP JUMPDEST PUSH1 0x40 MLOAD DUP1 SWAP2 SUB SWAP1 REVERT JUMPDEST PUSH1 0x0 JUMPDEST DUP2 DUP1 SLOAD SWAP1 POP DUP2 LT ISZERO PUSH2 0xD53 JUMPI DUP5 DUP3 DUP3 DUP2 SLOAD DUP2 LT PUSH2 0xC56 JUMPI PUSH2 0xC55 PUSH2 0x3611 JUMP JUMPDEST JUMPDEST SWAP1 PUSH1 0x0 MSTORE PUSH1 0x20 PUSH1 0x0 KECCAK256 SWAP1 PUSH1 0x7 MUL ADD PUSH1 0x0 ADD SLOAD EQ ISZERO PUSH2 0xD40 JUMPI DUP3 PUSH1 0xFF AND PUSH1 0x9 DUP2 GT ISZERO PUSH2 0xC84 JUMPI PUSH2 0xC83 PUSH2 0x35B3 JUMP JUMPDEST JUMPDEST DUP3 DUP3 DUP2 SLOAD DUP2 LT PUSH2 0xC97 JUMPI PUSH2 0xC96 PUSH2 0x3611 JUMP JUMPDEST JUMPDEST SWAP1 PUSH1 0x0 MSTORE PUSH1 0x20 PUSH1 0x0 KECCAK256 SWAP1 PUSH1 0x7 MUL ADD PUSH1 0x6 ADD PUSH1 0x0 PUSH2 0x100 EXP DUP2 SLOAD DUP2 PUSH1 0xFF MUL NOT AND SWAP1 DUP4 PUSH1 0x9 DUP2 GT ISZERO PUSH2 0xCCA JUMPI PUSH2 0xCC9 PUSH2 0x35B3 JUMP JUMPDEST JUMPDEST MUL OR SWAP1 SSTORE POP PUSH32 0x42B0281EF1BA120F08AE315789F8639D48731DB33EAAC502B629A775C997471B DUP5 DUP7 DUP5 DUP5 DUP2 SLOAD DUP2 LT PUSH2 0xD05 JUMPI PUSH2 0xD04 PUSH2 0x3611 JUMP JUMPDEST JUMPDEST SWAP1 PUSH1 0x0 MSTORE PUSH1 0x20 PUSH1 0x0 KECCAK256 SWAP1 PUSH1 0x7 MUL ADD PUSH1 0x6 ADD PUSH1 0x0 SWAP1 SLOAD SWAP1 PUSH2 0x100 EXP SWAP1 DIV PUSH1 0xFF AND PUSH1 0x40 MLOAD PUSH2 0xD33 SWAP4 SWAP3 SWAP2 SWAP1 PUSH2 0x322D JUMP JUMPDEST PUSH1 0x40 MLOAD DUP1 SWAP2 SUB SWAP1 LOG1 PUSH2 0xD53 JUMP JUMPDEST DUP1 DUP1 PUSH2 0xD4B SWAP1 PUSH2 0x353B JUMP JUMPDEST SWAP2 POP POP PUSH2 0xC36 JUMP JUMPDEST POP POP POP POP POP JUMP JUMPDEST PUSH1 0x2 PUSH1 0x0 SWAP1 SLOAD SWAP1 PUSH2 0x100 EXP SWAP1 DIV PUSH20 0xFFFFFFFFFFFFFFFFFFFFFFFFFFFFFFFFFFFFFFFF AND PUSH20 0xFFFFFFFFFFFFFFFFFFFFFFFFFFFFFFFFFFFFFFFF AND CALLER PUSH20 0xFFFFFFFFFFFFFFFFFFFFFFFFFFFFFFFFFFFFFFFF AND EQ ISZERO PUSH1 0x40 MLOAD DUP1 PUSH1 0x60 ADD PUSH1 0x40 MSTORE DUP1 PUSH1 0x2F DUP2 MSTORE PUSH1 0x20 ADD PUSH2 0x3AA4 PUSH1 0x2F SWAP2 CODECOPY SWAP1 PUSH2 0xE06 JUMPI PUSH1 0x40 MLOAD PUSH32 0x8C379A000000000000000000000000000000000000000000000000000000000 DUP2 MSTORE PUSH1 0x4 ADD PUSH2 0xDFD SWAP2 SWAP1 PUSH2 0x302A JUMP JUMPDEST PUSH1 0x40 MLOAD DUP1 SWAP2 SUB SWAP1 REVERT JUMPDEST POP PUSH1 0x0 PUSH1 0x3 PUSH1 0x9 DUP2 GT ISZERO PUSH2 0xE1D JUMPI PUSH2 0xE1C PUSH2 0x35B3 JUMP JUMPDEST JUMPDEST DUP3 PUSH1 0xFF AND PUSH1 0x9 DUP2 GT ISZERO PUSH2 0xE33 JUMPI PUSH2 0xE32 PUSH2 0x35B3 JUMP JUMPDEST JUMPDEST PUSH1 0x9 DUP2 GT ISZERO PUSH2 0xE45 JUMPI PUSH2 0xE44 PUSH2 0x35B3 JUMP JUMPDEST JUMPDEST EQ ISZERO PUSH1 0x40 MLOAD DUP1 PUSH1 0x60 ADD PUSH1 0x40 MSTORE DUP1 PUSH1 0x31 DUP2 MSTORE PUSH1 0x20 ADD PUSH2 0x3A73 PUSH1 0x31 SWAP2 CODECOPY SWAP1 PUSH2 0xEA1 JUMPI PUSH1 0x40 MLOAD PUSH32 0x8C379A000000000000000000000000000000000000000000000000000000000 DUP2 MSTORE PUSH1 0x4 ADD PUSH2 0xE98 SWAP2 SWAP1 PUSH2 0x302A JUMP JUMPDEST PUSH1 0x40 MLOAD DUP1 SWAP2 SUB SWAP1 REVERT JUMPDEST POP PUSH1 0x5 PUSH1 0x9 DUP2 GT ISZERO PUSH2 0xEB6 JUMPI PUSH2 0xEB5 PUSH2 0x35B3 JUMP JUMPDEST JUMPDEST DUP3 PUSH1 0xFF AND PUSH1 0x9 DUP2 GT ISZERO PUSH2 0xECC JUMPI PUSH2 0xECB PUSH2 0x35B3 JUMP JUMPDEST JUMPDEST PUSH1 0x9 DUP2 GT ISZERO PUSH2 0xEDE JUMPI PUSH2 0xEDD PUSH2 0x35B3 JUMP JUMPDEST JUMPDEST EQ ISZERO PUSH1 0x40 MLOAD DUP1 PUSH1 0x60 ADD PUSH1 0x40 MSTORE DUP1 PUSH1 0x31 DUP2 MSTORE PUSH1 0x20 ADD PUSH2 0x3A73 PUSH1 0x31 SWAP2 CODECOPY SWAP1 PUSH2 0xF3A JUMPI PUSH1 0x40 MLOAD PUSH32 0x8C379A000000000000000000000000000000000000000000000000000000000 DUP2 MSTORE PUSH1 0x4 ADD PUSH2 0xF31 SWAP2 SWAP1 PUSH2 0x302A JUMP JUMPDEST PUSH1 0x40 MLOAD DUP1 SWAP2 SUB SWAP1 REVERT JUMPDEST POP PUSH1 0x6 PUSH1 0x9 DUP2 GT ISZERO PUSH2 0xF4F JUMPI PUSH2 0xF4E PUSH2 0x35B3 JUMP JUMPDEST JUMPDEST DUP3 PUSH1 0xFF AND PUSH1 0x9 DUP2 GT ISZERO PUSH2 0xF65 JUMPI PUSH2 0xF64 PUSH2 0x35B3 JUMP JUMPDEST JUMPDEST PUSH1 0x9 DUP2 GT ISZERO PUSH2 0xF77 JUMPI PUSH2 0xF76 PUSH2 0x35B3 JUMP JUMPDEST JUMPDEST EQ ISZERO PUSH1 0x40 MLOAD DUP1 PUSH1 0x60 ADD PUSH1 0x40 MSTORE DUP1 PUSH1 0x31 DUP2 MSTORE PUSH1 0x20 ADD PUSH2 0x3A73 PUSH1 0x31 SWAP2 CODECOPY SWAP1 PUSH2 0xFD3 JUMPI PUSH1 0x40 MLOAD PUSH32 0x8C379A000000000000000000000000000000000000000000000000000000000 DUP2 MSTORE PUSH1 0x4 ADD PUSH2 0xFCA SWAP2 SWAP1 PUSH2 0x302A JUMP JUMPDEST PUSH1 0x40 MLOAD DUP1 SWAP2 SUB SWAP1 REVERT JUMPDEST POP PUSH1 0x0 PUSH1 0x3 PUSH1 0x0 DUP6 DUP2 MSTORE PUSH1 0x20 ADD SWAP1 DUP2 MSTORE PUSH1 0x20 ADD PUSH1 0x0 KECCAK256 SWAP1 POP PUSH1 0x0 DUP2 DUP1 SLOAD SWAP1 POP GT PUSH2 0x1032 JUMPI PUSH1 0x40 MLOAD PUSH32 0x8C379A000000000000000000000000000000000000000000000000000000000 DUP2 MSTORE PUSH1 0x4 ADD PUSH2 0x1029 SWAP1 PUSH2 0x30EC JUMP JUMPDEST PUSH1 0x40 MLOAD DUP1 SWAP2 SUB SWAP1 REVERT JUMPDEST PUSH1 0x0 JUMPDEST DUP2 DUP1 SLOAD SWAP1 POP DUP2 LT ISZERO PUSH2 0x138C JUMPI DUP6 DUP3 DUP3 DUP2 SLOAD DUP2 LT PUSH2 0x1055 JUMPI PUSH2 0x1054 PUSH2 0x3611 JUMP JUMPDEST JUMPDEST SWAP1 PUSH1 0x0 MSTORE PUSH1 0x20 PUSH1 0x0 KECCAK256 SWAP1 PUSH1 0x7 MUL ADD PUSH1 0x0 ADD SLOAD EQ ISZERO PUSH2 0x136E JUMPI PUSH1 0x1 SWAP3 POP PUSH1 0x0 DUP3 DUP3 DUP2 SLOAD DUP2 LT PUSH2 0x1086 JUMPI PUSH2 0x1085 PUSH2 0x3611 JUMP JUMPDEST JUMPDEST SWAP1 PUSH1 0x0 MSTORE PUSH1 0x20 PUSH1 0x0 KECCAK256 SWAP1 PUSH1 0x7 MUL ADD PUSH1 0x4 ADD PUSH1 0x14 PUSH2 0x100 EXP DUP2 SLOAD DUP2 PUSH1 0xFF MUL NOT AND SWAP1 DUP4 ISZERO ISZERO MUL OR SWAP1 SSTORE POP PUSH1 0x7 PUSH1 0x9 DUP2 GT ISZERO PUSH2 0x10C2 JUMPI PUSH2 0x10C1 PUSH2 0x35B3 JUMP JUMPDEST JUMPDEST DUP5 PUSH1 0xFF AND PUSH1 0x9 DUP2 GT ISZERO PUSH2 0x10D8 JUMPI PUSH2 0x10D7 PUSH2 0x35B3 JUMP JUMPDEST JUMPDEST PUSH1 0x9 DUP2 GT ISZERO PUSH2 0x10EA JUMPI PUSH2 0x10E9 PUSH2 0x35B3 JUMP JUMPDEST JUMPDEST EQ DUP1 PUSH2 0x112F JUMPI POP PUSH1 0x6 PUSH1 0x9 DUP2 GT ISZERO PUSH2 0x1105 JUMPI PUSH2 0x1104 PUSH2 0x35B3 JUMP JUMPDEST JUMPDEST DUP5 PUSH1 0xFF AND PUSH1 0x9 DUP2 GT ISZERO PUSH2 0x111B JUMPI PUSH2 0x111A PUSH2 0x35B3 JUMP JUMPDEST JUMPDEST PUSH1 0x9 DUP2 GT ISZERO PUSH2 0x112D JUMPI PUSH2 0x112C PUSH2 0x35B3 JUMP JUMPDEST JUMPDEST EQ JUMPDEST ISZERO PUSH2 0x128C JUMPI PUSH32 0x2DE098063448DBE8B26FA82794CD68CF748EDB4F3E2CC43166E3AD659757019E DUP6 DUP8 DUP7 PUSH1 0xFF AND PUSH1 0x9 DUP2 GT ISZERO PUSH2 0x116D JUMPI PUSH2 0x116C PUSH2 0x35B3 JUMP JUMPDEST JUMPDEST PUSH1 0x40 MLOAD PUSH2 0x117C SWAP4 SWAP3 SWAP2 SWAP1 PUSH2 0x322D JUMP JUMPDEST PUSH1 0x40 MLOAD DUP1 SWAP2 SUB SWAP1 LOG1 PUSH1 0x7 PUSH1 0x9 DUP2 GT ISZERO PUSH2 0x1198 JUMPI PUSH2 0x1197 PUSH2 0x35B3 JUMP JUMPDEST JUMPDEST DUP5 PUSH1 0xFF AND PUSH1 0x9 DUP2 GT ISZERO PUSH2 0x11AE JUMPI PUSH2 0x11AD PUSH2 0x35B3 JUMP JUMPDEST JUMPDEST PUSH1 0x9 DUP2 GT ISZERO PUSH2 0x11C0 JUMPI PUSH2 0x11BF PUSH2 0x35B3 JUMP JUMPDEST JUMPDEST EQ ISZERO PUSH2 0x1207 JUMPI PUSH32 0xBD0E0CBB7F526D9C7052B56C5D1873EE7B834959CD785B696DD0F9D418D9617A DUP6 DUP8 PUSH1 0x8 PUSH1 0x40 MLOAD PUSH2 0x11FA SWAP4 SWAP3 SWAP2 SWAP1 PUSH2 0x322D JUMP JUMPDEST PUSH1 0x40 MLOAD DUP1 SWAP2 SUB SWAP1 LOG1 PUSH2 0x1287 JUMP JUMPDEST PUSH1 0x6 PUSH1 0x9 DUP2 GT ISZERO PUSH2 0x121B JUMPI PUSH2 0x121A PUSH2 0x35B3 JUMP JUMPDEST JUMPDEST DUP5 PUSH1 0xFF AND PUSH1 0x9 DUP2 GT ISZERO PUSH2 0x1231 JUMPI PUSH2 0x1230 PUSH2 0x35B3 JUMP JUMPDEST JUMPDEST PUSH1 0x9 DUP2 GT ISZERO PUSH2 0x1243 JUMPI PUSH2 0x1242 PUSH2 0x35B3 JUMP JUMPDEST JUMPDEST EQ ISZERO PUSH2 0x1286 JUMPI PUSH32 0xBD0E0CBB7F526D9C7052B56C5D1873EE7B834959CD785B696DD0F9D418D9617A DUP6 DUP8 PUSH1 0x9 PUSH1 0x40 MLOAD PUSH2 0x127D SWAP4 SWAP3 SWAP2 SWAP1 PUSH2 0x322D JUMP JUMPDEST PUSH1 0x40 MLOAD DUP1 SWAP2 SUB SWAP1 LOG1 JUMPDEST JUMPDEST PUSH2 0x136D JUMP JUMPDEST DUP4 PUSH1 0xFF AND PUSH1 0x9 DUP2 GT ISZERO PUSH2 0x12A2 JUMPI PUSH2 0x12A1 PUSH2 0x35B3 JUMP JUMPDEST JUMPDEST DUP3 DUP3 DUP2 SLOAD DUP2 LT PUSH2 0x12B5 JUMPI PUSH2 0x12B4 PUSH2 0x3611 JUMP JUMPDEST JUMPDEST SWAP1 PUSH1 0x0 MSTORE PUSH1 0x20 PUSH1 0x0 KECCAK256 SWAP1 PUSH1 0x7 MUL ADD PUSH1 0x6 ADD PUSH1 0x0 PUSH2 0x100 EXP DUP2 SLOAD DUP2 PUSH1 0xFF MUL NOT AND SWAP1 DUP4 PUSH1 0x9 DUP2 GT ISZERO PUSH2 0x12E8 JUMPI PUSH2 0x12E7 PUSH2 0x35B3 JUMP JUMPDEST JUMPDEST MUL OR SWAP1 SSTORE POP PUSH1 0x4 PUSH1 0x9 DUP2 GT ISZERO PUSH2 0x1301 JUMPI PUSH2 0x1300 PUSH2 0x35B3 JUMP JUMPDEST JUMPDEST DUP5 PUSH1 0xFF AND PUSH1 0x9 DUP2 GT ISZERO PUSH2 0x1317 JUMPI PUSH2 0x1316 PUSH2 0x35B3 JUMP JUMPDEST JUMPDEST PUSH1 0x9 DUP2 GT ISZERO PUSH2 0x1329 JUMPI PUSH2 0x1328 PUSH2 0x35B3 JUMP JUMPDEST JUMPDEST EQ ISZERO PUSH2 0x136C JUMPI PUSH32 0xD49FC9FA26FA9FC112EFD004ACB9EEABF80810373D2CBB1A7884D4D64E8E8D2B DUP6 DUP8 PUSH1 0x4 PUSH1 0x40 MLOAD PUSH2 0x1363 SWAP4 SWAP3 SWAP2 SWAP1 PUSH2 0x322D JUMP JUMPDEST PUSH1 0x40 MLOAD DUP1 SWAP2 SUB SWAP1 LOG1 JUMPDEST JUMPDEST JUMPDEST DUP3 ISZERO PUSH2 0x1379 JUMPI PUSH2 0x138C JUMP JUMPDEST DUP1 DUP1 PUSH2 0x1384 SWAP1 PUSH2 0x353B JUMP JUMPDEST SWAP2 POP POP PUSH2 0x1035 JUMP JUMPDEST POP POP POP POP POP POP JUMP JUMPDEST PUSH1 0x0 DUP1 PUSH1 0x0 PUSH1 0x3 PUSH1 0x0 DUP7 DUP2 MSTORE PUSH1 0x20 ADD SWAP1 DUP2 MSTORE PUSH1 0x20 ADD PUSH1 0x0 KECCAK256 SWAP1 POP PUSH1 0x0 DUP2 DUP1 SLOAD SWAP1 POP GT PUSH2 0x13F5 JUMPI PUSH1 0x40 MLOAD PUSH32 0x8C379A000000000000000000000000000000000000000000000000000000000 DUP2 MSTORE PUSH1 0x4 ADD PUSH2 0x13EC SWAP1 PUSH2 0x304C JUMP JUMPDEST PUSH1 0x40 MLOAD DUP1 SWAP2 SUB SWAP1 REVERT JUMPDEST PUSH1 0x0 PUSH1 0x5 PUSH1 0x0 DUP7 DUP2 MSTORE PUSH1 0x20 ADD SWAP1 DUP2 MSTORE PUSH1 0x20 ADD PUSH1 0x0 KECCAK256 SWAP1 POP PUSH1 0x0 JUMPDEST DUP2 DUP1 SLOAD SWAP1 POP DUP2 LT ISZERO PUSH2 0x17D9 JUMPI CALLER PUSH20 0xFFFFFFFFFFFFFFFFFFFFFFFFFFFFFFFFFFFFFFFF AND DUP3 DUP3 DUP2 SLOAD DUP2 LT PUSH2 0x1445 JUMPI PUSH2 0x1444 PUSH2 0x3611 JUMP JUMPDEST JUMPDEST SWAP1 PUSH1 0x0 MSTORE PUSH1 0x20 PUSH1 0x0 KECCAK256 SWAP1 PUSH1 0x3 MUL ADD PUSH1 0x1 ADD PUSH1 0x0 SWAP1 SLOAD SWAP1 PUSH2 0x100 EXP SWAP1 DIV PUSH20 0xFFFFFFFFFFFFFFFFFFFFFFFFFFFFFFFFFFFFFFFF AND PUSH20 0xFFFFFFFFFFFFFFFFFFFFFFFFFFFFFFFFFFFFFFFF AND EQ DUP1 ISZERO PUSH2 0x14CF JUMPI POP PUSH1 0x0 DUP3 DUP3 DUP2 SLOAD DUP2 LT PUSH2 0x14AA JUMPI PUSH2 0x14A9 PUSH2 0x3611 JUMP JUMPDEST JUMPDEST SWAP1 PUSH1 0x0 MSTORE PUSH1 0x20 PUSH1 0x0 KECCAK256 SWAP1 PUSH1 0x3 MUL ADD PUSH1 0x2 ADD PUSH1 0x0 DUP9 DUP2 MSTORE PUSH1 0x20 ADD SWAP1 DUP2 MSTORE PUSH1 0x20 ADD PUSH1 0x0 KECCAK256 SLOAD GT JUMPDEST ISZERO PUSH2 0x17C6 JUMPI PUSH1 0x0 JUMPDEST DUP4 DUP1 SLOAD SWAP1 POP DUP2 LT ISZERO PUSH2 0x16C5 JUMPI DUP7 DUP5 DUP3 DUP2 SLOAD DUP2 LT PUSH2 0x14F7 JUMPI PUSH2 0x14F6 PUSH2 0x3611 JUMP JUMPDEST JUMPDEST SWAP1 PUSH1 0x0 MSTORE PUSH1 0x20 PUSH1 0x0 KECCAK256 SWAP1 PUSH1 0x7 MUL ADD PUSH1 0x0 ADD SLOAD EQ ISZERO PUSH2 0x16B2 JUMPI PUSH1 0x3 PUSH1 0x9 DUP2 GT ISZERO PUSH2 0x1523 JUMPI PUSH2 0x1522 PUSH2 0x35B3 JUMP JUMPDEST JUMPDEST DUP5 DUP3 DUP2 SLOAD DUP2 LT PUSH2 0x1536 JUMPI PUSH2 0x1535 PUSH2 0x3611 JUMP JUMPDEST JUMPDEST SWAP1 PUSH1 0x0 MSTORE PUSH1 0x20 PUSH1 0x0 KECCAK256 SWAP1 PUSH1 0x7 MUL ADD PUSH1 0x6 ADD PUSH1 0x0 SWAP1 SLOAD SWAP1 PUSH2 0x100 EXP SWAP1 DIV PUSH1 0xFF AND PUSH1 0x9 DUP2 GT ISZERO PUSH2 0x1567 JUMPI PUSH2 0x1566 PUSH2 0x35B3 JUMP JUMPDEST JUMPDEST GT ISZERO PUSH2 0x15A8 JUMPI PUSH1 0x40 MLOAD PUSH32 0x8C379A000000000000000000000000000000000000000000000000000000000 DUP2 MSTORE PUSH1 0x4 ADD PUSH2 0x159F SWAP1 PUSH2 0x30AC JUMP JUMPDEST PUSH1 0x40 MLOAD DUP1 SWAP2 SUB SWAP1 REVERT JUMPDEST DUP3 DUP3 DUP2 SLOAD DUP2 LT PUSH2 0x15BB JUMPI PUSH2 0x15BA PUSH2 0x3611 JUMP JUMPDEST JUMPDEST SWAP1 PUSH1 0x0 MSTORE PUSH1 0x20 PUSH1 0x0 KECCAK256 SWAP1 PUSH1 0x3 MUL ADD PUSH1 0x2 ADD PUSH1 0x0 DUP9 DUP2 MSTORE PUSH1 0x20 ADD SWAP1 DUP2 MSTORE PUSH1 0x20 ADD PUSH1 0x0 KECCAK256 SLOAD DUP5 DUP3 DUP2 SLOAD DUP2 LT PUSH2 0x15F1 JUMPI PUSH2 0x15F0 PUSH2 0x3611 JUMP JUMPDEST JUMPDEST SWAP1 PUSH1 0x0 MSTORE PUSH1 0x20 PUSH1 0x0 KECCAK256 SWAP1 PUSH1 0x7 MUL ADD PUSH1 0x3 ADD SLOAD PUSH2 0x160D SWAP2 SWAP1 PUSH2 0x33E8 JUMP JUMPDEST DUP5 DUP3 DUP2 SLOAD DUP2 LT PUSH2 0x1620 JUMPI PUSH2 0x161F PUSH2 0x3611 JUMP JUMPDEST JUMPDEST SWAP1 PUSH1 0x0 MSTORE PUSH1 0x20 PUSH1 0x0 KECCAK256 SWAP1 PUSH1 0x7 MUL ADD PUSH1 0x3 ADD DUP2 SWAP1 SSTORE POP DUP4 DUP2 DUP2 SLOAD DUP2 LT PUSH2 0x1648 JUMPI PUSH2 0x1647 PUSH2 0x3611 JUMP JUMPDEST JUMPDEST SWAP1 PUSH1 0x0 MSTORE PUSH1 0x20 PUSH1 0x0 KECCAK256 SWAP1 PUSH1 0x7 MUL ADD PUSH1 0x4 ADD PUSH1 0x14 SWAP1 SLOAD SWAP1 PUSH2 0x100 EXP SWAP1 DIV PUSH1 0xFF AND PUSH2 0x16A9 JUMPI PUSH1 0x1 DUP5 DUP3 DUP2 SLOAD DUP2 LT PUSH2 0x1680 JUMPI PUSH2 0x167F PUSH2 0x3611 JUMP JUMPDEST JUMPDEST SWAP1 PUSH1 0x0 MSTORE PUSH1 0x20 PUSH1 0x0 KECCAK256 SWAP1 PUSH1 0x7 MUL ADD PUSH1 0x4 ADD PUSH1 0x14 PUSH2 0x100 EXP DUP2 SLOAD DUP2 PUSH1 0xFF MUL NOT AND SWAP1 DUP4 ISZERO ISZERO MUL OR SWAP1 SSTORE POP JUMPDEST PUSH1 0x1 SWAP6 POP PUSH2 0x16C5 JUMP JUMPDEST DUP1 DUP1 PUSH2 0x16BD SWAP1 PUSH2 0x353B JUMP JUMPDEST SWAP2 POP POP PUSH2 0x14D7 JUMP JUMPDEST POP DUP5 PUSH2 0x1706 JUMPI PUSH1 0x40 MLOAD PUSH32 0x8C379A000000000000000000000000000000000000000000000000000000000 DUP2 MSTORE PUSH1 0x4 ADD PUSH2 0x16FD SWAP1 PUSH2 0x316C JUMP JUMPDEST PUSH1 0x40 MLOAD DUP1 SWAP2 SUB SWAP1 REVERT JUMPDEST CALLER PUSH20 0xFFFFFFFFFFFFFFFFFFFFFFFFFFFFFFFFFFFFFFFF AND PUSH2 0x8FC DUP4 DUP4 DUP2 SLOAD DUP2 LT PUSH2 0x1733 JUMPI PUSH2 0x1732 PUSH2 0x3611 JUMP JUMPDEST JUMPDEST SWAP1 PUSH1 0x0 MSTORE PUSH1 0x20 PUSH1 0x0 KECCAK256 SWAP1 PUSH1 0x3 MUL ADD PUSH1 0x2 ADD PUSH1 0x0 DUP10 DUP2 MSTORE PUSH1 0x20 ADD SWAP1 DUP2 MSTORE PUSH1 0x20 ADD PUSH1 0x0 KECCAK256 SLOAD SWAP1 DUP2 ISZERO MUL SWAP1 PUSH1 0x40 MLOAD PUSH1 0x0 PUSH1 0x40 MLOAD DUP1 DUP4 SUB DUP2 DUP6 DUP9 DUP9 CALL SWAP4 POP POP POP POP ISZERO DUP1 ISZERO PUSH2 0x1781 JUMPI RETURNDATASIZE PUSH1 0x0 DUP1 RETURNDATACOPY RETURNDATASIZE PUSH1 0x0 REVERT JUMPDEST POP PUSH1 0x0 DUP3 DUP3 DUP2 SLOAD DUP2 LT PUSH2 0x1797 JUMPI PUSH2 0x1796 PUSH2 0x3611 JUMP JUMPDEST JUMPDEST SWAP1 PUSH1 0x0 MSTORE PUSH1 0x20 PUSH1 0x0 KECCAK256 SWAP1 PUSH1 0x3 MUL ADD PUSH1 0x2 ADD PUSH1 0x0 DUP9 DUP2 MSTORE PUSH1 0x20 ADD SWAP1 DUP2 MSTORE PUSH1 0x20 ADD PUSH1 0x0 KECCAK256 DUP2 SWAP1 SSTORE POP PUSH1 0x1 SWAP4 POP PUSH2 0x17D9 JUMP JUMPDEST DUP1 DUP1 PUSH2 0x17D1 SWAP1 PUSH2 0x353B JUMP JUMPDEST SWAP2 POP POP PUSH2 0x140F JUMP JUMPDEST POP DUP3 PUSH2 0x181A JUMPI PUSH1 0x40 MLOAD PUSH32 0x8C379A000000000000000000000000000000000000000000000000000000000 DUP2 MSTORE PUSH1 0x4 ADD PUSH2 0x1811 SWAP1 PUSH2 0x306C JUMP JUMPDEST PUSH1 0x40 MLOAD DUP1 SWAP2 SUB SWAP1 REVERT JUMPDEST POP POP POP POP POP POP JUMP JUMPDEST PUSH1 0x2 PUSH1 0x0 SWAP1 SLOAD SWAP1 PUSH2 0x100 EXP SWAP1 DIV PUSH20 0xFFFFFFFFFFFFFFFFFFFFFFFFFFFFFFFFFFFFFFFF AND PUSH20 0xFFFFFFFFFFFFFFFFFFFFFFFFFFFFFFFFFFFFFFFF AND CALLER PUSH20 0xFFFFFFFFFFFFFFFFFFFFFFFFFFFFFFFFFFFFFFFF AND EQ ISZERO PUSH1 0x40 MLOAD DUP1 PUSH1 0x60 ADD PUSH1 0x40 MSTORE DUP1 PUSH1 0x2F DUP2 MSTORE PUSH1 0x20 ADD PUSH2 0x3AA4 PUSH1 0x2F SWAP2 CODECOPY SWAP1 PUSH2 0x18CE JUMPI PUSH1 0x40 MLOAD PUSH32 0x8C379A000000000000000000000000000000000000000000000000000000000 DUP2 MSTORE PUSH1 0x4 ADD PUSH2 0x18C5 SWAP2 SWAP1 PUSH2 0x302A JUMP JUMPDEST PUSH1 0x40 MLOAD DUP1 SWAP2 SUB SWAP1 REVERT JUMPDEST POP PUSH1 0x4 PUSH1 0x0 DUP7 DUP2 MSTORE PUSH1 0x20 ADD SWAP1 DUP2 MSTORE PUSH1 0x20 ADD PUSH1 0x0 KECCAK256 PUSH1 0x0 SWAP1 SLOAD SWAP1 PUSH2 0x100 EXP SWAP1 DIV PUSH1 0xFF AND PUSH2 0x192F JUMPI PUSH1 0x40 MLOAD PUSH32 0x8C379A000000000000000000000000000000000000000000000000000000000 DUP2 MSTORE PUSH1 0x4 ADD PUSH2 0x1926 SWAP1 PUSH2 0x310C JUMP JUMPDEST PUSH1 0x40 MLOAD DUP1 SWAP2 SUB SWAP1 REVERT JUMPDEST PUSH1 0x0 PUSH1 0x40 MLOAD DUP1 PUSH2 0x100 ADD PUSH1 0x40 MSTORE DUP1 DUP7 DUP2 MSTORE PUSH1 0x20 ADD PUSH3 0xF4240 DUP2 MSTORE PUSH1 0x20 ADD DUP6 DUP2 MSTORE PUSH1 0x20 ADD PUSH1 0x0 DUP2 MSTORE PUSH1 0x20 ADD DUP5 PUSH20 0xFFFFFFFFFFFFFFFFFFFFFFFFFFFFFFFFFFFFFFFF AND DUP2 MSTORE PUSH1 0x20 ADD PUSH1 0x1 ISZERO ISZERO DUP2 MSTORE PUSH1 0x20 ADD DUP4 DUP2 MSTORE PUSH1 0x20 ADD PUSH1 0x2 PUSH1 0x9 DUP2 GT ISZERO PUSH2 0x1998 JUMPI PUSH2 0x1997 PUSH2 0x35B3 JUMP JUMPDEST JUMPDEST DUP2 MSTORE POP SWAP1 POP PUSH1 0x0 DUP2 SWAP1 DUP1 PUSH1 0x1 DUP2 SLOAD ADD DUP1 DUP3 SSTORE DUP1 SWAP2 POP POP PUSH1 0x1 SWAP1 SUB SWAP1 PUSH1 0x0 MSTORE PUSH1 0x20 PUSH1 0x0 KECCAK256 SWAP1 PUSH1 0x7 MUL ADD PUSH1 0x0 SWAP1 SWAP2 SWAP1 SWAP2 SWAP1 SWAP2 POP PUSH1 0x0 DUP3 ADD MLOAD DUP2 PUSH1 0x0 ADD SSTORE PUSH1 0x20 DUP3 ADD MLOAD DUP2 PUSH1 0x1 ADD SSTORE PUSH1 0x40 DUP3 ADD MLOAD DUP2 PUSH1 0x2 ADD SSTORE PUSH1 0x60 DUP3 ADD MLOAD DUP2 PUSH1 0x3 ADD SSTORE PUSH1 0x80 DUP3 ADD MLOAD DUP2 PUSH1 0x4 ADD PUSH1 0x0 PUSH2 0x100 EXP DUP2 SLOAD DUP2 PUSH20 0xFFFFFFFFFFFFFFFFFFFFFFFFFFFFFFFFFFFFFFFF MUL NOT AND SWAP1 DUP4 PUSH20 0xFFFFFFFFFFFFFFFFFFFFFFFFFFFFFFFFFFFFFFFF AND MUL OR SWAP1 SSTORE POP PUSH1 0xA0 DUP3 ADD MLOAD DUP2 PUSH1 0x4 ADD PUSH1 0x14 PUSH2 0x100 EXP DUP2 SLOAD DUP2 PUSH1 0xFF MUL NOT AND SWAP1 DUP4 ISZERO ISZERO MUL OR SWAP1 SSTORE POP PUSH1 0xC0 DUP3 ADD MLOAD DUP2 PUSH1 0x5 ADD SWAP1 DUP1 MLOAD SWAP1 PUSH1 0x20 ADD SWAP1 PUSH2 0x1A74 SWAP3 SWAP2 SWAP1 PUSH2 0x29D2 JUMP JUMPDEST POP PUSH1 0xE0 DUP3 ADD MLOAD DUP2 PUSH1 0x6 ADD PUSH1 0x0 PUSH2 0x100 EXP DUP2 SLOAD DUP2 PUSH1 0xFF MUL NOT AND SWAP1 DUP4 PUSH1 0x9 DUP2 GT ISZERO PUSH2 0x1AA0 JUMPI PUSH2 0x1A9F PUSH2 0x35B3 JUMP JUMPDEST JUMPDEST MUL OR SWAP1 SSTORE POP POP POP PUSH1 0x3 PUSH1 0x0 DUP8 DUP2 MSTORE PUSH1 0x20 ADD SWAP1 DUP2 MSTORE PUSH1 0x20 ADD PUSH1 0x0 KECCAK256 DUP2 SWAP1 DUP1 PUSH1 0x1 DUP2 SLOAD ADD DUP1 DUP3 SSTORE DUP1 SWAP2 POP POP PUSH1 0x1 SWAP1 SUB SWAP1 PUSH1 0x0 MSTORE PUSH1 0x20 PUSH1 0x0 KECCAK256 SWAP1 PUSH1 0x7 MUL ADD PUSH1 0x0 SWAP1 SWAP2 SWAP1 SWAP2 SWAP1 SWAP2 POP PUSH1 0x0 DUP3 ADD MLOAD DUP2 PUSH1 0x0 ADD SSTORE PUSH1 0x20 DUP3 ADD MLOAD DUP2 PUSH1 0x1 ADD SSTORE PUSH1 0x40 DUP3 ADD MLOAD DUP2 PUSH1 0x2 ADD SSTORE PUSH1 0x60 DUP3 ADD MLOAD DUP2 PUSH1 0x3 ADD SSTORE PUSH1 0x80 DUP3 ADD MLOAD DUP2 PUSH1 0x4 ADD PUSH1 0x0 PUSH2 0x100 EXP DUP2 SLOAD DUP2 PUSH20 0xFFFFFFFFFFFFFFFFFFFFFFFFFFFFFFFFFFFFFFFF MUL NOT AND SWAP1 DUP4 PUSH20 0xFFFFFFFFFFFFFFFFFFFFFFFFFFFFFFFFFFFFFFFF AND MUL OR SWAP1 SSTORE POP PUSH1 0xA0 DUP3 ADD MLOAD DUP2 PUSH1 0x4 ADD PUSH1 0x14 PUSH2 0x100 EXP DUP2 SLOAD DUP2 PUSH1 0xFF MUL NOT AND SWAP1 DUP4 ISZERO ISZERO MUL OR SWAP1 SSTORE POP PUSH1 0xC0 DUP3 ADD MLOAD DUP2 PUSH1 0x5 ADD SWAP1 DUP1 MLOAD SWAP1 PUSH1 0x20 ADD SWAP1 PUSH2 0x1B8F SWAP3 SWAP2 SWAP1 PUSH2 0x29D2 JUMP JUMPDEST POP PUSH1 0xE0 DUP3 ADD MLOAD DUP2 PUSH1 0x6 ADD PUSH1 0x0 PUSH2 0x100 EXP DUP2 SLOAD DUP2 PUSH1 0xFF MUL NOT AND SWAP1 DUP4 PUSH1 0x9 DUP2 GT ISZERO PUSH2 0x1BBB JUMPI PUSH2 0x1BBA PUSH2 0x35B3 JUMP JUMPDEST JUMPDEST MUL OR SWAP1 SSTORE POP POP POP POP POP POP POP POP POP JUMP JUMPDEST PUSH1 0x2 PUSH1 0x0 SWAP1 SLOAD SWAP1 PUSH2 0x100 EXP SWAP1 DIV PUSH20 0xFFFFFFFFFFFFFFFFFFFFFFFFFFFFFFFFFFFFFFFF AND PUSH20 0xFFFFFFFFFFFFFFFFFFFFFFFFFFFFFFFFFFFFFFFF AND CALLER PUSH20 0xFFFFFFFFFFFFFFFFFFFFFFFFFFFFFFFFFFFFFFFF AND EQ PUSH1 0x40 MLOAD DUP1 PUSH1 0x60 ADD PUSH1 0x40 MSTORE DUP1 PUSH1 0x33 DUP2 MSTORE PUSH1 0x20 ADD PUSH2 0x3A40 PUSH1 0x33 SWAP2 CODECOPY SWAP1 PUSH2 0x1C75 JUMPI PUSH1 0x40 MLOAD PUSH32 0x8C379A000000000000000000000000000000000000000000000000000000000 DUP2 MSTORE PUSH1 0x4 ADD PUSH2 0x1C6C SWAP2 SWAP1 PUSH2 0x302A JUMP JUMPDEST PUSH1 0x40 MLOAD DUP1 SWAP2 SUB SWAP1 REVERT JUMPDEST POP PUSH1 0x0 PUSH1 0x1 DUP4 DUP2 SLOAD DUP2 LT PUSH2 0x1C8C JUMPI PUSH2 0x1C8B PUSH2 0x3611 JUMP JUMPDEST JUMPDEST SWAP1 PUSH1 0x0 MSTORE PUSH1 0x20 PUSH1 0x0 KECCAK256 SWAP1 PUSH1 0x5 MUL ADD SWAP1 POP PUSH1 0x1 DUP2 PUSH1 0x1 ADD PUSH1 0x0 PUSH2 0x100 EXP DUP2 SLOAD DUP2 PUSH1 0xFF MUL NOT AND SWAP1 DUP4 ISZERO ISZERO MUL OR SWAP1 SSTORE POP PUSH1 0x1 PUSH1 0x4 PUSH1 0x0 DUP5 DUP2 MSTORE PUSH1 0x20 ADD SWAP1 DUP2 MSTORE PUSH1 0x20 ADD PUSH1 0x0 KECCAK256 PUSH1 0x0 PUSH2 0x100 EXP DUP2 SLOAD DUP2 PUSH1 0xFF MUL NOT AND SWAP1 DUP4 ISZERO ISZERO MUL OR SWAP1 SSTORE POP POP POP POP JUMP JUMPDEST PUSH1 0x60 PUSH1 0x0 PUSH1 0x3 PUSH1 0x0 DUP6 DUP2 MSTORE PUSH1 0x20 ADD SWAP1 DUP2 MSTORE PUSH1 0x20 ADD PUSH1 0x0 KECCAK256 SWAP1 POP PUSH1 0x0 DUP2 DUP1 SLOAD SWAP1 POP GT PUSH2 0x1D4A JUMPI PUSH1 0x40 MLOAD PUSH32 0x8C379A000000000000000000000000000000000000000000000000000000000 DUP2 MSTORE PUSH1 0x4 ADD PUSH2 0x1D41 SWAP1 PUSH2 0x304C JUMP JUMPDEST PUSH1 0x40 MLOAD DUP1 SWAP2 SUB SWAP1 REVERT JUMPDEST PUSH1 0x0 JUMPDEST DUP2 DUP1 SLOAD SWAP1 POP DUP2 LT ISZERO PUSH2 0x1E92 JUMPI DUP4 DUP3 DUP3 DUP2 SLOAD DUP2 LT PUSH2 0x1D6D JUMPI PUSH2 0x1D6C PUSH2 0x3611 JUMP JUMPDEST JUMPDEST SWAP1 PUSH1 0x0 MSTORE PUSH1 0x20 PUSH1 0x0 KECCAK256 SWAP1 PUSH1 0x7 MUL ADD PUSH1 0x0 ADD SLOAD EQ ISZERO PUSH2 0x1E7F JUMPI PUSH1 0x7 PUSH1 0x0 DUP4 DUP4 DUP2 SLOAD DUP2 LT PUSH2 0x1D9C JUMPI PUSH2 0x1D9B PUSH2 0x3611 JUMP JUMPDEST JUMPDEST SWAP1 PUSH1 0x0 MSTORE PUSH1 0x20 PUSH1 0x0 KECCAK256 SWAP1 PUSH1 0x7 MUL ADD PUSH1 0x6 ADD PUSH1 0x0 SWAP1 SLOAD SWAP1 PUSH2 0x100 EXP SWAP1 DIV PUSH1 0xFF AND PUSH1 0x9 DUP2 GT ISZERO PUSH2 0x1DCD JUMPI PUSH2 0x1DCC PUSH2 0x35B3 JUMP JUMPDEST JUMPDEST PUSH1 0x9 DUP2 GT ISZERO PUSH2 0x1DDF JUMPI PUSH2 0x1DDE PUSH2 0x35B3 JUMP JUMPDEST JUMPDEST DUP2 MSTORE PUSH1 0x20 ADD SWAP1 DUP2 MSTORE PUSH1 0x20 ADD PUSH1 0x0 KECCAK256 DUP1 SLOAD PUSH2 0x1DF8 SWAP1 PUSH2 0x34D8 JUMP JUMPDEST DUP1 PUSH1 0x1F ADD PUSH1 0x20 DUP1 SWAP2 DIV MUL PUSH1 0x20 ADD PUSH1 0x40 MLOAD SWAP1 DUP2 ADD PUSH1 0x40 MSTORE DUP1 SWAP3 SWAP2 SWAP1 DUP2 DUP2 MSTORE PUSH1 0x20 ADD DUP3 DUP1 SLOAD PUSH2 0x1E24 SWAP1 PUSH2 0x34D8 JUMP JUMPDEST DUP1 ISZERO PUSH2 0x1E71 JUMPI DUP1 PUSH1 0x1F LT PUSH2 0x1E46 JUMPI PUSH2 0x100 DUP1 DUP4 SLOAD DIV MUL DUP4 MSTORE SWAP2 PUSH1 0x20 ADD SWAP2 PUSH2 0x1E71 JUMP JUMPDEST DUP3 ADD SWAP2 SWAP1 PUSH1 0x0 MSTORE PUSH1 0x20 PUSH1 0x0 KECCAK256 SWAP1 JUMPDEST DUP2 SLOAD DUP2 MSTORE SWAP1 PUSH1 0x1 ADD SWAP1 PUSH1 0x20 ADD DUP1 DUP4 GT PUSH2 0x1E54 JUMPI DUP3 SWAP1 SUB PUSH1 0x1F AND DUP3 ADD SWAP2 JUMPDEST POP POP POP POP POP SWAP3 POP POP POP PUSH2 0x1ECE JUMP JUMPDEST DUP1 DUP1 PUSH2 0x1E8A SWAP1 PUSH2 0x353B JUMP JUMPDEST SWAP2 POP POP PUSH2 0x1D4D JUMP JUMPDEST POP PUSH1 0x40 MLOAD PUSH32 0x8C379A000000000000000000000000000000000000000000000000000000000 DUP2 MSTORE PUSH1 0x4 ADD PUSH2 0x1EC5 SWAP1 PUSH2 0x318C JUMP JUMPDEST PUSH1 0x40 MLOAD DUP1 SWAP2 SUB SWAP1 REVERT JUMPDEST SWAP3 SWAP2 POP POP JUMP JUMPDEST PUSH1 0x0 DUP1 PUSH1 0x3 PUSH1 0x0 DUP6 DUP2 MSTORE PUSH1 0x20 ADD SWAP1 DUP2 MSTORE PUSH1 0x20 ADD PUSH1 0x0 KECCAK256 SWAP1 POP PUSH1 0x0 DUP2 DUP1 SLOAD SWAP1 POP GT PUSH2 0x1F33 JUMPI PUSH1 0x40 MLOAD PUSH32 0x8C379A000000000000000000000000000000000000000000000000000000000 DUP2 MSTORE PUSH1 0x4 ADD PUSH2 0x1F2A SWAP1 PUSH2 0x304C JUMP JUMPDEST PUSH1 0x40 MLOAD DUP1 SWAP2 SUB SWAP1 REVERT JUMPDEST PUSH1 0x0 JUMPDEST DUP2 DUP1 SLOAD SWAP1 POP DUP2 LT ISZERO PUSH2 0x2123 JUMPI DUP4 DUP3 DUP3 DUP2 SLOAD DUP2 LT PUSH2 0x1F56 JUMPI PUSH2 0x1F55 PUSH2 0x3611 JUMP JUMPDEST JUMPDEST SWAP1 PUSH1 0x0 MSTORE PUSH1 0x20 PUSH1 0x0 KECCAK256 SWAP1 PUSH1 0x7 MUL ADD PUSH1 0x0 ADD SLOAD EQ ISZERO PUSH2 0x2110 JUMPI PUSH1 0x7 PUSH1 0x9 DUP2 GT ISZERO PUSH2 0x1F82 JUMPI PUSH2 0x1F81 PUSH2 0x35B3 JUMP JUMPDEST JUMPDEST DUP3 DUP3 DUP2 SLOAD DUP2 LT PUSH2 0x1F95 JUMPI PUSH2 0x1F94 PUSH2 0x3611 JUMP JUMPDEST JUMPDEST SWAP1 PUSH1 0x0 MSTORE PUSH1 0x20 PUSH1 0x0 KECCAK256 SWAP1 PUSH1 0x7 MUL ADD PUSH1 0x6 ADD PUSH1 0x0 SWAP1 SLOAD SWAP1 PUSH2 0x100 EXP SWAP1 DIV PUSH1 0xFF AND PUSH1 0x9 DUP2 GT ISZERO PUSH2 0x1FC6 JUMPI PUSH2 0x1FC5 PUSH2 0x35B3 JUMP JUMPDEST JUMPDEST EQ PUSH2 0x2006 JUMPI PUSH1 0x40 MLOAD PUSH32 0x8C379A000000000000000000000000000000000000000000000000000000000 DUP2 MSTORE PUSH1 0x4 ADD PUSH2 0x1FFD SWAP1 PUSH2 0x30CC JUMP JUMPDEST PUSH1 0x40 MLOAD DUP1 SWAP2 SUB SWAP1 REVERT JUMPDEST PUSH1 0x0 PUSH1 0x5 PUSH1 0x0 DUP7 DUP2 MSTORE PUSH1 0x20 ADD SWAP1 DUP2 MSTORE PUSH1 0x20 ADD PUSH1 0x0 KECCAK256 SWAP1 POP PUSH1 0x0 JUMPDEST DUP2 DUP1 SLOAD SWAP1 POP DUP2 LT ISZERO PUSH2 0x2105 JUMPI PUSH1 0x0 DUP3 DUP3 DUP2 SLOAD DUP2 LT PUSH2 0x2041 JUMPI PUSH2 0x2040 PUSH2 0x3611 JUMP JUMPDEST JUMPDEST SWAP1 PUSH1 0x0 MSTORE PUSH1 0x20 PUSH1 0x0 KECCAK256 SWAP1 PUSH1 0x3 MUL ADD PUSH1 0x2 ADD PUSH1 0x0 DUP9 DUP2 MSTORE PUSH1 0x20 ADD SWAP1 DUP2 MSTORE PUSH1 0x20 ADD PUSH1 0x0 KECCAK256 SLOAD SWAP1 POP DUP3 DUP3 DUP2 SLOAD DUP2 LT PUSH2 0x2079 JUMPI PUSH2 0x2078 PUSH2 0x3611 JUMP JUMPDEST JUMPDEST SWAP1 PUSH1 0x0 MSTORE PUSH1 0x20 PUSH1 0x0 KECCAK256 SWAP1 PUSH1 0x3 MUL ADD PUSH1 0x1 ADD PUSH1 0x0 SWAP1 SLOAD SWAP1 PUSH2 0x100 EXP SWAP1 DIV PUSH20 0xFFFFFFFFFFFFFFFFFFFFFFFFFFFFFFFFFFFFFFFF AND PUSH20 0xFFFFFFFFFFFFFFFFFFFFFFFFFFFFFFFFFFFFFFFF AND PUSH2 0x8FC DUP3 SWAP1 DUP2 ISZERO MUL SWAP1 PUSH1 0x40 MLOAD PUSH1 0x0 PUSH1 0x40 MLOAD DUP1 DUP4 SUB DUP2 DUP6 DUP9 DUP9 CALL SWAP4 POP POP POP POP ISZERO DUP1 ISZERO PUSH2 0x20F0 JUMPI RETURNDATASIZE PUSH1 0x0 DUP1 RETURNDATACOPY RETURNDATASIZE PUSH1 0x0 REVERT JUMPDEST POP POP DUP1 DUP1 PUSH2 0x20FD SWAP1 PUSH2 0x353B JUMP JUMPDEST SWAP2 POP POP PUSH2 0x2020 JUMP JUMPDEST POP PUSH1 0x1 SWAP4 POP POP PUSH2 0x2123 JUMP JUMPDEST DUP1 DUP1 PUSH2 0x211B SWAP1 PUSH2 0x353B JUMP JUMPDEST SWAP2 POP POP PUSH2 0x1F36 JUMP JUMPDEST POP DUP2 PUSH2 0x2164 JUMPI PUSH1 0x40 MLOAD PUSH32 0x8C379A000000000000000000000000000000000000000000000000000000000 DUP2 MSTORE PUSH1 0x4 ADD PUSH2 0x215B SWAP1 PUSH2 0x316C JUMP JUMPDEST PUSH1 0x40 MLOAD DUP1 SWAP2 SUB SWAP1 REVERT JUMPDEST POP POP POP POP JUMP JUMPDEST PUSH1 0x2 PUSH1 0x0 SWAP1 SLOAD SWAP1 PUSH2 0x100 EXP SWAP1 DIV PUSH20 0xFFFFFFFFFFFFFFFFFFFFFFFFFFFFFFFFFFFFFFFF AND DUP2 JUMP JUMPDEST PUSH1 0x2 PUSH1 0x0 SWAP1 SLOAD SWAP1 PUSH2 0x100 EXP SWAP1 DIV PUSH20 0xFFFFFFFFFFFFFFFFFFFFFFFFFFFFFFFFFFFFFFFF AND PUSH20 0xFFFFFFFFFFFFFFFFFFFFFFFFFFFFFFFFFFFFFFFF AND CALLER PUSH20 0xFFFFFFFFFFFFFFFFFFFFFFFFFFFFFFFFFFFFFFFF AND EQ PUSH1 0x40 MLOAD DUP1 PUSH1 0x60 ADD PUSH1 0x40 MSTORE DUP1 PUSH1 0x33 DUP2 MSTORE PUSH1 0x20 ADD PUSH2 0x3A40 PUSH1 0x33 SWAP2 CODECOPY SWAP1 PUSH2 0x223B JUMPI PUSH1 0x40 MLOAD PUSH32 0x8C379A000000000000000000000000000000000000000000000000000000000 DUP2 MSTORE PUSH1 0x4 ADD PUSH2 0x2232 SWAP2 SWAP1 PUSH2 0x302A JUMP JUMPDEST PUSH1 0x40 MLOAD DUP1 SWAP2 SUB SWAP1 REVERT JUMPDEST POP PUSH1 0x0 PUSH1 0x1 DUP4 DUP2 SLOAD DUP2 LT PUSH2 0x2252 JUMPI PUSH2 0x2251 PUSH2 0x3611 JUMP JUMPDEST JUMPDEST SWAP1 PUSH1 0x0 MSTORE PUSH1 0x20 PUSH1 0x0 KECCAK256 SWAP1 PUSH1 0x5 MUL ADD SWAP1 POP PUSH1 0x0 DUP2 PUSH1 0x1 ADD PUSH1 0x0 PUSH2 0x100 EXP DUP2 SLOAD DUP2 PUSH1 0xFF MUL NOT AND SWAP1 DUP4 ISZERO ISZERO MUL OR SWAP1 SSTORE POP DUP2 DUP2 PUSH1 0x2 ADD SWAP1 DUP1 MLOAD SWAP1 PUSH1 0x20 ADD SWAP1 PUSH2 0x2297 SWAP3 SWAP2 SWAP1 PUSH2 0x29D2 JUMP JUMPDEST POP POP POP POP JUMP JUMPDEST PUSH1 0x7 PUSH1 0x20 MSTORE DUP1 PUSH1 0x0 MSTORE PUSH1 0x40 PUSH1 0x0 KECCAK256 PUSH1 0x0 SWAP2 POP SWAP1 POP DUP1 SLOAD PUSH2 0x22BC SWAP1 PUSH2 0x34D8 JUMP JUMPDEST DUP1 PUSH1 0x1F ADD PUSH1 0x20 DUP1 SWAP2 DIV MUL PUSH1 0x20 ADD PUSH1 0x40 MLOAD SWAP1 DUP2 ADD PUSH1 0x40 MSTORE DUP1 SWAP3 SWAP2 SWAP1 DUP2 DUP2 MSTORE PUSH1 0x20 ADD DUP3 DUP1 SLOAD PUSH2 0x22E8 SWAP1 PUSH2 0x34D8 JUMP JUMPDEST DUP1 ISZERO PUSH2 0x2335 JUMPI DUP1 PUSH1 0x1F LT PUSH2 0x230A JUMPI PUSH2 0x100 DUP1 DUP4 SLOAD DIV MUL DUP4 MSTORE SWAP2 PUSH1 0x20 ADD SWAP2 PUSH2 0x2335 JUMP JUMPDEST DUP3 ADD SWAP2 SWAP1 PUSH1 0x0 MSTORE PUSH1 0x20 PUSH1 0x0 KECCAK256 SWAP1 JUMPDEST DUP2 SLOAD DUP2 MSTORE SWAP1 PUSH1 0x1 ADD SWAP1 PUSH1 0x20 ADD DUP1 DUP4 GT PUSH2 0x2318 JUMPI DUP3 SWAP1 SUB PUSH1 0x1F AND DUP3 ADD SWAP2 JUMPDEST POP POP POP POP POP DUP2 JUMP JUMPDEST PUSH1 0x0 DUP1 PUSH1 0x3 PUSH1 0x0 DUP7 DUP2 MSTORE PUSH1 0x20 ADD SWAP1 DUP2 MSTORE PUSH1 0x20 ADD PUSH1 0x0 KECCAK256 SWAP1 POP PUSH1 0x0 DUP2 DUP1 SLOAD SWAP1 POP GT PUSH2 0x239C JUMPI PUSH1 0x40 MLOAD PUSH32 0x8C379A000000000000000000000000000000000000000000000000000000000 DUP2 MSTORE PUSH1 0x4 ADD PUSH2 0x2393 SWAP1 PUSH2 0x304C JUMP JUMPDEST PUSH1 0x40 MLOAD DUP1 SWAP2 SUB SWAP1 REVERT JUMPDEST PUSH1 0x0 JUMPDEST DUP2 DUP1 SLOAD SWAP1 POP DUP2 LT ISZERO PUSH2 0x2807 JUMPI DUP5 DUP3 DUP3 DUP2 SLOAD DUP2 LT PUSH2 0x23BF JUMPI PUSH2 0x23BE PUSH2 0x3611 JUMP JUMPDEST JUMPDEST SWAP1 PUSH1 0x0 MSTORE PUSH1 0x20 PUSH1 0x0 KECCAK256 SWAP1 PUSH1 0x7 MUL ADD PUSH1 0x0 ADD SLOAD EQ ISZERO PUSH2 0x27F4 JUMPI DUP2 DUP2 DUP2 SLOAD DUP2 LT PUSH2 0x23EA JUMPI PUSH2 0x23E9 PUSH2 0x3611 JUMP JUMPDEST JUMPDEST SWAP1 PUSH1 0x0 MSTORE PUSH1 0x20 PUSH1 0x0 KECCAK256 SWAP1 PUSH1 0x7 MUL ADD PUSH1 0x4 ADD PUSH1 0x14 SWAP1 SLOAD SWAP1 PUSH2 0x100 EXP SWAP1 DIV PUSH1 0xFF AND ISZERO PUSH2 0x27B0 JUMPI DUP2 DUP2 DUP2 SLOAD DUP2 LT PUSH2 0x2421 JUMPI PUSH2 0x2420 PUSH2 0x3611 JUMP JUMPDEST JUMPDEST SWAP1 PUSH1 0x0 MSTORE PUSH1 0x20 PUSH1 0x0 KECCAK256 SWAP1 PUSH1 0x7 MUL ADD PUSH1 0x1 ADD SLOAD CALLVALUE LT ISZERO PUSH2 0x2475 JUMPI PUSH1 0x40 MLOAD PUSH32 0x8C379A000000000000000000000000000000000000000000000000000000000 DUP2 MSTORE PUSH1 0x4 ADD PUSH2 0x246C SWAP1 PUSH2 0x308C JUMP JUMPDEST PUSH1 0x40 MLOAD DUP1 SWAP2 SUB SWAP1 REVERT JUMPDEST CALLVALUE DUP3 DUP3 DUP2 SLOAD DUP2 LT PUSH2 0x2489 JUMPI PUSH2 0x2488 PUSH2 0x3611 JUMP JUMPDEST JUMPDEST SWAP1 PUSH1 0x0 MSTORE PUSH1 0x20 PUSH1 0x0 KECCAK256 SWAP1 PUSH1 0x7 MUL ADD PUSH1 0x3 ADD SLOAD PUSH2 0x24A5 SWAP2 SWAP1 PUSH2 0x3392 JUMP JUMPDEST DUP3 DUP3 DUP2 SLOAD DUP2 LT PUSH2 0x24B8 JUMPI PUSH2 0x24B7 PUSH2 0x3611 JUMP JUMPDEST JUMPDEST SWAP1 PUSH1 0x0 MSTORE PUSH1 0x20 PUSH1 0x0 KECCAK256 SWAP1 PUSH1 0x7 MUL ADD PUSH1 0x3 ADD DUP2 SWAP1 SSTORE POP PUSH1 0x0 PUSH1 0x5 PUSH1 0x0 DUP8 DUP2 MSTORE PUSH1 0x20 ADD SWAP1 DUP2 MSTORE PUSH1 0x20 ADD PUSH1 0x0 KECCAK256 SWAP1 POP PUSH1 0x0 DUP2 DUP1 SLOAD SWAP1 POP SWAP1 POP PUSH1 0x0 DUP1 PUSH1 0x0 SWAP1 POP JUMPDEST DUP4 DUP1 SLOAD SWAP1 POP DUP2 LT ISZERO PUSH2 0x25E1 JUMPI CALLER PUSH20 0xFFFFFFFFFFFFFFFFFFFFFFFFFFFFFFFFFFFFFFFF AND DUP5 DUP3 DUP2 SLOAD DUP2 LT PUSH2 0x252B JUMPI PUSH2 0x252A PUSH2 0x3611 JUMP JUMPDEST JUMPDEST SWAP1 PUSH1 0x0 MSTORE PUSH1 0x20 PUSH1 0x0 KECCAK256 SWAP1 PUSH1 0x3 MUL ADD PUSH1 0x1 ADD PUSH1 0x0 SWAP1 SLOAD SWAP1 PUSH2 0x100 EXP SWAP1 DIV PUSH20 0xFFFFFFFFFFFFFFFFFFFFFFFFFFFFFFFFFFFFFFFF AND PUSH20 0xFFFFFFFFFFFFFFFFFFFFFFFFFFFFFFFFFFFFFFFF AND EQ ISZERO PUSH2 0x25CE JUMPI CALLVALUE DUP5 DUP3 DUP2 SLOAD DUP2 LT PUSH2 0x258D JUMPI PUSH2 0x258C PUSH2 0x3611 JUMP JUMPDEST JUMPDEST SWAP1 PUSH1 0x0 MSTORE PUSH1 0x20 PUSH1 0x0 KECCAK256 SWAP1 PUSH1 0x3 MUL ADD PUSH1 0x2 ADD PUSH1 0x0 DUP12 DUP2 MSTORE PUSH1 0x20 ADD SWAP1 DUP2 MSTORE PUSH1 0x20 ADD PUSH1 0x0 KECCAK256 PUSH1 0x0 DUP3 DUP3 SLOAD PUSH2 0x25BE SWAP2 SWAP1 PUSH2 0x3392 JUMP JUMPDEST SWAP3 POP POP DUP2 SWAP1 SSTORE POP PUSH1 0x1 SWAP2 POP PUSH2 0x25E1 JUMP JUMPDEST DUP1 DUP1 PUSH2 0x25D9 SWAP1 PUSH2 0x353B JUMP JUMPDEST SWAP2 POP POP PUSH2 0x24F5 JUMP JUMPDEST POP DUP1 PUSH2 0x2691 JUMPI DUP3 PUSH1 0x1 DUP2 PUSH1 0x1 DUP2 SLOAD ADD DUP1 DUP3 SSTORE DUP1 SWAP2 POP POP SUB SWAP1 PUSH1 0x0 MSTORE PUSH1 0x20 PUSH1 0x0 KECCAK256 SWAP1 POP POP PUSH1 0x0 DUP4 DUP4 DUP2 SLOAD DUP2 LT PUSH2 0x2619 JUMPI PUSH2 0x2618 PUSH2 0x3611 JUMP JUMPDEST JUMPDEST SWAP1 PUSH1 0x0 MSTORE PUSH1 0x20 PUSH1 0x0 KECCAK256 SWAP1 PUSH1 0x3 MUL ADD SWAP1 POP DUP8 DUP2 PUSH1 0x0 ADD DUP2 SWAP1 SSTORE POP CALLER DUP2 PUSH1 0x1 ADD PUSH1 0x0 PUSH2 0x100 EXP DUP2 SLOAD DUP2 PUSH20 0xFFFFFFFFFFFFFFFFFFFFFFFFFFFFFFFFFFFFFFFF MUL NOT AND SWAP1 DUP4 PUSH20 0xFFFFFFFFFFFFFFFFFFFFFFFFFFFFFFFFFFFFFFFF AND MUL OR SWAP1 SSTORE POP CALLVALUE DUP2 PUSH1 0x2 ADD PUSH1 0x0 DUP12 DUP2 MSTORE PUSH1 0x20 ADD SWAP1 DUP2 MSTORE PUSH1 0x20 ADD PUSH1 0x0 KECCAK256 DUP2 SWAP1 SSTORE POP POP JUMPDEST DUP5 DUP5 DUP2 SLOAD DUP2 LT PUSH2 0x26A4 JUMPI PUSH2 0x26A3 PUSH2 0x3611 JUMP JUMPDEST JUMPDEST SWAP1 PUSH1 0x0 MSTORE PUSH1 0x20 PUSH1 0x0 KECCAK256 SWAP1 PUSH1 0x7 MUL ADD PUSH1 0x2 ADD SLOAD DUP6 DUP6 DUP2 SLOAD DUP2 LT PUSH2 0x26C9 JUMPI PUSH2 0x26C8 PUSH2 0x3611 JUMP JUMPDEST JUMPDEST SWAP1 PUSH1 0x0 MSTORE PUSH1 0x20 PUSH1 0x0 KECCAK256 SWAP1 PUSH1 0x7 MUL ADD PUSH1 0x3 ADD SLOAD EQ ISZERO PUSH2 0x27A8 JUMPI PUSH1 0x3 DUP6 DUP6 DUP2 SLOAD DUP2 LT PUSH2 0x26F6 JUMPI PUSH2 0x26F5 PUSH2 0x3611 JUMP JUMPDEST JUMPDEST SWAP1 PUSH1 0x0 MSTORE PUSH1 0x20 PUSH1 0x0 KECCAK256 SWAP1 PUSH1 0x7 MUL ADD PUSH1 0x6 ADD PUSH1 0x0 PUSH2 0x100 EXP DUP2 SLOAD DUP2 PUSH1 0xFF MUL NOT AND SWAP1 DUP4 PUSH1 0x9 DUP2 GT ISZERO PUSH2 0x2729 JUMPI PUSH2 0x2728 PUSH2 0x35B3 JUMP JUMPDEST JUMPDEST MUL OR SWAP1 SSTORE POP PUSH1 0x0 DUP6 DUP6 DUP2 SLOAD DUP2 LT PUSH2 0x2743 JUMPI PUSH2 0x2742 PUSH2 0x3611 JUMP JUMPDEST JUMPDEST SWAP1 PUSH1 0x0 MSTORE PUSH1 0x20 PUSH1 0x0 KECCAK256 SWAP1 PUSH1 0x7 MUL ADD PUSH1 0x4 ADD PUSH1 0x14 PUSH2 0x100 EXP DUP2 SLOAD DUP2 PUSH1 0xFF MUL NOT AND SWAP1 DUP4 ISZERO ISZERO MUL OR SWAP1 SSTORE POP PUSH32 0x4460A3075D16E0C301975989C352ADF5EFEF3F00E4B1CD798431DDDDA7179E58 DUP10 DUP10 PUSH1 0x3 PUSH1 0x40 MLOAD PUSH2 0x279F SWAP4 SWAP3 SWAP2 SWAP1 PUSH2 0x322D JUMP JUMPDEST PUSH1 0x40 MLOAD DUP1 SWAP2 SUB SWAP1 LOG1 JUMPDEST POP POP POP PUSH2 0x27EB JUMP JUMPDEST PUSH1 0x40 MLOAD PUSH32 0x8C379A000000000000000000000000000000000000000000000000000000000 DUP2 MSTORE PUSH1 0x4 ADD PUSH2 0x27E2 SWAP1 PUSH2 0x31AC JUMP JUMPDEST PUSH1 0x40 MLOAD DUP1 SWAP2 SUB SWAP1 REVERT JUMPDEST PUSH1 0x1 SWAP3 POP PUSH2 0x2807 JUMP JUMPDEST DUP1 DUP1 PUSH2 0x27FF SWAP1 PUSH2 0x353B JUMP JUMPDEST SWAP2 POP POP PUSH2 0x239F JUMP JUMPDEST POP DUP2 PUSH2 0x2848 JUMPI PUSH1 0x40 MLOAD PUSH32 0x8C379A000000000000000000000000000000000000000000000000000000000 DUP2 MSTORE PUSH1 0x4 ADD PUSH2 0x283F SWAP1 PUSH2 0x318C JUMP JUMPDEST PUSH1 0x40 MLOAD DUP1 SWAP2 SUB SWAP1 REVERT JUMPDEST POP POP POP POP POP JUMP JUMPDEST PUSH1 0x1 DUP2 DUP2 SLOAD DUP2 LT PUSH2 0x285F JUMPI PUSH1 0x0 DUP1 REVERT JUMPDEST SWAP1 PUSH1 0x0 MSTORE PUSH1 0x20 PUSH1 0x0 KECCAK256 SWAP1 PUSH1 0x5 MUL ADD PUSH1 0x0 SWAP2 POP SWAP1 POP DUP1 PUSH1 0x0 ADD SLOAD SWAP1 DUP1 PUSH1 0x1 ADD PUSH1 0x0 SWAP1 SLOAD SWAP1 PUSH2 0x100 EXP SWAP1 DIV PUSH1 0xFF AND SWAP1 DUP1 PUSH1 0x2 ADD DUP1 SLOAD PUSH2 0x289B SWAP1 PUSH2 0x34D8 JUMP JUMPDEST DUP1 PUSH1 0x1F ADD PUSH1 0x20 DUP1 SWAP2 DIV MUL PUSH1 0x20 ADD PUSH1 0x40 MLOAD SWAP1 DUP2 ADD PUSH1 0x40 MSTORE DUP1 SWAP3 SWAP2 SWAP1 DUP2 DUP2 MSTORE PUSH1 0x20 ADD DUP3 DUP1 SLOAD PUSH2 0x28C7 SWAP1 PUSH2 0x34D8 JUMP JUMPDEST DUP1 ISZERO PUSH2 0x2914 JUMPI DUP1 PUSH1 0x1F LT PUSH2 0x28E9 JUMPI PUSH2 0x100 DUP1 DUP4 SLOAD DIV MUL DUP4 MSTORE SWAP2 PUSH1 0x20 ADD SWAP2 PUSH2 0x2914 JUMP JUMPDEST DUP3 ADD SWAP2 SWAP1 PUSH1 0x0 MSTORE PUSH1 0x20 PUSH1 0x0 KECCAK256 SWAP1 JUMPDEST DUP2 SLOAD DUP2 MSTORE SWAP1 PUSH1 0x1 ADD SWAP1 PUSH1 0x20 ADD DUP1 DUP4 GT PUSH2 0x28F7 JUMPI DUP3 SWAP1 SUB PUSH1 0x1F AND DUP3 ADD SWAP2 JUMPDEST POP POP POP POP POP SWAP1 DUP1 PUSH1 0x3 ADD DUP1 SLOAD PUSH2 0x2929 SWAP1 PUSH2 0x34D8 JUMP JUMPDEST DUP1 PUSH1 0x1F ADD PUSH1 0x20 DUP1 SWAP2 DIV MUL PUSH1 0x20 ADD PUSH1 0x40 MLOAD SWAP1 DUP2 ADD PUSH1 0x40 MSTORE DUP1 SWAP3 SWAP2 SWAP1 DUP2 DUP2 MSTORE PUSH1 0x20 ADD DUP3 DUP1 SLOAD PUSH2 0x2955 SWAP1 PUSH2 0x34D8 JUMP JUMPDEST DUP1 ISZERO PUSH2 0x29A2 JUMPI DUP1 PUSH1 0x1F LT PUSH2 0x2977 JUMPI PUSH2 0x100 DUP1 DUP4 SLOAD DIV MUL DUP4 MSTORE SWAP2 PUSH1 0x20 ADD SWAP2 PUSH2 0x29A2 JUMP JUMPDEST DUP3 ADD SWAP2 SWAP1 PUSH1 0x0 MSTORE PUSH1 0x20 PUSH1 0x0 KECCAK256 SWAP1 JUMPDEST DUP2 SLOAD DUP2 MSTORE SWAP1 PUSH1 0x1 ADD SWAP1 PUSH1 0x20 ADD DUP1 DUP4 GT PUSH2 0x2985 JUMPI DUP3 SWAP1 SUB PUSH1 0x1F AND DUP3 ADD SWAP2 JUMPDEST POP POP POP POP POP SWAP1 DUP1 PUSH1 0x4 ADD PUSH1 0x0 SWAP1 SLOAD SWAP1 PUSH2 0x100 EXP SWAP1 DIV PUSH20 0xFFFFFFFFFFFFFFFFFFFFFFFFFFFFFFFFFFFFFFFF AND SWAP1 POP DUP6 JUMP JUMPDEST DUP3 DUP1 SLOAD PUSH2 0x29DE SWAP1 PUSH2 0x34D8 JUMP JUMPDEST SWAP1 PUSH1 0x0 MSTORE PUSH1 0x20 PUSH1 0x0 KECCAK256 SWAP1 PUSH1 0x1F ADD PUSH1 0x20 SWAP1 DIV DUP2 ADD SWAP3 DUP3 PUSH2 0x2A00 JUMPI PUSH1 0x0 DUP6 SSTORE PUSH2 0x2A47 JUMP JUMPDEST DUP3 PUSH1 0x1F LT PUSH2 0x2A19 JUMPI DUP1 MLOAD PUSH1 0xFF NOT AND DUP4 DUP1 ADD OR DUP6 SSTORE PUSH2 0x2A47 JUMP JUMPDEST DUP3 DUP1 ADD PUSH1 0x1 ADD DUP6 SSTORE DUP3 ISZERO PUSH2 0x2A47 JUMPI SWAP2 DUP3 ADD JUMPDEST DUP3 DUP2 GT ISZERO PUSH2 0x2A46 JUMPI DUP3 MLOAD DUP3 SSTORE SWAP2 PUSH1 0x20 ADD SWAP2 SWAP1 PUSH1 0x1 ADD SWAP1 PUSH2 0x2A2B JUMP JUMPDEST JUMPDEST POP SWAP1 POP PUSH2 0x2A54 SWAP2 SWAP1 PUSH2 0x2A58 JUMP JUMPDEST POP SWAP1 JUMP JUMPDEST JUMPDEST DUP1 DUP3 GT ISZERO PUSH2 0x2A71 JUMPI PUSH1 0x0 DUP2 PUSH1 0x0 SWAP1 SSTORE POP PUSH1 0x1 ADD PUSH2 0x2A59 JUMP JUMPDEST POP SWAP1 JUMP JUMPDEST PUSH1 0x0 PUSH2 0x2A88 PUSH2 0x2A83 DUP5 PUSH2 0x3345 JUMP JUMPDEST PUSH2 0x3320 JUMP JUMPDEST SWAP1 POP DUP3 DUP2 MSTORE PUSH1 0x20 DUP2 ADD DUP5 DUP5 DUP5 ADD GT ISZERO PUSH2 0x2AA4 JUMPI PUSH2 0x2AA3 PUSH2 0x3674 JUMP JUMPDEST JUMPDEST PUSH2 0x2AAF DUP5 DUP3 DUP6 PUSH2 0x3496 JUMP JUMPDEST POP SWAP4 SWAP3 POP POP POP JUMP JUMPDEST PUSH1 0x0 DUP2 CALLDATALOAD SWAP1 POP PUSH2 0x2AC6 DUP2 PUSH2 0x39EA JUMP JUMPDEST SWAP3 SWAP2 POP POP JUMP JUMPDEST PUSH1 0x0 DUP2 CALLDATALOAD SWAP1 POP PUSH2 0x2ADB DUP2 PUSH2 0x3A01 JUMP JUMPDEST SWAP3 SWAP2 POP POP JUMP JUMPDEST PUSH1 0x0 DUP3 PUSH1 0x1F DUP4 ADD SLT PUSH2 0x2AF6 JUMPI PUSH2 0x2AF5 PUSH2 0x366F JUMP JUMPDEST JUMPDEST DUP2 CALLDATALOAD PUSH2 0x2B06 DUP5 DUP3 PUSH1 0x20 DUP7 ADD PUSH2 0x2A75 JUMP JUMPDEST SWAP2 POP POP SWAP3 SWAP2 POP POP JUMP JUMPDEST PUSH1 0x0 DUP2 CALLDATALOAD SWAP1 POP PUSH2 0x2B1E DUP2 PUSH2 0x3A11 JUMP JUMPDEST SWAP3 SWAP2 POP POP JUMP JUMPDEST PUSH1 0x0 DUP2 CALLDATALOAD SWAP1 POP PUSH2 0x2B33 DUP2 PUSH2 0x3A28 JUMP JUMPDEST SWAP3 SWAP2 POP POP JUMP JUMPDEST PUSH1 0x0 PUSH1 0x20 DUP3 DUP5 SUB SLT ISZERO PUSH2 0x2B4F JUMPI PUSH2 0x2B4E PUSH2 0x367E JUMP JUMPDEST JUMPDEST PUSH1 0x0 PUSH2 0x2B5D DUP5 DUP3 DUP6 ADD PUSH2 0x2ACC JUMP JUMPDEST SWAP2 POP POP SWAP3 SWAP2 POP POP JUMP JUMPDEST PUSH1 0x0 PUSH1 0x20 DUP3 DUP5 SUB SLT ISZERO PUSH2 0x2B7C JUMPI PUSH2 0x2B7B PUSH2 0x367E JUMP JUMPDEST JUMPDEST PUSH1 0x0 PUSH2 0x2B8A DUP5 DUP3 DUP6 ADD PUSH2 0x2B0F JUMP JUMPDEST SWAP2 POP POP SWAP3 SWAP2 POP POP JUMP JUMPDEST PUSH1 0x0 DUP1 PUSH1 0x40 DUP4 DUP6 SUB SLT ISZERO PUSH2 0x2BAA JUMPI PUSH2 0x2BA9 PUSH2 0x367E JUMP JUMPDEST JUMPDEST PUSH1 0x0 PUSH2 0x2BB8 DUP6 DUP3 DUP7 ADD PUSH2 0x2B0F JUMP JUMPDEST SWAP3 POP POP PUSH1 0x20 DUP4 ADD CALLDATALOAD PUSH8 0xFFFFFFFFFFFFFFFF DUP2 GT ISZERO PUSH2 0x2BD9 JUMPI PUSH2 0x2BD8 PUSH2 0x3679 JUMP JUMPDEST JUMPDEST PUSH2 0x2BE5 DUP6 DUP3 DUP7 ADD PUSH2 0x2AE1 JUMP JUMPDEST SWAP2 POP POP SWAP3 POP SWAP3 SWAP1 POP JUMP JUMPDEST PUSH1 0x0 DUP1 PUSH1 0x0 PUSH1 0x60 DUP5 DUP7 SUB SLT ISZERO PUSH2 0x2C08 JUMPI PUSH2 0x2C07 PUSH2 0x367E JUMP JUMPDEST JUMPDEST PUSH1 0x0 PUSH2 0x2C16 DUP7 DUP3 DUP8 ADD PUSH2 0x2B0F JUMP JUMPDEST SWAP4 POP POP PUSH1 0x20 DUP5 ADD CALLDATALOAD PUSH8 0xFFFFFFFFFFFFFFFF DUP2 GT ISZERO PUSH2 0x2C37 JUMPI PUSH2 0x2C36 PUSH2 0x3679 JUMP JUMPDEST JUMPDEST PUSH2 0x2C43 DUP7 DUP3 DUP8 ADD PUSH2 0x2AE1 JUMP JUMPDEST SWAP3 POP POP PUSH1 0x40 PUSH2 0x2C54 DUP7 DUP3 DUP8 ADD PUSH2 0x2AB7 JUMP JUMPDEST SWAP2 POP POP SWAP3 POP SWAP3 POP SWAP3 JUMP JUMPDEST PUSH1 0x0 DUP1 PUSH1 0x40 DUP4 DUP6 SUB SLT ISZERO PUSH2 0x2C75 JUMPI PUSH2 0x2C74 PUSH2 0x367E JUMP JUMPDEST JUMPDEST PUSH1 0x0 PUSH2 0x2C83 DUP6 DUP3 DUP7 ADD PUSH2 0x2B0F JUMP JUMPDEST SWAP3 POP POP PUSH1 0x20 PUSH2 0x2C94 DUP6 DUP3 DUP7 ADD PUSH2 0x2B0F JUMP JUMPDEST SWAP2 POP POP SWAP3 POP SWAP3 SWAP1 POP JUMP JUMPDEST PUSH1 0x0 DUP1 PUSH1 0x0 PUSH1 0x60 DUP5 DUP7 SUB SLT ISZERO PUSH2 0x2CB7 JUMPI PUSH2 0x2CB6 PUSH2 0x367E JUMP JUMPDEST JUMPDEST PUSH1 0x0 PUSH2 0x2CC5 DUP7 DUP3 DUP8 ADD PUSH2 0x2B0F JUMP JUMPDEST SWAP4 POP POP PUSH1 0x20 PUSH2 0x2CD6 DUP7 DUP3 DUP8 ADD PUSH2 0x2B0F JUMP JUMPDEST SWAP3 POP POP PUSH1 0x40 PUSH2 0x2CE7 DUP7 DUP3 DUP8 ADD PUSH2 0x2B0F JUMP JUMPDEST SWAP2 POP POP SWAP3 POP SWAP3 POP SWAP3 JUMP JUMPDEST PUSH1 0x0 DUP1 PUSH1 0x0 DUP1 PUSH1 0x0 PUSH1 0xA0 DUP7 DUP9 SUB SLT ISZERO PUSH2 0x2D0D JUMPI PUSH2 0x2D0C PUSH2 0x367E JUMP JUMPDEST JUMPDEST PUSH1 0x0 PUSH2 0x2D1B DUP9 DUP3 DUP10 ADD PUSH2 0x2B0F JUMP JUMPDEST SWAP6 POP POP PUSH1 0x20 PUSH2 0x2D2C DUP9 DUP3 DUP10 ADD PUSH2 0x2B0F JUMP JUMPDEST SWAP5 POP POP PUSH1 0x40 PUSH2 0x2D3D DUP9 DUP3 DUP10 ADD PUSH2 0x2B0F JUMP JUMPDEST SWAP4 POP POP PUSH1 0x60 PUSH2 0x2D4E DUP9 DUP3 DUP10 ADD PUSH2 0x2AB7 JUMP JUMPDEST SWAP3 POP POP PUSH1 0x80 DUP7 ADD CALLDATALOAD PUSH8 0xFFFFFFFFFFFFFFFF DUP2 GT ISZERO PUSH2 0x2D6F JUMPI PUSH2 0x2D6E PUSH2 0x3679 JUMP JUMPDEST JUMPDEST PUSH2 0x2D7B DUP9 DUP3 DUP10 ADD PUSH2 0x2AE1 JUMP JUMPDEST SWAP2 POP POP SWAP3 SWAP6 POP SWAP3 SWAP6 SWAP1 SWAP4 POP JUMP JUMPDEST PUSH1 0x0 DUP1 PUSH1 0x0 PUSH1 0x60 DUP5 DUP7 SUB SLT ISZERO PUSH2 0x2DA1 JUMPI PUSH2 0x2DA0 PUSH2 0x367E JUMP JUMPDEST JUMPDEST PUSH1 0x0 PUSH2 0x2DAF DUP7 DUP3 DUP8 ADD PUSH2 0x2B0F JUMP JUMPDEST SWAP4 POP POP PUSH1 0x20 PUSH2 0x2DC0 DUP7 DUP3 DUP8 ADD PUSH2 0x2B0F JUMP JUMPDEST SWAP3 POP POP PUSH1 0x40 PUSH2 0x2DD1 DUP7 DUP3 DUP8 ADD PUSH2 0x2B24 JUMP JUMPDEST SWAP2 POP POP SWAP3 POP SWAP3 POP SWAP3 JUMP JUMPDEST PUSH2 0x2DE4 DUP2 PUSH2 0x341C JUMP JUMPDEST DUP3 MSTORE POP POP JUMP JUMPDEST PUSH2 0x2DF3 DUP2 PUSH2 0x342E JUMP JUMPDEST DUP3 MSTORE POP POP JUMP JUMPDEST PUSH2 0x2E02 DUP2 PUSH2 0x3484 JUMP JUMPDEST DUP3 MSTORE POP POP JUMP JUMPDEST PUSH1 0x0 PUSH2 0x2E13 DUP3 PUSH2 0x3376 JUMP JUMPDEST PUSH2 0x2E1D DUP2 DUP6 PUSH2 0x3381 JUMP JUMPDEST SWAP4 POP PUSH2 0x2E2D DUP2 DUP6 PUSH1 0x20 DUP7 ADD PUSH2 0x34A5 JUMP JUMPDEST PUSH2 0x2E36 DUP2 PUSH2 0x3683 JUMP JUMPDEST DUP5 ADD SWAP2 POP POP SWAP3 SWAP2 POP POP JUMP JUMPDEST PUSH1 0x0 PUSH2 0x2E4E PUSH1 0x11 DUP4 PUSH2 0x3381 JUMP JUMPDEST SWAP2 POP PUSH2 0x2E59 DUP3 PUSH2 0x3694 JUMP JUMPDEST PUSH1 0x20 DUP3 ADD SWAP1 POP SWAP2 SWAP1 POP JUMP JUMPDEST PUSH1 0x0 PUSH2 0x2E71 PUSH1 0x28 DUP4 PUSH2 0x3381 JUMP JUMPDEST SWAP2 POP PUSH2 0x2E7C DUP3 PUSH2 0x36BD JUMP JUMPDEST PUSH1 0x40 DUP3 ADD SWAP1 POP SWAP2 SWAP1 POP JUMP JUMPDEST PUSH1 0x0 PUSH2 0x2E94 PUSH1 0x25 DUP4 PUSH2 0x3381 JUMP JUMPDEST SWAP2 POP PUSH2 0x2E9F DUP3 PUSH2 0x370C JUMP JUMPDEST PUSH1 0x40 DUP3 ADD SWAP1 POP SWAP2 SWAP1 POP JUMP JUMPDEST PUSH1 0x0 PUSH2 0x2EB7 PUSH1 0x41 DUP4 PUSH2 0x3381 JUMP JUMPDEST SWAP2 POP PUSH2 0x2EC2 DUP3 PUSH2 0x375B JUMP JUMPDEST PUSH1 0x60 DUP3 ADD SWAP1 POP SWAP2 SWAP1 POP JUMP JUMPDEST PUSH1 0x0 PUSH2 0x2EDA PUSH1 0x3E DUP4 PUSH2 0x3381 JUMP JUMPDEST SWAP2 POP PUSH2 0x2EE5 DUP3 PUSH2 0x37D0 JUMP JUMPDEST PUSH1 0x40 DUP3 ADD SWAP1 POP SWAP2 SWAP1 POP JUMP JUMPDEST PUSH1 0x0 PUSH2 0x2EFD PUSH1 0x15 DUP4 PUSH2 0x3381 JUMP JUMPDEST SWAP2 POP PUSH2 0x2F08 DUP3 PUSH2 0x381F JUMP JUMPDEST PUSH1 0x20 DUP3 ADD SWAP1 POP SWAP2 SWAP1 POP JUMP JUMPDEST PUSH1 0x0 PUSH2 0x2F20 PUSH1 0x1B DUP4 PUSH2 0x3381 JUMP JUMPDEST SWAP2 POP PUSH2 0x2F2B DUP3 PUSH2 0x3848 JUMP JUMPDEST PUSH1 0x20 DUP3 ADD SWAP1 POP SWAP2 SWAP1 POP JUMP JUMPDEST PUSH1 0x0 PUSH2 0x2F43 PUSH1 0x23 DUP4 PUSH2 0x3381 JUMP JUMPDEST SWAP2 POP PUSH2 0x2F4E DUP3 PUSH2 0x3871 JUMP JUMPDEST PUSH1 0x40 DUP3 ADD SWAP1 POP SWAP2 SWAP1 POP JUMP JUMPDEST PUSH1 0x0 PUSH2 0x2F66 PUSH1 0x15 DUP4 PUSH2 0x3381 JUMP JUMPDEST SWAP2 POP PUSH2 0x2F71 DUP3 PUSH2 0x38C0 JUMP JUMPDEST PUSH1 0x20 DUP3 ADD SWAP1 POP SWAP2 SWAP1 POP JUMP JUMPDEST PUSH1 0x0 PUSH2 0x2F89 PUSH1 0x25 DUP4 PUSH2 0x3381 JUMP JUMPDEST SWAP2 POP PUSH2 0x2F94 DUP3 PUSH2 0x38E9 JUMP JUMPDEST PUSH1 0x40 DUP3 ADD SWAP1 POP SWAP2 SWAP1 POP JUMP JUMPDEST PUSH1 0x0 PUSH2 0x2FAC PUSH1 0x28 DUP4 PUSH2 0x3381 JUMP JUMPDEST SWAP2 POP PUSH2 0x2FB7 DUP3 PUSH2 0x3938 JUMP JUMPDEST PUSH1 0x40 DUP3 ADD SWAP1 POP SWAP2 SWAP1 POP JUMP JUMPDEST PUSH1 0x0 PUSH2 0x2FCF PUSH1 0x2C DUP4 PUSH2 0x3381 JUMP JUMPDEST SWAP2 POP PUSH2 0x2FDA DUP3 PUSH2 0x3987 JUMP JUMPDEST PUSH1 0x40 DUP3 ADD SWAP1 POP SWAP2 SWAP1 POP JUMP JUMPDEST PUSH2 0x2FEE DUP2 PUSH2 0x346D JUMP JUMPDEST DUP3 MSTORE POP POP JUMP JUMPDEST PUSH1 0x0 PUSH1 0x20 DUP3 ADD SWAP1 POP PUSH2 0x3009 PUSH1 0x0 DUP4 ADD DUP5 PUSH2 0x2DDB JUMP JUMPDEST SWAP3 SWAP2 POP POP JUMP JUMPDEST PUSH1 0x0 PUSH1 0x20 DUP3 ADD SWAP1 POP PUSH2 0x3024 PUSH1 0x0 DUP4 ADD DUP5 PUSH2 0x2DF9 JUMP JUMPDEST SWAP3 SWAP2 POP POP JUMP JUMPDEST PUSH1 0x0 PUSH1 0x20 DUP3 ADD SWAP1 POP DUP2 DUP2 SUB PUSH1 0x0 DUP4 ADD MSTORE PUSH2 0x3044 DUP2 DUP5 PUSH2 0x2E08 JUMP JUMPDEST SWAP1 POP SWAP3 SWAP2 POP POP JUMP JUMPDEST PUSH1 0x0 PUSH1 0x20 DUP3 ADD SWAP1 POP DUP2 DUP2 SUB PUSH1 0x0 DUP4 ADD MSTORE PUSH2 0x3065 DUP2 PUSH2 0x2E41 JUMP JUMPDEST SWAP1 POP SWAP2 SWAP1 POP JUMP JUMPDEST PUSH1 0x0 PUSH1 0x20 DUP3 ADD SWAP1 POP DUP2 DUP2 SUB PUSH1 0x0 DUP4 ADD MSTORE PUSH2 0x3085 DUP2 PUSH2 0x2E64 JUMP JUMPDEST SWAP1 POP SWAP2 SWAP1 POP JUMP JUMPDEST PUSH1 0x0 PUSH1 0x20 DUP3 ADD SWAP1 POP DUP2 DUP2 SUB PUSH1 0x0 DUP4 ADD MSTORE PUSH2 0x30A5 DUP2 PUSH2 0x2E87 JUMP JUMPDEST SWAP1 POP SWAP2 SWAP1 POP JUMP JUMPDEST PUSH1 0x0 PUSH1 0x20 DUP3 ADD SWAP1 POP DUP2 DUP2 SUB PUSH1 0x0 DUP4 ADD MSTORE PUSH2 0x30C5 DUP2 PUSH2 0x2EAA JUMP JUMPDEST SWAP1 POP SWAP2 SWAP1 POP JUMP JUMPDEST PUSH1 0x0 PUSH1 0x20 DUP3 ADD SWAP1 POP DUP2 DUP2 SUB PUSH1 0x0 DUP4 ADD MSTORE PUSH2 0x30E5 DUP2 PUSH2 0x2ECD JUMP JUMPDEST SWAP1 POP SWAP2 SWAP1 POP JUMP JUMPDEST PUSH1 0x0 PUSH1 0x20 DUP3 ADD SWAP1 POP DUP2 DUP2 SUB PUSH1 0x0 DUP4 ADD MSTORE PUSH2 0x3105 DUP2 PUSH2 0x2EF0 JUMP JUMPDEST SWAP1 POP SWAP2 SWAP1 POP JUMP JUMPDEST PUSH1 0x0 PUSH1 0x20 DUP3 ADD SWAP1 POP DUP2 DUP2 SUB PUSH1 0x0 DUP4 ADD MSTORE PUSH2 0x3125 DUP2 PUSH2 0x2F13 JUMP JUMPDEST SWAP1 POP SWAP2 SWAP1 POP JUMP JUMPDEST PUSH1 0x0 PUSH1 0x20 DUP3 ADD SWAP1 POP DUP2 DUP2 SUB PUSH1 0x0 DUP4 ADD MSTORE PUSH2 0x3145 DUP2 PUSH2 0x2F36 JUMP JUMPDEST SWAP1 POP SWAP2 SWAP1 POP JUMP JUMPDEST PUSH1 0x0 PUSH1 0x20 DUP3 ADD SWAP1 POP DUP2 DUP2 SUB PUSH1 0x0 DUP4 ADD MSTORE PUSH2 0x3165 DUP2 PUSH2 0x2F59 JUMP JUMPDEST SWAP1 POP SWAP2 SWAP1 POP JUMP JUMPDEST PUSH1 0x0 PUSH1 0x20 DUP3 ADD SWAP1 POP DUP2 DUP2 SUB PUSH1 0x0 DUP4 ADD MSTORE PUSH2 0x3185 DUP2 PUSH2 0x2F7C JUMP JUMPDEST SWAP1 POP SWAP2 SWAP1 POP JUMP JUMPDEST PUSH1 0x0 PUSH1 0x20 DUP3 ADD SWAP1 POP DUP2 DUP2 SUB PUSH1 0x0 DUP4 ADD MSTORE PUSH2 0x31A5 DUP2 PUSH2 0x2F9F JUMP JUMPDEST SWAP1 POP SWAP2 SWAP1 POP JUMP JUMPDEST PUSH1 0x0 PUSH1 0x20 DUP3 ADD SWAP1 POP DUP2 DUP2 SUB PUSH1 0x0 DUP4 ADD MSTORE PUSH2 0x31C5 DUP2 PUSH2 0x2FC2 JUMP JUMPDEST SWAP1 POP SWAP2 SWAP1 POP JUMP JUMPDEST PUSH1 0x0 PUSH1 0xA0 DUP3 ADD SWAP1 POP PUSH2 0x31E1 PUSH1 0x0 DUP4 ADD DUP9 PUSH2 0x2FE5 JUMP JUMPDEST PUSH2 0x31EE PUSH1 0x20 DUP4 ADD DUP8 PUSH2 0x2DEA JUMP JUMPDEST DUP2 DUP2 SUB PUSH1 0x40 DUP4 ADD MSTORE PUSH2 0x3200 DUP2 DUP7 PUSH2 0x2E08 JUMP JUMPDEST SWAP1 POP DUP2 DUP2 SUB PUSH1 0x60 DUP4 ADD MSTORE PUSH2 0x3214 DUP2 DUP6 PUSH2 0x2E08 JUMP JUMPDEST SWAP1 POP PUSH2 0x3223 PUSH1 0x80 DUP4 ADD DUP5 PUSH2 0x2DDB JUMP JUMPDEST SWAP7 SWAP6 POP POP POP POP POP POP JUMP JUMPDEST PUSH1 0x0 PUSH1 0x60 DUP3 ADD SWAP1 POP PUSH2 0x3242 PUSH1 0x0 DUP4 ADD DUP7 PUSH2 0x2FE5 JUMP JUMPDEST PUSH2 0x324F PUSH1 0x20 DUP4 ADD DUP6 PUSH2 0x2FE5 JUMP JUMPDEST PUSH2 0x325C PUSH1 0x40 DUP4 ADD DUP5 PUSH2 0x2DF9 JUMP JUMPDEST SWAP5 SWAP4 POP POP POP POP JUMP JUMPDEST PUSH1 0x0 PUSH1 0x60 DUP3 ADD SWAP1 POP PUSH2 0x3279 PUSH1 0x0 DUP4 ADD DUP7 PUSH2 0x2FE5 JUMP JUMPDEST PUSH2 0x3286 PUSH1 0x20 DUP4 ADD DUP6 PUSH2 0x2FE5 JUMP JUMPDEST PUSH2 0x3293 PUSH1 0x40 DUP4 ADD DUP5 PUSH2 0x2FE5 JUMP JUMPDEST SWAP5 SWAP4 POP POP POP POP JUMP JUMPDEST PUSH1 0x0 PUSH2 0x100 DUP3 ADD SWAP1 POP PUSH2 0x32B1 PUSH1 0x0 DUP4 ADD DUP12 PUSH2 0x2FE5 JUMP JUMPDEST PUSH2 0x32BE PUSH1 0x20 DUP4 ADD DUP11 PUSH2 0x2FE5 JUMP JUMPDEST PUSH2 0x32CB PUSH1 0x40 DUP4 ADD DUP10 PUSH2 0x2FE5 JUMP JUMPDEST PUSH2 0x32D8 PUSH1 0x60 DUP4 ADD DUP9 PUSH2 0x2FE5 JUMP JUMPDEST PUSH2 0x32E5 PUSH1 0x80 DUP4 ADD DUP8 PUSH2 0x2DDB JUMP JUMPDEST PUSH2 0x32F2 PUSH1 0xA0 DUP4 ADD DUP7 PUSH2 0x2DEA JUMP JUMPDEST DUP2 DUP2 SUB PUSH1 0xC0 DUP4 ADD MSTORE PUSH2 0x3304 DUP2 DUP6 PUSH2 0x2E08 JUMP JUMPDEST SWAP1 POP PUSH2 0x3313 PUSH1 0xE0 DUP4 ADD DUP5 PUSH2 0x2DF9 JUMP JUMPDEST SWAP10 SWAP9 POP POP POP POP POP POP POP POP POP JUMP JUMPDEST PUSH1 0x0 PUSH2 0x332A PUSH2 0x333B JUMP JUMPDEST SWAP1 POP PUSH2 0x3336 DUP3 DUP3 PUSH2 0x350A JUMP JUMPDEST SWAP2 SWAP1 POP JUMP JUMPDEST PUSH1 0x0 PUSH1 0x40 MLOAD SWAP1 POP SWAP1 JUMP JUMPDEST PUSH1 0x0 PUSH8 0xFFFFFFFFFFFFFFFF DUP3 GT ISZERO PUSH2 0x3360 JUMPI PUSH2 0x335F PUSH2 0x3640 JUMP JUMPDEST JUMPDEST PUSH2 0x3369 DUP3 PUSH2 0x3683 JUMP JUMPDEST SWAP1 POP PUSH1 0x20 DUP2 ADD SWAP1 POP SWAP2 SWAP1 POP JUMP JUMPDEST PUSH1 0x0 DUP2 MLOAD SWAP1 POP SWAP2 SWAP1 POP JUMP JUMPDEST PUSH1 0x0 DUP3 DUP3 MSTORE PUSH1 0x20 DUP3 ADD SWAP1 POP SWAP3 SWAP2 POP POP JUMP JUMPDEST PUSH1 0x0 PUSH2 0x339D DUP3 PUSH2 0x346D JUMP JUMPDEST SWAP2 POP PUSH2 0x33A8 DUP4 PUSH2 0x346D JUMP JUMPDEST SWAP3 POP DUP3 PUSH32 0xFFFFFFFFFFFFFFFFFFFFFFFFFFFFFFFFFFFFFFFFFFFFFFFFFFFFFFFFFFFFFFFF SUB DUP3 GT ISZERO PUSH2 0x33DD JUMPI PUSH2 0x33DC PUSH2 0x3584 JUMP JUMPDEST JUMPDEST DUP3 DUP3 ADD SWAP1 POP SWAP3 SWAP2 POP POP JUMP JUMPDEST PUSH1 0x0 PUSH2 0x33F3 DUP3 PUSH2 0x346D JUMP JUMPDEST SWAP2 POP PUSH2 0x33FE DUP4 PUSH2 0x346D JUMP JUMPDEST SWAP3 POP DUP3 DUP3 LT ISZERO PUSH2 0x3411 JUMPI PUSH2 0x3410 PUSH2 0x3584 JUMP JUMPDEST JUMPDEST DUP3 DUP3 SUB SWAP1 POP SWAP3 SWAP2 POP POP JUMP JUMPDEST PUSH1 0x0 PUSH2 0x3427 DUP3 PUSH2 0x344D JUMP JUMPDEST SWAP1 POP SWAP2 SWAP1 POP JUMP JUMPDEST PUSH1 0x0 DUP2 ISZERO ISZERO SWAP1 POP SWAP2 SWAP1 POP JUMP JUMPDEST PUSH1 0x0 DUP2 SWAP1 POP PUSH2 0x3448 DUP3 PUSH2 0x39D6 JUMP JUMPDEST SWAP2 SWAP1 POP JUMP JUMPDEST PUSH1 0x0 PUSH20 0xFFFFFFFFFFFFFFFFFFFFFFFFFFFFFFFFFFFFFFFF DUP3 AND SWAP1 POP SWAP2 SWAP1 POP JUMP JUMPDEST PUSH1 0x0 DUP2 SWAP1 POP SWAP2 SWAP1 POP JUMP JUMPDEST PUSH1 0x0 PUSH1 0xFF DUP3 AND SWAP1 POP SWAP2 SWAP1 POP JUMP JUMPDEST PUSH1 0x0 PUSH2 0x348F DUP3 PUSH2 0x343A JUMP JUMPDEST SWAP1 POP SWAP2 SWAP1 POP JUMP JUMPDEST DUP3 DUP2 DUP4 CALLDATACOPY PUSH1 0x0 DUP4 DUP4 ADD MSTORE POP POP POP JUMP JUMPDEST PUSH1 0x0 JUMPDEST DUP4 DUP2 LT ISZERO PUSH2 0x34C3 JUMPI DUP1 DUP3 ADD MLOAD DUP2 DUP5 ADD MSTORE PUSH1 0x20 DUP2 ADD SWAP1 POP PUSH2 0x34A8 JUMP JUMPDEST DUP4 DUP2 GT ISZERO PUSH2 0x34D2 JUMPI PUSH1 0x0 DUP5 DUP5 ADD MSTORE JUMPDEST POP POP POP POP JUMP JUMPDEST PUSH1 0x0 PUSH1 0x2 DUP3 DIV SWAP1 POP PUSH1 0x1 DUP3 AND DUP1 PUSH2 0x34F0 JUMPI PUSH1 0x7F DUP3 AND SWAP2 POP JUMPDEST PUSH1 0x20 DUP3 LT DUP2 EQ ISZERO PUSH2 0x3504 JUMPI PUSH2 0x3503 PUSH2 0x35E2 JUMP JUMPDEST JUMPDEST POP SWAP2 SWAP1 POP JUMP JUMPDEST PUSH2 0x3513 DUP3 PUSH2 0x3683 JUMP JUMPDEST DUP2 ADD DUP2 DUP2 LT PUSH8 0xFFFFFFFFFFFFFFFF DUP3 GT OR ISZERO PUSH2 0x3532 JUMPI PUSH2 0x3531 PUSH2 0x3640 JUMP JUMPDEST JUMPDEST DUP1 PUSH1 0x40 MSTORE POP POP POP JUMP JUMPDEST PUSH1 0x0 PUSH2 0x3546 DUP3 PUSH2 0x346D JUMP JUMPDEST SWAP2 POP PUSH32 0xFFFFFFFFFFFFFFFFFFFFFFFFFFFFFFFFFFFFFFFFFFFFFFFFFFFFFFFFFFFFFFFF DUP3 EQ ISZERO PUSH2 0x3579 JUMPI PUSH2 0x3578 PUSH2 0x3584 JUMP JUMPDEST JUMPDEST PUSH1 0x1 DUP3 ADD SWAP1 POP SWAP2 SWAP1 POP JUMP JUMPDEST PUSH32 0x4E487B7100000000000000000000000000000000000000000000000000000000 PUSH1 0x0 MSTORE PUSH1 0x11 PUSH1 0x4 MSTORE PUSH1 0x24 PUSH1 0x0 REVERT JUMPDEST PUSH32 0x4E487B7100000000000000000000000000000000000000000000000000000000 PUSH1 0x0 MSTORE PUSH1 0x21 PUSH1 0x4 MSTORE PUSH1 0x24 PUSH1 0x0 REVERT JUMPDEST PUSH32 0x4E487B7100000000000000000000000000000000000000000000000000000000 PUSH1 0x0 MSTORE PUSH1 0x22 PUSH1 0x4 MSTORE PUSH1 0x24 PUSH1 0x0 REVERT JUMPDEST PUSH32 0x4E487B7100000000000000000000000000000000000000000000000000000000 PUSH1 0x0 MSTORE PUSH1 0x32 PUSH1 0x4 MSTORE PUSH1 0x24 PUSH1 0x0 REVERT JUMPDEST PUSH32 0x4E487B7100000000000000000000000000000000000000000000000000000000 PUSH1 0x0 MSTORE PUSH1 0x41 PUSH1 0x4 MSTORE PUSH1 0x24 PUSH1 0x0 REVERT JUMPDEST PUSH1 0x0 DUP1 REVERT JUMPDEST PUSH1 0x0 DUP1 REVERT JUMPDEST PUSH1 0x0 DUP1 REVERT JUMPDEST PUSH1 0x0 DUP1 REVERT JUMPDEST PUSH1 0x0 PUSH1 0x1F NOT PUSH1 0x1F DUP4 ADD AND SWAP1 POP SWAP2 SWAP1 POP JUMP JUMPDEST PUSH32 0x43686172697479206E6F7420666F756E64000000000000000000000000000000 PUSH1 0x0 DUP3 ADD MSTORE POP JUMP JUMPDEST PUSH32 0x596F7520686176656E277420636F6E747269627574656420666F722074686973 PUSH1 0x0 DUP3 ADD MSTORE PUSH32 0x2070726F6A656374000000000000000000000000000000000000000000000000 PUSH1 0x20 DUP3 ADD MSTORE POP JUMP JUMPDEST PUSH32 0x53686F756C642062652067726561746572207468616E206D696E696D756D2061 PUSH1 0x0 DUP3 ADD MSTORE PUSH32 0x6D6F756E74000000000000000000000000000000000000000000000000000000 PUSH1 0x20 DUP3 ADD MSTORE POP JUMP JUMPDEST PUSH32 0x43616E277420726566756E642061732065786368616E67652072657175657374 PUSH1 0x0 DUP3 ADD MSTORE PUSH32 0x2077617320616C726561647920696E69746961746564207769746820626F6172 PUSH1 0x20 DUP3 ADD MSTORE PUSH32 0x6400000000000000000000000000000000000000000000000000000000000000 PUSH1 0x40 DUP3 ADD MSTORE POP JUMP JUMPDEST PUSH32 0x43616E277420726566756E642061732065786368616E67652072657175657374 PUSH1 0x0 DUP3 ADD MSTORE PUSH32 0x20776173206E6F742072656A65637465642062792074686520626F6172640000 PUSH1 0x20 DUP3 ADD MSTORE POP JUMP JUMPDEST PUSH32 0x50726F6A65637420646F65736E27742065786973740000000000000000000000 PUSH1 0x0 DUP3 ADD MSTORE POP JUMP JUMPDEST PUSH32 0x43686172697479206973206E6F742079657420617070726F7665640000000000 PUSH1 0x0 DUP3 ADD MSTORE POP JUMP JUMPDEST PUSH32 0x4E6F2070726F6A65637420657869737420756E64657220746869732063686172 PUSH1 0x0 DUP3 ADD MSTORE PUSH32 0x6974790000000000000000000000000000000000000000000000000000000000 PUSH1 0x20 DUP3 ADD MSTORE POP JUMP JUMPDEST PUSH32 0x4368617269747920646F65736E27742065786973740000000000000000000000 PUSH1 0x0 DUP3 ADD MSTORE POP JUMP JUMPDEST PUSH32 0x4E6F2070726F6A65637420657869737420756E64657220746869732070726F6A PUSH1 0x0 DUP3 ADD MSTORE PUSH32 0x6563744964000000000000000000000000000000000000000000000000000000 PUSH1 0x20 DUP3 ADD MSTORE POP JUMP JUMPDEST PUSH32 0x4E6F20737563682070726F6A65637420657869737420756E6465722074686973 PUSH1 0x0 DUP3 ADD MSTORE PUSH32 0x2063686172697479000000000000000000000000000000000000000000000000 PUSH1 0x20 DUP3 ADD MSTORE POP JUMP JUMPDEST PUSH32 0x4E6F206D6F726520646F6E6174696F6E7320616363657074656420666F722074 PUSH1 0x0 DUP3 ADD MSTORE PUSH32 0x6869732070726F6A6563742E0000000000000000000000000000000000000000 PUSH1 0x20 DUP3 ADD MSTORE POP JUMP JUMPDEST PUSH1 0xA DUP2 LT PUSH2 0x39E7 JUMPI PUSH2 0x39E6 PUSH2 0x35B3 JUMP JUMPDEST JUMPDEST POP JUMP JUMPDEST PUSH2 0x39F3 DUP2 PUSH2 0x341C JUMP JUMPDEST DUP2 EQ PUSH2 0x39FE JUMPI PUSH1 0x0 DUP1 REVERT JUMPDEST POP JUMP JUMPDEST PUSH1 0xA DUP2 LT PUSH2 0x3A0E JUMPI PUSH1 0x0 DUP1 REVERT JUMPDEST POP JUMP JUMPDEST PUSH2 0x3A1A DUP2 PUSH2 0x346D JUMP JUMPDEST DUP2 EQ PUSH2 0x3A25 JUMPI PUSH1 0x0 DUP1 REVERT JUMPDEST POP JUMP JUMPDEST PUSH2 0x3A31 DUP2 PUSH2 0x3477 JUMP JUMPDEST DUP2 EQ PUSH2 0x3A3C JUMPI PUSH1 0x0 DUP1 REVERT JUMPDEST POP JUMP INVALID SLOAD PUSH9 0x6973206F7065726174 PUSH10 0x6F6E2063616E20626520 PUSH17 0x6572666F726D6564206F6E6C7920627920 TIMESTAMP PUSH16 0x6172642061646D696E596F7520617265 KECCAK256 PUSH15 0x6F7420617574686F72697A65642074 PUSH16 0x20757064617465207769746820746869 PUSH20 0x2073746174757354686973206F7065726174696F PUSH15 0x2063616E20626520706572666F726D PUSH6 0x64206F6E6C79 KECCAK256 PUSH3 0x792043 PUSH9 0x6172697479A2646970 PUSH7 0x7358221220DB75 CHAINID JUMP 0xE8 MULMOD 0xDA 0xE4 SWAP2 0xBF PUSH8 0xE1A77A0A3139C645 0xE7 CODECOPY 0xCE 0xD8 CALLER 0xF6 0x29 JUMPDEST DUP8 DUP2 0xC0 0xDE SWAP16 PUSH5 0x736F6C6343 STOP ADDMOD SMOD STOP CALLER "
				},
				"gasEstimates": {
					"creation": {
						"codeDepositCost": "3022400",
						"executionCost": "infinite",
						"totalCost": "infinite"
					},
					"external": {
						"approveCharity(uint256,uint256)": "infinite",
						"boardAdmin()": "2603",
						"changeProjectStatus(uint256,uint256,uint8)": "infinite",
						"charities(uint256)": "infinite",
						"createCharity(uint256,string,address)": "infinite",
						"createProject(uint256,uint256,uint256,address,string)": "infinite",
						"donate(uint256,uint256,uint256)": "infinite",
						"getProjectFundDetails(uint256,uint256)": "infinite",
						"getProjectStatus(uint256,uint256)": "infinite",
						"getRefund(uint256,uint256)": "infinite",
						"projectStatus()": "2628",
						"projectStatuses(uint8)": "infinite",
						"projects(uint256)": "infinite",
						"refundToAllDonors(uint256,uint256)": "infinite",
						"rejectCharity(uint256,string)": "infinite",
						"updateProjectStatus(uint256,uint256,uint8)": "infinite"
					}
				},
				"methodIdentifiers": {
					"approveCharity(uint256,uint256)": "97ed410c",
					"boardAdmin()": "b61a7f76",
					"changeProjectStatus(uint256,uint256,uint8)": "3a8565f0",
					"charities(uint256)": "fb709d2e",
					"createCharity(uint256,string,address)": "141020cc",
					"createProject(uint256,uint256,uint256,address,string)": "95dcc366",
					"donate(uint256,uint256,uint256)": "ef88f48b",
					"getProjectFundDetails(uint256,uint256)": "1ed056d8",
					"getProjectStatus(uint256,uint256)": "9d8e7e89",
					"getRefund(uint256,uint256)": "85fa74bc",
					"projectStatus()": "1ab33308",
					"projectStatuses(uint8)": "ef6add32",
					"projects(uint256)": "107046bd",
					"refundToAllDonors(uint256,uint256)": "b0ca4af5",
					"rejectCharity(uint256,string)": "daf38232",
					"updateProjectStatus(uint256,uint256,uint8)": "2c3730ef"
				}
			},
			"storageLayout": {
				"storage": [
					{
						"astId": 54,
						"contract": "contracts/CrowdFund.sol:CrowdFund",
						"label": "projects",
						"offset": 0,
						"slot": "0",
						"type": "t_array(t_struct(Project)30_storage)dyn_storage"
					},
					{
						"astId": 58,
						"contract": "contracts/CrowdFund.sol:CrowdFund",
						"label": "charities",
						"offset": 0,
						"slot": "1",
						"type": "t_array(t_struct(Charity)41_storage)dyn_storage"
					},
					{
						"astId": 60,
						"contract": "contracts/CrowdFund.sol:CrowdFund",
						"label": "boardAdmin",
						"offset": 0,
						"slot": "2",
						"type": "t_address"
					},
					{
						"astId": 66,
						"contract": "contracts/CrowdFund.sol:CrowdFund",
						"label": "charityProjects",
						"offset": 0,
						"slot": "3",
						"type": "t_mapping(t_uint256,t_array(t_struct(Project)30_storage)dyn_storage)"
					},
					{
						"astId": 70,
						"contract": "contracts/CrowdFund.sol:CrowdFund",
						"label": "approvedCharities",
						"offset": 0,
						"slot": "4",
						"type": "t_mapping(t_uint256,t_bool)"
					},
					{
						"astId": 76,
						"contract": "contracts/CrowdFund.sol:CrowdFund",
						"label": "projectDonors",
						"offset": 0,
						"slot": "5",
						"type": "t_mapping(t_uint256,t_array(t_struct(Donor)50_storage)dyn_storage)"
					},
					{
						"astId": 163,
						"contract": "contracts/CrowdFund.sol:CrowdFund",
						"label": "projectStatus",
						"offset": 0,
						"slot": "6",
						"type": "t_enum(ProjectStatus)12"
					},
					{
						"astId": 168,
						"contract": "contracts/CrowdFund.sol:CrowdFund",
						"label": "projectStatuses",
						"offset": 0,
						"slot": "7",
						"type": "t_mapping(t_enum(ProjectStatus)12,t_string_storage)"
					}
				],
				"types": {
					"t_address": {
						"encoding": "inplace",
						"label": "address",
						"numberOfBytes": "20"
					},
					"t_array(t_struct(Charity)41_storage)dyn_storage": {
						"base": "t_struct(Charity)41_storage",
						"encoding": "dynamic_array",
						"label": "struct CrowdFund.Charity[]",
						"numberOfBytes": "32"
					},
					"t_array(t_struct(Donor)50_storage)dyn_storage": {
						"base": "t_struct(Donor)50_storage",
						"encoding": "dynamic_array",
						"label": "struct CrowdFund.Donor[]",
						"numberOfBytes": "32"
					},
					"t_array(t_struct(Project)30_storage)dyn_storage": {
						"base": "t_struct(Project)30_storage",
						"encoding": "dynamic_array",
						"label": "struct CrowdFund.Project[]",
						"numberOfBytes": "32"
					},
					"t_bool": {
						"encoding": "inplace",
						"label": "bool",
						"numberOfBytes": "1"
					},
					"t_enum(ProjectStatus)12": {
						"encoding": "inplace",
						"label": "enum CrowdFund.ProjectStatus",
						"numberOfBytes": "1"
					},
					"t_mapping(t_enum(ProjectStatus)12,t_string_storage)": {
						"encoding": "mapping",
						"key": "t_enum(ProjectStatus)12",
						"label": "mapping(enum CrowdFund.ProjectStatus => string)",
						"numberOfBytes": "32",
						"value": "t_string_storage"
					},
					"t_mapping(t_uint256,t_array(t_struct(Donor)50_storage)dyn_storage)": {
						"encoding": "mapping",
						"key": "t_uint256",
						"label": "mapping(uint256 => struct CrowdFund.Donor[])",
						"numberOfBytes": "32",
						"value": "t_array(t_struct(Donor)50_storage)dyn_storage"
					},
					"t_mapping(t_uint256,t_array(t_struct(Project)30_storage)dyn_storage)": {
						"encoding": "mapping",
						"key": "t_uint256",
						"label": "mapping(uint256 => struct CrowdFund.Project[])",
						"numberOfBytes": "32",
						"value": "t_array(t_struct(Project)30_storage)dyn_storage"
					},
					"t_mapping(t_uint256,t_bool)": {
						"encoding": "mapping",
						"key": "t_uint256",
						"label": "mapping(uint256 => bool)",
						"numberOfBytes": "32",
						"value": "t_bool"
					},
					"t_mapping(t_uint256,t_uint256)": {
						"encoding": "mapping",
						"key": "t_uint256",
						"label": "mapping(uint256 => uint256)",
						"numberOfBytes": "32",
						"value": "t_uint256"
					},
					"t_string_storage": {
						"encoding": "bytes",
						"label": "string",
						"numberOfBytes": "32"
					},
					"t_struct(Charity)41_storage": {
						"encoding": "inplace",
						"label": "struct CrowdFund.Charity",
						"members": [
							{
								"astId": 32,
								"contract": "contracts/CrowdFund.sol:CrowdFund",
								"label": "charityId",
								"offset": 0,
								"slot": "0",
								"type": "t_uint256"
							},
							{
								"astId": 34,
								"contract": "contracts/CrowdFund.sol:CrowdFund",
								"label": "approved",
								"offset": 0,
								"slot": "1",
								"type": "t_bool"
							},
							{
								"astId": 36,
								"contract": "contracts/CrowdFund.sol:CrowdFund",
								"label": "reason",
								"offset": 0,
								"slot": "2",
								"type": "t_string_storage"
							},
							{
								"astId": 38,
								"contract": "contracts/CrowdFund.sol:CrowdFund",
								"label": "licenseDocsLink",
								"offset": 0,
								"slot": "3",
								"type": "t_string_storage"
							},
							{
								"astId": 40,
								"contract": "contracts/CrowdFund.sol:CrowdFund",
								"label": "owner",
								"offset": 0,
								"slot": "4",
								"type": "t_address"
							}
						],
						"numberOfBytes": "160"
					},
					"t_struct(Donor)50_storage": {
						"encoding": "inplace",
						"label": "struct CrowdFund.Donor",
						"members": [
							{
								"astId": 43,
								"contract": "contracts/CrowdFund.sol:CrowdFund",
								"label": "donorId",
								"offset": 0,
								"slot": "0",
								"type": "t_uint256"
							},
							{
								"astId": 45,
								"contract": "contracts/CrowdFund.sol:CrowdFund",
								"label": "owner",
								"offset": 0,
								"slot": "1",
								"type": "t_address"
							},
							{
								"astId": 49,
								"contract": "contracts/CrowdFund.sol:CrowdFund",
								"label": "projectwiseContributions",
								"offset": 0,
								"slot": "2",
								"type": "t_mapping(t_uint256,t_uint256)"
							}
						],
						"numberOfBytes": "96"
					},
					"t_struct(Project)30_storage": {
						"encoding": "inplace",
						"label": "struct CrowdFund.Project",
						"members": [
							{
								"astId": 14,
								"contract": "contracts/CrowdFund.sol:CrowdFund",
								"label": "projectId",
								"offset": 0,
								"slot": "0",
								"type": "t_uint256"
							},
							{
								"astId": 16,
								"contract": "contracts/CrowdFund.sol:CrowdFund",
								"label": "minimumAmount",
								"offset": 0,
								"slot": "1",
								"type": "t_uint256"
							},
							{
								"astId": 18,
								"contract": "contracts/CrowdFund.sol:CrowdFund",
								"label": "goal",
								"offset": 0,
								"slot": "2",
								"type": "t_uint256"
							},
							{
								"astId": 20,
								"contract": "contracts/CrowdFund.sol:CrowdFund",
								"label": "raisedAmount",
								"offset": 0,
								"slot": "3",
								"type": "t_uint256"
							},
							{
								"astId": 22,
								"contract": "contracts/CrowdFund.sol:CrowdFund",
								"label": "owner",
								"offset": 0,
								"slot": "4",
								"type": "t_address"
							},
							{
								"astId": 24,
								"contract": "contracts/CrowdFund.sol:CrowdFund",
								"label": "acceptDonation",
								"offset": 20,
								"slot": "4",
								"type": "t_bool"
							},
							{
								"astId": 26,
								"contract": "contracts/CrowdFund.sol:CrowdFund",
								"label": "documentLink",
								"offset": 0,
								"slot": "5",
								"type": "t_string_storage"
							},
							{
								"astId": 29,
								"contract": "contracts/CrowdFund.sol:CrowdFund",
								"label": "projectStatus",
								"offset": 0,
								"slot": "6",
								"type": "t_enum(ProjectStatus)12"
							}
						],
						"numberOfBytes": "224"
					},
					"t_uint256": {
						"encoding": "inplace",
						"label": "uint256",
						"numberOfBytes": "32"
					}
				}
			},
			"userdoc": {
				"kind": "user",
				"methods": {},
				"version": 1
			}
		}
	}
}