{
	"contracts/CrowdFund.sol": {
		"CrowdFund": {
			"abi": [
				{
					"inputs": [],
					"stateMutability": "nonpayable",
					"type": "constructor"
				},
				{
					"anonymous": false,
					"inputs": [
						{
							"indexed": false,
							"internalType": "address",
							"name": "charityAddress",
							"type": "address"
						},
						{
							"indexed": false,
							"internalType": "address",
							"name": "projectAddress",
							"type": "address"
						},
						{
							"indexed": false,
							"internalType": "enum CrowdFund.ProjectStatus",
							"name": "projectStatus",
							"type": "uint8"
						}
					],
					"name": "BoardMessageToCharity",
					"type": "event"
				},
				{
					"anonymous": false,
					"inputs": [
						{
							"indexed": false,
							"internalType": "address",
							"name": "charityAddress",
							"type": "address"
						},
						{
							"indexed": false,
							"internalType": "address",
							"name": "projectAddress",
							"type": "address"
						},
						{
							"indexed": false,
							"internalType": "enum CrowdFund.ProjectStatus",
							"name": "projectStatus",
							"type": "uint8"
						}
					],
					"name": "CharityMessageToBoard",
					"type": "event"
				},
				{
					"anonymous": false,
					"inputs": [
						{
							"indexed": false,
							"internalType": "address",
							"name": "charityAddress",
							"type": "address"
						},
						{
							"indexed": false,
							"internalType": "address",
							"name": "projectAddress",
							"type": "address"
						},
						{
							"indexed": false,
							"internalType": "enum CrowdFund.ProjectStatus",
							"name": "projectStatus",
							"type": "uint8"
						}
					],
					"name": "CharityMessageToDonor",
					"type": "event"
				},
				{
					"anonymous": false,
					"inputs": [
						{
							"indexed": false,
							"internalType": "address",
							"name": "charityAddress",
							"type": "address"
						},
						{
							"indexed": false,
							"internalType": "address",
							"name": "projectAddress",
							"type": "address"
						},
						{
							"indexed": false,
							"internalType": "enum CrowdFund.ProjectStatus",
							"name": "projectStatus",
							"type": "uint8"
						}
					],
					"name": "CharityMessageToReceiver",
					"type": "event"
				},
				{
					"anonymous": false,
					"inputs": [
						{
							"indexed": false,
							"internalType": "address",
							"name": "charityAddress",
							"type": "address"
						},
						{
							"indexed": false,
							"internalType": "address",
							"name": "projectAddress",
							"type": "address"
						},
						{
							"indexed": false,
							"internalType": "enum CrowdFund.ProjectStatus",
							"name": "projectStatus",
							"type": "uint8"
						}
					],
					"name": "ReceiverMessageToCharity",
					"type": "event"
				},
				{
					"inputs": [],
					"name": "boardAdmin",
					"outputs": [
						{
							"internalType": "address",
							"name": "",
							"type": "address"
						}
					],
					"stateMutability": "view",
					"type": "function"
				},
				{
					"inputs": [
						{
							"internalType": "address",
							"name": "donorAddress",
							"type": "address"
						}
					],
					"name": "buyEther",
					"outputs": [],
					"stateMutability": "payable",
					"type": "function"
				},
				{
					"inputs": [
						{
							"internalType": "string",
							"name": "_licenseDocsLink",
							"type": "string"
						},
						{
							"internalType": "address",
							"name": "owner",
							"type": "address"
						}
					],
					"name": "createCharity",
					"outputs": [],
					"stateMutability": "nonpayable",
					"type": "function"
				},
				{
					"inputs": [
						{
							"internalType": "uint256",
							"name": "_minimumAmount",
							"type": "uint256"
						},
						{
							"internalType": "uint256",
							"name": "_goal",
							"type": "uint256"
						},
						{
							"internalType": "address",
							"name": "owner",
							"type": "address"
						},
						{
							"internalType": "string",
							"name": "_documentLink",
							"type": "string"
						}
					],
					"name": "createProject",
					"outputs": [],
					"stateMutability": "nonpayable",
					"type": "function"
				},
				{
					"inputs": [
						{
							"internalType": "address",
							"name": "charityAddress",
							"type": "address"
						},
						{
							"internalType": "address",
							"name": "projectAddress",
							"type": "address"
						}
					],
					"name": "donate",
					"outputs": [],
					"stateMutability": "payable",
					"type": "function"
				},
				{
					"inputs": [
						{
							"internalType": "address",
							"name": "charityAddress",
							"type": "address"
						},
						{
							"internalType": "address",
							"name": "projectAddress",
							"type": "address"
						},
						{
							"internalType": "address",
							"name": "donorAddress",
							"type": "address"
						}
					],
					"name": "getDonorBalance",
					"outputs": [
						{
							"internalType": "uint256",
							"name": "",
							"type": "uint256"
						}
					],
					"stateMutability": "view",
					"type": "function"
				},
				{
					"inputs": [
						{
							"internalType": "address",
							"name": "charityAddress",
							"type": "address"
						},
						{
							"internalType": "address",
							"name": "projectAddress",
							"type": "address"
						}
					],
					"name": "getProjectFundDetails",
					"outputs": [
						{
							"internalType": "uint256",
							"name": "",
							"type": "uint256"
						},
						{
							"internalType": "uint256",
							"name": "",
							"type": "uint256"
						},
						{
							"internalType": "uint256",
							"name": "",
							"type": "uint256"
						}
					],
					"stateMutability": "view",
					"type": "function"
				},
				{
					"inputs": [
						{
							"internalType": "address",
							"name": "charityAddress",
							"type": "address"
						}
					],
					"name": "getProjectListByCharity",
					"outputs": [
						{
							"internalType": "address[]",
							"name": "_projectAddresses",
							"type": "address[]"
						},
						{
							"internalType": "uint256[]",
							"name": "_minimumAmounts",
							"type": "uint256[]"
						},
						{
							"internalType": "uint256[]",
							"name": "_goals",
							"type": "uint256[]"
						},
						{
							"internalType": "uint256[]",
							"name": "_raisedAmounts",
							"type": "uint256[]"
						}
					],
					"stateMutability": "view",
					"type": "function"
				},
				{
					"inputs": [
						{
							"internalType": "address",
							"name": "charityAddress",
							"type": "address"
						},
						{
							"internalType": "address",
							"name": "projectAddress",
							"type": "address"
						}
					],
					"name": "getProjectOwnerBalance",
					"outputs": [
						{
							"internalType": "uint256",
							"name": "",
							"type": "uint256"
						}
					],
					"stateMutability": "view",
					"type": "function"
				},
				{
					"inputs": [
						{
							"internalType": "address",
							"name": "charityAddress",
							"type": "address"
						},
						{
							"internalType": "address",
							"name": "projectAddress",
							"type": "address"
						}
					],
					"name": "getProjectStatus",
					"outputs": [
						{
							"internalType": "string",
							"name": "",
							"type": "string"
						}
					],
					"stateMutability": "view",
					"type": "function"
				},
				{
					"inputs": [
						{
							"internalType": "address",
							"name": "charityAddress",
							"type": "address"
						},
						{
							"internalType": "address",
							"name": "projectAddress",
							"type": "address"
						}
					],
					"name": "getRefund",
					"outputs": [],
					"stateMutability": "nonpayable",
					"type": "function"
				},
				{
					"inputs": [],
					"name": "projectStatus",
					"outputs": [
						{
							"internalType": "enum CrowdFund.ProjectStatus",
							"name": "",
							"type": "uint8"
						}
					],
					"stateMutability": "view",
					"type": "function"
				},
				{
					"inputs": [
						{
							"internalType": "enum CrowdFund.ProjectStatus",
							"name": "",
							"type": "uint8"
						}
					],
					"name": "projectStatuses",
					"outputs": [
						{
							"internalType": "string",
							"name": "",
							"type": "string"
						}
					],
					"stateMutability": "view",
					"type": "function"
				},
				{
					"inputs": [],
					"name": "sellEther",
					"outputs": [],
					"stateMutability": "payable",
					"type": "function"
				},
				{
					"inputs": [
						{
							"internalType": "address",
							"name": "charityAddress",
							"type": "address"
						},
						{
							"internalType": "bool",
							"name": "status",
							"type": "bool"
						},
						{
							"internalType": "string",
							"name": "reason",
							"type": "string"
						}
					],
					"name": "updateCharityStatus",
					"outputs": [],
					"stateMutability": "nonpayable",
					"type": "function"
				},
				{
					"inputs": [
						{
							"internalType": "address",
							"name": "charityAddress",
							"type": "address"
						},
						{
							"internalType": "address",
							"name": "projectAddress",
							"type": "address"
						},
						{
							"internalType": "uint8",
							"name": "enumValue",
							"type": "uint8"
						}
					],
					"name": "updateProjectStatusByAdmin",
					"outputs": [],
					"stateMutability": "nonpayable",
					"type": "function"
				},
				{
					"inputs": [
						{
							"internalType": "address",
							"name": "projectAddress",
							"type": "address"
						},
						{
							"internalType": "uint8",
							"name": "enumValue",
							"type": "uint8"
						}
					],
					"name": "updateProjectStatusByCharity",
					"outputs": [],
					"stateMutability": "nonpayable",
					"type": "function"
				}
			],
			"devdoc": {
				"kind": "dev",
				"methods": {},
				"version": 1
			},
			"evm": {
				"assembly": "    /* \"contracts/CrowdFund.sol\":96:21678  contract CrowdFund {... */\n  mstore(0x40, 0x80)\n    /* \"contracts/CrowdFund.sol\":3372:3928  constructor () {... */\n  callvalue\n  dup1\n  iszero\n  tag_1\n  jumpi\n  0x00\n  dup1\n  revert\ntag_1:\n  pop\n    /* \"contracts/CrowdFund.sol\":3410:3420  msg.sender */\n  caller\n    /* \"contracts/CrowdFund.sol\":3397:3407  boardAdmin */\n  0x02\n  0x00\n    /* \"contracts/CrowdFund.sol\":3397:3420  boardAdmin = msg.sender */\n  0x0100\n  exp\n  dup2\n  sload\n  dup2\n  0xffffffffffffffffffffffffffffffffffffffff\n  mul\n  not\n  and\n  swap1\n  dup4\n  0xffffffffffffffffffffffffffffffffffffffff\n  and\n  mul\n  or\n  swap1\n  sstore\n  pop\n    /* \"contracts/CrowdFund.sol\":3468:3471  WFA */\n  mload(0x40)\n  dup1\n  0x40\n  add\n  0x40\n  mstore\n  dup1\n  0x14\n  dup2\n  mstore\n  0x20\n  add\n  0x57616974696e6720666f7220617070726f76616c000000000000000000000000\n  dup2\n  mstore\n  pop\n    /* \"contracts/CrowdFund.sol\":3431:3446  projectStatuses */\n  0x06\n    /* \"contracts/CrowdFund.sol\":3431:3465  projectStatuses[ProjectStatus.WFA] */\n  0x00\n    /* \"contracts/CrowdFund.sol\":3447:3464  ProjectStatus.WFA */\n  dup1\n    /* \"contracts/CrowdFund.sol\":3431:3465  projectStatuses[ProjectStatus.WFA] */\n  0x09\n  dup2\n  gt\n  iszero\n  tag_4\n  jumpi\n  tag_5\n  tag_6\n  jump\t// in\ntag_5:\ntag_4:\n  0x09\n  dup2\n  gt\n  iszero\n  tag_7\n  jumpi\n  tag_8\n  tag_6\n  jump\t// in\ntag_8:\ntag_7:\n  dup2\n  mstore\n  0x20\n  add\n  swap1\n  dup2\n  mstore\n  0x20\n  add\n  0x00\n  keccak256\n    /* \"contracts/CrowdFund.sol\":3431:3471  projectStatuses[ProjectStatus.WFA] = WFA */\n  swap1\n  dup1\n  mload\n  swap1\n  0x20\n  add\n  swap1\n  tag_9\n  swap3\n  swap2\n  swap1\n  tag_10\n  jump\t// in\ntag_9:\n  pop\n    /* \"contracts/CrowdFund.sol\":3518:3521  APR */\n  mload(0x40)\n  dup1\n  0x40\n  add\n  0x40\n  mstore\n  dup1\n  0x08\n  dup2\n  mstore\n  0x20\n  add\n  0x417070726f766564000000000000000000000000000000000000000000000000\n  dup2\n  mstore\n  pop\n    /* \"contracts/CrowdFund.sol\":3481:3496  projectStatuses */\n  0x06\n    /* \"contracts/CrowdFund.sol\":3481:3515  projectStatuses[ProjectStatus.APR] */\n  0x00\n    /* \"contracts/CrowdFund.sol\":3497:3514  ProjectStatus.APR */\n  0x02\n    /* \"contracts/CrowdFund.sol\":3481:3515  projectStatuses[ProjectStatus.APR] */\n  0x09\n  dup2\n  gt\n  iszero\n  tag_11\n  jumpi\n  tag_12\n  tag_6\n  jump\t// in\ntag_12:\ntag_11:\n  0x09\n  dup2\n  gt\n  iszero\n  tag_13\n  jumpi\n  tag_14\n  tag_6\n  jump\t// in\ntag_14:\ntag_13:\n  dup2\n  mstore\n  0x20\n  add\n  swap1\n  dup2\n  mstore\n  0x20\n  add\n  0x00\n  keccak256\n    /* \"contracts/CrowdFund.sol\":3481:3521  projectStatuses[ProjectStatus.APR] = APR */\n  swap1\n  dup1\n  mload\n  swap1\n  0x20\n  add\n  swap1\n  tag_15\n  swap3\n  swap2\n  swap1\n  tag_10\n  jump\t// in\ntag_15:\n  pop\n    /* \"contracts/CrowdFund.sol\":3568:3571  RJC */\n  mload(0x40)\n  dup1\n  0x40\n  add\n  0x40\n  mstore\n  dup1\n  0x13\n  dup2\n  mstore\n  0x20\n  add\n  0x52656a6563746564206279206368617269747900000000000000000000000000\n  dup2\n  mstore\n  pop\n    /* \"contracts/CrowdFund.sol\":3531:3546  projectStatuses */\n  0x06\n    /* \"contracts/CrowdFund.sol\":3531:3565  projectStatuses[ProjectStatus.RJC] */\n  0x00\n    /* \"contracts/CrowdFund.sol\":3547:3564  ProjectStatus.RJC */\n  0x01\n    /* \"contracts/CrowdFund.sol\":3531:3565  projectStatuses[ProjectStatus.RJC] */\n  0x09\n  dup2\n  gt\n  iszero\n  tag_16\n  jumpi\n  tag_17\n  tag_6\n  jump\t// in\ntag_17:\ntag_16:\n  0x09\n  dup2\n  gt\n  iszero\n  tag_18\n  jumpi\n  tag_19\n  tag_6\n  jump\t// in\ntag_19:\ntag_18:\n  dup2\n  mstore\n  0x20\n  add\n  swap1\n  dup2\n  mstore\n  0x20\n  add\n  0x00\n  keccak256\n    /* \"contracts/CrowdFund.sol\":3531:3571  projectStatuses[ProjectStatus.RJC] = RJC */\n  swap1\n  dup1\n  mload\n  swap1\n  0x20\n  add\n  swap1\n  tag_20\n  swap3\n  swap2\n  swap1\n  tag_10\n  jump\t// in\ntag_20:\n  pop\n    /* \"contracts/CrowdFund.sol\":3618:3621  PGA */\n  mload(0x40)\n  dup1\n  0x40\n  add\n  0x40\n  mstore\n  dup1\n  0x15\n  dup2\n  mstore\n  0x20\n  add\n  0x50726f6a65637420676f616c2061636869657665640000000000000000000000\n  dup2\n  mstore\n  pop\n    /* \"contracts/CrowdFund.sol\":3581:3596  projectStatuses */\n  0x06\n    /* \"contracts/CrowdFund.sol\":3581:3615  projectStatuses[ProjectStatus.PGA] */\n  0x00\n    /* \"contracts/CrowdFund.sol\":3597:3614  ProjectStatus.PGA */\n  0x03\n    /* \"contracts/CrowdFund.sol\":3581:3615  projectStatuses[ProjectStatus.PGA] */\n  0x09\n  dup2\n  gt\n  iszero\n  tag_21\n  jumpi\n  tag_22\n  tag_6\n  jump\t// in\ntag_22:\ntag_21:\n  0x09\n  dup2\n  gt\n  iszero\n  tag_23\n  jumpi\n  tag_24\n  tag_6\n  jump\t// in\ntag_24:\ntag_23:\n  dup2\n  mstore\n  0x20\n  add\n  swap1\n  dup2\n  mstore\n  0x20\n  add\n  0x00\n  keccak256\n    /* \"contracts/CrowdFund.sol\":3581:3621  projectStatuses[ProjectStatus.PGA] = PGA */\n  swap1\n  dup1\n  mload\n  swap1\n  0x20\n  add\n  swap1\n  tag_25\n  swap3\n  swap2\n  swap1\n  tag_10\n  jump\t// in\ntag_25:\n  pop\n    /* \"contracts/CrowdFund.sol\":3668:3671  XRQ */\n  mload(0x40)\n  dup1\n  0x40\n  add\n  0x40\n  mstore\n  dup1\n  0x12\n  dup2\n  mstore\n  0x20\n  add\n  0x45786368616e6765207265717565737465640000000000000000000000000000\n  dup2\n  mstore\n  pop\n    /* \"contracts/CrowdFund.sol\":3631:3646  projectStatuses */\n  0x06\n    /* \"contracts/CrowdFund.sol\":3631:3665  projectStatuses[ProjectStatus.XRQ] */\n  0x00\n    /* \"contracts/CrowdFund.sol\":3647:3664  ProjectStatus.XRQ */\n  0x04\n    /* \"contracts/CrowdFund.sol\":3631:3665  projectStatuses[ProjectStatus.XRQ] */\n  0x09\n  dup2\n  gt\n  iszero\n  tag_26\n  jumpi\n  tag_27\n  tag_6\n  jump\t// in\ntag_27:\ntag_26:\n  0x09\n  dup2\n  gt\n  iszero\n  tag_28\n  jumpi\n  tag_29\n  tag_6\n  jump\t// in\ntag_29:\ntag_28:\n  dup2\n  mstore\n  0x20\n  add\n  swap1\n  dup2\n  mstore\n  0x20\n  add\n  0x00\n  keccak256\n    /* \"contracts/CrowdFund.sol\":3631:3671  projectStatuses[ProjectStatus.XRQ] = XRQ */\n  swap1\n  dup1\n  mload\n  swap1\n  0x20\n  add\n  swap1\n  tag_30\n  swap3\n  swap2\n  swap1\n  tag_10\n  jump\t// in\ntag_30:\n  pop\n    /* \"contracts/CrowdFund.sol\":3718:3721  XRR */\n  mload(0x40)\n  dup1\n  0x40\n  add\n  0x40\n  mstore\n  dup1\n  0x19\n  dup2\n  mstore\n  0x20\n  add\n  0x45786368616e6765207265717565737420726563656976656400000000000000\n  dup2\n  mstore\n  pop\n    /* \"contracts/CrowdFund.sol\":3681:3696  projectStatuses */\n  0x06\n    /* \"contracts/CrowdFund.sol\":3681:3715  projectStatuses[ProjectStatus.XRR] */\n  0x00\n    /* \"contracts/CrowdFund.sol\":3697:3714  ProjectStatus.XRR */\n  0x05\n    /* \"contracts/CrowdFund.sol\":3681:3715  projectStatuses[ProjectStatus.XRR] */\n  0x09\n  dup2\n  gt\n  iszero\n  tag_31\n  jumpi\n  tag_32\n  tag_6\n  jump\t// in\ntag_32:\ntag_31:\n  0x09\n  dup2\n  gt\n  iszero\n  tag_33\n  jumpi\n  tag_34\n  tag_6\n  jump\t// in\ntag_34:\ntag_33:\n  dup2\n  mstore\n  0x20\n  add\n  swap1\n  dup2\n  mstore\n  0x20\n  add\n  0x00\n  keccak256\n    /* \"contracts/CrowdFund.sol\":3681:3721  projectStatuses[ProjectStatus.XRR] = XRR */\n  swap1\n  dup1\n  mload\n  swap1\n  0x20\n  add\n  swap1\n  tag_35\n  swap3\n  swap2\n  swap1\n  tag_10\n  jump\t// in\ntag_35:\n  pop\n    /* \"contracts/CrowdFund.sol\":3768:3771  XRA */\n  mload(0x40)\n  dup1\n  0x40\n  add\n  0x40\n  mstore\n  dup1\n  0x19\n  dup2\n  mstore\n  0x20\n  add\n  0x45786368616e6765207265717565737420617070726f76656400000000000000\n  dup2\n  mstore\n  pop\n    /* \"contracts/CrowdFund.sol\":3731:3746  projectStatuses */\n  0x06\n    /* \"contracts/CrowdFund.sol\":3731:3765  projectStatuses[ProjectStatus.XRA] */\n  0x00\n    /* \"contracts/CrowdFund.sol\":3747:3764  ProjectStatus.XRA */\n  0x06\n    /* \"contracts/CrowdFund.sol\":3731:3765  projectStatuses[ProjectStatus.XRA] */\n  0x09\n  dup2\n  gt\n  iszero\n  tag_36\n  jumpi\n  tag_37\n  tag_6\n  jump\t// in\ntag_37:\ntag_36:\n  0x09\n  dup2\n  gt\n  iszero\n  tag_38\n  jumpi\n  tag_39\n  tag_6\n  jump\t// in\ntag_39:\ntag_38:\n  dup2\n  mstore\n  0x20\n  add\n  swap1\n  dup2\n  mstore\n  0x20\n  add\n  0x00\n  keccak256\n    /* \"contracts/CrowdFund.sol\":3731:3771  projectStatuses[ProjectStatus.XRA] = XRA */\n  swap1\n  dup1\n  mload\n  swap1\n  0x20\n  add\n  swap1\n  tag_40\n  swap3\n  swap2\n  swap1\n  tag_10\n  jump\t// in\ntag_40:\n  pop\n    /* \"contracts/CrowdFund.sol\":3818:3821  XRJ */\n  mload(0x40)\n  dup1\n  0x40\n  add\n  0x40\n  mstore\n  dup1\n  0x19\n  dup2\n  mstore\n  0x20\n  add\n  0x45786368616e676520726571756573742072656a656374656400000000000000\n  dup2\n  mstore\n  pop\n    /* \"contracts/CrowdFund.sol\":3781:3796  projectStatuses */\n  0x06\n    /* \"contracts/CrowdFund.sol\":3781:3815  projectStatuses[ProjectStatus.XRJ] */\n  0x00\n    /* \"contracts/CrowdFund.sol\":3797:3814  ProjectStatus.XRJ */\n  0x07\n    /* \"contracts/CrowdFund.sol\":3781:3815  projectStatuses[ProjectStatus.XRJ] */\n  0x09\n  dup2\n  gt\n  iszero\n  tag_41\n  jumpi\n  tag_42\n  tag_6\n  jump\t// in\ntag_42:\ntag_41:\n  0x09\n  dup2\n  gt\n  iszero\n  tag_43\n  jumpi\n  tag_44\n  tag_6\n  jump\t// in\ntag_44:\ntag_43:\n  dup2\n  mstore\n  0x20\n  add\n  swap1\n  dup2\n  mstore\n  0x20\n  add\n  0x00\n  keccak256\n    /* \"contracts/CrowdFund.sol\":3781:3821  projectStatuses[ProjectStatus.XRJ] = XRJ */\n  swap1\n  dup1\n  mload\n  swap1\n  0x20\n  add\n  swap1\n  tag_45\n  swap3\n  swap2\n  swap1\n  tag_10\n  jump\t// in\ntag_45:\n  pop\n    /* \"contracts/CrowdFund.sol\":3868:3871  RFD */\n  mload(0x40)\n  dup1\n  0x40\n  add\n  0x40\n  mstore\n  dup1\n  0x0e\n  dup2\n  mstore\n  0x20\n  add\n  0x46756e647320726566756e646564000000000000000000000000000000000000\n  dup2\n  mstore\n  pop\n    /* \"contracts/CrowdFund.sol\":3831:3846  projectStatuses */\n  0x06\n    /* \"contracts/CrowdFund.sol\":3831:3865  projectStatuses[ProjectStatus.RFD] */\n  0x00\n    /* \"contracts/CrowdFund.sol\":3847:3864  ProjectStatus.RFD */\n  0x08\n    /* \"contracts/CrowdFund.sol\":3831:3865  projectStatuses[ProjectStatus.RFD] */\n  0x09\n  dup2\n  gt\n  iszero\n  tag_46\n  jumpi\n  tag_47\n  tag_6\n  jump\t// in\ntag_47:\ntag_46:\n  0x09\n  dup2\n  gt\n  iszero\n  tag_48\n  jumpi\n  tag_49\n  tag_6\n  jump\t// in\ntag_49:\ntag_48:\n  dup2\n  mstore\n  0x20\n  add\n  swap1\n  dup2\n  mstore\n  0x20\n  add\n  0x00\n  keccak256\n    /* \"contracts/CrowdFund.sol\":3831:3871  projectStatuses[ProjectStatus.RFD] = RFD */\n  swap1\n  dup1\n  mload\n  swap1\n  0x20\n  add\n  swap1\n  tag_50\n  swap3\n  swap2\n  swap1\n  tag_10\n  jump\t// in\ntag_50:\n  pop\n    /* \"contracts/CrowdFund.sol\":3918:3921  CLD */\n  mload(0x40)\n  dup1\n  0x40\n  add\n  0x40\n  mstore\n  dup1\n  0x0e\n  dup2\n  mstore\n  0x20\n  add\n  0x50726f6a65637420636c6f736564000000000000000000000000000000000000\n  dup2\n  mstore\n  pop\n    /* \"contracts/CrowdFund.sol\":3881:3896  projectStatuses */\n  0x06\n    /* \"contracts/CrowdFund.sol\":3881:3915  projectStatuses[ProjectStatus.CLD] */\n  0x00\n    /* \"contracts/CrowdFund.sol\":3897:3914  ProjectStatus.CLD */\n  0x09\n    /* \"contracts/CrowdFund.sol\":3881:3915  projectStatuses[ProjectStatus.CLD] */\n  dup1\n  dup2\n  gt\n  iszero\n  tag_51\n  jumpi\n  tag_52\n  tag_6\n  jump\t// in\ntag_52:\ntag_51:\n  0x09\n  dup2\n  gt\n  iszero\n  tag_53\n  jumpi\n  tag_54\n  tag_6\n  jump\t// in\ntag_54:\ntag_53:\n  dup2\n  mstore\n  0x20\n  add\n  swap1\n  dup2\n  mstore\n  0x20\n  add\n  0x00\n  keccak256\n    /* \"contracts/CrowdFund.sol\":3881:3921  projectStatuses[ProjectStatus.CLD] = CLD */\n  swap1\n  dup1\n  mload\n  swap1\n  0x20\n  add\n  swap1\n  tag_55\n  swap3\n  swap2\n  swap1\n  tag_10\n  jump\t// in\ntag_55:\n  pop\n    /* \"contracts/CrowdFund.sol\":96:21678  contract CrowdFund {... */\n  jump(tag_56)\ntag_10:\n  dup3\n  dup1\n  sload\n  tag_57\n  swap1\n  tag_58\n  jump\t// in\ntag_57:\n  swap1\n  0x00\n  mstore\n  keccak256(0x00, 0x20)\n  swap1\n  0x1f\n  add\n  0x20\n  swap1\n  div\n  dup2\n  add\n  swap3\n  dup3\n  tag_60\n  jumpi\n  0x00\n  dup6\n  sstore\n  jump(tag_59)\ntag_60:\n  dup3\n  0x1f\n  lt\n  tag_61\n  jumpi\n  dup1\n  mload\n  not(0xff)\n  and\n  dup4\n  dup1\n  add\n  or\n  dup6\n  sstore\n  jump(tag_59)\ntag_61:\n  dup3\n  dup1\n  add\n  0x01\n  add\n  dup6\n  sstore\n  dup3\n  iszero\n  tag_59\n  jumpi\n  swap2\n  dup3\n  add\ntag_62:\n  dup3\n  dup2\n  gt\n  iszero\n  tag_63\n  jumpi\n  dup3\n  mload\n  dup3\n  sstore\n  swap2\n  0x20\n  add\n  swap2\n  swap1\n  0x01\n  add\n  swap1\n  jump(tag_62)\ntag_63:\ntag_59:\n  pop\n  swap1\n  pop\n  tag_64\n  swap2\n  swap1\n  tag_65\n  jump\t// in\ntag_64:\n  pop\n  swap1\n  jump\t// out\ntag_65:\ntag_66:\n  dup1\n  dup3\n  gt\n  iszero\n  tag_67\n  jumpi\n  0x00\n  dup2\n  0x00\n  swap1\n  sstore\n  pop\n  0x01\n  add\n  jump(tag_66)\ntag_67:\n  pop\n  swap1\n  jump\t// out\n    /* \"#utility.yul\":7:327   */\ntag_58:\n    /* \"#utility.yul\":51:57   */\n  0x00\n    /* \"#utility.yul\":88:89   */\n  0x02\n    /* \"#utility.yul\":82:86   */\n  dup3\n    /* \"#utility.yul\":78:90   */\n  div\n    /* \"#utility.yul\":68:90   */\n  swap1\n  pop\n    /* \"#utility.yul\":135:136   */\n  0x01\n    /* \"#utility.yul\":129:133   */\n  dup3\n    /* \"#utility.yul\":125:137   */\n  and\n    /* \"#utility.yul\":156:174   */\n  dup1\n    /* \"#utility.yul\":146:227   */\n  tag_70\n  jumpi\n    /* \"#utility.yul\":212:216   */\n  0x7f\n    /* \"#utility.yul\":204:210   */\n  dup3\n    /* \"#utility.yul\":200:217   */\n  and\n    /* \"#utility.yul\":190:217   */\n  swap2\n  pop\n    /* \"#utility.yul\":146:227   */\ntag_70:\n    /* \"#utility.yul\":274:276   */\n  0x20\n    /* \"#utility.yul\":266:272   */\n  dup3\n    /* \"#utility.yul\":263:277   */\n  lt\n    /* \"#utility.yul\":243:261   */\n  dup2\n    /* \"#utility.yul\":240:278   */\n  eq\n    /* \"#utility.yul\":237:321   */\n  iszero\n  tag_71\n  jumpi\n    /* \"#utility.yul\":293:311   */\n  tag_72\n  tag_73\n  jump\t// in\ntag_72:\n    /* \"#utility.yul\":237:321   */\ntag_71:\n    /* \"#utility.yul\":58:327   */\n  pop\n    /* \"#utility.yul\":7:327   */\n  swap2\n  swap1\n  pop\n  jump\t// out\n    /* \"#utility.yul\":333:513   */\ntag_6:\n    /* \"#utility.yul\":381:458   */\n  0x4e487b7100000000000000000000000000000000000000000000000000000000\n    /* \"#utility.yul\":378:379   */\n  0x00\n    /* \"#utility.yul\":371:459   */\n  mstore\n    /* \"#utility.yul\":478:482   */\n  0x21\n    /* \"#utility.yul\":475:476   */\n  0x04\n    /* \"#utility.yul\":468:483   */\n  mstore\n    /* \"#utility.yul\":502:506   */\n  0x24\n    /* \"#utility.yul\":499:500   */\n  0x00\n    /* \"#utility.yul\":492:507   */\n  revert\n    /* \"#utility.yul\":519:699   */\ntag_73:\n    /* \"#utility.yul\":567:644   */\n  0x4e487b7100000000000000000000000000000000000000000000000000000000\n    /* \"#utility.yul\":564:565   */\n  0x00\n    /* \"#utility.yul\":557:645   */\n  mstore\n    /* \"#utility.yul\":664:668   */\n  0x22\n    /* \"#utility.yul\":661:662   */\n  0x04\n    /* \"#utility.yul\":654:669   */\n  mstore\n    /* \"#utility.yul\":688:692   */\n  0x24\n    /* \"#utility.yul\":685:686   */\n  0x00\n    /* \"#utility.yul\":678:693   */\n  revert\n    /* \"contracts/CrowdFund.sol\":96:21678  contract CrowdFund {... */\ntag_56:\n  dataSize(sub_0)\n  dup1\n  dataOffset(sub_0)\n  0x00\n  codecopy\n  0x00\n  return\nstop\n\nsub_0: assembly {\n        /* \"contracts/CrowdFund.sol\":96:21678  contract CrowdFund {... */\n      mstore(0x40, 0x80)\n      jumpi(tag_1, lt(calldatasize, 0x04))\n      shr(0xe0, calldataload(0x00))\n      dup1\n      0x9238cf4e\n      gt\n      tag_19\n      jumpi\n      dup1\n      0xbfda08a3\n      gt\n      tag_20\n      jumpi\n      dup1\n      0xbfda08a3\n      eq\n      tag_14\n      jumpi\n      dup1\n      0xc4529ab9\n      eq\n      tag_15\n      jumpi\n      dup1\n      0xca76973d\n      eq\n      tag_16\n      jumpi\n      dup1\n      0xced4f4b8\n      eq\n      tag_17\n      jumpi\n      dup1\n      0xef6add32\n      eq\n      tag_18\n      jumpi\n      jump(tag_1)\n    tag_20:\n      dup1\n      0x9238cf4e\n      eq\n      tag_10\n      jumpi\n      dup1\n      0x9df9b0e6\n      eq\n      tag_11\n      jumpi\n      dup1\n      0xab6b8564\n      eq\n      tag_12\n      jumpi\n      dup1\n      0xb61a7f76\n      eq\n      tag_13\n      jumpi\n      jump(tag_1)\n    tag_19:\n      dup1\n      0x42ef4bcc\n      gt\n      tag_21\n      jumpi\n      dup1\n      0x42ef4bcc\n      eq\n      tag_6\n      jumpi\n      dup1\n      0x44e54812\n      eq\n      tag_7\n      jumpi\n      dup1\n      0x5c3be951\n      eq\n      tag_8\n      jumpi\n      dup1\n      0x864ee384\n      eq\n      tag_9\n      jumpi\n      jump(tag_1)\n    tag_21:\n      dup1\n      0x0ee3b93d\n      eq\n      tag_2\n      jumpi\n      dup1\n      0x1ab33308\n      eq\n      tag_3\n      jumpi\n      dup1\n      0x21bea7cc\n      eq\n      tag_4\n      jumpi\n      dup1\n      0x259e6c8b\n      eq\n      tag_5\n      jumpi\n    tag_1:\n      0x00\n      dup1\n      revert\n        /* \"contracts/CrowdFund.sol\":6853:9386  function updateProjectStatusByCharity(address projectAddress, uint8 enumValue) onlyCharity public {... */\n    tag_2:\n      callvalue\n      dup1\n      iszero\n      tag_22\n      jumpi\n      0x00\n      dup1\n      revert\n    tag_22:\n      pop\n      tag_23\n      0x04\n      dup1\n      calldatasize\n      sub\n      dup2\n      add\n      swap1\n      tag_24\n      swap2\n      swap1\n      tag_25\n      jump\t// in\n    tag_24:\n      tag_26\n      jump\t// in\n    tag_23:\n      stop\n        /* \"contracts/CrowdFund.sol\":3033:3067  ProjectStatus public projectStatus */\n    tag_3:\n      callvalue\n      dup1\n      iszero\n      tag_27\n      jumpi\n      0x00\n      dup1\n      revert\n    tag_27:\n      pop\n      tag_28\n      tag_29\n      jump\t// in\n    tag_28:\n      mload(0x40)\n      tag_30\n      swap2\n      swap1\n      tag_31\n      jump\t// in\n    tag_30:\n      mload(0x40)\n      dup1\n      swap2\n      sub\n      swap1\n      return\n        /* \"contracts/CrowdFund.sol\":13230:16438  function donate(address charityAddress, address projectAddress) public payable {... */\n    tag_4:\n      tag_32\n      0x04\n      dup1\n      calldatasize\n      sub\n      dup2\n      add\n      swap1\n      tag_33\n      swap2\n      swap1\n      tag_34\n      jump\t// in\n    tag_33:\n      tag_35\n      jump\t// in\n    tag_32:\n      stop\n        /* \"contracts/CrowdFund.sol\":20831:20966  function buyEther(address donorAddress) public onlyBoardAdmin payable{... */\n    tag_5:\n      tag_36\n      0x04\n      dup1\n      calldatasize\n      sub\n      dup2\n      add\n      swap1\n      tag_37\n      swap2\n      swap1\n      tag_38\n      jump\t// in\n    tag_37:\n      tag_39\n      jump\t// in\n    tag_36:\n      stop\n        /* \"contracts/CrowdFund.sol\":21132:21676  function getProjectStatus(address charityAddress, address projectAddress) external view returns (... */\n    tag_6:\n      callvalue\n      dup1\n      iszero\n      tag_40\n      jumpi\n      0x00\n      dup1\n      revert\n    tag_40:\n      pop\n      tag_41\n      0x04\n      dup1\n      calldatasize\n      sub\n      dup2\n      add\n      swap1\n      tag_42\n      swap2\n      swap1\n      tag_34\n      jump\t// in\n    tag_42:\n      tag_43\n      jump\t// in\n    tag_41:\n      mload(0x40)\n      tag_44\n      swap2\n      swap1\n      tag_45\n      jump\t// in\n    tag_44:\n      mload(0x40)\n      dup1\n      swap2\n      sub\n      swap1\n      return\n        /* \"contracts/CrowdFund.sol\":5647:6777  function updateProjectStatusByAdmin(address charityAddress, address projectAddress, uint8 enumValue) onlyBoardAdmin public {... */\n    tag_7:\n      callvalue\n      dup1\n      iszero\n      tag_46\n      jumpi\n      0x00\n      dup1\n      revert\n    tag_46:\n      pop\n      tag_47\n      0x04\n      dup1\n      calldatasize\n      sub\n      dup2\n      add\n      swap1\n      tag_48\n      swap2\n      swap1\n      tag_49\n      jump\t// in\n    tag_48:\n      tag_50\n      jump\t// in\n    tag_47:\n      stop\n        /* \"contracts/CrowdFund.sol\":4842:5569  function createProject(uint _minimumAmount, uint _goal, address owner, string memory _documentLink) onlyCharity public {... */\n    tag_8:\n      callvalue\n      dup1\n      iszero\n      tag_51\n      jumpi\n      0x00\n      dup1\n      revert\n    tag_51:\n      pop\n      tag_52\n      0x04\n      dup1\n      calldatasize\n      sub\n      dup2\n      add\n      swap1\n      tag_53\n      swap2\n      swap1\n      tag_54\n      jump\t// in\n    tag_53:\n      tag_55\n      jump\t// in\n    tag_52:\n      stop\n        /* \"contracts/CrowdFund.sol\":3995:4320  function createCharity(string memory _licenseDocsLink, address owner) public onlyBoardAdmin {... */\n    tag_9:\n      callvalue\n      dup1\n      iszero\n      tag_56\n      jumpi\n      0x00\n      dup1\n      revert\n    tag_56:\n      pop\n      tag_57\n      0x04\n      dup1\n      calldatasize\n      sub\n      dup2\n      add\n      swap1\n      tag_58\n      swap2\n      swap1\n      tag_59\n      jump\t// in\n    tag_58:\n      tag_60\n      jump\t// in\n    tag_57:\n      stop\n        /* \"contracts/CrowdFund.sol\":10311:10848  function getProjectOwnerBalance(address charityAddress, address projectAddress) public view returns (... */\n    tag_10:\n      callvalue\n      dup1\n      iszero\n      tag_61\n      jumpi\n      0x00\n      dup1\n      revert\n    tag_61:\n      pop\n      tag_62\n      0x04\n      dup1\n      calldatasize\n      sub\n      dup2\n      add\n      swap1\n      tag_63\n      swap2\n      swap1\n      tag_34\n      jump\t// in\n    tag_63:\n      tag_64\n      jump\t// in\n    tag_62:\n      mload(0x40)\n      tag_65\n      swap2\n      swap1\n      tag_66\n      jump\t// in\n    tag_65:\n      mload(0x40)\n      dup1\n      swap2\n      sub\n      swap1\n      return\n        /* \"contracts/CrowdFund.sol\":16495:18797  function getRefund(address charityAddress, address projectAddress) public {... */\n    tag_11:\n      callvalue\n      dup1\n      iszero\n      tag_67\n      jumpi\n      0x00\n      dup1\n      revert\n    tag_67:\n      pop\n      tag_68\n      0x04\n      dup1\n      calldatasize\n      sub\n      dup2\n      add\n      swap1\n      tag_69\n      swap2\n      swap1\n      tag_34\n      jump\t// in\n    tag_69:\n      tag_70\n      jump\t// in\n    tag_68:\n      stop\n        /* \"contracts/CrowdFund.sol\":4374:4687  function updateCharityStatus(address charityAddress, bool status, string memory reason) public onlyBoardAdmin {... */\n    tag_12:\n      callvalue\n      dup1\n      iszero\n      tag_71\n      jumpi\n      0x00\n      dup1\n      revert\n    tag_71:\n      pop\n      tag_72\n      0x04\n      dup1\n      calldatasize\n      sub\n      dup2\n      add\n      swap1\n      tag_73\n      swap2\n      swap1\n      tag_74\n      jump\t// in\n    tag_73:\n      tag_75\n      jump\t// in\n    tag_72:\n      stop\n        /* \"contracts/CrowdFund.sol\":1074:1099  address public boardAdmin */\n    tag_13:\n      callvalue\n      dup1\n      iszero\n      tag_76\n      jumpi\n      0x00\n      dup1\n      revert\n    tag_76:\n      pop\n      tag_77\n      tag_78\n      jump\t// in\n    tag_77:\n      mload(0x40)\n      tag_79\n      swap2\n      swap1\n      tag_80\n      jump\t// in\n    tag_79:\n      mload(0x40)\n      dup1\n      swap2\n      sub\n      swap1\n      return\n        /* \"contracts/CrowdFund.sol\":9438:10244  function getProjectFundDetails(address charityAddress, address projectAddress) public view returns (... */\n    tag_14:\n      callvalue\n      dup1\n      iszero\n      tag_81\n      jumpi\n      0x00\n      dup1\n      revert\n    tag_81:\n      pop\n      tag_82\n      0x04\n      dup1\n      calldatasize\n      sub\n      dup2\n      add\n      swap1\n      tag_83\n      swap2\n      swap1\n      tag_34\n      jump\t// in\n    tag_83:\n      tag_84\n      jump\t// in\n    tag_82:\n      mload(0x40)\n      tag_85\n      swap4\n      swap3\n      swap2\n      swap1\n      tag_86\n      jump\t// in\n    tag_85:\n      mload(0x40)\n      dup1\n      swap2\n      sub\n      swap1\n      return\n        /* \"contracts/CrowdFund.sol\":11828:13136  function getProjectListByCharity(address charityAddress) public view returns (... */\n    tag_15:\n      callvalue\n      dup1\n      iszero\n      tag_87\n      jumpi\n      0x00\n      dup1\n      revert\n    tag_87:\n      pop\n      tag_88\n      0x04\n      dup1\n      calldatasize\n      sub\n      dup2\n      add\n      swap1\n      tag_89\n      swap2\n      swap1\n      tag_38\n      jump\t// in\n    tag_89:\n      tag_90\n      jump\t// in\n    tag_88:\n      mload(0x40)\n      tag_91\n      swap5\n      swap4\n      swap3\n      swap2\n      swap1\n      tag_92\n      jump\t// in\n    tag_91:\n      mload(0x40)\n      dup1\n      swap2\n      sub\n      swap1\n      return\n        /* \"contracts/CrowdFund.sol\":10907:11771  function getDonorBalance(address charityAddress, address projectAddress, address donorAddress) public view returns (... */\n    tag_16:\n      callvalue\n      dup1\n      iszero\n      tag_93\n      jumpi\n      0x00\n      dup1\n      revert\n    tag_93:\n      pop\n      tag_94\n      0x04\n      dup1\n      calldatasize\n      sub\n      dup2\n      add\n      swap1\n      tag_95\n      swap2\n      swap1\n      tag_96\n      jump\t// in\n    tag_95:\n      tag_97\n      jump\t// in\n    tag_94:\n      mload(0x40)\n      tag_98\n      swap2\n      swap1\n      tag_66\n      jump\t// in\n    tag_98:\n      mload(0x40)\n      dup1\n      swap2\n      sub\n      swap1\n      return\n        /* \"contracts/CrowdFund.sol\":20998:21097  function sellEther() public payable{... */\n    tag_17:\n      tag_99\n      tag_100\n      jump\t// in\n    tag_99:\n      stop\n        /* \"contracts/CrowdFund.sol\":3105:3160  mapping(ProjectStatus => string) public projectStatuses */\n    tag_18:\n      callvalue\n      dup1\n      iszero\n      tag_101\n      jumpi\n      0x00\n      dup1\n      revert\n    tag_101:\n      pop\n      tag_102\n      0x04\n      dup1\n      calldatasize\n      sub\n      dup2\n      add\n      swap1\n      tag_103\n      swap2\n      swap1\n      tag_104\n      jump\t// in\n    tag_103:\n      tag_105\n      jump\t// in\n    tag_102:\n      mload(0x40)\n      tag_106\n      swap2\n      swap1\n      tag_45\n      jump\t// in\n    tag_106:\n      mload(0x40)\n      dup1\n      swap2\n      sub\n      swap1\n      return\n        /* \"contracts/CrowdFund.sol\":6853:9386  function updateProjectStatusByCharity(address projectAddress, uint8 enumValue) onlyCharity public {... */\n    tag_26:\n        /* \"contracts/CrowdFund.sol\":3324:3334  boardAdmin */\n      0x02\n      0x00\n      swap1\n      sload\n      swap1\n      0x0100\n      exp\n      swap1\n      div\n      0xffffffffffffffffffffffffffffffffffffffff\n      and\n        /* \"contracts/CrowdFund.sol\":3312:3334  msg.sender!=boardAdmin */\n      0xffffffffffffffffffffffffffffffffffffffff\n      and\n        /* \"contracts/CrowdFund.sol\":3312:3322  msg.sender */\n      caller\n        /* \"contracts/CrowdFund.sol\":3312:3334  msg.sender!=boardAdmin */\n      0xffffffffffffffffffffffffffffffffffffffff\n      and\n      eq\n      iszero\n        /* \"contracts/CrowdFund.sol\":3335:3347  ONLY_CHARITY */\n      mload(0x40)\n      dup1\n      0x60\n      add\n      0x40\n      mstore\n      dup1\n      0x2f\n      dup2\n      mstore\n      0x20\n      add\n      data_ae7511c0e8221605b02a680fd07d0703f28d0f0f32c6884aaca3289d2fe90612\n      0x2f\n      swap2\n      codecopy\n        /* \"contracts/CrowdFund.sol\":3304:3348  require(msg.sender!=boardAdmin,ONLY_CHARITY) */\n      swap1\n      tag_108\n      jumpi\n      mload(0x40)\n      0x08c379a000000000000000000000000000000000000000000000000000000000\n      dup2\n      mstore\n      0x04\n      add\n      tag_109\n      swap2\n      swap1\n      tag_45\n      jump\t// in\n    tag_109:\n      mload(0x40)\n      dup1\n      swap2\n      sub\n      swap1\n      revert\n    tag_108:\n      pop\n        /* \"contracts/CrowdFund.sol\":6962:6972  bool exist */\n      0x00\n        /* \"contracts/CrowdFund.sol\":7027:7044  ProjectStatus.PGA */\n      0x03\n        /* \"contracts/CrowdFund.sol\":6999:7044  ProjectStatus(enumValue) != ProjectStatus.PGA */\n      0x09\n      dup2\n      gt\n      iszero\n      tag_111\n      jumpi\n      tag_112\n      tag_113\n      jump\t// in\n    tag_112:\n    tag_111:\n        /* \"contracts/CrowdFund.sol\":7013:7022  enumValue */\n      dup3\n        /* \"contracts/CrowdFund.sol\":6999:7023  ProjectStatus(enumValue) */\n      0xff\n      and\n      0x09\n      dup2\n      gt\n      iszero\n      tag_114\n      jumpi\n      tag_115\n      tag_113\n      jump\t// in\n    tag_115:\n    tag_114:\n        /* \"contracts/CrowdFund.sol\":6999:7044  ProjectStatus(enumValue) != ProjectStatus.PGA */\n      0x09\n      dup2\n      gt\n      iszero\n      tag_116\n      jumpi\n      tag_117\n      tag_113\n      jump\t// in\n    tag_117:\n    tag_116:\n      eq\n      iszero\n        /* \"contracts/CrowdFund.sol\":7045:7052  NO_AUTH */\n      mload(0x40)\n      dup1\n      0x60\n      add\n      0x40\n      mstore\n      dup1\n      0x31\n      dup2\n      mstore\n      0x20\n      add\n      data_5c19b7ff1bcfb320392194574ccc24118e50bba13de42db0a22f05014bb7a7fa\n      0x31\n      swap2\n      codecopy\n        /* \"contracts/CrowdFund.sol\":6991:7053  require(ProjectStatus(enumValue) != ProjectStatus.PGA,NO_AUTH) */\n      swap1\n      tag_118\n      jumpi\n      mload(0x40)\n      0x08c379a000000000000000000000000000000000000000000000000000000000\n      dup2\n      mstore\n      0x04\n      add\n      tag_119\n      swap2\n      swap1\n      tag_45\n      jump\t// in\n    tag_119:\n      mload(0x40)\n      dup1\n      swap2\n      sub\n      swap1\n      revert\n    tag_118:\n      pop\n        /* \"contracts/CrowdFund.sol\":7099:7116  ProjectStatus.XRR */\n      0x05\n        /* \"contracts/CrowdFund.sol\":7071:7116  ProjectStatus(enumValue) != ProjectStatus.XRR */\n      0x09\n      dup2\n      gt\n      iszero\n      tag_120\n      jumpi\n      tag_121\n      tag_113\n      jump\t// in\n    tag_121:\n    tag_120:\n        /* \"contracts/CrowdFund.sol\":7085:7094  enumValue */\n      dup3\n        /* \"contracts/CrowdFund.sol\":7071:7095  ProjectStatus(enumValue) */\n      0xff\n      and\n      0x09\n      dup2\n      gt\n      iszero\n      tag_122\n      jumpi\n      tag_123\n      tag_113\n      jump\t// in\n    tag_123:\n    tag_122:\n        /* \"contracts/CrowdFund.sol\":7071:7116  ProjectStatus(enumValue) != ProjectStatus.XRR */\n      0x09\n      dup2\n      gt\n      iszero\n      tag_124\n      jumpi\n      tag_125\n      tag_113\n      jump\t// in\n    tag_125:\n    tag_124:\n      eq\n      iszero\n        /* \"contracts/CrowdFund.sol\":7117:7124  NO_AUTH */\n      mload(0x40)\n      dup1\n      0x60\n      add\n      0x40\n      mstore\n      dup1\n      0x31\n      dup2\n      mstore\n      0x20\n      add\n      data_5c19b7ff1bcfb320392194574ccc24118e50bba13de42db0a22f05014bb7a7fa\n      0x31\n      swap2\n      codecopy\n        /* \"contracts/CrowdFund.sol\":7063:7125  require(ProjectStatus(enumValue) != ProjectStatus.XRR,NO_AUTH) */\n      swap1\n      tag_126\n      jumpi\n      mload(0x40)\n      0x08c379a000000000000000000000000000000000000000000000000000000000\n      dup2\n      mstore\n      0x04\n      add\n      tag_127\n      swap2\n      swap1\n      tag_45\n      jump\t// in\n    tag_127:\n      mload(0x40)\n      dup1\n      swap2\n      sub\n      swap1\n      revert\n    tag_126:\n      pop\n        /* \"contracts/CrowdFund.sol\":7136:7165  Project[] storage projectList */\n      0x00\n        /* \"contracts/CrowdFund.sol\":7168:7183  charityProjects */\n      0x03\n        /* \"contracts/CrowdFund.sol\":7168:7195  charityProjects[msg.sender] */\n      0x00\n        /* \"contracts/CrowdFund.sol\":7184:7194  msg.sender */\n      caller\n        /* \"contracts/CrowdFund.sol\":7168:7195  charityProjects[msg.sender] */\n      0xffffffffffffffffffffffffffffffffffffffff\n      and\n      0xffffffffffffffffffffffffffffffffffffffff\n      and\n      dup2\n      mstore\n      0x20\n      add\n      swap1\n      dup2\n      mstore\n      0x20\n      add\n      0x00\n      keccak256\n        /* \"contracts/CrowdFund.sol\":7136:7195  Project[] storage projectList = charityProjects[msg.sender] */\n      swap1\n      pop\n        /* \"contracts/CrowdFund.sol\":7234:7235  0 */\n      0x00\n        /* \"contracts/CrowdFund.sol\":7213:7224  projectList */\n      dup2\n        /* \"contracts/CrowdFund.sol\":7213:7231  projectList.length */\n      dup1\n      sload\n      swap1\n      pop\n        /* \"contracts/CrowdFund.sol\":7213:7235  projectList.length > 0 */\n      gt\n        /* \"contracts/CrowdFund.sol\":7205:7274  require(projectList.length > 0,\"No project exist under this charity\") */\n      tag_128\n      jumpi\n      mload(0x40)\n      0x08c379a000000000000000000000000000000000000000000000000000000000\n      dup2\n      mstore\n      0x04\n      add\n      tag_129\n      swap1\n      tag_130\n      jump\t// in\n    tag_129:\n      mload(0x40)\n      dup1\n      swap2\n      sub\n      swap1\n      revert\n    tag_128:\n        /* \"contracts/CrowdFund.sol\":7290:7296  uint i */\n      0x00\n        /* \"contracts/CrowdFund.sol\":7285:9380  for (uint i=0;i<projectList.length;i++) {... */\n    tag_131:\n        /* \"contracts/CrowdFund.sol\":7301:7312  projectList */\n      dup2\n        /* \"contracts/CrowdFund.sol\":7301:7319  projectList.length */\n      dup1\n      sload\n      swap1\n      pop\n        /* \"contracts/CrowdFund.sol\":7299:7300  i */\n      dup2\n        /* \"contracts/CrowdFund.sol\":7299:7319  i<projectList.length */\n      lt\n        /* \"contracts/CrowdFund.sol\":7285:9380  for (uint i=0;i<projectList.length;i++) {... */\n      iszero\n      tag_132\n      jumpi\n        /* \"contracts/CrowdFund.sol\":7367:7381  projectAddress */\n      dup5\n        /* \"contracts/CrowdFund.sol\":7343:7381  projectList[i].owner == projectAddress */\n      0xffffffffffffffffffffffffffffffffffffffff\n      and\n        /* \"contracts/CrowdFund.sol\":7343:7354  projectList */\n      dup3\n        /* \"contracts/CrowdFund.sol\":7355:7356  i */\n      dup3\n        /* \"contracts/CrowdFund.sol\":7343:7357  projectList[i] */\n      dup2\n      sload\n      dup2\n      lt\n      tag_134\n      jumpi\n      tag_135\n      tag_136\n      jump\t// in\n    tag_135:\n    tag_134:\n      swap1\n      0x00\n      mstore\n      keccak256(0x00, 0x20)\n      swap1\n      0x07\n      mul\n      add\n        /* \"contracts/CrowdFund.sol\":7343:7363  projectList[i].owner */\n      0x03\n      add\n      0x00\n      swap1\n      sload\n      swap1\n      0x0100\n      exp\n      swap1\n      div\n      0xffffffffffffffffffffffffffffffffffffffff\n      and\n        /* \"contracts/CrowdFund.sol\":7343:7381  projectList[i].owner == projectAddress */\n      0xffffffffffffffffffffffffffffffffffffffff\n      and\n      eq\n        /* \"contracts/CrowdFund.sol\":7339:9323  if (projectList[i].owner == projectAddress) {... */\n      iszero\n      tag_138\n      jumpi\n        /* \"contracts/CrowdFund.sol\":7426:7430  true */\n      0x01\n        /* \"contracts/CrowdFund.sol\":7418:7430  exist = true */\n      swap3\n      pop\n        /* \"contracts/CrowdFund.sol\":7481:7498  ProjectStatus.XRJ */\n      0x07\n        /* \"contracts/CrowdFund.sol\":7453:7498  ProjectStatus(enumValue) == ProjectStatus.XRJ */\n      0x09\n      dup2\n      gt\n      iszero\n      tag_139\n      jumpi\n      tag_140\n      tag_113\n      jump\t// in\n    tag_140:\n    tag_139:\n        /* \"contracts/CrowdFund.sol\":7467:7476  enumValue */\n      dup5\n        /* \"contracts/CrowdFund.sol\":7453:7477  ProjectStatus(enumValue) */\n      0xff\n      and\n      0x09\n      dup2\n      gt\n      iszero\n      tag_141\n      jumpi\n      tag_142\n      tag_113\n      jump\t// in\n    tag_142:\n    tag_141:\n        /* \"contracts/CrowdFund.sol\":7453:7498  ProjectStatus(enumValue) == ProjectStatus.XRJ */\n      0x09\n      dup2\n      gt\n      iszero\n      tag_143\n      jumpi\n      tag_144\n      tag_113\n      jump\t// in\n    tag_144:\n    tag_143:\n      eq\n        /* \"contracts/CrowdFund.sol\":7453:7567  ProjectStatus(enumValue) == ProjectStatus.XRJ ||... */\n      dup1\n      tag_145\n      jumpi\n      pop\n        /* \"contracts/CrowdFund.sol\":7550:7567  ProjectStatus.XRA */\n      0x06\n        /* \"contracts/CrowdFund.sol\":7522:7567  ProjectStatus(enumValue) == ProjectStatus.XRA */\n      0x09\n      dup2\n      gt\n      iszero\n      tag_146\n      jumpi\n      tag_147\n      tag_113\n      jump\t// in\n    tag_147:\n    tag_146:\n        /* \"contracts/CrowdFund.sol\":7536:7545  enumValue */\n      dup5\n        /* \"contracts/CrowdFund.sol\":7522:7546  ProjectStatus(enumValue) */\n      0xff\n      and\n      0x09\n      dup2\n      gt\n      iszero\n      tag_148\n      jumpi\n      tag_149\n      tag_113\n      jump\t// in\n    tag_149:\n    tag_148:\n        /* \"contracts/CrowdFund.sol\":7522:7567  ProjectStatus(enumValue) == ProjectStatus.XRA */\n      0x09\n      dup2\n      gt\n      iszero\n      tag_150\n      jumpi\n      tag_151\n      tag_113\n      jump\t// in\n    tag_151:\n    tag_150:\n      eq\n        /* \"contracts/CrowdFund.sol\":7453:7567  ProjectStatus(enumValue) == ProjectStatus.XRJ ||... */\n    tag_145:\n        /* \"contracts/CrowdFund.sol\":7449:9309  if (ProjectStatus(enumValue) == ProjectStatus.XRJ ||... */\n      iszero\n      tag_152\n      jumpi\n        /* \"contracts/CrowdFund.sol\":7624:7629  false */\n      0x00\n        /* \"contracts/CrowdFund.sol\":7592:7603  projectList */\n      dup3\n        /* \"contracts/CrowdFund.sol\":7604:7605  i */\n      dup3\n        /* \"contracts/CrowdFund.sol\":7592:7606  projectList[i] */\n      dup2\n      sload\n      dup2\n      lt\n      tag_153\n      jumpi\n      tag_154\n      tag_136\n      jump\t// in\n    tag_154:\n    tag_153:\n      swap1\n      0x00\n      mstore\n      keccak256(0x00, 0x20)\n      swap1\n      0x07\n      mul\n      add\n        /* \"contracts/CrowdFund.sol\":7592:7621  projectList[i].acceptDonation */\n      0x04\n      add\n      0x14\n        /* \"contracts/CrowdFund.sol\":7592:7629  projectList[i].acceptDonation = false */\n      0x0100\n      exp\n      dup2\n      sload\n      dup2\n      0xff\n      mul\n      not\n      and\n      swap1\n      dup4\n      iszero\n      iszero\n      mul\n      or\n      swap1\n      sstore\n      pop\n        /* \"contracts/CrowdFund.sol\":7731:7809  CharityMessageToReceiver(msg.sender, projectAddress, ProjectStatus(enumValue)) */\n      0x7149b8a236148161d6ed6dd65ee3d95161a895f8788d472b49a825ee9a996d6d\n        /* \"contracts/CrowdFund.sol\":7756:7766  msg.sender */\n      caller\n        /* \"contracts/CrowdFund.sol\":7768:7782  projectAddress */\n      dup7\n        /* \"contracts/CrowdFund.sol\":7798:7807  enumValue */\n      dup7\n        /* \"contracts/CrowdFund.sol\":7784:7808  ProjectStatus(enumValue) */\n      0xff\n      and\n      0x09\n      dup2\n      gt\n      iszero\n      tag_156\n      jumpi\n      tag_157\n      tag_113\n      jump\t// in\n    tag_157:\n    tag_156:\n        /* \"contracts/CrowdFund.sol\":7731:7809  CharityMessageToReceiver(msg.sender, projectAddress, ProjectStatus(enumValue)) */\n      mload(0x40)\n      tag_158\n      swap4\n      swap3\n      swap2\n      swap1\n      tag_159\n      jump\t// in\n    tag_158:\n      mload(0x40)\n      dup1\n      swap2\n      sub\n      swap1\n      log1\n        /* \"contracts/CrowdFund.sol\":7912:7929  ProjectStatus.XRJ */\n      0x07\n        /* \"contracts/CrowdFund.sol\":7884:7929  ProjectStatus(enumValue) == ProjectStatus.XRJ */\n      0x09\n      dup2\n      gt\n      iszero\n      tag_160\n      jumpi\n      tag_161\n      tag_113\n      jump\t// in\n    tag_161:\n    tag_160:\n        /* \"contracts/CrowdFund.sol\":7898:7907  enumValue */\n      dup5\n        /* \"contracts/CrowdFund.sol\":7884:7908  ProjectStatus(enumValue) */\n      0xff\n      and\n      0x09\n      dup2\n      gt\n      iszero\n      tag_162\n      jumpi\n      tag_163\n      tag_113\n      jump\t// in\n    tag_163:\n    tag_162:\n        /* \"contracts/CrowdFund.sol\":7884:7929  ProjectStatus(enumValue) == ProjectStatus.XRJ */\n      0x09\n      dup2\n      gt\n      iszero\n      tag_164\n      jumpi\n      tag_165\n      tag_113\n      jump\t// in\n    tag_165:\n    tag_164:\n      eq\n        /* \"contracts/CrowdFund.sol\":7880:8668  if (ProjectStatus(enumValue) == ProjectStatus.XRJ) {... */\n      iszero\n      tag_166\n      jumpi\n        /* \"contracts/CrowdFund.sol\":8030:8075  refundToAllDonors(msg.sender, projectAddress) */\n      tag_167\n        /* \"contracts/CrowdFund.sol\":8048:8058  msg.sender */\n      caller\n        /* \"contracts/CrowdFund.sol\":8060:8074  projectAddress */\n      dup7\n        /* \"contracts/CrowdFund.sol\":8030:8047  refundToAllDonors */\n      tag_168\n        /* \"contracts/CrowdFund.sol\":8030:8075  refundToAllDonors(msg.sender, projectAddress) */\n      jump\t// in\n    tag_167:\n        /* \"contracts/CrowdFund.sol\":8191:8259  CharityMessageToDonor(msg.sender, projectAddress, ProjectStatus.RFD) */\n      0xb1c913a6f2ffb3dc7a85bc2d3def4ca9bc82b4ff580cadc77acbbbd3a6aacc20\n        /* \"contracts/CrowdFund.sol\":8213:8223  msg.sender */\n      caller\n        /* \"contracts/CrowdFund.sol\":8225:8239  projectAddress */\n      dup7\n        /* \"contracts/CrowdFund.sol\":8241:8258  ProjectStatus.RFD */\n      0x08\n        /* \"contracts/CrowdFund.sol\":8191:8259  CharityMessageToDonor(msg.sender, projectAddress, ProjectStatus.RFD) */\n      mload(0x40)\n      tag_169\n      swap4\n      swap3\n      swap2\n      swap1\n      tag_159\n      jump\t// in\n    tag_169:\n      mload(0x40)\n      dup1\n      swap2\n      sub\n      swap1\n      log1\n        /* \"contracts/CrowdFund.sol\":7880:8668  if (ProjectStatus(enumValue) == ProjectStatus.XRJ) {... */\n      jump(tag_170)\n    tag_166:\n        /* \"contracts/CrowdFund.sol\":8321:8338  ProjectStatus.XRA */\n      0x06\n        /* \"contracts/CrowdFund.sol\":8293:8338  ProjectStatus(enumValue) == ProjectStatus.XRA */\n      0x09\n      dup2\n      gt\n      iszero\n      tag_171\n      jumpi\n      tag_172\n      tag_113\n      jump\t// in\n    tag_172:\n    tag_171:\n        /* \"contracts/CrowdFund.sol\":8307:8316  enumValue */\n      dup5\n        /* \"contracts/CrowdFund.sol\":8293:8317  ProjectStatus(enumValue) */\n      0xff\n      and\n      0x09\n      dup2\n      gt\n      iszero\n      tag_173\n      jumpi\n      tag_174\n      tag_113\n      jump\t// in\n    tag_174:\n    tag_173:\n        /* \"contracts/CrowdFund.sol\":8293:8338  ProjectStatus(enumValue) == ProjectStatus.XRA */\n      0x09\n      dup2\n      gt\n      iszero\n      tag_175\n      jumpi\n      tag_176\n      tag_113\n      jump\t// in\n    tag_176:\n    tag_175:\n      eq\n        /* \"contracts/CrowdFund.sol\":8289:8668  if (ProjectStatus(enumValue) == ProjectStatus.XRA) {... */\n      iszero\n      tag_177\n      jumpi\n        /* \"contracts/CrowdFund.sol\":8439:8485  transferToReceiver(msg.sender, projectAddress) */\n      tag_178\n        /* \"contracts/CrowdFund.sol\":8458:8468  msg.sender */\n      caller\n        /* \"contracts/CrowdFund.sol\":8470:8484  projectAddress */\n      dup7\n        /* \"contracts/CrowdFund.sol\":8439:8457  transferToReceiver */\n      tag_179\n        /* \"contracts/CrowdFund.sol\":8439:8485  transferToReceiver(msg.sender, projectAddress) */\n      jump\t// in\n    tag_178:\n        /* \"contracts/CrowdFund.sol\":8577:8645  CharityMessageToDonor(msg.sender, projectAddress, ProjectStatus.CLD) */\n      0xb1c913a6f2ffb3dc7a85bc2d3def4ca9bc82b4ff580cadc77acbbbd3a6aacc20\n        /* \"contracts/CrowdFund.sol\":8599:8609  msg.sender */\n      caller\n        /* \"contracts/CrowdFund.sol\":8611:8625  projectAddress */\n      dup7\n        /* \"contracts/CrowdFund.sol\":8627:8644  ProjectStatus.CLD */\n      0x09\n        /* \"contracts/CrowdFund.sol\":8577:8645  CharityMessageToDonor(msg.sender, projectAddress, ProjectStatus.CLD) */\n      mload(0x40)\n      tag_180\n      swap4\n      swap3\n      swap2\n      swap1\n      tag_159\n      jump\t// in\n    tag_180:\n      mload(0x40)\n      dup1\n      swap2\n      sub\n      swap1\n      log1\n        /* \"contracts/CrowdFund.sol\":8289:8668  if (ProjectStatus(enumValue) == ProjectStatus.XRA) {... */\n    tag_177:\n        /* \"contracts/CrowdFund.sol\":7880:8668  if (ProjectStatus(enumValue) == ProjectStatus.XRJ) {... */\n    tag_170:\n        /* \"contracts/CrowdFund.sol\":7449:9309  if (ProjectStatus(enumValue) == ProjectStatus.XRJ ||... */\n      jump(tag_181)\n    tag_152:\n        /* \"contracts/CrowdFund.sol\":8809:8818  enumValue */\n      dup4\n        /* \"contracts/CrowdFund.sol\":8795:8819  ProjectStatus(enumValue) */\n      0xff\n      and\n      0x09\n      dup2\n      gt\n      iszero\n      tag_182\n      jumpi\n      tag_183\n      tag_113\n      jump\t// in\n    tag_183:\n    tag_182:\n        /* \"contracts/CrowdFund.sol\":8764:8775  projectList */\n      dup3\n        /* \"contracts/CrowdFund.sol\":8776:8777  i */\n      dup3\n        /* \"contracts/CrowdFund.sol\":8764:8778  projectList[i] */\n      dup2\n      sload\n      dup2\n      lt\n      tag_184\n      jumpi\n      tag_185\n      tag_136\n      jump\t// in\n    tag_185:\n    tag_184:\n      swap1\n      0x00\n      mstore\n      keccak256(0x00, 0x20)\n      swap1\n      0x07\n      mul\n      add\n        /* \"contracts/CrowdFund.sol\":8764:8792  projectList[i].projectStatus */\n      0x06\n      add\n      0x00\n        /* \"contracts/CrowdFund.sol\":8764:8819  projectList[i].projectStatus = ProjectStatus(enumValue) */\n      0x0100\n      exp\n      dup2\n      sload\n      dup2\n      0xff\n      mul\n      not\n      and\n      swap1\n      dup4\n      0x09\n      dup2\n      gt\n      iszero\n      tag_187\n      jumpi\n      tag_188\n      tag_113\n      jump\t// in\n    tag_188:\n    tag_187:\n      mul\n      or\n      swap1\n      sstore\n      pop\n        /* \"contracts/CrowdFund.sol\":8874:8891  ProjectStatus.APR */\n      0x02\n        /* \"contracts/CrowdFund.sol\":8846:8891  ProjectStatus(enumValue) == ProjectStatus.APR */\n      0x09\n      dup2\n      gt\n      iszero\n      tag_189\n      jumpi\n      tag_190\n      tag_113\n      jump\t// in\n    tag_190:\n    tag_189:\n        /* \"contracts/CrowdFund.sol\":8860:8869  enumValue */\n      dup5\n        /* \"contracts/CrowdFund.sol\":8846:8870  ProjectStatus(enumValue) */\n      0xff\n      and\n      0x09\n      dup2\n      gt\n      iszero\n      tag_191\n      jumpi\n      tag_192\n      tag_113\n      jump\t// in\n    tag_192:\n    tag_191:\n        /* \"contracts/CrowdFund.sol\":8846:8891  ProjectStatus(enumValue) == ProjectStatus.APR */\n      0x09\n      dup2\n      gt\n      iszero\n      tag_193\n      jumpi\n      tag_194\n      tag_113\n      jump\t// in\n    tag_194:\n    tag_193:\n      eq\n        /* \"contracts/CrowdFund.sol\":8842:9291  if (ProjectStatus(enumValue) == ProjectStatus.APR) {... */\n      iszero\n      tag_195\n      jumpi\n        /* \"contracts/CrowdFund.sol\":8952:8956  true */\n      0x01\n        /* \"contracts/CrowdFund.sol\":8920:8931  projectList */\n      dup3\n        /* \"contracts/CrowdFund.sol\":8932:8933  i */\n      dup3\n        /* \"contracts/CrowdFund.sol\":8920:8934  projectList[i] */\n      dup2\n      sload\n      dup2\n      lt\n      tag_196\n      jumpi\n      tag_197\n      tag_136\n      jump\t// in\n    tag_197:\n    tag_196:\n      swap1\n      0x00\n      mstore\n      keccak256(0x00, 0x20)\n      swap1\n      0x07\n      mul\n      add\n        /* \"contracts/CrowdFund.sol\":8920:8949  projectList[i].acceptDonation */\n      0x04\n      add\n      0x14\n        /* \"contracts/CrowdFund.sol\":8920:8956  projectList[i].acceptDonation = true */\n      0x0100\n      exp\n      dup2\n      sload\n      dup2\n      0xff\n      mul\n      not\n      and\n      swap1\n      dup4\n      iszero\n      iszero\n      mul\n      or\n      swap1\n      sstore\n      pop\n        /* \"contracts/CrowdFund.sol\":8842:9291  if (ProjectStatus(enumValue) == ProjectStatus.APR) {... */\n      jump(tag_199)\n    tag_195:\n        /* \"contracts/CrowdFund.sol\":9017:9034  ProjectStatus.XRQ */\n      0x04\n        /* \"contracts/CrowdFund.sol\":8989:9034  ProjectStatus(enumValue) == ProjectStatus.XRQ */\n      0x09\n      dup2\n      gt\n      iszero\n      tag_200\n      jumpi\n      tag_201\n      tag_113\n      jump\t// in\n    tag_201:\n    tag_200:\n        /* \"contracts/CrowdFund.sol\":9003:9012  enumValue */\n      dup5\n        /* \"contracts/CrowdFund.sol\":8989:9013  ProjectStatus(enumValue) */\n      0xff\n      and\n      0x09\n      dup2\n      gt\n      iszero\n      tag_202\n      jumpi\n      tag_203\n      tag_113\n      jump\t// in\n    tag_203:\n    tag_202:\n        /* \"contracts/CrowdFund.sol\":8989:9034  ProjectStatus(enumValue) == ProjectStatus.XRQ */\n      0x09\n      dup2\n      gt\n      iszero\n      tag_204\n      jumpi\n      tag_205\n      tag_113\n      jump\t// in\n    tag_205:\n    tag_204:\n      eq\n        /* \"contracts/CrowdFund.sol\":8985:9291  if (ProjectStatus(enumValue) == ProjectStatus.XRQ) {... */\n      iszero\n      tag_206\n      jumpi\n        /* \"contracts/CrowdFund.sol\":9096:9101  false */\n      0x00\n        /* \"contracts/CrowdFund.sol\":9064:9075  projectList */\n      dup3\n        /* \"contracts/CrowdFund.sol\":9076:9077  i */\n      dup3\n        /* \"contracts/CrowdFund.sol\":9064:9078  projectList[i] */\n      dup2\n      sload\n      dup2\n      lt\n      tag_207\n      jumpi\n      tag_208\n      tag_136\n      jump\t// in\n    tag_208:\n    tag_207:\n      swap1\n      0x00\n      mstore\n      keccak256(0x00, 0x20)\n      swap1\n      0x07\n      mul\n      add\n        /* \"contracts/CrowdFund.sol\":9064:9093  projectList[i].acceptDonation */\n      0x04\n      add\n      0x14\n        /* \"contracts/CrowdFund.sol\":9064:9101  projectList[i].acceptDonation = false */\n      0x0100\n      exp\n      dup2\n      sload\n      dup2\n      0xff\n      mul\n      not\n      and\n      swap1\n      dup4\n      iszero\n      iszero\n      mul\n      or\n      swap1\n      sstore\n      pop\n        /* \"contracts/CrowdFund.sol\":9200:9268  CharityMessageToBoard(msg.sender, projectAddress, ProjectStatus.XRQ) */\n      0x8368d76676efaf85c0b16282870a64f994dbb3a7c8cc90ba57d8bd4d4cccb2f3\n        /* \"contracts/CrowdFund.sol\":9222:9232  msg.sender */\n      caller\n        /* \"contracts/CrowdFund.sol\":9234:9248  projectAddress */\n      dup7\n        /* \"contracts/CrowdFund.sol\":9250:9267  ProjectStatus.XRQ */\n      0x04\n        /* \"contracts/CrowdFund.sol\":9200:9268  CharityMessageToBoard(msg.sender, projectAddress, ProjectStatus.XRQ) */\n      mload(0x40)\n      tag_210\n      swap4\n      swap3\n      swap2\n      swap1\n      tag_159\n      jump\t// in\n    tag_210:\n      mload(0x40)\n      dup1\n      swap2\n      sub\n      swap1\n      log1\n        /* \"contracts/CrowdFund.sol\":8985:9291  if (ProjectStatus(enumValue) == ProjectStatus.XRQ) {... */\n    tag_206:\n        /* \"contracts/CrowdFund.sol\":8842:9291  if (ProjectStatus(enumValue) == ProjectStatus.APR) {... */\n    tag_199:\n        /* \"contracts/CrowdFund.sol\":7449:9309  if (ProjectStatus(enumValue) == ProjectStatus.XRJ ||... */\n    tag_181:\n        /* \"contracts/CrowdFund.sol\":7339:9323  if (projectList[i].owner == projectAddress) {... */\n    tag_138:\n        /* \"contracts/CrowdFund.sol\":9341:9346  exist */\n      dup3\n        /* \"contracts/CrowdFund.sol\":9337:9369  if (exist)... */\n      iszero\n      tag_211\n      jumpi\n        /* \"contracts/CrowdFund.sol\":9364:9369  break */\n      jump(tag_132)\n        /* \"contracts/CrowdFund.sol\":9337:9369  if (exist)... */\n    tag_211:\n        /* \"contracts/CrowdFund.sol\":7320:7323  i++ */\n      dup1\n      dup1\n      tag_212\n      swap1\n      tag_213\n      jump\t// in\n    tag_212:\n      swap2\n      pop\n      pop\n        /* \"contracts/CrowdFund.sol\":7285:9380  for (uint i=0;i<projectList.length;i++) {... */\n      jump(tag_131)\n    tag_132:\n      pop\n        /* \"contracts/CrowdFund.sol\":6951:9386  {... */\n      pop\n      pop\n        /* \"contracts/CrowdFund.sol\":6853:9386  function updateProjectStatusByCharity(address projectAddress, uint8 enumValue) onlyCharity public {... */\n      pop\n      pop\n      jump\t// out\n        /* \"contracts/CrowdFund.sol\":3033:3067  ProjectStatus public projectStatus */\n    tag_29:\n      0x05\n      0x00\n      swap1\n      sload\n      swap1\n      0x0100\n      exp\n      swap1\n      div\n      0xff\n      and\n      dup2\n      jump\t// out\n        /* \"contracts/CrowdFund.sol\":13230:16438  function donate(address charityAddress, address projectAddress) public payable {... */\n    tag_35:\n        /* \"contracts/CrowdFund.sol\":13323:13340  bool projectExist */\n      0x00\n        /* \"contracts/CrowdFund.sol\":13362:13391  Project[] storage projectList */\n      dup1\n        /* \"contracts/CrowdFund.sol\":13394:13409  charityProjects */\n      0x03\n        /* \"contracts/CrowdFund.sol\":13394:13425  charityProjects[charityAddress] */\n      0x00\n        /* \"contracts/CrowdFund.sol\":13410:13424  charityAddress */\n      dup6\n        /* \"contracts/CrowdFund.sol\":13394:13425  charityProjects[charityAddress] */\n      0xffffffffffffffffffffffffffffffffffffffff\n      and\n      0xffffffffffffffffffffffffffffffffffffffff\n      and\n      dup2\n      mstore\n      0x20\n      add\n      swap1\n      dup2\n      mstore\n      0x20\n      add\n      0x00\n      keccak256\n        /* \"contracts/CrowdFund.sol\":13362:13425  Project[] storage projectList = charityProjects[charityAddress] */\n      swap1\n      pop\n        /* \"contracts/CrowdFund.sol\":13469:13470  0 */\n      0x00\n        /* \"contracts/CrowdFund.sol\":13448:13459  projectList */\n      dup2\n        /* \"contracts/CrowdFund.sol\":13448:13466  projectList.length */\n      dup1\n      sload\n      swap1\n      pop\n        /* \"contracts/CrowdFund.sol\":13448:13470  projectList.length > 0 */\n      gt\n        /* \"contracts/CrowdFund.sol\":13440:13509  require(projectList.length > 0,\"No project exist under this charity\") */\n      tag_215\n      jumpi\n      mload(0x40)\n      0x08c379a000000000000000000000000000000000000000000000000000000000\n      dup2\n      mstore\n      0x04\n      add\n      tag_216\n      swap1\n      tag_130\n      jump\t// in\n    tag_216:\n      mload(0x40)\n      dup1\n      swap2\n      sub\n      swap1\n      revert\n    tag_215:\n        /* \"contracts/CrowdFund.sol\":13544:13554  msg.sender */\n      caller\n        /* \"contracts/CrowdFund.sol\":13544:13562  msg.sender.balance */\n      0xffffffffffffffffffffffffffffffffffffffff\n      and\n      balance\n        /* \"contracts/CrowdFund.sol\":13531:13540  msg.value */\n      callvalue\n        /* \"contracts/CrowdFund.sol\":13531:13562  msg.value <= msg.sender.balance */\n      gt\n      iszero\n        /* \"contracts/CrowdFund.sol\":13523:13609  require(msg.value <= msg.sender.balance, \"You dont't have sufficient funds to donate\") */\n      tag_217\n      jumpi\n      mload(0x40)\n      0x08c379a000000000000000000000000000000000000000000000000000000000\n      dup2\n      mstore\n      0x04\n      add\n      tag_218\n      swap1\n      tag_219\n      jump\t// in\n    tag_218:\n      mload(0x40)\n      dup1\n      swap2\n      sub\n      swap1\n      revert\n    tag_217:\n        /* \"contracts/CrowdFund.sol\":13629:13635  uint i */\n      0x00\n        /* \"contracts/CrowdFund.sol\":13624:16332  for (uint i=0;i<projectList.length;i++) {... */\n    tag_220:\n        /* \"contracts/CrowdFund.sol\":13640:13651  projectList */\n      dup2\n        /* \"contracts/CrowdFund.sol\":13640:13658  projectList.length */\n      dup1\n      sload\n      swap1\n      pop\n        /* \"contracts/CrowdFund.sol\":13638:13639  i */\n      dup2\n        /* \"contracts/CrowdFund.sol\":13638:13658  i<projectList.length */\n      lt\n        /* \"contracts/CrowdFund.sol\":13624:16332  for (uint i=0;i<projectList.length;i++) {... */\n      iszero\n      tag_221\n      jumpi\n        /* \"contracts/CrowdFund.sol\":13710:13724  projectAddress */\n      dup4\n        /* \"contracts/CrowdFund.sol\":13686:13724  projectList[i].owner == projectAddress */\n      0xffffffffffffffffffffffffffffffffffffffff\n      and\n        /* \"contracts/CrowdFund.sol\":13686:13697  projectList */\n      dup3\n        /* \"contracts/CrowdFund.sol\":13698:13699  i */\n      dup3\n        /* \"contracts/CrowdFund.sol\":13686:13700  projectList[i] */\n      dup2\n      sload\n      dup2\n      lt\n      tag_223\n      jumpi\n      tag_224\n      tag_136\n      jump\t// in\n    tag_224:\n    tag_223:\n      swap1\n      0x00\n      mstore\n      keccak256(0x00, 0x20)\n      swap1\n      0x07\n      mul\n      add\n        /* \"contracts/CrowdFund.sol\":13686:13706  projectList[i].owner */\n      0x03\n      add\n      0x00\n      swap1\n      sload\n      swap1\n      0x0100\n      exp\n      swap1\n      div\n      0xffffffffffffffffffffffffffffffffffffffff\n      and\n        /* \"contracts/CrowdFund.sol\":13686:13724  projectList[i].owner == projectAddress */\n      0xffffffffffffffffffffffffffffffffffffffff\n      and\n      eq\n        /* \"contracts/CrowdFund.sol\":13682:16318  if (projectList[i].owner == projectAddress) { ... */\n      iszero\n      tag_226\n      jumpi\n        /* \"contracts/CrowdFund.sol\":13753:13764  projectList */\n      dup2\n        /* \"contracts/CrowdFund.sol\":13765:13766  i */\n      dup2\n        /* \"contracts/CrowdFund.sol\":13753:13767  projectList[i] */\n      dup2\n      sload\n      dup2\n      lt\n      tag_227\n      jumpi\n      tag_228\n      tag_136\n      jump\t// in\n    tag_228:\n    tag_227:\n      swap1\n      0x00\n      mstore\n      keccak256(0x00, 0x20)\n      swap1\n      0x07\n      mul\n      add\n        /* \"contracts/CrowdFund.sol\":13753:13782  projectList[i].acceptDonation */\n      0x04\n      add\n      0x14\n      swap1\n      sload\n      swap1\n      0x0100\n      exp\n      swap1\n      div\n      0xff\n      and\n        /* \"contracts/CrowdFund.sol\":13749:16231  if (projectList[i].acceptDonation) {... */\n      iszero\n      tag_230\n      jumpi\n        /* \"contracts/CrowdFund.sol\":13856:13867  projectList */\n      dup2\n        /* \"contracts/CrowdFund.sol\":13868:13869  i */\n      dup2\n        /* \"contracts/CrowdFund.sol\":13856:13870  projectList[i] */\n      dup2\n      sload\n      dup2\n      lt\n      tag_231\n      jumpi\n      tag_232\n      tag_136\n      jump\t// in\n    tag_232:\n    tag_231:\n      swap1\n      0x00\n      mstore\n      keccak256(0x00, 0x20)\n      swap1\n      0x07\n      mul\n      add\n        /* \"contracts/CrowdFund.sol\":13856:13884  projectList[i].minimumAmount */\n      0x00\n      add\n      sload\n        /* \"contracts/CrowdFund.sol\":13843:13852  msg.value */\n      callvalue\n        /* \"contracts/CrowdFund.sol\":13843:13884  msg.value >= projectList[i].minimumAmount */\n      lt\n      iszero\n        /* \"contracts/CrowdFund.sol\":13835:13938  require(msg.value >= projectList[i].minimumAmount, \"Should be greater than or equal to minimum amount\") */\n      tag_234\n      jumpi\n      mload(0x40)\n      0x08c379a000000000000000000000000000000000000000000000000000000000\n      dup2\n      mstore\n      0x04\n      add\n      tag_235\n      swap1\n      tag_236\n      jump\t// in\n    tag_235:\n      mload(0x40)\n      dup1\n      swap2\n      sub\n      swap1\n      revert\n    tag_234:\n        /* \"contracts/CrowdFund.sol\":14040:14051  projectList */\n      dup2\n        /* \"contracts/CrowdFund.sol\":14052:14053  i */\n      dup2\n        /* \"contracts/CrowdFund.sol\":14040:14054  projectList[i] */\n      dup2\n      sload\n      dup2\n      lt\n      tag_237\n      jumpi\n      tag_238\n      tag_136\n      jump\t// in\n    tag_238:\n    tag_237:\n      swap1\n      0x00\n      mstore\n      keccak256(0x00, 0x20)\n      swap1\n      0x07\n      mul\n      add\n        /* \"contracts/CrowdFund.sol\":14040:14059  projectList[i].goal */\n      0x01\n      add\n      sload\n        /* \"contracts/CrowdFund.sol\":14009:14020  projectList */\n      dup3\n        /* \"contracts/CrowdFund.sol\":14021:14022  i */\n      dup3\n        /* \"contracts/CrowdFund.sol\":14009:14023  projectList[i] */\n      dup2\n      sload\n      dup2\n      lt\n      tag_240\n      jumpi\n      tag_241\n      tag_136\n      jump\t// in\n    tag_241:\n    tag_240:\n      swap1\n      0x00\n      mstore\n      keccak256(0x00, 0x20)\n      swap1\n      0x07\n      mul\n      add\n        /* \"contracts/CrowdFund.sol\":14009:14036  projectList[i].raisedAmount */\n      0x02\n      add\n      sload\n        /* \"contracts/CrowdFund.sol\":13997:14006  msg.value */\n      callvalue\n        /* \"contracts/CrowdFund.sol\":13997:14036  msg.value + projectList[i].raisedAmount */\n      tag_243\n      swap2\n      swap1\n      tag_244\n      jump\t// in\n    tag_243:\n        /* \"contracts/CrowdFund.sol\":13997:14059  msg.value + projectList[i].raisedAmount <= projectList[i].goal */\n      gt\n      iszero\n        /* \"contracts/CrowdFund.sol\":13989:14106  require(msg.value + projectList[i].raisedAmount <= projectList[i].goal, \"Your contribution exceeds required amount.\") */\n      tag_245\n      jumpi\n      mload(0x40)\n      0x08c379a000000000000000000000000000000000000000000000000000000000\n      dup2\n      mstore\n      0x04\n      add\n      tag_246\n      swap1\n      tag_247\n      jump\t// in\n    tag_246:\n      mload(0x40)\n      dup1\n      swap2\n      sub\n      swap1\n      revert\n    tag_245:\n        /* \"contracts/CrowdFund.sol\":14193:14202  msg.value */\n      callvalue\n        /* \"contracts/CrowdFund.sol\":14163:14174  projectList */\n      dup3\n        /* \"contracts/CrowdFund.sol\":14175:14176  i */\n      dup3\n        /* \"contracts/CrowdFund.sol\":14163:14177  projectList[i] */\n      dup2\n      sload\n      dup2\n      lt\n      tag_248\n      jumpi\n      tag_249\n      tag_136\n      jump\t// in\n    tag_249:\n    tag_248:\n      swap1\n      0x00\n      mstore\n      keccak256(0x00, 0x20)\n      swap1\n      0x07\n      mul\n      add\n        /* \"contracts/CrowdFund.sol\":14163:14190  projectList[i].raisedAmount */\n      0x02\n      add\n      sload\n        /* \"contracts/CrowdFund.sol\":14163:14202  projectList[i].raisedAmount + msg.value */\n      tag_251\n      swap2\n      swap1\n      tag_244\n      jump\t// in\n    tag_251:\n        /* \"contracts/CrowdFund.sol\":14133:14144  projectList */\n      dup3\n        /* \"contracts/CrowdFund.sol\":14145:14146  i */\n      dup3\n        /* \"contracts/CrowdFund.sol\":14133:14147  projectList[i] */\n      dup2\n      sload\n      dup2\n      lt\n      tag_252\n      jumpi\n      tag_253\n      tag_136\n      jump\t// in\n    tag_253:\n    tag_252:\n      swap1\n      0x00\n      mstore\n      keccak256(0x00, 0x20)\n      swap1\n      0x07\n      mul\n      add\n        /* \"contracts/CrowdFund.sol\":14133:14160  projectList[i].raisedAmount */\n      0x02\n      add\n        /* \"contracts/CrowdFund.sol\":14133:14202  projectList[i].raisedAmount = projectList[i].raisedAmount + msg.value */\n      dup2\n      swap1\n      sstore\n      pop\n        /* \"contracts/CrowdFund.sol\":14229:14254  Donor[] storage allDonors */\n      0x00\n        /* \"contracts/CrowdFund.sol\":14257:14270  projectDonors */\n      0x04\n        /* \"contracts/CrowdFund.sol\":14257:14286  projectDonors[projectAddress] */\n      0x00\n        /* \"contracts/CrowdFund.sol\":14271:14285  projectAddress */\n      dup7\n        /* \"contracts/CrowdFund.sol\":14257:14286  projectDonors[projectAddress] */\n      0xffffffffffffffffffffffffffffffffffffffff\n      and\n      0xffffffffffffffffffffffffffffffffffffffff\n      and\n      dup2\n      mstore\n      0x20\n      add\n      swap1\n      dup2\n      mstore\n      0x20\n      add\n      0x00\n      keccak256\n        /* \"contracts/CrowdFund.sol\":14229:14286  Donor[] storage allDonors = projectDonors[projectAddress] */\n      swap1\n      pop\n        /* \"contracts/CrowdFund.sol\":14312:14320  uint idx */\n      0x00\n        /* \"contracts/CrowdFund.sol\":14323:14332  allDonors */\n      dup2\n        /* \"contracts/CrowdFund.sol\":14323:14339  allDonors.length */\n      dup1\n      sload\n      swap1\n      pop\n        /* \"contracts/CrowdFund.sol\":14312:14339  uint idx = allDonors.length */\n      swap1\n      pop\n        /* \"contracts/CrowdFund.sol\":14365:14380  bool donorExist */\n      0x00\n        /* \"contracts/CrowdFund.sol\":14412:14418  uint j */\n      dup1\n        /* \"contracts/CrowdFund.sol\":14419:14420  0 */\n      0x00\n        /* \"contracts/CrowdFund.sol\":14412:14420  uint j=0 */\n      swap1\n      pop\n        /* \"contracts/CrowdFund.sol\":14407:14974  for (uint j=0;j<allDonors.length;j++) {... */\n    tag_255:\n        /* \"contracts/CrowdFund.sol\":14423:14432  allDonors */\n      dup4\n        /* \"contracts/CrowdFund.sol\":14423:14439  allDonors.length */\n      dup1\n      sload\n      swap1\n      pop\n        /* \"contracts/CrowdFund.sol\":14421:14422  j */\n      dup2\n        /* \"contracts/CrowdFund.sol\":14421:14439  j<allDonors.length */\n      lt\n        /* \"contracts/CrowdFund.sol\":14407:14974  for (uint j=0;j<allDonors.length;j++) {... */\n      iszero\n      tag_256\n      jumpi\n        /* \"contracts/CrowdFund.sol\":14683:14693  msg.sender */\n      caller\n        /* \"contracts/CrowdFund.sol\":14661:14693  allDonors[j].owner == msg.sender */\n      0xffffffffffffffffffffffffffffffffffffffff\n      and\n        /* \"contracts/CrowdFund.sol\":14661:14670  allDonors */\n      dup5\n        /* \"contracts/CrowdFund.sol\":14671:14672  j */\n      dup3\n        /* \"contracts/CrowdFund.sol\":14661:14673  allDonors[j] */\n      dup2\n      sload\n      dup2\n      lt\n      tag_258\n      jumpi\n      tag_259\n      tag_136\n      jump\t// in\n    tag_259:\n    tag_258:\n      swap1\n      0x00\n      mstore\n      keccak256(0x00, 0x20)\n      swap1\n      0x03\n      mul\n      add\n        /* \"contracts/CrowdFund.sol\":14661:14679  allDonors[j].owner */\n      0x01\n      add\n      0x00\n      swap1\n      sload\n      swap1\n      0x0100\n      exp\n      swap1\n      div\n      0xffffffffffffffffffffffffffffffffffffffff\n      and\n        /* \"contracts/CrowdFund.sol\":14661:14693  allDonors[j].owner == msg.sender */\n      0xffffffffffffffffffffffffffffffffffffffff\n      and\n      eq\n        /* \"contracts/CrowdFund.sol\":14657:14948  if (allDonors[j].owner == msg.sender) {... */\n      iszero\n      tag_261\n      jumpi\n        /* \"contracts/CrowdFund.sol\":14786:14795  msg.value */\n      callvalue\n        /* \"contracts/CrowdFund.sol\":14729:14738  allDonors */\n      dup5\n        /* \"contracts/CrowdFund.sol\":14739:14740  j */\n      dup3\n        /* \"contracts/CrowdFund.sol\":14729:14741  allDonors[j] */\n      dup2\n      sload\n      dup2\n      lt\n      tag_262\n      jumpi\n      tag_263\n      tag_136\n      jump\t// in\n    tag_263:\n    tag_262:\n      swap1\n      0x00\n      mstore\n      keccak256(0x00, 0x20)\n      swap1\n      0x03\n      mul\n      add\n        /* \"contracts/CrowdFund.sol\":14729:14766  allDonors[j].projectwiseContributions */\n      0x02\n      add\n        /* \"contracts/CrowdFund.sol\":14729:14782  allDonors[j].projectwiseContributions[projectAddress] */\n      0x00\n        /* \"contracts/CrowdFund.sol\":14767:14781  projectAddress */\n      dup11\n        /* \"contracts/CrowdFund.sol\":14729:14782  allDonors[j].projectwiseContributions[projectAddress] */\n      0xffffffffffffffffffffffffffffffffffffffff\n      and\n      0xffffffffffffffffffffffffffffffffffffffff\n      and\n      dup2\n      mstore\n      0x20\n      add\n      swap1\n      dup2\n      mstore\n      0x20\n      add\n      0x00\n      keccak256\n      0x00\n        /* \"contracts/CrowdFund.sol\":14729:14795  allDonors[j].projectwiseContributions[projectAddress] += msg.value */\n      dup3\n      dup3\n      sload\n      tag_265\n      swap2\n      swap1\n      tag_244\n      jump\t// in\n    tag_265:\n      swap3\n      pop\n      pop\n      dup2\n      swap1\n      sstore\n      pop\n        /* \"contracts/CrowdFund.sol\":14842:14846  true */\n      0x01\n        /* \"contracts/CrowdFund.sol\":14829:14846  donorExist = true */\n      swap2\n      pop\n        /* \"contracts/CrowdFund.sol\":14912:14917  break */\n      jump(tag_256)\n        /* \"contracts/CrowdFund.sol\":14657:14948  if (allDonors[j].owner == msg.sender) {... */\n    tag_261:\n        /* \"contracts/CrowdFund.sol\":14440:14443  j++ */\n      dup1\n      dup1\n      tag_266\n      swap1\n      tag_213\n      jump\t// in\n    tag_266:\n      swap2\n      pop\n      pop\n        /* \"contracts/CrowdFund.sol\":14407:14974  for (uint j=0;j<allDonors.length;j++) {... */\n      jump(tag_255)\n    tag_256:\n      pop\n        /* \"contracts/CrowdFund.sol\":15005:15015  donorExist */\n      dup1\n        /* \"contracts/CrowdFund.sol\":15000:15465  if (!donorExist) {   ... */\n      tag_267\n      jumpi\n        /* \"contracts/CrowdFund.sol\":15204:15213  allDonors */\n      dup3\n        /* \"contracts/CrowdFund.sol\":15204:15220  allDonors.push() */\n      0x01\n      dup2\n      0x01\n      dup2\n      sload\n      add\n      dup1\n      dup3\n      sstore\n      dup1\n      swap2\n      pop\n      pop\n      sub\n      swap1\n      0x00\n      mstore\n      keccak256(0x00, 0x20)\n      swap1\n      pop\n      pop\n        /* \"contracts/CrowdFund.sol\":15251:15273  Donor storage newDonor */\n      0x00\n        /* \"contracts/CrowdFund.sol\":15276:15285  allDonors */\n      dup4\n        /* \"contracts/CrowdFund.sol\":15286:15289  idx */\n      dup4\n        /* \"contracts/CrowdFund.sol\":15276:15290  allDonors[idx] */\n      dup2\n      sload\n      dup2\n      lt\n      tag_269\n      jumpi\n      tag_270\n      tag_136\n      jump\t// in\n    tag_270:\n    tag_269:\n      swap1\n      0x00\n      mstore\n      keccak256(0x00, 0x20)\n      swap1\n      0x03\n      mul\n      add\n        /* \"contracts/CrowdFund.sol\":15251:15290  Donor storage newDonor = allDonors[idx] */\n      swap1\n      pop\n        /* \"contracts/CrowdFund.sol\":15337:15347  msg.sender */\n      caller\n        /* \"contracts/CrowdFund.sol\":15320:15328  newDonor */\n      dup2\n        /* \"contracts/CrowdFund.sol\":15320:15334  newDonor.owner */\n      0x01\n      add\n      0x00\n        /* \"contracts/CrowdFund.sol\":15320:15347  newDonor.owner = msg.sender */\n      0x0100\n      exp\n      dup2\n      sload\n      dup2\n      0xffffffffffffffffffffffffffffffffffffffff\n      mul\n      not\n      and\n      swap1\n      dup4\n      0xffffffffffffffffffffffffffffffffffffffff\n      and\n      mul\n      or\n      swap1\n      sstore\n      pop\n        /* \"contracts/CrowdFund.sol\":15429:15438  msg.value */\n      callvalue\n        /* \"contracts/CrowdFund.sol\":15377:15385  newDonor */\n      dup2\n        /* \"contracts/CrowdFund.sol\":15377:15410  newDonor.projectwiseContributions */\n      0x02\n      add\n        /* \"contracts/CrowdFund.sol\":15377:15426  newDonor.projectwiseContributions[projectAddress] */\n      0x00\n        /* \"contracts/CrowdFund.sol\":15411:15425  projectAddress */\n      dup11\n        /* \"contracts/CrowdFund.sol\":15377:15426  newDonor.projectwiseContributions[projectAddress] */\n      0xffffffffffffffffffffffffffffffffffffffff\n      and\n      0xffffffffffffffffffffffffffffffffffffffff\n      and\n      dup2\n      mstore\n      0x20\n      add\n      swap1\n      dup2\n      mstore\n      0x20\n      add\n      0x00\n      keccak256\n        /* \"contracts/CrowdFund.sol\":15377:15438  newDonor.projectwiseContributions[projectAddress] = msg.value */\n      dup2\n      swap1\n      sstore\n      pop\n        /* \"contracts/CrowdFund.sol\":15017:15465  {   ... */\n      pop\n        /* \"contracts/CrowdFund.sol\":15000:15465  if (!donorExist) {   ... */\n    tag_267:\n        /* \"contracts/CrowdFund.sol\":15584:15595  projectList */\n      dup5\n        /* \"contracts/CrowdFund.sol\":15596:15597  i */\n      dup5\n        /* \"contracts/CrowdFund.sol\":15584:15598  projectList[i] */\n      dup2\n      sload\n      dup2\n      lt\n      tag_272\n      jumpi\n      tag_273\n      tag_136\n      jump\t// in\n    tag_273:\n    tag_272:\n      swap1\n      0x00\n      mstore\n      keccak256(0x00, 0x20)\n      swap1\n      0x07\n      mul\n      add\n        /* \"contracts/CrowdFund.sol\":15584:15603  projectList[i].goal */\n      0x01\n      add\n      sload\n        /* \"contracts/CrowdFund.sol\":15553:15564  projectList */\n      dup6\n        /* \"contracts/CrowdFund.sol\":15565:15566  i */\n      dup6\n        /* \"contracts/CrowdFund.sol\":15553:15567  projectList[i] */\n      dup2\n      sload\n      dup2\n      lt\n      tag_275\n      jumpi\n      tag_276\n      tag_136\n      jump\t// in\n    tag_276:\n    tag_275:\n      swap1\n      0x00\n      mstore\n      keccak256(0x00, 0x20)\n      swap1\n      0x07\n      mul\n      add\n        /* \"contracts/CrowdFund.sol\":15553:15580  projectList[i].raisedAmount */\n      0x02\n      add\n      sload\n        /* \"contracts/CrowdFund.sol\":15553:15603  projectList[i].raisedAmount == projectList[i].goal */\n      eq\n        /* \"contracts/CrowdFund.sol\":15549:16100  if (projectList[i].raisedAmount == projectList[i].goal) {... */\n      iszero\n      tag_278\n      jumpi\n        /* \"contracts/CrowdFund.sol\":15744:15761  ProjectStatus.PGA */\n      0x03\n        /* \"contracts/CrowdFund.sol\":15713:15724  projectList */\n      dup6\n        /* \"contracts/CrowdFund.sol\":15725:15726  i */\n      dup6\n        /* \"contracts/CrowdFund.sol\":15713:15727  projectList[i] */\n      dup2\n      sload\n      dup2\n      lt\n      tag_279\n      jumpi\n      tag_280\n      tag_136\n      jump\t// in\n    tag_280:\n    tag_279:\n      swap1\n      0x00\n      mstore\n      keccak256(0x00, 0x20)\n      swap1\n      0x07\n      mul\n      add\n        /* \"contracts/CrowdFund.sol\":15713:15741  projectList[i].projectStatus */\n      0x06\n      add\n      0x00\n        /* \"contracts/CrowdFund.sol\":15713:15761  projectList[i].projectStatus = ProjectStatus.PGA */\n      0x0100\n      exp\n      dup2\n      sload\n      dup2\n      0xff\n      mul\n      not\n      and\n      swap1\n      dup4\n      0x09\n      dup2\n      gt\n      iszero\n      tag_282\n      jumpi\n      tag_283\n      tag_113\n      jump\t// in\n    tag_283:\n    tag_282:\n      mul\n      or\n      swap1\n      sstore\n      pop\n        /* \"contracts/CrowdFund.sol\":15882:15887  false */\n      0x00\n        /* \"contracts/CrowdFund.sol\":15850:15861  projectList */\n      dup6\n        /* \"contracts/CrowdFund.sol\":15862:15863  i */\n      dup6\n        /* \"contracts/CrowdFund.sol\":15850:15864  projectList[i] */\n      dup2\n      sload\n      dup2\n      lt\n      tag_284\n      jumpi\n      tag_285\n      tag_136\n      jump\t// in\n    tag_285:\n    tag_284:\n      swap1\n      0x00\n      mstore\n      keccak256(0x00, 0x20)\n      swap1\n      0x07\n      mul\n      add\n        /* \"contracts/CrowdFund.sol\":15850:15879  projectList[i].acceptDonation */\n      0x04\n      add\n      0x14\n        /* \"contracts/CrowdFund.sol\":15850:15887  projectList[i].acceptDonation = false */\n      0x0100\n      exp\n      dup2\n      sload\n      dup2\n      0xff\n      mul\n      not\n      and\n      swap1\n      dup4\n      iszero\n      iszero\n      mul\n      or\n      swap1\n      sstore\n      pop\n        /* \"contracts/CrowdFund.sol\":15998:16073  ReceiverMessageToCharity(charityAddress, projectAddress, ProjectStatus.PGA) */\n      0xb0bd573bc922cd0ba3f1cc9ac05bc9c190a674fcf55c00d5b3ca04be33edbb31\n        /* \"contracts/CrowdFund.sol\":16023:16037  charityAddress */\n      dup9\n        /* \"contracts/CrowdFund.sol\":16039:16053  projectAddress */\n      dup9\n        /* \"contracts/CrowdFund.sol\":16055:16072  ProjectStatus.PGA */\n      0x03\n        /* \"contracts/CrowdFund.sol\":15998:16073  ReceiverMessageToCharity(charityAddress, projectAddress, ProjectStatus.PGA) */\n      mload(0x40)\n      tag_287\n      swap4\n      swap3\n      swap2\n      swap1\n      tag_159\n      jump\t// in\n    tag_287:\n      mload(0x40)\n      dup1\n      swap2\n      sub\n      swap1\n      log1\n        /* \"contracts/CrowdFund.sol\":15549:16100  if (projectList[i].raisedAmount == projectList[i].goal) {... */\n    tag_278:\n        /* \"contracts/CrowdFund.sol\":13784:16122  {... */\n      pop\n      pop\n      pop\n        /* \"contracts/CrowdFund.sol\":13749:16231  if (projectList[i].acceptDonation) {... */\n      jump(tag_288)\n    tag_230:\n        /* \"contracts/CrowdFund.sol\":16154:16208  revert(\"No more donations accepted for this project.\") */\n      mload(0x40)\n      0x08c379a000000000000000000000000000000000000000000000000000000000\n      dup2\n      mstore\n      0x04\n      add\n      tag_289\n      swap1\n      tag_290\n      jump\t// in\n    tag_289:\n      mload(0x40)\n      dup1\n      swap2\n      sub\n      swap1\n      revert\n        /* \"contracts/CrowdFund.sol\":13749:16231  if (projectList[i].acceptDonation) {... */\n    tag_288:\n        /* \"contracts/CrowdFund.sol\":16268:16272  true */\n      0x01\n        /* \"contracts/CrowdFund.sol\":16253:16272  projectExist = true */\n      swap3\n      pop\n        /* \"contracts/CrowdFund.sol\":16294:16299  break */\n      jump(tag_221)\n        /* \"contracts/CrowdFund.sol\":13682:16318  if (projectList[i].owner == projectAddress) { ... */\n    tag_226:\n        /* \"contracts/CrowdFund.sol\":13659:13662  i++ */\n      dup1\n      dup1\n      tag_291\n      swap1\n      tag_213\n      jump\t// in\n    tag_291:\n      swap2\n      pop\n      pop\n        /* \"contracts/CrowdFund.sol\":13624:16332  for (uint i=0;i<projectList.length;i++) {... */\n      jump(tag_220)\n    tag_221:\n      pop\n        /* \"contracts/CrowdFund.sol\":16351:16363  projectExist */\n      dup2\n        /* \"contracts/CrowdFund.sol\":16346:16431  if (!projectExist)... */\n      tag_292\n      jumpi\n        /* \"contracts/CrowdFund.sol\":16381:16431  revert(\"No such project exist under this charity\") */\n      mload(0x40)\n      0x08c379a000000000000000000000000000000000000000000000000000000000\n      dup2\n      mstore\n      0x04\n      add\n      tag_293\n      swap1\n      tag_294\n      jump\t// in\n    tag_293:\n      mload(0x40)\n      dup1\n      swap2\n      sub\n      swap1\n      revert\n        /* \"contracts/CrowdFund.sol\":16346:16431  if (!projectExist)... */\n    tag_292:\n        /* \"contracts/CrowdFund.sol\":13309:16438  {... */\n      pop\n      pop\n        /* \"contracts/CrowdFund.sol\":13230:16438  function donate(address charityAddress, address projectAddress) public payable {... */\n      pop\n      pop\n      jump\t// out\n        /* \"contracts/CrowdFund.sol\":20831:20966  function buyEther(address donorAddress) public onlyBoardAdmin payable{... */\n    tag_39:\n        /* \"contracts/CrowdFund.sol\":3222:3232  boardAdmin */\n      0x02\n      0x00\n      swap1\n      sload\n      swap1\n      0x0100\n      exp\n      swap1\n      div\n      0xffffffffffffffffffffffffffffffffffffffff\n      and\n        /* \"contracts/CrowdFund.sol\":3210:3232  msg.sender==boardAdmin */\n      0xffffffffffffffffffffffffffffffffffffffff\n      and\n        /* \"contracts/CrowdFund.sol\":3210:3220  msg.sender */\n      caller\n        /* \"contracts/CrowdFund.sol\":3210:3232  msg.sender==boardAdmin */\n      0xffffffffffffffffffffffffffffffffffffffff\n      and\n      eq\n        /* \"contracts/CrowdFund.sol\":3233:3243  ONLY_ADMIN */\n      mload(0x40)\n      dup1\n      0x60\n      add\n      0x40\n      mstore\n      dup1\n      0x33\n      dup2\n      mstore\n      0x20\n      add\n      data_0fd57a96508da25173f82e6faabc4b077c36881e53dd1b21682a822e75096b01\n      0x33\n      swap2\n      codecopy\n        /* \"contracts/CrowdFund.sol\":3202:3244  require(msg.sender==boardAdmin,ONLY_ADMIN) */\n      swap1\n      tag_296\n      jumpi\n      mload(0x40)\n      0x08c379a000000000000000000000000000000000000000000000000000000000\n      dup2\n      mstore\n      0x04\n      add\n      tag_297\n      swap2\n      swap1\n      tag_45\n      jump\t// in\n    tag_297:\n      mload(0x40)\n      dup1\n      swap2\n      sub\n      swap1\n      revert\n    tag_296:\n      pop\n        /* \"contracts/CrowdFund.sol\":20919:20931  donorAddress */\n      dup1\n        /* \"contracts/CrowdFund.sol\":20910:20941  payable (donorAddress).transfer */\n      0xffffffffffffffffffffffffffffffffffffffff\n      and\n        /* \"contracts/CrowdFund.sol\":20910:20952  payable (donorAddress).transfer(msg.value) */\n      0x08fc\n        /* \"contracts/CrowdFund.sol\":20942:20951  msg.value */\n      callvalue\n        /* \"contracts/CrowdFund.sol\":20910:20952  payable (donorAddress).transfer(msg.value) */\n      swap1\n      dup2\n      iszero\n      mul\n      swap1\n      mload(0x40)\n      0x00\n      mload(0x40)\n      dup1\n      dup4\n      sub\n      dup2\n      dup6\n      dup9\n      dup9\n      call\n      swap4\n      pop\n      pop\n      pop\n      pop\n      iszero\n      dup1\n      iszero\n      tag_300\n      jumpi\n      returndatasize\n      0x00\n      dup1\n      returndatacopy\n      revert(0x00, returndatasize)\n    tag_300:\n      pop\n        /* \"contracts/CrowdFund.sol\":20831:20966  function buyEther(address donorAddress) public onlyBoardAdmin payable{... */\n      pop\n      jump\t// out\n        /* \"contracts/CrowdFund.sol\":21132:21676  function getProjectStatus(address charityAddress, address projectAddress) external view returns (... */\n    tag_43:\n        /* \"contracts/CrowdFund.sol\":21238:21251  string memory */\n      0x60\n        /* \"contracts/CrowdFund.sol\":21263:21292  Project[] storage projectList */\n      0x00\n        /* \"contracts/CrowdFund.sol\":21295:21310  charityProjects */\n      0x03\n        /* \"contracts/CrowdFund.sol\":21295:21326  charityProjects[charityAddress] */\n      0x00\n        /* \"contracts/CrowdFund.sol\":21311:21325  charityAddress */\n      dup6\n        /* \"contracts/CrowdFund.sol\":21295:21326  charityProjects[charityAddress] */\n      0xffffffffffffffffffffffffffffffffffffffff\n      and\n      0xffffffffffffffffffffffffffffffffffffffff\n      and\n      dup2\n      mstore\n      0x20\n      add\n      swap1\n      dup2\n      mstore\n      0x20\n      add\n      0x00\n      keccak256\n        /* \"contracts/CrowdFund.sol\":21263:21326  Project[] storage projectList = charityProjects[charityAddress] */\n      swap1\n      pop\n        /* \"contracts/CrowdFund.sol\":21365:21366  0 */\n      0x00\n        /* \"contracts/CrowdFund.sol\":21344:21355  projectList */\n      dup2\n        /* \"contracts/CrowdFund.sol\":21344:21362  projectList.length */\n      dup1\n      sload\n      swap1\n      pop\n        /* \"contracts/CrowdFund.sol\":21344:21366  projectList.length > 0 */\n      gt\n        /* \"contracts/CrowdFund.sol\":21336:21405  require(projectList.length > 0,\"No project exist under this charity\") */\n      tag_302\n      jumpi\n      mload(0x40)\n      0x08c379a000000000000000000000000000000000000000000000000000000000\n      dup2\n      mstore\n      0x04\n      add\n      tag_303\n      swap1\n      tag_130\n      jump\t// in\n    tag_303:\n      mload(0x40)\n      dup1\n      swap2\n      sub\n      swap1\n      revert\n    tag_302:\n        /* \"contracts/CrowdFund.sol\":21420:21426  uint i */\n      0x00\n        /* \"contracts/CrowdFund.sol\":21415:21609  for (uint i=0;i<projectList.length;i++) {... */\n    tag_304:\n        /* \"contracts/CrowdFund.sol\":21431:21442  projectList */\n      dup2\n        /* \"contracts/CrowdFund.sol\":21431:21449  projectList.length */\n      dup1\n      sload\n      swap1\n      pop\n        /* \"contracts/CrowdFund.sol\":21429:21430  i */\n      dup2\n        /* \"contracts/CrowdFund.sol\":21429:21449  i<projectList.length */\n      lt\n        /* \"contracts/CrowdFund.sol\":21415:21609  for (uint i=0;i<projectList.length;i++) {... */\n      iszero\n      tag_305\n      jumpi\n        /* \"contracts/CrowdFund.sol\":21497:21511  projectAddress */\n      dup4\n        /* \"contracts/CrowdFund.sol\":21473:21511  projectList[i].owner == projectAddress */\n      0xffffffffffffffffffffffffffffffffffffffff\n      and\n        /* \"contracts/CrowdFund.sol\":21473:21484  projectList */\n      dup3\n        /* \"contracts/CrowdFund.sol\":21485:21486  i */\n      dup3\n        /* \"contracts/CrowdFund.sol\":21473:21487  projectList[i] */\n      dup2\n      sload\n      dup2\n      lt\n      tag_307\n      jumpi\n      tag_308\n      tag_136\n      jump\t// in\n    tag_308:\n    tag_307:\n      swap1\n      0x00\n      mstore\n      keccak256(0x00, 0x20)\n      swap1\n      0x07\n      mul\n      add\n        /* \"contracts/CrowdFund.sol\":21473:21493  projectList[i].owner */\n      0x03\n      add\n      0x00\n      swap1\n      sload\n      swap1\n      0x0100\n      exp\n      swap1\n      div\n      0xffffffffffffffffffffffffffffffffffffffff\n      and\n        /* \"contracts/CrowdFund.sol\":21473:21511  projectList[i].owner == projectAddress */\n      0xffffffffffffffffffffffffffffffffffffffff\n      and\n      eq\n        /* \"contracts/CrowdFund.sol\":21469:21598  if (projectList[i].owner == projectAddress) {... */\n      iszero\n      tag_310\n      jumpi\n        /* \"contracts/CrowdFund.sol\":21538:21553  projectStatuses */\n      0x06\n        /* \"contracts/CrowdFund.sol\":21538:21583  projectStatuses[projectList[i].projectStatus] */\n      0x00\n        /* \"contracts/CrowdFund.sol\":21554:21565  projectList */\n      dup4\n        /* \"contracts/CrowdFund.sol\":21566:21567  i */\n      dup4\n        /* \"contracts/CrowdFund.sol\":21554:21568  projectList[i] */\n      dup2\n      sload\n      dup2\n      lt\n      tag_311\n      jumpi\n      tag_312\n      tag_136\n      jump\t// in\n    tag_312:\n    tag_311:\n      swap1\n      0x00\n      mstore\n      keccak256(0x00, 0x20)\n      swap1\n      0x07\n      mul\n      add\n        /* \"contracts/CrowdFund.sol\":21554:21582  projectList[i].projectStatus */\n      0x06\n      add\n      0x00\n      swap1\n      sload\n      swap1\n      0x0100\n      exp\n      swap1\n      div\n      0xff\n      and\n        /* \"contracts/CrowdFund.sol\":21538:21583  projectStatuses[projectList[i].projectStatus] */\n      0x09\n      dup2\n      gt\n      iszero\n      tag_314\n      jumpi\n      tag_315\n      tag_113\n      jump\t// in\n    tag_315:\n    tag_314:\n      0x09\n      dup2\n      gt\n      iszero\n      tag_316\n      jumpi\n      tag_317\n      tag_113\n      jump\t// in\n    tag_317:\n    tag_316:\n      dup2\n      mstore\n      0x20\n      add\n      swap1\n      dup2\n      mstore\n      0x20\n      add\n      0x00\n      keccak256\n        /* \"contracts/CrowdFund.sol\":21531:21583  return projectStatuses[projectList[i].projectStatus] */\n      dup1\n      sload\n      tag_318\n      swap1\n      tag_319\n      jump\t// in\n    tag_318:\n      dup1\n      0x1f\n      add\n      0x20\n      dup1\n      swap2\n      div\n      mul\n      0x20\n      add\n      mload(0x40)\n      swap1\n      dup2\n      add\n      0x40\n      mstore\n      dup1\n      swap3\n      swap2\n      swap1\n      dup2\n      dup2\n      mstore\n      0x20\n      add\n      dup3\n      dup1\n      sload\n      tag_320\n      swap1\n      tag_319\n      jump\t// in\n    tag_320:\n      dup1\n      iszero\n      tag_321\n      jumpi\n      dup1\n      0x1f\n      lt\n      tag_322\n      jumpi\n      0x0100\n      dup1\n      dup4\n      sload\n      div\n      mul\n      dup4\n      mstore\n      swap2\n      0x20\n      add\n      swap2\n      jump(tag_321)\n    tag_322:\n      dup3\n      add\n      swap2\n      swap1\n      0x00\n      mstore\n      keccak256(0x00, 0x20)\n      swap1\n    tag_323:\n      dup2\n      sload\n      dup2\n      mstore\n      swap1\n      0x01\n      add\n      swap1\n      0x20\n      add\n      dup1\n      dup4\n      gt\n      tag_323\n      jumpi\n      dup3\n      swap1\n      sub\n      0x1f\n      and\n      dup3\n      add\n      swap2\n    tag_321:\n      pop\n      pop\n      pop\n      pop\n      pop\n      swap3\n      pop\n      pop\n      pop\n      jump(tag_301)\n        /* \"contracts/CrowdFund.sol\":21469:21598  if (projectList[i].owner == projectAddress) {... */\n    tag_310:\n        /* \"contracts/CrowdFund.sol\":21450:21453  i++ */\n      dup1\n      dup1\n      tag_324\n      swap1\n      tag_213\n      jump\t// in\n    tag_324:\n      swap2\n      pop\n      pop\n        /* \"contracts/CrowdFund.sol\":21415:21609  for (uint i=0;i<projectList.length;i++) {... */\n      jump(tag_304)\n    tag_305:\n      pop\n        /* \"contracts/CrowdFund.sol\":21619:21669  revert(\"No such project exist under this charity\") */\n      mload(0x40)\n      0x08c379a000000000000000000000000000000000000000000000000000000000\n      dup2\n      mstore\n      0x04\n      add\n      tag_325\n      swap1\n      tag_294\n      jump\t// in\n    tag_325:\n      mload(0x40)\n      dup1\n      swap2\n      sub\n      swap1\n      revert\n        /* \"contracts/CrowdFund.sol\":21132:21676  function getProjectStatus(address charityAddress, address projectAddress) external view returns (... */\n    tag_301:\n      swap3\n      swap2\n      pop\n      pop\n      jump\t// out\n        /* \"contracts/CrowdFund.sol\":5647:6777  function updateProjectStatusByAdmin(address charityAddress, address projectAddress, uint8 enumValue) onlyBoardAdmin public {... */\n    tag_50:\n        /* \"contracts/CrowdFund.sol\":3222:3232  boardAdmin */\n      0x02\n      0x00\n      swap1\n      sload\n      swap1\n      0x0100\n      exp\n      swap1\n      div\n      0xffffffffffffffffffffffffffffffffffffffff\n      and\n        /* \"contracts/CrowdFund.sol\":3210:3232  msg.sender==boardAdmin */\n      0xffffffffffffffffffffffffffffffffffffffff\n      and\n        /* \"contracts/CrowdFund.sol\":3210:3220  msg.sender */\n      caller\n        /* \"contracts/CrowdFund.sol\":3210:3232  msg.sender==boardAdmin */\n      0xffffffffffffffffffffffffffffffffffffffff\n      and\n      eq\n        /* \"contracts/CrowdFund.sol\":3233:3243  ONLY_ADMIN */\n      mload(0x40)\n      dup1\n      0x60\n      add\n      0x40\n      mstore\n      dup1\n      0x33\n      dup2\n      mstore\n      0x20\n      add\n      data_0fd57a96508da25173f82e6faabc4b077c36881e53dd1b21682a822e75096b01\n      0x33\n      swap2\n      codecopy\n        /* \"contracts/CrowdFund.sol\":3202:3244  require(msg.sender==boardAdmin,ONLY_ADMIN) */\n      swap1\n      tag_327\n      jumpi\n      mload(0x40)\n      0x08c379a000000000000000000000000000000000000000000000000000000000\n      dup2\n      mstore\n      0x04\n      add\n      tag_328\n      swap2\n      swap1\n      tag_45\n      jump\t// in\n    tag_328:\n      mload(0x40)\n      dup1\n      swap2\n      sub\n      swap1\n      revert\n    tag_327:\n      pop\n        /* \"contracts/CrowdFund.sol\":5873:5890  ProjectStatus.WFA */\n      0x00\n        /* \"contracts/CrowdFund.sol\":5845:5890  ProjectStatus(enumValue) != ProjectStatus.WFA */\n      0x09\n      dup2\n      gt\n      iszero\n      tag_330\n      jumpi\n      tag_331\n      tag_113\n      jump\t// in\n    tag_331:\n    tag_330:\n        /* \"contracts/CrowdFund.sol\":5859:5868  enumValue */\n      dup2\n        /* \"contracts/CrowdFund.sol\":5845:5869  ProjectStatus(enumValue) */\n      0xff\n      and\n      0x09\n      dup2\n      gt\n      iszero\n      tag_332\n      jumpi\n      tag_333\n      tag_113\n      jump\t// in\n    tag_333:\n    tag_332:\n        /* \"contracts/CrowdFund.sol\":5845:5890  ProjectStatus(enumValue) != ProjectStatus.WFA */\n      0x09\n      dup2\n      gt\n      iszero\n      tag_334\n      jumpi\n      tag_335\n      tag_113\n      jump\t// in\n    tag_335:\n    tag_334:\n      eq\n      iszero\n        /* \"contracts/CrowdFund.sol\":5891:5898  NO_AUTH */\n      mload(0x40)\n      dup1\n      0x60\n      add\n      0x40\n      mstore\n      dup1\n      0x31\n      dup2\n      mstore\n      0x20\n      add\n      data_5c19b7ff1bcfb320392194574ccc24118e50bba13de42db0a22f05014bb7a7fa\n      0x31\n      swap2\n      codecopy\n        /* \"contracts/CrowdFund.sol\":5837:5899  require(ProjectStatus(enumValue) != ProjectStatus.WFA,NO_AUTH) */\n      swap1\n      tag_336\n      jumpi\n      mload(0x40)\n      0x08c379a000000000000000000000000000000000000000000000000000000000\n      dup2\n      mstore\n      0x04\n      add\n      tag_337\n      swap2\n      swap1\n      tag_45\n      jump\t// in\n    tag_337:\n      mload(0x40)\n      dup1\n      swap2\n      sub\n      swap1\n      revert\n    tag_336:\n      pop\n        /* \"contracts/CrowdFund.sol\":5945:5962  ProjectStatus.APR */\n      0x02\n        /* \"contracts/CrowdFund.sol\":5917:5962  ProjectStatus(enumValue) != ProjectStatus.APR */\n      0x09\n      dup2\n      gt\n      iszero\n      tag_338\n      jumpi\n      tag_339\n      tag_113\n      jump\t// in\n    tag_339:\n    tag_338:\n        /* \"contracts/CrowdFund.sol\":5931:5940  enumValue */\n      dup2\n        /* \"contracts/CrowdFund.sol\":5917:5941  ProjectStatus(enumValue) */\n      0xff\n      and\n      0x09\n      dup2\n      gt\n      iszero\n      tag_340\n      jumpi\n      tag_341\n      tag_113\n      jump\t// in\n    tag_341:\n    tag_340:\n        /* \"contracts/CrowdFund.sol\":5917:5962  ProjectStatus(enumValue) != ProjectStatus.APR */\n      0x09\n      dup2\n      gt\n      iszero\n      tag_342\n      jumpi\n      tag_343\n      tag_113\n      jump\t// in\n    tag_343:\n    tag_342:\n      eq\n      iszero\n        /* \"contracts/CrowdFund.sol\":5963:5970  NO_AUTH */\n      mload(0x40)\n      dup1\n      0x60\n      add\n      0x40\n      mstore\n      dup1\n      0x31\n      dup2\n      mstore\n      0x20\n      add\n      data_5c19b7ff1bcfb320392194574ccc24118e50bba13de42db0a22f05014bb7a7fa\n      0x31\n      swap2\n      codecopy\n        /* \"contracts/CrowdFund.sol\":5909:5971  require(ProjectStatus(enumValue) != ProjectStatus.APR,NO_AUTH) */\n      swap1\n      tag_344\n      jumpi\n      mload(0x40)\n      0x08c379a000000000000000000000000000000000000000000000000000000000\n      dup2\n      mstore\n      0x04\n      add\n      tag_345\n      swap2\n      swap1\n      tag_45\n      jump\t// in\n    tag_345:\n      mload(0x40)\n      dup1\n      swap2\n      sub\n      swap1\n      revert\n    tag_344:\n      pop\n        /* \"contracts/CrowdFund.sol\":6017:6034  ProjectStatus.PGA */\n      0x03\n        /* \"contracts/CrowdFund.sol\":5989:6034  ProjectStatus(enumValue) != ProjectStatus.PGA */\n      0x09\n      dup2\n      gt\n      iszero\n      tag_346\n      jumpi\n      tag_347\n      tag_113\n      jump\t// in\n    tag_347:\n    tag_346:\n        /* \"contracts/CrowdFund.sol\":6003:6012  enumValue */\n      dup2\n        /* \"contracts/CrowdFund.sol\":5989:6013  ProjectStatus(enumValue) */\n      0xff\n      and\n      0x09\n      dup2\n      gt\n      iszero\n      tag_348\n      jumpi\n      tag_349\n      tag_113\n      jump\t// in\n    tag_349:\n    tag_348:\n        /* \"contracts/CrowdFund.sol\":5989:6034  ProjectStatus(enumValue) != ProjectStatus.PGA */\n      0x09\n      dup2\n      gt\n      iszero\n      tag_350\n      jumpi\n      tag_351\n      tag_113\n      jump\t// in\n    tag_351:\n    tag_350:\n      eq\n      iszero\n        /* \"contracts/CrowdFund.sol\":6035:6042  NO_AUTH */\n      mload(0x40)\n      dup1\n      0x60\n      add\n      0x40\n      mstore\n      dup1\n      0x31\n      dup2\n      mstore\n      0x20\n      add\n      data_5c19b7ff1bcfb320392194574ccc24118e50bba13de42db0a22f05014bb7a7fa\n      0x31\n      swap2\n      codecopy\n        /* \"contracts/CrowdFund.sol\":5981:6043  require(ProjectStatus(enumValue) != ProjectStatus.PGA,NO_AUTH) */\n      swap1\n      tag_352\n      jumpi\n      mload(0x40)\n      0x08c379a000000000000000000000000000000000000000000000000000000000\n      dup2\n      mstore\n      0x04\n      add\n      tag_353\n      swap2\n      swap1\n      tag_45\n      jump\t// in\n    tag_353:\n      mload(0x40)\n      dup1\n      swap2\n      sub\n      swap1\n      revert\n    tag_352:\n      pop\n        /* \"contracts/CrowdFund.sol\":6089:6106  ProjectStatus.XRQ */\n      0x04\n        /* \"contracts/CrowdFund.sol\":6061:6106  ProjectStatus(enumValue) != ProjectStatus.XRQ */\n      0x09\n      dup2\n      gt\n      iszero\n      tag_354\n      jumpi\n      tag_355\n      tag_113\n      jump\t// in\n    tag_355:\n    tag_354:\n        /* \"contracts/CrowdFund.sol\":6075:6084  enumValue */\n      dup2\n        /* \"contracts/CrowdFund.sol\":6061:6085  ProjectStatus(enumValue) */\n      0xff\n      and\n      0x09\n      dup2\n      gt\n      iszero\n      tag_356\n      jumpi\n      tag_357\n      tag_113\n      jump\t// in\n    tag_357:\n    tag_356:\n        /* \"contracts/CrowdFund.sol\":6061:6106  ProjectStatus(enumValue) != ProjectStatus.XRQ */\n      0x09\n      dup2\n      gt\n      iszero\n      tag_358\n      jumpi\n      tag_359\n      tag_113\n      jump\t// in\n    tag_359:\n    tag_358:\n      eq\n      iszero\n        /* \"contracts/CrowdFund.sol\":6107:6114  NO_AUTH */\n      mload(0x40)\n      dup1\n      0x60\n      add\n      0x40\n      mstore\n      dup1\n      0x31\n      dup2\n      mstore\n      0x20\n      add\n      data_5c19b7ff1bcfb320392194574ccc24118e50bba13de42db0a22f05014bb7a7fa\n      0x31\n      swap2\n      codecopy\n        /* \"contracts/CrowdFund.sol\":6053:6115  require(ProjectStatus(enumValue) != ProjectStatus.XRQ,NO_AUTH) */\n      swap1\n      tag_360\n      jumpi\n      mload(0x40)\n      0x08c379a000000000000000000000000000000000000000000000000000000000\n      dup2\n      mstore\n      0x04\n      add\n      tag_361\n      swap2\n      swap1\n      tag_45\n      jump\t// in\n    tag_361:\n      mload(0x40)\n      dup1\n      swap2\n      sub\n      swap1\n      revert\n    tag_360:\n      pop\n        /* \"contracts/CrowdFund.sol\":6126:6155  Project[] storage projectList */\n      0x00\n        /* \"contracts/CrowdFund.sol\":6158:6173  charityProjects */\n      0x03\n        /* \"contracts/CrowdFund.sol\":6158:6189  charityProjects[charityAddress] */\n      0x00\n        /* \"contracts/CrowdFund.sol\":6174:6188  charityAddress */\n      dup6\n        /* \"contracts/CrowdFund.sol\":6158:6189  charityProjects[charityAddress] */\n      0xffffffffffffffffffffffffffffffffffffffff\n      and\n      0xffffffffffffffffffffffffffffffffffffffff\n      and\n      dup2\n      mstore\n      0x20\n      add\n      swap1\n      dup2\n      mstore\n      0x20\n      add\n      0x00\n      keccak256\n        /* \"contracts/CrowdFund.sol\":6126:6189  Project[] storage projectList = charityProjects[charityAddress] */\n      swap1\n      pop\n        /* \"contracts/CrowdFund.sol\":6228:6229  0 */\n      0x00\n        /* \"contracts/CrowdFund.sol\":6207:6218  projectList */\n      dup2\n        /* \"contracts/CrowdFund.sol\":6207:6225  projectList.length */\n      dup1\n      sload\n      swap1\n      pop\n        /* \"contracts/CrowdFund.sol\":6207:6229  projectList.length > 0 */\n      gt\n        /* \"contracts/CrowdFund.sol\":6199:6268  require(projectList.length > 0,\"No project exist under this charity\") */\n      tag_362\n      jumpi\n      mload(0x40)\n      0x08c379a000000000000000000000000000000000000000000000000000000000\n      dup2\n      mstore\n      0x04\n      add\n      tag_363\n      swap1\n      tag_130\n      jump\t// in\n    tag_363:\n      mload(0x40)\n      dup1\n      swap2\n      sub\n      swap1\n      revert\n    tag_362:\n        /* \"contracts/CrowdFund.sol\":6291:6297  uint i */\n      0x00\n        /* \"contracts/CrowdFund.sol\":6286:6762  for (uint i=0;i<projectList.length;i++) {... */\n    tag_364:\n        /* \"contracts/CrowdFund.sol\":6302:6313  projectList */\n      dup2\n        /* \"contracts/CrowdFund.sol\":6302:6320  projectList.length */\n      dup1\n      sload\n      swap1\n      pop\n        /* \"contracts/CrowdFund.sol\":6300:6301  i */\n      dup2\n        /* \"contracts/CrowdFund.sol\":6300:6320  i<projectList.length */\n      lt\n        /* \"contracts/CrowdFund.sol\":6286:6762  for (uint i=0;i<projectList.length;i++) {... */\n      iszero\n      tag_365\n      jumpi\n        /* \"contracts/CrowdFund.sol\":6368:6382  projectAddress */\n      dup4\n        /* \"contracts/CrowdFund.sol\":6344:6382  projectList[i].owner == projectAddress */\n      0xffffffffffffffffffffffffffffffffffffffff\n      and\n        /* \"contracts/CrowdFund.sol\":6344:6355  projectList */\n      dup3\n        /* \"contracts/CrowdFund.sol\":6356:6357  i */\n      dup3\n        /* \"contracts/CrowdFund.sol\":6344:6358  projectList[i] */\n      dup2\n      sload\n      dup2\n      lt\n      tag_367\n      jumpi\n      tag_368\n      tag_136\n      jump\t// in\n    tag_368:\n    tag_367:\n      swap1\n      0x00\n      mstore\n      keccak256(0x00, 0x20)\n      swap1\n      0x07\n      mul\n      add\n        /* \"contracts/CrowdFund.sol\":6344:6364  projectList[i].owner */\n      0x03\n      add\n      0x00\n      swap1\n      sload\n      swap1\n      0x0100\n      exp\n      swap1\n      div\n      0xffffffffffffffffffffffffffffffffffffffff\n      and\n        /* \"contracts/CrowdFund.sol\":6344:6382  projectList[i].owner == projectAddress */\n      0xffffffffffffffffffffffffffffffffffffffff\n      and\n      eq\n        /* \"contracts/CrowdFund.sol\":6340:6752  if (projectList[i].owner == projectAddress) {... */\n      iszero\n      tag_370\n      jumpi\n        /* \"contracts/CrowdFund.sol\":6447:6456  enumValue */\n      dup3\n        /* \"contracts/CrowdFund.sol\":6433:6457  ProjectStatus(enumValue) */\n      0xff\n      and\n      0x09\n      dup2\n      gt\n      iszero\n      tag_371\n      jumpi\n      tag_372\n      tag_113\n      jump\t// in\n    tag_372:\n    tag_371:\n        /* \"contracts/CrowdFund.sol\":6402:6413  projectList */\n      dup3\n        /* \"contracts/CrowdFund.sol\":6414:6415  i */\n      dup3\n        /* \"contracts/CrowdFund.sol\":6402:6416  projectList[i] */\n      dup2\n      sload\n      dup2\n      lt\n      tag_373\n      jumpi\n      tag_374\n      tag_136\n      jump\t// in\n    tag_374:\n    tag_373:\n      swap1\n      0x00\n      mstore\n      keccak256(0x00, 0x20)\n      swap1\n      0x07\n      mul\n      add\n        /* \"contracts/CrowdFund.sol\":6402:6430  projectList[i].projectStatus */\n      0x06\n      add\n      0x00\n        /* \"contracts/CrowdFund.sol\":6402:6457  projectList[i].projectStatus = ProjectStatus(enumValue) */\n      0x0100\n      exp\n      dup2\n      sload\n      dup2\n      0xff\n      mul\n      not\n      and\n      swap1\n      dup4\n      0x09\n      dup2\n      gt\n      iszero\n      tag_376\n      jumpi\n      tag_377\n      tag_113\n      jump\t// in\n    tag_377:\n    tag_376:\n      mul\n      or\n      swap1\n      sstore\n      pop\n        /* \"contracts/CrowdFund.sol\":6630:6713  BoardMessageToCharity(charityAddress, projectAddress, projectList[i].projectStatus) */\n      0x688769abfe11ae5d2b7c7147d2577650d89c7b5b4ae0583751850c28d5f4d397\n        /* \"contracts/CrowdFund.sol\":6652:6666  charityAddress */\n      dup6\n        /* \"contracts/CrowdFund.sol\":6668:6682  projectAddress */\n      dup6\n        /* \"contracts/CrowdFund.sol\":6684:6695  projectList */\n      dup5\n        /* \"contracts/CrowdFund.sol\":6696:6697  i */\n      dup5\n        /* \"contracts/CrowdFund.sol\":6684:6698  projectList[i] */\n      dup2\n      sload\n      dup2\n      lt\n      tag_378\n      jumpi\n      tag_379\n      tag_136\n      jump\t// in\n    tag_379:\n    tag_378:\n      swap1\n      0x00\n      mstore\n      keccak256(0x00, 0x20)\n      swap1\n      0x07\n      mul\n      add\n        /* \"contracts/CrowdFund.sol\":6684:6712  projectList[i].projectStatus */\n      0x06\n      add\n      0x00\n      swap1\n      sload\n      swap1\n      0x0100\n      exp\n      swap1\n      div\n      0xff\n      and\n        /* \"contracts/CrowdFund.sol\":6630:6713  BoardMessageToCharity(charityAddress, projectAddress, projectList[i].projectStatus) */\n      mload(0x40)\n      tag_381\n      swap4\n      swap3\n      swap2\n      swap1\n      tag_159\n      jump\t// in\n    tag_381:\n      mload(0x40)\n      dup1\n      swap2\n      sub\n      swap1\n      log1\n        /* \"contracts/CrowdFund.sol\":6732:6737  break */\n      jump(tag_365)\n        /* \"contracts/CrowdFund.sol\":6340:6752  if (projectList[i].owner == projectAddress) {... */\n    tag_370:\n        /* \"contracts/CrowdFund.sol\":6321:6324  i++ */\n      dup1\n      dup1\n      tag_382\n      swap1\n      tag_213\n      jump\t// in\n    tag_382:\n      swap2\n      pop\n      pop\n        /* \"contracts/CrowdFund.sol\":6286:6762  for (uint i=0;i<projectList.length;i++) {... */\n      jump(tag_364)\n    tag_365:\n      pop\n        /* \"contracts/CrowdFund.sol\":5770:6777  {... */\n      pop\n        /* \"contracts/CrowdFund.sol\":5647:6777  function updateProjectStatusByAdmin(address charityAddress, address projectAddress, uint8 enumValue) onlyBoardAdmin public {... */\n      pop\n      pop\n      pop\n      jump\t// out\n        /* \"contracts/CrowdFund.sol\":4842:5569  function createProject(uint _minimumAmount, uint _goal, address owner, string memory _documentLink) onlyCharity public {... */\n    tag_55:\n        /* \"contracts/CrowdFund.sol\":3324:3334  boardAdmin */\n      0x02\n      0x00\n      swap1\n      sload\n      swap1\n      0x0100\n      exp\n      swap1\n      div\n      0xffffffffffffffffffffffffffffffffffffffff\n      and\n        /* \"contracts/CrowdFund.sol\":3312:3334  msg.sender!=boardAdmin */\n      0xffffffffffffffffffffffffffffffffffffffff\n      and\n        /* \"contracts/CrowdFund.sol\":3312:3322  msg.sender */\n      caller\n        /* \"contracts/CrowdFund.sol\":3312:3334  msg.sender!=boardAdmin */\n      0xffffffffffffffffffffffffffffffffffffffff\n      and\n      eq\n      iszero\n        /* \"contracts/CrowdFund.sol\":3335:3347  ONLY_CHARITY */\n      mload(0x40)\n      dup1\n      0x60\n      add\n      0x40\n      mstore\n      dup1\n      0x2f\n      dup2\n      mstore\n      0x20\n      add\n      data_ae7511c0e8221605b02a680fd07d0703f28d0f0f32c6884aaca3289d2fe90612\n      0x2f\n      swap2\n      codecopy\n        /* \"contracts/CrowdFund.sol\":3304:3348  require(msg.sender!=boardAdmin,ONLY_CHARITY) */\n      swap1\n      tag_384\n      jumpi\n      mload(0x40)\n      0x08c379a000000000000000000000000000000000000000000000000000000000\n      dup2\n      mstore\n      0x04\n      add\n      tag_385\n      swap2\n      swap1\n      tag_45\n      jump\t// in\n    tag_385:\n      mload(0x40)\n      dup1\n      swap2\n      sub\n      swap1\n      revert\n    tag_384:\n      pop\n        /* \"contracts/CrowdFund.sol\":5010:5020  msg.sender */\n      caller\n        /* \"contracts/CrowdFund.sol\":4979:5020  charities[msg.sender].owner == msg.sender */\n      0xffffffffffffffffffffffffffffffffffffffff\n      and\n        /* \"contracts/CrowdFund.sol\":4979:4988  charities */\n      0x01\n        /* \"contracts/CrowdFund.sol\":4979:5000  charities[msg.sender] */\n      0x00\n        /* \"contracts/CrowdFund.sol\":4989:4999  msg.sender */\n      caller\n        /* \"contracts/CrowdFund.sol\":4979:5000  charities[msg.sender] */\n      0xffffffffffffffffffffffffffffffffffffffff\n      and\n      0xffffffffffffffffffffffffffffffffffffffff\n      and\n      dup2\n      mstore\n      0x20\n      add\n      swap1\n      dup2\n      mstore\n      0x20\n      add\n      0x00\n      keccak256\n        /* \"contracts/CrowdFund.sol\":4979:5006  charities[msg.sender].owner */\n      0x03\n      add\n      0x00\n      swap1\n      sload\n      swap1\n      0x0100\n      exp\n      swap1\n      div\n      0xffffffffffffffffffffffffffffffffffffffff\n      and\n        /* \"contracts/CrowdFund.sol\":4979:5020  charities[msg.sender].owner == msg.sender */\n      0xffffffffffffffffffffffffffffffffffffffff\n      and\n      eq\n        /* \"contracts/CrowdFund.sol\":4971:5045  require(charities[msg.sender].owner == msg.sender,\"Charity doesn't exist\") */\n      tag_387\n      jumpi\n      mload(0x40)\n      0x08c379a000000000000000000000000000000000000000000000000000000000\n      dup2\n      mstore\n      0x04\n      add\n      tag_388\n      swap1\n      tag_389\n      jump\t// in\n    tag_388:\n      mload(0x40)\n      dup1\n      swap2\n      sub\n      swap1\n      revert\n    tag_387:\n        /* \"contracts/CrowdFund.sol\":5063:5072  charities */\n      0x01\n        /* \"contracts/CrowdFund.sol\":5063:5084  charities[msg.sender] */\n      0x00\n        /* \"contracts/CrowdFund.sol\":5073:5083  msg.sender */\n      caller\n        /* \"contracts/CrowdFund.sol\":5063:5084  charities[msg.sender] */\n      0xffffffffffffffffffffffffffffffffffffffff\n      and\n      0xffffffffffffffffffffffffffffffffffffffff\n      and\n      dup2\n      mstore\n      0x20\n      add\n      swap1\n      dup2\n      mstore\n      0x20\n      add\n      0x00\n      keccak256\n        /* \"contracts/CrowdFund.sol\":5063:5093  charities[msg.sender].approved */\n      0x00\n      add\n      0x00\n      swap1\n      sload\n      swap1\n      0x0100\n      exp\n      swap1\n      div\n      0xff\n      and\n        /* \"contracts/CrowdFund.sol\":5055:5129  require(charities[msg.sender].approved,\"This charity is not yet approved\") */\n      tag_390\n      jumpi\n      mload(0x40)\n      0x08c379a000000000000000000000000000000000000000000000000000000000\n      dup2\n      mstore\n      0x04\n      add\n      tag_391\n      swap1\n      tag_392\n      jump\t// in\n    tag_391:\n      mload(0x40)\n      dup1\n      swap2\n      sub\n      swap1\n      revert\n    tag_390:\n        /* \"contracts/CrowdFund.sol\":5144:5166  Project memory project */\n      0x00\n        /* \"contracts/CrowdFund.sol\":5169:5465  Project({... */\n      mload(0x40)\n      dup1\n      0x0100\n      add\n      0x40\n      mstore\n      dup1\n        /* \"contracts/CrowdFund.sol\":5205:5219  _minimumAmount */\n      dup7\n        /* \"contracts/CrowdFund.sol\":5169:5465  Project({... */\n      dup2\n      mstore\n      0x20\n      add\n        /* \"contracts/CrowdFund.sol\":5238:5243  _goal */\n      dup6\n        /* \"contracts/CrowdFund.sol\":5169:5465  Project({... */\n      dup2\n      mstore\n      0x20\n      add\n        /* \"contracts/CrowdFund.sol\":5270:5271  0 */\n      0x00\n        /* \"contracts/CrowdFund.sol\":5169:5465  Project({... */\n      dup2\n      mstore\n      0x20\n      add\n        /* \"contracts/CrowdFund.sol\":5291:5296  owner */\n      dup5\n        /* \"contracts/CrowdFund.sol\":5169:5465  Project({... */\n      0xffffffffffffffffffffffffffffffffffffffff\n      and\n      dup2\n      mstore\n      0x20\n      add\n        /* \"contracts/CrowdFund.sol\":5325:5335  msg.sender */\n      caller\n        /* \"contracts/CrowdFund.sol\":5169:5465  Project({... */\n      0xffffffffffffffffffffffffffffffffffffffff\n      and\n      dup2\n      mstore\n      0x20\n      add\n        /* \"contracts/CrowdFund.sol\":5364:5369  false */\n      0x00\n        /* \"contracts/CrowdFund.sol\":5169:5465  Project({... */\n      iszero\n      iszero\n      dup2\n      mstore\n      0x20\n      add\n        /* \"contracts/CrowdFund.sol\":5396:5409  _documentLink */\n      dup4\n        /* \"contracts/CrowdFund.sol\":5169:5465  Project({... */\n      dup2\n      mstore\n      0x20\n      add\n        /* \"contracts/CrowdFund.sol\":5437:5454  ProjectStatus.WFA */\n      0x00\n        /* \"contracts/CrowdFund.sol\":5169:5465  Project({... */\n      0x09\n      dup2\n      gt\n      iszero\n      tag_393\n      jumpi\n      tag_394\n      tag_113\n      jump\t// in\n    tag_394:\n    tag_393:\n      dup2\n      mstore\n      pop\n        /* \"contracts/CrowdFund.sol\":5144:5465  Project memory project = Project({... */\n      swap1\n      pop\n        /* \"contracts/CrowdFund.sol\":5494:5501  project */\n      dup1\n        /* \"contracts/CrowdFund.sol\":5476:5484  projects */\n      0x00\n        /* \"contracts/CrowdFund.sol\":5476:5491  projects[owner] */\n      dup1\n        /* \"contracts/CrowdFund.sol\":5485:5490  owner */\n      dup6\n        /* \"contracts/CrowdFund.sol\":5476:5491  projects[owner] */\n      0xffffffffffffffffffffffffffffffffffffffff\n      and\n      0xffffffffffffffffffffffffffffffffffffffff\n      and\n      dup2\n      mstore\n      0x20\n      add\n      swap1\n      dup2\n      mstore\n      0x20\n      add\n      0x00\n      keccak256\n        /* \"contracts/CrowdFund.sol\":5476:5501  projects[owner] = project */\n      0x00\n      dup3\n      add\n      mload\n      dup2\n      0x00\n      add\n      sstore\n      0x20\n      dup3\n      add\n      mload\n      dup2\n      0x01\n      add\n      sstore\n      0x40\n      dup3\n      add\n      mload\n      dup2\n      0x02\n      add\n      sstore\n      0x60\n      dup3\n      add\n      mload\n      dup2\n      0x03\n      add\n      exp(0x0100, 0x00)\n      dup2\n      sload\n      dup2\n      0xffffffffffffffffffffffffffffffffffffffff\n      mul\n      not\n      and\n      swap1\n      dup4\n      0xffffffffffffffffffffffffffffffffffffffff\n      and\n      mul\n      or\n      swap1\n      sstore\n      pop\n      0x80\n      dup3\n      add\n      mload\n      dup2\n      0x04\n      add\n      exp(0x0100, 0x00)\n      dup2\n      sload\n      dup2\n      0xffffffffffffffffffffffffffffffffffffffff\n      mul\n      not\n      and\n      swap1\n      dup4\n      0xffffffffffffffffffffffffffffffffffffffff\n      and\n      mul\n      or\n      swap1\n      sstore\n      pop\n      0xa0\n      dup3\n      add\n      mload\n      dup2\n      0x04\n      add\n      exp(0x0100, 0x14)\n      dup2\n      sload\n      dup2\n      0xff\n      mul\n      not\n      and\n      swap1\n      dup4\n      iszero\n      iszero\n      mul\n      or\n      swap1\n      sstore\n      pop\n      0xc0\n      dup3\n      add\n      mload\n      dup2\n      0x05\n      add\n      swap1\n      dup1\n      mload\n      swap1\n      0x20\n      add\n      swap1\n      tag_395\n      swap3\n      swap2\n      swap1\n      tag_396\n      jump\t// in\n    tag_395:\n      pop\n      0xe0\n      dup3\n      add\n      mload\n      dup2\n      0x06\n      add\n      exp(0x0100, 0x00)\n      dup2\n      sload\n      dup2\n      0xff\n      mul\n      not\n      and\n      swap1\n      dup4\n      0x09\n      dup2\n      gt\n      iszero\n      tag_397\n      jumpi\n      tag_398\n      tag_113\n      jump\t// in\n    tag_398:\n    tag_397:\n      mul\n      or\n      swap1\n      sstore\n      pop\n      swap1\n      pop\n      pop\n        /* \"contracts/CrowdFund.sol\":5521:5536  charityProjects */\n      0x03\n        /* \"contracts/CrowdFund.sol\":5521:5548  charityProjects[msg.sender] */\n      0x00\n        /* \"contracts/CrowdFund.sol\":5537:5547  msg.sender */\n      caller\n        /* \"contracts/CrowdFund.sol\":5521:5548  charityProjects[msg.sender] */\n      0xffffffffffffffffffffffffffffffffffffffff\n      and\n      0xffffffffffffffffffffffffffffffffffffffff\n      and\n      dup2\n      mstore\n      0x20\n      add\n      swap1\n      dup2\n      mstore\n      0x20\n      add\n      0x00\n      keccak256\n        /* \"contracts/CrowdFund.sol\":5554:5561  project */\n      dup2\n        /* \"contracts/CrowdFund.sol\":5521:5562  charityProjects[msg.sender].push(project) */\n      swap1\n      dup1\n      0x01\n      dup2\n      sload\n      add\n      dup1\n      dup3\n      sstore\n      dup1\n      swap2\n      pop\n      pop\n      0x01\n      swap1\n      sub\n      swap1\n      0x00\n      mstore\n      keccak256(0x00, 0x20)\n      swap1\n      0x07\n      mul\n      add\n      0x00\n      swap1\n      swap2\n      swap1\n      swap2\n      swap1\n      swap2\n      pop\n      0x00\n      dup3\n      add\n      mload\n      dup2\n      0x00\n      add\n      sstore\n      0x20\n      dup3\n      add\n      mload\n      dup2\n      0x01\n      add\n      sstore\n      0x40\n      dup3\n      add\n      mload\n      dup2\n      0x02\n      add\n      sstore\n      0x60\n      dup3\n      add\n      mload\n      dup2\n      0x03\n      add\n      exp(0x0100, 0x00)\n      dup2\n      sload\n      dup2\n      0xffffffffffffffffffffffffffffffffffffffff\n      mul\n      not\n      and\n      swap1\n      dup4\n      0xffffffffffffffffffffffffffffffffffffffff\n      and\n      mul\n      or\n      swap1\n      sstore\n      pop\n      0x80\n      dup3\n      add\n      mload\n      dup2\n      0x04\n      add\n      exp(0x0100, 0x00)\n      dup2\n      sload\n      dup2\n      0xffffffffffffffffffffffffffffffffffffffff\n      mul\n      not\n      and\n      swap1\n      dup4\n      0xffffffffffffffffffffffffffffffffffffffff\n      and\n      mul\n      or\n      swap1\n      sstore\n      pop\n      0xa0\n      dup3\n      add\n      mload\n      dup2\n      0x04\n      add\n      exp(0x0100, 0x14)\n      dup2\n      sload\n      dup2\n      0xff\n      mul\n      not\n      and\n      swap1\n      dup4\n      iszero\n      iszero\n      mul\n      or\n      swap1\n      sstore\n      pop\n      0xc0\n      dup3\n      add\n      mload\n      dup2\n      0x05\n      add\n      swap1\n      dup1\n      mload\n      swap1\n      0x20\n      add\n      swap1\n      tag_400\n      swap3\n      swap2\n      swap1\n      tag_396\n      jump\t// in\n    tag_400:\n      pop\n      0xe0\n      dup3\n      add\n      mload\n      dup2\n      0x06\n      add\n      exp(0x0100, 0x00)\n      dup2\n      sload\n      dup2\n      0xff\n      mul\n      not\n      and\n      swap1\n      dup4\n      0x09\n      dup2\n      gt\n      iszero\n      tag_401\n      jumpi\n      tag_402\n      tag_113\n      jump\t// in\n    tag_402:\n    tag_401:\n      mul\n      or\n      swap1\n      sstore\n      pop\n      pop\n      pop\n        /* \"contracts/CrowdFund.sol\":4961:5569  {... */\n      pop\n        /* \"contracts/CrowdFund.sol\":4842:5569  function createProject(uint _minimumAmount, uint _goal, address owner, string memory _documentLink) onlyCharity public {... */\n      pop\n      pop\n      pop\n      pop\n      jump\t// out\n        /* \"contracts/CrowdFund.sol\":3995:4320  function createCharity(string memory _licenseDocsLink, address owner) public onlyBoardAdmin {... */\n    tag_60:\n        /* \"contracts/CrowdFund.sol\":3222:3232  boardAdmin */\n      0x02\n      0x00\n      swap1\n      sload\n      swap1\n      0x0100\n      exp\n      swap1\n      div\n      0xffffffffffffffffffffffffffffffffffffffff\n      and\n        /* \"contracts/CrowdFund.sol\":3210:3232  msg.sender==boardAdmin */\n      0xffffffffffffffffffffffffffffffffffffffff\n      and\n        /* \"contracts/CrowdFund.sol\":3210:3220  msg.sender */\n      caller\n        /* \"contracts/CrowdFund.sol\":3210:3232  msg.sender==boardAdmin */\n      0xffffffffffffffffffffffffffffffffffffffff\n      and\n      eq\n        /* \"contracts/CrowdFund.sol\":3233:3243  ONLY_ADMIN */\n      mload(0x40)\n      dup1\n      0x60\n      add\n      0x40\n      mstore\n      dup1\n      0x33\n      dup2\n      mstore\n      0x20\n      add\n      data_0fd57a96508da25173f82e6faabc4b077c36881e53dd1b21682a822e75096b01\n      0x33\n      swap2\n      codecopy\n        /* \"contracts/CrowdFund.sol\":3202:3244  require(msg.sender==boardAdmin,ONLY_ADMIN) */\n      swap1\n      tag_404\n      jumpi\n      mload(0x40)\n      0x08c379a000000000000000000000000000000000000000000000000000000000\n      dup2\n      mstore\n      0x04\n      add\n      tag_405\n      swap2\n      swap1\n      tag_45\n      jump\t// in\n    tag_405:\n      mload(0x40)\n      dup1\n      swap2\n      sub\n      swap1\n      revert\n    tag_404:\n      pop\n        /* \"contracts/CrowdFund.sol\":4106:4128  Charity memory charity */\n      0x00\n        /* \"contracts/CrowdFund.sol\":4131:4272  Charity({... */\n      mload(0x40)\n      dup1\n      0x80\n      add\n      0x40\n      mstore\n      dup1\n        /* \"contracts/CrowdFund.sol\":4162:4167  false */\n      0x00\n        /* \"contracts/CrowdFund.sol\":4131:4272  Charity({... */\n      iszero\n      iszero\n      dup2\n      mstore\n      0x20\n      add\n      mload(0x40)\n      dup1\n      0x20\n      add\n      0x40\n      mstore\n      dup1\n      0x00\n      dup2\n      mstore\n      pop\n      dup2\n      mstore\n      0x20\n      add\n        /* \"contracts/CrowdFund.sol\":4220:4236  _licenseDocsLink */\n      dup5\n        /* \"contracts/CrowdFund.sol\":4131:4272  Charity({... */\n      dup2\n      mstore\n      0x20\n      add\n        /* \"contracts/CrowdFund.sol\":4256:4261  owner */\n      dup4\n        /* \"contracts/CrowdFund.sol\":4131:4272  Charity({... */\n      0xffffffffffffffffffffffffffffffffffffffff\n      and\n      dup2\n      mstore\n      pop\n        /* \"contracts/CrowdFund.sol\":4106:4272  Charity memory charity = Charity({... */\n      swap1\n      pop\n        /* \"contracts/CrowdFund.sol\":4303:4310  charity */\n      dup1\n        /* \"contracts/CrowdFund.sol\":4284:4293  charities */\n      0x01\n        /* \"contracts/CrowdFund.sol\":4284:4300  charities[owner] */\n      0x00\n        /* \"contracts/CrowdFund.sol\":4294:4299  owner */\n      dup5\n        /* \"contracts/CrowdFund.sol\":4284:4300  charities[owner] */\n      0xffffffffffffffffffffffffffffffffffffffff\n      and\n      0xffffffffffffffffffffffffffffffffffffffff\n      and\n      dup2\n      mstore\n      0x20\n      add\n      swap1\n      dup2\n      mstore\n      0x20\n      add\n      0x00\n      keccak256\n        /* \"contracts/CrowdFund.sol\":4284:4310  charities[owner] = charity */\n      0x00\n      dup3\n      add\n      mload\n      dup2\n      0x00\n      add\n      exp(0x0100, 0x00)\n      dup2\n      sload\n      dup2\n      0xff\n      mul\n      not\n      and\n      swap1\n      dup4\n      iszero\n      iszero\n      mul\n      or\n      swap1\n      sstore\n      pop\n      0x20\n      dup3\n      add\n      mload\n      dup2\n      0x01\n      add\n      swap1\n      dup1\n      mload\n      swap1\n      0x20\n      add\n      swap1\n      tag_407\n      swap3\n      swap2\n      swap1\n      tag_396\n      jump\t// in\n    tag_407:\n      pop\n      0x40\n      dup3\n      add\n      mload\n      dup2\n      0x02\n      add\n      swap1\n      dup1\n      mload\n      swap1\n      0x20\n      add\n      swap1\n      tag_408\n      swap3\n      swap2\n      swap1\n      tag_396\n      jump\t// in\n    tag_408:\n      pop\n      0x60\n      dup3\n      add\n      mload\n      dup2\n      0x03\n      add\n      exp(0x0100, 0x00)\n      dup2\n      sload\n      dup2\n      0xffffffffffffffffffffffffffffffffffffffff\n      mul\n      not\n      and\n      swap1\n      dup4\n      0xffffffffffffffffffffffffffffffffffffffff\n      and\n      mul\n      or\n      swap1\n      sstore\n      pop\n      swap1\n      pop\n      pop\n        /* \"contracts/CrowdFund.sol\":4087:4320  {... */\n      pop\n        /* \"contracts/CrowdFund.sol\":3995:4320  function createCharity(string memory _licenseDocsLink, address owner) public onlyBoardAdmin {... */\n      pop\n      pop\n      jump\t// out\n        /* \"contracts/CrowdFund.sol\":10311:10848  function getProjectOwnerBalance(address charityAddress, address projectAddress) public view returns (... */\n    tag_64:\n        /* \"contracts/CrowdFund.sol\":10421:10425  uint */\n      0x00\n        /* \"contracts/CrowdFund.sol\":10437:10466  Project[] storage projectList */\n      dup1\n        /* \"contracts/CrowdFund.sol\":10469:10484  charityProjects */\n      0x03\n        /* \"contracts/CrowdFund.sol\":10469:10500  charityProjects[charityAddress] */\n      0x00\n        /* \"contracts/CrowdFund.sol\":10485:10499  charityAddress */\n      dup6\n        /* \"contracts/CrowdFund.sol\":10469:10500  charityProjects[charityAddress] */\n      0xffffffffffffffffffffffffffffffffffffffff\n      and\n      0xffffffffffffffffffffffffffffffffffffffff\n      and\n      dup2\n      mstore\n      0x20\n      add\n      swap1\n      dup2\n      mstore\n      0x20\n      add\n      0x00\n      keccak256\n        /* \"contracts/CrowdFund.sol\":10437:10500  Project[] storage projectList = charityProjects[charityAddress] */\n      swap1\n      pop\n        /* \"contracts/CrowdFund.sol\":10539:10540  0 */\n      0x00\n        /* \"contracts/CrowdFund.sol\":10518:10529  projectList */\n      dup2\n        /* \"contracts/CrowdFund.sol\":10518:10536  projectList.length */\n      dup1\n      sload\n      swap1\n      pop\n        /* \"contracts/CrowdFund.sol\":10518:10540  projectList.length > 0 */\n      gt\n        /* \"contracts/CrowdFund.sol\":10510:10579  require(projectList.length > 0,\"No project exist under this charity\") */\n      tag_410\n      jumpi\n      mload(0x40)\n      0x08c379a000000000000000000000000000000000000000000000000000000000\n      dup2\n      mstore\n      0x04\n      add\n      tag_411\n      swap1\n      tag_130\n      jump\t// in\n    tag_411:\n      mload(0x40)\n      dup1\n      swap2\n      sub\n      swap1\n      revert\n    tag_410:\n        /* \"contracts/CrowdFund.sol\":10589:10601  uint balance */\n      0x00\n        /* \"contracts/CrowdFund.sol\":10620:10626  uint i */\n      dup1\n        /* \"contracts/CrowdFund.sol\":10615:10817  for (uint i=0;i<projectList.length;i++) {... */\n    tag_412:\n        /* \"contracts/CrowdFund.sol\":10631:10642  projectList */\n      dup3\n        /* \"contracts/CrowdFund.sol\":10631:10649  projectList.length */\n      dup1\n      sload\n      swap1\n      pop\n        /* \"contracts/CrowdFund.sol\":10629:10630  i */\n      dup2\n        /* \"contracts/CrowdFund.sol\":10629:10649  i<projectList.length */\n      lt\n        /* \"contracts/CrowdFund.sol\":10615:10817  for (uint i=0;i<projectList.length;i++) {... */\n      iszero\n      tag_413\n      jumpi\n        /* \"contracts/CrowdFund.sol\":10697:10711  projectAddress */\n      dup5\n        /* \"contracts/CrowdFund.sol\":10673:10711  projectList[i].owner == projectAddress */\n      0xffffffffffffffffffffffffffffffffffffffff\n      and\n        /* \"contracts/CrowdFund.sol\":10673:10684  projectList */\n      dup4\n        /* \"contracts/CrowdFund.sol\":10685:10686  i */\n      dup3\n        /* \"contracts/CrowdFund.sol\":10673:10687  projectList[i] */\n      dup2\n      sload\n      dup2\n      lt\n      tag_415\n      jumpi\n      tag_416\n      tag_136\n      jump\t// in\n    tag_416:\n    tag_415:\n      swap1\n      0x00\n      mstore\n      keccak256(0x00, 0x20)\n      swap1\n      0x07\n      mul\n      add\n        /* \"contracts/CrowdFund.sol\":10673:10693  projectList[i].owner */\n      0x03\n      add\n      0x00\n      swap1\n      sload\n      swap1\n      0x0100\n      exp\n      swap1\n      div\n      0xffffffffffffffffffffffffffffffffffffffff\n      and\n        /* \"contracts/CrowdFund.sol\":10673:10711  projectList[i].owner == projectAddress */\n      0xffffffffffffffffffffffffffffffffffffffff\n      and\n      eq\n        /* \"contracts/CrowdFund.sol\":10669:10807  if (projectList[i].owner == projectAddress) {... */\n      iszero\n      tag_418\n      jumpi\n        /* \"contracts/CrowdFund.sol\":10741:10752  projectList */\n      dup3\n        /* \"contracts/CrowdFund.sol\":10753:10754  i */\n      dup2\n        /* \"contracts/CrowdFund.sol\":10741:10755  projectList[i] */\n      dup2\n      sload\n      dup2\n      lt\n      tag_419\n      jumpi\n      tag_420\n      tag_136\n      jump\t// in\n    tag_420:\n    tag_419:\n      swap1\n      0x00\n      mstore\n      keccak256(0x00, 0x20)\n      swap1\n      0x07\n      mul\n      add\n        /* \"contracts/CrowdFund.sol\":10741:10761  projectList[i].owner */\n      0x03\n      add\n      0x00\n      swap1\n      sload\n      swap1\n      0x0100\n      exp\n      swap1\n      div\n      0xffffffffffffffffffffffffffffffffffffffff\n      and\n        /* \"contracts/CrowdFund.sol\":10741:10769  projectList[i].owner.balance */\n      0xffffffffffffffffffffffffffffffffffffffff\n      and\n      balance\n        /* \"contracts/CrowdFund.sol\":10731:10769  balance = projectList[i].owner.balance */\n      swap2\n      pop\n        /* \"contracts/CrowdFund.sol\":10787:10792  break */\n      jump(tag_413)\n        /* \"contracts/CrowdFund.sol\":10669:10807  if (projectList[i].owner == projectAddress) {... */\n    tag_418:\n        /* \"contracts/CrowdFund.sol\":10650:10653  i++ */\n      dup1\n      dup1\n      tag_422\n      swap1\n      tag_213\n      jump\t// in\n    tag_422:\n      swap2\n      pop\n      pop\n        /* \"contracts/CrowdFund.sol\":10615:10817  for (uint i=0;i<projectList.length;i++) {... */\n      jump(tag_412)\n    tag_413:\n      pop\n        /* \"contracts/CrowdFund.sol\":10834:10841  balance */\n      dup1\n        /* \"contracts/CrowdFund.sol\":10827:10841  return balance */\n      swap3\n      pop\n      pop\n      pop\n        /* \"contracts/CrowdFund.sol\":10311:10848  function getProjectOwnerBalance(address charityAddress, address projectAddress) public view returns (... */\n      swap3\n      swap2\n      pop\n      pop\n      jump\t// out\n        /* \"contracts/CrowdFund.sol\":16495:18797  function getRefund(address charityAddress, address projectAddress) public {... */\n    tag_70:\n        /* \"contracts/CrowdFund.sol\":16579:16596  bool projectExist */\n      0x00\n        /* \"contracts/CrowdFund.sol\":16614:16629  bool donorExist */\n      dup1\n        /* \"contracts/CrowdFund.sol\":16656:16685  Project[] storage projectList */\n      0x00\n        /* \"contracts/CrowdFund.sol\":16688:16703  charityProjects */\n      0x03\n        /* \"contracts/CrowdFund.sol\":16688:16719  charityProjects[charityAddress] */\n      0x00\n        /* \"contracts/CrowdFund.sol\":16704:16718  charityAddress */\n      dup7\n        /* \"contracts/CrowdFund.sol\":16688:16719  charityProjects[charityAddress] */\n      0xffffffffffffffffffffffffffffffffffffffff\n      and\n      0xffffffffffffffffffffffffffffffffffffffff\n      and\n      dup2\n      mstore\n      0x20\n      add\n      swap1\n      dup2\n      mstore\n      0x20\n      add\n      0x00\n      keccak256\n        /* \"contracts/CrowdFund.sol\":16656:16719  Project[] storage projectList = charityProjects[charityAddress] */\n      swap1\n      pop\n        /* \"contracts/CrowdFund.sol\":16758:16759  0 */\n      0x00\n        /* \"contracts/CrowdFund.sol\":16737:16748  projectList */\n      dup2\n        /* \"contracts/CrowdFund.sol\":16737:16755  projectList.length */\n      dup1\n      sload\n      swap1\n      pop\n        /* \"contracts/CrowdFund.sol\":16737:16759  projectList.length > 0 */\n      gt\n        /* \"contracts/CrowdFund.sol\":16729:16798  require(projectList.length > 0,\"No project exist under this charity\") */\n      tag_424\n      jumpi\n      mload(0x40)\n      0x08c379a000000000000000000000000000000000000000000000000000000000\n      dup2\n      mstore\n      0x04\n      add\n      tag_425\n      swap1\n      tag_130\n      jump\t// in\n    tag_425:\n      mload(0x40)\n      dup1\n      swap2\n      sub\n      swap1\n      revert\n    tag_424:\n        /* \"contracts/CrowdFund.sol\":16809:16834  Donor[] storage allDonors */\n      0x00\n        /* \"contracts/CrowdFund.sol\":16837:16850  projectDonors */\n      0x04\n        /* \"contracts/CrowdFund.sol\":16837:16866  projectDonors[projectAddress] */\n      0x00\n        /* \"contracts/CrowdFund.sol\":16851:16865  projectAddress */\n      dup7\n        /* \"contracts/CrowdFund.sol\":16837:16866  projectDonors[projectAddress] */\n      0xffffffffffffffffffffffffffffffffffffffff\n      and\n      0xffffffffffffffffffffffffffffffffffffffff\n      and\n      dup2\n      mstore\n      0x20\n      add\n      swap1\n      dup2\n      mstore\n      0x20\n      add\n      0x00\n      keccak256\n        /* \"contracts/CrowdFund.sol\":16809:16866  Donor[] storage allDonors = projectDonors[projectAddress] */\n      swap1\n      pop\n        /* \"contracts/CrowdFund.sol\":16882:16888  uint j */\n      0x00\n        /* \"contracts/CrowdFund.sol\":16877:18701  for (uint j=0;j<allDonors.length;j++) {... */\n    tag_426:\n        /* \"contracts/CrowdFund.sol\":16893:16902  allDonors */\n      dup2\n        /* \"contracts/CrowdFund.sol\":16893:16909  allDonors.length */\n      dup1\n      sload\n      swap1\n      pop\n        /* \"contracts/CrowdFund.sol\":16891:16892  j */\n      dup2\n        /* \"contracts/CrowdFund.sol\":16891:16909  j<allDonors.length */\n      lt\n        /* \"contracts/CrowdFund.sol\":16877:18701  for (uint j=0;j<allDonors.length;j++) {... */\n      iszero\n      tag_427\n      jumpi\n        /* \"contracts/CrowdFund.sol\":17059:17069  msg.sender */\n      caller\n        /* \"contracts/CrowdFund.sol\":17037:17069  allDonors[j].owner == msg.sender */\n      0xffffffffffffffffffffffffffffffffffffffff\n      and\n        /* \"contracts/CrowdFund.sol\":17037:17046  allDonors */\n      dup3\n        /* \"contracts/CrowdFund.sol\":17047:17048  j */\n      dup3\n        /* \"contracts/CrowdFund.sol\":17037:17049  allDonors[j] */\n      dup2\n      sload\n      dup2\n      lt\n      tag_429\n      jumpi\n      tag_430\n      tag_136\n      jump\t// in\n    tag_430:\n    tag_429:\n      swap1\n      0x00\n      mstore\n      keccak256(0x00, 0x20)\n      swap1\n      0x03\n      mul\n      add\n        /* \"contracts/CrowdFund.sol\":17037:17055  allDonors[j].owner */\n      0x01\n      add\n      0x00\n      swap1\n      sload\n      swap1\n      0x0100\n      exp\n      swap1\n      div\n      0xffffffffffffffffffffffffffffffffffffffff\n      and\n        /* \"contracts/CrowdFund.sol\":17037:17069  allDonors[j].owner == msg.sender */\n      0xffffffffffffffffffffffffffffffffffffffff\n      and\n      eq\n        /* \"contracts/CrowdFund.sol\":17037:17130  allDonors[j].owner == msg.sender && allDonors[j].projectwiseContributions[projectAddress] > 0 */\n      dup1\n      iszero\n      tag_432\n      jumpi\n      pop\n        /* \"contracts/CrowdFund.sol\":17129:17130  0 */\n      0x00\n        /* \"contracts/CrowdFund.sol\":17073:17082  allDonors */\n      dup3\n        /* \"contracts/CrowdFund.sol\":17083:17084  j */\n      dup3\n        /* \"contracts/CrowdFund.sol\":17073:17085  allDonors[j] */\n      dup2\n      sload\n      dup2\n      lt\n      tag_433\n      jumpi\n      tag_434\n      tag_136\n      jump\t// in\n    tag_434:\n    tag_433:\n      swap1\n      0x00\n      mstore\n      keccak256(0x00, 0x20)\n      swap1\n      0x03\n      mul\n      add\n        /* \"contracts/CrowdFund.sol\":17073:17110  allDonors[j].projectwiseContributions */\n      0x02\n      add\n        /* \"contracts/CrowdFund.sol\":17073:17126  allDonors[j].projectwiseContributions[projectAddress] */\n      0x00\n        /* \"contracts/CrowdFund.sol\":17111:17125  projectAddress */\n      dup9\n        /* \"contracts/CrowdFund.sol\":17073:17126  allDonors[j].projectwiseContributions[projectAddress] */\n      0xffffffffffffffffffffffffffffffffffffffff\n      and\n      0xffffffffffffffffffffffffffffffffffffffff\n      and\n      dup2\n      mstore\n      0x20\n      add\n      swap1\n      dup2\n      mstore\n      0x20\n      add\n      0x00\n      keccak256\n      sload\n        /* \"contracts/CrowdFund.sol\":17073:17130  allDonors[j].projectwiseContributions[projectAddress] > 0 */\n      gt\n        /* \"contracts/CrowdFund.sol\":17037:17130  allDonors[j].owner == msg.sender && allDonors[j].projectwiseContributions[projectAddress] > 0 */\n    tag_432:\n        /* \"contracts/CrowdFund.sol\":17033:18691  if (allDonors[j].owner == msg.sender && allDonors[j].projectwiseContributions[projectAddress] > 0) {... */\n      iszero\n      tag_436\n      jumpi\n        /* \"contracts/CrowdFund.sol\":17155:17161  uint i */\n      0x00\n        /* \"contracts/CrowdFund.sol\":17150:18272  for (uint i=0;i<projectList.length;i++) {... */\n    tag_437:\n        /* \"contracts/CrowdFund.sol\":17166:17177  projectList */\n      dup4\n        /* \"contracts/CrowdFund.sol\":17166:17184  projectList.length */\n      dup1\n      sload\n      swap1\n      pop\n        /* \"contracts/CrowdFund.sol\":17164:17165  i */\n      dup2\n        /* \"contracts/CrowdFund.sol\":17164:17184  i<projectList.length */\n      lt\n        /* \"contracts/CrowdFund.sol\":17150:18272  for (uint i=0;i<projectList.length;i++) {... */\n      iszero\n      tag_438\n      jumpi\n        /* \"contracts/CrowdFund.sol\":17240:17254  projectAddress */\n      dup7\n        /* \"contracts/CrowdFund.sol\":17216:17254  projectList[i].owner == projectAddress */\n      0xffffffffffffffffffffffffffffffffffffffff\n      and\n        /* \"contracts/CrowdFund.sol\":17216:17227  projectList */\n      dup5\n        /* \"contracts/CrowdFund.sol\":17228:17229  i */\n      dup3\n        /* \"contracts/CrowdFund.sol\":17216:17230  projectList[i] */\n      dup2\n      sload\n      dup2\n      lt\n      tag_440\n      jumpi\n      tag_441\n      tag_136\n      jump\t// in\n    tag_441:\n    tag_440:\n      swap1\n      0x00\n      mstore\n      keccak256(0x00, 0x20)\n      swap1\n      0x07\n      mul\n      add\n        /* \"contracts/CrowdFund.sol\":17216:17236  projectList[i].owner */\n      0x03\n      add\n      0x00\n      swap1\n      sload\n      swap1\n      0x0100\n      exp\n      swap1\n      div\n      0xffffffffffffffffffffffffffffffffffffffff\n      and\n        /* \"contracts/CrowdFund.sol\":17216:17254  projectList[i].owner == projectAddress */\n      0xffffffffffffffffffffffffffffffffffffffff\n      and\n      eq\n        /* \"contracts/CrowdFund.sol\":17212:18253  if (projectList[i].owner == projectAddress) { ... */\n      iszero\n      tag_443\n      jumpi\n        /* \"contracts/CrowdFund.sol\":17318:17335  ProjectStatus.PGA */\n      0x03\n        /* \"contracts/CrowdFund.sol\":17287:17335  projectList[i].projectStatus > ProjectStatus.PGA */\n      0x09\n      dup2\n      gt\n      iszero\n      tag_444\n      jumpi\n      tag_445\n      tag_113\n      jump\t// in\n    tag_445:\n    tag_444:\n        /* \"contracts/CrowdFund.sol\":17287:17298  projectList */\n      dup5\n        /* \"contracts/CrowdFund.sol\":17299:17300  i */\n      dup3\n        /* \"contracts/CrowdFund.sol\":17287:17301  projectList[i] */\n      dup2\n      sload\n      dup2\n      lt\n      tag_446\n      jumpi\n      tag_447\n      tag_136\n      jump\t// in\n    tag_447:\n    tag_446:\n      swap1\n      0x00\n      mstore\n      keccak256(0x00, 0x20)\n      swap1\n      0x07\n      mul\n      add\n        /* \"contracts/CrowdFund.sol\":17287:17315  projectList[i].projectStatus */\n      0x06\n      add\n      0x00\n      swap1\n      sload\n      swap1\n      0x0100\n      exp\n      swap1\n      div\n      0xff\n      and\n        /* \"contracts/CrowdFund.sol\":17287:17335  projectList[i].projectStatus > ProjectStatus.PGA */\n      0x09\n      dup2\n      gt\n      iszero\n      tag_449\n      jumpi\n      tag_450\n      tag_113\n      jump\t// in\n    tag_450:\n    tag_449:\n      gt\n        /* \"contracts/CrowdFund.sol\":17283:18154  if (projectList[i].projectStatus > ProjectStatus.PGA) {... */\n      iszero\n      tag_451\n      jumpi\n        /* \"contracts/CrowdFund.sol\":17367:17442  revert(\"Can't refund as exchange request was already initiated with board\") */\n      mload(0x40)\n      0x08c379a000000000000000000000000000000000000000000000000000000000\n      dup2\n      mstore\n      0x04\n      add\n      tag_452\n      swap1\n      tag_453\n      jump\t// in\n    tag_452:\n      mload(0x40)\n      dup1\n      swap2\n      sub\n      swap1\n      revert\n        /* \"contracts/CrowdFund.sol\":17283:18154  if (projectList[i].projectStatus > ProjectStatus.PGA) {... */\n    tag_451:\n        /* \"contracts/CrowdFund.sol\":17565:17574  allDonors */\n      dup3\n        /* \"contracts/CrowdFund.sol\":17575:17576  j */\n      dup3\n        /* \"contracts/CrowdFund.sol\":17565:17577  allDonors[j] */\n      dup2\n      sload\n      dup2\n      lt\n      tag_455\n      jumpi\n      tag_456\n      tag_136\n      jump\t// in\n    tag_456:\n    tag_455:\n      swap1\n      0x00\n      mstore\n      keccak256(0x00, 0x20)\n      swap1\n      0x03\n      mul\n      add\n        /* \"contracts/CrowdFund.sol\":17565:17602  allDonors[j].projectwiseContributions */\n      0x02\n      add\n        /* \"contracts/CrowdFund.sol\":17565:17618  allDonors[j].projectwiseContributions[projectAddress] */\n      0x00\n        /* \"contracts/CrowdFund.sol\":17603:17617  projectAddress */\n      dup9\n        /* \"contracts/CrowdFund.sol\":17565:17618  allDonors[j].projectwiseContributions[projectAddress] */\n      0xffffffffffffffffffffffffffffffffffffffff\n      and\n      0xffffffffffffffffffffffffffffffffffffffff\n      and\n      dup2\n      mstore\n      0x20\n      add\n      swap1\n      dup2\n      mstore\n      0x20\n      add\n      0x00\n      keccak256\n      sload\n        /* \"contracts/CrowdFund.sol\":17535:17546  projectList */\n      dup5\n        /* \"contracts/CrowdFund.sol\":17547:17548  i */\n      dup3\n        /* \"contracts/CrowdFund.sol\":17535:17549  projectList[i] */\n      dup2\n      sload\n      dup2\n      lt\n      tag_458\n      jumpi\n      tag_459\n      tag_136\n      jump\t// in\n    tag_459:\n    tag_458:\n      swap1\n      0x00\n      mstore\n      keccak256(0x00, 0x20)\n      swap1\n      0x07\n      mul\n      add\n        /* \"contracts/CrowdFund.sol\":17535:17562  projectList[i].raisedAmount */\n      0x02\n      add\n      sload\n        /* \"contracts/CrowdFund.sol\":17535:17618  projectList[i].raisedAmount - allDonors[j].projectwiseContributions[projectAddress] */\n      tag_461\n      swap2\n      swap1\n      tag_462\n      jump\t// in\n    tag_461:\n        /* \"contracts/CrowdFund.sol\":17505:17516  projectList */\n      dup5\n        /* \"contracts/CrowdFund.sol\":17517:17518  i */\n      dup3\n        /* \"contracts/CrowdFund.sol\":17505:17519  projectList[i] */\n      dup2\n      sload\n      dup2\n      lt\n      tag_463\n      jumpi\n      tag_464\n      tag_136\n      jump\t// in\n    tag_464:\n    tag_463:\n      swap1\n      0x00\n      mstore\n      keccak256(0x00, 0x20)\n      swap1\n      0x07\n      mul\n      add\n        /* \"contracts/CrowdFund.sol\":17505:17532  projectList[i].raisedAmount */\n      0x02\n      add\n        /* \"contracts/CrowdFund.sol\":17505:17618  projectList[i].raisedAmount = projectList[i].raisedAmount - allDonors[j].projectwiseContributions[projectAddress] */\n      dup2\n      swap1\n      sstore\n      pop\n        /* \"contracts/CrowdFund.sol\":17751:17760  allDonors */\n      dup3\n        /* \"contracts/CrowdFund.sol\":17761:17762  j */\n      dup3\n        /* \"contracts/CrowdFund.sol\":17751:17763  allDonors[j] */\n      dup2\n      sload\n      dup2\n      lt\n      tag_466\n      jumpi\n      tag_467\n      tag_136\n      jump\t// in\n    tag_467:\n    tag_466:\n      swap1\n      0x00\n      mstore\n      keccak256(0x00, 0x20)\n      swap1\n      0x03\n      mul\n      add\n        /* \"contracts/CrowdFund.sol\":17751:17769  allDonors[j].owner */\n      0x01\n      add\n      0x00\n      swap1\n      sload\n      swap1\n      0x0100\n      exp\n      swap1\n      div\n      0xffffffffffffffffffffffffffffffffffffffff\n      and\n        /* \"contracts/CrowdFund.sol\":17742:17779  payable (allDonors[j].owner).transfer */\n      0xffffffffffffffffffffffffffffffffffffffff\n      and\n        /* \"contracts/CrowdFund.sol\":17742:17834  payable (allDonors[j].owner).transfer(allDonors[j].projectwiseContributions[projectAddress]) */\n      0x08fc\n        /* \"contracts/CrowdFund.sol\":17780:17789  allDonors */\n      dup5\n        /* \"contracts/CrowdFund.sol\":17790:17791  j */\n      dup5\n        /* \"contracts/CrowdFund.sol\":17780:17792  allDonors[j] */\n      dup2\n      sload\n      dup2\n      lt\n      tag_469\n      jumpi\n      tag_470\n      tag_136\n      jump\t// in\n    tag_470:\n    tag_469:\n      swap1\n      0x00\n      mstore\n      keccak256(0x00, 0x20)\n      swap1\n      0x03\n      mul\n      add\n        /* \"contracts/CrowdFund.sol\":17780:17817  allDonors[j].projectwiseContributions */\n      0x02\n      add\n        /* \"contracts/CrowdFund.sol\":17780:17833  allDonors[j].projectwiseContributions[projectAddress] */\n      0x00\n        /* \"contracts/CrowdFund.sol\":17818:17832  projectAddress */\n      dup11\n        /* \"contracts/CrowdFund.sol\":17780:17833  allDonors[j].projectwiseContributions[projectAddress] */\n      0xffffffffffffffffffffffffffffffffffffffff\n      and\n      0xffffffffffffffffffffffffffffffffffffffff\n      and\n      dup2\n      mstore\n      0x20\n      add\n      swap1\n      dup2\n      mstore\n      0x20\n      add\n      0x00\n      keccak256\n      sload\n        /* \"contracts/CrowdFund.sol\":17742:17834  payable (allDonors[j].owner).transfer(allDonors[j].projectwiseContributions[projectAddress]) */\n      swap1\n      dup2\n      iszero\n      mul\n      swap1\n      mload(0x40)\n      0x00\n      mload(0x40)\n      dup1\n      dup4\n      sub\n      dup2\n      dup6\n      dup9\n      dup9\n      call\n      swap4\n      pop\n      pop\n      pop\n      pop\n      iszero\n      dup1\n      iszero\n      tag_473\n      jumpi\n      returndatasize\n      0x00\n      dup1\n      returndatacopy\n      revert(0x00, returndatasize)\n    tag_473:\n      pop\n        /* \"contracts/CrowdFund.sol\":17935:17946  projectList */\n      dup4\n        /* \"contracts/CrowdFund.sol\":17947:17948  i */\n      dup2\n        /* \"contracts/CrowdFund.sol\":17935:17949  projectList[i] */\n      dup2\n      sload\n      dup2\n      lt\n      tag_474\n      jumpi\n      tag_475\n      tag_136\n      jump\t// in\n    tag_475:\n    tag_474:\n      swap1\n      0x00\n      mstore\n      keccak256(0x00, 0x20)\n      swap1\n      0x07\n      mul\n      add\n        /* \"contracts/CrowdFund.sol\":17935:17964  projectList[i].acceptDonation */\n      0x04\n      add\n      0x14\n      swap1\n      sload\n      swap1\n      0x0100\n      exp\n      swap1\n      div\n      0xff\n      and\n        /* \"contracts/CrowdFund.sol\":17930:18128  if (!projectList[i].acceptDonation) {... */\n      tag_477\n      jumpi\n        /* \"contracts/CrowdFund.sol\":18093:18097  true */\n      0x01\n        /* \"contracts/CrowdFund.sol\":18061:18072  projectList */\n      dup5\n        /* \"contracts/CrowdFund.sol\":18073:18074  i */\n      dup3\n        /* \"contracts/CrowdFund.sol\":18061:18075  projectList[i] */\n      dup2\n      sload\n      dup2\n      lt\n      tag_478\n      jumpi\n      tag_479\n      tag_136\n      jump\t// in\n    tag_479:\n    tag_478:\n      swap1\n      0x00\n      mstore\n      keccak256(0x00, 0x20)\n      swap1\n      0x07\n      mul\n      add\n        /* \"contracts/CrowdFund.sol\":18061:18090  projectList[i].acceptDonation */\n      0x04\n      add\n      0x14\n        /* \"contracts/CrowdFund.sol\":18061:18097  projectList[i].acceptDonation = true */\n      0x0100\n      exp\n      dup2\n      sload\n      dup2\n      0xff\n      mul\n      not\n      and\n      swap1\n      dup4\n      iszero\n      iszero\n      mul\n      or\n      swap1\n      sstore\n      pop\n        /* \"contracts/CrowdFund.sol\":17930:18128  if (!projectList[i].acceptDonation) {... */\n    tag_477:\n        /* \"contracts/CrowdFund.sol\":18195:18199  true */\n      0x01\n        /* \"contracts/CrowdFund.sol\":18180:18199  projectExist = true */\n      swap6\n      pop\n        /* \"contracts/CrowdFund.sol\":18225:18230  break */\n      jump(tag_438)\n        /* \"contracts/CrowdFund.sol\":17212:18253  if (projectList[i].owner == projectAddress) { ... */\n    tag_443:\n        /* \"contracts/CrowdFund.sol\":17185:17188  i++ */\n      dup1\n      dup1\n      tag_481\n      swap1\n      tag_213\n      jump\t// in\n    tag_481:\n      swap2\n      pop\n      pop\n        /* \"contracts/CrowdFund.sol\":17150:18272  for (uint i=0;i<projectList.length;i++) {... */\n      jump(tag_437)\n    tag_438:\n      pop\n        /* \"contracts/CrowdFund.sol\":18311:18323  projectExist */\n      dup5\n        /* \"contracts/CrowdFund.sol\":18306:18413  if (!projectExist) {... */\n      tag_482\n      jumpi\n        /* \"contracts/CrowdFund.sol\":18347:18394  revert(\"No project exist under this projectId\") */\n      mload(0x40)\n      0x08c379a000000000000000000000000000000000000000000000000000000000\n      dup2\n      mstore\n      0x04\n      add\n      tag_483\n      swap1\n      tag_484\n      jump\t// in\n    tag_483:\n      mload(0x40)\n      dup1\n      swap2\n      sub\n      swap1\n      revert\n        /* \"contracts/CrowdFund.sol\":18306:18413  if (!projectExist) {... */\n    tag_482:\n        /* \"contracts/CrowdFund.sol\":18467:18477  msg.sender */\n      caller\n        /* \"contracts/CrowdFund.sol\":18458:18487  payable (msg.sender).transfer */\n      0xffffffffffffffffffffffffffffffffffffffff\n      and\n        /* \"contracts/CrowdFund.sol\":18458:18542  payable (msg.sender).transfer(allDonors[j].projectwiseContributions[projectAddress]) */\n      0x08fc\n        /* \"contracts/CrowdFund.sol\":18488:18497  allDonors */\n      dup4\n        /* \"contracts/CrowdFund.sol\":18498:18499  j */\n      dup4\n        /* \"contracts/CrowdFund.sol\":18488:18500  allDonors[j] */\n      dup2\n      sload\n      dup2\n      lt\n      tag_485\n      jumpi\n      tag_486\n      tag_136\n      jump\t// in\n    tag_486:\n    tag_485:\n      swap1\n      0x00\n      mstore\n      keccak256(0x00, 0x20)\n      swap1\n      0x03\n      mul\n      add\n        /* \"contracts/CrowdFund.sol\":18488:18525  allDonors[j].projectwiseContributions */\n      0x02\n      add\n        /* \"contracts/CrowdFund.sol\":18488:18541  allDonors[j].projectwiseContributions[projectAddress] */\n      0x00\n        /* \"contracts/CrowdFund.sol\":18526:18540  projectAddress */\n      dup10\n        /* \"contracts/CrowdFund.sol\":18488:18541  allDonors[j].projectwiseContributions[projectAddress] */\n      0xffffffffffffffffffffffffffffffffffffffff\n      and\n      0xffffffffffffffffffffffffffffffffffffffff\n      and\n      dup2\n      mstore\n      0x20\n      add\n      swap1\n      dup2\n      mstore\n      0x20\n      add\n      0x00\n      keccak256\n      sload\n        /* \"contracts/CrowdFund.sol\":18458:18542  payable (msg.sender).transfer(allDonors[j].projectwiseContributions[projectAddress]) */\n      swap1\n      dup2\n      iszero\n      mul\n      swap1\n      mload(0x40)\n      0x00\n      mload(0x40)\n      dup1\n      dup4\n      sub\n      dup2\n      dup6\n      dup9\n      dup9\n      call\n      swap4\n      pop\n      pop\n      pop\n      pop\n      iszero\n      dup1\n      iszero\n      tag_489\n      jumpi\n      returndatasize\n      0x00\n      dup1\n      returndatacopy\n      revert(0x00, returndatasize)\n    tag_489:\n      pop\n        /* \"contracts/CrowdFund.sol\":18616:18617  0 */\n      0x00\n        /* \"contracts/CrowdFund.sol\":18560:18569  allDonors */\n      dup3\n        /* \"contracts/CrowdFund.sol\":18570:18571  j */\n      dup3\n        /* \"contracts/CrowdFund.sol\":18560:18572  allDonors[j] */\n      dup2\n      sload\n      dup2\n      lt\n      tag_490\n      jumpi\n      tag_491\n      tag_136\n      jump\t// in\n    tag_491:\n    tag_490:\n      swap1\n      0x00\n      mstore\n      keccak256(0x00, 0x20)\n      swap1\n      0x03\n      mul\n      add\n        /* \"contracts/CrowdFund.sol\":18560:18597  allDonors[j].projectwiseContributions */\n      0x02\n      add\n        /* \"contracts/CrowdFund.sol\":18560:18613  allDonors[j].projectwiseContributions[projectAddress] */\n      0x00\n        /* \"contracts/CrowdFund.sol\":18598:18612  projectAddress */\n      dup9\n        /* \"contracts/CrowdFund.sol\":18560:18613  allDonors[j].projectwiseContributions[projectAddress] */\n      0xffffffffffffffffffffffffffffffffffffffff\n      and\n      0xffffffffffffffffffffffffffffffffffffffff\n      and\n      dup2\n      mstore\n      0x20\n      add\n      swap1\n      dup2\n      mstore\n      0x20\n      add\n      0x00\n      keccak256\n        /* \"contracts/CrowdFund.sol\":18560:18617  allDonors[j].projectwiseContributions[projectAddress] = 0 */\n      dup2\n      swap1\n      sstore\n      pop\n        /* \"contracts/CrowdFund.sol\":18649:18653  true */\n      0x01\n        /* \"contracts/CrowdFund.sol\":18636:18653  donorExist = true */\n      swap4\n      pop\n        /* \"contracts/CrowdFund.sol\":18671:18676  break */\n      jump(tag_427)\n        /* \"contracts/CrowdFund.sol\":17033:18691  if (allDonors[j].owner == msg.sender && allDonors[j].projectwiseContributions[projectAddress] > 0) {... */\n    tag_436:\n        /* \"contracts/CrowdFund.sol\":16910:16913  j++ */\n      dup1\n      dup1\n      tag_493\n      swap1\n      tag_213\n      jump\t// in\n    tag_493:\n      swap2\n      pop\n      pop\n        /* \"contracts/CrowdFund.sol\":16877:18701  for (uint j=0;j<allDonors.length;j++) {... */\n      jump(tag_426)\n    tag_427:\n      pop\n        /* \"contracts/CrowdFund.sol\":18716:18726  donorExist */\n      dup3\n        /* \"contracts/CrowdFund.sol\":18711:18790  if (!donorExist)... */\n      tag_494\n      jumpi\n        /* \"contracts/CrowdFund.sol\":18740:18790  revert(\"You haven't contributed for this project\") */\n      mload(0x40)\n      0x08c379a000000000000000000000000000000000000000000000000000000000\n      dup2\n      mstore\n      0x04\n      add\n      tag_495\n      swap1\n      tag_496\n      jump\t// in\n    tag_495:\n      mload(0x40)\n      dup1\n      swap2\n      sub\n      swap1\n      revert\n        /* \"contracts/CrowdFund.sol\":18711:18790  if (!donorExist)... */\n    tag_494:\n        /* \"contracts/CrowdFund.sol\":16569:18797  {... */\n      pop\n      pop\n      pop\n      pop\n        /* \"contracts/CrowdFund.sol\":16495:18797  function getRefund(address charityAddress, address projectAddress) public {... */\n      pop\n      pop\n      jump\t// out\n        /* \"contracts/CrowdFund.sol\":4374:4687  function updateCharityStatus(address charityAddress, bool status, string memory reason) public onlyBoardAdmin {... */\n    tag_75:\n        /* \"contracts/CrowdFund.sol\":3222:3232  boardAdmin */\n      0x02\n      0x00\n      swap1\n      sload\n      swap1\n      0x0100\n      exp\n      swap1\n      div\n      0xffffffffffffffffffffffffffffffffffffffff\n      and\n        /* \"contracts/CrowdFund.sol\":3210:3232  msg.sender==boardAdmin */\n      0xffffffffffffffffffffffffffffffffffffffff\n      and\n        /* \"contracts/CrowdFund.sol\":3210:3220  msg.sender */\n      caller\n        /* \"contracts/CrowdFund.sol\":3210:3232  msg.sender==boardAdmin */\n      0xffffffffffffffffffffffffffffffffffffffff\n      and\n      eq\n        /* \"contracts/CrowdFund.sol\":3233:3243  ONLY_ADMIN */\n      mload(0x40)\n      dup1\n      0x60\n      add\n      0x40\n      mstore\n      dup1\n      0x33\n      dup2\n      mstore\n      0x20\n      add\n      data_0fd57a96508da25173f82e6faabc4b077c36881e53dd1b21682a822e75096b01\n      0x33\n      swap2\n      codecopy\n        /* \"contracts/CrowdFund.sol\":3202:3244  require(msg.sender==boardAdmin,ONLY_ADMIN) */\n      swap1\n      tag_498\n      jumpi\n      mload(0x40)\n      0x08c379a000000000000000000000000000000000000000000000000000000000\n      dup2\n      mstore\n      0x04\n      add\n      tag_499\n      swap2\n      swap1\n      tag_45\n      jump\t// in\n    tag_499:\n      mload(0x40)\n      dup1\n      swap2\n      sub\n      swap1\n      revert\n    tag_498:\n      pop\n        /* \"contracts/CrowdFund.sol\":4537:4551  charityAddress */\n      dup3\n        /* \"contracts/CrowdFund.sol\":4502:4551  charities[charityAddress].owner == charityAddress */\n      0xffffffffffffffffffffffffffffffffffffffff\n      and\n        /* \"contracts/CrowdFund.sol\":4502:4511  charities */\n      0x01\n        /* \"contracts/CrowdFund.sol\":4502:4527  charities[charityAddress] */\n      0x00\n        /* \"contracts/CrowdFund.sol\":4512:4526  charityAddress */\n      dup6\n        /* \"contracts/CrowdFund.sol\":4502:4527  charities[charityAddress] */\n      0xffffffffffffffffffffffffffffffffffffffff\n      and\n      0xffffffffffffffffffffffffffffffffffffffff\n      and\n      dup2\n      mstore\n      0x20\n      add\n      swap1\n      dup2\n      mstore\n      0x20\n      add\n      0x00\n      keccak256\n        /* \"contracts/CrowdFund.sol\":4502:4533  charities[charityAddress].owner */\n      0x03\n      add\n      0x00\n      swap1\n      sload\n      swap1\n      0x0100\n      exp\n      swap1\n      div\n      0xffffffffffffffffffffffffffffffffffffffff\n      and\n        /* \"contracts/CrowdFund.sol\":4502:4551  charities[charityAddress].owner == charityAddress */\n      0xffffffffffffffffffffffffffffffffffffffff\n      and\n      eq\n        /* \"contracts/CrowdFund.sol\":4494:4576  require(charities[charityAddress].owner == charityAddress,\"Charity doesn't exist\") */\n      tag_501\n      jumpi\n      mload(0x40)\n      0x08c379a000000000000000000000000000000000000000000000000000000000\n      dup2\n      mstore\n      0x04\n      add\n      tag_502\n      swap1\n      tag_389\n      jump\t// in\n    tag_502:\n      mload(0x40)\n      dup1\n      swap2\n      sub\n      swap1\n      revert\n    tag_501:\n        /* \"contracts/CrowdFund.sol\":4623:4629  status */\n      dup2\n        /* \"contracts/CrowdFund.sol\":4586:4595  charities */\n      0x01\n        /* \"contracts/CrowdFund.sol\":4586:4611  charities[charityAddress] */\n      0x00\n        /* \"contracts/CrowdFund.sol\":4596:4610  charityAddress */\n      dup6\n        /* \"contracts/CrowdFund.sol\":4586:4611  charities[charityAddress] */\n      0xffffffffffffffffffffffffffffffffffffffff\n      and\n      0xffffffffffffffffffffffffffffffffffffffff\n      and\n      dup2\n      mstore\n      0x20\n      add\n      swap1\n      dup2\n      mstore\n      0x20\n      add\n      0x00\n      keccak256\n        /* \"contracts/CrowdFund.sol\":4586:4620  charities[charityAddress].approved */\n      0x00\n      add\n      0x00\n        /* \"contracts/CrowdFund.sol\":4586:4629  charities[charityAddress].approved = status */\n      0x0100\n      exp\n      dup2\n      sload\n      dup2\n      0xff\n      mul\n      not\n      and\n      swap1\n      dup4\n      iszero\n      iszero\n      mul\n      or\n      swap1\n      sstore\n      pop\n        /* \"contracts/CrowdFund.sol\":4674:4680  reason */\n      dup1\n        /* \"contracts/CrowdFund.sol\":4639:4648  charities */\n      0x01\n        /* \"contracts/CrowdFund.sol\":4639:4664  charities[charityAddress] */\n      0x00\n        /* \"contracts/CrowdFund.sol\":4649:4663  charityAddress */\n      dup6\n        /* \"contracts/CrowdFund.sol\":4639:4664  charities[charityAddress] */\n      0xffffffffffffffffffffffffffffffffffffffff\n      and\n      0xffffffffffffffffffffffffffffffffffffffff\n      and\n      dup2\n      mstore\n      0x20\n      add\n      swap1\n      dup2\n      mstore\n      0x20\n      add\n      0x00\n      keccak256\n        /* \"contracts/CrowdFund.sol\":4639:4671  charities[charityAddress].reason */\n      0x01\n      add\n        /* \"contracts/CrowdFund.sol\":4639:4680  charities[charityAddress].reason = reason */\n      swap1\n      dup1\n      mload\n      swap1\n      0x20\n      add\n      swap1\n      tag_503\n      swap3\n      swap2\n      swap1\n      tag_396\n      jump\t// in\n    tag_503:\n      pop\n        /* \"contracts/CrowdFund.sol\":4374:4687  function updateCharityStatus(address charityAddress, bool status, string memory reason) public onlyBoardAdmin {... */\n      pop\n      pop\n      pop\n      jump\t// out\n        /* \"contracts/CrowdFund.sol\":1074:1099  address public boardAdmin */\n    tag_78:\n      0x02\n      0x00\n      swap1\n      sload\n      swap1\n      0x0100\n      exp\n      swap1\n      div\n      0xffffffffffffffffffffffffffffffffffffffff\n      and\n      dup2\n      jump\t// out\n        /* \"contracts/CrowdFund.sol\":9438:10244  function getProjectFundDetails(address charityAddress, address projectAddress) public view returns (... */\n    tag_84:\n        /* \"contracts/CrowdFund.sol\":9547:9551  uint */\n      0x00\n        /* \"contracts/CrowdFund.sol\":9553:9557  uint */\n      dup1\n        /* \"contracts/CrowdFund.sol\":9559:9563  uint */\n      0x00\n        /* \"contracts/CrowdFund.sol\":9652:9681  Project[] storage projectList */\n      dup1\n        /* \"contracts/CrowdFund.sol\":9684:9699  charityProjects */\n      0x03\n        /* \"contracts/CrowdFund.sol\":9684:9715  charityProjects[charityAddress] */\n      0x00\n        /* \"contracts/CrowdFund.sol\":9700:9714  charityAddress */\n      dup8\n        /* \"contracts/CrowdFund.sol\":9684:9715  charityProjects[charityAddress] */\n      0xffffffffffffffffffffffffffffffffffffffff\n      and\n      0xffffffffffffffffffffffffffffffffffffffff\n      and\n      dup2\n      mstore\n      0x20\n      add\n      swap1\n      dup2\n      mstore\n      0x20\n      add\n      0x00\n      keccak256\n        /* \"contracts/CrowdFund.sol\":9652:9715  Project[] storage projectList = charityProjects[charityAddress] */\n      swap1\n      pop\n        /* \"contracts/CrowdFund.sol\":9758:9759  0 */\n      0x00\n        /* \"contracts/CrowdFund.sol\":9737:9748  projectList */\n      dup2\n        /* \"contracts/CrowdFund.sol\":9737:9755  projectList.length */\n      dup1\n      sload\n      swap1\n      pop\n        /* \"contracts/CrowdFund.sol\":9737:9759  projectList.length > 0 */\n      gt\n        /* \"contracts/CrowdFund.sol\":9729:9798  require(projectList.length > 0,\"No project exist under this charity\") */\n      tag_505\n      jumpi\n      mload(0x40)\n      0x08c379a000000000000000000000000000000000000000000000000000000000\n      dup2\n      mstore\n      0x04\n      add\n      tag_506\n      swap1\n      tag_130\n      jump\t// in\n    tag_506:\n      mload(0x40)\n      dup1\n      swap2\n      sub\n      swap1\n      revert\n    tag_505:\n        /* \"contracts/CrowdFund.sol\":9818:9824  uint i */\n      0x00\n        /* \"contracts/CrowdFund.sol\":9813:10172  for (uint i=0;i<projectList.length;i++) {... */\n    tag_507:\n        /* \"contracts/CrowdFund.sol\":9829:9840  projectList */\n      dup2\n        /* \"contracts/CrowdFund.sol\":9829:9847  projectList.length */\n      dup1\n      sload\n      swap1\n      pop\n        /* \"contracts/CrowdFund.sol\":9827:9828  i */\n      dup2\n        /* \"contracts/CrowdFund.sol\":9827:9847  i<projectList.length */\n      lt\n        /* \"contracts/CrowdFund.sol\":9813:10172  for (uint i=0;i<projectList.length;i++) {... */\n      iszero\n      tag_508\n      jumpi\n        /* \"contracts/CrowdFund.sol\":9899:9913  projectAddress */\n      dup6\n        /* \"contracts/CrowdFund.sol\":9875:9913  projectList[i].owner == projectAddress */\n      0xffffffffffffffffffffffffffffffffffffffff\n      and\n        /* \"contracts/CrowdFund.sol\":9875:9886  projectList */\n      dup3\n        /* \"contracts/CrowdFund.sol\":9887:9888  i */\n      dup3\n        /* \"contracts/CrowdFund.sol\":9875:9889  projectList[i] */\n      dup2\n      sload\n      dup2\n      lt\n      tag_510\n      jumpi\n      tag_511\n      tag_136\n      jump\t// in\n    tag_511:\n    tag_510:\n      swap1\n      0x00\n      mstore\n      keccak256(0x00, 0x20)\n      swap1\n      0x07\n      mul\n      add\n        /* \"contracts/CrowdFund.sol\":9875:9895  projectList[i].owner */\n      0x03\n      add\n      0x00\n      swap1\n      sload\n      swap1\n      0x0100\n      exp\n      swap1\n      div\n      0xffffffffffffffffffffffffffffffffffffffff\n      and\n        /* \"contracts/CrowdFund.sol\":9875:9913  projectList[i].owner == projectAddress */\n      0xffffffffffffffffffffffffffffffffffffffff\n      and\n      eq\n        /* \"contracts/CrowdFund.sol\":9871:10158  if (projectList[i].owner == projectAddress) {... */\n      iszero\n      tag_513\n      jumpi\n        /* \"contracts/CrowdFund.sol\":9970:9981  projectList */\n      dup2\n        /* \"contracts/CrowdFund.sol\":9982:9983  i */\n      dup2\n        /* \"contracts/CrowdFund.sol\":9970:9984  projectList[i] */\n      dup2\n      sload\n      dup2\n      lt\n      tag_514\n      jumpi\n      tag_515\n      tag_136\n      jump\t// in\n    tag_515:\n    tag_514:\n      swap1\n      0x00\n      mstore\n      keccak256(0x00, 0x20)\n      swap1\n      0x07\n      mul\n      add\n        /* \"contracts/CrowdFund.sol\":9970:9989  projectList[i].goal */\n      0x01\n      add\n      sload\n        /* \"contracts/CrowdFund.sol\":10015:10026  projectList */\n      dup3\n        /* \"contracts/CrowdFund.sol\":10027:10028  i */\n      dup3\n        /* \"contracts/CrowdFund.sol\":10015:10029  projectList[i] */\n      dup2\n      sload\n      dup2\n      lt\n      tag_517\n      jumpi\n      tag_518\n      tag_136\n      jump\t// in\n    tag_518:\n    tag_517:\n      swap1\n      0x00\n      mstore\n      keccak256(0x00, 0x20)\n      swap1\n      0x07\n      mul\n      add\n        /* \"contracts/CrowdFund.sol\":10015:10042  projectList[i].raisedAmount */\n      0x02\n      add\n      sload\n        /* \"contracts/CrowdFund.sol\":10090:10101  projectList */\n      dup4\n        /* \"contracts/CrowdFund.sol\":10102:10103  i */\n      dup4\n        /* \"contracts/CrowdFund.sol\":10090:10104  projectList[i] */\n      dup2\n      sload\n      dup2\n      lt\n      tag_520\n      jumpi\n      tag_521\n      tag_136\n      jump\t// in\n    tag_521:\n    tag_520:\n      swap1\n      0x00\n      mstore\n      keccak256(0x00, 0x20)\n      swap1\n      0x07\n      mul\n      add\n        /* \"contracts/CrowdFund.sol\":10090:10117  projectList[i].raisedAmount */\n      0x02\n      add\n      sload\n        /* \"contracts/CrowdFund.sol\":10068:10079  projectList */\n      dup5\n        /* \"contracts/CrowdFund.sol\":10080:10081  i */\n      dup5\n        /* \"contracts/CrowdFund.sol\":10068:10082  projectList[i] */\n      dup2\n      sload\n      dup2\n      lt\n      tag_523\n      jumpi\n      tag_524\n      tag_136\n      jump\t// in\n    tag_524:\n    tag_523:\n      swap1\n      0x00\n      mstore\n      keccak256(0x00, 0x20)\n      swap1\n      0x07\n      mul\n      add\n        /* \"contracts/CrowdFund.sol\":10068:10087  projectList[i].goal */\n      0x01\n      add\n      sload\n        /* \"contracts/CrowdFund.sol\":10068:10117  projectList[i].goal - projectList[i].raisedAmount */\n      tag_526\n      swap2\n      swap1\n      tag_462\n      jump\t// in\n    tag_526:\n        /* \"contracts/CrowdFund.sol\":9937:10139  return (... */\n      swap5\n      pop\n      swap5\n      pop\n      swap5\n      pop\n      pop\n      pop\n      jump(tag_504)\n        /* \"contracts/CrowdFund.sol\":9871:10158  if (projectList[i].owner == projectAddress) {... */\n    tag_513:\n        /* \"contracts/CrowdFund.sol\":9848:9851  i++ */\n      dup1\n      dup1\n      tag_527\n      swap1\n      tag_213\n      jump\t// in\n    tag_527:\n      swap2\n      pop\n      pop\n        /* \"contracts/CrowdFund.sol\":9813:10172  for (uint i=0;i<projectList.length;i++) {... */\n      jump(tag_507)\n    tag_508:\n      pop\n        /* \"contracts/CrowdFund.sol\":10187:10237  revert(\"No such project exist under this charity\") */\n      mload(0x40)\n      0x08c379a000000000000000000000000000000000000000000000000000000000\n      dup2\n      mstore\n      0x04\n      add\n      tag_528\n      swap1\n      tag_294\n      jump\t// in\n    tag_528:\n      mload(0x40)\n      dup1\n      swap2\n      sub\n      swap1\n      revert\n        /* \"contracts/CrowdFund.sol\":9438:10244  function getProjectFundDetails(address charityAddress, address projectAddress) public view returns (... */\n    tag_504:\n      swap3\n      pop\n      swap3\n      pop\n      swap3\n      jump\t// out\n        /* \"contracts/CrowdFund.sol\":11828:13136  function getProjectListByCharity(address charityAddress) public view returns (... */\n    tag_90:\n        /* \"contracts/CrowdFund.sol\":11914:11948  address[] memory _projectAddresses */\n      0x60\n        /* \"contracts/CrowdFund.sol\":11950:11979  uint[] memory _minimumAmounts */\n      dup1\n        /* \"contracts/CrowdFund.sol\":11981:12001  uint[] memory _goals */\n      0x60\n        /* \"contracts/CrowdFund.sol\":12003:12031  uint[] memory _raisedAmounts */\n      dup1\n        /* \"contracts/CrowdFund.sol\":12047:12076  Project[] storage projectList */\n      0x00\n        /* \"contracts/CrowdFund.sol\":12079:12094  charityProjects */\n      0x03\n        /* \"contracts/CrowdFund.sol\":12079:12110  charityProjects[charityAddress] */\n      0x00\n        /* \"contracts/CrowdFund.sol\":12095:12109  charityAddress */\n      dup8\n        /* \"contracts/CrowdFund.sol\":12079:12110  charityProjects[charityAddress] */\n      0xffffffffffffffffffffffffffffffffffffffff\n      and\n      0xffffffffffffffffffffffffffffffffffffffff\n      and\n      dup2\n      mstore\n      0x20\n      add\n      swap1\n      dup2\n      mstore\n      0x20\n      add\n      0x00\n      keccak256\n        /* \"contracts/CrowdFund.sol\":12047:12110  Project[] storage projectList = charityProjects[charityAddress] */\n      swap1\n      pop\n        /* \"contracts/CrowdFund.sol\":12153:12154  0 */\n      0x00\n        /* \"contracts/CrowdFund.sol\":12132:12143  projectList */\n      dup2\n        /* \"contracts/CrowdFund.sol\":12132:12150  projectList.length */\n      dup1\n      sload\n      swap1\n      pop\n        /* \"contracts/CrowdFund.sol\":12132:12154  projectList.length > 0 */\n      gt\n        /* \"contracts/CrowdFund.sol\":12124:12193  require(projectList.length > 0,\"No project exist under this charity\") */\n      tag_530\n      jumpi\n      mload(0x40)\n      0x08c379a000000000000000000000000000000000000000000000000000000000\n      dup2\n      mstore\n      0x04\n      add\n      tag_531\n      swap1\n      tag_130\n      jump\t// in\n    tag_531:\n      mload(0x40)\n      dup1\n      swap2\n      sub\n      swap1\n      revert\n    tag_530:\n        /* \"contracts/CrowdFund.sol\":12208:12241  address[] memory projectAddresses */\n      0x00\n        /* \"contracts/CrowdFund.sol\":12259:12270  projectList */\n      dup2\n        /* \"contracts/CrowdFund.sol\":12259:12277  projectList.length */\n      dup1\n      sload\n      swap1\n      pop\n        /* \"contracts/CrowdFund.sol\":12244:12278  new address[] (projectList.length) */\n      0xffffffffffffffff\n      dup2\n      gt\n      iszero\n      tag_532\n      jumpi\n      tag_533\n      tag_534\n      jump\t// in\n    tag_533:\n    tag_532:\n      mload(0x40)\n      swap1\n      dup1\n      dup3\n      mstore\n      dup1\n      0x20\n      mul\n      0x20\n      add\n      dup3\n      add\n      0x40\n      mstore\n      dup1\n      iszero\n      tag_535\n      jumpi\n      dup2\n      0x20\n      add\n      0x20\n      dup3\n      mul\n      dup1\n      calldatasize\n      dup4\n      calldatacopy\n      dup1\n      dup3\n      add\n      swap2\n      pop\n      pop\n      swap1\n      pop\n    tag_535:\n      pop\n        /* \"contracts/CrowdFund.sol\":12208:12278  address[] memory projectAddresses = new address[] (projectList.length) */\n      swap1\n      pop\n        /* \"contracts/CrowdFund.sol\":12292:12320  uint[] memory minimumAmounts */\n      0x00\n        /* \"contracts/CrowdFund.sol\":12335:12346  projectList */\n      dup3\n        /* \"contracts/CrowdFund.sol\":12335:12353  projectList.length */\n      dup1\n      sload\n      swap1\n      pop\n        /* \"contracts/CrowdFund.sol\":12323:12354  new uint[] (projectList.length) */\n      0xffffffffffffffff\n      dup2\n      gt\n      iszero\n      tag_536\n      jumpi\n      tag_537\n      tag_534\n      jump\t// in\n    tag_537:\n    tag_536:\n      mload(0x40)\n      swap1\n      dup1\n      dup3\n      mstore\n      dup1\n      0x20\n      mul\n      0x20\n      add\n      dup3\n      add\n      0x40\n      mstore\n      dup1\n      iszero\n      tag_538\n      jumpi\n      dup2\n      0x20\n      add\n      0x20\n      dup3\n      mul\n      dup1\n      calldatasize\n      dup4\n      calldatacopy\n      dup1\n      dup3\n      add\n      swap2\n      pop\n      pop\n      swap1\n      pop\n    tag_538:\n      pop\n        /* \"contracts/CrowdFund.sol\":12292:12354  uint[] memory minimumAmounts = new uint[] (projectList.length) */\n      swap1\n      pop\n        /* \"contracts/CrowdFund.sol\":12368:12387  uint[] memory goals */\n      0x00\n        /* \"contracts/CrowdFund.sol\":12402:12413  projectList */\n      dup4\n        /* \"contracts/CrowdFund.sol\":12402:12420  projectList.length */\n      dup1\n      sload\n      swap1\n      pop\n        /* \"contracts/CrowdFund.sol\":12390:12421  new uint[] (projectList.length) */\n      0xffffffffffffffff\n      dup2\n      gt\n      iszero\n      tag_539\n      jumpi\n      tag_540\n      tag_534\n      jump\t// in\n    tag_540:\n    tag_539:\n      mload(0x40)\n      swap1\n      dup1\n      dup3\n      mstore\n      dup1\n      0x20\n      mul\n      0x20\n      add\n      dup3\n      add\n      0x40\n      mstore\n      dup1\n      iszero\n      tag_541\n      jumpi\n      dup2\n      0x20\n      add\n      0x20\n      dup3\n      mul\n      dup1\n      calldatasize\n      dup4\n      calldatacopy\n      dup1\n      dup3\n      add\n      swap2\n      pop\n      pop\n      swap1\n      pop\n    tag_541:\n      pop\n        /* \"contracts/CrowdFund.sol\":12368:12421  uint[] memory goals = new uint[] (projectList.length) */\n      swap1\n      pop\n        /* \"contracts/CrowdFund.sol\":12435:12462  uint[] memory raisedAmounts */\n      0x00\n        /* \"contracts/CrowdFund.sol\":12477:12488  projectList */\n      dup5\n        /* \"contracts/CrowdFund.sol\":12477:12495  projectList.length */\n      dup1\n      sload\n      swap1\n      pop\n        /* \"contracts/CrowdFund.sol\":12465:12496  new uint[] (projectList.length) */\n      0xffffffffffffffff\n      dup2\n      gt\n      iszero\n      tag_542\n      jumpi\n      tag_543\n      tag_534\n      jump\t// in\n    tag_543:\n    tag_542:\n      mload(0x40)\n      swap1\n      dup1\n      dup3\n      mstore\n      dup1\n      0x20\n      mul\n      0x20\n      add\n      dup3\n      add\n      0x40\n      mstore\n      dup1\n      iszero\n      tag_544\n      jumpi\n      dup2\n      0x20\n      add\n      0x20\n      dup3\n      mul\n      dup1\n      calldatasize\n      dup4\n      calldatacopy\n      dup1\n      dup3\n      add\n      swap2\n      pop\n      pop\n      swap1\n      pop\n    tag_544:\n      pop\n        /* \"contracts/CrowdFund.sol\":12435:12496  uint[] memory raisedAmounts = new uint[] (projectList.length) */\n      swap1\n      pop\n        /* \"contracts/CrowdFund.sol\":12511:12517  uint j */\n      0x00\n        /* \"contracts/CrowdFund.sol\":12540:12546  uint i */\n      dup1\n        /* \"contracts/CrowdFund.sol\":12535:12940  for (uint i=0;i<projectList.length;i++) {... */\n    tag_545:\n        /* \"contracts/CrowdFund.sol\":12551:12562  projectList */\n      dup7\n        /* \"contracts/CrowdFund.sol\":12551:12569  projectList.length */\n      dup1\n      sload\n      swap1\n      pop\n        /* \"contracts/CrowdFund.sol\":12549:12550  i */\n      dup2\n        /* \"contracts/CrowdFund.sol\":12549:12569  i<projectList.length */\n      lt\n        /* \"contracts/CrowdFund.sol\":12535:12940  for (uint i=0;i<projectList.length;i++) {... */\n      iszero\n      tag_546\n      jumpi\n        /* \"contracts/CrowdFund.sol\":12597:12608  projectList */\n      dup7\n        /* \"contracts/CrowdFund.sol\":12609:12610  i */\n      dup2\n        /* \"contracts/CrowdFund.sol\":12597:12611  projectList[i] */\n      dup2\n      sload\n      dup2\n      lt\n      tag_548\n      jumpi\n      tag_549\n      tag_136\n      jump\t// in\n    tag_549:\n    tag_548:\n      swap1\n      0x00\n      mstore\n      keccak256(0x00, 0x20)\n      swap1\n      0x07\n      mul\n      add\n        /* \"contracts/CrowdFund.sol\":12597:12626  projectList[i].acceptDonation */\n      0x04\n      add\n      0x14\n      swap1\n      sload\n      swap1\n      0x0100\n      exp\n      swap1\n      div\n      0xff\n      and\n        /* \"contracts/CrowdFund.sol\":12593:12926  if (projectList[i].acceptDonation) {... */\n      iszero\n      tag_551\n      jumpi\n        /* \"contracts/CrowdFund.sol\":12672:12683  projectList */\n      dup7\n        /* \"contracts/CrowdFund.sol\":12684:12685  i */\n      dup2\n        /* \"contracts/CrowdFund.sol\":12672:12686  projectList[i] */\n      dup2\n      sload\n      dup2\n      lt\n      tag_552\n      jumpi\n      tag_553\n      tag_136\n      jump\t// in\n    tag_553:\n    tag_552:\n      swap1\n      0x00\n      mstore\n      keccak256(0x00, 0x20)\n      swap1\n      0x07\n      mul\n      add\n        /* \"contracts/CrowdFund.sol\":12672:12692  projectList[i].owner */\n      0x03\n      add\n      0x00\n      swap1\n      sload\n      swap1\n      0x0100\n      exp\n      swap1\n      div\n      0xffffffffffffffffffffffffffffffffffffffff\n      and\n        /* \"contracts/CrowdFund.sol\":12650:12666  projectAddresses */\n      dup7\n        /* \"contracts/CrowdFund.sol\":12667:12668  j */\n      dup4\n        /* \"contracts/CrowdFund.sol\":12650:12669  projectAddresses[j] */\n      dup2\n      mload\n      dup2\n      lt\n      tag_555\n      jumpi\n      tag_556\n      tag_136\n      jump\t// in\n    tag_556:\n    tag_555:\n      0x20\n      mul\n      0x20\n      add\n      add\n        /* \"contracts/CrowdFund.sol\":12650:12692  projectAddresses[j] = projectList[i].owner */\n      swap1\n      0xffffffffffffffffffffffffffffffffffffffff\n      and\n      swap1\n      dup2\n      0xffffffffffffffffffffffffffffffffffffffff\n      and\n      dup2\n      mstore\n      pop\n      pop\n        /* \"contracts/CrowdFund.sol\":12734:12745  projectList */\n      dup7\n        /* \"contracts/CrowdFund.sol\":12746:12747  i */\n      dup2\n        /* \"contracts/CrowdFund.sol\":12734:12748  projectList[i] */\n      dup2\n      sload\n      dup2\n      lt\n      tag_557\n      jumpi\n      tag_558\n      tag_136\n      jump\t// in\n    tag_558:\n    tag_557:\n      swap1\n      0x00\n      mstore\n      keccak256(0x00, 0x20)\n      swap1\n      0x07\n      mul\n      add\n        /* \"contracts/CrowdFund.sol\":12734:12762  projectList[i].minimumAmount */\n      0x00\n      add\n      sload\n        /* \"contracts/CrowdFund.sol\":12714:12728  minimumAmounts */\n      dup6\n        /* \"contracts/CrowdFund.sol\":12729:12730  j */\n      dup4\n        /* \"contracts/CrowdFund.sol\":12714:12731  minimumAmounts[j] */\n      dup2\n      mload\n      dup2\n      lt\n      tag_560\n      jumpi\n      tag_561\n      tag_136\n      jump\t// in\n    tag_561:\n    tag_560:\n      0x20\n      mul\n      0x20\n      add\n      add\n        /* \"contracts/CrowdFund.sol\":12714:12762  minimumAmounts[j] = projectList[i].minimumAmount */\n      dup2\n      dup2\n      mstore\n      pop\n      pop\n        /* \"contracts/CrowdFund.sol\":12795:12806  projectList */\n      dup7\n        /* \"contracts/CrowdFund.sol\":12807:12808  i */\n      dup2\n        /* \"contracts/CrowdFund.sol\":12795:12809  projectList[i] */\n      dup2\n      sload\n      dup2\n      lt\n      tag_562\n      jumpi\n      tag_563\n      tag_136\n      jump\t// in\n    tag_563:\n    tag_562:\n      swap1\n      0x00\n      mstore\n      keccak256(0x00, 0x20)\n      swap1\n      0x07\n      mul\n      add\n        /* \"contracts/CrowdFund.sol\":12795:12814  projectList[i].goal */\n      0x01\n      add\n      sload\n        /* \"contracts/CrowdFund.sol\":12784:12789  goals */\n      dup5\n        /* \"contracts/CrowdFund.sol\":12790:12791  j */\n      dup4\n        /* \"contracts/CrowdFund.sol\":12784:12792  goals[j] */\n      dup2\n      mload\n      dup2\n      lt\n      tag_565\n      jumpi\n      tag_566\n      tag_136\n      jump\t// in\n    tag_566:\n    tag_565:\n      0x20\n      mul\n      0x20\n      add\n      add\n        /* \"contracts/CrowdFund.sol\":12784:12814  goals[j] = projectList[i].goal */\n      dup2\n      dup2\n      mstore\n      pop\n      pop\n        /* \"contracts/CrowdFund.sol\":12855:12866  projectList */\n      dup7\n        /* \"contracts/CrowdFund.sol\":12867:12868  i */\n      dup2\n        /* \"contracts/CrowdFund.sol\":12855:12869  projectList[i] */\n      dup2\n      sload\n      dup2\n      lt\n      tag_567\n      jumpi\n      tag_568\n      tag_136\n      jump\t// in\n    tag_568:\n    tag_567:\n      swap1\n      0x00\n      mstore\n      keccak256(0x00, 0x20)\n      swap1\n      0x07\n      mul\n      add\n        /* \"contracts/CrowdFund.sol\":12855:12882  projectList[i].raisedAmount */\n      0x02\n      add\n      sload\n        /* \"contracts/CrowdFund.sol\":12836:12849  raisedAmounts */\n      dup4\n        /* \"contracts/CrowdFund.sol\":12850:12851  j */\n      dup4\n        /* \"contracts/CrowdFund.sol\":12836:12852  raisedAmounts[j] */\n      dup2\n      mload\n      dup2\n      lt\n      tag_570\n      jumpi\n      tag_571\n      tag_136\n      jump\t// in\n    tag_571:\n    tag_570:\n      0x20\n      mul\n      0x20\n      add\n      add\n        /* \"contracts/CrowdFund.sol\":12836:12882  raisedAmounts[j] = projectList[i].raisedAmount */\n      dup2\n      dup2\n      mstore\n      pop\n      pop\n        /* \"contracts/CrowdFund.sol\":12904:12907  j++ */\n      dup2\n      dup1\n      tag_572\n      swap1\n      tag_213\n      jump\t// in\n    tag_572:\n      swap3\n      pop\n      pop\n        /* \"contracts/CrowdFund.sol\":12593:12926  if (projectList[i].acceptDonation) {... */\n    tag_551:\n        /* \"contracts/CrowdFund.sol\":12570:12573  i++ */\n      dup1\n      dup1\n      tag_573\n      swap1\n      tag_213\n      jump\t// in\n    tag_573:\n      swap2\n      pop\n      pop\n        /* \"contracts/CrowdFund.sol\":12535:12940  for (uint i=0;i<projectList.length;i++) {... */\n      jump(tag_545)\n    tag_546:\n      pop\n        /* \"contracts/CrowdFund.sol\":13000:13001  0 */\n      0x00\n        /* \"contracts/CrowdFund.sol\":12974:12990  projectAddresses */\n      dup6\n        /* \"contracts/CrowdFund.sol\":12974:12997  projectAddresses.length */\n      mload\n        /* \"contracts/CrowdFund.sol\":12974:13001  projectAddresses.length > 0 */\n      gt\n        /* \"contracts/CrowdFund.sol\":12966:13050  require(projectAddresses.length > 0,\"No projects available for accepting donations\") */\n      tag_574\n      jumpi\n      mload(0x40)\n      0x08c379a000000000000000000000000000000000000000000000000000000000\n      dup2\n      mstore\n      0x04\n      add\n      tag_575\n      swap1\n      tag_576\n      jump\t// in\n    tag_575:\n      mload(0x40)\n      dup1\n      swap2\n      sub\n      swap1\n      revert\n    tag_574:\n        /* \"contracts/CrowdFund.sol\":13073:13089  projectAddresses */\n      dup5\n        /* \"contracts/CrowdFund.sol\":13091:13105  minimumAmounts */\n      dup5\n        /* \"contracts/CrowdFund.sol\":13107:13112  goals */\n      dup5\n        /* \"contracts/CrowdFund.sol\":13114:13127  raisedAmounts */\n      dup5\n        /* \"contracts/CrowdFund.sol\":13065:13128  return (projectAddresses, minimumAmounts, goals, raisedAmounts) */\n      swap10\n      pop\n      swap10\n      pop\n      swap10\n      pop\n      swap10\n      pop\n      pop\n      pop\n      pop\n      pop\n      pop\n      pop\n        /* \"contracts/CrowdFund.sol\":11828:13136  function getProjectListByCharity(address charityAddress) public view returns (... */\n      swap2\n      swap4\n      pop\n      swap2\n      swap4\n      jump\t// out\n        /* \"contracts/CrowdFund.sol\":10907:11771  function getDonorBalance(address charityAddress, address projectAddress, address donorAddress) public view returns (... */\n    tag_97:\n        /* \"contracts/CrowdFund.sol\":11032:11036  uint */\n      0x00\n        /* \"contracts/CrowdFund.sol\":11052:11081  Project[] storage projectList */\n      dup1\n        /* \"contracts/CrowdFund.sol\":11084:11099  charityProjects */\n      0x03\n        /* \"contracts/CrowdFund.sol\":11084:11115  charityProjects[charityAddress] */\n      0x00\n        /* \"contracts/CrowdFund.sol\":11100:11114  charityAddress */\n      dup7\n        /* \"contracts/CrowdFund.sol\":11084:11115  charityProjects[charityAddress] */\n      0xffffffffffffffffffffffffffffffffffffffff\n      and\n      0xffffffffffffffffffffffffffffffffffffffff\n      and\n      dup2\n      mstore\n      0x20\n      add\n      swap1\n      dup2\n      mstore\n      0x20\n      add\n      0x00\n      keccak256\n        /* \"contracts/CrowdFund.sol\":11052:11115  Project[] storage projectList = charityProjects[charityAddress] */\n      swap1\n      pop\n        /* \"contracts/CrowdFund.sol\":11158:11159  0 */\n      0x00\n        /* \"contracts/CrowdFund.sol\":11137:11148  projectList */\n      dup2\n        /* \"contracts/CrowdFund.sol\":11137:11155  projectList.length */\n      dup1\n      sload\n      swap1\n      pop\n        /* \"contracts/CrowdFund.sol\":11137:11159  projectList.length > 0 */\n      gt\n        /* \"contracts/CrowdFund.sol\":11129:11198  require(projectList.length > 0,\"No project exist under this charity\") */\n      tag_578\n      jumpi\n      mload(0x40)\n      0x08c379a000000000000000000000000000000000000000000000000000000000\n      dup2\n      mstore\n      0x04\n      add\n      tag_579\n      swap1\n      tag_130\n      jump\t// in\n    tag_579:\n      mload(0x40)\n      dup1\n      swap2\n      sub\n      swap1\n      revert\n    tag_578:\n        /* \"contracts/CrowdFund.sol\":11213:11225  uint balance */\n      0x00\n        /* \"contracts/CrowdFund.sol\":11248:11254  uint i */\n      dup1\n        /* \"contracts/CrowdFund.sol\":11243:11736  for (uint i=0;i<projectList.length;i++) {... */\n    tag_580:\n        /* \"contracts/CrowdFund.sol\":11259:11270  projectList */\n      dup3\n        /* \"contracts/CrowdFund.sol\":11259:11277  projectList.length */\n      dup1\n      sload\n      swap1\n      pop\n        /* \"contracts/CrowdFund.sol\":11257:11258  i */\n      dup2\n        /* \"contracts/CrowdFund.sol\":11257:11277  i<projectList.length */\n      lt\n        /* \"contracts/CrowdFund.sol\":11243:11736  for (uint i=0;i<projectList.length;i++) {... */\n      iszero\n      tag_581\n      jumpi\n        /* \"contracts/CrowdFund.sol\":11329:11343  projectAddress */\n      dup6\n        /* \"contracts/CrowdFund.sol\":11305:11343  projectList[i].owner == projectAddress */\n      0xffffffffffffffffffffffffffffffffffffffff\n      and\n        /* \"contracts/CrowdFund.sol\":11305:11316  projectList */\n      dup4\n        /* \"contracts/CrowdFund.sol\":11317:11318  i */\n      dup3\n        /* \"contracts/CrowdFund.sol\":11305:11319  projectList[i] */\n      dup2\n      sload\n      dup2\n      lt\n      tag_583\n      jumpi\n      tag_584\n      tag_136\n      jump\t// in\n    tag_584:\n    tag_583:\n      swap1\n      0x00\n      mstore\n      keccak256(0x00, 0x20)\n      swap1\n      0x07\n      mul\n      add\n        /* \"contracts/CrowdFund.sol\":11305:11325  projectList[i].owner */\n      0x03\n      add\n      0x00\n      swap1\n      sload\n      swap1\n      0x0100\n      exp\n      swap1\n      div\n      0xffffffffffffffffffffffffffffffffffffffff\n      and\n        /* \"contracts/CrowdFund.sol\":11305:11343  projectList[i].owner == projectAddress */\n      0xffffffffffffffffffffffffffffffffffffffff\n      and\n      eq\n        /* \"contracts/CrowdFund.sol\":11301:11722  if (projectList[i].owner == projectAddress) {... */\n      iszero\n      tag_586\n      jumpi\n        /* \"contracts/CrowdFund.sol\":11368:11393  Donor[] storage allDonors */\n      0x00\n        /* \"contracts/CrowdFund.sol\":11396:11409  projectDonors */\n      0x04\n        /* \"contracts/CrowdFund.sol\":11396:11425  projectDonors[projectAddress] */\n      0x00\n        /* \"contracts/CrowdFund.sol\":11410:11424  projectAddress */\n      dup9\n        /* \"contracts/CrowdFund.sol\":11396:11425  projectDonors[projectAddress] */\n      0xffffffffffffffffffffffffffffffffffffffff\n      and\n      0xffffffffffffffffffffffffffffffffffffffff\n      and\n      dup2\n      mstore\n      0x20\n      add\n      swap1\n      dup2\n      mstore\n      0x20\n      add\n      0x00\n      keccak256\n        /* \"contracts/CrowdFund.sol\":11368:11425  Donor[] storage allDonors = projectDonors[projectAddress] */\n      swap1\n      pop\n        /* \"contracts/CrowdFund.sol\":11453:11459  uint j */\n      0x00\n        /* \"contracts/CrowdFund.sol\":11448:11704  for (uint j=0;j<allDonors.length;j++) {... */\n    tag_587:\n        /* \"contracts/CrowdFund.sol\":11464:11473  allDonors */\n      dup2\n        /* \"contracts/CrowdFund.sol\":11464:11480  allDonors.length */\n      dup1\n      sload\n      swap1\n      pop\n        /* \"contracts/CrowdFund.sol\":11462:11463  j */\n      dup2\n        /* \"contracts/CrowdFund.sol\":11462:11480  j<allDonors.length */\n      lt\n        /* \"contracts/CrowdFund.sol\":11448:11704  for (uint j=0;j<allDonors.length;j++) {... */\n      iszero\n      tag_588\n      jumpi\n        /* \"contracts/CrowdFund.sol\":11539:11551  donorAddress */\n      dup7\n        /* \"contracts/CrowdFund.sol\":11517:11551  allDonors[j].owner == donorAddress */\n      0xffffffffffffffffffffffffffffffffffffffff\n      and\n        /* \"contracts/CrowdFund.sol\":11517:11526  allDonors */\n      dup3\n        /* \"contracts/CrowdFund.sol\":11527:11528  j */\n      dup3\n        /* \"contracts/CrowdFund.sol\":11517:11529  allDonors[j] */\n      dup2\n      sload\n      dup2\n      lt\n      tag_590\n      jumpi\n      tag_591\n      tag_136\n      jump\t// in\n    tag_591:\n    tag_590:\n      swap1\n      0x00\n      mstore\n      keccak256(0x00, 0x20)\n      swap1\n      0x03\n      mul\n      add\n        /* \"contracts/CrowdFund.sol\":11517:11535  allDonors[j].owner */\n      0x01\n      add\n      0x00\n      swap1\n      sload\n      swap1\n      0x0100\n      exp\n      swap1\n      div\n      0xffffffffffffffffffffffffffffffffffffffff\n      and\n        /* \"contracts/CrowdFund.sol\":11517:11551  allDonors[j].owner == donorAddress */\n      0xffffffffffffffffffffffffffffffffffffffff\n      and\n      eq\n        /* \"contracts/CrowdFund.sol\":11513:11681  if (allDonors[j].owner == donorAddress) {... */\n      iszero\n      tag_593\n      jumpi\n        /* \"contracts/CrowdFund.sol\":11593:11602  allDonors */\n      dup2\n        /* \"contracts/CrowdFund.sol\":11603:11604  j */\n      dup2\n        /* \"contracts/CrowdFund.sol\":11593:11605  allDonors[j] */\n      dup2\n      sload\n      dup2\n      lt\n      tag_594\n      jumpi\n      tag_595\n      tag_136\n      jump\t// in\n    tag_595:\n    tag_594:\n      swap1\n      0x00\n      mstore\n      keccak256(0x00, 0x20)\n      swap1\n      0x03\n      mul\n      add\n        /* \"contracts/CrowdFund.sol\":11593:11611  allDonors[j].owner */\n      0x01\n      add\n      0x00\n      swap1\n      sload\n      swap1\n      0x0100\n      exp\n      swap1\n      div\n      0xffffffffffffffffffffffffffffffffffffffff\n      and\n        /* \"contracts/CrowdFund.sol\":11593:11619  allDonors[j].owner.balance */\n      0xffffffffffffffffffffffffffffffffffffffff\n      and\n      balance\n        /* \"contracts/CrowdFund.sol\":11583:11619  balance = allDonors[j].owner.balance */\n      swap4\n      pop\n        /* \"contracts/CrowdFund.sol\":11649:11654  break */\n      jump(tag_588)\n        /* \"contracts/CrowdFund.sol\":11513:11681  if (allDonors[j].owner == donorAddress) {... */\n    tag_593:\n        /* \"contracts/CrowdFund.sol\":11481:11484  j++ */\n      dup1\n      dup1\n      tag_597\n      swap1\n      tag_213\n      jump\t// in\n    tag_597:\n      swap2\n      pop\n      pop\n        /* \"contracts/CrowdFund.sol\":11448:11704  for (uint j=0;j<allDonors.length;j++) {... */\n      jump(tag_587)\n    tag_588:\n      pop\n        /* \"contracts/CrowdFund.sol\":11345:11722  {... */\n      pop\n        /* \"contracts/CrowdFund.sol\":11301:11722  if (projectList[i].owner == projectAddress) {... */\n    tag_586:\n        /* \"contracts/CrowdFund.sol\":11278:11281  i++ */\n      dup1\n      dup1\n      tag_598\n      swap1\n      tag_213\n      jump\t// in\n    tag_598:\n      swap2\n      pop\n      pop\n        /* \"contracts/CrowdFund.sol\":11243:11736  for (uint i=0;i<projectList.length;i++) {... */\n      jump(tag_580)\n    tag_581:\n      pop\n        /* \"contracts/CrowdFund.sol\":11757:11764  balance */\n      dup1\n        /* \"contracts/CrowdFund.sol\":11750:11764  return balance */\n      swap3\n      pop\n      pop\n      pop\n        /* \"contracts/CrowdFund.sol\":10907:11771  function getDonorBalance(address charityAddress, address projectAddress, address donorAddress) public view returns (... */\n      swap4\n      swap3\n      pop\n      pop\n      pop\n      jump\t// out\n        /* \"contracts/CrowdFund.sol\":20998:21097  function sellEther() public payable{... */\n    tag_100:\n        /* \"contracts/CrowdFund.sol\":21052:21062  boardAdmin */\n      0x02\n      0x00\n      swap1\n      sload\n      swap1\n      0x0100\n      exp\n      swap1\n      div\n      0xffffffffffffffffffffffffffffffffffffffff\n      and\n        /* \"contracts/CrowdFund.sol\":21043:21072  payable (boardAdmin).transfer */\n      0xffffffffffffffffffffffffffffffffffffffff\n      and\n        /* \"contracts/CrowdFund.sol\":21043:21083  payable (boardAdmin).transfer(msg.value) */\n      0x08fc\n        /* \"contracts/CrowdFund.sol\":21073:21082  msg.value */\n      callvalue\n        /* \"contracts/CrowdFund.sol\":21043:21083  payable (boardAdmin).transfer(msg.value) */\n      swap1\n      dup2\n      iszero\n      mul\n      swap1\n      mload(0x40)\n      0x00\n      mload(0x40)\n      dup1\n      dup4\n      sub\n      dup2\n      dup6\n      dup9\n      dup9\n      call\n      swap4\n      pop\n      pop\n      pop\n      pop\n      iszero\n      dup1\n      iszero\n      tag_601\n      jumpi\n      returndatasize\n      0x00\n      dup1\n      returndatacopy\n      revert(0x00, returndatasize)\n    tag_601:\n      pop\n        /* \"contracts/CrowdFund.sol\":20998:21097  function sellEther() public payable{... */\n      jump\t// out\n        /* \"contracts/CrowdFund.sol\":3105:3160  mapping(ProjectStatus => string) public projectStatuses */\n    tag_105:\n      mstore(0x20, 0x06)\n      dup1\n      0x00\n      mstore\n      keccak256(0x00, 0x40)\n      0x00\n      swap2\n      pop\n      swap1\n      pop\n      dup1\n      sload\n      tag_602\n      swap1\n      tag_319\n      jump\t// in\n    tag_602:\n      dup1\n      0x1f\n      add\n      0x20\n      dup1\n      swap2\n      div\n      mul\n      0x20\n      add\n      mload(0x40)\n      swap1\n      dup2\n      add\n      0x40\n      mstore\n      dup1\n      swap3\n      swap2\n      swap1\n      dup2\n      dup2\n      mstore\n      0x20\n      add\n      dup3\n      dup1\n      sload\n      tag_603\n      swap1\n      tag_319\n      jump\t// in\n    tag_603:\n      dup1\n      iszero\n      tag_604\n      jumpi\n      dup1\n      0x1f\n      lt\n      tag_605\n      jumpi\n      0x0100\n      dup1\n      dup4\n      sload\n      div\n      mul\n      dup4\n      mstore\n      swap2\n      0x20\n      add\n      swap2\n      jump(tag_604)\n    tag_605:\n      dup3\n      add\n      swap2\n      swap1\n      0x00\n      mstore\n      keccak256(0x00, 0x20)\n      swap1\n    tag_606:\n      dup2\n      sload\n      dup2\n      mstore\n      swap1\n      0x01\n      add\n      swap1\n      0x20\n      add\n      dup1\n      dup4\n      gt\n      tag_606\n      jumpi\n      dup3\n      swap1\n      sub\n      0x1f\n      and\n      dup3\n      add\n      swap2\n    tag_604:\n      pop\n      pop\n      pop\n      pop\n      pop\n      dup2\n      jump\t// out\n        /* \"contracts/CrowdFund.sol\":18946:19995  function refundToAllDonors(address charityAddress, address projectAddress) private {... */\n    tag_168:\n        /* \"contracts/CrowdFund.sol\":19039:19056  bool projectExist */\n      0x00\n        /* \"contracts/CrowdFund.sol\":19074:19103  Project[] storage projectList */\n      dup1\n        /* \"contracts/CrowdFund.sol\":19106:19121  charityProjects */\n      0x03\n        /* \"contracts/CrowdFund.sol\":19106:19137  charityProjects[charityAddress] */\n      0x00\n        /* \"contracts/CrowdFund.sol\":19122:19136  charityAddress */\n      dup6\n        /* \"contracts/CrowdFund.sol\":19106:19137  charityProjects[charityAddress] */\n      0xffffffffffffffffffffffffffffffffffffffff\n      and\n      0xffffffffffffffffffffffffffffffffffffffff\n      and\n      dup2\n      mstore\n      0x20\n      add\n      swap1\n      dup2\n      mstore\n      0x20\n      add\n      0x00\n      keccak256\n        /* \"contracts/CrowdFund.sol\":19074:19137  Project[] storage projectList = charityProjects[charityAddress] */\n      swap1\n      pop\n        /* \"contracts/CrowdFund.sol\":19176:19177  0 */\n      0x00\n        /* \"contracts/CrowdFund.sol\":19155:19166  projectList */\n      dup2\n        /* \"contracts/CrowdFund.sol\":19155:19173  projectList.length */\n      dup1\n      sload\n      swap1\n      pop\n        /* \"contracts/CrowdFund.sol\":19155:19177  projectList.length > 0 */\n      gt\n        /* \"contracts/CrowdFund.sol\":19147:19216  require(projectList.length > 0,\"No project exist under this charity\") */\n      tag_608\n      jumpi\n      mload(0x40)\n      0x08c379a000000000000000000000000000000000000000000000000000000000\n      dup2\n      mstore\n      0x04\n      add\n      tag_609\n      swap1\n      tag_130\n      jump\t// in\n    tag_609:\n      mload(0x40)\n      dup1\n      swap2\n      sub\n      swap1\n      revert\n    tag_608:\n        /* \"contracts/CrowdFund.sol\":19231:19237  uint i */\n      0x00\n        /* \"contracts/CrowdFund.sol\":19226:19900  for (uint i=0;i<projectList.length;i++) {... */\n    tag_610:\n        /* \"contracts/CrowdFund.sol\":19242:19253  projectList */\n      dup2\n        /* \"contracts/CrowdFund.sol\":19242:19260  projectList.length */\n      dup1\n      sload\n      swap1\n      pop\n        /* \"contracts/CrowdFund.sol\":19240:19241  i */\n      dup2\n        /* \"contracts/CrowdFund.sol\":19240:19260  i<projectList.length */\n      lt\n        /* \"contracts/CrowdFund.sol\":19226:19900  for (uint i=0;i<projectList.length;i++) {... */\n      iszero\n      tag_611\n      jumpi\n        /* \"contracts/CrowdFund.sol\":19308:19322  projectAddress */\n      dup4\n        /* \"contracts/CrowdFund.sol\":19284:19322  projectList[i].owner == projectAddress */\n      0xffffffffffffffffffffffffffffffffffffffff\n      and\n        /* \"contracts/CrowdFund.sol\":19284:19295  projectList */\n      dup3\n        /* \"contracts/CrowdFund.sol\":19296:19297  i */\n      dup3\n        /* \"contracts/CrowdFund.sol\":19284:19298  projectList[i] */\n      dup2\n      sload\n      dup2\n      lt\n      tag_613\n      jumpi\n      tag_614\n      tag_136\n      jump\t// in\n    tag_614:\n    tag_613:\n      swap1\n      0x00\n      mstore\n      keccak256(0x00, 0x20)\n      swap1\n      0x07\n      mul\n      add\n        /* \"contracts/CrowdFund.sol\":19284:19304  projectList[i].owner */\n      0x03\n      add\n      0x00\n      swap1\n      sload\n      swap1\n      0x0100\n      exp\n      swap1\n      div\n      0xffffffffffffffffffffffffffffffffffffffff\n      and\n        /* \"contracts/CrowdFund.sol\":19284:19322  projectList[i].owner == projectAddress */\n      0xffffffffffffffffffffffffffffffffffffffff\n      and\n      eq\n        /* \"contracts/CrowdFund.sol\":19280:19890  if (projectList[i].owner == projectAddress) { ... */\n      iszero\n      tag_616\n      jumpi\n        /* \"contracts/CrowdFund.sol\":19383:19400  ProjectStatus.XRJ */\n      0x07\n        /* \"contracts/CrowdFund.sol\":19351:19400  projectList[i].projectStatus == ProjectStatus.XRJ */\n      0x09\n      dup2\n      gt\n      iszero\n      tag_617\n      jumpi\n      tag_618\n      tag_113\n      jump\t// in\n    tag_618:\n    tag_617:\n        /* \"contracts/CrowdFund.sol\":19351:19362  projectList */\n      dup3\n        /* \"contracts/CrowdFund.sol\":19363:19364  i */\n      dup3\n        /* \"contracts/CrowdFund.sol\":19351:19365  projectList[i] */\n      dup2\n      sload\n      dup2\n      lt\n      tag_619\n      jumpi\n      tag_620\n      tag_136\n      jump\t// in\n    tag_620:\n    tag_619:\n      swap1\n      0x00\n      mstore\n      keccak256(0x00, 0x20)\n      swap1\n      0x07\n      mul\n      add\n        /* \"contracts/CrowdFund.sol\":19351:19379  projectList[i].projectStatus */\n      0x06\n      add\n      0x00\n      swap1\n      sload\n      swap1\n      0x0100\n      exp\n      swap1\n      div\n      0xff\n      and\n        /* \"contracts/CrowdFund.sol\":19351:19400  projectList[i].projectStatus == ProjectStatus.XRJ */\n      0x09\n      dup2\n      gt\n      iszero\n      tag_622\n      jumpi\n      tag_623\n      tag_113\n      jump\t// in\n    tag_623:\n    tag_622:\n      eq\n        /* \"contracts/CrowdFund.sol\":19343:19467  require(projectList[i].projectStatus == ProjectStatus.XRJ, \"Can't refund as exchange request was not rejected by the board\") */\n      tag_624\n      jumpi\n      mload(0x40)\n      0x08c379a000000000000000000000000000000000000000000000000000000000\n      dup2\n      mstore\n      0x04\n      add\n      tag_625\n      swap1\n      tag_626\n      jump\t// in\n    tag_625:\n      mload(0x40)\n      dup1\n      swap2\n      sub\n      swap1\n      revert\n    tag_624:\n        /* \"contracts/CrowdFund.sol\":19498:19523  Donor[] storage allDonors */\n      0x00\n        /* \"contracts/CrowdFund.sol\":19526:19539  projectDonors */\n      0x04\n        /* \"contracts/CrowdFund.sol\":19526:19555  projectDonors[projectAddress] */\n      0x00\n        /* \"contracts/CrowdFund.sol\":19540:19554  projectAddress */\n      dup7\n        /* \"contracts/CrowdFund.sol\":19526:19555  projectDonors[projectAddress] */\n      0xffffffffffffffffffffffffffffffffffffffff\n      and\n      0xffffffffffffffffffffffffffffffffffffffff\n      and\n      dup2\n      mstore\n      0x20\n      add\n      swap1\n      dup2\n      mstore\n      0x20\n      add\n      0x00\n      keccak256\n        /* \"contracts/CrowdFund.sol\":19498:19555  Donor[] storage allDonors = projectDonors[projectAddress] */\n      swap1\n      pop\n        /* \"contracts/CrowdFund.sol\":19579:19585  uint j */\n      0x00\n        /* \"contracts/CrowdFund.sol\":19574:19799  for (uint j=0;j<allDonors.length;j++) {... */\n    tag_627:\n        /* \"contracts/CrowdFund.sol\":19590:19599  allDonors */\n      dup2\n        /* \"contracts/CrowdFund.sol\":19590:19606  allDonors.length */\n      dup1\n      sload\n      swap1\n      pop\n        /* \"contracts/CrowdFund.sol\":19588:19589  j */\n      dup2\n        /* \"contracts/CrowdFund.sol\":19588:19606  j<allDonors.length */\n      lt\n        /* \"contracts/CrowdFund.sol\":19574:19799  for (uint j=0;j<allDonors.length;j++) {... */\n      iszero\n      tag_628\n      jumpi\n        /* \"contracts/CrowdFund.sol\":19634:19651  uint contribution */\n      0x00\n        /* \"contracts/CrowdFund.sol\":19654:19663  allDonors */\n      dup3\n        /* \"contracts/CrowdFund.sol\":19664:19665  j */\n      dup3\n        /* \"contracts/CrowdFund.sol\":19654:19666  allDonors[j] */\n      dup2\n      sload\n      dup2\n      lt\n      tag_630\n      jumpi\n      tag_631\n      tag_136\n      jump\t// in\n    tag_631:\n    tag_630:\n      swap1\n      0x00\n      mstore\n      keccak256(0x00, 0x20)\n      swap1\n      0x03\n      mul\n      add\n        /* \"contracts/CrowdFund.sol\":19654:19691  allDonors[j].projectwiseContributions */\n      0x02\n      add\n        /* \"contracts/CrowdFund.sol\":19654:19707  allDonors[j].projectwiseContributions[projectAddress] */\n      0x00\n        /* \"contracts/CrowdFund.sol\":19692:19706  projectAddress */\n      dup9\n        /* \"contracts/CrowdFund.sol\":19654:19707  allDonors[j].projectwiseContributions[projectAddress] */\n      0xffffffffffffffffffffffffffffffffffffffff\n      and\n      0xffffffffffffffffffffffffffffffffffffffff\n      and\n      dup2\n      mstore\n      0x20\n      add\n      swap1\n      dup2\n      mstore\n      0x20\n      add\n      0x00\n      keccak256\n      sload\n        /* \"contracts/CrowdFund.sol\":19634:19707  uint contribution = allDonors[j].projectwiseContributions[projectAddress] */\n      swap1\n      pop\n        /* \"contracts/CrowdFund.sol\":19738:19747  allDonors */\n      dup3\n        /* \"contracts/CrowdFund.sol\":19748:19749  j */\n      dup3\n        /* \"contracts/CrowdFund.sol\":19738:19750  allDonors[j] */\n      dup2\n      sload\n      dup2\n      lt\n      tag_633\n      jumpi\n      tag_634\n      tag_136\n      jump\t// in\n    tag_634:\n    tag_633:\n      swap1\n      0x00\n      mstore\n      keccak256(0x00, 0x20)\n      swap1\n      0x03\n      mul\n      add\n        /* \"contracts/CrowdFund.sol\":19738:19756  allDonors[j].owner */\n      0x01\n      add\n      0x00\n      swap1\n      sload\n      swap1\n      0x0100\n      exp\n      swap1\n      div\n      0xffffffffffffffffffffffffffffffffffffffff\n      and\n        /* \"contracts/CrowdFund.sol\":19729:19766  payable (allDonors[j].owner).transfer */\n      0xffffffffffffffffffffffffffffffffffffffff\n      and\n        /* \"contracts/CrowdFund.sol\":19729:19780  payable (allDonors[j].owner).transfer(contribution) */\n      0x08fc\n        /* \"contracts/CrowdFund.sol\":19767:19779  contribution */\n      dup3\n        /* \"contracts/CrowdFund.sol\":19729:19780  payable (allDonors[j].owner).transfer(contribution) */\n      swap1\n      dup2\n      iszero\n      mul\n      swap1\n      mload(0x40)\n      0x00\n      mload(0x40)\n      dup1\n      dup4\n      sub\n      dup2\n      dup6\n      dup9\n      dup9\n      call\n      swap4\n      pop\n      pop\n      pop\n      pop\n      iszero\n      dup1\n      iszero\n      tag_637\n      jumpi\n      returndatasize\n      0x00\n      dup1\n      returndatacopy\n      revert(0x00, returndatasize)\n    tag_637:\n      pop\n        /* \"contracts/CrowdFund.sol\":19612:19799  {... */\n      pop\n        /* \"contracts/CrowdFund.sol\":19607:19610  j++ */\n      dup1\n      dup1\n      tag_638\n      swap1\n      tag_213\n      jump\t// in\n    tag_638:\n      swap2\n      pop\n      pop\n        /* \"contracts/CrowdFund.sol\":19574:19799  for (uint j=0;j<allDonors.length;j++) {... */\n      jump(tag_627)\n    tag_628:\n      pop\n        /* \"contracts/CrowdFund.sol\":19848:19852  true */\n      0x01\n        /* \"contracts/CrowdFund.sol\":19833:19852  projectExist = true */\n      swap4\n      pop\n        /* \"contracts/CrowdFund.sol\":19870:19875  break */\n      pop\n      jump(tag_611)\n        /* \"contracts/CrowdFund.sol\":19280:19890  if (projectList[i].owner == projectAddress) { ... */\n    tag_616:\n        /* \"contracts/CrowdFund.sol\":19261:19264  i++ */\n      dup1\n      dup1\n      tag_639\n      swap1\n      tag_213\n      jump\t// in\n    tag_639:\n      swap2\n      pop\n      pop\n        /* \"contracts/CrowdFund.sol\":19226:19900  for (uint i=0;i<projectList.length;i++) {... */\n      jump(tag_610)\n    tag_611:\n      pop\n        /* \"contracts/CrowdFund.sol\":19915:19927  projectExist */\n      dup2\n        /* \"contracts/CrowdFund.sol\":19910:19988  if (!projectExist)... */\n      tag_640\n      jumpi\n        /* \"contracts/CrowdFund.sol\":19941:19988  revert(\"No project exist under this projectId\") */\n      mload(0x40)\n      0x08c379a000000000000000000000000000000000000000000000000000000000\n      dup2\n      mstore\n      0x04\n      add\n      tag_641\n      swap1\n      tag_484\n      jump\t// in\n    tag_641:\n      mload(0x40)\n      dup1\n      swap2\n      sub\n      swap1\n      revert\n        /* \"contracts/CrowdFund.sol\":19910:19988  if (!projectExist)... */\n    tag_640:\n        /* \"contracts/CrowdFund.sol\":19029:19995  {... */\n      pop\n      pop\n        /* \"contracts/CrowdFund.sol\":18946:19995  function refundToAllDonors(address charityAddress, address projectAddress) private {... */\n      pop\n      pop\n      jump\t// out\n        /* \"contracts/CrowdFund.sol\":20155:20801  function transferToReceiver(address charityAddress, address projectAddress) private {... */\n    tag_179:\n        /* \"contracts/CrowdFund.sol\":20249:20266  bool projectExist */\n      0x00\n        /* \"contracts/CrowdFund.sol\":20284:20313  Project[] storage projectList */\n      dup1\n        /* \"contracts/CrowdFund.sol\":20316:20331  charityProjects */\n      0x03\n        /* \"contracts/CrowdFund.sol\":20316:20347  charityProjects[charityAddress] */\n      0x00\n        /* \"contracts/CrowdFund.sol\":20332:20346  charityAddress */\n      dup6\n        /* \"contracts/CrowdFund.sol\":20316:20347  charityProjects[charityAddress] */\n      0xffffffffffffffffffffffffffffffffffffffff\n      and\n      0xffffffffffffffffffffffffffffffffffffffff\n      and\n      dup2\n      mstore\n      0x20\n      add\n      swap1\n      dup2\n      mstore\n      0x20\n      add\n      0x00\n      keccak256\n        /* \"contracts/CrowdFund.sol\":20284:20347  Project[] storage projectList = charityProjects[charityAddress] */\n      swap1\n      pop\n        /* \"contracts/CrowdFund.sol\":20386:20387  0 */\n      0x00\n        /* \"contracts/CrowdFund.sol\":20365:20376  projectList */\n      dup2\n        /* \"contracts/CrowdFund.sol\":20365:20383  projectList.length */\n      dup1\n      sload\n      swap1\n      pop\n        /* \"contracts/CrowdFund.sol\":20365:20387  projectList.length > 0 */\n      gt\n        /* \"contracts/CrowdFund.sol\":20357:20426  require(projectList.length > 0,\"No project exist under this charity\") */\n      tag_643\n      jumpi\n      mload(0x40)\n      0x08c379a000000000000000000000000000000000000000000000000000000000\n      dup2\n      mstore\n      0x04\n      add\n      tag_644\n      swap1\n      tag_130\n      jump\t// in\n    tag_644:\n      mload(0x40)\n      dup1\n      swap2\n      sub\n      swap1\n      revert\n    tag_643:\n        /* \"contracts/CrowdFund.sol\":20441:20447  uint i */\n      0x00\n        /* \"contracts/CrowdFund.sol\":20436:20706  for (uint i=0;i<projectList.length;i++) {... */\n    tag_645:\n        /* \"contracts/CrowdFund.sol\":20452:20463  projectList */\n      dup2\n        /* \"contracts/CrowdFund.sol\":20452:20470  projectList.length */\n      dup1\n      sload\n      swap1\n      pop\n        /* \"contracts/CrowdFund.sol\":20450:20451  i */\n      dup2\n        /* \"contracts/CrowdFund.sol\":20450:20470  i<projectList.length */\n      lt\n        /* \"contracts/CrowdFund.sol\":20436:20706  for (uint i=0;i<projectList.length;i++) {... */\n      iszero\n      tag_646\n      jumpi\n        /* \"contracts/CrowdFund.sol\":20518:20532  projectAddress */\n      dup4\n        /* \"contracts/CrowdFund.sol\":20494:20532  projectList[i].owner == projectAddress */\n      0xffffffffffffffffffffffffffffffffffffffff\n      and\n        /* \"contracts/CrowdFund.sol\":20494:20505  projectList */\n      dup3\n        /* \"contracts/CrowdFund.sol\":20506:20507  i */\n      dup3\n        /* \"contracts/CrowdFund.sol\":20494:20508  projectList[i] */\n      dup2\n      sload\n      dup2\n      lt\n      tag_648\n      jumpi\n      tag_649\n      tag_136\n      jump\t// in\n    tag_649:\n    tag_648:\n      swap1\n      0x00\n      mstore\n      keccak256(0x00, 0x20)\n      swap1\n      0x07\n      mul\n      add\n        /* \"contracts/CrowdFund.sol\":20494:20514  projectList[i].owner */\n      0x03\n      add\n      0x00\n      swap1\n      sload\n      swap1\n      0x0100\n      exp\n      swap1\n      div\n      0xffffffffffffffffffffffffffffffffffffffff\n      and\n        /* \"contracts/CrowdFund.sol\":20494:20532  projectList[i].owner == projectAddress */\n      0xffffffffffffffffffffffffffffffffffffffff\n      and\n      eq\n        /* \"contracts/CrowdFund.sol\":20490:20696  if (projectList[i].owner == projectAddress) { ... */\n      iszero\n      tag_651\n      jumpi\n        /* \"contracts/CrowdFund.sol\":20562:20573  projectList */\n      dup2\n        /* \"contracts/CrowdFund.sol\":20574:20575  i */\n      dup2\n        /* \"contracts/CrowdFund.sol\":20562:20576  projectList[i] */\n      dup2\n      sload\n      dup2\n      lt\n      tag_652\n      jumpi\n      tag_653\n      tag_136\n      jump\t// in\n    tag_653:\n    tag_652:\n      swap1\n      0x00\n      mstore\n      keccak256(0x00, 0x20)\n      swap1\n      0x07\n      mul\n      add\n        /* \"contracts/CrowdFund.sol\":20562:20582  projectList[i].owner */\n      0x03\n      add\n      0x00\n      swap1\n      sload\n      swap1\n      0x0100\n      exp\n      swap1\n      div\n      0xffffffffffffffffffffffffffffffffffffffff\n      and\n        /* \"contracts/CrowdFund.sol\":20553:20592  payable (projectList[i].owner).transfer */\n      0xffffffffffffffffffffffffffffffffffffffff\n      and\n        /* \"contracts/CrowdFund.sol\":20553:20621  payable (projectList[i].owner).transfer(projectList[i].raisedAmount) */\n      0x08fc\n        /* \"contracts/CrowdFund.sol\":20593:20604  projectList */\n      dup4\n        /* \"contracts/CrowdFund.sol\":20605:20606  i */\n      dup4\n        /* \"contracts/CrowdFund.sol\":20593:20607  projectList[i] */\n      dup2\n      sload\n      dup2\n      lt\n      tag_655\n      jumpi\n      tag_656\n      tag_136\n      jump\t// in\n    tag_656:\n    tag_655:\n      swap1\n      0x00\n      mstore\n      keccak256(0x00, 0x20)\n      swap1\n      0x07\n      mul\n      add\n        /* \"contracts/CrowdFund.sol\":20593:20620  projectList[i].raisedAmount */\n      0x02\n      add\n      sload\n        /* \"contracts/CrowdFund.sol\":20553:20621  payable (projectList[i].owner).transfer(projectList[i].raisedAmount) */\n      swap1\n      dup2\n      iszero\n      mul\n      swap1\n      mload(0x40)\n      0x00\n      mload(0x40)\n      dup1\n      dup4\n      sub\n      dup2\n      dup6\n      dup9\n      dup9\n      call\n      swap4\n      pop\n      pop\n      pop\n      pop\n      iszero\n      dup1\n      iszero\n      tag_659\n      jumpi\n      returndatasize\n      0x00\n      dup1\n      returndatacopy\n      revert(0x00, returndatasize)\n    tag_659:\n      pop\n        /* \"contracts/CrowdFund.sol\":20654:20658  true */\n      0x01\n        /* \"contracts/CrowdFund.sol\":20639:20658  projectExist = true */\n      swap3\n      pop\n        /* \"contracts/CrowdFund.sol\":20676:20681  break */\n      jump(tag_646)\n        /* \"contracts/CrowdFund.sol\":20490:20696  if (projectList[i].owner == projectAddress) { ... */\n    tag_651:\n        /* \"contracts/CrowdFund.sol\":20471:20474  i++ */\n      dup1\n      dup1\n      tag_660\n      swap1\n      tag_213\n      jump\t// in\n    tag_660:\n      swap2\n      pop\n      pop\n        /* \"contracts/CrowdFund.sol\":20436:20706  for (uint i=0;i<projectList.length;i++) {... */\n      jump(tag_645)\n    tag_646:\n      pop\n        /* \"contracts/CrowdFund.sol\":20721:20733  projectExist */\n      dup2\n        /* \"contracts/CrowdFund.sol\":20716:20794  if (!projectExist)... */\n      tag_661\n      jumpi\n        /* \"contracts/CrowdFund.sol\":20747:20794  revert(\"No project exist under this projectId\") */\n      mload(0x40)\n      0x08c379a000000000000000000000000000000000000000000000000000000000\n      dup2\n      mstore\n      0x04\n      add\n      tag_662\n      swap1\n      tag_484\n      jump\t// in\n    tag_662:\n      mload(0x40)\n      dup1\n      swap2\n      sub\n      swap1\n      revert\n        /* \"contracts/CrowdFund.sol\":20716:20794  if (!projectExist)... */\n    tag_661:\n        /* \"contracts/CrowdFund.sol\":20239:20801  {... */\n      pop\n      pop\n        /* \"contracts/CrowdFund.sol\":20155:20801  function transferToReceiver(address charityAddress, address projectAddress) private {... */\n      pop\n      pop\n      jump\t// out\n    tag_396:\n      dup3\n      dup1\n      sload\n      tag_663\n      swap1\n      tag_319\n      jump\t// in\n    tag_663:\n      swap1\n      0x00\n      mstore\n      keccak256(0x00, 0x20)\n      swap1\n      0x1f\n      add\n      0x20\n      swap1\n      div\n      dup2\n      add\n      swap3\n      dup3\n      tag_665\n      jumpi\n      0x00\n      dup6\n      sstore\n      jump(tag_664)\n    tag_665:\n      dup3\n      0x1f\n      lt\n      tag_666\n      jumpi\n      dup1\n      mload\n      not(0xff)\n      and\n      dup4\n      dup1\n      add\n      or\n      dup6\n      sstore\n      jump(tag_664)\n    tag_666:\n      dup3\n      dup1\n      add\n      0x01\n      add\n      dup6\n      sstore\n      dup3\n      iszero\n      tag_664\n      jumpi\n      swap2\n      dup3\n      add\n    tag_667:\n      dup3\n      dup2\n      gt\n      iszero\n      tag_668\n      jumpi\n      dup3\n      mload\n      dup3\n      sstore\n      swap2\n      0x20\n      add\n      swap2\n      swap1\n      0x01\n      add\n      swap1\n      jump(tag_667)\n    tag_668:\n    tag_664:\n      pop\n      swap1\n      pop\n      tag_669\n      swap2\n      swap1\n      tag_670\n      jump\t// in\n    tag_669:\n      pop\n      swap1\n      jump\t// out\n    tag_670:\n    tag_671:\n      dup1\n      dup3\n      gt\n      iszero\n      tag_672\n      jumpi\n      0x00\n      dup2\n      0x00\n      swap1\n      sstore\n      pop\n      0x01\n      add\n      jump(tag_671)\n    tag_672:\n      pop\n      swap1\n      jump\t// out\n        /* \"#utility.yul\":7:419   */\n    tag_674:\n        /* \"#utility.yul\":85:90   */\n      0x00\n        /* \"#utility.yul\":110:176   */\n      tag_676\n        /* \"#utility.yul\":126:175   */\n      tag_677\n        /* \"#utility.yul\":168:174   */\n      dup5\n        /* \"#utility.yul\":126:175   */\n      tag_678\n      jump\t// in\n    tag_677:\n        /* \"#utility.yul\":110:176   */\n      tag_679\n      jump\t// in\n    tag_676:\n        /* \"#utility.yul\":101:176   */\n      swap1\n      pop\n        /* \"#utility.yul\":199:205   */\n      dup3\n        /* \"#utility.yul\":192:197   */\n      dup2\n        /* \"#utility.yul\":185:206   */\n      mstore\n        /* \"#utility.yul\":237:241   */\n      0x20\n        /* \"#utility.yul\":230:235   */\n      dup2\n        /* \"#utility.yul\":226:242   */\n      add\n        /* \"#utility.yul\":275:278   */\n      dup5\n        /* \"#utility.yul\":266:272   */\n      dup5\n        /* \"#utility.yul\":261:264   */\n      dup5\n        /* \"#utility.yul\":257:273   */\n      add\n        /* \"#utility.yul\":254:279   */\n      gt\n        /* \"#utility.yul\":251:363   */\n      iszero\n      tag_680\n      jumpi\n        /* \"#utility.yul\":282:361   */\n      tag_681\n      tag_682\n      jump\t// in\n    tag_681:\n        /* \"#utility.yul\":251:363   */\n    tag_680:\n        /* \"#utility.yul\":372:413   */\n      tag_683\n        /* \"#utility.yul\":406:412   */\n      dup5\n        /* \"#utility.yul\":401:404   */\n      dup3\n        /* \"#utility.yul\":396:399   */\n      dup6\n        /* \"#utility.yul\":372:413   */\n      tag_684\n      jump\t// in\n    tag_683:\n        /* \"#utility.yul\":91:419   */\n      pop\n        /* \"#utility.yul\":7:419   */\n      swap4\n      swap3\n      pop\n      pop\n      pop\n      jump\t// out\n        /* \"#utility.yul\":425:564   */\n    tag_685:\n        /* \"#utility.yul\":471:476   */\n      0x00\n        /* \"#utility.yul\":509:515   */\n      dup2\n        /* \"#utility.yul\":496:516   */\n      calldataload\n        /* \"#utility.yul\":487:516   */\n      swap1\n      pop\n        /* \"#utility.yul\":525:558   */\n      tag_687\n        /* \"#utility.yul\":552:557   */\n      dup2\n        /* \"#utility.yul\":525:558   */\n      tag_688\n      jump\t// in\n    tag_687:\n        /* \"#utility.yul\":425:564   */\n      swap3\n      swap2\n      pop\n      pop\n      jump\t// out\n        /* \"#utility.yul\":570:703   */\n    tag_689:\n        /* \"#utility.yul\":613:618   */\n      0x00\n        /* \"#utility.yul\":651:657   */\n      dup2\n        /* \"#utility.yul\":638:658   */\n      calldataload\n        /* \"#utility.yul\":629:658   */\n      swap1\n      pop\n        /* \"#utility.yul\":667:697   */\n      tag_691\n        /* \"#utility.yul\":691:696   */\n      dup2\n        /* \"#utility.yul\":667:697   */\n      tag_692\n      jump\t// in\n    tag_691:\n        /* \"#utility.yul\":570:703   */\n      swap3\n      swap2\n      pop\n      pop\n      jump\t// out\n        /* \"#utility.yul\":709:880   */\n    tag_693:\n        /* \"#utility.yul\":771:776   */\n      0x00\n        /* \"#utility.yul\":809:815   */\n      dup2\n        /* \"#utility.yul\":796:816   */\n      calldataload\n        /* \"#utility.yul\":787:816   */\n      swap1\n      pop\n        /* \"#utility.yul\":825:874   */\n      tag_695\n        /* \"#utility.yul\":868:873   */\n      dup2\n        /* \"#utility.yul\":825:874   */\n      tag_696\n      jump\t// in\n    tag_695:\n        /* \"#utility.yul\":709:880   */\n      swap3\n      swap2\n      pop\n      pop\n      jump\t// out\n        /* \"#utility.yul\":900:1240   */\n    tag_697:\n        /* \"#utility.yul\":956:961   */\n      0x00\n        /* \"#utility.yul\":1005:1008   */\n      dup3\n        /* \"#utility.yul\":998:1002   */\n      0x1f\n        /* \"#utility.yul\":990:996   */\n      dup4\n        /* \"#utility.yul\":986:1003   */\n      add\n        /* \"#utility.yul\":982:1009   */\n      slt\n        /* \"#utility.yul\":972:1094   */\n      tag_699\n      jumpi\n        /* \"#utility.yul\":1013:1092   */\n      tag_700\n      tag_701\n      jump\t// in\n    tag_700:\n        /* \"#utility.yul\":972:1094   */\n    tag_699:\n        /* \"#utility.yul\":1130:1136   */\n      dup2\n        /* \"#utility.yul\":1117:1137   */\n      calldataload\n        /* \"#utility.yul\":1155:1234   */\n      tag_702\n        /* \"#utility.yul\":1230:1233   */\n      dup5\n        /* \"#utility.yul\":1222:1228   */\n      dup3\n        /* \"#utility.yul\":1215:1219   */\n      0x20\n        /* \"#utility.yul\":1207:1213   */\n      dup7\n        /* \"#utility.yul\":1203:1220   */\n      add\n        /* \"#utility.yul\":1155:1234   */\n      tag_674\n      jump\t// in\n    tag_702:\n        /* \"#utility.yul\":1146:1234   */\n      swap2\n      pop\n        /* \"#utility.yul\":962:1240   */\n      pop\n        /* \"#utility.yul\":900:1240   */\n      swap3\n      swap2\n      pop\n      pop\n      jump\t// out\n        /* \"#utility.yul\":1246:1385   */\n    tag_703:\n        /* \"#utility.yul\":1292:1297   */\n      0x00\n        /* \"#utility.yul\":1330:1336   */\n      dup2\n        /* \"#utility.yul\":1317:1337   */\n      calldataload\n        /* \"#utility.yul\":1308:1337   */\n      swap1\n      pop\n        /* \"#utility.yul\":1346:1379   */\n      tag_705\n        /* \"#utility.yul\":1373:1378   */\n      dup2\n        /* \"#utility.yul\":1346:1379   */\n      tag_706\n      jump\t// in\n    tag_705:\n        /* \"#utility.yul\":1246:1385   */\n      swap3\n      swap2\n      pop\n      pop\n      jump\t// out\n        /* \"#utility.yul\":1391:1526   */\n    tag_707:\n        /* \"#utility.yul\":1435:1440   */\n      0x00\n        /* \"#utility.yul\":1473:1479   */\n      dup2\n        /* \"#utility.yul\":1460:1480   */\n      calldataload\n        /* \"#utility.yul\":1451:1480   */\n      swap1\n      pop\n        /* \"#utility.yul\":1489:1520   */\n      tag_709\n        /* \"#utility.yul\":1514:1519   */\n      dup2\n        /* \"#utility.yul\":1489:1520   */\n      tag_710\n      jump\t// in\n    tag_709:\n        /* \"#utility.yul\":1391:1526   */\n      swap3\n      swap2\n      pop\n      pop\n      jump\t// out\n        /* \"#utility.yul\":1532:1861   */\n    tag_38:\n        /* \"#utility.yul\":1591:1597   */\n      0x00\n        /* \"#utility.yul\":1640:1642   */\n      0x20\n        /* \"#utility.yul\":1628:1637   */\n      dup3\n        /* \"#utility.yul\":1619:1626   */\n      dup5\n        /* \"#utility.yul\":1615:1638   */\n      sub\n        /* \"#utility.yul\":1611:1643   */\n      slt\n        /* \"#utility.yul\":1608:1727   */\n      iszero\n      tag_712\n      jumpi\n        /* \"#utility.yul\":1646:1725   */\n      tag_713\n      tag_714\n      jump\t// in\n    tag_713:\n        /* \"#utility.yul\":1608:1727   */\n    tag_712:\n        /* \"#utility.yul\":1766:1767   */\n      0x00\n        /* \"#utility.yul\":1791:1844   */\n      tag_715\n        /* \"#utility.yul\":1836:1843   */\n      dup5\n        /* \"#utility.yul\":1827:1833   */\n      dup3\n        /* \"#utility.yul\":1816:1825   */\n      dup6\n        /* \"#utility.yul\":1812:1834   */\n      add\n        /* \"#utility.yul\":1791:1844   */\n      tag_685\n      jump\t// in\n    tag_715:\n        /* \"#utility.yul\":1781:1844   */\n      swap2\n      pop\n        /* \"#utility.yul\":1737:1854   */\n      pop\n        /* \"#utility.yul\":1532:1861   */\n      swap3\n      swap2\n      pop\n      pop\n      jump\t// out\n        /* \"#utility.yul\":1867:2341   */\n    tag_34:\n        /* \"#utility.yul\":1935:1941   */\n      0x00\n        /* \"#utility.yul\":1943:1949   */\n      dup1\n        /* \"#utility.yul\":1992:1994   */\n      0x40\n        /* \"#utility.yul\":1980:1989   */\n      dup4\n        /* \"#utility.yul\":1971:1978   */\n      dup6\n        /* \"#utility.yul\":1967:1990   */\n      sub\n        /* \"#utility.yul\":1963:1995   */\n      slt\n        /* \"#utility.yul\":1960:2079   */\n      iszero\n      tag_717\n      jumpi\n        /* \"#utility.yul\":1998:2077   */\n      tag_718\n      tag_714\n      jump\t// in\n    tag_718:\n        /* \"#utility.yul\":1960:2079   */\n    tag_717:\n        /* \"#utility.yul\":2118:2119   */\n      0x00\n        /* \"#utility.yul\":2143:2196   */\n      tag_719\n        /* \"#utility.yul\":2188:2195   */\n      dup6\n        /* \"#utility.yul\":2179:2185   */\n      dup3\n        /* \"#utility.yul\":2168:2177   */\n      dup7\n        /* \"#utility.yul\":2164:2186   */\n      add\n        /* \"#utility.yul\":2143:2196   */\n      tag_685\n      jump\t// in\n    tag_719:\n        /* \"#utility.yul\":2133:2196   */\n      swap3\n      pop\n        /* \"#utility.yul\":2089:2206   */\n      pop\n        /* \"#utility.yul\":2245:2247   */\n      0x20\n        /* \"#utility.yul\":2271:2324   */\n      tag_720\n        /* \"#utility.yul\":2316:2323   */\n      dup6\n        /* \"#utility.yul\":2307:2313   */\n      dup3\n        /* \"#utility.yul\":2296:2305   */\n      dup7\n        /* \"#utility.yul\":2292:2314   */\n      add\n        /* \"#utility.yul\":2271:2324   */\n      tag_685\n      jump\t// in\n    tag_720:\n        /* \"#utility.yul\":2261:2324   */\n      swap2\n      pop\n        /* \"#utility.yul\":2216:2334   */\n      pop\n        /* \"#utility.yul\":1867:2341   */\n      swap3\n      pop\n      swap3\n      swap1\n      pop\n      jump\t// out\n        /* \"#utility.yul\":2347:2966   */\n    tag_96:\n        /* \"#utility.yul\":2424:2430   */\n      0x00\n        /* \"#utility.yul\":2432:2438   */\n      dup1\n        /* \"#utility.yul\":2440:2446   */\n      0x00\n        /* \"#utility.yul\":2489:2491   */\n      0x60\n        /* \"#utility.yul\":2477:2486   */\n      dup5\n        /* \"#utility.yul\":2468:2475   */\n      dup7\n        /* \"#utility.yul\":2464:2487   */\n      sub\n        /* \"#utility.yul\":2460:2492   */\n      slt\n        /* \"#utility.yul\":2457:2576   */\n      iszero\n      tag_722\n      jumpi\n        /* \"#utility.yul\":2495:2574   */\n      tag_723\n      tag_714\n      jump\t// in\n    tag_723:\n        /* \"#utility.yul\":2457:2576   */\n    tag_722:\n        /* \"#utility.yul\":2615:2616   */\n      0x00\n        /* \"#utility.yul\":2640:2693   */\n      tag_724\n        /* \"#utility.yul\":2685:2692   */\n      dup7\n        /* \"#utility.yul\":2676:2682   */\n      dup3\n        /* \"#utility.yul\":2665:2674   */\n      dup8\n        /* \"#utility.yul\":2661:2683   */\n      add\n        /* \"#utility.yul\":2640:2693   */\n      tag_685\n      jump\t// in\n    tag_724:\n        /* \"#utility.yul\":2630:2693   */\n      swap4\n      pop\n        /* \"#utility.yul\":2586:2703   */\n      pop\n        /* \"#utility.yul\":2742:2744   */\n      0x20\n        /* \"#utility.yul\":2768:2821   */\n      tag_725\n        /* \"#utility.yul\":2813:2820   */\n      dup7\n        /* \"#utility.yul\":2804:2810   */\n      dup3\n        /* \"#utility.yul\":2793:2802   */\n      dup8\n        /* \"#utility.yul\":2789:2811   */\n      add\n        /* \"#utility.yul\":2768:2821   */\n      tag_685\n      jump\t// in\n    tag_725:\n        /* \"#utility.yul\":2758:2821   */\n      swap3\n      pop\n        /* \"#utility.yul\":2713:2831   */\n      pop\n        /* \"#utility.yul\":2870:2872   */\n      0x40\n        /* \"#utility.yul\":2896:2949   */\n      tag_726\n        /* \"#utility.yul\":2941:2948   */\n      dup7\n        /* \"#utility.yul\":2932:2938   */\n      dup3\n        /* \"#utility.yul\":2921:2930   */\n      dup8\n        /* \"#utility.yul\":2917:2939   */\n      add\n        /* \"#utility.yul\":2896:2949   */\n      tag_685\n      jump\t// in\n    tag_726:\n        /* \"#utility.yul\":2886:2949   */\n      swap2\n      pop\n        /* \"#utility.yul\":2841:2959   */\n      pop\n        /* \"#utility.yul\":2347:2966   */\n      swap3\n      pop\n      swap3\n      pop\n      swap3\n      jump\t// out\n        /* \"#utility.yul\":2972:3587   */\n    tag_49:\n        /* \"#utility.yul\":3047:3053   */\n      0x00\n        /* \"#utility.yul\":3055:3061   */\n      dup1\n        /* \"#utility.yul\":3063:3069   */\n      0x00\n        /* \"#utility.yul\":3112:3114   */\n      0x60\n        /* \"#utility.yul\":3100:3109   */\n      dup5\n        /* \"#utility.yul\":3091:3098   */\n      dup7\n        /* \"#utility.yul\":3087:3110   */\n      sub\n        /* \"#utility.yul\":3083:3115   */\n      slt\n        /* \"#utility.yul\":3080:3199   */\n      iszero\n      tag_728\n      jumpi\n        /* \"#utility.yul\":3118:3197   */\n      tag_729\n      tag_714\n      jump\t// in\n    tag_729:\n        /* \"#utility.yul\":3080:3199   */\n    tag_728:\n        /* \"#utility.yul\":3238:3239   */\n      0x00\n        /* \"#utility.yul\":3263:3316   */\n      tag_730\n        /* \"#utility.yul\":3308:3315   */\n      dup7\n        /* \"#utility.yul\":3299:3305   */\n      dup3\n        /* \"#utility.yul\":3288:3297   */\n      dup8\n        /* \"#utility.yul\":3284:3306   */\n      add\n        /* \"#utility.yul\":3263:3316   */\n      tag_685\n      jump\t// in\n    tag_730:\n        /* \"#utility.yul\":3253:3316   */\n      swap4\n      pop\n        /* \"#utility.yul\":3209:3326   */\n      pop\n        /* \"#utility.yul\":3365:3367   */\n      0x20\n        /* \"#utility.yul\":3391:3444   */\n      tag_731\n        /* \"#utility.yul\":3436:3443   */\n      dup7\n        /* \"#utility.yul\":3427:3433   */\n      dup3\n        /* \"#utility.yul\":3416:3425   */\n      dup8\n        /* \"#utility.yul\":3412:3434   */\n      add\n        /* \"#utility.yul\":3391:3444   */\n      tag_685\n      jump\t// in\n    tag_731:\n        /* \"#utility.yul\":3381:3444   */\n      swap3\n      pop\n        /* \"#utility.yul\":3336:3454   */\n      pop\n        /* \"#utility.yul\":3493:3495   */\n      0x40\n        /* \"#utility.yul\":3519:3570   */\n      tag_732\n        /* \"#utility.yul\":3562:3569   */\n      dup7\n        /* \"#utility.yul\":3553:3559   */\n      dup3\n        /* \"#utility.yul\":3542:3551   */\n      dup8\n        /* \"#utility.yul\":3538:3560   */\n      add\n        /* \"#utility.yul\":3519:3570   */\n      tag_707\n      jump\t// in\n    tag_732:\n        /* \"#utility.yul\":3509:3570   */\n      swap2\n      pop\n        /* \"#utility.yul\":3464:3580   */\n      pop\n        /* \"#utility.yul\":2972:3587   */\n      swap3\n      pop\n      swap3\n      pop\n      swap3\n      jump\t// out\n        /* \"#utility.yul\":3593:4386   */\n    tag_74:\n        /* \"#utility.yul\":3677:3683   */\n      0x00\n        /* \"#utility.yul\":3685:3691   */\n      dup1\n        /* \"#utility.yul\":3693:3699   */\n      0x00\n        /* \"#utility.yul\":3742:3744   */\n      0x60\n        /* \"#utility.yul\":3730:3739   */\n      dup5\n        /* \"#utility.yul\":3721:3728   */\n      dup7\n        /* \"#utility.yul\":3717:3740   */\n      sub\n        /* \"#utility.yul\":3713:3745   */\n      slt\n        /* \"#utility.yul\":3710:3829   */\n      iszero\n      tag_734\n      jumpi\n        /* \"#utility.yul\":3748:3827   */\n      tag_735\n      tag_714\n      jump\t// in\n    tag_735:\n        /* \"#utility.yul\":3710:3829   */\n    tag_734:\n        /* \"#utility.yul\":3868:3869   */\n      0x00\n        /* \"#utility.yul\":3893:3946   */\n      tag_736\n        /* \"#utility.yul\":3938:3945   */\n      dup7\n        /* \"#utility.yul\":3929:3935   */\n      dup3\n        /* \"#utility.yul\":3918:3927   */\n      dup8\n        /* \"#utility.yul\":3914:3936   */\n      add\n        /* \"#utility.yul\":3893:3946   */\n      tag_685\n      jump\t// in\n    tag_736:\n        /* \"#utility.yul\":3883:3946   */\n      swap4\n      pop\n        /* \"#utility.yul\":3839:3956   */\n      pop\n        /* \"#utility.yul\":3995:3997   */\n      0x20\n        /* \"#utility.yul\":4021:4071   */\n      tag_737\n        /* \"#utility.yul\":4063:4070   */\n      dup7\n        /* \"#utility.yul\":4054:4060   */\n      dup3\n        /* \"#utility.yul\":4043:4052   */\n      dup8\n        /* \"#utility.yul\":4039:4061   */\n      add\n        /* \"#utility.yul\":4021:4071   */\n      tag_689\n      jump\t// in\n    tag_737:\n        /* \"#utility.yul\":4011:4071   */\n      swap3\n      pop\n        /* \"#utility.yul\":3966:4081   */\n      pop\n        /* \"#utility.yul\":4148:4150   */\n      0x40\n        /* \"#utility.yul\":4137:4146   */\n      dup5\n        /* \"#utility.yul\":4133:4151   */\n      add\n        /* \"#utility.yul\":4120:4152   */\n      calldataload\n        /* \"#utility.yul\":4179:4197   */\n      0xffffffffffffffff\n        /* \"#utility.yul\":4171:4177   */\n      dup2\n        /* \"#utility.yul\":4168:4198   */\n      gt\n        /* \"#utility.yul\":4165:4282   */\n      iszero\n      tag_738\n      jumpi\n        /* \"#utility.yul\":4201:4280   */\n      tag_739\n      tag_740\n      jump\t// in\n    tag_739:\n        /* \"#utility.yul\":4165:4282   */\n    tag_738:\n        /* \"#utility.yul\":4306:4369   */\n      tag_741\n        /* \"#utility.yul\":4361:4368   */\n      dup7\n        /* \"#utility.yul\":4352:4358   */\n      dup3\n        /* \"#utility.yul\":4341:4350   */\n      dup8\n        /* \"#utility.yul\":4337:4359   */\n      add\n        /* \"#utility.yul\":4306:4369   */\n      tag_697\n      jump\t// in\n    tag_741:\n        /* \"#utility.yul\":4296:4369   */\n      swap2\n      pop\n        /* \"#utility.yul\":4091:4379   */\n      pop\n        /* \"#utility.yul\":3593:4386   */\n      swap3\n      pop\n      swap3\n      pop\n      swap3\n      jump\t// out\n        /* \"#utility.yul\":4392:4862   */\n    tag_25:\n        /* \"#utility.yul\":4458:4464   */\n      0x00\n        /* \"#utility.yul\":4466:4472   */\n      dup1\n        /* \"#utility.yul\":4515:4517   */\n      0x40\n        /* \"#utility.yul\":4503:4512   */\n      dup4\n        /* \"#utility.yul\":4494:4501   */\n      dup6\n        /* \"#utility.yul\":4490:4513   */\n      sub\n        /* \"#utility.yul\":4486:4518   */\n      slt\n        /* \"#utility.yul\":4483:4602   */\n      iszero\n      tag_743\n      jumpi\n        /* \"#utility.yul\":4521:4600   */\n      tag_744\n      tag_714\n      jump\t// in\n    tag_744:\n        /* \"#utility.yul\":4483:4602   */\n    tag_743:\n        /* \"#utility.yul\":4641:4642   */\n      0x00\n        /* \"#utility.yul\":4666:4719   */\n      tag_745\n        /* \"#utility.yul\":4711:4718   */\n      dup6\n        /* \"#utility.yul\":4702:4708   */\n      dup3\n        /* \"#utility.yul\":4691:4700   */\n      dup7\n        /* \"#utility.yul\":4687:4709   */\n      add\n        /* \"#utility.yul\":4666:4719   */\n      tag_685\n      jump\t// in\n    tag_745:\n        /* \"#utility.yul\":4656:4719   */\n      swap3\n      pop\n        /* \"#utility.yul\":4612:4729   */\n      pop\n        /* \"#utility.yul\":4768:4770   */\n      0x20\n        /* \"#utility.yul\":4794:4845   */\n      tag_746\n        /* \"#utility.yul\":4837:4844   */\n      dup6\n        /* \"#utility.yul\":4828:4834   */\n      dup3\n        /* \"#utility.yul\":4817:4826   */\n      dup7\n        /* \"#utility.yul\":4813:4835   */\n      add\n        /* \"#utility.yul\":4794:4845   */\n      tag_707\n      jump\t// in\n    tag_746:\n        /* \"#utility.yul\":4784:4845   */\n      swap2\n      pop\n        /* \"#utility.yul\":4739:4855   */\n      pop\n        /* \"#utility.yul\":4392:4862   */\n      swap3\n      pop\n      swap3\n      swap1\n      pop\n      jump\t// out\n        /* \"#utility.yul\":4868:5229   */\n    tag_104:\n        /* \"#utility.yul\":4943:4949   */\n      0x00\n        /* \"#utility.yul\":4992:4994   */\n      0x20\n        /* \"#utility.yul\":4980:4989   */\n      dup3\n        /* \"#utility.yul\":4971:4978   */\n      dup5\n        /* \"#utility.yul\":4967:4990   */\n      sub\n        /* \"#utility.yul\":4963:4995   */\n      slt\n        /* \"#utility.yul\":4960:5079   */\n      iszero\n      tag_748\n      jumpi\n        /* \"#utility.yul\":4998:5077   */\n      tag_749\n      tag_714\n      jump\t// in\n    tag_749:\n        /* \"#utility.yul\":4960:5079   */\n    tag_748:\n        /* \"#utility.yul\":5118:5119   */\n      0x00\n        /* \"#utility.yul\":5143:5212   */\n      tag_750\n        /* \"#utility.yul\":5204:5211   */\n      dup5\n        /* \"#utility.yul\":5195:5201   */\n      dup3\n        /* \"#utility.yul\":5184:5193   */\n      dup6\n        /* \"#utility.yul\":5180:5202   */\n      add\n        /* \"#utility.yul\":5143:5212   */\n      tag_693\n      jump\t// in\n    tag_750:\n        /* \"#utility.yul\":5133:5212   */\n      swap2\n      pop\n        /* \"#utility.yul\":5089:5222   */\n      pop\n        /* \"#utility.yul\":4868:5229   */\n      swap3\n      swap2\n      pop\n      pop\n      jump\t// out\n        /* \"#utility.yul\":5235:5889   */\n    tag_59:\n        /* \"#utility.yul\":5313:5319   */\n      0x00\n        /* \"#utility.yul\":5321:5327   */\n      dup1\n        /* \"#utility.yul\":5370:5372   */\n      0x40\n        /* \"#utility.yul\":5358:5367   */\n      dup4\n        /* \"#utility.yul\":5349:5356   */\n      dup6\n        /* \"#utility.yul\":5345:5368   */\n      sub\n        /* \"#utility.yul\":5341:5373   */\n      slt\n        /* \"#utility.yul\":5338:5457   */\n      iszero\n      tag_752\n      jumpi\n        /* \"#utility.yul\":5376:5455   */\n      tag_753\n      tag_714\n      jump\t// in\n    tag_753:\n        /* \"#utility.yul\":5338:5457   */\n    tag_752:\n        /* \"#utility.yul\":5524:5525   */\n      0x00\n        /* \"#utility.yul\":5513:5522   */\n      dup4\n        /* \"#utility.yul\":5509:5526   */\n      add\n        /* \"#utility.yul\":5496:5527   */\n      calldataload\n        /* \"#utility.yul\":5554:5572   */\n      0xffffffffffffffff\n        /* \"#utility.yul\":5546:5552   */\n      dup2\n        /* \"#utility.yul\":5543:5573   */\n      gt\n        /* \"#utility.yul\":5540:5657   */\n      iszero\n      tag_754\n      jumpi\n        /* \"#utility.yul\":5576:5655   */\n      tag_755\n      tag_740\n      jump\t// in\n    tag_755:\n        /* \"#utility.yul\":5540:5657   */\n    tag_754:\n        /* \"#utility.yul\":5681:5744   */\n      tag_756\n        /* \"#utility.yul\":5736:5743   */\n      dup6\n        /* \"#utility.yul\":5727:5733   */\n      dup3\n        /* \"#utility.yul\":5716:5725   */\n      dup7\n        /* \"#utility.yul\":5712:5734   */\n      add\n        /* \"#utility.yul\":5681:5744   */\n      tag_697\n      jump\t// in\n    tag_756:\n        /* \"#utility.yul\":5671:5744   */\n      swap3\n      pop\n        /* \"#utility.yul\":5467:5754   */\n      pop\n        /* \"#utility.yul\":5793:5795   */\n      0x20\n        /* \"#utility.yul\":5819:5872   */\n      tag_757\n        /* \"#utility.yul\":5864:5871   */\n      dup6\n        /* \"#utility.yul\":5855:5861   */\n      dup3\n        /* \"#utility.yul\":5844:5853   */\n      dup7\n        /* \"#utility.yul\":5840:5862   */\n      add\n        /* \"#utility.yul\":5819:5872   */\n      tag_685\n      jump\t// in\n    tag_757:\n        /* \"#utility.yul\":5809:5872   */\n      swap2\n      pop\n        /* \"#utility.yul\":5764:5882   */\n      pop\n        /* \"#utility.yul\":5235:5889   */\n      swap3\n      pop\n      swap3\n      swap1\n      pop\n      jump\t// out\n        /* \"#utility.yul\":5895:6840   */\n    tag_54:\n        /* \"#utility.yul\":5991:5997   */\n      0x00\n        /* \"#utility.yul\":5999:6005   */\n      dup1\n        /* \"#utility.yul\":6007:6013   */\n      0x00\n        /* \"#utility.yul\":6015:6021   */\n      dup1\n        /* \"#utility.yul\":6064:6067   */\n      0x80\n        /* \"#utility.yul\":6052:6061   */\n      dup6\n        /* \"#utility.yul\":6043:6050   */\n      dup8\n        /* \"#utility.yul\":6039:6062   */\n      sub\n        /* \"#utility.yul\":6035:6068   */\n      slt\n        /* \"#utility.yul\":6032:6152   */\n      iszero\n      tag_759\n      jumpi\n        /* \"#utility.yul\":6071:6150   */\n      tag_760\n      tag_714\n      jump\t// in\n    tag_760:\n        /* \"#utility.yul\":6032:6152   */\n    tag_759:\n        /* \"#utility.yul\":6191:6192   */\n      0x00\n        /* \"#utility.yul\":6216:6269   */\n      tag_761\n        /* \"#utility.yul\":6261:6268   */\n      dup8\n        /* \"#utility.yul\":6252:6258   */\n      dup3\n        /* \"#utility.yul\":6241:6250   */\n      dup9\n        /* \"#utility.yul\":6237:6259   */\n      add\n        /* \"#utility.yul\":6216:6269   */\n      tag_703\n      jump\t// in\n    tag_761:\n        /* \"#utility.yul\":6206:6269   */\n      swap5\n      pop\n        /* \"#utility.yul\":6162:6279   */\n      pop\n        /* \"#utility.yul\":6318:6320   */\n      0x20\n        /* \"#utility.yul\":6344:6397   */\n      tag_762\n        /* \"#utility.yul\":6389:6396   */\n      dup8\n        /* \"#utility.yul\":6380:6386   */\n      dup3\n        /* \"#utility.yul\":6369:6378   */\n      dup9\n        /* \"#utility.yul\":6365:6387   */\n      add\n        /* \"#utility.yul\":6344:6397   */\n      tag_703\n      jump\t// in\n    tag_762:\n        /* \"#utility.yul\":6334:6397   */\n      swap4\n      pop\n        /* \"#utility.yul\":6289:6407   */\n      pop\n        /* \"#utility.yul\":6446:6448   */\n      0x40\n        /* \"#utility.yul\":6472:6525   */\n      tag_763\n        /* \"#utility.yul\":6517:6524   */\n      dup8\n        /* \"#utility.yul\":6508:6514   */\n      dup3\n        /* \"#utility.yul\":6497:6506   */\n      dup9\n        /* \"#utility.yul\":6493:6515   */\n      add\n        /* \"#utility.yul\":6472:6525   */\n      tag_685\n      jump\t// in\n    tag_763:\n        /* \"#utility.yul\":6462:6525   */\n      swap3\n      pop\n        /* \"#utility.yul\":6417:6535   */\n      pop\n        /* \"#utility.yul\":6602:6604   */\n      0x60\n        /* \"#utility.yul\":6591:6600   */\n      dup6\n        /* \"#utility.yul\":6587:6605   */\n      add\n        /* \"#utility.yul\":6574:6606   */\n      calldataload\n        /* \"#utility.yul\":6633:6651   */\n      0xffffffffffffffff\n        /* \"#utility.yul\":6625:6631   */\n      dup2\n        /* \"#utility.yul\":6622:6652   */\n      gt\n        /* \"#utility.yul\":6619:6736   */\n      iszero\n      tag_764\n      jumpi\n        /* \"#utility.yul\":6655:6734   */\n      tag_765\n      tag_740\n      jump\t// in\n    tag_765:\n        /* \"#utility.yul\":6619:6736   */\n    tag_764:\n        /* \"#utility.yul\":6760:6823   */\n      tag_766\n        /* \"#utility.yul\":6815:6822   */\n      dup8\n        /* \"#utility.yul\":6806:6812   */\n      dup3\n        /* \"#utility.yul\":6795:6804   */\n      dup9\n        /* \"#utility.yul\":6791:6813   */\n      add\n        /* \"#utility.yul\":6760:6823   */\n      tag_697\n      jump\t// in\n    tag_766:\n        /* \"#utility.yul\":6750:6823   */\n      swap2\n      pop\n        /* \"#utility.yul\":6545:6833   */\n      pop\n        /* \"#utility.yul\":5895:6840   */\n      swap3\n      swap6\n      swap2\n      swap5\n      pop\n      swap3\n      pop\n      jump\t// out\n        /* \"#utility.yul\":6846:7025   */\n    tag_767:\n        /* \"#utility.yul\":6915:6925   */\n      0x00\n        /* \"#utility.yul\":6936:6982   */\n      tag_769\n        /* \"#utility.yul\":6978:6981   */\n      dup4\n        /* \"#utility.yul\":6970:6976   */\n      dup4\n        /* \"#utility.yul\":6936:6982   */\n      tag_770\n      jump\t// in\n    tag_769:\n        /* \"#utility.yul\":7014:7018   */\n      0x20\n        /* \"#utility.yul\":7009:7012   */\n      dup4\n        /* \"#utility.yul\":7005:7019   */\n      add\n        /* \"#utility.yul\":6991:7019   */\n      swap1\n      pop\n        /* \"#utility.yul\":6846:7025   */\n      swap3\n      swap2\n      pop\n      pop\n      jump\t// out\n        /* \"#utility.yul\":7031:7210   */\n    tag_771:\n        /* \"#utility.yul\":7100:7110   */\n      0x00\n        /* \"#utility.yul\":7121:7167   */\n      tag_773\n        /* \"#utility.yul\":7163:7166   */\n      dup4\n        /* \"#utility.yul\":7155:7161   */\n      dup4\n        /* \"#utility.yul\":7121:7167   */\n      tag_774\n      jump\t// in\n    tag_773:\n        /* \"#utility.yul\":7199:7203   */\n      0x20\n        /* \"#utility.yul\":7194:7197   */\n      dup4\n        /* \"#utility.yul\":7190:7204   */\n      add\n        /* \"#utility.yul\":7176:7204   */\n      swap1\n      pop\n        /* \"#utility.yul\":7031:7210   */\n      swap3\n      swap2\n      pop\n      pop\n      jump\t// out\n        /* \"#utility.yul\":7216:7324   */\n    tag_770:\n        /* \"#utility.yul\":7293:7317   */\n      tag_776\n        /* \"#utility.yul\":7311:7316   */\n      dup2\n        /* \"#utility.yul\":7293:7317   */\n      tag_777\n      jump\t// in\n    tag_776:\n        /* \"#utility.yul\":7288:7291   */\n      dup3\n        /* \"#utility.yul\":7281:7318   */\n      mstore\n        /* \"#utility.yul\":7216:7324   */\n      pop\n      pop\n      jump\t// out\n        /* \"#utility.yul\":7330:7448   */\n    tag_778:\n        /* \"#utility.yul\":7417:7441   */\n      tag_780\n        /* \"#utility.yul\":7435:7440   */\n      dup2\n        /* \"#utility.yul\":7417:7441   */\n      tag_777\n      jump\t// in\n    tag_780:\n        /* \"#utility.yul\":7412:7415   */\n      dup3\n        /* \"#utility.yul\":7405:7442   */\n      mstore\n        /* \"#utility.yul\":7330:7448   */\n      pop\n      pop\n      jump\t// out\n        /* \"#utility.yul\":7484:8216   */\n    tag_781:\n        /* \"#utility.yul\":7603:7606   */\n      0x00\n        /* \"#utility.yul\":7632:7686   */\n      tag_783\n        /* \"#utility.yul\":7680:7685   */\n      dup3\n        /* \"#utility.yul\":7632:7686   */\n      tag_784\n      jump\t// in\n    tag_783:\n        /* \"#utility.yul\":7702:7788   */\n      tag_785\n        /* \"#utility.yul\":7781:7787   */\n      dup2\n        /* \"#utility.yul\":7776:7779   */\n      dup6\n        /* \"#utility.yul\":7702:7788   */\n      tag_786\n      jump\t// in\n    tag_785:\n        /* \"#utility.yul\":7695:7788   */\n      swap4\n      pop\n        /* \"#utility.yul\":7812:7868   */\n      tag_787\n        /* \"#utility.yul\":7862:7867   */\n      dup4\n        /* \"#utility.yul\":7812:7868   */\n      tag_788\n      jump\t// in\n    tag_787:\n        /* \"#utility.yul\":7891:7898   */\n      dup1\n        /* \"#utility.yul\":7922:7923   */\n      0x00\n        /* \"#utility.yul\":7907:8191   */\n    tag_789:\n        /* \"#utility.yul\":7932:7938   */\n      dup4\n        /* \"#utility.yul\":7929:7930   */\n      dup2\n        /* \"#utility.yul\":7926:7939   */\n      lt\n        /* \"#utility.yul\":7907:8191   */\n      iszero\n      tag_791\n      jumpi\n        /* \"#utility.yul\":8008:8014   */\n      dup2\n        /* \"#utility.yul\":8002:8015   */\n      mload\n        /* \"#utility.yul\":8035:8098   */\n      tag_792\n        /* \"#utility.yul\":8094:8097   */\n      dup9\n        /* \"#utility.yul\":8079:8092   */\n      dup3\n        /* \"#utility.yul\":8035:8098   */\n      tag_767\n      jump\t// in\n    tag_792:\n        /* \"#utility.yul\":8028:8098   */\n      swap8\n      pop\n        /* \"#utility.yul\":8121:8181   */\n      tag_793\n        /* \"#utility.yul\":8174:8180   */\n      dup4\n        /* \"#utility.yul\":8121:8181   */\n      tag_794\n      jump\t// in\n    tag_793:\n        /* \"#utility.yul\":8111:8181   */\n      swap3\n      pop\n        /* \"#utility.yul\":7967:8191   */\n      pop\n        /* \"#utility.yul\":7954:7955   */\n      0x01\n        /* \"#utility.yul\":7951:7952   */\n      dup2\n        /* \"#utility.yul\":7947:7956   */\n      add\n        /* \"#utility.yul\":7942:7956   */\n      swap1\n      pop\n        /* \"#utility.yul\":7907:8191   */\n      jump(tag_789)\n    tag_791:\n        /* \"#utility.yul\":7911:7925   */\n      pop\n        /* \"#utility.yul\":8207:8210   */\n      dup6\n        /* \"#utility.yul\":8200:8210   */\n      swap4\n      pop\n        /* \"#utility.yul\":7608:8216   */\n      pop\n      pop\n      pop\n        /* \"#utility.yul\":7484:8216   */\n      swap3\n      swap2\n      pop\n      pop\n      jump\t// out\n        /* \"#utility.yul\":8252:8984   */\n    tag_795:\n        /* \"#utility.yul\":8371:8374   */\n      0x00\n        /* \"#utility.yul\":8400:8454   */\n      tag_797\n        /* \"#utility.yul\":8448:8453   */\n      dup3\n        /* \"#utility.yul\":8400:8454   */\n      tag_798\n      jump\t// in\n    tag_797:\n        /* \"#utility.yul\":8470:8556   */\n      tag_799\n        /* \"#utility.yul\":8549:8555   */\n      dup2\n        /* \"#utility.yul\":8544:8547   */\n      dup6\n        /* \"#utility.yul\":8470:8556   */\n      tag_800\n      jump\t// in\n    tag_799:\n        /* \"#utility.yul\":8463:8556   */\n      swap4\n      pop\n        /* \"#utility.yul\":8580:8636   */\n      tag_801\n        /* \"#utility.yul\":8630:8635   */\n      dup4\n        /* \"#utility.yul\":8580:8636   */\n      tag_802\n      jump\t// in\n    tag_801:\n        /* \"#utility.yul\":8659:8666   */\n      dup1\n        /* \"#utility.yul\":8690:8691   */\n      0x00\n        /* \"#utility.yul\":8675:8959   */\n    tag_803:\n        /* \"#utility.yul\":8700:8706   */\n      dup4\n        /* \"#utility.yul\":8697:8698   */\n      dup2\n        /* \"#utility.yul\":8694:8707   */\n      lt\n        /* \"#utility.yul\":8675:8959   */\n      iszero\n      tag_805\n      jumpi\n        /* \"#utility.yul\":8776:8782   */\n      dup2\n        /* \"#utility.yul\":8770:8783   */\n      mload\n        /* \"#utility.yul\":8803:8866   */\n      tag_806\n        /* \"#utility.yul\":8862:8865   */\n      dup9\n        /* \"#utility.yul\":8847:8860   */\n      dup3\n        /* \"#utility.yul\":8803:8866   */\n      tag_771\n      jump\t// in\n    tag_806:\n        /* \"#utility.yul\":8796:8866   */\n      swap8\n      pop\n        /* \"#utility.yul\":8889:8949   */\n      tag_807\n        /* \"#utility.yul\":8942:8948   */\n      dup4\n        /* \"#utility.yul\":8889:8949   */\n      tag_808\n      jump\t// in\n    tag_807:\n        /* \"#utility.yul\":8879:8949   */\n      swap3\n      pop\n        /* \"#utility.yul\":8735:8959   */\n      pop\n        /* \"#utility.yul\":8722:8723   */\n      0x01\n        /* \"#utility.yul\":8719:8720   */\n      dup2\n        /* \"#utility.yul\":8715:8724   */\n      add\n        /* \"#utility.yul\":8710:8724   */\n      swap1\n      pop\n        /* \"#utility.yul\":8675:8959   */\n      jump(tag_803)\n    tag_805:\n        /* \"#utility.yul\":8679:8693   */\n      pop\n        /* \"#utility.yul\":8975:8978   */\n      dup6\n        /* \"#utility.yul\":8968:8978   */\n      swap4\n      pop\n        /* \"#utility.yul\":8376:8984   */\n      pop\n      pop\n      pop\n        /* \"#utility.yul\":8252:8984   */\n      swap3\n      swap2\n      pop\n      pop\n      jump\t// out\n        /* \"#utility.yul\":8990:9149   */\n    tag_809:\n        /* \"#utility.yul\":9091:9142   */\n      tag_811\n        /* \"#utility.yul\":9136:9141   */\n      dup2\n        /* \"#utility.yul\":9091:9142   */\n      tag_812\n      jump\t// in\n    tag_811:\n        /* \"#utility.yul\":9086:9089   */\n      dup3\n        /* \"#utility.yul\":9079:9143   */\n      mstore\n        /* \"#utility.yul\":8990:9149   */\n      pop\n      pop\n      jump\t// out\n        /* \"#utility.yul\":9155:9519   */\n    tag_813:\n        /* \"#utility.yul\":9243:9246   */\n      0x00\n        /* \"#utility.yul\":9271:9310   */\n      tag_815\n        /* \"#utility.yul\":9304:9309   */\n      dup3\n        /* \"#utility.yul\":9271:9310   */\n      tag_816\n      jump\t// in\n    tag_815:\n        /* \"#utility.yul\":9326:9397   */\n      tag_817\n        /* \"#utility.yul\":9390:9396   */\n      dup2\n        /* \"#utility.yul\":9385:9388   */\n      dup6\n        /* \"#utility.yul\":9326:9397   */\n      tag_818\n      jump\t// in\n    tag_817:\n        /* \"#utility.yul\":9319:9397   */\n      swap4\n      pop\n        /* \"#utility.yul\":9406:9458   */\n      tag_819\n        /* \"#utility.yul\":9451:9457   */\n      dup2\n        /* \"#utility.yul\":9446:9449   */\n      dup6\n        /* \"#utility.yul\":9439:9443   */\n      0x20\n        /* \"#utility.yul\":9432:9437   */\n      dup7\n        /* \"#utility.yul\":9428:9444   */\n      add\n        /* \"#utility.yul\":9406:9458   */\n      tag_820\n      jump\t// in\n    tag_819:\n        /* \"#utility.yul\":9483:9512   */\n      tag_821\n        /* \"#utility.yul\":9505:9511   */\n      dup2\n        /* \"#utility.yul\":9483:9512   */\n      tag_822\n      jump\t// in\n    tag_821:\n        /* \"#utility.yul\":9478:9481   */\n      dup5\n        /* \"#utility.yul\":9474:9513   */\n      add\n        /* \"#utility.yul\":9467:9513   */\n      swap2\n      pop\n        /* \"#utility.yul\":9247:9519   */\n      pop\n        /* \"#utility.yul\":9155:9519   */\n      swap3\n      swap2\n      pop\n      pop\n      jump\t// out\n        /* \"#utility.yul\":9525:9891   */\n    tag_823:\n        /* \"#utility.yul\":9667:9670   */\n      0x00\n        /* \"#utility.yul\":9688:9755   */\n      tag_825\n        /* \"#utility.yul\":9752:9754   */\n      0x2d\n        /* \"#utility.yul\":9747:9750   */\n      dup4\n        /* \"#utility.yul\":9688:9755   */\n      tag_818\n      jump\t// in\n    tag_825:\n        /* \"#utility.yul\":9681:9755   */\n      swap2\n      pop\n        /* \"#utility.yul\":9764:9857   */\n      tag_826\n        /* \"#utility.yul\":9853:9856   */\n      dup3\n        /* \"#utility.yul\":9764:9857   */\n      tag_827\n      jump\t// in\n    tag_826:\n        /* \"#utility.yul\":9882:9884   */\n      0x40\n        /* \"#utility.yul\":9877:9880   */\n      dup3\n        /* \"#utility.yul\":9873:9885   */\n      add\n        /* \"#utility.yul\":9866:9885   */\n      swap1\n      pop\n        /* \"#utility.yul\":9525:9891   */\n      swap2\n      swap1\n      pop\n      jump\t// out\n        /* \"#utility.yul\":9897:10263   */\n    tag_828:\n        /* \"#utility.yul\":10039:10042   */\n      0x00\n        /* \"#utility.yul\":10060:10127   */\n      tag_830\n        /* \"#utility.yul\":10124:10126   */\n      0x2a\n        /* \"#utility.yul\":10119:10122   */\n      dup4\n        /* \"#utility.yul\":10060:10127   */\n      tag_818\n      jump\t// in\n    tag_830:\n        /* \"#utility.yul\":10053:10127   */\n      swap2\n      pop\n        /* \"#utility.yul\":10136:10229   */\n      tag_831\n        /* \"#utility.yul\":10225:10228   */\n      dup3\n        /* \"#utility.yul\":10136:10229   */\n      tag_832\n      jump\t// in\n    tag_831:\n        /* \"#utility.yul\":10254:10256   */\n      0x40\n        /* \"#utility.yul\":10249:10252   */\n      dup3\n        /* \"#utility.yul\":10245:10257   */\n      add\n        /* \"#utility.yul\":10238:10257   */\n      swap1\n      pop\n        /* \"#utility.yul\":9897:10263   */\n      swap2\n      swap1\n      pop\n      jump\t// out\n        /* \"#utility.yul\":10269:10635   */\n    tag_833:\n        /* \"#utility.yul\":10411:10414   */\n      0x00\n        /* \"#utility.yul\":10432:10499   */\n      tag_835\n        /* \"#utility.yul\":10496:10498   */\n      0x28\n        /* \"#utility.yul\":10491:10494   */\n      dup4\n        /* \"#utility.yul\":10432:10499   */\n      tag_818\n      jump\t// in\n    tag_835:\n        /* \"#utility.yul\":10425:10499   */\n      swap2\n      pop\n        /* \"#utility.yul\":10508:10601   */\n      tag_836\n        /* \"#utility.yul\":10597:10600   */\n      dup3\n        /* \"#utility.yul\":10508:10601   */\n      tag_837\n      jump\t// in\n    tag_836:\n        /* \"#utility.yul\":10626:10628   */\n      0x40\n        /* \"#utility.yul\":10621:10624   */\n      dup3\n        /* \"#utility.yul\":10617:10629   */\n      add\n        /* \"#utility.yul\":10610:10629   */\n      swap1\n      pop\n        /* \"#utility.yul\":10269:10635   */\n      swap2\n      swap1\n      pop\n      jump\t// out\n        /* \"#utility.yul\":10641:11007   */\n    tag_838:\n        /* \"#utility.yul\":10783:10786   */\n      0x00\n        /* \"#utility.yul\":10804:10871   */\n      tag_840\n        /* \"#utility.yul\":10868:10870   */\n      0x31\n        /* \"#utility.yul\":10863:10866   */\n      dup4\n        /* \"#utility.yul\":10804:10871   */\n      tag_818\n      jump\t// in\n    tag_840:\n        /* \"#utility.yul\":10797:10871   */\n      swap2\n      pop\n        /* \"#utility.yul\":10880:10973   */\n      tag_841\n        /* \"#utility.yul\":10969:10972   */\n      dup3\n        /* \"#utility.yul\":10880:10973   */\n      tag_842\n      jump\t// in\n    tag_841:\n        /* \"#utility.yul\":10998:11000   */\n      0x40\n        /* \"#utility.yul\":10993:10996   */\n      dup3\n        /* \"#utility.yul\":10989:11001   */\n      add\n        /* \"#utility.yul\":10982:11001   */\n      swap1\n      pop\n        /* \"#utility.yul\":10641:11007   */\n      swap2\n      swap1\n      pop\n      jump\t// out\n        /* \"#utility.yul\":11013:11379   */\n    tag_843:\n        /* \"#utility.yul\":11155:11158   */\n      0x00\n        /* \"#utility.yul\":11176:11243   */\n      tag_845\n        /* \"#utility.yul\":11240:11242   */\n      0x41\n        /* \"#utility.yul\":11235:11238   */\n      dup4\n        /* \"#utility.yul\":11176:11243   */\n      tag_818\n      jump\t// in\n    tag_845:\n        /* \"#utility.yul\":11169:11243   */\n      swap2\n      pop\n        /* \"#utility.yul\":11252:11345   */\n      tag_846\n        /* \"#utility.yul\":11341:11344   */\n      dup3\n        /* \"#utility.yul\":11252:11345   */\n      tag_847\n      jump\t// in\n    tag_846:\n        /* \"#utility.yul\":11370:11372   */\n      0x60\n        /* \"#utility.yul\":11365:11368   */\n      dup3\n        /* \"#utility.yul\":11361:11373   */\n      add\n        /* \"#utility.yul\":11354:11373   */\n      swap1\n      pop\n        /* \"#utility.yul\":11013:11379   */\n      swap2\n      swap1\n      pop\n      jump\t// out\n        /* \"#utility.yul\":11385:11751   */\n    tag_848:\n        /* \"#utility.yul\":11527:11530   */\n      0x00\n        /* \"#utility.yul\":11548:11615   */\n      tag_850\n        /* \"#utility.yul\":11612:11614   */\n      0x3e\n        /* \"#utility.yul\":11607:11610   */\n      dup4\n        /* \"#utility.yul\":11548:11615   */\n      tag_818\n      jump\t// in\n    tag_850:\n        /* \"#utility.yul\":11541:11615   */\n      swap2\n      pop\n        /* \"#utility.yul\":11624:11717   */\n      tag_851\n        /* \"#utility.yul\":11713:11716   */\n      dup3\n        /* \"#utility.yul\":11624:11717   */\n      tag_852\n      jump\t// in\n    tag_851:\n        /* \"#utility.yul\":11742:11744   */\n      0x40\n        /* \"#utility.yul\":11737:11740   */\n      dup3\n        /* \"#utility.yul\":11733:11745   */\n      add\n        /* \"#utility.yul\":11726:11745   */\n      swap1\n      pop\n        /* \"#utility.yul\":11385:11751   */\n      swap2\n      swap1\n      pop\n      jump\t// out\n        /* \"#utility.yul\":11757:12123   */\n    tag_853:\n        /* \"#utility.yul\":11899:11902   */\n      0x00\n        /* \"#utility.yul\":11920:11987   */\n      tag_855\n        /* \"#utility.yul\":11984:11986   */\n      0x23\n        /* \"#utility.yul\":11979:11982   */\n      dup4\n        /* \"#utility.yul\":11920:11987   */\n      tag_818\n      jump\t// in\n    tag_855:\n        /* \"#utility.yul\":11913:11987   */\n      swap2\n      pop\n        /* \"#utility.yul\":11996:12089   */\n      tag_856\n        /* \"#utility.yul\":12085:12088   */\n      dup3\n        /* \"#utility.yul\":11996:12089   */\n      tag_857\n      jump\t// in\n    tag_856:\n        /* \"#utility.yul\":12114:12116   */\n      0x40\n        /* \"#utility.yul\":12109:12112   */\n      dup3\n        /* \"#utility.yul\":12105:12117   */\n      add\n        /* \"#utility.yul\":12098:12117   */\n      swap1\n      pop\n        /* \"#utility.yul\":11757:12123   */\n      swap2\n      swap1\n      pop\n      jump\t// out\n        /* \"#utility.yul\":12129:12495   */\n    tag_858:\n        /* \"#utility.yul\":12271:12274   */\n      0x00\n        /* \"#utility.yul\":12292:12359   */\n      tag_860\n        /* \"#utility.yul\":12356:12358   */\n      0x15\n        /* \"#utility.yul\":12351:12354   */\n      dup4\n        /* \"#utility.yul\":12292:12359   */\n      tag_818\n      jump\t// in\n    tag_860:\n        /* \"#utility.yul\":12285:12359   */\n      swap2\n      pop\n        /* \"#utility.yul\":12368:12461   */\n      tag_861\n        /* \"#utility.yul\":12457:12460   */\n      dup3\n        /* \"#utility.yul\":12368:12461   */\n      tag_862\n      jump\t// in\n    tag_861:\n        /* \"#utility.yul\":12486:12488   */\n      0x20\n        /* \"#utility.yul\":12481:12484   */\n      dup3\n        /* \"#utility.yul\":12477:12489   */\n      add\n        /* \"#utility.yul\":12470:12489   */\n      swap1\n      pop\n        /* \"#utility.yul\":12129:12495   */\n      swap2\n      swap1\n      pop\n      jump\t// out\n        /* \"#utility.yul\":12501:12867   */\n    tag_863:\n        /* \"#utility.yul\":12643:12646   */\n      0x00\n        /* \"#utility.yul\":12664:12731   */\n      tag_865\n        /* \"#utility.yul\":12728:12730   */\n      0x25\n        /* \"#utility.yul\":12723:12726   */\n      dup4\n        /* \"#utility.yul\":12664:12731   */\n      tag_818\n      jump\t// in\n    tag_865:\n        /* \"#utility.yul\":12657:12731   */\n      swap2\n      pop\n        /* \"#utility.yul\":12740:12833   */\n      tag_866\n        /* \"#utility.yul\":12829:12832   */\n      dup3\n        /* \"#utility.yul\":12740:12833   */\n      tag_867\n      jump\t// in\n    tag_866:\n        /* \"#utility.yul\":12858:12860   */\n      0x40\n        /* \"#utility.yul\":12853:12856   */\n      dup3\n        /* \"#utility.yul\":12849:12861   */\n      add\n        /* \"#utility.yul\":12842:12861   */\n      swap1\n      pop\n        /* \"#utility.yul\":12501:12867   */\n      swap2\n      swap1\n      pop\n      jump\t// out\n        /* \"#utility.yul\":12873:13239   */\n    tag_868:\n        /* \"#utility.yul\":13015:13018   */\n      0x00\n        /* \"#utility.yul\":13036:13103   */\n      tag_870\n        /* \"#utility.yul\":13100:13102   */\n      0x28\n        /* \"#utility.yul\":13095:13098   */\n      dup4\n        /* \"#utility.yul\":13036:13103   */\n      tag_818\n      jump\t// in\n    tag_870:\n        /* \"#utility.yul\":13029:13103   */\n      swap2\n      pop\n        /* \"#utility.yul\":13112:13205   */\n      tag_871\n        /* \"#utility.yul\":13201:13204   */\n      dup3\n        /* \"#utility.yul\":13112:13205   */\n      tag_872\n      jump\t// in\n    tag_871:\n        /* \"#utility.yul\":13230:13232   */\n      0x40\n        /* \"#utility.yul\":13225:13228   */\n      dup3\n        /* \"#utility.yul\":13221:13233   */\n      add\n        /* \"#utility.yul\":13214:13233   */\n      swap1\n      pop\n        /* \"#utility.yul\":12873:13239   */\n      swap2\n      swap1\n      pop\n      jump\t// out\n        /* \"#utility.yul\":13245:13611   */\n    tag_873:\n        /* \"#utility.yul\":13387:13390   */\n      0x00\n        /* \"#utility.yul\":13408:13475   */\n      tag_875\n        /* \"#utility.yul\":13472:13474   */\n      0x20\n        /* \"#utility.yul\":13467:13470   */\n      dup4\n        /* \"#utility.yul\":13408:13475   */\n      tag_818\n      jump\t// in\n    tag_875:\n        /* \"#utility.yul\":13401:13475   */\n      swap2\n      pop\n        /* \"#utility.yul\":13484:13577   */\n      tag_876\n        /* \"#utility.yul\":13573:13576   */\n      dup3\n        /* \"#utility.yul\":13484:13577   */\n      tag_877\n      jump\t// in\n    tag_876:\n        /* \"#utility.yul\":13602:13604   */\n      0x20\n        /* \"#utility.yul\":13597:13600   */\n      dup3\n        /* \"#utility.yul\":13593:13605   */\n      add\n        /* \"#utility.yul\":13586:13605   */\n      swap1\n      pop\n        /* \"#utility.yul\":13245:13611   */\n      swap2\n      swap1\n      pop\n      jump\t// out\n        /* \"#utility.yul\":13617:13983   */\n    tag_878:\n        /* \"#utility.yul\":13759:13762   */\n      0x00\n        /* \"#utility.yul\":13780:13847   */\n      tag_880\n        /* \"#utility.yul\":13844:13846   */\n      0x2a\n        /* \"#utility.yul\":13839:13842   */\n      dup4\n        /* \"#utility.yul\":13780:13847   */\n      tag_818\n      jump\t// in\n    tag_880:\n        /* \"#utility.yul\":13773:13847   */\n      swap2\n      pop\n        /* \"#utility.yul\":13856:13949   */\n      tag_881\n        /* \"#utility.yul\":13945:13948   */\n      dup3\n        /* \"#utility.yul\":13856:13949   */\n      tag_882\n      jump\t// in\n    tag_881:\n        /* \"#utility.yul\":13974:13976   */\n      0x40\n        /* \"#utility.yul\":13969:13972   */\n      dup3\n        /* \"#utility.yul\":13965:13977   */\n      add\n        /* \"#utility.yul\":13958:13977   */\n      swap1\n      pop\n        /* \"#utility.yul\":13617:13983   */\n      swap2\n      swap1\n      pop\n      jump\t// out\n        /* \"#utility.yul\":13989:14355   */\n    tag_883:\n        /* \"#utility.yul\":14131:14134   */\n      0x00\n        /* \"#utility.yul\":14152:14219   */\n      tag_885\n        /* \"#utility.yul\":14216:14218   */\n      0x2c\n        /* \"#utility.yul\":14211:14214   */\n      dup4\n        /* \"#utility.yul\":14152:14219   */\n      tag_818\n      jump\t// in\n    tag_885:\n        /* \"#utility.yul\":14145:14219   */\n      swap2\n      pop\n        /* \"#utility.yul\":14228:14321   */\n      tag_886\n        /* \"#utility.yul\":14317:14320   */\n      dup3\n        /* \"#utility.yul\":14228:14321   */\n      tag_887\n      jump\t// in\n    tag_886:\n        /* \"#utility.yul\":14346:14348   */\n      0x40\n        /* \"#utility.yul\":14341:14344   */\n      dup3\n        /* \"#utility.yul\":14337:14349   */\n      add\n        /* \"#utility.yul\":14330:14349   */\n      swap1\n      pop\n        /* \"#utility.yul\":13989:14355   */\n      swap2\n      swap1\n      pop\n      jump\t// out\n        /* \"#utility.yul\":14361:14469   */\n    tag_774:\n        /* \"#utility.yul\":14438:14462   */\n      tag_889\n        /* \"#utility.yul\":14456:14461   */\n      dup2\n        /* \"#utility.yul\":14438:14462   */\n      tag_890\n      jump\t// in\n    tag_889:\n        /* \"#utility.yul\":14433:14436   */\n      dup3\n        /* \"#utility.yul\":14426:14463   */\n      mstore\n        /* \"#utility.yul\":14361:14469   */\n      pop\n      pop\n      jump\t// out\n        /* \"#utility.yul\":14475:14593   */\n    tag_891:\n        /* \"#utility.yul\":14562:14586   */\n      tag_893\n        /* \"#utility.yul\":14580:14585   */\n      dup2\n        /* \"#utility.yul\":14562:14586   */\n      tag_890\n      jump\t// in\n    tag_893:\n        /* \"#utility.yul\":14557:14560   */\n      dup3\n        /* \"#utility.yul\":14550:14587   */\n      mstore\n        /* \"#utility.yul\":14475:14593   */\n      pop\n      pop\n      jump\t// out\n        /* \"#utility.yul\":14599:14821   */\n    tag_80:\n        /* \"#utility.yul\":14692:14696   */\n      0x00\n        /* \"#utility.yul\":14730:14732   */\n      0x20\n        /* \"#utility.yul\":14719:14728   */\n      dup3\n        /* \"#utility.yul\":14715:14733   */\n      add\n        /* \"#utility.yul\":14707:14733   */\n      swap1\n      pop\n        /* \"#utility.yul\":14743:14814   */\n      tag_895\n        /* \"#utility.yul\":14811:14812   */\n      0x00\n        /* \"#utility.yul\":14800:14809   */\n      dup4\n        /* \"#utility.yul\":14796:14813   */\n      add\n        /* \"#utility.yul\":14787:14793   */\n      dup5\n        /* \"#utility.yul\":14743:14814   */\n      tag_778\n      jump\t// in\n    tag_895:\n        /* \"#utility.yul\":14599:14821   */\n      swap3\n      swap2\n      pop\n      pop\n      jump\t// out\n        /* \"#utility.yul\":14827:15297   */\n    tag_159:\n        /* \"#utility.yul\":14990:14994   */\n      0x00\n        /* \"#utility.yul\":15028:15030   */\n      0x60\n        /* \"#utility.yul\":15017:15026   */\n      dup3\n        /* \"#utility.yul\":15013:15031   */\n      add\n        /* \"#utility.yul\":15005:15031   */\n      swap1\n      pop\n        /* \"#utility.yul\":15041:15112   */\n      tag_897\n        /* \"#utility.yul\":15109:15110   */\n      0x00\n        /* \"#utility.yul\":15098:15107   */\n      dup4\n        /* \"#utility.yul\":15094:15111   */\n      add\n        /* \"#utility.yul\":15085:15091   */\n      dup7\n        /* \"#utility.yul\":15041:15112   */\n      tag_778\n      jump\t// in\n    tag_897:\n        /* \"#utility.yul\":15122:15194   */\n      tag_898\n        /* \"#utility.yul\":15190:15192   */\n      0x20\n        /* \"#utility.yul\":15179:15188   */\n      dup4\n        /* \"#utility.yul\":15175:15193   */\n      add\n        /* \"#utility.yul\":15166:15172   */\n      dup6\n        /* \"#utility.yul\":15122:15194   */\n      tag_778\n      jump\t// in\n    tag_898:\n        /* \"#utility.yul\":15204:15290   */\n      tag_899\n        /* \"#utility.yul\":15286:15288   */\n      0x40\n        /* \"#utility.yul\":15275:15284   */\n      dup4\n        /* \"#utility.yul\":15271:15289   */\n      add\n        /* \"#utility.yul\":15262:15268   */\n      dup5\n        /* \"#utility.yul\":15204:15290   */\n      tag_809\n      jump\t// in\n    tag_899:\n        /* \"#utility.yul\":14827:15297   */\n      swap5\n      swap4\n      pop\n      pop\n      pop\n      pop\n      jump\t// out\n        /* \"#utility.yul\":15303:16460   */\n    tag_92:\n        /* \"#utility.yul\":15680:15684   */\n      0x00\n        /* \"#utility.yul\":15718:15721   */\n      0x80\n        /* \"#utility.yul\":15707:15716   */\n      dup3\n        /* \"#utility.yul\":15703:15722   */\n      add\n        /* \"#utility.yul\":15695:15722   */\n      swap1\n      pop\n        /* \"#utility.yul\":15768:15777   */\n      dup2\n        /* \"#utility.yul\":15762:15766   */\n      dup2\n        /* \"#utility.yul\":15758:15778   */\n      sub\n        /* \"#utility.yul\":15754:15755   */\n      0x00\n        /* \"#utility.yul\":15743:15752   */\n      dup4\n        /* \"#utility.yul\":15739:15756   */\n      add\n        /* \"#utility.yul\":15732:15779   */\n      mstore\n        /* \"#utility.yul\":15796:15904   */\n      tag_901\n        /* \"#utility.yul\":15899:15903   */\n      dup2\n        /* \"#utility.yul\":15890:15896   */\n      dup8\n        /* \"#utility.yul\":15796:15904   */\n      tag_781\n      jump\t// in\n    tag_901:\n        /* \"#utility.yul\":15788:15904   */\n      swap1\n      pop\n        /* \"#utility.yul\":15951:15960   */\n      dup2\n        /* \"#utility.yul\":15945:15949   */\n      dup2\n        /* \"#utility.yul\":15941:15961   */\n      sub\n        /* \"#utility.yul\":15936:15938   */\n      0x20\n        /* \"#utility.yul\":15925:15934   */\n      dup4\n        /* \"#utility.yul\":15921:15939   */\n      add\n        /* \"#utility.yul\":15914:15962   */\n      mstore\n        /* \"#utility.yul\":15979:16087   */\n      tag_902\n        /* \"#utility.yul\":16082:16086   */\n      dup2\n        /* \"#utility.yul\":16073:16079   */\n      dup7\n        /* \"#utility.yul\":15979:16087   */\n      tag_795\n      jump\t// in\n    tag_902:\n        /* \"#utility.yul\":15971:16087   */\n      swap1\n      pop\n        /* \"#utility.yul\":16134:16143   */\n      dup2\n        /* \"#utility.yul\":16128:16132   */\n      dup2\n        /* \"#utility.yul\":16124:16144   */\n      sub\n        /* \"#utility.yul\":16119:16121   */\n      0x40\n        /* \"#utility.yul\":16108:16117   */\n      dup4\n        /* \"#utility.yul\":16104:16122   */\n      add\n        /* \"#utility.yul\":16097:16145   */\n      mstore\n        /* \"#utility.yul\":16162:16270   */\n      tag_903\n        /* \"#utility.yul\":16265:16269   */\n      dup2\n        /* \"#utility.yul\":16256:16262   */\n      dup6\n        /* \"#utility.yul\":16162:16270   */\n      tag_795\n      jump\t// in\n    tag_903:\n        /* \"#utility.yul\":16154:16270   */\n      swap1\n      pop\n        /* \"#utility.yul\":16317:16326   */\n      dup2\n        /* \"#utility.yul\":16311:16315   */\n      dup2\n        /* \"#utility.yul\":16307:16327   */\n      sub\n        /* \"#utility.yul\":16302:16304   */\n      0x60\n        /* \"#utility.yul\":16291:16300   */\n      dup4\n        /* \"#utility.yul\":16287:16305   */\n      add\n        /* \"#utility.yul\":16280:16328   */\n      mstore\n        /* \"#utility.yul\":16345:16453   */\n      tag_904\n        /* \"#utility.yul\":16448:16452   */\n      dup2\n        /* \"#utility.yul\":16439:16445   */\n      dup5\n        /* \"#utility.yul\":16345:16453   */\n      tag_795\n      jump\t// in\n    tag_904:\n        /* \"#utility.yul\":16337:16453   */\n      swap1\n      pop\n        /* \"#utility.yul\":15303:16460   */\n      swap6\n      swap5\n      pop\n      pop\n      pop\n      pop\n      pop\n      jump\t// out\n        /* \"#utility.yul\":16466:16716   */\n    tag_31:\n        /* \"#utility.yul\":16573:16577   */\n      0x00\n        /* \"#utility.yul\":16611:16613   */\n      0x20\n        /* \"#utility.yul\":16600:16609   */\n      dup3\n        /* \"#utility.yul\":16596:16614   */\n      add\n        /* \"#utility.yul\":16588:16614   */\n      swap1\n      pop\n        /* \"#utility.yul\":16624:16709   */\n      tag_906\n        /* \"#utility.yul\":16706:16707   */\n      0x00\n        /* \"#utility.yul\":16695:16704   */\n      dup4\n        /* \"#utility.yul\":16691:16708   */\n      add\n        /* \"#utility.yul\":16682:16688   */\n      dup5\n        /* \"#utility.yul\":16624:16709   */\n      tag_809\n      jump\t// in\n    tag_906:\n        /* \"#utility.yul\":16466:16716   */\n      swap3\n      swap2\n      pop\n      pop\n      jump\t// out\n        /* \"#utility.yul\":16722:17035   */\n    tag_45:\n        /* \"#utility.yul\":16835:16839   */\n      0x00\n        /* \"#utility.yul\":16873:16875   */\n      0x20\n        /* \"#utility.yul\":16862:16871   */\n      dup3\n        /* \"#utility.yul\":16858:16876   */\n      add\n        /* \"#utility.yul\":16850:16876   */\n      swap1\n      pop\n        /* \"#utility.yul\":16922:16931   */\n      dup2\n        /* \"#utility.yul\":16916:16920   */\n      dup2\n        /* \"#utility.yul\":16912:16932   */\n      sub\n        /* \"#utility.yul\":16908:16909   */\n      0x00\n        /* \"#utility.yul\":16897:16906   */\n      dup4\n        /* \"#utility.yul\":16893:16910   */\n      add\n        /* \"#utility.yul\":16886:16933   */\n      mstore\n        /* \"#utility.yul\":16950:17028   */\n      tag_908\n        /* \"#utility.yul\":17023:17027   */\n      dup2\n        /* \"#utility.yul\":17014:17020   */\n      dup5\n        /* \"#utility.yul\":16950:17028   */\n      tag_813\n      jump\t// in\n    tag_908:\n        /* \"#utility.yul\":16942:17028   */\n      swap1\n      pop\n        /* \"#utility.yul\":16722:17035   */\n      swap3\n      swap2\n      pop\n      pop\n      jump\t// out\n        /* \"#utility.yul\":17041:17460   */\n    tag_576:\n        /* \"#utility.yul\":17207:17211   */\n      0x00\n        /* \"#utility.yul\":17245:17247   */\n      0x20\n        /* \"#utility.yul\":17234:17243   */\n      dup3\n        /* \"#utility.yul\":17230:17248   */\n      add\n        /* \"#utility.yul\":17222:17248   */\n      swap1\n      pop\n        /* \"#utility.yul\":17294:17303   */\n      dup2\n        /* \"#utility.yul\":17288:17292   */\n      dup2\n        /* \"#utility.yul\":17284:17304   */\n      sub\n        /* \"#utility.yul\":17280:17281   */\n      0x00\n        /* \"#utility.yul\":17269:17278   */\n      dup4\n        /* \"#utility.yul\":17265:17282   */\n      add\n        /* \"#utility.yul\":17258:17305   */\n      mstore\n        /* \"#utility.yul\":17322:17453   */\n      tag_910\n        /* \"#utility.yul\":17448:17452   */\n      dup2\n        /* \"#utility.yul\":17322:17453   */\n      tag_823\n      jump\t// in\n    tag_910:\n        /* \"#utility.yul\":17314:17453   */\n      swap1\n      pop\n        /* \"#utility.yul\":17041:17460   */\n      swap2\n      swap1\n      pop\n      jump\t// out\n        /* \"#utility.yul\":17466:17885   */\n    tag_247:\n        /* \"#utility.yul\":17632:17636   */\n      0x00\n        /* \"#utility.yul\":17670:17672   */\n      0x20\n        /* \"#utility.yul\":17659:17668   */\n      dup3\n        /* \"#utility.yul\":17655:17673   */\n      add\n        /* \"#utility.yul\":17647:17673   */\n      swap1\n      pop\n        /* \"#utility.yul\":17719:17728   */\n      dup2\n        /* \"#utility.yul\":17713:17717   */\n      dup2\n        /* \"#utility.yul\":17709:17729   */\n      sub\n        /* \"#utility.yul\":17705:17706   */\n      0x00\n        /* \"#utility.yul\":17694:17703   */\n      dup4\n        /* \"#utility.yul\":17690:17707   */\n      add\n        /* \"#utility.yul\":17683:17730   */\n      mstore\n        /* \"#utility.yul\":17747:17878   */\n      tag_912\n        /* \"#utility.yul\":17873:17877   */\n      dup2\n        /* \"#utility.yul\":17747:17878   */\n      tag_828\n      jump\t// in\n    tag_912:\n        /* \"#utility.yul\":17739:17878   */\n      swap1\n      pop\n        /* \"#utility.yul\":17466:17885   */\n      swap2\n      swap1\n      pop\n      jump\t// out\n        /* \"#utility.yul\":17891:18310   */\n    tag_496:\n        /* \"#utility.yul\":18057:18061   */\n      0x00\n        /* \"#utility.yul\":18095:18097   */\n      0x20\n        /* \"#utility.yul\":18084:18093   */\n      dup3\n        /* \"#utility.yul\":18080:18098   */\n      add\n        /* \"#utility.yul\":18072:18098   */\n      swap1\n      pop\n        /* \"#utility.yul\":18144:18153   */\n      dup2\n        /* \"#utility.yul\":18138:18142   */\n      dup2\n        /* \"#utility.yul\":18134:18154   */\n      sub\n        /* \"#utility.yul\":18130:18131   */\n      0x00\n        /* \"#utility.yul\":18119:18128   */\n      dup4\n        /* \"#utility.yul\":18115:18132   */\n      add\n        /* \"#utility.yul\":18108:18155   */\n      mstore\n        /* \"#utility.yul\":18172:18303   */\n      tag_914\n        /* \"#utility.yul\":18298:18302   */\n      dup2\n        /* \"#utility.yul\":18172:18303   */\n      tag_833\n      jump\t// in\n    tag_914:\n        /* \"#utility.yul\":18164:18303   */\n      swap1\n      pop\n        /* \"#utility.yul\":17891:18310   */\n      swap2\n      swap1\n      pop\n      jump\t// out\n        /* \"#utility.yul\":18316:18735   */\n    tag_236:\n        /* \"#utility.yul\":18482:18486   */\n      0x00\n        /* \"#utility.yul\":18520:18522   */\n      0x20\n        /* \"#utility.yul\":18509:18518   */\n      dup3\n        /* \"#utility.yul\":18505:18523   */\n      add\n        /* \"#utility.yul\":18497:18523   */\n      swap1\n      pop\n        /* \"#utility.yul\":18569:18578   */\n      dup2\n        /* \"#utility.yul\":18563:18567   */\n      dup2\n        /* \"#utility.yul\":18559:18579   */\n      sub\n        /* \"#utility.yul\":18555:18556   */\n      0x00\n        /* \"#utility.yul\":18544:18553   */\n      dup4\n        /* \"#utility.yul\":18540:18557   */\n      add\n        /* \"#utility.yul\":18533:18580   */\n      mstore\n        /* \"#utility.yul\":18597:18728   */\n      tag_916\n        /* \"#utility.yul\":18723:18727   */\n      dup2\n        /* \"#utility.yul\":18597:18728   */\n      tag_838\n      jump\t// in\n    tag_916:\n        /* \"#utility.yul\":18589:18728   */\n      swap1\n      pop\n        /* \"#utility.yul\":18316:18735   */\n      swap2\n      swap1\n      pop\n      jump\t// out\n        /* \"#utility.yul\":18741:19160   */\n    tag_453:\n        /* \"#utility.yul\":18907:18911   */\n      0x00\n        /* \"#utility.yul\":18945:18947   */\n      0x20\n        /* \"#utility.yul\":18934:18943   */\n      dup3\n        /* \"#utility.yul\":18930:18948   */\n      add\n        /* \"#utility.yul\":18922:18948   */\n      swap1\n      pop\n        /* \"#utility.yul\":18994:19003   */\n      dup2\n        /* \"#utility.yul\":18988:18992   */\n      dup2\n        /* \"#utility.yul\":18984:19004   */\n      sub\n        /* \"#utility.yul\":18980:18981   */\n      0x00\n        /* \"#utility.yul\":18969:18978   */\n      dup4\n        /* \"#utility.yul\":18965:18982   */\n      add\n        /* \"#utility.yul\":18958:19005   */\n      mstore\n        /* \"#utility.yul\":19022:19153   */\n      tag_918\n        /* \"#utility.yul\":19148:19152   */\n      dup2\n        /* \"#utility.yul\":19022:19153   */\n      tag_843\n      jump\t// in\n    tag_918:\n        /* \"#utility.yul\":19014:19153   */\n      swap1\n      pop\n        /* \"#utility.yul\":18741:19160   */\n      swap2\n      swap1\n      pop\n      jump\t// out\n        /* \"#utility.yul\":19166:19585   */\n    tag_626:\n        /* \"#utility.yul\":19332:19336   */\n      0x00\n        /* \"#utility.yul\":19370:19372   */\n      0x20\n        /* \"#utility.yul\":19359:19368   */\n      dup3\n        /* \"#utility.yul\":19355:19373   */\n      add\n        /* \"#utility.yul\":19347:19373   */\n      swap1\n      pop\n        /* \"#utility.yul\":19419:19428   */\n      dup2\n        /* \"#utility.yul\":19413:19417   */\n      dup2\n        /* \"#utility.yul\":19409:19429   */\n      sub\n        /* \"#utility.yul\":19405:19406   */\n      0x00\n        /* \"#utility.yul\":19394:19403   */\n      dup4\n        /* \"#utility.yul\":19390:19407   */\n      add\n        /* \"#utility.yul\":19383:19430   */\n      mstore\n        /* \"#utility.yul\":19447:19578   */\n      tag_920\n        /* \"#utility.yul\":19573:19577   */\n      dup2\n        /* \"#utility.yul\":19447:19578   */\n      tag_848\n      jump\t// in\n    tag_920:\n        /* \"#utility.yul\":19439:19578   */\n      swap1\n      pop\n        /* \"#utility.yul\":19166:19585   */\n      swap2\n      swap1\n      pop\n      jump\t// out\n        /* \"#utility.yul\":19591:20010   */\n    tag_130:\n        /* \"#utility.yul\":19757:19761   */\n      0x00\n        /* \"#utility.yul\":19795:19797   */\n      0x20\n        /* \"#utility.yul\":19784:19793   */\n      dup3\n        /* \"#utility.yul\":19780:19798   */\n      add\n        /* \"#utility.yul\":19772:19798   */\n      swap1\n      pop\n        /* \"#utility.yul\":19844:19853   */\n      dup2\n        /* \"#utility.yul\":19838:19842   */\n      dup2\n        /* \"#utility.yul\":19834:19854   */\n      sub\n        /* \"#utility.yul\":19830:19831   */\n      0x00\n        /* \"#utility.yul\":19819:19828   */\n      dup4\n        /* \"#utility.yul\":19815:19832   */\n      add\n        /* \"#utility.yul\":19808:19855   */\n      mstore\n        /* \"#utility.yul\":19872:20003   */\n      tag_922\n        /* \"#utility.yul\":19998:20002   */\n      dup2\n        /* \"#utility.yul\":19872:20003   */\n      tag_853\n      jump\t// in\n    tag_922:\n        /* \"#utility.yul\":19864:20003   */\n      swap1\n      pop\n        /* \"#utility.yul\":19591:20010   */\n      swap2\n      swap1\n      pop\n      jump\t// out\n        /* \"#utility.yul\":20016:20435   */\n    tag_389:\n        /* \"#utility.yul\":20182:20186   */\n      0x00\n        /* \"#utility.yul\":20220:20222   */\n      0x20\n        /* \"#utility.yul\":20209:20218   */\n      dup3\n        /* \"#utility.yul\":20205:20223   */\n      add\n        /* \"#utility.yul\":20197:20223   */\n      swap1\n      pop\n        /* \"#utility.yul\":20269:20278   */\n      dup2\n        /* \"#utility.yul\":20263:20267   */\n      dup2\n        /* \"#utility.yul\":20259:20279   */\n      sub\n        /* \"#utility.yul\":20255:20256   */\n      0x00\n        /* \"#utility.yul\":20244:20253   */\n      dup4\n        /* \"#utility.yul\":20240:20257   */\n      add\n        /* \"#utility.yul\":20233:20280   */\n      mstore\n        /* \"#utility.yul\":20297:20428   */\n      tag_924\n        /* \"#utility.yul\":20423:20427   */\n      dup2\n        /* \"#utility.yul\":20297:20428   */\n      tag_858\n      jump\t// in\n    tag_924:\n        /* \"#utility.yul\":20289:20428   */\n      swap1\n      pop\n        /* \"#utility.yul\":20016:20435   */\n      swap2\n      swap1\n      pop\n      jump\t// out\n        /* \"#utility.yul\":20441:20860   */\n    tag_484:\n        /* \"#utility.yul\":20607:20611   */\n      0x00\n        /* \"#utility.yul\":20645:20647   */\n      0x20\n        /* \"#utility.yul\":20634:20643   */\n      dup3\n        /* \"#utility.yul\":20630:20648   */\n      add\n        /* \"#utility.yul\":20622:20648   */\n      swap1\n      pop\n        /* \"#utility.yul\":20694:20703   */\n      dup2\n        /* \"#utility.yul\":20688:20692   */\n      dup2\n        /* \"#utility.yul\":20684:20704   */\n      sub\n        /* \"#utility.yul\":20680:20681   */\n      0x00\n        /* \"#utility.yul\":20669:20678   */\n      dup4\n        /* \"#utility.yul\":20665:20682   */\n      add\n        /* \"#utility.yul\":20658:20705   */\n      mstore\n        /* \"#utility.yul\":20722:20853   */\n      tag_926\n        /* \"#utility.yul\":20848:20852   */\n      dup2\n        /* \"#utility.yul\":20722:20853   */\n      tag_863\n      jump\t// in\n    tag_926:\n        /* \"#utility.yul\":20714:20853   */\n      swap1\n      pop\n        /* \"#utility.yul\":20441:20860   */\n      swap2\n      swap1\n      pop\n      jump\t// out\n        /* \"#utility.yul\":20866:21285   */\n    tag_294:\n        /* \"#utility.yul\":21032:21036   */\n      0x00\n        /* \"#utility.yul\":21070:21072   */\n      0x20\n        /* \"#utility.yul\":21059:21068   */\n      dup3\n        /* \"#utility.yul\":21055:21073   */\n      add\n        /* \"#utility.yul\":21047:21073   */\n      swap1\n      pop\n        /* \"#utility.yul\":21119:21128   */\n      dup2\n        /* \"#utility.yul\":21113:21117   */\n      dup2\n        /* \"#utility.yul\":21109:21129   */\n      sub\n        /* \"#utility.yul\":21105:21106   */\n      0x00\n        /* \"#utility.yul\":21094:21103   */\n      dup4\n        /* \"#utility.yul\":21090:21107   */\n      add\n        /* \"#utility.yul\":21083:21130   */\n      mstore\n        /* \"#utility.yul\":21147:21278   */\n      tag_928\n        /* \"#utility.yul\":21273:21277   */\n      dup2\n        /* \"#utility.yul\":21147:21278   */\n      tag_868\n      jump\t// in\n    tag_928:\n        /* \"#utility.yul\":21139:21278   */\n      swap1\n      pop\n        /* \"#utility.yul\":20866:21285   */\n      swap2\n      swap1\n      pop\n      jump\t// out\n        /* \"#utility.yul\":21291:21710   */\n    tag_392:\n        /* \"#utility.yul\":21457:21461   */\n      0x00\n        /* \"#utility.yul\":21495:21497   */\n      0x20\n        /* \"#utility.yul\":21484:21493   */\n      dup3\n        /* \"#utility.yul\":21480:21498   */\n      add\n        /* \"#utility.yul\":21472:21498   */\n      swap1\n      pop\n        /* \"#utility.yul\":21544:21553   */\n      dup2\n        /* \"#utility.yul\":21538:21542   */\n      dup2\n        /* \"#utility.yul\":21534:21554   */\n      sub\n        /* \"#utility.yul\":21530:21531   */\n      0x00\n        /* \"#utility.yul\":21519:21528   */\n      dup4\n        /* \"#utility.yul\":21515:21532   */\n      add\n        /* \"#utility.yul\":21508:21555   */\n      mstore\n        /* \"#utility.yul\":21572:21703   */\n      tag_930\n        /* \"#utility.yul\":21698:21702   */\n      dup2\n        /* \"#utility.yul\":21572:21703   */\n      tag_873\n      jump\t// in\n    tag_930:\n        /* \"#utility.yul\":21564:21703   */\n      swap1\n      pop\n        /* \"#utility.yul\":21291:21710   */\n      swap2\n      swap1\n      pop\n      jump\t// out\n        /* \"#utility.yul\":21716:22135   */\n    tag_219:\n        /* \"#utility.yul\":21882:21886   */\n      0x00\n        /* \"#utility.yul\":21920:21922   */\n      0x20\n        /* \"#utility.yul\":21909:21918   */\n      dup3\n        /* \"#utility.yul\":21905:21923   */\n      add\n        /* \"#utility.yul\":21897:21923   */\n      swap1\n      pop\n        /* \"#utility.yul\":21969:21978   */\n      dup2\n        /* \"#utility.yul\":21963:21967   */\n      dup2\n        /* \"#utility.yul\":21959:21979   */\n      sub\n        /* \"#utility.yul\":21955:21956   */\n      0x00\n        /* \"#utility.yul\":21944:21953   */\n      dup4\n        /* \"#utility.yul\":21940:21957   */\n      add\n        /* \"#utility.yul\":21933:21980   */\n      mstore\n        /* \"#utility.yul\":21997:22128   */\n      tag_932\n        /* \"#utility.yul\":22123:22127   */\n      dup2\n        /* \"#utility.yul\":21997:22128   */\n      tag_878\n      jump\t// in\n    tag_932:\n        /* \"#utility.yul\":21989:22128   */\n      swap1\n      pop\n        /* \"#utility.yul\":21716:22135   */\n      swap2\n      swap1\n      pop\n      jump\t// out\n        /* \"#utility.yul\":22141:22560   */\n    tag_290:\n        /* \"#utility.yul\":22307:22311   */\n      0x00\n        /* \"#utility.yul\":22345:22347   */\n      0x20\n        /* \"#utility.yul\":22334:22343   */\n      dup3\n        /* \"#utility.yul\":22330:22348   */\n      add\n        /* \"#utility.yul\":22322:22348   */\n      swap1\n      pop\n        /* \"#utility.yul\":22394:22403   */\n      dup2\n        /* \"#utility.yul\":22388:22392   */\n      dup2\n        /* \"#utility.yul\":22384:22404   */\n      sub\n        /* \"#utility.yul\":22380:22381   */\n      0x00\n        /* \"#utility.yul\":22369:22378   */\n      dup4\n        /* \"#utility.yul\":22365:22382   */\n      add\n        /* \"#utility.yul\":22358:22405   */\n      mstore\n        /* \"#utility.yul\":22422:22553   */\n      tag_934\n        /* \"#utility.yul\":22548:22552   */\n      dup2\n        /* \"#utility.yul\":22422:22553   */\n      tag_883\n      jump\t// in\n    tag_934:\n        /* \"#utility.yul\":22414:22553   */\n      swap1\n      pop\n        /* \"#utility.yul\":22141:22560   */\n      swap2\n      swap1\n      pop\n      jump\t// out\n        /* \"#utility.yul\":22566:22788   */\n    tag_66:\n        /* \"#utility.yul\":22659:22663   */\n      0x00\n        /* \"#utility.yul\":22697:22699   */\n      0x20\n        /* \"#utility.yul\":22686:22695   */\n      dup3\n        /* \"#utility.yul\":22682:22700   */\n      add\n        /* \"#utility.yul\":22674:22700   */\n      swap1\n      pop\n        /* \"#utility.yul\":22710:22781   */\n      tag_936\n        /* \"#utility.yul\":22778:22779   */\n      0x00\n        /* \"#utility.yul\":22767:22776   */\n      dup4\n        /* \"#utility.yul\":22763:22780   */\n      add\n        /* \"#utility.yul\":22754:22760   */\n      dup5\n        /* \"#utility.yul\":22710:22781   */\n      tag_891\n      jump\t// in\n    tag_936:\n        /* \"#utility.yul\":22566:22788   */\n      swap3\n      swap2\n      pop\n      pop\n      jump\t// out\n        /* \"#utility.yul\":22794:23236   */\n    tag_86:\n        /* \"#utility.yul\":22943:22947   */\n      0x00\n        /* \"#utility.yul\":22981:22983   */\n      0x60\n        /* \"#utility.yul\":22970:22979   */\n      dup3\n        /* \"#utility.yul\":22966:22984   */\n      add\n        /* \"#utility.yul\":22958:22984   */\n      swap1\n      pop\n        /* \"#utility.yul\":22994:23065   */\n      tag_938\n        /* \"#utility.yul\":23062:23063   */\n      0x00\n        /* \"#utility.yul\":23051:23060   */\n      dup4\n        /* \"#utility.yul\":23047:23064   */\n      add\n        /* \"#utility.yul\":23038:23044   */\n      dup7\n        /* \"#utility.yul\":22994:23065   */\n      tag_891\n      jump\t// in\n    tag_938:\n        /* \"#utility.yul\":23075:23147   */\n      tag_939\n        /* \"#utility.yul\":23143:23145   */\n      0x20\n        /* \"#utility.yul\":23132:23141   */\n      dup4\n        /* \"#utility.yul\":23128:23146   */\n      add\n        /* \"#utility.yul\":23119:23125   */\n      dup6\n        /* \"#utility.yul\":23075:23147   */\n      tag_891\n      jump\t// in\n    tag_939:\n        /* \"#utility.yul\":23157:23229   */\n      tag_940\n        /* \"#utility.yul\":23225:23227   */\n      0x40\n        /* \"#utility.yul\":23214:23223   */\n      dup4\n        /* \"#utility.yul\":23210:23228   */\n      add\n        /* \"#utility.yul\":23201:23207   */\n      dup5\n        /* \"#utility.yul\":23157:23229   */\n      tag_891\n      jump\t// in\n    tag_940:\n        /* \"#utility.yul\":22794:23236   */\n      swap5\n      swap4\n      pop\n      pop\n      pop\n      pop\n      jump\t// out\n        /* \"#utility.yul\":23242:23371   */\n    tag_679:\n        /* \"#utility.yul\":23276:23282   */\n      0x00\n        /* \"#utility.yul\":23303:23323   */\n      tag_942\n      tag_943\n      jump\t// in\n    tag_942:\n        /* \"#utility.yul\":23293:23323   */\n      swap1\n      pop\n        /* \"#utility.yul\":23332:23365   */\n      tag_944\n        /* \"#utility.yul\":23360:23364   */\n      dup3\n        /* \"#utility.yul\":23352:23358   */\n      dup3\n        /* \"#utility.yul\":23332:23365   */\n      tag_945\n      jump\t// in\n    tag_944:\n        /* \"#utility.yul\":23242:23371   */\n      swap2\n      swap1\n      pop\n      jump\t// out\n        /* \"#utility.yul\":23377:23452   */\n    tag_943:\n        /* \"#utility.yul\":23410:23416   */\n      0x00\n        /* \"#utility.yul\":23443:23445   */\n      0x40\n        /* \"#utility.yul\":23437:23446   */\n      mload\n        /* \"#utility.yul\":23427:23446   */\n      swap1\n      pop\n        /* \"#utility.yul\":23377:23452   */\n      swap1\n      jump\t// out\n        /* \"#utility.yul\":23458:23766   */\n    tag_678:\n        /* \"#utility.yul\":23520:23524   */\n      0x00\n        /* \"#utility.yul\":23610:23628   */\n      0xffffffffffffffff\n        /* \"#utility.yul\":23602:23608   */\n      dup3\n        /* \"#utility.yul\":23599:23629   */\n      gt\n        /* \"#utility.yul\":23596:23652   */\n      iszero\n      tag_948\n      jumpi\n        /* \"#utility.yul\":23632:23650   */\n      tag_949\n      tag_534\n      jump\t// in\n    tag_949:\n        /* \"#utility.yul\":23596:23652   */\n    tag_948:\n        /* \"#utility.yul\":23670:23699   */\n      tag_950\n        /* \"#utility.yul\":23692:23698   */\n      dup3\n        /* \"#utility.yul\":23670:23699   */\n      tag_822\n      jump\t// in\n    tag_950:\n        /* \"#utility.yul\":23662:23699   */\n      swap1\n      pop\n        /* \"#utility.yul\":23754:23758   */\n      0x20\n        /* \"#utility.yul\":23748:23752   */\n      dup2\n        /* \"#utility.yul\":23744:23759   */\n      add\n        /* \"#utility.yul\":23736:23759   */\n      swap1\n      pop\n        /* \"#utility.yul\":23458:23766   */\n      swap2\n      swap1\n      pop\n      jump\t// out\n        /* \"#utility.yul\":23772:23904   */\n    tag_788:\n        /* \"#utility.yul\":23839:23843   */\n      0x00\n        /* \"#utility.yul\":23862:23865   */\n      dup2\n        /* \"#utility.yul\":23854:23865   */\n      swap1\n      pop\n        /* \"#utility.yul\":23892:23896   */\n      0x20\n        /* \"#utility.yul\":23887:23890   */\n      dup3\n        /* \"#utility.yul\":23883:23897   */\n      add\n        /* \"#utility.yul\":23875:23897   */\n      swap1\n      pop\n        /* \"#utility.yul\":23772:23904   */\n      swap2\n      swap1\n      pop\n      jump\t// out\n        /* \"#utility.yul\":23910:24042   */\n    tag_802:\n        /* \"#utility.yul\":23977:23981   */\n      0x00\n        /* \"#utility.yul\":24000:24003   */\n      dup2\n        /* \"#utility.yul\":23992:24003   */\n      swap1\n      pop\n        /* \"#utility.yul\":24030:24034   */\n      0x20\n        /* \"#utility.yul\":24025:24028   */\n      dup3\n        /* \"#utility.yul\":24021:24035   */\n      add\n        /* \"#utility.yul\":24013:24035   */\n      swap1\n      pop\n        /* \"#utility.yul\":23910:24042   */\n      swap2\n      swap1\n      pop\n      jump\t// out\n        /* \"#utility.yul\":24048:24162   */\n    tag_784:\n        /* \"#utility.yul\":24115:24121   */\n      0x00\n        /* \"#utility.yul\":24149:24154   */\n      dup2\n        /* \"#utility.yul\":24143:24155   */\n      mload\n        /* \"#utility.yul\":24133:24155   */\n      swap1\n      pop\n        /* \"#utility.yul\":24048:24162   */\n      swap2\n      swap1\n      pop\n      jump\t// out\n        /* \"#utility.yul\":24168:24282   */\n    tag_798:\n        /* \"#utility.yul\":24235:24241   */\n      0x00\n        /* \"#utility.yul\":24269:24274   */\n      dup2\n        /* \"#utility.yul\":24263:24275   */\n      mload\n        /* \"#utility.yul\":24253:24275   */\n      swap1\n      pop\n        /* \"#utility.yul\":24168:24282   */\n      swap2\n      swap1\n      pop\n      jump\t// out\n        /* \"#utility.yul\":24288:24387   */\n    tag_816:\n        /* \"#utility.yul\":24340:24346   */\n      0x00\n        /* \"#utility.yul\":24374:24379   */\n      dup2\n        /* \"#utility.yul\":24368:24380   */\n      mload\n        /* \"#utility.yul\":24358:24380   */\n      swap1\n      pop\n        /* \"#utility.yul\":24288:24387   */\n      swap2\n      swap1\n      pop\n      jump\t// out\n        /* \"#utility.yul\":24393:24506   */\n    tag_794:\n        /* \"#utility.yul\":24463:24467   */\n      0x00\n        /* \"#utility.yul\":24495:24499   */\n      0x20\n        /* \"#utility.yul\":24490:24493   */\n      dup3\n        /* \"#utility.yul\":24486:24500   */\n      add\n        /* \"#utility.yul\":24478:24500   */\n      swap1\n      pop\n        /* \"#utility.yul\":24393:24506   */\n      swap2\n      swap1\n      pop\n      jump\t// out\n        /* \"#utility.yul\":24512:24625   */\n    tag_808:\n        /* \"#utility.yul\":24582:24586   */\n      0x00\n        /* \"#utility.yul\":24614:24618   */\n      0x20\n        /* \"#utility.yul\":24609:24612   */\n      dup3\n        /* \"#utility.yul\":24605:24619   */\n      add\n        /* \"#utility.yul\":24597:24619   */\n      swap1\n      pop\n        /* \"#utility.yul\":24512:24625   */\n      swap2\n      swap1\n      pop\n      jump\t// out\n        /* \"#utility.yul\":24631:24815   */\n    tag_786:\n        /* \"#utility.yul\":24730:24741   */\n      0x00\n        /* \"#utility.yul\":24764:24770   */\n      dup3\n        /* \"#utility.yul\":24759:24762   */\n      dup3\n        /* \"#utility.yul\":24752:24771   */\n      mstore\n        /* \"#utility.yul\":24804:24808   */\n      0x20\n        /* \"#utility.yul\":24799:24802   */\n      dup3\n        /* \"#utility.yul\":24795:24809   */\n      add\n        /* \"#utility.yul\":24780:24809   */\n      swap1\n      pop\n        /* \"#utility.yul\":24631:24815   */\n      swap3\n      swap2\n      pop\n      pop\n      jump\t// out\n        /* \"#utility.yul\":24821:25005   */\n    tag_800:\n        /* \"#utility.yul\":24920:24931   */\n      0x00\n        /* \"#utility.yul\":24954:24960   */\n      dup3\n        /* \"#utility.yul\":24949:24952   */\n      dup3\n        /* \"#utility.yul\":24942:24961   */\n      mstore\n        /* \"#utility.yul\":24994:24998   */\n      0x20\n        /* \"#utility.yul\":24989:24992   */\n      dup3\n        /* \"#utility.yul\":24985:24999   */\n      add\n        /* \"#utility.yul\":24970:24999   */\n      swap1\n      pop\n        /* \"#utility.yul\":24821:25005   */\n      swap3\n      swap2\n      pop\n      pop\n      jump\t// out\n        /* \"#utility.yul\":25011:25180   */\n    tag_818:\n        /* \"#utility.yul\":25095:25106   */\n      0x00\n        /* \"#utility.yul\":25129:25135   */\n      dup3\n        /* \"#utility.yul\":25124:25127   */\n      dup3\n        /* \"#utility.yul\":25117:25136   */\n      mstore\n        /* \"#utility.yul\":25169:25173   */\n      0x20\n        /* \"#utility.yul\":25164:25167   */\n      dup3\n        /* \"#utility.yul\":25160:25174   */\n      add\n        /* \"#utility.yul\":25145:25174   */\n      swap1\n      pop\n        /* \"#utility.yul\":25011:25180   */\n      swap3\n      swap2\n      pop\n      pop\n      jump\t// out\n        /* \"#utility.yul\":25186:25491   */\n    tag_244:\n        /* \"#utility.yul\":25226:25229   */\n      0x00\n        /* \"#utility.yul\":25245:25265   */\n      tag_962\n        /* \"#utility.yul\":25263:25264   */\n      dup3\n        /* \"#utility.yul\":25245:25265   */\n      tag_890\n      jump\t// in\n    tag_962:\n        /* \"#utility.yul\":25240:25265   */\n      swap2\n      pop\n        /* \"#utility.yul\":25279:25299   */\n      tag_963\n        /* \"#utility.yul\":25297:25298   */\n      dup4\n        /* \"#utility.yul\":25279:25299   */\n      tag_890\n      jump\t// in\n    tag_963:\n        /* \"#utility.yul\":25274:25299   */\n      swap3\n      pop\n        /* \"#utility.yul\":25433:25434   */\n      dup3\n        /* \"#utility.yul\":25365:25431   */\n      0xffffffffffffffffffffffffffffffffffffffffffffffffffffffffffffffff\n        /* \"#utility.yul\":25361:25435   */\n      sub\n        /* \"#utility.yul\":25358:25359   */\n      dup3\n        /* \"#utility.yul\":25355:25436   */\n      gt\n        /* \"#utility.yul\":25352:25459   */\n      iszero\n      tag_964\n      jumpi\n        /* \"#utility.yul\":25439:25457   */\n      tag_965\n      tag_966\n      jump\t// in\n    tag_965:\n        /* \"#utility.yul\":25352:25459   */\n    tag_964:\n        /* \"#utility.yul\":25483:25484   */\n      dup3\n        /* \"#utility.yul\":25480:25481   */\n      dup3\n        /* \"#utility.yul\":25476:25485   */\n      add\n        /* \"#utility.yul\":25469:25485   */\n      swap1\n      pop\n        /* \"#utility.yul\":25186:25491   */\n      swap3\n      swap2\n      pop\n      pop\n      jump\t// out\n        /* \"#utility.yul\":25497:25688   */\n    tag_462:\n        /* \"#utility.yul\":25537:25541   */\n      0x00\n        /* \"#utility.yul\":25557:25577   */\n      tag_968\n        /* \"#utility.yul\":25575:25576   */\n      dup3\n        /* \"#utility.yul\":25557:25577   */\n      tag_890\n      jump\t// in\n    tag_968:\n        /* \"#utility.yul\":25552:25577   */\n      swap2\n      pop\n        /* \"#utility.yul\":25591:25611   */\n      tag_969\n        /* \"#utility.yul\":25609:25610   */\n      dup4\n        /* \"#utility.yul\":25591:25611   */\n      tag_890\n      jump\t// in\n    tag_969:\n        /* \"#utility.yul\":25586:25611   */\n      swap3\n      pop\n        /* \"#utility.yul\":25630:25631   */\n      dup3\n        /* \"#utility.yul\":25627:25628   */\n      dup3\n        /* \"#utility.yul\":25624:25632   */\n      lt\n        /* \"#utility.yul\":25621:25655   */\n      iszero\n      tag_970\n      jumpi\n        /* \"#utility.yul\":25635:25653   */\n      tag_971\n      tag_966\n      jump\t// in\n    tag_971:\n        /* \"#utility.yul\":25621:25655   */\n    tag_970:\n        /* \"#utility.yul\":25680:25681   */\n      dup3\n        /* \"#utility.yul\":25677:25678   */\n      dup3\n        /* \"#utility.yul\":25673:25682   */\n      sub\n        /* \"#utility.yul\":25665:25682   */\n      swap1\n      pop\n        /* \"#utility.yul\":25497:25688   */\n      swap3\n      swap2\n      pop\n      pop\n      jump\t// out\n        /* \"#utility.yul\":25694:25790   */\n    tag_777:\n        /* \"#utility.yul\":25731:25738   */\n      0x00\n        /* \"#utility.yul\":25760:25784   */\n      tag_973\n        /* \"#utility.yul\":25778:25783   */\n      dup3\n        /* \"#utility.yul\":25760:25784   */\n      tag_974\n      jump\t// in\n    tag_973:\n        /* \"#utility.yul\":25749:25784   */\n      swap1\n      pop\n        /* \"#utility.yul\":25694:25790   */\n      swap2\n      swap1\n      pop\n      jump\t// out\n        /* \"#utility.yul\":25796:25886   */\n    tag_975:\n        /* \"#utility.yul\":25830:25837   */\n      0x00\n        /* \"#utility.yul\":25873:25878   */\n      dup2\n        /* \"#utility.yul\":25866:25879   */\n      iszero\n        /* \"#utility.yul\":25859:25880   */\n      iszero\n        /* \"#utility.yul\":25848:25880   */\n      swap1\n      pop\n        /* \"#utility.yul\":25796:25886   */\n      swap2\n      swap1\n      pop\n      jump\t// out\n        /* \"#utility.yul\":25892:26035   */\n    tag_977:\n        /* \"#utility.yul\":25945:25952   */\n      0x00\n        /* \"#utility.yul\":25974:25979   */\n      dup2\n        /* \"#utility.yul\":25963:25979   */\n      swap1\n      pop\n        /* \"#utility.yul\":25980:26029   */\n      tag_979\n        /* \"#utility.yul\":26023:26028   */\n      dup3\n        /* \"#utility.yul\":25980:26029   */\n      tag_980\n      jump\t// in\n    tag_979:\n        /* \"#utility.yul\":25892:26035   */\n      swap2\n      swap1\n      pop\n      jump\t// out\n        /* \"#utility.yul\":26041:26167   */\n    tag_974:\n        /* \"#utility.yul\":26078:26085   */\n      0x00\n        /* \"#utility.yul\":26118:26160   */\n      0xffffffffffffffffffffffffffffffffffffffff\n        /* \"#utility.yul\":26111:26116   */\n      dup3\n        /* \"#utility.yul\":26107:26161   */\n      and\n        /* \"#utility.yul\":26096:26161   */\n      swap1\n      pop\n        /* \"#utility.yul\":26041:26167   */\n      swap2\n      swap1\n      pop\n      jump\t// out\n        /* \"#utility.yul\":26173:26250   */\n    tag_890:\n        /* \"#utility.yul\":26210:26217   */\n      0x00\n        /* \"#utility.yul\":26239:26244   */\n      dup2\n        /* \"#utility.yul\":26228:26244   */\n      swap1\n      pop\n        /* \"#utility.yul\":26173:26250   */\n      swap2\n      swap1\n      pop\n      jump\t// out\n        /* \"#utility.yul\":26256:26342   */\n    tag_983:\n        /* \"#utility.yul\":26291:26298   */\n      0x00\n        /* \"#utility.yul\":26331:26335   */\n      0xff\n        /* \"#utility.yul\":26324:26329   */\n      dup3\n        /* \"#utility.yul\":26320:26336   */\n      and\n        /* \"#utility.yul\":26309:26336   */\n      swap1\n      pop\n        /* \"#utility.yul\":26256:26342   */\n      swap2\n      swap1\n      pop\n      jump\t// out\n        /* \"#utility.yul\":26348:26491   */\n    tag_812:\n        /* \"#utility.yul\":26412:26421   */\n      0x00\n        /* \"#utility.yul\":26445:26485   */\n      tag_986\n        /* \"#utility.yul\":26479:26484   */\n      dup3\n        /* \"#utility.yul\":26445:26485   */\n      tag_977\n      jump\t// in\n    tag_986:\n        /* \"#utility.yul\":26432:26485   */\n      swap1\n      pop\n        /* \"#utility.yul\":26348:26491   */\n      swap2\n      swap1\n      pop\n      jump\t// out\n        /* \"#utility.yul\":26497:26651   */\n    tag_684:\n        /* \"#utility.yul\":26581:26587   */\n      dup3\n        /* \"#utility.yul\":26576:26579   */\n      dup2\n        /* \"#utility.yul\":26571:26574   */\n      dup4\n        /* \"#utility.yul\":26558:26588   */\n      calldatacopy\n        /* \"#utility.yul\":26643:26644   */\n      0x00\n        /* \"#utility.yul\":26634:26640   */\n      dup4\n        /* \"#utility.yul\":26629:26632   */\n      dup4\n        /* \"#utility.yul\":26625:26641   */\n      add\n        /* \"#utility.yul\":26618:26645   */\n      mstore\n        /* \"#utility.yul\":26497:26651   */\n      pop\n      pop\n      pop\n      jump\t// out\n        /* \"#utility.yul\":26657:26964   */\n    tag_820:\n        /* \"#utility.yul\":26725:26726   */\n      0x00\n        /* \"#utility.yul\":26735:26848   */\n    tag_989:\n        /* \"#utility.yul\":26749:26755   */\n      dup4\n        /* \"#utility.yul\":26746:26747   */\n      dup2\n        /* \"#utility.yul\":26743:26756   */\n      lt\n        /* \"#utility.yul\":26735:26848   */\n      iszero\n      tag_991\n      jumpi\n        /* \"#utility.yul\":26834:26835   */\n      dup1\n        /* \"#utility.yul\":26829:26832   */\n      dup3\n        /* \"#utility.yul\":26825:26836   */\n      add\n        /* \"#utility.yul\":26819:26837   */\n      mload\n        /* \"#utility.yul\":26815:26816   */\n      dup2\n        /* \"#utility.yul\":26810:26813   */\n      dup5\n        /* \"#utility.yul\":26806:26817   */\n      add\n        /* \"#utility.yul\":26799:26838   */\n      mstore\n        /* \"#utility.yul\":26771:26773   */\n      0x20\n        /* \"#utility.yul\":26768:26769   */\n      dup2\n        /* \"#utility.yul\":26764:26774   */\n      add\n        /* \"#utility.yul\":26759:26774   */\n      swap1\n      pop\n        /* \"#utility.yul\":26735:26848   */\n      jump(tag_989)\n    tag_991:\n        /* \"#utility.yul\":26866:26872   */\n      dup4\n        /* \"#utility.yul\":26863:26864   */\n      dup2\n        /* \"#utility.yul\":26860:26873   */\n      gt\n        /* \"#utility.yul\":26857:26958   */\n      iszero\n      tag_992\n      jumpi\n        /* \"#utility.yul\":26946:26947   */\n      0x00\n        /* \"#utility.yul\":26937:26943   */\n      dup5\n        /* \"#utility.yul\":26932:26935   */\n      dup5\n        /* \"#utility.yul\":26928:26944   */\n      add\n        /* \"#utility.yul\":26921:26948   */\n      mstore\n        /* \"#utility.yul\":26857:26958   */\n    tag_992:\n        /* \"#utility.yul\":26706:26964   */\n      pop\n        /* \"#utility.yul\":26657:26964   */\n      pop\n      pop\n      pop\n      jump\t// out\n        /* \"#utility.yul\":26970:27290   */\n    tag_319:\n        /* \"#utility.yul\":27014:27020   */\n      0x00\n        /* \"#utility.yul\":27051:27052   */\n      0x02\n        /* \"#utility.yul\":27045:27049   */\n      dup3\n        /* \"#utility.yul\":27041:27053   */\n      div\n        /* \"#utility.yul\":27031:27053   */\n      swap1\n      pop\n        /* \"#utility.yul\":27098:27099   */\n      0x01\n        /* \"#utility.yul\":27092:27096   */\n      dup3\n        /* \"#utility.yul\":27088:27100   */\n      and\n        /* \"#utility.yul\":27119:27137   */\n      dup1\n        /* \"#utility.yul\":27109:27190   */\n      tag_994\n      jumpi\n        /* \"#utility.yul\":27175:27179   */\n      0x7f\n        /* \"#utility.yul\":27167:27173   */\n      dup3\n        /* \"#utility.yul\":27163:27180   */\n      and\n        /* \"#utility.yul\":27153:27180   */\n      swap2\n      pop\n        /* \"#utility.yul\":27109:27190   */\n    tag_994:\n        /* \"#utility.yul\":27237:27239   */\n      0x20\n        /* \"#utility.yul\":27229:27235   */\n      dup3\n        /* \"#utility.yul\":27226:27240   */\n      lt\n        /* \"#utility.yul\":27206:27224   */\n      dup2\n        /* \"#utility.yul\":27203:27241   */\n      eq\n        /* \"#utility.yul\":27200:27284   */\n      iszero\n      tag_995\n      jumpi\n        /* \"#utility.yul\":27256:27274   */\n      tag_996\n      tag_997\n      jump\t// in\n    tag_996:\n        /* \"#utility.yul\":27200:27284   */\n    tag_995:\n        /* \"#utility.yul\":27021:27290   */\n      pop\n        /* \"#utility.yul\":26970:27290   */\n      swap2\n      swap1\n      pop\n      jump\t// out\n        /* \"#utility.yul\":27296:27577   */\n    tag_945:\n        /* \"#utility.yul\":27379:27406   */\n      tag_999\n        /* \"#utility.yul\":27401:27405   */\n      dup3\n        /* \"#utility.yul\":27379:27406   */\n      tag_822\n      jump\t// in\n    tag_999:\n        /* \"#utility.yul\":27371:27377   */\n      dup2\n        /* \"#utility.yul\":27367:27407   */\n      add\n        /* \"#utility.yul\":27509:27515   */\n      dup2\n        /* \"#utility.yul\":27497:27507   */\n      dup2\n        /* \"#utility.yul\":27494:27516   */\n      lt\n        /* \"#utility.yul\":27473:27491   */\n      0xffffffffffffffff\n        /* \"#utility.yul\":27461:27471   */\n      dup3\n        /* \"#utility.yul\":27458:27492   */\n      gt\n        /* \"#utility.yul\":27455:27517   */\n      or\n        /* \"#utility.yul\":27452:27540   */\n      iszero\n      tag_1000\n      jumpi\n        /* \"#utility.yul\":27520:27538   */\n      tag_1001\n      tag_534\n      jump\t// in\n    tag_1001:\n        /* \"#utility.yul\":27452:27540   */\n    tag_1000:\n        /* \"#utility.yul\":27560:27570   */\n      dup1\n        /* \"#utility.yul\":27556:27558   */\n      0x40\n        /* \"#utility.yul\":27549:27571   */\n      mstore\n        /* \"#utility.yul\":27339:27577   */\n      pop\n        /* \"#utility.yul\":27296:27577   */\n      pop\n      pop\n      jump\t// out\n        /* \"#utility.yul\":27583:27816   */\n    tag_213:\n        /* \"#utility.yul\":27622:27625   */\n      0x00\n        /* \"#utility.yul\":27645:27669   */\n      tag_1003\n        /* \"#utility.yul\":27663:27668   */\n      dup3\n        /* \"#utility.yul\":27645:27669   */\n      tag_890\n      jump\t// in\n    tag_1003:\n        /* \"#utility.yul\":27636:27669   */\n      swap2\n      pop\n        /* \"#utility.yul\":27691:27757   */\n      0xffffffffffffffffffffffffffffffffffffffffffffffffffffffffffffffff\n        /* \"#utility.yul\":27684:27689   */\n      dup3\n        /* \"#utility.yul\":27681:27758   */\n      eq\n        /* \"#utility.yul\":27678:27781   */\n      iszero\n      tag_1004\n      jumpi\n        /* \"#utility.yul\":27761:27779   */\n      tag_1005\n      tag_966\n      jump\t// in\n    tag_1005:\n        /* \"#utility.yul\":27678:27781   */\n    tag_1004:\n        /* \"#utility.yul\":27808:27809   */\n      0x01\n        /* \"#utility.yul\":27801:27806   */\n      dup3\n        /* \"#utility.yul\":27797:27810   */\n      add\n        /* \"#utility.yul\":27790:27810   */\n      swap1\n      pop\n        /* \"#utility.yul\":27583:27816   */\n      swap2\n      swap1\n      pop\n      jump\t// out\n        /* \"#utility.yul\":27822:28002   */\n    tag_966:\n        /* \"#utility.yul\":27870:27947   */\n      0x4e487b7100000000000000000000000000000000000000000000000000000000\n        /* \"#utility.yul\":27867:27868   */\n      0x00\n        /* \"#utility.yul\":27860:27948   */\n      mstore\n        /* \"#utility.yul\":27967:27971   */\n      0x11\n        /* \"#utility.yul\":27964:27965   */\n      0x04\n        /* \"#utility.yul\":27957:27972   */\n      mstore\n        /* \"#utility.yul\":27991:27995   */\n      0x24\n        /* \"#utility.yul\":27988:27989   */\n      0x00\n        /* \"#utility.yul\":27981:27996   */\n      revert\n        /* \"#utility.yul\":28008:28188   */\n    tag_113:\n        /* \"#utility.yul\":28056:28133   */\n      0x4e487b7100000000000000000000000000000000000000000000000000000000\n        /* \"#utility.yul\":28053:28054   */\n      0x00\n        /* \"#utility.yul\":28046:28134   */\n      mstore\n        /* \"#utility.yul\":28153:28157   */\n      0x21\n        /* \"#utility.yul\":28150:28151   */\n      0x04\n        /* \"#utility.yul\":28143:28158   */\n      mstore\n        /* \"#utility.yul\":28177:28181   */\n      0x24\n        /* \"#utility.yul\":28174:28175   */\n      0x00\n        /* \"#utility.yul\":28167:28182   */\n      revert\n        /* \"#utility.yul\":28194:28374   */\n    tag_997:\n        /* \"#utility.yul\":28242:28319   */\n      0x4e487b7100000000000000000000000000000000000000000000000000000000\n        /* \"#utility.yul\":28239:28240   */\n      0x00\n        /* \"#utility.yul\":28232:28320   */\n      mstore\n        /* \"#utility.yul\":28339:28343   */\n      0x22\n        /* \"#utility.yul\":28336:28337   */\n      0x04\n        /* \"#utility.yul\":28329:28344   */\n      mstore\n        /* \"#utility.yul\":28363:28367   */\n      0x24\n        /* \"#utility.yul\":28360:28361   */\n      0x00\n        /* \"#utility.yul\":28353:28368   */\n      revert\n        /* \"#utility.yul\":28380:28560   */\n    tag_136:\n        /* \"#utility.yul\":28428:28505   */\n      0x4e487b7100000000000000000000000000000000000000000000000000000000\n        /* \"#utility.yul\":28425:28426   */\n      0x00\n        /* \"#utility.yul\":28418:28506   */\n      mstore\n        /* \"#utility.yul\":28525:28529   */\n      0x32\n        /* \"#utility.yul\":28522:28523   */\n      0x04\n        /* \"#utility.yul\":28515:28530   */\n      mstore\n        /* \"#utility.yul\":28549:28553   */\n      0x24\n        /* \"#utility.yul\":28546:28547   */\n      0x00\n        /* \"#utility.yul\":28539:28554   */\n      revert\n        /* \"#utility.yul\":28566:28746   */\n    tag_534:\n        /* \"#utility.yul\":28614:28691   */\n      0x4e487b7100000000000000000000000000000000000000000000000000000000\n        /* \"#utility.yul\":28611:28612   */\n      0x00\n        /* \"#utility.yul\":28604:28692   */\n      mstore\n        /* \"#utility.yul\":28711:28715   */\n      0x41\n        /* \"#utility.yul\":28708:28709   */\n      0x04\n        /* \"#utility.yul\":28701:28716   */\n      mstore\n        /* \"#utility.yul\":28735:28739   */\n      0x24\n        /* \"#utility.yul\":28732:28733   */\n      0x00\n        /* \"#utility.yul\":28725:28740   */\n      revert\n        /* \"#utility.yul\":28752:28869   */\n    tag_701:\n        /* \"#utility.yul\":28861:28862   */\n      0x00\n        /* \"#utility.yul\":28858:28859   */\n      dup1\n        /* \"#utility.yul\":28851:28863   */\n      revert\n        /* \"#utility.yul\":28875:28992   */\n    tag_682:\n        /* \"#utility.yul\":28984:28985   */\n      0x00\n        /* \"#utility.yul\":28981:28982   */\n      dup1\n        /* \"#utility.yul\":28974:28986   */\n      revert\n        /* \"#utility.yul\":28998:29115   */\n    tag_740:\n        /* \"#utility.yul\":29107:29108   */\n      0x00\n        /* \"#utility.yul\":29104:29105   */\n      dup1\n        /* \"#utility.yul\":29097:29109   */\n      revert\n        /* \"#utility.yul\":29121:29238   */\n    tag_714:\n        /* \"#utility.yul\":29230:29231   */\n      0x00\n        /* \"#utility.yul\":29227:29228   */\n      dup1\n        /* \"#utility.yul\":29220:29232   */\n      revert\n        /* \"#utility.yul\":29244:29346   */\n    tag_822:\n        /* \"#utility.yul\":29285:29291   */\n      0x00\n        /* \"#utility.yul\":29336:29338   */\n      0x1f\n        /* \"#utility.yul\":29332:29339   */\n      not\n        /* \"#utility.yul\":29327:29329   */\n      0x1f\n        /* \"#utility.yul\":29320:29325   */\n      dup4\n        /* \"#utility.yul\":29316:29330   */\n      add\n        /* \"#utility.yul\":29312:29340   */\n      and\n        /* \"#utility.yul\":29302:29340   */\n      swap1\n      pop\n        /* \"#utility.yul\":29244:29346   */\n      swap2\n      swap1\n      pop\n      jump\t// out\n        /* \"#utility.yul\":29352:29584   */\n    tag_827:\n        /* \"#utility.yul\":29492:29526   */\n      0x4e6f2070726f6a6563747320617661696c61626c6520666f7220616363657074\n        /* \"#utility.yul\":29488:29489   */\n      0x00\n        /* \"#utility.yul\":29480:29486   */\n      dup3\n        /* \"#utility.yul\":29476:29490   */\n      add\n        /* \"#utility.yul\":29469:29527   */\n      mstore\n        /* \"#utility.yul\":29561:29576   */\n      0x696e6720646f6e6174696f6e7300000000000000000000000000000000000000\n        /* \"#utility.yul\":29556:29558   */\n      0x20\n        /* \"#utility.yul\":29548:29554   */\n      dup3\n        /* \"#utility.yul\":29544:29559   */\n      add\n        /* \"#utility.yul\":29537:29577   */\n      mstore\n        /* \"#utility.yul\":29352:29584   */\n      pop\n      jump\t// out\n        /* \"#utility.yul\":29590:29819   */\n    tag_832:\n        /* \"#utility.yul\":29730:29764   */\n      0x596f757220636f6e747269627574696f6e206578636565647320726571756972\n        /* \"#utility.yul\":29726:29727   */\n      0x00\n        /* \"#utility.yul\":29718:29724   */\n      dup3\n        /* \"#utility.yul\":29714:29728   */\n      add\n        /* \"#utility.yul\":29707:29765   */\n      mstore\n        /* \"#utility.yul\":29799:29811   */\n      0x656420616d6f756e742e00000000000000000000000000000000000000000000\n        /* \"#utility.yul\":29794:29796   */\n      0x20\n        /* \"#utility.yul\":29786:29792   */\n      dup3\n        /* \"#utility.yul\":29782:29797   */\n      add\n        /* \"#utility.yul\":29775:29812   */\n      mstore\n        /* \"#utility.yul\":29590:29819   */\n      pop\n      jump\t// out\n        /* \"#utility.yul\":29825:30052   */\n    tag_837:\n        /* \"#utility.yul\":29965:29999   */\n      0x596f7520686176656e277420636f6e747269627574656420666f722074686973\n        /* \"#utility.yul\":29961:29962   */\n      0x00\n        /* \"#utility.yul\":29953:29959   */\n      dup3\n        /* \"#utility.yul\":29949:29963   */\n      add\n        /* \"#utility.yul\":29942:30000   */\n      mstore\n        /* \"#utility.yul\":30034:30044   */\n      0x2070726f6a656374000000000000000000000000000000000000000000000000\n        /* \"#utility.yul\":30029:30031   */\n      0x20\n        /* \"#utility.yul\":30021:30027   */\n      dup3\n        /* \"#utility.yul\":30017:30032   */\n      add\n        /* \"#utility.yul\":30010:30045   */\n      mstore\n        /* \"#utility.yul\":29825:30052   */\n      pop\n      jump\t// out\n        /* \"#utility.yul\":30058:30294   */\n    tag_842:\n        /* \"#utility.yul\":30198:30232   */\n      0x53686f756c642062652067726561746572207468616e206f7220657175616c20\n        /* \"#utility.yul\":30194:30195   */\n      0x00\n        /* \"#utility.yul\":30186:30192   */\n      dup3\n        /* \"#utility.yul\":30182:30196   */\n      add\n        /* \"#utility.yul\":30175:30233   */\n      mstore\n        /* \"#utility.yul\":30267:30286   */\n      0x746f206d696e696d756d20616d6f756e74000000000000000000000000000000\n        /* \"#utility.yul\":30262:30264   */\n      0x20\n        /* \"#utility.yul\":30254:30260   */\n      dup3\n        /* \"#utility.yul\":30250:30265   */\n      add\n        /* \"#utility.yul\":30243:30287   */\n      mstore\n        /* \"#utility.yul\":30058:30294   */\n      pop\n      jump\t// out\n        /* \"#utility.yul\":30300:30589   */\n    tag_847:\n        /* \"#utility.yul\":30440:30474   */\n      0x43616e277420726566756e642061732065786368616e67652072657175657374\n        /* \"#utility.yul\":30436:30437   */\n      0x00\n        /* \"#utility.yul\":30428:30434   */\n      dup3\n        /* \"#utility.yul\":30424:30438   */\n      add\n        /* \"#utility.yul\":30417:30475   */\n      mstore\n        /* \"#utility.yul\":30509:30543   */\n      0x2077617320616c726561647920696e69746961746564207769746820626f6172\n        /* \"#utility.yul\":30504:30506   */\n      0x20\n        /* \"#utility.yul\":30496:30502   */\n      dup3\n        /* \"#utility.yul\":30492:30507   */\n      add\n        /* \"#utility.yul\":30485:30544   */\n      mstore\n        /* \"#utility.yul\":30578:30581   */\n      0x6400000000000000000000000000000000000000000000000000000000000000\n        /* \"#utility.yul\":30573:30575   */\n      0x40\n        /* \"#utility.yul\":30565:30571   */\n      dup3\n        /* \"#utility.yul\":30561:30576   */\n      add\n        /* \"#utility.yul\":30554:30582   */\n      mstore\n        /* \"#utility.yul\":30300:30589   */\n      pop\n      jump\t// out\n        /* \"#utility.yul\":30595:30844   */\n    tag_852:\n        /* \"#utility.yul\":30735:30769   */\n      0x43616e277420726566756e642061732065786368616e67652072657175657374\n        /* \"#utility.yul\":30731:30732   */\n      0x00\n        /* \"#utility.yul\":30723:30729   */\n      dup3\n        /* \"#utility.yul\":30719:30733   */\n      add\n        /* \"#utility.yul\":30712:30770   */\n      mstore\n        /* \"#utility.yul\":30804:30836   */\n      0x20776173206e6f742072656a65637465642062792074686520626f6172640000\n        /* \"#utility.yul\":30799:30801   */\n      0x20\n        /* \"#utility.yul\":30791:30797   */\n      dup3\n        /* \"#utility.yul\":30787:30802   */\n      add\n        /* \"#utility.yul\":30780:30837   */\n      mstore\n        /* \"#utility.yul\":30595:30844   */\n      pop\n      jump\t// out\n        /* \"#utility.yul\":30850:31072   */\n    tag_857:\n        /* \"#utility.yul\":30990:31024   */\n      0x4e6f2070726f6a65637420657869737420756e64657220746869732063686172\n        /* \"#utility.yul\":30986:30987   */\n      0x00\n        /* \"#utility.yul\":30978:30984   */\n      dup3\n        /* \"#utility.yul\":30974:30988   */\n      add\n        /* \"#utility.yul\":30967:31025   */\n      mstore\n        /* \"#utility.yul\":31059:31064   */\n      0x6974790000000000000000000000000000000000000000000000000000000000\n        /* \"#utility.yul\":31054:31056   */\n      0x20\n        /* \"#utility.yul\":31046:31052   */\n      dup3\n        /* \"#utility.yul\":31042:31057   */\n      add\n        /* \"#utility.yul\":31035:31065   */\n      mstore\n        /* \"#utility.yul\":30850:31072   */\n      pop\n      jump\t// out\n        /* \"#utility.yul\":31078:31249   */\n    tag_862:\n        /* \"#utility.yul\":31218:31241   */\n      0x4368617269747920646f65736e27742065786973740000000000000000000000\n        /* \"#utility.yul\":31214:31215   */\n      0x00\n        /* \"#utility.yul\":31206:31212   */\n      dup3\n        /* \"#utility.yul\":31202:31216   */\n      add\n        /* \"#utility.yul\":31195:31242   */\n      mstore\n        /* \"#utility.yul\":31078:31249   */\n      pop\n      jump\t// out\n        /* \"#utility.yul\":31255:31479   */\n    tag_867:\n        /* \"#utility.yul\":31395:31429   */\n      0x4e6f2070726f6a65637420657869737420756e64657220746869732070726f6a\n        /* \"#utility.yul\":31391:31392   */\n      0x00\n        /* \"#utility.yul\":31383:31389   */\n      dup3\n        /* \"#utility.yul\":31379:31393   */\n      add\n        /* \"#utility.yul\":31372:31430   */\n      mstore\n        /* \"#utility.yul\":31464:31471   */\n      0x6563744964000000000000000000000000000000000000000000000000000000\n        /* \"#utility.yul\":31459:31461   */\n      0x20\n        /* \"#utility.yul\":31451:31457   */\n      dup3\n        /* \"#utility.yul\":31447:31462   */\n      add\n        /* \"#utility.yul\":31440:31472   */\n      mstore\n        /* \"#utility.yul\":31255:31479   */\n      pop\n      jump\t// out\n        /* \"#utility.yul\":31485:31712   */\n    tag_872:\n        /* \"#utility.yul\":31625:31659   */\n      0x4e6f20737563682070726f6a65637420657869737420756e6465722074686973\n        /* \"#utility.yul\":31621:31622   */\n      0x00\n        /* \"#utility.yul\":31613:31619   */\n      dup3\n        /* \"#utility.yul\":31609:31623   */\n      add\n        /* \"#utility.yul\":31602:31660   */\n      mstore\n        /* \"#utility.yul\":31694:31704   */\n      0x2063686172697479000000000000000000000000000000000000000000000000\n        /* \"#utility.yul\":31689:31691   */\n      0x20\n        /* \"#utility.yul\":31681:31687   */\n      dup3\n        /* \"#utility.yul\":31677:31692   */\n      add\n        /* \"#utility.yul\":31670:31705   */\n      mstore\n        /* \"#utility.yul\":31485:31712   */\n      pop\n      jump\t// out\n        /* \"#utility.yul\":31718:31900   */\n    tag_877:\n        /* \"#utility.yul\":31858:31892   */\n      0x546869732063686172697479206973206e6f742079657420617070726f766564\n        /* \"#utility.yul\":31854:31855   */\n      0x00\n        /* \"#utility.yul\":31846:31852   */\n      dup3\n        /* \"#utility.yul\":31842:31856   */\n      add\n        /* \"#utility.yul\":31835:31893   */\n      mstore\n        /* \"#utility.yul\":31718:31900   */\n      pop\n      jump\t// out\n        /* \"#utility.yul\":31906:32135   */\n    tag_882:\n        /* \"#utility.yul\":32046:32080   */\n      0x596f7520646f6e74277420686176652073756666696369656e742066756e6473\n        /* \"#utility.yul\":32042:32043   */\n      0x00\n        /* \"#utility.yul\":32034:32040   */\n      dup3\n        /* \"#utility.yul\":32030:32044   */\n      add\n        /* \"#utility.yul\":32023:32081   */\n      mstore\n        /* \"#utility.yul\":32115:32127   */\n      0x20746f20646f6e61746500000000000000000000000000000000000000000000\n        /* \"#utility.yul\":32110:32112   */\n      0x20\n        /* \"#utility.yul\":32102:32108   */\n      dup3\n        /* \"#utility.yul\":32098:32113   */\n      add\n        /* \"#utility.yul\":32091:32128   */\n      mstore\n        /* \"#utility.yul\":31906:32135   */\n      pop\n      jump\t// out\n        /* \"#utility.yul\":32141:32372   */\n    tag_887:\n        /* \"#utility.yul\":32281:32315   */\n      0x4e6f206d6f726520646f6e6174696f6e7320616363657074656420666f722074\n        /* \"#utility.yul\":32277:32278   */\n      0x00\n        /* \"#utility.yul\":32269:32275   */\n      dup3\n        /* \"#utility.yul\":32265:32279   */\n      add\n        /* \"#utility.yul\":32258:32316   */\n      mstore\n        /* \"#utility.yul\":32350:32364   */\n      0x6869732070726f6a6563742e0000000000000000000000000000000000000000\n        /* \"#utility.yul\":32345:32347   */\n      0x20\n        /* \"#utility.yul\":32337:32343   */\n      dup3\n        /* \"#utility.yul\":32333:32348   */\n      add\n        /* \"#utility.yul\":32326:32365   */\n      mstore\n        /* \"#utility.yul\":32141:32372   */\n      pop\n      jump\t// out\n        /* \"#utility.yul\":32378:32500   */\n    tag_980:\n        /* \"#utility.yul\":32467:32469   */\n      0x0a\n        /* \"#utility.yul\":32460:32465   */\n      dup2\n        /* \"#utility.yul\":32457:32470   */\n      lt\n        /* \"#utility.yul\":32447:32494   */\n      tag_1030\n      jumpi\n        /* \"#utility.yul\":32474:32492   */\n      tag_1031\n      tag_113\n      jump\t// in\n    tag_1031:\n        /* \"#utility.yul\":32447:32494   */\n    tag_1030:\n        /* \"#utility.yul\":32378:32500   */\n      pop\n      jump\t// out\n        /* \"#utility.yul\":32506:32628   */\n    tag_688:\n        /* \"#utility.yul\":32579:32603   */\n      tag_1033\n        /* \"#utility.yul\":32597:32602   */\n      dup2\n        /* \"#utility.yul\":32579:32603   */\n      tag_777\n      jump\t// in\n    tag_1033:\n        /* \"#utility.yul\":32572:32577   */\n      dup2\n        /* \"#utility.yul\":32569:32604   */\n      eq\n        /* \"#utility.yul\":32559:32622   */\n      tag_1034\n      jumpi\n        /* \"#utility.yul\":32618:32619   */\n      0x00\n        /* \"#utility.yul\":32615:32616   */\n      dup1\n        /* \"#utility.yul\":32608:32620   */\n      revert\n        /* \"#utility.yul\":32559:32622   */\n    tag_1034:\n        /* \"#utility.yul\":32506:32628   */\n      pop\n      jump\t// out\n        /* \"#utility.yul\":32634:32750   */\n    tag_692:\n        /* \"#utility.yul\":32704:32725   */\n      tag_1036\n        /* \"#utility.yul\":32719:32724   */\n      dup2\n        /* \"#utility.yul\":32704:32725   */\n      tag_975\n      jump\t// in\n    tag_1036:\n        /* \"#utility.yul\":32697:32702   */\n      dup2\n        /* \"#utility.yul\":32694:32726   */\n      eq\n        /* \"#utility.yul\":32684:32744   */\n      tag_1037\n      jumpi\n        /* \"#utility.yul\":32740:32741   */\n      0x00\n        /* \"#utility.yul\":32737:32738   */\n      dup1\n        /* \"#utility.yul\":32730:32742   */\n      revert\n        /* \"#utility.yul\":32684:32744   */\n    tag_1037:\n        /* \"#utility.yul\":32634:32750   */\n      pop\n      jump\t// out\n        /* \"#utility.yul\":32756:32872   */\n    tag_696:\n        /* \"#utility.yul\":32845:32847   */\n      0x0a\n        /* \"#utility.yul\":32838:32843   */\n      dup2\n        /* \"#utility.yul\":32835:32848   */\n      lt\n        /* \"#utility.yul\":32825:32866   */\n      tag_1039\n      jumpi\n        /* \"#utility.yul\":32862:32863   */\n      0x00\n        /* \"#utility.yul\":32859:32860   */\n      dup1\n        /* \"#utility.yul\":32852:32864   */\n      revert\n        /* \"#utility.yul\":32825:32866   */\n    tag_1039:\n        /* \"#utility.yul\":32756:32872   */\n      pop\n      jump\t// out\n        /* \"#utility.yul\":32878:33000   */\n    tag_706:\n        /* \"#utility.yul\":32951:32975   */\n      tag_1041\n        /* \"#utility.yul\":32969:32974   */\n      dup2\n        /* \"#utility.yul\":32951:32975   */\n      tag_890\n      jump\t// in\n    tag_1041:\n        /* \"#utility.yul\":32944:32949   */\n      dup2\n        /* \"#utility.yul\":32941:32976   */\n      eq\n        /* \"#utility.yul\":32931:32994   */\n      tag_1042\n      jumpi\n        /* \"#utility.yul\":32990:32991   */\n      0x00\n        /* \"#utility.yul\":32987:32988   */\n      dup1\n        /* \"#utility.yul\":32980:32992   */\n      revert\n        /* \"#utility.yul\":32931:32994   */\n    tag_1042:\n        /* \"#utility.yul\":32878:33000   */\n      pop\n      jump\t// out\n        /* \"#utility.yul\":33006:33124   */\n    tag_710:\n        /* \"#utility.yul\":33077:33099   */\n      tag_1044\n        /* \"#utility.yul\":33093:33098   */\n      dup2\n        /* \"#utility.yul\":33077:33099   */\n      tag_983\n      jump\t// in\n    tag_1044:\n        /* \"#utility.yul\":33070:33075   */\n      dup2\n        /* \"#utility.yul\":33067:33100   */\n      eq\n        /* \"#utility.yul\":33057:33118   */\n      tag_1045\n      jumpi\n        /* \"#utility.yul\":33114:33115   */\n      0x00\n        /* \"#utility.yul\":33111:33112   */\n      dup1\n        /* \"#utility.yul\":33104:33116   */\n      revert\n        /* \"#utility.yul\":33057:33118   */\n    tag_1045:\n        /* \"#utility.yul\":33006:33124   */\n      pop\n      jump\t// out\n    stop\n    data_0fd57a96508da25173f82e6faabc4b077c36881e53dd1b21682a822e75096b01 54686973206f7065726174696f6e2063616e20626520706572666f726d6564206f6e6c7920627920426f6172642061646d696e\n    data_5c19b7ff1bcfb320392194574ccc24118e50bba13de42db0a22f05014bb7a7fa 596f7520617265206e6f7420617574686f72697a656420746f207570646174652077697468207468697320737461747573\n    data_ae7511c0e8221605b02a680fd07d0703f28d0f0f32c6884aaca3289d2fe90612 54686973206f7065726174696f6e2063616e20626520706572666f726d6564206f6e6c792062792043686172697479\n\n    auxdata: 0xa2646970667358221220ba6f47cdfed42dbf006d8fcea6112f47f239d00f473f79f53672dc07d62e2ebb64736f6c63430008070033\n}\n",
				"bytecode": {
					"linkReferences": {},
					"object": "60806040523480156200001157600080fd5b5033600260006101000a81548173ffffffffffffffffffffffffffffffffffffffff021916908373ffffffffffffffffffffffffffffffffffffffff1602179055506040518060400160405280601481526020017f57616974696e6720666f7220617070726f76616c00000000000000000000000081525060066000806009811115620000a357620000a2620006a1565b5b6009811115620000b857620000b7620006a1565b5b81526020019081526020016000209080519060200190620000db929190620005bb565b506040518060400160405280600881526020017f417070726f76656400000000000000000000000000000000000000000000000081525060066000600260098111156200012d576200012c620006a1565b5b6009811115620001425762000141620006a1565b5b8152602001908152602001600020908051906020019062000165929190620005bb565b506040518060400160405280601381526020017f52656a65637465642062792063686172697479000000000000000000000000008152506006600060016009811115620001b757620001b6620006a1565b5b6009811115620001cc57620001cb620006a1565b5b81526020019081526020016000209080519060200190620001ef929190620005bb565b506040518060400160405280601581526020017f50726f6a65637420676f616c20616368696576656400000000000000000000008152506006600060036009811115620002415762000240620006a1565b5b6009811115620002565762000255620006a1565b5b8152602001908152602001600020908051906020019062000279929190620005bb565b506040518060400160405280601281526020017f45786368616e67652072657175657374656400000000000000000000000000008152506006600060046009811115620002cb57620002ca620006a1565b5b6009811115620002e057620002df620006a1565b5b8152602001908152602001600020908051906020019062000303929190620005bb565b506040518060400160405280601981526020017f45786368616e67652072657175657374207265636569766564000000000000008152506006600060056009811115620003555762000354620006a1565b5b60098111156200036a5762000369620006a1565b5b815260200190815260200160002090805190602001906200038d929190620005bb565b506040518060400160405280601981526020017f45786368616e6765207265717565737420617070726f766564000000000000008152506006600060066009811115620003df57620003de620006a1565b5b6009811115620003f457620003f3620006a1565b5b8152602001908152602001600020908051906020019062000417929190620005bb565b506040518060400160405280601981526020017f45786368616e676520726571756573742072656a6563746564000000000000008152506006600060076009811115620004695762000468620006a1565b5b60098111156200047e576200047d620006a1565b5b81526020019081526020016000209080519060200190620004a1929190620005bb565b506040518060400160405280600e81526020017f46756e647320726566756e6465640000000000000000000000000000000000008152506006600060086009811115620004f357620004f2620006a1565b5b6009811115620005085762000507620006a1565b5b815260200190815260200160002090805190602001906200052b929190620005bb565b506040518060400160405280600e81526020017f50726f6a65637420636c6f736564000000000000000000000000000000000000815250600660006009808111156200057c576200057b620006a1565b5b6009811115620005915762000590620006a1565b5b81526020019081526020016000209080519060200190620005b4929190620005bb565b50620006ff565b828054620005c9906200066b565b90600052602060002090601f016020900481019282620005ed576000855562000639565b82601f106200060857805160ff191683800117855562000639565b8280016001018555821562000639579182015b82811115620006385782518255916020019190600101906200061b565b5b5090506200064891906200064c565b5090565b5b80821115620006675760008160009055506001016200064d565b5090565b600060028204905060018216806200068457607f821691505b602082108114156200069b576200069a620006d0565b5b50919050565b7f4e487b7100000000000000000000000000000000000000000000000000000000600052602160045260246000fd5b7f4e487b7100000000000000000000000000000000000000000000000000000000600052602260045260246000fd5b614ef7806200070f6000396000f3fe6080604052600436106100fe5760003560e01c80639238cf4e11610095578063bfda08a311610064578063bfda08a314610301578063c4529ab914610340578063ca76973d14610380578063ced4f4b8146103bd578063ef6add32146103c7576100fe565b80639238cf4e146102475780639df9b0e614610284578063ab6b8564146102ad578063b61a7f76146102d6576100fe565b806342ef4bcc116100d157806342ef4bcc1461018f57806344e54812146101cc5780635c3be951146101f5578063864ee3841461021e576100fe565b80630ee3b93d146101035780631ab333081461012c57806321bea7cc14610157578063259e6c8b14610173575b600080fd5b34801561010f57600080fd5b5061012a60048036038101906101259190613e86565b610404565b005b34801561013857600080fd5b50610141610af2565b60405161014e91906143bc565b60405180910390f35b610171600480360381019061016c9190613d31565b610b05565b005b61018d60048036038101906101889190613d04565b6111f9565b005b34801561019b57600080fd5b506101b660048036038101906101b19190613d31565b6112ef565b6040516101c391906143d7565b60405180910390f35b3480156101d857600080fd5b506101f360048036038101906101ee9190613dc4565b611551565b005b34801561020157600080fd5b5061021c60048036038101906102179190613f4f565b611a5e565b005b34801561022a57600080fd5b5061024560048036038101906102409190613ef3565b611fd1565b005b34801561025357600080fd5b5061026e60048036038101906102699190613d31565b6121b3565b60405161027b9190614599565b60405180910390f35b34801561029057600080fd5b506102ab60048036038101906102a69190613d31565b612348565b005b3480156102b957600080fd5b506102d460048036038101906102cf9190613e17565b612a16565b005b3480156102e257600080fd5b506102eb612c48565b6040516102f89190614309565b60405180910390f35b34801561030d57600080fd5b5061032860048036038101906103239190613d31565b612c6e565b604051610337939291906145b4565b60405180910390f35b34801561034c57600080fd5b5061036760048036038101906103629190613d04565b612e84565b604051610377949392919061435b565b60405180910390f35b34801561038c57600080fd5b506103a760048036038101906103a29190613d71565b61327d565b6040516103b49190614599565b60405180910390f35b6103c56134f3565b005b3480156103d357600080fd5b506103ee60048036038101906103e99190613ec6565b61355e565b6040516103fb91906143d7565b60405180910390f35b600260009054906101000a900473ffffffffffffffffffffffffffffffffffffffff1673ffffffffffffffffffffffffffffffffffffffff163373ffffffffffffffffffffffffffffffffffffffff1614156040518060600160405280602f8152602001614e93602f9139906104b0576040517f08c379a00000000000000000000000000000000000000000000000000000000081526004016104a791906143d7565b60405180910390fd5b506000600360098111156104c7576104c66148f0565b5b8260ff1660098111156104dd576104dc6148f0565b5b60098111156104ef576104ee6148f0565b5b1415604051806060016040528060318152602001614e62603191399061054b576040517f08c379a000000000000000000000000000000000000000000000000000000000815260040161054291906143d7565b60405180910390fd5b50600560098111156105605761055f6148f0565b5b8260ff166009811115610576576105756148f0565b5b6009811115610588576105876148f0565b5b1415604051806060016040528060318152602001614e6260319139906105e4576040517f08c379a00000000000000000000000000000000000000000000000000000000081526004016105db91906143d7565b60405180910390fd5b506000600360003373ffffffffffffffffffffffffffffffffffffffff1673ffffffffffffffffffffffffffffffffffffffff1681526020019081526020016000209050600081805490501161066f576040517f08c379a0000000000000000000000000000000000000000000000000000000008152600401610666906144b9565b60405180910390fd5b60005b8180549050811015610aeb578473ffffffffffffffffffffffffffffffffffffffff168282815481106106a8576106a761494e565b5b906000526020600020906007020160030160009054906101000a900473ffffffffffffffffffffffffffffffffffffffff1673ffffffffffffffffffffffffffffffffffffffff161415610acd57600192506007600981111561070e5761070d6148f0565b5b8460ff166009811115610724576107236148f0565b5b6009811115610736576107356148f0565b5b148061077b575060066009811115610751576107506148f0565b5b8460ff166009811115610767576107666148f0565b5b6009811115610779576107786148f0565b5b145b156109295760008282815481106107955761079461494e565b5b906000526020600020906007020160040160146101000a81548160ff0219169083151502179055507f7149b8a236148161d6ed6dd65ee3d95161a895f8788d472b49a825ee9a996d6d33868660ff1660098111156107f6576107f56148f0565b5b60405161080593929190614324565b60405180910390a160076009811115610821576108206148f0565b5b8460ff166009811115610837576108366148f0565b5b6009811115610849576108486148f0565b5b141561089a5761085933866135fe565b7fb1c913a6f2ffb3dc7a85bc2d3def4ca9bc82b4ff580cadc77acbbbd3a6aacc203386600860405161088d93929190614324565b60405180910390a1610924565b600660098111156108ae576108ad6148f0565b5b8460ff1660098111156108c4576108c36148f0565b5b60098111156108d6576108d56148f0565b5b1415610923576108e63386613964565b7fb1c913a6f2ffb3dc7a85bc2d3def4ca9bc82b4ff580cadc77acbbbd3a6aacc203386600960405161091a93929190614324565b60405180910390a15b5b610acc565b8360ff16600981111561093f5761093e6148f0565b5b8282815481106109525761095161494e565b5b906000526020600020906007020160060160006101000a81548160ff02191690836009811115610985576109846148f0565b5b02179055506002600981111561099e5761099d6148f0565b5b8460ff1660098111156109b4576109b36148f0565b5b60098111156109c6576109c56148f0565b5b1415610a0e5760018282815481106109e1576109e061494e565b5b906000526020600020906007020160040160146101000a81548160ff021916908315150217905550610acb565b60046009811115610a2257610a216148f0565b5b8460ff166009811115610a3857610a376148f0565b5b6009811115610a4a57610a496148f0565b5b1415610aca576000828281548110610a6557610a6461494e565b5b906000526020600020906007020160040160146101000a81548160ff0219169083151502179055507f8368d76676efaf85c0b16282870a64f994dbb3a7c8cc90ba57d8bd4d4cccb2f333866004604051610ac193929190614324565b60405180910390a15b5b5b5b8215610ad857610aeb565b8080610ae390614878565b915050610672565b5050505050565b600560009054906101000a900460ff1681565b600080600360008573ffffffffffffffffffffffffffffffffffffffff1673ffffffffffffffffffffffffffffffffffffffff16815260200190815260200160002090506000818054905011610b90576040517f08c379a0000000000000000000000000000000000000000000000000000000008152600401610b87906144b9565b60405180910390fd5b3373ffffffffffffffffffffffffffffffffffffffff1631341115610bea576040517f08c379a0000000000000000000000000000000000000000000000000000000008152600401610be190614559565b60405180910390fd5b60005b81805490508110156111b2578373ffffffffffffffffffffffffffffffffffffffff16828281548110610c2357610c2261494e565b5b906000526020600020906007020160030160009054906101000a900473ffffffffffffffffffffffffffffffffffffffff1673ffffffffffffffffffffffffffffffffffffffff16141561119f57818181548110610c8457610c8361494e565b5b906000526020600020906007020160040160149054906101000a900460ff161561115b57818181548110610cbb57610cba61494e565b5b906000526020600020906007020160000154341015610d0f576040517f08c379a0000000000000000000000000000000000000000000000000000000008152600401610d0690614459565b60405180910390fd5b818181548110610d2257610d2161494e565b5b906000526020600020906007020160010154828281548110610d4757610d4661494e565b5b90600052602060002090600702016002015434610d6491906146cf565b1115610da5576040517f08c379a0000000000000000000000000000000000000000000000000000000008152600401610d9c90614419565b60405180910390fd5b34828281548110610db957610db861494e565b5b906000526020600020906007020160020154610dd591906146cf565b828281548110610de857610de761494e565b5b9060005260206000209060070201600201819055506000600460008673ffffffffffffffffffffffffffffffffffffffff1673ffffffffffffffffffffffffffffffffffffffff1681526020019081526020016000209050600081805490509050600080600090505b8380549050811015610f69573373ffffffffffffffffffffffffffffffffffffffff16848281548110610e8757610e8661494e565b5b906000526020600020906003020160010160009054906101000a900473ffffffffffffffffffffffffffffffffffffffff1673ffffffffffffffffffffffffffffffffffffffff161415610f565734848281548110610ee957610ee861494e565b5b906000526020600020906003020160020160008a73ffffffffffffffffffffffffffffffffffffffff1673ffffffffffffffffffffffffffffffffffffffff1681526020019081526020016000206000828254610f4691906146cf565b9250508190555060019150610f69565b8080610f6190614878565b915050610e51565b508061103c5782600181600181540180825580915050039060005260206000209050506000838381548110610fa157610fa061494e565b5b90600052602060002090600302019050338160010160006101000a81548173ffffffffffffffffffffffffffffffffffffffff021916908373ffffffffffffffffffffffffffffffffffffffff160217905550348160020160008a73ffffffffffffffffffffffffffffffffffffffff1673ffffffffffffffffffffffffffffffffffffffff16815260200190815260200160002081905550505b84848154811061104f5761104e61494e565b5b9060005260206000209060070201600101548585815481106110745761107361494e565b5b90600052602060002090600702016002015414156111535760038585815481106110a1576110a061494e565b5b906000526020600020906007020160060160006101000a81548160ff021916908360098111156110d4576110d36148f0565b5b021790555060008585815481106110ee576110ed61494e565b5b906000526020600020906007020160040160146101000a81548160ff0219169083151502179055507fb0bd573bc922cd0ba3f1cc9ac05bc9c190a674fcf55c00d5b3ca04be33edbb318888600360405161114a93929190614324565b60405180910390a15b505050611196565b6040517f08c379a000000000000000000000000000000000000000000000000000000000815260040161118d90614579565b60405180910390fd5b600192506111b2565b80806111aa90614878565b915050610bed565b50816111f3576040517f08c379a00000000000000000000000000000000000000000000000000000000081526004016111ea90614519565b60405180910390fd5b50505050565b600260009054906101000a900473ffffffffffffffffffffffffffffffffffffffff1673ffffffffffffffffffffffffffffffffffffffff163373ffffffffffffffffffffffffffffffffffffffff1614604051806060016040528060338152602001614e2f60339139906112a4576040517f08c379a000000000000000000000000000000000000000000000000000000000815260040161129b91906143d7565b60405180910390fd5b508073ffffffffffffffffffffffffffffffffffffffff166108fc349081150290604051600060405180830381858888f193505050501580156112eb573d6000803e3d6000fd5b5050565b60606000600360008573ffffffffffffffffffffffffffffffffffffffff1673ffffffffffffffffffffffffffffffffffffffff1681526020019081526020016000209050600081805490501161137b576040517f08c379a0000000000000000000000000000000000000000000000000000000008152600401611372906144b9565b60405180910390fd5b60005b818054905081101561150f578373ffffffffffffffffffffffffffffffffffffffff168282815481106113b4576113b361494e565b5b906000526020600020906007020160030160009054906101000a900473ffffffffffffffffffffffffffffffffffffffff1673ffffffffffffffffffffffffffffffffffffffff1614156114fc57600660008383815481106114195761141861494e565b5b906000526020600020906007020160060160009054906101000a900460ff16600981111561144a576114496148f0565b5b600981111561145c5761145b6148f0565b5b8152602001908152602001600020805461147590614815565b80601f01602080910402602001604051908101604052809291908181526020018280546114a190614815565b80156114ee5780601f106114c3576101008083540402835291602001916114ee565b820191906000526020600020905b8154815290600101906020018083116114d157829003601f168201915b50505050509250505061154b565b808061150790614878565b91505061137e565b506040517f08c379a000000000000000000000000000000000000000000000000000000000815260040161154290614519565b60405180910390fd5b92915050565b600260009054906101000a900473ffffffffffffffffffffffffffffffffffffffff1673ffffffffffffffffffffffffffffffffffffffff163373ffffffffffffffffffffffffffffffffffffffff1614604051806060016040528060338152602001614e2f60339139906115fc576040517f08c379a00000000000000000000000000000000000000000000000000000000081526004016115f391906143d7565b60405180910390fd5b5060006009811115611611576116106148f0565b5b8160ff166009811115611627576116266148f0565b5b6009811115611639576116386148f0565b5b1415604051806060016040528060318152602001614e626031913990611695576040517f08c379a000000000000000000000000000000000000000000000000000000000815260040161168c91906143d7565b60405180910390fd5b50600260098111156116aa576116a96148f0565b5b8160ff1660098111156116c0576116bf6148f0565b5b60098111156116d2576116d16148f0565b5b1415604051806060016040528060318152602001614e62603191399061172e576040517f08c379a000000000000000000000000000000000000000000000000000000000815260040161172591906143d7565b60405180910390fd5b5060036009811115611743576117426148f0565b5b8160ff166009811115611759576117586148f0565b5b600981111561176b5761176a6148f0565b5b1415604051806060016040528060318152602001614e6260319139906117c7576040517f08c379a00000000000000000000000000000000000000000000000000000000081526004016117be91906143d7565b60405180910390fd5b50600460098111156117dc576117db6148f0565b5b8160ff1660098111156117f2576117f16148f0565b5b6009811115611804576118036148f0565b5b1415604051806060016040528060318152602001614e626031913990611860576040517f08c379a000000000000000000000000000000000000000000000000000000000815260040161185791906143d7565b60405180910390fd5b506000600360008573ffffffffffffffffffffffffffffffffffffffff1673ffffffffffffffffffffffffffffffffffffffff168152602001908152602001600020905060008180549050116118eb576040517f08c379a00000000000000000000000000000000000000000000000000000000081526004016118e2906144b9565b60405180910390fd5b60005b8180549050811015611a57578373ffffffffffffffffffffffffffffffffffffffff168282815481106119245761192361494e565b5b906000526020600020906007020160030160009054906101000a900473ffffffffffffffffffffffffffffffffffffffff1673ffffffffffffffffffffffffffffffffffffffff161415611a44578260ff166009811115611988576119876148f0565b5b82828154811061199b5761199a61494e565b5b906000526020600020906007020160060160006101000a81548160ff021916908360098111156119ce576119cd6148f0565b5b02179055507f688769abfe11ae5d2b7c7147d2577650d89c7b5b4ae0583751850c28d5f4d3978585848481548110611a0957611a0861494e565b5b906000526020600020906007020160060160009054906101000a900460ff16604051611a3793929190614324565b60405180910390a1611a57565b8080611a4f90614878565b9150506118ee565b5050505050565b600260009054906101000a900473ffffffffffffffffffffffffffffffffffffffff1673ffffffffffffffffffffffffffffffffffffffff163373ffffffffffffffffffffffffffffffffffffffff1614156040518060600160405280602f8152602001614e93602f913990611b0a576040517f08c379a0000000000000000000000000000000000000000000000000000000008152600401611b0191906143d7565b60405180910390fd5b503373ffffffffffffffffffffffffffffffffffffffff16600160003373ffffffffffffffffffffffffffffffffffffffff1673ffffffffffffffffffffffffffffffffffffffff16815260200190815260200160002060030160009054906101000a900473ffffffffffffffffffffffffffffffffffffffff1673ffffffffffffffffffffffffffffffffffffffff1614611bdb576040517f08c379a0000000000000000000000000000000000000000000000000000000008152600401611bd2906144d9565b60405180910390fd5b600160003373ffffffffffffffffffffffffffffffffffffffff1673ffffffffffffffffffffffffffffffffffffffff16815260200190815260200160002060000160009054906101000a900460ff16611c6a576040517f08c379a0000000000000000000000000000000000000000000000000000000008152600401611c6190614539565b60405180910390fd5b6000604051806101000160405280868152602001858152602001600081526020018473ffffffffffffffffffffffffffffffffffffffff1681526020013373ffffffffffffffffffffffffffffffffffffffff16815260200160001515815260200183815260200160006009811115611ce657611ce56148f0565b5b8152509050806000808573ffffffffffffffffffffffffffffffffffffffff1673ffffffffffffffffffffffffffffffffffffffff16815260200190815260200160002060008201518160000155602082015181600101556040820151816002015560608201518160030160006101000a81548173ffffffffffffffffffffffffffffffffffffffff021916908373ffffffffffffffffffffffffffffffffffffffff16021790555060808201518160040160006101000a81548173ffffffffffffffffffffffffffffffffffffffff021916908373ffffffffffffffffffffffffffffffffffffffff16021790555060a08201518160040160146101000a81548160ff02191690831515021790555060c0820151816005019080519060200190611e12929190613b88565b5060e08201518160060160006101000a81548160ff02191690836009811115611e3e57611e3d6148f0565b5b0217905550905050600360003373ffffffffffffffffffffffffffffffffffffffff1673ffffffffffffffffffffffffffffffffffffffff16815260200190815260200160002081908060018154018082558091505060019003906000526020600020906007020160009091909190915060008201518160000155602082015181600101556040820151816002015560608201518160030160006101000a81548173ffffffffffffffffffffffffffffffffffffffff021916908373ffffffffffffffffffffffffffffffffffffffff16021790555060808201518160040160006101000a81548173ffffffffffffffffffffffffffffffffffffffff021916908373ffffffffffffffffffffffffffffffffffffffff16021790555060a08201518160040160146101000a81548160ff02191690831515021790555060c0820151816005019080519060200190611f97929190613b88565b5060e08201518160060160006101000a81548160ff02191690836009811115611fc357611fc26148f0565b5b021790555050505050505050565b600260009054906101000a900473ffffffffffffffffffffffffffffffffffffffff1673ffffffffffffffffffffffffffffffffffffffff163373ffffffffffffffffffffffffffffffffffffffff1614604051806060016040528060338152602001614e2f603391399061207c576040517f08c379a000000000000000000000000000000000000000000000000000000000815260040161207391906143d7565b60405180910390fd5b50600060405180608001604052806000151581526020016040518060200160405280600081525081526020018481526020018373ffffffffffffffffffffffffffffffffffffffff16815250905080600160008473ffffffffffffffffffffffffffffffffffffffff1673ffffffffffffffffffffffffffffffffffffffff16815260200190815260200160002060008201518160000160006101000a81548160ff0219169083151502179055506020820151816001019080519060200190612146929190613b88565b506040820151816002019080519060200190612163929190613b88565b5060608201518160030160006101000a81548173ffffffffffffffffffffffffffffffffffffffff021916908373ffffffffffffffffffffffffffffffffffffffff160217905550905050505050565b600080600360008573ffffffffffffffffffffffffffffffffffffffff1673ffffffffffffffffffffffffffffffffffffffff1681526020019081526020016000209050600081805490501161223e576040517f08c379a0000000000000000000000000000000000000000000000000000000008152600401612235906144b9565b60405180910390fd5b6000805b828054905081101561233c578473ffffffffffffffffffffffffffffffffffffffff168382815481106122785761227761494e565b5b906000526020600020906007020160030160009054906101000a900473ffffffffffffffffffffffffffffffffffffffff1673ffffffffffffffffffffffffffffffffffffffff161415612329578281815481106122d9576122d861494e565b5b906000526020600020906007020160030160009054906101000a900473ffffffffffffffffffffffffffffffffffffffff1673ffffffffffffffffffffffffffffffffffffffff1631915061233c565b808061233490614878565b915050612242565b50809250505092915050565b6000806000600360008673ffffffffffffffffffffffffffffffffffffffff1673ffffffffffffffffffffffffffffffffffffffff168152602001908152602001600020905060008180549050116123d5576040517f08c379a00000000000000000000000000000000000000000000000000000000081526004016123cc906144b9565b60405180910390fd5b6000600460008673ffffffffffffffffffffffffffffffffffffffff1673ffffffffffffffffffffffffffffffffffffffff168152602001908152602001600020905060005b81805490508110156129cd573373ffffffffffffffffffffffffffffffffffffffff168282815481106124515761245061494e565b5b906000526020600020906003020160010160009054906101000a900473ffffffffffffffffffffffffffffffffffffffff1673ffffffffffffffffffffffffffffffffffffffff16148015612507575060008282815481106124b6576124b561494e565b5b906000526020600020906003020160020160008873ffffffffffffffffffffffffffffffffffffffff1673ffffffffffffffffffffffffffffffffffffffff16815260200190815260200160002054115b156129ba5760005b8380549050811015612861578673ffffffffffffffffffffffffffffffffffffffff168482815481106125455761254461494e565b5b906000526020600020906007020160030160009054906101000a900473ffffffffffffffffffffffffffffffffffffffff1673ffffffffffffffffffffffffffffffffffffffff16141561284e57600360098111156125a7576125a66148f0565b5b8482815481106125ba576125b961494e565b5b906000526020600020906007020160060160009054906101000a900460ff1660098111156125eb576125ea6148f0565b5b111561262c576040517f08c379a000000000000000000000000000000000000000000000000000000000815260040161262390614479565b60405180910390fd5b82828154811061263f5761263e61494e565b5b906000526020600020906003020160020160008873ffffffffffffffffffffffffffffffffffffffff1673ffffffffffffffffffffffffffffffffffffffff168152602001908152602001600020548482815481106126a1576126a061494e565b5b9060005260206000209060070201600201546126bd9190614725565b8482815481106126d0576126cf61494e565b5b9060005260206000209060070201600201819055508282815481106126f8576126f761494e565b5b906000526020600020906003020160010160009054906101000a900473ffffffffffffffffffffffffffffffffffffffff1673ffffffffffffffffffffffffffffffffffffffff166108fc8484815481106127565761275561494e565b5b906000526020600020906003020160020160008a73ffffffffffffffffffffffffffffffffffffffff1673ffffffffffffffffffffffffffffffffffffffff168152602001908152602001600020549081150290604051600060405180830381858888f193505050501580156127d0573d6000803e3d6000fd5b508381815481106127e4576127e361494e565b5b906000526020600020906007020160040160149054906101000a900460ff1661284557600184828154811061281c5761281b61494e565b5b906000526020600020906007020160040160146101000a81548160ff0219169083151502179055505b60019550612861565b808061285990614878565b91505061250f565b50846128a2576040517f08c379a0000000000000000000000000000000000000000000000000000000008152600401612899906144f9565b60405180910390fd5b3373ffffffffffffffffffffffffffffffffffffffff166108fc8383815481106128cf576128ce61494e565b5b906000526020600020906003020160020160008973ffffffffffffffffffffffffffffffffffffffff1673ffffffffffffffffffffffffffffffffffffffff168152602001908152602001600020549081150290604051600060405180830381858888f19350505050158015612949573d6000803e3d6000fd5b50600082828154811061295f5761295e61494e565b5b906000526020600020906003020160020160008873ffffffffffffffffffffffffffffffffffffffff1673ffffffffffffffffffffffffffffffffffffffff16815260200190815260200160002081905550600193506129cd565b80806129c590614878565b91505061241b565b5082612a0e576040517f08c379a0000000000000000000000000000000000000000000000000000000008152600401612a0590614439565b60405180910390fd5b505050505050565b600260009054906101000a900473ffffffffffffffffffffffffffffffffffffffff1673ffffffffffffffffffffffffffffffffffffffff163373ffffffffffffffffffffffffffffffffffffffff1614604051806060016040528060338152602001614e2f6033913990612ac1576040517f08c379a0000000000000000000000000000000000000000000000000000000008152600401612ab891906143d7565b60405180910390fd5b508273ffffffffffffffffffffffffffffffffffffffff16600160008573ffffffffffffffffffffffffffffffffffffffff1673ffffffffffffffffffffffffffffffffffffffff16815260200190815260200160002060030160009054906101000a900473ffffffffffffffffffffffffffffffffffffffff1673ffffffffffffffffffffffffffffffffffffffff1614612b92576040517f08c379a0000000000000000000000000000000000000000000000000000000008152600401612b89906144d9565b60405180910390fd5b81600160008573ffffffffffffffffffffffffffffffffffffffff1673ffffffffffffffffffffffffffffffffffffffff16815260200190815260200160002060000160006101000a81548160ff02191690831515021790555080600160008573ffffffffffffffffffffffffffffffffffffffff1673ffffffffffffffffffffffffffffffffffffffff1681526020019081526020016000206001019080519060200190612c42929190613b88565b50505050565b600260009054906101000a900473ffffffffffffffffffffffffffffffffffffffff1681565b600080600080600360008773ffffffffffffffffffffffffffffffffffffffff1673ffffffffffffffffffffffffffffffffffffffff16815260200190815260200160002090506000818054905011612cfc576040517f08c379a0000000000000000000000000000000000000000000000000000000008152600401612cf3906144b9565b60405180910390fd5b60005b8180549050811015612e41578573ffffffffffffffffffffffffffffffffffffffff16828281548110612d3557612d3461494e565b5b906000526020600020906007020160030160009054906101000a900473ffffffffffffffffffffffffffffffffffffffff1673ffffffffffffffffffffffffffffffffffffffff161415612e2e57818181548110612d9657612d9561494e565b5b906000526020600020906007020160010154828281548110612dbb57612dba61494e565b5b906000526020600020906007020160020154838381548110612de057612ddf61494e565b5b906000526020600020906007020160020154848481548110612e0557612e0461494e565b5b906000526020600020906007020160010154612e219190614725565b9450945094505050612e7d565b8080612e3990614878565b915050612cff565b506040517f08c379a0000000000000000000000000000000000000000000000000000000008152600401612e7490614519565b60405180910390fd5b9250925092565b6060806060806000600360008773ffffffffffffffffffffffffffffffffffffffff1673ffffffffffffffffffffffffffffffffffffffff16815260200190815260200160002090506000818054905011612f14576040517f08c379a0000000000000000000000000000000000000000000000000000000008152600401612f0b906144b9565b60405180910390fd5b6000818054905067ffffffffffffffff811115612f3457612f3361497d565b5b604051908082528060200260200182016040528015612f625781602001602082028036833780820191505090505b5090506000828054905067ffffffffffffffff811115612f8557612f8461497d565b5b604051908082528060200260200182016040528015612fb35781602001602082028036833780820191505090505b5090506000838054905067ffffffffffffffff811115612fd657612fd561497d565b5b6040519080825280602002602001820160405280156130045781602001602082028036833780820191505090505b5090506000848054905067ffffffffffffffff8111156130275761302661497d565b5b6040519080825280602002602001820160405280156130555781602001602082028036833780820191505090505b5090506000805b868054905081101561321f5786818154811061307b5761307a61494e565b5b906000526020600020906007020160040160149054906101000a900460ff161561320c578681815481106130b2576130b161494e565b5b906000526020600020906007020160030160009054906101000a900473ffffffffffffffffffffffffffffffffffffffff168683815181106130f7576130f661494e565b5b602002602001019073ffffffffffffffffffffffffffffffffffffffff16908173ffffffffffffffffffffffffffffffffffffffff16815250508681815481106131445761314361494e565b5b9060005260206000209060070201600001548583815181106131695761316861494e565b5b6020026020010181815250508681815481106131885761318761494e565b5b9060005260206000209060070201600101548483815181106131ad576131ac61494e565b5b6020026020010181815250508681815481106131cc576131cb61494e565b5b9060005260206000209060070201600201548383815181106131f1576131f061494e565b5b602002602001018181525050818061320890614878565b9250505b808061321790614878565b91505061305c565b506000855111613264576040517f08c379a000000000000000000000000000000000000000000000000000000000815260040161325b906143f9565b60405180910390fd5b8484848499509950995099505050505050509193509193565b600080600360008673ffffffffffffffffffffffffffffffffffffffff1673ffffffffffffffffffffffffffffffffffffffff16815260200190815260200160002090506000818054905011613308576040517f08c379a00000000000000000000000000000000000000000000000000000000081526004016132ff906144b9565b60405180910390fd5b6000805b82805490508110156134e6578573ffffffffffffffffffffffffffffffffffffffff168382815481106133425761334161494e565b5b906000526020600020906007020160030160009054906101000a900473ffffffffffffffffffffffffffffffffffffffff1673ffffffffffffffffffffffffffffffffffffffff1614156134d3576000600460008873ffffffffffffffffffffffffffffffffffffffff1673ffffffffffffffffffffffffffffffffffffffff168152602001908152602001600020905060005b81805490508110156134d0578673ffffffffffffffffffffffffffffffffffffffff1682828154811061340c5761340b61494e565b5b906000526020600020906003020160010160009054906101000a900473ffffffffffffffffffffffffffffffffffffffff1673ffffffffffffffffffffffffffffffffffffffff1614156134bd5781818154811061346d5761346c61494e565b5b906000526020600020906003020160010160009054906101000a900473ffffffffffffffffffffffffffffffffffffffff1673ffffffffffffffffffffffffffffffffffffffff163193506134d0565b80806134c890614878565b9150506133d6565b50505b80806134de90614878565b91505061330c565b5080925050509392505050565b600260009054906101000a900473ffffffffffffffffffffffffffffffffffffffff1673ffffffffffffffffffffffffffffffffffffffff166108fc349081150290604051600060405180830381858888f1935050505015801561355b573d6000803e3d6000fd5b50565b6006602052806000526040600020600091509050805461357d90614815565b80601f01602080910402602001604051908101604052809291908181526020018280546135a990614815565b80156135f65780601f106135cb576101008083540402835291602001916135f6565b820191906000526020600020905b8154815290600101906020018083116135d957829003601f168201915b505050505081565b600080600360008573ffffffffffffffffffffffffffffffffffffffff1673ffffffffffffffffffffffffffffffffffffffff16815260200190815260200160002090506000818054905011613689576040517f08c379a0000000000000000000000000000000000000000000000000000000008152600401613680906144b9565b60405180910390fd5b60005b818054905081101561391d578373ffffffffffffffffffffffffffffffffffffffff168282815481106136c2576136c161494e565b5b906000526020600020906007020160030160009054906101000a900473ffffffffffffffffffffffffffffffffffffffff1673ffffffffffffffffffffffffffffffffffffffff16141561390a5760076009811115613724576137236148f0565b5b8282815481106137375761373661494e565b5b906000526020600020906007020160060160009054906101000a900460ff166009811115613768576137676148f0565b5b146137a8576040517f08c379a000000000000000000000000000000000000000000000000000000000815260040161379f90614499565b60405180910390fd5b6000600460008673ffffffffffffffffffffffffffffffffffffffff1673ffffffffffffffffffffffffffffffffffffffff168152602001908152602001600020905060005b81805490508110156138ff57600082828154811061380f5761380e61494e565b5b906000526020600020906003020160020160008873ffffffffffffffffffffffffffffffffffffffff1673ffffffffffffffffffffffffffffffffffffffff1681526020019081526020016000205490508282815481106138735761387261494e565b5b906000526020600020906003020160010160009054906101000a900473ffffffffffffffffffffffffffffffffffffffff1673ffffffffffffffffffffffffffffffffffffffff166108fc829081150290604051600060405180830381858888f193505050501580156138ea573d6000803e3d6000fd5b505080806138f790614878565b9150506137ee565b50600193505061391d565b808061391590614878565b91505061368c565b508161395e576040517f08c379a0000000000000000000000000000000000000000000000000000000008152600401613955906144f9565b60405180910390fd5b50505050565b600080600360008573ffffffffffffffffffffffffffffffffffffffff1673ffffffffffffffffffffffffffffffffffffffff168152602001908152602001600020905060008180549050116139ef576040517f08c379a00000000000000000000000000000000000000000000000000000000081526004016139e6906144b9565b60405180910390fd5b60005b8180549050811015613b41578373ffffffffffffffffffffffffffffffffffffffff16828281548110613a2857613a2761494e565b5b906000526020600020906007020160030160009054906101000a900473ffffffffffffffffffffffffffffffffffffffff1673ffffffffffffffffffffffffffffffffffffffff161415613b2e57818181548110613a8957613a8861494e565b5b906000526020600020906007020160030160009054906101000a900473ffffffffffffffffffffffffffffffffffffffff1673ffffffffffffffffffffffffffffffffffffffff166108fc838381548110613ae757613ae661494e565b5b9060005260206000209060070201600201549081150290604051600060405180830381858888f19350505050158015613b24573d6000803e3d6000fd5b5060019250613b41565b8080613b3990614878565b9150506139f2565b5081613b82576040517f08c379a0000000000000000000000000000000000000000000000000000000008152600401613b79906144f9565b60405180910390fd5b50505050565b828054613b9490614815565b90600052602060002090601f016020900481019282613bb65760008555613bfd565b82601f10613bcf57805160ff1916838001178555613bfd565b82800160010185558215613bfd579182015b82811115613bfc578251825591602001919060010190613be1565b5b509050613c0a9190613c0e565b5090565b5b80821115613c27576000816000905550600101613c0f565b5090565b6000613c3e613c3984614610565b6145eb565b905082815260208101848484011115613c5a57613c596149b1565b5b613c658482856147d3565b509392505050565b600081359050613c7c81614dc2565b92915050565b600081359050613c9181614dd9565b92915050565b600081359050613ca681614df0565b92915050565b600082601f830112613cc157613cc06149ac565b5b8135613cd1848260208601613c2b565b91505092915050565b600081359050613ce981614e00565b92915050565b600081359050613cfe81614e17565b92915050565b600060208284031215613d1a57613d196149bb565b5b6000613d2884828501613c6d565b91505092915050565b60008060408385031215613d4857613d476149bb565b5b6000613d5685828601613c6d565b9250506020613d6785828601613c6d565b9150509250929050565b600080600060608486031215613d8a57613d896149bb565b5b6000613d9886828701613c6d565b9350506020613da986828701613c6d565b9250506040613dba86828701613c6d565b9150509250925092565b600080600060608486031215613ddd57613ddc6149bb565b5b6000613deb86828701613c6d565b9350506020613dfc86828701613c6d565b9250506040613e0d86828701613cef565b9150509250925092565b600080600060608486031215613e3057613e2f6149bb565b5b6000613e3e86828701613c6d565b9350506020613e4f86828701613c82565b925050604084013567ffffffffffffffff811115613e7057613e6f6149b6565b5b613e7c86828701613cac565b9150509250925092565b60008060408385031215613e9d57613e9c6149bb565b5b6000613eab85828601613c6d565b9250506020613ebc85828601613cef565b9150509250929050565b600060208284031215613edc57613edb6149bb565b5b6000613eea84828501613c97565b91505092915050565b60008060408385031215613f0a57613f096149bb565b5b600083013567ffffffffffffffff811115613f2857613f276149b6565b5b613f3485828601613cac565b9250506020613f4585828601613c6d565b9150509250929050565b60008060008060808587031215613f6957613f686149bb565b5b6000613f7787828801613cda565b9450506020613f8887828801613cda565b9350506040613f9987828801613c6d565b925050606085013567ffffffffffffffff811115613fba57613fb96149b6565b5b613fc687828801613cac565b91505092959194509250565b6000613fde8383614002565b60208301905092915050565b6000613ff683836142eb565b60208301905092915050565b61400b81614759565b82525050565b61401a81614759565b82525050565b600061402b82614661565b614035818561469c565b935061404083614641565b8060005b838110156140715781516140588882613fd2565b975061406383614682565b925050600181019050614044565b5085935050505092915050565b60006140898261466c565b61409381856146ad565b935061409e83614651565b8060005b838110156140cf5781516140b68882613fea565b97506140c18361468f565b9250506001810190506140a2565b5085935050505092915050565b6140e5816147c1565b82525050565b60006140f682614677565b61410081856146be565b93506141108185602086016147e2565b614119816149c0565b840191505092915050565b6000614131602d836146be565b915061413c826149d1565b604082019050919050565b6000614154602a836146be565b915061415f82614a20565b604082019050919050565b60006141776028836146be565b915061418282614a6f565b604082019050919050565b600061419a6031836146be565b91506141a582614abe565b604082019050919050565b60006141bd6041836146be565b91506141c882614b0d565b606082019050919050565b60006141e0603e836146be565b91506141eb82614b82565b604082019050919050565b60006142036023836146be565b915061420e82614bd1565b604082019050919050565b60006142266015836146be565b915061423182614c20565b602082019050919050565b60006142496025836146be565b915061425482614c49565b604082019050919050565b600061426c6028836146be565b915061427782614c98565b604082019050919050565b600061428f6020836146be565b915061429a82614ce7565b602082019050919050565b60006142b2602a836146be565b91506142bd82614d10565b604082019050919050565b60006142d5602c836146be565b91506142e082614d5f565b604082019050919050565b6142f4816147aa565b82525050565b614303816147aa565b82525050565b600060208201905061431e6000830184614011565b92915050565b60006060820190506143396000830186614011565b6143466020830185614011565b61435360408301846140dc565b949350505050565b600060808201905081810360008301526143758187614020565b90508181036020830152614389818661407e565b9050818103604083015261439d818561407e565b905081810360608301526143b1818461407e565b905095945050505050565b60006020820190506143d160008301846140dc565b92915050565b600060208201905081810360008301526143f181846140eb565b905092915050565b6000602082019050818103600083015261441281614124565b9050919050565b6000602082019050818103600083015261443281614147565b9050919050565b600060208201905081810360008301526144528161416a565b9050919050565b600060208201905081810360008301526144728161418d565b9050919050565b60006020820190508181036000830152614492816141b0565b9050919050565b600060208201905081810360008301526144b2816141d3565b9050919050565b600060208201905081810360008301526144d2816141f6565b9050919050565b600060208201905081810360008301526144f281614219565b9050919050565b600060208201905081810360008301526145128161423c565b9050919050565b600060208201905081810360008301526145328161425f565b9050919050565b6000602082019050818103600083015261455281614282565b9050919050565b60006020820190508181036000830152614572816142a5565b9050919050565b60006020820190508181036000830152614592816142c8565b9050919050565b60006020820190506145ae60008301846142fa565b92915050565b60006060820190506145c960008301866142fa565b6145d660208301856142fa565b6145e360408301846142fa565b949350505050565b60006145f5614606565b90506146018282614847565b919050565b6000604051905090565b600067ffffffffffffffff82111561462b5761462a61497d565b5b614634826149c0565b9050602081019050919050565b6000819050602082019050919050565b6000819050602082019050919050565b600081519050919050565b600081519050919050565b600081519050919050565b6000602082019050919050565b6000602082019050919050565b600082825260208201905092915050565b600082825260208201905092915050565b600082825260208201905092915050565b60006146da826147aa565b91506146e5836147aa565b9250827fffffffffffffffffffffffffffffffffffffffffffffffffffffffffffffffff0382111561471a576147196148c1565b5b828201905092915050565b6000614730826147aa565b915061473b836147aa565b92508282101561474e5761474d6148c1565b5b828203905092915050565b60006147648261478a565b9050919050565b60008115159050919050565b600081905061478582614dae565b919050565b600073ffffffffffffffffffffffffffffffffffffffff82169050919050565b6000819050919050565b600060ff82169050919050565b60006147cc82614777565b9050919050565b82818337600083830152505050565b60005b838110156148005780820151818401526020810190506147e5565b8381111561480f576000848401525b50505050565b6000600282049050600182168061482d57607f821691505b602082108114156148415761484061491f565b5b50919050565b614850826149c0565b810181811067ffffffffffffffff8211171561486f5761486e61497d565b5b80604052505050565b6000614883826147aa565b91507fffffffffffffffffffffffffffffffffffffffffffffffffffffffffffffffff8214156148b6576148b56148c1565b5b600182019050919050565b7f4e487b7100000000000000000000000000000000000000000000000000000000600052601160045260246000fd5b7f4e487b7100000000000000000000000000000000000000000000000000000000600052602160045260246000fd5b7f4e487b7100000000000000000000000000000000000000000000000000000000600052602260045260246000fd5b7f4e487b7100000000000000000000000000000000000000000000000000000000600052603260045260246000fd5b7f4e487b7100000000000000000000000000000000000000000000000000000000600052604160045260246000fd5b600080fd5b600080fd5b600080fd5b600080fd5b6000601f19601f8301169050919050565b7f4e6f2070726f6a6563747320617661696c61626c6520666f722061636365707460008201527f696e6720646f6e6174696f6e7300000000000000000000000000000000000000602082015250565b7f596f757220636f6e747269627574696f6e20657863656564732072657175697260008201527f656420616d6f756e742e00000000000000000000000000000000000000000000602082015250565b7f596f7520686176656e277420636f6e747269627574656420666f72207468697360008201527f2070726f6a656374000000000000000000000000000000000000000000000000602082015250565b7f53686f756c642062652067726561746572207468616e206f7220657175616c2060008201527f746f206d696e696d756d20616d6f756e74000000000000000000000000000000602082015250565b7f43616e277420726566756e642061732065786368616e6765207265717565737460008201527f2077617320616c726561647920696e69746961746564207769746820626f617260208201527f6400000000000000000000000000000000000000000000000000000000000000604082015250565b7f43616e277420726566756e642061732065786368616e6765207265717565737460008201527f20776173206e6f742072656a65637465642062792074686520626f6172640000602082015250565b7f4e6f2070726f6a65637420657869737420756e6465722074686973206368617260008201527f6974790000000000000000000000000000000000000000000000000000000000602082015250565b7f4368617269747920646f65736e27742065786973740000000000000000000000600082015250565b7f4e6f2070726f6a65637420657869737420756e64657220746869732070726f6a60008201527f6563744964000000000000000000000000000000000000000000000000000000602082015250565b7f4e6f20737563682070726f6a65637420657869737420756e646572207468697360008201527f2063686172697479000000000000000000000000000000000000000000000000602082015250565b7f546869732063686172697479206973206e6f742079657420617070726f766564600082015250565b7f596f7520646f6e74277420686176652073756666696369656e742066756e647360008201527f20746f20646f6e61746500000000000000000000000000000000000000000000602082015250565b7f4e6f206d6f726520646f6e6174696f6e7320616363657074656420666f72207460008201527f6869732070726f6a6563742e0000000000000000000000000000000000000000602082015250565b600a8110614dbf57614dbe6148f0565b5b50565b614dcb81614759565b8114614dd657600080fd5b50565b614de28161476b565b8114614ded57600080fd5b50565b600a8110614dfd57600080fd5b50565b614e09816147aa565b8114614e1457600080fd5b50565b614e20816147b4565b8114614e2b57600080fd5b5056fe54686973206f7065726174696f6e2063616e20626520706572666f726d6564206f6e6c7920627920426f6172642061646d696e596f7520617265206e6f7420617574686f72697a656420746f20757064617465207769746820746869732073746174757354686973206f7065726174696f6e2063616e20626520706572666f726d6564206f6e6c792062792043686172697479a2646970667358221220ba6f47cdfed42dbf006d8fcea6112f47f239d00f473f79f53672dc07d62e2ebb64736f6c63430008070033",
					"opcodes": "PUSH1 0x80 PUSH1 0x40 MSTORE CALLVALUE DUP1 ISZERO PUSH3 0x11 JUMPI PUSH1 0x0 DUP1 REVERT JUMPDEST POP CALLER PUSH1 0x2 PUSH1 0x0 PUSH2 0x100 EXP DUP2 SLOAD DUP2 PUSH20 0xFFFFFFFFFFFFFFFFFFFFFFFFFFFFFFFFFFFFFFFF MUL NOT AND SWAP1 DUP4 PUSH20 0xFFFFFFFFFFFFFFFFFFFFFFFFFFFFFFFFFFFFFFFF AND MUL OR SWAP1 SSTORE POP PUSH1 0x40 MLOAD DUP1 PUSH1 0x40 ADD PUSH1 0x40 MSTORE DUP1 PUSH1 0x14 DUP2 MSTORE PUSH1 0x20 ADD PUSH32 0x57616974696E6720666F7220617070726F76616C000000000000000000000000 DUP2 MSTORE POP PUSH1 0x6 PUSH1 0x0 DUP1 PUSH1 0x9 DUP2 GT ISZERO PUSH3 0xA3 JUMPI PUSH3 0xA2 PUSH3 0x6A1 JUMP JUMPDEST JUMPDEST PUSH1 0x9 DUP2 GT ISZERO PUSH3 0xB8 JUMPI PUSH3 0xB7 PUSH3 0x6A1 JUMP JUMPDEST JUMPDEST DUP2 MSTORE PUSH1 0x20 ADD SWAP1 DUP2 MSTORE PUSH1 0x20 ADD PUSH1 0x0 KECCAK256 SWAP1 DUP1 MLOAD SWAP1 PUSH1 0x20 ADD SWAP1 PUSH3 0xDB SWAP3 SWAP2 SWAP1 PUSH3 0x5BB JUMP JUMPDEST POP PUSH1 0x40 MLOAD DUP1 PUSH1 0x40 ADD PUSH1 0x40 MSTORE DUP1 PUSH1 0x8 DUP2 MSTORE PUSH1 0x20 ADD PUSH32 0x417070726F766564000000000000000000000000000000000000000000000000 DUP2 MSTORE POP PUSH1 0x6 PUSH1 0x0 PUSH1 0x2 PUSH1 0x9 DUP2 GT ISZERO PUSH3 0x12D JUMPI PUSH3 0x12C PUSH3 0x6A1 JUMP JUMPDEST JUMPDEST PUSH1 0x9 DUP2 GT ISZERO PUSH3 0x142 JUMPI PUSH3 0x141 PUSH3 0x6A1 JUMP JUMPDEST JUMPDEST DUP2 MSTORE PUSH1 0x20 ADD SWAP1 DUP2 MSTORE PUSH1 0x20 ADD PUSH1 0x0 KECCAK256 SWAP1 DUP1 MLOAD SWAP1 PUSH1 0x20 ADD SWAP1 PUSH3 0x165 SWAP3 SWAP2 SWAP1 PUSH3 0x5BB JUMP JUMPDEST POP PUSH1 0x40 MLOAD DUP1 PUSH1 0x40 ADD PUSH1 0x40 MSTORE DUP1 PUSH1 0x13 DUP2 MSTORE PUSH1 0x20 ADD PUSH32 0x52656A6563746564206279206368617269747900000000000000000000000000 DUP2 MSTORE POP PUSH1 0x6 PUSH1 0x0 PUSH1 0x1 PUSH1 0x9 DUP2 GT ISZERO PUSH3 0x1B7 JUMPI PUSH3 0x1B6 PUSH3 0x6A1 JUMP JUMPDEST JUMPDEST PUSH1 0x9 DUP2 GT ISZERO PUSH3 0x1CC JUMPI PUSH3 0x1CB PUSH3 0x6A1 JUMP JUMPDEST JUMPDEST DUP2 MSTORE PUSH1 0x20 ADD SWAP1 DUP2 MSTORE PUSH1 0x20 ADD PUSH1 0x0 KECCAK256 SWAP1 DUP1 MLOAD SWAP1 PUSH1 0x20 ADD SWAP1 PUSH3 0x1EF SWAP3 SWAP2 SWAP1 PUSH3 0x5BB JUMP JUMPDEST POP PUSH1 0x40 MLOAD DUP1 PUSH1 0x40 ADD PUSH1 0x40 MSTORE DUP1 PUSH1 0x15 DUP2 MSTORE PUSH1 0x20 ADD PUSH32 0x50726F6A65637420676F616C2061636869657665640000000000000000000000 DUP2 MSTORE POP PUSH1 0x6 PUSH1 0x0 PUSH1 0x3 PUSH1 0x9 DUP2 GT ISZERO PUSH3 0x241 JUMPI PUSH3 0x240 PUSH3 0x6A1 JUMP JUMPDEST JUMPDEST PUSH1 0x9 DUP2 GT ISZERO PUSH3 0x256 JUMPI PUSH3 0x255 PUSH3 0x6A1 JUMP JUMPDEST JUMPDEST DUP2 MSTORE PUSH1 0x20 ADD SWAP1 DUP2 MSTORE PUSH1 0x20 ADD PUSH1 0x0 KECCAK256 SWAP1 DUP1 MLOAD SWAP1 PUSH1 0x20 ADD SWAP1 PUSH3 0x279 SWAP3 SWAP2 SWAP1 PUSH3 0x5BB JUMP JUMPDEST POP PUSH1 0x40 MLOAD DUP1 PUSH1 0x40 ADD PUSH1 0x40 MSTORE DUP1 PUSH1 0x12 DUP2 MSTORE PUSH1 0x20 ADD PUSH32 0x45786368616E6765207265717565737465640000000000000000000000000000 DUP2 MSTORE POP PUSH1 0x6 PUSH1 0x0 PUSH1 0x4 PUSH1 0x9 DUP2 GT ISZERO PUSH3 0x2CB JUMPI PUSH3 0x2CA PUSH3 0x6A1 JUMP JUMPDEST JUMPDEST PUSH1 0x9 DUP2 GT ISZERO PUSH3 0x2E0 JUMPI PUSH3 0x2DF PUSH3 0x6A1 JUMP JUMPDEST JUMPDEST DUP2 MSTORE PUSH1 0x20 ADD SWAP1 DUP2 MSTORE PUSH1 0x20 ADD PUSH1 0x0 KECCAK256 SWAP1 DUP1 MLOAD SWAP1 PUSH1 0x20 ADD SWAP1 PUSH3 0x303 SWAP3 SWAP2 SWAP1 PUSH3 0x5BB JUMP JUMPDEST POP PUSH1 0x40 MLOAD DUP1 PUSH1 0x40 ADD PUSH1 0x40 MSTORE DUP1 PUSH1 0x19 DUP2 MSTORE PUSH1 0x20 ADD PUSH32 0x45786368616E6765207265717565737420726563656976656400000000000000 DUP2 MSTORE POP PUSH1 0x6 PUSH1 0x0 PUSH1 0x5 PUSH1 0x9 DUP2 GT ISZERO PUSH3 0x355 JUMPI PUSH3 0x354 PUSH3 0x6A1 JUMP JUMPDEST JUMPDEST PUSH1 0x9 DUP2 GT ISZERO PUSH3 0x36A JUMPI PUSH3 0x369 PUSH3 0x6A1 JUMP JUMPDEST JUMPDEST DUP2 MSTORE PUSH1 0x20 ADD SWAP1 DUP2 MSTORE PUSH1 0x20 ADD PUSH1 0x0 KECCAK256 SWAP1 DUP1 MLOAD SWAP1 PUSH1 0x20 ADD SWAP1 PUSH3 0x38D SWAP3 SWAP2 SWAP1 PUSH3 0x5BB JUMP JUMPDEST POP PUSH1 0x40 MLOAD DUP1 PUSH1 0x40 ADD PUSH1 0x40 MSTORE DUP1 PUSH1 0x19 DUP2 MSTORE PUSH1 0x20 ADD PUSH32 0x45786368616E6765207265717565737420617070726F76656400000000000000 DUP2 MSTORE POP PUSH1 0x6 PUSH1 0x0 PUSH1 0x6 PUSH1 0x9 DUP2 GT ISZERO PUSH3 0x3DF JUMPI PUSH3 0x3DE PUSH3 0x6A1 JUMP JUMPDEST JUMPDEST PUSH1 0x9 DUP2 GT ISZERO PUSH3 0x3F4 JUMPI PUSH3 0x3F3 PUSH3 0x6A1 JUMP JUMPDEST JUMPDEST DUP2 MSTORE PUSH1 0x20 ADD SWAP1 DUP2 MSTORE PUSH1 0x20 ADD PUSH1 0x0 KECCAK256 SWAP1 DUP1 MLOAD SWAP1 PUSH1 0x20 ADD SWAP1 PUSH3 0x417 SWAP3 SWAP2 SWAP1 PUSH3 0x5BB JUMP JUMPDEST POP PUSH1 0x40 MLOAD DUP1 PUSH1 0x40 ADD PUSH1 0x40 MSTORE DUP1 PUSH1 0x19 DUP2 MSTORE PUSH1 0x20 ADD PUSH32 0x45786368616E676520726571756573742072656A656374656400000000000000 DUP2 MSTORE POP PUSH1 0x6 PUSH1 0x0 PUSH1 0x7 PUSH1 0x9 DUP2 GT ISZERO PUSH3 0x469 JUMPI PUSH3 0x468 PUSH3 0x6A1 JUMP JUMPDEST JUMPDEST PUSH1 0x9 DUP2 GT ISZERO PUSH3 0x47E JUMPI PUSH3 0x47D PUSH3 0x6A1 JUMP JUMPDEST JUMPDEST DUP2 MSTORE PUSH1 0x20 ADD SWAP1 DUP2 MSTORE PUSH1 0x20 ADD PUSH1 0x0 KECCAK256 SWAP1 DUP1 MLOAD SWAP1 PUSH1 0x20 ADD SWAP1 PUSH3 0x4A1 SWAP3 SWAP2 SWAP1 PUSH3 0x5BB JUMP JUMPDEST POP PUSH1 0x40 MLOAD DUP1 PUSH1 0x40 ADD PUSH1 0x40 MSTORE DUP1 PUSH1 0xE DUP2 MSTORE PUSH1 0x20 ADD PUSH32 0x46756E647320726566756E646564000000000000000000000000000000000000 DUP2 MSTORE POP PUSH1 0x6 PUSH1 0x0 PUSH1 0x8 PUSH1 0x9 DUP2 GT ISZERO PUSH3 0x4F3 JUMPI PUSH3 0x4F2 PUSH3 0x6A1 JUMP JUMPDEST JUMPDEST PUSH1 0x9 DUP2 GT ISZERO PUSH3 0x508 JUMPI PUSH3 0x507 PUSH3 0x6A1 JUMP JUMPDEST JUMPDEST DUP2 MSTORE PUSH1 0x20 ADD SWAP1 DUP2 MSTORE PUSH1 0x20 ADD PUSH1 0x0 KECCAK256 SWAP1 DUP1 MLOAD SWAP1 PUSH1 0x20 ADD SWAP1 PUSH3 0x52B SWAP3 SWAP2 SWAP1 PUSH3 0x5BB JUMP JUMPDEST POP PUSH1 0x40 MLOAD DUP1 PUSH1 0x40 ADD PUSH1 0x40 MSTORE DUP1 PUSH1 0xE DUP2 MSTORE PUSH1 0x20 ADD PUSH32 0x50726F6A65637420636C6F736564000000000000000000000000000000000000 DUP2 MSTORE POP PUSH1 0x6 PUSH1 0x0 PUSH1 0x9 DUP1 DUP2 GT ISZERO PUSH3 0x57C JUMPI PUSH3 0x57B PUSH3 0x6A1 JUMP JUMPDEST JUMPDEST PUSH1 0x9 DUP2 GT ISZERO PUSH3 0x591 JUMPI PUSH3 0x590 PUSH3 0x6A1 JUMP JUMPDEST JUMPDEST DUP2 MSTORE PUSH1 0x20 ADD SWAP1 DUP2 MSTORE PUSH1 0x20 ADD PUSH1 0x0 KECCAK256 SWAP1 DUP1 MLOAD SWAP1 PUSH1 0x20 ADD SWAP1 PUSH3 0x5B4 SWAP3 SWAP2 SWAP1 PUSH3 0x5BB JUMP JUMPDEST POP PUSH3 0x6FF JUMP JUMPDEST DUP3 DUP1 SLOAD PUSH3 0x5C9 SWAP1 PUSH3 0x66B JUMP JUMPDEST SWAP1 PUSH1 0x0 MSTORE PUSH1 0x20 PUSH1 0x0 KECCAK256 SWAP1 PUSH1 0x1F ADD PUSH1 0x20 SWAP1 DIV DUP2 ADD SWAP3 DUP3 PUSH3 0x5ED JUMPI PUSH1 0x0 DUP6 SSTORE PUSH3 0x639 JUMP JUMPDEST DUP3 PUSH1 0x1F LT PUSH3 0x608 JUMPI DUP1 MLOAD PUSH1 0xFF NOT AND DUP4 DUP1 ADD OR DUP6 SSTORE PUSH3 0x639 JUMP JUMPDEST DUP3 DUP1 ADD PUSH1 0x1 ADD DUP6 SSTORE DUP3 ISZERO PUSH3 0x639 JUMPI SWAP2 DUP3 ADD JUMPDEST DUP3 DUP2 GT ISZERO PUSH3 0x638 JUMPI DUP3 MLOAD DUP3 SSTORE SWAP2 PUSH1 0x20 ADD SWAP2 SWAP1 PUSH1 0x1 ADD SWAP1 PUSH3 0x61B JUMP JUMPDEST JUMPDEST POP SWAP1 POP PUSH3 0x648 SWAP2 SWAP1 PUSH3 0x64C JUMP JUMPDEST POP SWAP1 JUMP JUMPDEST JUMPDEST DUP1 DUP3 GT ISZERO PUSH3 0x667 JUMPI PUSH1 0x0 DUP2 PUSH1 0x0 SWAP1 SSTORE POP PUSH1 0x1 ADD PUSH3 0x64D JUMP JUMPDEST POP SWAP1 JUMP JUMPDEST PUSH1 0x0 PUSH1 0x2 DUP3 DIV SWAP1 POP PUSH1 0x1 DUP3 AND DUP1 PUSH3 0x684 JUMPI PUSH1 0x7F DUP3 AND SWAP2 POP JUMPDEST PUSH1 0x20 DUP3 LT DUP2 EQ ISZERO PUSH3 0x69B JUMPI PUSH3 0x69A PUSH3 0x6D0 JUMP JUMPDEST JUMPDEST POP SWAP2 SWAP1 POP JUMP JUMPDEST PUSH32 0x4E487B7100000000000000000000000000000000000000000000000000000000 PUSH1 0x0 MSTORE PUSH1 0x21 PUSH1 0x4 MSTORE PUSH1 0x24 PUSH1 0x0 REVERT JUMPDEST PUSH32 0x4E487B7100000000000000000000000000000000000000000000000000000000 PUSH1 0x0 MSTORE PUSH1 0x22 PUSH1 0x4 MSTORE PUSH1 0x24 PUSH1 0x0 REVERT JUMPDEST PUSH2 0x4EF7 DUP1 PUSH3 0x70F PUSH1 0x0 CODECOPY PUSH1 0x0 RETURN INVALID PUSH1 0x80 PUSH1 0x40 MSTORE PUSH1 0x4 CALLDATASIZE LT PUSH2 0xFE JUMPI PUSH1 0x0 CALLDATALOAD PUSH1 0xE0 SHR DUP1 PUSH4 0x9238CF4E GT PUSH2 0x95 JUMPI DUP1 PUSH4 0xBFDA08A3 GT PUSH2 0x64 JUMPI DUP1 PUSH4 0xBFDA08A3 EQ PUSH2 0x301 JUMPI DUP1 PUSH4 0xC4529AB9 EQ PUSH2 0x340 JUMPI DUP1 PUSH4 0xCA76973D EQ PUSH2 0x380 JUMPI DUP1 PUSH4 0xCED4F4B8 EQ PUSH2 0x3BD JUMPI DUP1 PUSH4 0xEF6ADD32 EQ PUSH2 0x3C7 JUMPI PUSH2 0xFE JUMP JUMPDEST DUP1 PUSH4 0x9238CF4E EQ PUSH2 0x247 JUMPI DUP1 PUSH4 0x9DF9B0E6 EQ PUSH2 0x284 JUMPI DUP1 PUSH4 0xAB6B8564 EQ PUSH2 0x2AD JUMPI DUP1 PUSH4 0xB61A7F76 EQ PUSH2 0x2D6 JUMPI PUSH2 0xFE JUMP JUMPDEST DUP1 PUSH4 0x42EF4BCC GT PUSH2 0xD1 JUMPI DUP1 PUSH4 0x42EF4BCC EQ PUSH2 0x18F JUMPI DUP1 PUSH4 0x44E54812 EQ PUSH2 0x1CC JUMPI DUP1 PUSH4 0x5C3BE951 EQ PUSH2 0x1F5 JUMPI DUP1 PUSH4 0x864EE384 EQ PUSH2 0x21E JUMPI PUSH2 0xFE JUMP JUMPDEST DUP1 PUSH4 0xEE3B93D EQ PUSH2 0x103 JUMPI DUP1 PUSH4 0x1AB33308 EQ PUSH2 0x12C JUMPI DUP1 PUSH4 0x21BEA7CC EQ PUSH2 0x157 JUMPI DUP1 PUSH4 0x259E6C8B EQ PUSH2 0x173 JUMPI JUMPDEST PUSH1 0x0 DUP1 REVERT JUMPDEST CALLVALUE DUP1 ISZERO PUSH2 0x10F JUMPI PUSH1 0x0 DUP1 REVERT JUMPDEST POP PUSH2 0x12A PUSH1 0x4 DUP1 CALLDATASIZE SUB DUP2 ADD SWAP1 PUSH2 0x125 SWAP2 SWAP1 PUSH2 0x3E86 JUMP JUMPDEST PUSH2 0x404 JUMP JUMPDEST STOP JUMPDEST CALLVALUE DUP1 ISZERO PUSH2 0x138 JUMPI PUSH1 0x0 DUP1 REVERT JUMPDEST POP PUSH2 0x141 PUSH2 0xAF2 JUMP JUMPDEST PUSH1 0x40 MLOAD PUSH2 0x14E SWAP2 SWAP1 PUSH2 0x43BC JUMP JUMPDEST PUSH1 0x40 MLOAD DUP1 SWAP2 SUB SWAP1 RETURN JUMPDEST PUSH2 0x171 PUSH1 0x4 DUP1 CALLDATASIZE SUB DUP2 ADD SWAP1 PUSH2 0x16C SWAP2 SWAP1 PUSH2 0x3D31 JUMP JUMPDEST PUSH2 0xB05 JUMP JUMPDEST STOP JUMPDEST PUSH2 0x18D PUSH1 0x4 DUP1 CALLDATASIZE SUB DUP2 ADD SWAP1 PUSH2 0x188 SWAP2 SWAP1 PUSH2 0x3D04 JUMP JUMPDEST PUSH2 0x11F9 JUMP JUMPDEST STOP JUMPDEST CALLVALUE DUP1 ISZERO PUSH2 0x19B JUMPI PUSH1 0x0 DUP1 REVERT JUMPDEST POP PUSH2 0x1B6 PUSH1 0x4 DUP1 CALLDATASIZE SUB DUP2 ADD SWAP1 PUSH2 0x1B1 SWAP2 SWAP1 PUSH2 0x3D31 JUMP JUMPDEST PUSH2 0x12EF JUMP JUMPDEST PUSH1 0x40 MLOAD PUSH2 0x1C3 SWAP2 SWAP1 PUSH2 0x43D7 JUMP JUMPDEST PUSH1 0x40 MLOAD DUP1 SWAP2 SUB SWAP1 RETURN JUMPDEST CALLVALUE DUP1 ISZERO PUSH2 0x1D8 JUMPI PUSH1 0x0 DUP1 REVERT JUMPDEST POP PUSH2 0x1F3 PUSH1 0x4 DUP1 CALLDATASIZE SUB DUP2 ADD SWAP1 PUSH2 0x1EE SWAP2 SWAP1 PUSH2 0x3DC4 JUMP JUMPDEST PUSH2 0x1551 JUMP JUMPDEST STOP JUMPDEST CALLVALUE DUP1 ISZERO PUSH2 0x201 JUMPI PUSH1 0x0 DUP1 REVERT JUMPDEST POP PUSH2 0x21C PUSH1 0x4 DUP1 CALLDATASIZE SUB DUP2 ADD SWAP1 PUSH2 0x217 SWAP2 SWAP1 PUSH2 0x3F4F JUMP JUMPDEST PUSH2 0x1A5E JUMP JUMPDEST STOP JUMPDEST CALLVALUE DUP1 ISZERO PUSH2 0x22A JUMPI PUSH1 0x0 DUP1 REVERT JUMPDEST POP PUSH2 0x245 PUSH1 0x4 DUP1 CALLDATASIZE SUB DUP2 ADD SWAP1 PUSH2 0x240 SWAP2 SWAP1 PUSH2 0x3EF3 JUMP JUMPDEST PUSH2 0x1FD1 JUMP JUMPDEST STOP JUMPDEST CALLVALUE DUP1 ISZERO PUSH2 0x253 JUMPI PUSH1 0x0 DUP1 REVERT JUMPDEST POP PUSH2 0x26E PUSH1 0x4 DUP1 CALLDATASIZE SUB DUP2 ADD SWAP1 PUSH2 0x269 SWAP2 SWAP1 PUSH2 0x3D31 JUMP JUMPDEST PUSH2 0x21B3 JUMP JUMPDEST PUSH1 0x40 MLOAD PUSH2 0x27B SWAP2 SWAP1 PUSH2 0x4599 JUMP JUMPDEST PUSH1 0x40 MLOAD DUP1 SWAP2 SUB SWAP1 RETURN JUMPDEST CALLVALUE DUP1 ISZERO PUSH2 0x290 JUMPI PUSH1 0x0 DUP1 REVERT JUMPDEST POP PUSH2 0x2AB PUSH1 0x4 DUP1 CALLDATASIZE SUB DUP2 ADD SWAP1 PUSH2 0x2A6 SWAP2 SWAP1 PUSH2 0x3D31 JUMP JUMPDEST PUSH2 0x2348 JUMP JUMPDEST STOP JUMPDEST CALLVALUE DUP1 ISZERO PUSH2 0x2B9 JUMPI PUSH1 0x0 DUP1 REVERT JUMPDEST POP PUSH2 0x2D4 PUSH1 0x4 DUP1 CALLDATASIZE SUB DUP2 ADD SWAP1 PUSH2 0x2CF SWAP2 SWAP1 PUSH2 0x3E17 JUMP JUMPDEST PUSH2 0x2A16 JUMP JUMPDEST STOP JUMPDEST CALLVALUE DUP1 ISZERO PUSH2 0x2E2 JUMPI PUSH1 0x0 DUP1 REVERT JUMPDEST POP PUSH2 0x2EB PUSH2 0x2C48 JUMP JUMPDEST PUSH1 0x40 MLOAD PUSH2 0x2F8 SWAP2 SWAP1 PUSH2 0x4309 JUMP JUMPDEST PUSH1 0x40 MLOAD DUP1 SWAP2 SUB SWAP1 RETURN JUMPDEST CALLVALUE DUP1 ISZERO PUSH2 0x30D JUMPI PUSH1 0x0 DUP1 REVERT JUMPDEST POP PUSH2 0x328 PUSH1 0x4 DUP1 CALLDATASIZE SUB DUP2 ADD SWAP1 PUSH2 0x323 SWAP2 SWAP1 PUSH2 0x3D31 JUMP JUMPDEST PUSH2 0x2C6E JUMP JUMPDEST PUSH1 0x40 MLOAD PUSH2 0x337 SWAP4 SWAP3 SWAP2 SWAP1 PUSH2 0x45B4 JUMP JUMPDEST PUSH1 0x40 MLOAD DUP1 SWAP2 SUB SWAP1 RETURN JUMPDEST CALLVALUE DUP1 ISZERO PUSH2 0x34C JUMPI PUSH1 0x0 DUP1 REVERT JUMPDEST POP PUSH2 0x367 PUSH1 0x4 DUP1 CALLDATASIZE SUB DUP2 ADD SWAP1 PUSH2 0x362 SWAP2 SWAP1 PUSH2 0x3D04 JUMP JUMPDEST PUSH2 0x2E84 JUMP JUMPDEST PUSH1 0x40 MLOAD PUSH2 0x377 SWAP5 SWAP4 SWAP3 SWAP2 SWAP1 PUSH2 0x435B JUMP JUMPDEST PUSH1 0x40 MLOAD DUP1 SWAP2 SUB SWAP1 RETURN JUMPDEST CALLVALUE DUP1 ISZERO PUSH2 0x38C JUMPI PUSH1 0x0 DUP1 REVERT JUMPDEST POP PUSH2 0x3A7 PUSH1 0x4 DUP1 CALLDATASIZE SUB DUP2 ADD SWAP1 PUSH2 0x3A2 SWAP2 SWAP1 PUSH2 0x3D71 JUMP JUMPDEST PUSH2 0x327D JUMP JUMPDEST PUSH1 0x40 MLOAD PUSH2 0x3B4 SWAP2 SWAP1 PUSH2 0x4599 JUMP JUMPDEST PUSH1 0x40 MLOAD DUP1 SWAP2 SUB SWAP1 RETURN JUMPDEST PUSH2 0x3C5 PUSH2 0x34F3 JUMP JUMPDEST STOP JUMPDEST CALLVALUE DUP1 ISZERO PUSH2 0x3D3 JUMPI PUSH1 0x0 DUP1 REVERT JUMPDEST POP PUSH2 0x3EE PUSH1 0x4 DUP1 CALLDATASIZE SUB DUP2 ADD SWAP1 PUSH2 0x3E9 SWAP2 SWAP1 PUSH2 0x3EC6 JUMP JUMPDEST PUSH2 0x355E JUMP JUMPDEST PUSH1 0x40 MLOAD PUSH2 0x3FB SWAP2 SWAP1 PUSH2 0x43D7 JUMP JUMPDEST PUSH1 0x40 MLOAD DUP1 SWAP2 SUB SWAP1 RETURN JUMPDEST PUSH1 0x2 PUSH1 0x0 SWAP1 SLOAD SWAP1 PUSH2 0x100 EXP SWAP1 DIV PUSH20 0xFFFFFFFFFFFFFFFFFFFFFFFFFFFFFFFFFFFFFFFF AND PUSH20 0xFFFFFFFFFFFFFFFFFFFFFFFFFFFFFFFFFFFFFFFF AND CALLER PUSH20 0xFFFFFFFFFFFFFFFFFFFFFFFFFFFFFFFFFFFFFFFF AND EQ ISZERO PUSH1 0x40 MLOAD DUP1 PUSH1 0x60 ADD PUSH1 0x40 MSTORE DUP1 PUSH1 0x2F DUP2 MSTORE PUSH1 0x20 ADD PUSH2 0x4E93 PUSH1 0x2F SWAP2 CODECOPY SWAP1 PUSH2 0x4B0 JUMPI PUSH1 0x40 MLOAD PUSH32 0x8C379A000000000000000000000000000000000000000000000000000000000 DUP2 MSTORE PUSH1 0x4 ADD PUSH2 0x4A7 SWAP2 SWAP1 PUSH2 0x43D7 JUMP JUMPDEST PUSH1 0x40 MLOAD DUP1 SWAP2 SUB SWAP1 REVERT JUMPDEST POP PUSH1 0x0 PUSH1 0x3 PUSH1 0x9 DUP2 GT ISZERO PUSH2 0x4C7 JUMPI PUSH2 0x4C6 PUSH2 0x48F0 JUMP JUMPDEST JUMPDEST DUP3 PUSH1 0xFF AND PUSH1 0x9 DUP2 GT ISZERO PUSH2 0x4DD JUMPI PUSH2 0x4DC PUSH2 0x48F0 JUMP JUMPDEST JUMPDEST PUSH1 0x9 DUP2 GT ISZERO PUSH2 0x4EF JUMPI PUSH2 0x4EE PUSH2 0x48F0 JUMP JUMPDEST JUMPDEST EQ ISZERO PUSH1 0x40 MLOAD DUP1 PUSH1 0x60 ADD PUSH1 0x40 MSTORE DUP1 PUSH1 0x31 DUP2 MSTORE PUSH1 0x20 ADD PUSH2 0x4E62 PUSH1 0x31 SWAP2 CODECOPY SWAP1 PUSH2 0x54B JUMPI PUSH1 0x40 MLOAD PUSH32 0x8C379A000000000000000000000000000000000000000000000000000000000 DUP2 MSTORE PUSH1 0x4 ADD PUSH2 0x542 SWAP2 SWAP1 PUSH2 0x43D7 JUMP JUMPDEST PUSH1 0x40 MLOAD DUP1 SWAP2 SUB SWAP1 REVERT JUMPDEST POP PUSH1 0x5 PUSH1 0x9 DUP2 GT ISZERO PUSH2 0x560 JUMPI PUSH2 0x55F PUSH2 0x48F0 JUMP JUMPDEST JUMPDEST DUP3 PUSH1 0xFF AND PUSH1 0x9 DUP2 GT ISZERO PUSH2 0x576 JUMPI PUSH2 0x575 PUSH2 0x48F0 JUMP JUMPDEST JUMPDEST PUSH1 0x9 DUP2 GT ISZERO PUSH2 0x588 JUMPI PUSH2 0x587 PUSH2 0x48F0 JUMP JUMPDEST JUMPDEST EQ ISZERO PUSH1 0x40 MLOAD DUP1 PUSH1 0x60 ADD PUSH1 0x40 MSTORE DUP1 PUSH1 0x31 DUP2 MSTORE PUSH1 0x20 ADD PUSH2 0x4E62 PUSH1 0x31 SWAP2 CODECOPY SWAP1 PUSH2 0x5E4 JUMPI PUSH1 0x40 MLOAD PUSH32 0x8C379A000000000000000000000000000000000000000000000000000000000 DUP2 MSTORE PUSH1 0x4 ADD PUSH2 0x5DB SWAP2 SWAP1 PUSH2 0x43D7 JUMP JUMPDEST PUSH1 0x40 MLOAD DUP1 SWAP2 SUB SWAP1 REVERT JUMPDEST POP PUSH1 0x0 PUSH1 0x3 PUSH1 0x0 CALLER PUSH20 0xFFFFFFFFFFFFFFFFFFFFFFFFFFFFFFFFFFFFFFFF AND PUSH20 0xFFFFFFFFFFFFFFFFFFFFFFFFFFFFFFFFFFFFFFFF AND DUP2 MSTORE PUSH1 0x20 ADD SWAP1 DUP2 MSTORE PUSH1 0x20 ADD PUSH1 0x0 KECCAK256 SWAP1 POP PUSH1 0x0 DUP2 DUP1 SLOAD SWAP1 POP GT PUSH2 0x66F JUMPI PUSH1 0x40 MLOAD PUSH32 0x8C379A000000000000000000000000000000000000000000000000000000000 DUP2 MSTORE PUSH1 0x4 ADD PUSH2 0x666 SWAP1 PUSH2 0x44B9 JUMP JUMPDEST PUSH1 0x40 MLOAD DUP1 SWAP2 SUB SWAP1 REVERT JUMPDEST PUSH1 0x0 JUMPDEST DUP2 DUP1 SLOAD SWAP1 POP DUP2 LT ISZERO PUSH2 0xAEB JUMPI DUP5 PUSH20 0xFFFFFFFFFFFFFFFFFFFFFFFFFFFFFFFFFFFFFFFF AND DUP3 DUP3 DUP2 SLOAD DUP2 LT PUSH2 0x6A8 JUMPI PUSH2 0x6A7 PUSH2 0x494E JUMP JUMPDEST JUMPDEST SWAP1 PUSH1 0x0 MSTORE PUSH1 0x20 PUSH1 0x0 KECCAK256 SWAP1 PUSH1 0x7 MUL ADD PUSH1 0x3 ADD PUSH1 0x0 SWAP1 SLOAD SWAP1 PUSH2 0x100 EXP SWAP1 DIV PUSH20 0xFFFFFFFFFFFFFFFFFFFFFFFFFFFFFFFFFFFFFFFF AND PUSH20 0xFFFFFFFFFFFFFFFFFFFFFFFFFFFFFFFFFFFFFFFF AND EQ ISZERO PUSH2 0xACD JUMPI PUSH1 0x1 SWAP3 POP PUSH1 0x7 PUSH1 0x9 DUP2 GT ISZERO PUSH2 0x70E JUMPI PUSH2 0x70D PUSH2 0x48F0 JUMP JUMPDEST JUMPDEST DUP5 PUSH1 0xFF AND PUSH1 0x9 DUP2 GT ISZERO PUSH2 0x724 JUMPI PUSH2 0x723 PUSH2 0x48F0 JUMP JUMPDEST JUMPDEST PUSH1 0x9 DUP2 GT ISZERO PUSH2 0x736 JUMPI PUSH2 0x735 PUSH2 0x48F0 JUMP JUMPDEST JUMPDEST EQ DUP1 PUSH2 0x77B JUMPI POP PUSH1 0x6 PUSH1 0x9 DUP2 GT ISZERO PUSH2 0x751 JUMPI PUSH2 0x750 PUSH2 0x48F0 JUMP JUMPDEST JUMPDEST DUP5 PUSH1 0xFF AND PUSH1 0x9 DUP2 GT ISZERO PUSH2 0x767 JUMPI PUSH2 0x766 PUSH2 0x48F0 JUMP JUMPDEST JUMPDEST PUSH1 0x9 DUP2 GT ISZERO PUSH2 0x779 JUMPI PUSH2 0x778 PUSH2 0x48F0 JUMP JUMPDEST JUMPDEST EQ JUMPDEST ISZERO PUSH2 0x929 JUMPI PUSH1 0x0 DUP3 DUP3 DUP2 SLOAD DUP2 LT PUSH2 0x795 JUMPI PUSH2 0x794 PUSH2 0x494E JUMP JUMPDEST JUMPDEST SWAP1 PUSH1 0x0 MSTORE PUSH1 0x20 PUSH1 0x0 KECCAK256 SWAP1 PUSH1 0x7 MUL ADD PUSH1 0x4 ADD PUSH1 0x14 PUSH2 0x100 EXP DUP2 SLOAD DUP2 PUSH1 0xFF MUL NOT AND SWAP1 DUP4 ISZERO ISZERO MUL OR SWAP1 SSTORE POP PUSH32 0x7149B8A236148161D6ED6DD65EE3D95161A895F8788D472B49A825EE9A996D6D CALLER DUP7 DUP7 PUSH1 0xFF AND PUSH1 0x9 DUP2 GT ISZERO PUSH2 0x7F6 JUMPI PUSH2 0x7F5 PUSH2 0x48F0 JUMP JUMPDEST JUMPDEST PUSH1 0x40 MLOAD PUSH2 0x805 SWAP4 SWAP3 SWAP2 SWAP1 PUSH2 0x4324 JUMP JUMPDEST PUSH1 0x40 MLOAD DUP1 SWAP2 SUB SWAP1 LOG1 PUSH1 0x7 PUSH1 0x9 DUP2 GT ISZERO PUSH2 0x821 JUMPI PUSH2 0x820 PUSH2 0x48F0 JUMP JUMPDEST JUMPDEST DUP5 PUSH1 0xFF AND PUSH1 0x9 DUP2 GT ISZERO PUSH2 0x837 JUMPI PUSH2 0x836 PUSH2 0x48F0 JUMP JUMPDEST JUMPDEST PUSH1 0x9 DUP2 GT ISZERO PUSH2 0x849 JUMPI PUSH2 0x848 PUSH2 0x48F0 JUMP JUMPDEST JUMPDEST EQ ISZERO PUSH2 0x89A JUMPI PUSH2 0x859 CALLER DUP7 PUSH2 0x35FE JUMP JUMPDEST PUSH32 0xB1C913A6F2FFB3DC7A85BC2D3DEF4CA9BC82B4FF580CADC77ACBBBD3A6AACC20 CALLER DUP7 PUSH1 0x8 PUSH1 0x40 MLOAD PUSH2 0x88D SWAP4 SWAP3 SWAP2 SWAP1 PUSH2 0x4324 JUMP JUMPDEST PUSH1 0x40 MLOAD DUP1 SWAP2 SUB SWAP1 LOG1 PUSH2 0x924 JUMP JUMPDEST PUSH1 0x6 PUSH1 0x9 DUP2 GT ISZERO PUSH2 0x8AE JUMPI PUSH2 0x8AD PUSH2 0x48F0 JUMP JUMPDEST JUMPDEST DUP5 PUSH1 0xFF AND PUSH1 0x9 DUP2 GT ISZERO PUSH2 0x8C4 JUMPI PUSH2 0x8C3 PUSH2 0x48F0 JUMP JUMPDEST JUMPDEST PUSH1 0x9 DUP2 GT ISZERO PUSH2 0x8D6 JUMPI PUSH2 0x8D5 PUSH2 0x48F0 JUMP JUMPDEST JUMPDEST EQ ISZERO PUSH2 0x923 JUMPI PUSH2 0x8E6 CALLER DUP7 PUSH2 0x3964 JUMP JUMPDEST PUSH32 0xB1C913A6F2FFB3DC7A85BC2D3DEF4CA9BC82B4FF580CADC77ACBBBD3A6AACC20 CALLER DUP7 PUSH1 0x9 PUSH1 0x40 MLOAD PUSH2 0x91A SWAP4 SWAP3 SWAP2 SWAP1 PUSH2 0x4324 JUMP JUMPDEST PUSH1 0x40 MLOAD DUP1 SWAP2 SUB SWAP1 LOG1 JUMPDEST JUMPDEST PUSH2 0xACC JUMP JUMPDEST DUP4 PUSH1 0xFF AND PUSH1 0x9 DUP2 GT ISZERO PUSH2 0x93F JUMPI PUSH2 0x93E PUSH2 0x48F0 JUMP JUMPDEST JUMPDEST DUP3 DUP3 DUP2 SLOAD DUP2 LT PUSH2 0x952 JUMPI PUSH2 0x951 PUSH2 0x494E JUMP JUMPDEST JUMPDEST SWAP1 PUSH1 0x0 MSTORE PUSH1 0x20 PUSH1 0x0 KECCAK256 SWAP1 PUSH1 0x7 MUL ADD PUSH1 0x6 ADD PUSH1 0x0 PUSH2 0x100 EXP DUP2 SLOAD DUP2 PUSH1 0xFF MUL NOT AND SWAP1 DUP4 PUSH1 0x9 DUP2 GT ISZERO PUSH2 0x985 JUMPI PUSH2 0x984 PUSH2 0x48F0 JUMP JUMPDEST JUMPDEST MUL OR SWAP1 SSTORE POP PUSH1 0x2 PUSH1 0x9 DUP2 GT ISZERO PUSH2 0x99E JUMPI PUSH2 0x99D PUSH2 0x48F0 JUMP JUMPDEST JUMPDEST DUP5 PUSH1 0xFF AND PUSH1 0x9 DUP2 GT ISZERO PUSH2 0x9B4 JUMPI PUSH2 0x9B3 PUSH2 0x48F0 JUMP JUMPDEST JUMPDEST PUSH1 0x9 DUP2 GT ISZERO PUSH2 0x9C6 JUMPI PUSH2 0x9C5 PUSH2 0x48F0 JUMP JUMPDEST JUMPDEST EQ ISZERO PUSH2 0xA0E JUMPI PUSH1 0x1 DUP3 DUP3 DUP2 SLOAD DUP2 LT PUSH2 0x9E1 JUMPI PUSH2 0x9E0 PUSH2 0x494E JUMP JUMPDEST JUMPDEST SWAP1 PUSH1 0x0 MSTORE PUSH1 0x20 PUSH1 0x0 KECCAK256 SWAP1 PUSH1 0x7 MUL ADD PUSH1 0x4 ADD PUSH1 0x14 PUSH2 0x100 EXP DUP2 SLOAD DUP2 PUSH1 0xFF MUL NOT AND SWAP1 DUP4 ISZERO ISZERO MUL OR SWAP1 SSTORE POP PUSH2 0xACB JUMP JUMPDEST PUSH1 0x4 PUSH1 0x9 DUP2 GT ISZERO PUSH2 0xA22 JUMPI PUSH2 0xA21 PUSH2 0x48F0 JUMP JUMPDEST JUMPDEST DUP5 PUSH1 0xFF AND PUSH1 0x9 DUP2 GT ISZERO PUSH2 0xA38 JUMPI PUSH2 0xA37 PUSH2 0x48F0 JUMP JUMPDEST JUMPDEST PUSH1 0x9 DUP2 GT ISZERO PUSH2 0xA4A JUMPI PUSH2 0xA49 PUSH2 0x48F0 JUMP JUMPDEST JUMPDEST EQ ISZERO PUSH2 0xACA JUMPI PUSH1 0x0 DUP3 DUP3 DUP2 SLOAD DUP2 LT PUSH2 0xA65 JUMPI PUSH2 0xA64 PUSH2 0x494E JUMP JUMPDEST JUMPDEST SWAP1 PUSH1 0x0 MSTORE PUSH1 0x20 PUSH1 0x0 KECCAK256 SWAP1 PUSH1 0x7 MUL ADD PUSH1 0x4 ADD PUSH1 0x14 PUSH2 0x100 EXP DUP2 SLOAD DUP2 PUSH1 0xFF MUL NOT AND SWAP1 DUP4 ISZERO ISZERO MUL OR SWAP1 SSTORE POP PUSH32 0x8368D76676EFAF85C0B16282870A64F994DBB3A7C8CC90BA57D8BD4D4CCCB2F3 CALLER DUP7 PUSH1 0x4 PUSH1 0x40 MLOAD PUSH2 0xAC1 SWAP4 SWAP3 SWAP2 SWAP1 PUSH2 0x4324 JUMP JUMPDEST PUSH1 0x40 MLOAD DUP1 SWAP2 SUB SWAP1 LOG1 JUMPDEST JUMPDEST JUMPDEST JUMPDEST DUP3 ISZERO PUSH2 0xAD8 JUMPI PUSH2 0xAEB JUMP JUMPDEST DUP1 DUP1 PUSH2 0xAE3 SWAP1 PUSH2 0x4878 JUMP JUMPDEST SWAP2 POP POP PUSH2 0x672 JUMP JUMPDEST POP POP POP POP POP JUMP JUMPDEST PUSH1 0x5 PUSH1 0x0 SWAP1 SLOAD SWAP1 PUSH2 0x100 EXP SWAP1 DIV PUSH1 0xFF AND DUP2 JUMP JUMPDEST PUSH1 0x0 DUP1 PUSH1 0x3 PUSH1 0x0 DUP6 PUSH20 0xFFFFFFFFFFFFFFFFFFFFFFFFFFFFFFFFFFFFFFFF AND PUSH20 0xFFFFFFFFFFFFFFFFFFFFFFFFFFFFFFFFFFFFFFFF AND DUP2 MSTORE PUSH1 0x20 ADD SWAP1 DUP2 MSTORE PUSH1 0x20 ADD PUSH1 0x0 KECCAK256 SWAP1 POP PUSH1 0x0 DUP2 DUP1 SLOAD SWAP1 POP GT PUSH2 0xB90 JUMPI PUSH1 0x40 MLOAD PUSH32 0x8C379A000000000000000000000000000000000000000000000000000000000 DUP2 MSTORE PUSH1 0x4 ADD PUSH2 0xB87 SWAP1 PUSH2 0x44B9 JUMP JUMPDEST PUSH1 0x40 MLOAD DUP1 SWAP2 SUB SWAP1 REVERT JUMPDEST CALLER PUSH20 0xFFFFFFFFFFFFFFFFFFFFFFFFFFFFFFFFFFFFFFFF AND BALANCE CALLVALUE GT ISZERO PUSH2 0xBEA JUMPI PUSH1 0x40 MLOAD PUSH32 0x8C379A000000000000000000000000000000000000000000000000000000000 DUP2 MSTORE PUSH1 0x4 ADD PUSH2 0xBE1 SWAP1 PUSH2 0x4559 JUMP JUMPDEST PUSH1 0x40 MLOAD DUP1 SWAP2 SUB SWAP1 REVERT JUMPDEST PUSH1 0x0 JUMPDEST DUP2 DUP1 SLOAD SWAP1 POP DUP2 LT ISZERO PUSH2 0x11B2 JUMPI DUP4 PUSH20 0xFFFFFFFFFFFFFFFFFFFFFFFFFFFFFFFFFFFFFFFF AND DUP3 DUP3 DUP2 SLOAD DUP2 LT PUSH2 0xC23 JUMPI PUSH2 0xC22 PUSH2 0x494E JUMP JUMPDEST JUMPDEST SWAP1 PUSH1 0x0 MSTORE PUSH1 0x20 PUSH1 0x0 KECCAK256 SWAP1 PUSH1 0x7 MUL ADD PUSH1 0x3 ADD PUSH1 0x0 SWAP1 SLOAD SWAP1 PUSH2 0x100 EXP SWAP1 DIV PUSH20 0xFFFFFFFFFFFFFFFFFFFFFFFFFFFFFFFFFFFFFFFF AND PUSH20 0xFFFFFFFFFFFFFFFFFFFFFFFFFFFFFFFFFFFFFFFF AND EQ ISZERO PUSH2 0x119F JUMPI DUP2 DUP2 DUP2 SLOAD DUP2 LT PUSH2 0xC84 JUMPI PUSH2 0xC83 PUSH2 0x494E JUMP JUMPDEST JUMPDEST SWAP1 PUSH1 0x0 MSTORE PUSH1 0x20 PUSH1 0x0 KECCAK256 SWAP1 PUSH1 0x7 MUL ADD PUSH1 0x4 ADD PUSH1 0x14 SWAP1 SLOAD SWAP1 PUSH2 0x100 EXP SWAP1 DIV PUSH1 0xFF AND ISZERO PUSH2 0x115B JUMPI DUP2 DUP2 DUP2 SLOAD DUP2 LT PUSH2 0xCBB JUMPI PUSH2 0xCBA PUSH2 0x494E JUMP JUMPDEST JUMPDEST SWAP1 PUSH1 0x0 MSTORE PUSH1 0x20 PUSH1 0x0 KECCAK256 SWAP1 PUSH1 0x7 MUL ADD PUSH1 0x0 ADD SLOAD CALLVALUE LT ISZERO PUSH2 0xD0F JUMPI PUSH1 0x40 MLOAD PUSH32 0x8C379A000000000000000000000000000000000000000000000000000000000 DUP2 MSTORE PUSH1 0x4 ADD PUSH2 0xD06 SWAP1 PUSH2 0x4459 JUMP JUMPDEST PUSH1 0x40 MLOAD DUP1 SWAP2 SUB SWAP1 REVERT JUMPDEST DUP2 DUP2 DUP2 SLOAD DUP2 LT PUSH2 0xD22 JUMPI PUSH2 0xD21 PUSH2 0x494E JUMP JUMPDEST JUMPDEST SWAP1 PUSH1 0x0 MSTORE PUSH1 0x20 PUSH1 0x0 KECCAK256 SWAP1 PUSH1 0x7 MUL ADD PUSH1 0x1 ADD SLOAD DUP3 DUP3 DUP2 SLOAD DUP2 LT PUSH2 0xD47 JUMPI PUSH2 0xD46 PUSH2 0x494E JUMP JUMPDEST JUMPDEST SWAP1 PUSH1 0x0 MSTORE PUSH1 0x20 PUSH1 0x0 KECCAK256 SWAP1 PUSH1 0x7 MUL ADD PUSH1 0x2 ADD SLOAD CALLVALUE PUSH2 0xD64 SWAP2 SWAP1 PUSH2 0x46CF JUMP JUMPDEST GT ISZERO PUSH2 0xDA5 JUMPI PUSH1 0x40 MLOAD PUSH32 0x8C379A000000000000000000000000000000000000000000000000000000000 DUP2 MSTORE PUSH1 0x4 ADD PUSH2 0xD9C SWAP1 PUSH2 0x4419 JUMP JUMPDEST PUSH1 0x40 MLOAD DUP1 SWAP2 SUB SWAP1 REVERT JUMPDEST CALLVALUE DUP3 DUP3 DUP2 SLOAD DUP2 LT PUSH2 0xDB9 JUMPI PUSH2 0xDB8 PUSH2 0x494E JUMP JUMPDEST JUMPDEST SWAP1 PUSH1 0x0 MSTORE PUSH1 0x20 PUSH1 0x0 KECCAK256 SWAP1 PUSH1 0x7 MUL ADD PUSH1 0x2 ADD SLOAD PUSH2 0xDD5 SWAP2 SWAP1 PUSH2 0x46CF JUMP JUMPDEST DUP3 DUP3 DUP2 SLOAD DUP2 LT PUSH2 0xDE8 JUMPI PUSH2 0xDE7 PUSH2 0x494E JUMP JUMPDEST JUMPDEST SWAP1 PUSH1 0x0 MSTORE PUSH1 0x20 PUSH1 0x0 KECCAK256 SWAP1 PUSH1 0x7 MUL ADD PUSH1 0x2 ADD DUP2 SWAP1 SSTORE POP PUSH1 0x0 PUSH1 0x4 PUSH1 0x0 DUP7 PUSH20 0xFFFFFFFFFFFFFFFFFFFFFFFFFFFFFFFFFFFFFFFF AND PUSH20 0xFFFFFFFFFFFFFFFFFFFFFFFFFFFFFFFFFFFFFFFF AND DUP2 MSTORE PUSH1 0x20 ADD SWAP1 DUP2 MSTORE PUSH1 0x20 ADD PUSH1 0x0 KECCAK256 SWAP1 POP PUSH1 0x0 DUP2 DUP1 SLOAD SWAP1 POP SWAP1 POP PUSH1 0x0 DUP1 PUSH1 0x0 SWAP1 POP JUMPDEST DUP4 DUP1 SLOAD SWAP1 POP DUP2 LT ISZERO PUSH2 0xF69 JUMPI CALLER PUSH20 0xFFFFFFFFFFFFFFFFFFFFFFFFFFFFFFFFFFFFFFFF AND DUP5 DUP3 DUP2 SLOAD DUP2 LT PUSH2 0xE87 JUMPI PUSH2 0xE86 PUSH2 0x494E JUMP JUMPDEST JUMPDEST SWAP1 PUSH1 0x0 MSTORE PUSH1 0x20 PUSH1 0x0 KECCAK256 SWAP1 PUSH1 0x3 MUL ADD PUSH1 0x1 ADD PUSH1 0x0 SWAP1 SLOAD SWAP1 PUSH2 0x100 EXP SWAP1 DIV PUSH20 0xFFFFFFFFFFFFFFFFFFFFFFFFFFFFFFFFFFFFFFFF AND PUSH20 0xFFFFFFFFFFFFFFFFFFFFFFFFFFFFFFFFFFFFFFFF AND EQ ISZERO PUSH2 0xF56 JUMPI CALLVALUE DUP5 DUP3 DUP2 SLOAD DUP2 LT PUSH2 0xEE9 JUMPI PUSH2 0xEE8 PUSH2 0x494E JUMP JUMPDEST JUMPDEST SWAP1 PUSH1 0x0 MSTORE PUSH1 0x20 PUSH1 0x0 KECCAK256 SWAP1 PUSH1 0x3 MUL ADD PUSH1 0x2 ADD PUSH1 0x0 DUP11 PUSH20 0xFFFFFFFFFFFFFFFFFFFFFFFFFFFFFFFFFFFFFFFF AND PUSH20 0xFFFFFFFFFFFFFFFFFFFFFFFFFFFFFFFFFFFFFFFF AND DUP2 MSTORE PUSH1 0x20 ADD SWAP1 DUP2 MSTORE PUSH1 0x20 ADD PUSH1 0x0 KECCAK256 PUSH1 0x0 DUP3 DUP3 SLOAD PUSH2 0xF46 SWAP2 SWAP1 PUSH2 0x46CF JUMP JUMPDEST SWAP3 POP POP DUP2 SWAP1 SSTORE POP PUSH1 0x1 SWAP2 POP PUSH2 0xF69 JUMP JUMPDEST DUP1 DUP1 PUSH2 0xF61 SWAP1 PUSH2 0x4878 JUMP JUMPDEST SWAP2 POP POP PUSH2 0xE51 JUMP JUMPDEST POP DUP1 PUSH2 0x103C JUMPI DUP3 PUSH1 0x1 DUP2 PUSH1 0x1 DUP2 SLOAD ADD DUP1 DUP3 SSTORE DUP1 SWAP2 POP POP SUB SWAP1 PUSH1 0x0 MSTORE PUSH1 0x20 PUSH1 0x0 KECCAK256 SWAP1 POP POP PUSH1 0x0 DUP4 DUP4 DUP2 SLOAD DUP2 LT PUSH2 0xFA1 JUMPI PUSH2 0xFA0 PUSH2 0x494E JUMP JUMPDEST JUMPDEST SWAP1 PUSH1 0x0 MSTORE PUSH1 0x20 PUSH1 0x0 KECCAK256 SWAP1 PUSH1 0x3 MUL ADD SWAP1 POP CALLER DUP2 PUSH1 0x1 ADD PUSH1 0x0 PUSH2 0x100 EXP DUP2 SLOAD DUP2 PUSH20 0xFFFFFFFFFFFFFFFFFFFFFFFFFFFFFFFFFFFFFFFF MUL NOT AND SWAP1 DUP4 PUSH20 0xFFFFFFFFFFFFFFFFFFFFFFFFFFFFFFFFFFFFFFFF AND MUL OR SWAP1 SSTORE POP CALLVALUE DUP2 PUSH1 0x2 ADD PUSH1 0x0 DUP11 PUSH20 0xFFFFFFFFFFFFFFFFFFFFFFFFFFFFFFFFFFFFFFFF AND PUSH20 0xFFFFFFFFFFFFFFFFFFFFFFFFFFFFFFFFFFFFFFFF AND DUP2 MSTORE PUSH1 0x20 ADD SWAP1 DUP2 MSTORE PUSH1 0x20 ADD PUSH1 0x0 KECCAK256 DUP2 SWAP1 SSTORE POP POP JUMPDEST DUP5 DUP5 DUP2 SLOAD DUP2 LT PUSH2 0x104F JUMPI PUSH2 0x104E PUSH2 0x494E JUMP JUMPDEST JUMPDEST SWAP1 PUSH1 0x0 MSTORE PUSH1 0x20 PUSH1 0x0 KECCAK256 SWAP1 PUSH1 0x7 MUL ADD PUSH1 0x1 ADD SLOAD DUP6 DUP6 DUP2 SLOAD DUP2 LT PUSH2 0x1074 JUMPI PUSH2 0x1073 PUSH2 0x494E JUMP JUMPDEST JUMPDEST SWAP1 PUSH1 0x0 MSTORE PUSH1 0x20 PUSH1 0x0 KECCAK256 SWAP1 PUSH1 0x7 MUL ADD PUSH1 0x2 ADD SLOAD EQ ISZERO PUSH2 0x1153 JUMPI PUSH1 0x3 DUP6 DUP6 DUP2 SLOAD DUP2 LT PUSH2 0x10A1 JUMPI PUSH2 0x10A0 PUSH2 0x494E JUMP JUMPDEST JUMPDEST SWAP1 PUSH1 0x0 MSTORE PUSH1 0x20 PUSH1 0x0 KECCAK256 SWAP1 PUSH1 0x7 MUL ADD PUSH1 0x6 ADD PUSH1 0x0 PUSH2 0x100 EXP DUP2 SLOAD DUP2 PUSH1 0xFF MUL NOT AND SWAP1 DUP4 PUSH1 0x9 DUP2 GT ISZERO PUSH2 0x10D4 JUMPI PUSH2 0x10D3 PUSH2 0x48F0 JUMP JUMPDEST JUMPDEST MUL OR SWAP1 SSTORE POP PUSH1 0x0 DUP6 DUP6 DUP2 SLOAD DUP2 LT PUSH2 0x10EE JUMPI PUSH2 0x10ED PUSH2 0x494E JUMP JUMPDEST JUMPDEST SWAP1 PUSH1 0x0 MSTORE PUSH1 0x20 PUSH1 0x0 KECCAK256 SWAP1 PUSH1 0x7 MUL ADD PUSH1 0x4 ADD PUSH1 0x14 PUSH2 0x100 EXP DUP2 SLOAD DUP2 PUSH1 0xFF MUL NOT AND SWAP1 DUP4 ISZERO ISZERO MUL OR SWAP1 SSTORE POP PUSH32 0xB0BD573BC922CD0BA3F1CC9AC05BC9C190A674FCF55C00D5B3CA04BE33EDBB31 DUP9 DUP9 PUSH1 0x3 PUSH1 0x40 MLOAD PUSH2 0x114A SWAP4 SWAP3 SWAP2 SWAP1 PUSH2 0x4324 JUMP JUMPDEST PUSH1 0x40 MLOAD DUP1 SWAP2 SUB SWAP1 LOG1 JUMPDEST POP POP POP PUSH2 0x1196 JUMP JUMPDEST PUSH1 0x40 MLOAD PUSH32 0x8C379A000000000000000000000000000000000000000000000000000000000 DUP2 MSTORE PUSH1 0x4 ADD PUSH2 0x118D SWAP1 PUSH2 0x4579 JUMP JUMPDEST PUSH1 0x40 MLOAD DUP1 SWAP2 SUB SWAP1 REVERT JUMPDEST PUSH1 0x1 SWAP3 POP PUSH2 0x11B2 JUMP JUMPDEST DUP1 DUP1 PUSH2 0x11AA SWAP1 PUSH2 0x4878 JUMP JUMPDEST SWAP2 POP POP PUSH2 0xBED JUMP JUMPDEST POP DUP2 PUSH2 0x11F3 JUMPI PUSH1 0x40 MLOAD PUSH32 0x8C379A000000000000000000000000000000000000000000000000000000000 DUP2 MSTORE PUSH1 0x4 ADD PUSH2 0x11EA SWAP1 PUSH2 0x4519 JUMP JUMPDEST PUSH1 0x40 MLOAD DUP1 SWAP2 SUB SWAP1 REVERT JUMPDEST POP POP POP POP JUMP JUMPDEST PUSH1 0x2 PUSH1 0x0 SWAP1 SLOAD SWAP1 PUSH2 0x100 EXP SWAP1 DIV PUSH20 0xFFFFFFFFFFFFFFFFFFFFFFFFFFFFFFFFFFFFFFFF AND PUSH20 0xFFFFFFFFFFFFFFFFFFFFFFFFFFFFFFFFFFFFFFFF AND CALLER PUSH20 0xFFFFFFFFFFFFFFFFFFFFFFFFFFFFFFFFFFFFFFFF AND EQ PUSH1 0x40 MLOAD DUP1 PUSH1 0x60 ADD PUSH1 0x40 MSTORE DUP1 PUSH1 0x33 DUP2 MSTORE PUSH1 0x20 ADD PUSH2 0x4E2F PUSH1 0x33 SWAP2 CODECOPY SWAP1 PUSH2 0x12A4 JUMPI PUSH1 0x40 MLOAD PUSH32 0x8C379A000000000000000000000000000000000000000000000000000000000 DUP2 MSTORE PUSH1 0x4 ADD PUSH2 0x129B SWAP2 SWAP1 PUSH2 0x43D7 JUMP JUMPDEST PUSH1 0x40 MLOAD DUP1 SWAP2 SUB SWAP1 REVERT JUMPDEST POP DUP1 PUSH20 0xFFFFFFFFFFFFFFFFFFFFFFFFFFFFFFFFFFFFFFFF AND PUSH2 0x8FC CALLVALUE SWAP1 DUP2 ISZERO MUL SWAP1 PUSH1 0x40 MLOAD PUSH1 0x0 PUSH1 0x40 MLOAD DUP1 DUP4 SUB DUP2 DUP6 DUP9 DUP9 CALL SWAP4 POP POP POP POP ISZERO DUP1 ISZERO PUSH2 0x12EB JUMPI RETURNDATASIZE PUSH1 0x0 DUP1 RETURNDATACOPY RETURNDATASIZE PUSH1 0x0 REVERT JUMPDEST POP POP JUMP JUMPDEST PUSH1 0x60 PUSH1 0x0 PUSH1 0x3 PUSH1 0x0 DUP6 PUSH20 0xFFFFFFFFFFFFFFFFFFFFFFFFFFFFFFFFFFFFFFFF AND PUSH20 0xFFFFFFFFFFFFFFFFFFFFFFFFFFFFFFFFFFFFFFFF AND DUP2 MSTORE PUSH1 0x20 ADD SWAP1 DUP2 MSTORE PUSH1 0x20 ADD PUSH1 0x0 KECCAK256 SWAP1 POP PUSH1 0x0 DUP2 DUP1 SLOAD SWAP1 POP GT PUSH2 0x137B JUMPI PUSH1 0x40 MLOAD PUSH32 0x8C379A000000000000000000000000000000000000000000000000000000000 DUP2 MSTORE PUSH1 0x4 ADD PUSH2 0x1372 SWAP1 PUSH2 0x44B9 JUMP JUMPDEST PUSH1 0x40 MLOAD DUP1 SWAP2 SUB SWAP1 REVERT JUMPDEST PUSH1 0x0 JUMPDEST DUP2 DUP1 SLOAD SWAP1 POP DUP2 LT ISZERO PUSH2 0x150F JUMPI DUP4 PUSH20 0xFFFFFFFFFFFFFFFFFFFFFFFFFFFFFFFFFFFFFFFF AND DUP3 DUP3 DUP2 SLOAD DUP2 LT PUSH2 0x13B4 JUMPI PUSH2 0x13B3 PUSH2 0x494E JUMP JUMPDEST JUMPDEST SWAP1 PUSH1 0x0 MSTORE PUSH1 0x20 PUSH1 0x0 KECCAK256 SWAP1 PUSH1 0x7 MUL ADD PUSH1 0x3 ADD PUSH1 0x0 SWAP1 SLOAD SWAP1 PUSH2 0x100 EXP SWAP1 DIV PUSH20 0xFFFFFFFFFFFFFFFFFFFFFFFFFFFFFFFFFFFFFFFF AND PUSH20 0xFFFFFFFFFFFFFFFFFFFFFFFFFFFFFFFFFFFFFFFF AND EQ ISZERO PUSH2 0x14FC JUMPI PUSH1 0x6 PUSH1 0x0 DUP4 DUP4 DUP2 SLOAD DUP2 LT PUSH2 0x1419 JUMPI PUSH2 0x1418 PUSH2 0x494E JUMP JUMPDEST JUMPDEST SWAP1 PUSH1 0x0 MSTORE PUSH1 0x20 PUSH1 0x0 KECCAK256 SWAP1 PUSH1 0x7 MUL ADD PUSH1 0x6 ADD PUSH1 0x0 SWAP1 SLOAD SWAP1 PUSH2 0x100 EXP SWAP1 DIV PUSH1 0xFF AND PUSH1 0x9 DUP2 GT ISZERO PUSH2 0x144A JUMPI PUSH2 0x1449 PUSH2 0x48F0 JUMP JUMPDEST JUMPDEST PUSH1 0x9 DUP2 GT ISZERO PUSH2 0x145C JUMPI PUSH2 0x145B PUSH2 0x48F0 JUMP JUMPDEST JUMPDEST DUP2 MSTORE PUSH1 0x20 ADD SWAP1 DUP2 MSTORE PUSH1 0x20 ADD PUSH1 0x0 KECCAK256 DUP1 SLOAD PUSH2 0x1475 SWAP1 PUSH2 0x4815 JUMP JUMPDEST DUP1 PUSH1 0x1F ADD PUSH1 0x20 DUP1 SWAP2 DIV MUL PUSH1 0x20 ADD PUSH1 0x40 MLOAD SWAP1 DUP2 ADD PUSH1 0x40 MSTORE DUP1 SWAP3 SWAP2 SWAP1 DUP2 DUP2 MSTORE PUSH1 0x20 ADD DUP3 DUP1 SLOAD PUSH2 0x14A1 SWAP1 PUSH2 0x4815 JUMP JUMPDEST DUP1 ISZERO PUSH2 0x14EE JUMPI DUP1 PUSH1 0x1F LT PUSH2 0x14C3 JUMPI PUSH2 0x100 DUP1 DUP4 SLOAD DIV MUL DUP4 MSTORE SWAP2 PUSH1 0x20 ADD SWAP2 PUSH2 0x14EE JUMP JUMPDEST DUP3 ADD SWAP2 SWAP1 PUSH1 0x0 MSTORE PUSH1 0x20 PUSH1 0x0 KECCAK256 SWAP1 JUMPDEST DUP2 SLOAD DUP2 MSTORE SWAP1 PUSH1 0x1 ADD SWAP1 PUSH1 0x20 ADD DUP1 DUP4 GT PUSH2 0x14D1 JUMPI DUP3 SWAP1 SUB PUSH1 0x1F AND DUP3 ADD SWAP2 JUMPDEST POP POP POP POP POP SWAP3 POP POP POP PUSH2 0x154B JUMP JUMPDEST DUP1 DUP1 PUSH2 0x1507 SWAP1 PUSH2 0x4878 JUMP JUMPDEST SWAP2 POP POP PUSH2 0x137E JUMP JUMPDEST POP PUSH1 0x40 MLOAD PUSH32 0x8C379A000000000000000000000000000000000000000000000000000000000 DUP2 MSTORE PUSH1 0x4 ADD PUSH2 0x1542 SWAP1 PUSH2 0x4519 JUMP JUMPDEST PUSH1 0x40 MLOAD DUP1 SWAP2 SUB SWAP1 REVERT JUMPDEST SWAP3 SWAP2 POP POP JUMP JUMPDEST PUSH1 0x2 PUSH1 0x0 SWAP1 SLOAD SWAP1 PUSH2 0x100 EXP SWAP1 DIV PUSH20 0xFFFFFFFFFFFFFFFFFFFFFFFFFFFFFFFFFFFFFFFF AND PUSH20 0xFFFFFFFFFFFFFFFFFFFFFFFFFFFFFFFFFFFFFFFF AND CALLER PUSH20 0xFFFFFFFFFFFFFFFFFFFFFFFFFFFFFFFFFFFFFFFF AND EQ PUSH1 0x40 MLOAD DUP1 PUSH1 0x60 ADD PUSH1 0x40 MSTORE DUP1 PUSH1 0x33 DUP2 MSTORE PUSH1 0x20 ADD PUSH2 0x4E2F PUSH1 0x33 SWAP2 CODECOPY SWAP1 PUSH2 0x15FC JUMPI PUSH1 0x40 MLOAD PUSH32 0x8C379A000000000000000000000000000000000000000000000000000000000 DUP2 MSTORE PUSH1 0x4 ADD PUSH2 0x15F3 SWAP2 SWAP1 PUSH2 0x43D7 JUMP JUMPDEST PUSH1 0x40 MLOAD DUP1 SWAP2 SUB SWAP1 REVERT JUMPDEST POP PUSH1 0x0 PUSH1 0x9 DUP2 GT ISZERO PUSH2 0x1611 JUMPI PUSH2 0x1610 PUSH2 0x48F0 JUMP JUMPDEST JUMPDEST DUP2 PUSH1 0xFF AND PUSH1 0x9 DUP2 GT ISZERO PUSH2 0x1627 JUMPI PUSH2 0x1626 PUSH2 0x48F0 JUMP JUMPDEST JUMPDEST PUSH1 0x9 DUP2 GT ISZERO PUSH2 0x1639 JUMPI PUSH2 0x1638 PUSH2 0x48F0 JUMP JUMPDEST JUMPDEST EQ ISZERO PUSH1 0x40 MLOAD DUP1 PUSH1 0x60 ADD PUSH1 0x40 MSTORE DUP1 PUSH1 0x31 DUP2 MSTORE PUSH1 0x20 ADD PUSH2 0x4E62 PUSH1 0x31 SWAP2 CODECOPY SWAP1 PUSH2 0x1695 JUMPI PUSH1 0x40 MLOAD PUSH32 0x8C379A000000000000000000000000000000000000000000000000000000000 DUP2 MSTORE PUSH1 0x4 ADD PUSH2 0x168C SWAP2 SWAP1 PUSH2 0x43D7 JUMP JUMPDEST PUSH1 0x40 MLOAD DUP1 SWAP2 SUB SWAP1 REVERT JUMPDEST POP PUSH1 0x2 PUSH1 0x9 DUP2 GT ISZERO PUSH2 0x16AA JUMPI PUSH2 0x16A9 PUSH2 0x48F0 JUMP JUMPDEST JUMPDEST DUP2 PUSH1 0xFF AND PUSH1 0x9 DUP2 GT ISZERO PUSH2 0x16C0 JUMPI PUSH2 0x16BF PUSH2 0x48F0 JUMP JUMPDEST JUMPDEST PUSH1 0x9 DUP2 GT ISZERO PUSH2 0x16D2 JUMPI PUSH2 0x16D1 PUSH2 0x48F0 JUMP JUMPDEST JUMPDEST EQ ISZERO PUSH1 0x40 MLOAD DUP1 PUSH1 0x60 ADD PUSH1 0x40 MSTORE DUP1 PUSH1 0x31 DUP2 MSTORE PUSH1 0x20 ADD PUSH2 0x4E62 PUSH1 0x31 SWAP2 CODECOPY SWAP1 PUSH2 0x172E JUMPI PUSH1 0x40 MLOAD PUSH32 0x8C379A000000000000000000000000000000000000000000000000000000000 DUP2 MSTORE PUSH1 0x4 ADD PUSH2 0x1725 SWAP2 SWAP1 PUSH2 0x43D7 JUMP JUMPDEST PUSH1 0x40 MLOAD DUP1 SWAP2 SUB SWAP1 REVERT JUMPDEST POP PUSH1 0x3 PUSH1 0x9 DUP2 GT ISZERO PUSH2 0x1743 JUMPI PUSH2 0x1742 PUSH2 0x48F0 JUMP JUMPDEST JUMPDEST DUP2 PUSH1 0xFF AND PUSH1 0x9 DUP2 GT ISZERO PUSH2 0x1759 JUMPI PUSH2 0x1758 PUSH2 0x48F0 JUMP JUMPDEST JUMPDEST PUSH1 0x9 DUP2 GT ISZERO PUSH2 0x176B JUMPI PUSH2 0x176A PUSH2 0x48F0 JUMP JUMPDEST JUMPDEST EQ ISZERO PUSH1 0x40 MLOAD DUP1 PUSH1 0x60 ADD PUSH1 0x40 MSTORE DUP1 PUSH1 0x31 DUP2 MSTORE PUSH1 0x20 ADD PUSH2 0x4E62 PUSH1 0x31 SWAP2 CODECOPY SWAP1 PUSH2 0x17C7 JUMPI PUSH1 0x40 MLOAD PUSH32 0x8C379A000000000000000000000000000000000000000000000000000000000 DUP2 MSTORE PUSH1 0x4 ADD PUSH2 0x17BE SWAP2 SWAP1 PUSH2 0x43D7 JUMP JUMPDEST PUSH1 0x40 MLOAD DUP1 SWAP2 SUB SWAP1 REVERT JUMPDEST POP PUSH1 0x4 PUSH1 0x9 DUP2 GT ISZERO PUSH2 0x17DC JUMPI PUSH2 0x17DB PUSH2 0x48F0 JUMP JUMPDEST JUMPDEST DUP2 PUSH1 0xFF AND PUSH1 0x9 DUP2 GT ISZERO PUSH2 0x17F2 JUMPI PUSH2 0x17F1 PUSH2 0x48F0 JUMP JUMPDEST JUMPDEST PUSH1 0x9 DUP2 GT ISZERO PUSH2 0x1804 JUMPI PUSH2 0x1803 PUSH2 0x48F0 JUMP JUMPDEST JUMPDEST EQ ISZERO PUSH1 0x40 MLOAD DUP1 PUSH1 0x60 ADD PUSH1 0x40 MSTORE DUP1 PUSH1 0x31 DUP2 MSTORE PUSH1 0x20 ADD PUSH2 0x4E62 PUSH1 0x31 SWAP2 CODECOPY SWAP1 PUSH2 0x1860 JUMPI PUSH1 0x40 MLOAD PUSH32 0x8C379A000000000000000000000000000000000000000000000000000000000 DUP2 MSTORE PUSH1 0x4 ADD PUSH2 0x1857 SWAP2 SWAP1 PUSH2 0x43D7 JUMP JUMPDEST PUSH1 0x40 MLOAD DUP1 SWAP2 SUB SWAP1 REVERT JUMPDEST POP PUSH1 0x0 PUSH1 0x3 PUSH1 0x0 DUP6 PUSH20 0xFFFFFFFFFFFFFFFFFFFFFFFFFFFFFFFFFFFFFFFF AND PUSH20 0xFFFFFFFFFFFFFFFFFFFFFFFFFFFFFFFFFFFFFFFF AND DUP2 MSTORE PUSH1 0x20 ADD SWAP1 DUP2 MSTORE PUSH1 0x20 ADD PUSH1 0x0 KECCAK256 SWAP1 POP PUSH1 0x0 DUP2 DUP1 SLOAD SWAP1 POP GT PUSH2 0x18EB JUMPI PUSH1 0x40 MLOAD PUSH32 0x8C379A000000000000000000000000000000000000000000000000000000000 DUP2 MSTORE PUSH1 0x4 ADD PUSH2 0x18E2 SWAP1 PUSH2 0x44B9 JUMP JUMPDEST PUSH1 0x40 MLOAD DUP1 SWAP2 SUB SWAP1 REVERT JUMPDEST PUSH1 0x0 JUMPDEST DUP2 DUP1 SLOAD SWAP1 POP DUP2 LT ISZERO PUSH2 0x1A57 JUMPI DUP4 PUSH20 0xFFFFFFFFFFFFFFFFFFFFFFFFFFFFFFFFFFFFFFFF AND DUP3 DUP3 DUP2 SLOAD DUP2 LT PUSH2 0x1924 JUMPI PUSH2 0x1923 PUSH2 0x494E JUMP JUMPDEST JUMPDEST SWAP1 PUSH1 0x0 MSTORE PUSH1 0x20 PUSH1 0x0 KECCAK256 SWAP1 PUSH1 0x7 MUL ADD PUSH1 0x3 ADD PUSH1 0x0 SWAP1 SLOAD SWAP1 PUSH2 0x100 EXP SWAP1 DIV PUSH20 0xFFFFFFFFFFFFFFFFFFFFFFFFFFFFFFFFFFFFFFFF AND PUSH20 0xFFFFFFFFFFFFFFFFFFFFFFFFFFFFFFFFFFFFFFFF AND EQ ISZERO PUSH2 0x1A44 JUMPI DUP3 PUSH1 0xFF AND PUSH1 0x9 DUP2 GT ISZERO PUSH2 0x1988 JUMPI PUSH2 0x1987 PUSH2 0x48F0 JUMP JUMPDEST JUMPDEST DUP3 DUP3 DUP2 SLOAD DUP2 LT PUSH2 0x199B JUMPI PUSH2 0x199A PUSH2 0x494E JUMP JUMPDEST JUMPDEST SWAP1 PUSH1 0x0 MSTORE PUSH1 0x20 PUSH1 0x0 KECCAK256 SWAP1 PUSH1 0x7 MUL ADD PUSH1 0x6 ADD PUSH1 0x0 PUSH2 0x100 EXP DUP2 SLOAD DUP2 PUSH1 0xFF MUL NOT AND SWAP1 DUP4 PUSH1 0x9 DUP2 GT ISZERO PUSH2 0x19CE JUMPI PUSH2 0x19CD PUSH2 0x48F0 JUMP JUMPDEST JUMPDEST MUL OR SWAP1 SSTORE POP PUSH32 0x688769ABFE11AE5D2B7C7147D2577650D89C7B5B4AE0583751850C28D5F4D397 DUP6 DUP6 DUP5 DUP5 DUP2 SLOAD DUP2 LT PUSH2 0x1A09 JUMPI PUSH2 0x1A08 PUSH2 0x494E JUMP JUMPDEST JUMPDEST SWAP1 PUSH1 0x0 MSTORE PUSH1 0x20 PUSH1 0x0 KECCAK256 SWAP1 PUSH1 0x7 MUL ADD PUSH1 0x6 ADD PUSH1 0x0 SWAP1 SLOAD SWAP1 PUSH2 0x100 EXP SWAP1 DIV PUSH1 0xFF AND PUSH1 0x40 MLOAD PUSH2 0x1A37 SWAP4 SWAP3 SWAP2 SWAP1 PUSH2 0x4324 JUMP JUMPDEST PUSH1 0x40 MLOAD DUP1 SWAP2 SUB SWAP1 LOG1 PUSH2 0x1A57 JUMP JUMPDEST DUP1 DUP1 PUSH2 0x1A4F SWAP1 PUSH2 0x4878 JUMP JUMPDEST SWAP2 POP POP PUSH2 0x18EE JUMP JUMPDEST POP POP POP POP POP JUMP JUMPDEST PUSH1 0x2 PUSH1 0x0 SWAP1 SLOAD SWAP1 PUSH2 0x100 EXP SWAP1 DIV PUSH20 0xFFFFFFFFFFFFFFFFFFFFFFFFFFFFFFFFFFFFFFFF AND PUSH20 0xFFFFFFFFFFFFFFFFFFFFFFFFFFFFFFFFFFFFFFFF AND CALLER PUSH20 0xFFFFFFFFFFFFFFFFFFFFFFFFFFFFFFFFFFFFFFFF AND EQ ISZERO PUSH1 0x40 MLOAD DUP1 PUSH1 0x60 ADD PUSH1 0x40 MSTORE DUP1 PUSH1 0x2F DUP2 MSTORE PUSH1 0x20 ADD PUSH2 0x4E93 PUSH1 0x2F SWAP2 CODECOPY SWAP1 PUSH2 0x1B0A JUMPI PUSH1 0x40 MLOAD PUSH32 0x8C379A000000000000000000000000000000000000000000000000000000000 DUP2 MSTORE PUSH1 0x4 ADD PUSH2 0x1B01 SWAP2 SWAP1 PUSH2 0x43D7 JUMP JUMPDEST PUSH1 0x40 MLOAD DUP1 SWAP2 SUB SWAP1 REVERT JUMPDEST POP CALLER PUSH20 0xFFFFFFFFFFFFFFFFFFFFFFFFFFFFFFFFFFFFFFFF AND PUSH1 0x1 PUSH1 0x0 CALLER PUSH20 0xFFFFFFFFFFFFFFFFFFFFFFFFFFFFFFFFFFFFFFFF AND PUSH20 0xFFFFFFFFFFFFFFFFFFFFFFFFFFFFFFFFFFFFFFFF AND DUP2 MSTORE PUSH1 0x20 ADD SWAP1 DUP2 MSTORE PUSH1 0x20 ADD PUSH1 0x0 KECCAK256 PUSH1 0x3 ADD PUSH1 0x0 SWAP1 SLOAD SWAP1 PUSH2 0x100 EXP SWAP1 DIV PUSH20 0xFFFFFFFFFFFFFFFFFFFFFFFFFFFFFFFFFFFFFFFF AND PUSH20 0xFFFFFFFFFFFFFFFFFFFFFFFFFFFFFFFFFFFFFFFF AND EQ PUSH2 0x1BDB JUMPI PUSH1 0x40 MLOAD PUSH32 0x8C379A000000000000000000000000000000000000000000000000000000000 DUP2 MSTORE PUSH1 0x4 ADD PUSH2 0x1BD2 SWAP1 PUSH2 0x44D9 JUMP JUMPDEST PUSH1 0x40 MLOAD DUP1 SWAP2 SUB SWAP1 REVERT JUMPDEST PUSH1 0x1 PUSH1 0x0 CALLER PUSH20 0xFFFFFFFFFFFFFFFFFFFFFFFFFFFFFFFFFFFFFFFF AND PUSH20 0xFFFFFFFFFFFFFFFFFFFFFFFFFFFFFFFFFFFFFFFF AND DUP2 MSTORE PUSH1 0x20 ADD SWAP1 DUP2 MSTORE PUSH1 0x20 ADD PUSH1 0x0 KECCAK256 PUSH1 0x0 ADD PUSH1 0x0 SWAP1 SLOAD SWAP1 PUSH2 0x100 EXP SWAP1 DIV PUSH1 0xFF AND PUSH2 0x1C6A JUMPI PUSH1 0x40 MLOAD PUSH32 0x8C379A000000000000000000000000000000000000000000000000000000000 DUP2 MSTORE PUSH1 0x4 ADD PUSH2 0x1C61 SWAP1 PUSH2 0x4539 JUMP JUMPDEST PUSH1 0x40 MLOAD DUP1 SWAP2 SUB SWAP1 REVERT JUMPDEST PUSH1 0x0 PUSH1 0x40 MLOAD DUP1 PUSH2 0x100 ADD PUSH1 0x40 MSTORE DUP1 DUP7 DUP2 MSTORE PUSH1 0x20 ADD DUP6 DUP2 MSTORE PUSH1 0x20 ADD PUSH1 0x0 DUP2 MSTORE PUSH1 0x20 ADD DUP5 PUSH20 0xFFFFFFFFFFFFFFFFFFFFFFFFFFFFFFFFFFFFFFFF AND DUP2 MSTORE PUSH1 0x20 ADD CALLER PUSH20 0xFFFFFFFFFFFFFFFFFFFFFFFFFFFFFFFFFFFFFFFF AND DUP2 MSTORE PUSH1 0x20 ADD PUSH1 0x0 ISZERO ISZERO DUP2 MSTORE PUSH1 0x20 ADD DUP4 DUP2 MSTORE PUSH1 0x20 ADD PUSH1 0x0 PUSH1 0x9 DUP2 GT ISZERO PUSH2 0x1CE6 JUMPI PUSH2 0x1CE5 PUSH2 0x48F0 JUMP JUMPDEST JUMPDEST DUP2 MSTORE POP SWAP1 POP DUP1 PUSH1 0x0 DUP1 DUP6 PUSH20 0xFFFFFFFFFFFFFFFFFFFFFFFFFFFFFFFFFFFFFFFF AND PUSH20 0xFFFFFFFFFFFFFFFFFFFFFFFFFFFFFFFFFFFFFFFF AND DUP2 MSTORE PUSH1 0x20 ADD SWAP1 DUP2 MSTORE PUSH1 0x20 ADD PUSH1 0x0 KECCAK256 PUSH1 0x0 DUP3 ADD MLOAD DUP2 PUSH1 0x0 ADD SSTORE PUSH1 0x20 DUP3 ADD MLOAD DUP2 PUSH1 0x1 ADD SSTORE PUSH1 0x40 DUP3 ADD MLOAD DUP2 PUSH1 0x2 ADD SSTORE PUSH1 0x60 DUP3 ADD MLOAD DUP2 PUSH1 0x3 ADD PUSH1 0x0 PUSH2 0x100 EXP DUP2 SLOAD DUP2 PUSH20 0xFFFFFFFFFFFFFFFFFFFFFFFFFFFFFFFFFFFFFFFF MUL NOT AND SWAP1 DUP4 PUSH20 0xFFFFFFFFFFFFFFFFFFFFFFFFFFFFFFFFFFFFFFFF AND MUL OR SWAP1 SSTORE POP PUSH1 0x80 DUP3 ADD MLOAD DUP2 PUSH1 0x4 ADD PUSH1 0x0 PUSH2 0x100 EXP DUP2 SLOAD DUP2 PUSH20 0xFFFFFFFFFFFFFFFFFFFFFFFFFFFFFFFFFFFFFFFF MUL NOT AND SWAP1 DUP4 PUSH20 0xFFFFFFFFFFFFFFFFFFFFFFFFFFFFFFFFFFFFFFFF AND MUL OR SWAP1 SSTORE POP PUSH1 0xA0 DUP3 ADD MLOAD DUP2 PUSH1 0x4 ADD PUSH1 0x14 PUSH2 0x100 EXP DUP2 SLOAD DUP2 PUSH1 0xFF MUL NOT AND SWAP1 DUP4 ISZERO ISZERO MUL OR SWAP1 SSTORE POP PUSH1 0xC0 DUP3 ADD MLOAD DUP2 PUSH1 0x5 ADD SWAP1 DUP1 MLOAD SWAP1 PUSH1 0x20 ADD SWAP1 PUSH2 0x1E12 SWAP3 SWAP2 SWAP1 PUSH2 0x3B88 JUMP JUMPDEST POP PUSH1 0xE0 DUP3 ADD MLOAD DUP2 PUSH1 0x6 ADD PUSH1 0x0 PUSH2 0x100 EXP DUP2 SLOAD DUP2 PUSH1 0xFF MUL NOT AND SWAP1 DUP4 PUSH1 0x9 DUP2 GT ISZERO PUSH2 0x1E3E JUMPI PUSH2 0x1E3D PUSH2 0x48F0 JUMP JUMPDEST JUMPDEST MUL OR SWAP1 SSTORE POP SWAP1 POP POP PUSH1 0x3 PUSH1 0x0 CALLER PUSH20 0xFFFFFFFFFFFFFFFFFFFFFFFFFFFFFFFFFFFFFFFF AND PUSH20 0xFFFFFFFFFFFFFFFFFFFFFFFFFFFFFFFFFFFFFFFF AND DUP2 MSTORE PUSH1 0x20 ADD SWAP1 DUP2 MSTORE PUSH1 0x20 ADD PUSH1 0x0 KECCAK256 DUP2 SWAP1 DUP1 PUSH1 0x1 DUP2 SLOAD ADD DUP1 DUP3 SSTORE DUP1 SWAP2 POP POP PUSH1 0x1 SWAP1 SUB SWAP1 PUSH1 0x0 MSTORE PUSH1 0x20 PUSH1 0x0 KECCAK256 SWAP1 PUSH1 0x7 MUL ADD PUSH1 0x0 SWAP1 SWAP2 SWAP1 SWAP2 SWAP1 SWAP2 POP PUSH1 0x0 DUP3 ADD MLOAD DUP2 PUSH1 0x0 ADD SSTORE PUSH1 0x20 DUP3 ADD MLOAD DUP2 PUSH1 0x1 ADD SSTORE PUSH1 0x40 DUP3 ADD MLOAD DUP2 PUSH1 0x2 ADD SSTORE PUSH1 0x60 DUP3 ADD MLOAD DUP2 PUSH1 0x3 ADD PUSH1 0x0 PUSH2 0x100 EXP DUP2 SLOAD DUP2 PUSH20 0xFFFFFFFFFFFFFFFFFFFFFFFFFFFFFFFFFFFFFFFF MUL NOT AND SWAP1 DUP4 PUSH20 0xFFFFFFFFFFFFFFFFFFFFFFFFFFFFFFFFFFFFFFFF AND MUL OR SWAP1 SSTORE POP PUSH1 0x80 DUP3 ADD MLOAD DUP2 PUSH1 0x4 ADD PUSH1 0x0 PUSH2 0x100 EXP DUP2 SLOAD DUP2 PUSH20 0xFFFFFFFFFFFFFFFFFFFFFFFFFFFFFFFFFFFFFFFF MUL NOT AND SWAP1 DUP4 PUSH20 0xFFFFFFFFFFFFFFFFFFFFFFFFFFFFFFFFFFFFFFFF AND MUL OR SWAP1 SSTORE POP PUSH1 0xA0 DUP3 ADD MLOAD DUP2 PUSH1 0x4 ADD PUSH1 0x14 PUSH2 0x100 EXP DUP2 SLOAD DUP2 PUSH1 0xFF MUL NOT AND SWAP1 DUP4 ISZERO ISZERO MUL OR SWAP1 SSTORE POP PUSH1 0xC0 DUP3 ADD MLOAD DUP2 PUSH1 0x5 ADD SWAP1 DUP1 MLOAD SWAP1 PUSH1 0x20 ADD SWAP1 PUSH2 0x1F97 SWAP3 SWAP2 SWAP1 PUSH2 0x3B88 JUMP JUMPDEST POP PUSH1 0xE0 DUP3 ADD MLOAD DUP2 PUSH1 0x6 ADD PUSH1 0x0 PUSH2 0x100 EXP DUP2 SLOAD DUP2 PUSH1 0xFF MUL NOT AND SWAP1 DUP4 PUSH1 0x9 DUP2 GT ISZERO PUSH2 0x1FC3 JUMPI PUSH2 0x1FC2 PUSH2 0x48F0 JUMP JUMPDEST JUMPDEST MUL OR SWAP1 SSTORE POP POP POP POP POP POP POP POP JUMP JUMPDEST PUSH1 0x2 PUSH1 0x0 SWAP1 SLOAD SWAP1 PUSH2 0x100 EXP SWAP1 DIV PUSH20 0xFFFFFFFFFFFFFFFFFFFFFFFFFFFFFFFFFFFFFFFF AND PUSH20 0xFFFFFFFFFFFFFFFFFFFFFFFFFFFFFFFFFFFFFFFF AND CALLER PUSH20 0xFFFFFFFFFFFFFFFFFFFFFFFFFFFFFFFFFFFFFFFF AND EQ PUSH1 0x40 MLOAD DUP1 PUSH1 0x60 ADD PUSH1 0x40 MSTORE DUP1 PUSH1 0x33 DUP2 MSTORE PUSH1 0x20 ADD PUSH2 0x4E2F PUSH1 0x33 SWAP2 CODECOPY SWAP1 PUSH2 0x207C JUMPI PUSH1 0x40 MLOAD PUSH32 0x8C379A000000000000000000000000000000000000000000000000000000000 DUP2 MSTORE PUSH1 0x4 ADD PUSH2 0x2073 SWAP2 SWAP1 PUSH2 0x43D7 JUMP JUMPDEST PUSH1 0x40 MLOAD DUP1 SWAP2 SUB SWAP1 REVERT JUMPDEST POP PUSH1 0x0 PUSH1 0x40 MLOAD DUP1 PUSH1 0x80 ADD PUSH1 0x40 MSTORE DUP1 PUSH1 0x0 ISZERO ISZERO DUP2 MSTORE PUSH1 0x20 ADD PUSH1 0x40 MLOAD DUP1 PUSH1 0x20 ADD PUSH1 0x40 MSTORE DUP1 PUSH1 0x0 DUP2 MSTORE POP DUP2 MSTORE PUSH1 0x20 ADD DUP5 DUP2 MSTORE PUSH1 0x20 ADD DUP4 PUSH20 0xFFFFFFFFFFFFFFFFFFFFFFFFFFFFFFFFFFFFFFFF AND DUP2 MSTORE POP SWAP1 POP DUP1 PUSH1 0x1 PUSH1 0x0 DUP5 PUSH20 0xFFFFFFFFFFFFFFFFFFFFFFFFFFFFFFFFFFFFFFFF AND PUSH20 0xFFFFFFFFFFFFFFFFFFFFFFFFFFFFFFFFFFFFFFFF AND DUP2 MSTORE PUSH1 0x20 ADD SWAP1 DUP2 MSTORE PUSH1 0x20 ADD PUSH1 0x0 KECCAK256 PUSH1 0x0 DUP3 ADD MLOAD DUP2 PUSH1 0x0 ADD PUSH1 0x0 PUSH2 0x100 EXP DUP2 SLOAD DUP2 PUSH1 0xFF MUL NOT AND SWAP1 DUP4 ISZERO ISZERO MUL OR SWAP1 SSTORE POP PUSH1 0x20 DUP3 ADD MLOAD DUP2 PUSH1 0x1 ADD SWAP1 DUP1 MLOAD SWAP1 PUSH1 0x20 ADD SWAP1 PUSH2 0x2146 SWAP3 SWAP2 SWAP1 PUSH2 0x3B88 JUMP JUMPDEST POP PUSH1 0x40 DUP3 ADD MLOAD DUP2 PUSH1 0x2 ADD SWAP1 DUP1 MLOAD SWAP1 PUSH1 0x20 ADD SWAP1 PUSH2 0x2163 SWAP3 SWAP2 SWAP1 PUSH2 0x3B88 JUMP JUMPDEST POP PUSH1 0x60 DUP3 ADD MLOAD DUP2 PUSH1 0x3 ADD PUSH1 0x0 PUSH2 0x100 EXP DUP2 SLOAD DUP2 PUSH20 0xFFFFFFFFFFFFFFFFFFFFFFFFFFFFFFFFFFFFFFFF MUL NOT AND SWAP1 DUP4 PUSH20 0xFFFFFFFFFFFFFFFFFFFFFFFFFFFFFFFFFFFFFFFF AND MUL OR SWAP1 SSTORE POP SWAP1 POP POP POP POP POP JUMP JUMPDEST PUSH1 0x0 DUP1 PUSH1 0x3 PUSH1 0x0 DUP6 PUSH20 0xFFFFFFFFFFFFFFFFFFFFFFFFFFFFFFFFFFFFFFFF AND PUSH20 0xFFFFFFFFFFFFFFFFFFFFFFFFFFFFFFFFFFFFFFFF AND DUP2 MSTORE PUSH1 0x20 ADD SWAP1 DUP2 MSTORE PUSH1 0x20 ADD PUSH1 0x0 KECCAK256 SWAP1 POP PUSH1 0x0 DUP2 DUP1 SLOAD SWAP1 POP GT PUSH2 0x223E JUMPI PUSH1 0x40 MLOAD PUSH32 0x8C379A000000000000000000000000000000000000000000000000000000000 DUP2 MSTORE PUSH1 0x4 ADD PUSH2 0x2235 SWAP1 PUSH2 0x44B9 JUMP JUMPDEST PUSH1 0x40 MLOAD DUP1 SWAP2 SUB SWAP1 REVERT JUMPDEST PUSH1 0x0 DUP1 JUMPDEST DUP3 DUP1 SLOAD SWAP1 POP DUP2 LT ISZERO PUSH2 0x233C JUMPI DUP5 PUSH20 0xFFFFFFFFFFFFFFFFFFFFFFFFFFFFFFFFFFFFFFFF AND DUP4 DUP3 DUP2 SLOAD DUP2 LT PUSH2 0x2278 JUMPI PUSH2 0x2277 PUSH2 0x494E JUMP JUMPDEST JUMPDEST SWAP1 PUSH1 0x0 MSTORE PUSH1 0x20 PUSH1 0x0 KECCAK256 SWAP1 PUSH1 0x7 MUL ADD PUSH1 0x3 ADD PUSH1 0x0 SWAP1 SLOAD SWAP1 PUSH2 0x100 EXP SWAP1 DIV PUSH20 0xFFFFFFFFFFFFFFFFFFFFFFFFFFFFFFFFFFFFFFFF AND PUSH20 0xFFFFFFFFFFFFFFFFFFFFFFFFFFFFFFFFFFFFFFFF AND EQ ISZERO PUSH2 0x2329 JUMPI DUP3 DUP2 DUP2 SLOAD DUP2 LT PUSH2 0x22D9 JUMPI PUSH2 0x22D8 PUSH2 0x494E JUMP JUMPDEST JUMPDEST SWAP1 PUSH1 0x0 MSTORE PUSH1 0x20 PUSH1 0x0 KECCAK256 SWAP1 PUSH1 0x7 MUL ADD PUSH1 0x3 ADD PUSH1 0x0 SWAP1 SLOAD SWAP1 PUSH2 0x100 EXP SWAP1 DIV PUSH20 0xFFFFFFFFFFFFFFFFFFFFFFFFFFFFFFFFFFFFFFFF AND PUSH20 0xFFFFFFFFFFFFFFFFFFFFFFFFFFFFFFFFFFFFFFFF AND BALANCE SWAP2 POP PUSH2 0x233C JUMP JUMPDEST DUP1 DUP1 PUSH2 0x2334 SWAP1 PUSH2 0x4878 JUMP JUMPDEST SWAP2 POP POP PUSH2 0x2242 JUMP JUMPDEST POP DUP1 SWAP3 POP POP POP SWAP3 SWAP2 POP POP JUMP JUMPDEST PUSH1 0x0 DUP1 PUSH1 0x0 PUSH1 0x3 PUSH1 0x0 DUP7 PUSH20 0xFFFFFFFFFFFFFFFFFFFFFFFFFFFFFFFFFFFFFFFF AND PUSH20 0xFFFFFFFFFFFFFFFFFFFFFFFFFFFFFFFFFFFFFFFF AND DUP2 MSTORE PUSH1 0x20 ADD SWAP1 DUP2 MSTORE PUSH1 0x20 ADD PUSH1 0x0 KECCAK256 SWAP1 POP PUSH1 0x0 DUP2 DUP1 SLOAD SWAP1 POP GT PUSH2 0x23D5 JUMPI PUSH1 0x40 MLOAD PUSH32 0x8C379A000000000000000000000000000000000000000000000000000000000 DUP2 MSTORE PUSH1 0x4 ADD PUSH2 0x23CC SWAP1 PUSH2 0x44B9 JUMP JUMPDEST PUSH1 0x40 MLOAD DUP1 SWAP2 SUB SWAP1 REVERT JUMPDEST PUSH1 0x0 PUSH1 0x4 PUSH1 0x0 DUP7 PUSH20 0xFFFFFFFFFFFFFFFFFFFFFFFFFFFFFFFFFFFFFFFF AND PUSH20 0xFFFFFFFFFFFFFFFFFFFFFFFFFFFFFFFFFFFFFFFF AND DUP2 MSTORE PUSH1 0x20 ADD SWAP1 DUP2 MSTORE PUSH1 0x20 ADD PUSH1 0x0 KECCAK256 SWAP1 POP PUSH1 0x0 JUMPDEST DUP2 DUP1 SLOAD SWAP1 POP DUP2 LT ISZERO PUSH2 0x29CD JUMPI CALLER PUSH20 0xFFFFFFFFFFFFFFFFFFFFFFFFFFFFFFFFFFFFFFFF AND DUP3 DUP3 DUP2 SLOAD DUP2 LT PUSH2 0x2451 JUMPI PUSH2 0x2450 PUSH2 0x494E JUMP JUMPDEST JUMPDEST SWAP1 PUSH1 0x0 MSTORE PUSH1 0x20 PUSH1 0x0 KECCAK256 SWAP1 PUSH1 0x3 MUL ADD PUSH1 0x1 ADD PUSH1 0x0 SWAP1 SLOAD SWAP1 PUSH2 0x100 EXP SWAP1 DIV PUSH20 0xFFFFFFFFFFFFFFFFFFFFFFFFFFFFFFFFFFFFFFFF AND PUSH20 0xFFFFFFFFFFFFFFFFFFFFFFFFFFFFFFFFFFFFFFFF AND EQ DUP1 ISZERO PUSH2 0x2507 JUMPI POP PUSH1 0x0 DUP3 DUP3 DUP2 SLOAD DUP2 LT PUSH2 0x24B6 JUMPI PUSH2 0x24B5 PUSH2 0x494E JUMP JUMPDEST JUMPDEST SWAP1 PUSH1 0x0 MSTORE PUSH1 0x20 PUSH1 0x0 KECCAK256 SWAP1 PUSH1 0x3 MUL ADD PUSH1 0x2 ADD PUSH1 0x0 DUP9 PUSH20 0xFFFFFFFFFFFFFFFFFFFFFFFFFFFFFFFFFFFFFFFF AND PUSH20 0xFFFFFFFFFFFFFFFFFFFFFFFFFFFFFFFFFFFFFFFF AND DUP2 MSTORE PUSH1 0x20 ADD SWAP1 DUP2 MSTORE PUSH1 0x20 ADD PUSH1 0x0 KECCAK256 SLOAD GT JUMPDEST ISZERO PUSH2 0x29BA JUMPI PUSH1 0x0 JUMPDEST DUP4 DUP1 SLOAD SWAP1 POP DUP2 LT ISZERO PUSH2 0x2861 JUMPI DUP7 PUSH20 0xFFFFFFFFFFFFFFFFFFFFFFFFFFFFFFFFFFFFFFFF AND DUP5 DUP3 DUP2 SLOAD DUP2 LT PUSH2 0x2545 JUMPI PUSH2 0x2544 PUSH2 0x494E JUMP JUMPDEST JUMPDEST SWAP1 PUSH1 0x0 MSTORE PUSH1 0x20 PUSH1 0x0 KECCAK256 SWAP1 PUSH1 0x7 MUL ADD PUSH1 0x3 ADD PUSH1 0x0 SWAP1 SLOAD SWAP1 PUSH2 0x100 EXP SWAP1 DIV PUSH20 0xFFFFFFFFFFFFFFFFFFFFFFFFFFFFFFFFFFFFFFFF AND PUSH20 0xFFFFFFFFFFFFFFFFFFFFFFFFFFFFFFFFFFFFFFFF AND EQ ISZERO PUSH2 0x284E JUMPI PUSH1 0x3 PUSH1 0x9 DUP2 GT ISZERO PUSH2 0x25A7 JUMPI PUSH2 0x25A6 PUSH2 0x48F0 JUMP JUMPDEST JUMPDEST DUP5 DUP3 DUP2 SLOAD DUP2 LT PUSH2 0x25BA JUMPI PUSH2 0x25B9 PUSH2 0x494E JUMP JUMPDEST JUMPDEST SWAP1 PUSH1 0x0 MSTORE PUSH1 0x20 PUSH1 0x0 KECCAK256 SWAP1 PUSH1 0x7 MUL ADD PUSH1 0x6 ADD PUSH1 0x0 SWAP1 SLOAD SWAP1 PUSH2 0x100 EXP SWAP1 DIV PUSH1 0xFF AND PUSH1 0x9 DUP2 GT ISZERO PUSH2 0x25EB JUMPI PUSH2 0x25EA PUSH2 0x48F0 JUMP JUMPDEST JUMPDEST GT ISZERO PUSH2 0x262C JUMPI PUSH1 0x40 MLOAD PUSH32 0x8C379A000000000000000000000000000000000000000000000000000000000 DUP2 MSTORE PUSH1 0x4 ADD PUSH2 0x2623 SWAP1 PUSH2 0x4479 JUMP JUMPDEST PUSH1 0x40 MLOAD DUP1 SWAP2 SUB SWAP1 REVERT JUMPDEST DUP3 DUP3 DUP2 SLOAD DUP2 LT PUSH2 0x263F JUMPI PUSH2 0x263E PUSH2 0x494E JUMP JUMPDEST JUMPDEST SWAP1 PUSH1 0x0 MSTORE PUSH1 0x20 PUSH1 0x0 KECCAK256 SWAP1 PUSH1 0x3 MUL ADD PUSH1 0x2 ADD PUSH1 0x0 DUP9 PUSH20 0xFFFFFFFFFFFFFFFFFFFFFFFFFFFFFFFFFFFFFFFF AND PUSH20 0xFFFFFFFFFFFFFFFFFFFFFFFFFFFFFFFFFFFFFFFF AND DUP2 MSTORE PUSH1 0x20 ADD SWAP1 DUP2 MSTORE PUSH1 0x20 ADD PUSH1 0x0 KECCAK256 SLOAD DUP5 DUP3 DUP2 SLOAD DUP2 LT PUSH2 0x26A1 JUMPI PUSH2 0x26A0 PUSH2 0x494E JUMP JUMPDEST JUMPDEST SWAP1 PUSH1 0x0 MSTORE PUSH1 0x20 PUSH1 0x0 KECCAK256 SWAP1 PUSH1 0x7 MUL ADD PUSH1 0x2 ADD SLOAD PUSH2 0x26BD SWAP2 SWAP1 PUSH2 0x4725 JUMP JUMPDEST DUP5 DUP3 DUP2 SLOAD DUP2 LT PUSH2 0x26D0 JUMPI PUSH2 0x26CF PUSH2 0x494E JUMP JUMPDEST JUMPDEST SWAP1 PUSH1 0x0 MSTORE PUSH1 0x20 PUSH1 0x0 KECCAK256 SWAP1 PUSH1 0x7 MUL ADD PUSH1 0x2 ADD DUP2 SWAP1 SSTORE POP DUP3 DUP3 DUP2 SLOAD DUP2 LT PUSH2 0x26F8 JUMPI PUSH2 0x26F7 PUSH2 0x494E JUMP JUMPDEST JUMPDEST SWAP1 PUSH1 0x0 MSTORE PUSH1 0x20 PUSH1 0x0 KECCAK256 SWAP1 PUSH1 0x3 MUL ADD PUSH1 0x1 ADD PUSH1 0x0 SWAP1 SLOAD SWAP1 PUSH2 0x100 EXP SWAP1 DIV PUSH20 0xFFFFFFFFFFFFFFFFFFFFFFFFFFFFFFFFFFFFFFFF AND PUSH20 0xFFFFFFFFFFFFFFFFFFFFFFFFFFFFFFFFFFFFFFFF AND PUSH2 0x8FC DUP5 DUP5 DUP2 SLOAD DUP2 LT PUSH2 0x2756 JUMPI PUSH2 0x2755 PUSH2 0x494E JUMP JUMPDEST JUMPDEST SWAP1 PUSH1 0x0 MSTORE PUSH1 0x20 PUSH1 0x0 KECCAK256 SWAP1 PUSH1 0x3 MUL ADD PUSH1 0x2 ADD PUSH1 0x0 DUP11 PUSH20 0xFFFFFFFFFFFFFFFFFFFFFFFFFFFFFFFFFFFFFFFF AND PUSH20 0xFFFFFFFFFFFFFFFFFFFFFFFFFFFFFFFFFFFFFFFF AND DUP2 MSTORE PUSH1 0x20 ADD SWAP1 DUP2 MSTORE PUSH1 0x20 ADD PUSH1 0x0 KECCAK256 SLOAD SWAP1 DUP2 ISZERO MUL SWAP1 PUSH1 0x40 MLOAD PUSH1 0x0 PUSH1 0x40 MLOAD DUP1 DUP4 SUB DUP2 DUP6 DUP9 DUP9 CALL SWAP4 POP POP POP POP ISZERO DUP1 ISZERO PUSH2 0x27D0 JUMPI RETURNDATASIZE PUSH1 0x0 DUP1 RETURNDATACOPY RETURNDATASIZE PUSH1 0x0 REVERT JUMPDEST POP DUP4 DUP2 DUP2 SLOAD DUP2 LT PUSH2 0x27E4 JUMPI PUSH2 0x27E3 PUSH2 0x494E JUMP JUMPDEST JUMPDEST SWAP1 PUSH1 0x0 MSTORE PUSH1 0x20 PUSH1 0x0 KECCAK256 SWAP1 PUSH1 0x7 MUL ADD PUSH1 0x4 ADD PUSH1 0x14 SWAP1 SLOAD SWAP1 PUSH2 0x100 EXP SWAP1 DIV PUSH1 0xFF AND PUSH2 0x2845 JUMPI PUSH1 0x1 DUP5 DUP3 DUP2 SLOAD DUP2 LT PUSH2 0x281C JUMPI PUSH2 0x281B PUSH2 0x494E JUMP JUMPDEST JUMPDEST SWAP1 PUSH1 0x0 MSTORE PUSH1 0x20 PUSH1 0x0 KECCAK256 SWAP1 PUSH1 0x7 MUL ADD PUSH1 0x4 ADD PUSH1 0x14 PUSH2 0x100 EXP DUP2 SLOAD DUP2 PUSH1 0xFF MUL NOT AND SWAP1 DUP4 ISZERO ISZERO MUL OR SWAP1 SSTORE POP JUMPDEST PUSH1 0x1 SWAP6 POP PUSH2 0x2861 JUMP JUMPDEST DUP1 DUP1 PUSH2 0x2859 SWAP1 PUSH2 0x4878 JUMP JUMPDEST SWAP2 POP POP PUSH2 0x250F JUMP JUMPDEST POP DUP5 PUSH2 0x28A2 JUMPI PUSH1 0x40 MLOAD PUSH32 0x8C379A000000000000000000000000000000000000000000000000000000000 DUP2 MSTORE PUSH1 0x4 ADD PUSH2 0x2899 SWAP1 PUSH2 0x44F9 JUMP JUMPDEST PUSH1 0x40 MLOAD DUP1 SWAP2 SUB SWAP1 REVERT JUMPDEST CALLER PUSH20 0xFFFFFFFFFFFFFFFFFFFFFFFFFFFFFFFFFFFFFFFF AND PUSH2 0x8FC DUP4 DUP4 DUP2 SLOAD DUP2 LT PUSH2 0x28CF JUMPI PUSH2 0x28CE PUSH2 0x494E JUMP JUMPDEST JUMPDEST SWAP1 PUSH1 0x0 MSTORE PUSH1 0x20 PUSH1 0x0 KECCAK256 SWAP1 PUSH1 0x3 MUL ADD PUSH1 0x2 ADD PUSH1 0x0 DUP10 PUSH20 0xFFFFFFFFFFFFFFFFFFFFFFFFFFFFFFFFFFFFFFFF AND PUSH20 0xFFFFFFFFFFFFFFFFFFFFFFFFFFFFFFFFFFFFFFFF AND DUP2 MSTORE PUSH1 0x20 ADD SWAP1 DUP2 MSTORE PUSH1 0x20 ADD PUSH1 0x0 KECCAK256 SLOAD SWAP1 DUP2 ISZERO MUL SWAP1 PUSH1 0x40 MLOAD PUSH1 0x0 PUSH1 0x40 MLOAD DUP1 DUP4 SUB DUP2 DUP6 DUP9 DUP9 CALL SWAP4 POP POP POP POP ISZERO DUP1 ISZERO PUSH2 0x2949 JUMPI RETURNDATASIZE PUSH1 0x0 DUP1 RETURNDATACOPY RETURNDATASIZE PUSH1 0x0 REVERT JUMPDEST POP PUSH1 0x0 DUP3 DUP3 DUP2 SLOAD DUP2 LT PUSH2 0x295F JUMPI PUSH2 0x295E PUSH2 0x494E JUMP JUMPDEST JUMPDEST SWAP1 PUSH1 0x0 MSTORE PUSH1 0x20 PUSH1 0x0 KECCAK256 SWAP1 PUSH1 0x3 MUL ADD PUSH1 0x2 ADD PUSH1 0x0 DUP9 PUSH20 0xFFFFFFFFFFFFFFFFFFFFFFFFFFFFFFFFFFFFFFFF AND PUSH20 0xFFFFFFFFFFFFFFFFFFFFFFFFFFFFFFFFFFFFFFFF AND DUP2 MSTORE PUSH1 0x20 ADD SWAP1 DUP2 MSTORE PUSH1 0x20 ADD PUSH1 0x0 KECCAK256 DUP2 SWAP1 SSTORE POP PUSH1 0x1 SWAP4 POP PUSH2 0x29CD JUMP JUMPDEST DUP1 DUP1 PUSH2 0x29C5 SWAP1 PUSH2 0x4878 JUMP JUMPDEST SWAP2 POP POP PUSH2 0x241B JUMP JUMPDEST POP DUP3 PUSH2 0x2A0E JUMPI PUSH1 0x40 MLOAD PUSH32 0x8C379A000000000000000000000000000000000000000000000000000000000 DUP2 MSTORE PUSH1 0x4 ADD PUSH2 0x2A05 SWAP1 PUSH2 0x4439 JUMP JUMPDEST PUSH1 0x40 MLOAD DUP1 SWAP2 SUB SWAP1 REVERT JUMPDEST POP POP POP POP POP POP JUMP JUMPDEST PUSH1 0x2 PUSH1 0x0 SWAP1 SLOAD SWAP1 PUSH2 0x100 EXP SWAP1 DIV PUSH20 0xFFFFFFFFFFFFFFFFFFFFFFFFFFFFFFFFFFFFFFFF AND PUSH20 0xFFFFFFFFFFFFFFFFFFFFFFFFFFFFFFFFFFFFFFFF AND CALLER PUSH20 0xFFFFFFFFFFFFFFFFFFFFFFFFFFFFFFFFFFFFFFFF AND EQ PUSH1 0x40 MLOAD DUP1 PUSH1 0x60 ADD PUSH1 0x40 MSTORE DUP1 PUSH1 0x33 DUP2 MSTORE PUSH1 0x20 ADD PUSH2 0x4E2F PUSH1 0x33 SWAP2 CODECOPY SWAP1 PUSH2 0x2AC1 JUMPI PUSH1 0x40 MLOAD PUSH32 0x8C379A000000000000000000000000000000000000000000000000000000000 DUP2 MSTORE PUSH1 0x4 ADD PUSH2 0x2AB8 SWAP2 SWAP1 PUSH2 0x43D7 JUMP JUMPDEST PUSH1 0x40 MLOAD DUP1 SWAP2 SUB SWAP1 REVERT JUMPDEST POP DUP3 PUSH20 0xFFFFFFFFFFFFFFFFFFFFFFFFFFFFFFFFFFFFFFFF AND PUSH1 0x1 PUSH1 0x0 DUP6 PUSH20 0xFFFFFFFFFFFFFFFFFFFFFFFFFFFFFFFFFFFFFFFF AND PUSH20 0xFFFFFFFFFFFFFFFFFFFFFFFFFFFFFFFFFFFFFFFF AND DUP2 MSTORE PUSH1 0x20 ADD SWAP1 DUP2 MSTORE PUSH1 0x20 ADD PUSH1 0x0 KECCAK256 PUSH1 0x3 ADD PUSH1 0x0 SWAP1 SLOAD SWAP1 PUSH2 0x100 EXP SWAP1 DIV PUSH20 0xFFFFFFFFFFFFFFFFFFFFFFFFFFFFFFFFFFFFFFFF AND PUSH20 0xFFFFFFFFFFFFFFFFFFFFFFFFFFFFFFFFFFFFFFFF AND EQ PUSH2 0x2B92 JUMPI PUSH1 0x40 MLOAD PUSH32 0x8C379A000000000000000000000000000000000000000000000000000000000 DUP2 MSTORE PUSH1 0x4 ADD PUSH2 0x2B89 SWAP1 PUSH2 0x44D9 JUMP JUMPDEST PUSH1 0x40 MLOAD DUP1 SWAP2 SUB SWAP1 REVERT JUMPDEST DUP2 PUSH1 0x1 PUSH1 0x0 DUP6 PUSH20 0xFFFFFFFFFFFFFFFFFFFFFFFFFFFFFFFFFFFFFFFF AND PUSH20 0xFFFFFFFFFFFFFFFFFFFFFFFFFFFFFFFFFFFFFFFF AND DUP2 MSTORE PUSH1 0x20 ADD SWAP1 DUP2 MSTORE PUSH1 0x20 ADD PUSH1 0x0 KECCAK256 PUSH1 0x0 ADD PUSH1 0x0 PUSH2 0x100 EXP DUP2 SLOAD DUP2 PUSH1 0xFF MUL NOT AND SWAP1 DUP4 ISZERO ISZERO MUL OR SWAP1 SSTORE POP DUP1 PUSH1 0x1 PUSH1 0x0 DUP6 PUSH20 0xFFFFFFFFFFFFFFFFFFFFFFFFFFFFFFFFFFFFFFFF AND PUSH20 0xFFFFFFFFFFFFFFFFFFFFFFFFFFFFFFFFFFFFFFFF AND DUP2 MSTORE PUSH1 0x20 ADD SWAP1 DUP2 MSTORE PUSH1 0x20 ADD PUSH1 0x0 KECCAK256 PUSH1 0x1 ADD SWAP1 DUP1 MLOAD SWAP1 PUSH1 0x20 ADD SWAP1 PUSH2 0x2C42 SWAP3 SWAP2 SWAP1 PUSH2 0x3B88 JUMP JUMPDEST POP POP POP POP JUMP JUMPDEST PUSH1 0x2 PUSH1 0x0 SWAP1 SLOAD SWAP1 PUSH2 0x100 EXP SWAP1 DIV PUSH20 0xFFFFFFFFFFFFFFFFFFFFFFFFFFFFFFFFFFFFFFFF AND DUP2 JUMP JUMPDEST PUSH1 0x0 DUP1 PUSH1 0x0 DUP1 PUSH1 0x3 PUSH1 0x0 DUP8 PUSH20 0xFFFFFFFFFFFFFFFFFFFFFFFFFFFFFFFFFFFFFFFF AND PUSH20 0xFFFFFFFFFFFFFFFFFFFFFFFFFFFFFFFFFFFFFFFF AND DUP2 MSTORE PUSH1 0x20 ADD SWAP1 DUP2 MSTORE PUSH1 0x20 ADD PUSH1 0x0 KECCAK256 SWAP1 POP PUSH1 0x0 DUP2 DUP1 SLOAD SWAP1 POP GT PUSH2 0x2CFC JUMPI PUSH1 0x40 MLOAD PUSH32 0x8C379A000000000000000000000000000000000000000000000000000000000 DUP2 MSTORE PUSH1 0x4 ADD PUSH2 0x2CF3 SWAP1 PUSH2 0x44B9 JUMP JUMPDEST PUSH1 0x40 MLOAD DUP1 SWAP2 SUB SWAP1 REVERT JUMPDEST PUSH1 0x0 JUMPDEST DUP2 DUP1 SLOAD SWAP1 POP DUP2 LT ISZERO PUSH2 0x2E41 JUMPI DUP6 PUSH20 0xFFFFFFFFFFFFFFFFFFFFFFFFFFFFFFFFFFFFFFFF AND DUP3 DUP3 DUP2 SLOAD DUP2 LT PUSH2 0x2D35 JUMPI PUSH2 0x2D34 PUSH2 0x494E JUMP JUMPDEST JUMPDEST SWAP1 PUSH1 0x0 MSTORE PUSH1 0x20 PUSH1 0x0 KECCAK256 SWAP1 PUSH1 0x7 MUL ADD PUSH1 0x3 ADD PUSH1 0x0 SWAP1 SLOAD SWAP1 PUSH2 0x100 EXP SWAP1 DIV PUSH20 0xFFFFFFFFFFFFFFFFFFFFFFFFFFFFFFFFFFFFFFFF AND PUSH20 0xFFFFFFFFFFFFFFFFFFFFFFFFFFFFFFFFFFFFFFFF AND EQ ISZERO PUSH2 0x2E2E JUMPI DUP2 DUP2 DUP2 SLOAD DUP2 LT PUSH2 0x2D96 JUMPI PUSH2 0x2D95 PUSH2 0x494E JUMP JUMPDEST JUMPDEST SWAP1 PUSH1 0x0 MSTORE PUSH1 0x20 PUSH1 0x0 KECCAK256 SWAP1 PUSH1 0x7 MUL ADD PUSH1 0x1 ADD SLOAD DUP3 DUP3 DUP2 SLOAD DUP2 LT PUSH2 0x2DBB JUMPI PUSH2 0x2DBA PUSH2 0x494E JUMP JUMPDEST JUMPDEST SWAP1 PUSH1 0x0 MSTORE PUSH1 0x20 PUSH1 0x0 KECCAK256 SWAP1 PUSH1 0x7 MUL ADD PUSH1 0x2 ADD SLOAD DUP4 DUP4 DUP2 SLOAD DUP2 LT PUSH2 0x2DE0 JUMPI PUSH2 0x2DDF PUSH2 0x494E JUMP JUMPDEST JUMPDEST SWAP1 PUSH1 0x0 MSTORE PUSH1 0x20 PUSH1 0x0 KECCAK256 SWAP1 PUSH1 0x7 MUL ADD PUSH1 0x2 ADD SLOAD DUP5 DUP5 DUP2 SLOAD DUP2 LT PUSH2 0x2E05 JUMPI PUSH2 0x2E04 PUSH2 0x494E JUMP JUMPDEST JUMPDEST SWAP1 PUSH1 0x0 MSTORE PUSH1 0x20 PUSH1 0x0 KECCAK256 SWAP1 PUSH1 0x7 MUL ADD PUSH1 0x1 ADD SLOAD PUSH2 0x2E21 SWAP2 SWAP1 PUSH2 0x4725 JUMP JUMPDEST SWAP5 POP SWAP5 POP SWAP5 POP POP POP PUSH2 0x2E7D JUMP JUMPDEST DUP1 DUP1 PUSH2 0x2E39 SWAP1 PUSH2 0x4878 JUMP JUMPDEST SWAP2 POP POP PUSH2 0x2CFF JUMP JUMPDEST POP PUSH1 0x40 MLOAD PUSH32 0x8C379A000000000000000000000000000000000000000000000000000000000 DUP2 MSTORE PUSH1 0x4 ADD PUSH2 0x2E74 SWAP1 PUSH2 0x4519 JUMP JUMPDEST PUSH1 0x40 MLOAD DUP1 SWAP2 SUB SWAP1 REVERT JUMPDEST SWAP3 POP SWAP3 POP SWAP3 JUMP JUMPDEST PUSH1 0x60 DUP1 PUSH1 0x60 DUP1 PUSH1 0x0 PUSH1 0x3 PUSH1 0x0 DUP8 PUSH20 0xFFFFFFFFFFFFFFFFFFFFFFFFFFFFFFFFFFFFFFFF AND PUSH20 0xFFFFFFFFFFFFFFFFFFFFFFFFFFFFFFFFFFFFFFFF AND DUP2 MSTORE PUSH1 0x20 ADD SWAP1 DUP2 MSTORE PUSH1 0x20 ADD PUSH1 0x0 KECCAK256 SWAP1 POP PUSH1 0x0 DUP2 DUP1 SLOAD SWAP1 POP GT PUSH2 0x2F14 JUMPI PUSH1 0x40 MLOAD PUSH32 0x8C379A000000000000000000000000000000000000000000000000000000000 DUP2 MSTORE PUSH1 0x4 ADD PUSH2 0x2F0B SWAP1 PUSH2 0x44B9 JUMP JUMPDEST PUSH1 0x40 MLOAD DUP1 SWAP2 SUB SWAP1 REVERT JUMPDEST PUSH1 0x0 DUP2 DUP1 SLOAD SWAP1 POP PUSH8 0xFFFFFFFFFFFFFFFF DUP2 GT ISZERO PUSH2 0x2F34 JUMPI PUSH2 0x2F33 PUSH2 0x497D JUMP JUMPDEST JUMPDEST PUSH1 0x40 MLOAD SWAP1 DUP1 DUP3 MSTORE DUP1 PUSH1 0x20 MUL PUSH1 0x20 ADD DUP3 ADD PUSH1 0x40 MSTORE DUP1 ISZERO PUSH2 0x2F62 JUMPI DUP2 PUSH1 0x20 ADD PUSH1 0x20 DUP3 MUL DUP1 CALLDATASIZE DUP4 CALLDATACOPY DUP1 DUP3 ADD SWAP2 POP POP SWAP1 POP JUMPDEST POP SWAP1 POP PUSH1 0x0 DUP3 DUP1 SLOAD SWAP1 POP PUSH8 0xFFFFFFFFFFFFFFFF DUP2 GT ISZERO PUSH2 0x2F85 JUMPI PUSH2 0x2F84 PUSH2 0x497D JUMP JUMPDEST JUMPDEST PUSH1 0x40 MLOAD SWAP1 DUP1 DUP3 MSTORE DUP1 PUSH1 0x20 MUL PUSH1 0x20 ADD DUP3 ADD PUSH1 0x40 MSTORE DUP1 ISZERO PUSH2 0x2FB3 JUMPI DUP2 PUSH1 0x20 ADD PUSH1 0x20 DUP3 MUL DUP1 CALLDATASIZE DUP4 CALLDATACOPY DUP1 DUP3 ADD SWAP2 POP POP SWAP1 POP JUMPDEST POP SWAP1 POP PUSH1 0x0 DUP4 DUP1 SLOAD SWAP1 POP PUSH8 0xFFFFFFFFFFFFFFFF DUP2 GT ISZERO PUSH2 0x2FD6 JUMPI PUSH2 0x2FD5 PUSH2 0x497D JUMP JUMPDEST JUMPDEST PUSH1 0x40 MLOAD SWAP1 DUP1 DUP3 MSTORE DUP1 PUSH1 0x20 MUL PUSH1 0x20 ADD DUP3 ADD PUSH1 0x40 MSTORE DUP1 ISZERO PUSH2 0x3004 JUMPI DUP2 PUSH1 0x20 ADD PUSH1 0x20 DUP3 MUL DUP1 CALLDATASIZE DUP4 CALLDATACOPY DUP1 DUP3 ADD SWAP2 POP POP SWAP1 POP JUMPDEST POP SWAP1 POP PUSH1 0x0 DUP5 DUP1 SLOAD SWAP1 POP PUSH8 0xFFFFFFFFFFFFFFFF DUP2 GT ISZERO PUSH2 0x3027 JUMPI PUSH2 0x3026 PUSH2 0x497D JUMP JUMPDEST JUMPDEST PUSH1 0x40 MLOAD SWAP1 DUP1 DUP3 MSTORE DUP1 PUSH1 0x20 MUL PUSH1 0x20 ADD DUP3 ADD PUSH1 0x40 MSTORE DUP1 ISZERO PUSH2 0x3055 JUMPI DUP2 PUSH1 0x20 ADD PUSH1 0x20 DUP3 MUL DUP1 CALLDATASIZE DUP4 CALLDATACOPY DUP1 DUP3 ADD SWAP2 POP POP SWAP1 POP JUMPDEST POP SWAP1 POP PUSH1 0x0 DUP1 JUMPDEST DUP7 DUP1 SLOAD SWAP1 POP DUP2 LT ISZERO PUSH2 0x321F JUMPI DUP7 DUP2 DUP2 SLOAD DUP2 LT PUSH2 0x307B JUMPI PUSH2 0x307A PUSH2 0x494E JUMP JUMPDEST JUMPDEST SWAP1 PUSH1 0x0 MSTORE PUSH1 0x20 PUSH1 0x0 KECCAK256 SWAP1 PUSH1 0x7 MUL ADD PUSH1 0x4 ADD PUSH1 0x14 SWAP1 SLOAD SWAP1 PUSH2 0x100 EXP SWAP1 DIV PUSH1 0xFF AND ISZERO PUSH2 0x320C JUMPI DUP7 DUP2 DUP2 SLOAD DUP2 LT PUSH2 0x30B2 JUMPI PUSH2 0x30B1 PUSH2 0x494E JUMP JUMPDEST JUMPDEST SWAP1 PUSH1 0x0 MSTORE PUSH1 0x20 PUSH1 0x0 KECCAK256 SWAP1 PUSH1 0x7 MUL ADD PUSH1 0x3 ADD PUSH1 0x0 SWAP1 SLOAD SWAP1 PUSH2 0x100 EXP SWAP1 DIV PUSH20 0xFFFFFFFFFFFFFFFFFFFFFFFFFFFFFFFFFFFFFFFF AND DUP7 DUP4 DUP2 MLOAD DUP2 LT PUSH2 0x30F7 JUMPI PUSH2 0x30F6 PUSH2 0x494E JUMP JUMPDEST JUMPDEST PUSH1 0x20 MUL PUSH1 0x20 ADD ADD SWAP1 PUSH20 0xFFFFFFFFFFFFFFFFFFFFFFFFFFFFFFFFFFFFFFFF AND SWAP1 DUP2 PUSH20 0xFFFFFFFFFFFFFFFFFFFFFFFFFFFFFFFFFFFFFFFF AND DUP2 MSTORE POP POP DUP7 DUP2 DUP2 SLOAD DUP2 LT PUSH2 0x3144 JUMPI PUSH2 0x3143 PUSH2 0x494E JUMP JUMPDEST JUMPDEST SWAP1 PUSH1 0x0 MSTORE PUSH1 0x20 PUSH1 0x0 KECCAK256 SWAP1 PUSH1 0x7 MUL ADD PUSH1 0x0 ADD SLOAD DUP6 DUP4 DUP2 MLOAD DUP2 LT PUSH2 0x3169 JUMPI PUSH2 0x3168 PUSH2 0x494E JUMP JUMPDEST JUMPDEST PUSH1 0x20 MUL PUSH1 0x20 ADD ADD DUP2 DUP2 MSTORE POP POP DUP7 DUP2 DUP2 SLOAD DUP2 LT PUSH2 0x3188 JUMPI PUSH2 0x3187 PUSH2 0x494E JUMP JUMPDEST JUMPDEST SWAP1 PUSH1 0x0 MSTORE PUSH1 0x20 PUSH1 0x0 KECCAK256 SWAP1 PUSH1 0x7 MUL ADD PUSH1 0x1 ADD SLOAD DUP5 DUP4 DUP2 MLOAD DUP2 LT PUSH2 0x31AD JUMPI PUSH2 0x31AC PUSH2 0x494E JUMP JUMPDEST JUMPDEST PUSH1 0x20 MUL PUSH1 0x20 ADD ADD DUP2 DUP2 MSTORE POP POP DUP7 DUP2 DUP2 SLOAD DUP2 LT PUSH2 0x31CC JUMPI PUSH2 0x31CB PUSH2 0x494E JUMP JUMPDEST JUMPDEST SWAP1 PUSH1 0x0 MSTORE PUSH1 0x20 PUSH1 0x0 KECCAK256 SWAP1 PUSH1 0x7 MUL ADD PUSH1 0x2 ADD SLOAD DUP4 DUP4 DUP2 MLOAD DUP2 LT PUSH2 0x31F1 JUMPI PUSH2 0x31F0 PUSH2 0x494E JUMP JUMPDEST JUMPDEST PUSH1 0x20 MUL PUSH1 0x20 ADD ADD DUP2 DUP2 MSTORE POP POP DUP2 DUP1 PUSH2 0x3208 SWAP1 PUSH2 0x4878 JUMP JUMPDEST SWAP3 POP POP JUMPDEST DUP1 DUP1 PUSH2 0x3217 SWAP1 PUSH2 0x4878 JUMP JUMPDEST SWAP2 POP POP PUSH2 0x305C JUMP JUMPDEST POP PUSH1 0x0 DUP6 MLOAD GT PUSH2 0x3264 JUMPI PUSH1 0x40 MLOAD PUSH32 0x8C379A000000000000000000000000000000000000000000000000000000000 DUP2 MSTORE PUSH1 0x4 ADD PUSH2 0x325B SWAP1 PUSH2 0x43F9 JUMP JUMPDEST PUSH1 0x40 MLOAD DUP1 SWAP2 SUB SWAP1 REVERT JUMPDEST DUP5 DUP5 DUP5 DUP5 SWAP10 POP SWAP10 POP SWAP10 POP SWAP10 POP POP POP POP POP POP POP SWAP2 SWAP4 POP SWAP2 SWAP4 JUMP JUMPDEST PUSH1 0x0 DUP1 PUSH1 0x3 PUSH1 0x0 DUP7 PUSH20 0xFFFFFFFFFFFFFFFFFFFFFFFFFFFFFFFFFFFFFFFF AND PUSH20 0xFFFFFFFFFFFFFFFFFFFFFFFFFFFFFFFFFFFFFFFF AND DUP2 MSTORE PUSH1 0x20 ADD SWAP1 DUP2 MSTORE PUSH1 0x20 ADD PUSH1 0x0 KECCAK256 SWAP1 POP PUSH1 0x0 DUP2 DUP1 SLOAD SWAP1 POP GT PUSH2 0x3308 JUMPI PUSH1 0x40 MLOAD PUSH32 0x8C379A000000000000000000000000000000000000000000000000000000000 DUP2 MSTORE PUSH1 0x4 ADD PUSH2 0x32FF SWAP1 PUSH2 0x44B9 JUMP JUMPDEST PUSH1 0x40 MLOAD DUP1 SWAP2 SUB SWAP1 REVERT JUMPDEST PUSH1 0x0 DUP1 JUMPDEST DUP3 DUP1 SLOAD SWAP1 POP DUP2 LT ISZERO PUSH2 0x34E6 JUMPI DUP6 PUSH20 0xFFFFFFFFFFFFFFFFFFFFFFFFFFFFFFFFFFFFFFFF AND DUP4 DUP3 DUP2 SLOAD DUP2 LT PUSH2 0x3342 JUMPI PUSH2 0x3341 PUSH2 0x494E JUMP JUMPDEST JUMPDEST SWAP1 PUSH1 0x0 MSTORE PUSH1 0x20 PUSH1 0x0 KECCAK256 SWAP1 PUSH1 0x7 MUL ADD PUSH1 0x3 ADD PUSH1 0x0 SWAP1 SLOAD SWAP1 PUSH2 0x100 EXP SWAP1 DIV PUSH20 0xFFFFFFFFFFFFFFFFFFFFFFFFFFFFFFFFFFFFFFFF AND PUSH20 0xFFFFFFFFFFFFFFFFFFFFFFFFFFFFFFFFFFFFFFFF AND EQ ISZERO PUSH2 0x34D3 JUMPI PUSH1 0x0 PUSH1 0x4 PUSH1 0x0 DUP9 PUSH20 0xFFFFFFFFFFFFFFFFFFFFFFFFFFFFFFFFFFFFFFFF AND PUSH20 0xFFFFFFFFFFFFFFFFFFFFFFFFFFFFFFFFFFFFFFFF AND DUP2 MSTORE PUSH1 0x20 ADD SWAP1 DUP2 MSTORE PUSH1 0x20 ADD PUSH1 0x0 KECCAK256 SWAP1 POP PUSH1 0x0 JUMPDEST DUP2 DUP1 SLOAD SWAP1 POP DUP2 LT ISZERO PUSH2 0x34D0 JUMPI DUP7 PUSH20 0xFFFFFFFFFFFFFFFFFFFFFFFFFFFFFFFFFFFFFFFF AND DUP3 DUP3 DUP2 SLOAD DUP2 LT PUSH2 0x340C JUMPI PUSH2 0x340B PUSH2 0x494E JUMP JUMPDEST JUMPDEST SWAP1 PUSH1 0x0 MSTORE PUSH1 0x20 PUSH1 0x0 KECCAK256 SWAP1 PUSH1 0x3 MUL ADD PUSH1 0x1 ADD PUSH1 0x0 SWAP1 SLOAD SWAP1 PUSH2 0x100 EXP SWAP1 DIV PUSH20 0xFFFFFFFFFFFFFFFFFFFFFFFFFFFFFFFFFFFFFFFF AND PUSH20 0xFFFFFFFFFFFFFFFFFFFFFFFFFFFFFFFFFFFFFFFF AND EQ ISZERO PUSH2 0x34BD JUMPI DUP2 DUP2 DUP2 SLOAD DUP2 LT PUSH2 0x346D JUMPI PUSH2 0x346C PUSH2 0x494E JUMP JUMPDEST JUMPDEST SWAP1 PUSH1 0x0 MSTORE PUSH1 0x20 PUSH1 0x0 KECCAK256 SWAP1 PUSH1 0x3 MUL ADD PUSH1 0x1 ADD PUSH1 0x0 SWAP1 SLOAD SWAP1 PUSH2 0x100 EXP SWAP1 DIV PUSH20 0xFFFFFFFFFFFFFFFFFFFFFFFFFFFFFFFFFFFFFFFF AND PUSH20 0xFFFFFFFFFFFFFFFFFFFFFFFFFFFFFFFFFFFFFFFF AND BALANCE SWAP4 POP PUSH2 0x34D0 JUMP JUMPDEST DUP1 DUP1 PUSH2 0x34C8 SWAP1 PUSH2 0x4878 JUMP JUMPDEST SWAP2 POP POP PUSH2 0x33D6 JUMP JUMPDEST POP POP JUMPDEST DUP1 DUP1 PUSH2 0x34DE SWAP1 PUSH2 0x4878 JUMP JUMPDEST SWAP2 POP POP PUSH2 0x330C JUMP JUMPDEST POP DUP1 SWAP3 POP POP POP SWAP4 SWAP3 POP POP POP JUMP JUMPDEST PUSH1 0x2 PUSH1 0x0 SWAP1 SLOAD SWAP1 PUSH2 0x100 EXP SWAP1 DIV PUSH20 0xFFFFFFFFFFFFFFFFFFFFFFFFFFFFFFFFFFFFFFFF AND PUSH20 0xFFFFFFFFFFFFFFFFFFFFFFFFFFFFFFFFFFFFFFFF AND PUSH2 0x8FC CALLVALUE SWAP1 DUP2 ISZERO MUL SWAP1 PUSH1 0x40 MLOAD PUSH1 0x0 PUSH1 0x40 MLOAD DUP1 DUP4 SUB DUP2 DUP6 DUP9 DUP9 CALL SWAP4 POP POP POP POP ISZERO DUP1 ISZERO PUSH2 0x355B JUMPI RETURNDATASIZE PUSH1 0x0 DUP1 RETURNDATACOPY RETURNDATASIZE PUSH1 0x0 REVERT JUMPDEST POP JUMP JUMPDEST PUSH1 0x6 PUSH1 0x20 MSTORE DUP1 PUSH1 0x0 MSTORE PUSH1 0x40 PUSH1 0x0 KECCAK256 PUSH1 0x0 SWAP2 POP SWAP1 POP DUP1 SLOAD PUSH2 0x357D SWAP1 PUSH2 0x4815 JUMP JUMPDEST DUP1 PUSH1 0x1F ADD PUSH1 0x20 DUP1 SWAP2 DIV MUL PUSH1 0x20 ADD PUSH1 0x40 MLOAD SWAP1 DUP2 ADD PUSH1 0x40 MSTORE DUP1 SWAP3 SWAP2 SWAP1 DUP2 DUP2 MSTORE PUSH1 0x20 ADD DUP3 DUP1 SLOAD PUSH2 0x35A9 SWAP1 PUSH2 0x4815 JUMP JUMPDEST DUP1 ISZERO PUSH2 0x35F6 JUMPI DUP1 PUSH1 0x1F LT PUSH2 0x35CB JUMPI PUSH2 0x100 DUP1 DUP4 SLOAD DIV MUL DUP4 MSTORE SWAP2 PUSH1 0x20 ADD SWAP2 PUSH2 0x35F6 JUMP JUMPDEST DUP3 ADD SWAP2 SWAP1 PUSH1 0x0 MSTORE PUSH1 0x20 PUSH1 0x0 KECCAK256 SWAP1 JUMPDEST DUP2 SLOAD DUP2 MSTORE SWAP1 PUSH1 0x1 ADD SWAP1 PUSH1 0x20 ADD DUP1 DUP4 GT PUSH2 0x35D9 JUMPI DUP3 SWAP1 SUB PUSH1 0x1F AND DUP3 ADD SWAP2 JUMPDEST POP POP POP POP POP DUP2 JUMP JUMPDEST PUSH1 0x0 DUP1 PUSH1 0x3 PUSH1 0x0 DUP6 PUSH20 0xFFFFFFFFFFFFFFFFFFFFFFFFFFFFFFFFFFFFFFFF AND PUSH20 0xFFFFFFFFFFFFFFFFFFFFFFFFFFFFFFFFFFFFFFFF AND DUP2 MSTORE PUSH1 0x20 ADD SWAP1 DUP2 MSTORE PUSH1 0x20 ADD PUSH1 0x0 KECCAK256 SWAP1 POP PUSH1 0x0 DUP2 DUP1 SLOAD SWAP1 POP GT PUSH2 0x3689 JUMPI PUSH1 0x40 MLOAD PUSH32 0x8C379A000000000000000000000000000000000000000000000000000000000 DUP2 MSTORE PUSH1 0x4 ADD PUSH2 0x3680 SWAP1 PUSH2 0x44B9 JUMP JUMPDEST PUSH1 0x40 MLOAD DUP1 SWAP2 SUB SWAP1 REVERT JUMPDEST PUSH1 0x0 JUMPDEST DUP2 DUP1 SLOAD SWAP1 POP DUP2 LT ISZERO PUSH2 0x391D JUMPI DUP4 PUSH20 0xFFFFFFFFFFFFFFFFFFFFFFFFFFFFFFFFFFFFFFFF AND DUP3 DUP3 DUP2 SLOAD DUP2 LT PUSH2 0x36C2 JUMPI PUSH2 0x36C1 PUSH2 0x494E JUMP JUMPDEST JUMPDEST SWAP1 PUSH1 0x0 MSTORE PUSH1 0x20 PUSH1 0x0 KECCAK256 SWAP1 PUSH1 0x7 MUL ADD PUSH1 0x3 ADD PUSH1 0x0 SWAP1 SLOAD SWAP1 PUSH2 0x100 EXP SWAP1 DIV PUSH20 0xFFFFFFFFFFFFFFFFFFFFFFFFFFFFFFFFFFFFFFFF AND PUSH20 0xFFFFFFFFFFFFFFFFFFFFFFFFFFFFFFFFFFFFFFFF AND EQ ISZERO PUSH2 0x390A JUMPI PUSH1 0x7 PUSH1 0x9 DUP2 GT ISZERO PUSH2 0x3724 JUMPI PUSH2 0x3723 PUSH2 0x48F0 JUMP JUMPDEST JUMPDEST DUP3 DUP3 DUP2 SLOAD DUP2 LT PUSH2 0x3737 JUMPI PUSH2 0x3736 PUSH2 0x494E JUMP JUMPDEST JUMPDEST SWAP1 PUSH1 0x0 MSTORE PUSH1 0x20 PUSH1 0x0 KECCAK256 SWAP1 PUSH1 0x7 MUL ADD PUSH1 0x6 ADD PUSH1 0x0 SWAP1 SLOAD SWAP1 PUSH2 0x100 EXP SWAP1 DIV PUSH1 0xFF AND PUSH1 0x9 DUP2 GT ISZERO PUSH2 0x3768 JUMPI PUSH2 0x3767 PUSH2 0x48F0 JUMP JUMPDEST JUMPDEST EQ PUSH2 0x37A8 JUMPI PUSH1 0x40 MLOAD PUSH32 0x8C379A000000000000000000000000000000000000000000000000000000000 DUP2 MSTORE PUSH1 0x4 ADD PUSH2 0x379F SWAP1 PUSH2 0x4499 JUMP JUMPDEST PUSH1 0x40 MLOAD DUP1 SWAP2 SUB SWAP1 REVERT JUMPDEST PUSH1 0x0 PUSH1 0x4 PUSH1 0x0 DUP7 PUSH20 0xFFFFFFFFFFFFFFFFFFFFFFFFFFFFFFFFFFFFFFFF AND PUSH20 0xFFFFFFFFFFFFFFFFFFFFFFFFFFFFFFFFFFFFFFFF AND DUP2 MSTORE PUSH1 0x20 ADD SWAP1 DUP2 MSTORE PUSH1 0x20 ADD PUSH1 0x0 KECCAK256 SWAP1 POP PUSH1 0x0 JUMPDEST DUP2 DUP1 SLOAD SWAP1 POP DUP2 LT ISZERO PUSH2 0x38FF JUMPI PUSH1 0x0 DUP3 DUP3 DUP2 SLOAD DUP2 LT PUSH2 0x380F JUMPI PUSH2 0x380E PUSH2 0x494E JUMP JUMPDEST JUMPDEST SWAP1 PUSH1 0x0 MSTORE PUSH1 0x20 PUSH1 0x0 KECCAK256 SWAP1 PUSH1 0x3 MUL ADD PUSH1 0x2 ADD PUSH1 0x0 DUP9 PUSH20 0xFFFFFFFFFFFFFFFFFFFFFFFFFFFFFFFFFFFFFFFF AND PUSH20 0xFFFFFFFFFFFFFFFFFFFFFFFFFFFFFFFFFFFFFFFF AND DUP2 MSTORE PUSH1 0x20 ADD SWAP1 DUP2 MSTORE PUSH1 0x20 ADD PUSH1 0x0 KECCAK256 SLOAD SWAP1 POP DUP3 DUP3 DUP2 SLOAD DUP2 LT PUSH2 0x3873 JUMPI PUSH2 0x3872 PUSH2 0x494E JUMP JUMPDEST JUMPDEST SWAP1 PUSH1 0x0 MSTORE PUSH1 0x20 PUSH1 0x0 KECCAK256 SWAP1 PUSH1 0x3 MUL ADD PUSH1 0x1 ADD PUSH1 0x0 SWAP1 SLOAD SWAP1 PUSH2 0x100 EXP SWAP1 DIV PUSH20 0xFFFFFFFFFFFFFFFFFFFFFFFFFFFFFFFFFFFFFFFF AND PUSH20 0xFFFFFFFFFFFFFFFFFFFFFFFFFFFFFFFFFFFFFFFF AND PUSH2 0x8FC DUP3 SWAP1 DUP2 ISZERO MUL SWAP1 PUSH1 0x40 MLOAD PUSH1 0x0 PUSH1 0x40 MLOAD DUP1 DUP4 SUB DUP2 DUP6 DUP9 DUP9 CALL SWAP4 POP POP POP POP ISZERO DUP1 ISZERO PUSH2 0x38EA JUMPI RETURNDATASIZE PUSH1 0x0 DUP1 RETURNDATACOPY RETURNDATASIZE PUSH1 0x0 REVERT JUMPDEST POP POP DUP1 DUP1 PUSH2 0x38F7 SWAP1 PUSH2 0x4878 JUMP JUMPDEST SWAP2 POP POP PUSH2 0x37EE JUMP JUMPDEST POP PUSH1 0x1 SWAP4 POP POP PUSH2 0x391D JUMP JUMPDEST DUP1 DUP1 PUSH2 0x3915 SWAP1 PUSH2 0x4878 JUMP JUMPDEST SWAP2 POP POP PUSH2 0x368C JUMP JUMPDEST POP DUP2 PUSH2 0x395E JUMPI PUSH1 0x40 MLOAD PUSH32 0x8C379A000000000000000000000000000000000000000000000000000000000 DUP2 MSTORE PUSH1 0x4 ADD PUSH2 0x3955 SWAP1 PUSH2 0x44F9 JUMP JUMPDEST PUSH1 0x40 MLOAD DUP1 SWAP2 SUB SWAP1 REVERT JUMPDEST POP POP POP POP JUMP JUMPDEST PUSH1 0x0 DUP1 PUSH1 0x3 PUSH1 0x0 DUP6 PUSH20 0xFFFFFFFFFFFFFFFFFFFFFFFFFFFFFFFFFFFFFFFF AND PUSH20 0xFFFFFFFFFFFFFFFFFFFFFFFFFFFFFFFFFFFFFFFF AND DUP2 MSTORE PUSH1 0x20 ADD SWAP1 DUP2 MSTORE PUSH1 0x20 ADD PUSH1 0x0 KECCAK256 SWAP1 POP PUSH1 0x0 DUP2 DUP1 SLOAD SWAP1 POP GT PUSH2 0x39EF JUMPI PUSH1 0x40 MLOAD PUSH32 0x8C379A000000000000000000000000000000000000000000000000000000000 DUP2 MSTORE PUSH1 0x4 ADD PUSH2 0x39E6 SWAP1 PUSH2 0x44B9 JUMP JUMPDEST PUSH1 0x40 MLOAD DUP1 SWAP2 SUB SWAP1 REVERT JUMPDEST PUSH1 0x0 JUMPDEST DUP2 DUP1 SLOAD SWAP1 POP DUP2 LT ISZERO PUSH2 0x3B41 JUMPI DUP4 PUSH20 0xFFFFFFFFFFFFFFFFFFFFFFFFFFFFFFFFFFFFFFFF AND DUP3 DUP3 DUP2 SLOAD DUP2 LT PUSH2 0x3A28 JUMPI PUSH2 0x3A27 PUSH2 0x494E JUMP JUMPDEST JUMPDEST SWAP1 PUSH1 0x0 MSTORE PUSH1 0x20 PUSH1 0x0 KECCAK256 SWAP1 PUSH1 0x7 MUL ADD PUSH1 0x3 ADD PUSH1 0x0 SWAP1 SLOAD SWAP1 PUSH2 0x100 EXP SWAP1 DIV PUSH20 0xFFFFFFFFFFFFFFFFFFFFFFFFFFFFFFFFFFFFFFFF AND PUSH20 0xFFFFFFFFFFFFFFFFFFFFFFFFFFFFFFFFFFFFFFFF AND EQ ISZERO PUSH2 0x3B2E JUMPI DUP2 DUP2 DUP2 SLOAD DUP2 LT PUSH2 0x3A89 JUMPI PUSH2 0x3A88 PUSH2 0x494E JUMP JUMPDEST JUMPDEST SWAP1 PUSH1 0x0 MSTORE PUSH1 0x20 PUSH1 0x0 KECCAK256 SWAP1 PUSH1 0x7 MUL ADD PUSH1 0x3 ADD PUSH1 0x0 SWAP1 SLOAD SWAP1 PUSH2 0x100 EXP SWAP1 DIV PUSH20 0xFFFFFFFFFFFFFFFFFFFFFFFFFFFFFFFFFFFFFFFF AND PUSH20 0xFFFFFFFFFFFFFFFFFFFFFFFFFFFFFFFFFFFFFFFF AND PUSH2 0x8FC DUP4 DUP4 DUP2 SLOAD DUP2 LT PUSH2 0x3AE7 JUMPI PUSH2 0x3AE6 PUSH2 0x494E JUMP JUMPDEST JUMPDEST SWAP1 PUSH1 0x0 MSTORE PUSH1 0x20 PUSH1 0x0 KECCAK256 SWAP1 PUSH1 0x7 MUL ADD PUSH1 0x2 ADD SLOAD SWAP1 DUP2 ISZERO MUL SWAP1 PUSH1 0x40 MLOAD PUSH1 0x0 PUSH1 0x40 MLOAD DUP1 DUP4 SUB DUP2 DUP6 DUP9 DUP9 CALL SWAP4 POP POP POP POP ISZERO DUP1 ISZERO PUSH2 0x3B24 JUMPI RETURNDATASIZE PUSH1 0x0 DUP1 RETURNDATACOPY RETURNDATASIZE PUSH1 0x0 REVERT JUMPDEST POP PUSH1 0x1 SWAP3 POP PUSH2 0x3B41 JUMP JUMPDEST DUP1 DUP1 PUSH2 0x3B39 SWAP1 PUSH2 0x4878 JUMP JUMPDEST SWAP2 POP POP PUSH2 0x39F2 JUMP JUMPDEST POP DUP2 PUSH2 0x3B82 JUMPI PUSH1 0x40 MLOAD PUSH32 0x8C379A000000000000000000000000000000000000000000000000000000000 DUP2 MSTORE PUSH1 0x4 ADD PUSH2 0x3B79 SWAP1 PUSH2 0x44F9 JUMP JUMPDEST PUSH1 0x40 MLOAD DUP1 SWAP2 SUB SWAP1 REVERT JUMPDEST POP POP POP POP JUMP JUMPDEST DUP3 DUP1 SLOAD PUSH2 0x3B94 SWAP1 PUSH2 0x4815 JUMP JUMPDEST SWAP1 PUSH1 0x0 MSTORE PUSH1 0x20 PUSH1 0x0 KECCAK256 SWAP1 PUSH1 0x1F ADD PUSH1 0x20 SWAP1 DIV DUP2 ADD SWAP3 DUP3 PUSH2 0x3BB6 JUMPI PUSH1 0x0 DUP6 SSTORE PUSH2 0x3BFD JUMP JUMPDEST DUP3 PUSH1 0x1F LT PUSH2 0x3BCF JUMPI DUP1 MLOAD PUSH1 0xFF NOT AND DUP4 DUP1 ADD OR DUP6 SSTORE PUSH2 0x3BFD JUMP JUMPDEST DUP3 DUP1 ADD PUSH1 0x1 ADD DUP6 SSTORE DUP3 ISZERO PUSH2 0x3BFD JUMPI SWAP2 DUP3 ADD JUMPDEST DUP3 DUP2 GT ISZERO PUSH2 0x3BFC JUMPI DUP3 MLOAD DUP3 SSTORE SWAP2 PUSH1 0x20 ADD SWAP2 SWAP1 PUSH1 0x1 ADD SWAP1 PUSH2 0x3BE1 JUMP JUMPDEST JUMPDEST POP SWAP1 POP PUSH2 0x3C0A SWAP2 SWAP1 PUSH2 0x3C0E JUMP JUMPDEST POP SWAP1 JUMP JUMPDEST JUMPDEST DUP1 DUP3 GT ISZERO PUSH2 0x3C27 JUMPI PUSH1 0x0 DUP2 PUSH1 0x0 SWAP1 SSTORE POP PUSH1 0x1 ADD PUSH2 0x3C0F JUMP JUMPDEST POP SWAP1 JUMP JUMPDEST PUSH1 0x0 PUSH2 0x3C3E PUSH2 0x3C39 DUP5 PUSH2 0x4610 JUMP JUMPDEST PUSH2 0x45EB JUMP JUMPDEST SWAP1 POP DUP3 DUP2 MSTORE PUSH1 0x20 DUP2 ADD DUP5 DUP5 DUP5 ADD GT ISZERO PUSH2 0x3C5A JUMPI PUSH2 0x3C59 PUSH2 0x49B1 JUMP JUMPDEST JUMPDEST PUSH2 0x3C65 DUP5 DUP3 DUP6 PUSH2 0x47D3 JUMP JUMPDEST POP SWAP4 SWAP3 POP POP POP JUMP JUMPDEST PUSH1 0x0 DUP2 CALLDATALOAD SWAP1 POP PUSH2 0x3C7C DUP2 PUSH2 0x4DC2 JUMP JUMPDEST SWAP3 SWAP2 POP POP JUMP JUMPDEST PUSH1 0x0 DUP2 CALLDATALOAD SWAP1 POP PUSH2 0x3C91 DUP2 PUSH2 0x4DD9 JUMP JUMPDEST SWAP3 SWAP2 POP POP JUMP JUMPDEST PUSH1 0x0 DUP2 CALLDATALOAD SWAP1 POP PUSH2 0x3CA6 DUP2 PUSH2 0x4DF0 JUMP JUMPDEST SWAP3 SWAP2 POP POP JUMP JUMPDEST PUSH1 0x0 DUP3 PUSH1 0x1F DUP4 ADD SLT PUSH2 0x3CC1 JUMPI PUSH2 0x3CC0 PUSH2 0x49AC JUMP JUMPDEST JUMPDEST DUP2 CALLDATALOAD PUSH2 0x3CD1 DUP5 DUP3 PUSH1 0x20 DUP7 ADD PUSH2 0x3C2B JUMP JUMPDEST SWAP2 POP POP SWAP3 SWAP2 POP POP JUMP JUMPDEST PUSH1 0x0 DUP2 CALLDATALOAD SWAP1 POP PUSH2 0x3CE9 DUP2 PUSH2 0x4E00 JUMP JUMPDEST SWAP3 SWAP2 POP POP JUMP JUMPDEST PUSH1 0x0 DUP2 CALLDATALOAD SWAP1 POP PUSH2 0x3CFE DUP2 PUSH2 0x4E17 JUMP JUMPDEST SWAP3 SWAP2 POP POP JUMP JUMPDEST PUSH1 0x0 PUSH1 0x20 DUP3 DUP5 SUB SLT ISZERO PUSH2 0x3D1A JUMPI PUSH2 0x3D19 PUSH2 0x49BB JUMP JUMPDEST JUMPDEST PUSH1 0x0 PUSH2 0x3D28 DUP5 DUP3 DUP6 ADD PUSH2 0x3C6D JUMP JUMPDEST SWAP2 POP POP SWAP3 SWAP2 POP POP JUMP JUMPDEST PUSH1 0x0 DUP1 PUSH1 0x40 DUP4 DUP6 SUB SLT ISZERO PUSH2 0x3D48 JUMPI PUSH2 0x3D47 PUSH2 0x49BB JUMP JUMPDEST JUMPDEST PUSH1 0x0 PUSH2 0x3D56 DUP6 DUP3 DUP7 ADD PUSH2 0x3C6D JUMP JUMPDEST SWAP3 POP POP PUSH1 0x20 PUSH2 0x3D67 DUP6 DUP3 DUP7 ADD PUSH2 0x3C6D JUMP JUMPDEST SWAP2 POP POP SWAP3 POP SWAP3 SWAP1 POP JUMP JUMPDEST PUSH1 0x0 DUP1 PUSH1 0x0 PUSH1 0x60 DUP5 DUP7 SUB SLT ISZERO PUSH2 0x3D8A JUMPI PUSH2 0x3D89 PUSH2 0x49BB JUMP JUMPDEST JUMPDEST PUSH1 0x0 PUSH2 0x3D98 DUP7 DUP3 DUP8 ADD PUSH2 0x3C6D JUMP JUMPDEST SWAP4 POP POP PUSH1 0x20 PUSH2 0x3DA9 DUP7 DUP3 DUP8 ADD PUSH2 0x3C6D JUMP JUMPDEST SWAP3 POP POP PUSH1 0x40 PUSH2 0x3DBA DUP7 DUP3 DUP8 ADD PUSH2 0x3C6D JUMP JUMPDEST SWAP2 POP POP SWAP3 POP SWAP3 POP SWAP3 JUMP JUMPDEST PUSH1 0x0 DUP1 PUSH1 0x0 PUSH1 0x60 DUP5 DUP7 SUB SLT ISZERO PUSH2 0x3DDD JUMPI PUSH2 0x3DDC PUSH2 0x49BB JUMP JUMPDEST JUMPDEST PUSH1 0x0 PUSH2 0x3DEB DUP7 DUP3 DUP8 ADD PUSH2 0x3C6D JUMP JUMPDEST SWAP4 POP POP PUSH1 0x20 PUSH2 0x3DFC DUP7 DUP3 DUP8 ADD PUSH2 0x3C6D JUMP JUMPDEST SWAP3 POP POP PUSH1 0x40 PUSH2 0x3E0D DUP7 DUP3 DUP8 ADD PUSH2 0x3CEF JUMP JUMPDEST SWAP2 POP POP SWAP3 POP SWAP3 POP SWAP3 JUMP JUMPDEST PUSH1 0x0 DUP1 PUSH1 0x0 PUSH1 0x60 DUP5 DUP7 SUB SLT ISZERO PUSH2 0x3E30 JUMPI PUSH2 0x3E2F PUSH2 0x49BB JUMP JUMPDEST JUMPDEST PUSH1 0x0 PUSH2 0x3E3E DUP7 DUP3 DUP8 ADD PUSH2 0x3C6D JUMP JUMPDEST SWAP4 POP POP PUSH1 0x20 PUSH2 0x3E4F DUP7 DUP3 DUP8 ADD PUSH2 0x3C82 JUMP JUMPDEST SWAP3 POP POP PUSH1 0x40 DUP5 ADD CALLDATALOAD PUSH8 0xFFFFFFFFFFFFFFFF DUP2 GT ISZERO PUSH2 0x3E70 JUMPI PUSH2 0x3E6F PUSH2 0x49B6 JUMP JUMPDEST JUMPDEST PUSH2 0x3E7C DUP7 DUP3 DUP8 ADD PUSH2 0x3CAC JUMP JUMPDEST SWAP2 POP POP SWAP3 POP SWAP3 POP SWAP3 JUMP JUMPDEST PUSH1 0x0 DUP1 PUSH1 0x40 DUP4 DUP6 SUB SLT ISZERO PUSH2 0x3E9D JUMPI PUSH2 0x3E9C PUSH2 0x49BB JUMP JUMPDEST JUMPDEST PUSH1 0x0 PUSH2 0x3EAB DUP6 DUP3 DUP7 ADD PUSH2 0x3C6D JUMP JUMPDEST SWAP3 POP POP PUSH1 0x20 PUSH2 0x3EBC DUP6 DUP3 DUP7 ADD PUSH2 0x3CEF JUMP JUMPDEST SWAP2 POP POP SWAP3 POP SWAP3 SWAP1 POP JUMP JUMPDEST PUSH1 0x0 PUSH1 0x20 DUP3 DUP5 SUB SLT ISZERO PUSH2 0x3EDC JUMPI PUSH2 0x3EDB PUSH2 0x49BB JUMP JUMPDEST JUMPDEST PUSH1 0x0 PUSH2 0x3EEA DUP5 DUP3 DUP6 ADD PUSH2 0x3C97 JUMP JUMPDEST SWAP2 POP POP SWAP3 SWAP2 POP POP JUMP JUMPDEST PUSH1 0x0 DUP1 PUSH1 0x40 DUP4 DUP6 SUB SLT ISZERO PUSH2 0x3F0A JUMPI PUSH2 0x3F09 PUSH2 0x49BB JUMP JUMPDEST JUMPDEST PUSH1 0x0 DUP4 ADD CALLDATALOAD PUSH8 0xFFFFFFFFFFFFFFFF DUP2 GT ISZERO PUSH2 0x3F28 JUMPI PUSH2 0x3F27 PUSH2 0x49B6 JUMP JUMPDEST JUMPDEST PUSH2 0x3F34 DUP6 DUP3 DUP7 ADD PUSH2 0x3CAC JUMP JUMPDEST SWAP3 POP POP PUSH1 0x20 PUSH2 0x3F45 DUP6 DUP3 DUP7 ADD PUSH2 0x3C6D JUMP JUMPDEST SWAP2 POP POP SWAP3 POP SWAP3 SWAP1 POP JUMP JUMPDEST PUSH1 0x0 DUP1 PUSH1 0x0 DUP1 PUSH1 0x80 DUP6 DUP8 SUB SLT ISZERO PUSH2 0x3F69 JUMPI PUSH2 0x3F68 PUSH2 0x49BB JUMP JUMPDEST JUMPDEST PUSH1 0x0 PUSH2 0x3F77 DUP8 DUP3 DUP9 ADD PUSH2 0x3CDA JUMP JUMPDEST SWAP5 POP POP PUSH1 0x20 PUSH2 0x3F88 DUP8 DUP3 DUP9 ADD PUSH2 0x3CDA JUMP JUMPDEST SWAP4 POP POP PUSH1 0x40 PUSH2 0x3F99 DUP8 DUP3 DUP9 ADD PUSH2 0x3C6D JUMP JUMPDEST SWAP3 POP POP PUSH1 0x60 DUP6 ADD CALLDATALOAD PUSH8 0xFFFFFFFFFFFFFFFF DUP2 GT ISZERO PUSH2 0x3FBA JUMPI PUSH2 0x3FB9 PUSH2 0x49B6 JUMP JUMPDEST JUMPDEST PUSH2 0x3FC6 DUP8 DUP3 DUP9 ADD PUSH2 0x3CAC JUMP JUMPDEST SWAP2 POP POP SWAP3 SWAP6 SWAP2 SWAP5 POP SWAP3 POP JUMP JUMPDEST PUSH1 0x0 PUSH2 0x3FDE DUP4 DUP4 PUSH2 0x4002 JUMP JUMPDEST PUSH1 0x20 DUP4 ADD SWAP1 POP SWAP3 SWAP2 POP POP JUMP JUMPDEST PUSH1 0x0 PUSH2 0x3FF6 DUP4 DUP4 PUSH2 0x42EB JUMP JUMPDEST PUSH1 0x20 DUP4 ADD SWAP1 POP SWAP3 SWAP2 POP POP JUMP JUMPDEST PUSH2 0x400B DUP2 PUSH2 0x4759 JUMP JUMPDEST DUP3 MSTORE POP POP JUMP JUMPDEST PUSH2 0x401A DUP2 PUSH2 0x4759 JUMP JUMPDEST DUP3 MSTORE POP POP JUMP JUMPDEST PUSH1 0x0 PUSH2 0x402B DUP3 PUSH2 0x4661 JUMP JUMPDEST PUSH2 0x4035 DUP2 DUP6 PUSH2 0x469C JUMP JUMPDEST SWAP4 POP PUSH2 0x4040 DUP4 PUSH2 0x4641 JUMP JUMPDEST DUP1 PUSH1 0x0 JUMPDEST DUP4 DUP2 LT ISZERO PUSH2 0x4071 JUMPI DUP2 MLOAD PUSH2 0x4058 DUP9 DUP3 PUSH2 0x3FD2 JUMP JUMPDEST SWAP8 POP PUSH2 0x4063 DUP4 PUSH2 0x4682 JUMP JUMPDEST SWAP3 POP POP PUSH1 0x1 DUP2 ADD SWAP1 POP PUSH2 0x4044 JUMP JUMPDEST POP DUP6 SWAP4 POP POP POP POP SWAP3 SWAP2 POP POP JUMP JUMPDEST PUSH1 0x0 PUSH2 0x4089 DUP3 PUSH2 0x466C JUMP JUMPDEST PUSH2 0x4093 DUP2 DUP6 PUSH2 0x46AD JUMP JUMPDEST SWAP4 POP PUSH2 0x409E DUP4 PUSH2 0x4651 JUMP JUMPDEST DUP1 PUSH1 0x0 JUMPDEST DUP4 DUP2 LT ISZERO PUSH2 0x40CF JUMPI DUP2 MLOAD PUSH2 0x40B6 DUP9 DUP3 PUSH2 0x3FEA JUMP JUMPDEST SWAP8 POP PUSH2 0x40C1 DUP4 PUSH2 0x468F JUMP JUMPDEST SWAP3 POP POP PUSH1 0x1 DUP2 ADD SWAP1 POP PUSH2 0x40A2 JUMP JUMPDEST POP DUP6 SWAP4 POP POP POP POP SWAP3 SWAP2 POP POP JUMP JUMPDEST PUSH2 0x40E5 DUP2 PUSH2 0x47C1 JUMP JUMPDEST DUP3 MSTORE POP POP JUMP JUMPDEST PUSH1 0x0 PUSH2 0x40F6 DUP3 PUSH2 0x4677 JUMP JUMPDEST PUSH2 0x4100 DUP2 DUP6 PUSH2 0x46BE JUMP JUMPDEST SWAP4 POP PUSH2 0x4110 DUP2 DUP6 PUSH1 0x20 DUP7 ADD PUSH2 0x47E2 JUMP JUMPDEST PUSH2 0x4119 DUP2 PUSH2 0x49C0 JUMP JUMPDEST DUP5 ADD SWAP2 POP POP SWAP3 SWAP2 POP POP JUMP JUMPDEST PUSH1 0x0 PUSH2 0x4131 PUSH1 0x2D DUP4 PUSH2 0x46BE JUMP JUMPDEST SWAP2 POP PUSH2 0x413C DUP3 PUSH2 0x49D1 JUMP JUMPDEST PUSH1 0x40 DUP3 ADD SWAP1 POP SWAP2 SWAP1 POP JUMP JUMPDEST PUSH1 0x0 PUSH2 0x4154 PUSH1 0x2A DUP4 PUSH2 0x46BE JUMP JUMPDEST SWAP2 POP PUSH2 0x415F DUP3 PUSH2 0x4A20 JUMP JUMPDEST PUSH1 0x40 DUP3 ADD SWAP1 POP SWAP2 SWAP1 POP JUMP JUMPDEST PUSH1 0x0 PUSH2 0x4177 PUSH1 0x28 DUP4 PUSH2 0x46BE JUMP JUMPDEST SWAP2 POP PUSH2 0x4182 DUP3 PUSH2 0x4A6F JUMP JUMPDEST PUSH1 0x40 DUP3 ADD SWAP1 POP SWAP2 SWAP1 POP JUMP JUMPDEST PUSH1 0x0 PUSH2 0x419A PUSH1 0x31 DUP4 PUSH2 0x46BE JUMP JUMPDEST SWAP2 POP PUSH2 0x41A5 DUP3 PUSH2 0x4ABE JUMP JUMPDEST PUSH1 0x40 DUP3 ADD SWAP1 POP SWAP2 SWAP1 POP JUMP JUMPDEST PUSH1 0x0 PUSH2 0x41BD PUSH1 0x41 DUP4 PUSH2 0x46BE JUMP JUMPDEST SWAP2 POP PUSH2 0x41C8 DUP3 PUSH2 0x4B0D JUMP JUMPDEST PUSH1 0x60 DUP3 ADD SWAP1 POP SWAP2 SWAP1 POP JUMP JUMPDEST PUSH1 0x0 PUSH2 0x41E0 PUSH1 0x3E DUP4 PUSH2 0x46BE JUMP JUMPDEST SWAP2 POP PUSH2 0x41EB DUP3 PUSH2 0x4B82 JUMP JUMPDEST PUSH1 0x40 DUP3 ADD SWAP1 POP SWAP2 SWAP1 POP JUMP JUMPDEST PUSH1 0x0 PUSH2 0x4203 PUSH1 0x23 DUP4 PUSH2 0x46BE JUMP JUMPDEST SWAP2 POP PUSH2 0x420E DUP3 PUSH2 0x4BD1 JUMP JUMPDEST PUSH1 0x40 DUP3 ADD SWAP1 POP SWAP2 SWAP1 POP JUMP JUMPDEST PUSH1 0x0 PUSH2 0x4226 PUSH1 0x15 DUP4 PUSH2 0x46BE JUMP JUMPDEST SWAP2 POP PUSH2 0x4231 DUP3 PUSH2 0x4C20 JUMP JUMPDEST PUSH1 0x20 DUP3 ADD SWAP1 POP SWAP2 SWAP1 POP JUMP JUMPDEST PUSH1 0x0 PUSH2 0x4249 PUSH1 0x25 DUP4 PUSH2 0x46BE JUMP JUMPDEST SWAP2 POP PUSH2 0x4254 DUP3 PUSH2 0x4C49 JUMP JUMPDEST PUSH1 0x40 DUP3 ADD SWAP1 POP SWAP2 SWAP1 POP JUMP JUMPDEST PUSH1 0x0 PUSH2 0x426C PUSH1 0x28 DUP4 PUSH2 0x46BE JUMP JUMPDEST SWAP2 POP PUSH2 0x4277 DUP3 PUSH2 0x4C98 JUMP JUMPDEST PUSH1 0x40 DUP3 ADD SWAP1 POP SWAP2 SWAP1 POP JUMP JUMPDEST PUSH1 0x0 PUSH2 0x428F PUSH1 0x20 DUP4 PUSH2 0x46BE JUMP JUMPDEST SWAP2 POP PUSH2 0x429A DUP3 PUSH2 0x4CE7 JUMP JUMPDEST PUSH1 0x20 DUP3 ADD SWAP1 POP SWAP2 SWAP1 POP JUMP JUMPDEST PUSH1 0x0 PUSH2 0x42B2 PUSH1 0x2A DUP4 PUSH2 0x46BE JUMP JUMPDEST SWAP2 POP PUSH2 0x42BD DUP3 PUSH2 0x4D10 JUMP JUMPDEST PUSH1 0x40 DUP3 ADD SWAP1 POP SWAP2 SWAP1 POP JUMP JUMPDEST PUSH1 0x0 PUSH2 0x42D5 PUSH1 0x2C DUP4 PUSH2 0x46BE JUMP JUMPDEST SWAP2 POP PUSH2 0x42E0 DUP3 PUSH2 0x4D5F JUMP JUMPDEST PUSH1 0x40 DUP3 ADD SWAP1 POP SWAP2 SWAP1 POP JUMP JUMPDEST PUSH2 0x42F4 DUP2 PUSH2 0x47AA JUMP JUMPDEST DUP3 MSTORE POP POP JUMP JUMPDEST PUSH2 0x4303 DUP2 PUSH2 0x47AA JUMP JUMPDEST DUP3 MSTORE POP POP JUMP JUMPDEST PUSH1 0x0 PUSH1 0x20 DUP3 ADD SWAP1 POP PUSH2 0x431E PUSH1 0x0 DUP4 ADD DUP5 PUSH2 0x4011 JUMP JUMPDEST SWAP3 SWAP2 POP POP JUMP JUMPDEST PUSH1 0x0 PUSH1 0x60 DUP3 ADD SWAP1 POP PUSH2 0x4339 PUSH1 0x0 DUP4 ADD DUP7 PUSH2 0x4011 JUMP JUMPDEST PUSH2 0x4346 PUSH1 0x20 DUP4 ADD DUP6 PUSH2 0x4011 JUMP JUMPDEST PUSH2 0x4353 PUSH1 0x40 DUP4 ADD DUP5 PUSH2 0x40DC JUMP JUMPDEST SWAP5 SWAP4 POP POP POP POP JUMP JUMPDEST PUSH1 0x0 PUSH1 0x80 DUP3 ADD SWAP1 POP DUP2 DUP2 SUB PUSH1 0x0 DUP4 ADD MSTORE PUSH2 0x4375 DUP2 DUP8 PUSH2 0x4020 JUMP JUMPDEST SWAP1 POP DUP2 DUP2 SUB PUSH1 0x20 DUP4 ADD MSTORE PUSH2 0x4389 DUP2 DUP7 PUSH2 0x407E JUMP JUMPDEST SWAP1 POP DUP2 DUP2 SUB PUSH1 0x40 DUP4 ADD MSTORE PUSH2 0x439D DUP2 DUP6 PUSH2 0x407E JUMP JUMPDEST SWAP1 POP DUP2 DUP2 SUB PUSH1 0x60 DUP4 ADD MSTORE PUSH2 0x43B1 DUP2 DUP5 PUSH2 0x407E JUMP JUMPDEST SWAP1 POP SWAP6 SWAP5 POP POP POP POP POP JUMP JUMPDEST PUSH1 0x0 PUSH1 0x20 DUP3 ADD SWAP1 POP PUSH2 0x43D1 PUSH1 0x0 DUP4 ADD DUP5 PUSH2 0x40DC JUMP JUMPDEST SWAP3 SWAP2 POP POP JUMP JUMPDEST PUSH1 0x0 PUSH1 0x20 DUP3 ADD SWAP1 POP DUP2 DUP2 SUB PUSH1 0x0 DUP4 ADD MSTORE PUSH2 0x43F1 DUP2 DUP5 PUSH2 0x40EB JUMP JUMPDEST SWAP1 POP SWAP3 SWAP2 POP POP JUMP JUMPDEST PUSH1 0x0 PUSH1 0x20 DUP3 ADD SWAP1 POP DUP2 DUP2 SUB PUSH1 0x0 DUP4 ADD MSTORE PUSH2 0x4412 DUP2 PUSH2 0x4124 JUMP JUMPDEST SWAP1 POP SWAP2 SWAP1 POP JUMP JUMPDEST PUSH1 0x0 PUSH1 0x20 DUP3 ADD SWAP1 POP DUP2 DUP2 SUB PUSH1 0x0 DUP4 ADD MSTORE PUSH2 0x4432 DUP2 PUSH2 0x4147 JUMP JUMPDEST SWAP1 POP SWAP2 SWAP1 POP JUMP JUMPDEST PUSH1 0x0 PUSH1 0x20 DUP3 ADD SWAP1 POP DUP2 DUP2 SUB PUSH1 0x0 DUP4 ADD MSTORE PUSH2 0x4452 DUP2 PUSH2 0x416A JUMP JUMPDEST SWAP1 POP SWAP2 SWAP1 POP JUMP JUMPDEST PUSH1 0x0 PUSH1 0x20 DUP3 ADD SWAP1 POP DUP2 DUP2 SUB PUSH1 0x0 DUP4 ADD MSTORE PUSH2 0x4472 DUP2 PUSH2 0x418D JUMP JUMPDEST SWAP1 POP SWAP2 SWAP1 POP JUMP JUMPDEST PUSH1 0x0 PUSH1 0x20 DUP3 ADD SWAP1 POP DUP2 DUP2 SUB PUSH1 0x0 DUP4 ADD MSTORE PUSH2 0x4492 DUP2 PUSH2 0x41B0 JUMP JUMPDEST SWAP1 POP SWAP2 SWAP1 POP JUMP JUMPDEST PUSH1 0x0 PUSH1 0x20 DUP3 ADD SWAP1 POP DUP2 DUP2 SUB PUSH1 0x0 DUP4 ADD MSTORE PUSH2 0x44B2 DUP2 PUSH2 0x41D3 JUMP JUMPDEST SWAP1 POP SWAP2 SWAP1 POP JUMP JUMPDEST PUSH1 0x0 PUSH1 0x20 DUP3 ADD SWAP1 POP DUP2 DUP2 SUB PUSH1 0x0 DUP4 ADD MSTORE PUSH2 0x44D2 DUP2 PUSH2 0x41F6 JUMP JUMPDEST SWAP1 POP SWAP2 SWAP1 POP JUMP JUMPDEST PUSH1 0x0 PUSH1 0x20 DUP3 ADD SWAP1 POP DUP2 DUP2 SUB PUSH1 0x0 DUP4 ADD MSTORE PUSH2 0x44F2 DUP2 PUSH2 0x4219 JUMP JUMPDEST SWAP1 POP SWAP2 SWAP1 POP JUMP JUMPDEST PUSH1 0x0 PUSH1 0x20 DUP3 ADD SWAP1 POP DUP2 DUP2 SUB PUSH1 0x0 DUP4 ADD MSTORE PUSH2 0x4512 DUP2 PUSH2 0x423C JUMP JUMPDEST SWAP1 POP SWAP2 SWAP1 POP JUMP JUMPDEST PUSH1 0x0 PUSH1 0x20 DUP3 ADD SWAP1 POP DUP2 DUP2 SUB PUSH1 0x0 DUP4 ADD MSTORE PUSH2 0x4532 DUP2 PUSH2 0x425F JUMP JUMPDEST SWAP1 POP SWAP2 SWAP1 POP JUMP JUMPDEST PUSH1 0x0 PUSH1 0x20 DUP3 ADD SWAP1 POP DUP2 DUP2 SUB PUSH1 0x0 DUP4 ADD MSTORE PUSH2 0x4552 DUP2 PUSH2 0x4282 JUMP JUMPDEST SWAP1 POP SWAP2 SWAP1 POP JUMP JUMPDEST PUSH1 0x0 PUSH1 0x20 DUP3 ADD SWAP1 POP DUP2 DUP2 SUB PUSH1 0x0 DUP4 ADD MSTORE PUSH2 0x4572 DUP2 PUSH2 0x42A5 JUMP JUMPDEST SWAP1 POP SWAP2 SWAP1 POP JUMP JUMPDEST PUSH1 0x0 PUSH1 0x20 DUP3 ADD SWAP1 POP DUP2 DUP2 SUB PUSH1 0x0 DUP4 ADD MSTORE PUSH2 0x4592 DUP2 PUSH2 0x42C8 JUMP JUMPDEST SWAP1 POP SWAP2 SWAP1 POP JUMP JUMPDEST PUSH1 0x0 PUSH1 0x20 DUP3 ADD SWAP1 POP PUSH2 0x45AE PUSH1 0x0 DUP4 ADD DUP5 PUSH2 0x42FA JUMP JUMPDEST SWAP3 SWAP2 POP POP JUMP JUMPDEST PUSH1 0x0 PUSH1 0x60 DUP3 ADD SWAP1 POP PUSH2 0x45C9 PUSH1 0x0 DUP4 ADD DUP7 PUSH2 0x42FA JUMP JUMPDEST PUSH2 0x45D6 PUSH1 0x20 DUP4 ADD DUP6 PUSH2 0x42FA JUMP JUMPDEST PUSH2 0x45E3 PUSH1 0x40 DUP4 ADD DUP5 PUSH2 0x42FA JUMP JUMPDEST SWAP5 SWAP4 POP POP POP POP JUMP JUMPDEST PUSH1 0x0 PUSH2 0x45F5 PUSH2 0x4606 JUMP JUMPDEST SWAP1 POP PUSH2 0x4601 DUP3 DUP3 PUSH2 0x4847 JUMP JUMPDEST SWAP2 SWAP1 POP JUMP JUMPDEST PUSH1 0x0 PUSH1 0x40 MLOAD SWAP1 POP SWAP1 JUMP JUMPDEST PUSH1 0x0 PUSH8 0xFFFFFFFFFFFFFFFF DUP3 GT ISZERO PUSH2 0x462B JUMPI PUSH2 0x462A PUSH2 0x497D JUMP JUMPDEST JUMPDEST PUSH2 0x4634 DUP3 PUSH2 0x49C0 JUMP JUMPDEST SWAP1 POP PUSH1 0x20 DUP2 ADD SWAP1 POP SWAP2 SWAP1 POP JUMP JUMPDEST PUSH1 0x0 DUP2 SWAP1 POP PUSH1 0x20 DUP3 ADD SWAP1 POP SWAP2 SWAP1 POP JUMP JUMPDEST PUSH1 0x0 DUP2 SWAP1 POP PUSH1 0x20 DUP3 ADD SWAP1 POP SWAP2 SWAP1 POP JUMP JUMPDEST PUSH1 0x0 DUP2 MLOAD SWAP1 POP SWAP2 SWAP1 POP JUMP JUMPDEST PUSH1 0x0 DUP2 MLOAD SWAP1 POP SWAP2 SWAP1 POP JUMP JUMPDEST PUSH1 0x0 DUP2 MLOAD SWAP1 POP SWAP2 SWAP1 POP JUMP JUMPDEST PUSH1 0x0 PUSH1 0x20 DUP3 ADD SWAP1 POP SWAP2 SWAP1 POP JUMP JUMPDEST PUSH1 0x0 PUSH1 0x20 DUP3 ADD SWAP1 POP SWAP2 SWAP1 POP JUMP JUMPDEST PUSH1 0x0 DUP3 DUP3 MSTORE PUSH1 0x20 DUP3 ADD SWAP1 POP SWAP3 SWAP2 POP POP JUMP JUMPDEST PUSH1 0x0 DUP3 DUP3 MSTORE PUSH1 0x20 DUP3 ADD SWAP1 POP SWAP3 SWAP2 POP POP JUMP JUMPDEST PUSH1 0x0 DUP3 DUP3 MSTORE PUSH1 0x20 DUP3 ADD SWAP1 POP SWAP3 SWAP2 POP POP JUMP JUMPDEST PUSH1 0x0 PUSH2 0x46DA DUP3 PUSH2 0x47AA JUMP JUMPDEST SWAP2 POP PUSH2 0x46E5 DUP4 PUSH2 0x47AA JUMP JUMPDEST SWAP3 POP DUP3 PUSH32 0xFFFFFFFFFFFFFFFFFFFFFFFFFFFFFFFFFFFFFFFFFFFFFFFFFFFFFFFFFFFFFFFF SUB DUP3 GT ISZERO PUSH2 0x471A JUMPI PUSH2 0x4719 PUSH2 0x48C1 JUMP JUMPDEST JUMPDEST DUP3 DUP3 ADD SWAP1 POP SWAP3 SWAP2 POP POP JUMP JUMPDEST PUSH1 0x0 PUSH2 0x4730 DUP3 PUSH2 0x47AA JUMP JUMPDEST SWAP2 POP PUSH2 0x473B DUP4 PUSH2 0x47AA JUMP JUMPDEST SWAP3 POP DUP3 DUP3 LT ISZERO PUSH2 0x474E JUMPI PUSH2 0x474D PUSH2 0x48C1 JUMP JUMPDEST JUMPDEST DUP3 DUP3 SUB SWAP1 POP SWAP3 SWAP2 POP POP JUMP JUMPDEST PUSH1 0x0 PUSH2 0x4764 DUP3 PUSH2 0x478A JUMP JUMPDEST SWAP1 POP SWAP2 SWAP1 POP JUMP JUMPDEST PUSH1 0x0 DUP2 ISZERO ISZERO SWAP1 POP SWAP2 SWAP1 POP JUMP JUMPDEST PUSH1 0x0 DUP2 SWAP1 POP PUSH2 0x4785 DUP3 PUSH2 0x4DAE JUMP JUMPDEST SWAP2 SWAP1 POP JUMP JUMPDEST PUSH1 0x0 PUSH20 0xFFFFFFFFFFFFFFFFFFFFFFFFFFFFFFFFFFFFFFFF DUP3 AND SWAP1 POP SWAP2 SWAP1 POP JUMP JUMPDEST PUSH1 0x0 DUP2 SWAP1 POP SWAP2 SWAP1 POP JUMP JUMPDEST PUSH1 0x0 PUSH1 0xFF DUP3 AND SWAP1 POP SWAP2 SWAP1 POP JUMP JUMPDEST PUSH1 0x0 PUSH2 0x47CC DUP3 PUSH2 0x4777 JUMP JUMPDEST SWAP1 POP SWAP2 SWAP1 POP JUMP JUMPDEST DUP3 DUP2 DUP4 CALLDATACOPY PUSH1 0x0 DUP4 DUP4 ADD MSTORE POP POP POP JUMP JUMPDEST PUSH1 0x0 JUMPDEST DUP4 DUP2 LT ISZERO PUSH2 0x4800 JUMPI DUP1 DUP3 ADD MLOAD DUP2 DUP5 ADD MSTORE PUSH1 0x20 DUP2 ADD SWAP1 POP PUSH2 0x47E5 JUMP JUMPDEST DUP4 DUP2 GT ISZERO PUSH2 0x480F JUMPI PUSH1 0x0 DUP5 DUP5 ADD MSTORE JUMPDEST POP POP POP POP JUMP JUMPDEST PUSH1 0x0 PUSH1 0x2 DUP3 DIV SWAP1 POP PUSH1 0x1 DUP3 AND DUP1 PUSH2 0x482D JUMPI PUSH1 0x7F DUP3 AND SWAP2 POP JUMPDEST PUSH1 0x20 DUP3 LT DUP2 EQ ISZERO PUSH2 0x4841 JUMPI PUSH2 0x4840 PUSH2 0x491F JUMP JUMPDEST JUMPDEST POP SWAP2 SWAP1 POP JUMP JUMPDEST PUSH2 0x4850 DUP3 PUSH2 0x49C0 JUMP JUMPDEST DUP2 ADD DUP2 DUP2 LT PUSH8 0xFFFFFFFFFFFFFFFF DUP3 GT OR ISZERO PUSH2 0x486F JUMPI PUSH2 0x486E PUSH2 0x497D JUMP JUMPDEST JUMPDEST DUP1 PUSH1 0x40 MSTORE POP POP POP JUMP JUMPDEST PUSH1 0x0 PUSH2 0x4883 DUP3 PUSH2 0x47AA JUMP JUMPDEST SWAP2 POP PUSH32 0xFFFFFFFFFFFFFFFFFFFFFFFFFFFFFFFFFFFFFFFFFFFFFFFFFFFFFFFFFFFFFFFF DUP3 EQ ISZERO PUSH2 0x48B6 JUMPI PUSH2 0x48B5 PUSH2 0x48C1 JUMP JUMPDEST JUMPDEST PUSH1 0x1 DUP3 ADD SWAP1 POP SWAP2 SWAP1 POP JUMP JUMPDEST PUSH32 0x4E487B7100000000000000000000000000000000000000000000000000000000 PUSH1 0x0 MSTORE PUSH1 0x11 PUSH1 0x4 MSTORE PUSH1 0x24 PUSH1 0x0 REVERT JUMPDEST PUSH32 0x4E487B7100000000000000000000000000000000000000000000000000000000 PUSH1 0x0 MSTORE PUSH1 0x21 PUSH1 0x4 MSTORE PUSH1 0x24 PUSH1 0x0 REVERT JUMPDEST PUSH32 0x4E487B7100000000000000000000000000000000000000000000000000000000 PUSH1 0x0 MSTORE PUSH1 0x22 PUSH1 0x4 MSTORE PUSH1 0x24 PUSH1 0x0 REVERT JUMPDEST PUSH32 0x4E487B7100000000000000000000000000000000000000000000000000000000 PUSH1 0x0 MSTORE PUSH1 0x32 PUSH1 0x4 MSTORE PUSH1 0x24 PUSH1 0x0 REVERT JUMPDEST PUSH32 0x4E487B7100000000000000000000000000000000000000000000000000000000 PUSH1 0x0 MSTORE PUSH1 0x41 PUSH1 0x4 MSTORE PUSH1 0x24 PUSH1 0x0 REVERT JUMPDEST PUSH1 0x0 DUP1 REVERT JUMPDEST PUSH1 0x0 DUP1 REVERT JUMPDEST PUSH1 0x0 DUP1 REVERT JUMPDEST PUSH1 0x0 DUP1 REVERT JUMPDEST PUSH1 0x0 PUSH1 0x1F NOT PUSH1 0x1F DUP4 ADD AND SWAP1 POP SWAP2 SWAP1 POP JUMP JUMPDEST PUSH32 0x4E6F2070726F6A6563747320617661696C61626C6520666F7220616363657074 PUSH1 0x0 DUP3 ADD MSTORE PUSH32 0x696E6720646F6E6174696F6E7300000000000000000000000000000000000000 PUSH1 0x20 DUP3 ADD MSTORE POP JUMP JUMPDEST PUSH32 0x596F757220636F6E747269627574696F6E206578636565647320726571756972 PUSH1 0x0 DUP3 ADD MSTORE PUSH32 0x656420616D6F756E742E00000000000000000000000000000000000000000000 PUSH1 0x20 DUP3 ADD MSTORE POP JUMP JUMPDEST PUSH32 0x596F7520686176656E277420636F6E747269627574656420666F722074686973 PUSH1 0x0 DUP3 ADD MSTORE PUSH32 0x2070726F6A656374000000000000000000000000000000000000000000000000 PUSH1 0x20 DUP3 ADD MSTORE POP JUMP JUMPDEST PUSH32 0x53686F756C642062652067726561746572207468616E206F7220657175616C20 PUSH1 0x0 DUP3 ADD MSTORE PUSH32 0x746F206D696E696D756D20616D6F756E74000000000000000000000000000000 PUSH1 0x20 DUP3 ADD MSTORE POP JUMP JUMPDEST PUSH32 0x43616E277420726566756E642061732065786368616E67652072657175657374 PUSH1 0x0 DUP3 ADD MSTORE PUSH32 0x2077617320616C726561647920696E69746961746564207769746820626F6172 PUSH1 0x20 DUP3 ADD MSTORE PUSH32 0x6400000000000000000000000000000000000000000000000000000000000000 PUSH1 0x40 DUP3 ADD MSTORE POP JUMP JUMPDEST PUSH32 0x43616E277420726566756E642061732065786368616E67652072657175657374 PUSH1 0x0 DUP3 ADD MSTORE PUSH32 0x20776173206E6F742072656A65637465642062792074686520626F6172640000 PUSH1 0x20 DUP3 ADD MSTORE POP JUMP JUMPDEST PUSH32 0x4E6F2070726F6A65637420657869737420756E64657220746869732063686172 PUSH1 0x0 DUP3 ADD MSTORE PUSH32 0x6974790000000000000000000000000000000000000000000000000000000000 PUSH1 0x20 DUP3 ADD MSTORE POP JUMP JUMPDEST PUSH32 0x4368617269747920646F65736E27742065786973740000000000000000000000 PUSH1 0x0 DUP3 ADD MSTORE POP JUMP JUMPDEST PUSH32 0x4E6F2070726F6A65637420657869737420756E64657220746869732070726F6A PUSH1 0x0 DUP3 ADD MSTORE PUSH32 0x6563744964000000000000000000000000000000000000000000000000000000 PUSH1 0x20 DUP3 ADD MSTORE POP JUMP JUMPDEST PUSH32 0x4E6F20737563682070726F6A65637420657869737420756E6465722074686973 PUSH1 0x0 DUP3 ADD MSTORE PUSH32 0x2063686172697479000000000000000000000000000000000000000000000000 PUSH1 0x20 DUP3 ADD MSTORE POP JUMP JUMPDEST PUSH32 0x546869732063686172697479206973206E6F742079657420617070726F766564 PUSH1 0x0 DUP3 ADD MSTORE POP JUMP JUMPDEST PUSH32 0x596F7520646F6E74277420686176652073756666696369656E742066756E6473 PUSH1 0x0 DUP3 ADD MSTORE PUSH32 0x20746F20646F6E61746500000000000000000000000000000000000000000000 PUSH1 0x20 DUP3 ADD MSTORE POP JUMP JUMPDEST PUSH32 0x4E6F206D6F726520646F6E6174696F6E7320616363657074656420666F722074 PUSH1 0x0 DUP3 ADD MSTORE PUSH32 0x6869732070726F6A6563742E0000000000000000000000000000000000000000 PUSH1 0x20 DUP3 ADD MSTORE POP JUMP JUMPDEST PUSH1 0xA DUP2 LT PUSH2 0x4DBF JUMPI PUSH2 0x4DBE PUSH2 0x48F0 JUMP JUMPDEST JUMPDEST POP JUMP JUMPDEST PUSH2 0x4DCB DUP2 PUSH2 0x4759 JUMP JUMPDEST DUP2 EQ PUSH2 0x4DD6 JUMPI PUSH1 0x0 DUP1 REVERT JUMPDEST POP JUMP JUMPDEST PUSH2 0x4DE2 DUP2 PUSH2 0x476B JUMP JUMPDEST DUP2 EQ PUSH2 0x4DED JUMPI PUSH1 0x0 DUP1 REVERT JUMPDEST POP JUMP JUMPDEST PUSH1 0xA DUP2 LT PUSH2 0x4DFD JUMPI PUSH1 0x0 DUP1 REVERT JUMPDEST POP JUMP JUMPDEST PUSH2 0x4E09 DUP2 PUSH2 0x47AA JUMP JUMPDEST DUP2 EQ PUSH2 0x4E14 JUMPI PUSH1 0x0 DUP1 REVERT JUMPDEST POP JUMP JUMPDEST PUSH2 0x4E20 DUP2 PUSH2 0x47B4 JUMP JUMPDEST DUP2 EQ PUSH2 0x4E2B JUMPI PUSH1 0x0 DUP1 REVERT JUMPDEST POP JUMP INVALID SLOAD PUSH9 0x6973206F7065726174 PUSH10 0x6F6E2063616E20626520 PUSH17 0x6572666F726D6564206F6E6C7920627920 TIMESTAMP PUSH16 0x6172642061646D696E596F7520617265 KECCAK256 PUSH15 0x6F7420617574686F72697A65642074 PUSH16 0x20757064617465207769746820746869 PUSH20 0x2073746174757354686973206F7065726174696F PUSH15 0x2063616E20626520706572666F726D PUSH6 0x64206F6E6C79 KECCAK256 PUSH3 0x792043 PUSH9 0x6172697479A2646970 PUSH7 0x7358221220BA6F SELFBALANCE 0xCD INVALID 0xD4 0x2D 0xBF STOP PUSH14 0x8FCEA6112F47F239D00F473F79F5 CALLDATASIZE PUSH19 0xDC07D62E2EBB64736F6C634300080700330000 "
				},
				"gasEstimates": {
					"creation": {
						"codeDepositCost": "4043000",
						"executionCost": "infinite",
						"totalCost": "infinite"
					},
					"external": {
						"boardAdmin()": "2603",
						"buyEther(address)": "infinite",
						"createCharity(string,address)": "infinite",
						"createProject(uint256,uint256,address,string)": "infinite",
						"donate(address,address)": "infinite",
						"getDonorBalance(address,address,address)": "infinite",
						"getProjectFundDetails(address,address)": "infinite",
						"getProjectListByCharity(address)": "infinite",
						"getProjectOwnerBalance(address,address)": "infinite",
						"getProjectStatus(address,address)": "infinite",
						"getRefund(address,address)": "infinite",
						"projectStatus()": "2606",
						"projectStatuses(uint8)": "infinite",
						"sellEther()": "infinite",
						"updateCharityStatus(address,bool,string)": "infinite",
						"updateProjectStatusByAdmin(address,address,uint8)": "infinite",
						"updateProjectStatusByCharity(address,uint8)": "infinite"
					},
					"internal": {
						"refundToAllDonors(address,address)": "infinite",
						"transferToReceiver(address,address)": "infinite"
					}
				},
				"methodIdentifiers": {
					"boardAdmin()": "b61a7f76",
					"buyEther(address)": "259e6c8b",
					"createCharity(string,address)": "864ee384",
					"createProject(uint256,uint256,address,string)": "5c3be951",
					"donate(address,address)": "21bea7cc",
					"getDonorBalance(address,address,address)": "ca76973d",
					"getProjectFundDetails(address,address)": "bfda08a3",
					"getProjectListByCharity(address)": "c4529ab9",
					"getProjectOwnerBalance(address,address)": "9238cf4e",
					"getProjectStatus(address,address)": "42ef4bcc",
					"getRefund(address,address)": "9df9b0e6",
					"projectStatus()": "1ab33308",
					"projectStatuses(uint8)": "ef6add32",
					"sellEther()": "ced4f4b8",
					"updateCharityStatus(address,bool,string)": "ab6b8564",
					"updateProjectStatusByAdmin(address,address,uint8)": "44e54812",
					"updateProjectStatusByCharity(address,uint8)": "0ee3b93d"
				}
			},
			"storageLayout": {
				"storage": [
					{
						"astId": 53,
						"contract": "contracts/CrowdFund.sol:CrowdFund",
						"label": "projects",
						"offset": 0,
						"slot": "0",
						"type": "t_mapping(t_address,t_struct(Project)30_storage)"
					},
					{
						"astId": 58,
						"contract": "contracts/CrowdFund.sol:CrowdFund",
						"label": "charities",
						"offset": 0,
						"slot": "1",
						"type": "t_mapping(t_address,t_struct(Charity)39_storage)"
					},
					{
						"astId": 60,
						"contract": "contracts/CrowdFund.sol:CrowdFund",
						"label": "boardAdmin",
						"offset": 0,
						"slot": "2",
						"type": "t_address"
					},
					{
						"astId": 66,
						"contract": "contracts/CrowdFund.sol:CrowdFund",
						"label": "charityProjects",
						"offset": 0,
						"slot": "3",
						"type": "t_mapping(t_address,t_array(t_struct(Project)30_storage)dyn_storage)"
					},
					{
						"astId": 72,
						"contract": "contracts/CrowdFund.sol:CrowdFund",
						"label": "projectDonors",
						"offset": 0,
						"slot": "4",
						"type": "t_mapping(t_address,t_array(t_struct(Donor)48_storage)dyn_storage)"
					},
					{
						"astId": 159,
						"contract": "contracts/CrowdFund.sol:CrowdFund",
						"label": "projectStatus",
						"offset": 0,
						"slot": "5",
						"type": "t_enum(ProjectStatus)12"
					},
					{
						"astId": 164,
						"contract": "contracts/CrowdFund.sol:CrowdFund",
						"label": "projectStatuses",
						"offset": 0,
						"slot": "6",
						"type": "t_mapping(t_enum(ProjectStatus)12,t_string_storage)"
					}
				],
				"types": {
					"t_address": {
						"encoding": "inplace",
						"label": "address",
						"numberOfBytes": "20"
					},
					"t_array(t_struct(Donor)48_storage)dyn_storage": {
						"base": "t_struct(Donor)48_storage",
						"encoding": "dynamic_array",
						"label": "struct CrowdFund.Donor[]",
						"numberOfBytes": "32"
					},
					"t_array(t_struct(Project)30_storage)dyn_storage": {
						"base": "t_struct(Project)30_storage",
						"encoding": "dynamic_array",
						"label": "struct CrowdFund.Project[]",
						"numberOfBytes": "32"
					},
					"t_bool": {
						"encoding": "inplace",
						"label": "bool",
						"numberOfBytes": "1"
					},
					"t_enum(ProjectStatus)12": {
						"encoding": "inplace",
						"label": "enum CrowdFund.ProjectStatus",
						"numberOfBytes": "1"
					},
					"t_mapping(t_address,t_array(t_struct(Donor)48_storage)dyn_storage)": {
						"encoding": "mapping",
						"key": "t_address",
						"label": "mapping(address => struct CrowdFund.Donor[])",
						"numberOfBytes": "32",
						"value": "t_array(t_struct(Donor)48_storage)dyn_storage"
					},
					"t_mapping(t_address,t_array(t_struct(Project)30_storage)dyn_storage)": {
						"encoding": "mapping",
						"key": "t_address",
						"label": "mapping(address => struct CrowdFund.Project[])",
						"numberOfBytes": "32",
						"value": "t_array(t_struct(Project)30_storage)dyn_storage"
					},
					"t_mapping(t_address,t_struct(Charity)39_storage)": {
						"encoding": "mapping",
						"key": "t_address",
						"label": "mapping(address => struct CrowdFund.Charity)",
						"numberOfBytes": "32",
						"value": "t_struct(Charity)39_storage"
					},
					"t_mapping(t_address,t_struct(Project)30_storage)": {
						"encoding": "mapping",
						"key": "t_address",
						"label": "mapping(address => struct CrowdFund.Project)",
						"numberOfBytes": "32",
						"value": "t_struct(Project)30_storage"
					},
					"t_mapping(t_address,t_uint256)": {
						"encoding": "mapping",
						"key": "t_address",
						"label": "mapping(address => uint256)",
						"numberOfBytes": "32",
						"value": "t_uint256"
					},
					"t_mapping(t_enum(ProjectStatus)12,t_string_storage)": {
						"encoding": "mapping",
						"key": "t_enum(ProjectStatus)12",
						"label": "mapping(enum CrowdFund.ProjectStatus => string)",
						"numberOfBytes": "32",
						"value": "t_string_storage"
					},
					"t_string_storage": {
						"encoding": "bytes",
						"label": "string",
						"numberOfBytes": "32"
					},
					"t_struct(Charity)39_storage": {
						"encoding": "inplace",
						"label": "struct CrowdFund.Charity",
						"members": [
							{
								"astId": 32,
								"contract": "contracts/CrowdFund.sol:CrowdFund",
								"label": "approved",
								"offset": 0,
								"slot": "0",
								"type": "t_bool"
							},
							{
								"astId": 34,
								"contract": "contracts/CrowdFund.sol:CrowdFund",
								"label": "reason",
								"offset": 0,
								"slot": "1",
								"type": "t_string_storage"
							},
							{
								"astId": 36,
								"contract": "contracts/CrowdFund.sol:CrowdFund",
								"label": "licenseDocsLink",
								"offset": 0,
								"slot": "2",
								"type": "t_string_storage"
							},
							{
								"astId": 38,
								"contract": "contracts/CrowdFund.sol:CrowdFund",
								"label": "owner",
								"offset": 0,
								"slot": "3",
								"type": "t_address"
							}
						],
						"numberOfBytes": "128"
					},
					"t_struct(Donor)48_storage": {
						"encoding": "inplace",
						"label": "struct CrowdFund.Donor",
						"members": [
							{
								"astId": 41,
								"contract": "contracts/CrowdFund.sol:CrowdFund",
								"label": "donorId",
								"offset": 0,
								"slot": "0",
								"type": "t_uint256"
							},
							{
								"astId": 43,
								"contract": "contracts/CrowdFund.sol:CrowdFund",
								"label": "owner",
								"offset": 0,
								"slot": "1",
								"type": "t_address"
							},
							{
								"astId": 47,
								"contract": "contracts/CrowdFund.sol:CrowdFund",
								"label": "projectwiseContributions",
								"offset": 0,
								"slot": "2",
								"type": "t_mapping(t_address,t_uint256)"
							}
						],
						"numberOfBytes": "96"
					},
					"t_struct(Project)30_storage": {
						"encoding": "inplace",
						"label": "struct CrowdFund.Project",
						"members": [
							{
								"astId": 14,
								"contract": "contracts/CrowdFund.sol:CrowdFund",
								"label": "minimumAmount",
								"offset": 0,
								"slot": "0",
								"type": "t_uint256"
							},
							{
								"astId": 16,
								"contract": "contracts/CrowdFund.sol:CrowdFund",
								"label": "goal",
								"offset": 0,
								"slot": "1",
								"type": "t_uint256"
							},
							{
								"astId": 18,
								"contract": "contracts/CrowdFund.sol:CrowdFund",
								"label": "raisedAmount",
								"offset": 0,
								"slot": "2",
								"type": "t_uint256"
							},
							{
								"astId": 20,
								"contract": "contracts/CrowdFund.sol:CrowdFund",
								"label": "owner",
								"offset": 0,
								"slot": "3",
								"type": "t_address"
							},
							{
								"astId": 22,
								"contract": "contracts/CrowdFund.sol:CrowdFund",
								"label": "charityAddress",
								"offset": 0,
								"slot": "4",
								"type": "t_address"
							},
							{
								"astId": 24,
								"contract": "contracts/CrowdFund.sol:CrowdFund",
								"label": "acceptDonation",
								"offset": 20,
								"slot": "4",
								"type": "t_bool"
							},
							{
								"astId": 26,
								"contract": "contracts/CrowdFund.sol:CrowdFund",
								"label": "documentLink",
								"offset": 0,
								"slot": "5",
								"type": "t_string_storage"
							},
							{
								"astId": 29,
								"contract": "contracts/CrowdFund.sol:CrowdFund",
								"label": "projectStatus",
								"offset": 0,
								"slot": "6",
								"type": "t_enum(ProjectStatus)12"
							}
						],
						"numberOfBytes": "224"
					},
					"t_uint256": {
						"encoding": "inplace",
						"label": "uint256",
						"numberOfBytes": "32"
					}
				}
			},
			"userdoc": {
				"kind": "user",
				"methods": {},
				"version": 1
			}
		}
	}
}