{
	"data": {
		"bytecode": {
			"linkReferences": {},
			"object": "608060405234801561001057600080fd5b5033600360006101000a81548173ffffffffffffffffffffffffffffffffffffffff021916908373ffffffffffffffffffffffffffffffffffffffff160217905550611ae8806100616000396000f3fe608060405234801561001057600080fd5b50600436106100b45760003560e01c80638afdbbff116100715780638afdbbff146101a757806395dcc366146101c357806397ed410c146101df578063b61a7f76146101fb578063daf3823214610219578063fb709d2e14610235576100b4565b8063107046bd146100b9578063141020cc146100ef5780631ab333081461010b5780631ed056d8146101295780633a8565f01461015b5780634abfa16314610177575b600080fd5b6100d360048036038101906100ce91906110a8565b610269565b6040516100e69796959493929190611586565b60405180910390f35b61010960048036038101906101049190611131565b610370565b005b61011361055e565b6040516101209190611418565b60405180910390f35b610143600480360381019061013e91906111a0565b610571565b6040516101529392919061154f565b60405180910390f35b61017560048036038101906101709190611277565b6107b8565b005b610191600480360381019061018c91906110a8565b6108ad565b60405161019e91906114d3565b60405180910390f35b6101c160048036038101906101bc91906110a8565b6108d7565b005b6101dd60048036038101906101d891906111e0565b610922565b005b6101f960048036038101906101f491906111a0565b610bb8565b005b610203610cbc565b60405161021091906113fd565b60405180910390f35b610233600480360381019061022e91906110d5565b610ce2565b005b61024f600480360381019061024a91906110a8565b610dd3565b6040516102609594939291906114ee565b60405180910390f35b6000818154811061027957600080fd5b90600052602060002090600702016000915090508060000154908060010154908060020154908060030154908060040160009054906101000a900473ffffffffffffffffffffffffffffffffffffffff16908060050180546102da9061175e565b80601f01602080910402602001604051908101604052809291908181526020018280546103069061175e565b80156103535780601f1061032857610100808354040283529160200191610353565b820191906000526020600020905b81548152906001019060200180831161033657829003601f168201915b5050505050908060060160009054906101000a900460ff16905087565b600360009054906101000a900473ffffffffffffffffffffffffffffffffffffffff1673ffffffffffffffffffffffffffffffffffffffff163373ffffffffffffffffffffffffffffffffffffffff1614610400576040517f08c379a00000000000000000000000000000000000000000000000000000000081526004016103f790611453565b60405180910390fd5b60006040518060a001604052808581526020016001151581526020016040518060200160405280600081525081526020018481526020018373ffffffffffffffffffffffffffffffffffffffff16815250905060018190806001815401808255809150506001900390600052602060002090600502016000909190919091506000820151816000015560208201518160010160006101000a81548160ff02191690831515021790555060408201518160020190805190602001906104c5929190610f56565b5060608201518160030190805190602001906104e2929190610f56565b5060808201518160040160006101000a81548173ffffffffffffffffffffffffffffffffffffffff021916908373ffffffffffffffffffffffffffffffffffffffff160217905550505060016005600086815260200190815260200160002060006101000a81548160ff02191690831515021790555050505050565b600660009054906101000a900460ff1681565b60008060008060046000878152602001908152602001600020905060008180549050116105d3576040517f08c379a00000000000000000000000000000000000000000000000000000000081526004016105ca90611433565b60405180910390fd5b60005b818054905081101561077557858282815481106105f6576105f5611897565b5b90600052602060002090600702016000015414156107625781818154811061062157610620611897565b5b90600052602060002090600702016003015482828154811061064657610645611897565b5b90600052602060002090600702016002015414156106b75781818154811061067157610670611897565b5b90600052602060002090600702016002015482828154811061069657610695611897565b5b906000526020600020906007020160030154600094509450945050506107b1565b8181815481106106ca576106c9611897565b5b9060005260206000209060070201600201548282815481106106ef576106ee611897565b5b90600052602060002090600702016003015483838154811061071457610713611897565b5b90600052602060002090600702016003015484848154811061073957610738611897565b5b906000526020600020906007020160020154610755919061166e565b94509450945050506107b1565b808061076d906117c1565b9150506105d6565b506040517f08c379a00000000000000000000000000000000000000000000000000000000081526004016107a890611493565b60405180910390fd5b9250925092565b60006004600084815260200190815260200160002090506000818054905011610816576040517f08c379a000000000000000000000000000000000000000000000000000000000815260040161080d906114b3565b60405180910390fd5b60005b81805490508110156108a6578482828154811061083957610838611897565b5b9060005260206000209060070201600001541415610893578282828154811061086557610864611897565b5b906000526020600020906007020160060160006101000a81548160ff021916908360ff1602179055506108a6565b808061089e906117c1565b915050610819565b5050505050565b600281815481106108bd57600080fd5b906000526020600020016000915090508060000154905081565b60006040518060200160405280838152509050600281908060018154018082558091505060019003906000526020600020016000909190919091506000820151816000015550505050565b6005600086815260200190815260200160002060009054906101000a900460ff16610982576040517f08c379a000000000000000000000000000000000000000000000000000000000815260040161097990611473565b60405180910390fd5b60006040518060e00160405280868152602001620f42408152602001858152602001600081526020018473ffffffffffffffffffffffffffffffffffffffff168152602001838152602001600160058111156109e1576109e0611839565b5b60ff16815250905060008190806001815401808255809150506001900390600052602060002090600702016000909190919091506000820151816000015560208201518160010155604082015181600201556060820151816003015560808201518160040160006101000a81548173ffffffffffffffffffffffffffffffffffffffff021916908373ffffffffffffffffffffffffffffffffffffffff16021790555060a0820151816005019080519060200190610aa0929190610f56565b5060c08201518160060160006101000a81548160ff021916908360ff1602179055505050600460008781526020019081526020016000208190806001815401808255809150506001900390600052602060002090600702016000909190919091506000820151816000015560208201518160010155604082015181600201556060820151816003015560808201518160040160006101000a81548173ffffffffffffffffffffffffffffffffffffffff021916908373ffffffffffffffffffffffffffffffffffffffff16021790555060a0820151816005019080519060200190610b8c929190610f56565b5060c08201518160060160006101000a81548160ff021916908360ff1602179055505050505050505050565b600360009054906101000a900473ffffffffffffffffffffffffffffffffffffffff1673ffffffffffffffffffffffffffffffffffffffff163373ffffffffffffffffffffffffffffffffffffffff1614610c48576040517f08c379a0000000000000000000000000000000000000000000000000000000008152600401610c3f90611453565b60405180910390fd5b600060018381548110610c5e57610c5d611897565b5b9060005260206000209060050201905060018160010160006101000a81548160ff02191690831515021790555060016005600084815260200190815260200160002060006101000a81548160ff021916908315150217905550505050565b600360009054906101000a900473ffffffffffffffffffffffffffffffffffffffff1681565b600360009054906101000a900473ffffffffffffffffffffffffffffffffffffffff1673ffffffffffffffffffffffffffffffffffffffff163373ffffffffffffffffffffffffffffffffffffffff1614610d72576040517f08c379a0000000000000000000000000000000000000000000000000000000008152600401610d6990611453565b60405180910390fd5b600060018381548110610d8857610d87611897565b5b9060005260206000209060050201905060008160010160006101000a81548160ff02191690831515021790555081816002019080519060200190610dcd929190610f56565b50505050565b60018181548110610de357600080fd5b90600052602060002090600502016000915090508060000154908060010160009054906101000a900460ff1690806002018054610e1f9061175e565b80601f0160208091040260200160405190810160405280929190818152602001828054610e4b9061175e565b8015610e985780601f10610e6d57610100808354040283529160200191610e98565b820191906000526020600020905b815481529060010190602001808311610e7b57829003601f168201915b505050505090806003018054610ead9061175e565b80601f0160208091040260200160405190810160405280929190818152602001828054610ed99061175e565b8015610f265780601f10610efb57610100808354040283529160200191610f26565b820191906000526020600020905b815481529060010190602001808311610f0957829003601f168201915b5050505050908060040160009054906101000a900473ffffffffffffffffffffffffffffffffffffffff16905085565b828054610f629061175e565b90600052602060002090601f016020900481019282610f845760008555610fcb565b82601f10610f9d57805160ff1916838001178555610fcb565b82800160010185558215610fcb579182015b82811115610fca578251825591602001919060010190610faf565b5b509050610fd89190610fdc565b5090565b5b80821115610ff5576000816000905550600101610fdd565b5090565b600061100c61100784611621565b6115fc565b905082815260208101848484011115611028576110276118fa565b5b61103384828561171c565b509392505050565b60008135905061104a81611a6d565b92915050565b600082601f830112611065576110646118f5565b5b8135611075848260208601610ff9565b91505092915050565b60008135905061108d81611a84565b92915050565b6000813590506110a281611a9b565b92915050565b6000602082840312156110be576110bd611904565b5b60006110cc8482850161107e565b91505092915050565b600080604083850312156110ec576110eb611904565b5b60006110fa8582860161107e565b925050602083013567ffffffffffffffff81111561111b5761111a6118ff565b5b61112785828601611050565b9150509250929050565b60008060006060848603121561114a57611149611904565b5b60006111588682870161107e565b935050602084013567ffffffffffffffff811115611179576111786118ff565b5b61118586828701611050565b92505060406111968682870161103b565b9150509250925092565b600080604083850312156111b7576111b6611904565b5b60006111c58582860161107e565b92505060206111d68582860161107e565b9150509250929050565b600080600080600060a086880312156111fc576111fb611904565b5b600061120a8882890161107e565b955050602061121b8882890161107e565b945050604061122c8882890161107e565b935050606061123d8882890161103b565b925050608086013567ffffffffffffffff81111561125e5761125d6118ff565b5b61126a88828901611050565b9150509295509295909350565b6000806000606084860312156112905761128f611904565b5b600061129e8682870161107e565b93505060206112af8682870161107e565b92505060406112c086828701611093565b9150509250925092565b6112d3816116a2565b82525050565b6112e2816116b4565b82525050565b6112f18161170a565b82525050565b600061130282611652565b61130c818561165d565b935061131c81856020860161172b565b61132581611909565b840191505092915050565b600061133d60118361165d565b91506113488261191a565b602082019050919050565b600061136060338361165d565b915061136b82611943565b604082019050919050565b6000611383601b8361165d565b915061138e82611992565b602082019050919050565b60006113a660288361165d565b91506113b1826119bb565b604082019050919050565b60006113c9602f8361165d565b91506113d482611a0a565b604082019050919050565b6113e8816116f3565b82525050565b6113f7816116fd565b82525050565b600060208201905061141260008301846112ca565b92915050565b600060208201905061142d60008301846112e8565b92915050565b6000602082019050818103600083015261144c81611330565b9050919050565b6000602082019050818103600083015261146c81611353565b9050919050565b6000602082019050818103600083015261148c81611376565b9050919050565b600060208201905081810360008301526114ac81611399565b9050919050565b600060208201905081810360008301526114cc816113bc565b9050919050565b60006020820190506114e860008301846113df565b92915050565b600060a08201905061150360008301886113df565b61151060208301876112d9565b818103604083015261152281866112f7565b9050818103606083015261153681856112f7565b905061154560808301846112ca565b9695505050505050565b600060608201905061156460008301866113df565b61157160208301856113df565b61157e60408301846113df565b949350505050565b600060e08201905061159b600083018a6113df565b6115a860208301896113df565b6115b560408301886113df565b6115c260608301876113df565b6115cf60808301866112ca565b81810360a08301526115e181856112f7565b90506115f060c08301846113ee565b98975050505050505050565b6000611606611617565b90506116128282611790565b919050565b6000604051905090565b600067ffffffffffffffff82111561163c5761163b6118c6565b5b61164582611909565b9050602081019050919050565b600081519050919050565b600082825260208201905092915050565b6000611679826116f3565b9150611684836116f3565b9250828210156116975761169661180a565b5b828203905092915050565b60006116ad826116d3565b9050919050565b60008115159050919050565b60008190506116ce82611a59565b919050565b600073ffffffffffffffffffffffffffffffffffffffff82169050919050565b6000819050919050565b600060ff82169050919050565b6000611715826116c0565b9050919050565b82818337600083830152505050565b60005b8381101561174957808201518184015260208101905061172e565b83811115611758576000848401525b50505050565b6000600282049050600182168061177657607f821691505b6020821081141561178a57611789611868565b5b50919050565b61179982611909565b810181811067ffffffffffffffff821117156117b8576117b76118c6565b5b80604052505050565b60006117cc826116f3565b91507fffffffffffffffffffffffffffffffffffffffffffffffffffffffffffffffff8214156117ff576117fe61180a565b5b600182019050919050565b7f4e487b7100000000000000000000000000000000000000000000000000000000600052601160045260246000fd5b7f4e487b7100000000000000000000000000000000000000000000000000000000600052602160045260246000fd5b7f4e487b7100000000000000000000000000000000000000000000000000000000600052602260045260246000fd5b7f4e487b7100000000000000000000000000000000000000000000000000000000600052603260045260246000fd5b7f4e487b7100000000000000000000000000000000000000000000000000000000600052604160045260246000fd5b600080fd5b600080fd5b600080fd5b600080fd5b6000601f19601f8301169050919050565b7f43686172697479206e6f7420666f756e64000000000000000000000000000000600082015250565b7f54686973206f7065726174696f6e2063616e20626520706572666f726d65642060008201527f6f6e6c7920627920426f6172642061646d696e00000000000000000000000000602082015250565b7f43686172697479206973206e6f742079657420617070726f7665640000000000600082015250565b7f4e6f20737563682070726f6a65637420657869737420756e646572207468697360008201527f2063686172697479000000000000000000000000000000000000000000000000602082015250565b7f546869732070726f6a65637420776173206e6f74206372656174656420756e6460008201527f657220796f757220636861726974790000000000000000000000000000000000602082015250565b60068110611a6a57611a69611839565b5b50565b611a76816116a2565b8114611a8157600080fd5b50565b611a8d816116f3565b8114611a9857600080fd5b50565b611aa4816116fd565b8114611aaf57600080fd5b5056fea2646970667358221220f3584122edf7f4e5308962506174fd3fb4a05676e875282e83bcbc4c5451fb4a64736f6c63430008070033",
			"opcodes": "PUSH1 0x80 PUSH1 0x40 MSTORE CALLVALUE DUP1 ISZERO PUSH2 0x10 JUMPI PUSH1 0x0 DUP1 REVERT JUMPDEST POP CALLER PUSH1 0x3 PUSH1 0x0 PUSH2 0x100 EXP DUP2 SLOAD DUP2 PUSH20 0xFFFFFFFFFFFFFFFFFFFFFFFFFFFFFFFFFFFFFFFF MUL NOT AND SWAP1 DUP4 PUSH20 0xFFFFFFFFFFFFFFFFFFFFFFFFFFFFFFFFFFFFFFFF AND MUL OR SWAP1 SSTORE POP PUSH2 0x1AE8 DUP1 PUSH2 0x61 PUSH1 0x0 CODECOPY PUSH1 0x0 RETURN INVALID PUSH1 0x80 PUSH1 0x40 MSTORE CALLVALUE DUP1 ISZERO PUSH2 0x10 JUMPI PUSH1 0x0 DUP1 REVERT JUMPDEST POP PUSH1 0x4 CALLDATASIZE LT PUSH2 0xB4 JUMPI PUSH1 0x0 CALLDATALOAD PUSH1 0xE0 SHR DUP1 PUSH4 0x8AFDBBFF GT PUSH2 0x71 JUMPI DUP1 PUSH4 0x8AFDBBFF EQ PUSH2 0x1A7 JUMPI DUP1 PUSH4 0x95DCC366 EQ PUSH2 0x1C3 JUMPI DUP1 PUSH4 0x97ED410C EQ PUSH2 0x1DF JUMPI DUP1 PUSH4 0xB61A7F76 EQ PUSH2 0x1FB JUMPI DUP1 PUSH4 0xDAF38232 EQ PUSH2 0x219 JUMPI DUP1 PUSH4 0xFB709D2E EQ PUSH2 0x235 JUMPI PUSH2 0xB4 JUMP JUMPDEST DUP1 PUSH4 0x107046BD EQ PUSH2 0xB9 JUMPI DUP1 PUSH4 0x141020CC EQ PUSH2 0xEF JUMPI DUP1 PUSH4 0x1AB33308 EQ PUSH2 0x10B JUMPI DUP1 PUSH4 0x1ED056D8 EQ PUSH2 0x129 JUMPI DUP1 PUSH4 0x3A8565F0 EQ PUSH2 0x15B JUMPI DUP1 PUSH4 0x4ABFA163 EQ PUSH2 0x177 JUMPI JUMPDEST PUSH1 0x0 DUP1 REVERT JUMPDEST PUSH2 0xD3 PUSH1 0x4 DUP1 CALLDATASIZE SUB DUP2 ADD SWAP1 PUSH2 0xCE SWAP2 SWAP1 PUSH2 0x10A8 JUMP JUMPDEST PUSH2 0x269 JUMP JUMPDEST PUSH1 0x40 MLOAD PUSH2 0xE6 SWAP8 SWAP7 SWAP6 SWAP5 SWAP4 SWAP3 SWAP2 SWAP1 PUSH2 0x1586 JUMP JUMPDEST PUSH1 0x40 MLOAD DUP1 SWAP2 SUB SWAP1 RETURN JUMPDEST PUSH2 0x109 PUSH1 0x4 DUP1 CALLDATASIZE SUB DUP2 ADD SWAP1 PUSH2 0x104 SWAP2 SWAP1 PUSH2 0x1131 JUMP JUMPDEST PUSH2 0x370 JUMP JUMPDEST STOP JUMPDEST PUSH2 0x113 PUSH2 0x55E JUMP JUMPDEST PUSH1 0x40 MLOAD PUSH2 0x120 SWAP2 SWAP1 PUSH2 0x1418 JUMP JUMPDEST PUSH1 0x40 MLOAD DUP1 SWAP2 SUB SWAP1 RETURN JUMPDEST PUSH2 0x143 PUSH1 0x4 DUP1 CALLDATASIZE SUB DUP2 ADD SWAP1 PUSH2 0x13E SWAP2 SWAP1 PUSH2 0x11A0 JUMP JUMPDEST PUSH2 0x571 JUMP JUMPDEST PUSH1 0x40 MLOAD PUSH2 0x152 SWAP4 SWAP3 SWAP2 SWAP1 PUSH2 0x154F JUMP JUMPDEST PUSH1 0x40 MLOAD DUP1 SWAP2 SUB SWAP1 RETURN JUMPDEST PUSH2 0x175 PUSH1 0x4 DUP1 CALLDATASIZE SUB DUP2 ADD SWAP1 PUSH2 0x170 SWAP2 SWAP1 PUSH2 0x1277 JUMP JUMPDEST PUSH2 0x7B8 JUMP JUMPDEST STOP JUMPDEST PUSH2 0x191 PUSH1 0x4 DUP1 CALLDATASIZE SUB DUP2 ADD SWAP1 PUSH2 0x18C SWAP2 SWAP1 PUSH2 0x10A8 JUMP JUMPDEST PUSH2 0x8AD JUMP JUMPDEST PUSH1 0x40 MLOAD PUSH2 0x19E SWAP2 SWAP1 PUSH2 0x14D3 JUMP JUMPDEST PUSH1 0x40 MLOAD DUP1 SWAP2 SUB SWAP1 RETURN JUMPDEST PUSH2 0x1C1 PUSH1 0x4 DUP1 CALLDATASIZE SUB DUP2 ADD SWAP1 PUSH2 0x1BC SWAP2 SWAP1 PUSH2 0x10A8 JUMP JUMPDEST PUSH2 0x8D7 JUMP JUMPDEST STOP JUMPDEST PUSH2 0x1DD PUSH1 0x4 DUP1 CALLDATASIZE SUB DUP2 ADD SWAP1 PUSH2 0x1D8 SWAP2 SWAP1 PUSH2 0x11E0 JUMP JUMPDEST PUSH2 0x922 JUMP JUMPDEST STOP JUMPDEST PUSH2 0x1F9 PUSH1 0x4 DUP1 CALLDATASIZE SUB DUP2 ADD SWAP1 PUSH2 0x1F4 SWAP2 SWAP1 PUSH2 0x11A0 JUMP JUMPDEST PUSH2 0xBB8 JUMP JUMPDEST STOP JUMPDEST PUSH2 0x203 PUSH2 0xCBC JUMP JUMPDEST PUSH1 0x40 MLOAD PUSH2 0x210 SWAP2 SWAP1 PUSH2 0x13FD JUMP JUMPDEST PUSH1 0x40 MLOAD DUP1 SWAP2 SUB SWAP1 RETURN JUMPDEST PUSH2 0x233 PUSH1 0x4 DUP1 CALLDATASIZE SUB DUP2 ADD SWAP1 PUSH2 0x22E SWAP2 SWAP1 PUSH2 0x10D5 JUMP JUMPDEST PUSH2 0xCE2 JUMP JUMPDEST STOP JUMPDEST PUSH2 0x24F PUSH1 0x4 DUP1 CALLDATASIZE SUB DUP2 ADD SWAP1 PUSH2 0x24A SWAP2 SWAP1 PUSH2 0x10A8 JUMP JUMPDEST PUSH2 0xDD3 JUMP JUMPDEST PUSH1 0x40 MLOAD PUSH2 0x260 SWAP6 SWAP5 SWAP4 SWAP3 SWAP2 SWAP1 PUSH2 0x14EE JUMP JUMPDEST PUSH1 0x40 MLOAD DUP1 SWAP2 SUB SWAP1 RETURN JUMPDEST PUSH1 0x0 DUP2 DUP2 SLOAD DUP2 LT PUSH2 0x279 JUMPI PUSH1 0x0 DUP1 REVERT JUMPDEST SWAP1 PUSH1 0x0 MSTORE PUSH1 0x20 PUSH1 0x0 KECCAK256 SWAP1 PUSH1 0x7 MUL ADD PUSH1 0x0 SWAP2 POP SWAP1 POP DUP1 PUSH1 0x0 ADD SLOAD SWAP1 DUP1 PUSH1 0x1 ADD SLOAD SWAP1 DUP1 PUSH1 0x2 ADD SLOAD SWAP1 DUP1 PUSH1 0x3 ADD SLOAD SWAP1 DUP1 PUSH1 0x4 ADD PUSH1 0x0 SWAP1 SLOAD SWAP1 PUSH2 0x100 EXP SWAP1 DIV PUSH20 0xFFFFFFFFFFFFFFFFFFFFFFFFFFFFFFFFFFFFFFFF AND SWAP1 DUP1 PUSH1 0x5 ADD DUP1 SLOAD PUSH2 0x2DA SWAP1 PUSH2 0x175E JUMP JUMPDEST DUP1 PUSH1 0x1F ADD PUSH1 0x20 DUP1 SWAP2 DIV MUL PUSH1 0x20 ADD PUSH1 0x40 MLOAD SWAP1 DUP2 ADD PUSH1 0x40 MSTORE DUP1 SWAP3 SWAP2 SWAP1 DUP2 DUP2 MSTORE PUSH1 0x20 ADD DUP3 DUP1 SLOAD PUSH2 0x306 SWAP1 PUSH2 0x175E JUMP JUMPDEST DUP1 ISZERO PUSH2 0x353 JUMPI DUP1 PUSH1 0x1F LT PUSH2 0x328 JUMPI PUSH2 0x100 DUP1 DUP4 SLOAD DIV MUL DUP4 MSTORE SWAP2 PUSH1 0x20 ADD SWAP2 PUSH2 0x353 JUMP JUMPDEST DUP3 ADD SWAP2 SWAP1 PUSH1 0x0 MSTORE PUSH1 0x20 PUSH1 0x0 KECCAK256 SWAP1 JUMPDEST DUP2 SLOAD DUP2 MSTORE SWAP1 PUSH1 0x1 ADD SWAP1 PUSH1 0x20 ADD DUP1 DUP4 GT PUSH2 0x336 JUMPI DUP3 SWAP1 SUB PUSH1 0x1F AND DUP3 ADD SWAP2 JUMPDEST POP POP POP POP POP SWAP1 DUP1 PUSH1 0x6 ADD PUSH1 0x0 SWAP1 SLOAD SWAP1 PUSH2 0x100 EXP SWAP1 DIV PUSH1 0xFF AND SWAP1 POP DUP8 JUMP JUMPDEST PUSH1 0x3 PUSH1 0x0 SWAP1 SLOAD SWAP1 PUSH2 0x100 EXP SWAP1 DIV PUSH20 0xFFFFFFFFFFFFFFFFFFFFFFFFFFFFFFFFFFFFFFFF AND PUSH20 0xFFFFFFFFFFFFFFFFFFFFFFFFFFFFFFFFFFFFFFFF AND CALLER PUSH20 0xFFFFFFFFFFFFFFFFFFFFFFFFFFFFFFFFFFFFFFFF AND EQ PUSH2 0x400 JUMPI PUSH1 0x40 MLOAD PUSH32 0x8C379A000000000000000000000000000000000000000000000000000000000 DUP2 MSTORE PUSH1 0x4 ADD PUSH2 0x3F7 SWAP1 PUSH2 0x1453 JUMP JUMPDEST PUSH1 0x40 MLOAD DUP1 SWAP2 SUB SWAP1 REVERT JUMPDEST PUSH1 0x0 PUSH1 0x40 MLOAD DUP1 PUSH1 0xA0 ADD PUSH1 0x40 MSTORE DUP1 DUP6 DUP2 MSTORE PUSH1 0x20 ADD PUSH1 0x1 ISZERO ISZERO DUP2 MSTORE PUSH1 0x20 ADD PUSH1 0x40 MLOAD DUP1 PUSH1 0x20 ADD PUSH1 0x40 MSTORE DUP1 PUSH1 0x0 DUP2 MSTORE POP DUP2 MSTORE PUSH1 0x20 ADD DUP5 DUP2 MSTORE PUSH1 0x20 ADD DUP4 PUSH20 0xFFFFFFFFFFFFFFFFFFFFFFFFFFFFFFFFFFFFFFFF AND DUP2 MSTORE POP SWAP1 POP PUSH1 0x1 DUP2 SWAP1 DUP1 PUSH1 0x1 DUP2 SLOAD ADD DUP1 DUP3 SSTORE DUP1 SWAP2 POP POP PUSH1 0x1 SWAP1 SUB SWAP1 PUSH1 0x0 MSTORE PUSH1 0x20 PUSH1 0x0 KECCAK256 SWAP1 PUSH1 0x5 MUL ADD PUSH1 0x0 SWAP1 SWAP2 SWAP1 SWAP2 SWAP1 SWAP2 POP PUSH1 0x0 DUP3 ADD MLOAD DUP2 PUSH1 0x0 ADD SSTORE PUSH1 0x20 DUP3 ADD MLOAD DUP2 PUSH1 0x1 ADD PUSH1 0x0 PUSH2 0x100 EXP DUP2 SLOAD DUP2 PUSH1 0xFF MUL NOT AND SWAP1 DUP4 ISZERO ISZERO MUL OR SWAP1 SSTORE POP PUSH1 0x40 DUP3 ADD MLOAD DUP2 PUSH1 0x2 ADD SWAP1 DUP1 MLOAD SWAP1 PUSH1 0x20 ADD SWAP1 PUSH2 0x4C5 SWAP3 SWAP2 SWAP1 PUSH2 0xF56 JUMP JUMPDEST POP PUSH1 0x60 DUP3 ADD MLOAD DUP2 PUSH1 0x3 ADD SWAP1 DUP1 MLOAD SWAP1 PUSH1 0x20 ADD SWAP1 PUSH2 0x4E2 SWAP3 SWAP2 SWAP1 PUSH2 0xF56 JUMP JUMPDEST POP PUSH1 0x80 DUP3 ADD MLOAD DUP2 PUSH1 0x4 ADD PUSH1 0x0 PUSH2 0x100 EXP DUP2 SLOAD DUP2 PUSH20 0xFFFFFFFFFFFFFFFFFFFFFFFFFFFFFFFFFFFFFFFF MUL NOT AND SWAP1 DUP4 PUSH20 0xFFFFFFFFFFFFFFFFFFFFFFFFFFFFFFFFFFFFFFFF AND MUL OR SWAP1 SSTORE POP POP POP PUSH1 0x1 PUSH1 0x5 PUSH1 0x0 DUP7 DUP2 MSTORE PUSH1 0x20 ADD SWAP1 DUP2 MSTORE PUSH1 0x20 ADD PUSH1 0x0 KECCAK256 PUSH1 0x0 PUSH2 0x100 EXP DUP2 SLOAD DUP2 PUSH1 0xFF MUL NOT AND SWAP1 DUP4 ISZERO ISZERO MUL OR SWAP1 SSTORE POP POP POP POP POP JUMP JUMPDEST PUSH1 0x6 PUSH1 0x0 SWAP1 SLOAD SWAP1 PUSH2 0x100 EXP SWAP1 DIV PUSH1 0xFF AND DUP2 JUMP JUMPDEST PUSH1 0x0 DUP1 PUSH1 0x0 DUP1 PUSH1 0x4 PUSH1 0x0 DUP8 DUP2 MSTORE PUSH1 0x20 ADD SWAP1 DUP2 MSTORE PUSH1 0x20 ADD PUSH1 0x0 KECCAK256 SWAP1 POP PUSH1 0x0 DUP2 DUP1 SLOAD SWAP1 POP GT PUSH2 0x5D3 JUMPI PUSH1 0x40 MLOAD PUSH32 0x8C379A000000000000000000000000000000000000000000000000000000000 DUP2 MSTORE PUSH1 0x4 ADD PUSH2 0x5CA SWAP1 PUSH2 0x1433 JUMP JUMPDEST PUSH1 0x40 MLOAD DUP1 SWAP2 SUB SWAP1 REVERT JUMPDEST PUSH1 0x0 JUMPDEST DUP2 DUP1 SLOAD SWAP1 POP DUP2 LT ISZERO PUSH2 0x775 JUMPI DUP6 DUP3 DUP3 DUP2 SLOAD DUP2 LT PUSH2 0x5F6 JUMPI PUSH2 0x5F5 PUSH2 0x1897 JUMP JUMPDEST JUMPDEST SWAP1 PUSH1 0x0 MSTORE PUSH1 0x20 PUSH1 0x0 KECCAK256 SWAP1 PUSH1 0x7 MUL ADD PUSH1 0x0 ADD SLOAD EQ ISZERO PUSH2 0x762 JUMPI DUP2 DUP2 DUP2 SLOAD DUP2 LT PUSH2 0x621 JUMPI PUSH2 0x620 PUSH2 0x1897 JUMP JUMPDEST JUMPDEST SWAP1 PUSH1 0x0 MSTORE PUSH1 0x20 PUSH1 0x0 KECCAK256 SWAP1 PUSH1 0x7 MUL ADD PUSH1 0x3 ADD SLOAD DUP3 DUP3 DUP2 SLOAD DUP2 LT PUSH2 0x646 JUMPI PUSH2 0x645 PUSH2 0x1897 JUMP JUMPDEST JUMPDEST SWAP1 PUSH1 0x0 MSTORE PUSH1 0x20 PUSH1 0x0 KECCAK256 SWAP1 PUSH1 0x7 MUL ADD PUSH1 0x2 ADD SLOAD EQ ISZERO PUSH2 0x6B7 JUMPI DUP2 DUP2 DUP2 SLOAD DUP2 LT PUSH2 0x671 JUMPI PUSH2 0x670 PUSH2 0x1897 JUMP JUMPDEST JUMPDEST SWAP1 PUSH1 0x0 MSTORE PUSH1 0x20 PUSH1 0x0 KECCAK256 SWAP1 PUSH1 0x7 MUL ADD PUSH1 0x2 ADD SLOAD DUP3 DUP3 DUP2 SLOAD DUP2 LT PUSH2 0x696 JUMPI PUSH2 0x695 PUSH2 0x1897 JUMP JUMPDEST JUMPDEST SWAP1 PUSH1 0x0 MSTORE PUSH1 0x20 PUSH1 0x0 KECCAK256 SWAP1 PUSH1 0x7 MUL ADD PUSH1 0x3 ADD SLOAD PUSH1 0x0 SWAP5 POP SWAP5 POP SWAP5 POP POP POP PUSH2 0x7B1 JUMP JUMPDEST DUP2 DUP2 DUP2 SLOAD DUP2 LT PUSH2 0x6CA JUMPI PUSH2 0x6C9 PUSH2 0x1897 JUMP JUMPDEST JUMPDEST SWAP1 PUSH1 0x0 MSTORE PUSH1 0x20 PUSH1 0x0 KECCAK256 SWAP1 PUSH1 0x7 MUL ADD PUSH1 0x2 ADD SLOAD DUP3 DUP3 DUP2 SLOAD DUP2 LT PUSH2 0x6EF JUMPI PUSH2 0x6EE PUSH2 0x1897 JUMP JUMPDEST JUMPDEST SWAP1 PUSH1 0x0 MSTORE PUSH1 0x20 PUSH1 0x0 KECCAK256 SWAP1 PUSH1 0x7 MUL ADD PUSH1 0x3 ADD SLOAD DUP4 DUP4 DUP2 SLOAD DUP2 LT PUSH2 0x714 JUMPI PUSH2 0x713 PUSH2 0x1897 JUMP JUMPDEST JUMPDEST SWAP1 PUSH1 0x0 MSTORE PUSH1 0x20 PUSH1 0x0 KECCAK256 SWAP1 PUSH1 0x7 MUL ADD PUSH1 0x3 ADD SLOAD DUP5 DUP5 DUP2 SLOAD DUP2 LT PUSH2 0x739 JUMPI PUSH2 0x738 PUSH2 0x1897 JUMP JUMPDEST JUMPDEST SWAP1 PUSH1 0x0 MSTORE PUSH1 0x20 PUSH1 0x0 KECCAK256 SWAP1 PUSH1 0x7 MUL ADD PUSH1 0x2 ADD SLOAD PUSH2 0x755 SWAP2 SWAP1 PUSH2 0x166E JUMP JUMPDEST SWAP5 POP SWAP5 POP SWAP5 POP POP POP PUSH2 0x7B1 JUMP JUMPDEST DUP1 DUP1 PUSH2 0x76D SWAP1 PUSH2 0x17C1 JUMP JUMPDEST SWAP2 POP POP PUSH2 0x5D6 JUMP JUMPDEST POP PUSH1 0x40 MLOAD PUSH32 0x8C379A000000000000000000000000000000000000000000000000000000000 DUP2 MSTORE PUSH1 0x4 ADD PUSH2 0x7A8 SWAP1 PUSH2 0x1493 JUMP JUMPDEST PUSH1 0x40 MLOAD DUP1 SWAP2 SUB SWAP1 REVERT JUMPDEST SWAP3 POP SWAP3 POP SWAP3 JUMP JUMPDEST PUSH1 0x0 PUSH1 0x4 PUSH1 0x0 DUP5 DUP2 MSTORE PUSH1 0x20 ADD SWAP1 DUP2 MSTORE PUSH1 0x20 ADD PUSH1 0x0 KECCAK256 SWAP1 POP PUSH1 0x0 DUP2 DUP1 SLOAD SWAP1 POP GT PUSH2 0x816 JUMPI PUSH1 0x40 MLOAD PUSH32 0x8C379A000000000000000000000000000000000000000000000000000000000 DUP2 MSTORE PUSH1 0x4 ADD PUSH2 0x80D SWAP1 PUSH2 0x14B3 JUMP JUMPDEST PUSH1 0x40 MLOAD DUP1 SWAP2 SUB SWAP1 REVERT JUMPDEST PUSH1 0x0 JUMPDEST DUP2 DUP1 SLOAD SWAP1 POP DUP2 LT ISZERO PUSH2 0x8A6 JUMPI DUP5 DUP3 DUP3 DUP2 SLOAD DUP2 LT PUSH2 0x839 JUMPI PUSH2 0x838 PUSH2 0x1897 JUMP JUMPDEST JUMPDEST SWAP1 PUSH1 0x0 MSTORE PUSH1 0x20 PUSH1 0x0 KECCAK256 SWAP1 PUSH1 0x7 MUL ADD PUSH1 0x0 ADD SLOAD EQ ISZERO PUSH2 0x893 JUMPI DUP3 DUP3 DUP3 DUP2 SLOAD DUP2 LT PUSH2 0x865 JUMPI PUSH2 0x864 PUSH2 0x1897 JUMP JUMPDEST JUMPDEST SWAP1 PUSH1 0x0 MSTORE PUSH1 0x20 PUSH1 0x0 KECCAK256 SWAP1 PUSH1 0x7 MUL ADD PUSH1 0x6 ADD PUSH1 0x0 PUSH2 0x100 EXP DUP2 SLOAD DUP2 PUSH1 0xFF MUL NOT AND SWAP1 DUP4 PUSH1 0xFF AND MUL OR SWAP1 SSTORE POP PUSH2 0x8A6 JUMP JUMPDEST DUP1 DUP1 PUSH2 0x89E SWAP1 PUSH2 0x17C1 JUMP JUMPDEST SWAP2 POP POP PUSH2 0x819 JUMP JUMPDEST POP POP POP POP POP JUMP JUMPDEST PUSH1 0x2 DUP2 DUP2 SLOAD DUP2 LT PUSH2 0x8BD JUMPI PUSH1 0x0 DUP1 REVERT JUMPDEST SWAP1 PUSH1 0x0 MSTORE PUSH1 0x20 PUSH1 0x0 KECCAK256 ADD PUSH1 0x0 SWAP2 POP SWAP1 POP DUP1 PUSH1 0x0 ADD SLOAD SWAP1 POP DUP2 JUMP JUMPDEST PUSH1 0x0 PUSH1 0x40 MLOAD DUP1 PUSH1 0x20 ADD PUSH1 0x40 MSTORE DUP1 DUP4 DUP2 MSTORE POP SWAP1 POP PUSH1 0x2 DUP2 SWAP1 DUP1 PUSH1 0x1 DUP2 SLOAD ADD DUP1 DUP3 SSTORE DUP1 SWAP2 POP POP PUSH1 0x1 SWAP1 SUB SWAP1 PUSH1 0x0 MSTORE PUSH1 0x20 PUSH1 0x0 KECCAK256 ADD PUSH1 0x0 SWAP1 SWAP2 SWAP1 SWAP2 SWAP1 SWAP2 POP PUSH1 0x0 DUP3 ADD MLOAD DUP2 PUSH1 0x0 ADD SSTORE POP POP POP POP JUMP JUMPDEST PUSH1 0x5 PUSH1 0x0 DUP7 DUP2 MSTORE PUSH1 0x20 ADD SWAP1 DUP2 MSTORE PUSH1 0x20 ADD PUSH1 0x0 KECCAK256 PUSH1 0x0 SWAP1 SLOAD SWAP1 PUSH2 0x100 EXP SWAP1 DIV PUSH1 0xFF AND PUSH2 0x982 JUMPI PUSH1 0x40 MLOAD PUSH32 0x8C379A000000000000000000000000000000000000000000000000000000000 DUP2 MSTORE PUSH1 0x4 ADD PUSH2 0x979 SWAP1 PUSH2 0x1473 JUMP JUMPDEST PUSH1 0x40 MLOAD DUP1 SWAP2 SUB SWAP1 REVERT JUMPDEST PUSH1 0x0 PUSH1 0x40 MLOAD DUP1 PUSH1 0xE0 ADD PUSH1 0x40 MSTORE DUP1 DUP7 DUP2 MSTORE PUSH1 0x20 ADD PUSH3 0xF4240 DUP2 MSTORE PUSH1 0x20 ADD DUP6 DUP2 MSTORE PUSH1 0x20 ADD PUSH1 0x0 DUP2 MSTORE PUSH1 0x20 ADD DUP5 PUSH20 0xFFFFFFFFFFFFFFFFFFFFFFFFFFFFFFFFFFFFFFFF AND DUP2 MSTORE PUSH1 0x20 ADD DUP4 DUP2 MSTORE PUSH1 0x20 ADD PUSH1 0x1 PUSH1 0x5 DUP2 GT ISZERO PUSH2 0x9E1 JUMPI PUSH2 0x9E0 PUSH2 0x1839 JUMP JUMPDEST JUMPDEST PUSH1 0xFF AND DUP2 MSTORE POP SWAP1 POP PUSH1 0x0 DUP2 SWAP1 DUP1 PUSH1 0x1 DUP2 SLOAD ADD DUP1 DUP3 SSTORE DUP1 SWAP2 POP POP PUSH1 0x1 SWAP1 SUB SWAP1 PUSH1 0x0 MSTORE PUSH1 0x20 PUSH1 0x0 KECCAK256 SWAP1 PUSH1 0x7 MUL ADD PUSH1 0x0 SWAP1 SWAP2 SWAP1 SWAP2 SWAP1 SWAP2 POP PUSH1 0x0 DUP3 ADD MLOAD DUP2 PUSH1 0x0 ADD SSTORE PUSH1 0x20 DUP3 ADD MLOAD DUP2 PUSH1 0x1 ADD SSTORE PUSH1 0x40 DUP3 ADD MLOAD DUP2 PUSH1 0x2 ADD SSTORE PUSH1 0x60 DUP3 ADD MLOAD DUP2 PUSH1 0x3 ADD SSTORE PUSH1 0x80 DUP3 ADD MLOAD DUP2 PUSH1 0x4 ADD PUSH1 0x0 PUSH2 0x100 EXP DUP2 SLOAD DUP2 PUSH20 0xFFFFFFFFFFFFFFFFFFFFFFFFFFFFFFFFFFFFFFFF MUL NOT AND SWAP1 DUP4 PUSH20 0xFFFFFFFFFFFFFFFFFFFFFFFFFFFFFFFFFFFFFFFF AND MUL OR SWAP1 SSTORE POP PUSH1 0xA0 DUP3 ADD MLOAD DUP2 PUSH1 0x5 ADD SWAP1 DUP1 MLOAD SWAP1 PUSH1 0x20 ADD SWAP1 PUSH2 0xAA0 SWAP3 SWAP2 SWAP1 PUSH2 0xF56 JUMP JUMPDEST POP PUSH1 0xC0 DUP3 ADD MLOAD DUP2 PUSH1 0x6 ADD PUSH1 0x0 PUSH2 0x100 EXP DUP2 SLOAD DUP2 PUSH1 0xFF MUL NOT AND SWAP1 DUP4 PUSH1 0xFF AND MUL OR SWAP1 SSTORE POP POP POP PUSH1 0x4 PUSH1 0x0 DUP8 DUP2 MSTORE PUSH1 0x20 ADD SWAP1 DUP2 MSTORE PUSH1 0x20 ADD PUSH1 0x0 KECCAK256 DUP2 SWAP1 DUP1 PUSH1 0x1 DUP2 SLOAD ADD DUP1 DUP3 SSTORE DUP1 SWAP2 POP POP PUSH1 0x1 SWAP1 SUB SWAP1 PUSH1 0x0 MSTORE PUSH1 0x20 PUSH1 0x0 KECCAK256 SWAP1 PUSH1 0x7 MUL ADD PUSH1 0x0 SWAP1 SWAP2 SWAP1 SWAP2 SWAP1 SWAP2 POP PUSH1 0x0 DUP3 ADD MLOAD DUP2 PUSH1 0x0 ADD SSTORE PUSH1 0x20 DUP3 ADD MLOAD DUP2 PUSH1 0x1 ADD SSTORE PUSH1 0x40 DUP3 ADD MLOAD DUP2 PUSH1 0x2 ADD SSTORE PUSH1 0x60 DUP3 ADD MLOAD DUP2 PUSH1 0x3 ADD SSTORE PUSH1 0x80 DUP3 ADD MLOAD DUP2 PUSH1 0x4 ADD PUSH1 0x0 PUSH2 0x100 EXP DUP2 SLOAD DUP2 PUSH20 0xFFFFFFFFFFFFFFFFFFFFFFFFFFFFFFFFFFFFFFFF MUL NOT AND SWAP1 DUP4 PUSH20 0xFFFFFFFFFFFFFFFFFFFFFFFFFFFFFFFFFFFFFFFF AND MUL OR SWAP1 SSTORE POP PUSH1 0xA0 DUP3 ADD MLOAD DUP2 PUSH1 0x5 ADD SWAP1 DUP1 MLOAD SWAP1 PUSH1 0x20 ADD SWAP1 PUSH2 0xB8C SWAP3 SWAP2 SWAP1 PUSH2 0xF56 JUMP JUMPDEST POP PUSH1 0xC0 DUP3 ADD MLOAD DUP2 PUSH1 0x6 ADD PUSH1 0x0 PUSH2 0x100 EXP DUP2 SLOAD DUP2 PUSH1 0xFF MUL NOT AND SWAP1 DUP4 PUSH1 0xFF AND MUL OR SWAP1 SSTORE POP POP POP POP POP POP POP POP POP JUMP JUMPDEST PUSH1 0x3 PUSH1 0x0 SWAP1 SLOAD SWAP1 PUSH2 0x100 EXP SWAP1 DIV PUSH20 0xFFFFFFFFFFFFFFFFFFFFFFFFFFFFFFFFFFFFFFFF AND PUSH20 0xFFFFFFFFFFFFFFFFFFFFFFFFFFFFFFFFFFFFFFFF AND CALLER PUSH20 0xFFFFFFFFFFFFFFFFFFFFFFFFFFFFFFFFFFFFFFFF AND EQ PUSH2 0xC48 JUMPI PUSH1 0x40 MLOAD PUSH32 0x8C379A000000000000000000000000000000000000000000000000000000000 DUP2 MSTORE PUSH1 0x4 ADD PUSH2 0xC3F SWAP1 PUSH2 0x1453 JUMP JUMPDEST PUSH1 0x40 MLOAD DUP1 SWAP2 SUB SWAP1 REVERT JUMPDEST PUSH1 0x0 PUSH1 0x1 DUP4 DUP2 SLOAD DUP2 LT PUSH2 0xC5E JUMPI PUSH2 0xC5D PUSH2 0x1897 JUMP JUMPDEST JUMPDEST SWAP1 PUSH1 0x0 MSTORE PUSH1 0x20 PUSH1 0x0 KECCAK256 SWAP1 PUSH1 0x5 MUL ADD SWAP1 POP PUSH1 0x1 DUP2 PUSH1 0x1 ADD PUSH1 0x0 PUSH2 0x100 EXP DUP2 SLOAD DUP2 PUSH1 0xFF MUL NOT AND SWAP1 DUP4 ISZERO ISZERO MUL OR SWAP1 SSTORE POP PUSH1 0x1 PUSH1 0x5 PUSH1 0x0 DUP5 DUP2 MSTORE PUSH1 0x20 ADD SWAP1 DUP2 MSTORE PUSH1 0x20 ADD PUSH1 0x0 KECCAK256 PUSH1 0x0 PUSH2 0x100 EXP DUP2 SLOAD DUP2 PUSH1 0xFF MUL NOT AND SWAP1 DUP4 ISZERO ISZERO MUL OR SWAP1 SSTORE POP POP POP POP JUMP JUMPDEST PUSH1 0x3 PUSH1 0x0 SWAP1 SLOAD SWAP1 PUSH2 0x100 EXP SWAP1 DIV PUSH20 0xFFFFFFFFFFFFFFFFFFFFFFFFFFFFFFFFFFFFFFFF AND DUP2 JUMP JUMPDEST PUSH1 0x3 PUSH1 0x0 SWAP1 SLOAD SWAP1 PUSH2 0x100 EXP SWAP1 DIV PUSH20 0xFFFFFFFFFFFFFFFFFFFFFFFFFFFFFFFFFFFFFFFF AND PUSH20 0xFFFFFFFFFFFFFFFFFFFFFFFFFFFFFFFFFFFFFFFF AND CALLER PUSH20 0xFFFFFFFFFFFFFFFFFFFFFFFFFFFFFFFFFFFFFFFF AND EQ PUSH2 0xD72 JUMPI PUSH1 0x40 MLOAD PUSH32 0x8C379A000000000000000000000000000000000000000000000000000000000 DUP2 MSTORE PUSH1 0x4 ADD PUSH2 0xD69 SWAP1 PUSH2 0x1453 JUMP JUMPDEST PUSH1 0x40 MLOAD DUP1 SWAP2 SUB SWAP1 REVERT JUMPDEST PUSH1 0x0 PUSH1 0x1 DUP4 DUP2 SLOAD DUP2 LT PUSH2 0xD88 JUMPI PUSH2 0xD87 PUSH2 0x1897 JUMP JUMPDEST JUMPDEST SWAP1 PUSH1 0x0 MSTORE PUSH1 0x20 PUSH1 0x0 KECCAK256 SWAP1 PUSH1 0x5 MUL ADD SWAP1 POP PUSH1 0x0 DUP2 PUSH1 0x1 ADD PUSH1 0x0 PUSH2 0x100 EXP DUP2 SLOAD DUP2 PUSH1 0xFF MUL NOT AND SWAP1 DUP4 ISZERO ISZERO MUL OR SWAP1 SSTORE POP DUP2 DUP2 PUSH1 0x2 ADD SWAP1 DUP1 MLOAD SWAP1 PUSH1 0x20 ADD SWAP1 PUSH2 0xDCD SWAP3 SWAP2 SWAP1 PUSH2 0xF56 JUMP JUMPDEST POP POP POP POP JUMP JUMPDEST PUSH1 0x1 DUP2 DUP2 SLOAD DUP2 LT PUSH2 0xDE3 JUMPI PUSH1 0x0 DUP1 REVERT JUMPDEST SWAP1 PUSH1 0x0 MSTORE PUSH1 0x20 PUSH1 0x0 KECCAK256 SWAP1 PUSH1 0x5 MUL ADD PUSH1 0x0 SWAP2 POP SWAP1 POP DUP1 PUSH1 0x0 ADD SLOAD SWAP1 DUP1 PUSH1 0x1 ADD PUSH1 0x0 SWAP1 SLOAD SWAP1 PUSH2 0x100 EXP SWAP1 DIV PUSH1 0xFF AND SWAP1 DUP1 PUSH1 0x2 ADD DUP1 SLOAD PUSH2 0xE1F SWAP1 PUSH2 0x175E JUMP JUMPDEST DUP1 PUSH1 0x1F ADD PUSH1 0x20 DUP1 SWAP2 DIV MUL PUSH1 0x20 ADD PUSH1 0x40 MLOAD SWAP1 DUP2 ADD PUSH1 0x40 MSTORE DUP1 SWAP3 SWAP2 SWAP1 DUP2 DUP2 MSTORE PUSH1 0x20 ADD DUP3 DUP1 SLOAD PUSH2 0xE4B SWAP1 PUSH2 0x175E JUMP JUMPDEST DUP1 ISZERO PUSH2 0xE98 JUMPI DUP1 PUSH1 0x1F LT PUSH2 0xE6D JUMPI PUSH2 0x100 DUP1 DUP4 SLOAD DIV MUL DUP4 MSTORE SWAP2 PUSH1 0x20 ADD SWAP2 PUSH2 0xE98 JUMP JUMPDEST DUP3 ADD SWAP2 SWAP1 PUSH1 0x0 MSTORE PUSH1 0x20 PUSH1 0x0 KECCAK256 SWAP1 JUMPDEST DUP2 SLOAD DUP2 MSTORE SWAP1 PUSH1 0x1 ADD SWAP1 PUSH1 0x20 ADD DUP1 DUP4 GT PUSH2 0xE7B JUMPI DUP3 SWAP1 SUB PUSH1 0x1F AND DUP3 ADD SWAP2 JUMPDEST POP POP POP POP POP SWAP1 DUP1 PUSH1 0x3 ADD DUP1 SLOAD PUSH2 0xEAD SWAP1 PUSH2 0x175E JUMP JUMPDEST DUP1 PUSH1 0x1F ADD PUSH1 0x20 DUP1 SWAP2 DIV MUL PUSH1 0x20 ADD PUSH1 0x40 MLOAD SWAP1 DUP2 ADD PUSH1 0x40 MSTORE DUP1 SWAP3 SWAP2 SWAP1 DUP2 DUP2 MSTORE PUSH1 0x20 ADD DUP3 DUP1 SLOAD PUSH2 0xED9 SWAP1 PUSH2 0x175E JUMP JUMPDEST DUP1 ISZERO PUSH2 0xF26 JUMPI DUP1 PUSH1 0x1F LT PUSH2 0xEFB JUMPI PUSH2 0x100 DUP1 DUP4 SLOAD DIV MUL DUP4 MSTORE SWAP2 PUSH1 0x20 ADD SWAP2 PUSH2 0xF26 JUMP JUMPDEST DUP3 ADD SWAP2 SWAP1 PUSH1 0x0 MSTORE PUSH1 0x20 PUSH1 0x0 KECCAK256 SWAP1 JUMPDEST DUP2 SLOAD DUP2 MSTORE SWAP1 PUSH1 0x1 ADD SWAP1 PUSH1 0x20 ADD DUP1 DUP4 GT PUSH2 0xF09 JUMPI DUP3 SWAP1 SUB PUSH1 0x1F AND DUP3 ADD SWAP2 JUMPDEST POP POP POP POP POP SWAP1 DUP1 PUSH1 0x4 ADD PUSH1 0x0 SWAP1 SLOAD SWAP1 PUSH2 0x100 EXP SWAP1 DIV PUSH20 0xFFFFFFFFFFFFFFFFFFFFFFFFFFFFFFFFFFFFFFFF AND SWAP1 POP DUP6 JUMP JUMPDEST DUP3 DUP1 SLOAD PUSH2 0xF62 SWAP1 PUSH2 0x175E JUMP JUMPDEST SWAP1 PUSH1 0x0 MSTORE PUSH1 0x20 PUSH1 0x0 KECCAK256 SWAP1 PUSH1 0x1F ADD PUSH1 0x20 SWAP1 DIV DUP2 ADD SWAP3 DUP3 PUSH2 0xF84 JUMPI PUSH1 0x0 DUP6 SSTORE PUSH2 0xFCB JUMP JUMPDEST DUP3 PUSH1 0x1F LT PUSH2 0xF9D JUMPI DUP1 MLOAD PUSH1 0xFF NOT AND DUP4 DUP1 ADD OR DUP6 SSTORE PUSH2 0xFCB JUMP JUMPDEST DUP3 DUP1 ADD PUSH1 0x1 ADD DUP6 SSTORE DUP3 ISZERO PUSH2 0xFCB JUMPI SWAP2 DUP3 ADD JUMPDEST DUP3 DUP2 GT ISZERO PUSH2 0xFCA JUMPI DUP3 MLOAD DUP3 SSTORE SWAP2 PUSH1 0x20 ADD SWAP2 SWAP1 PUSH1 0x1 ADD SWAP1 PUSH2 0xFAF JUMP JUMPDEST JUMPDEST POP SWAP1 POP PUSH2 0xFD8 SWAP2 SWAP1 PUSH2 0xFDC JUMP JUMPDEST POP SWAP1 JUMP JUMPDEST JUMPDEST DUP1 DUP3 GT ISZERO PUSH2 0xFF5 JUMPI PUSH1 0x0 DUP2 PUSH1 0x0 SWAP1 SSTORE POP PUSH1 0x1 ADD PUSH2 0xFDD JUMP JUMPDEST POP SWAP1 JUMP JUMPDEST PUSH1 0x0 PUSH2 0x100C PUSH2 0x1007 DUP5 PUSH2 0x1621 JUMP JUMPDEST PUSH2 0x15FC JUMP JUMPDEST SWAP1 POP DUP3 DUP2 MSTORE PUSH1 0x20 DUP2 ADD DUP5 DUP5 DUP5 ADD GT ISZERO PUSH2 0x1028 JUMPI PUSH2 0x1027 PUSH2 0x18FA JUMP JUMPDEST JUMPDEST PUSH2 0x1033 DUP5 DUP3 DUP6 PUSH2 0x171C JUMP JUMPDEST POP SWAP4 SWAP3 POP POP POP JUMP JUMPDEST PUSH1 0x0 DUP2 CALLDATALOAD SWAP1 POP PUSH2 0x104A DUP2 PUSH2 0x1A6D JUMP JUMPDEST SWAP3 SWAP2 POP POP JUMP JUMPDEST PUSH1 0x0 DUP3 PUSH1 0x1F DUP4 ADD SLT PUSH2 0x1065 JUMPI PUSH2 0x1064 PUSH2 0x18F5 JUMP JUMPDEST JUMPDEST DUP2 CALLDATALOAD PUSH2 0x1075 DUP5 DUP3 PUSH1 0x20 DUP7 ADD PUSH2 0xFF9 JUMP JUMPDEST SWAP2 POP POP SWAP3 SWAP2 POP POP JUMP JUMPDEST PUSH1 0x0 DUP2 CALLDATALOAD SWAP1 POP PUSH2 0x108D DUP2 PUSH2 0x1A84 JUMP JUMPDEST SWAP3 SWAP2 POP POP JUMP JUMPDEST PUSH1 0x0 DUP2 CALLDATALOAD SWAP1 POP PUSH2 0x10A2 DUP2 PUSH2 0x1A9B JUMP JUMPDEST SWAP3 SWAP2 POP POP JUMP JUMPDEST PUSH1 0x0 PUSH1 0x20 DUP3 DUP5 SUB SLT ISZERO PUSH2 0x10BE JUMPI PUSH2 0x10BD PUSH2 0x1904 JUMP JUMPDEST JUMPDEST PUSH1 0x0 PUSH2 0x10CC DUP5 DUP3 DUP6 ADD PUSH2 0x107E JUMP JUMPDEST SWAP2 POP POP SWAP3 SWAP2 POP POP JUMP JUMPDEST PUSH1 0x0 DUP1 PUSH1 0x40 DUP4 DUP6 SUB SLT ISZERO PUSH2 0x10EC JUMPI PUSH2 0x10EB PUSH2 0x1904 JUMP JUMPDEST JUMPDEST PUSH1 0x0 PUSH2 0x10FA DUP6 DUP3 DUP7 ADD PUSH2 0x107E JUMP JUMPDEST SWAP3 POP POP PUSH1 0x20 DUP4 ADD CALLDATALOAD PUSH8 0xFFFFFFFFFFFFFFFF DUP2 GT ISZERO PUSH2 0x111B JUMPI PUSH2 0x111A PUSH2 0x18FF JUMP JUMPDEST JUMPDEST PUSH2 0x1127 DUP6 DUP3 DUP7 ADD PUSH2 0x1050 JUMP JUMPDEST SWAP2 POP POP SWAP3 POP SWAP3 SWAP1 POP JUMP JUMPDEST PUSH1 0x0 DUP1 PUSH1 0x0 PUSH1 0x60 DUP5 DUP7 SUB SLT ISZERO PUSH2 0x114A JUMPI PUSH2 0x1149 PUSH2 0x1904 JUMP JUMPDEST JUMPDEST PUSH1 0x0 PUSH2 0x1158 DUP7 DUP3 DUP8 ADD PUSH2 0x107E JUMP JUMPDEST SWAP4 POP POP PUSH1 0x20 DUP5 ADD CALLDATALOAD PUSH8 0xFFFFFFFFFFFFFFFF DUP2 GT ISZERO PUSH2 0x1179 JUMPI PUSH2 0x1178 PUSH2 0x18FF JUMP JUMPDEST JUMPDEST PUSH2 0x1185 DUP7 DUP3 DUP8 ADD PUSH2 0x1050 JUMP JUMPDEST SWAP3 POP POP PUSH1 0x40 PUSH2 0x1196 DUP7 DUP3 DUP8 ADD PUSH2 0x103B JUMP JUMPDEST SWAP2 POP POP SWAP3 POP SWAP3 POP SWAP3 JUMP JUMPDEST PUSH1 0x0 DUP1 PUSH1 0x40 DUP4 DUP6 SUB SLT ISZERO PUSH2 0x11B7 JUMPI PUSH2 0x11B6 PUSH2 0x1904 JUMP JUMPDEST JUMPDEST PUSH1 0x0 PUSH2 0x11C5 DUP6 DUP3 DUP7 ADD PUSH2 0x107E JUMP JUMPDEST SWAP3 POP POP PUSH1 0x20 PUSH2 0x11D6 DUP6 DUP3 DUP7 ADD PUSH2 0x107E JUMP JUMPDEST SWAP2 POP POP SWAP3 POP SWAP3 SWAP1 POP JUMP JUMPDEST PUSH1 0x0 DUP1 PUSH1 0x0 DUP1 PUSH1 0x0 PUSH1 0xA0 DUP7 DUP9 SUB SLT ISZERO PUSH2 0x11FC JUMPI PUSH2 0x11FB PUSH2 0x1904 JUMP JUMPDEST JUMPDEST PUSH1 0x0 PUSH2 0x120A DUP9 DUP3 DUP10 ADD PUSH2 0x107E JUMP JUMPDEST SWAP6 POP POP PUSH1 0x20 PUSH2 0x121B DUP9 DUP3 DUP10 ADD PUSH2 0x107E JUMP JUMPDEST SWAP5 POP POP PUSH1 0x40 PUSH2 0x122C DUP9 DUP3 DUP10 ADD PUSH2 0x107E JUMP JUMPDEST SWAP4 POP POP PUSH1 0x60 PUSH2 0x123D DUP9 DUP3 DUP10 ADD PUSH2 0x103B JUMP JUMPDEST SWAP3 POP POP PUSH1 0x80 DUP7 ADD CALLDATALOAD PUSH8 0xFFFFFFFFFFFFFFFF DUP2 GT ISZERO PUSH2 0x125E JUMPI PUSH2 0x125D PUSH2 0x18FF JUMP JUMPDEST JUMPDEST PUSH2 0x126A DUP9 DUP3 DUP10 ADD PUSH2 0x1050 JUMP JUMPDEST SWAP2 POP POP SWAP3 SWAP6 POP SWAP3 SWAP6 SWAP1 SWAP4 POP JUMP JUMPDEST PUSH1 0x0 DUP1 PUSH1 0x0 PUSH1 0x60 DUP5 DUP7 SUB SLT ISZERO PUSH2 0x1290 JUMPI PUSH2 0x128F PUSH2 0x1904 JUMP JUMPDEST JUMPDEST PUSH1 0x0 PUSH2 0x129E DUP7 DUP3 DUP8 ADD PUSH2 0x107E JUMP JUMPDEST SWAP4 POP POP PUSH1 0x20 PUSH2 0x12AF DUP7 DUP3 DUP8 ADD PUSH2 0x107E JUMP JUMPDEST SWAP3 POP POP PUSH1 0x40 PUSH2 0x12C0 DUP7 DUP3 DUP8 ADD PUSH2 0x1093 JUMP JUMPDEST SWAP2 POP POP SWAP3 POP SWAP3 POP SWAP3 JUMP JUMPDEST PUSH2 0x12D3 DUP2 PUSH2 0x16A2 JUMP JUMPDEST DUP3 MSTORE POP POP JUMP JUMPDEST PUSH2 0x12E2 DUP2 PUSH2 0x16B4 JUMP JUMPDEST DUP3 MSTORE POP POP JUMP JUMPDEST PUSH2 0x12F1 DUP2 PUSH2 0x170A JUMP JUMPDEST DUP3 MSTORE POP POP JUMP JUMPDEST PUSH1 0x0 PUSH2 0x1302 DUP3 PUSH2 0x1652 JUMP JUMPDEST PUSH2 0x130C DUP2 DUP6 PUSH2 0x165D JUMP JUMPDEST SWAP4 POP PUSH2 0x131C DUP2 DUP6 PUSH1 0x20 DUP7 ADD PUSH2 0x172B JUMP JUMPDEST PUSH2 0x1325 DUP2 PUSH2 0x1909 JUMP JUMPDEST DUP5 ADD SWAP2 POP POP SWAP3 SWAP2 POP POP JUMP JUMPDEST PUSH1 0x0 PUSH2 0x133D PUSH1 0x11 DUP4 PUSH2 0x165D JUMP JUMPDEST SWAP2 POP PUSH2 0x1348 DUP3 PUSH2 0x191A JUMP JUMPDEST PUSH1 0x20 DUP3 ADD SWAP1 POP SWAP2 SWAP1 POP JUMP JUMPDEST PUSH1 0x0 PUSH2 0x1360 PUSH1 0x33 DUP4 PUSH2 0x165D JUMP JUMPDEST SWAP2 POP PUSH2 0x136B DUP3 PUSH2 0x1943 JUMP JUMPDEST PUSH1 0x40 DUP3 ADD SWAP1 POP SWAP2 SWAP1 POP JUMP JUMPDEST PUSH1 0x0 PUSH2 0x1383 PUSH1 0x1B DUP4 PUSH2 0x165D JUMP JUMPDEST SWAP2 POP PUSH2 0x138E DUP3 PUSH2 0x1992 JUMP JUMPDEST PUSH1 0x20 DUP3 ADD SWAP1 POP SWAP2 SWAP1 POP JUMP JUMPDEST PUSH1 0x0 PUSH2 0x13A6 PUSH1 0x28 DUP4 PUSH2 0x165D JUMP JUMPDEST SWAP2 POP PUSH2 0x13B1 DUP3 PUSH2 0x19BB JUMP JUMPDEST PUSH1 0x40 DUP3 ADD SWAP1 POP SWAP2 SWAP1 POP JUMP JUMPDEST PUSH1 0x0 PUSH2 0x13C9 PUSH1 0x2F DUP4 PUSH2 0x165D JUMP JUMPDEST SWAP2 POP PUSH2 0x13D4 DUP3 PUSH2 0x1A0A JUMP JUMPDEST PUSH1 0x40 DUP3 ADD SWAP1 POP SWAP2 SWAP1 POP JUMP JUMPDEST PUSH2 0x13E8 DUP2 PUSH2 0x16F3 JUMP JUMPDEST DUP3 MSTORE POP POP JUMP JUMPDEST PUSH2 0x13F7 DUP2 PUSH2 0x16FD JUMP JUMPDEST DUP3 MSTORE POP POP JUMP JUMPDEST PUSH1 0x0 PUSH1 0x20 DUP3 ADD SWAP1 POP PUSH2 0x1412 PUSH1 0x0 DUP4 ADD DUP5 PUSH2 0x12CA JUMP JUMPDEST SWAP3 SWAP2 POP POP JUMP JUMPDEST PUSH1 0x0 PUSH1 0x20 DUP3 ADD SWAP1 POP PUSH2 0x142D PUSH1 0x0 DUP4 ADD DUP5 PUSH2 0x12E8 JUMP JUMPDEST SWAP3 SWAP2 POP POP JUMP JUMPDEST PUSH1 0x0 PUSH1 0x20 DUP3 ADD SWAP1 POP DUP2 DUP2 SUB PUSH1 0x0 DUP4 ADD MSTORE PUSH2 0x144C DUP2 PUSH2 0x1330 JUMP JUMPDEST SWAP1 POP SWAP2 SWAP1 POP JUMP JUMPDEST PUSH1 0x0 PUSH1 0x20 DUP3 ADD SWAP1 POP DUP2 DUP2 SUB PUSH1 0x0 DUP4 ADD MSTORE PUSH2 0x146C DUP2 PUSH2 0x1353 JUMP JUMPDEST SWAP1 POP SWAP2 SWAP1 POP JUMP JUMPDEST PUSH1 0x0 PUSH1 0x20 DUP3 ADD SWAP1 POP DUP2 DUP2 SUB PUSH1 0x0 DUP4 ADD MSTORE PUSH2 0x148C DUP2 PUSH2 0x1376 JUMP JUMPDEST SWAP1 POP SWAP2 SWAP1 POP JUMP JUMPDEST PUSH1 0x0 PUSH1 0x20 DUP3 ADD SWAP1 POP DUP2 DUP2 SUB PUSH1 0x0 DUP4 ADD MSTORE PUSH2 0x14AC DUP2 PUSH2 0x1399 JUMP JUMPDEST SWAP1 POP SWAP2 SWAP1 POP JUMP JUMPDEST PUSH1 0x0 PUSH1 0x20 DUP3 ADD SWAP1 POP DUP2 DUP2 SUB PUSH1 0x0 DUP4 ADD MSTORE PUSH2 0x14CC DUP2 PUSH2 0x13BC JUMP JUMPDEST SWAP1 POP SWAP2 SWAP1 POP JUMP JUMPDEST PUSH1 0x0 PUSH1 0x20 DUP3 ADD SWAP1 POP PUSH2 0x14E8 PUSH1 0x0 DUP4 ADD DUP5 PUSH2 0x13DF JUMP JUMPDEST SWAP3 SWAP2 POP POP JUMP JUMPDEST PUSH1 0x0 PUSH1 0xA0 DUP3 ADD SWAP1 POP PUSH2 0x1503 PUSH1 0x0 DUP4 ADD DUP9 PUSH2 0x13DF JUMP JUMPDEST PUSH2 0x1510 PUSH1 0x20 DUP4 ADD DUP8 PUSH2 0x12D9 JUMP JUMPDEST DUP2 DUP2 SUB PUSH1 0x40 DUP4 ADD MSTORE PUSH2 0x1522 DUP2 DUP7 PUSH2 0x12F7 JUMP JUMPDEST SWAP1 POP DUP2 DUP2 SUB PUSH1 0x60 DUP4 ADD MSTORE PUSH2 0x1536 DUP2 DUP6 PUSH2 0x12F7 JUMP JUMPDEST SWAP1 POP PUSH2 0x1545 PUSH1 0x80 DUP4 ADD DUP5 PUSH2 0x12CA JUMP JUMPDEST SWAP7 SWAP6 POP POP POP POP POP POP JUMP JUMPDEST PUSH1 0x0 PUSH1 0x60 DUP3 ADD SWAP1 POP PUSH2 0x1564 PUSH1 0x0 DUP4 ADD DUP7 PUSH2 0x13DF JUMP JUMPDEST PUSH2 0x1571 PUSH1 0x20 DUP4 ADD DUP6 PUSH2 0x13DF JUMP JUMPDEST PUSH2 0x157E PUSH1 0x40 DUP4 ADD DUP5 PUSH2 0x13DF JUMP JUMPDEST SWAP5 SWAP4 POP POP POP POP JUMP JUMPDEST PUSH1 0x0 PUSH1 0xE0 DUP3 ADD SWAP1 POP PUSH2 0x159B PUSH1 0x0 DUP4 ADD DUP11 PUSH2 0x13DF JUMP JUMPDEST PUSH2 0x15A8 PUSH1 0x20 DUP4 ADD DUP10 PUSH2 0x13DF JUMP JUMPDEST PUSH2 0x15B5 PUSH1 0x40 DUP4 ADD DUP9 PUSH2 0x13DF JUMP JUMPDEST PUSH2 0x15C2 PUSH1 0x60 DUP4 ADD DUP8 PUSH2 0x13DF JUMP JUMPDEST PUSH2 0x15CF PUSH1 0x80 DUP4 ADD DUP7 PUSH2 0x12CA JUMP JUMPDEST DUP2 DUP2 SUB PUSH1 0xA0 DUP4 ADD MSTORE PUSH2 0x15E1 DUP2 DUP6 PUSH2 0x12F7 JUMP JUMPDEST SWAP1 POP PUSH2 0x15F0 PUSH1 0xC0 DUP4 ADD DUP5 PUSH2 0x13EE JUMP JUMPDEST SWAP9 SWAP8 POP POP POP POP POP POP POP POP JUMP JUMPDEST PUSH1 0x0 PUSH2 0x1606 PUSH2 0x1617 JUMP JUMPDEST SWAP1 POP PUSH2 0x1612 DUP3 DUP3 PUSH2 0x1790 JUMP JUMPDEST SWAP2 SWAP1 POP JUMP JUMPDEST PUSH1 0x0 PUSH1 0x40 MLOAD SWAP1 POP SWAP1 JUMP JUMPDEST PUSH1 0x0 PUSH8 0xFFFFFFFFFFFFFFFF DUP3 GT ISZERO PUSH2 0x163C JUMPI PUSH2 0x163B PUSH2 0x18C6 JUMP JUMPDEST JUMPDEST PUSH2 0x1645 DUP3 PUSH2 0x1909 JUMP JUMPDEST SWAP1 POP PUSH1 0x20 DUP2 ADD SWAP1 POP SWAP2 SWAP1 POP JUMP JUMPDEST PUSH1 0x0 DUP2 MLOAD SWAP1 POP SWAP2 SWAP1 POP JUMP JUMPDEST PUSH1 0x0 DUP3 DUP3 MSTORE PUSH1 0x20 DUP3 ADD SWAP1 POP SWAP3 SWAP2 POP POP JUMP JUMPDEST PUSH1 0x0 PUSH2 0x1679 DUP3 PUSH2 0x16F3 JUMP JUMPDEST SWAP2 POP PUSH2 0x1684 DUP4 PUSH2 0x16F3 JUMP JUMPDEST SWAP3 POP DUP3 DUP3 LT ISZERO PUSH2 0x1697 JUMPI PUSH2 0x1696 PUSH2 0x180A JUMP JUMPDEST JUMPDEST DUP3 DUP3 SUB SWAP1 POP SWAP3 SWAP2 POP POP JUMP JUMPDEST PUSH1 0x0 PUSH2 0x16AD DUP3 PUSH2 0x16D3 JUMP JUMPDEST SWAP1 POP SWAP2 SWAP1 POP JUMP JUMPDEST PUSH1 0x0 DUP2 ISZERO ISZERO SWAP1 POP SWAP2 SWAP1 POP JUMP JUMPDEST PUSH1 0x0 DUP2 SWAP1 POP PUSH2 0x16CE DUP3 PUSH2 0x1A59 JUMP JUMPDEST SWAP2 SWAP1 POP JUMP JUMPDEST PUSH1 0x0 PUSH20 0xFFFFFFFFFFFFFFFFFFFFFFFFFFFFFFFFFFFFFFFF DUP3 AND SWAP1 POP SWAP2 SWAP1 POP JUMP JUMPDEST PUSH1 0x0 DUP2 SWAP1 POP SWAP2 SWAP1 POP JUMP JUMPDEST PUSH1 0x0 PUSH1 0xFF DUP3 AND SWAP1 POP SWAP2 SWAP1 POP JUMP JUMPDEST PUSH1 0x0 PUSH2 0x1715 DUP3 PUSH2 0x16C0 JUMP JUMPDEST SWAP1 POP SWAP2 SWAP1 POP JUMP JUMPDEST DUP3 DUP2 DUP4 CALLDATACOPY PUSH1 0x0 DUP4 DUP4 ADD MSTORE POP POP POP JUMP JUMPDEST PUSH1 0x0 JUMPDEST DUP4 DUP2 LT ISZERO PUSH2 0x1749 JUMPI DUP1 DUP3 ADD MLOAD DUP2 DUP5 ADD MSTORE PUSH1 0x20 DUP2 ADD SWAP1 POP PUSH2 0x172E JUMP JUMPDEST DUP4 DUP2 GT ISZERO PUSH2 0x1758 JUMPI PUSH1 0x0 DUP5 DUP5 ADD MSTORE JUMPDEST POP POP POP POP JUMP JUMPDEST PUSH1 0x0 PUSH1 0x2 DUP3 DIV SWAP1 POP PUSH1 0x1 DUP3 AND DUP1 PUSH2 0x1776 JUMPI PUSH1 0x7F DUP3 AND SWAP2 POP JUMPDEST PUSH1 0x20 DUP3 LT DUP2 EQ ISZERO PUSH2 0x178A JUMPI PUSH2 0x1789 PUSH2 0x1868 JUMP JUMPDEST JUMPDEST POP SWAP2 SWAP1 POP JUMP JUMPDEST PUSH2 0x1799 DUP3 PUSH2 0x1909 JUMP JUMPDEST DUP2 ADD DUP2 DUP2 LT PUSH8 0xFFFFFFFFFFFFFFFF DUP3 GT OR ISZERO PUSH2 0x17B8 JUMPI PUSH2 0x17B7 PUSH2 0x18C6 JUMP JUMPDEST JUMPDEST DUP1 PUSH1 0x40 MSTORE POP POP POP JUMP JUMPDEST PUSH1 0x0 PUSH2 0x17CC DUP3 PUSH2 0x16F3 JUMP JUMPDEST SWAP2 POP PUSH32 0xFFFFFFFFFFFFFFFFFFFFFFFFFFFFFFFFFFFFFFFFFFFFFFFFFFFFFFFFFFFFFFFF DUP3 EQ ISZERO PUSH2 0x17FF JUMPI PUSH2 0x17FE PUSH2 0x180A JUMP JUMPDEST JUMPDEST PUSH1 0x1 DUP3 ADD SWAP1 POP SWAP2 SWAP1 POP JUMP JUMPDEST PUSH32 0x4E487B7100000000000000000000000000000000000000000000000000000000 PUSH1 0x0 MSTORE PUSH1 0x11 PUSH1 0x4 MSTORE PUSH1 0x24 PUSH1 0x0 REVERT JUMPDEST PUSH32 0x4E487B7100000000000000000000000000000000000000000000000000000000 PUSH1 0x0 MSTORE PUSH1 0x21 PUSH1 0x4 MSTORE PUSH1 0x24 PUSH1 0x0 REVERT JUMPDEST PUSH32 0x4E487B7100000000000000000000000000000000000000000000000000000000 PUSH1 0x0 MSTORE PUSH1 0x22 PUSH1 0x4 MSTORE PUSH1 0x24 PUSH1 0x0 REVERT JUMPDEST PUSH32 0x4E487B7100000000000000000000000000000000000000000000000000000000 PUSH1 0x0 MSTORE PUSH1 0x32 PUSH1 0x4 MSTORE PUSH1 0x24 PUSH1 0x0 REVERT JUMPDEST PUSH32 0x4E487B7100000000000000000000000000000000000000000000000000000000 PUSH1 0x0 MSTORE PUSH1 0x41 PUSH1 0x4 MSTORE PUSH1 0x24 PUSH1 0x0 REVERT JUMPDEST PUSH1 0x0 DUP1 REVERT JUMPDEST PUSH1 0x0 DUP1 REVERT JUMPDEST PUSH1 0x0 DUP1 REVERT JUMPDEST PUSH1 0x0 DUP1 REVERT JUMPDEST PUSH1 0x0 PUSH1 0x1F NOT PUSH1 0x1F DUP4 ADD AND SWAP1 POP SWAP2 SWAP1 POP JUMP JUMPDEST PUSH32 0x43686172697479206E6F7420666F756E64000000000000000000000000000000 PUSH1 0x0 DUP3 ADD MSTORE POP JUMP JUMPDEST PUSH32 0x54686973206F7065726174696F6E2063616E20626520706572666F726D656420 PUSH1 0x0 DUP3 ADD MSTORE PUSH32 0x6F6E6C7920627920426F6172642061646D696E00000000000000000000000000 PUSH1 0x20 DUP3 ADD MSTORE POP JUMP JUMPDEST PUSH32 0x43686172697479206973206E6F742079657420617070726F7665640000000000 PUSH1 0x0 DUP3 ADD MSTORE POP JUMP JUMPDEST PUSH32 0x4E6F20737563682070726F6A65637420657869737420756E6465722074686973 PUSH1 0x0 DUP3 ADD MSTORE PUSH32 0x2063686172697479000000000000000000000000000000000000000000000000 PUSH1 0x20 DUP3 ADD MSTORE POP JUMP JUMPDEST PUSH32 0x546869732070726F6A65637420776173206E6F74206372656174656420756E64 PUSH1 0x0 DUP3 ADD MSTORE PUSH32 0x657220796F757220636861726974790000000000000000000000000000000000 PUSH1 0x20 DUP3 ADD MSTORE POP JUMP JUMPDEST PUSH1 0x6 DUP2 LT PUSH2 0x1A6A JUMPI PUSH2 0x1A69 PUSH2 0x1839 JUMP JUMPDEST JUMPDEST POP JUMP JUMPDEST PUSH2 0x1A76 DUP2 PUSH2 0x16A2 JUMP JUMPDEST DUP2 EQ PUSH2 0x1A81 JUMPI PUSH1 0x0 DUP1 REVERT JUMPDEST POP JUMP JUMPDEST PUSH2 0x1A8D DUP2 PUSH2 0x16F3 JUMP JUMPDEST DUP2 EQ PUSH2 0x1A98 JUMPI PUSH1 0x0 DUP1 REVERT JUMPDEST POP JUMP JUMPDEST PUSH2 0x1AA4 DUP2 PUSH2 0x16FD JUMP JUMPDEST DUP2 EQ PUSH2 0x1AAF JUMPI PUSH1 0x0 DUP1 REVERT JUMPDEST POP JUMP INVALID LOG2 PUSH5 0x6970667358 0x22 SLT KECCAK256 RETURN PC COINBASE 0x22 0xED 0xF7 DELEGATECALL 0xE5 ADDRESS DUP10 PUSH3 0x506174 REVERT EXTCODEHASH 0xB4 LOG0 JUMP PUSH23 0xE875282E83BCBC4C5451FB4A64736F6C63430008070033 "
		},
		"gasEstimates": {
			"creation": {
				"codeDepositCost": "1377600",
				"executionCost": "25704",
				"totalCost": "1403304"
			},
			"external": {
				"approveCharity(uint256,uint256)": "infinite",
				"boardAdmin()": "2580",
				"changeProjectStatus(uint256,uint256,uint8)": "infinite",
				"charities(uint256)": "infinite",
				"createCharity(uint256,string,address)": "infinite",
				"createDonor(uint256)": "46905",
				"createProject(uint256,uint256,uint256,address,string)": "infinite",
				"donors(uint256)": "infinite",
				"getProjectFundDetails(uint256,uint256)": "infinite",
				"projectStatus()": "2605",
				"projects(uint256)": "infinite",
				"rejectCharity(uint256,string)": "infinite"
			}
		},
		"methodIdentifiers": {
			"approveCharity(uint256,uint256)": "97ed410c",
			"boardAdmin()": "b61a7f76",
			"changeProjectStatus(uint256,uint256,uint8)": "3a8565f0",
			"charities(uint256)": "fb709d2e",
			"createCharity(uint256,string,address)": "141020cc",
			"createDonor(uint256)": "8afdbbff",
			"createProject(uint256,uint256,uint256,address,string)": "95dcc366",
			"donors(uint256)": "4abfa163",
			"getProjectFundDetails(uint256,uint256)": "1ed056d8",
			"projectStatus()": "1ab33308",
			"projects(uint256)": "107046bd",
			"rejectCharity(uint256,string)": "daf38232"
		}
	},
	"abi": [
		{
			"inputs": [],
			"stateMutability": "nonpayable",
			"type": "constructor"
		},
		{
			"inputs": [
				{
					"internalType": "uint256",
					"name": "index",
					"type": "uint256"
				},
				{
					"internalType": "uint256",
					"name": "charityId",
					"type": "uint256"
				}
			],
			"name": "approveCharity",
			"outputs": [],
			"stateMutability": "nonpayable",
			"type": "function"
		},
		{
			"inputs": [],
			"name": "boardAdmin",
			"outputs": [
				{
					"internalType": "address",
					"name": "",
					"type": "address"
				}
			],
			"stateMutability": "view",
			"type": "function"
		},
		{
			"inputs": [
				{
					"internalType": "uint256",
					"name": "projectId",
					"type": "uint256"
				},
				{
					"internalType": "uint256",
					"name": "charityId",
					"type": "uint256"
				},
				{
					"internalType": "uint8",
					"name": "enumValue",
					"type": "uint8"
				}
			],
			"name": "changeProjectStatus",
			"outputs": [],
			"stateMutability": "nonpayable",
			"type": "function"
		},
		{
			"inputs": [
				{
					"internalType": "uint256",
					"name": "",
					"type": "uint256"
				}
			],
			"name": "charities",
			"outputs": [
				{
					"internalType": "uint256",
					"name": "charityId",
					"type": "uint256"
				},
				{
					"internalType": "bool",
					"name": "approved",
					"type": "bool"
				},
				{
					"internalType": "string",
					"name": "reason",
					"type": "string"
				},
				{
					"internalType": "string",
					"name": "licenseDocsLink",
					"type": "string"
				},
				{
					"internalType": "address",
					"name": "owner",
					"type": "address"
				}
			],
			"stateMutability": "view",
			"type": "function"
		},
		{
			"inputs": [
				{
					"internalType": "uint256",
					"name": "_charityId",
					"type": "uint256"
				},
				{
					"internalType": "string",
					"name": "_licenseDocsLink",
					"type": "string"
				},
				{
					"internalType": "address",
					"name": "charity",
					"type": "address"
				}
			],
			"name": "createCharity",
			"outputs": [],
			"stateMutability": "nonpayable",
			"type": "function"
		},
		{
			"inputs": [
				{
					"internalType": "uint256",
					"name": "_donorId",
					"type": "uint256"
				}
			],
			"name": "createDonor",
			"outputs": [],
			"stateMutability": "nonpayable",
			"type": "function"
		},
		{
			"inputs": [
				{
					"internalType": "uint256",
					"name": "charityId",
					"type": "uint256"
				},
				{
					"internalType": "uint256",
					"name": "_projectId",
					"type": "uint256"
				},
				{
					"internalType": "uint256",
					"name": "_goal",
					"type": "uint256"
				},
				{
					"internalType": "address",
					"name": "owner",
					"type": "address"
				},
				{
					"internalType": "string",
					"name": "_documentLink",
					"type": "string"
				}
			],
			"name": "createProject",
			"outputs": [],
			"stateMutability": "nonpayable",
			"type": "function"
		},
		{
			"inputs": [
				{
					"internalType": "uint256",
					"name": "",
					"type": "uint256"
				}
			],
			"name": "donors",
			"outputs": [
				{
					"internalType": "uint256",
					"name": "donorId",
					"type": "uint256"
				}
			],
			"stateMutability": "view",
			"type": "function"
		},
		{
			"inputs": [
				{
					"internalType": "uint256",
					"name": "charityId",
					"type": "uint256"
				},
				{
					"internalType": "uint256",
					"name": "projectId",
					"type": "uint256"
				}
			],
			"name": "getProjectFundDetails",
			"outputs": [
				{
					"internalType": "uint256",
					"name": "",
					"type": "uint256"
				},
				{
					"internalType": "uint256",
					"name": "",
					"type": "uint256"
				},
				{
					"internalType": "uint256",
					"name": "",
					"type": "uint256"
				}
			],
			"stateMutability": "view",
			"type": "function"
		},
		{
			"inputs": [],
			"name": "projectStatus",
			"outputs": [
				{
					"internalType": "enum CrowdFund.PROJECTSTATUS",
					"name": "",
					"type": "uint8"
				}
			],
			"stateMutability": "view",
			"type": "function"
		},
		{
			"inputs": [
				{
					"internalType": "uint256",
					"name": "",
					"type": "uint256"
				}
			],
			"name": "projects",
			"outputs": [
				{
					"internalType": "uint256",
					"name": "projectId",
					"type": "uint256"
				},
				{
					"internalType": "uint256",
					"name": "minimumAmount",
					"type": "uint256"
				},
				{
					"internalType": "uint256",
					"name": "goal",
					"type": "uint256"
				},
				{
					"internalType": "uint256",
					"name": "raisedAmount",
					"type": "uint256"
				},
				{
					"internalType": "address",
					"name": "owner",
					"type": "address"
				},
				{
					"internalType": "string",
					"name": "documentLink",
					"type": "string"
				},
				{
					"internalType": "uint8",
					"name": "projectStatus",
					"type": "uint8"
				}
			],
			"stateMutability": "view",
			"type": "function"
		},
		{
			"inputs": [
				{
					"internalType": "uint256",
					"name": "index",
					"type": "uint256"
				},
				{
					"internalType": "string",
					"name": "reason",
					"type": "string"
				}
			],
			"name": "rejectCharity",
			"outputs": [],
			"stateMutability": "nonpayable",
			"type": "function"
		}
	]
}