{
	"data": {
		"bytecode": {
			"linkReferences": {},
			"object": "608060405234801561001057600080fd5b506147c9806100206000396000f3fe60806040523480156200001157600080fd5b5060043610620000465760003560e01c80633f7c7eb4146200004b57806351d4f43e1462000057578063ca722404146200008d575b600080fd5b62000055620000af565b005b6200007560048036038101906200006f9190620002a1565b620001ac565b604051620000849190620003cb565b60405180910390f35b62000097620001ec565b604051620000a69190620003a7565b60405180910390f35b33604051620000be906200027c565b620000ca91906200038a565b604051809103906000f080158015620000e7573d6000803e3d6000fd5b506000806101000a81548173ffffffffffffffffffffffffffffffffffffffff021916908373ffffffffffffffffffffffffffffffffffffffff160217905550600160008054906101000a900473ffffffffffffffffffffffffffffffffffffffff169080600181540180825580915050600190039060005260206000200160009091909190916101000a81548173ffffffffffffffffffffffffffffffffffffffff021916908373ffffffffffffffffffffffffffffffffffffffff160217905550565b60018181548110620001bd57600080fd5b906000526020600020016000915054906101000a900473ffffffffffffffffffffffffffffffffffffffff1681565b606060018054806020026020016040519081016040528092919081815260200182805480156200027257602002820191906000526020600020905b8160009054906101000a900473ffffffffffffffffffffffffffffffffffffffff1673ffffffffffffffffffffffffffffffffffffffff168152602001906001019080831162000227575b5050505050905090565b6142d980620004bb83390190565b6000813590506200029b81620004a0565b92915050565b600060208284031215620002ba57620002b96200049b565b5b6000620002ca848285016200028a565b91505092915050565b6000620002e1838362000368565b60208301905092915050565b620002f88162000421565b82525050565b60006200030b82620003f8565b62000317818562000410565b93506200032483620003e8565b8060005b838110156200035b5781516200033f8882620002d3565b97506200034c8362000403565b92505060018101905062000328565b5085935050505092915050565b62000373816200045f565b82525050565b62000384816200045f565b82525050565b6000602082019050620003a16000830184620002ed565b92915050565b60006020820190508181036000830152620003c38184620002fe565b905092915050565b6000602082019050620003e2600083018462000379565b92915050565b6000819050602082019050919050565b600081519050919050565b6000602082019050919050565b600082825260208201905092915050565b60006200042e8262000435565b9050919050565b600073ffffffffffffffffffffffffffffffffffffffff82169050919050565b6000819050919050565b60006200046c8262000473565b9050919050565b6000620004808262000487565b9050919050565b6000620004948262000435565b9050919050565b600080fd5b620004ab8162000455565b8114620004b757600080fd5b5056fe60806040523480156200001157600080fd5b50604051620042d9380380620042d98339818101604052810190620000379190620006a8565b80600260006101000a81548173ffffffffffffffffffffffffffffffffffffffff021916908373ffffffffffffffffffffffffffffffffffffffff1602179055506040518060400160405280601481526020017f57616974696e6720666f7220617070726f76616c00000000000000000000000081525060076000806009811115620000c857620000c762000744565b5b6009811115620000dd57620000dc62000744565b5b8152602001908152602001600020908051906020019062000100929190620005e1565b506040518060400160405280600881526020017f417070726f766564000000000000000000000000000000000000000000000000815250600760006002600981111562000152576200015162000744565b5b600981111562000167576200016662000744565b5b815260200190815260200160002090805190602001906200018a929190620005e1565b506040518060400160405280601381526020017f52656a65637465642062792063686172697479000000000000000000000000008152506007600060016009811115620001dc57620001db62000744565b5b6009811115620001f157620001f062000744565b5b8152602001908152602001600020908051906020019062000214929190620005e1565b506040518060400160405280601581526020017f50726f6a65637420676f616c2061636869657665640000000000000000000000815250600760006003600981111562000266576200026562000744565b5b60098111156200027b576200027a62000744565b5b815260200190815260200160002090805190602001906200029e929190620005e1565b506040518060400160405280601281526020017f45786368616e67652072657175657374656400000000000000000000000000008152506007600060046009811115620002f057620002ef62000744565b5b600981111562000305576200030462000744565b5b8152602001908152602001600020908051906020019062000328929190620005e1565b506040518060400160405280601981526020017f45786368616e676520726571756573742072656365697665640000000000000081525060076000600560098111156200037a576200037962000744565b5b60098111156200038f576200038e62000744565b5b81526020019081526020016000209080519060200190620003b2929190620005e1565b506040518060400160405280601981526020017f45786368616e6765207265717565737420617070726f76656400000000000000815250600760006006600981111562000404576200040362000744565b5b600981111562000419576200041862000744565b5b815260200190815260200160002090805190602001906200043c929190620005e1565b506040518060400160405280601981526020017f45786368616e676520726571756573742072656a65637465640000000000000081525060076000600760098111156200048e576200048d62000744565b5b6009811115620004a357620004a262000744565b5b81526020019081526020016000209080519060200190620004c6929190620005e1565b506040518060400160405280600e81526020017f46756e647320726566756e646564000000000000000000000000000000000000815250600760006008600981111562000518576200051762000744565b5b60098111156200052d576200052c62000744565b5b8152602001908152602001600020908051906020019062000550929190620005e1565b506040518060400160405280600e81526020017f50726f6a65637420636c6f73656400000000000000000000000000000000000081525060076000600980811115620005a157620005a062000744565b5b6009811115620005b657620005b562000744565b5b81526020019081526020016000209080519060200190620005d9929190620005e1565b5050620007c1565b828054620005ef906200070e565b90600052602060002090601f0160209004810192826200061357600085556200065f565b82601f106200062e57805160ff19168380011785556200065f565b828001600101855582156200065f579182015b828111156200065e57825182559160200191906001019062000641565b5b5090506200066e919062000672565b5090565b5b808211156200068d57600081600090555060010162000673565b5090565b600081519050620006a281620007a7565b92915050565b600060208284031215620006c157620006c0620007a2565b5b6000620006d18482850162000691565b91505092915050565b6000620006e782620006ee565b9050919050565b600073ffffffffffffffffffffffffffffffffffffffff82169050919050565b600060028204905060018216806200072757607f821691505b602082108114156200073e576200073d62000773565b5b50919050565b7f4e487b7100000000000000000000000000000000000000000000000000000000600052602160045260246000fd5b7f4e487b7100000000000000000000000000000000000000000000000000000000600052602260045260246000fd5b600080fd5b620007b281620006da565b8114620007be57600080fd5b50565b613b0880620007d16000396000f3fe6080604052600436106100f35760003560e01c806397ed410c1161008a578063daf3823211610059578063daf382321461032d578063ef6add3214610356578063ef88f48b14610393578063fb709d2e146103af576100f3565b806397ed410c146102735780639d8e7e891461029c578063b0ca4af5146102d9578063b61a7f7614610302576100f3565b80632c3730ef116100c65780632c3730ef146101cf5780633a8565f0146101f857806385fa74bc1461022157806395dcc3661461024a576100f3565b8063107046bd146100f8578063141020cc1461013c5780631ab33308146101655780631ed056d814610190575b600080fd5b34801561010457600080fd5b5061011f600480360381019061011a9190612b66565b6103f0565b60405161013398979695949392919061329b565b60405180910390f35b34801561014857600080fd5b50610163600480360381019061015e9190612bef565b61050a565b005b34801561017157600080fd5b5061017a610714565b604051610187919061300f565b60405180910390f35b34801561019c57600080fd5b506101b760048036038101906101b29190612c5e565b610727565b6040516101c693929190613264565b60405180910390f35b3480156101db57600080fd5b506101f660048036038101906101f19190612d88565b6108c5565b005b34801561020457600080fd5b5061021f600480360381019061021a9190612d88565b610d5a565b005b34801561022d57600080fd5b5061024860048036038101906102439190612c5e565b611394565b005b34801561025657600080fd5b50610271600480360381019061026c9190612cf1565b611822565b005b34801561027f57600080fd5b5061029a60048036038101906102959190612c5e565b611bca565b005b3480156102a857600080fd5b506102c360048036038101906102be9190612c5e565b611cea565b6040516102d0919061302a565b60405180910390f35b3480156102e557600080fd5b5061030060048036038101906102fb9190612c5e565b611ed4565b005b34801561030e57600080fd5b5061031761216a565b6040516103249190612ff4565b60405180910390f35b34801561033957600080fd5b50610354600480360381019061034f9190612b93565b612190565b005b34801561036257600080fd5b5061037d60048036038101906103789190612b39565b61229d565b60405161038a919061302a565b60405180910390f35b6103ad60048036038101906103a89190612c9e565b61233d565b005b3480156103bb57600080fd5b506103d660048036038101906103d19190612b66565b61284f565b6040516103e79594939291906131cc565b60405180910390f35b6000818154811061040057600080fd5b90600052602060002090600702016000915090508060000154908060010154908060020154908060030154908060040160009054906101000a900473ffffffffffffffffffffffffffffffffffffffff16908060040160149054906101000a900460ff1690806005018054610474906134d8565b80601f01602080910402602001604051908101604052809291908181526020018280546104a0906134d8565b80156104ed5780601f106104c2576101008083540402835291602001916104ed565b820191906000526020600020905b8154815290600101906020018083116104d057829003601f168201915b5050505050908060060160009054906101000a900460ff16905088565b600260009054906101000a900473ffffffffffffffffffffffffffffffffffffffff1673ffffffffffffffffffffffffffffffffffffffff163373ffffffffffffffffffffffffffffffffffffffff1614604051806060016040528060338152602001613a4060339139906105b5576040517f08c379a00000000000000000000000000000000000000000000000000000000081526004016105ac919061302a565b60405180910390fd5b5060006040518060a001604052808581526020016001151581526020016040518060200160405280600081525081526020018481526020018373ffffffffffffffffffffffffffffffffffffffff16815250905060018190806001815401808255809150506001900390600052602060002090600502016000909190919091506000820151816000015560208201518160010160006101000a81548160ff021916908315150217905550604082015181600201908051906020019061067b9291906129d2565b5060608201518160030190805190602001906106989291906129d2565b5060808201518160040160006101000a81548173ffffffffffffffffffffffffffffffffffffffff021916908373ffffffffffffffffffffffffffffffffffffffff160217905550505060016004600086815260200190815260200160002060006101000a81548160ff02191690831515021790555050505050565b600660009054906101000a900460ff1681565b6000806000806003600087815260200190815260200160002090506000818054905011610789576040517f08c379a00000000000000000000000000000000000000000000000000000000081526004016107809061314c565b60405180910390fd5b60005b818054905081101561088257858282815481106107ac576107ab613611565b5b906000526020600020906007020160000154141561086f578181815481106107d7576107d6613611565b5b9060005260206000209060070201600201548282815481106107fc576107fb613611565b5b90600052602060002090600702016003015483838154811061082157610820613611565b5b90600052602060002090600702016003015484848154811061084657610845613611565b5b90600052602060002090600702016002015461086291906133e8565b94509450945050506108be565b808061087a9061353b565b91505061078c565b506040517f08c379a00000000000000000000000000000000000000000000000000000000081526004016108b59061318c565b60405180910390fd5b9250925092565b600260009054906101000a900473ffffffffffffffffffffffffffffffffffffffff1673ffffffffffffffffffffffffffffffffffffffff163373ffffffffffffffffffffffffffffffffffffffff1614604051806060016040528060338152602001613a406033913990610970576040517f08c379a0000000000000000000000000000000000000000000000000000000008152600401610967919061302a565b60405180910390fd5b5060006009811115610985576109846135b3565b5b8160ff16600981111561099b5761099a6135b3565b5b60098111156109ad576109ac6135b3565b5b1415604051806060016040528060318152602001613a736031913990610a09576040517f08c379a0000000000000000000000000000000000000000000000000000000008152600401610a00919061302a565b60405180910390fd5b5060026009811115610a1e57610a1d6135b3565b5b8160ff166009811115610a3457610a336135b3565b5b6009811115610a4657610a456135b3565b5b1415604051806060016040528060318152602001613a736031913990610aa2576040517f08c379a0000000000000000000000000000000000000000000000000000000008152600401610a99919061302a565b60405180910390fd5b5060036009811115610ab757610ab66135b3565b5b8160ff166009811115610acd57610acc6135b3565b5b6009811115610adf57610ade6135b3565b5b1415604051806060016040528060318152602001613a736031913990610b3b576040517f08c379a0000000000000000000000000000000000000000000000000000000008152600401610b32919061302a565b60405180910390fd5b5060046009811115610b5057610b4f6135b3565b5b8160ff166009811115610b6657610b656135b3565b5b6009811115610b7857610b776135b3565b5b1415604051806060016040528060318152602001613a736031913990610bd4576040517f08c379a0000000000000000000000000000000000000000000000000000000008152600401610bcb919061302a565b60405180910390fd5b5060006003600084815260200190815260200160002090506000818054905011610c33576040517f08c379a0000000000000000000000000000000000000000000000000000000008152600401610c2a9061312c565b60405180910390fd5b60005b8180549050811015610d535784828281548110610c5657610c55613611565b5b9060005260206000209060070201600001541415610d40578260ff166009811115610c8457610c836135b3565b5b828281548110610c9757610c96613611565b5b906000526020600020906007020160060160006101000a81548160ff02191690836009811115610cca57610cc96135b3565b5b02179055507f42b0281ef1ba120f08ae315789f8639d48731db33eaac502b629a775c997471b8486848481548110610d0557610d04613611565b5b906000526020600020906007020160060160009054906101000a900460ff16604051610d339392919061322d565b60405180910390a1610d53565b8080610d4b9061353b565b915050610c36565b5050505050565b600260009054906101000a900473ffffffffffffffffffffffffffffffffffffffff1673ffffffffffffffffffffffffffffffffffffffff163373ffffffffffffffffffffffffffffffffffffffff1614156040518060600160405280602f8152602001613aa4602f913990610e06576040517f08c379a0000000000000000000000000000000000000000000000000000000008152600401610dfd919061302a565b60405180910390fd5b50600060036009811115610e1d57610e1c6135b3565b5b8260ff166009811115610e3357610e326135b3565b5b6009811115610e4557610e446135b3565b5b1415604051806060016040528060318152602001613a736031913990610ea1576040517f08c379a0000000000000000000000000000000000000000000000000000000008152600401610e98919061302a565b60405180910390fd5b5060056009811115610eb657610eb56135b3565b5b8260ff166009811115610ecc57610ecb6135b3565b5b6009811115610ede57610edd6135b3565b5b1415604051806060016040528060318152602001613a736031913990610f3a576040517f08c379a0000000000000000000000000000000000000000000000000000000008152600401610f31919061302a565b60405180910390fd5b5060066009811115610f4f57610f4e6135b3565b5b8260ff166009811115610f6557610f646135b3565b5b6009811115610f7757610f766135b3565b5b1415604051806060016040528060318152602001613a736031913990610fd3576040517f08c379a0000000000000000000000000000000000000000000000000000000008152600401610fca919061302a565b60405180910390fd5b5060006003600085815260200190815260200160002090506000818054905011611032576040517f08c379a0000000000000000000000000000000000000000000000000000000008152600401611029906130ec565b60405180910390fd5b60005b818054905081101561138c578582828154811061105557611054613611565b5b906000526020600020906007020160000154141561136e5760019250600082828154811061108657611085613611565b5b906000526020600020906007020160040160146101000a81548160ff021916908315150217905550600760098111156110c2576110c16135b3565b5b8460ff1660098111156110d8576110d76135b3565b5b60098111156110ea576110e96135b3565b5b148061112f575060066009811115611105576111046135b3565b5b8460ff16600981111561111b5761111a6135b3565b5b600981111561112d5761112c6135b3565b5b145b1561128c577f2de098063448dbe8b26fa82794cd68cf748edb4f3e2cc43166e3ad659757019e85878660ff16600981111561116d5761116c6135b3565b5b60405161117c9392919061322d565b60405180910390a160076009811115611198576111976135b3565b5b8460ff1660098111156111ae576111ad6135b3565b5b60098111156111c0576111bf6135b3565b5b1415611207577fbd0e0cbb7f526d9c7052b56c5d1873ee7b834959cd785b696dd0f9d418d9617a858760086040516111fa9392919061322d565b60405180910390a1611287565b6006600981111561121b5761121a6135b3565b5b8460ff166009811115611231576112306135b3565b5b6009811115611243576112426135b3565b5b1415611286577fbd0e0cbb7f526d9c7052b56c5d1873ee7b834959cd785b696dd0f9d418d9617a8587600960405161127d9392919061322d565b60405180910390a15b5b61136d565b8360ff1660098111156112a2576112a16135b3565b5b8282815481106112b5576112b4613611565b5b906000526020600020906007020160060160006101000a81548160ff021916908360098111156112e8576112e76135b3565b5b021790555060046009811115611301576113006135b3565b5b8460ff166009811115611317576113166135b3565b5b6009811115611329576113286135b3565b5b141561136c577fd49fc9fa26fa9fc112efd004acb9eeabf80810373d2cbb1a7884d4d64e8e8d2b858760046040516113639392919061322d565b60405180910390a15b5b5b82156113795761138c565b80806113849061353b565b915050611035565b505050505050565b600080600060036000868152602001908152602001600020905060008180549050116113f5576040517f08c379a00000000000000000000000000000000000000000000000000000000081526004016113ec9061304c565b60405180910390fd5b600060056000868152602001908152602001600020905060005b81805490508110156117d9573373ffffffffffffffffffffffffffffffffffffffff1682828154811061144557611444613611565b5b906000526020600020906003020160010160009054906101000a900473ffffffffffffffffffffffffffffffffffffffff1673ffffffffffffffffffffffffffffffffffffffff161480156114cf575060008282815481106114aa576114a9613611565b5b9060005260206000209060030201600201600088815260200190815260200160002054115b156117c65760005b83805490508110156116c557868482815481106114f7576114f6613611565b5b90600052602060002090600702016000015414156116b25760036009811115611523576115226135b3565b5b84828154811061153657611535613611565b5b906000526020600020906007020160060160009054906101000a900460ff166009811115611567576115666135b3565b5b11156115a8576040517f08c379a000000000000000000000000000000000000000000000000000000000815260040161159f906130ac565b60405180910390fd5b8282815481106115bb576115ba613611565b5b90600052602060002090600302016002016000888152602001908152602001600020548482815481106115f1576115f0613611565b5b90600052602060002090600702016003015461160d91906133e8565b8482815481106116205761161f613611565b5b90600052602060002090600702016003018190555083818154811061164857611647613611565b5b906000526020600020906007020160040160149054906101000a900460ff166116a95760018482815481106116805761167f613611565b5b906000526020600020906007020160040160146101000a81548160ff0219169083151502179055505b600195506116c5565b80806116bd9061353b565b9150506114d7565b5084611706576040517f08c379a00000000000000000000000000000000000000000000000000000000081526004016116fd9061316c565b60405180910390fd5b3373ffffffffffffffffffffffffffffffffffffffff166108fc83838154811061173357611732613611565b5b90600052602060002090600302016002016000898152602001908152602001600020549081150290604051600060405180830381858888f19350505050158015611781573d6000803e3d6000fd5b50600082828154811061179757611796613611565b5b9060005260206000209060030201600201600088815260200190815260200160002081905550600193506117d9565b80806117d19061353b565b91505061140f565b508261181a576040517f08c379a00000000000000000000000000000000000000000000000000000000081526004016118119061306c565b60405180910390fd5b505050505050565b600260009054906101000a900473ffffffffffffffffffffffffffffffffffffffff1673ffffffffffffffffffffffffffffffffffffffff163373ffffffffffffffffffffffffffffffffffffffff1614156040518060600160405280602f8152602001613aa4602f9139906118ce576040517f08c379a00000000000000000000000000000000000000000000000000000000081526004016118c5919061302a565b60405180910390fd5b506004600086815260200190815260200160002060009054906101000a900460ff1661192f576040517f08c379a00000000000000000000000000000000000000000000000000000000081526004016119269061310c565b60405180910390fd5b6000604051806101000160405280868152602001620f42408152602001858152602001600081526020018473ffffffffffffffffffffffffffffffffffffffff16815260200160011515815260200183815260200160026009811115611998576119976135b3565b5b815250905060008190806001815401808255809150506001900390600052602060002090600702016000909190919091506000820151816000015560208201518160010155604082015181600201556060820151816003015560808201518160040160006101000a81548173ffffffffffffffffffffffffffffffffffffffff021916908373ffffffffffffffffffffffffffffffffffffffff16021790555060a08201518160040160146101000a81548160ff02191690831515021790555060c0820151816005019080519060200190611a749291906129d2565b5060e08201518160060160006101000a81548160ff02191690836009811115611aa057611a9f6135b3565b5b02179055505050600360008781526020019081526020016000208190806001815401808255809150506001900390600052602060002090600702016000909190919091506000820151816000015560208201518160010155604082015181600201556060820151816003015560808201518160040160006101000a81548173ffffffffffffffffffffffffffffffffffffffff021916908373ffffffffffffffffffffffffffffffffffffffff16021790555060a08201518160040160146101000a81548160ff02191690831515021790555060c0820151816005019080519060200190611b8f9291906129d2565b5060e08201518160060160006101000a81548160ff02191690836009811115611bbb57611bba6135b3565b5b02179055505050505050505050565b600260009054906101000a900473ffffffffffffffffffffffffffffffffffffffff1673ffffffffffffffffffffffffffffffffffffffff163373ffffffffffffffffffffffffffffffffffffffff1614604051806060016040528060338152602001613a406033913990611c75576040517f08c379a0000000000000000000000000000000000000000000000000000000008152600401611c6c919061302a565b60405180910390fd5b50600060018381548110611c8c57611c8b613611565b5b9060005260206000209060050201905060018160010160006101000a81548160ff02191690831515021790555060016004600084815260200190815260200160002060006101000a81548160ff021916908315150217905550505050565b606060006003600085815260200190815260200160002090506000818054905011611d4a576040517f08c379a0000000000000000000000000000000000000000000000000000000008152600401611d419061304c565b60405180910390fd5b60005b8180549050811015611e925783828281548110611d6d57611d6c613611565b5b9060005260206000209060070201600001541415611e7f5760076000838381548110611d9c57611d9b613611565b5b906000526020600020906007020160060160009054906101000a900460ff166009811115611dcd57611dcc6135b3565b5b6009811115611ddf57611dde6135b3565b5b81526020019081526020016000208054611df8906134d8565b80601f0160208091040260200160405190810160405280929190818152602001828054611e24906134d8565b8015611e715780601f10611e4657610100808354040283529160200191611e71565b820191906000526020600020905b815481529060010190602001808311611e5457829003601f168201915b505050505092505050611ece565b8080611e8a9061353b565b915050611d4d565b506040517f08c379a0000000000000000000000000000000000000000000000000000000008152600401611ec59061318c565b60405180910390fd5b92915050565b6000806003600085815260200190815260200160002090506000818054905011611f33576040517f08c379a0000000000000000000000000000000000000000000000000000000008152600401611f2a9061304c565b60405180910390fd5b60005b81805490508110156121235783828281548110611f5657611f55613611565b5b90600052602060002090600702016000015414156121105760076009811115611f8257611f816135b3565b5b828281548110611f9557611f94613611565b5b906000526020600020906007020160060160009054906101000a900460ff166009811115611fc657611fc56135b3565b5b14612006576040517f08c379a0000000000000000000000000000000000000000000000000000000008152600401611ffd906130cc565b60405180910390fd5b600060056000868152602001908152602001600020905060005b818054905081101561210557600082828154811061204157612040613611565b5b9060005260206000209060030201600201600088815260200190815260200160002054905082828154811061207957612078613611565b5b906000526020600020906003020160010160009054906101000a900473ffffffffffffffffffffffffffffffffffffffff1673ffffffffffffffffffffffffffffffffffffffff166108fc829081150290604051600060405180830381858888f193505050501580156120f0573d6000803e3d6000fd5b505080806120fd9061353b565b915050612020565b506001935050612123565b808061211b9061353b565b915050611f36565b5081612164576040517f08c379a000000000000000000000000000000000000000000000000000000000815260040161215b9061316c565b60405180910390fd5b50505050565b600260009054906101000a900473ffffffffffffffffffffffffffffffffffffffff1681565b600260009054906101000a900473ffffffffffffffffffffffffffffffffffffffff1673ffffffffffffffffffffffffffffffffffffffff163373ffffffffffffffffffffffffffffffffffffffff1614604051806060016040528060338152602001613a40603391399061223b576040517f08c379a0000000000000000000000000000000000000000000000000000000008152600401612232919061302a565b60405180910390fd5b5060006001838154811061225257612251613611565b5b9060005260206000209060050201905060008160010160006101000a81548160ff021916908315150217905550818160020190805190602001906122979291906129d2565b50505050565b600760205280600052604060002060009150905080546122bc906134d8565b80601f01602080910402602001604051908101604052809291908181526020018280546122e8906134d8565b80156123355780601f1061230a57610100808354040283529160200191612335565b820191906000526020600020905b81548152906001019060200180831161231857829003601f168201915b505050505081565b600080600360008681526020019081526020016000209050600081805490501161239c576040517f08c379a00000000000000000000000000000000000000000000000000000000081526004016123939061304c565b60405180910390fd5b60005b818054905081101561280757848282815481106123bf576123be613611565b5b90600052602060002090600702016000015414156127f4578181815481106123ea576123e9613611565b5b906000526020600020906007020160040160149054906101000a900460ff16156127b05781818154811061242157612420613611565b5b906000526020600020906007020160010154341015612475576040517f08c379a000000000000000000000000000000000000000000000000000000000815260040161246c9061308c565b60405180910390fd5b3482828154811061248957612488613611565b5b9060005260206000209060070201600301546124a59190613392565b8282815481106124b8576124b7613611565b5b9060005260206000209060070201600301819055506000600560008781526020019081526020016000209050600081805490509050600080600090505b83805490508110156125e1573373ffffffffffffffffffffffffffffffffffffffff1684828154811061252b5761252a613611565b5b906000526020600020906003020160010160009054906101000a900473ffffffffffffffffffffffffffffffffffffffff1673ffffffffffffffffffffffffffffffffffffffff1614156125ce573484828154811061258d5761258c613611565b5b906000526020600020906003020160020160008b815260200190815260200160002060008282546125be9190613392565b92505081905550600191506125e1565b80806125d99061353b565b9150506124f5565b5080612691578260018160018154018082558091505003906000526020600020905050600083838154811061261957612618613611565b5b90600052602060002090600302019050878160000181905550338160010160006101000a81548173ffffffffffffffffffffffffffffffffffffffff021916908373ffffffffffffffffffffffffffffffffffffffff160217905550348160020160008b815260200190815260200160002081905550505b8484815481106126a4576126a3613611565b5b9060005260206000209060070201600201548585815481106126c9576126c8613611565b5b90600052602060002090600702016003015414156127a85760038585815481106126f6576126f5613611565b5b906000526020600020906007020160060160006101000a81548160ff02191690836009811115612729576127286135b3565b5b0217905550600085858154811061274357612742613611565b5b906000526020600020906007020160040160146101000a81548160ff0219169083151502179055507f4460a3075d16e0c301975989c352adf5efef3f00e4b1cd798431dddda7179e588989600360405161279f9392919061322d565b60405180910390a15b5050506127eb565b6040517f08c379a00000000000000000000000000000000000000000000000000000000081526004016127e2906131ac565b60405180910390fd5b60019250612807565b80806127ff9061353b565b91505061239f565b5081612848576040517f08c379a000000000000000000000000000000000000000000000000000000000815260040161283f9061318c565b60405180910390fd5b5050505050565b6001818154811061285f57600080fd5b90600052602060002090600502016000915090508060000154908060010160009054906101000a900460ff169080600201805461289b906134d8565b80601f01602080910402602001604051908101604052809291908181526020018280546128c7906134d8565b80156129145780601f106128e957610100808354040283529160200191612914565b820191906000526020600020905b8154815290600101906020018083116128f757829003601f168201915b505050505090806003018054612929906134d8565b80601f0160208091040260200160405190810160405280929190818152602001828054612955906134d8565b80156129a25780601f10612977576101008083540402835291602001916129a2565b820191906000526020600020905b81548152906001019060200180831161298557829003601f168201915b5050505050908060040160009054906101000a900473ffffffffffffffffffffffffffffffffffffffff16905085565b8280546129de906134d8565b90600052602060002090601f016020900481019282612a005760008555612a47565b82601f10612a1957805160ff1916838001178555612a47565b82800160010185558215612a47579182015b82811115612a46578251825591602001919060010190612a2b565b5b509050612a549190612a58565b5090565b5b80821115612a71576000816000905550600101612a59565b5090565b6000612a88612a8384613345565b613320565b905082815260208101848484011115612aa457612aa3613674565b5b612aaf848285613496565b509392505050565b600081359050612ac6816139ea565b92915050565b600081359050612adb81613a01565b92915050565b600082601f830112612af657612af561366f565b5b8135612b06848260208601612a75565b91505092915050565b600081359050612b1e81613a11565b92915050565b600081359050612b3381613a28565b92915050565b600060208284031215612b4f57612b4e61367e565b5b6000612b5d84828501612acc565b91505092915050565b600060208284031215612b7c57612b7b61367e565b5b6000612b8a84828501612b0f565b91505092915050565b60008060408385031215612baa57612ba961367e565b5b6000612bb885828601612b0f565b925050602083013567ffffffffffffffff811115612bd957612bd8613679565b5b612be585828601612ae1565b9150509250929050565b600080600060608486031215612c0857612c0761367e565b5b6000612c1686828701612b0f565b935050602084013567ffffffffffffffff811115612c3757612c36613679565b5b612c4386828701612ae1565b9250506040612c5486828701612ab7565b9150509250925092565b60008060408385031215612c7557612c7461367e565b5b6000612c8385828601612b0f565b9250506020612c9485828601612b0f565b9150509250929050565b600080600060608486031215612cb757612cb661367e565b5b6000612cc586828701612b0f565b9350506020612cd686828701612b0f565b9250506040612ce786828701612b0f565b9150509250925092565b600080600080600060a08688031215612d0d57612d0c61367e565b5b6000612d1b88828901612b0f565b9550506020612d2c88828901612b0f565b9450506040612d3d88828901612b0f565b9350506060612d4e88828901612ab7565b925050608086013567ffffffffffffffff811115612d6f57612d6e613679565b5b612d7b88828901612ae1565b9150509295509295909350565b600080600060608486031215612da157612da061367e565b5b6000612daf86828701612b0f565b9350506020612dc086828701612b0f565b9250506040612dd186828701612b24565b9150509250925092565b612de48161341c565b82525050565b612df38161342e565b82525050565b612e0281613484565b82525050565b6000612e1382613376565b612e1d8185613381565b9350612e2d8185602086016134a5565b612e3681613683565b840191505092915050565b6000612e4e601183613381565b9150612e5982613694565b602082019050919050565b6000612e71602883613381565b9150612e7c826136bd565b604082019050919050565b6000612e94603183613381565b9150612e9f8261370c565b604082019050919050565b6000612eb7604183613381565b9150612ec28261375b565b606082019050919050565b6000612eda603e83613381565b9150612ee5826137d0565b604082019050919050565b6000612efd601583613381565b9150612f088261381f565b602082019050919050565b6000612f20601b83613381565b9150612f2b82613848565b602082019050919050565b6000612f43602383613381565b9150612f4e82613871565b604082019050919050565b6000612f66601583613381565b9150612f71826138c0565b602082019050919050565b6000612f89602583613381565b9150612f94826138e9565b604082019050919050565b6000612fac602883613381565b9150612fb782613938565b604082019050919050565b6000612fcf602c83613381565b9150612fda82613987565b604082019050919050565b612fee8161346d565b82525050565b60006020820190506130096000830184612ddb565b92915050565b60006020820190506130246000830184612df9565b92915050565b600060208201905081810360008301526130448184612e08565b905092915050565b6000602082019050818103600083015261306581612e41565b9050919050565b6000602082019050818103600083015261308581612e64565b9050919050565b600060208201905081810360008301526130a581612e87565b9050919050565b600060208201905081810360008301526130c581612eaa565b9050919050565b600060208201905081810360008301526130e581612ecd565b9050919050565b6000602082019050818103600083015261310581612ef0565b9050919050565b6000602082019050818103600083015261312581612f13565b9050919050565b6000602082019050818103600083015261314581612f36565b9050919050565b6000602082019050818103600083015261316581612f59565b9050919050565b6000602082019050818103600083015261318581612f7c565b9050919050565b600060208201905081810360008301526131a581612f9f565b9050919050565b600060208201905081810360008301526131c581612fc2565b9050919050565b600060a0820190506131e16000830188612fe5565b6131ee6020830187612dea565b81810360408301526132008186612e08565b905081810360608301526132148185612e08565b90506132236080830184612ddb565b9695505050505050565b60006060820190506132426000830186612fe5565b61324f6020830185612fe5565b61325c6040830184612df9565b949350505050565b60006060820190506132796000830186612fe5565b6132866020830185612fe5565b6132936040830184612fe5565b949350505050565b6000610100820190506132b1600083018b612fe5565b6132be602083018a612fe5565b6132cb6040830189612fe5565b6132d86060830188612fe5565b6132e56080830187612ddb565b6132f260a0830186612dea565b81810360c08301526133048185612e08565b905061331360e0830184612df9565b9998505050505050505050565b600061332a61333b565b9050613336828261350a565b919050565b6000604051905090565b600067ffffffffffffffff8211156133605761335f613640565b5b61336982613683565b9050602081019050919050565b600081519050919050565b600082825260208201905092915050565b600061339d8261346d565b91506133a88361346d565b9250827fffffffffffffffffffffffffffffffffffffffffffffffffffffffffffffffff038211156133dd576133dc613584565b5b828201905092915050565b60006133f38261346d565b91506133fe8361346d565b92508282101561341157613410613584565b5b828203905092915050565b60006134278261344d565b9050919050565b60008115159050919050565b6000819050613448826139d6565b919050565b600073ffffffffffffffffffffffffffffffffffffffff82169050919050565b6000819050919050565b600060ff82169050919050565b600061348f8261343a565b9050919050565b82818337600083830152505050565b60005b838110156134c35780820151818401526020810190506134a8565b838111156134d2576000848401525b50505050565b600060028204905060018216806134f057607f821691505b60208210811415613504576135036135e2565b5b50919050565b61351382613683565b810181811067ffffffffffffffff8211171561353257613531613640565b5b80604052505050565b60006135468261346d565b91507fffffffffffffffffffffffffffffffffffffffffffffffffffffffffffffffff82141561357957613578613584565b5b600182019050919050565b7f4e487b7100000000000000000000000000000000000000000000000000000000600052601160045260246000fd5b7f4e487b7100000000000000000000000000000000000000000000000000000000600052602160045260246000fd5b7f4e487b7100000000000000000000000000000000000000000000000000000000600052602260045260246000fd5b7f4e487b7100000000000000000000000000000000000000000000000000000000600052603260045260246000fd5b7f4e487b7100000000000000000000000000000000000000000000000000000000600052604160045260246000fd5b600080fd5b600080fd5b600080fd5b600080fd5b6000601f19601f8301169050919050565b7f43686172697479206e6f7420666f756e64000000000000000000000000000000600082015250565b7f596f7520686176656e277420636f6e747269627574656420666f72207468697360008201527f2070726f6a656374000000000000000000000000000000000000000000000000602082015250565b7f53686f756c642062652067726561746572207468616e206f7220657175616c2060008201527f746f206d696e696d756d20616d6f756e74000000000000000000000000000000602082015250565b7f43616e277420726566756e642061732065786368616e6765207265717565737460008201527f2077617320616c726561647920696e69746961746564207769746820626f617260208201527f6400000000000000000000000000000000000000000000000000000000000000604082015250565b7f43616e277420726566756e642061732065786368616e6765207265717565737460008201527f20776173206e6f742072656a65637465642062792074686520626f6172640000602082015250565b7f50726f6a65637420646f65736e27742065786973740000000000000000000000600082015250565b7f43686172697479206973206e6f742079657420617070726f7665640000000000600082015250565b7f4e6f2070726f6a65637420657869737420756e6465722074686973206368617260008201527f6974790000000000000000000000000000000000000000000000000000000000602082015250565b7f4368617269747920646f65736e27742065786973740000000000000000000000600082015250565b7f4e6f2070726f6a65637420657869737420756e64657220746869732070726f6a60008201527f6563744964000000000000000000000000000000000000000000000000000000602082015250565b7f4e6f20737563682070726f6a65637420657869737420756e646572207468697360008201527f2063686172697479000000000000000000000000000000000000000000000000602082015250565b7f4e6f206d6f726520646f6e6174696f6e7320616363657074656420666f72207460008201527f6869732070726f6a6563742e0000000000000000000000000000000000000000602082015250565b600a81106139e7576139e66135b3565b5b50565b6139f38161341c565b81146139fe57600080fd5b50565b600a8110613a0e57600080fd5b50565b613a1a8161346d565b8114613a2557600080fd5b50565b613a3181613477565b8114613a3c57600080fd5b5056fe54686973206f7065726174696f6e2063616e20626520706572666f726d6564206f6e6c7920627920426f6172642061646d696e596f7520617265206e6f7420617574686f72697a656420746f20757064617465207769746820746869732073746174757354686973206f7065726174696f6e2063616e20626520706572666f726d6564206f6e6c792062792043686172697479a2646970667358221220b9a9f5a11296641244a6f3b2b8bfd1314c446840dfcace058c59d2c8f09b035664736f6c63430008070033a26469706673582212204544919affa2f2049ca940b3e5385290843d777584585735ac0b79b63f023d9264736f6c63430008070033",
			"opcodes": "PUSH1 0x80 PUSH1 0x40 MSTORE CALLVALUE DUP1 ISZERO PUSH2 0x10 JUMPI PUSH1 0x0 DUP1 REVERT JUMPDEST POP PUSH2 0x47C9 DUP1 PUSH2 0x20 PUSH1 0x0 CODECOPY PUSH1 0x0 RETURN INVALID PUSH1 0x80 PUSH1 0x40 MSTORE CALLVALUE DUP1 ISZERO PUSH3 0x11 JUMPI PUSH1 0x0 DUP1 REVERT JUMPDEST POP PUSH1 0x4 CALLDATASIZE LT PUSH3 0x46 JUMPI PUSH1 0x0 CALLDATALOAD PUSH1 0xE0 SHR DUP1 PUSH4 0x3F7C7EB4 EQ PUSH3 0x4B JUMPI DUP1 PUSH4 0x51D4F43E EQ PUSH3 0x57 JUMPI DUP1 PUSH4 0xCA722404 EQ PUSH3 0x8D JUMPI JUMPDEST PUSH1 0x0 DUP1 REVERT JUMPDEST PUSH3 0x55 PUSH3 0xAF JUMP JUMPDEST STOP JUMPDEST PUSH3 0x75 PUSH1 0x4 DUP1 CALLDATASIZE SUB DUP2 ADD SWAP1 PUSH3 0x6F SWAP2 SWAP1 PUSH3 0x2A1 JUMP JUMPDEST PUSH3 0x1AC JUMP JUMPDEST PUSH1 0x40 MLOAD PUSH3 0x84 SWAP2 SWAP1 PUSH3 0x3CB JUMP JUMPDEST PUSH1 0x40 MLOAD DUP1 SWAP2 SUB SWAP1 RETURN JUMPDEST PUSH3 0x97 PUSH3 0x1EC JUMP JUMPDEST PUSH1 0x40 MLOAD PUSH3 0xA6 SWAP2 SWAP1 PUSH3 0x3A7 JUMP JUMPDEST PUSH1 0x40 MLOAD DUP1 SWAP2 SUB SWAP1 RETURN JUMPDEST CALLER PUSH1 0x40 MLOAD PUSH3 0xBE SWAP1 PUSH3 0x27C JUMP JUMPDEST PUSH3 0xCA SWAP2 SWAP1 PUSH3 0x38A JUMP JUMPDEST PUSH1 0x40 MLOAD DUP1 SWAP2 SUB SWAP1 PUSH1 0x0 CREATE DUP1 ISZERO DUP1 ISZERO PUSH3 0xE7 JUMPI RETURNDATASIZE PUSH1 0x0 DUP1 RETURNDATACOPY RETURNDATASIZE PUSH1 0x0 REVERT JUMPDEST POP PUSH1 0x0 DUP1 PUSH2 0x100 EXP DUP2 SLOAD DUP2 PUSH20 0xFFFFFFFFFFFFFFFFFFFFFFFFFFFFFFFFFFFFFFFF MUL NOT AND SWAP1 DUP4 PUSH20 0xFFFFFFFFFFFFFFFFFFFFFFFFFFFFFFFFFFFFFFFF AND MUL OR SWAP1 SSTORE POP PUSH1 0x1 PUSH1 0x0 DUP1 SLOAD SWAP1 PUSH2 0x100 EXP SWAP1 DIV PUSH20 0xFFFFFFFFFFFFFFFFFFFFFFFFFFFFFFFFFFFFFFFF AND SWAP1 DUP1 PUSH1 0x1 DUP2 SLOAD ADD DUP1 DUP3 SSTORE DUP1 SWAP2 POP POP PUSH1 0x1 SWAP1 SUB SWAP1 PUSH1 0x0 MSTORE PUSH1 0x20 PUSH1 0x0 KECCAK256 ADD PUSH1 0x0 SWAP1 SWAP2 SWAP1 SWAP2 SWAP1 SWAP2 PUSH2 0x100 EXP DUP2 SLOAD DUP2 PUSH20 0xFFFFFFFFFFFFFFFFFFFFFFFFFFFFFFFFFFFFFFFF MUL NOT AND SWAP1 DUP4 PUSH20 0xFFFFFFFFFFFFFFFFFFFFFFFFFFFFFFFFFFFFFFFF AND MUL OR SWAP1 SSTORE POP JUMP JUMPDEST PUSH1 0x1 DUP2 DUP2 SLOAD DUP2 LT PUSH3 0x1BD JUMPI PUSH1 0x0 DUP1 REVERT JUMPDEST SWAP1 PUSH1 0x0 MSTORE PUSH1 0x20 PUSH1 0x0 KECCAK256 ADD PUSH1 0x0 SWAP2 POP SLOAD SWAP1 PUSH2 0x100 EXP SWAP1 DIV PUSH20 0xFFFFFFFFFFFFFFFFFFFFFFFFFFFFFFFFFFFFFFFF AND DUP2 JUMP JUMPDEST PUSH1 0x60 PUSH1 0x1 DUP1 SLOAD DUP1 PUSH1 0x20 MUL PUSH1 0x20 ADD PUSH1 0x40 MLOAD SWAP1 DUP2 ADD PUSH1 0x40 MSTORE DUP1 SWAP3 SWAP2 SWAP1 DUP2 DUP2 MSTORE PUSH1 0x20 ADD DUP3 DUP1 SLOAD DUP1 ISZERO PUSH3 0x272 JUMPI PUSH1 0x20 MUL DUP3 ADD SWAP2 SWAP1 PUSH1 0x0 MSTORE PUSH1 0x20 PUSH1 0x0 KECCAK256 SWAP1 JUMPDEST DUP2 PUSH1 0x0 SWAP1 SLOAD SWAP1 PUSH2 0x100 EXP SWAP1 DIV PUSH20 0xFFFFFFFFFFFFFFFFFFFFFFFFFFFFFFFFFFFFFFFF AND PUSH20 0xFFFFFFFFFFFFFFFFFFFFFFFFFFFFFFFFFFFFFFFF AND DUP2 MSTORE PUSH1 0x20 ADD SWAP1 PUSH1 0x1 ADD SWAP1 DUP1 DUP4 GT PUSH3 0x227 JUMPI JUMPDEST POP POP POP POP POP SWAP1 POP SWAP1 JUMP JUMPDEST PUSH2 0x42D9 DUP1 PUSH3 0x4BB DUP4 CODECOPY ADD SWAP1 JUMP JUMPDEST PUSH1 0x0 DUP2 CALLDATALOAD SWAP1 POP PUSH3 0x29B DUP2 PUSH3 0x4A0 JUMP JUMPDEST SWAP3 SWAP2 POP POP JUMP JUMPDEST PUSH1 0x0 PUSH1 0x20 DUP3 DUP5 SUB SLT ISZERO PUSH3 0x2BA JUMPI PUSH3 0x2B9 PUSH3 0x49B JUMP JUMPDEST JUMPDEST PUSH1 0x0 PUSH3 0x2CA DUP5 DUP3 DUP6 ADD PUSH3 0x28A JUMP JUMPDEST SWAP2 POP POP SWAP3 SWAP2 POP POP JUMP JUMPDEST PUSH1 0x0 PUSH3 0x2E1 DUP4 DUP4 PUSH3 0x368 JUMP JUMPDEST PUSH1 0x20 DUP4 ADD SWAP1 POP SWAP3 SWAP2 POP POP JUMP JUMPDEST PUSH3 0x2F8 DUP2 PUSH3 0x421 JUMP JUMPDEST DUP3 MSTORE POP POP JUMP JUMPDEST PUSH1 0x0 PUSH3 0x30B DUP3 PUSH3 0x3F8 JUMP JUMPDEST PUSH3 0x317 DUP2 DUP6 PUSH3 0x410 JUMP JUMPDEST SWAP4 POP PUSH3 0x324 DUP4 PUSH3 0x3E8 JUMP JUMPDEST DUP1 PUSH1 0x0 JUMPDEST DUP4 DUP2 LT ISZERO PUSH3 0x35B JUMPI DUP2 MLOAD PUSH3 0x33F DUP9 DUP3 PUSH3 0x2D3 JUMP JUMPDEST SWAP8 POP PUSH3 0x34C DUP4 PUSH3 0x403 JUMP JUMPDEST SWAP3 POP POP PUSH1 0x1 DUP2 ADD SWAP1 POP PUSH3 0x328 JUMP JUMPDEST POP DUP6 SWAP4 POP POP POP POP SWAP3 SWAP2 POP POP JUMP JUMPDEST PUSH3 0x373 DUP2 PUSH3 0x45F JUMP JUMPDEST DUP3 MSTORE POP POP JUMP JUMPDEST PUSH3 0x384 DUP2 PUSH3 0x45F JUMP JUMPDEST DUP3 MSTORE POP POP JUMP JUMPDEST PUSH1 0x0 PUSH1 0x20 DUP3 ADD SWAP1 POP PUSH3 0x3A1 PUSH1 0x0 DUP4 ADD DUP5 PUSH3 0x2ED JUMP JUMPDEST SWAP3 SWAP2 POP POP JUMP JUMPDEST PUSH1 0x0 PUSH1 0x20 DUP3 ADD SWAP1 POP DUP2 DUP2 SUB PUSH1 0x0 DUP4 ADD MSTORE PUSH3 0x3C3 DUP2 DUP5 PUSH3 0x2FE JUMP JUMPDEST SWAP1 POP SWAP3 SWAP2 POP POP JUMP JUMPDEST PUSH1 0x0 PUSH1 0x20 DUP3 ADD SWAP1 POP PUSH3 0x3E2 PUSH1 0x0 DUP4 ADD DUP5 PUSH3 0x379 JUMP JUMPDEST SWAP3 SWAP2 POP POP JUMP JUMPDEST PUSH1 0x0 DUP2 SWAP1 POP PUSH1 0x20 DUP3 ADD SWAP1 POP SWAP2 SWAP1 POP JUMP JUMPDEST PUSH1 0x0 DUP2 MLOAD SWAP1 POP SWAP2 SWAP1 POP JUMP JUMPDEST PUSH1 0x0 PUSH1 0x20 DUP3 ADD SWAP1 POP SWAP2 SWAP1 POP JUMP JUMPDEST PUSH1 0x0 DUP3 DUP3 MSTORE PUSH1 0x20 DUP3 ADD SWAP1 POP SWAP3 SWAP2 POP POP JUMP JUMPDEST PUSH1 0x0 PUSH3 0x42E DUP3 PUSH3 0x435 JUMP JUMPDEST SWAP1 POP SWAP2 SWAP1 POP JUMP JUMPDEST PUSH1 0x0 PUSH20 0xFFFFFFFFFFFFFFFFFFFFFFFFFFFFFFFFFFFFFFFF DUP3 AND SWAP1 POP SWAP2 SWAP1 POP JUMP JUMPDEST PUSH1 0x0 DUP2 SWAP1 POP SWAP2 SWAP1 POP JUMP JUMPDEST PUSH1 0x0 PUSH3 0x46C DUP3 PUSH3 0x473 JUMP JUMPDEST SWAP1 POP SWAP2 SWAP1 POP JUMP JUMPDEST PUSH1 0x0 PUSH3 0x480 DUP3 PUSH3 0x487 JUMP JUMPDEST SWAP1 POP SWAP2 SWAP1 POP JUMP JUMPDEST PUSH1 0x0 PUSH3 0x494 DUP3 PUSH3 0x435 JUMP JUMPDEST SWAP1 POP SWAP2 SWAP1 POP JUMP JUMPDEST PUSH1 0x0 DUP1 REVERT JUMPDEST PUSH3 0x4AB DUP2 PUSH3 0x455 JUMP JUMPDEST DUP2 EQ PUSH3 0x4B7 JUMPI PUSH1 0x0 DUP1 REVERT JUMPDEST POP JUMP INVALID PUSH1 0x80 PUSH1 0x40 MSTORE CALLVALUE DUP1 ISZERO PUSH3 0x11 JUMPI PUSH1 0x0 DUP1 REVERT JUMPDEST POP PUSH1 0x40 MLOAD PUSH3 0x42D9 CODESIZE SUB DUP1 PUSH3 0x42D9 DUP4 CODECOPY DUP2 DUP2 ADD PUSH1 0x40 MSTORE DUP2 ADD SWAP1 PUSH3 0x37 SWAP2 SWAP1 PUSH3 0x6A8 JUMP JUMPDEST DUP1 PUSH1 0x2 PUSH1 0x0 PUSH2 0x100 EXP DUP2 SLOAD DUP2 PUSH20 0xFFFFFFFFFFFFFFFFFFFFFFFFFFFFFFFFFFFFFFFF MUL NOT AND SWAP1 DUP4 PUSH20 0xFFFFFFFFFFFFFFFFFFFFFFFFFFFFFFFFFFFFFFFF AND MUL OR SWAP1 SSTORE POP PUSH1 0x40 MLOAD DUP1 PUSH1 0x40 ADD PUSH1 0x40 MSTORE DUP1 PUSH1 0x14 DUP2 MSTORE PUSH1 0x20 ADD PUSH32 0x57616974696E6720666F7220617070726F76616C000000000000000000000000 DUP2 MSTORE POP PUSH1 0x7 PUSH1 0x0 DUP1 PUSH1 0x9 DUP2 GT ISZERO PUSH3 0xC8 JUMPI PUSH3 0xC7 PUSH3 0x744 JUMP JUMPDEST JUMPDEST PUSH1 0x9 DUP2 GT ISZERO PUSH3 0xDD JUMPI PUSH3 0xDC PUSH3 0x744 JUMP JUMPDEST JUMPDEST DUP2 MSTORE PUSH1 0x20 ADD SWAP1 DUP2 MSTORE PUSH1 0x20 ADD PUSH1 0x0 KECCAK256 SWAP1 DUP1 MLOAD SWAP1 PUSH1 0x20 ADD SWAP1 PUSH3 0x100 SWAP3 SWAP2 SWAP1 PUSH3 0x5E1 JUMP JUMPDEST POP PUSH1 0x40 MLOAD DUP1 PUSH1 0x40 ADD PUSH1 0x40 MSTORE DUP1 PUSH1 0x8 DUP2 MSTORE PUSH1 0x20 ADD PUSH32 0x417070726F766564000000000000000000000000000000000000000000000000 DUP2 MSTORE POP PUSH1 0x7 PUSH1 0x0 PUSH1 0x2 PUSH1 0x9 DUP2 GT ISZERO PUSH3 0x152 JUMPI PUSH3 0x151 PUSH3 0x744 JUMP JUMPDEST JUMPDEST PUSH1 0x9 DUP2 GT ISZERO PUSH3 0x167 JUMPI PUSH3 0x166 PUSH3 0x744 JUMP JUMPDEST JUMPDEST DUP2 MSTORE PUSH1 0x20 ADD SWAP1 DUP2 MSTORE PUSH1 0x20 ADD PUSH1 0x0 KECCAK256 SWAP1 DUP1 MLOAD SWAP1 PUSH1 0x20 ADD SWAP1 PUSH3 0x18A SWAP3 SWAP2 SWAP1 PUSH3 0x5E1 JUMP JUMPDEST POP PUSH1 0x40 MLOAD DUP1 PUSH1 0x40 ADD PUSH1 0x40 MSTORE DUP1 PUSH1 0x13 DUP2 MSTORE PUSH1 0x20 ADD PUSH32 0x52656A6563746564206279206368617269747900000000000000000000000000 DUP2 MSTORE POP PUSH1 0x7 PUSH1 0x0 PUSH1 0x1 PUSH1 0x9 DUP2 GT ISZERO PUSH3 0x1DC JUMPI PUSH3 0x1DB PUSH3 0x744 JUMP JUMPDEST JUMPDEST PUSH1 0x9 DUP2 GT ISZERO PUSH3 0x1F1 JUMPI PUSH3 0x1F0 PUSH3 0x744 JUMP JUMPDEST JUMPDEST DUP2 MSTORE PUSH1 0x20 ADD SWAP1 DUP2 MSTORE PUSH1 0x20 ADD PUSH1 0x0 KECCAK256 SWAP1 DUP1 MLOAD SWAP1 PUSH1 0x20 ADD SWAP1 PUSH3 0x214 SWAP3 SWAP2 SWAP1 PUSH3 0x5E1 JUMP JUMPDEST POP PUSH1 0x40 MLOAD DUP1 PUSH1 0x40 ADD PUSH1 0x40 MSTORE DUP1 PUSH1 0x15 DUP2 MSTORE PUSH1 0x20 ADD PUSH32 0x50726F6A65637420676F616C2061636869657665640000000000000000000000 DUP2 MSTORE POP PUSH1 0x7 PUSH1 0x0 PUSH1 0x3 PUSH1 0x9 DUP2 GT ISZERO PUSH3 0x266 JUMPI PUSH3 0x265 PUSH3 0x744 JUMP JUMPDEST JUMPDEST PUSH1 0x9 DUP2 GT ISZERO PUSH3 0x27B JUMPI PUSH3 0x27A PUSH3 0x744 JUMP JUMPDEST JUMPDEST DUP2 MSTORE PUSH1 0x20 ADD SWAP1 DUP2 MSTORE PUSH1 0x20 ADD PUSH1 0x0 KECCAK256 SWAP1 DUP1 MLOAD SWAP1 PUSH1 0x20 ADD SWAP1 PUSH3 0x29E SWAP3 SWAP2 SWAP1 PUSH3 0x5E1 JUMP JUMPDEST POP PUSH1 0x40 MLOAD DUP1 PUSH1 0x40 ADD PUSH1 0x40 MSTORE DUP1 PUSH1 0x12 DUP2 MSTORE PUSH1 0x20 ADD PUSH32 0x45786368616E6765207265717565737465640000000000000000000000000000 DUP2 MSTORE POP PUSH1 0x7 PUSH1 0x0 PUSH1 0x4 PUSH1 0x9 DUP2 GT ISZERO PUSH3 0x2F0 JUMPI PUSH3 0x2EF PUSH3 0x744 JUMP JUMPDEST JUMPDEST PUSH1 0x9 DUP2 GT ISZERO PUSH3 0x305 JUMPI PUSH3 0x304 PUSH3 0x744 JUMP JUMPDEST JUMPDEST DUP2 MSTORE PUSH1 0x20 ADD SWAP1 DUP2 MSTORE PUSH1 0x20 ADD PUSH1 0x0 KECCAK256 SWAP1 DUP1 MLOAD SWAP1 PUSH1 0x20 ADD SWAP1 PUSH3 0x328 SWAP3 SWAP2 SWAP1 PUSH3 0x5E1 JUMP JUMPDEST POP PUSH1 0x40 MLOAD DUP1 PUSH1 0x40 ADD PUSH1 0x40 MSTORE DUP1 PUSH1 0x19 DUP2 MSTORE PUSH1 0x20 ADD PUSH32 0x45786368616E6765207265717565737420726563656976656400000000000000 DUP2 MSTORE POP PUSH1 0x7 PUSH1 0x0 PUSH1 0x5 PUSH1 0x9 DUP2 GT ISZERO PUSH3 0x37A JUMPI PUSH3 0x379 PUSH3 0x744 JUMP JUMPDEST JUMPDEST PUSH1 0x9 DUP2 GT ISZERO PUSH3 0x38F JUMPI PUSH3 0x38E PUSH3 0x744 JUMP JUMPDEST JUMPDEST DUP2 MSTORE PUSH1 0x20 ADD SWAP1 DUP2 MSTORE PUSH1 0x20 ADD PUSH1 0x0 KECCAK256 SWAP1 DUP1 MLOAD SWAP1 PUSH1 0x20 ADD SWAP1 PUSH3 0x3B2 SWAP3 SWAP2 SWAP1 PUSH3 0x5E1 JUMP JUMPDEST POP PUSH1 0x40 MLOAD DUP1 PUSH1 0x40 ADD PUSH1 0x40 MSTORE DUP1 PUSH1 0x19 DUP2 MSTORE PUSH1 0x20 ADD PUSH32 0x45786368616E6765207265717565737420617070726F76656400000000000000 DUP2 MSTORE POP PUSH1 0x7 PUSH1 0x0 PUSH1 0x6 PUSH1 0x9 DUP2 GT ISZERO PUSH3 0x404 JUMPI PUSH3 0x403 PUSH3 0x744 JUMP JUMPDEST JUMPDEST PUSH1 0x9 DUP2 GT ISZERO PUSH3 0x419 JUMPI PUSH3 0x418 PUSH3 0x744 JUMP JUMPDEST JUMPDEST DUP2 MSTORE PUSH1 0x20 ADD SWAP1 DUP2 MSTORE PUSH1 0x20 ADD PUSH1 0x0 KECCAK256 SWAP1 DUP1 MLOAD SWAP1 PUSH1 0x20 ADD SWAP1 PUSH3 0x43C SWAP3 SWAP2 SWAP1 PUSH3 0x5E1 JUMP JUMPDEST POP PUSH1 0x40 MLOAD DUP1 PUSH1 0x40 ADD PUSH1 0x40 MSTORE DUP1 PUSH1 0x19 DUP2 MSTORE PUSH1 0x20 ADD PUSH32 0x45786368616E676520726571756573742072656A656374656400000000000000 DUP2 MSTORE POP PUSH1 0x7 PUSH1 0x0 PUSH1 0x7 PUSH1 0x9 DUP2 GT ISZERO PUSH3 0x48E JUMPI PUSH3 0x48D PUSH3 0x744 JUMP JUMPDEST JUMPDEST PUSH1 0x9 DUP2 GT ISZERO PUSH3 0x4A3 JUMPI PUSH3 0x4A2 PUSH3 0x744 JUMP JUMPDEST JUMPDEST DUP2 MSTORE PUSH1 0x20 ADD SWAP1 DUP2 MSTORE PUSH1 0x20 ADD PUSH1 0x0 KECCAK256 SWAP1 DUP1 MLOAD SWAP1 PUSH1 0x20 ADD SWAP1 PUSH3 0x4C6 SWAP3 SWAP2 SWAP1 PUSH3 0x5E1 JUMP JUMPDEST POP PUSH1 0x40 MLOAD DUP1 PUSH1 0x40 ADD PUSH1 0x40 MSTORE DUP1 PUSH1 0xE DUP2 MSTORE PUSH1 0x20 ADD PUSH32 0x46756E647320726566756E646564000000000000000000000000000000000000 DUP2 MSTORE POP PUSH1 0x7 PUSH1 0x0 PUSH1 0x8 PUSH1 0x9 DUP2 GT ISZERO PUSH3 0x518 JUMPI PUSH3 0x517 PUSH3 0x744 JUMP JUMPDEST JUMPDEST PUSH1 0x9 DUP2 GT ISZERO PUSH3 0x52D JUMPI PUSH3 0x52C PUSH3 0x744 JUMP JUMPDEST JUMPDEST DUP2 MSTORE PUSH1 0x20 ADD SWAP1 DUP2 MSTORE PUSH1 0x20 ADD PUSH1 0x0 KECCAK256 SWAP1 DUP1 MLOAD SWAP1 PUSH1 0x20 ADD SWAP1 PUSH3 0x550 SWAP3 SWAP2 SWAP1 PUSH3 0x5E1 JUMP JUMPDEST POP PUSH1 0x40 MLOAD DUP1 PUSH1 0x40 ADD PUSH1 0x40 MSTORE DUP1 PUSH1 0xE DUP2 MSTORE PUSH1 0x20 ADD PUSH32 0x50726F6A65637420636C6F736564000000000000000000000000000000000000 DUP2 MSTORE POP PUSH1 0x7 PUSH1 0x0 PUSH1 0x9 DUP1 DUP2 GT ISZERO PUSH3 0x5A1 JUMPI PUSH3 0x5A0 PUSH3 0x744 JUMP JUMPDEST JUMPDEST PUSH1 0x9 DUP2 GT ISZERO PUSH3 0x5B6 JUMPI PUSH3 0x5B5 PUSH3 0x744 JUMP JUMPDEST JUMPDEST DUP2 MSTORE PUSH1 0x20 ADD SWAP1 DUP2 MSTORE PUSH1 0x20 ADD PUSH1 0x0 KECCAK256 SWAP1 DUP1 MLOAD SWAP1 PUSH1 0x20 ADD SWAP1 PUSH3 0x5D9 SWAP3 SWAP2 SWAP1 PUSH3 0x5E1 JUMP JUMPDEST POP POP PUSH3 0x7C1 JUMP JUMPDEST DUP3 DUP1 SLOAD PUSH3 0x5EF SWAP1 PUSH3 0x70E JUMP JUMPDEST SWAP1 PUSH1 0x0 MSTORE PUSH1 0x20 PUSH1 0x0 KECCAK256 SWAP1 PUSH1 0x1F ADD PUSH1 0x20 SWAP1 DIV DUP2 ADD SWAP3 DUP3 PUSH3 0x613 JUMPI PUSH1 0x0 DUP6 SSTORE PUSH3 0x65F JUMP JUMPDEST DUP3 PUSH1 0x1F LT PUSH3 0x62E JUMPI DUP1 MLOAD PUSH1 0xFF NOT AND DUP4 DUP1 ADD OR DUP6 SSTORE PUSH3 0x65F JUMP JUMPDEST DUP3 DUP1 ADD PUSH1 0x1 ADD DUP6 SSTORE DUP3 ISZERO PUSH3 0x65F JUMPI SWAP2 DUP3 ADD JUMPDEST DUP3 DUP2 GT ISZERO PUSH3 0x65E JUMPI DUP3 MLOAD DUP3 SSTORE SWAP2 PUSH1 0x20 ADD SWAP2 SWAP1 PUSH1 0x1 ADD SWAP1 PUSH3 0x641 JUMP JUMPDEST JUMPDEST POP SWAP1 POP PUSH3 0x66E SWAP2 SWAP1 PUSH3 0x672 JUMP JUMPDEST POP SWAP1 JUMP JUMPDEST JUMPDEST DUP1 DUP3 GT ISZERO PUSH3 0x68D JUMPI PUSH1 0x0 DUP2 PUSH1 0x0 SWAP1 SSTORE POP PUSH1 0x1 ADD PUSH3 0x673 JUMP JUMPDEST POP SWAP1 JUMP JUMPDEST PUSH1 0x0 DUP2 MLOAD SWAP1 POP PUSH3 0x6A2 DUP2 PUSH3 0x7A7 JUMP JUMPDEST SWAP3 SWAP2 POP POP JUMP JUMPDEST PUSH1 0x0 PUSH1 0x20 DUP3 DUP5 SUB SLT ISZERO PUSH3 0x6C1 JUMPI PUSH3 0x6C0 PUSH3 0x7A2 JUMP JUMPDEST JUMPDEST PUSH1 0x0 PUSH3 0x6D1 DUP5 DUP3 DUP6 ADD PUSH3 0x691 JUMP JUMPDEST SWAP2 POP POP SWAP3 SWAP2 POP POP JUMP JUMPDEST PUSH1 0x0 PUSH3 0x6E7 DUP3 PUSH3 0x6EE JUMP JUMPDEST SWAP1 POP SWAP2 SWAP1 POP JUMP JUMPDEST PUSH1 0x0 PUSH20 0xFFFFFFFFFFFFFFFFFFFFFFFFFFFFFFFFFFFFFFFF DUP3 AND SWAP1 POP SWAP2 SWAP1 POP JUMP JUMPDEST PUSH1 0x0 PUSH1 0x2 DUP3 DIV SWAP1 POP PUSH1 0x1 DUP3 AND DUP1 PUSH3 0x727 JUMPI PUSH1 0x7F DUP3 AND SWAP2 POP JUMPDEST PUSH1 0x20 DUP3 LT DUP2 EQ ISZERO PUSH3 0x73E JUMPI PUSH3 0x73D PUSH3 0x773 JUMP JUMPDEST JUMPDEST POP SWAP2 SWAP1 POP JUMP JUMPDEST PUSH32 0x4E487B7100000000000000000000000000000000000000000000000000000000 PUSH1 0x0 MSTORE PUSH1 0x21 PUSH1 0x4 MSTORE PUSH1 0x24 PUSH1 0x0 REVERT JUMPDEST PUSH32 0x4E487B7100000000000000000000000000000000000000000000000000000000 PUSH1 0x0 MSTORE PUSH1 0x22 PUSH1 0x4 MSTORE PUSH1 0x24 PUSH1 0x0 REVERT JUMPDEST PUSH1 0x0 DUP1 REVERT JUMPDEST PUSH3 0x7B2 DUP2 PUSH3 0x6DA JUMP JUMPDEST DUP2 EQ PUSH3 0x7BE JUMPI PUSH1 0x0 DUP1 REVERT JUMPDEST POP JUMP JUMPDEST PUSH2 0x3B08 DUP1 PUSH3 0x7D1 PUSH1 0x0 CODECOPY PUSH1 0x0 RETURN INVALID PUSH1 0x80 PUSH1 0x40 MSTORE PUSH1 0x4 CALLDATASIZE LT PUSH2 0xF3 JUMPI PUSH1 0x0 CALLDATALOAD PUSH1 0xE0 SHR DUP1 PUSH4 0x97ED410C GT PUSH2 0x8A JUMPI DUP1 PUSH4 0xDAF38232 GT PUSH2 0x59 JUMPI DUP1 PUSH4 0xDAF38232 EQ PUSH2 0x32D JUMPI DUP1 PUSH4 0xEF6ADD32 EQ PUSH2 0x356 JUMPI DUP1 PUSH4 0xEF88F48B EQ PUSH2 0x393 JUMPI DUP1 PUSH4 0xFB709D2E EQ PUSH2 0x3AF JUMPI PUSH2 0xF3 JUMP JUMPDEST DUP1 PUSH4 0x97ED410C EQ PUSH2 0x273 JUMPI DUP1 PUSH4 0x9D8E7E89 EQ PUSH2 0x29C JUMPI DUP1 PUSH4 0xB0CA4AF5 EQ PUSH2 0x2D9 JUMPI DUP1 PUSH4 0xB61A7F76 EQ PUSH2 0x302 JUMPI PUSH2 0xF3 JUMP JUMPDEST DUP1 PUSH4 0x2C3730EF GT PUSH2 0xC6 JUMPI DUP1 PUSH4 0x2C3730EF EQ PUSH2 0x1CF JUMPI DUP1 PUSH4 0x3A8565F0 EQ PUSH2 0x1F8 JUMPI DUP1 PUSH4 0x85FA74BC EQ PUSH2 0x221 JUMPI DUP1 PUSH4 0x95DCC366 EQ PUSH2 0x24A JUMPI PUSH2 0xF3 JUMP JUMPDEST DUP1 PUSH4 0x107046BD EQ PUSH2 0xF8 JUMPI DUP1 PUSH4 0x141020CC EQ PUSH2 0x13C JUMPI DUP1 PUSH4 0x1AB33308 EQ PUSH2 0x165 JUMPI DUP1 PUSH4 0x1ED056D8 EQ PUSH2 0x190 JUMPI JUMPDEST PUSH1 0x0 DUP1 REVERT JUMPDEST CALLVALUE DUP1 ISZERO PUSH2 0x104 JUMPI PUSH1 0x0 DUP1 REVERT JUMPDEST POP PUSH2 0x11F PUSH1 0x4 DUP1 CALLDATASIZE SUB DUP2 ADD SWAP1 PUSH2 0x11A SWAP2 SWAP1 PUSH2 0x2B66 JUMP JUMPDEST PUSH2 0x3F0 JUMP JUMPDEST PUSH1 0x40 MLOAD PUSH2 0x133 SWAP9 SWAP8 SWAP7 SWAP6 SWAP5 SWAP4 SWAP3 SWAP2 SWAP1 PUSH2 0x329B JUMP JUMPDEST PUSH1 0x40 MLOAD DUP1 SWAP2 SUB SWAP1 RETURN JUMPDEST CALLVALUE DUP1 ISZERO PUSH2 0x148 JUMPI PUSH1 0x0 DUP1 REVERT JUMPDEST POP PUSH2 0x163 PUSH1 0x4 DUP1 CALLDATASIZE SUB DUP2 ADD SWAP1 PUSH2 0x15E SWAP2 SWAP1 PUSH2 0x2BEF JUMP JUMPDEST PUSH2 0x50A JUMP JUMPDEST STOP JUMPDEST CALLVALUE DUP1 ISZERO PUSH2 0x171 JUMPI PUSH1 0x0 DUP1 REVERT JUMPDEST POP PUSH2 0x17A PUSH2 0x714 JUMP JUMPDEST PUSH1 0x40 MLOAD PUSH2 0x187 SWAP2 SWAP1 PUSH2 0x300F JUMP JUMPDEST PUSH1 0x40 MLOAD DUP1 SWAP2 SUB SWAP1 RETURN JUMPDEST CALLVALUE DUP1 ISZERO PUSH2 0x19C JUMPI PUSH1 0x0 DUP1 REVERT JUMPDEST POP PUSH2 0x1B7 PUSH1 0x4 DUP1 CALLDATASIZE SUB DUP2 ADD SWAP1 PUSH2 0x1B2 SWAP2 SWAP1 PUSH2 0x2C5E JUMP JUMPDEST PUSH2 0x727 JUMP JUMPDEST PUSH1 0x40 MLOAD PUSH2 0x1C6 SWAP4 SWAP3 SWAP2 SWAP1 PUSH2 0x3264 JUMP JUMPDEST PUSH1 0x40 MLOAD DUP1 SWAP2 SUB SWAP1 RETURN JUMPDEST CALLVALUE DUP1 ISZERO PUSH2 0x1DB JUMPI PUSH1 0x0 DUP1 REVERT JUMPDEST POP PUSH2 0x1F6 PUSH1 0x4 DUP1 CALLDATASIZE SUB DUP2 ADD SWAP1 PUSH2 0x1F1 SWAP2 SWAP1 PUSH2 0x2D88 JUMP JUMPDEST PUSH2 0x8C5 JUMP JUMPDEST STOP JUMPDEST CALLVALUE DUP1 ISZERO PUSH2 0x204 JUMPI PUSH1 0x0 DUP1 REVERT JUMPDEST POP PUSH2 0x21F PUSH1 0x4 DUP1 CALLDATASIZE SUB DUP2 ADD SWAP1 PUSH2 0x21A SWAP2 SWAP1 PUSH2 0x2D88 JUMP JUMPDEST PUSH2 0xD5A JUMP JUMPDEST STOP JUMPDEST CALLVALUE DUP1 ISZERO PUSH2 0x22D JUMPI PUSH1 0x0 DUP1 REVERT JUMPDEST POP PUSH2 0x248 PUSH1 0x4 DUP1 CALLDATASIZE SUB DUP2 ADD SWAP1 PUSH2 0x243 SWAP2 SWAP1 PUSH2 0x2C5E JUMP JUMPDEST PUSH2 0x1394 JUMP JUMPDEST STOP JUMPDEST CALLVALUE DUP1 ISZERO PUSH2 0x256 JUMPI PUSH1 0x0 DUP1 REVERT JUMPDEST POP PUSH2 0x271 PUSH1 0x4 DUP1 CALLDATASIZE SUB DUP2 ADD SWAP1 PUSH2 0x26C SWAP2 SWAP1 PUSH2 0x2CF1 JUMP JUMPDEST PUSH2 0x1822 JUMP JUMPDEST STOP JUMPDEST CALLVALUE DUP1 ISZERO PUSH2 0x27F JUMPI PUSH1 0x0 DUP1 REVERT JUMPDEST POP PUSH2 0x29A PUSH1 0x4 DUP1 CALLDATASIZE SUB DUP2 ADD SWAP1 PUSH2 0x295 SWAP2 SWAP1 PUSH2 0x2C5E JUMP JUMPDEST PUSH2 0x1BCA JUMP JUMPDEST STOP JUMPDEST CALLVALUE DUP1 ISZERO PUSH2 0x2A8 JUMPI PUSH1 0x0 DUP1 REVERT JUMPDEST POP PUSH2 0x2C3 PUSH1 0x4 DUP1 CALLDATASIZE SUB DUP2 ADD SWAP1 PUSH2 0x2BE SWAP2 SWAP1 PUSH2 0x2C5E JUMP JUMPDEST PUSH2 0x1CEA JUMP JUMPDEST PUSH1 0x40 MLOAD PUSH2 0x2D0 SWAP2 SWAP1 PUSH2 0x302A JUMP JUMPDEST PUSH1 0x40 MLOAD DUP1 SWAP2 SUB SWAP1 RETURN JUMPDEST CALLVALUE DUP1 ISZERO PUSH2 0x2E5 JUMPI PUSH1 0x0 DUP1 REVERT JUMPDEST POP PUSH2 0x300 PUSH1 0x4 DUP1 CALLDATASIZE SUB DUP2 ADD SWAP1 PUSH2 0x2FB SWAP2 SWAP1 PUSH2 0x2C5E JUMP JUMPDEST PUSH2 0x1ED4 JUMP JUMPDEST STOP JUMPDEST CALLVALUE DUP1 ISZERO PUSH2 0x30E JUMPI PUSH1 0x0 DUP1 REVERT JUMPDEST POP PUSH2 0x317 PUSH2 0x216A JUMP JUMPDEST PUSH1 0x40 MLOAD PUSH2 0x324 SWAP2 SWAP1 PUSH2 0x2FF4 JUMP JUMPDEST PUSH1 0x40 MLOAD DUP1 SWAP2 SUB SWAP1 RETURN JUMPDEST CALLVALUE DUP1 ISZERO PUSH2 0x339 JUMPI PUSH1 0x0 DUP1 REVERT JUMPDEST POP PUSH2 0x354 PUSH1 0x4 DUP1 CALLDATASIZE SUB DUP2 ADD SWAP1 PUSH2 0x34F SWAP2 SWAP1 PUSH2 0x2B93 JUMP JUMPDEST PUSH2 0x2190 JUMP JUMPDEST STOP JUMPDEST CALLVALUE DUP1 ISZERO PUSH2 0x362 JUMPI PUSH1 0x0 DUP1 REVERT JUMPDEST POP PUSH2 0x37D PUSH1 0x4 DUP1 CALLDATASIZE SUB DUP2 ADD SWAP1 PUSH2 0x378 SWAP2 SWAP1 PUSH2 0x2B39 JUMP JUMPDEST PUSH2 0x229D JUMP JUMPDEST PUSH1 0x40 MLOAD PUSH2 0x38A SWAP2 SWAP1 PUSH2 0x302A JUMP JUMPDEST PUSH1 0x40 MLOAD DUP1 SWAP2 SUB SWAP1 RETURN JUMPDEST PUSH2 0x3AD PUSH1 0x4 DUP1 CALLDATASIZE SUB DUP2 ADD SWAP1 PUSH2 0x3A8 SWAP2 SWAP1 PUSH2 0x2C9E JUMP JUMPDEST PUSH2 0x233D JUMP JUMPDEST STOP JUMPDEST CALLVALUE DUP1 ISZERO PUSH2 0x3BB JUMPI PUSH1 0x0 DUP1 REVERT JUMPDEST POP PUSH2 0x3D6 PUSH1 0x4 DUP1 CALLDATASIZE SUB DUP2 ADD SWAP1 PUSH2 0x3D1 SWAP2 SWAP1 PUSH2 0x2B66 JUMP JUMPDEST PUSH2 0x284F JUMP JUMPDEST PUSH1 0x40 MLOAD PUSH2 0x3E7 SWAP6 SWAP5 SWAP4 SWAP3 SWAP2 SWAP1 PUSH2 0x31CC JUMP JUMPDEST PUSH1 0x40 MLOAD DUP1 SWAP2 SUB SWAP1 RETURN JUMPDEST PUSH1 0x0 DUP2 DUP2 SLOAD DUP2 LT PUSH2 0x400 JUMPI PUSH1 0x0 DUP1 REVERT JUMPDEST SWAP1 PUSH1 0x0 MSTORE PUSH1 0x20 PUSH1 0x0 KECCAK256 SWAP1 PUSH1 0x7 MUL ADD PUSH1 0x0 SWAP2 POP SWAP1 POP DUP1 PUSH1 0x0 ADD SLOAD SWAP1 DUP1 PUSH1 0x1 ADD SLOAD SWAP1 DUP1 PUSH1 0x2 ADD SLOAD SWAP1 DUP1 PUSH1 0x3 ADD SLOAD SWAP1 DUP1 PUSH1 0x4 ADD PUSH1 0x0 SWAP1 SLOAD SWAP1 PUSH2 0x100 EXP SWAP1 DIV PUSH20 0xFFFFFFFFFFFFFFFFFFFFFFFFFFFFFFFFFFFFFFFF AND SWAP1 DUP1 PUSH1 0x4 ADD PUSH1 0x14 SWAP1 SLOAD SWAP1 PUSH2 0x100 EXP SWAP1 DIV PUSH1 0xFF AND SWAP1 DUP1 PUSH1 0x5 ADD DUP1 SLOAD PUSH2 0x474 SWAP1 PUSH2 0x34D8 JUMP JUMPDEST DUP1 PUSH1 0x1F ADD PUSH1 0x20 DUP1 SWAP2 DIV MUL PUSH1 0x20 ADD PUSH1 0x40 MLOAD SWAP1 DUP2 ADD PUSH1 0x40 MSTORE DUP1 SWAP3 SWAP2 SWAP1 DUP2 DUP2 MSTORE PUSH1 0x20 ADD DUP3 DUP1 SLOAD PUSH2 0x4A0 SWAP1 PUSH2 0x34D8 JUMP JUMPDEST DUP1 ISZERO PUSH2 0x4ED JUMPI DUP1 PUSH1 0x1F LT PUSH2 0x4C2 JUMPI PUSH2 0x100 DUP1 DUP4 SLOAD DIV MUL DUP4 MSTORE SWAP2 PUSH1 0x20 ADD SWAP2 PUSH2 0x4ED JUMP JUMPDEST DUP3 ADD SWAP2 SWAP1 PUSH1 0x0 MSTORE PUSH1 0x20 PUSH1 0x0 KECCAK256 SWAP1 JUMPDEST DUP2 SLOAD DUP2 MSTORE SWAP1 PUSH1 0x1 ADD SWAP1 PUSH1 0x20 ADD DUP1 DUP4 GT PUSH2 0x4D0 JUMPI DUP3 SWAP1 SUB PUSH1 0x1F AND DUP3 ADD SWAP2 JUMPDEST POP POP POP POP POP SWAP1 DUP1 PUSH1 0x6 ADD PUSH1 0x0 SWAP1 SLOAD SWAP1 PUSH2 0x100 EXP SWAP1 DIV PUSH1 0xFF AND SWAP1 POP DUP9 JUMP JUMPDEST PUSH1 0x2 PUSH1 0x0 SWAP1 SLOAD SWAP1 PUSH2 0x100 EXP SWAP1 DIV PUSH20 0xFFFFFFFFFFFFFFFFFFFFFFFFFFFFFFFFFFFFFFFF AND PUSH20 0xFFFFFFFFFFFFFFFFFFFFFFFFFFFFFFFFFFFFFFFF AND CALLER PUSH20 0xFFFFFFFFFFFFFFFFFFFFFFFFFFFFFFFFFFFFFFFF AND EQ PUSH1 0x40 MLOAD DUP1 PUSH1 0x60 ADD PUSH1 0x40 MSTORE DUP1 PUSH1 0x33 DUP2 MSTORE PUSH1 0x20 ADD PUSH2 0x3A40 PUSH1 0x33 SWAP2 CODECOPY SWAP1 PUSH2 0x5B5 JUMPI PUSH1 0x40 MLOAD PUSH32 0x8C379A000000000000000000000000000000000000000000000000000000000 DUP2 MSTORE PUSH1 0x4 ADD PUSH2 0x5AC SWAP2 SWAP1 PUSH2 0x302A JUMP JUMPDEST PUSH1 0x40 MLOAD DUP1 SWAP2 SUB SWAP1 REVERT JUMPDEST POP PUSH1 0x0 PUSH1 0x40 MLOAD DUP1 PUSH1 0xA0 ADD PUSH1 0x40 MSTORE DUP1 DUP6 DUP2 MSTORE PUSH1 0x20 ADD PUSH1 0x1 ISZERO ISZERO DUP2 MSTORE PUSH1 0x20 ADD PUSH1 0x40 MLOAD DUP1 PUSH1 0x20 ADD PUSH1 0x40 MSTORE DUP1 PUSH1 0x0 DUP2 MSTORE POP DUP2 MSTORE PUSH1 0x20 ADD DUP5 DUP2 MSTORE PUSH1 0x20 ADD DUP4 PUSH20 0xFFFFFFFFFFFFFFFFFFFFFFFFFFFFFFFFFFFFFFFF AND DUP2 MSTORE POP SWAP1 POP PUSH1 0x1 DUP2 SWAP1 DUP1 PUSH1 0x1 DUP2 SLOAD ADD DUP1 DUP3 SSTORE DUP1 SWAP2 POP POP PUSH1 0x1 SWAP1 SUB SWAP1 PUSH1 0x0 MSTORE PUSH1 0x20 PUSH1 0x0 KECCAK256 SWAP1 PUSH1 0x5 MUL ADD PUSH1 0x0 SWAP1 SWAP2 SWAP1 SWAP2 SWAP1 SWAP2 POP PUSH1 0x0 DUP3 ADD MLOAD DUP2 PUSH1 0x0 ADD SSTORE PUSH1 0x20 DUP3 ADD MLOAD DUP2 PUSH1 0x1 ADD PUSH1 0x0 PUSH2 0x100 EXP DUP2 SLOAD DUP2 PUSH1 0xFF MUL NOT AND SWAP1 DUP4 ISZERO ISZERO MUL OR SWAP1 SSTORE POP PUSH1 0x40 DUP3 ADD MLOAD DUP2 PUSH1 0x2 ADD SWAP1 DUP1 MLOAD SWAP1 PUSH1 0x20 ADD SWAP1 PUSH2 0x67B SWAP3 SWAP2 SWAP1 PUSH2 0x29D2 JUMP JUMPDEST POP PUSH1 0x60 DUP3 ADD MLOAD DUP2 PUSH1 0x3 ADD SWAP1 DUP1 MLOAD SWAP1 PUSH1 0x20 ADD SWAP1 PUSH2 0x698 SWAP3 SWAP2 SWAP1 PUSH2 0x29D2 JUMP JUMPDEST POP PUSH1 0x80 DUP3 ADD MLOAD DUP2 PUSH1 0x4 ADD PUSH1 0x0 PUSH2 0x100 EXP DUP2 SLOAD DUP2 PUSH20 0xFFFFFFFFFFFFFFFFFFFFFFFFFFFFFFFFFFFFFFFF MUL NOT AND SWAP1 DUP4 PUSH20 0xFFFFFFFFFFFFFFFFFFFFFFFFFFFFFFFFFFFFFFFF AND MUL OR SWAP1 SSTORE POP POP POP PUSH1 0x1 PUSH1 0x4 PUSH1 0x0 DUP7 DUP2 MSTORE PUSH1 0x20 ADD SWAP1 DUP2 MSTORE PUSH1 0x20 ADD PUSH1 0x0 KECCAK256 PUSH1 0x0 PUSH2 0x100 EXP DUP2 SLOAD DUP2 PUSH1 0xFF MUL NOT AND SWAP1 DUP4 ISZERO ISZERO MUL OR SWAP1 SSTORE POP POP POP POP POP JUMP JUMPDEST PUSH1 0x6 PUSH1 0x0 SWAP1 SLOAD SWAP1 PUSH2 0x100 EXP SWAP1 DIV PUSH1 0xFF AND DUP2 JUMP JUMPDEST PUSH1 0x0 DUP1 PUSH1 0x0 DUP1 PUSH1 0x3 PUSH1 0x0 DUP8 DUP2 MSTORE PUSH1 0x20 ADD SWAP1 DUP2 MSTORE PUSH1 0x20 ADD PUSH1 0x0 KECCAK256 SWAP1 POP PUSH1 0x0 DUP2 DUP1 SLOAD SWAP1 POP GT PUSH2 0x789 JUMPI PUSH1 0x40 MLOAD PUSH32 0x8C379A000000000000000000000000000000000000000000000000000000000 DUP2 MSTORE PUSH1 0x4 ADD PUSH2 0x780 SWAP1 PUSH2 0x314C JUMP JUMPDEST PUSH1 0x40 MLOAD DUP1 SWAP2 SUB SWAP1 REVERT JUMPDEST PUSH1 0x0 JUMPDEST DUP2 DUP1 SLOAD SWAP1 POP DUP2 LT ISZERO PUSH2 0x882 JUMPI DUP6 DUP3 DUP3 DUP2 SLOAD DUP2 LT PUSH2 0x7AC JUMPI PUSH2 0x7AB PUSH2 0x3611 JUMP JUMPDEST JUMPDEST SWAP1 PUSH1 0x0 MSTORE PUSH1 0x20 PUSH1 0x0 KECCAK256 SWAP1 PUSH1 0x7 MUL ADD PUSH1 0x0 ADD SLOAD EQ ISZERO PUSH2 0x86F JUMPI DUP2 DUP2 DUP2 SLOAD DUP2 LT PUSH2 0x7D7 JUMPI PUSH2 0x7D6 PUSH2 0x3611 JUMP JUMPDEST JUMPDEST SWAP1 PUSH1 0x0 MSTORE PUSH1 0x20 PUSH1 0x0 KECCAK256 SWAP1 PUSH1 0x7 MUL ADD PUSH1 0x2 ADD SLOAD DUP3 DUP3 DUP2 SLOAD DUP2 LT PUSH2 0x7FC JUMPI PUSH2 0x7FB PUSH2 0x3611 JUMP JUMPDEST JUMPDEST SWAP1 PUSH1 0x0 MSTORE PUSH1 0x20 PUSH1 0x0 KECCAK256 SWAP1 PUSH1 0x7 MUL ADD PUSH1 0x3 ADD SLOAD DUP4 DUP4 DUP2 SLOAD DUP2 LT PUSH2 0x821 JUMPI PUSH2 0x820 PUSH2 0x3611 JUMP JUMPDEST JUMPDEST SWAP1 PUSH1 0x0 MSTORE PUSH1 0x20 PUSH1 0x0 KECCAK256 SWAP1 PUSH1 0x7 MUL ADD PUSH1 0x3 ADD SLOAD DUP5 DUP5 DUP2 SLOAD DUP2 LT PUSH2 0x846 JUMPI PUSH2 0x845 PUSH2 0x3611 JUMP JUMPDEST JUMPDEST SWAP1 PUSH1 0x0 MSTORE PUSH1 0x20 PUSH1 0x0 KECCAK256 SWAP1 PUSH1 0x7 MUL ADD PUSH1 0x2 ADD SLOAD PUSH2 0x862 SWAP2 SWAP1 PUSH2 0x33E8 JUMP JUMPDEST SWAP5 POP SWAP5 POP SWAP5 POP POP POP PUSH2 0x8BE JUMP JUMPDEST DUP1 DUP1 PUSH2 0x87A SWAP1 PUSH2 0x353B JUMP JUMPDEST SWAP2 POP POP PUSH2 0x78C JUMP JUMPDEST POP PUSH1 0x40 MLOAD PUSH32 0x8C379A000000000000000000000000000000000000000000000000000000000 DUP2 MSTORE PUSH1 0x4 ADD PUSH2 0x8B5 SWAP1 PUSH2 0x318C JUMP JUMPDEST PUSH1 0x40 MLOAD DUP1 SWAP2 SUB SWAP1 REVERT JUMPDEST SWAP3 POP SWAP3 POP SWAP3 JUMP JUMPDEST PUSH1 0x2 PUSH1 0x0 SWAP1 SLOAD SWAP1 PUSH2 0x100 EXP SWAP1 DIV PUSH20 0xFFFFFFFFFFFFFFFFFFFFFFFFFFFFFFFFFFFFFFFF AND PUSH20 0xFFFFFFFFFFFFFFFFFFFFFFFFFFFFFFFFFFFFFFFF AND CALLER PUSH20 0xFFFFFFFFFFFFFFFFFFFFFFFFFFFFFFFFFFFFFFFF AND EQ PUSH1 0x40 MLOAD DUP1 PUSH1 0x60 ADD PUSH1 0x40 MSTORE DUP1 PUSH1 0x33 DUP2 MSTORE PUSH1 0x20 ADD PUSH2 0x3A40 PUSH1 0x33 SWAP2 CODECOPY SWAP1 PUSH2 0x970 JUMPI PUSH1 0x40 MLOAD PUSH32 0x8C379A000000000000000000000000000000000000000000000000000000000 DUP2 MSTORE PUSH1 0x4 ADD PUSH2 0x967 SWAP2 SWAP1 PUSH2 0x302A JUMP JUMPDEST PUSH1 0x40 MLOAD DUP1 SWAP2 SUB SWAP1 REVERT JUMPDEST POP PUSH1 0x0 PUSH1 0x9 DUP2 GT ISZERO PUSH2 0x985 JUMPI PUSH2 0x984 PUSH2 0x35B3 JUMP JUMPDEST JUMPDEST DUP2 PUSH1 0xFF AND PUSH1 0x9 DUP2 GT ISZERO PUSH2 0x99B JUMPI PUSH2 0x99A PUSH2 0x35B3 JUMP JUMPDEST JUMPDEST PUSH1 0x9 DUP2 GT ISZERO PUSH2 0x9AD JUMPI PUSH2 0x9AC PUSH2 0x35B3 JUMP JUMPDEST JUMPDEST EQ ISZERO PUSH1 0x40 MLOAD DUP1 PUSH1 0x60 ADD PUSH1 0x40 MSTORE DUP1 PUSH1 0x31 DUP2 MSTORE PUSH1 0x20 ADD PUSH2 0x3A73 PUSH1 0x31 SWAP2 CODECOPY SWAP1 PUSH2 0xA09 JUMPI PUSH1 0x40 MLOAD PUSH32 0x8C379A000000000000000000000000000000000000000000000000000000000 DUP2 MSTORE PUSH1 0x4 ADD PUSH2 0xA00 SWAP2 SWAP1 PUSH2 0x302A JUMP JUMPDEST PUSH1 0x40 MLOAD DUP1 SWAP2 SUB SWAP1 REVERT JUMPDEST POP PUSH1 0x2 PUSH1 0x9 DUP2 GT ISZERO PUSH2 0xA1E JUMPI PUSH2 0xA1D PUSH2 0x35B3 JUMP JUMPDEST JUMPDEST DUP2 PUSH1 0xFF AND PUSH1 0x9 DUP2 GT ISZERO PUSH2 0xA34 JUMPI PUSH2 0xA33 PUSH2 0x35B3 JUMP JUMPDEST JUMPDEST PUSH1 0x9 DUP2 GT ISZERO PUSH2 0xA46 JUMPI PUSH2 0xA45 PUSH2 0x35B3 JUMP JUMPDEST JUMPDEST EQ ISZERO PUSH1 0x40 MLOAD DUP1 PUSH1 0x60 ADD PUSH1 0x40 MSTORE DUP1 PUSH1 0x31 DUP2 MSTORE PUSH1 0x20 ADD PUSH2 0x3A73 PUSH1 0x31 SWAP2 CODECOPY SWAP1 PUSH2 0xAA2 JUMPI PUSH1 0x40 MLOAD PUSH32 0x8C379A000000000000000000000000000000000000000000000000000000000 DUP2 MSTORE PUSH1 0x4 ADD PUSH2 0xA99 SWAP2 SWAP1 PUSH2 0x302A JUMP JUMPDEST PUSH1 0x40 MLOAD DUP1 SWAP2 SUB SWAP1 REVERT JUMPDEST POP PUSH1 0x3 PUSH1 0x9 DUP2 GT ISZERO PUSH2 0xAB7 JUMPI PUSH2 0xAB6 PUSH2 0x35B3 JUMP JUMPDEST JUMPDEST DUP2 PUSH1 0xFF AND PUSH1 0x9 DUP2 GT ISZERO PUSH2 0xACD JUMPI PUSH2 0xACC PUSH2 0x35B3 JUMP JUMPDEST JUMPDEST PUSH1 0x9 DUP2 GT ISZERO PUSH2 0xADF JUMPI PUSH2 0xADE PUSH2 0x35B3 JUMP JUMPDEST JUMPDEST EQ ISZERO PUSH1 0x40 MLOAD DUP1 PUSH1 0x60 ADD PUSH1 0x40 MSTORE DUP1 PUSH1 0x31 DUP2 MSTORE PUSH1 0x20 ADD PUSH2 0x3A73 PUSH1 0x31 SWAP2 CODECOPY SWAP1 PUSH2 0xB3B JUMPI PUSH1 0x40 MLOAD PUSH32 0x8C379A000000000000000000000000000000000000000000000000000000000 DUP2 MSTORE PUSH1 0x4 ADD PUSH2 0xB32 SWAP2 SWAP1 PUSH2 0x302A JUMP JUMPDEST PUSH1 0x40 MLOAD DUP1 SWAP2 SUB SWAP1 REVERT JUMPDEST POP PUSH1 0x4 PUSH1 0x9 DUP2 GT ISZERO PUSH2 0xB50 JUMPI PUSH2 0xB4F PUSH2 0x35B3 JUMP JUMPDEST JUMPDEST DUP2 PUSH1 0xFF AND PUSH1 0x9 DUP2 GT ISZERO PUSH2 0xB66 JUMPI PUSH2 0xB65 PUSH2 0x35B3 JUMP JUMPDEST JUMPDEST PUSH1 0x9 DUP2 GT ISZERO PUSH2 0xB78 JUMPI PUSH2 0xB77 PUSH2 0x35B3 JUMP JUMPDEST JUMPDEST EQ ISZERO PUSH1 0x40 MLOAD DUP1 PUSH1 0x60 ADD PUSH1 0x40 MSTORE DUP1 PUSH1 0x31 DUP2 MSTORE PUSH1 0x20 ADD PUSH2 0x3A73 PUSH1 0x31 SWAP2 CODECOPY SWAP1 PUSH2 0xBD4 JUMPI PUSH1 0x40 MLOAD PUSH32 0x8C379A000000000000000000000000000000000000000000000000000000000 DUP2 MSTORE PUSH1 0x4 ADD PUSH2 0xBCB SWAP2 SWAP1 PUSH2 0x302A JUMP JUMPDEST PUSH1 0x40 MLOAD DUP1 SWAP2 SUB SWAP1 REVERT JUMPDEST POP PUSH1 0x0 PUSH1 0x3 PUSH1 0x0 DUP5 DUP2 MSTORE PUSH1 0x20 ADD SWAP1 DUP2 MSTORE PUSH1 0x20 ADD PUSH1 0x0 KECCAK256 SWAP1 POP PUSH1 0x0 DUP2 DUP1 SLOAD SWAP1 POP GT PUSH2 0xC33 JUMPI PUSH1 0x40 MLOAD PUSH32 0x8C379A000000000000000000000000000000000000000000000000000000000 DUP2 MSTORE PUSH1 0x4 ADD PUSH2 0xC2A SWAP1 PUSH2 0x312C JUMP JUMPDEST PUSH1 0x40 MLOAD DUP1 SWAP2 SUB SWAP1 REVERT JUMPDEST PUSH1 0x0 JUMPDEST DUP2 DUP1 SLOAD SWAP1 POP DUP2 LT ISZERO PUSH2 0xD53 JUMPI DUP5 DUP3 DUP3 DUP2 SLOAD DUP2 LT PUSH2 0xC56 JUMPI PUSH2 0xC55 PUSH2 0x3611 JUMP JUMPDEST JUMPDEST SWAP1 PUSH1 0x0 MSTORE PUSH1 0x20 PUSH1 0x0 KECCAK256 SWAP1 PUSH1 0x7 MUL ADD PUSH1 0x0 ADD SLOAD EQ ISZERO PUSH2 0xD40 JUMPI DUP3 PUSH1 0xFF AND PUSH1 0x9 DUP2 GT ISZERO PUSH2 0xC84 JUMPI PUSH2 0xC83 PUSH2 0x35B3 JUMP JUMPDEST JUMPDEST DUP3 DUP3 DUP2 SLOAD DUP2 LT PUSH2 0xC97 JUMPI PUSH2 0xC96 PUSH2 0x3611 JUMP JUMPDEST JUMPDEST SWAP1 PUSH1 0x0 MSTORE PUSH1 0x20 PUSH1 0x0 KECCAK256 SWAP1 PUSH1 0x7 MUL ADD PUSH1 0x6 ADD PUSH1 0x0 PUSH2 0x100 EXP DUP2 SLOAD DUP2 PUSH1 0xFF MUL NOT AND SWAP1 DUP4 PUSH1 0x9 DUP2 GT ISZERO PUSH2 0xCCA JUMPI PUSH2 0xCC9 PUSH2 0x35B3 JUMP JUMPDEST JUMPDEST MUL OR SWAP1 SSTORE POP PUSH32 0x42B0281EF1BA120F08AE315789F8639D48731DB33EAAC502B629A775C997471B DUP5 DUP7 DUP5 DUP5 DUP2 SLOAD DUP2 LT PUSH2 0xD05 JUMPI PUSH2 0xD04 PUSH2 0x3611 JUMP JUMPDEST JUMPDEST SWAP1 PUSH1 0x0 MSTORE PUSH1 0x20 PUSH1 0x0 KECCAK256 SWAP1 PUSH1 0x7 MUL ADD PUSH1 0x6 ADD PUSH1 0x0 SWAP1 SLOAD SWAP1 PUSH2 0x100 EXP SWAP1 DIV PUSH1 0xFF AND PUSH1 0x40 MLOAD PUSH2 0xD33 SWAP4 SWAP3 SWAP2 SWAP1 PUSH2 0x322D JUMP JUMPDEST PUSH1 0x40 MLOAD DUP1 SWAP2 SUB SWAP1 LOG1 PUSH2 0xD53 JUMP JUMPDEST DUP1 DUP1 PUSH2 0xD4B SWAP1 PUSH2 0x353B JUMP JUMPDEST SWAP2 POP POP PUSH2 0xC36 JUMP JUMPDEST POP POP POP POP POP JUMP JUMPDEST PUSH1 0x2 PUSH1 0x0 SWAP1 SLOAD SWAP1 PUSH2 0x100 EXP SWAP1 DIV PUSH20 0xFFFFFFFFFFFFFFFFFFFFFFFFFFFFFFFFFFFFFFFF AND PUSH20 0xFFFFFFFFFFFFFFFFFFFFFFFFFFFFFFFFFFFFFFFF AND CALLER PUSH20 0xFFFFFFFFFFFFFFFFFFFFFFFFFFFFFFFFFFFFFFFF AND EQ ISZERO PUSH1 0x40 MLOAD DUP1 PUSH1 0x60 ADD PUSH1 0x40 MSTORE DUP1 PUSH1 0x2F DUP2 MSTORE PUSH1 0x20 ADD PUSH2 0x3AA4 PUSH1 0x2F SWAP2 CODECOPY SWAP1 PUSH2 0xE06 JUMPI PUSH1 0x40 MLOAD PUSH32 0x8C379A000000000000000000000000000000000000000000000000000000000 DUP2 MSTORE PUSH1 0x4 ADD PUSH2 0xDFD SWAP2 SWAP1 PUSH2 0x302A JUMP JUMPDEST PUSH1 0x40 MLOAD DUP1 SWAP2 SUB SWAP1 REVERT JUMPDEST POP PUSH1 0x0 PUSH1 0x3 PUSH1 0x9 DUP2 GT ISZERO PUSH2 0xE1D JUMPI PUSH2 0xE1C PUSH2 0x35B3 JUMP JUMPDEST JUMPDEST DUP3 PUSH1 0xFF AND PUSH1 0x9 DUP2 GT ISZERO PUSH2 0xE33 JUMPI PUSH2 0xE32 PUSH2 0x35B3 JUMP JUMPDEST JUMPDEST PUSH1 0x9 DUP2 GT ISZERO PUSH2 0xE45 JUMPI PUSH2 0xE44 PUSH2 0x35B3 JUMP JUMPDEST JUMPDEST EQ ISZERO PUSH1 0x40 MLOAD DUP1 PUSH1 0x60 ADD PUSH1 0x40 MSTORE DUP1 PUSH1 0x31 DUP2 MSTORE PUSH1 0x20 ADD PUSH2 0x3A73 PUSH1 0x31 SWAP2 CODECOPY SWAP1 PUSH2 0xEA1 JUMPI PUSH1 0x40 MLOAD PUSH32 0x8C379A000000000000000000000000000000000000000000000000000000000 DUP2 MSTORE PUSH1 0x4 ADD PUSH2 0xE98 SWAP2 SWAP1 PUSH2 0x302A JUMP JUMPDEST PUSH1 0x40 MLOAD DUP1 SWAP2 SUB SWAP1 REVERT JUMPDEST POP PUSH1 0x5 PUSH1 0x9 DUP2 GT ISZERO PUSH2 0xEB6 JUMPI PUSH2 0xEB5 PUSH2 0x35B3 JUMP JUMPDEST JUMPDEST DUP3 PUSH1 0xFF AND PUSH1 0x9 DUP2 GT ISZERO PUSH2 0xECC JUMPI PUSH2 0xECB PUSH2 0x35B3 JUMP JUMPDEST JUMPDEST PUSH1 0x9 DUP2 GT ISZERO PUSH2 0xEDE JUMPI PUSH2 0xEDD PUSH2 0x35B3 JUMP JUMPDEST JUMPDEST EQ ISZERO PUSH1 0x40 MLOAD DUP1 PUSH1 0x60 ADD PUSH1 0x40 MSTORE DUP1 PUSH1 0x31 DUP2 MSTORE PUSH1 0x20 ADD PUSH2 0x3A73 PUSH1 0x31 SWAP2 CODECOPY SWAP1 PUSH2 0xF3A JUMPI PUSH1 0x40 MLOAD PUSH32 0x8C379A000000000000000000000000000000000000000000000000000000000 DUP2 MSTORE PUSH1 0x4 ADD PUSH2 0xF31 SWAP2 SWAP1 PUSH2 0x302A JUMP JUMPDEST PUSH1 0x40 MLOAD DUP1 SWAP2 SUB SWAP1 REVERT JUMPDEST POP PUSH1 0x6 PUSH1 0x9 DUP2 GT ISZERO PUSH2 0xF4F JUMPI PUSH2 0xF4E PUSH2 0x35B3 JUMP JUMPDEST JUMPDEST DUP3 PUSH1 0xFF AND PUSH1 0x9 DUP2 GT ISZERO PUSH2 0xF65 JUMPI PUSH2 0xF64 PUSH2 0x35B3 JUMP JUMPDEST JUMPDEST PUSH1 0x9 DUP2 GT ISZERO PUSH2 0xF77 JUMPI PUSH2 0xF76 PUSH2 0x35B3 JUMP JUMPDEST JUMPDEST EQ ISZERO PUSH1 0x40 MLOAD DUP1 PUSH1 0x60 ADD PUSH1 0x40 MSTORE DUP1 PUSH1 0x31 DUP2 MSTORE PUSH1 0x20 ADD PUSH2 0x3A73 PUSH1 0x31 SWAP2 CODECOPY SWAP1 PUSH2 0xFD3 JUMPI PUSH1 0x40 MLOAD PUSH32 0x8C379A000000000000000000000000000000000000000000000000000000000 DUP2 MSTORE PUSH1 0x4 ADD PUSH2 0xFCA SWAP2 SWAP1 PUSH2 0x302A JUMP JUMPDEST PUSH1 0x40 MLOAD DUP1 SWAP2 SUB SWAP1 REVERT JUMPDEST POP PUSH1 0x0 PUSH1 0x3 PUSH1 0x0 DUP6 DUP2 MSTORE PUSH1 0x20 ADD SWAP1 DUP2 MSTORE PUSH1 0x20 ADD PUSH1 0x0 KECCAK256 SWAP1 POP PUSH1 0x0 DUP2 DUP1 SLOAD SWAP1 POP GT PUSH2 0x1032 JUMPI PUSH1 0x40 MLOAD PUSH32 0x8C379A000000000000000000000000000000000000000000000000000000000 DUP2 MSTORE PUSH1 0x4 ADD PUSH2 0x1029 SWAP1 PUSH2 0x30EC JUMP JUMPDEST PUSH1 0x40 MLOAD DUP1 SWAP2 SUB SWAP1 REVERT JUMPDEST PUSH1 0x0 JUMPDEST DUP2 DUP1 SLOAD SWAP1 POP DUP2 LT ISZERO PUSH2 0x138C JUMPI DUP6 DUP3 DUP3 DUP2 SLOAD DUP2 LT PUSH2 0x1055 JUMPI PUSH2 0x1054 PUSH2 0x3611 JUMP JUMPDEST JUMPDEST SWAP1 PUSH1 0x0 MSTORE PUSH1 0x20 PUSH1 0x0 KECCAK256 SWAP1 PUSH1 0x7 MUL ADD PUSH1 0x0 ADD SLOAD EQ ISZERO PUSH2 0x136E JUMPI PUSH1 0x1 SWAP3 POP PUSH1 0x0 DUP3 DUP3 DUP2 SLOAD DUP2 LT PUSH2 0x1086 JUMPI PUSH2 0x1085 PUSH2 0x3611 JUMP JUMPDEST JUMPDEST SWAP1 PUSH1 0x0 MSTORE PUSH1 0x20 PUSH1 0x0 KECCAK256 SWAP1 PUSH1 0x7 MUL ADD PUSH1 0x4 ADD PUSH1 0x14 PUSH2 0x100 EXP DUP2 SLOAD DUP2 PUSH1 0xFF MUL NOT AND SWAP1 DUP4 ISZERO ISZERO MUL OR SWAP1 SSTORE POP PUSH1 0x7 PUSH1 0x9 DUP2 GT ISZERO PUSH2 0x10C2 JUMPI PUSH2 0x10C1 PUSH2 0x35B3 JUMP JUMPDEST JUMPDEST DUP5 PUSH1 0xFF AND PUSH1 0x9 DUP2 GT ISZERO PUSH2 0x10D8 JUMPI PUSH2 0x10D7 PUSH2 0x35B3 JUMP JUMPDEST JUMPDEST PUSH1 0x9 DUP2 GT ISZERO PUSH2 0x10EA JUMPI PUSH2 0x10E9 PUSH2 0x35B3 JUMP JUMPDEST JUMPDEST EQ DUP1 PUSH2 0x112F JUMPI POP PUSH1 0x6 PUSH1 0x9 DUP2 GT ISZERO PUSH2 0x1105 JUMPI PUSH2 0x1104 PUSH2 0x35B3 JUMP JUMPDEST JUMPDEST DUP5 PUSH1 0xFF AND PUSH1 0x9 DUP2 GT ISZERO PUSH2 0x111B JUMPI PUSH2 0x111A PUSH2 0x35B3 JUMP JUMPDEST JUMPDEST PUSH1 0x9 DUP2 GT ISZERO PUSH2 0x112D JUMPI PUSH2 0x112C PUSH2 0x35B3 JUMP JUMPDEST JUMPDEST EQ JUMPDEST ISZERO PUSH2 0x128C JUMPI PUSH32 0x2DE098063448DBE8B26FA82794CD68CF748EDB4F3E2CC43166E3AD659757019E DUP6 DUP8 DUP7 PUSH1 0xFF AND PUSH1 0x9 DUP2 GT ISZERO PUSH2 0x116D JUMPI PUSH2 0x116C PUSH2 0x35B3 JUMP JUMPDEST JUMPDEST PUSH1 0x40 MLOAD PUSH2 0x117C SWAP4 SWAP3 SWAP2 SWAP1 PUSH2 0x322D JUMP JUMPDEST PUSH1 0x40 MLOAD DUP1 SWAP2 SUB SWAP1 LOG1 PUSH1 0x7 PUSH1 0x9 DUP2 GT ISZERO PUSH2 0x1198 JUMPI PUSH2 0x1197 PUSH2 0x35B3 JUMP JUMPDEST JUMPDEST DUP5 PUSH1 0xFF AND PUSH1 0x9 DUP2 GT ISZERO PUSH2 0x11AE JUMPI PUSH2 0x11AD PUSH2 0x35B3 JUMP JUMPDEST JUMPDEST PUSH1 0x9 DUP2 GT ISZERO PUSH2 0x11C0 JUMPI PUSH2 0x11BF PUSH2 0x35B3 JUMP JUMPDEST JUMPDEST EQ ISZERO PUSH2 0x1207 JUMPI PUSH32 0xBD0E0CBB7F526D9C7052B56C5D1873EE7B834959CD785B696DD0F9D418D9617A DUP6 DUP8 PUSH1 0x8 PUSH1 0x40 MLOAD PUSH2 0x11FA SWAP4 SWAP3 SWAP2 SWAP1 PUSH2 0x322D JUMP JUMPDEST PUSH1 0x40 MLOAD DUP1 SWAP2 SUB SWAP1 LOG1 PUSH2 0x1287 JUMP JUMPDEST PUSH1 0x6 PUSH1 0x9 DUP2 GT ISZERO PUSH2 0x121B JUMPI PUSH2 0x121A PUSH2 0x35B3 JUMP JUMPDEST JUMPDEST DUP5 PUSH1 0xFF AND PUSH1 0x9 DUP2 GT ISZERO PUSH2 0x1231 JUMPI PUSH2 0x1230 PUSH2 0x35B3 JUMP JUMPDEST JUMPDEST PUSH1 0x9 DUP2 GT ISZERO PUSH2 0x1243 JUMPI PUSH2 0x1242 PUSH2 0x35B3 JUMP JUMPDEST JUMPDEST EQ ISZERO PUSH2 0x1286 JUMPI PUSH32 0xBD0E0CBB7F526D9C7052B56C5D1873EE7B834959CD785B696DD0F9D418D9617A DUP6 DUP8 PUSH1 0x9 PUSH1 0x40 MLOAD PUSH2 0x127D SWAP4 SWAP3 SWAP2 SWAP1 PUSH2 0x322D JUMP JUMPDEST PUSH1 0x40 MLOAD DUP1 SWAP2 SUB SWAP1 LOG1 JUMPDEST JUMPDEST PUSH2 0x136D JUMP JUMPDEST DUP4 PUSH1 0xFF AND PUSH1 0x9 DUP2 GT ISZERO PUSH2 0x12A2 JUMPI PUSH2 0x12A1 PUSH2 0x35B3 JUMP JUMPDEST JUMPDEST DUP3 DUP3 DUP2 SLOAD DUP2 LT PUSH2 0x12B5 JUMPI PUSH2 0x12B4 PUSH2 0x3611 JUMP JUMPDEST JUMPDEST SWAP1 PUSH1 0x0 MSTORE PUSH1 0x20 PUSH1 0x0 KECCAK256 SWAP1 PUSH1 0x7 MUL ADD PUSH1 0x6 ADD PUSH1 0x0 PUSH2 0x100 EXP DUP2 SLOAD DUP2 PUSH1 0xFF MUL NOT AND SWAP1 DUP4 PUSH1 0x9 DUP2 GT ISZERO PUSH2 0x12E8 JUMPI PUSH2 0x12E7 PUSH2 0x35B3 JUMP JUMPDEST JUMPDEST MUL OR SWAP1 SSTORE POP PUSH1 0x4 PUSH1 0x9 DUP2 GT ISZERO PUSH2 0x1301 JUMPI PUSH2 0x1300 PUSH2 0x35B3 JUMP JUMPDEST JUMPDEST DUP5 PUSH1 0xFF AND PUSH1 0x9 DUP2 GT ISZERO PUSH2 0x1317 JUMPI PUSH2 0x1316 PUSH2 0x35B3 JUMP JUMPDEST JUMPDEST PUSH1 0x9 DUP2 GT ISZERO PUSH2 0x1329 JUMPI PUSH2 0x1328 PUSH2 0x35B3 JUMP JUMPDEST JUMPDEST EQ ISZERO PUSH2 0x136C JUMPI PUSH32 0xD49FC9FA26FA9FC112EFD004ACB9EEABF80810373D2CBB1A7884D4D64E8E8D2B DUP6 DUP8 PUSH1 0x4 PUSH1 0x40 MLOAD PUSH2 0x1363 SWAP4 SWAP3 SWAP2 SWAP1 PUSH2 0x322D JUMP JUMPDEST PUSH1 0x40 MLOAD DUP1 SWAP2 SUB SWAP1 LOG1 JUMPDEST JUMPDEST JUMPDEST DUP3 ISZERO PUSH2 0x1379 JUMPI PUSH2 0x138C JUMP JUMPDEST DUP1 DUP1 PUSH2 0x1384 SWAP1 PUSH2 0x353B JUMP JUMPDEST SWAP2 POP POP PUSH2 0x1035 JUMP JUMPDEST POP POP POP POP POP POP JUMP JUMPDEST PUSH1 0x0 DUP1 PUSH1 0x0 PUSH1 0x3 PUSH1 0x0 DUP7 DUP2 MSTORE PUSH1 0x20 ADD SWAP1 DUP2 MSTORE PUSH1 0x20 ADD PUSH1 0x0 KECCAK256 SWAP1 POP PUSH1 0x0 DUP2 DUP1 SLOAD SWAP1 POP GT PUSH2 0x13F5 JUMPI PUSH1 0x40 MLOAD PUSH32 0x8C379A000000000000000000000000000000000000000000000000000000000 DUP2 MSTORE PUSH1 0x4 ADD PUSH2 0x13EC SWAP1 PUSH2 0x304C JUMP JUMPDEST PUSH1 0x40 MLOAD DUP1 SWAP2 SUB SWAP1 REVERT JUMPDEST PUSH1 0x0 PUSH1 0x5 PUSH1 0x0 DUP7 DUP2 MSTORE PUSH1 0x20 ADD SWAP1 DUP2 MSTORE PUSH1 0x20 ADD PUSH1 0x0 KECCAK256 SWAP1 POP PUSH1 0x0 JUMPDEST DUP2 DUP1 SLOAD SWAP1 POP DUP2 LT ISZERO PUSH2 0x17D9 JUMPI CALLER PUSH20 0xFFFFFFFFFFFFFFFFFFFFFFFFFFFFFFFFFFFFFFFF AND DUP3 DUP3 DUP2 SLOAD DUP2 LT PUSH2 0x1445 JUMPI PUSH2 0x1444 PUSH2 0x3611 JUMP JUMPDEST JUMPDEST SWAP1 PUSH1 0x0 MSTORE PUSH1 0x20 PUSH1 0x0 KECCAK256 SWAP1 PUSH1 0x3 MUL ADD PUSH1 0x1 ADD PUSH1 0x0 SWAP1 SLOAD SWAP1 PUSH2 0x100 EXP SWAP1 DIV PUSH20 0xFFFFFFFFFFFFFFFFFFFFFFFFFFFFFFFFFFFFFFFF AND PUSH20 0xFFFFFFFFFFFFFFFFFFFFFFFFFFFFFFFFFFFFFFFF AND EQ DUP1 ISZERO PUSH2 0x14CF JUMPI POP PUSH1 0x0 DUP3 DUP3 DUP2 SLOAD DUP2 LT PUSH2 0x14AA JUMPI PUSH2 0x14A9 PUSH2 0x3611 JUMP JUMPDEST JUMPDEST SWAP1 PUSH1 0x0 MSTORE PUSH1 0x20 PUSH1 0x0 KECCAK256 SWAP1 PUSH1 0x3 MUL ADD PUSH1 0x2 ADD PUSH1 0x0 DUP9 DUP2 MSTORE PUSH1 0x20 ADD SWAP1 DUP2 MSTORE PUSH1 0x20 ADD PUSH1 0x0 KECCAK256 SLOAD GT JUMPDEST ISZERO PUSH2 0x17C6 JUMPI PUSH1 0x0 JUMPDEST DUP4 DUP1 SLOAD SWAP1 POP DUP2 LT ISZERO PUSH2 0x16C5 JUMPI DUP7 DUP5 DUP3 DUP2 SLOAD DUP2 LT PUSH2 0x14F7 JUMPI PUSH2 0x14F6 PUSH2 0x3611 JUMP JUMPDEST JUMPDEST SWAP1 PUSH1 0x0 MSTORE PUSH1 0x20 PUSH1 0x0 KECCAK256 SWAP1 PUSH1 0x7 MUL ADD PUSH1 0x0 ADD SLOAD EQ ISZERO PUSH2 0x16B2 JUMPI PUSH1 0x3 PUSH1 0x9 DUP2 GT ISZERO PUSH2 0x1523 JUMPI PUSH2 0x1522 PUSH2 0x35B3 JUMP JUMPDEST JUMPDEST DUP5 DUP3 DUP2 SLOAD DUP2 LT PUSH2 0x1536 JUMPI PUSH2 0x1535 PUSH2 0x3611 JUMP JUMPDEST JUMPDEST SWAP1 PUSH1 0x0 MSTORE PUSH1 0x20 PUSH1 0x0 KECCAK256 SWAP1 PUSH1 0x7 MUL ADD PUSH1 0x6 ADD PUSH1 0x0 SWAP1 SLOAD SWAP1 PUSH2 0x100 EXP SWAP1 DIV PUSH1 0xFF AND PUSH1 0x9 DUP2 GT ISZERO PUSH2 0x1567 JUMPI PUSH2 0x1566 PUSH2 0x35B3 JUMP JUMPDEST JUMPDEST GT ISZERO PUSH2 0x15A8 JUMPI PUSH1 0x40 MLOAD PUSH32 0x8C379A000000000000000000000000000000000000000000000000000000000 DUP2 MSTORE PUSH1 0x4 ADD PUSH2 0x159F SWAP1 PUSH2 0x30AC JUMP JUMPDEST PUSH1 0x40 MLOAD DUP1 SWAP2 SUB SWAP1 REVERT JUMPDEST DUP3 DUP3 DUP2 SLOAD DUP2 LT PUSH2 0x15BB JUMPI PUSH2 0x15BA PUSH2 0x3611 JUMP JUMPDEST JUMPDEST SWAP1 PUSH1 0x0 MSTORE PUSH1 0x20 PUSH1 0x0 KECCAK256 SWAP1 PUSH1 0x3 MUL ADD PUSH1 0x2 ADD PUSH1 0x0 DUP9 DUP2 MSTORE PUSH1 0x20 ADD SWAP1 DUP2 MSTORE PUSH1 0x20 ADD PUSH1 0x0 KECCAK256 SLOAD DUP5 DUP3 DUP2 SLOAD DUP2 LT PUSH2 0x15F1 JUMPI PUSH2 0x15F0 PUSH2 0x3611 JUMP JUMPDEST JUMPDEST SWAP1 PUSH1 0x0 MSTORE PUSH1 0x20 PUSH1 0x0 KECCAK256 SWAP1 PUSH1 0x7 MUL ADD PUSH1 0x3 ADD SLOAD PUSH2 0x160D SWAP2 SWAP1 PUSH2 0x33E8 JUMP JUMPDEST DUP5 DUP3 DUP2 SLOAD DUP2 LT PUSH2 0x1620 JUMPI PUSH2 0x161F PUSH2 0x3611 JUMP JUMPDEST JUMPDEST SWAP1 PUSH1 0x0 MSTORE PUSH1 0x20 PUSH1 0x0 KECCAK256 SWAP1 PUSH1 0x7 MUL ADD PUSH1 0x3 ADD DUP2 SWAP1 SSTORE POP DUP4 DUP2 DUP2 SLOAD DUP2 LT PUSH2 0x1648 JUMPI PUSH2 0x1647 PUSH2 0x3611 JUMP JUMPDEST JUMPDEST SWAP1 PUSH1 0x0 MSTORE PUSH1 0x20 PUSH1 0x0 KECCAK256 SWAP1 PUSH1 0x7 MUL ADD PUSH1 0x4 ADD PUSH1 0x14 SWAP1 SLOAD SWAP1 PUSH2 0x100 EXP SWAP1 DIV PUSH1 0xFF AND PUSH2 0x16A9 JUMPI PUSH1 0x1 DUP5 DUP3 DUP2 SLOAD DUP2 LT PUSH2 0x1680 JUMPI PUSH2 0x167F PUSH2 0x3611 JUMP JUMPDEST JUMPDEST SWAP1 PUSH1 0x0 MSTORE PUSH1 0x20 PUSH1 0x0 KECCAK256 SWAP1 PUSH1 0x7 MUL ADD PUSH1 0x4 ADD PUSH1 0x14 PUSH2 0x100 EXP DUP2 SLOAD DUP2 PUSH1 0xFF MUL NOT AND SWAP1 DUP4 ISZERO ISZERO MUL OR SWAP1 SSTORE POP JUMPDEST PUSH1 0x1 SWAP6 POP PUSH2 0x16C5 JUMP JUMPDEST DUP1 DUP1 PUSH2 0x16BD SWAP1 PUSH2 0x353B JUMP JUMPDEST SWAP2 POP POP PUSH2 0x14D7 JUMP JUMPDEST POP DUP5 PUSH2 0x1706 JUMPI PUSH1 0x40 MLOAD PUSH32 0x8C379A000000000000000000000000000000000000000000000000000000000 DUP2 MSTORE PUSH1 0x4 ADD PUSH2 0x16FD SWAP1 PUSH2 0x316C JUMP JUMPDEST PUSH1 0x40 MLOAD DUP1 SWAP2 SUB SWAP1 REVERT JUMPDEST CALLER PUSH20 0xFFFFFFFFFFFFFFFFFFFFFFFFFFFFFFFFFFFFFFFF AND PUSH2 0x8FC DUP4 DUP4 DUP2 SLOAD DUP2 LT PUSH2 0x1733 JUMPI PUSH2 0x1732 PUSH2 0x3611 JUMP JUMPDEST JUMPDEST SWAP1 PUSH1 0x0 MSTORE PUSH1 0x20 PUSH1 0x0 KECCAK256 SWAP1 PUSH1 0x3 MUL ADD PUSH1 0x2 ADD PUSH1 0x0 DUP10 DUP2 MSTORE PUSH1 0x20 ADD SWAP1 DUP2 MSTORE PUSH1 0x20 ADD PUSH1 0x0 KECCAK256 SLOAD SWAP1 DUP2 ISZERO MUL SWAP1 PUSH1 0x40 MLOAD PUSH1 0x0 PUSH1 0x40 MLOAD DUP1 DUP4 SUB DUP2 DUP6 DUP9 DUP9 CALL SWAP4 POP POP POP POP ISZERO DUP1 ISZERO PUSH2 0x1781 JUMPI RETURNDATASIZE PUSH1 0x0 DUP1 RETURNDATACOPY RETURNDATASIZE PUSH1 0x0 REVERT JUMPDEST POP PUSH1 0x0 DUP3 DUP3 DUP2 SLOAD DUP2 LT PUSH2 0x1797 JUMPI PUSH2 0x1796 PUSH2 0x3611 JUMP JUMPDEST JUMPDEST SWAP1 PUSH1 0x0 MSTORE PUSH1 0x20 PUSH1 0x0 KECCAK256 SWAP1 PUSH1 0x3 MUL ADD PUSH1 0x2 ADD PUSH1 0x0 DUP9 DUP2 MSTORE PUSH1 0x20 ADD SWAP1 DUP2 MSTORE PUSH1 0x20 ADD PUSH1 0x0 KECCAK256 DUP2 SWAP1 SSTORE POP PUSH1 0x1 SWAP4 POP PUSH2 0x17D9 JUMP JUMPDEST DUP1 DUP1 PUSH2 0x17D1 SWAP1 PUSH2 0x353B JUMP JUMPDEST SWAP2 POP POP PUSH2 0x140F JUMP JUMPDEST POP DUP3 PUSH2 0x181A JUMPI PUSH1 0x40 MLOAD PUSH32 0x8C379A000000000000000000000000000000000000000000000000000000000 DUP2 MSTORE PUSH1 0x4 ADD PUSH2 0x1811 SWAP1 PUSH2 0x306C JUMP JUMPDEST PUSH1 0x40 MLOAD DUP1 SWAP2 SUB SWAP1 REVERT JUMPDEST POP POP POP POP POP POP JUMP JUMPDEST PUSH1 0x2 PUSH1 0x0 SWAP1 SLOAD SWAP1 PUSH2 0x100 EXP SWAP1 DIV PUSH20 0xFFFFFFFFFFFFFFFFFFFFFFFFFFFFFFFFFFFFFFFF AND PUSH20 0xFFFFFFFFFFFFFFFFFFFFFFFFFFFFFFFFFFFFFFFF AND CALLER PUSH20 0xFFFFFFFFFFFFFFFFFFFFFFFFFFFFFFFFFFFFFFFF AND EQ ISZERO PUSH1 0x40 MLOAD DUP1 PUSH1 0x60 ADD PUSH1 0x40 MSTORE DUP1 PUSH1 0x2F DUP2 MSTORE PUSH1 0x20 ADD PUSH2 0x3AA4 PUSH1 0x2F SWAP2 CODECOPY SWAP1 PUSH2 0x18CE JUMPI PUSH1 0x40 MLOAD PUSH32 0x8C379A000000000000000000000000000000000000000000000000000000000 DUP2 MSTORE PUSH1 0x4 ADD PUSH2 0x18C5 SWAP2 SWAP1 PUSH2 0x302A JUMP JUMPDEST PUSH1 0x40 MLOAD DUP1 SWAP2 SUB SWAP1 REVERT JUMPDEST POP PUSH1 0x4 PUSH1 0x0 DUP7 DUP2 MSTORE PUSH1 0x20 ADD SWAP1 DUP2 MSTORE PUSH1 0x20 ADD PUSH1 0x0 KECCAK256 PUSH1 0x0 SWAP1 SLOAD SWAP1 PUSH2 0x100 EXP SWAP1 DIV PUSH1 0xFF AND PUSH2 0x192F JUMPI PUSH1 0x40 MLOAD PUSH32 0x8C379A000000000000000000000000000000000000000000000000000000000 DUP2 MSTORE PUSH1 0x4 ADD PUSH2 0x1926 SWAP1 PUSH2 0x310C JUMP JUMPDEST PUSH1 0x40 MLOAD DUP1 SWAP2 SUB SWAP1 REVERT JUMPDEST PUSH1 0x0 PUSH1 0x40 MLOAD DUP1 PUSH2 0x100 ADD PUSH1 0x40 MSTORE DUP1 DUP7 DUP2 MSTORE PUSH1 0x20 ADD PUSH3 0xF4240 DUP2 MSTORE PUSH1 0x20 ADD DUP6 DUP2 MSTORE PUSH1 0x20 ADD PUSH1 0x0 DUP2 MSTORE PUSH1 0x20 ADD DUP5 PUSH20 0xFFFFFFFFFFFFFFFFFFFFFFFFFFFFFFFFFFFFFFFF AND DUP2 MSTORE PUSH1 0x20 ADD PUSH1 0x1 ISZERO ISZERO DUP2 MSTORE PUSH1 0x20 ADD DUP4 DUP2 MSTORE PUSH1 0x20 ADD PUSH1 0x2 PUSH1 0x9 DUP2 GT ISZERO PUSH2 0x1998 JUMPI PUSH2 0x1997 PUSH2 0x35B3 JUMP JUMPDEST JUMPDEST DUP2 MSTORE POP SWAP1 POP PUSH1 0x0 DUP2 SWAP1 DUP1 PUSH1 0x1 DUP2 SLOAD ADD DUP1 DUP3 SSTORE DUP1 SWAP2 POP POP PUSH1 0x1 SWAP1 SUB SWAP1 PUSH1 0x0 MSTORE PUSH1 0x20 PUSH1 0x0 KECCAK256 SWAP1 PUSH1 0x7 MUL ADD PUSH1 0x0 SWAP1 SWAP2 SWAP1 SWAP2 SWAP1 SWAP2 POP PUSH1 0x0 DUP3 ADD MLOAD DUP2 PUSH1 0x0 ADD SSTORE PUSH1 0x20 DUP3 ADD MLOAD DUP2 PUSH1 0x1 ADD SSTORE PUSH1 0x40 DUP3 ADD MLOAD DUP2 PUSH1 0x2 ADD SSTORE PUSH1 0x60 DUP3 ADD MLOAD DUP2 PUSH1 0x3 ADD SSTORE PUSH1 0x80 DUP3 ADD MLOAD DUP2 PUSH1 0x4 ADD PUSH1 0x0 PUSH2 0x100 EXP DUP2 SLOAD DUP2 PUSH20 0xFFFFFFFFFFFFFFFFFFFFFFFFFFFFFFFFFFFFFFFF MUL NOT AND SWAP1 DUP4 PUSH20 0xFFFFFFFFFFFFFFFFFFFFFFFFFFFFFFFFFFFFFFFF AND MUL OR SWAP1 SSTORE POP PUSH1 0xA0 DUP3 ADD MLOAD DUP2 PUSH1 0x4 ADD PUSH1 0x14 PUSH2 0x100 EXP DUP2 SLOAD DUP2 PUSH1 0xFF MUL NOT AND SWAP1 DUP4 ISZERO ISZERO MUL OR SWAP1 SSTORE POP PUSH1 0xC0 DUP3 ADD MLOAD DUP2 PUSH1 0x5 ADD SWAP1 DUP1 MLOAD SWAP1 PUSH1 0x20 ADD SWAP1 PUSH2 0x1A74 SWAP3 SWAP2 SWAP1 PUSH2 0x29D2 JUMP JUMPDEST POP PUSH1 0xE0 DUP3 ADD MLOAD DUP2 PUSH1 0x6 ADD PUSH1 0x0 PUSH2 0x100 EXP DUP2 SLOAD DUP2 PUSH1 0xFF MUL NOT AND SWAP1 DUP4 PUSH1 0x9 DUP2 GT ISZERO PUSH2 0x1AA0 JUMPI PUSH2 0x1A9F PUSH2 0x35B3 JUMP JUMPDEST JUMPDEST MUL OR SWAP1 SSTORE POP POP POP PUSH1 0x3 PUSH1 0x0 DUP8 DUP2 MSTORE PUSH1 0x20 ADD SWAP1 DUP2 MSTORE PUSH1 0x20 ADD PUSH1 0x0 KECCAK256 DUP2 SWAP1 DUP1 PUSH1 0x1 DUP2 SLOAD ADD DUP1 DUP3 SSTORE DUP1 SWAP2 POP POP PUSH1 0x1 SWAP1 SUB SWAP1 PUSH1 0x0 MSTORE PUSH1 0x20 PUSH1 0x0 KECCAK256 SWAP1 PUSH1 0x7 MUL ADD PUSH1 0x0 SWAP1 SWAP2 SWAP1 SWAP2 SWAP1 SWAP2 POP PUSH1 0x0 DUP3 ADD MLOAD DUP2 PUSH1 0x0 ADD SSTORE PUSH1 0x20 DUP3 ADD MLOAD DUP2 PUSH1 0x1 ADD SSTORE PUSH1 0x40 DUP3 ADD MLOAD DUP2 PUSH1 0x2 ADD SSTORE PUSH1 0x60 DUP3 ADD MLOAD DUP2 PUSH1 0x3 ADD SSTORE PUSH1 0x80 DUP3 ADD MLOAD DUP2 PUSH1 0x4 ADD PUSH1 0x0 PUSH2 0x100 EXP DUP2 SLOAD DUP2 PUSH20 0xFFFFFFFFFFFFFFFFFFFFFFFFFFFFFFFFFFFFFFFF MUL NOT AND SWAP1 DUP4 PUSH20 0xFFFFFFFFFFFFFFFFFFFFFFFFFFFFFFFFFFFFFFFF AND MUL OR SWAP1 SSTORE POP PUSH1 0xA0 DUP3 ADD MLOAD DUP2 PUSH1 0x4 ADD PUSH1 0x14 PUSH2 0x100 EXP DUP2 SLOAD DUP2 PUSH1 0xFF MUL NOT AND SWAP1 DUP4 ISZERO ISZERO MUL OR SWAP1 SSTORE POP PUSH1 0xC0 DUP3 ADD MLOAD DUP2 PUSH1 0x5 ADD SWAP1 DUP1 MLOAD SWAP1 PUSH1 0x20 ADD SWAP1 PUSH2 0x1B8F SWAP3 SWAP2 SWAP1 PUSH2 0x29D2 JUMP JUMPDEST POP PUSH1 0xE0 DUP3 ADD MLOAD DUP2 PUSH1 0x6 ADD PUSH1 0x0 PUSH2 0x100 EXP DUP2 SLOAD DUP2 PUSH1 0xFF MUL NOT AND SWAP1 DUP4 PUSH1 0x9 DUP2 GT ISZERO PUSH2 0x1BBB JUMPI PUSH2 0x1BBA PUSH2 0x35B3 JUMP JUMPDEST JUMPDEST MUL OR SWAP1 SSTORE POP POP POP POP POP POP POP POP POP JUMP JUMPDEST PUSH1 0x2 PUSH1 0x0 SWAP1 SLOAD SWAP1 PUSH2 0x100 EXP SWAP1 DIV PUSH20 0xFFFFFFFFFFFFFFFFFFFFFFFFFFFFFFFFFFFFFFFF AND PUSH20 0xFFFFFFFFFFFFFFFFFFFFFFFFFFFFFFFFFFFFFFFF AND CALLER PUSH20 0xFFFFFFFFFFFFFFFFFFFFFFFFFFFFFFFFFFFFFFFF AND EQ PUSH1 0x40 MLOAD DUP1 PUSH1 0x60 ADD PUSH1 0x40 MSTORE DUP1 PUSH1 0x33 DUP2 MSTORE PUSH1 0x20 ADD PUSH2 0x3A40 PUSH1 0x33 SWAP2 CODECOPY SWAP1 PUSH2 0x1C75 JUMPI PUSH1 0x40 MLOAD PUSH32 0x8C379A000000000000000000000000000000000000000000000000000000000 DUP2 MSTORE PUSH1 0x4 ADD PUSH2 0x1C6C SWAP2 SWAP1 PUSH2 0x302A JUMP JUMPDEST PUSH1 0x40 MLOAD DUP1 SWAP2 SUB SWAP1 REVERT JUMPDEST POP PUSH1 0x0 PUSH1 0x1 DUP4 DUP2 SLOAD DUP2 LT PUSH2 0x1C8C JUMPI PUSH2 0x1C8B PUSH2 0x3611 JUMP JUMPDEST JUMPDEST SWAP1 PUSH1 0x0 MSTORE PUSH1 0x20 PUSH1 0x0 KECCAK256 SWAP1 PUSH1 0x5 MUL ADD SWAP1 POP PUSH1 0x1 DUP2 PUSH1 0x1 ADD PUSH1 0x0 PUSH2 0x100 EXP DUP2 SLOAD DUP2 PUSH1 0xFF MUL NOT AND SWAP1 DUP4 ISZERO ISZERO MUL OR SWAP1 SSTORE POP PUSH1 0x1 PUSH1 0x4 PUSH1 0x0 DUP5 DUP2 MSTORE PUSH1 0x20 ADD SWAP1 DUP2 MSTORE PUSH1 0x20 ADD PUSH1 0x0 KECCAK256 PUSH1 0x0 PUSH2 0x100 EXP DUP2 SLOAD DUP2 PUSH1 0xFF MUL NOT AND SWAP1 DUP4 ISZERO ISZERO MUL OR SWAP1 SSTORE POP POP POP POP JUMP JUMPDEST PUSH1 0x60 PUSH1 0x0 PUSH1 0x3 PUSH1 0x0 DUP6 DUP2 MSTORE PUSH1 0x20 ADD SWAP1 DUP2 MSTORE PUSH1 0x20 ADD PUSH1 0x0 KECCAK256 SWAP1 POP PUSH1 0x0 DUP2 DUP1 SLOAD SWAP1 POP GT PUSH2 0x1D4A JUMPI PUSH1 0x40 MLOAD PUSH32 0x8C379A000000000000000000000000000000000000000000000000000000000 DUP2 MSTORE PUSH1 0x4 ADD PUSH2 0x1D41 SWAP1 PUSH2 0x304C JUMP JUMPDEST PUSH1 0x40 MLOAD DUP1 SWAP2 SUB SWAP1 REVERT JUMPDEST PUSH1 0x0 JUMPDEST DUP2 DUP1 SLOAD SWAP1 POP DUP2 LT ISZERO PUSH2 0x1E92 JUMPI DUP4 DUP3 DUP3 DUP2 SLOAD DUP2 LT PUSH2 0x1D6D JUMPI PUSH2 0x1D6C PUSH2 0x3611 JUMP JUMPDEST JUMPDEST SWAP1 PUSH1 0x0 MSTORE PUSH1 0x20 PUSH1 0x0 KECCAK256 SWAP1 PUSH1 0x7 MUL ADD PUSH1 0x0 ADD SLOAD EQ ISZERO PUSH2 0x1E7F JUMPI PUSH1 0x7 PUSH1 0x0 DUP4 DUP4 DUP2 SLOAD DUP2 LT PUSH2 0x1D9C JUMPI PUSH2 0x1D9B PUSH2 0x3611 JUMP JUMPDEST JUMPDEST SWAP1 PUSH1 0x0 MSTORE PUSH1 0x20 PUSH1 0x0 KECCAK256 SWAP1 PUSH1 0x7 MUL ADD PUSH1 0x6 ADD PUSH1 0x0 SWAP1 SLOAD SWAP1 PUSH2 0x100 EXP SWAP1 DIV PUSH1 0xFF AND PUSH1 0x9 DUP2 GT ISZERO PUSH2 0x1DCD JUMPI PUSH2 0x1DCC PUSH2 0x35B3 JUMP JUMPDEST JUMPDEST PUSH1 0x9 DUP2 GT ISZERO PUSH2 0x1DDF JUMPI PUSH2 0x1DDE PUSH2 0x35B3 JUMP JUMPDEST JUMPDEST DUP2 MSTORE PUSH1 0x20 ADD SWAP1 DUP2 MSTORE PUSH1 0x20 ADD PUSH1 0x0 KECCAK256 DUP1 SLOAD PUSH2 0x1DF8 SWAP1 PUSH2 0x34D8 JUMP JUMPDEST DUP1 PUSH1 0x1F ADD PUSH1 0x20 DUP1 SWAP2 DIV MUL PUSH1 0x20 ADD PUSH1 0x40 MLOAD SWAP1 DUP2 ADD PUSH1 0x40 MSTORE DUP1 SWAP3 SWAP2 SWAP1 DUP2 DUP2 MSTORE PUSH1 0x20 ADD DUP3 DUP1 SLOAD PUSH2 0x1E24 SWAP1 PUSH2 0x34D8 JUMP JUMPDEST DUP1 ISZERO PUSH2 0x1E71 JUMPI DUP1 PUSH1 0x1F LT PUSH2 0x1E46 JUMPI PUSH2 0x100 DUP1 DUP4 SLOAD DIV MUL DUP4 MSTORE SWAP2 PUSH1 0x20 ADD SWAP2 PUSH2 0x1E71 JUMP JUMPDEST DUP3 ADD SWAP2 SWAP1 PUSH1 0x0 MSTORE PUSH1 0x20 PUSH1 0x0 KECCAK256 SWAP1 JUMPDEST DUP2 SLOAD DUP2 MSTORE SWAP1 PUSH1 0x1 ADD SWAP1 PUSH1 0x20 ADD DUP1 DUP4 GT PUSH2 0x1E54 JUMPI DUP3 SWAP1 SUB PUSH1 0x1F AND DUP3 ADD SWAP2 JUMPDEST POP POP POP POP POP SWAP3 POP POP POP PUSH2 0x1ECE JUMP JUMPDEST DUP1 DUP1 PUSH2 0x1E8A SWAP1 PUSH2 0x353B JUMP JUMPDEST SWAP2 POP POP PUSH2 0x1D4D JUMP JUMPDEST POP PUSH1 0x40 MLOAD PUSH32 0x8C379A000000000000000000000000000000000000000000000000000000000 DUP2 MSTORE PUSH1 0x4 ADD PUSH2 0x1EC5 SWAP1 PUSH2 0x318C JUMP JUMPDEST PUSH1 0x40 MLOAD DUP1 SWAP2 SUB SWAP1 REVERT JUMPDEST SWAP3 SWAP2 POP POP JUMP JUMPDEST PUSH1 0x0 DUP1 PUSH1 0x3 PUSH1 0x0 DUP6 DUP2 MSTORE PUSH1 0x20 ADD SWAP1 DUP2 MSTORE PUSH1 0x20 ADD PUSH1 0x0 KECCAK256 SWAP1 POP PUSH1 0x0 DUP2 DUP1 SLOAD SWAP1 POP GT PUSH2 0x1F33 JUMPI PUSH1 0x40 MLOAD PUSH32 0x8C379A000000000000000000000000000000000000000000000000000000000 DUP2 MSTORE PUSH1 0x4 ADD PUSH2 0x1F2A SWAP1 PUSH2 0x304C JUMP JUMPDEST PUSH1 0x40 MLOAD DUP1 SWAP2 SUB SWAP1 REVERT JUMPDEST PUSH1 0x0 JUMPDEST DUP2 DUP1 SLOAD SWAP1 POP DUP2 LT ISZERO PUSH2 0x2123 JUMPI DUP4 DUP3 DUP3 DUP2 SLOAD DUP2 LT PUSH2 0x1F56 JUMPI PUSH2 0x1F55 PUSH2 0x3611 JUMP JUMPDEST JUMPDEST SWAP1 PUSH1 0x0 MSTORE PUSH1 0x20 PUSH1 0x0 KECCAK256 SWAP1 PUSH1 0x7 MUL ADD PUSH1 0x0 ADD SLOAD EQ ISZERO PUSH2 0x2110 JUMPI PUSH1 0x7 PUSH1 0x9 DUP2 GT ISZERO PUSH2 0x1F82 JUMPI PUSH2 0x1F81 PUSH2 0x35B3 JUMP JUMPDEST JUMPDEST DUP3 DUP3 DUP2 SLOAD DUP2 LT PUSH2 0x1F95 JUMPI PUSH2 0x1F94 PUSH2 0x3611 JUMP JUMPDEST JUMPDEST SWAP1 PUSH1 0x0 MSTORE PUSH1 0x20 PUSH1 0x0 KECCAK256 SWAP1 PUSH1 0x7 MUL ADD PUSH1 0x6 ADD PUSH1 0x0 SWAP1 SLOAD SWAP1 PUSH2 0x100 EXP SWAP1 DIV PUSH1 0xFF AND PUSH1 0x9 DUP2 GT ISZERO PUSH2 0x1FC6 JUMPI PUSH2 0x1FC5 PUSH2 0x35B3 JUMP JUMPDEST JUMPDEST EQ PUSH2 0x2006 JUMPI PUSH1 0x40 MLOAD PUSH32 0x8C379A000000000000000000000000000000000000000000000000000000000 DUP2 MSTORE PUSH1 0x4 ADD PUSH2 0x1FFD SWAP1 PUSH2 0x30CC JUMP JUMPDEST PUSH1 0x40 MLOAD DUP1 SWAP2 SUB SWAP1 REVERT JUMPDEST PUSH1 0x0 PUSH1 0x5 PUSH1 0x0 DUP7 DUP2 MSTORE PUSH1 0x20 ADD SWAP1 DUP2 MSTORE PUSH1 0x20 ADD PUSH1 0x0 KECCAK256 SWAP1 POP PUSH1 0x0 JUMPDEST DUP2 DUP1 SLOAD SWAP1 POP DUP2 LT ISZERO PUSH2 0x2105 JUMPI PUSH1 0x0 DUP3 DUP3 DUP2 SLOAD DUP2 LT PUSH2 0x2041 JUMPI PUSH2 0x2040 PUSH2 0x3611 JUMP JUMPDEST JUMPDEST SWAP1 PUSH1 0x0 MSTORE PUSH1 0x20 PUSH1 0x0 KECCAK256 SWAP1 PUSH1 0x3 MUL ADD PUSH1 0x2 ADD PUSH1 0x0 DUP9 DUP2 MSTORE PUSH1 0x20 ADD SWAP1 DUP2 MSTORE PUSH1 0x20 ADD PUSH1 0x0 KECCAK256 SLOAD SWAP1 POP DUP3 DUP3 DUP2 SLOAD DUP2 LT PUSH2 0x2079 JUMPI PUSH2 0x2078 PUSH2 0x3611 JUMP JUMPDEST JUMPDEST SWAP1 PUSH1 0x0 MSTORE PUSH1 0x20 PUSH1 0x0 KECCAK256 SWAP1 PUSH1 0x3 MUL ADD PUSH1 0x1 ADD PUSH1 0x0 SWAP1 SLOAD SWAP1 PUSH2 0x100 EXP SWAP1 DIV PUSH20 0xFFFFFFFFFFFFFFFFFFFFFFFFFFFFFFFFFFFFFFFF AND PUSH20 0xFFFFFFFFFFFFFFFFFFFFFFFFFFFFFFFFFFFFFFFF AND PUSH2 0x8FC DUP3 SWAP1 DUP2 ISZERO MUL SWAP1 PUSH1 0x40 MLOAD PUSH1 0x0 PUSH1 0x40 MLOAD DUP1 DUP4 SUB DUP2 DUP6 DUP9 DUP9 CALL SWAP4 POP POP POP POP ISZERO DUP1 ISZERO PUSH2 0x20F0 JUMPI RETURNDATASIZE PUSH1 0x0 DUP1 RETURNDATACOPY RETURNDATASIZE PUSH1 0x0 REVERT JUMPDEST POP POP DUP1 DUP1 PUSH2 0x20FD SWAP1 PUSH2 0x353B JUMP JUMPDEST SWAP2 POP POP PUSH2 0x2020 JUMP JUMPDEST POP PUSH1 0x1 SWAP4 POP POP PUSH2 0x2123 JUMP JUMPDEST DUP1 DUP1 PUSH2 0x211B SWAP1 PUSH2 0x353B JUMP JUMPDEST SWAP2 POP POP PUSH2 0x1F36 JUMP JUMPDEST POP DUP2 PUSH2 0x2164 JUMPI PUSH1 0x40 MLOAD PUSH32 0x8C379A000000000000000000000000000000000000000000000000000000000 DUP2 MSTORE PUSH1 0x4 ADD PUSH2 0x215B SWAP1 PUSH2 0x316C JUMP JUMPDEST PUSH1 0x40 MLOAD DUP1 SWAP2 SUB SWAP1 REVERT JUMPDEST POP POP POP POP JUMP JUMPDEST PUSH1 0x2 PUSH1 0x0 SWAP1 SLOAD SWAP1 PUSH2 0x100 EXP SWAP1 DIV PUSH20 0xFFFFFFFFFFFFFFFFFFFFFFFFFFFFFFFFFFFFFFFF AND DUP2 JUMP JUMPDEST PUSH1 0x2 PUSH1 0x0 SWAP1 SLOAD SWAP1 PUSH2 0x100 EXP SWAP1 DIV PUSH20 0xFFFFFFFFFFFFFFFFFFFFFFFFFFFFFFFFFFFFFFFF AND PUSH20 0xFFFFFFFFFFFFFFFFFFFFFFFFFFFFFFFFFFFFFFFF AND CALLER PUSH20 0xFFFFFFFFFFFFFFFFFFFFFFFFFFFFFFFFFFFFFFFF AND EQ PUSH1 0x40 MLOAD DUP1 PUSH1 0x60 ADD PUSH1 0x40 MSTORE DUP1 PUSH1 0x33 DUP2 MSTORE PUSH1 0x20 ADD PUSH2 0x3A40 PUSH1 0x33 SWAP2 CODECOPY SWAP1 PUSH2 0x223B JUMPI PUSH1 0x40 MLOAD PUSH32 0x8C379A000000000000000000000000000000000000000000000000000000000 DUP2 MSTORE PUSH1 0x4 ADD PUSH2 0x2232 SWAP2 SWAP1 PUSH2 0x302A JUMP JUMPDEST PUSH1 0x40 MLOAD DUP1 SWAP2 SUB SWAP1 REVERT JUMPDEST POP PUSH1 0x0 PUSH1 0x1 DUP4 DUP2 SLOAD DUP2 LT PUSH2 0x2252 JUMPI PUSH2 0x2251 PUSH2 0x3611 JUMP JUMPDEST JUMPDEST SWAP1 PUSH1 0x0 MSTORE PUSH1 0x20 PUSH1 0x0 KECCAK256 SWAP1 PUSH1 0x5 MUL ADD SWAP1 POP PUSH1 0x0 DUP2 PUSH1 0x1 ADD PUSH1 0x0 PUSH2 0x100 EXP DUP2 SLOAD DUP2 PUSH1 0xFF MUL NOT AND SWAP1 DUP4 ISZERO ISZERO MUL OR SWAP1 SSTORE POP DUP2 DUP2 PUSH1 0x2 ADD SWAP1 DUP1 MLOAD SWAP1 PUSH1 0x20 ADD SWAP1 PUSH2 0x2297 SWAP3 SWAP2 SWAP1 PUSH2 0x29D2 JUMP JUMPDEST POP POP POP POP JUMP JUMPDEST PUSH1 0x7 PUSH1 0x20 MSTORE DUP1 PUSH1 0x0 MSTORE PUSH1 0x40 PUSH1 0x0 KECCAK256 PUSH1 0x0 SWAP2 POP SWAP1 POP DUP1 SLOAD PUSH2 0x22BC SWAP1 PUSH2 0x34D8 JUMP JUMPDEST DUP1 PUSH1 0x1F ADD PUSH1 0x20 DUP1 SWAP2 DIV MUL PUSH1 0x20 ADD PUSH1 0x40 MLOAD SWAP1 DUP2 ADD PUSH1 0x40 MSTORE DUP1 SWAP3 SWAP2 SWAP1 DUP2 DUP2 MSTORE PUSH1 0x20 ADD DUP3 DUP1 SLOAD PUSH2 0x22E8 SWAP1 PUSH2 0x34D8 JUMP JUMPDEST DUP1 ISZERO PUSH2 0x2335 JUMPI DUP1 PUSH1 0x1F LT PUSH2 0x230A JUMPI PUSH2 0x100 DUP1 DUP4 SLOAD DIV MUL DUP4 MSTORE SWAP2 PUSH1 0x20 ADD SWAP2 PUSH2 0x2335 JUMP JUMPDEST DUP3 ADD SWAP2 SWAP1 PUSH1 0x0 MSTORE PUSH1 0x20 PUSH1 0x0 KECCAK256 SWAP1 JUMPDEST DUP2 SLOAD DUP2 MSTORE SWAP1 PUSH1 0x1 ADD SWAP1 PUSH1 0x20 ADD DUP1 DUP4 GT PUSH2 0x2318 JUMPI DUP3 SWAP1 SUB PUSH1 0x1F AND DUP3 ADD SWAP2 JUMPDEST POP POP POP POP POP DUP2 JUMP JUMPDEST PUSH1 0x0 DUP1 PUSH1 0x3 PUSH1 0x0 DUP7 DUP2 MSTORE PUSH1 0x20 ADD SWAP1 DUP2 MSTORE PUSH1 0x20 ADD PUSH1 0x0 KECCAK256 SWAP1 POP PUSH1 0x0 DUP2 DUP1 SLOAD SWAP1 POP GT PUSH2 0x239C JUMPI PUSH1 0x40 MLOAD PUSH32 0x8C379A000000000000000000000000000000000000000000000000000000000 DUP2 MSTORE PUSH1 0x4 ADD PUSH2 0x2393 SWAP1 PUSH2 0x304C JUMP JUMPDEST PUSH1 0x40 MLOAD DUP1 SWAP2 SUB SWAP1 REVERT JUMPDEST PUSH1 0x0 JUMPDEST DUP2 DUP1 SLOAD SWAP1 POP DUP2 LT ISZERO PUSH2 0x2807 JUMPI DUP5 DUP3 DUP3 DUP2 SLOAD DUP2 LT PUSH2 0x23BF JUMPI PUSH2 0x23BE PUSH2 0x3611 JUMP JUMPDEST JUMPDEST SWAP1 PUSH1 0x0 MSTORE PUSH1 0x20 PUSH1 0x0 KECCAK256 SWAP1 PUSH1 0x7 MUL ADD PUSH1 0x0 ADD SLOAD EQ ISZERO PUSH2 0x27F4 JUMPI DUP2 DUP2 DUP2 SLOAD DUP2 LT PUSH2 0x23EA JUMPI PUSH2 0x23E9 PUSH2 0x3611 JUMP JUMPDEST JUMPDEST SWAP1 PUSH1 0x0 MSTORE PUSH1 0x20 PUSH1 0x0 KECCAK256 SWAP1 PUSH1 0x7 MUL ADD PUSH1 0x4 ADD PUSH1 0x14 SWAP1 SLOAD SWAP1 PUSH2 0x100 EXP SWAP1 DIV PUSH1 0xFF AND ISZERO PUSH2 0x27B0 JUMPI DUP2 DUP2 DUP2 SLOAD DUP2 LT PUSH2 0x2421 JUMPI PUSH2 0x2420 PUSH2 0x3611 JUMP JUMPDEST JUMPDEST SWAP1 PUSH1 0x0 MSTORE PUSH1 0x20 PUSH1 0x0 KECCAK256 SWAP1 PUSH1 0x7 MUL ADD PUSH1 0x1 ADD SLOAD CALLVALUE LT ISZERO PUSH2 0x2475 JUMPI PUSH1 0x40 MLOAD PUSH32 0x8C379A000000000000000000000000000000000000000000000000000000000 DUP2 MSTORE PUSH1 0x4 ADD PUSH2 0x246C SWAP1 PUSH2 0x308C JUMP JUMPDEST PUSH1 0x40 MLOAD DUP1 SWAP2 SUB SWAP1 REVERT JUMPDEST CALLVALUE DUP3 DUP3 DUP2 SLOAD DUP2 LT PUSH2 0x2489 JUMPI PUSH2 0x2488 PUSH2 0x3611 JUMP JUMPDEST JUMPDEST SWAP1 PUSH1 0x0 MSTORE PUSH1 0x20 PUSH1 0x0 KECCAK256 SWAP1 PUSH1 0x7 MUL ADD PUSH1 0x3 ADD SLOAD PUSH2 0x24A5 SWAP2 SWAP1 PUSH2 0x3392 JUMP JUMPDEST DUP3 DUP3 DUP2 SLOAD DUP2 LT PUSH2 0x24B8 JUMPI PUSH2 0x24B7 PUSH2 0x3611 JUMP JUMPDEST JUMPDEST SWAP1 PUSH1 0x0 MSTORE PUSH1 0x20 PUSH1 0x0 KECCAK256 SWAP1 PUSH1 0x7 MUL ADD PUSH1 0x3 ADD DUP2 SWAP1 SSTORE POP PUSH1 0x0 PUSH1 0x5 PUSH1 0x0 DUP8 DUP2 MSTORE PUSH1 0x20 ADD SWAP1 DUP2 MSTORE PUSH1 0x20 ADD PUSH1 0x0 KECCAK256 SWAP1 POP PUSH1 0x0 DUP2 DUP1 SLOAD SWAP1 POP SWAP1 POP PUSH1 0x0 DUP1 PUSH1 0x0 SWAP1 POP JUMPDEST DUP4 DUP1 SLOAD SWAP1 POP DUP2 LT ISZERO PUSH2 0x25E1 JUMPI CALLER PUSH20 0xFFFFFFFFFFFFFFFFFFFFFFFFFFFFFFFFFFFFFFFF AND DUP5 DUP3 DUP2 SLOAD DUP2 LT PUSH2 0x252B JUMPI PUSH2 0x252A PUSH2 0x3611 JUMP JUMPDEST JUMPDEST SWAP1 PUSH1 0x0 MSTORE PUSH1 0x20 PUSH1 0x0 KECCAK256 SWAP1 PUSH1 0x3 MUL ADD PUSH1 0x1 ADD PUSH1 0x0 SWAP1 SLOAD SWAP1 PUSH2 0x100 EXP SWAP1 DIV PUSH20 0xFFFFFFFFFFFFFFFFFFFFFFFFFFFFFFFFFFFFFFFF AND PUSH20 0xFFFFFFFFFFFFFFFFFFFFFFFFFFFFFFFFFFFFFFFF AND EQ ISZERO PUSH2 0x25CE JUMPI CALLVALUE DUP5 DUP3 DUP2 SLOAD DUP2 LT PUSH2 0x258D JUMPI PUSH2 0x258C PUSH2 0x3611 JUMP JUMPDEST JUMPDEST SWAP1 PUSH1 0x0 MSTORE PUSH1 0x20 PUSH1 0x0 KECCAK256 SWAP1 PUSH1 0x3 MUL ADD PUSH1 0x2 ADD PUSH1 0x0 DUP12 DUP2 MSTORE PUSH1 0x20 ADD SWAP1 DUP2 MSTORE PUSH1 0x20 ADD PUSH1 0x0 KECCAK256 PUSH1 0x0 DUP3 DUP3 SLOAD PUSH2 0x25BE SWAP2 SWAP1 PUSH2 0x3392 JUMP JUMPDEST SWAP3 POP POP DUP2 SWAP1 SSTORE POP PUSH1 0x1 SWAP2 POP PUSH2 0x25E1 JUMP JUMPDEST DUP1 DUP1 PUSH2 0x25D9 SWAP1 PUSH2 0x353B JUMP JUMPDEST SWAP2 POP POP PUSH2 0x24F5 JUMP JUMPDEST POP DUP1 PUSH2 0x2691 JUMPI DUP3 PUSH1 0x1 DUP2 PUSH1 0x1 DUP2 SLOAD ADD DUP1 DUP3 SSTORE DUP1 SWAP2 POP POP SUB SWAP1 PUSH1 0x0 MSTORE PUSH1 0x20 PUSH1 0x0 KECCAK256 SWAP1 POP POP PUSH1 0x0 DUP4 DUP4 DUP2 SLOAD DUP2 LT PUSH2 0x2619 JUMPI PUSH2 0x2618 PUSH2 0x3611 JUMP JUMPDEST JUMPDEST SWAP1 PUSH1 0x0 MSTORE PUSH1 0x20 PUSH1 0x0 KECCAK256 SWAP1 PUSH1 0x3 MUL ADD SWAP1 POP DUP8 DUP2 PUSH1 0x0 ADD DUP2 SWAP1 SSTORE POP CALLER DUP2 PUSH1 0x1 ADD PUSH1 0x0 PUSH2 0x100 EXP DUP2 SLOAD DUP2 PUSH20 0xFFFFFFFFFFFFFFFFFFFFFFFFFFFFFFFFFFFFFFFF MUL NOT AND SWAP1 DUP4 PUSH20 0xFFFFFFFFFFFFFFFFFFFFFFFFFFFFFFFFFFFFFFFF AND MUL OR SWAP1 SSTORE POP CALLVALUE DUP2 PUSH1 0x2 ADD PUSH1 0x0 DUP12 DUP2 MSTORE PUSH1 0x20 ADD SWAP1 DUP2 MSTORE PUSH1 0x20 ADD PUSH1 0x0 KECCAK256 DUP2 SWAP1 SSTORE POP POP JUMPDEST DUP5 DUP5 DUP2 SLOAD DUP2 LT PUSH2 0x26A4 JUMPI PUSH2 0x26A3 PUSH2 0x3611 JUMP JUMPDEST JUMPDEST SWAP1 PUSH1 0x0 MSTORE PUSH1 0x20 PUSH1 0x0 KECCAK256 SWAP1 PUSH1 0x7 MUL ADD PUSH1 0x2 ADD SLOAD DUP6 DUP6 DUP2 SLOAD DUP2 LT PUSH2 0x26C9 JUMPI PUSH2 0x26C8 PUSH2 0x3611 JUMP JUMPDEST JUMPDEST SWAP1 PUSH1 0x0 MSTORE PUSH1 0x20 PUSH1 0x0 KECCAK256 SWAP1 PUSH1 0x7 MUL ADD PUSH1 0x3 ADD SLOAD EQ ISZERO PUSH2 0x27A8 JUMPI PUSH1 0x3 DUP6 DUP6 DUP2 SLOAD DUP2 LT PUSH2 0x26F6 JUMPI PUSH2 0x26F5 PUSH2 0x3611 JUMP JUMPDEST JUMPDEST SWAP1 PUSH1 0x0 MSTORE PUSH1 0x20 PUSH1 0x0 KECCAK256 SWAP1 PUSH1 0x7 MUL ADD PUSH1 0x6 ADD PUSH1 0x0 PUSH2 0x100 EXP DUP2 SLOAD DUP2 PUSH1 0xFF MUL NOT AND SWAP1 DUP4 PUSH1 0x9 DUP2 GT ISZERO PUSH2 0x2729 JUMPI PUSH2 0x2728 PUSH2 0x35B3 JUMP JUMPDEST JUMPDEST MUL OR SWAP1 SSTORE POP PUSH1 0x0 DUP6 DUP6 DUP2 SLOAD DUP2 LT PUSH2 0x2743 JUMPI PUSH2 0x2742 PUSH2 0x3611 JUMP JUMPDEST JUMPDEST SWAP1 PUSH1 0x0 MSTORE PUSH1 0x20 PUSH1 0x0 KECCAK256 SWAP1 PUSH1 0x7 MUL ADD PUSH1 0x4 ADD PUSH1 0x14 PUSH2 0x100 EXP DUP2 SLOAD DUP2 PUSH1 0xFF MUL NOT AND SWAP1 DUP4 ISZERO ISZERO MUL OR SWAP1 SSTORE POP PUSH32 0x4460A3075D16E0C301975989C352ADF5EFEF3F00E4B1CD798431DDDDA7179E58 DUP10 DUP10 PUSH1 0x3 PUSH1 0x40 MLOAD PUSH2 0x279F SWAP4 SWAP3 SWAP2 SWAP1 PUSH2 0x322D JUMP JUMPDEST PUSH1 0x40 MLOAD DUP1 SWAP2 SUB SWAP1 LOG1 JUMPDEST POP POP POP PUSH2 0x27EB JUMP JUMPDEST PUSH1 0x40 MLOAD PUSH32 0x8C379A000000000000000000000000000000000000000000000000000000000 DUP2 MSTORE PUSH1 0x4 ADD PUSH2 0x27E2 SWAP1 PUSH2 0x31AC JUMP JUMPDEST PUSH1 0x40 MLOAD DUP1 SWAP2 SUB SWAP1 REVERT JUMPDEST PUSH1 0x1 SWAP3 POP PUSH2 0x2807 JUMP JUMPDEST DUP1 DUP1 PUSH2 0x27FF SWAP1 PUSH2 0x353B JUMP JUMPDEST SWAP2 POP POP PUSH2 0x239F JUMP JUMPDEST POP DUP2 PUSH2 0x2848 JUMPI PUSH1 0x40 MLOAD PUSH32 0x8C379A000000000000000000000000000000000000000000000000000000000 DUP2 MSTORE PUSH1 0x4 ADD PUSH2 0x283F SWAP1 PUSH2 0x318C JUMP JUMPDEST PUSH1 0x40 MLOAD DUP1 SWAP2 SUB SWAP1 REVERT JUMPDEST POP POP POP POP POP JUMP JUMPDEST PUSH1 0x1 DUP2 DUP2 SLOAD DUP2 LT PUSH2 0x285F JUMPI PUSH1 0x0 DUP1 REVERT JUMPDEST SWAP1 PUSH1 0x0 MSTORE PUSH1 0x20 PUSH1 0x0 KECCAK256 SWAP1 PUSH1 0x5 MUL ADD PUSH1 0x0 SWAP2 POP SWAP1 POP DUP1 PUSH1 0x0 ADD SLOAD SWAP1 DUP1 PUSH1 0x1 ADD PUSH1 0x0 SWAP1 SLOAD SWAP1 PUSH2 0x100 EXP SWAP1 DIV PUSH1 0xFF AND SWAP1 DUP1 PUSH1 0x2 ADD DUP1 SLOAD PUSH2 0x289B SWAP1 PUSH2 0x34D8 JUMP JUMPDEST DUP1 PUSH1 0x1F ADD PUSH1 0x20 DUP1 SWAP2 DIV MUL PUSH1 0x20 ADD PUSH1 0x40 MLOAD SWAP1 DUP2 ADD PUSH1 0x40 MSTORE DUP1 SWAP3 SWAP2 SWAP1 DUP2 DUP2 MSTORE PUSH1 0x20 ADD DUP3 DUP1 SLOAD PUSH2 0x28C7 SWAP1 PUSH2 0x34D8 JUMP JUMPDEST DUP1 ISZERO PUSH2 0x2914 JUMPI DUP1 PUSH1 0x1F LT PUSH2 0x28E9 JUMPI PUSH2 0x100 DUP1 DUP4 SLOAD DIV MUL DUP4 MSTORE SWAP2 PUSH1 0x20 ADD SWAP2 PUSH2 0x2914 JUMP JUMPDEST DUP3 ADD SWAP2 SWAP1 PUSH1 0x0 MSTORE PUSH1 0x20 PUSH1 0x0 KECCAK256 SWAP1 JUMPDEST DUP2 SLOAD DUP2 MSTORE SWAP1 PUSH1 0x1 ADD SWAP1 PUSH1 0x20 ADD DUP1 DUP4 GT PUSH2 0x28F7 JUMPI DUP3 SWAP1 SUB PUSH1 0x1F AND DUP3 ADD SWAP2 JUMPDEST POP POP POP POP POP SWAP1 DUP1 PUSH1 0x3 ADD DUP1 SLOAD PUSH2 0x2929 SWAP1 PUSH2 0x34D8 JUMP JUMPDEST DUP1 PUSH1 0x1F ADD PUSH1 0x20 DUP1 SWAP2 DIV MUL PUSH1 0x20 ADD PUSH1 0x40 MLOAD SWAP1 DUP2 ADD PUSH1 0x40 MSTORE DUP1 SWAP3 SWAP2 SWAP1 DUP2 DUP2 MSTORE PUSH1 0x20 ADD DUP3 DUP1 SLOAD PUSH2 0x2955 SWAP1 PUSH2 0x34D8 JUMP JUMPDEST DUP1 ISZERO PUSH2 0x29A2 JUMPI DUP1 PUSH1 0x1F LT PUSH2 0x2977 JUMPI PUSH2 0x100 DUP1 DUP4 SLOAD DIV MUL DUP4 MSTORE SWAP2 PUSH1 0x20 ADD SWAP2 PUSH2 0x29A2 JUMP JUMPDEST DUP3 ADD SWAP2 SWAP1 PUSH1 0x0 MSTORE PUSH1 0x20 PUSH1 0x0 KECCAK256 SWAP1 JUMPDEST DUP2 SLOAD DUP2 MSTORE SWAP1 PUSH1 0x1 ADD SWAP1 PUSH1 0x20 ADD DUP1 DUP4 GT PUSH2 0x2985 JUMPI DUP3 SWAP1 SUB PUSH1 0x1F AND DUP3 ADD SWAP2 JUMPDEST POP POP POP POP POP SWAP1 DUP1 PUSH1 0x4 ADD PUSH1 0x0 SWAP1 SLOAD SWAP1 PUSH2 0x100 EXP SWAP1 DIV PUSH20 0xFFFFFFFFFFFFFFFFFFFFFFFFFFFFFFFFFFFFFFFF AND SWAP1 POP DUP6 JUMP JUMPDEST DUP3 DUP1 SLOAD PUSH2 0x29DE SWAP1 PUSH2 0x34D8 JUMP JUMPDEST SWAP1 PUSH1 0x0 MSTORE PUSH1 0x20 PUSH1 0x0 KECCAK256 SWAP1 PUSH1 0x1F ADD PUSH1 0x20 SWAP1 DIV DUP2 ADD SWAP3 DUP3 PUSH2 0x2A00 JUMPI PUSH1 0x0 DUP6 SSTORE PUSH2 0x2A47 JUMP JUMPDEST DUP3 PUSH1 0x1F LT PUSH2 0x2A19 JUMPI DUP1 MLOAD PUSH1 0xFF NOT AND DUP4 DUP1 ADD OR DUP6 SSTORE PUSH2 0x2A47 JUMP JUMPDEST DUP3 DUP1 ADD PUSH1 0x1 ADD DUP6 SSTORE DUP3 ISZERO PUSH2 0x2A47 JUMPI SWAP2 DUP3 ADD JUMPDEST DUP3 DUP2 GT ISZERO PUSH2 0x2A46 JUMPI DUP3 MLOAD DUP3 SSTORE SWAP2 PUSH1 0x20 ADD SWAP2 SWAP1 PUSH1 0x1 ADD SWAP1 PUSH2 0x2A2B JUMP JUMPDEST JUMPDEST POP SWAP1 POP PUSH2 0x2A54 SWAP2 SWAP1 PUSH2 0x2A58 JUMP JUMPDEST POP SWAP1 JUMP JUMPDEST JUMPDEST DUP1 DUP3 GT ISZERO PUSH2 0x2A71 JUMPI PUSH1 0x0 DUP2 PUSH1 0x0 SWAP1 SSTORE POP PUSH1 0x1 ADD PUSH2 0x2A59 JUMP JUMPDEST POP SWAP1 JUMP JUMPDEST PUSH1 0x0 PUSH2 0x2A88 PUSH2 0x2A83 DUP5 PUSH2 0x3345 JUMP JUMPDEST PUSH2 0x3320 JUMP JUMPDEST SWAP1 POP DUP3 DUP2 MSTORE PUSH1 0x20 DUP2 ADD DUP5 DUP5 DUP5 ADD GT ISZERO PUSH2 0x2AA4 JUMPI PUSH2 0x2AA3 PUSH2 0x3674 JUMP JUMPDEST JUMPDEST PUSH2 0x2AAF DUP5 DUP3 DUP6 PUSH2 0x3496 JUMP JUMPDEST POP SWAP4 SWAP3 POP POP POP JUMP JUMPDEST PUSH1 0x0 DUP2 CALLDATALOAD SWAP1 POP PUSH2 0x2AC6 DUP2 PUSH2 0x39EA JUMP JUMPDEST SWAP3 SWAP2 POP POP JUMP JUMPDEST PUSH1 0x0 DUP2 CALLDATALOAD SWAP1 POP PUSH2 0x2ADB DUP2 PUSH2 0x3A01 JUMP JUMPDEST SWAP3 SWAP2 POP POP JUMP JUMPDEST PUSH1 0x0 DUP3 PUSH1 0x1F DUP4 ADD SLT PUSH2 0x2AF6 JUMPI PUSH2 0x2AF5 PUSH2 0x366F JUMP JUMPDEST JUMPDEST DUP2 CALLDATALOAD PUSH2 0x2B06 DUP5 DUP3 PUSH1 0x20 DUP7 ADD PUSH2 0x2A75 JUMP JUMPDEST SWAP2 POP POP SWAP3 SWAP2 POP POP JUMP JUMPDEST PUSH1 0x0 DUP2 CALLDATALOAD SWAP1 POP PUSH2 0x2B1E DUP2 PUSH2 0x3A11 JUMP JUMPDEST SWAP3 SWAP2 POP POP JUMP JUMPDEST PUSH1 0x0 DUP2 CALLDATALOAD SWAP1 POP PUSH2 0x2B33 DUP2 PUSH2 0x3A28 JUMP JUMPDEST SWAP3 SWAP2 POP POP JUMP JUMPDEST PUSH1 0x0 PUSH1 0x20 DUP3 DUP5 SUB SLT ISZERO PUSH2 0x2B4F JUMPI PUSH2 0x2B4E PUSH2 0x367E JUMP JUMPDEST JUMPDEST PUSH1 0x0 PUSH2 0x2B5D DUP5 DUP3 DUP6 ADD PUSH2 0x2ACC JUMP JUMPDEST SWAP2 POP POP SWAP3 SWAP2 POP POP JUMP JUMPDEST PUSH1 0x0 PUSH1 0x20 DUP3 DUP5 SUB SLT ISZERO PUSH2 0x2B7C JUMPI PUSH2 0x2B7B PUSH2 0x367E JUMP JUMPDEST JUMPDEST PUSH1 0x0 PUSH2 0x2B8A DUP5 DUP3 DUP6 ADD PUSH2 0x2B0F JUMP JUMPDEST SWAP2 POP POP SWAP3 SWAP2 POP POP JUMP JUMPDEST PUSH1 0x0 DUP1 PUSH1 0x40 DUP4 DUP6 SUB SLT ISZERO PUSH2 0x2BAA JUMPI PUSH2 0x2BA9 PUSH2 0x367E JUMP JUMPDEST JUMPDEST PUSH1 0x0 PUSH2 0x2BB8 DUP6 DUP3 DUP7 ADD PUSH2 0x2B0F JUMP JUMPDEST SWAP3 POP POP PUSH1 0x20 DUP4 ADD CALLDATALOAD PUSH8 0xFFFFFFFFFFFFFFFF DUP2 GT ISZERO PUSH2 0x2BD9 JUMPI PUSH2 0x2BD8 PUSH2 0x3679 JUMP JUMPDEST JUMPDEST PUSH2 0x2BE5 DUP6 DUP3 DUP7 ADD PUSH2 0x2AE1 JUMP JUMPDEST SWAP2 POP POP SWAP3 POP SWAP3 SWAP1 POP JUMP JUMPDEST PUSH1 0x0 DUP1 PUSH1 0x0 PUSH1 0x60 DUP5 DUP7 SUB SLT ISZERO PUSH2 0x2C08 JUMPI PUSH2 0x2C07 PUSH2 0x367E JUMP JUMPDEST JUMPDEST PUSH1 0x0 PUSH2 0x2C16 DUP7 DUP3 DUP8 ADD PUSH2 0x2B0F JUMP JUMPDEST SWAP4 POP POP PUSH1 0x20 DUP5 ADD CALLDATALOAD PUSH8 0xFFFFFFFFFFFFFFFF DUP2 GT ISZERO PUSH2 0x2C37 JUMPI PUSH2 0x2C36 PUSH2 0x3679 JUMP JUMPDEST JUMPDEST PUSH2 0x2C43 DUP7 DUP3 DUP8 ADD PUSH2 0x2AE1 JUMP JUMPDEST SWAP3 POP POP PUSH1 0x40 PUSH2 0x2C54 DUP7 DUP3 DUP8 ADD PUSH2 0x2AB7 JUMP JUMPDEST SWAP2 POP POP SWAP3 POP SWAP3 POP SWAP3 JUMP JUMPDEST PUSH1 0x0 DUP1 PUSH1 0x40 DUP4 DUP6 SUB SLT ISZERO PUSH2 0x2C75 JUMPI PUSH2 0x2C74 PUSH2 0x367E JUMP JUMPDEST JUMPDEST PUSH1 0x0 PUSH2 0x2C83 DUP6 DUP3 DUP7 ADD PUSH2 0x2B0F JUMP JUMPDEST SWAP3 POP POP PUSH1 0x20 PUSH2 0x2C94 DUP6 DUP3 DUP7 ADD PUSH2 0x2B0F JUMP JUMPDEST SWAP2 POP POP SWAP3 POP SWAP3 SWAP1 POP JUMP JUMPDEST PUSH1 0x0 DUP1 PUSH1 0x0 PUSH1 0x60 DUP5 DUP7 SUB SLT ISZERO PUSH2 0x2CB7 JUMPI PUSH2 0x2CB6 PUSH2 0x367E JUMP JUMPDEST JUMPDEST PUSH1 0x0 PUSH2 0x2CC5 DUP7 DUP3 DUP8 ADD PUSH2 0x2B0F JUMP JUMPDEST SWAP4 POP POP PUSH1 0x20 PUSH2 0x2CD6 DUP7 DUP3 DUP8 ADD PUSH2 0x2B0F JUMP JUMPDEST SWAP3 POP POP PUSH1 0x40 PUSH2 0x2CE7 DUP7 DUP3 DUP8 ADD PUSH2 0x2B0F JUMP JUMPDEST SWAP2 POP POP SWAP3 POP SWAP3 POP SWAP3 JUMP JUMPDEST PUSH1 0x0 DUP1 PUSH1 0x0 DUP1 PUSH1 0x0 PUSH1 0xA0 DUP7 DUP9 SUB SLT ISZERO PUSH2 0x2D0D JUMPI PUSH2 0x2D0C PUSH2 0x367E JUMP JUMPDEST JUMPDEST PUSH1 0x0 PUSH2 0x2D1B DUP9 DUP3 DUP10 ADD PUSH2 0x2B0F JUMP JUMPDEST SWAP6 POP POP PUSH1 0x20 PUSH2 0x2D2C DUP9 DUP3 DUP10 ADD PUSH2 0x2B0F JUMP JUMPDEST SWAP5 POP POP PUSH1 0x40 PUSH2 0x2D3D DUP9 DUP3 DUP10 ADD PUSH2 0x2B0F JUMP JUMPDEST SWAP4 POP POP PUSH1 0x60 PUSH2 0x2D4E DUP9 DUP3 DUP10 ADD PUSH2 0x2AB7 JUMP JUMPDEST SWAP3 POP POP PUSH1 0x80 DUP7 ADD CALLDATALOAD PUSH8 0xFFFFFFFFFFFFFFFF DUP2 GT ISZERO PUSH2 0x2D6F JUMPI PUSH2 0x2D6E PUSH2 0x3679 JUMP JUMPDEST JUMPDEST PUSH2 0x2D7B DUP9 DUP3 DUP10 ADD PUSH2 0x2AE1 JUMP JUMPDEST SWAP2 POP POP SWAP3 SWAP6 POP SWAP3 SWAP6 SWAP1 SWAP4 POP JUMP JUMPDEST PUSH1 0x0 DUP1 PUSH1 0x0 PUSH1 0x60 DUP5 DUP7 SUB SLT ISZERO PUSH2 0x2DA1 JUMPI PUSH2 0x2DA0 PUSH2 0x367E JUMP JUMPDEST JUMPDEST PUSH1 0x0 PUSH2 0x2DAF DUP7 DUP3 DUP8 ADD PUSH2 0x2B0F JUMP JUMPDEST SWAP4 POP POP PUSH1 0x20 PUSH2 0x2DC0 DUP7 DUP3 DUP8 ADD PUSH2 0x2B0F JUMP JUMPDEST SWAP3 POP POP PUSH1 0x40 PUSH2 0x2DD1 DUP7 DUP3 DUP8 ADD PUSH2 0x2B24 JUMP JUMPDEST SWAP2 POP POP SWAP3 POP SWAP3 POP SWAP3 JUMP JUMPDEST PUSH2 0x2DE4 DUP2 PUSH2 0x341C JUMP JUMPDEST DUP3 MSTORE POP POP JUMP JUMPDEST PUSH2 0x2DF3 DUP2 PUSH2 0x342E JUMP JUMPDEST DUP3 MSTORE POP POP JUMP JUMPDEST PUSH2 0x2E02 DUP2 PUSH2 0x3484 JUMP JUMPDEST DUP3 MSTORE POP POP JUMP JUMPDEST PUSH1 0x0 PUSH2 0x2E13 DUP3 PUSH2 0x3376 JUMP JUMPDEST PUSH2 0x2E1D DUP2 DUP6 PUSH2 0x3381 JUMP JUMPDEST SWAP4 POP PUSH2 0x2E2D DUP2 DUP6 PUSH1 0x20 DUP7 ADD PUSH2 0x34A5 JUMP JUMPDEST PUSH2 0x2E36 DUP2 PUSH2 0x3683 JUMP JUMPDEST DUP5 ADD SWAP2 POP POP SWAP3 SWAP2 POP POP JUMP JUMPDEST PUSH1 0x0 PUSH2 0x2E4E PUSH1 0x11 DUP4 PUSH2 0x3381 JUMP JUMPDEST SWAP2 POP PUSH2 0x2E59 DUP3 PUSH2 0x3694 JUMP JUMPDEST PUSH1 0x20 DUP3 ADD SWAP1 POP SWAP2 SWAP1 POP JUMP JUMPDEST PUSH1 0x0 PUSH2 0x2E71 PUSH1 0x28 DUP4 PUSH2 0x3381 JUMP JUMPDEST SWAP2 POP PUSH2 0x2E7C DUP3 PUSH2 0x36BD JUMP JUMPDEST PUSH1 0x40 DUP3 ADD SWAP1 POP SWAP2 SWAP1 POP JUMP JUMPDEST PUSH1 0x0 PUSH2 0x2E94 PUSH1 0x31 DUP4 PUSH2 0x3381 JUMP JUMPDEST SWAP2 POP PUSH2 0x2E9F DUP3 PUSH2 0x370C JUMP JUMPDEST PUSH1 0x40 DUP3 ADD SWAP1 POP SWAP2 SWAP1 POP JUMP JUMPDEST PUSH1 0x0 PUSH2 0x2EB7 PUSH1 0x41 DUP4 PUSH2 0x3381 JUMP JUMPDEST SWAP2 POP PUSH2 0x2EC2 DUP3 PUSH2 0x375B JUMP JUMPDEST PUSH1 0x60 DUP3 ADD SWAP1 POP SWAP2 SWAP1 POP JUMP JUMPDEST PUSH1 0x0 PUSH2 0x2EDA PUSH1 0x3E DUP4 PUSH2 0x3381 JUMP JUMPDEST SWAP2 POP PUSH2 0x2EE5 DUP3 PUSH2 0x37D0 JUMP JUMPDEST PUSH1 0x40 DUP3 ADD SWAP1 POP SWAP2 SWAP1 POP JUMP JUMPDEST PUSH1 0x0 PUSH2 0x2EFD PUSH1 0x15 DUP4 PUSH2 0x3381 JUMP JUMPDEST SWAP2 POP PUSH2 0x2F08 DUP3 PUSH2 0x381F JUMP JUMPDEST PUSH1 0x20 DUP3 ADD SWAP1 POP SWAP2 SWAP1 POP JUMP JUMPDEST PUSH1 0x0 PUSH2 0x2F20 PUSH1 0x1B DUP4 PUSH2 0x3381 JUMP JUMPDEST SWAP2 POP PUSH2 0x2F2B DUP3 PUSH2 0x3848 JUMP JUMPDEST PUSH1 0x20 DUP3 ADD SWAP1 POP SWAP2 SWAP1 POP JUMP JUMPDEST PUSH1 0x0 PUSH2 0x2F43 PUSH1 0x23 DUP4 PUSH2 0x3381 JUMP JUMPDEST SWAP2 POP PUSH2 0x2F4E DUP3 PUSH2 0x3871 JUMP JUMPDEST PUSH1 0x40 DUP3 ADD SWAP1 POP SWAP2 SWAP1 POP JUMP JUMPDEST PUSH1 0x0 PUSH2 0x2F66 PUSH1 0x15 DUP4 PUSH2 0x3381 JUMP JUMPDEST SWAP2 POP PUSH2 0x2F71 DUP3 PUSH2 0x38C0 JUMP JUMPDEST PUSH1 0x20 DUP3 ADD SWAP1 POP SWAP2 SWAP1 POP JUMP JUMPDEST PUSH1 0x0 PUSH2 0x2F89 PUSH1 0x25 DUP4 PUSH2 0x3381 JUMP JUMPDEST SWAP2 POP PUSH2 0x2F94 DUP3 PUSH2 0x38E9 JUMP JUMPDEST PUSH1 0x40 DUP3 ADD SWAP1 POP SWAP2 SWAP1 POP JUMP JUMPDEST PUSH1 0x0 PUSH2 0x2FAC PUSH1 0x28 DUP4 PUSH2 0x3381 JUMP JUMPDEST SWAP2 POP PUSH2 0x2FB7 DUP3 PUSH2 0x3938 JUMP JUMPDEST PUSH1 0x40 DUP3 ADD SWAP1 POP SWAP2 SWAP1 POP JUMP JUMPDEST PUSH1 0x0 PUSH2 0x2FCF PUSH1 0x2C DUP4 PUSH2 0x3381 JUMP JUMPDEST SWAP2 POP PUSH2 0x2FDA DUP3 PUSH2 0x3987 JUMP JUMPDEST PUSH1 0x40 DUP3 ADD SWAP1 POP SWAP2 SWAP1 POP JUMP JUMPDEST PUSH2 0x2FEE DUP2 PUSH2 0x346D JUMP JUMPDEST DUP3 MSTORE POP POP JUMP JUMPDEST PUSH1 0x0 PUSH1 0x20 DUP3 ADD SWAP1 POP PUSH2 0x3009 PUSH1 0x0 DUP4 ADD DUP5 PUSH2 0x2DDB JUMP JUMPDEST SWAP3 SWAP2 POP POP JUMP JUMPDEST PUSH1 0x0 PUSH1 0x20 DUP3 ADD SWAP1 POP PUSH2 0x3024 PUSH1 0x0 DUP4 ADD DUP5 PUSH2 0x2DF9 JUMP JUMPDEST SWAP3 SWAP2 POP POP JUMP JUMPDEST PUSH1 0x0 PUSH1 0x20 DUP3 ADD SWAP1 POP DUP2 DUP2 SUB PUSH1 0x0 DUP4 ADD MSTORE PUSH2 0x3044 DUP2 DUP5 PUSH2 0x2E08 JUMP JUMPDEST SWAP1 POP SWAP3 SWAP2 POP POP JUMP JUMPDEST PUSH1 0x0 PUSH1 0x20 DUP3 ADD SWAP1 POP DUP2 DUP2 SUB PUSH1 0x0 DUP4 ADD MSTORE PUSH2 0x3065 DUP2 PUSH2 0x2E41 JUMP JUMPDEST SWAP1 POP SWAP2 SWAP1 POP JUMP JUMPDEST PUSH1 0x0 PUSH1 0x20 DUP3 ADD SWAP1 POP DUP2 DUP2 SUB PUSH1 0x0 DUP4 ADD MSTORE PUSH2 0x3085 DUP2 PUSH2 0x2E64 JUMP JUMPDEST SWAP1 POP SWAP2 SWAP1 POP JUMP JUMPDEST PUSH1 0x0 PUSH1 0x20 DUP3 ADD SWAP1 POP DUP2 DUP2 SUB PUSH1 0x0 DUP4 ADD MSTORE PUSH2 0x30A5 DUP2 PUSH2 0x2E87 JUMP JUMPDEST SWAP1 POP SWAP2 SWAP1 POP JUMP JUMPDEST PUSH1 0x0 PUSH1 0x20 DUP3 ADD SWAP1 POP DUP2 DUP2 SUB PUSH1 0x0 DUP4 ADD MSTORE PUSH2 0x30C5 DUP2 PUSH2 0x2EAA JUMP JUMPDEST SWAP1 POP SWAP2 SWAP1 POP JUMP JUMPDEST PUSH1 0x0 PUSH1 0x20 DUP3 ADD SWAP1 POP DUP2 DUP2 SUB PUSH1 0x0 DUP4 ADD MSTORE PUSH2 0x30E5 DUP2 PUSH2 0x2ECD JUMP JUMPDEST SWAP1 POP SWAP2 SWAP1 POP JUMP JUMPDEST PUSH1 0x0 PUSH1 0x20 DUP3 ADD SWAP1 POP DUP2 DUP2 SUB PUSH1 0x0 DUP4 ADD MSTORE PUSH2 0x3105 DUP2 PUSH2 0x2EF0 JUMP JUMPDEST SWAP1 POP SWAP2 SWAP1 POP JUMP JUMPDEST PUSH1 0x0 PUSH1 0x20 DUP3 ADD SWAP1 POP DUP2 DUP2 SUB PUSH1 0x0 DUP4 ADD MSTORE PUSH2 0x3125 DUP2 PUSH2 0x2F13 JUMP JUMPDEST SWAP1 POP SWAP2 SWAP1 POP JUMP JUMPDEST PUSH1 0x0 PUSH1 0x20 DUP3 ADD SWAP1 POP DUP2 DUP2 SUB PUSH1 0x0 DUP4 ADD MSTORE PUSH2 0x3145 DUP2 PUSH2 0x2F36 JUMP JUMPDEST SWAP1 POP SWAP2 SWAP1 POP JUMP JUMPDEST PUSH1 0x0 PUSH1 0x20 DUP3 ADD SWAP1 POP DUP2 DUP2 SUB PUSH1 0x0 DUP4 ADD MSTORE PUSH2 0x3165 DUP2 PUSH2 0x2F59 JUMP JUMPDEST SWAP1 POP SWAP2 SWAP1 POP JUMP JUMPDEST PUSH1 0x0 PUSH1 0x20 DUP3 ADD SWAP1 POP DUP2 DUP2 SUB PUSH1 0x0 DUP4 ADD MSTORE PUSH2 0x3185 DUP2 PUSH2 0x2F7C JUMP JUMPDEST SWAP1 POP SWAP2 SWAP1 POP JUMP JUMPDEST PUSH1 0x0 PUSH1 0x20 DUP3 ADD SWAP1 POP DUP2 DUP2 SUB PUSH1 0x0 DUP4 ADD MSTORE PUSH2 0x31A5 DUP2 PUSH2 0x2F9F JUMP JUMPDEST SWAP1 POP SWAP2 SWAP1 POP JUMP JUMPDEST PUSH1 0x0 PUSH1 0x20 DUP3 ADD SWAP1 POP DUP2 DUP2 SUB PUSH1 0x0 DUP4 ADD MSTORE PUSH2 0x31C5 DUP2 PUSH2 0x2FC2 JUMP JUMPDEST SWAP1 POP SWAP2 SWAP1 POP JUMP JUMPDEST PUSH1 0x0 PUSH1 0xA0 DUP3 ADD SWAP1 POP PUSH2 0x31E1 PUSH1 0x0 DUP4 ADD DUP9 PUSH2 0x2FE5 JUMP JUMPDEST PUSH2 0x31EE PUSH1 0x20 DUP4 ADD DUP8 PUSH2 0x2DEA JUMP JUMPDEST DUP2 DUP2 SUB PUSH1 0x40 DUP4 ADD MSTORE PUSH2 0x3200 DUP2 DUP7 PUSH2 0x2E08 JUMP JUMPDEST SWAP1 POP DUP2 DUP2 SUB PUSH1 0x60 DUP4 ADD MSTORE PUSH2 0x3214 DUP2 DUP6 PUSH2 0x2E08 JUMP JUMPDEST SWAP1 POP PUSH2 0x3223 PUSH1 0x80 DUP4 ADD DUP5 PUSH2 0x2DDB JUMP JUMPDEST SWAP7 SWAP6 POP POP POP POP POP POP JUMP JUMPDEST PUSH1 0x0 PUSH1 0x60 DUP3 ADD SWAP1 POP PUSH2 0x3242 PUSH1 0x0 DUP4 ADD DUP7 PUSH2 0x2FE5 JUMP JUMPDEST PUSH2 0x324F PUSH1 0x20 DUP4 ADD DUP6 PUSH2 0x2FE5 JUMP JUMPDEST PUSH2 0x325C PUSH1 0x40 DUP4 ADD DUP5 PUSH2 0x2DF9 JUMP JUMPDEST SWAP5 SWAP4 POP POP POP POP JUMP JUMPDEST PUSH1 0x0 PUSH1 0x60 DUP3 ADD SWAP1 POP PUSH2 0x3279 PUSH1 0x0 DUP4 ADD DUP7 PUSH2 0x2FE5 JUMP JUMPDEST PUSH2 0x3286 PUSH1 0x20 DUP4 ADD DUP6 PUSH2 0x2FE5 JUMP JUMPDEST PUSH2 0x3293 PUSH1 0x40 DUP4 ADD DUP5 PUSH2 0x2FE5 JUMP JUMPDEST SWAP5 SWAP4 POP POP POP POP JUMP JUMPDEST PUSH1 0x0 PUSH2 0x100 DUP3 ADD SWAP1 POP PUSH2 0x32B1 PUSH1 0x0 DUP4 ADD DUP12 PUSH2 0x2FE5 JUMP JUMPDEST PUSH2 0x32BE PUSH1 0x20 DUP4 ADD DUP11 PUSH2 0x2FE5 JUMP JUMPDEST PUSH2 0x32CB PUSH1 0x40 DUP4 ADD DUP10 PUSH2 0x2FE5 JUMP JUMPDEST PUSH2 0x32D8 PUSH1 0x60 DUP4 ADD DUP9 PUSH2 0x2FE5 JUMP JUMPDEST PUSH2 0x32E5 PUSH1 0x80 DUP4 ADD DUP8 PUSH2 0x2DDB JUMP JUMPDEST PUSH2 0x32F2 PUSH1 0xA0 DUP4 ADD DUP7 PUSH2 0x2DEA JUMP JUMPDEST DUP2 DUP2 SUB PUSH1 0xC0 DUP4 ADD MSTORE PUSH2 0x3304 DUP2 DUP6 PUSH2 0x2E08 JUMP JUMPDEST SWAP1 POP PUSH2 0x3313 PUSH1 0xE0 DUP4 ADD DUP5 PUSH2 0x2DF9 JUMP JUMPDEST SWAP10 SWAP9 POP POP POP POP POP POP POP POP POP JUMP JUMPDEST PUSH1 0x0 PUSH2 0x332A PUSH2 0x333B JUMP JUMPDEST SWAP1 POP PUSH2 0x3336 DUP3 DUP3 PUSH2 0x350A JUMP JUMPDEST SWAP2 SWAP1 POP JUMP JUMPDEST PUSH1 0x0 PUSH1 0x40 MLOAD SWAP1 POP SWAP1 JUMP JUMPDEST PUSH1 0x0 PUSH8 0xFFFFFFFFFFFFFFFF DUP3 GT ISZERO PUSH2 0x3360 JUMPI PUSH2 0x335F PUSH2 0x3640 JUMP JUMPDEST JUMPDEST PUSH2 0x3369 DUP3 PUSH2 0x3683 JUMP JUMPDEST SWAP1 POP PUSH1 0x20 DUP2 ADD SWAP1 POP SWAP2 SWAP1 POP JUMP JUMPDEST PUSH1 0x0 DUP2 MLOAD SWAP1 POP SWAP2 SWAP1 POP JUMP JUMPDEST PUSH1 0x0 DUP3 DUP3 MSTORE PUSH1 0x20 DUP3 ADD SWAP1 POP SWAP3 SWAP2 POP POP JUMP JUMPDEST PUSH1 0x0 PUSH2 0x339D DUP3 PUSH2 0x346D JUMP JUMPDEST SWAP2 POP PUSH2 0x33A8 DUP4 PUSH2 0x346D JUMP JUMPDEST SWAP3 POP DUP3 PUSH32 0xFFFFFFFFFFFFFFFFFFFFFFFFFFFFFFFFFFFFFFFFFFFFFFFFFFFFFFFFFFFFFFFF SUB DUP3 GT ISZERO PUSH2 0x33DD JUMPI PUSH2 0x33DC PUSH2 0x3584 JUMP JUMPDEST JUMPDEST DUP3 DUP3 ADD SWAP1 POP SWAP3 SWAP2 POP POP JUMP JUMPDEST PUSH1 0x0 PUSH2 0x33F3 DUP3 PUSH2 0x346D JUMP JUMPDEST SWAP2 POP PUSH2 0x33FE DUP4 PUSH2 0x346D JUMP JUMPDEST SWAP3 POP DUP3 DUP3 LT ISZERO PUSH2 0x3411 JUMPI PUSH2 0x3410 PUSH2 0x3584 JUMP JUMPDEST JUMPDEST DUP3 DUP3 SUB SWAP1 POP SWAP3 SWAP2 POP POP JUMP JUMPDEST PUSH1 0x0 PUSH2 0x3427 DUP3 PUSH2 0x344D JUMP JUMPDEST SWAP1 POP SWAP2 SWAP1 POP JUMP JUMPDEST PUSH1 0x0 DUP2 ISZERO ISZERO SWAP1 POP SWAP2 SWAP1 POP JUMP JUMPDEST PUSH1 0x0 DUP2 SWAP1 POP PUSH2 0x3448 DUP3 PUSH2 0x39D6 JUMP JUMPDEST SWAP2 SWAP1 POP JUMP JUMPDEST PUSH1 0x0 PUSH20 0xFFFFFFFFFFFFFFFFFFFFFFFFFFFFFFFFFFFFFFFF DUP3 AND SWAP1 POP SWAP2 SWAP1 POP JUMP JUMPDEST PUSH1 0x0 DUP2 SWAP1 POP SWAP2 SWAP1 POP JUMP JUMPDEST PUSH1 0x0 PUSH1 0xFF DUP3 AND SWAP1 POP SWAP2 SWAP1 POP JUMP JUMPDEST PUSH1 0x0 PUSH2 0x348F DUP3 PUSH2 0x343A JUMP JUMPDEST SWAP1 POP SWAP2 SWAP1 POP JUMP JUMPDEST DUP3 DUP2 DUP4 CALLDATACOPY PUSH1 0x0 DUP4 DUP4 ADD MSTORE POP POP POP JUMP JUMPDEST PUSH1 0x0 JUMPDEST DUP4 DUP2 LT ISZERO PUSH2 0x34C3 JUMPI DUP1 DUP3 ADD MLOAD DUP2 DUP5 ADD MSTORE PUSH1 0x20 DUP2 ADD SWAP1 POP PUSH2 0x34A8 JUMP JUMPDEST DUP4 DUP2 GT ISZERO PUSH2 0x34D2 JUMPI PUSH1 0x0 DUP5 DUP5 ADD MSTORE JUMPDEST POP POP POP POP JUMP JUMPDEST PUSH1 0x0 PUSH1 0x2 DUP3 DIV SWAP1 POP PUSH1 0x1 DUP3 AND DUP1 PUSH2 0x34F0 JUMPI PUSH1 0x7F DUP3 AND SWAP2 POP JUMPDEST PUSH1 0x20 DUP3 LT DUP2 EQ ISZERO PUSH2 0x3504 JUMPI PUSH2 0x3503 PUSH2 0x35E2 JUMP JUMPDEST JUMPDEST POP SWAP2 SWAP1 POP JUMP JUMPDEST PUSH2 0x3513 DUP3 PUSH2 0x3683 JUMP JUMPDEST DUP2 ADD DUP2 DUP2 LT PUSH8 0xFFFFFFFFFFFFFFFF DUP3 GT OR ISZERO PUSH2 0x3532 JUMPI PUSH2 0x3531 PUSH2 0x3640 JUMP JUMPDEST JUMPDEST DUP1 PUSH1 0x40 MSTORE POP POP POP JUMP JUMPDEST PUSH1 0x0 PUSH2 0x3546 DUP3 PUSH2 0x346D JUMP JUMPDEST SWAP2 POP PUSH32 0xFFFFFFFFFFFFFFFFFFFFFFFFFFFFFFFFFFFFFFFFFFFFFFFFFFFFFFFFFFFFFFFF DUP3 EQ ISZERO PUSH2 0x3579 JUMPI PUSH2 0x3578 PUSH2 0x3584 JUMP JUMPDEST JUMPDEST PUSH1 0x1 DUP3 ADD SWAP1 POP SWAP2 SWAP1 POP JUMP JUMPDEST PUSH32 0x4E487B7100000000000000000000000000000000000000000000000000000000 PUSH1 0x0 MSTORE PUSH1 0x11 PUSH1 0x4 MSTORE PUSH1 0x24 PUSH1 0x0 REVERT JUMPDEST PUSH32 0x4E487B7100000000000000000000000000000000000000000000000000000000 PUSH1 0x0 MSTORE PUSH1 0x21 PUSH1 0x4 MSTORE PUSH1 0x24 PUSH1 0x0 REVERT JUMPDEST PUSH32 0x4E487B7100000000000000000000000000000000000000000000000000000000 PUSH1 0x0 MSTORE PUSH1 0x22 PUSH1 0x4 MSTORE PUSH1 0x24 PUSH1 0x0 REVERT JUMPDEST PUSH32 0x4E487B7100000000000000000000000000000000000000000000000000000000 PUSH1 0x0 MSTORE PUSH1 0x32 PUSH1 0x4 MSTORE PUSH1 0x24 PUSH1 0x0 REVERT JUMPDEST PUSH32 0x4E487B7100000000000000000000000000000000000000000000000000000000 PUSH1 0x0 MSTORE PUSH1 0x41 PUSH1 0x4 MSTORE PUSH1 0x24 PUSH1 0x0 REVERT JUMPDEST PUSH1 0x0 DUP1 REVERT JUMPDEST PUSH1 0x0 DUP1 REVERT JUMPDEST PUSH1 0x0 DUP1 REVERT JUMPDEST PUSH1 0x0 DUP1 REVERT JUMPDEST PUSH1 0x0 PUSH1 0x1F NOT PUSH1 0x1F DUP4 ADD AND SWAP1 POP SWAP2 SWAP1 POP JUMP JUMPDEST PUSH32 0x43686172697479206E6F7420666F756E64000000000000000000000000000000 PUSH1 0x0 DUP3 ADD MSTORE POP JUMP JUMPDEST PUSH32 0x596F7520686176656E277420636F6E747269627574656420666F722074686973 PUSH1 0x0 DUP3 ADD MSTORE PUSH32 0x2070726F6A656374000000000000000000000000000000000000000000000000 PUSH1 0x20 DUP3 ADD MSTORE POP JUMP JUMPDEST PUSH32 0x53686F756C642062652067726561746572207468616E206F7220657175616C20 PUSH1 0x0 DUP3 ADD MSTORE PUSH32 0x746F206D696E696D756D20616D6F756E74000000000000000000000000000000 PUSH1 0x20 DUP3 ADD MSTORE POP JUMP JUMPDEST PUSH32 0x43616E277420726566756E642061732065786368616E67652072657175657374 PUSH1 0x0 DUP3 ADD MSTORE PUSH32 0x2077617320616C726561647920696E69746961746564207769746820626F6172 PUSH1 0x20 DUP3 ADD MSTORE PUSH32 0x6400000000000000000000000000000000000000000000000000000000000000 PUSH1 0x40 DUP3 ADD MSTORE POP JUMP JUMPDEST PUSH32 0x43616E277420726566756E642061732065786368616E67652072657175657374 PUSH1 0x0 DUP3 ADD MSTORE PUSH32 0x20776173206E6F742072656A65637465642062792074686520626F6172640000 PUSH1 0x20 DUP3 ADD MSTORE POP JUMP JUMPDEST PUSH32 0x50726F6A65637420646F65736E27742065786973740000000000000000000000 PUSH1 0x0 DUP3 ADD MSTORE POP JUMP JUMPDEST PUSH32 0x43686172697479206973206E6F742079657420617070726F7665640000000000 PUSH1 0x0 DUP3 ADD MSTORE POP JUMP JUMPDEST PUSH32 0x4E6F2070726F6A65637420657869737420756E64657220746869732063686172 PUSH1 0x0 DUP3 ADD MSTORE PUSH32 0x6974790000000000000000000000000000000000000000000000000000000000 PUSH1 0x20 DUP3 ADD MSTORE POP JUMP JUMPDEST PUSH32 0x4368617269747920646F65736E27742065786973740000000000000000000000 PUSH1 0x0 DUP3 ADD MSTORE POP JUMP JUMPDEST PUSH32 0x4E6F2070726F6A65637420657869737420756E64657220746869732070726F6A PUSH1 0x0 DUP3 ADD MSTORE PUSH32 0x6563744964000000000000000000000000000000000000000000000000000000 PUSH1 0x20 DUP3 ADD MSTORE POP JUMP JUMPDEST PUSH32 0x4E6F20737563682070726F6A65637420657869737420756E6465722074686973 PUSH1 0x0 DUP3 ADD MSTORE PUSH32 0x2063686172697479000000000000000000000000000000000000000000000000 PUSH1 0x20 DUP3 ADD MSTORE POP JUMP JUMPDEST PUSH32 0x4E6F206D6F726520646F6E6174696F6E7320616363657074656420666F722074 PUSH1 0x0 DUP3 ADD MSTORE PUSH32 0x6869732070726F6A6563742E0000000000000000000000000000000000000000 PUSH1 0x20 DUP3 ADD MSTORE POP JUMP JUMPDEST PUSH1 0xA DUP2 LT PUSH2 0x39E7 JUMPI PUSH2 0x39E6 PUSH2 0x35B3 JUMP JUMPDEST JUMPDEST POP JUMP JUMPDEST PUSH2 0x39F3 DUP2 PUSH2 0x341C JUMP JUMPDEST DUP2 EQ PUSH2 0x39FE JUMPI PUSH1 0x0 DUP1 REVERT JUMPDEST POP JUMP JUMPDEST PUSH1 0xA DUP2 LT PUSH2 0x3A0E JUMPI PUSH1 0x0 DUP1 REVERT JUMPDEST POP JUMP JUMPDEST PUSH2 0x3A1A DUP2 PUSH2 0x346D JUMP JUMPDEST DUP2 EQ PUSH2 0x3A25 JUMPI PUSH1 0x0 DUP1 REVERT JUMPDEST POP JUMP JUMPDEST PUSH2 0x3A31 DUP2 PUSH2 0x3477 JUMP JUMPDEST DUP2 EQ PUSH2 0x3A3C JUMPI PUSH1 0x0 DUP1 REVERT JUMPDEST POP JUMP INVALID SLOAD PUSH9 0x6973206F7065726174 PUSH10 0x6F6E2063616E20626520 PUSH17 0x6572666F726D6564206F6E6C7920627920 TIMESTAMP PUSH16 0x6172642061646D696E596F7520617265 KECCAK256 PUSH15 0x6F7420617574686F72697A65642074 PUSH16 0x20757064617465207769746820746869 PUSH20 0x2073746174757354686973206F7065726174696F PUSH15 0x2063616E20626520706572666F726D PUSH6 0x64206F6E6C79 KECCAK256 PUSH3 0x792043 PUSH9 0x6172697479A2646970 PUSH7 0x7358221220B9A9 CREATE2 LOG1 SLT SWAP7 PUSH5 0x1244A6F3B2 0xB8 0xBF 0xD1 BALANCE 0x4C DIFFICULTY PUSH9 0x40DFCACE058C59D2C8 CREATE SWAP12 SUB JUMP PUSH5 0x736F6C6343 STOP ADDMOD SMOD STOP CALLER LOG2 PUSH5 0x6970667358 0x22 SLT KECCAK256 GASLIMIT DIFFICULTY SWAP2 SWAP11 SELFDESTRUCT LOG2 CALLCODE DIV SWAP13 0xA9 BLOCKHASH 0xB3 0xE5 CODESIZE MSTORE SWAP1 DUP5 RETURNDATASIZE PUSH24 0x7584585735AC0B79B63F023D9264736F6C63430008070033 "
		},
		"gasEstimates": {
			"creation": {
				"codeDepositCost": "3675400",
				"executionCost": "4146",
				"totalCost": "3679546"
			},
			"external": {
				"createCrowdFund()": "infinite",
				"deployedCrowdFunds(uint256)": "5042",
				"getDeployedCrowdFunds()": "infinite"
			}
		},
		"methodIdentifiers": {
			"createCrowdFund()": "3f7c7eb4",
			"deployedCrowdFunds(uint256)": "51d4f43e",
			"getDeployedCrowdFunds()": "ca722404"
		}
	},
	"abi": [
		{
			"inputs": [],
			"name": "createCrowdFund",
			"outputs": [],
			"stateMutability": "nonpayable",
			"type": "function"
		},
		{
			"inputs": [
				{
					"internalType": "uint256",
					"name": "",
					"type": "uint256"
				}
			],
			"name": "deployedCrowdFunds",
			"outputs": [
				{
					"internalType": "contract CrowdFund",
					"name": "",
					"type": "address"
				}
			],
			"stateMutability": "view",
			"type": "function"
		},
		{
			"inputs": [],
			"name": "getDeployedCrowdFunds",
			"outputs": [
				{
					"internalType": "contract CrowdFund[]",
					"name": "",
					"type": "address[]"
				}
			],
			"stateMutability": "view",
			"type": "function"
		}
	]
}