{
	"data": {
		"bytecode": {
			"linkReferences": {},
			"object": "60806040523480156200001157600080fd5b5033600260006101000a81548173ffffffffffffffffffffffffffffffffffffffff021916908373ffffffffffffffffffffffffffffffffffffffff1602179055506040518060400160405280601481526020017f57616974696e6720666f7220617070726f76616c00000000000000000000000081525060066000806009811115620000a357620000a2620006a1565b5b6009811115620000b857620000b7620006a1565b5b81526020019081526020016000209080519060200190620000db929190620005bb565b506040518060400160405280600881526020017f417070726f76656400000000000000000000000000000000000000000000000081525060066000600260098111156200012d576200012c620006a1565b5b6009811115620001425762000141620006a1565b5b8152602001908152602001600020908051906020019062000165929190620005bb565b506040518060400160405280601381526020017f52656a65637465642062792063686172697479000000000000000000000000008152506006600060016009811115620001b757620001b6620006a1565b5b6009811115620001cc57620001cb620006a1565b5b81526020019081526020016000209080519060200190620001ef929190620005bb565b506040518060400160405280601581526020017f50726f6a65637420676f616c20616368696576656400000000000000000000008152506006600060036009811115620002415762000240620006a1565b5b6009811115620002565762000255620006a1565b5b8152602001908152602001600020908051906020019062000279929190620005bb565b506040518060400160405280601281526020017f45786368616e67652072657175657374656400000000000000000000000000008152506006600060046009811115620002cb57620002ca620006a1565b5b6009811115620002e057620002df620006a1565b5b8152602001908152602001600020908051906020019062000303929190620005bb565b506040518060400160405280601981526020017f45786368616e67652072657175657374207265636569766564000000000000008152506006600060056009811115620003555762000354620006a1565b5b60098111156200036a5762000369620006a1565b5b815260200190815260200160002090805190602001906200038d929190620005bb565b506040518060400160405280601981526020017f45786368616e6765207265717565737420617070726f766564000000000000008152506006600060066009811115620003df57620003de620006a1565b5b6009811115620003f457620003f3620006a1565b5b8152602001908152602001600020908051906020019062000417929190620005bb565b506040518060400160405280601981526020017f45786368616e676520726571756573742072656a6563746564000000000000008152506006600060076009811115620004695762000468620006a1565b5b60098111156200047e576200047d620006a1565b5b81526020019081526020016000209080519060200190620004a1929190620005bb565b506040518060400160405280600e81526020017f46756e647320726566756e6465640000000000000000000000000000000000008152506006600060086009811115620004f357620004f2620006a1565b5b6009811115620005085762000507620006a1565b5b815260200190815260200160002090805190602001906200052b929190620005bb565b506040518060400160405280600e81526020017f50726f6a65637420636c6f736564000000000000000000000000000000000000815250600660006009808111156200057c576200057b620006a1565b5b6009811115620005915762000590620006a1565b5b81526020019081526020016000209080519060200190620005b4929190620005bb565b50620006ff565b828054620005c9906200066b565b90600052602060002090601f016020900481019282620005ed576000855562000639565b82601f106200060857805160ff191683800117855562000639565b8280016001018555821562000639579182015b82811115620006385782518255916020019190600101906200061b565b5b5090506200064891906200064c565b5090565b5b80821115620006675760008160009055506001016200064d565b5090565b600060028204905060018216806200068457607f821691505b602082108114156200069b576200069a620006d0565b5b50919050565b7f4e487b7100000000000000000000000000000000000000000000000000000000600052602160045260246000fd5b7f4e487b7100000000000000000000000000000000000000000000000000000000600052602260045260246000fd5b614d5a806200070f6000396000f3fe6080604052600436106100e85760003560e01c80639238cf4e1161008a578063bfda08a311610059578063bfda08a3146102cf578063c4529ab91461030e578063ca76973d1461034e578063ef6add321461038b576100e8565b80639238cf4e146102155780639df9b0e614610252578063ab6b85641461027b578063b61a7f76146102a4576100e8565b806342ef4bcc116100c657806342ef4bcc1461015d57806344e548121461019a5780635c3be951146101c3578063864ee384146101ec576100e8565b80630ee3b93d146100ed5780631ab333081461011657806321bea7cc14610141575b600080fd5b3480156100f957600080fd5b50610114600480360381019061010f9190613ce9565b6103c8565b005b34801561012257600080fd5b5061012b610ab6565b604051610138919061421f565b60405180910390f35b61015b60048036038101906101569190613b94565b610ac9565b005b34801561016957600080fd5b50610184600480360381019061017f9190613b94565b6111bd565b604051610191919061423a565b60405180910390f35b3480156101a657600080fd5b506101c160048036038101906101bc9190613c27565b61141f565b005b3480156101cf57600080fd5b506101ea60048036038101906101e59190613db2565b61192c565b005b3480156101f857600080fd5b50610213600480360381019061020e9190613d56565b611e9f565b005b34801561022157600080fd5b5061023c60048036038101906102379190613b94565b612081565b60405161024991906143fc565b60405180910390f35b34801561025e57600080fd5b5061027960048036038101906102749190613b94565b612216565b005b34801561028757600080fd5b506102a2600480360381019061029d9190613c7a565b6128e4565b005b3480156102b057600080fd5b506102b9612b16565b6040516102c6919061416c565b60405180910390f35b3480156102db57600080fd5b506102f660048036038101906102f19190613b94565b612b3c565b60405161030593929190614417565b60405180910390f35b34801561031a57600080fd5b5061033560048036038101906103309190613b67565b612d52565b60405161034594939291906141be565b60405180910390f35b34801561035a57600080fd5b5061037560048036038101906103709190613bd4565b61314b565b60405161038291906143fc565b60405180910390f35b34801561039757600080fd5b506103b260048036038101906103ad9190613d29565b6133c1565b6040516103bf919061423a565b60405180910390f35b600260009054906101000a900473ffffffffffffffffffffffffffffffffffffffff1673ffffffffffffffffffffffffffffffffffffffff163373ffffffffffffffffffffffffffffffffffffffff1614156040518060600160405280602f8152602001614cf6602f913990610474576040517f08c379a000000000000000000000000000000000000000000000000000000000815260040161046b919061423a565b60405180910390fd5b5060006003600981111561048b5761048a614753565b5b8260ff1660098111156104a1576104a0614753565b5b60098111156104b3576104b2614753565b5b1415604051806060016040528060318152602001614cc5603191399061050f576040517f08c379a0000000000000000000000000000000000000000000000000000000008152600401610506919061423a565b60405180910390fd5b506005600981111561052457610523614753565b5b8260ff16600981111561053a57610539614753565b5b600981111561054c5761054b614753565b5b1415604051806060016040528060318152602001614cc560319139906105a8576040517f08c379a000000000000000000000000000000000000000000000000000000000815260040161059f919061423a565b60405180910390fd5b506000600360003373ffffffffffffffffffffffffffffffffffffffff1673ffffffffffffffffffffffffffffffffffffffff16815260200190815260200160002090506000818054905011610633576040517f08c379a000000000000000000000000000000000000000000000000000000000815260040161062a9061431c565b60405180910390fd5b60005b8180549050811015610aaf578473ffffffffffffffffffffffffffffffffffffffff1682828154811061066c5761066b6147b1565b5b906000526020600020906007020160030160009054906101000a900473ffffffffffffffffffffffffffffffffffffffff1673ffffffffffffffffffffffffffffffffffffffff161415610a915760019250600760098111156106d2576106d1614753565b5b8460ff1660098111156106e8576106e7614753565b5b60098111156106fa576106f9614753565b5b148061073f57506006600981111561071557610714614753565b5b8460ff16600981111561072b5761072a614753565b5b600981111561073d5761073c614753565b5b145b156108ed576000828281548110610759576107586147b1565b5b906000526020600020906007020160040160146101000a81548160ff0219169083151502179055507f7149b8a236148161d6ed6dd65ee3d95161a895f8788d472b49a825ee9a996d6d33868660ff1660098111156107ba576107b9614753565b5b6040516107c993929190614187565b60405180910390a1600760098111156107e5576107e4614753565b5b8460ff1660098111156107fb576107fa614753565b5b600981111561080d5761080c614753565b5b141561085e5761081d3386613461565b7fb1c913a6f2ffb3dc7a85bc2d3def4ca9bc82b4ff580cadc77acbbbd3a6aacc203386600860405161085193929190614187565b60405180910390a16108e8565b6006600981111561087257610871614753565b5b8460ff16600981111561088857610887614753565b5b600981111561089a57610899614753565b5b14156108e7576108aa33866137c7565b7fb1c913a6f2ffb3dc7a85bc2d3def4ca9bc82b4ff580cadc77acbbbd3a6aacc20338660096040516108de93929190614187565b60405180910390a15b5b610a90565b8360ff16600981111561090357610902614753565b5b828281548110610916576109156147b1565b5b906000526020600020906007020160060160006101000a81548160ff0219169083600981111561094957610948614753565b5b02179055506002600981111561096257610961614753565b5b8460ff16600981111561097857610977614753565b5b600981111561098a57610989614753565b5b14156109d25760018282815481106109a5576109a46147b1565b5b906000526020600020906007020160040160146101000a81548160ff021916908315150217905550610a8f565b600460098111156109e6576109e5614753565b5b8460ff1660098111156109fc576109fb614753565b5b6009811115610a0e57610a0d614753565b5b1415610a8e576000828281548110610a2957610a286147b1565b5b906000526020600020906007020160040160146101000a81548160ff0219169083151502179055507f8368d76676efaf85c0b16282870a64f994dbb3a7c8cc90ba57d8bd4d4cccb2f333866004604051610a8593929190614187565b60405180910390a15b5b5b5b8215610a9c57610aaf565b8080610aa7906146db565b915050610636565b5050505050565b600560009054906101000a900460ff1681565b600080600360008573ffffffffffffffffffffffffffffffffffffffff1673ffffffffffffffffffffffffffffffffffffffff16815260200190815260200160002090506000818054905011610b54576040517f08c379a0000000000000000000000000000000000000000000000000000000008152600401610b4b9061431c565b60405180910390fd5b3373ffffffffffffffffffffffffffffffffffffffff1631341115610bae576040517f08c379a0000000000000000000000000000000000000000000000000000000008152600401610ba5906143bc565b60405180910390fd5b60005b8180549050811015611176578373ffffffffffffffffffffffffffffffffffffffff16828281548110610be757610be66147b1565b5b906000526020600020906007020160030160009054906101000a900473ffffffffffffffffffffffffffffffffffffffff1673ffffffffffffffffffffffffffffffffffffffff16141561116357818181548110610c4857610c476147b1565b5b906000526020600020906007020160040160149054906101000a900460ff161561111f57818181548110610c7f57610c7e6147b1565b5b906000526020600020906007020160000154341015610cd3576040517f08c379a0000000000000000000000000000000000000000000000000000000008152600401610cca906142bc565b60405180910390fd5b818181548110610ce657610ce56147b1565b5b906000526020600020906007020160010154828281548110610d0b57610d0a6147b1565b5b90600052602060002090600702016002015434610d289190614532565b1115610d69576040517f08c379a0000000000000000000000000000000000000000000000000000000008152600401610d609061427c565b60405180910390fd5b34828281548110610d7d57610d7c6147b1565b5b906000526020600020906007020160020154610d999190614532565b828281548110610dac57610dab6147b1565b5b9060005260206000209060070201600201819055506000600460008673ffffffffffffffffffffffffffffffffffffffff1673ffffffffffffffffffffffffffffffffffffffff1681526020019081526020016000209050600081805490509050600080600090505b8380549050811015610f2d573373ffffffffffffffffffffffffffffffffffffffff16848281548110610e4b57610e4a6147b1565b5b906000526020600020906003020160010160009054906101000a900473ffffffffffffffffffffffffffffffffffffffff1673ffffffffffffffffffffffffffffffffffffffff161415610f1a5734848281548110610ead57610eac6147b1565b5b906000526020600020906003020160020160008a73ffffffffffffffffffffffffffffffffffffffff1673ffffffffffffffffffffffffffffffffffffffff1681526020019081526020016000206000828254610f0a9190614532565b9250508190555060019150610f2d565b8080610f25906146db565b915050610e15565b50806110005782600181600181540180825580915050039060005260206000209050506000838381548110610f6557610f646147b1565b5b90600052602060002090600302019050338160010160006101000a81548173ffffffffffffffffffffffffffffffffffffffff021916908373ffffffffffffffffffffffffffffffffffffffff160217905550348160020160008a73ffffffffffffffffffffffffffffffffffffffff1673ffffffffffffffffffffffffffffffffffffffff16815260200190815260200160002081905550505b848481548110611013576110126147b1565b5b906000526020600020906007020160010154858581548110611038576110376147b1565b5b9060005260206000209060070201600201541415611117576003858581548110611065576110646147b1565b5b906000526020600020906007020160060160006101000a81548160ff0219169083600981111561109857611097614753565b5b021790555060008585815481106110b2576110b16147b1565b5b906000526020600020906007020160040160146101000a81548160ff0219169083151502179055507fb0bd573bc922cd0ba3f1cc9ac05bc9c190a674fcf55c00d5b3ca04be33edbb318888600360405161110e93929190614187565b60405180910390a15b50505061115a565b6040517f08c379a0000000000000000000000000000000000000000000000000000000008152600401611151906143dc565b60405180910390fd5b60019250611176565b808061116e906146db565b915050610bb1565b50816111b7576040517f08c379a00000000000000000000000000000000000000000000000000000000081526004016111ae9061437c565b60405180910390fd5b50505050565b60606000600360008573ffffffffffffffffffffffffffffffffffffffff1673ffffffffffffffffffffffffffffffffffffffff16815260200190815260200160002090506000818054905011611249576040517f08c379a00000000000000000000000000000000000000000000000000000000081526004016112409061431c565b60405180910390fd5b60005b81805490508110156113dd578373ffffffffffffffffffffffffffffffffffffffff16828281548110611282576112816147b1565b5b906000526020600020906007020160030160009054906101000a900473ffffffffffffffffffffffffffffffffffffffff1673ffffffffffffffffffffffffffffffffffffffff1614156113ca57600660008383815481106112e7576112e66147b1565b5b906000526020600020906007020160060160009054906101000a900460ff16600981111561131857611317614753565b5b600981111561132a57611329614753565b5b8152602001908152602001600020805461134390614678565b80601f016020809104026020016040519081016040528092919081815260200182805461136f90614678565b80156113bc5780601f10611391576101008083540402835291602001916113bc565b820191906000526020600020905b81548152906001019060200180831161139f57829003601f168201915b505050505092505050611419565b80806113d5906146db565b91505061124c565b506040517f08c379a00000000000000000000000000000000000000000000000000000000081526004016114109061437c565b60405180910390fd5b92915050565b600260009054906101000a900473ffffffffffffffffffffffffffffffffffffffff1673ffffffffffffffffffffffffffffffffffffffff163373ffffffffffffffffffffffffffffffffffffffff1614604051806060016040528060338152602001614c9260339139906114ca576040517f08c379a00000000000000000000000000000000000000000000000000000000081526004016114c1919061423a565b60405180910390fd5b50600060098111156114df576114de614753565b5b8160ff1660098111156114f5576114f4614753565b5b600981111561150757611506614753565b5b1415604051806060016040528060318152602001614cc56031913990611563576040517f08c379a000000000000000000000000000000000000000000000000000000000815260040161155a919061423a565b60405180910390fd5b506002600981111561157857611577614753565b5b8160ff16600981111561158e5761158d614753565b5b60098111156115a05761159f614753565b5b1415604051806060016040528060318152602001614cc560319139906115fc576040517f08c379a00000000000000000000000000000000000000000000000000000000081526004016115f3919061423a565b60405180910390fd5b506003600981111561161157611610614753565b5b8160ff16600981111561162757611626614753565b5b600981111561163957611638614753565b5b1415604051806060016040528060318152602001614cc56031913990611695576040517f08c379a000000000000000000000000000000000000000000000000000000000815260040161168c919061423a565b60405180910390fd5b50600460098111156116aa576116a9614753565b5b8160ff1660098111156116c0576116bf614753565b5b60098111156116d2576116d1614753565b5b1415604051806060016040528060318152602001614cc5603191399061172e576040517f08c379a0000000000000000000000000000000000000000000000000000000008152600401611725919061423a565b60405180910390fd5b506000600360008573ffffffffffffffffffffffffffffffffffffffff1673ffffffffffffffffffffffffffffffffffffffff168152602001908152602001600020905060008180549050116117b9576040517f08c379a00000000000000000000000000000000000000000000000000000000081526004016117b09061431c565b60405180910390fd5b60005b8180549050811015611925578373ffffffffffffffffffffffffffffffffffffffff168282815481106117f2576117f16147b1565b5b906000526020600020906007020160030160009054906101000a900473ffffffffffffffffffffffffffffffffffffffff1673ffffffffffffffffffffffffffffffffffffffff161415611912578260ff16600981111561185657611855614753565b5b828281548110611869576118686147b1565b5b906000526020600020906007020160060160006101000a81548160ff0219169083600981111561189c5761189b614753565b5b02179055507f688769abfe11ae5d2b7c7147d2577650d89c7b5b4ae0583751850c28d5f4d39785858484815481106118d7576118d66147b1565b5b906000526020600020906007020160060160009054906101000a900460ff1660405161190593929190614187565b60405180910390a1611925565b808061191d906146db565b9150506117bc565b5050505050565b600260009054906101000a900473ffffffffffffffffffffffffffffffffffffffff1673ffffffffffffffffffffffffffffffffffffffff163373ffffffffffffffffffffffffffffffffffffffff1614156040518060600160405280602f8152602001614cf6602f9139906119d8576040517f08c379a00000000000000000000000000000000000000000000000000000000081526004016119cf919061423a565b60405180910390fd5b503373ffffffffffffffffffffffffffffffffffffffff16600160003373ffffffffffffffffffffffffffffffffffffffff1673ffffffffffffffffffffffffffffffffffffffff16815260200190815260200160002060030160009054906101000a900473ffffffffffffffffffffffffffffffffffffffff1673ffffffffffffffffffffffffffffffffffffffff1614611aa9576040517f08c379a0000000000000000000000000000000000000000000000000000000008152600401611aa09061433c565b60405180910390fd5b600160003373ffffffffffffffffffffffffffffffffffffffff1673ffffffffffffffffffffffffffffffffffffffff16815260200190815260200160002060000160009054906101000a900460ff16611b38576040517f08c379a0000000000000000000000000000000000000000000000000000000008152600401611b2f9061439c565b60405180910390fd5b6000604051806101000160405280868152602001858152602001600081526020018473ffffffffffffffffffffffffffffffffffffffff1681526020013373ffffffffffffffffffffffffffffffffffffffff16815260200160001515815260200183815260200160006009811115611bb457611bb3614753565b5b8152509050806000808573ffffffffffffffffffffffffffffffffffffffff1673ffffffffffffffffffffffffffffffffffffffff16815260200190815260200160002060008201518160000155602082015181600101556040820151816002015560608201518160030160006101000a81548173ffffffffffffffffffffffffffffffffffffffff021916908373ffffffffffffffffffffffffffffffffffffffff16021790555060808201518160040160006101000a81548173ffffffffffffffffffffffffffffffffffffffff021916908373ffffffffffffffffffffffffffffffffffffffff16021790555060a08201518160040160146101000a81548160ff02191690831515021790555060c0820151816005019080519060200190611ce09291906139eb565b5060e08201518160060160006101000a81548160ff02191690836009811115611d0c57611d0b614753565b5b0217905550905050600360003373ffffffffffffffffffffffffffffffffffffffff1673ffffffffffffffffffffffffffffffffffffffff16815260200190815260200160002081908060018154018082558091505060019003906000526020600020906007020160009091909190915060008201518160000155602082015181600101556040820151816002015560608201518160030160006101000a81548173ffffffffffffffffffffffffffffffffffffffff021916908373ffffffffffffffffffffffffffffffffffffffff16021790555060808201518160040160006101000a81548173ffffffffffffffffffffffffffffffffffffffff021916908373ffffffffffffffffffffffffffffffffffffffff16021790555060a08201518160040160146101000a81548160ff02191690831515021790555060c0820151816005019080519060200190611e659291906139eb565b5060e08201518160060160006101000a81548160ff02191690836009811115611e9157611e90614753565b5b021790555050505050505050565b600260009054906101000a900473ffffffffffffffffffffffffffffffffffffffff1673ffffffffffffffffffffffffffffffffffffffff163373ffffffffffffffffffffffffffffffffffffffff1614604051806060016040528060338152602001614c926033913990611f4a576040517f08c379a0000000000000000000000000000000000000000000000000000000008152600401611f41919061423a565b60405180910390fd5b50600060405180608001604052806000151581526020016040518060200160405280600081525081526020018481526020018373ffffffffffffffffffffffffffffffffffffffff16815250905080600160008473ffffffffffffffffffffffffffffffffffffffff1673ffffffffffffffffffffffffffffffffffffffff16815260200190815260200160002060008201518160000160006101000a81548160ff02191690831515021790555060208201518160010190805190602001906120149291906139eb565b5060408201518160020190805190602001906120319291906139eb565b5060608201518160030160006101000a81548173ffffffffffffffffffffffffffffffffffffffff021916908373ffffffffffffffffffffffffffffffffffffffff160217905550905050505050565b600080600360008573ffffffffffffffffffffffffffffffffffffffff1673ffffffffffffffffffffffffffffffffffffffff1681526020019081526020016000209050600081805490501161210c576040517f08c379a00000000000000000000000000000000000000000000000000000000081526004016121039061431c565b60405180910390fd5b6000805b828054905081101561220a578473ffffffffffffffffffffffffffffffffffffffff16838281548110612146576121456147b1565b5b906000526020600020906007020160030160009054906101000a900473ffffffffffffffffffffffffffffffffffffffff1673ffffffffffffffffffffffffffffffffffffffff1614156121f7578281815481106121a7576121a66147b1565b5b906000526020600020906007020160030160009054906101000a900473ffffffffffffffffffffffffffffffffffffffff1673ffffffffffffffffffffffffffffffffffffffff1631915061220a565b8080612202906146db565b915050612110565b50809250505092915050565b6000806000600360008673ffffffffffffffffffffffffffffffffffffffff1673ffffffffffffffffffffffffffffffffffffffff168152602001908152602001600020905060008180549050116122a3576040517f08c379a000000000000000000000000000000000000000000000000000000000815260040161229a9061431c565b60405180910390fd5b6000600460008673ffffffffffffffffffffffffffffffffffffffff1673ffffffffffffffffffffffffffffffffffffffff168152602001908152602001600020905060005b818054905081101561289b573373ffffffffffffffffffffffffffffffffffffffff1682828154811061231f5761231e6147b1565b5b906000526020600020906003020160010160009054906101000a900473ffffffffffffffffffffffffffffffffffffffff1673ffffffffffffffffffffffffffffffffffffffff161480156123d557506000828281548110612384576123836147b1565b5b906000526020600020906003020160020160008873ffffffffffffffffffffffffffffffffffffffff1673ffffffffffffffffffffffffffffffffffffffff16815260200190815260200160002054115b156128885760005b838054905081101561272f578673ffffffffffffffffffffffffffffffffffffffff16848281548110612413576124126147b1565b5b906000526020600020906007020160030160009054906101000a900473ffffffffffffffffffffffffffffffffffffffff1673ffffffffffffffffffffffffffffffffffffffff16141561271c576003600981111561247557612474614753565b5b848281548110612488576124876147b1565b5b906000526020600020906007020160060160009054906101000a900460ff1660098111156124b9576124b8614753565b5b11156124fa576040517f08c379a00000000000000000000000000000000000000000000000000000000081526004016124f1906142dc565b60405180910390fd5b82828154811061250d5761250c6147b1565b5b906000526020600020906003020160020160008873ffffffffffffffffffffffffffffffffffffffff1673ffffffffffffffffffffffffffffffffffffffff1681526020019081526020016000205484828154811061256f5761256e6147b1565b5b90600052602060002090600702016002015461258b9190614588565b84828154811061259e5761259d6147b1565b5b9060005260206000209060070201600201819055508282815481106125c6576125c56147b1565b5b906000526020600020906003020160010160009054906101000a900473ffffffffffffffffffffffffffffffffffffffff1673ffffffffffffffffffffffffffffffffffffffff166108fc848481548110612624576126236147b1565b5b906000526020600020906003020160020160008a73ffffffffffffffffffffffffffffffffffffffff1673ffffffffffffffffffffffffffffffffffffffff168152602001908152602001600020549081150290604051600060405180830381858888f1935050505015801561269e573d6000803e3d6000fd5b508381815481106126b2576126b16147b1565b5b906000526020600020906007020160040160149054906101000a900460ff166127135760018482815481106126ea576126e96147b1565b5b906000526020600020906007020160040160146101000a81548160ff0219169083151502179055505b6001955061272f565b8080612727906146db565b9150506123dd565b5084612770576040517f08c379a00000000000000000000000000000000000000000000000000000000081526004016127679061435c565b60405180910390fd5b3373ffffffffffffffffffffffffffffffffffffffff166108fc83838154811061279d5761279c6147b1565b5b906000526020600020906003020160020160008973ffffffffffffffffffffffffffffffffffffffff1673ffffffffffffffffffffffffffffffffffffffff168152602001908152602001600020549081150290604051600060405180830381858888f19350505050158015612817573d6000803e3d6000fd5b50600082828154811061282d5761282c6147b1565b5b906000526020600020906003020160020160008873ffffffffffffffffffffffffffffffffffffffff1673ffffffffffffffffffffffffffffffffffffffff168152602001908152602001600020819055506001935061289b565b8080612893906146db565b9150506122e9565b50826128dc576040517f08c379a00000000000000000000000000000000000000000000000000000000081526004016128d39061429c565b60405180910390fd5b505050505050565b600260009054906101000a900473ffffffffffffffffffffffffffffffffffffffff1673ffffffffffffffffffffffffffffffffffffffff163373ffffffffffffffffffffffffffffffffffffffff1614604051806060016040528060338152602001614c92603391399061298f576040517f08c379a0000000000000000000000000000000000000000000000000000000008152600401612986919061423a565b60405180910390fd5b508273ffffffffffffffffffffffffffffffffffffffff16600160008573ffffffffffffffffffffffffffffffffffffffff1673ffffffffffffffffffffffffffffffffffffffff16815260200190815260200160002060030160009054906101000a900473ffffffffffffffffffffffffffffffffffffffff1673ffffffffffffffffffffffffffffffffffffffff1614612a60576040517f08c379a0000000000000000000000000000000000000000000000000000000008152600401612a579061433c565b60405180910390fd5b81600160008573ffffffffffffffffffffffffffffffffffffffff1673ffffffffffffffffffffffffffffffffffffffff16815260200190815260200160002060000160006101000a81548160ff02191690831515021790555080600160008573ffffffffffffffffffffffffffffffffffffffff1673ffffffffffffffffffffffffffffffffffffffff1681526020019081526020016000206001019080519060200190612b109291906139eb565b50505050565b600260009054906101000a900473ffffffffffffffffffffffffffffffffffffffff1681565b600080600080600360008773ffffffffffffffffffffffffffffffffffffffff1673ffffffffffffffffffffffffffffffffffffffff16815260200190815260200160002090506000818054905011612bca576040517f08c379a0000000000000000000000000000000000000000000000000000000008152600401612bc19061431c565b60405180910390fd5b60005b8180549050811015612d0f578573ffffffffffffffffffffffffffffffffffffffff16828281548110612c0357612c026147b1565b5b906000526020600020906007020160030160009054906101000a900473ffffffffffffffffffffffffffffffffffffffff1673ffffffffffffffffffffffffffffffffffffffff161415612cfc57818181548110612c6457612c636147b1565b5b906000526020600020906007020160010154828281548110612c8957612c886147b1565b5b906000526020600020906007020160020154838381548110612cae57612cad6147b1565b5b906000526020600020906007020160020154848481548110612cd357612cd26147b1565b5b906000526020600020906007020160010154612cef9190614588565b9450945094505050612d4b565b8080612d07906146db565b915050612bcd565b506040517f08c379a0000000000000000000000000000000000000000000000000000000008152600401612d429061437c565b60405180910390fd5b9250925092565b6060806060806000600360008773ffffffffffffffffffffffffffffffffffffffff1673ffffffffffffffffffffffffffffffffffffffff16815260200190815260200160002090506000818054905011612de2576040517f08c379a0000000000000000000000000000000000000000000000000000000008152600401612dd99061431c565b60405180910390fd5b6000818054905067ffffffffffffffff811115612e0257612e016147e0565b5b604051908082528060200260200182016040528015612e305781602001602082028036833780820191505090505b5090506000828054905067ffffffffffffffff811115612e5357612e526147e0565b5b604051908082528060200260200182016040528015612e815781602001602082028036833780820191505090505b5090506000838054905067ffffffffffffffff811115612ea457612ea36147e0565b5b604051908082528060200260200182016040528015612ed25781602001602082028036833780820191505090505b5090506000848054905067ffffffffffffffff811115612ef557612ef46147e0565b5b604051908082528060200260200182016040528015612f235781602001602082028036833780820191505090505b5090506000805b86805490508110156130ed57868181548110612f4957612f486147b1565b5b906000526020600020906007020160040160149054906101000a900460ff16156130da57868181548110612f8057612f7f6147b1565b5b906000526020600020906007020160030160009054906101000a900473ffffffffffffffffffffffffffffffffffffffff16868381518110612fc557612fc46147b1565b5b602002602001019073ffffffffffffffffffffffffffffffffffffffff16908173ffffffffffffffffffffffffffffffffffffffff1681525050868181548110613012576130116147b1565b5b906000526020600020906007020160000154858381518110613037576130366147b1565b5b602002602001018181525050868181548110613056576130556147b1565b5b90600052602060002090600702016001015484838151811061307b5761307a6147b1565b5b60200260200101818152505086818154811061309a576130996147b1565b5b9060005260206000209060070201600201548383815181106130bf576130be6147b1565b5b60200260200101818152505081806130d6906146db565b9250505b80806130e5906146db565b915050612f2a565b506000855111613132576040517f08c379a00000000000000000000000000000000000000000000000000000000081526004016131299061425c565b60405180910390fd5b8484848499509950995099505050505050509193509193565b600080600360008673ffffffffffffffffffffffffffffffffffffffff1673ffffffffffffffffffffffffffffffffffffffff168152602001908152602001600020905060008180549050116131d6576040517f08c379a00000000000000000000000000000000000000000000000000000000081526004016131cd9061431c565b60405180910390fd5b6000805b82805490508110156133b4578573ffffffffffffffffffffffffffffffffffffffff168382815481106132105761320f6147b1565b5b906000526020600020906007020160030160009054906101000a900473ffffffffffffffffffffffffffffffffffffffff1673ffffffffffffffffffffffffffffffffffffffff1614156133a1576000600460008873ffffffffffffffffffffffffffffffffffffffff1673ffffffffffffffffffffffffffffffffffffffff168152602001908152602001600020905060005b818054905081101561339e578673ffffffffffffffffffffffffffffffffffffffff168282815481106132da576132d96147b1565b5b906000526020600020906003020160010160009054906101000a900473ffffffffffffffffffffffffffffffffffffffff1673ffffffffffffffffffffffffffffffffffffffff16141561338b5781818154811061333b5761333a6147b1565b5b906000526020600020906003020160010160009054906101000a900473ffffffffffffffffffffffffffffffffffffffff1673ffffffffffffffffffffffffffffffffffffffff1631935061339e565b8080613396906146db565b9150506132a4565b50505b80806133ac906146db565b9150506131da565b5080925050509392505050565b600660205280600052604060002060009150905080546133e090614678565b80601f016020809104026020016040519081016040528092919081815260200182805461340c90614678565b80156134595780601f1061342e57610100808354040283529160200191613459565b820191906000526020600020905b81548152906001019060200180831161343c57829003601f168201915b505050505081565b600080600360008573ffffffffffffffffffffffffffffffffffffffff1673ffffffffffffffffffffffffffffffffffffffff168152602001908152602001600020905060008180549050116134ec576040517f08c379a00000000000000000000000000000000000000000000000000000000081526004016134e39061431c565b60405180910390fd5b60005b8180549050811015613780578373ffffffffffffffffffffffffffffffffffffffff16828281548110613525576135246147b1565b5b906000526020600020906007020160030160009054906101000a900473ffffffffffffffffffffffffffffffffffffffff1673ffffffffffffffffffffffffffffffffffffffff16141561376d576007600981111561358757613586614753565b5b82828154811061359a576135996147b1565b5b906000526020600020906007020160060160009054906101000a900460ff1660098111156135cb576135ca614753565b5b1461360b576040517f08c379a0000000000000000000000000000000000000000000000000000000008152600401613602906142fc565b60405180910390fd5b6000600460008673ffffffffffffffffffffffffffffffffffffffff1673ffffffffffffffffffffffffffffffffffffffff168152602001908152602001600020905060005b8180549050811015613762576000828281548110613672576136716147b1565b5b906000526020600020906003020160020160008873ffffffffffffffffffffffffffffffffffffffff1673ffffffffffffffffffffffffffffffffffffffff1681526020019081526020016000205490508282815481106136d6576136d56147b1565b5b906000526020600020906003020160010160009054906101000a900473ffffffffffffffffffffffffffffffffffffffff1673ffffffffffffffffffffffffffffffffffffffff166108fc829081150290604051600060405180830381858888f1935050505015801561374d573d6000803e3d6000fd5b5050808061375a906146db565b915050613651565b506001935050613780565b8080613778906146db565b9150506134ef565b50816137c1576040517f08c379a00000000000000000000000000000000000000000000000000000000081526004016137b89061435c565b60405180910390fd5b50505050565b600080600360008573ffffffffffffffffffffffffffffffffffffffff1673ffffffffffffffffffffffffffffffffffffffff16815260200190815260200160002090506000818054905011613852576040517f08c379a00000000000000000000000000000000000000000000000000000000081526004016138499061431c565b60405180910390fd5b60005b81805490508110156139a4578373ffffffffffffffffffffffffffffffffffffffff1682828154811061388b5761388a6147b1565b5b906000526020600020906007020160030160009054906101000a900473ffffffffffffffffffffffffffffffffffffffff1673ffffffffffffffffffffffffffffffffffffffff161415613991578181815481106138ec576138eb6147b1565b5b906000526020600020906007020160030160009054906101000a900473ffffffffffffffffffffffffffffffffffffffff1673ffffffffffffffffffffffffffffffffffffffff166108fc83838154811061394a576139496147b1565b5b9060005260206000209060070201600201549081150290604051600060405180830381858888f19350505050158015613987573d6000803e3d6000fd5b50600192506139a4565b808061399c906146db565b915050613855565b50816139e5576040517f08c379a00000000000000000000000000000000000000000000000000000000081526004016139dc9061435c565b60405180910390fd5b50505050565b8280546139f790614678565b90600052602060002090601f016020900481019282613a195760008555613a60565b82601f10613a3257805160ff1916838001178555613a60565b82800160010185558215613a60579182015b82811115613a5f578251825591602001919060010190613a44565b5b509050613a6d9190613a71565b5090565b5b80821115613a8a576000816000905550600101613a72565b5090565b6000613aa1613a9c84614473565b61444e565b905082815260208101848484011115613abd57613abc614814565b5b613ac8848285614636565b509392505050565b600081359050613adf81614c25565b92915050565b600081359050613af481614c3c565b92915050565b600081359050613b0981614c53565b92915050565b600082601f830112613b2457613b2361480f565b5b8135613b34848260208601613a8e565b91505092915050565b600081359050613b4c81614c63565b92915050565b600081359050613b6181614c7a565b92915050565b600060208284031215613b7d57613b7c61481e565b5b6000613b8b84828501613ad0565b91505092915050565b60008060408385031215613bab57613baa61481e565b5b6000613bb985828601613ad0565b9250506020613bca85828601613ad0565b9150509250929050565b600080600060608486031215613bed57613bec61481e565b5b6000613bfb86828701613ad0565b9350506020613c0c86828701613ad0565b9250506040613c1d86828701613ad0565b9150509250925092565b600080600060608486031215613c4057613c3f61481e565b5b6000613c4e86828701613ad0565b9350506020613c5f86828701613ad0565b9250506040613c7086828701613b52565b9150509250925092565b600080600060608486031215613c9357613c9261481e565b5b6000613ca186828701613ad0565b9350506020613cb286828701613ae5565b925050604084013567ffffffffffffffff811115613cd357613cd2614819565b5b613cdf86828701613b0f565b9150509250925092565b60008060408385031215613d0057613cff61481e565b5b6000613d0e85828601613ad0565b9250506020613d1f85828601613b52565b9150509250929050565b600060208284031215613d3f57613d3e61481e565b5b6000613d4d84828501613afa565b91505092915050565b60008060408385031215613d6d57613d6c61481e565b5b600083013567ffffffffffffffff811115613d8b57613d8a614819565b5b613d9785828601613b0f565b9250506020613da885828601613ad0565b9150509250929050565b60008060008060808587031215613dcc57613dcb61481e565b5b6000613dda87828801613b3d565b9450506020613deb87828801613b3d565b9350506040613dfc87828801613ad0565b925050606085013567ffffffffffffffff811115613e1d57613e1c614819565b5b613e2987828801613b0f565b91505092959194509250565b6000613e418383613e65565b60208301905092915050565b6000613e59838361414e565b60208301905092915050565b613e6e816145bc565b82525050565b613e7d816145bc565b82525050565b6000613e8e826144c4565b613e9881856144ff565b9350613ea3836144a4565b8060005b83811015613ed4578151613ebb8882613e35565b9750613ec6836144e5565b925050600181019050613ea7565b5085935050505092915050565b6000613eec826144cf565b613ef68185614510565b9350613f01836144b4565b8060005b83811015613f32578151613f198882613e4d565b9750613f24836144f2565b925050600181019050613f05565b5085935050505092915050565b613f4881614624565b82525050565b6000613f59826144da565b613f638185614521565b9350613f73818560208601614645565b613f7c81614823565b840191505092915050565b6000613f94602d83614521565b9150613f9f82614834565b604082019050919050565b6000613fb7602a83614521565b9150613fc282614883565b604082019050919050565b6000613fda602883614521565b9150613fe5826148d2565b604082019050919050565b6000613ffd603183614521565b915061400882614921565b604082019050919050565b6000614020604183614521565b915061402b82614970565b606082019050919050565b6000614043603e83614521565b915061404e826149e5565b604082019050919050565b6000614066602383614521565b915061407182614a34565b604082019050919050565b6000614089601583614521565b915061409482614a83565b602082019050919050565b60006140ac602583614521565b91506140b782614aac565b604082019050919050565b60006140cf602883614521565b91506140da82614afb565b604082019050919050565b60006140f2602083614521565b91506140fd82614b4a565b602082019050919050565b6000614115602a83614521565b915061412082614b73565b604082019050919050565b6000614138602c83614521565b915061414382614bc2565b604082019050919050565b6141578161460d565b82525050565b6141668161460d565b82525050565b60006020820190506141816000830184613e74565b92915050565b600060608201905061419c6000830186613e74565b6141a96020830185613e74565b6141b66040830184613f3f565b949350505050565b600060808201905081810360008301526141d88187613e83565b905081810360208301526141ec8186613ee1565b905081810360408301526142008185613ee1565b905081810360608301526142148184613ee1565b905095945050505050565b60006020820190506142346000830184613f3f565b92915050565b600060208201905081810360008301526142548184613f4e565b905092915050565b6000602082019050818103600083015261427581613f87565b9050919050565b6000602082019050818103600083015261429581613faa565b9050919050565b600060208201905081810360008301526142b581613fcd565b9050919050565b600060208201905081810360008301526142d581613ff0565b9050919050565b600060208201905081810360008301526142f581614013565b9050919050565b6000602082019050818103600083015261431581614036565b9050919050565b6000602082019050818103600083015261433581614059565b9050919050565b600060208201905081810360008301526143558161407c565b9050919050565b600060208201905081810360008301526143758161409f565b9050919050565b60006020820190508181036000830152614395816140c2565b9050919050565b600060208201905081810360008301526143b5816140e5565b9050919050565b600060208201905081810360008301526143d581614108565b9050919050565b600060208201905081810360008301526143f58161412b565b9050919050565b6000602082019050614411600083018461415d565b92915050565b600060608201905061442c600083018661415d565b614439602083018561415d565b614446604083018461415d565b949350505050565b6000614458614469565b905061446482826146aa565b919050565b6000604051905090565b600067ffffffffffffffff82111561448e5761448d6147e0565b5b61449782614823565b9050602081019050919050565b6000819050602082019050919050565b6000819050602082019050919050565b600081519050919050565b600081519050919050565b600081519050919050565b6000602082019050919050565b6000602082019050919050565b600082825260208201905092915050565b600082825260208201905092915050565b600082825260208201905092915050565b600061453d8261460d565b91506145488361460d565b9250827fffffffffffffffffffffffffffffffffffffffffffffffffffffffffffffffff0382111561457d5761457c614724565b5b828201905092915050565b60006145938261460d565b915061459e8361460d565b9250828210156145b1576145b0614724565b5b828203905092915050565b60006145c7826145ed565b9050919050565b60008115159050919050565b60008190506145e882614c11565b919050565b600073ffffffffffffffffffffffffffffffffffffffff82169050919050565b6000819050919050565b600060ff82169050919050565b600061462f826145da565b9050919050565b82818337600083830152505050565b60005b83811015614663578082015181840152602081019050614648565b83811115614672576000848401525b50505050565b6000600282049050600182168061469057607f821691505b602082108114156146a4576146a3614782565b5b50919050565b6146b382614823565b810181811067ffffffffffffffff821117156146d2576146d16147e0565b5b80604052505050565b60006146e68261460d565b91507fffffffffffffffffffffffffffffffffffffffffffffffffffffffffffffffff82141561471957614718614724565b5b600182019050919050565b7f4e487b7100000000000000000000000000000000000000000000000000000000600052601160045260246000fd5b7f4e487b7100000000000000000000000000000000000000000000000000000000600052602160045260246000fd5b7f4e487b7100000000000000000000000000000000000000000000000000000000600052602260045260246000fd5b7f4e487b7100000000000000000000000000000000000000000000000000000000600052603260045260246000fd5b7f4e487b7100000000000000000000000000000000000000000000000000000000600052604160045260246000fd5b600080fd5b600080fd5b600080fd5b600080fd5b6000601f19601f8301169050919050565b7f4e6f2070726f6a6563747320617661696c61626c6520666f722061636365707460008201527f696e6720646f6e6174696f6e7300000000000000000000000000000000000000602082015250565b7f596f757220636f6e747269627574696f6e20657863656564732072657175697260008201527f656420616d6f756e742e00000000000000000000000000000000000000000000602082015250565b7f596f7520686176656e277420636f6e747269627574656420666f72207468697360008201527f2070726f6a656374000000000000000000000000000000000000000000000000602082015250565b7f53686f756c642062652067726561746572207468616e206f7220657175616c2060008201527f746f206d696e696d756d20616d6f756e74000000000000000000000000000000602082015250565b7f43616e277420726566756e642061732065786368616e6765207265717565737460008201527f2077617320616c726561647920696e69746961746564207769746820626f617260208201527f6400000000000000000000000000000000000000000000000000000000000000604082015250565b7f43616e277420726566756e642061732065786368616e6765207265717565737460008201527f20776173206e6f742072656a65637465642062792074686520626f6172640000602082015250565b7f4e6f2070726f6a65637420657869737420756e6465722074686973206368617260008201527f6974790000000000000000000000000000000000000000000000000000000000602082015250565b7f4368617269747920646f65736e27742065786973740000000000000000000000600082015250565b7f4e6f2070726f6a65637420657869737420756e64657220746869732070726f6a60008201527f6563744964000000000000000000000000000000000000000000000000000000602082015250565b7f4e6f20737563682070726f6a65637420657869737420756e646572207468697360008201527f2063686172697479000000000000000000000000000000000000000000000000602082015250565b7f546869732063686172697479206973206e6f742079657420617070726f766564600082015250565b7f596f7520646f6e74277420686176652073756666696369656e742066756e647360008201527f20746f20646f6e61746500000000000000000000000000000000000000000000602082015250565b7f4e6f206d6f726520646f6e6174696f6e7320616363657074656420666f72207460008201527f6869732070726f6a6563742e0000000000000000000000000000000000000000602082015250565b600a8110614c2257614c21614753565b5b50565b614c2e816145bc565b8114614c3957600080fd5b50565b614c45816145ce565b8114614c5057600080fd5b50565b600a8110614c6057600080fd5b50565b614c6c8161460d565b8114614c7757600080fd5b50565b614c8381614617565b8114614c8e57600080fd5b5056fe54686973206f7065726174696f6e2063616e20626520706572666f726d6564206f6e6c7920627920426f6172642061646d696e596f7520617265206e6f7420617574686f72697a656420746f20757064617465207769746820746869732073746174757354686973206f7065726174696f6e2063616e20626520706572666f726d6564206f6e6c792062792043686172697479a26469706673582212205d02332e459ed521e0606b4f5d066c280a72d598e24d35f0381394b22322bb1f64736f6c63430008070033",
			"opcodes": "PUSH1 0x80 PUSH1 0x40 MSTORE CALLVALUE DUP1 ISZERO PUSH3 0x11 JUMPI PUSH1 0x0 DUP1 REVERT JUMPDEST POP CALLER PUSH1 0x2 PUSH1 0x0 PUSH2 0x100 EXP DUP2 SLOAD DUP2 PUSH20 0xFFFFFFFFFFFFFFFFFFFFFFFFFFFFFFFFFFFFFFFF MUL NOT AND SWAP1 DUP4 PUSH20 0xFFFFFFFFFFFFFFFFFFFFFFFFFFFFFFFFFFFFFFFF AND MUL OR SWAP1 SSTORE POP PUSH1 0x40 MLOAD DUP1 PUSH1 0x40 ADD PUSH1 0x40 MSTORE DUP1 PUSH1 0x14 DUP2 MSTORE PUSH1 0x20 ADD PUSH32 0x57616974696E6720666F7220617070726F76616C000000000000000000000000 DUP2 MSTORE POP PUSH1 0x6 PUSH1 0x0 DUP1 PUSH1 0x9 DUP2 GT ISZERO PUSH3 0xA3 JUMPI PUSH3 0xA2 PUSH3 0x6A1 JUMP JUMPDEST JUMPDEST PUSH1 0x9 DUP2 GT ISZERO PUSH3 0xB8 JUMPI PUSH3 0xB7 PUSH3 0x6A1 JUMP JUMPDEST JUMPDEST DUP2 MSTORE PUSH1 0x20 ADD SWAP1 DUP2 MSTORE PUSH1 0x20 ADD PUSH1 0x0 KECCAK256 SWAP1 DUP1 MLOAD SWAP1 PUSH1 0x20 ADD SWAP1 PUSH3 0xDB SWAP3 SWAP2 SWAP1 PUSH3 0x5BB JUMP JUMPDEST POP PUSH1 0x40 MLOAD DUP1 PUSH1 0x40 ADD PUSH1 0x40 MSTORE DUP1 PUSH1 0x8 DUP2 MSTORE PUSH1 0x20 ADD PUSH32 0x417070726F766564000000000000000000000000000000000000000000000000 DUP2 MSTORE POP PUSH1 0x6 PUSH1 0x0 PUSH1 0x2 PUSH1 0x9 DUP2 GT ISZERO PUSH3 0x12D JUMPI PUSH3 0x12C PUSH3 0x6A1 JUMP JUMPDEST JUMPDEST PUSH1 0x9 DUP2 GT ISZERO PUSH3 0x142 JUMPI PUSH3 0x141 PUSH3 0x6A1 JUMP JUMPDEST JUMPDEST DUP2 MSTORE PUSH1 0x20 ADD SWAP1 DUP2 MSTORE PUSH1 0x20 ADD PUSH1 0x0 KECCAK256 SWAP1 DUP1 MLOAD SWAP1 PUSH1 0x20 ADD SWAP1 PUSH3 0x165 SWAP3 SWAP2 SWAP1 PUSH3 0x5BB JUMP JUMPDEST POP PUSH1 0x40 MLOAD DUP1 PUSH1 0x40 ADD PUSH1 0x40 MSTORE DUP1 PUSH1 0x13 DUP2 MSTORE PUSH1 0x20 ADD PUSH32 0x52656A6563746564206279206368617269747900000000000000000000000000 DUP2 MSTORE POP PUSH1 0x6 PUSH1 0x0 PUSH1 0x1 PUSH1 0x9 DUP2 GT ISZERO PUSH3 0x1B7 JUMPI PUSH3 0x1B6 PUSH3 0x6A1 JUMP JUMPDEST JUMPDEST PUSH1 0x9 DUP2 GT ISZERO PUSH3 0x1CC JUMPI PUSH3 0x1CB PUSH3 0x6A1 JUMP JUMPDEST JUMPDEST DUP2 MSTORE PUSH1 0x20 ADD SWAP1 DUP2 MSTORE PUSH1 0x20 ADD PUSH1 0x0 KECCAK256 SWAP1 DUP1 MLOAD SWAP1 PUSH1 0x20 ADD SWAP1 PUSH3 0x1EF SWAP3 SWAP2 SWAP1 PUSH3 0x5BB JUMP JUMPDEST POP PUSH1 0x40 MLOAD DUP1 PUSH1 0x40 ADD PUSH1 0x40 MSTORE DUP1 PUSH1 0x15 DUP2 MSTORE PUSH1 0x20 ADD PUSH32 0x50726F6A65637420676F616C2061636869657665640000000000000000000000 DUP2 MSTORE POP PUSH1 0x6 PUSH1 0x0 PUSH1 0x3 PUSH1 0x9 DUP2 GT ISZERO PUSH3 0x241 JUMPI PUSH3 0x240 PUSH3 0x6A1 JUMP JUMPDEST JUMPDEST PUSH1 0x9 DUP2 GT ISZERO PUSH3 0x256 JUMPI PUSH3 0x255 PUSH3 0x6A1 JUMP JUMPDEST JUMPDEST DUP2 MSTORE PUSH1 0x20 ADD SWAP1 DUP2 MSTORE PUSH1 0x20 ADD PUSH1 0x0 KECCAK256 SWAP1 DUP1 MLOAD SWAP1 PUSH1 0x20 ADD SWAP1 PUSH3 0x279 SWAP3 SWAP2 SWAP1 PUSH3 0x5BB JUMP JUMPDEST POP PUSH1 0x40 MLOAD DUP1 PUSH1 0x40 ADD PUSH1 0x40 MSTORE DUP1 PUSH1 0x12 DUP2 MSTORE PUSH1 0x20 ADD PUSH32 0x45786368616E6765207265717565737465640000000000000000000000000000 DUP2 MSTORE POP PUSH1 0x6 PUSH1 0x0 PUSH1 0x4 PUSH1 0x9 DUP2 GT ISZERO PUSH3 0x2CB JUMPI PUSH3 0x2CA PUSH3 0x6A1 JUMP JUMPDEST JUMPDEST PUSH1 0x9 DUP2 GT ISZERO PUSH3 0x2E0 JUMPI PUSH3 0x2DF PUSH3 0x6A1 JUMP JUMPDEST JUMPDEST DUP2 MSTORE PUSH1 0x20 ADD SWAP1 DUP2 MSTORE PUSH1 0x20 ADD PUSH1 0x0 KECCAK256 SWAP1 DUP1 MLOAD SWAP1 PUSH1 0x20 ADD SWAP1 PUSH3 0x303 SWAP3 SWAP2 SWAP1 PUSH3 0x5BB JUMP JUMPDEST POP PUSH1 0x40 MLOAD DUP1 PUSH1 0x40 ADD PUSH1 0x40 MSTORE DUP1 PUSH1 0x19 DUP2 MSTORE PUSH1 0x20 ADD PUSH32 0x45786368616E6765207265717565737420726563656976656400000000000000 DUP2 MSTORE POP PUSH1 0x6 PUSH1 0x0 PUSH1 0x5 PUSH1 0x9 DUP2 GT ISZERO PUSH3 0x355 JUMPI PUSH3 0x354 PUSH3 0x6A1 JUMP JUMPDEST JUMPDEST PUSH1 0x9 DUP2 GT ISZERO PUSH3 0x36A JUMPI PUSH3 0x369 PUSH3 0x6A1 JUMP JUMPDEST JUMPDEST DUP2 MSTORE PUSH1 0x20 ADD SWAP1 DUP2 MSTORE PUSH1 0x20 ADD PUSH1 0x0 KECCAK256 SWAP1 DUP1 MLOAD SWAP1 PUSH1 0x20 ADD SWAP1 PUSH3 0x38D SWAP3 SWAP2 SWAP1 PUSH3 0x5BB JUMP JUMPDEST POP PUSH1 0x40 MLOAD DUP1 PUSH1 0x40 ADD PUSH1 0x40 MSTORE DUP1 PUSH1 0x19 DUP2 MSTORE PUSH1 0x20 ADD PUSH32 0x45786368616E6765207265717565737420617070726F76656400000000000000 DUP2 MSTORE POP PUSH1 0x6 PUSH1 0x0 PUSH1 0x6 PUSH1 0x9 DUP2 GT ISZERO PUSH3 0x3DF JUMPI PUSH3 0x3DE PUSH3 0x6A1 JUMP JUMPDEST JUMPDEST PUSH1 0x9 DUP2 GT ISZERO PUSH3 0x3F4 JUMPI PUSH3 0x3F3 PUSH3 0x6A1 JUMP JUMPDEST JUMPDEST DUP2 MSTORE PUSH1 0x20 ADD SWAP1 DUP2 MSTORE PUSH1 0x20 ADD PUSH1 0x0 KECCAK256 SWAP1 DUP1 MLOAD SWAP1 PUSH1 0x20 ADD SWAP1 PUSH3 0x417 SWAP3 SWAP2 SWAP1 PUSH3 0x5BB JUMP JUMPDEST POP PUSH1 0x40 MLOAD DUP1 PUSH1 0x40 ADD PUSH1 0x40 MSTORE DUP1 PUSH1 0x19 DUP2 MSTORE PUSH1 0x20 ADD PUSH32 0x45786368616E676520726571756573742072656A656374656400000000000000 DUP2 MSTORE POP PUSH1 0x6 PUSH1 0x0 PUSH1 0x7 PUSH1 0x9 DUP2 GT ISZERO PUSH3 0x469 JUMPI PUSH3 0x468 PUSH3 0x6A1 JUMP JUMPDEST JUMPDEST PUSH1 0x9 DUP2 GT ISZERO PUSH3 0x47E JUMPI PUSH3 0x47D PUSH3 0x6A1 JUMP JUMPDEST JUMPDEST DUP2 MSTORE PUSH1 0x20 ADD SWAP1 DUP2 MSTORE PUSH1 0x20 ADD PUSH1 0x0 KECCAK256 SWAP1 DUP1 MLOAD SWAP1 PUSH1 0x20 ADD SWAP1 PUSH3 0x4A1 SWAP3 SWAP2 SWAP1 PUSH3 0x5BB JUMP JUMPDEST POP PUSH1 0x40 MLOAD DUP1 PUSH1 0x40 ADD PUSH1 0x40 MSTORE DUP1 PUSH1 0xE DUP2 MSTORE PUSH1 0x20 ADD PUSH32 0x46756E647320726566756E646564000000000000000000000000000000000000 DUP2 MSTORE POP PUSH1 0x6 PUSH1 0x0 PUSH1 0x8 PUSH1 0x9 DUP2 GT ISZERO PUSH3 0x4F3 JUMPI PUSH3 0x4F2 PUSH3 0x6A1 JUMP JUMPDEST JUMPDEST PUSH1 0x9 DUP2 GT ISZERO PUSH3 0x508 JUMPI PUSH3 0x507 PUSH3 0x6A1 JUMP JUMPDEST JUMPDEST DUP2 MSTORE PUSH1 0x20 ADD SWAP1 DUP2 MSTORE PUSH1 0x20 ADD PUSH1 0x0 KECCAK256 SWAP1 DUP1 MLOAD SWAP1 PUSH1 0x20 ADD SWAP1 PUSH3 0x52B SWAP3 SWAP2 SWAP1 PUSH3 0x5BB JUMP JUMPDEST POP PUSH1 0x40 MLOAD DUP1 PUSH1 0x40 ADD PUSH1 0x40 MSTORE DUP1 PUSH1 0xE DUP2 MSTORE PUSH1 0x20 ADD PUSH32 0x50726F6A65637420636C6F736564000000000000000000000000000000000000 DUP2 MSTORE POP PUSH1 0x6 PUSH1 0x0 PUSH1 0x9 DUP1 DUP2 GT ISZERO PUSH3 0x57C JUMPI PUSH3 0x57B PUSH3 0x6A1 JUMP JUMPDEST JUMPDEST PUSH1 0x9 DUP2 GT ISZERO PUSH3 0x591 JUMPI PUSH3 0x590 PUSH3 0x6A1 JUMP JUMPDEST JUMPDEST DUP2 MSTORE PUSH1 0x20 ADD SWAP1 DUP2 MSTORE PUSH1 0x20 ADD PUSH1 0x0 KECCAK256 SWAP1 DUP1 MLOAD SWAP1 PUSH1 0x20 ADD SWAP1 PUSH3 0x5B4 SWAP3 SWAP2 SWAP1 PUSH3 0x5BB JUMP JUMPDEST POP PUSH3 0x6FF JUMP JUMPDEST DUP3 DUP1 SLOAD PUSH3 0x5C9 SWAP1 PUSH3 0x66B JUMP JUMPDEST SWAP1 PUSH1 0x0 MSTORE PUSH1 0x20 PUSH1 0x0 KECCAK256 SWAP1 PUSH1 0x1F ADD PUSH1 0x20 SWAP1 DIV DUP2 ADD SWAP3 DUP3 PUSH3 0x5ED JUMPI PUSH1 0x0 DUP6 SSTORE PUSH3 0x639 JUMP JUMPDEST DUP3 PUSH1 0x1F LT PUSH3 0x608 JUMPI DUP1 MLOAD PUSH1 0xFF NOT AND DUP4 DUP1 ADD OR DUP6 SSTORE PUSH3 0x639 JUMP JUMPDEST DUP3 DUP1 ADD PUSH1 0x1 ADD DUP6 SSTORE DUP3 ISZERO PUSH3 0x639 JUMPI SWAP2 DUP3 ADD JUMPDEST DUP3 DUP2 GT ISZERO PUSH3 0x638 JUMPI DUP3 MLOAD DUP3 SSTORE SWAP2 PUSH1 0x20 ADD SWAP2 SWAP1 PUSH1 0x1 ADD SWAP1 PUSH3 0x61B JUMP JUMPDEST JUMPDEST POP SWAP1 POP PUSH3 0x648 SWAP2 SWAP1 PUSH3 0x64C JUMP JUMPDEST POP SWAP1 JUMP JUMPDEST JUMPDEST DUP1 DUP3 GT ISZERO PUSH3 0x667 JUMPI PUSH1 0x0 DUP2 PUSH1 0x0 SWAP1 SSTORE POP PUSH1 0x1 ADD PUSH3 0x64D JUMP JUMPDEST POP SWAP1 JUMP JUMPDEST PUSH1 0x0 PUSH1 0x2 DUP3 DIV SWAP1 POP PUSH1 0x1 DUP3 AND DUP1 PUSH3 0x684 JUMPI PUSH1 0x7F DUP3 AND SWAP2 POP JUMPDEST PUSH1 0x20 DUP3 LT DUP2 EQ ISZERO PUSH3 0x69B JUMPI PUSH3 0x69A PUSH3 0x6D0 JUMP JUMPDEST JUMPDEST POP SWAP2 SWAP1 POP JUMP JUMPDEST PUSH32 0x4E487B7100000000000000000000000000000000000000000000000000000000 PUSH1 0x0 MSTORE PUSH1 0x21 PUSH1 0x4 MSTORE PUSH1 0x24 PUSH1 0x0 REVERT JUMPDEST PUSH32 0x4E487B7100000000000000000000000000000000000000000000000000000000 PUSH1 0x0 MSTORE PUSH1 0x22 PUSH1 0x4 MSTORE PUSH1 0x24 PUSH1 0x0 REVERT JUMPDEST PUSH2 0x4D5A DUP1 PUSH3 0x70F PUSH1 0x0 CODECOPY PUSH1 0x0 RETURN INVALID PUSH1 0x80 PUSH1 0x40 MSTORE PUSH1 0x4 CALLDATASIZE LT PUSH2 0xE8 JUMPI PUSH1 0x0 CALLDATALOAD PUSH1 0xE0 SHR DUP1 PUSH4 0x9238CF4E GT PUSH2 0x8A JUMPI DUP1 PUSH4 0xBFDA08A3 GT PUSH2 0x59 JUMPI DUP1 PUSH4 0xBFDA08A3 EQ PUSH2 0x2CF JUMPI DUP1 PUSH4 0xC4529AB9 EQ PUSH2 0x30E JUMPI DUP1 PUSH4 0xCA76973D EQ PUSH2 0x34E JUMPI DUP1 PUSH4 0xEF6ADD32 EQ PUSH2 0x38B JUMPI PUSH2 0xE8 JUMP JUMPDEST DUP1 PUSH4 0x9238CF4E EQ PUSH2 0x215 JUMPI DUP1 PUSH4 0x9DF9B0E6 EQ PUSH2 0x252 JUMPI DUP1 PUSH4 0xAB6B8564 EQ PUSH2 0x27B JUMPI DUP1 PUSH4 0xB61A7F76 EQ PUSH2 0x2A4 JUMPI PUSH2 0xE8 JUMP JUMPDEST DUP1 PUSH4 0x42EF4BCC GT PUSH2 0xC6 JUMPI DUP1 PUSH4 0x42EF4BCC EQ PUSH2 0x15D JUMPI DUP1 PUSH4 0x44E54812 EQ PUSH2 0x19A JUMPI DUP1 PUSH4 0x5C3BE951 EQ PUSH2 0x1C3 JUMPI DUP1 PUSH4 0x864EE384 EQ PUSH2 0x1EC JUMPI PUSH2 0xE8 JUMP JUMPDEST DUP1 PUSH4 0xEE3B93D EQ PUSH2 0xED JUMPI DUP1 PUSH4 0x1AB33308 EQ PUSH2 0x116 JUMPI DUP1 PUSH4 0x21BEA7CC EQ PUSH2 0x141 JUMPI JUMPDEST PUSH1 0x0 DUP1 REVERT JUMPDEST CALLVALUE DUP1 ISZERO PUSH2 0xF9 JUMPI PUSH1 0x0 DUP1 REVERT JUMPDEST POP PUSH2 0x114 PUSH1 0x4 DUP1 CALLDATASIZE SUB DUP2 ADD SWAP1 PUSH2 0x10F SWAP2 SWAP1 PUSH2 0x3CE9 JUMP JUMPDEST PUSH2 0x3C8 JUMP JUMPDEST STOP JUMPDEST CALLVALUE DUP1 ISZERO PUSH2 0x122 JUMPI PUSH1 0x0 DUP1 REVERT JUMPDEST POP PUSH2 0x12B PUSH2 0xAB6 JUMP JUMPDEST PUSH1 0x40 MLOAD PUSH2 0x138 SWAP2 SWAP1 PUSH2 0x421F JUMP JUMPDEST PUSH1 0x40 MLOAD DUP1 SWAP2 SUB SWAP1 RETURN JUMPDEST PUSH2 0x15B PUSH1 0x4 DUP1 CALLDATASIZE SUB DUP2 ADD SWAP1 PUSH2 0x156 SWAP2 SWAP1 PUSH2 0x3B94 JUMP JUMPDEST PUSH2 0xAC9 JUMP JUMPDEST STOP JUMPDEST CALLVALUE DUP1 ISZERO PUSH2 0x169 JUMPI PUSH1 0x0 DUP1 REVERT JUMPDEST POP PUSH2 0x184 PUSH1 0x4 DUP1 CALLDATASIZE SUB DUP2 ADD SWAP1 PUSH2 0x17F SWAP2 SWAP1 PUSH2 0x3B94 JUMP JUMPDEST PUSH2 0x11BD JUMP JUMPDEST PUSH1 0x40 MLOAD PUSH2 0x191 SWAP2 SWAP1 PUSH2 0x423A JUMP JUMPDEST PUSH1 0x40 MLOAD DUP1 SWAP2 SUB SWAP1 RETURN JUMPDEST CALLVALUE DUP1 ISZERO PUSH2 0x1A6 JUMPI PUSH1 0x0 DUP1 REVERT JUMPDEST POP PUSH2 0x1C1 PUSH1 0x4 DUP1 CALLDATASIZE SUB DUP2 ADD SWAP1 PUSH2 0x1BC SWAP2 SWAP1 PUSH2 0x3C27 JUMP JUMPDEST PUSH2 0x141F JUMP JUMPDEST STOP JUMPDEST CALLVALUE DUP1 ISZERO PUSH2 0x1CF JUMPI PUSH1 0x0 DUP1 REVERT JUMPDEST POP PUSH2 0x1EA PUSH1 0x4 DUP1 CALLDATASIZE SUB DUP2 ADD SWAP1 PUSH2 0x1E5 SWAP2 SWAP1 PUSH2 0x3DB2 JUMP JUMPDEST PUSH2 0x192C JUMP JUMPDEST STOP JUMPDEST CALLVALUE DUP1 ISZERO PUSH2 0x1F8 JUMPI PUSH1 0x0 DUP1 REVERT JUMPDEST POP PUSH2 0x213 PUSH1 0x4 DUP1 CALLDATASIZE SUB DUP2 ADD SWAP1 PUSH2 0x20E SWAP2 SWAP1 PUSH2 0x3D56 JUMP JUMPDEST PUSH2 0x1E9F JUMP JUMPDEST STOP JUMPDEST CALLVALUE DUP1 ISZERO PUSH2 0x221 JUMPI PUSH1 0x0 DUP1 REVERT JUMPDEST POP PUSH2 0x23C PUSH1 0x4 DUP1 CALLDATASIZE SUB DUP2 ADD SWAP1 PUSH2 0x237 SWAP2 SWAP1 PUSH2 0x3B94 JUMP JUMPDEST PUSH2 0x2081 JUMP JUMPDEST PUSH1 0x40 MLOAD PUSH2 0x249 SWAP2 SWAP1 PUSH2 0x43FC JUMP JUMPDEST PUSH1 0x40 MLOAD DUP1 SWAP2 SUB SWAP1 RETURN JUMPDEST CALLVALUE DUP1 ISZERO PUSH2 0x25E JUMPI PUSH1 0x0 DUP1 REVERT JUMPDEST POP PUSH2 0x279 PUSH1 0x4 DUP1 CALLDATASIZE SUB DUP2 ADD SWAP1 PUSH2 0x274 SWAP2 SWAP1 PUSH2 0x3B94 JUMP JUMPDEST PUSH2 0x2216 JUMP JUMPDEST STOP JUMPDEST CALLVALUE DUP1 ISZERO PUSH2 0x287 JUMPI PUSH1 0x0 DUP1 REVERT JUMPDEST POP PUSH2 0x2A2 PUSH1 0x4 DUP1 CALLDATASIZE SUB DUP2 ADD SWAP1 PUSH2 0x29D SWAP2 SWAP1 PUSH2 0x3C7A JUMP JUMPDEST PUSH2 0x28E4 JUMP JUMPDEST STOP JUMPDEST CALLVALUE DUP1 ISZERO PUSH2 0x2B0 JUMPI PUSH1 0x0 DUP1 REVERT JUMPDEST POP PUSH2 0x2B9 PUSH2 0x2B16 JUMP JUMPDEST PUSH1 0x40 MLOAD PUSH2 0x2C6 SWAP2 SWAP1 PUSH2 0x416C JUMP JUMPDEST PUSH1 0x40 MLOAD DUP1 SWAP2 SUB SWAP1 RETURN JUMPDEST CALLVALUE DUP1 ISZERO PUSH2 0x2DB JUMPI PUSH1 0x0 DUP1 REVERT JUMPDEST POP PUSH2 0x2F6 PUSH1 0x4 DUP1 CALLDATASIZE SUB DUP2 ADD SWAP1 PUSH2 0x2F1 SWAP2 SWAP1 PUSH2 0x3B94 JUMP JUMPDEST PUSH2 0x2B3C JUMP JUMPDEST PUSH1 0x40 MLOAD PUSH2 0x305 SWAP4 SWAP3 SWAP2 SWAP1 PUSH2 0x4417 JUMP JUMPDEST PUSH1 0x40 MLOAD DUP1 SWAP2 SUB SWAP1 RETURN JUMPDEST CALLVALUE DUP1 ISZERO PUSH2 0x31A JUMPI PUSH1 0x0 DUP1 REVERT JUMPDEST POP PUSH2 0x335 PUSH1 0x4 DUP1 CALLDATASIZE SUB DUP2 ADD SWAP1 PUSH2 0x330 SWAP2 SWAP1 PUSH2 0x3B67 JUMP JUMPDEST PUSH2 0x2D52 JUMP JUMPDEST PUSH1 0x40 MLOAD PUSH2 0x345 SWAP5 SWAP4 SWAP3 SWAP2 SWAP1 PUSH2 0x41BE JUMP JUMPDEST PUSH1 0x40 MLOAD DUP1 SWAP2 SUB SWAP1 RETURN JUMPDEST CALLVALUE DUP1 ISZERO PUSH2 0x35A JUMPI PUSH1 0x0 DUP1 REVERT JUMPDEST POP PUSH2 0x375 PUSH1 0x4 DUP1 CALLDATASIZE SUB DUP2 ADD SWAP1 PUSH2 0x370 SWAP2 SWAP1 PUSH2 0x3BD4 JUMP JUMPDEST PUSH2 0x314B JUMP JUMPDEST PUSH1 0x40 MLOAD PUSH2 0x382 SWAP2 SWAP1 PUSH2 0x43FC JUMP JUMPDEST PUSH1 0x40 MLOAD DUP1 SWAP2 SUB SWAP1 RETURN JUMPDEST CALLVALUE DUP1 ISZERO PUSH2 0x397 JUMPI PUSH1 0x0 DUP1 REVERT JUMPDEST POP PUSH2 0x3B2 PUSH1 0x4 DUP1 CALLDATASIZE SUB DUP2 ADD SWAP1 PUSH2 0x3AD SWAP2 SWAP1 PUSH2 0x3D29 JUMP JUMPDEST PUSH2 0x33C1 JUMP JUMPDEST PUSH1 0x40 MLOAD PUSH2 0x3BF SWAP2 SWAP1 PUSH2 0x423A JUMP JUMPDEST PUSH1 0x40 MLOAD DUP1 SWAP2 SUB SWAP1 RETURN JUMPDEST PUSH1 0x2 PUSH1 0x0 SWAP1 SLOAD SWAP1 PUSH2 0x100 EXP SWAP1 DIV PUSH20 0xFFFFFFFFFFFFFFFFFFFFFFFFFFFFFFFFFFFFFFFF AND PUSH20 0xFFFFFFFFFFFFFFFFFFFFFFFFFFFFFFFFFFFFFFFF AND CALLER PUSH20 0xFFFFFFFFFFFFFFFFFFFFFFFFFFFFFFFFFFFFFFFF AND EQ ISZERO PUSH1 0x40 MLOAD DUP1 PUSH1 0x60 ADD PUSH1 0x40 MSTORE DUP1 PUSH1 0x2F DUP2 MSTORE PUSH1 0x20 ADD PUSH2 0x4CF6 PUSH1 0x2F SWAP2 CODECOPY SWAP1 PUSH2 0x474 JUMPI PUSH1 0x40 MLOAD PUSH32 0x8C379A000000000000000000000000000000000000000000000000000000000 DUP2 MSTORE PUSH1 0x4 ADD PUSH2 0x46B SWAP2 SWAP1 PUSH2 0x423A JUMP JUMPDEST PUSH1 0x40 MLOAD DUP1 SWAP2 SUB SWAP1 REVERT JUMPDEST POP PUSH1 0x0 PUSH1 0x3 PUSH1 0x9 DUP2 GT ISZERO PUSH2 0x48B JUMPI PUSH2 0x48A PUSH2 0x4753 JUMP JUMPDEST JUMPDEST DUP3 PUSH1 0xFF AND PUSH1 0x9 DUP2 GT ISZERO PUSH2 0x4A1 JUMPI PUSH2 0x4A0 PUSH2 0x4753 JUMP JUMPDEST JUMPDEST PUSH1 0x9 DUP2 GT ISZERO PUSH2 0x4B3 JUMPI PUSH2 0x4B2 PUSH2 0x4753 JUMP JUMPDEST JUMPDEST EQ ISZERO PUSH1 0x40 MLOAD DUP1 PUSH1 0x60 ADD PUSH1 0x40 MSTORE DUP1 PUSH1 0x31 DUP2 MSTORE PUSH1 0x20 ADD PUSH2 0x4CC5 PUSH1 0x31 SWAP2 CODECOPY SWAP1 PUSH2 0x50F JUMPI PUSH1 0x40 MLOAD PUSH32 0x8C379A000000000000000000000000000000000000000000000000000000000 DUP2 MSTORE PUSH1 0x4 ADD PUSH2 0x506 SWAP2 SWAP1 PUSH2 0x423A JUMP JUMPDEST PUSH1 0x40 MLOAD DUP1 SWAP2 SUB SWAP1 REVERT JUMPDEST POP PUSH1 0x5 PUSH1 0x9 DUP2 GT ISZERO PUSH2 0x524 JUMPI PUSH2 0x523 PUSH2 0x4753 JUMP JUMPDEST JUMPDEST DUP3 PUSH1 0xFF AND PUSH1 0x9 DUP2 GT ISZERO PUSH2 0x53A JUMPI PUSH2 0x539 PUSH2 0x4753 JUMP JUMPDEST JUMPDEST PUSH1 0x9 DUP2 GT ISZERO PUSH2 0x54C JUMPI PUSH2 0x54B PUSH2 0x4753 JUMP JUMPDEST JUMPDEST EQ ISZERO PUSH1 0x40 MLOAD DUP1 PUSH1 0x60 ADD PUSH1 0x40 MSTORE DUP1 PUSH1 0x31 DUP2 MSTORE PUSH1 0x20 ADD PUSH2 0x4CC5 PUSH1 0x31 SWAP2 CODECOPY SWAP1 PUSH2 0x5A8 JUMPI PUSH1 0x40 MLOAD PUSH32 0x8C379A000000000000000000000000000000000000000000000000000000000 DUP2 MSTORE PUSH1 0x4 ADD PUSH2 0x59F SWAP2 SWAP1 PUSH2 0x423A JUMP JUMPDEST PUSH1 0x40 MLOAD DUP1 SWAP2 SUB SWAP1 REVERT JUMPDEST POP PUSH1 0x0 PUSH1 0x3 PUSH1 0x0 CALLER PUSH20 0xFFFFFFFFFFFFFFFFFFFFFFFFFFFFFFFFFFFFFFFF AND PUSH20 0xFFFFFFFFFFFFFFFFFFFFFFFFFFFFFFFFFFFFFFFF AND DUP2 MSTORE PUSH1 0x20 ADD SWAP1 DUP2 MSTORE PUSH1 0x20 ADD PUSH1 0x0 KECCAK256 SWAP1 POP PUSH1 0x0 DUP2 DUP1 SLOAD SWAP1 POP GT PUSH2 0x633 JUMPI PUSH1 0x40 MLOAD PUSH32 0x8C379A000000000000000000000000000000000000000000000000000000000 DUP2 MSTORE PUSH1 0x4 ADD PUSH2 0x62A SWAP1 PUSH2 0x431C JUMP JUMPDEST PUSH1 0x40 MLOAD DUP1 SWAP2 SUB SWAP1 REVERT JUMPDEST PUSH1 0x0 JUMPDEST DUP2 DUP1 SLOAD SWAP1 POP DUP2 LT ISZERO PUSH2 0xAAF JUMPI DUP5 PUSH20 0xFFFFFFFFFFFFFFFFFFFFFFFFFFFFFFFFFFFFFFFF AND DUP3 DUP3 DUP2 SLOAD DUP2 LT PUSH2 0x66C JUMPI PUSH2 0x66B PUSH2 0x47B1 JUMP JUMPDEST JUMPDEST SWAP1 PUSH1 0x0 MSTORE PUSH1 0x20 PUSH1 0x0 KECCAK256 SWAP1 PUSH1 0x7 MUL ADD PUSH1 0x3 ADD PUSH1 0x0 SWAP1 SLOAD SWAP1 PUSH2 0x100 EXP SWAP1 DIV PUSH20 0xFFFFFFFFFFFFFFFFFFFFFFFFFFFFFFFFFFFFFFFF AND PUSH20 0xFFFFFFFFFFFFFFFFFFFFFFFFFFFFFFFFFFFFFFFF AND EQ ISZERO PUSH2 0xA91 JUMPI PUSH1 0x1 SWAP3 POP PUSH1 0x7 PUSH1 0x9 DUP2 GT ISZERO PUSH2 0x6D2 JUMPI PUSH2 0x6D1 PUSH2 0x4753 JUMP JUMPDEST JUMPDEST DUP5 PUSH1 0xFF AND PUSH1 0x9 DUP2 GT ISZERO PUSH2 0x6E8 JUMPI PUSH2 0x6E7 PUSH2 0x4753 JUMP JUMPDEST JUMPDEST PUSH1 0x9 DUP2 GT ISZERO PUSH2 0x6FA JUMPI PUSH2 0x6F9 PUSH2 0x4753 JUMP JUMPDEST JUMPDEST EQ DUP1 PUSH2 0x73F JUMPI POP PUSH1 0x6 PUSH1 0x9 DUP2 GT ISZERO PUSH2 0x715 JUMPI PUSH2 0x714 PUSH2 0x4753 JUMP JUMPDEST JUMPDEST DUP5 PUSH1 0xFF AND PUSH1 0x9 DUP2 GT ISZERO PUSH2 0x72B JUMPI PUSH2 0x72A PUSH2 0x4753 JUMP JUMPDEST JUMPDEST PUSH1 0x9 DUP2 GT ISZERO PUSH2 0x73D JUMPI PUSH2 0x73C PUSH2 0x4753 JUMP JUMPDEST JUMPDEST EQ JUMPDEST ISZERO PUSH2 0x8ED JUMPI PUSH1 0x0 DUP3 DUP3 DUP2 SLOAD DUP2 LT PUSH2 0x759 JUMPI PUSH2 0x758 PUSH2 0x47B1 JUMP JUMPDEST JUMPDEST SWAP1 PUSH1 0x0 MSTORE PUSH1 0x20 PUSH1 0x0 KECCAK256 SWAP1 PUSH1 0x7 MUL ADD PUSH1 0x4 ADD PUSH1 0x14 PUSH2 0x100 EXP DUP2 SLOAD DUP2 PUSH1 0xFF MUL NOT AND SWAP1 DUP4 ISZERO ISZERO MUL OR SWAP1 SSTORE POP PUSH32 0x7149B8A236148161D6ED6DD65EE3D95161A895F8788D472B49A825EE9A996D6D CALLER DUP7 DUP7 PUSH1 0xFF AND PUSH1 0x9 DUP2 GT ISZERO PUSH2 0x7BA JUMPI PUSH2 0x7B9 PUSH2 0x4753 JUMP JUMPDEST JUMPDEST PUSH1 0x40 MLOAD PUSH2 0x7C9 SWAP4 SWAP3 SWAP2 SWAP1 PUSH2 0x4187 JUMP JUMPDEST PUSH1 0x40 MLOAD DUP1 SWAP2 SUB SWAP1 LOG1 PUSH1 0x7 PUSH1 0x9 DUP2 GT ISZERO PUSH2 0x7E5 JUMPI PUSH2 0x7E4 PUSH2 0x4753 JUMP JUMPDEST JUMPDEST DUP5 PUSH1 0xFF AND PUSH1 0x9 DUP2 GT ISZERO PUSH2 0x7FB JUMPI PUSH2 0x7FA PUSH2 0x4753 JUMP JUMPDEST JUMPDEST PUSH1 0x9 DUP2 GT ISZERO PUSH2 0x80D JUMPI PUSH2 0x80C PUSH2 0x4753 JUMP JUMPDEST JUMPDEST EQ ISZERO PUSH2 0x85E JUMPI PUSH2 0x81D CALLER DUP7 PUSH2 0x3461 JUMP JUMPDEST PUSH32 0xB1C913A6F2FFB3DC7A85BC2D3DEF4CA9BC82B4FF580CADC77ACBBBD3A6AACC20 CALLER DUP7 PUSH1 0x8 PUSH1 0x40 MLOAD PUSH2 0x851 SWAP4 SWAP3 SWAP2 SWAP1 PUSH2 0x4187 JUMP JUMPDEST PUSH1 0x40 MLOAD DUP1 SWAP2 SUB SWAP1 LOG1 PUSH2 0x8E8 JUMP JUMPDEST PUSH1 0x6 PUSH1 0x9 DUP2 GT ISZERO PUSH2 0x872 JUMPI PUSH2 0x871 PUSH2 0x4753 JUMP JUMPDEST JUMPDEST DUP5 PUSH1 0xFF AND PUSH1 0x9 DUP2 GT ISZERO PUSH2 0x888 JUMPI PUSH2 0x887 PUSH2 0x4753 JUMP JUMPDEST JUMPDEST PUSH1 0x9 DUP2 GT ISZERO PUSH2 0x89A JUMPI PUSH2 0x899 PUSH2 0x4753 JUMP JUMPDEST JUMPDEST EQ ISZERO PUSH2 0x8E7 JUMPI PUSH2 0x8AA CALLER DUP7 PUSH2 0x37C7 JUMP JUMPDEST PUSH32 0xB1C913A6F2FFB3DC7A85BC2D3DEF4CA9BC82B4FF580CADC77ACBBBD3A6AACC20 CALLER DUP7 PUSH1 0x9 PUSH1 0x40 MLOAD PUSH2 0x8DE SWAP4 SWAP3 SWAP2 SWAP1 PUSH2 0x4187 JUMP JUMPDEST PUSH1 0x40 MLOAD DUP1 SWAP2 SUB SWAP1 LOG1 JUMPDEST JUMPDEST PUSH2 0xA90 JUMP JUMPDEST DUP4 PUSH1 0xFF AND PUSH1 0x9 DUP2 GT ISZERO PUSH2 0x903 JUMPI PUSH2 0x902 PUSH2 0x4753 JUMP JUMPDEST JUMPDEST DUP3 DUP3 DUP2 SLOAD DUP2 LT PUSH2 0x916 JUMPI PUSH2 0x915 PUSH2 0x47B1 JUMP JUMPDEST JUMPDEST SWAP1 PUSH1 0x0 MSTORE PUSH1 0x20 PUSH1 0x0 KECCAK256 SWAP1 PUSH1 0x7 MUL ADD PUSH1 0x6 ADD PUSH1 0x0 PUSH2 0x100 EXP DUP2 SLOAD DUP2 PUSH1 0xFF MUL NOT AND SWAP1 DUP4 PUSH1 0x9 DUP2 GT ISZERO PUSH2 0x949 JUMPI PUSH2 0x948 PUSH2 0x4753 JUMP JUMPDEST JUMPDEST MUL OR SWAP1 SSTORE POP PUSH1 0x2 PUSH1 0x9 DUP2 GT ISZERO PUSH2 0x962 JUMPI PUSH2 0x961 PUSH2 0x4753 JUMP JUMPDEST JUMPDEST DUP5 PUSH1 0xFF AND PUSH1 0x9 DUP2 GT ISZERO PUSH2 0x978 JUMPI PUSH2 0x977 PUSH2 0x4753 JUMP JUMPDEST JUMPDEST PUSH1 0x9 DUP2 GT ISZERO PUSH2 0x98A JUMPI PUSH2 0x989 PUSH2 0x4753 JUMP JUMPDEST JUMPDEST EQ ISZERO PUSH2 0x9D2 JUMPI PUSH1 0x1 DUP3 DUP3 DUP2 SLOAD DUP2 LT PUSH2 0x9A5 JUMPI PUSH2 0x9A4 PUSH2 0x47B1 JUMP JUMPDEST JUMPDEST SWAP1 PUSH1 0x0 MSTORE PUSH1 0x20 PUSH1 0x0 KECCAK256 SWAP1 PUSH1 0x7 MUL ADD PUSH1 0x4 ADD PUSH1 0x14 PUSH2 0x100 EXP DUP2 SLOAD DUP2 PUSH1 0xFF MUL NOT AND SWAP1 DUP4 ISZERO ISZERO MUL OR SWAP1 SSTORE POP PUSH2 0xA8F JUMP JUMPDEST PUSH1 0x4 PUSH1 0x9 DUP2 GT ISZERO PUSH2 0x9E6 JUMPI PUSH2 0x9E5 PUSH2 0x4753 JUMP JUMPDEST JUMPDEST DUP5 PUSH1 0xFF AND PUSH1 0x9 DUP2 GT ISZERO PUSH2 0x9FC JUMPI PUSH2 0x9FB PUSH2 0x4753 JUMP JUMPDEST JUMPDEST PUSH1 0x9 DUP2 GT ISZERO PUSH2 0xA0E JUMPI PUSH2 0xA0D PUSH2 0x4753 JUMP JUMPDEST JUMPDEST EQ ISZERO PUSH2 0xA8E JUMPI PUSH1 0x0 DUP3 DUP3 DUP2 SLOAD DUP2 LT PUSH2 0xA29 JUMPI PUSH2 0xA28 PUSH2 0x47B1 JUMP JUMPDEST JUMPDEST SWAP1 PUSH1 0x0 MSTORE PUSH1 0x20 PUSH1 0x0 KECCAK256 SWAP1 PUSH1 0x7 MUL ADD PUSH1 0x4 ADD PUSH1 0x14 PUSH2 0x100 EXP DUP2 SLOAD DUP2 PUSH1 0xFF MUL NOT AND SWAP1 DUP4 ISZERO ISZERO MUL OR SWAP1 SSTORE POP PUSH32 0x8368D76676EFAF85C0B16282870A64F994DBB3A7C8CC90BA57D8BD4D4CCCB2F3 CALLER DUP7 PUSH1 0x4 PUSH1 0x40 MLOAD PUSH2 0xA85 SWAP4 SWAP3 SWAP2 SWAP1 PUSH2 0x4187 JUMP JUMPDEST PUSH1 0x40 MLOAD DUP1 SWAP2 SUB SWAP1 LOG1 JUMPDEST JUMPDEST JUMPDEST JUMPDEST DUP3 ISZERO PUSH2 0xA9C JUMPI PUSH2 0xAAF JUMP JUMPDEST DUP1 DUP1 PUSH2 0xAA7 SWAP1 PUSH2 0x46DB JUMP JUMPDEST SWAP2 POP POP PUSH2 0x636 JUMP JUMPDEST POP POP POP POP POP JUMP JUMPDEST PUSH1 0x5 PUSH1 0x0 SWAP1 SLOAD SWAP1 PUSH2 0x100 EXP SWAP1 DIV PUSH1 0xFF AND DUP2 JUMP JUMPDEST PUSH1 0x0 DUP1 PUSH1 0x3 PUSH1 0x0 DUP6 PUSH20 0xFFFFFFFFFFFFFFFFFFFFFFFFFFFFFFFFFFFFFFFF AND PUSH20 0xFFFFFFFFFFFFFFFFFFFFFFFFFFFFFFFFFFFFFFFF AND DUP2 MSTORE PUSH1 0x20 ADD SWAP1 DUP2 MSTORE PUSH1 0x20 ADD PUSH1 0x0 KECCAK256 SWAP1 POP PUSH1 0x0 DUP2 DUP1 SLOAD SWAP1 POP GT PUSH2 0xB54 JUMPI PUSH1 0x40 MLOAD PUSH32 0x8C379A000000000000000000000000000000000000000000000000000000000 DUP2 MSTORE PUSH1 0x4 ADD PUSH2 0xB4B SWAP1 PUSH2 0x431C JUMP JUMPDEST PUSH1 0x40 MLOAD DUP1 SWAP2 SUB SWAP1 REVERT JUMPDEST CALLER PUSH20 0xFFFFFFFFFFFFFFFFFFFFFFFFFFFFFFFFFFFFFFFF AND BALANCE CALLVALUE GT ISZERO PUSH2 0xBAE JUMPI PUSH1 0x40 MLOAD PUSH32 0x8C379A000000000000000000000000000000000000000000000000000000000 DUP2 MSTORE PUSH1 0x4 ADD PUSH2 0xBA5 SWAP1 PUSH2 0x43BC JUMP JUMPDEST PUSH1 0x40 MLOAD DUP1 SWAP2 SUB SWAP1 REVERT JUMPDEST PUSH1 0x0 JUMPDEST DUP2 DUP1 SLOAD SWAP1 POP DUP2 LT ISZERO PUSH2 0x1176 JUMPI DUP4 PUSH20 0xFFFFFFFFFFFFFFFFFFFFFFFFFFFFFFFFFFFFFFFF AND DUP3 DUP3 DUP2 SLOAD DUP2 LT PUSH2 0xBE7 JUMPI PUSH2 0xBE6 PUSH2 0x47B1 JUMP JUMPDEST JUMPDEST SWAP1 PUSH1 0x0 MSTORE PUSH1 0x20 PUSH1 0x0 KECCAK256 SWAP1 PUSH1 0x7 MUL ADD PUSH1 0x3 ADD PUSH1 0x0 SWAP1 SLOAD SWAP1 PUSH2 0x100 EXP SWAP1 DIV PUSH20 0xFFFFFFFFFFFFFFFFFFFFFFFFFFFFFFFFFFFFFFFF AND PUSH20 0xFFFFFFFFFFFFFFFFFFFFFFFFFFFFFFFFFFFFFFFF AND EQ ISZERO PUSH2 0x1163 JUMPI DUP2 DUP2 DUP2 SLOAD DUP2 LT PUSH2 0xC48 JUMPI PUSH2 0xC47 PUSH2 0x47B1 JUMP JUMPDEST JUMPDEST SWAP1 PUSH1 0x0 MSTORE PUSH1 0x20 PUSH1 0x0 KECCAK256 SWAP1 PUSH1 0x7 MUL ADD PUSH1 0x4 ADD PUSH1 0x14 SWAP1 SLOAD SWAP1 PUSH2 0x100 EXP SWAP1 DIV PUSH1 0xFF AND ISZERO PUSH2 0x111F JUMPI DUP2 DUP2 DUP2 SLOAD DUP2 LT PUSH2 0xC7F JUMPI PUSH2 0xC7E PUSH2 0x47B1 JUMP JUMPDEST JUMPDEST SWAP1 PUSH1 0x0 MSTORE PUSH1 0x20 PUSH1 0x0 KECCAK256 SWAP1 PUSH1 0x7 MUL ADD PUSH1 0x0 ADD SLOAD CALLVALUE LT ISZERO PUSH2 0xCD3 JUMPI PUSH1 0x40 MLOAD PUSH32 0x8C379A000000000000000000000000000000000000000000000000000000000 DUP2 MSTORE PUSH1 0x4 ADD PUSH2 0xCCA SWAP1 PUSH2 0x42BC JUMP JUMPDEST PUSH1 0x40 MLOAD DUP1 SWAP2 SUB SWAP1 REVERT JUMPDEST DUP2 DUP2 DUP2 SLOAD DUP2 LT PUSH2 0xCE6 JUMPI PUSH2 0xCE5 PUSH2 0x47B1 JUMP JUMPDEST JUMPDEST SWAP1 PUSH1 0x0 MSTORE PUSH1 0x20 PUSH1 0x0 KECCAK256 SWAP1 PUSH1 0x7 MUL ADD PUSH1 0x1 ADD SLOAD DUP3 DUP3 DUP2 SLOAD DUP2 LT PUSH2 0xD0B JUMPI PUSH2 0xD0A PUSH2 0x47B1 JUMP JUMPDEST JUMPDEST SWAP1 PUSH1 0x0 MSTORE PUSH1 0x20 PUSH1 0x0 KECCAK256 SWAP1 PUSH1 0x7 MUL ADD PUSH1 0x2 ADD SLOAD CALLVALUE PUSH2 0xD28 SWAP2 SWAP1 PUSH2 0x4532 JUMP JUMPDEST GT ISZERO PUSH2 0xD69 JUMPI PUSH1 0x40 MLOAD PUSH32 0x8C379A000000000000000000000000000000000000000000000000000000000 DUP2 MSTORE PUSH1 0x4 ADD PUSH2 0xD60 SWAP1 PUSH2 0x427C JUMP JUMPDEST PUSH1 0x40 MLOAD DUP1 SWAP2 SUB SWAP1 REVERT JUMPDEST CALLVALUE DUP3 DUP3 DUP2 SLOAD DUP2 LT PUSH2 0xD7D JUMPI PUSH2 0xD7C PUSH2 0x47B1 JUMP JUMPDEST JUMPDEST SWAP1 PUSH1 0x0 MSTORE PUSH1 0x20 PUSH1 0x0 KECCAK256 SWAP1 PUSH1 0x7 MUL ADD PUSH1 0x2 ADD SLOAD PUSH2 0xD99 SWAP2 SWAP1 PUSH2 0x4532 JUMP JUMPDEST DUP3 DUP3 DUP2 SLOAD DUP2 LT PUSH2 0xDAC JUMPI PUSH2 0xDAB PUSH2 0x47B1 JUMP JUMPDEST JUMPDEST SWAP1 PUSH1 0x0 MSTORE PUSH1 0x20 PUSH1 0x0 KECCAK256 SWAP1 PUSH1 0x7 MUL ADD PUSH1 0x2 ADD DUP2 SWAP1 SSTORE POP PUSH1 0x0 PUSH1 0x4 PUSH1 0x0 DUP7 PUSH20 0xFFFFFFFFFFFFFFFFFFFFFFFFFFFFFFFFFFFFFFFF AND PUSH20 0xFFFFFFFFFFFFFFFFFFFFFFFFFFFFFFFFFFFFFFFF AND DUP2 MSTORE PUSH1 0x20 ADD SWAP1 DUP2 MSTORE PUSH1 0x20 ADD PUSH1 0x0 KECCAK256 SWAP1 POP PUSH1 0x0 DUP2 DUP1 SLOAD SWAP1 POP SWAP1 POP PUSH1 0x0 DUP1 PUSH1 0x0 SWAP1 POP JUMPDEST DUP4 DUP1 SLOAD SWAP1 POP DUP2 LT ISZERO PUSH2 0xF2D JUMPI CALLER PUSH20 0xFFFFFFFFFFFFFFFFFFFFFFFFFFFFFFFFFFFFFFFF AND DUP5 DUP3 DUP2 SLOAD DUP2 LT PUSH2 0xE4B JUMPI PUSH2 0xE4A PUSH2 0x47B1 JUMP JUMPDEST JUMPDEST SWAP1 PUSH1 0x0 MSTORE PUSH1 0x20 PUSH1 0x0 KECCAK256 SWAP1 PUSH1 0x3 MUL ADD PUSH1 0x1 ADD PUSH1 0x0 SWAP1 SLOAD SWAP1 PUSH2 0x100 EXP SWAP1 DIV PUSH20 0xFFFFFFFFFFFFFFFFFFFFFFFFFFFFFFFFFFFFFFFF AND PUSH20 0xFFFFFFFFFFFFFFFFFFFFFFFFFFFFFFFFFFFFFFFF AND EQ ISZERO PUSH2 0xF1A JUMPI CALLVALUE DUP5 DUP3 DUP2 SLOAD DUP2 LT PUSH2 0xEAD JUMPI PUSH2 0xEAC PUSH2 0x47B1 JUMP JUMPDEST JUMPDEST SWAP1 PUSH1 0x0 MSTORE PUSH1 0x20 PUSH1 0x0 KECCAK256 SWAP1 PUSH1 0x3 MUL ADD PUSH1 0x2 ADD PUSH1 0x0 DUP11 PUSH20 0xFFFFFFFFFFFFFFFFFFFFFFFFFFFFFFFFFFFFFFFF AND PUSH20 0xFFFFFFFFFFFFFFFFFFFFFFFFFFFFFFFFFFFFFFFF AND DUP2 MSTORE PUSH1 0x20 ADD SWAP1 DUP2 MSTORE PUSH1 0x20 ADD PUSH1 0x0 KECCAK256 PUSH1 0x0 DUP3 DUP3 SLOAD PUSH2 0xF0A SWAP2 SWAP1 PUSH2 0x4532 JUMP JUMPDEST SWAP3 POP POP DUP2 SWAP1 SSTORE POP PUSH1 0x1 SWAP2 POP PUSH2 0xF2D JUMP JUMPDEST DUP1 DUP1 PUSH2 0xF25 SWAP1 PUSH2 0x46DB JUMP JUMPDEST SWAP2 POP POP PUSH2 0xE15 JUMP JUMPDEST POP DUP1 PUSH2 0x1000 JUMPI DUP3 PUSH1 0x1 DUP2 PUSH1 0x1 DUP2 SLOAD ADD DUP1 DUP3 SSTORE DUP1 SWAP2 POP POP SUB SWAP1 PUSH1 0x0 MSTORE PUSH1 0x20 PUSH1 0x0 KECCAK256 SWAP1 POP POP PUSH1 0x0 DUP4 DUP4 DUP2 SLOAD DUP2 LT PUSH2 0xF65 JUMPI PUSH2 0xF64 PUSH2 0x47B1 JUMP JUMPDEST JUMPDEST SWAP1 PUSH1 0x0 MSTORE PUSH1 0x20 PUSH1 0x0 KECCAK256 SWAP1 PUSH1 0x3 MUL ADD SWAP1 POP CALLER DUP2 PUSH1 0x1 ADD PUSH1 0x0 PUSH2 0x100 EXP DUP2 SLOAD DUP2 PUSH20 0xFFFFFFFFFFFFFFFFFFFFFFFFFFFFFFFFFFFFFFFF MUL NOT AND SWAP1 DUP4 PUSH20 0xFFFFFFFFFFFFFFFFFFFFFFFFFFFFFFFFFFFFFFFF AND MUL OR SWAP1 SSTORE POP CALLVALUE DUP2 PUSH1 0x2 ADD PUSH1 0x0 DUP11 PUSH20 0xFFFFFFFFFFFFFFFFFFFFFFFFFFFFFFFFFFFFFFFF AND PUSH20 0xFFFFFFFFFFFFFFFFFFFFFFFFFFFFFFFFFFFFFFFF AND DUP2 MSTORE PUSH1 0x20 ADD SWAP1 DUP2 MSTORE PUSH1 0x20 ADD PUSH1 0x0 KECCAK256 DUP2 SWAP1 SSTORE POP POP JUMPDEST DUP5 DUP5 DUP2 SLOAD DUP2 LT PUSH2 0x1013 JUMPI PUSH2 0x1012 PUSH2 0x47B1 JUMP JUMPDEST JUMPDEST SWAP1 PUSH1 0x0 MSTORE PUSH1 0x20 PUSH1 0x0 KECCAK256 SWAP1 PUSH1 0x7 MUL ADD PUSH1 0x1 ADD SLOAD DUP6 DUP6 DUP2 SLOAD DUP2 LT PUSH2 0x1038 JUMPI PUSH2 0x1037 PUSH2 0x47B1 JUMP JUMPDEST JUMPDEST SWAP1 PUSH1 0x0 MSTORE PUSH1 0x20 PUSH1 0x0 KECCAK256 SWAP1 PUSH1 0x7 MUL ADD PUSH1 0x2 ADD SLOAD EQ ISZERO PUSH2 0x1117 JUMPI PUSH1 0x3 DUP6 DUP6 DUP2 SLOAD DUP2 LT PUSH2 0x1065 JUMPI PUSH2 0x1064 PUSH2 0x47B1 JUMP JUMPDEST JUMPDEST SWAP1 PUSH1 0x0 MSTORE PUSH1 0x20 PUSH1 0x0 KECCAK256 SWAP1 PUSH1 0x7 MUL ADD PUSH1 0x6 ADD PUSH1 0x0 PUSH2 0x100 EXP DUP2 SLOAD DUP2 PUSH1 0xFF MUL NOT AND SWAP1 DUP4 PUSH1 0x9 DUP2 GT ISZERO PUSH2 0x1098 JUMPI PUSH2 0x1097 PUSH2 0x4753 JUMP JUMPDEST JUMPDEST MUL OR SWAP1 SSTORE POP PUSH1 0x0 DUP6 DUP6 DUP2 SLOAD DUP2 LT PUSH2 0x10B2 JUMPI PUSH2 0x10B1 PUSH2 0x47B1 JUMP JUMPDEST JUMPDEST SWAP1 PUSH1 0x0 MSTORE PUSH1 0x20 PUSH1 0x0 KECCAK256 SWAP1 PUSH1 0x7 MUL ADD PUSH1 0x4 ADD PUSH1 0x14 PUSH2 0x100 EXP DUP2 SLOAD DUP2 PUSH1 0xFF MUL NOT AND SWAP1 DUP4 ISZERO ISZERO MUL OR SWAP1 SSTORE POP PUSH32 0xB0BD573BC922CD0BA3F1CC9AC05BC9C190A674FCF55C00D5B3CA04BE33EDBB31 DUP9 DUP9 PUSH1 0x3 PUSH1 0x40 MLOAD PUSH2 0x110E SWAP4 SWAP3 SWAP2 SWAP1 PUSH2 0x4187 JUMP JUMPDEST PUSH1 0x40 MLOAD DUP1 SWAP2 SUB SWAP1 LOG1 JUMPDEST POP POP POP PUSH2 0x115A JUMP JUMPDEST PUSH1 0x40 MLOAD PUSH32 0x8C379A000000000000000000000000000000000000000000000000000000000 DUP2 MSTORE PUSH1 0x4 ADD PUSH2 0x1151 SWAP1 PUSH2 0x43DC JUMP JUMPDEST PUSH1 0x40 MLOAD DUP1 SWAP2 SUB SWAP1 REVERT JUMPDEST PUSH1 0x1 SWAP3 POP PUSH2 0x1176 JUMP JUMPDEST DUP1 DUP1 PUSH2 0x116E SWAP1 PUSH2 0x46DB JUMP JUMPDEST SWAP2 POP POP PUSH2 0xBB1 JUMP JUMPDEST POP DUP2 PUSH2 0x11B7 JUMPI PUSH1 0x40 MLOAD PUSH32 0x8C379A000000000000000000000000000000000000000000000000000000000 DUP2 MSTORE PUSH1 0x4 ADD PUSH2 0x11AE SWAP1 PUSH2 0x437C JUMP JUMPDEST PUSH1 0x40 MLOAD DUP1 SWAP2 SUB SWAP1 REVERT JUMPDEST POP POP POP POP JUMP JUMPDEST PUSH1 0x60 PUSH1 0x0 PUSH1 0x3 PUSH1 0x0 DUP6 PUSH20 0xFFFFFFFFFFFFFFFFFFFFFFFFFFFFFFFFFFFFFFFF AND PUSH20 0xFFFFFFFFFFFFFFFFFFFFFFFFFFFFFFFFFFFFFFFF AND DUP2 MSTORE PUSH1 0x20 ADD SWAP1 DUP2 MSTORE PUSH1 0x20 ADD PUSH1 0x0 KECCAK256 SWAP1 POP PUSH1 0x0 DUP2 DUP1 SLOAD SWAP1 POP GT PUSH2 0x1249 JUMPI PUSH1 0x40 MLOAD PUSH32 0x8C379A000000000000000000000000000000000000000000000000000000000 DUP2 MSTORE PUSH1 0x4 ADD PUSH2 0x1240 SWAP1 PUSH2 0x431C JUMP JUMPDEST PUSH1 0x40 MLOAD DUP1 SWAP2 SUB SWAP1 REVERT JUMPDEST PUSH1 0x0 JUMPDEST DUP2 DUP1 SLOAD SWAP1 POP DUP2 LT ISZERO PUSH2 0x13DD JUMPI DUP4 PUSH20 0xFFFFFFFFFFFFFFFFFFFFFFFFFFFFFFFFFFFFFFFF AND DUP3 DUP3 DUP2 SLOAD DUP2 LT PUSH2 0x1282 JUMPI PUSH2 0x1281 PUSH2 0x47B1 JUMP JUMPDEST JUMPDEST SWAP1 PUSH1 0x0 MSTORE PUSH1 0x20 PUSH1 0x0 KECCAK256 SWAP1 PUSH1 0x7 MUL ADD PUSH1 0x3 ADD PUSH1 0x0 SWAP1 SLOAD SWAP1 PUSH2 0x100 EXP SWAP1 DIV PUSH20 0xFFFFFFFFFFFFFFFFFFFFFFFFFFFFFFFFFFFFFFFF AND PUSH20 0xFFFFFFFFFFFFFFFFFFFFFFFFFFFFFFFFFFFFFFFF AND EQ ISZERO PUSH2 0x13CA JUMPI PUSH1 0x6 PUSH1 0x0 DUP4 DUP4 DUP2 SLOAD DUP2 LT PUSH2 0x12E7 JUMPI PUSH2 0x12E6 PUSH2 0x47B1 JUMP JUMPDEST JUMPDEST SWAP1 PUSH1 0x0 MSTORE PUSH1 0x20 PUSH1 0x0 KECCAK256 SWAP1 PUSH1 0x7 MUL ADD PUSH1 0x6 ADD PUSH1 0x0 SWAP1 SLOAD SWAP1 PUSH2 0x100 EXP SWAP1 DIV PUSH1 0xFF AND PUSH1 0x9 DUP2 GT ISZERO PUSH2 0x1318 JUMPI PUSH2 0x1317 PUSH2 0x4753 JUMP JUMPDEST JUMPDEST PUSH1 0x9 DUP2 GT ISZERO PUSH2 0x132A JUMPI PUSH2 0x1329 PUSH2 0x4753 JUMP JUMPDEST JUMPDEST DUP2 MSTORE PUSH1 0x20 ADD SWAP1 DUP2 MSTORE PUSH1 0x20 ADD PUSH1 0x0 KECCAK256 DUP1 SLOAD PUSH2 0x1343 SWAP1 PUSH2 0x4678 JUMP JUMPDEST DUP1 PUSH1 0x1F ADD PUSH1 0x20 DUP1 SWAP2 DIV MUL PUSH1 0x20 ADD PUSH1 0x40 MLOAD SWAP1 DUP2 ADD PUSH1 0x40 MSTORE DUP1 SWAP3 SWAP2 SWAP1 DUP2 DUP2 MSTORE PUSH1 0x20 ADD DUP3 DUP1 SLOAD PUSH2 0x136F SWAP1 PUSH2 0x4678 JUMP JUMPDEST DUP1 ISZERO PUSH2 0x13BC JUMPI DUP1 PUSH1 0x1F LT PUSH2 0x1391 JUMPI PUSH2 0x100 DUP1 DUP4 SLOAD DIV MUL DUP4 MSTORE SWAP2 PUSH1 0x20 ADD SWAP2 PUSH2 0x13BC JUMP JUMPDEST DUP3 ADD SWAP2 SWAP1 PUSH1 0x0 MSTORE PUSH1 0x20 PUSH1 0x0 KECCAK256 SWAP1 JUMPDEST DUP2 SLOAD DUP2 MSTORE SWAP1 PUSH1 0x1 ADD SWAP1 PUSH1 0x20 ADD DUP1 DUP4 GT PUSH2 0x139F JUMPI DUP3 SWAP1 SUB PUSH1 0x1F AND DUP3 ADD SWAP2 JUMPDEST POP POP POP POP POP SWAP3 POP POP POP PUSH2 0x1419 JUMP JUMPDEST DUP1 DUP1 PUSH2 0x13D5 SWAP1 PUSH2 0x46DB JUMP JUMPDEST SWAP2 POP POP PUSH2 0x124C JUMP JUMPDEST POP PUSH1 0x40 MLOAD PUSH32 0x8C379A000000000000000000000000000000000000000000000000000000000 DUP2 MSTORE PUSH1 0x4 ADD PUSH2 0x1410 SWAP1 PUSH2 0x437C JUMP JUMPDEST PUSH1 0x40 MLOAD DUP1 SWAP2 SUB SWAP1 REVERT JUMPDEST SWAP3 SWAP2 POP POP JUMP JUMPDEST PUSH1 0x2 PUSH1 0x0 SWAP1 SLOAD SWAP1 PUSH2 0x100 EXP SWAP1 DIV PUSH20 0xFFFFFFFFFFFFFFFFFFFFFFFFFFFFFFFFFFFFFFFF AND PUSH20 0xFFFFFFFFFFFFFFFFFFFFFFFFFFFFFFFFFFFFFFFF AND CALLER PUSH20 0xFFFFFFFFFFFFFFFFFFFFFFFFFFFFFFFFFFFFFFFF AND EQ PUSH1 0x40 MLOAD DUP1 PUSH1 0x60 ADD PUSH1 0x40 MSTORE DUP1 PUSH1 0x33 DUP2 MSTORE PUSH1 0x20 ADD PUSH2 0x4C92 PUSH1 0x33 SWAP2 CODECOPY SWAP1 PUSH2 0x14CA JUMPI PUSH1 0x40 MLOAD PUSH32 0x8C379A000000000000000000000000000000000000000000000000000000000 DUP2 MSTORE PUSH1 0x4 ADD PUSH2 0x14C1 SWAP2 SWAP1 PUSH2 0x423A JUMP JUMPDEST PUSH1 0x40 MLOAD DUP1 SWAP2 SUB SWAP1 REVERT JUMPDEST POP PUSH1 0x0 PUSH1 0x9 DUP2 GT ISZERO PUSH2 0x14DF JUMPI PUSH2 0x14DE PUSH2 0x4753 JUMP JUMPDEST JUMPDEST DUP2 PUSH1 0xFF AND PUSH1 0x9 DUP2 GT ISZERO PUSH2 0x14F5 JUMPI PUSH2 0x14F4 PUSH2 0x4753 JUMP JUMPDEST JUMPDEST PUSH1 0x9 DUP2 GT ISZERO PUSH2 0x1507 JUMPI PUSH2 0x1506 PUSH2 0x4753 JUMP JUMPDEST JUMPDEST EQ ISZERO PUSH1 0x40 MLOAD DUP1 PUSH1 0x60 ADD PUSH1 0x40 MSTORE DUP1 PUSH1 0x31 DUP2 MSTORE PUSH1 0x20 ADD PUSH2 0x4CC5 PUSH1 0x31 SWAP2 CODECOPY SWAP1 PUSH2 0x1563 JUMPI PUSH1 0x40 MLOAD PUSH32 0x8C379A000000000000000000000000000000000000000000000000000000000 DUP2 MSTORE PUSH1 0x4 ADD PUSH2 0x155A SWAP2 SWAP1 PUSH2 0x423A JUMP JUMPDEST PUSH1 0x40 MLOAD DUP1 SWAP2 SUB SWAP1 REVERT JUMPDEST POP PUSH1 0x2 PUSH1 0x9 DUP2 GT ISZERO PUSH2 0x1578 JUMPI PUSH2 0x1577 PUSH2 0x4753 JUMP JUMPDEST JUMPDEST DUP2 PUSH1 0xFF AND PUSH1 0x9 DUP2 GT ISZERO PUSH2 0x158E JUMPI PUSH2 0x158D PUSH2 0x4753 JUMP JUMPDEST JUMPDEST PUSH1 0x9 DUP2 GT ISZERO PUSH2 0x15A0 JUMPI PUSH2 0x159F PUSH2 0x4753 JUMP JUMPDEST JUMPDEST EQ ISZERO PUSH1 0x40 MLOAD DUP1 PUSH1 0x60 ADD PUSH1 0x40 MSTORE DUP1 PUSH1 0x31 DUP2 MSTORE PUSH1 0x20 ADD PUSH2 0x4CC5 PUSH1 0x31 SWAP2 CODECOPY SWAP1 PUSH2 0x15FC JUMPI PUSH1 0x40 MLOAD PUSH32 0x8C379A000000000000000000000000000000000000000000000000000000000 DUP2 MSTORE PUSH1 0x4 ADD PUSH2 0x15F3 SWAP2 SWAP1 PUSH2 0x423A JUMP JUMPDEST PUSH1 0x40 MLOAD DUP1 SWAP2 SUB SWAP1 REVERT JUMPDEST POP PUSH1 0x3 PUSH1 0x9 DUP2 GT ISZERO PUSH2 0x1611 JUMPI PUSH2 0x1610 PUSH2 0x4753 JUMP JUMPDEST JUMPDEST DUP2 PUSH1 0xFF AND PUSH1 0x9 DUP2 GT ISZERO PUSH2 0x1627 JUMPI PUSH2 0x1626 PUSH2 0x4753 JUMP JUMPDEST JUMPDEST PUSH1 0x9 DUP2 GT ISZERO PUSH2 0x1639 JUMPI PUSH2 0x1638 PUSH2 0x4753 JUMP JUMPDEST JUMPDEST EQ ISZERO PUSH1 0x40 MLOAD DUP1 PUSH1 0x60 ADD PUSH1 0x40 MSTORE DUP1 PUSH1 0x31 DUP2 MSTORE PUSH1 0x20 ADD PUSH2 0x4CC5 PUSH1 0x31 SWAP2 CODECOPY SWAP1 PUSH2 0x1695 JUMPI PUSH1 0x40 MLOAD PUSH32 0x8C379A000000000000000000000000000000000000000000000000000000000 DUP2 MSTORE PUSH1 0x4 ADD PUSH2 0x168C SWAP2 SWAP1 PUSH2 0x423A JUMP JUMPDEST PUSH1 0x40 MLOAD DUP1 SWAP2 SUB SWAP1 REVERT JUMPDEST POP PUSH1 0x4 PUSH1 0x9 DUP2 GT ISZERO PUSH2 0x16AA JUMPI PUSH2 0x16A9 PUSH2 0x4753 JUMP JUMPDEST JUMPDEST DUP2 PUSH1 0xFF AND PUSH1 0x9 DUP2 GT ISZERO PUSH2 0x16C0 JUMPI PUSH2 0x16BF PUSH2 0x4753 JUMP JUMPDEST JUMPDEST PUSH1 0x9 DUP2 GT ISZERO PUSH2 0x16D2 JUMPI PUSH2 0x16D1 PUSH2 0x4753 JUMP JUMPDEST JUMPDEST EQ ISZERO PUSH1 0x40 MLOAD DUP1 PUSH1 0x60 ADD PUSH1 0x40 MSTORE DUP1 PUSH1 0x31 DUP2 MSTORE PUSH1 0x20 ADD PUSH2 0x4CC5 PUSH1 0x31 SWAP2 CODECOPY SWAP1 PUSH2 0x172E JUMPI PUSH1 0x40 MLOAD PUSH32 0x8C379A000000000000000000000000000000000000000000000000000000000 DUP2 MSTORE PUSH1 0x4 ADD PUSH2 0x1725 SWAP2 SWAP1 PUSH2 0x423A JUMP JUMPDEST PUSH1 0x40 MLOAD DUP1 SWAP2 SUB SWAP1 REVERT JUMPDEST POP PUSH1 0x0 PUSH1 0x3 PUSH1 0x0 DUP6 PUSH20 0xFFFFFFFFFFFFFFFFFFFFFFFFFFFFFFFFFFFFFFFF AND PUSH20 0xFFFFFFFFFFFFFFFFFFFFFFFFFFFFFFFFFFFFFFFF AND DUP2 MSTORE PUSH1 0x20 ADD SWAP1 DUP2 MSTORE PUSH1 0x20 ADD PUSH1 0x0 KECCAK256 SWAP1 POP PUSH1 0x0 DUP2 DUP1 SLOAD SWAP1 POP GT PUSH2 0x17B9 JUMPI PUSH1 0x40 MLOAD PUSH32 0x8C379A000000000000000000000000000000000000000000000000000000000 DUP2 MSTORE PUSH1 0x4 ADD PUSH2 0x17B0 SWAP1 PUSH2 0x431C JUMP JUMPDEST PUSH1 0x40 MLOAD DUP1 SWAP2 SUB SWAP1 REVERT JUMPDEST PUSH1 0x0 JUMPDEST DUP2 DUP1 SLOAD SWAP1 POP DUP2 LT ISZERO PUSH2 0x1925 JUMPI DUP4 PUSH20 0xFFFFFFFFFFFFFFFFFFFFFFFFFFFFFFFFFFFFFFFF AND DUP3 DUP3 DUP2 SLOAD DUP2 LT PUSH2 0x17F2 JUMPI PUSH2 0x17F1 PUSH2 0x47B1 JUMP JUMPDEST JUMPDEST SWAP1 PUSH1 0x0 MSTORE PUSH1 0x20 PUSH1 0x0 KECCAK256 SWAP1 PUSH1 0x7 MUL ADD PUSH1 0x3 ADD PUSH1 0x0 SWAP1 SLOAD SWAP1 PUSH2 0x100 EXP SWAP1 DIV PUSH20 0xFFFFFFFFFFFFFFFFFFFFFFFFFFFFFFFFFFFFFFFF AND PUSH20 0xFFFFFFFFFFFFFFFFFFFFFFFFFFFFFFFFFFFFFFFF AND EQ ISZERO PUSH2 0x1912 JUMPI DUP3 PUSH1 0xFF AND PUSH1 0x9 DUP2 GT ISZERO PUSH2 0x1856 JUMPI PUSH2 0x1855 PUSH2 0x4753 JUMP JUMPDEST JUMPDEST DUP3 DUP3 DUP2 SLOAD DUP2 LT PUSH2 0x1869 JUMPI PUSH2 0x1868 PUSH2 0x47B1 JUMP JUMPDEST JUMPDEST SWAP1 PUSH1 0x0 MSTORE PUSH1 0x20 PUSH1 0x0 KECCAK256 SWAP1 PUSH1 0x7 MUL ADD PUSH1 0x6 ADD PUSH1 0x0 PUSH2 0x100 EXP DUP2 SLOAD DUP2 PUSH1 0xFF MUL NOT AND SWAP1 DUP4 PUSH1 0x9 DUP2 GT ISZERO PUSH2 0x189C JUMPI PUSH2 0x189B PUSH2 0x4753 JUMP JUMPDEST JUMPDEST MUL OR SWAP1 SSTORE POP PUSH32 0x688769ABFE11AE5D2B7C7147D2577650D89C7B5B4AE0583751850C28D5F4D397 DUP6 DUP6 DUP5 DUP5 DUP2 SLOAD DUP2 LT PUSH2 0x18D7 JUMPI PUSH2 0x18D6 PUSH2 0x47B1 JUMP JUMPDEST JUMPDEST SWAP1 PUSH1 0x0 MSTORE PUSH1 0x20 PUSH1 0x0 KECCAK256 SWAP1 PUSH1 0x7 MUL ADD PUSH1 0x6 ADD PUSH1 0x0 SWAP1 SLOAD SWAP1 PUSH2 0x100 EXP SWAP1 DIV PUSH1 0xFF AND PUSH1 0x40 MLOAD PUSH2 0x1905 SWAP4 SWAP3 SWAP2 SWAP1 PUSH2 0x4187 JUMP JUMPDEST PUSH1 0x40 MLOAD DUP1 SWAP2 SUB SWAP1 LOG1 PUSH2 0x1925 JUMP JUMPDEST DUP1 DUP1 PUSH2 0x191D SWAP1 PUSH2 0x46DB JUMP JUMPDEST SWAP2 POP POP PUSH2 0x17BC JUMP JUMPDEST POP POP POP POP POP JUMP JUMPDEST PUSH1 0x2 PUSH1 0x0 SWAP1 SLOAD SWAP1 PUSH2 0x100 EXP SWAP1 DIV PUSH20 0xFFFFFFFFFFFFFFFFFFFFFFFFFFFFFFFFFFFFFFFF AND PUSH20 0xFFFFFFFFFFFFFFFFFFFFFFFFFFFFFFFFFFFFFFFF AND CALLER PUSH20 0xFFFFFFFFFFFFFFFFFFFFFFFFFFFFFFFFFFFFFFFF AND EQ ISZERO PUSH1 0x40 MLOAD DUP1 PUSH1 0x60 ADD PUSH1 0x40 MSTORE DUP1 PUSH1 0x2F DUP2 MSTORE PUSH1 0x20 ADD PUSH2 0x4CF6 PUSH1 0x2F SWAP2 CODECOPY SWAP1 PUSH2 0x19D8 JUMPI PUSH1 0x40 MLOAD PUSH32 0x8C379A000000000000000000000000000000000000000000000000000000000 DUP2 MSTORE PUSH1 0x4 ADD PUSH2 0x19CF SWAP2 SWAP1 PUSH2 0x423A JUMP JUMPDEST PUSH1 0x40 MLOAD DUP1 SWAP2 SUB SWAP1 REVERT JUMPDEST POP CALLER PUSH20 0xFFFFFFFFFFFFFFFFFFFFFFFFFFFFFFFFFFFFFFFF AND PUSH1 0x1 PUSH1 0x0 CALLER PUSH20 0xFFFFFFFFFFFFFFFFFFFFFFFFFFFFFFFFFFFFFFFF AND PUSH20 0xFFFFFFFFFFFFFFFFFFFFFFFFFFFFFFFFFFFFFFFF AND DUP2 MSTORE PUSH1 0x20 ADD SWAP1 DUP2 MSTORE PUSH1 0x20 ADD PUSH1 0x0 KECCAK256 PUSH1 0x3 ADD PUSH1 0x0 SWAP1 SLOAD SWAP1 PUSH2 0x100 EXP SWAP1 DIV PUSH20 0xFFFFFFFFFFFFFFFFFFFFFFFFFFFFFFFFFFFFFFFF AND PUSH20 0xFFFFFFFFFFFFFFFFFFFFFFFFFFFFFFFFFFFFFFFF AND EQ PUSH2 0x1AA9 JUMPI PUSH1 0x40 MLOAD PUSH32 0x8C379A000000000000000000000000000000000000000000000000000000000 DUP2 MSTORE PUSH1 0x4 ADD PUSH2 0x1AA0 SWAP1 PUSH2 0x433C JUMP JUMPDEST PUSH1 0x40 MLOAD DUP1 SWAP2 SUB SWAP1 REVERT JUMPDEST PUSH1 0x1 PUSH1 0x0 CALLER PUSH20 0xFFFFFFFFFFFFFFFFFFFFFFFFFFFFFFFFFFFFFFFF AND PUSH20 0xFFFFFFFFFFFFFFFFFFFFFFFFFFFFFFFFFFFFFFFF AND DUP2 MSTORE PUSH1 0x20 ADD SWAP1 DUP2 MSTORE PUSH1 0x20 ADD PUSH1 0x0 KECCAK256 PUSH1 0x0 ADD PUSH1 0x0 SWAP1 SLOAD SWAP1 PUSH2 0x100 EXP SWAP1 DIV PUSH1 0xFF AND PUSH2 0x1B38 JUMPI PUSH1 0x40 MLOAD PUSH32 0x8C379A000000000000000000000000000000000000000000000000000000000 DUP2 MSTORE PUSH1 0x4 ADD PUSH2 0x1B2F SWAP1 PUSH2 0x439C JUMP JUMPDEST PUSH1 0x40 MLOAD DUP1 SWAP2 SUB SWAP1 REVERT JUMPDEST PUSH1 0x0 PUSH1 0x40 MLOAD DUP1 PUSH2 0x100 ADD PUSH1 0x40 MSTORE DUP1 DUP7 DUP2 MSTORE PUSH1 0x20 ADD DUP6 DUP2 MSTORE PUSH1 0x20 ADD PUSH1 0x0 DUP2 MSTORE PUSH1 0x20 ADD DUP5 PUSH20 0xFFFFFFFFFFFFFFFFFFFFFFFFFFFFFFFFFFFFFFFF AND DUP2 MSTORE PUSH1 0x20 ADD CALLER PUSH20 0xFFFFFFFFFFFFFFFFFFFFFFFFFFFFFFFFFFFFFFFF AND DUP2 MSTORE PUSH1 0x20 ADD PUSH1 0x0 ISZERO ISZERO DUP2 MSTORE PUSH1 0x20 ADD DUP4 DUP2 MSTORE PUSH1 0x20 ADD PUSH1 0x0 PUSH1 0x9 DUP2 GT ISZERO PUSH2 0x1BB4 JUMPI PUSH2 0x1BB3 PUSH2 0x4753 JUMP JUMPDEST JUMPDEST DUP2 MSTORE POP SWAP1 POP DUP1 PUSH1 0x0 DUP1 DUP6 PUSH20 0xFFFFFFFFFFFFFFFFFFFFFFFFFFFFFFFFFFFFFFFF AND PUSH20 0xFFFFFFFFFFFFFFFFFFFFFFFFFFFFFFFFFFFFFFFF AND DUP2 MSTORE PUSH1 0x20 ADD SWAP1 DUP2 MSTORE PUSH1 0x20 ADD PUSH1 0x0 KECCAK256 PUSH1 0x0 DUP3 ADD MLOAD DUP2 PUSH1 0x0 ADD SSTORE PUSH1 0x20 DUP3 ADD MLOAD DUP2 PUSH1 0x1 ADD SSTORE PUSH1 0x40 DUP3 ADD MLOAD DUP2 PUSH1 0x2 ADD SSTORE PUSH1 0x60 DUP3 ADD MLOAD DUP2 PUSH1 0x3 ADD PUSH1 0x0 PUSH2 0x100 EXP DUP2 SLOAD DUP2 PUSH20 0xFFFFFFFFFFFFFFFFFFFFFFFFFFFFFFFFFFFFFFFF MUL NOT AND SWAP1 DUP4 PUSH20 0xFFFFFFFFFFFFFFFFFFFFFFFFFFFFFFFFFFFFFFFF AND MUL OR SWAP1 SSTORE POP PUSH1 0x80 DUP3 ADD MLOAD DUP2 PUSH1 0x4 ADD PUSH1 0x0 PUSH2 0x100 EXP DUP2 SLOAD DUP2 PUSH20 0xFFFFFFFFFFFFFFFFFFFFFFFFFFFFFFFFFFFFFFFF MUL NOT AND SWAP1 DUP4 PUSH20 0xFFFFFFFFFFFFFFFFFFFFFFFFFFFFFFFFFFFFFFFF AND MUL OR SWAP1 SSTORE POP PUSH1 0xA0 DUP3 ADD MLOAD DUP2 PUSH1 0x4 ADD PUSH1 0x14 PUSH2 0x100 EXP DUP2 SLOAD DUP2 PUSH1 0xFF MUL NOT AND SWAP1 DUP4 ISZERO ISZERO MUL OR SWAP1 SSTORE POP PUSH1 0xC0 DUP3 ADD MLOAD DUP2 PUSH1 0x5 ADD SWAP1 DUP1 MLOAD SWAP1 PUSH1 0x20 ADD SWAP1 PUSH2 0x1CE0 SWAP3 SWAP2 SWAP1 PUSH2 0x39EB JUMP JUMPDEST POP PUSH1 0xE0 DUP3 ADD MLOAD DUP2 PUSH1 0x6 ADD PUSH1 0x0 PUSH2 0x100 EXP DUP2 SLOAD DUP2 PUSH1 0xFF MUL NOT AND SWAP1 DUP4 PUSH1 0x9 DUP2 GT ISZERO PUSH2 0x1D0C JUMPI PUSH2 0x1D0B PUSH2 0x4753 JUMP JUMPDEST JUMPDEST MUL OR SWAP1 SSTORE POP SWAP1 POP POP PUSH1 0x3 PUSH1 0x0 CALLER PUSH20 0xFFFFFFFFFFFFFFFFFFFFFFFFFFFFFFFFFFFFFFFF AND PUSH20 0xFFFFFFFFFFFFFFFFFFFFFFFFFFFFFFFFFFFFFFFF AND DUP2 MSTORE PUSH1 0x20 ADD SWAP1 DUP2 MSTORE PUSH1 0x20 ADD PUSH1 0x0 KECCAK256 DUP2 SWAP1 DUP1 PUSH1 0x1 DUP2 SLOAD ADD DUP1 DUP3 SSTORE DUP1 SWAP2 POP POP PUSH1 0x1 SWAP1 SUB SWAP1 PUSH1 0x0 MSTORE PUSH1 0x20 PUSH1 0x0 KECCAK256 SWAP1 PUSH1 0x7 MUL ADD PUSH1 0x0 SWAP1 SWAP2 SWAP1 SWAP2 SWAP1 SWAP2 POP PUSH1 0x0 DUP3 ADD MLOAD DUP2 PUSH1 0x0 ADD SSTORE PUSH1 0x20 DUP3 ADD MLOAD DUP2 PUSH1 0x1 ADD SSTORE PUSH1 0x40 DUP3 ADD MLOAD DUP2 PUSH1 0x2 ADD SSTORE PUSH1 0x60 DUP3 ADD MLOAD DUP2 PUSH1 0x3 ADD PUSH1 0x0 PUSH2 0x100 EXP DUP2 SLOAD DUP2 PUSH20 0xFFFFFFFFFFFFFFFFFFFFFFFFFFFFFFFFFFFFFFFF MUL NOT AND SWAP1 DUP4 PUSH20 0xFFFFFFFFFFFFFFFFFFFFFFFFFFFFFFFFFFFFFFFF AND MUL OR SWAP1 SSTORE POP PUSH1 0x80 DUP3 ADD MLOAD DUP2 PUSH1 0x4 ADD PUSH1 0x0 PUSH2 0x100 EXP DUP2 SLOAD DUP2 PUSH20 0xFFFFFFFFFFFFFFFFFFFFFFFFFFFFFFFFFFFFFFFF MUL NOT AND SWAP1 DUP4 PUSH20 0xFFFFFFFFFFFFFFFFFFFFFFFFFFFFFFFFFFFFFFFF AND MUL OR SWAP1 SSTORE POP PUSH1 0xA0 DUP3 ADD MLOAD DUP2 PUSH1 0x4 ADD PUSH1 0x14 PUSH2 0x100 EXP DUP2 SLOAD DUP2 PUSH1 0xFF MUL NOT AND SWAP1 DUP4 ISZERO ISZERO MUL OR SWAP1 SSTORE POP PUSH1 0xC0 DUP3 ADD MLOAD DUP2 PUSH1 0x5 ADD SWAP1 DUP1 MLOAD SWAP1 PUSH1 0x20 ADD SWAP1 PUSH2 0x1E65 SWAP3 SWAP2 SWAP1 PUSH2 0x39EB JUMP JUMPDEST POP PUSH1 0xE0 DUP3 ADD MLOAD DUP2 PUSH1 0x6 ADD PUSH1 0x0 PUSH2 0x100 EXP DUP2 SLOAD DUP2 PUSH1 0xFF MUL NOT AND SWAP1 DUP4 PUSH1 0x9 DUP2 GT ISZERO PUSH2 0x1E91 JUMPI PUSH2 0x1E90 PUSH2 0x4753 JUMP JUMPDEST JUMPDEST MUL OR SWAP1 SSTORE POP POP POP POP POP POP POP POP JUMP JUMPDEST PUSH1 0x2 PUSH1 0x0 SWAP1 SLOAD SWAP1 PUSH2 0x100 EXP SWAP1 DIV PUSH20 0xFFFFFFFFFFFFFFFFFFFFFFFFFFFFFFFFFFFFFFFF AND PUSH20 0xFFFFFFFFFFFFFFFFFFFFFFFFFFFFFFFFFFFFFFFF AND CALLER PUSH20 0xFFFFFFFFFFFFFFFFFFFFFFFFFFFFFFFFFFFFFFFF AND EQ PUSH1 0x40 MLOAD DUP1 PUSH1 0x60 ADD PUSH1 0x40 MSTORE DUP1 PUSH1 0x33 DUP2 MSTORE PUSH1 0x20 ADD PUSH2 0x4C92 PUSH1 0x33 SWAP2 CODECOPY SWAP1 PUSH2 0x1F4A JUMPI PUSH1 0x40 MLOAD PUSH32 0x8C379A000000000000000000000000000000000000000000000000000000000 DUP2 MSTORE PUSH1 0x4 ADD PUSH2 0x1F41 SWAP2 SWAP1 PUSH2 0x423A JUMP JUMPDEST PUSH1 0x40 MLOAD DUP1 SWAP2 SUB SWAP1 REVERT JUMPDEST POP PUSH1 0x0 PUSH1 0x40 MLOAD DUP1 PUSH1 0x80 ADD PUSH1 0x40 MSTORE DUP1 PUSH1 0x0 ISZERO ISZERO DUP2 MSTORE PUSH1 0x20 ADD PUSH1 0x40 MLOAD DUP1 PUSH1 0x20 ADD PUSH1 0x40 MSTORE DUP1 PUSH1 0x0 DUP2 MSTORE POP DUP2 MSTORE PUSH1 0x20 ADD DUP5 DUP2 MSTORE PUSH1 0x20 ADD DUP4 PUSH20 0xFFFFFFFFFFFFFFFFFFFFFFFFFFFFFFFFFFFFFFFF AND DUP2 MSTORE POP SWAP1 POP DUP1 PUSH1 0x1 PUSH1 0x0 DUP5 PUSH20 0xFFFFFFFFFFFFFFFFFFFFFFFFFFFFFFFFFFFFFFFF AND PUSH20 0xFFFFFFFFFFFFFFFFFFFFFFFFFFFFFFFFFFFFFFFF AND DUP2 MSTORE PUSH1 0x20 ADD SWAP1 DUP2 MSTORE PUSH1 0x20 ADD PUSH1 0x0 KECCAK256 PUSH1 0x0 DUP3 ADD MLOAD DUP2 PUSH1 0x0 ADD PUSH1 0x0 PUSH2 0x100 EXP DUP2 SLOAD DUP2 PUSH1 0xFF MUL NOT AND SWAP1 DUP4 ISZERO ISZERO MUL OR SWAP1 SSTORE POP PUSH1 0x20 DUP3 ADD MLOAD DUP2 PUSH1 0x1 ADD SWAP1 DUP1 MLOAD SWAP1 PUSH1 0x20 ADD SWAP1 PUSH2 0x2014 SWAP3 SWAP2 SWAP1 PUSH2 0x39EB JUMP JUMPDEST POP PUSH1 0x40 DUP3 ADD MLOAD DUP2 PUSH1 0x2 ADD SWAP1 DUP1 MLOAD SWAP1 PUSH1 0x20 ADD SWAP1 PUSH2 0x2031 SWAP3 SWAP2 SWAP1 PUSH2 0x39EB JUMP JUMPDEST POP PUSH1 0x60 DUP3 ADD MLOAD DUP2 PUSH1 0x3 ADD PUSH1 0x0 PUSH2 0x100 EXP DUP2 SLOAD DUP2 PUSH20 0xFFFFFFFFFFFFFFFFFFFFFFFFFFFFFFFFFFFFFFFF MUL NOT AND SWAP1 DUP4 PUSH20 0xFFFFFFFFFFFFFFFFFFFFFFFFFFFFFFFFFFFFFFFF AND MUL OR SWAP1 SSTORE POP SWAP1 POP POP POP POP POP JUMP JUMPDEST PUSH1 0x0 DUP1 PUSH1 0x3 PUSH1 0x0 DUP6 PUSH20 0xFFFFFFFFFFFFFFFFFFFFFFFFFFFFFFFFFFFFFFFF AND PUSH20 0xFFFFFFFFFFFFFFFFFFFFFFFFFFFFFFFFFFFFFFFF AND DUP2 MSTORE PUSH1 0x20 ADD SWAP1 DUP2 MSTORE PUSH1 0x20 ADD PUSH1 0x0 KECCAK256 SWAP1 POP PUSH1 0x0 DUP2 DUP1 SLOAD SWAP1 POP GT PUSH2 0x210C JUMPI PUSH1 0x40 MLOAD PUSH32 0x8C379A000000000000000000000000000000000000000000000000000000000 DUP2 MSTORE PUSH1 0x4 ADD PUSH2 0x2103 SWAP1 PUSH2 0x431C JUMP JUMPDEST PUSH1 0x40 MLOAD DUP1 SWAP2 SUB SWAP1 REVERT JUMPDEST PUSH1 0x0 DUP1 JUMPDEST DUP3 DUP1 SLOAD SWAP1 POP DUP2 LT ISZERO PUSH2 0x220A JUMPI DUP5 PUSH20 0xFFFFFFFFFFFFFFFFFFFFFFFFFFFFFFFFFFFFFFFF AND DUP4 DUP3 DUP2 SLOAD DUP2 LT PUSH2 0x2146 JUMPI PUSH2 0x2145 PUSH2 0x47B1 JUMP JUMPDEST JUMPDEST SWAP1 PUSH1 0x0 MSTORE PUSH1 0x20 PUSH1 0x0 KECCAK256 SWAP1 PUSH1 0x7 MUL ADD PUSH1 0x3 ADD PUSH1 0x0 SWAP1 SLOAD SWAP1 PUSH2 0x100 EXP SWAP1 DIV PUSH20 0xFFFFFFFFFFFFFFFFFFFFFFFFFFFFFFFFFFFFFFFF AND PUSH20 0xFFFFFFFFFFFFFFFFFFFFFFFFFFFFFFFFFFFFFFFF AND EQ ISZERO PUSH2 0x21F7 JUMPI DUP3 DUP2 DUP2 SLOAD DUP2 LT PUSH2 0x21A7 JUMPI PUSH2 0x21A6 PUSH2 0x47B1 JUMP JUMPDEST JUMPDEST SWAP1 PUSH1 0x0 MSTORE PUSH1 0x20 PUSH1 0x0 KECCAK256 SWAP1 PUSH1 0x7 MUL ADD PUSH1 0x3 ADD PUSH1 0x0 SWAP1 SLOAD SWAP1 PUSH2 0x100 EXP SWAP1 DIV PUSH20 0xFFFFFFFFFFFFFFFFFFFFFFFFFFFFFFFFFFFFFFFF AND PUSH20 0xFFFFFFFFFFFFFFFFFFFFFFFFFFFFFFFFFFFFFFFF AND BALANCE SWAP2 POP PUSH2 0x220A JUMP JUMPDEST DUP1 DUP1 PUSH2 0x2202 SWAP1 PUSH2 0x46DB JUMP JUMPDEST SWAP2 POP POP PUSH2 0x2110 JUMP JUMPDEST POP DUP1 SWAP3 POP POP POP SWAP3 SWAP2 POP POP JUMP JUMPDEST PUSH1 0x0 DUP1 PUSH1 0x0 PUSH1 0x3 PUSH1 0x0 DUP7 PUSH20 0xFFFFFFFFFFFFFFFFFFFFFFFFFFFFFFFFFFFFFFFF AND PUSH20 0xFFFFFFFFFFFFFFFFFFFFFFFFFFFFFFFFFFFFFFFF AND DUP2 MSTORE PUSH1 0x20 ADD SWAP1 DUP2 MSTORE PUSH1 0x20 ADD PUSH1 0x0 KECCAK256 SWAP1 POP PUSH1 0x0 DUP2 DUP1 SLOAD SWAP1 POP GT PUSH2 0x22A3 JUMPI PUSH1 0x40 MLOAD PUSH32 0x8C379A000000000000000000000000000000000000000000000000000000000 DUP2 MSTORE PUSH1 0x4 ADD PUSH2 0x229A SWAP1 PUSH2 0x431C JUMP JUMPDEST PUSH1 0x40 MLOAD DUP1 SWAP2 SUB SWAP1 REVERT JUMPDEST PUSH1 0x0 PUSH1 0x4 PUSH1 0x0 DUP7 PUSH20 0xFFFFFFFFFFFFFFFFFFFFFFFFFFFFFFFFFFFFFFFF AND PUSH20 0xFFFFFFFFFFFFFFFFFFFFFFFFFFFFFFFFFFFFFFFF AND DUP2 MSTORE PUSH1 0x20 ADD SWAP1 DUP2 MSTORE PUSH1 0x20 ADD PUSH1 0x0 KECCAK256 SWAP1 POP PUSH1 0x0 JUMPDEST DUP2 DUP1 SLOAD SWAP1 POP DUP2 LT ISZERO PUSH2 0x289B JUMPI CALLER PUSH20 0xFFFFFFFFFFFFFFFFFFFFFFFFFFFFFFFFFFFFFFFF AND DUP3 DUP3 DUP2 SLOAD DUP2 LT PUSH2 0x231F JUMPI PUSH2 0x231E PUSH2 0x47B1 JUMP JUMPDEST JUMPDEST SWAP1 PUSH1 0x0 MSTORE PUSH1 0x20 PUSH1 0x0 KECCAK256 SWAP1 PUSH1 0x3 MUL ADD PUSH1 0x1 ADD PUSH1 0x0 SWAP1 SLOAD SWAP1 PUSH2 0x100 EXP SWAP1 DIV PUSH20 0xFFFFFFFFFFFFFFFFFFFFFFFFFFFFFFFFFFFFFFFF AND PUSH20 0xFFFFFFFFFFFFFFFFFFFFFFFFFFFFFFFFFFFFFFFF AND EQ DUP1 ISZERO PUSH2 0x23D5 JUMPI POP PUSH1 0x0 DUP3 DUP3 DUP2 SLOAD DUP2 LT PUSH2 0x2384 JUMPI PUSH2 0x2383 PUSH2 0x47B1 JUMP JUMPDEST JUMPDEST SWAP1 PUSH1 0x0 MSTORE PUSH1 0x20 PUSH1 0x0 KECCAK256 SWAP1 PUSH1 0x3 MUL ADD PUSH1 0x2 ADD PUSH1 0x0 DUP9 PUSH20 0xFFFFFFFFFFFFFFFFFFFFFFFFFFFFFFFFFFFFFFFF AND PUSH20 0xFFFFFFFFFFFFFFFFFFFFFFFFFFFFFFFFFFFFFFFF AND DUP2 MSTORE PUSH1 0x20 ADD SWAP1 DUP2 MSTORE PUSH1 0x20 ADD PUSH1 0x0 KECCAK256 SLOAD GT JUMPDEST ISZERO PUSH2 0x2888 JUMPI PUSH1 0x0 JUMPDEST DUP4 DUP1 SLOAD SWAP1 POP DUP2 LT ISZERO PUSH2 0x272F JUMPI DUP7 PUSH20 0xFFFFFFFFFFFFFFFFFFFFFFFFFFFFFFFFFFFFFFFF AND DUP5 DUP3 DUP2 SLOAD DUP2 LT PUSH2 0x2413 JUMPI PUSH2 0x2412 PUSH2 0x47B1 JUMP JUMPDEST JUMPDEST SWAP1 PUSH1 0x0 MSTORE PUSH1 0x20 PUSH1 0x0 KECCAK256 SWAP1 PUSH1 0x7 MUL ADD PUSH1 0x3 ADD PUSH1 0x0 SWAP1 SLOAD SWAP1 PUSH2 0x100 EXP SWAP1 DIV PUSH20 0xFFFFFFFFFFFFFFFFFFFFFFFFFFFFFFFFFFFFFFFF AND PUSH20 0xFFFFFFFFFFFFFFFFFFFFFFFFFFFFFFFFFFFFFFFF AND EQ ISZERO PUSH2 0x271C JUMPI PUSH1 0x3 PUSH1 0x9 DUP2 GT ISZERO PUSH2 0x2475 JUMPI PUSH2 0x2474 PUSH2 0x4753 JUMP JUMPDEST JUMPDEST DUP5 DUP3 DUP2 SLOAD DUP2 LT PUSH2 0x2488 JUMPI PUSH2 0x2487 PUSH2 0x47B1 JUMP JUMPDEST JUMPDEST SWAP1 PUSH1 0x0 MSTORE PUSH1 0x20 PUSH1 0x0 KECCAK256 SWAP1 PUSH1 0x7 MUL ADD PUSH1 0x6 ADD PUSH1 0x0 SWAP1 SLOAD SWAP1 PUSH2 0x100 EXP SWAP1 DIV PUSH1 0xFF AND PUSH1 0x9 DUP2 GT ISZERO PUSH2 0x24B9 JUMPI PUSH2 0x24B8 PUSH2 0x4753 JUMP JUMPDEST JUMPDEST GT ISZERO PUSH2 0x24FA JUMPI PUSH1 0x40 MLOAD PUSH32 0x8C379A000000000000000000000000000000000000000000000000000000000 DUP2 MSTORE PUSH1 0x4 ADD PUSH2 0x24F1 SWAP1 PUSH2 0x42DC JUMP JUMPDEST PUSH1 0x40 MLOAD DUP1 SWAP2 SUB SWAP1 REVERT JUMPDEST DUP3 DUP3 DUP2 SLOAD DUP2 LT PUSH2 0x250D JUMPI PUSH2 0x250C PUSH2 0x47B1 JUMP JUMPDEST JUMPDEST SWAP1 PUSH1 0x0 MSTORE PUSH1 0x20 PUSH1 0x0 KECCAK256 SWAP1 PUSH1 0x3 MUL ADD PUSH1 0x2 ADD PUSH1 0x0 DUP9 PUSH20 0xFFFFFFFFFFFFFFFFFFFFFFFFFFFFFFFFFFFFFFFF AND PUSH20 0xFFFFFFFFFFFFFFFFFFFFFFFFFFFFFFFFFFFFFFFF AND DUP2 MSTORE PUSH1 0x20 ADD SWAP1 DUP2 MSTORE PUSH1 0x20 ADD PUSH1 0x0 KECCAK256 SLOAD DUP5 DUP3 DUP2 SLOAD DUP2 LT PUSH2 0x256F JUMPI PUSH2 0x256E PUSH2 0x47B1 JUMP JUMPDEST JUMPDEST SWAP1 PUSH1 0x0 MSTORE PUSH1 0x20 PUSH1 0x0 KECCAK256 SWAP1 PUSH1 0x7 MUL ADD PUSH1 0x2 ADD SLOAD PUSH2 0x258B SWAP2 SWAP1 PUSH2 0x4588 JUMP JUMPDEST DUP5 DUP3 DUP2 SLOAD DUP2 LT PUSH2 0x259E JUMPI PUSH2 0x259D PUSH2 0x47B1 JUMP JUMPDEST JUMPDEST SWAP1 PUSH1 0x0 MSTORE PUSH1 0x20 PUSH1 0x0 KECCAK256 SWAP1 PUSH1 0x7 MUL ADD PUSH1 0x2 ADD DUP2 SWAP1 SSTORE POP DUP3 DUP3 DUP2 SLOAD DUP2 LT PUSH2 0x25C6 JUMPI PUSH2 0x25C5 PUSH2 0x47B1 JUMP JUMPDEST JUMPDEST SWAP1 PUSH1 0x0 MSTORE PUSH1 0x20 PUSH1 0x0 KECCAK256 SWAP1 PUSH1 0x3 MUL ADD PUSH1 0x1 ADD PUSH1 0x0 SWAP1 SLOAD SWAP1 PUSH2 0x100 EXP SWAP1 DIV PUSH20 0xFFFFFFFFFFFFFFFFFFFFFFFFFFFFFFFFFFFFFFFF AND PUSH20 0xFFFFFFFFFFFFFFFFFFFFFFFFFFFFFFFFFFFFFFFF AND PUSH2 0x8FC DUP5 DUP5 DUP2 SLOAD DUP2 LT PUSH2 0x2624 JUMPI PUSH2 0x2623 PUSH2 0x47B1 JUMP JUMPDEST JUMPDEST SWAP1 PUSH1 0x0 MSTORE PUSH1 0x20 PUSH1 0x0 KECCAK256 SWAP1 PUSH1 0x3 MUL ADD PUSH1 0x2 ADD PUSH1 0x0 DUP11 PUSH20 0xFFFFFFFFFFFFFFFFFFFFFFFFFFFFFFFFFFFFFFFF AND PUSH20 0xFFFFFFFFFFFFFFFFFFFFFFFFFFFFFFFFFFFFFFFF AND DUP2 MSTORE PUSH1 0x20 ADD SWAP1 DUP2 MSTORE PUSH1 0x20 ADD PUSH1 0x0 KECCAK256 SLOAD SWAP1 DUP2 ISZERO MUL SWAP1 PUSH1 0x40 MLOAD PUSH1 0x0 PUSH1 0x40 MLOAD DUP1 DUP4 SUB DUP2 DUP6 DUP9 DUP9 CALL SWAP4 POP POP POP POP ISZERO DUP1 ISZERO PUSH2 0x269E JUMPI RETURNDATASIZE PUSH1 0x0 DUP1 RETURNDATACOPY RETURNDATASIZE PUSH1 0x0 REVERT JUMPDEST POP DUP4 DUP2 DUP2 SLOAD DUP2 LT PUSH2 0x26B2 JUMPI PUSH2 0x26B1 PUSH2 0x47B1 JUMP JUMPDEST JUMPDEST SWAP1 PUSH1 0x0 MSTORE PUSH1 0x20 PUSH1 0x0 KECCAK256 SWAP1 PUSH1 0x7 MUL ADD PUSH1 0x4 ADD PUSH1 0x14 SWAP1 SLOAD SWAP1 PUSH2 0x100 EXP SWAP1 DIV PUSH1 0xFF AND PUSH2 0x2713 JUMPI PUSH1 0x1 DUP5 DUP3 DUP2 SLOAD DUP2 LT PUSH2 0x26EA JUMPI PUSH2 0x26E9 PUSH2 0x47B1 JUMP JUMPDEST JUMPDEST SWAP1 PUSH1 0x0 MSTORE PUSH1 0x20 PUSH1 0x0 KECCAK256 SWAP1 PUSH1 0x7 MUL ADD PUSH1 0x4 ADD PUSH1 0x14 PUSH2 0x100 EXP DUP2 SLOAD DUP2 PUSH1 0xFF MUL NOT AND SWAP1 DUP4 ISZERO ISZERO MUL OR SWAP1 SSTORE POP JUMPDEST PUSH1 0x1 SWAP6 POP PUSH2 0x272F JUMP JUMPDEST DUP1 DUP1 PUSH2 0x2727 SWAP1 PUSH2 0x46DB JUMP JUMPDEST SWAP2 POP POP PUSH2 0x23DD JUMP JUMPDEST POP DUP5 PUSH2 0x2770 JUMPI PUSH1 0x40 MLOAD PUSH32 0x8C379A000000000000000000000000000000000000000000000000000000000 DUP2 MSTORE PUSH1 0x4 ADD PUSH2 0x2767 SWAP1 PUSH2 0x435C JUMP JUMPDEST PUSH1 0x40 MLOAD DUP1 SWAP2 SUB SWAP1 REVERT JUMPDEST CALLER PUSH20 0xFFFFFFFFFFFFFFFFFFFFFFFFFFFFFFFFFFFFFFFF AND PUSH2 0x8FC DUP4 DUP4 DUP2 SLOAD DUP2 LT PUSH2 0x279D JUMPI PUSH2 0x279C PUSH2 0x47B1 JUMP JUMPDEST JUMPDEST SWAP1 PUSH1 0x0 MSTORE PUSH1 0x20 PUSH1 0x0 KECCAK256 SWAP1 PUSH1 0x3 MUL ADD PUSH1 0x2 ADD PUSH1 0x0 DUP10 PUSH20 0xFFFFFFFFFFFFFFFFFFFFFFFFFFFFFFFFFFFFFFFF AND PUSH20 0xFFFFFFFFFFFFFFFFFFFFFFFFFFFFFFFFFFFFFFFF AND DUP2 MSTORE PUSH1 0x20 ADD SWAP1 DUP2 MSTORE PUSH1 0x20 ADD PUSH1 0x0 KECCAK256 SLOAD SWAP1 DUP2 ISZERO MUL SWAP1 PUSH1 0x40 MLOAD PUSH1 0x0 PUSH1 0x40 MLOAD DUP1 DUP4 SUB DUP2 DUP6 DUP9 DUP9 CALL SWAP4 POP POP POP POP ISZERO DUP1 ISZERO PUSH2 0x2817 JUMPI RETURNDATASIZE PUSH1 0x0 DUP1 RETURNDATACOPY RETURNDATASIZE PUSH1 0x0 REVERT JUMPDEST POP PUSH1 0x0 DUP3 DUP3 DUP2 SLOAD DUP2 LT PUSH2 0x282D JUMPI PUSH2 0x282C PUSH2 0x47B1 JUMP JUMPDEST JUMPDEST SWAP1 PUSH1 0x0 MSTORE PUSH1 0x20 PUSH1 0x0 KECCAK256 SWAP1 PUSH1 0x3 MUL ADD PUSH1 0x2 ADD PUSH1 0x0 DUP9 PUSH20 0xFFFFFFFFFFFFFFFFFFFFFFFFFFFFFFFFFFFFFFFF AND PUSH20 0xFFFFFFFFFFFFFFFFFFFFFFFFFFFFFFFFFFFFFFFF AND DUP2 MSTORE PUSH1 0x20 ADD SWAP1 DUP2 MSTORE PUSH1 0x20 ADD PUSH1 0x0 KECCAK256 DUP2 SWAP1 SSTORE POP PUSH1 0x1 SWAP4 POP PUSH2 0x289B JUMP JUMPDEST DUP1 DUP1 PUSH2 0x2893 SWAP1 PUSH2 0x46DB JUMP JUMPDEST SWAP2 POP POP PUSH2 0x22E9 JUMP JUMPDEST POP DUP3 PUSH2 0x28DC JUMPI PUSH1 0x40 MLOAD PUSH32 0x8C379A000000000000000000000000000000000000000000000000000000000 DUP2 MSTORE PUSH1 0x4 ADD PUSH2 0x28D3 SWAP1 PUSH2 0x429C JUMP JUMPDEST PUSH1 0x40 MLOAD DUP1 SWAP2 SUB SWAP1 REVERT JUMPDEST POP POP POP POP POP POP JUMP JUMPDEST PUSH1 0x2 PUSH1 0x0 SWAP1 SLOAD SWAP1 PUSH2 0x100 EXP SWAP1 DIV PUSH20 0xFFFFFFFFFFFFFFFFFFFFFFFFFFFFFFFFFFFFFFFF AND PUSH20 0xFFFFFFFFFFFFFFFFFFFFFFFFFFFFFFFFFFFFFFFF AND CALLER PUSH20 0xFFFFFFFFFFFFFFFFFFFFFFFFFFFFFFFFFFFFFFFF AND EQ PUSH1 0x40 MLOAD DUP1 PUSH1 0x60 ADD PUSH1 0x40 MSTORE DUP1 PUSH1 0x33 DUP2 MSTORE PUSH1 0x20 ADD PUSH2 0x4C92 PUSH1 0x33 SWAP2 CODECOPY SWAP1 PUSH2 0x298F JUMPI PUSH1 0x40 MLOAD PUSH32 0x8C379A000000000000000000000000000000000000000000000000000000000 DUP2 MSTORE PUSH1 0x4 ADD PUSH2 0x2986 SWAP2 SWAP1 PUSH2 0x423A JUMP JUMPDEST PUSH1 0x40 MLOAD DUP1 SWAP2 SUB SWAP1 REVERT JUMPDEST POP DUP3 PUSH20 0xFFFFFFFFFFFFFFFFFFFFFFFFFFFFFFFFFFFFFFFF AND PUSH1 0x1 PUSH1 0x0 DUP6 PUSH20 0xFFFFFFFFFFFFFFFFFFFFFFFFFFFFFFFFFFFFFFFF AND PUSH20 0xFFFFFFFFFFFFFFFFFFFFFFFFFFFFFFFFFFFFFFFF AND DUP2 MSTORE PUSH1 0x20 ADD SWAP1 DUP2 MSTORE PUSH1 0x20 ADD PUSH1 0x0 KECCAK256 PUSH1 0x3 ADD PUSH1 0x0 SWAP1 SLOAD SWAP1 PUSH2 0x100 EXP SWAP1 DIV PUSH20 0xFFFFFFFFFFFFFFFFFFFFFFFFFFFFFFFFFFFFFFFF AND PUSH20 0xFFFFFFFFFFFFFFFFFFFFFFFFFFFFFFFFFFFFFFFF AND EQ PUSH2 0x2A60 JUMPI PUSH1 0x40 MLOAD PUSH32 0x8C379A000000000000000000000000000000000000000000000000000000000 DUP2 MSTORE PUSH1 0x4 ADD PUSH2 0x2A57 SWAP1 PUSH2 0x433C JUMP JUMPDEST PUSH1 0x40 MLOAD DUP1 SWAP2 SUB SWAP1 REVERT JUMPDEST DUP2 PUSH1 0x1 PUSH1 0x0 DUP6 PUSH20 0xFFFFFFFFFFFFFFFFFFFFFFFFFFFFFFFFFFFFFFFF AND PUSH20 0xFFFFFFFFFFFFFFFFFFFFFFFFFFFFFFFFFFFFFFFF AND DUP2 MSTORE PUSH1 0x20 ADD SWAP1 DUP2 MSTORE PUSH1 0x20 ADD PUSH1 0x0 KECCAK256 PUSH1 0x0 ADD PUSH1 0x0 PUSH2 0x100 EXP DUP2 SLOAD DUP2 PUSH1 0xFF MUL NOT AND SWAP1 DUP4 ISZERO ISZERO MUL OR SWAP1 SSTORE POP DUP1 PUSH1 0x1 PUSH1 0x0 DUP6 PUSH20 0xFFFFFFFFFFFFFFFFFFFFFFFFFFFFFFFFFFFFFFFF AND PUSH20 0xFFFFFFFFFFFFFFFFFFFFFFFFFFFFFFFFFFFFFFFF AND DUP2 MSTORE PUSH1 0x20 ADD SWAP1 DUP2 MSTORE PUSH1 0x20 ADD PUSH1 0x0 KECCAK256 PUSH1 0x1 ADD SWAP1 DUP1 MLOAD SWAP1 PUSH1 0x20 ADD SWAP1 PUSH2 0x2B10 SWAP3 SWAP2 SWAP1 PUSH2 0x39EB JUMP JUMPDEST POP POP POP POP JUMP JUMPDEST PUSH1 0x2 PUSH1 0x0 SWAP1 SLOAD SWAP1 PUSH2 0x100 EXP SWAP1 DIV PUSH20 0xFFFFFFFFFFFFFFFFFFFFFFFFFFFFFFFFFFFFFFFF AND DUP2 JUMP JUMPDEST PUSH1 0x0 DUP1 PUSH1 0x0 DUP1 PUSH1 0x3 PUSH1 0x0 DUP8 PUSH20 0xFFFFFFFFFFFFFFFFFFFFFFFFFFFFFFFFFFFFFFFF AND PUSH20 0xFFFFFFFFFFFFFFFFFFFFFFFFFFFFFFFFFFFFFFFF AND DUP2 MSTORE PUSH1 0x20 ADD SWAP1 DUP2 MSTORE PUSH1 0x20 ADD PUSH1 0x0 KECCAK256 SWAP1 POP PUSH1 0x0 DUP2 DUP1 SLOAD SWAP1 POP GT PUSH2 0x2BCA JUMPI PUSH1 0x40 MLOAD PUSH32 0x8C379A000000000000000000000000000000000000000000000000000000000 DUP2 MSTORE PUSH1 0x4 ADD PUSH2 0x2BC1 SWAP1 PUSH2 0x431C JUMP JUMPDEST PUSH1 0x40 MLOAD DUP1 SWAP2 SUB SWAP1 REVERT JUMPDEST PUSH1 0x0 JUMPDEST DUP2 DUP1 SLOAD SWAP1 POP DUP2 LT ISZERO PUSH2 0x2D0F JUMPI DUP6 PUSH20 0xFFFFFFFFFFFFFFFFFFFFFFFFFFFFFFFFFFFFFFFF AND DUP3 DUP3 DUP2 SLOAD DUP2 LT PUSH2 0x2C03 JUMPI PUSH2 0x2C02 PUSH2 0x47B1 JUMP JUMPDEST JUMPDEST SWAP1 PUSH1 0x0 MSTORE PUSH1 0x20 PUSH1 0x0 KECCAK256 SWAP1 PUSH1 0x7 MUL ADD PUSH1 0x3 ADD PUSH1 0x0 SWAP1 SLOAD SWAP1 PUSH2 0x100 EXP SWAP1 DIV PUSH20 0xFFFFFFFFFFFFFFFFFFFFFFFFFFFFFFFFFFFFFFFF AND PUSH20 0xFFFFFFFFFFFFFFFFFFFFFFFFFFFFFFFFFFFFFFFF AND EQ ISZERO PUSH2 0x2CFC JUMPI DUP2 DUP2 DUP2 SLOAD DUP2 LT PUSH2 0x2C64 JUMPI PUSH2 0x2C63 PUSH2 0x47B1 JUMP JUMPDEST JUMPDEST SWAP1 PUSH1 0x0 MSTORE PUSH1 0x20 PUSH1 0x0 KECCAK256 SWAP1 PUSH1 0x7 MUL ADD PUSH1 0x1 ADD SLOAD DUP3 DUP3 DUP2 SLOAD DUP2 LT PUSH2 0x2C89 JUMPI PUSH2 0x2C88 PUSH2 0x47B1 JUMP JUMPDEST JUMPDEST SWAP1 PUSH1 0x0 MSTORE PUSH1 0x20 PUSH1 0x0 KECCAK256 SWAP1 PUSH1 0x7 MUL ADD PUSH1 0x2 ADD SLOAD DUP4 DUP4 DUP2 SLOAD DUP2 LT PUSH2 0x2CAE JUMPI PUSH2 0x2CAD PUSH2 0x47B1 JUMP JUMPDEST JUMPDEST SWAP1 PUSH1 0x0 MSTORE PUSH1 0x20 PUSH1 0x0 KECCAK256 SWAP1 PUSH1 0x7 MUL ADD PUSH1 0x2 ADD SLOAD DUP5 DUP5 DUP2 SLOAD DUP2 LT PUSH2 0x2CD3 JUMPI PUSH2 0x2CD2 PUSH2 0x47B1 JUMP JUMPDEST JUMPDEST SWAP1 PUSH1 0x0 MSTORE PUSH1 0x20 PUSH1 0x0 KECCAK256 SWAP1 PUSH1 0x7 MUL ADD PUSH1 0x1 ADD SLOAD PUSH2 0x2CEF SWAP2 SWAP1 PUSH2 0x4588 JUMP JUMPDEST SWAP5 POP SWAP5 POP SWAP5 POP POP POP PUSH2 0x2D4B JUMP JUMPDEST DUP1 DUP1 PUSH2 0x2D07 SWAP1 PUSH2 0x46DB JUMP JUMPDEST SWAP2 POP POP PUSH2 0x2BCD JUMP JUMPDEST POP PUSH1 0x40 MLOAD PUSH32 0x8C379A000000000000000000000000000000000000000000000000000000000 DUP2 MSTORE PUSH1 0x4 ADD PUSH2 0x2D42 SWAP1 PUSH2 0x437C JUMP JUMPDEST PUSH1 0x40 MLOAD DUP1 SWAP2 SUB SWAP1 REVERT JUMPDEST SWAP3 POP SWAP3 POP SWAP3 JUMP JUMPDEST PUSH1 0x60 DUP1 PUSH1 0x60 DUP1 PUSH1 0x0 PUSH1 0x3 PUSH1 0x0 DUP8 PUSH20 0xFFFFFFFFFFFFFFFFFFFFFFFFFFFFFFFFFFFFFFFF AND PUSH20 0xFFFFFFFFFFFFFFFFFFFFFFFFFFFFFFFFFFFFFFFF AND DUP2 MSTORE PUSH1 0x20 ADD SWAP1 DUP2 MSTORE PUSH1 0x20 ADD PUSH1 0x0 KECCAK256 SWAP1 POP PUSH1 0x0 DUP2 DUP1 SLOAD SWAP1 POP GT PUSH2 0x2DE2 JUMPI PUSH1 0x40 MLOAD PUSH32 0x8C379A000000000000000000000000000000000000000000000000000000000 DUP2 MSTORE PUSH1 0x4 ADD PUSH2 0x2DD9 SWAP1 PUSH2 0x431C JUMP JUMPDEST PUSH1 0x40 MLOAD DUP1 SWAP2 SUB SWAP1 REVERT JUMPDEST PUSH1 0x0 DUP2 DUP1 SLOAD SWAP1 POP PUSH8 0xFFFFFFFFFFFFFFFF DUP2 GT ISZERO PUSH2 0x2E02 JUMPI PUSH2 0x2E01 PUSH2 0x47E0 JUMP JUMPDEST JUMPDEST PUSH1 0x40 MLOAD SWAP1 DUP1 DUP3 MSTORE DUP1 PUSH1 0x20 MUL PUSH1 0x20 ADD DUP3 ADD PUSH1 0x40 MSTORE DUP1 ISZERO PUSH2 0x2E30 JUMPI DUP2 PUSH1 0x20 ADD PUSH1 0x20 DUP3 MUL DUP1 CALLDATASIZE DUP4 CALLDATACOPY DUP1 DUP3 ADD SWAP2 POP POP SWAP1 POP JUMPDEST POP SWAP1 POP PUSH1 0x0 DUP3 DUP1 SLOAD SWAP1 POP PUSH8 0xFFFFFFFFFFFFFFFF DUP2 GT ISZERO PUSH2 0x2E53 JUMPI PUSH2 0x2E52 PUSH2 0x47E0 JUMP JUMPDEST JUMPDEST PUSH1 0x40 MLOAD SWAP1 DUP1 DUP3 MSTORE DUP1 PUSH1 0x20 MUL PUSH1 0x20 ADD DUP3 ADD PUSH1 0x40 MSTORE DUP1 ISZERO PUSH2 0x2E81 JUMPI DUP2 PUSH1 0x20 ADD PUSH1 0x20 DUP3 MUL DUP1 CALLDATASIZE DUP4 CALLDATACOPY DUP1 DUP3 ADD SWAP2 POP POP SWAP1 POP JUMPDEST POP SWAP1 POP PUSH1 0x0 DUP4 DUP1 SLOAD SWAP1 POP PUSH8 0xFFFFFFFFFFFFFFFF DUP2 GT ISZERO PUSH2 0x2EA4 JUMPI PUSH2 0x2EA3 PUSH2 0x47E0 JUMP JUMPDEST JUMPDEST PUSH1 0x40 MLOAD SWAP1 DUP1 DUP3 MSTORE DUP1 PUSH1 0x20 MUL PUSH1 0x20 ADD DUP3 ADD PUSH1 0x40 MSTORE DUP1 ISZERO PUSH2 0x2ED2 JUMPI DUP2 PUSH1 0x20 ADD PUSH1 0x20 DUP3 MUL DUP1 CALLDATASIZE DUP4 CALLDATACOPY DUP1 DUP3 ADD SWAP2 POP POP SWAP1 POP JUMPDEST POP SWAP1 POP PUSH1 0x0 DUP5 DUP1 SLOAD SWAP1 POP PUSH8 0xFFFFFFFFFFFFFFFF DUP2 GT ISZERO PUSH2 0x2EF5 JUMPI PUSH2 0x2EF4 PUSH2 0x47E0 JUMP JUMPDEST JUMPDEST PUSH1 0x40 MLOAD SWAP1 DUP1 DUP3 MSTORE DUP1 PUSH1 0x20 MUL PUSH1 0x20 ADD DUP3 ADD PUSH1 0x40 MSTORE DUP1 ISZERO PUSH2 0x2F23 JUMPI DUP2 PUSH1 0x20 ADD PUSH1 0x20 DUP3 MUL DUP1 CALLDATASIZE DUP4 CALLDATACOPY DUP1 DUP3 ADD SWAP2 POP POP SWAP1 POP JUMPDEST POP SWAP1 POP PUSH1 0x0 DUP1 JUMPDEST DUP7 DUP1 SLOAD SWAP1 POP DUP2 LT ISZERO PUSH2 0x30ED JUMPI DUP7 DUP2 DUP2 SLOAD DUP2 LT PUSH2 0x2F49 JUMPI PUSH2 0x2F48 PUSH2 0x47B1 JUMP JUMPDEST JUMPDEST SWAP1 PUSH1 0x0 MSTORE PUSH1 0x20 PUSH1 0x0 KECCAK256 SWAP1 PUSH1 0x7 MUL ADD PUSH1 0x4 ADD PUSH1 0x14 SWAP1 SLOAD SWAP1 PUSH2 0x100 EXP SWAP1 DIV PUSH1 0xFF AND ISZERO PUSH2 0x30DA JUMPI DUP7 DUP2 DUP2 SLOAD DUP2 LT PUSH2 0x2F80 JUMPI PUSH2 0x2F7F PUSH2 0x47B1 JUMP JUMPDEST JUMPDEST SWAP1 PUSH1 0x0 MSTORE PUSH1 0x20 PUSH1 0x0 KECCAK256 SWAP1 PUSH1 0x7 MUL ADD PUSH1 0x3 ADD PUSH1 0x0 SWAP1 SLOAD SWAP1 PUSH2 0x100 EXP SWAP1 DIV PUSH20 0xFFFFFFFFFFFFFFFFFFFFFFFFFFFFFFFFFFFFFFFF AND DUP7 DUP4 DUP2 MLOAD DUP2 LT PUSH2 0x2FC5 JUMPI PUSH2 0x2FC4 PUSH2 0x47B1 JUMP JUMPDEST JUMPDEST PUSH1 0x20 MUL PUSH1 0x20 ADD ADD SWAP1 PUSH20 0xFFFFFFFFFFFFFFFFFFFFFFFFFFFFFFFFFFFFFFFF AND SWAP1 DUP2 PUSH20 0xFFFFFFFFFFFFFFFFFFFFFFFFFFFFFFFFFFFFFFFF AND DUP2 MSTORE POP POP DUP7 DUP2 DUP2 SLOAD DUP2 LT PUSH2 0x3012 JUMPI PUSH2 0x3011 PUSH2 0x47B1 JUMP JUMPDEST JUMPDEST SWAP1 PUSH1 0x0 MSTORE PUSH1 0x20 PUSH1 0x0 KECCAK256 SWAP1 PUSH1 0x7 MUL ADD PUSH1 0x0 ADD SLOAD DUP6 DUP4 DUP2 MLOAD DUP2 LT PUSH2 0x3037 JUMPI PUSH2 0x3036 PUSH2 0x47B1 JUMP JUMPDEST JUMPDEST PUSH1 0x20 MUL PUSH1 0x20 ADD ADD DUP2 DUP2 MSTORE POP POP DUP7 DUP2 DUP2 SLOAD DUP2 LT PUSH2 0x3056 JUMPI PUSH2 0x3055 PUSH2 0x47B1 JUMP JUMPDEST JUMPDEST SWAP1 PUSH1 0x0 MSTORE PUSH1 0x20 PUSH1 0x0 KECCAK256 SWAP1 PUSH1 0x7 MUL ADD PUSH1 0x1 ADD SLOAD DUP5 DUP4 DUP2 MLOAD DUP2 LT PUSH2 0x307B JUMPI PUSH2 0x307A PUSH2 0x47B1 JUMP JUMPDEST JUMPDEST PUSH1 0x20 MUL PUSH1 0x20 ADD ADD DUP2 DUP2 MSTORE POP POP DUP7 DUP2 DUP2 SLOAD DUP2 LT PUSH2 0x309A JUMPI PUSH2 0x3099 PUSH2 0x47B1 JUMP JUMPDEST JUMPDEST SWAP1 PUSH1 0x0 MSTORE PUSH1 0x20 PUSH1 0x0 KECCAK256 SWAP1 PUSH1 0x7 MUL ADD PUSH1 0x2 ADD SLOAD DUP4 DUP4 DUP2 MLOAD DUP2 LT PUSH2 0x30BF JUMPI PUSH2 0x30BE PUSH2 0x47B1 JUMP JUMPDEST JUMPDEST PUSH1 0x20 MUL PUSH1 0x20 ADD ADD DUP2 DUP2 MSTORE POP POP DUP2 DUP1 PUSH2 0x30D6 SWAP1 PUSH2 0x46DB JUMP JUMPDEST SWAP3 POP POP JUMPDEST DUP1 DUP1 PUSH2 0x30E5 SWAP1 PUSH2 0x46DB JUMP JUMPDEST SWAP2 POP POP PUSH2 0x2F2A JUMP JUMPDEST POP PUSH1 0x0 DUP6 MLOAD GT PUSH2 0x3132 JUMPI PUSH1 0x40 MLOAD PUSH32 0x8C379A000000000000000000000000000000000000000000000000000000000 DUP2 MSTORE PUSH1 0x4 ADD PUSH2 0x3129 SWAP1 PUSH2 0x425C JUMP JUMPDEST PUSH1 0x40 MLOAD DUP1 SWAP2 SUB SWAP1 REVERT JUMPDEST DUP5 DUP5 DUP5 DUP5 SWAP10 POP SWAP10 POP SWAP10 POP SWAP10 POP POP POP POP POP POP POP SWAP2 SWAP4 POP SWAP2 SWAP4 JUMP JUMPDEST PUSH1 0x0 DUP1 PUSH1 0x3 PUSH1 0x0 DUP7 PUSH20 0xFFFFFFFFFFFFFFFFFFFFFFFFFFFFFFFFFFFFFFFF AND PUSH20 0xFFFFFFFFFFFFFFFFFFFFFFFFFFFFFFFFFFFFFFFF AND DUP2 MSTORE PUSH1 0x20 ADD SWAP1 DUP2 MSTORE PUSH1 0x20 ADD PUSH1 0x0 KECCAK256 SWAP1 POP PUSH1 0x0 DUP2 DUP1 SLOAD SWAP1 POP GT PUSH2 0x31D6 JUMPI PUSH1 0x40 MLOAD PUSH32 0x8C379A000000000000000000000000000000000000000000000000000000000 DUP2 MSTORE PUSH1 0x4 ADD PUSH2 0x31CD SWAP1 PUSH2 0x431C JUMP JUMPDEST PUSH1 0x40 MLOAD DUP1 SWAP2 SUB SWAP1 REVERT JUMPDEST PUSH1 0x0 DUP1 JUMPDEST DUP3 DUP1 SLOAD SWAP1 POP DUP2 LT ISZERO PUSH2 0x33B4 JUMPI DUP6 PUSH20 0xFFFFFFFFFFFFFFFFFFFFFFFFFFFFFFFFFFFFFFFF AND DUP4 DUP3 DUP2 SLOAD DUP2 LT PUSH2 0x3210 JUMPI PUSH2 0x320F PUSH2 0x47B1 JUMP JUMPDEST JUMPDEST SWAP1 PUSH1 0x0 MSTORE PUSH1 0x20 PUSH1 0x0 KECCAK256 SWAP1 PUSH1 0x7 MUL ADD PUSH1 0x3 ADD PUSH1 0x0 SWAP1 SLOAD SWAP1 PUSH2 0x100 EXP SWAP1 DIV PUSH20 0xFFFFFFFFFFFFFFFFFFFFFFFFFFFFFFFFFFFFFFFF AND PUSH20 0xFFFFFFFFFFFFFFFFFFFFFFFFFFFFFFFFFFFFFFFF AND EQ ISZERO PUSH2 0x33A1 JUMPI PUSH1 0x0 PUSH1 0x4 PUSH1 0x0 DUP9 PUSH20 0xFFFFFFFFFFFFFFFFFFFFFFFFFFFFFFFFFFFFFFFF AND PUSH20 0xFFFFFFFFFFFFFFFFFFFFFFFFFFFFFFFFFFFFFFFF AND DUP2 MSTORE PUSH1 0x20 ADD SWAP1 DUP2 MSTORE PUSH1 0x20 ADD PUSH1 0x0 KECCAK256 SWAP1 POP PUSH1 0x0 JUMPDEST DUP2 DUP1 SLOAD SWAP1 POP DUP2 LT ISZERO PUSH2 0x339E JUMPI DUP7 PUSH20 0xFFFFFFFFFFFFFFFFFFFFFFFFFFFFFFFFFFFFFFFF AND DUP3 DUP3 DUP2 SLOAD DUP2 LT PUSH2 0x32DA JUMPI PUSH2 0x32D9 PUSH2 0x47B1 JUMP JUMPDEST JUMPDEST SWAP1 PUSH1 0x0 MSTORE PUSH1 0x20 PUSH1 0x0 KECCAK256 SWAP1 PUSH1 0x3 MUL ADD PUSH1 0x1 ADD PUSH1 0x0 SWAP1 SLOAD SWAP1 PUSH2 0x100 EXP SWAP1 DIV PUSH20 0xFFFFFFFFFFFFFFFFFFFFFFFFFFFFFFFFFFFFFFFF AND PUSH20 0xFFFFFFFFFFFFFFFFFFFFFFFFFFFFFFFFFFFFFFFF AND EQ ISZERO PUSH2 0x338B JUMPI DUP2 DUP2 DUP2 SLOAD DUP2 LT PUSH2 0x333B JUMPI PUSH2 0x333A PUSH2 0x47B1 JUMP JUMPDEST JUMPDEST SWAP1 PUSH1 0x0 MSTORE PUSH1 0x20 PUSH1 0x0 KECCAK256 SWAP1 PUSH1 0x3 MUL ADD PUSH1 0x1 ADD PUSH1 0x0 SWAP1 SLOAD SWAP1 PUSH2 0x100 EXP SWAP1 DIV PUSH20 0xFFFFFFFFFFFFFFFFFFFFFFFFFFFFFFFFFFFFFFFF AND PUSH20 0xFFFFFFFFFFFFFFFFFFFFFFFFFFFFFFFFFFFFFFFF AND BALANCE SWAP4 POP PUSH2 0x339E JUMP JUMPDEST DUP1 DUP1 PUSH2 0x3396 SWAP1 PUSH2 0x46DB JUMP JUMPDEST SWAP2 POP POP PUSH2 0x32A4 JUMP JUMPDEST POP POP JUMPDEST DUP1 DUP1 PUSH2 0x33AC SWAP1 PUSH2 0x46DB JUMP JUMPDEST SWAP2 POP POP PUSH2 0x31DA JUMP JUMPDEST POP DUP1 SWAP3 POP POP POP SWAP4 SWAP3 POP POP POP JUMP JUMPDEST PUSH1 0x6 PUSH1 0x20 MSTORE DUP1 PUSH1 0x0 MSTORE PUSH1 0x40 PUSH1 0x0 KECCAK256 PUSH1 0x0 SWAP2 POP SWAP1 POP DUP1 SLOAD PUSH2 0x33E0 SWAP1 PUSH2 0x4678 JUMP JUMPDEST DUP1 PUSH1 0x1F ADD PUSH1 0x20 DUP1 SWAP2 DIV MUL PUSH1 0x20 ADD PUSH1 0x40 MLOAD SWAP1 DUP2 ADD PUSH1 0x40 MSTORE DUP1 SWAP3 SWAP2 SWAP1 DUP2 DUP2 MSTORE PUSH1 0x20 ADD DUP3 DUP1 SLOAD PUSH2 0x340C SWAP1 PUSH2 0x4678 JUMP JUMPDEST DUP1 ISZERO PUSH2 0x3459 JUMPI DUP1 PUSH1 0x1F LT PUSH2 0x342E JUMPI PUSH2 0x100 DUP1 DUP4 SLOAD DIV MUL DUP4 MSTORE SWAP2 PUSH1 0x20 ADD SWAP2 PUSH2 0x3459 JUMP JUMPDEST DUP3 ADD SWAP2 SWAP1 PUSH1 0x0 MSTORE PUSH1 0x20 PUSH1 0x0 KECCAK256 SWAP1 JUMPDEST DUP2 SLOAD DUP2 MSTORE SWAP1 PUSH1 0x1 ADD SWAP1 PUSH1 0x20 ADD DUP1 DUP4 GT PUSH2 0x343C JUMPI DUP3 SWAP1 SUB PUSH1 0x1F AND DUP3 ADD SWAP2 JUMPDEST POP POP POP POP POP DUP2 JUMP JUMPDEST PUSH1 0x0 DUP1 PUSH1 0x3 PUSH1 0x0 DUP6 PUSH20 0xFFFFFFFFFFFFFFFFFFFFFFFFFFFFFFFFFFFFFFFF AND PUSH20 0xFFFFFFFFFFFFFFFFFFFFFFFFFFFFFFFFFFFFFFFF AND DUP2 MSTORE PUSH1 0x20 ADD SWAP1 DUP2 MSTORE PUSH1 0x20 ADD PUSH1 0x0 KECCAK256 SWAP1 POP PUSH1 0x0 DUP2 DUP1 SLOAD SWAP1 POP GT PUSH2 0x34EC JUMPI PUSH1 0x40 MLOAD PUSH32 0x8C379A000000000000000000000000000000000000000000000000000000000 DUP2 MSTORE PUSH1 0x4 ADD PUSH2 0x34E3 SWAP1 PUSH2 0x431C JUMP JUMPDEST PUSH1 0x40 MLOAD DUP1 SWAP2 SUB SWAP1 REVERT JUMPDEST PUSH1 0x0 JUMPDEST DUP2 DUP1 SLOAD SWAP1 POP DUP2 LT ISZERO PUSH2 0x3780 JUMPI DUP4 PUSH20 0xFFFFFFFFFFFFFFFFFFFFFFFFFFFFFFFFFFFFFFFF AND DUP3 DUP3 DUP2 SLOAD DUP2 LT PUSH2 0x3525 JUMPI PUSH2 0x3524 PUSH2 0x47B1 JUMP JUMPDEST JUMPDEST SWAP1 PUSH1 0x0 MSTORE PUSH1 0x20 PUSH1 0x0 KECCAK256 SWAP1 PUSH1 0x7 MUL ADD PUSH1 0x3 ADD PUSH1 0x0 SWAP1 SLOAD SWAP1 PUSH2 0x100 EXP SWAP1 DIV PUSH20 0xFFFFFFFFFFFFFFFFFFFFFFFFFFFFFFFFFFFFFFFF AND PUSH20 0xFFFFFFFFFFFFFFFFFFFFFFFFFFFFFFFFFFFFFFFF AND EQ ISZERO PUSH2 0x376D JUMPI PUSH1 0x7 PUSH1 0x9 DUP2 GT ISZERO PUSH2 0x3587 JUMPI PUSH2 0x3586 PUSH2 0x4753 JUMP JUMPDEST JUMPDEST DUP3 DUP3 DUP2 SLOAD DUP2 LT PUSH2 0x359A JUMPI PUSH2 0x3599 PUSH2 0x47B1 JUMP JUMPDEST JUMPDEST SWAP1 PUSH1 0x0 MSTORE PUSH1 0x20 PUSH1 0x0 KECCAK256 SWAP1 PUSH1 0x7 MUL ADD PUSH1 0x6 ADD PUSH1 0x0 SWAP1 SLOAD SWAP1 PUSH2 0x100 EXP SWAP1 DIV PUSH1 0xFF AND PUSH1 0x9 DUP2 GT ISZERO PUSH2 0x35CB JUMPI PUSH2 0x35CA PUSH2 0x4753 JUMP JUMPDEST JUMPDEST EQ PUSH2 0x360B JUMPI PUSH1 0x40 MLOAD PUSH32 0x8C379A000000000000000000000000000000000000000000000000000000000 DUP2 MSTORE PUSH1 0x4 ADD PUSH2 0x3602 SWAP1 PUSH2 0x42FC JUMP JUMPDEST PUSH1 0x40 MLOAD DUP1 SWAP2 SUB SWAP1 REVERT JUMPDEST PUSH1 0x0 PUSH1 0x4 PUSH1 0x0 DUP7 PUSH20 0xFFFFFFFFFFFFFFFFFFFFFFFFFFFFFFFFFFFFFFFF AND PUSH20 0xFFFFFFFFFFFFFFFFFFFFFFFFFFFFFFFFFFFFFFFF AND DUP2 MSTORE PUSH1 0x20 ADD SWAP1 DUP2 MSTORE PUSH1 0x20 ADD PUSH1 0x0 KECCAK256 SWAP1 POP PUSH1 0x0 JUMPDEST DUP2 DUP1 SLOAD SWAP1 POP DUP2 LT ISZERO PUSH2 0x3762 JUMPI PUSH1 0x0 DUP3 DUP3 DUP2 SLOAD DUP2 LT PUSH2 0x3672 JUMPI PUSH2 0x3671 PUSH2 0x47B1 JUMP JUMPDEST JUMPDEST SWAP1 PUSH1 0x0 MSTORE PUSH1 0x20 PUSH1 0x0 KECCAK256 SWAP1 PUSH1 0x3 MUL ADD PUSH1 0x2 ADD PUSH1 0x0 DUP9 PUSH20 0xFFFFFFFFFFFFFFFFFFFFFFFFFFFFFFFFFFFFFFFF AND PUSH20 0xFFFFFFFFFFFFFFFFFFFFFFFFFFFFFFFFFFFFFFFF AND DUP2 MSTORE PUSH1 0x20 ADD SWAP1 DUP2 MSTORE PUSH1 0x20 ADD PUSH1 0x0 KECCAK256 SLOAD SWAP1 POP DUP3 DUP3 DUP2 SLOAD DUP2 LT PUSH2 0x36D6 JUMPI PUSH2 0x36D5 PUSH2 0x47B1 JUMP JUMPDEST JUMPDEST SWAP1 PUSH1 0x0 MSTORE PUSH1 0x20 PUSH1 0x0 KECCAK256 SWAP1 PUSH1 0x3 MUL ADD PUSH1 0x1 ADD PUSH1 0x0 SWAP1 SLOAD SWAP1 PUSH2 0x100 EXP SWAP1 DIV PUSH20 0xFFFFFFFFFFFFFFFFFFFFFFFFFFFFFFFFFFFFFFFF AND PUSH20 0xFFFFFFFFFFFFFFFFFFFFFFFFFFFFFFFFFFFFFFFF AND PUSH2 0x8FC DUP3 SWAP1 DUP2 ISZERO MUL SWAP1 PUSH1 0x40 MLOAD PUSH1 0x0 PUSH1 0x40 MLOAD DUP1 DUP4 SUB DUP2 DUP6 DUP9 DUP9 CALL SWAP4 POP POP POP POP ISZERO DUP1 ISZERO PUSH2 0x374D JUMPI RETURNDATASIZE PUSH1 0x0 DUP1 RETURNDATACOPY RETURNDATASIZE PUSH1 0x0 REVERT JUMPDEST POP POP DUP1 DUP1 PUSH2 0x375A SWAP1 PUSH2 0x46DB JUMP JUMPDEST SWAP2 POP POP PUSH2 0x3651 JUMP JUMPDEST POP PUSH1 0x1 SWAP4 POP POP PUSH2 0x3780 JUMP JUMPDEST DUP1 DUP1 PUSH2 0x3778 SWAP1 PUSH2 0x46DB JUMP JUMPDEST SWAP2 POP POP PUSH2 0x34EF JUMP JUMPDEST POP DUP2 PUSH2 0x37C1 JUMPI PUSH1 0x40 MLOAD PUSH32 0x8C379A000000000000000000000000000000000000000000000000000000000 DUP2 MSTORE PUSH1 0x4 ADD PUSH2 0x37B8 SWAP1 PUSH2 0x435C JUMP JUMPDEST PUSH1 0x40 MLOAD DUP1 SWAP2 SUB SWAP1 REVERT JUMPDEST POP POP POP POP JUMP JUMPDEST PUSH1 0x0 DUP1 PUSH1 0x3 PUSH1 0x0 DUP6 PUSH20 0xFFFFFFFFFFFFFFFFFFFFFFFFFFFFFFFFFFFFFFFF AND PUSH20 0xFFFFFFFFFFFFFFFFFFFFFFFFFFFFFFFFFFFFFFFF AND DUP2 MSTORE PUSH1 0x20 ADD SWAP1 DUP2 MSTORE PUSH1 0x20 ADD PUSH1 0x0 KECCAK256 SWAP1 POP PUSH1 0x0 DUP2 DUP1 SLOAD SWAP1 POP GT PUSH2 0x3852 JUMPI PUSH1 0x40 MLOAD PUSH32 0x8C379A000000000000000000000000000000000000000000000000000000000 DUP2 MSTORE PUSH1 0x4 ADD PUSH2 0x3849 SWAP1 PUSH2 0x431C JUMP JUMPDEST PUSH1 0x40 MLOAD DUP1 SWAP2 SUB SWAP1 REVERT JUMPDEST PUSH1 0x0 JUMPDEST DUP2 DUP1 SLOAD SWAP1 POP DUP2 LT ISZERO PUSH2 0x39A4 JUMPI DUP4 PUSH20 0xFFFFFFFFFFFFFFFFFFFFFFFFFFFFFFFFFFFFFFFF AND DUP3 DUP3 DUP2 SLOAD DUP2 LT PUSH2 0x388B JUMPI PUSH2 0x388A PUSH2 0x47B1 JUMP JUMPDEST JUMPDEST SWAP1 PUSH1 0x0 MSTORE PUSH1 0x20 PUSH1 0x0 KECCAK256 SWAP1 PUSH1 0x7 MUL ADD PUSH1 0x3 ADD PUSH1 0x0 SWAP1 SLOAD SWAP1 PUSH2 0x100 EXP SWAP1 DIV PUSH20 0xFFFFFFFFFFFFFFFFFFFFFFFFFFFFFFFFFFFFFFFF AND PUSH20 0xFFFFFFFFFFFFFFFFFFFFFFFFFFFFFFFFFFFFFFFF AND EQ ISZERO PUSH2 0x3991 JUMPI DUP2 DUP2 DUP2 SLOAD DUP2 LT PUSH2 0x38EC JUMPI PUSH2 0x38EB PUSH2 0x47B1 JUMP JUMPDEST JUMPDEST SWAP1 PUSH1 0x0 MSTORE PUSH1 0x20 PUSH1 0x0 KECCAK256 SWAP1 PUSH1 0x7 MUL ADD PUSH1 0x3 ADD PUSH1 0x0 SWAP1 SLOAD SWAP1 PUSH2 0x100 EXP SWAP1 DIV PUSH20 0xFFFFFFFFFFFFFFFFFFFFFFFFFFFFFFFFFFFFFFFF AND PUSH20 0xFFFFFFFFFFFFFFFFFFFFFFFFFFFFFFFFFFFFFFFF AND PUSH2 0x8FC DUP4 DUP4 DUP2 SLOAD DUP2 LT PUSH2 0x394A JUMPI PUSH2 0x3949 PUSH2 0x47B1 JUMP JUMPDEST JUMPDEST SWAP1 PUSH1 0x0 MSTORE PUSH1 0x20 PUSH1 0x0 KECCAK256 SWAP1 PUSH1 0x7 MUL ADD PUSH1 0x2 ADD SLOAD SWAP1 DUP2 ISZERO MUL SWAP1 PUSH1 0x40 MLOAD PUSH1 0x0 PUSH1 0x40 MLOAD DUP1 DUP4 SUB DUP2 DUP6 DUP9 DUP9 CALL SWAP4 POP POP POP POP ISZERO DUP1 ISZERO PUSH2 0x3987 JUMPI RETURNDATASIZE PUSH1 0x0 DUP1 RETURNDATACOPY RETURNDATASIZE PUSH1 0x0 REVERT JUMPDEST POP PUSH1 0x1 SWAP3 POP PUSH2 0x39A4 JUMP JUMPDEST DUP1 DUP1 PUSH2 0x399C SWAP1 PUSH2 0x46DB JUMP JUMPDEST SWAP2 POP POP PUSH2 0x3855 JUMP JUMPDEST POP DUP2 PUSH2 0x39E5 JUMPI PUSH1 0x40 MLOAD PUSH32 0x8C379A000000000000000000000000000000000000000000000000000000000 DUP2 MSTORE PUSH1 0x4 ADD PUSH2 0x39DC SWAP1 PUSH2 0x435C JUMP JUMPDEST PUSH1 0x40 MLOAD DUP1 SWAP2 SUB SWAP1 REVERT JUMPDEST POP POP POP POP JUMP JUMPDEST DUP3 DUP1 SLOAD PUSH2 0x39F7 SWAP1 PUSH2 0x4678 JUMP JUMPDEST SWAP1 PUSH1 0x0 MSTORE PUSH1 0x20 PUSH1 0x0 KECCAK256 SWAP1 PUSH1 0x1F ADD PUSH1 0x20 SWAP1 DIV DUP2 ADD SWAP3 DUP3 PUSH2 0x3A19 JUMPI PUSH1 0x0 DUP6 SSTORE PUSH2 0x3A60 JUMP JUMPDEST DUP3 PUSH1 0x1F LT PUSH2 0x3A32 JUMPI DUP1 MLOAD PUSH1 0xFF NOT AND DUP4 DUP1 ADD OR DUP6 SSTORE PUSH2 0x3A60 JUMP JUMPDEST DUP3 DUP1 ADD PUSH1 0x1 ADD DUP6 SSTORE DUP3 ISZERO PUSH2 0x3A60 JUMPI SWAP2 DUP3 ADD JUMPDEST DUP3 DUP2 GT ISZERO PUSH2 0x3A5F JUMPI DUP3 MLOAD DUP3 SSTORE SWAP2 PUSH1 0x20 ADD SWAP2 SWAP1 PUSH1 0x1 ADD SWAP1 PUSH2 0x3A44 JUMP JUMPDEST JUMPDEST POP SWAP1 POP PUSH2 0x3A6D SWAP2 SWAP1 PUSH2 0x3A71 JUMP JUMPDEST POP SWAP1 JUMP JUMPDEST JUMPDEST DUP1 DUP3 GT ISZERO PUSH2 0x3A8A JUMPI PUSH1 0x0 DUP2 PUSH1 0x0 SWAP1 SSTORE POP PUSH1 0x1 ADD PUSH2 0x3A72 JUMP JUMPDEST POP SWAP1 JUMP JUMPDEST PUSH1 0x0 PUSH2 0x3AA1 PUSH2 0x3A9C DUP5 PUSH2 0x4473 JUMP JUMPDEST PUSH2 0x444E JUMP JUMPDEST SWAP1 POP DUP3 DUP2 MSTORE PUSH1 0x20 DUP2 ADD DUP5 DUP5 DUP5 ADD GT ISZERO PUSH2 0x3ABD JUMPI PUSH2 0x3ABC PUSH2 0x4814 JUMP JUMPDEST JUMPDEST PUSH2 0x3AC8 DUP5 DUP3 DUP6 PUSH2 0x4636 JUMP JUMPDEST POP SWAP4 SWAP3 POP POP POP JUMP JUMPDEST PUSH1 0x0 DUP2 CALLDATALOAD SWAP1 POP PUSH2 0x3ADF DUP2 PUSH2 0x4C25 JUMP JUMPDEST SWAP3 SWAP2 POP POP JUMP JUMPDEST PUSH1 0x0 DUP2 CALLDATALOAD SWAP1 POP PUSH2 0x3AF4 DUP2 PUSH2 0x4C3C JUMP JUMPDEST SWAP3 SWAP2 POP POP JUMP JUMPDEST PUSH1 0x0 DUP2 CALLDATALOAD SWAP1 POP PUSH2 0x3B09 DUP2 PUSH2 0x4C53 JUMP JUMPDEST SWAP3 SWAP2 POP POP JUMP JUMPDEST PUSH1 0x0 DUP3 PUSH1 0x1F DUP4 ADD SLT PUSH2 0x3B24 JUMPI PUSH2 0x3B23 PUSH2 0x480F JUMP JUMPDEST JUMPDEST DUP2 CALLDATALOAD PUSH2 0x3B34 DUP5 DUP3 PUSH1 0x20 DUP7 ADD PUSH2 0x3A8E JUMP JUMPDEST SWAP2 POP POP SWAP3 SWAP2 POP POP JUMP JUMPDEST PUSH1 0x0 DUP2 CALLDATALOAD SWAP1 POP PUSH2 0x3B4C DUP2 PUSH2 0x4C63 JUMP JUMPDEST SWAP3 SWAP2 POP POP JUMP JUMPDEST PUSH1 0x0 DUP2 CALLDATALOAD SWAP1 POP PUSH2 0x3B61 DUP2 PUSH2 0x4C7A JUMP JUMPDEST SWAP3 SWAP2 POP POP JUMP JUMPDEST PUSH1 0x0 PUSH1 0x20 DUP3 DUP5 SUB SLT ISZERO PUSH2 0x3B7D JUMPI PUSH2 0x3B7C PUSH2 0x481E JUMP JUMPDEST JUMPDEST PUSH1 0x0 PUSH2 0x3B8B DUP5 DUP3 DUP6 ADD PUSH2 0x3AD0 JUMP JUMPDEST SWAP2 POP POP SWAP3 SWAP2 POP POP JUMP JUMPDEST PUSH1 0x0 DUP1 PUSH1 0x40 DUP4 DUP6 SUB SLT ISZERO PUSH2 0x3BAB JUMPI PUSH2 0x3BAA PUSH2 0x481E JUMP JUMPDEST JUMPDEST PUSH1 0x0 PUSH2 0x3BB9 DUP6 DUP3 DUP7 ADD PUSH2 0x3AD0 JUMP JUMPDEST SWAP3 POP POP PUSH1 0x20 PUSH2 0x3BCA DUP6 DUP3 DUP7 ADD PUSH2 0x3AD0 JUMP JUMPDEST SWAP2 POP POP SWAP3 POP SWAP3 SWAP1 POP JUMP JUMPDEST PUSH1 0x0 DUP1 PUSH1 0x0 PUSH1 0x60 DUP5 DUP7 SUB SLT ISZERO PUSH2 0x3BED JUMPI PUSH2 0x3BEC PUSH2 0x481E JUMP JUMPDEST JUMPDEST PUSH1 0x0 PUSH2 0x3BFB DUP7 DUP3 DUP8 ADD PUSH2 0x3AD0 JUMP JUMPDEST SWAP4 POP POP PUSH1 0x20 PUSH2 0x3C0C DUP7 DUP3 DUP8 ADD PUSH2 0x3AD0 JUMP JUMPDEST SWAP3 POP POP PUSH1 0x40 PUSH2 0x3C1D DUP7 DUP3 DUP8 ADD PUSH2 0x3AD0 JUMP JUMPDEST SWAP2 POP POP SWAP3 POP SWAP3 POP SWAP3 JUMP JUMPDEST PUSH1 0x0 DUP1 PUSH1 0x0 PUSH1 0x60 DUP5 DUP7 SUB SLT ISZERO PUSH2 0x3C40 JUMPI PUSH2 0x3C3F PUSH2 0x481E JUMP JUMPDEST JUMPDEST PUSH1 0x0 PUSH2 0x3C4E DUP7 DUP3 DUP8 ADD PUSH2 0x3AD0 JUMP JUMPDEST SWAP4 POP POP PUSH1 0x20 PUSH2 0x3C5F DUP7 DUP3 DUP8 ADD PUSH2 0x3AD0 JUMP JUMPDEST SWAP3 POP POP PUSH1 0x40 PUSH2 0x3C70 DUP7 DUP3 DUP8 ADD PUSH2 0x3B52 JUMP JUMPDEST SWAP2 POP POP SWAP3 POP SWAP3 POP SWAP3 JUMP JUMPDEST PUSH1 0x0 DUP1 PUSH1 0x0 PUSH1 0x60 DUP5 DUP7 SUB SLT ISZERO PUSH2 0x3C93 JUMPI PUSH2 0x3C92 PUSH2 0x481E JUMP JUMPDEST JUMPDEST PUSH1 0x0 PUSH2 0x3CA1 DUP7 DUP3 DUP8 ADD PUSH2 0x3AD0 JUMP JUMPDEST SWAP4 POP POP PUSH1 0x20 PUSH2 0x3CB2 DUP7 DUP3 DUP8 ADD PUSH2 0x3AE5 JUMP JUMPDEST SWAP3 POP POP PUSH1 0x40 DUP5 ADD CALLDATALOAD PUSH8 0xFFFFFFFFFFFFFFFF DUP2 GT ISZERO PUSH2 0x3CD3 JUMPI PUSH2 0x3CD2 PUSH2 0x4819 JUMP JUMPDEST JUMPDEST PUSH2 0x3CDF DUP7 DUP3 DUP8 ADD PUSH2 0x3B0F JUMP JUMPDEST SWAP2 POP POP SWAP3 POP SWAP3 POP SWAP3 JUMP JUMPDEST PUSH1 0x0 DUP1 PUSH1 0x40 DUP4 DUP6 SUB SLT ISZERO PUSH2 0x3D00 JUMPI PUSH2 0x3CFF PUSH2 0x481E JUMP JUMPDEST JUMPDEST PUSH1 0x0 PUSH2 0x3D0E DUP6 DUP3 DUP7 ADD PUSH2 0x3AD0 JUMP JUMPDEST SWAP3 POP POP PUSH1 0x20 PUSH2 0x3D1F DUP6 DUP3 DUP7 ADD PUSH2 0x3B52 JUMP JUMPDEST SWAP2 POP POP SWAP3 POP SWAP3 SWAP1 POP JUMP JUMPDEST PUSH1 0x0 PUSH1 0x20 DUP3 DUP5 SUB SLT ISZERO PUSH2 0x3D3F JUMPI PUSH2 0x3D3E PUSH2 0x481E JUMP JUMPDEST JUMPDEST PUSH1 0x0 PUSH2 0x3D4D DUP5 DUP3 DUP6 ADD PUSH2 0x3AFA JUMP JUMPDEST SWAP2 POP POP SWAP3 SWAP2 POP POP JUMP JUMPDEST PUSH1 0x0 DUP1 PUSH1 0x40 DUP4 DUP6 SUB SLT ISZERO PUSH2 0x3D6D JUMPI PUSH2 0x3D6C PUSH2 0x481E JUMP JUMPDEST JUMPDEST PUSH1 0x0 DUP4 ADD CALLDATALOAD PUSH8 0xFFFFFFFFFFFFFFFF DUP2 GT ISZERO PUSH2 0x3D8B JUMPI PUSH2 0x3D8A PUSH2 0x4819 JUMP JUMPDEST JUMPDEST PUSH2 0x3D97 DUP6 DUP3 DUP7 ADD PUSH2 0x3B0F JUMP JUMPDEST SWAP3 POP POP PUSH1 0x20 PUSH2 0x3DA8 DUP6 DUP3 DUP7 ADD PUSH2 0x3AD0 JUMP JUMPDEST SWAP2 POP POP SWAP3 POP SWAP3 SWAP1 POP JUMP JUMPDEST PUSH1 0x0 DUP1 PUSH1 0x0 DUP1 PUSH1 0x80 DUP6 DUP8 SUB SLT ISZERO PUSH2 0x3DCC JUMPI PUSH2 0x3DCB PUSH2 0x481E JUMP JUMPDEST JUMPDEST PUSH1 0x0 PUSH2 0x3DDA DUP8 DUP3 DUP9 ADD PUSH2 0x3B3D JUMP JUMPDEST SWAP5 POP POP PUSH1 0x20 PUSH2 0x3DEB DUP8 DUP3 DUP9 ADD PUSH2 0x3B3D JUMP JUMPDEST SWAP4 POP POP PUSH1 0x40 PUSH2 0x3DFC DUP8 DUP3 DUP9 ADD PUSH2 0x3AD0 JUMP JUMPDEST SWAP3 POP POP PUSH1 0x60 DUP6 ADD CALLDATALOAD PUSH8 0xFFFFFFFFFFFFFFFF DUP2 GT ISZERO PUSH2 0x3E1D JUMPI PUSH2 0x3E1C PUSH2 0x4819 JUMP JUMPDEST JUMPDEST PUSH2 0x3E29 DUP8 DUP3 DUP9 ADD PUSH2 0x3B0F JUMP JUMPDEST SWAP2 POP POP SWAP3 SWAP6 SWAP2 SWAP5 POP SWAP3 POP JUMP JUMPDEST PUSH1 0x0 PUSH2 0x3E41 DUP4 DUP4 PUSH2 0x3E65 JUMP JUMPDEST PUSH1 0x20 DUP4 ADD SWAP1 POP SWAP3 SWAP2 POP POP JUMP JUMPDEST PUSH1 0x0 PUSH2 0x3E59 DUP4 DUP4 PUSH2 0x414E JUMP JUMPDEST PUSH1 0x20 DUP4 ADD SWAP1 POP SWAP3 SWAP2 POP POP JUMP JUMPDEST PUSH2 0x3E6E DUP2 PUSH2 0x45BC JUMP JUMPDEST DUP3 MSTORE POP POP JUMP JUMPDEST PUSH2 0x3E7D DUP2 PUSH2 0x45BC JUMP JUMPDEST DUP3 MSTORE POP POP JUMP JUMPDEST PUSH1 0x0 PUSH2 0x3E8E DUP3 PUSH2 0x44C4 JUMP JUMPDEST PUSH2 0x3E98 DUP2 DUP6 PUSH2 0x44FF JUMP JUMPDEST SWAP4 POP PUSH2 0x3EA3 DUP4 PUSH2 0x44A4 JUMP JUMPDEST DUP1 PUSH1 0x0 JUMPDEST DUP4 DUP2 LT ISZERO PUSH2 0x3ED4 JUMPI DUP2 MLOAD PUSH2 0x3EBB DUP9 DUP3 PUSH2 0x3E35 JUMP JUMPDEST SWAP8 POP PUSH2 0x3EC6 DUP4 PUSH2 0x44E5 JUMP JUMPDEST SWAP3 POP POP PUSH1 0x1 DUP2 ADD SWAP1 POP PUSH2 0x3EA7 JUMP JUMPDEST POP DUP6 SWAP4 POP POP POP POP SWAP3 SWAP2 POP POP JUMP JUMPDEST PUSH1 0x0 PUSH2 0x3EEC DUP3 PUSH2 0x44CF JUMP JUMPDEST PUSH2 0x3EF6 DUP2 DUP6 PUSH2 0x4510 JUMP JUMPDEST SWAP4 POP PUSH2 0x3F01 DUP4 PUSH2 0x44B4 JUMP JUMPDEST DUP1 PUSH1 0x0 JUMPDEST DUP4 DUP2 LT ISZERO PUSH2 0x3F32 JUMPI DUP2 MLOAD PUSH2 0x3F19 DUP9 DUP3 PUSH2 0x3E4D JUMP JUMPDEST SWAP8 POP PUSH2 0x3F24 DUP4 PUSH2 0x44F2 JUMP JUMPDEST SWAP3 POP POP PUSH1 0x1 DUP2 ADD SWAP1 POP PUSH2 0x3F05 JUMP JUMPDEST POP DUP6 SWAP4 POP POP POP POP SWAP3 SWAP2 POP POP JUMP JUMPDEST PUSH2 0x3F48 DUP2 PUSH2 0x4624 JUMP JUMPDEST DUP3 MSTORE POP POP JUMP JUMPDEST PUSH1 0x0 PUSH2 0x3F59 DUP3 PUSH2 0x44DA JUMP JUMPDEST PUSH2 0x3F63 DUP2 DUP6 PUSH2 0x4521 JUMP JUMPDEST SWAP4 POP PUSH2 0x3F73 DUP2 DUP6 PUSH1 0x20 DUP7 ADD PUSH2 0x4645 JUMP JUMPDEST PUSH2 0x3F7C DUP2 PUSH2 0x4823 JUMP JUMPDEST DUP5 ADD SWAP2 POP POP SWAP3 SWAP2 POP POP JUMP JUMPDEST PUSH1 0x0 PUSH2 0x3F94 PUSH1 0x2D DUP4 PUSH2 0x4521 JUMP JUMPDEST SWAP2 POP PUSH2 0x3F9F DUP3 PUSH2 0x4834 JUMP JUMPDEST PUSH1 0x40 DUP3 ADD SWAP1 POP SWAP2 SWAP1 POP JUMP JUMPDEST PUSH1 0x0 PUSH2 0x3FB7 PUSH1 0x2A DUP4 PUSH2 0x4521 JUMP JUMPDEST SWAP2 POP PUSH2 0x3FC2 DUP3 PUSH2 0x4883 JUMP JUMPDEST PUSH1 0x40 DUP3 ADD SWAP1 POP SWAP2 SWAP1 POP JUMP JUMPDEST PUSH1 0x0 PUSH2 0x3FDA PUSH1 0x28 DUP4 PUSH2 0x4521 JUMP JUMPDEST SWAP2 POP PUSH2 0x3FE5 DUP3 PUSH2 0x48D2 JUMP JUMPDEST PUSH1 0x40 DUP3 ADD SWAP1 POP SWAP2 SWAP1 POP JUMP JUMPDEST PUSH1 0x0 PUSH2 0x3FFD PUSH1 0x31 DUP4 PUSH2 0x4521 JUMP JUMPDEST SWAP2 POP PUSH2 0x4008 DUP3 PUSH2 0x4921 JUMP JUMPDEST PUSH1 0x40 DUP3 ADD SWAP1 POP SWAP2 SWAP1 POP JUMP JUMPDEST PUSH1 0x0 PUSH2 0x4020 PUSH1 0x41 DUP4 PUSH2 0x4521 JUMP JUMPDEST SWAP2 POP PUSH2 0x402B DUP3 PUSH2 0x4970 JUMP JUMPDEST PUSH1 0x60 DUP3 ADD SWAP1 POP SWAP2 SWAP1 POP JUMP JUMPDEST PUSH1 0x0 PUSH2 0x4043 PUSH1 0x3E DUP4 PUSH2 0x4521 JUMP JUMPDEST SWAP2 POP PUSH2 0x404E DUP3 PUSH2 0x49E5 JUMP JUMPDEST PUSH1 0x40 DUP3 ADD SWAP1 POP SWAP2 SWAP1 POP JUMP JUMPDEST PUSH1 0x0 PUSH2 0x4066 PUSH1 0x23 DUP4 PUSH2 0x4521 JUMP JUMPDEST SWAP2 POP PUSH2 0x4071 DUP3 PUSH2 0x4A34 JUMP JUMPDEST PUSH1 0x40 DUP3 ADD SWAP1 POP SWAP2 SWAP1 POP JUMP JUMPDEST PUSH1 0x0 PUSH2 0x4089 PUSH1 0x15 DUP4 PUSH2 0x4521 JUMP JUMPDEST SWAP2 POP PUSH2 0x4094 DUP3 PUSH2 0x4A83 JUMP JUMPDEST PUSH1 0x20 DUP3 ADD SWAP1 POP SWAP2 SWAP1 POP JUMP JUMPDEST PUSH1 0x0 PUSH2 0x40AC PUSH1 0x25 DUP4 PUSH2 0x4521 JUMP JUMPDEST SWAP2 POP PUSH2 0x40B7 DUP3 PUSH2 0x4AAC JUMP JUMPDEST PUSH1 0x40 DUP3 ADD SWAP1 POP SWAP2 SWAP1 POP JUMP JUMPDEST PUSH1 0x0 PUSH2 0x40CF PUSH1 0x28 DUP4 PUSH2 0x4521 JUMP JUMPDEST SWAP2 POP PUSH2 0x40DA DUP3 PUSH2 0x4AFB JUMP JUMPDEST PUSH1 0x40 DUP3 ADD SWAP1 POP SWAP2 SWAP1 POP JUMP JUMPDEST PUSH1 0x0 PUSH2 0x40F2 PUSH1 0x20 DUP4 PUSH2 0x4521 JUMP JUMPDEST SWAP2 POP PUSH2 0x40FD DUP3 PUSH2 0x4B4A JUMP JUMPDEST PUSH1 0x20 DUP3 ADD SWAP1 POP SWAP2 SWAP1 POP JUMP JUMPDEST PUSH1 0x0 PUSH2 0x4115 PUSH1 0x2A DUP4 PUSH2 0x4521 JUMP JUMPDEST SWAP2 POP PUSH2 0x4120 DUP3 PUSH2 0x4B73 JUMP JUMPDEST PUSH1 0x40 DUP3 ADD SWAP1 POP SWAP2 SWAP1 POP JUMP JUMPDEST PUSH1 0x0 PUSH2 0x4138 PUSH1 0x2C DUP4 PUSH2 0x4521 JUMP JUMPDEST SWAP2 POP PUSH2 0x4143 DUP3 PUSH2 0x4BC2 JUMP JUMPDEST PUSH1 0x40 DUP3 ADD SWAP1 POP SWAP2 SWAP1 POP JUMP JUMPDEST PUSH2 0x4157 DUP2 PUSH2 0x460D JUMP JUMPDEST DUP3 MSTORE POP POP JUMP JUMPDEST PUSH2 0x4166 DUP2 PUSH2 0x460D JUMP JUMPDEST DUP3 MSTORE POP POP JUMP JUMPDEST PUSH1 0x0 PUSH1 0x20 DUP3 ADD SWAP1 POP PUSH2 0x4181 PUSH1 0x0 DUP4 ADD DUP5 PUSH2 0x3E74 JUMP JUMPDEST SWAP3 SWAP2 POP POP JUMP JUMPDEST PUSH1 0x0 PUSH1 0x60 DUP3 ADD SWAP1 POP PUSH2 0x419C PUSH1 0x0 DUP4 ADD DUP7 PUSH2 0x3E74 JUMP JUMPDEST PUSH2 0x41A9 PUSH1 0x20 DUP4 ADD DUP6 PUSH2 0x3E74 JUMP JUMPDEST PUSH2 0x41B6 PUSH1 0x40 DUP4 ADD DUP5 PUSH2 0x3F3F JUMP JUMPDEST SWAP5 SWAP4 POP POP POP POP JUMP JUMPDEST PUSH1 0x0 PUSH1 0x80 DUP3 ADD SWAP1 POP DUP2 DUP2 SUB PUSH1 0x0 DUP4 ADD MSTORE PUSH2 0x41D8 DUP2 DUP8 PUSH2 0x3E83 JUMP JUMPDEST SWAP1 POP DUP2 DUP2 SUB PUSH1 0x20 DUP4 ADD MSTORE PUSH2 0x41EC DUP2 DUP7 PUSH2 0x3EE1 JUMP JUMPDEST SWAP1 POP DUP2 DUP2 SUB PUSH1 0x40 DUP4 ADD MSTORE PUSH2 0x4200 DUP2 DUP6 PUSH2 0x3EE1 JUMP JUMPDEST SWAP1 POP DUP2 DUP2 SUB PUSH1 0x60 DUP4 ADD MSTORE PUSH2 0x4214 DUP2 DUP5 PUSH2 0x3EE1 JUMP JUMPDEST SWAP1 POP SWAP6 SWAP5 POP POP POP POP POP JUMP JUMPDEST PUSH1 0x0 PUSH1 0x20 DUP3 ADD SWAP1 POP PUSH2 0x4234 PUSH1 0x0 DUP4 ADD DUP5 PUSH2 0x3F3F JUMP JUMPDEST SWAP3 SWAP2 POP POP JUMP JUMPDEST PUSH1 0x0 PUSH1 0x20 DUP3 ADD SWAP1 POP DUP2 DUP2 SUB PUSH1 0x0 DUP4 ADD MSTORE PUSH2 0x4254 DUP2 DUP5 PUSH2 0x3F4E JUMP JUMPDEST SWAP1 POP SWAP3 SWAP2 POP POP JUMP JUMPDEST PUSH1 0x0 PUSH1 0x20 DUP3 ADD SWAP1 POP DUP2 DUP2 SUB PUSH1 0x0 DUP4 ADD MSTORE PUSH2 0x4275 DUP2 PUSH2 0x3F87 JUMP JUMPDEST SWAP1 POP SWAP2 SWAP1 POP JUMP JUMPDEST PUSH1 0x0 PUSH1 0x20 DUP3 ADD SWAP1 POP DUP2 DUP2 SUB PUSH1 0x0 DUP4 ADD MSTORE PUSH2 0x4295 DUP2 PUSH2 0x3FAA JUMP JUMPDEST SWAP1 POP SWAP2 SWAP1 POP JUMP JUMPDEST PUSH1 0x0 PUSH1 0x20 DUP3 ADD SWAP1 POP DUP2 DUP2 SUB PUSH1 0x0 DUP4 ADD MSTORE PUSH2 0x42B5 DUP2 PUSH2 0x3FCD JUMP JUMPDEST SWAP1 POP SWAP2 SWAP1 POP JUMP JUMPDEST PUSH1 0x0 PUSH1 0x20 DUP3 ADD SWAP1 POP DUP2 DUP2 SUB PUSH1 0x0 DUP4 ADD MSTORE PUSH2 0x42D5 DUP2 PUSH2 0x3FF0 JUMP JUMPDEST SWAP1 POP SWAP2 SWAP1 POP JUMP JUMPDEST PUSH1 0x0 PUSH1 0x20 DUP3 ADD SWAP1 POP DUP2 DUP2 SUB PUSH1 0x0 DUP4 ADD MSTORE PUSH2 0x42F5 DUP2 PUSH2 0x4013 JUMP JUMPDEST SWAP1 POP SWAP2 SWAP1 POP JUMP JUMPDEST PUSH1 0x0 PUSH1 0x20 DUP3 ADD SWAP1 POP DUP2 DUP2 SUB PUSH1 0x0 DUP4 ADD MSTORE PUSH2 0x4315 DUP2 PUSH2 0x4036 JUMP JUMPDEST SWAP1 POP SWAP2 SWAP1 POP JUMP JUMPDEST PUSH1 0x0 PUSH1 0x20 DUP3 ADD SWAP1 POP DUP2 DUP2 SUB PUSH1 0x0 DUP4 ADD MSTORE PUSH2 0x4335 DUP2 PUSH2 0x4059 JUMP JUMPDEST SWAP1 POP SWAP2 SWAP1 POP JUMP JUMPDEST PUSH1 0x0 PUSH1 0x20 DUP3 ADD SWAP1 POP DUP2 DUP2 SUB PUSH1 0x0 DUP4 ADD MSTORE PUSH2 0x4355 DUP2 PUSH2 0x407C JUMP JUMPDEST SWAP1 POP SWAP2 SWAP1 POP JUMP JUMPDEST PUSH1 0x0 PUSH1 0x20 DUP3 ADD SWAP1 POP DUP2 DUP2 SUB PUSH1 0x0 DUP4 ADD MSTORE PUSH2 0x4375 DUP2 PUSH2 0x409F JUMP JUMPDEST SWAP1 POP SWAP2 SWAP1 POP JUMP JUMPDEST PUSH1 0x0 PUSH1 0x20 DUP3 ADD SWAP1 POP DUP2 DUP2 SUB PUSH1 0x0 DUP4 ADD MSTORE PUSH2 0x4395 DUP2 PUSH2 0x40C2 JUMP JUMPDEST SWAP1 POP SWAP2 SWAP1 POP JUMP JUMPDEST PUSH1 0x0 PUSH1 0x20 DUP3 ADD SWAP1 POP DUP2 DUP2 SUB PUSH1 0x0 DUP4 ADD MSTORE PUSH2 0x43B5 DUP2 PUSH2 0x40E5 JUMP JUMPDEST SWAP1 POP SWAP2 SWAP1 POP JUMP JUMPDEST PUSH1 0x0 PUSH1 0x20 DUP3 ADD SWAP1 POP DUP2 DUP2 SUB PUSH1 0x0 DUP4 ADD MSTORE PUSH2 0x43D5 DUP2 PUSH2 0x4108 JUMP JUMPDEST SWAP1 POP SWAP2 SWAP1 POP JUMP JUMPDEST PUSH1 0x0 PUSH1 0x20 DUP3 ADD SWAP1 POP DUP2 DUP2 SUB PUSH1 0x0 DUP4 ADD MSTORE PUSH2 0x43F5 DUP2 PUSH2 0x412B JUMP JUMPDEST SWAP1 POP SWAP2 SWAP1 POP JUMP JUMPDEST PUSH1 0x0 PUSH1 0x20 DUP3 ADD SWAP1 POP PUSH2 0x4411 PUSH1 0x0 DUP4 ADD DUP5 PUSH2 0x415D JUMP JUMPDEST SWAP3 SWAP2 POP POP JUMP JUMPDEST PUSH1 0x0 PUSH1 0x60 DUP3 ADD SWAP1 POP PUSH2 0x442C PUSH1 0x0 DUP4 ADD DUP7 PUSH2 0x415D JUMP JUMPDEST PUSH2 0x4439 PUSH1 0x20 DUP4 ADD DUP6 PUSH2 0x415D JUMP JUMPDEST PUSH2 0x4446 PUSH1 0x40 DUP4 ADD DUP5 PUSH2 0x415D JUMP JUMPDEST SWAP5 SWAP4 POP POP POP POP JUMP JUMPDEST PUSH1 0x0 PUSH2 0x4458 PUSH2 0x4469 JUMP JUMPDEST SWAP1 POP PUSH2 0x4464 DUP3 DUP3 PUSH2 0x46AA JUMP JUMPDEST SWAP2 SWAP1 POP JUMP JUMPDEST PUSH1 0x0 PUSH1 0x40 MLOAD SWAP1 POP SWAP1 JUMP JUMPDEST PUSH1 0x0 PUSH8 0xFFFFFFFFFFFFFFFF DUP3 GT ISZERO PUSH2 0x448E JUMPI PUSH2 0x448D PUSH2 0x47E0 JUMP JUMPDEST JUMPDEST PUSH2 0x4497 DUP3 PUSH2 0x4823 JUMP JUMPDEST SWAP1 POP PUSH1 0x20 DUP2 ADD SWAP1 POP SWAP2 SWAP1 POP JUMP JUMPDEST PUSH1 0x0 DUP2 SWAP1 POP PUSH1 0x20 DUP3 ADD SWAP1 POP SWAP2 SWAP1 POP JUMP JUMPDEST PUSH1 0x0 DUP2 SWAP1 POP PUSH1 0x20 DUP3 ADD SWAP1 POP SWAP2 SWAP1 POP JUMP JUMPDEST PUSH1 0x0 DUP2 MLOAD SWAP1 POP SWAP2 SWAP1 POP JUMP JUMPDEST PUSH1 0x0 DUP2 MLOAD SWAP1 POP SWAP2 SWAP1 POP JUMP JUMPDEST PUSH1 0x0 DUP2 MLOAD SWAP1 POP SWAP2 SWAP1 POP JUMP JUMPDEST PUSH1 0x0 PUSH1 0x20 DUP3 ADD SWAP1 POP SWAP2 SWAP1 POP JUMP JUMPDEST PUSH1 0x0 PUSH1 0x20 DUP3 ADD SWAP1 POP SWAP2 SWAP1 POP JUMP JUMPDEST PUSH1 0x0 DUP3 DUP3 MSTORE PUSH1 0x20 DUP3 ADD SWAP1 POP SWAP3 SWAP2 POP POP JUMP JUMPDEST PUSH1 0x0 DUP3 DUP3 MSTORE PUSH1 0x20 DUP3 ADD SWAP1 POP SWAP3 SWAP2 POP POP JUMP JUMPDEST PUSH1 0x0 DUP3 DUP3 MSTORE PUSH1 0x20 DUP3 ADD SWAP1 POP SWAP3 SWAP2 POP POP JUMP JUMPDEST PUSH1 0x0 PUSH2 0x453D DUP3 PUSH2 0x460D JUMP JUMPDEST SWAP2 POP PUSH2 0x4548 DUP4 PUSH2 0x460D JUMP JUMPDEST SWAP3 POP DUP3 PUSH32 0xFFFFFFFFFFFFFFFFFFFFFFFFFFFFFFFFFFFFFFFFFFFFFFFFFFFFFFFFFFFFFFFF SUB DUP3 GT ISZERO PUSH2 0x457D JUMPI PUSH2 0x457C PUSH2 0x4724 JUMP JUMPDEST JUMPDEST DUP3 DUP3 ADD SWAP1 POP SWAP3 SWAP2 POP POP JUMP JUMPDEST PUSH1 0x0 PUSH2 0x4593 DUP3 PUSH2 0x460D JUMP JUMPDEST SWAP2 POP PUSH2 0x459E DUP4 PUSH2 0x460D JUMP JUMPDEST SWAP3 POP DUP3 DUP3 LT ISZERO PUSH2 0x45B1 JUMPI PUSH2 0x45B0 PUSH2 0x4724 JUMP JUMPDEST JUMPDEST DUP3 DUP3 SUB SWAP1 POP SWAP3 SWAP2 POP POP JUMP JUMPDEST PUSH1 0x0 PUSH2 0x45C7 DUP3 PUSH2 0x45ED JUMP JUMPDEST SWAP1 POP SWAP2 SWAP1 POP JUMP JUMPDEST PUSH1 0x0 DUP2 ISZERO ISZERO SWAP1 POP SWAP2 SWAP1 POP JUMP JUMPDEST PUSH1 0x0 DUP2 SWAP1 POP PUSH2 0x45E8 DUP3 PUSH2 0x4C11 JUMP JUMPDEST SWAP2 SWAP1 POP JUMP JUMPDEST PUSH1 0x0 PUSH20 0xFFFFFFFFFFFFFFFFFFFFFFFFFFFFFFFFFFFFFFFF DUP3 AND SWAP1 POP SWAP2 SWAP1 POP JUMP JUMPDEST PUSH1 0x0 DUP2 SWAP1 POP SWAP2 SWAP1 POP JUMP JUMPDEST PUSH1 0x0 PUSH1 0xFF DUP3 AND SWAP1 POP SWAP2 SWAP1 POP JUMP JUMPDEST PUSH1 0x0 PUSH2 0x462F DUP3 PUSH2 0x45DA JUMP JUMPDEST SWAP1 POP SWAP2 SWAP1 POP JUMP JUMPDEST DUP3 DUP2 DUP4 CALLDATACOPY PUSH1 0x0 DUP4 DUP4 ADD MSTORE POP POP POP JUMP JUMPDEST PUSH1 0x0 JUMPDEST DUP4 DUP2 LT ISZERO PUSH2 0x4663 JUMPI DUP1 DUP3 ADD MLOAD DUP2 DUP5 ADD MSTORE PUSH1 0x20 DUP2 ADD SWAP1 POP PUSH2 0x4648 JUMP JUMPDEST DUP4 DUP2 GT ISZERO PUSH2 0x4672 JUMPI PUSH1 0x0 DUP5 DUP5 ADD MSTORE JUMPDEST POP POP POP POP JUMP JUMPDEST PUSH1 0x0 PUSH1 0x2 DUP3 DIV SWAP1 POP PUSH1 0x1 DUP3 AND DUP1 PUSH2 0x4690 JUMPI PUSH1 0x7F DUP3 AND SWAP2 POP JUMPDEST PUSH1 0x20 DUP3 LT DUP2 EQ ISZERO PUSH2 0x46A4 JUMPI PUSH2 0x46A3 PUSH2 0x4782 JUMP JUMPDEST JUMPDEST POP SWAP2 SWAP1 POP JUMP JUMPDEST PUSH2 0x46B3 DUP3 PUSH2 0x4823 JUMP JUMPDEST DUP2 ADD DUP2 DUP2 LT PUSH8 0xFFFFFFFFFFFFFFFF DUP3 GT OR ISZERO PUSH2 0x46D2 JUMPI PUSH2 0x46D1 PUSH2 0x47E0 JUMP JUMPDEST JUMPDEST DUP1 PUSH1 0x40 MSTORE POP POP POP JUMP JUMPDEST PUSH1 0x0 PUSH2 0x46E6 DUP3 PUSH2 0x460D JUMP JUMPDEST SWAP2 POP PUSH32 0xFFFFFFFFFFFFFFFFFFFFFFFFFFFFFFFFFFFFFFFFFFFFFFFFFFFFFFFFFFFFFFFF DUP3 EQ ISZERO PUSH2 0x4719 JUMPI PUSH2 0x4718 PUSH2 0x4724 JUMP JUMPDEST JUMPDEST PUSH1 0x1 DUP3 ADD SWAP1 POP SWAP2 SWAP1 POP JUMP JUMPDEST PUSH32 0x4E487B7100000000000000000000000000000000000000000000000000000000 PUSH1 0x0 MSTORE PUSH1 0x11 PUSH1 0x4 MSTORE PUSH1 0x24 PUSH1 0x0 REVERT JUMPDEST PUSH32 0x4E487B7100000000000000000000000000000000000000000000000000000000 PUSH1 0x0 MSTORE PUSH1 0x21 PUSH1 0x4 MSTORE PUSH1 0x24 PUSH1 0x0 REVERT JUMPDEST PUSH32 0x4E487B7100000000000000000000000000000000000000000000000000000000 PUSH1 0x0 MSTORE PUSH1 0x22 PUSH1 0x4 MSTORE PUSH1 0x24 PUSH1 0x0 REVERT JUMPDEST PUSH32 0x4E487B7100000000000000000000000000000000000000000000000000000000 PUSH1 0x0 MSTORE PUSH1 0x32 PUSH1 0x4 MSTORE PUSH1 0x24 PUSH1 0x0 REVERT JUMPDEST PUSH32 0x4E487B7100000000000000000000000000000000000000000000000000000000 PUSH1 0x0 MSTORE PUSH1 0x41 PUSH1 0x4 MSTORE PUSH1 0x24 PUSH1 0x0 REVERT JUMPDEST PUSH1 0x0 DUP1 REVERT JUMPDEST PUSH1 0x0 DUP1 REVERT JUMPDEST PUSH1 0x0 DUP1 REVERT JUMPDEST PUSH1 0x0 DUP1 REVERT JUMPDEST PUSH1 0x0 PUSH1 0x1F NOT PUSH1 0x1F DUP4 ADD AND SWAP1 POP SWAP2 SWAP1 POP JUMP JUMPDEST PUSH32 0x4E6F2070726F6A6563747320617661696C61626C6520666F7220616363657074 PUSH1 0x0 DUP3 ADD MSTORE PUSH32 0x696E6720646F6E6174696F6E7300000000000000000000000000000000000000 PUSH1 0x20 DUP3 ADD MSTORE POP JUMP JUMPDEST PUSH32 0x596F757220636F6E747269627574696F6E206578636565647320726571756972 PUSH1 0x0 DUP3 ADD MSTORE PUSH32 0x656420616D6F756E742E00000000000000000000000000000000000000000000 PUSH1 0x20 DUP3 ADD MSTORE POP JUMP JUMPDEST PUSH32 0x596F7520686176656E277420636F6E747269627574656420666F722074686973 PUSH1 0x0 DUP3 ADD MSTORE PUSH32 0x2070726F6A656374000000000000000000000000000000000000000000000000 PUSH1 0x20 DUP3 ADD MSTORE POP JUMP JUMPDEST PUSH32 0x53686F756C642062652067726561746572207468616E206F7220657175616C20 PUSH1 0x0 DUP3 ADD MSTORE PUSH32 0x746F206D696E696D756D20616D6F756E74000000000000000000000000000000 PUSH1 0x20 DUP3 ADD MSTORE POP JUMP JUMPDEST PUSH32 0x43616E277420726566756E642061732065786368616E67652072657175657374 PUSH1 0x0 DUP3 ADD MSTORE PUSH32 0x2077617320616C726561647920696E69746961746564207769746820626F6172 PUSH1 0x20 DUP3 ADD MSTORE PUSH32 0x6400000000000000000000000000000000000000000000000000000000000000 PUSH1 0x40 DUP3 ADD MSTORE POP JUMP JUMPDEST PUSH32 0x43616E277420726566756E642061732065786368616E67652072657175657374 PUSH1 0x0 DUP3 ADD MSTORE PUSH32 0x20776173206E6F742072656A65637465642062792074686520626F6172640000 PUSH1 0x20 DUP3 ADD MSTORE POP JUMP JUMPDEST PUSH32 0x4E6F2070726F6A65637420657869737420756E64657220746869732063686172 PUSH1 0x0 DUP3 ADD MSTORE PUSH32 0x6974790000000000000000000000000000000000000000000000000000000000 PUSH1 0x20 DUP3 ADD MSTORE POP JUMP JUMPDEST PUSH32 0x4368617269747920646F65736E27742065786973740000000000000000000000 PUSH1 0x0 DUP3 ADD MSTORE POP JUMP JUMPDEST PUSH32 0x4E6F2070726F6A65637420657869737420756E64657220746869732070726F6A PUSH1 0x0 DUP3 ADD MSTORE PUSH32 0x6563744964000000000000000000000000000000000000000000000000000000 PUSH1 0x20 DUP3 ADD MSTORE POP JUMP JUMPDEST PUSH32 0x4E6F20737563682070726F6A65637420657869737420756E6465722074686973 PUSH1 0x0 DUP3 ADD MSTORE PUSH32 0x2063686172697479000000000000000000000000000000000000000000000000 PUSH1 0x20 DUP3 ADD MSTORE POP JUMP JUMPDEST PUSH32 0x546869732063686172697479206973206E6F742079657420617070726F766564 PUSH1 0x0 DUP3 ADD MSTORE POP JUMP JUMPDEST PUSH32 0x596F7520646F6E74277420686176652073756666696369656E742066756E6473 PUSH1 0x0 DUP3 ADD MSTORE PUSH32 0x20746F20646F6E61746500000000000000000000000000000000000000000000 PUSH1 0x20 DUP3 ADD MSTORE POP JUMP JUMPDEST PUSH32 0x4E6F206D6F726520646F6E6174696F6E7320616363657074656420666F722074 PUSH1 0x0 DUP3 ADD MSTORE PUSH32 0x6869732070726F6A6563742E0000000000000000000000000000000000000000 PUSH1 0x20 DUP3 ADD MSTORE POP JUMP JUMPDEST PUSH1 0xA DUP2 LT PUSH2 0x4C22 JUMPI PUSH2 0x4C21 PUSH2 0x4753 JUMP JUMPDEST JUMPDEST POP JUMP JUMPDEST PUSH2 0x4C2E DUP2 PUSH2 0x45BC JUMP JUMPDEST DUP2 EQ PUSH2 0x4C39 JUMPI PUSH1 0x0 DUP1 REVERT JUMPDEST POP JUMP JUMPDEST PUSH2 0x4C45 DUP2 PUSH2 0x45CE JUMP JUMPDEST DUP2 EQ PUSH2 0x4C50 JUMPI PUSH1 0x0 DUP1 REVERT JUMPDEST POP JUMP JUMPDEST PUSH1 0xA DUP2 LT PUSH2 0x4C60 JUMPI PUSH1 0x0 DUP1 REVERT JUMPDEST POP JUMP JUMPDEST PUSH2 0x4C6C DUP2 PUSH2 0x460D JUMP JUMPDEST DUP2 EQ PUSH2 0x4C77 JUMPI PUSH1 0x0 DUP1 REVERT JUMPDEST POP JUMP JUMPDEST PUSH2 0x4C83 DUP2 PUSH2 0x4617 JUMP JUMPDEST DUP2 EQ PUSH2 0x4C8E JUMPI PUSH1 0x0 DUP1 REVERT JUMPDEST POP JUMP INVALID SLOAD PUSH9 0x6973206F7065726174 PUSH10 0x6F6E2063616E20626520 PUSH17 0x6572666F726D6564206F6E6C7920627920 TIMESTAMP PUSH16 0x6172642061646D696E596F7520617265 KECCAK256 PUSH15 0x6F7420617574686F72697A65642074 PUSH16 0x20757064617465207769746820746869 PUSH20 0x2073746174757354686973206F7065726174696F PUSH15 0x2063616E20626520706572666F726D PUSH6 0x64206F6E6C79 KECCAK256 PUSH3 0x792043 PUSH9 0x6172697479A2646970 PUSH7 0x73582212205D02 CALLER 0x2E GASLIMIT SWAP15 0xD5 0x21 0xE0 PUSH1 0x6B 0x4F 0x5D MOD PUSH13 0x280A72D598E24D35F0381394B2 0x23 0x22 0xBB 0x1F PUSH5 0x736F6C6343 STOP ADDMOD SMOD STOP CALLER "
		},
		"gasEstimates": {
			"creation": {
				"codeDepositCost": "3960400",
				"executionCost": "infinite",
				"totalCost": "infinite"
			},
			"external": {
				"boardAdmin()": "2603",
				"createCharity(string,address)": "infinite",
				"createProject(uint256,uint256,address,string)": "infinite",
				"donate(address,address)": "infinite",
				"getDonorBalance(address,address,address)": "infinite",
				"getProjectFundDetails(address,address)": "infinite",
				"getProjectListByCharity(address)": "infinite",
				"getProjectOwnerBalance(address,address)": "infinite",
				"getProjectStatus(address,address)": "infinite",
				"getRefund(address,address)": "infinite",
				"projectStatus()": "2606",
				"projectStatuses(uint8)": "infinite",
				"updateCharityStatus(address,bool,string)": "infinite",
				"updateProjectStatusByAdmin(address,address,uint8)": "infinite",
				"updateProjectStatusByCharity(address,uint8)": "infinite"
			},
			"internal": {
				"refundToAllDonors(address,address)": "infinite",
				"transferToReceiver(address,address)": "infinite"
			}
		},
		"methodIdentifiers": {
			"boardAdmin()": "b61a7f76",
			"createCharity(string,address)": "864ee384",
			"createProject(uint256,uint256,address,string)": "5c3be951",
			"donate(address,address)": "21bea7cc",
			"getDonorBalance(address,address,address)": "ca76973d",
			"getProjectFundDetails(address,address)": "bfda08a3",
			"getProjectListByCharity(address)": "c4529ab9",
			"getProjectOwnerBalance(address,address)": "9238cf4e",
			"getProjectStatus(address,address)": "42ef4bcc",
			"getRefund(address,address)": "9df9b0e6",
			"projectStatus()": "1ab33308",
			"projectStatuses(uint8)": "ef6add32",
			"updateCharityStatus(address,bool,string)": "ab6b8564",
			"updateProjectStatusByAdmin(address,address,uint8)": "44e54812",
			"updateProjectStatusByCharity(address,uint8)": "0ee3b93d"
		}
	},
	"abi": [
		{
			"inputs": [],
			"stateMutability": "nonpayable",
			"type": "constructor"
		},
		{
			"anonymous": false,
			"inputs": [
				{
					"indexed": false,
					"internalType": "address",
					"name": "charityAddress",
					"type": "address"
				},
				{
					"indexed": false,
					"internalType": "address",
					"name": "projectAddress",
					"type": "address"
				},
				{
					"indexed": false,
					"internalType": "enum CrowdFund.ProjectStatus",
					"name": "projectStatus",
					"type": "uint8"
				}
			],
			"name": "BoardMessageToCharity",
			"type": "event"
		},
		{
			"anonymous": false,
			"inputs": [
				{
					"indexed": false,
					"internalType": "address",
					"name": "charityAddress",
					"type": "address"
				},
				{
					"indexed": false,
					"internalType": "address",
					"name": "projectAddress",
					"type": "address"
				},
				{
					"indexed": false,
					"internalType": "enum CrowdFund.ProjectStatus",
					"name": "projectStatus",
					"type": "uint8"
				}
			],
			"name": "CharityMessageToBoard",
			"type": "event"
		},
		{
			"anonymous": false,
			"inputs": [
				{
					"indexed": false,
					"internalType": "address",
					"name": "charityAddress",
					"type": "address"
				},
				{
					"indexed": false,
					"internalType": "address",
					"name": "projectAddress",
					"type": "address"
				},
				{
					"indexed": false,
					"internalType": "enum CrowdFund.ProjectStatus",
					"name": "projectStatus",
					"type": "uint8"
				}
			],
			"name": "CharityMessageToDonor",
			"type": "event"
		},
		{
			"anonymous": false,
			"inputs": [
				{
					"indexed": false,
					"internalType": "address",
					"name": "charityAddress",
					"type": "address"
				},
				{
					"indexed": false,
					"internalType": "address",
					"name": "projectAddress",
					"type": "address"
				},
				{
					"indexed": false,
					"internalType": "enum CrowdFund.ProjectStatus",
					"name": "projectStatus",
					"type": "uint8"
				}
			],
			"name": "CharityMessageToReceiver",
			"type": "event"
		},
		{
			"anonymous": false,
			"inputs": [
				{
					"indexed": false,
					"internalType": "address",
					"name": "charityAddress",
					"type": "address"
				},
				{
					"indexed": false,
					"internalType": "address",
					"name": "projectAddress",
					"type": "address"
				},
				{
					"indexed": false,
					"internalType": "enum CrowdFund.ProjectStatus",
					"name": "projectStatus",
					"type": "uint8"
				}
			],
			"name": "ReceiverMessageToCharity",
			"type": "event"
		},
		{
			"inputs": [],
			"name": "boardAdmin",
			"outputs": [
				{
					"internalType": "address",
					"name": "",
					"type": "address"
				}
			],
			"stateMutability": "view",
			"type": "function"
		},
		{
			"inputs": [
				{
					"internalType": "string",
					"name": "_licenseDocsLink",
					"type": "string"
				},
				{
					"internalType": "address",
					"name": "owner",
					"type": "address"
				}
			],
			"name": "createCharity",
			"outputs": [],
			"stateMutability": "nonpayable",
			"type": "function"
		},
		{
			"inputs": [
				{
					"internalType": "uint256",
					"name": "_minimumAmount",
					"type": "uint256"
				},
				{
					"internalType": "uint256",
					"name": "_goal",
					"type": "uint256"
				},
				{
					"internalType": "address",
					"name": "owner",
					"type": "address"
				},
				{
					"internalType": "string",
					"name": "_documentLink",
					"type": "string"
				}
			],
			"name": "createProject",
			"outputs": [],
			"stateMutability": "nonpayable",
			"type": "function"
		},
		{
			"inputs": [
				{
					"internalType": "address",
					"name": "charityAddress",
					"type": "address"
				},
				{
					"internalType": "address",
					"name": "projectAddress",
					"type": "address"
				}
			],
			"name": "donate",
			"outputs": [],
			"stateMutability": "payable",
			"type": "function"
		},
		{
			"inputs": [
				{
					"internalType": "address",
					"name": "charityAddress",
					"type": "address"
				},
				{
					"internalType": "address",
					"name": "projectAddress",
					"type": "address"
				},
				{
					"internalType": "address",
					"name": "donorAddress",
					"type": "address"
				}
			],
			"name": "getDonorBalance",
			"outputs": [
				{
					"internalType": "uint256",
					"name": "",
					"type": "uint256"
				}
			],
			"stateMutability": "view",
			"type": "function"
		},
		{
			"inputs": [
				{
					"internalType": "address",
					"name": "charityAddress",
					"type": "address"
				},
				{
					"internalType": "address",
					"name": "projectAddress",
					"type": "address"
				}
			],
			"name": "getProjectFundDetails",
			"outputs": [
				{
					"internalType": "uint256",
					"name": "",
					"type": "uint256"
				},
				{
					"internalType": "uint256",
					"name": "",
					"type": "uint256"
				},
				{
					"internalType": "uint256",
					"name": "",
					"type": "uint256"
				}
			],
			"stateMutability": "view",
			"type": "function"
		},
		{
			"inputs": [
				{
					"internalType": "address",
					"name": "charityAddress",
					"type": "address"
				}
			],
			"name": "getProjectListByCharity",
			"outputs": [
				{
					"internalType": "address[]",
					"name": "_projectAddresses",
					"type": "address[]"
				},
				{
					"internalType": "uint256[]",
					"name": "_minimumAmounts",
					"type": "uint256[]"
				},
				{
					"internalType": "uint256[]",
					"name": "_goals",
					"type": "uint256[]"
				},
				{
					"internalType": "uint256[]",
					"name": "_raisedAmounts",
					"type": "uint256[]"
				}
			],
			"stateMutability": "view",
			"type": "function"
		},
		{
			"inputs": [
				{
					"internalType": "address",
					"name": "charityAddress",
					"type": "address"
				},
				{
					"internalType": "address",
					"name": "projectAddress",
					"type": "address"
				}
			],
			"name": "getProjectOwnerBalance",
			"outputs": [
				{
					"internalType": "uint256",
					"name": "",
					"type": "uint256"
				}
			],
			"stateMutability": "view",
			"type": "function"
		},
		{
			"inputs": [
				{
					"internalType": "address",
					"name": "charityAddress",
					"type": "address"
				},
				{
					"internalType": "address",
					"name": "projectAddress",
					"type": "address"
				}
			],
			"name": "getProjectStatus",
			"outputs": [
				{
					"internalType": "string",
					"name": "",
					"type": "string"
				}
			],
			"stateMutability": "view",
			"type": "function"
		},
		{
			"inputs": [
				{
					"internalType": "address",
					"name": "charityAddress",
					"type": "address"
				},
				{
					"internalType": "address",
					"name": "projectAddress",
					"type": "address"
				}
			],
			"name": "getRefund",
			"outputs": [],
			"stateMutability": "nonpayable",
			"type": "function"
		},
		{
			"inputs": [],
			"name": "projectStatus",
			"outputs": [
				{
					"internalType": "enum CrowdFund.ProjectStatus",
					"name": "",
					"type": "uint8"
				}
			],
			"stateMutability": "view",
			"type": "function"
		},
		{
			"inputs": [
				{
					"internalType": "enum CrowdFund.ProjectStatus",
					"name": "",
					"type": "uint8"
				}
			],
			"name": "projectStatuses",
			"outputs": [
				{
					"internalType": "string",
					"name": "",
					"type": "string"
				}
			],
			"stateMutability": "view",
			"type": "function"
		},
		{
			"inputs": [
				{
					"internalType": "address",
					"name": "charityAddress",
					"type": "address"
				},
				{
					"internalType": "bool",
					"name": "status",
					"type": "bool"
				},
				{
					"internalType": "string",
					"name": "reason",
					"type": "string"
				}
			],
			"name": "updateCharityStatus",
			"outputs": [],
			"stateMutability": "nonpayable",
			"type": "function"
		},
		{
			"inputs": [
				{
					"internalType": "address",
					"name": "charityAddress",
					"type": "address"
				},
				{
					"internalType": "address",
					"name": "projectAddress",
					"type": "address"
				},
				{
					"internalType": "uint8",
					"name": "enumValue",
					"type": "uint8"
				}
			],
			"name": "updateProjectStatusByAdmin",
			"outputs": [],
			"stateMutability": "nonpayable",
			"type": "function"
		},
		{
			"inputs": [
				{
					"internalType": "address",
					"name": "projectAddress",
					"type": "address"
				},
				{
					"internalType": "uint8",
					"name": "enumValue",
					"type": "uint8"
				}
			],
			"name": "updateProjectStatusByCharity",
			"outputs": [],
			"stateMutability": "nonpayable",
			"type": "function"
		}
	]
}