{
	"data": {
		"bytecode": {
			"linkReferences": {},
			"object": "60806040523480156200001157600080fd5b5033600260006101000a81548173ffffffffffffffffffffffffffffffffffffffff021916908373ffffffffffffffffffffffffffffffffffffffff1602179055506040518060400160405280601481526020017f57616974696e6720666f7220617070726f76616c00000000000000000000000081525060076000806009811115620000a357620000a2620006a1565b5b6009811115620000b857620000b7620006a1565b5b81526020019081526020016000209080519060200190620000db929190620005bb565b506040518060400160405280600881526020017f417070726f76656400000000000000000000000000000000000000000000000081525060076000600260098111156200012d576200012c620006a1565b5b6009811115620001425762000141620006a1565b5b8152602001908152602001600020908051906020019062000165929190620005bb565b506040518060400160405280601381526020017f52656a65637465642062792063686172697479000000000000000000000000008152506007600060016009811115620001b757620001b6620006a1565b5b6009811115620001cc57620001cb620006a1565b5b81526020019081526020016000209080519060200190620001ef929190620005bb565b506040518060400160405280601581526020017f50726f6a65637420676f616c20616368696576656400000000000000000000008152506007600060036009811115620002415762000240620006a1565b5b6009811115620002565762000255620006a1565b5b8152602001908152602001600020908051906020019062000279929190620005bb565b506040518060400160405280601281526020017f45786368616e67652072657175657374656400000000000000000000000000008152506007600060046009811115620002cb57620002ca620006a1565b5b6009811115620002e057620002df620006a1565b5b8152602001908152602001600020908051906020019062000303929190620005bb565b506040518060400160405280601981526020017f45786368616e67652072657175657374207265636569766564000000000000008152506007600060056009811115620003555762000354620006a1565b5b60098111156200036a5762000369620006a1565b5b815260200190815260200160002090805190602001906200038d929190620005bb565b506040518060400160405280601981526020017f45786368616e6765207265717565737420617070726f766564000000000000008152506007600060066009811115620003df57620003de620006a1565b5b6009811115620003f457620003f3620006a1565b5b8152602001908152602001600020908051906020019062000417929190620005bb565b506040518060400160405280601981526020017f45786368616e676520726571756573742072656a6563746564000000000000008152506007600060076009811115620004695762000468620006a1565b5b60098111156200047e576200047d620006a1565b5b81526020019081526020016000209080519060200190620004a1929190620005bb565b506040518060400160405280600e81526020017f46756e647320726566756e6465640000000000000000000000000000000000008152506007600060086009811115620004f357620004f2620006a1565b5b6009811115620005085762000507620006a1565b5b815260200190815260200160002090805190602001906200052b929190620005bb565b506040518060400160405280600e81526020017f50726f6a65637420636c6f736564000000000000000000000000000000000000815250600760006009808111156200057c576200057b620006a1565b5b6009811115620005915762000590620006a1565b5b81526020019081526020016000209080519060200190620005b4929190620005bb565b50620006ff565b828054620005c9906200066b565b90600052602060002090601f016020900481019282620005ed576000855562000639565b82601f106200060857805160ff191683800117855562000639565b8280016001018555821562000639579182015b82811115620006385782518255916020019190600101906200061b565b5b5090506200064891906200064c565b5090565b5b80821115620006675760008160009055506001016200064d565b5090565b600060028204905060018216806200068457607f821691505b602082108114156200069b576200069a620006d0565b5b50919050565b7f4e487b7100000000000000000000000000000000000000000000000000000000600052602160045260246000fd5b7f4e487b7100000000000000000000000000000000000000000000000000000000600052602260045260246000fd5b614ac7806200070f6000396000f3fe6080604052600436106100fe5760003560e01c80639d8e7e8911610095578063b9d093bf11610064578063b9d093bf14610363578063cfc3d4341461038c578063e8620d14146103c9578063ef6add32146103e5578063fb709d2e14610422576100fe565b80639d8e7e8914610292578063a0fd6622146102cf578063ace1bcf81461030f578063b61a7f7614610338576100fe565b80631ed056d8116100d15780631ed056d8146101d85780635ea343261461021757806385a932231461024057806385fa74bc14610269576100fe565b8063107046bd14610103578063141020cc1461014757806317f308b5146101705780631ab33308146101ad575b600080fd5b34801561010f57600080fd5b5061012a600480360381019061012591906135dc565b610463565b60405161013e989796959493929190614030565b60405180910390f35b34801561015357600080fd5b5061016e60048036038101906101699190613678565b61057d565b005b34801561017c57600080fd5b50610197600480360381019061019291906136e7565b61075b565b6040516101a49190613f46565b60405180910390f35b3480156101b957600080fd5b506101c26108f7565b6040516101cf9190613cc9565b60405180910390f35b3480156101e457600080fd5b506101ff60048036038101906101fa91906136e7565b61090a565b60405161020e93929190613ff9565b60405180910390f35b34801561022357600080fd5b5061023e6004803603810190610239919061388a565b610af0565b005b34801561024c57600080fd5b506102676004803603810190610262919061388a565b610fcc565b005b34801561027557600080fd5b50610290600480360381019061028b91906136e7565b611581565b005b34801561029e57600080fd5b506102b960048036038101906102b491906136e7565b611a0f565b6040516102c69190613ce4565b60405180910390f35b3480156102db57600080fd5b506102f660048036038101906102f191906135dc565b611bf9565b6040516103069493929190613c68565b60405180910390f35b34801561031b57600080fd5b5061033660048036038101906103319190613609565b611fbf565b005b34801561034457600080fd5b5061034d61220a565b60405161035a9190613c4d565b60405180910390f35b34801561036f57600080fd5b5061038a600480360381019061038591906137e1565b612230565b005b34801561039857600080fd5b506103b360048036038101906103ae9190613727565b61261e565b6040516103c09190613f46565b60405180910390f35b6103e360048036038101906103de919061377a565b612825565b005b3480156103f157600080fd5b5061040c600480360381019061040791906135af565b612dce565b6040516104199190613ce4565b60405180910390f35b34801561042e57600080fd5b50610449600480360381019061044491906135dc565b612e6e565b60405161045a959493929190613f61565b60405180910390f35b6000818154811061047357600080fd5b90600052602060002090600702016000915090508060000154908060010154908060020154908060030154908060040160009054906101000a900473ffffffffffffffffffffffffffffffffffffffff16908060040160149054906101000a900460ff16908060050180546104e7906142a6565b80601f0160208091040260200160405190810160405280929190818152602001828054610513906142a6565b80156105605780601f1061053557610100808354040283529160200191610560565b820191906000526020600020905b81548152906001019060200180831161054357829003601f168201915b5050505050908060060160009054906101000a900460ff16905088565b600260009054906101000a900473ffffffffffffffffffffffffffffffffffffffff1673ffffffffffffffffffffffffffffffffffffffff163373ffffffffffffffffffffffffffffffffffffffff16146040518060600160405280603381526020016149ff6033913990610628576040517f08c379a000000000000000000000000000000000000000000000000000000000815260040161061f9190613ce4565b60405180910390fd5b5060006040518060a001604052808581526020016000151581526020016040518060200160405280600081525081526020018481526020018373ffffffffffffffffffffffffffffffffffffffff16815250905060018190806001815401808255809150506001900390600052602060002090600502016000909190919091506000820151816000015560208201518160010160006101000a81548160ff02191690831515021790555060408201518160020190805190602001906106ee929190613433565b50606082015181600301908051906020019061070b929190613433565b5060808201518160040160006101000a81548173ffffffffffffffffffffffffffffffffffffffff021916908373ffffffffffffffffffffffffffffffffffffffff160217905550505050505050565b600080600080549050116107a4576040517f08c379a000000000000000000000000000000000000000000000000000000000815260040161079b90613e26565b60405180910390fd5b60006003600085815260200190815260200160002090506000818054905011610802576040517f08c379a00000000000000000000000000000000000000000000000000000000081526004016107f990613d06565b60405180910390fd5b60005b81805490508110156108b55783828281548110610825576108246143df565b5b90600052602060002090600702016000015414156108a2578181815481106108505761084f6143df565b5b906000526020600020906007020160040160009054906101000a900473ffffffffffffffffffffffffffffffffffffffff1673ffffffffffffffffffffffffffffffffffffffff1631925050506108f1565b80806108ad90614309565b915050610805565b506040517f08c379a00000000000000000000000000000000000000000000000000000000081526004016108e890613ec6565b60405180910390fd5b92915050565b600660009054906101000a900460ff1681565b60008060008060008054905011610956576040517f08c379a000000000000000000000000000000000000000000000000000000000815260040161094d90613e26565b60405180910390fd5b600060036000878152602001908152602001600020905060008180549050116109b4576040517f08c379a00000000000000000000000000000000000000000000000000000000081526004016109ab90613d06565b60405180910390fd5b60005b8180549050811015610aad57858282815481106109d7576109d66143df565b5b9060005260206000209060070201600001541415610a9a57818181548110610a0257610a016143df565b5b906000526020600020906007020160020154828281548110610a2757610a266143df565b5b906000526020600020906007020160030154838381548110610a4c57610a4b6143df565b5b906000526020600020906007020160030154848481548110610a7157610a706143df565b5b906000526020600020906007020160020154610a8d91906141b6565b9450945094505050610ae9565b8080610aa590614309565b9150506109b7565b506040517f08c379a0000000000000000000000000000000000000000000000000000000008152600401610ae090613ec6565b60405180910390fd5b9250925092565b600260009054906101000a900473ffffffffffffffffffffffffffffffffffffffff1673ffffffffffffffffffffffffffffffffffffffff163373ffffffffffffffffffffffffffffffffffffffff16146040518060600160405280603381526020016149ff6033913990610b9b576040517f08c379a0000000000000000000000000000000000000000000000000000000008152600401610b929190613ce4565b60405180910390fd5b506000808054905011610be3576040517f08c379a0000000000000000000000000000000000000000000000000000000008152600401610bda90613e26565b60405180910390fd5b60006009811115610bf757610bf6614381565b5b8160ff166009811115610c0d57610c0c614381565b5b6009811115610c1f57610c1e614381565b5b1415604051806060016040528060318152602001614a326031913990610c7b576040517f08c379a0000000000000000000000000000000000000000000000000000000008152600401610c729190613ce4565b60405180910390fd5b5060026009811115610c9057610c8f614381565b5b8160ff166009811115610ca657610ca5614381565b5b6009811115610cb857610cb7614381565b5b1415604051806060016040528060318152602001614a326031913990610d14576040517f08c379a0000000000000000000000000000000000000000000000000000000008152600401610d0b9190613ce4565b60405180910390fd5b5060036009811115610d2957610d28614381565b5b8160ff166009811115610d3f57610d3e614381565b5b6009811115610d5157610d50614381565b5b1415604051806060016040528060318152602001614a326031913990610dad576040517f08c379a0000000000000000000000000000000000000000000000000000000008152600401610da49190613ce4565b60405180910390fd5b5060046009811115610dc257610dc1614381565b5b8160ff166009811115610dd857610dd7614381565b5b6009811115610dea57610de9614381565b5b1415604051806060016040528060318152602001614a326031913990610e46576040517f08c379a0000000000000000000000000000000000000000000000000000000008152600401610e3d9190613ce4565b60405180910390fd5b5060006003600084815260200190815260200160002090506000818054905011610ea5576040517f08c379a0000000000000000000000000000000000000000000000000000000008152600401610e9c90613e86565b60405180910390fd5b60005b8180549050811015610fc55784828281548110610ec857610ec76143df565b5b9060005260206000209060070201600001541415610fb2578260ff166009811115610ef657610ef5614381565b5b828281548110610f0957610f086143df565b5b906000526020600020906007020160060160006101000a81548160ff02191690836009811115610f3c57610f3b614381565b5b02179055507f42b0281ef1ba120f08ae315789f8639d48731db33eaac502b629a775c997471b8486848481548110610f7757610f766143df565b5b906000526020600020906007020160060160009054906101000a900460ff16604051610fa593929190613fc2565b60405180910390a1610fc5565b8080610fbd90614309565b915050610ea8565b5050505050565b600260009054906101000a900473ffffffffffffffffffffffffffffffffffffffff1673ffffffffffffffffffffffffffffffffffffffff163373ffffffffffffffffffffffffffffffffffffffff1614156040518060600160405280602f8152602001614a63602f913990611078576040517f08c379a000000000000000000000000000000000000000000000000000000000815260040161106f9190613ce4565b60405180910390fd5b5060006003600981111561108f5761108e614381565b5b8260ff1660098111156110a5576110a4614381565b5b60098111156110b7576110b6614381565b5b1415604051806060016040528060318152602001614a326031913990611113576040517f08c379a000000000000000000000000000000000000000000000000000000000815260040161110a9190613ce4565b60405180910390fd5b506005600981111561112857611127614381565b5b8260ff16600981111561113e5761113d614381565b5b60098111156111505761114f614381565b5b1415604051806060016040528060318152602001614a3260319139906111ac576040517f08c379a00000000000000000000000000000000000000000000000000000000081526004016111a39190613ce4565b60405180910390fd5b506000600360008581526020019081526020016000209050600081805490501161120b576040517f08c379a000000000000000000000000000000000000000000000000000000000815260040161120290613e66565b60405180910390fd5b60005b8180549050811015611579578582828154811061122e5761122d6143df565b5b906000526020600020906007020160000154141561155b5760019250600082828154811061125f5761125e6143df565b5b906000526020600020906007020160040160146101000a81548160ff0219169083151502179055506007600981111561129b5761129a614381565b5b8460ff1660098111156112b1576112b0614381565b5b60098111156112c3576112c2614381565b5b14806113085750600660098111156112de576112dd614381565b5b8460ff1660098111156112f4576112f3614381565b5b600981111561130657611305614381565b5b145b15611479577f2de098063448dbe8b26fa82794cd68cf748edb4f3e2cc43166e3ad659757019e85878660ff16600981111561134657611345614381565b5b60405161135593929190613fc2565b60405180910390a16007600981111561137157611370614381565b5b8460ff16600981111561138757611386614381565b5b600981111561139957611398614381565b5b14156113ea576113a98587612ff1565b7fbd0e0cbb7f526d9c7052b56c5d1873ee7b834959cd785b696dd0f9d418d9617a858760086040516113dd93929190613fc2565b60405180910390a1611474565b600660098111156113fe576113fd614381565b5b8460ff16600981111561141457611413614381565b5b600981111561142657611425614381565b5b1415611473576114368587613287565b7fbd0e0cbb7f526d9c7052b56c5d1873ee7b834959cd785b696dd0f9d418d9617a8587600960405161146a93929190613fc2565b60405180910390a15b5b61155a565b8360ff16600981111561148f5761148e614381565b5b8282815481106114a2576114a16143df565b5b906000526020600020906007020160060160006101000a81548160ff021916908360098111156114d5576114d4614381565b5b0217905550600460098111156114ee576114ed614381565b5b8460ff16600981111561150457611503614381565b5b600981111561151657611515614381565b5b1415611559577fd49fc9fa26fa9fc112efd004acb9eeabf80810373d2cbb1a7884d4d64e8e8d2b8587600460405161155093929190613fc2565b60405180910390a15b5b5b821561156657611579565b808061157190614309565b91505061120e565b505050505050565b600080600060036000868152602001908152602001600020905060008180549050116115e2576040517f08c379a00000000000000000000000000000000000000000000000000000000081526004016115d990613d06565b60405180910390fd5b600060056000868152602001908152602001600020905060005b81805490508110156119c6573373ffffffffffffffffffffffffffffffffffffffff16828281548110611632576116316143df565b5b906000526020600020906003020160010160009054906101000a900473ffffffffffffffffffffffffffffffffffffffff1673ffffffffffffffffffffffffffffffffffffffff161480156116bc57506000828281548110611697576116966143df565b5b9060005260206000209060030201600201600088815260200190815260200160002054115b156119b35760005b83805490508110156118b257868482815481106116e4576116e36143df565b5b906000526020600020906007020160000154141561189f57600360098111156117105761170f614381565b5b848281548110611723576117226143df565b5b906000526020600020906007020160060160009054906101000a900460ff16600981111561175457611753614381565b5b1115611795576040517f08c379a000000000000000000000000000000000000000000000000000000000815260040161178c90613e06565b60405180910390fd5b8282815481106117a8576117a76143df565b5b90600052602060002090600302016002016000888152602001908152602001600020548482815481106117de576117dd6143df565b5b9060005260206000209060070201600301546117fa91906141b6565b84828154811061180d5761180c6143df565b5b906000526020600020906007020160030181905550838181548110611835576118346143df565b5b906000526020600020906007020160040160149054906101000a900460ff1661189657600184828154811061186d5761186c6143df565b5b906000526020600020906007020160040160146101000a81548160ff0219169083151502179055505b600195506118b2565b80806118aa90614309565b9150506116c4565b50846118f3576040517f08c379a00000000000000000000000000000000000000000000000000000000081526004016118ea90613ea6565b60405180910390fd5b3373ffffffffffffffffffffffffffffffffffffffff166108fc8383815481106119205761191f6143df565b5b90600052602060002090600302016002016000898152602001908152602001600020549081150290604051600060405180830381858888f1935050505015801561196e573d6000803e3d6000fd5b506000828281548110611984576119836143df565b5b9060005260206000209060030201600201600088815260200190815260200160002081905550600193506119c6565b80806119be90614309565b9150506115fc565b5082611a07576040517f08c379a00000000000000000000000000000000000000000000000000000000081526004016119fe90613dc6565b60405180910390fd5b505050505050565b606060006003600085815260200190815260200160002090506000818054905011611a6f576040517f08c379a0000000000000000000000000000000000000000000000000000000008152600401611a6690613d06565b60405180910390fd5b60005b8180549050811015611bb75783828281548110611a9257611a916143df565b5b9060005260206000209060070201600001541415611ba45760076000838381548110611ac157611ac06143df565b5b906000526020600020906007020160060160009054906101000a900460ff166009811115611af257611af1614381565b5b6009811115611b0457611b03614381565b5b81526020019081526020016000208054611b1d906142a6565b80601f0160208091040260200160405190810160405280929190818152602001828054611b49906142a6565b8015611b965780601f10611b6b57610100808354040283529160200191611b96565b820191906000526020600020905b815481529060010190602001808311611b7957829003601f168201915b505050505092505050611bf3565b8080611baf90614309565b915050611a72565b506040517f08c379a0000000000000000000000000000000000000000000000000000000008152600401611bea90613ec6565b60405180910390fd5b92915050565b6060806060806000808054905011611c46576040517f08c379a0000000000000000000000000000000000000000000000000000000008152600401611c3d90613e26565b60405180910390fd5b60006003600087815260200190815260200160002090506000818054905011611ca4576040517f08c379a0000000000000000000000000000000000000000000000000000000008152600401611c9b90613d86565b60405180910390fd5b6000818054905067ffffffffffffffff811115611cc457611cc361440e565b5b604051908082528060200260200182016040528015611cf25781602001602082028036833780820191505090505b5090506000828054905067ffffffffffffffff811115611d1557611d1461440e565b5b604051908082528060200260200182016040528015611d435781602001602082028036833780820191505090505b5090506000838054905067ffffffffffffffff811115611d6657611d6561440e565b5b604051908082528060200260200182016040528015611d945781602001602082028036833780820191505090505b5090506000848054905067ffffffffffffffff811115611db757611db661440e565b5b604051908082528060200260200182016040528015611de55781602001602082028036833780820191505090505b5090506000805b8680549050811015611f6157868181548110611e0b57611e0a6143df565b5b906000526020600020906007020160040160149054906101000a900460ff1615611f4e57868181548110611e4257611e416143df565b5b906000526020600020906007020160000154868381518110611e6757611e666143df565b5b602002602001018181525050868181548110611e8657611e856143df565b5b906000526020600020906007020160010154858381518110611eab57611eaa6143df565b5b602002602001018181525050868181548110611eca57611ec96143df565b5b906000526020600020906007020160020154848381518110611eef57611eee6143df565b5b602002602001018181525050868181548110611f0e57611f0d6143df565b5b906000526020600020906007020160030154838381518110611f3357611f326143df565b5b6020026020010181815250508180611f4a90614309565b9250505b8080611f5990614309565b915050611dec565b506000855111611fa6576040517f08c379a0000000000000000000000000000000000000000000000000000000008152600401611f9d90613d26565b60405180910390fd5b8484848499509950995099505050505050509193509193565b600260009054906101000a900473ffffffffffffffffffffffffffffffffffffffff1673ffffffffffffffffffffffffffffffffffffffff163373ffffffffffffffffffffffffffffffffffffffff16146040518060600160405280603381526020016149ff603391399061206a576040517f08c379a00000000000000000000000000000000000000000000000000000000081526004016120619190613ce4565b60405180910390fd5b506000600180549050116120b3576040517f08c379a00000000000000000000000000000000000000000000000000000000081526004016120aa90613f06565b60405180910390fd5b6000805b6001805490508110156121c35784600182815481106120d9576120d86143df565b5b90600052602060002090600502016000015414156121b0578360018281548110612106576121056143df565b5b906000526020600020906005020160010160006101000a81548160ff02191690831515021790555060011515841515141561216c5760016004600087815260200190815260200160002060006101000a81548160ff0219169083151502179055506121a7565b8260018281548110612181576121806143df565b5b906000526020600020906005020160020190805190602001906121a5929190613433565b505b600191506121c3565b80806121bb90614309565b9150506120b7565b5080612204576040517f08c379a00000000000000000000000000000000000000000000000000000000081526004016121fb90613da6565b60405180910390fd5b50505050565b600260009054906101000a900473ffffffffffffffffffffffffffffffffffffffff1681565b600260009054906101000a900473ffffffffffffffffffffffffffffffffffffffff1673ffffffffffffffffffffffffffffffffffffffff163373ffffffffffffffffffffffffffffffffffffffff1614156040518060600160405280602f8152602001614a63602f9139906122dc576040517f08c379a00000000000000000000000000000000000000000000000000000000081526004016122d39190613ce4565b60405180910390fd5b50600060018054905011612325576040517f08c379a000000000000000000000000000000000000000000000000000000000815260040161231c90613f06565b60405180910390fd5b6004600087815260200190815260200160002060009054906101000a900460ff16612385576040517f08c379a000000000000000000000000000000000000000000000000000000000815260040161237c90613ee6565b60405180910390fd5b6000604051806101000160405280878152602001868152602001858152602001600081526020018473ffffffffffffffffffffffffffffffffffffffff168152602001600115158152602001838152602001600260098111156123eb576123ea614381565b5b815250905060008190806001815401808255809150506001900390600052602060002090600702016000909190919091506000820151816000015560208201518160010155604082015181600201556060820151816003015560808201518160040160006101000a81548173ffffffffffffffffffffffffffffffffffffffff021916908373ffffffffffffffffffffffffffffffffffffffff16021790555060a08201518160040160146101000a81548160ff02191690831515021790555060c08201518160050190805190602001906124c7929190613433565b5060e08201518160060160006101000a81548160ff021916908360098111156124f3576124f2614381565b5b02179055505050600360008881526020019081526020016000208190806001815401808255809150506001900390600052602060002090600702016000909190919091506000820151816000015560208201518160010155604082015181600201556060820151816003015560808201518160040160006101000a81548173ffffffffffffffffffffffffffffffffffffffff021916908373ffffffffffffffffffffffffffffffffffffffff16021790555060a08201518160040160146101000a81548160ff02191690831515021790555060c08201518160050190805190602001906125e2929190613433565b5060e08201518160060160006101000a81548160ff0219169083600981111561260e5761260d614381565b5b0217905550505050505050505050565b60008060008054905011612667576040517f08c379a000000000000000000000000000000000000000000000000000000000815260040161265e90613e26565b60405180910390fd5b600060036000868152602001908152602001600020905060008180549050116126c5576040517f08c379a00000000000000000000000000000000000000000000000000000000081526004016126bc90613d06565b60405180910390fd5b60005b81805490508110156127e257848282815481106126e8576126e76143df565b5b90600052602060002090600702016000015414156127cf57600060056000878152602001908152602001600020905060005b81805490508110156127cc578582828154811061273a576127396143df565b5b90600052602060002090600302016000015414156127b957818181548110612765576127646143df565b5b906000526020600020906003020160010160009054906101000a900473ffffffffffffffffffffffffffffffffffffffff1673ffffffffffffffffffffffffffffffffffffffff163194505050505061281e565b80806127c490614309565b91505061271a565b50505b80806127da90614309565b9150506126c8565b506040517f08c379a000000000000000000000000000000000000000000000000000000000815260040161281590613d46565b60405180910390fd5b9392505050565b6000806003600087815260200190815260200160002090506000818054905011612884576040517f08c379a000000000000000000000000000000000000000000000000000000000815260040161287b90613d06565b60405180910390fd5b60005b8180549050811015612d8557858282815481106128a7576128a66143df565b5b9060005260206000209060070201600001541415612d72578181815481106128d2576128d16143df565b5b906000526020600020906007020160040160149054906101000a900460ff1615612d2e57818181548110612909576129086143df565b5b90600052602060002090600702016001015484101561295d576040517f08c379a000000000000000000000000000000000000000000000000000000000815260040161295490613de6565b60405180910390fd5b8181815481106129705761296f6143df565b5b906000526020600020906007020160020154828281548110612995576129946143df565b5b906000526020600020906007020160030154856129b29190614160565b11156129f3576040517f08c379a00000000000000000000000000000000000000000000000000000000081526004016129ea90613d66565b60405180910390fd5b83828281548110612a0757612a066143df565b5b906000526020600020906007020160030154612a239190614160565b828281548110612a3657612a356143df565b5b9060005260206000209060070201600301819055506000600560008881526020019081526020016000209050600081805490509050600080600090505b8380549050811015612b5f573373ffffffffffffffffffffffffffffffffffffffff16848281548110612aa957612aa86143df565b5b906000526020600020906003020160010160009054906101000a900473ffffffffffffffffffffffffffffffffffffffff1673ffffffffffffffffffffffffffffffffffffffff161415612b4c5787848281548110612b0b57612b0a6143df565b5b906000526020600020906003020160020160008c81526020019081526020016000206000828254612b3c9190614160565b9250508190555060019150612b5f565b8080612b5790614309565b915050612a73565b5080612c0f5782600181600181540180825580915050039060005260206000209050506000838381548110612b9757612b966143df565b5b90600052602060002090600302019050888160000181905550338160010160006101000a81548173ffffffffffffffffffffffffffffffffffffffff021916908373ffffffffffffffffffffffffffffffffffffffff160217905550878160020160008c815260200190815260200160002081905550505b848481548110612c2257612c216143df565b5b906000526020600020906007020160020154858581548110612c4757612c466143df565b5b9060005260206000209060070201600301541415612d26576003858581548110612c7457612c736143df565b5b906000526020600020906007020160060160006101000a81548160ff02191690836009811115612ca757612ca6614381565b5b02179055506000858581548110612cc157612cc06143df565b5b906000526020600020906007020160040160146101000a81548160ff0219169083151502179055507f4460a3075d16e0c301975989c352adf5efef3f00e4b1cd798431dddda7179e588a8a6003604051612d1d93929190613fc2565b60405180910390a15b505050612d69565b6040517f08c379a0000000000000000000000000000000000000000000000000000000008152600401612d6090613f26565b60405180910390fd5b60019250612d85565b8080612d7d90614309565b915050612887565b5081612dc6576040517f08c379a0000000000000000000000000000000000000000000000000000000008152600401612dbd90613ec6565b60405180910390fd5b505050505050565b60076020528060005260406000206000915090508054612ded906142a6565b80601f0160208091040260200160405190810160405280929190818152602001828054612e19906142a6565b8015612e665780601f10612e3b57610100808354040283529160200191612e66565b820191906000526020600020905b815481529060010190602001808311612e4957829003601f168201915b505050505081565b60018181548110612e7e57600080fd5b90600052602060002090600502016000915090508060000154908060010160009054906101000a900460ff1690806002018054612eba906142a6565b80601f0160208091040260200160405190810160405280929190818152602001828054612ee6906142a6565b8015612f335780601f10612f0857610100808354040283529160200191612f33565b820191906000526020600020905b815481529060010190602001808311612f1657829003601f168201915b505050505090806003018054612f48906142a6565b80601f0160208091040260200160405190810160405280929190818152602001828054612f74906142a6565b8015612fc15780601f10612f9657610100808354040283529160200191612fc1565b820191906000526020600020905b815481529060010190602001808311612fa457829003601f168201915b5050505050908060040160009054906101000a900473ffffffffffffffffffffffffffffffffffffffff16905085565b6000806003600085815260200190815260200160002090506000818054905011613050576040517f08c379a000000000000000000000000000000000000000000000000000000000815260040161304790613d06565b60405180910390fd5b60005b81805490508110156132405783828281548110613073576130726143df565b5b906000526020600020906007020160000154141561322d576007600981111561309f5761309e614381565b5b8282815481106130b2576130b16143df565b5b906000526020600020906007020160060160009054906101000a900460ff1660098111156130e3576130e2614381565b5b14613123576040517f08c379a000000000000000000000000000000000000000000000000000000000815260040161311a90613e46565b60405180910390fd5b600060056000868152602001908152602001600020905060005b818054905081101561322257600082828154811061315e5761315d6143df565b5b90600052602060002090600302016002016000888152602001908152602001600020549050828281548110613196576131956143df565b5b906000526020600020906003020160010160009054906101000a900473ffffffffffffffffffffffffffffffffffffffff1673ffffffffffffffffffffffffffffffffffffffff166108fc829081150290604051600060405180830381858888f1935050505015801561320d573d6000803e3d6000fd5b5050808061321a90614309565b91505061313d565b506001935050613240565b808061323890614309565b915050613053565b5081613281576040517f08c379a000000000000000000000000000000000000000000000000000000000815260040161327890613ea6565b60405180910390fd5b50505050565b60008060036000858152602001908152602001600020905060008180549050116132e6576040517f08c379a00000000000000000000000000000000000000000000000000000000081526004016132dd90613d06565b60405180910390fd5b60005b81805490508110156133ec5783828281548110613309576133086143df565b5b90600052602060002090600702016000015414156133d957818181548110613334576133336143df565b5b906000526020600020906007020160040160009054906101000a900473ffffffffffffffffffffffffffffffffffffffff1673ffffffffffffffffffffffffffffffffffffffff166108fc838381548110613392576133916143df565b5b9060005260206000209060070201600301549081150290604051600060405180830381858888f193505050501580156133cf573d6000803e3d6000fd5b50600192506133ec565b80806133e490614309565b9150506132e9565b508161342d576040517f08c379a000000000000000000000000000000000000000000000000000000000815260040161342490613ea6565b60405180910390fd5b50505050565b82805461343f906142a6565b90600052602060002090601f01602090048101928261346157600085556134a8565b82601f1061347a57805160ff19168380011785556134a8565b828001600101855582156134a8579182015b828111156134a757825182559160200191906001019061348c565b5b5090506134b591906134b9565b5090565b5b808211156134d25760008160009055506001016134ba565b5090565b60006134e96134e4846140da565b6140b5565b90508281526020810184848401111561350557613504614442565b5b613510848285614264565b509392505050565b60008135905061352781614992565b92915050565b60008135905061353c816149a9565b92915050565b600081359050613551816149c0565b92915050565b600082601f83011261356c5761356b61443d565b5b813561357c8482602086016134d6565b91505092915050565b600081359050613594816149d0565b92915050565b6000813590506135a9816149e7565b92915050565b6000602082840312156135c5576135c461444c565b5b60006135d384828501613542565b91505092915050565b6000602082840312156135f2576135f161444c565b5b600061360084828501613585565b91505092915050565b6000806000606084860312156136225761362161444c565b5b600061363086828701613585565b93505060206136418682870161352d565b925050604084013567ffffffffffffffff81111561366257613661614447565b5b61366e86828701613557565b9150509250925092565b6000806000606084860312156136915761369061444c565b5b600061369f86828701613585565b935050602084013567ffffffffffffffff8111156136c0576136bf614447565b5b6136cc86828701613557565b92505060406136dd86828701613518565b9150509250925092565b600080604083850312156136fe576136fd61444c565b5b600061370c85828601613585565b925050602061371d85828601613585565b9150509250929050565b6000806000606084860312156137405761373f61444c565b5b600061374e86828701613585565b935050602061375f86828701613585565b925050604061377086828701613585565b9150509250925092565b600080600080608085870312156137945761379361444c565b5b60006137a287828801613585565b94505060206137b387828801613585565b93505060406137c487828801613585565b92505060606137d587828801613585565b91505092959194509250565b60008060008060008060c087890312156137fe576137fd61444c565b5b600061380c89828a01613585565b965050602061381d89828a01613585565b955050604061382e89828a01613585565b945050606061383f89828a01613585565b935050608061385089828a01613518565b92505060a087013567ffffffffffffffff81111561387157613870614447565b5b61387d89828a01613557565b9150509295509295509295565b6000806000606084860312156138a3576138a261444c565b5b60006138b186828701613585565b93505060206138c286828701613585565b92505060406138d38682870161359a565b9150509250925092565b60006138e98383613c2f565b60208301905092915050565b6138fe816141ea565b82525050565b600061390f8261411b565b613919818561413e565b93506139248361410b565b8060005b8381101561395557815161393c88826138dd565b975061394783614131565b925050600181019050613928565b5085935050505092915050565b61396b816141fc565b82525050565b61397a81614252565b82525050565b600061398b82614126565b613995818561414f565b93506139a5818560208601614273565b6139ae81614451565b840191505092915050565b60006139c660118361414f565b91506139d182614462565b602082019050919050565b60006139e9602d8361414f565b91506139f48261448b565b604082019050919050565b6000613a0c60398361414f565b9150613a17826144da565b604082019050919050565b6000613a2f602a8361414f565b9150613a3a82614529565b604082019050919050565b6000613a5260248361414f565b9150613a5d82614578565b604082019050919050565b6000613a7560268361414f565b9150613a80826145c7565b604082019050919050565b6000613a9860288361414f565b9150613aa382614616565b604082019050919050565b6000613abb60318361414f565b9150613ac682614665565b604082019050919050565b6000613ade60418361414f565b9150613ae9826146b4565b606082019050919050565b6000613b0160198361414f565b9150613b0c82614729565b602082019050919050565b6000613b24603e8361414f565b9150613b2f82614752565b604082019050919050565b6000613b4760268361414f565b9150613b52826147a1565b604082019050919050565b6000613b6a60238361414f565b9150613b75826147f0565b604082019050919050565b6000613b8d60258361414f565b9150613b988261483f565b604082019050919050565b6000613bb060288361414f565b9150613bbb8261488e565b604082019050919050565b6000613bd360208361414f565b9150613bde826148dd565b602082019050919050565b6000613bf6601c8361414f565b9150613c0182614906565b602082019050919050565b6000613c19602c8361414f565b9150613c248261492f565b604082019050919050565b613c388161423b565b82525050565b613c478161423b565b82525050565b6000602082019050613c6260008301846138f5565b92915050565b60006080820190508181036000830152613c828187613904565b90508181036020830152613c968186613904565b90508181036040830152613caa8185613904565b90508181036060830152613cbe8184613904565b905095945050505050565b6000602082019050613cde6000830184613971565b92915050565b60006020820190508181036000830152613cfe8184613980565b905092915050565b60006020820190508181036000830152613d1f816139b9565b9050919050565b60006020820190508181036000830152613d3f816139dc565b9050919050565b60006020820190508181036000830152613d5f816139ff565b9050919050565b60006020820190508181036000830152613d7f81613a22565b9050919050565b60006020820190508181036000830152613d9f81613a45565b9050919050565b60006020820190508181036000830152613dbf81613a68565b9050919050565b60006020820190508181036000830152613ddf81613a8b565b9050919050565b60006020820190508181036000830152613dff81613aae565b9050919050565b60006020820190508181036000830152613e1f81613ad1565b9050919050565b60006020820190508181036000830152613e3f81613af4565b9050919050565b60006020820190508181036000830152613e5f81613b17565b9050919050565b60006020820190508181036000830152613e7f81613b3a565b9050919050565b60006020820190508181036000830152613e9f81613b5d565b9050919050565b60006020820190508181036000830152613ebf81613b80565b9050919050565b60006020820190508181036000830152613edf81613ba3565b9050919050565b60006020820190508181036000830152613eff81613bc6565b9050919050565b60006020820190508181036000830152613f1f81613be9565b9050919050565b60006020820190508181036000830152613f3f81613c0c565b9050919050565b6000602082019050613f5b6000830184613c3e565b92915050565b600060a082019050613f766000830188613c3e565b613f836020830187613962565b8181036040830152613f958186613980565b90508181036060830152613fa98185613980565b9050613fb860808301846138f5565b9695505050505050565b6000606082019050613fd76000830186613c3e565b613fe46020830185613c3e565b613ff16040830184613971565b949350505050565b600060608201905061400e6000830186613c3e565b61401b6020830185613c3e565b6140286040830184613c3e565b949350505050565b600061010082019050614046600083018b613c3e565b614053602083018a613c3e565b6140606040830189613c3e565b61406d6060830188613c3e565b61407a60808301876138f5565b61408760a0830186613962565b81810360c08301526140998185613980565b90506140a860e0830184613971565b9998505050505050505050565b60006140bf6140d0565b90506140cb82826142d8565b919050565b6000604051905090565b600067ffffffffffffffff8211156140f5576140f461440e565b5b6140fe82614451565b9050602081019050919050565b6000819050602082019050919050565b600081519050919050565b600081519050919050565b6000602082019050919050565b600082825260208201905092915050565b600082825260208201905092915050565b600061416b8261423b565b91506141768361423b565b9250827fffffffffffffffffffffffffffffffffffffffffffffffffffffffffffffffff038211156141ab576141aa614352565b5b828201905092915050565b60006141c18261423b565b91506141cc8361423b565b9250828210156141df576141de614352565b5b828203905092915050565b60006141f58261421b565b9050919050565b60008115159050919050565b60008190506142168261497e565b919050565b600073ffffffffffffffffffffffffffffffffffffffff82169050919050565b6000819050919050565b600060ff82169050919050565b600061425d82614208565b9050919050565b82818337600083830152505050565b60005b83811015614291578082015181840152602081019050614276565b838111156142a0576000848401525b50505050565b600060028204905060018216806142be57607f821691505b602082108114156142d2576142d16143b0565b5b50919050565b6142e182614451565b810181811067ffffffffffffffff82111715614300576142ff61440e565b5b80604052505050565b60006143148261423b565b91507fffffffffffffffffffffffffffffffffffffffffffffffffffffffffffffffff82141561434757614346614352565b5b600182019050919050565b7f4e487b7100000000000000000000000000000000000000000000000000000000600052601160045260246000fd5b7f4e487b7100000000000000000000000000000000000000000000000000000000600052602160045260246000fd5b7f4e487b7100000000000000000000000000000000000000000000000000000000600052602260045260246000fd5b7f4e487b7100000000000000000000000000000000000000000000000000000000600052603260045260246000fd5b7f4e487b7100000000000000000000000000000000000000000000000000000000600052604160045260246000fd5b600080fd5b600080fd5b600080fd5b600080fd5b6000601f19601f8301169050919050565b7f43686172697479206e6f7420666f756e64000000000000000000000000000000600082015250565b7f4e6f2070726f6a6563747320617661696c61626c6520666f722061636365707460008201527f696e6720646f6e6174696f6e7300000000000000000000000000000000000000602082015250565b7f4e6f207375636820646f6e6f7220657869737420756e6465722074686973207060008201527f726f6a65637420756e6465722074686973206368617269747900000000000000602082015250565b7f596f757220636f6e747269627574696f6e20657863656564732072657175697260008201527f656420616d6f756e742e00000000000000000000000000000000000000000000602082015250565b7f4e6f2070726f6a6563747320666f756e6420756e64657220746869732063686160008201527f7269747900000000000000000000000000000000000000000000000000000000602082015250565b7f4e6f206368617269747920657869737420756e6465722074686973206368617260008201527f6974792069640000000000000000000000000000000000000000000000000000602082015250565b7f596f7520686176656e277420636f6e747269627574656420666f72207468697360008201527f2070726f6a656374000000000000000000000000000000000000000000000000602082015250565b7f53686f756c642062652067726561746572207468616e206f7220657175616c2060008201527f746f206d696e696d756d20616d6f756e74000000000000000000000000000000602082015250565b7f43616e277420726566756e642061732065786368616e6765207265717565737460008201527f2077617320616c726561647920696e69746961746564207769746820626f617260208201527f6400000000000000000000000000000000000000000000000000000000000000604082015250565b7f4e6f2070726f6a65637420697320637265617465642079657400000000000000600082015250565b7f43616e277420726566756e642061732065786368616e6765207265717565737460008201527f20776173206e6f742072656a65637465642062792074686520626f6172640000602082015250565b7f4e6f2070726f6a65637420657869737420756e64657220746869732070726f6a60008201527f6563742069640000000000000000000000000000000000000000000000000000602082015250565b7f4e6f2070726f6a65637420657869737420756e6465722074686973206368617260008201527f6974790000000000000000000000000000000000000000000000000000000000602082015250565b7f4e6f2070726f6a65637420657869737420756e64657220746869732070726f6a60008201527f6563744964000000000000000000000000000000000000000000000000000000602082015250565b7f4e6f20737563682070726f6a65637420657869737420756e646572207468697360008201527f2063686172697479000000000000000000000000000000000000000000000000602082015250565b7f546869732063686172697479206973206e6f742079657420617070726f766564600082015250565b7f4e6f206368617269747920697320726567697374657265642079657400000000600082015250565b7f4e6f206d6f726520646f6e6174696f6e7320616363657074656420666f72207460008201527f6869732070726f6a6563742e0000000000000000000000000000000000000000602082015250565b600a811061498f5761498e614381565b5b50565b61499b816141ea565b81146149a657600080fd5b50565b6149b2816141fc565b81146149bd57600080fd5b50565b600a81106149cd57600080fd5b50565b6149d98161423b565b81146149e457600080fd5b50565b6149f081614245565b81146149fb57600080fd5b5056fe54686973206f7065726174696f6e2063616e20626520706572666f726d6564206f6e6c7920627920426f6172642061646d696e596f7520617265206e6f7420617574686f72697a656420746f20757064617465207769746820746869732073746174757354686973206f7065726174696f6e2063616e20626520706572666f726d6564206f6e6c792062792043686172697479a26469706673582212202f046fb7037b8e69e95199c1964eb040b5e45f23c8eec5d1c8371ba454ed163b64736f6c63430008070033",
			"opcodes": "PUSH1 0x80 PUSH1 0x40 MSTORE CALLVALUE DUP1 ISZERO PUSH3 0x11 JUMPI PUSH1 0x0 DUP1 REVERT JUMPDEST POP CALLER PUSH1 0x2 PUSH1 0x0 PUSH2 0x100 EXP DUP2 SLOAD DUP2 PUSH20 0xFFFFFFFFFFFFFFFFFFFFFFFFFFFFFFFFFFFFFFFF MUL NOT AND SWAP1 DUP4 PUSH20 0xFFFFFFFFFFFFFFFFFFFFFFFFFFFFFFFFFFFFFFFF AND MUL OR SWAP1 SSTORE POP PUSH1 0x40 MLOAD DUP1 PUSH1 0x40 ADD PUSH1 0x40 MSTORE DUP1 PUSH1 0x14 DUP2 MSTORE PUSH1 0x20 ADD PUSH32 0x57616974696E6720666F7220617070726F76616C000000000000000000000000 DUP2 MSTORE POP PUSH1 0x7 PUSH1 0x0 DUP1 PUSH1 0x9 DUP2 GT ISZERO PUSH3 0xA3 JUMPI PUSH3 0xA2 PUSH3 0x6A1 JUMP JUMPDEST JUMPDEST PUSH1 0x9 DUP2 GT ISZERO PUSH3 0xB8 JUMPI PUSH3 0xB7 PUSH3 0x6A1 JUMP JUMPDEST JUMPDEST DUP2 MSTORE PUSH1 0x20 ADD SWAP1 DUP2 MSTORE PUSH1 0x20 ADD PUSH1 0x0 KECCAK256 SWAP1 DUP1 MLOAD SWAP1 PUSH1 0x20 ADD SWAP1 PUSH3 0xDB SWAP3 SWAP2 SWAP1 PUSH3 0x5BB JUMP JUMPDEST POP PUSH1 0x40 MLOAD DUP1 PUSH1 0x40 ADD PUSH1 0x40 MSTORE DUP1 PUSH1 0x8 DUP2 MSTORE PUSH1 0x20 ADD PUSH32 0x417070726F766564000000000000000000000000000000000000000000000000 DUP2 MSTORE POP PUSH1 0x7 PUSH1 0x0 PUSH1 0x2 PUSH1 0x9 DUP2 GT ISZERO PUSH3 0x12D JUMPI PUSH3 0x12C PUSH3 0x6A1 JUMP JUMPDEST JUMPDEST PUSH1 0x9 DUP2 GT ISZERO PUSH3 0x142 JUMPI PUSH3 0x141 PUSH3 0x6A1 JUMP JUMPDEST JUMPDEST DUP2 MSTORE PUSH1 0x20 ADD SWAP1 DUP2 MSTORE PUSH1 0x20 ADD PUSH1 0x0 KECCAK256 SWAP1 DUP1 MLOAD SWAP1 PUSH1 0x20 ADD SWAP1 PUSH3 0x165 SWAP3 SWAP2 SWAP1 PUSH3 0x5BB JUMP JUMPDEST POP PUSH1 0x40 MLOAD DUP1 PUSH1 0x40 ADD PUSH1 0x40 MSTORE DUP1 PUSH1 0x13 DUP2 MSTORE PUSH1 0x20 ADD PUSH32 0x52656A6563746564206279206368617269747900000000000000000000000000 DUP2 MSTORE POP PUSH1 0x7 PUSH1 0x0 PUSH1 0x1 PUSH1 0x9 DUP2 GT ISZERO PUSH3 0x1B7 JUMPI PUSH3 0x1B6 PUSH3 0x6A1 JUMP JUMPDEST JUMPDEST PUSH1 0x9 DUP2 GT ISZERO PUSH3 0x1CC JUMPI PUSH3 0x1CB PUSH3 0x6A1 JUMP JUMPDEST JUMPDEST DUP2 MSTORE PUSH1 0x20 ADD SWAP1 DUP2 MSTORE PUSH1 0x20 ADD PUSH1 0x0 KECCAK256 SWAP1 DUP1 MLOAD SWAP1 PUSH1 0x20 ADD SWAP1 PUSH3 0x1EF SWAP3 SWAP2 SWAP1 PUSH3 0x5BB JUMP JUMPDEST POP PUSH1 0x40 MLOAD DUP1 PUSH1 0x40 ADD PUSH1 0x40 MSTORE DUP1 PUSH1 0x15 DUP2 MSTORE PUSH1 0x20 ADD PUSH32 0x50726F6A65637420676F616C2061636869657665640000000000000000000000 DUP2 MSTORE POP PUSH1 0x7 PUSH1 0x0 PUSH1 0x3 PUSH1 0x9 DUP2 GT ISZERO PUSH3 0x241 JUMPI PUSH3 0x240 PUSH3 0x6A1 JUMP JUMPDEST JUMPDEST PUSH1 0x9 DUP2 GT ISZERO PUSH3 0x256 JUMPI PUSH3 0x255 PUSH3 0x6A1 JUMP JUMPDEST JUMPDEST DUP2 MSTORE PUSH1 0x20 ADD SWAP1 DUP2 MSTORE PUSH1 0x20 ADD PUSH1 0x0 KECCAK256 SWAP1 DUP1 MLOAD SWAP1 PUSH1 0x20 ADD SWAP1 PUSH3 0x279 SWAP3 SWAP2 SWAP1 PUSH3 0x5BB JUMP JUMPDEST POP PUSH1 0x40 MLOAD DUP1 PUSH1 0x40 ADD PUSH1 0x40 MSTORE DUP1 PUSH1 0x12 DUP2 MSTORE PUSH1 0x20 ADD PUSH32 0x45786368616E6765207265717565737465640000000000000000000000000000 DUP2 MSTORE POP PUSH1 0x7 PUSH1 0x0 PUSH1 0x4 PUSH1 0x9 DUP2 GT ISZERO PUSH3 0x2CB JUMPI PUSH3 0x2CA PUSH3 0x6A1 JUMP JUMPDEST JUMPDEST PUSH1 0x9 DUP2 GT ISZERO PUSH3 0x2E0 JUMPI PUSH3 0x2DF PUSH3 0x6A1 JUMP JUMPDEST JUMPDEST DUP2 MSTORE PUSH1 0x20 ADD SWAP1 DUP2 MSTORE PUSH1 0x20 ADD PUSH1 0x0 KECCAK256 SWAP1 DUP1 MLOAD SWAP1 PUSH1 0x20 ADD SWAP1 PUSH3 0x303 SWAP3 SWAP2 SWAP1 PUSH3 0x5BB JUMP JUMPDEST POP PUSH1 0x40 MLOAD DUP1 PUSH1 0x40 ADD PUSH1 0x40 MSTORE DUP1 PUSH1 0x19 DUP2 MSTORE PUSH1 0x20 ADD PUSH32 0x45786368616E6765207265717565737420726563656976656400000000000000 DUP2 MSTORE POP PUSH1 0x7 PUSH1 0x0 PUSH1 0x5 PUSH1 0x9 DUP2 GT ISZERO PUSH3 0x355 JUMPI PUSH3 0x354 PUSH3 0x6A1 JUMP JUMPDEST JUMPDEST PUSH1 0x9 DUP2 GT ISZERO PUSH3 0x36A JUMPI PUSH3 0x369 PUSH3 0x6A1 JUMP JUMPDEST JUMPDEST DUP2 MSTORE PUSH1 0x20 ADD SWAP1 DUP2 MSTORE PUSH1 0x20 ADD PUSH1 0x0 KECCAK256 SWAP1 DUP1 MLOAD SWAP1 PUSH1 0x20 ADD SWAP1 PUSH3 0x38D SWAP3 SWAP2 SWAP1 PUSH3 0x5BB JUMP JUMPDEST POP PUSH1 0x40 MLOAD DUP1 PUSH1 0x40 ADD PUSH1 0x40 MSTORE DUP1 PUSH1 0x19 DUP2 MSTORE PUSH1 0x20 ADD PUSH32 0x45786368616E6765207265717565737420617070726F76656400000000000000 DUP2 MSTORE POP PUSH1 0x7 PUSH1 0x0 PUSH1 0x6 PUSH1 0x9 DUP2 GT ISZERO PUSH3 0x3DF JUMPI PUSH3 0x3DE PUSH3 0x6A1 JUMP JUMPDEST JUMPDEST PUSH1 0x9 DUP2 GT ISZERO PUSH3 0x3F4 JUMPI PUSH3 0x3F3 PUSH3 0x6A1 JUMP JUMPDEST JUMPDEST DUP2 MSTORE PUSH1 0x20 ADD SWAP1 DUP2 MSTORE PUSH1 0x20 ADD PUSH1 0x0 KECCAK256 SWAP1 DUP1 MLOAD SWAP1 PUSH1 0x20 ADD SWAP1 PUSH3 0x417 SWAP3 SWAP2 SWAP1 PUSH3 0x5BB JUMP JUMPDEST POP PUSH1 0x40 MLOAD DUP1 PUSH1 0x40 ADD PUSH1 0x40 MSTORE DUP1 PUSH1 0x19 DUP2 MSTORE PUSH1 0x20 ADD PUSH32 0x45786368616E676520726571756573742072656A656374656400000000000000 DUP2 MSTORE POP PUSH1 0x7 PUSH1 0x0 PUSH1 0x7 PUSH1 0x9 DUP2 GT ISZERO PUSH3 0x469 JUMPI PUSH3 0x468 PUSH3 0x6A1 JUMP JUMPDEST JUMPDEST PUSH1 0x9 DUP2 GT ISZERO PUSH3 0x47E JUMPI PUSH3 0x47D PUSH3 0x6A1 JUMP JUMPDEST JUMPDEST DUP2 MSTORE PUSH1 0x20 ADD SWAP1 DUP2 MSTORE PUSH1 0x20 ADD PUSH1 0x0 KECCAK256 SWAP1 DUP1 MLOAD SWAP1 PUSH1 0x20 ADD SWAP1 PUSH3 0x4A1 SWAP3 SWAP2 SWAP1 PUSH3 0x5BB JUMP JUMPDEST POP PUSH1 0x40 MLOAD DUP1 PUSH1 0x40 ADD PUSH1 0x40 MSTORE DUP1 PUSH1 0xE DUP2 MSTORE PUSH1 0x20 ADD PUSH32 0x46756E647320726566756E646564000000000000000000000000000000000000 DUP2 MSTORE POP PUSH1 0x7 PUSH1 0x0 PUSH1 0x8 PUSH1 0x9 DUP2 GT ISZERO PUSH3 0x4F3 JUMPI PUSH3 0x4F2 PUSH3 0x6A1 JUMP JUMPDEST JUMPDEST PUSH1 0x9 DUP2 GT ISZERO PUSH3 0x508 JUMPI PUSH3 0x507 PUSH3 0x6A1 JUMP JUMPDEST JUMPDEST DUP2 MSTORE PUSH1 0x20 ADD SWAP1 DUP2 MSTORE PUSH1 0x20 ADD PUSH1 0x0 KECCAK256 SWAP1 DUP1 MLOAD SWAP1 PUSH1 0x20 ADD SWAP1 PUSH3 0x52B SWAP3 SWAP2 SWAP1 PUSH3 0x5BB JUMP JUMPDEST POP PUSH1 0x40 MLOAD DUP1 PUSH1 0x40 ADD PUSH1 0x40 MSTORE DUP1 PUSH1 0xE DUP2 MSTORE PUSH1 0x20 ADD PUSH32 0x50726F6A65637420636C6F736564000000000000000000000000000000000000 DUP2 MSTORE POP PUSH1 0x7 PUSH1 0x0 PUSH1 0x9 DUP1 DUP2 GT ISZERO PUSH3 0x57C JUMPI PUSH3 0x57B PUSH3 0x6A1 JUMP JUMPDEST JUMPDEST PUSH1 0x9 DUP2 GT ISZERO PUSH3 0x591 JUMPI PUSH3 0x590 PUSH3 0x6A1 JUMP JUMPDEST JUMPDEST DUP2 MSTORE PUSH1 0x20 ADD SWAP1 DUP2 MSTORE PUSH1 0x20 ADD PUSH1 0x0 KECCAK256 SWAP1 DUP1 MLOAD SWAP1 PUSH1 0x20 ADD SWAP1 PUSH3 0x5B4 SWAP3 SWAP2 SWAP1 PUSH3 0x5BB JUMP JUMPDEST POP PUSH3 0x6FF JUMP JUMPDEST DUP3 DUP1 SLOAD PUSH3 0x5C9 SWAP1 PUSH3 0x66B JUMP JUMPDEST SWAP1 PUSH1 0x0 MSTORE PUSH1 0x20 PUSH1 0x0 KECCAK256 SWAP1 PUSH1 0x1F ADD PUSH1 0x20 SWAP1 DIV DUP2 ADD SWAP3 DUP3 PUSH3 0x5ED JUMPI PUSH1 0x0 DUP6 SSTORE PUSH3 0x639 JUMP JUMPDEST DUP3 PUSH1 0x1F LT PUSH3 0x608 JUMPI DUP1 MLOAD PUSH1 0xFF NOT AND DUP4 DUP1 ADD OR DUP6 SSTORE PUSH3 0x639 JUMP JUMPDEST DUP3 DUP1 ADD PUSH1 0x1 ADD DUP6 SSTORE DUP3 ISZERO PUSH3 0x639 JUMPI SWAP2 DUP3 ADD JUMPDEST DUP3 DUP2 GT ISZERO PUSH3 0x638 JUMPI DUP3 MLOAD DUP3 SSTORE SWAP2 PUSH1 0x20 ADD SWAP2 SWAP1 PUSH1 0x1 ADD SWAP1 PUSH3 0x61B JUMP JUMPDEST JUMPDEST POP SWAP1 POP PUSH3 0x648 SWAP2 SWAP1 PUSH3 0x64C JUMP JUMPDEST POP SWAP1 JUMP JUMPDEST JUMPDEST DUP1 DUP3 GT ISZERO PUSH3 0x667 JUMPI PUSH1 0x0 DUP2 PUSH1 0x0 SWAP1 SSTORE POP PUSH1 0x1 ADD PUSH3 0x64D JUMP JUMPDEST POP SWAP1 JUMP JUMPDEST PUSH1 0x0 PUSH1 0x2 DUP3 DIV SWAP1 POP PUSH1 0x1 DUP3 AND DUP1 PUSH3 0x684 JUMPI PUSH1 0x7F DUP3 AND SWAP2 POP JUMPDEST PUSH1 0x20 DUP3 LT DUP2 EQ ISZERO PUSH3 0x69B JUMPI PUSH3 0x69A PUSH3 0x6D0 JUMP JUMPDEST JUMPDEST POP SWAP2 SWAP1 POP JUMP JUMPDEST PUSH32 0x4E487B7100000000000000000000000000000000000000000000000000000000 PUSH1 0x0 MSTORE PUSH1 0x21 PUSH1 0x4 MSTORE PUSH1 0x24 PUSH1 0x0 REVERT JUMPDEST PUSH32 0x4E487B7100000000000000000000000000000000000000000000000000000000 PUSH1 0x0 MSTORE PUSH1 0x22 PUSH1 0x4 MSTORE PUSH1 0x24 PUSH1 0x0 REVERT JUMPDEST PUSH2 0x4AC7 DUP1 PUSH3 0x70F PUSH1 0x0 CODECOPY PUSH1 0x0 RETURN INVALID PUSH1 0x80 PUSH1 0x40 MSTORE PUSH1 0x4 CALLDATASIZE LT PUSH2 0xFE JUMPI PUSH1 0x0 CALLDATALOAD PUSH1 0xE0 SHR DUP1 PUSH4 0x9D8E7E89 GT PUSH2 0x95 JUMPI DUP1 PUSH4 0xB9D093BF GT PUSH2 0x64 JUMPI DUP1 PUSH4 0xB9D093BF EQ PUSH2 0x363 JUMPI DUP1 PUSH4 0xCFC3D434 EQ PUSH2 0x38C JUMPI DUP1 PUSH4 0xE8620D14 EQ PUSH2 0x3C9 JUMPI DUP1 PUSH4 0xEF6ADD32 EQ PUSH2 0x3E5 JUMPI DUP1 PUSH4 0xFB709D2E EQ PUSH2 0x422 JUMPI PUSH2 0xFE JUMP JUMPDEST DUP1 PUSH4 0x9D8E7E89 EQ PUSH2 0x292 JUMPI DUP1 PUSH4 0xA0FD6622 EQ PUSH2 0x2CF JUMPI DUP1 PUSH4 0xACE1BCF8 EQ PUSH2 0x30F JUMPI DUP1 PUSH4 0xB61A7F76 EQ PUSH2 0x338 JUMPI PUSH2 0xFE JUMP JUMPDEST DUP1 PUSH4 0x1ED056D8 GT PUSH2 0xD1 JUMPI DUP1 PUSH4 0x1ED056D8 EQ PUSH2 0x1D8 JUMPI DUP1 PUSH4 0x5EA34326 EQ PUSH2 0x217 JUMPI DUP1 PUSH4 0x85A93223 EQ PUSH2 0x240 JUMPI DUP1 PUSH4 0x85FA74BC EQ PUSH2 0x269 JUMPI PUSH2 0xFE JUMP JUMPDEST DUP1 PUSH4 0x107046BD EQ PUSH2 0x103 JUMPI DUP1 PUSH4 0x141020CC EQ PUSH2 0x147 JUMPI DUP1 PUSH4 0x17F308B5 EQ PUSH2 0x170 JUMPI DUP1 PUSH4 0x1AB33308 EQ PUSH2 0x1AD JUMPI JUMPDEST PUSH1 0x0 DUP1 REVERT JUMPDEST CALLVALUE DUP1 ISZERO PUSH2 0x10F JUMPI PUSH1 0x0 DUP1 REVERT JUMPDEST POP PUSH2 0x12A PUSH1 0x4 DUP1 CALLDATASIZE SUB DUP2 ADD SWAP1 PUSH2 0x125 SWAP2 SWAP1 PUSH2 0x35DC JUMP JUMPDEST PUSH2 0x463 JUMP JUMPDEST PUSH1 0x40 MLOAD PUSH2 0x13E SWAP9 SWAP8 SWAP7 SWAP6 SWAP5 SWAP4 SWAP3 SWAP2 SWAP1 PUSH2 0x4030 JUMP JUMPDEST PUSH1 0x40 MLOAD DUP1 SWAP2 SUB SWAP1 RETURN JUMPDEST CALLVALUE DUP1 ISZERO PUSH2 0x153 JUMPI PUSH1 0x0 DUP1 REVERT JUMPDEST POP PUSH2 0x16E PUSH1 0x4 DUP1 CALLDATASIZE SUB DUP2 ADD SWAP1 PUSH2 0x169 SWAP2 SWAP1 PUSH2 0x3678 JUMP JUMPDEST PUSH2 0x57D JUMP JUMPDEST STOP JUMPDEST CALLVALUE DUP1 ISZERO PUSH2 0x17C JUMPI PUSH1 0x0 DUP1 REVERT JUMPDEST POP PUSH2 0x197 PUSH1 0x4 DUP1 CALLDATASIZE SUB DUP2 ADD SWAP1 PUSH2 0x192 SWAP2 SWAP1 PUSH2 0x36E7 JUMP JUMPDEST PUSH2 0x75B JUMP JUMPDEST PUSH1 0x40 MLOAD PUSH2 0x1A4 SWAP2 SWAP1 PUSH2 0x3F46 JUMP JUMPDEST PUSH1 0x40 MLOAD DUP1 SWAP2 SUB SWAP1 RETURN JUMPDEST CALLVALUE DUP1 ISZERO PUSH2 0x1B9 JUMPI PUSH1 0x0 DUP1 REVERT JUMPDEST POP PUSH2 0x1C2 PUSH2 0x8F7 JUMP JUMPDEST PUSH1 0x40 MLOAD PUSH2 0x1CF SWAP2 SWAP1 PUSH2 0x3CC9 JUMP JUMPDEST PUSH1 0x40 MLOAD DUP1 SWAP2 SUB SWAP1 RETURN JUMPDEST CALLVALUE DUP1 ISZERO PUSH2 0x1E4 JUMPI PUSH1 0x0 DUP1 REVERT JUMPDEST POP PUSH2 0x1FF PUSH1 0x4 DUP1 CALLDATASIZE SUB DUP2 ADD SWAP1 PUSH2 0x1FA SWAP2 SWAP1 PUSH2 0x36E7 JUMP JUMPDEST PUSH2 0x90A JUMP JUMPDEST PUSH1 0x40 MLOAD PUSH2 0x20E SWAP4 SWAP3 SWAP2 SWAP1 PUSH2 0x3FF9 JUMP JUMPDEST PUSH1 0x40 MLOAD DUP1 SWAP2 SUB SWAP1 RETURN JUMPDEST CALLVALUE DUP1 ISZERO PUSH2 0x223 JUMPI PUSH1 0x0 DUP1 REVERT JUMPDEST POP PUSH2 0x23E PUSH1 0x4 DUP1 CALLDATASIZE SUB DUP2 ADD SWAP1 PUSH2 0x239 SWAP2 SWAP1 PUSH2 0x388A JUMP JUMPDEST PUSH2 0xAF0 JUMP JUMPDEST STOP JUMPDEST CALLVALUE DUP1 ISZERO PUSH2 0x24C JUMPI PUSH1 0x0 DUP1 REVERT JUMPDEST POP PUSH2 0x267 PUSH1 0x4 DUP1 CALLDATASIZE SUB DUP2 ADD SWAP1 PUSH2 0x262 SWAP2 SWAP1 PUSH2 0x388A JUMP JUMPDEST PUSH2 0xFCC JUMP JUMPDEST STOP JUMPDEST CALLVALUE DUP1 ISZERO PUSH2 0x275 JUMPI PUSH1 0x0 DUP1 REVERT JUMPDEST POP PUSH2 0x290 PUSH1 0x4 DUP1 CALLDATASIZE SUB DUP2 ADD SWAP1 PUSH2 0x28B SWAP2 SWAP1 PUSH2 0x36E7 JUMP JUMPDEST PUSH2 0x1581 JUMP JUMPDEST STOP JUMPDEST CALLVALUE DUP1 ISZERO PUSH2 0x29E JUMPI PUSH1 0x0 DUP1 REVERT JUMPDEST POP PUSH2 0x2B9 PUSH1 0x4 DUP1 CALLDATASIZE SUB DUP2 ADD SWAP1 PUSH2 0x2B4 SWAP2 SWAP1 PUSH2 0x36E7 JUMP JUMPDEST PUSH2 0x1A0F JUMP JUMPDEST PUSH1 0x40 MLOAD PUSH2 0x2C6 SWAP2 SWAP1 PUSH2 0x3CE4 JUMP JUMPDEST PUSH1 0x40 MLOAD DUP1 SWAP2 SUB SWAP1 RETURN JUMPDEST CALLVALUE DUP1 ISZERO PUSH2 0x2DB JUMPI PUSH1 0x0 DUP1 REVERT JUMPDEST POP PUSH2 0x2F6 PUSH1 0x4 DUP1 CALLDATASIZE SUB DUP2 ADD SWAP1 PUSH2 0x2F1 SWAP2 SWAP1 PUSH2 0x35DC JUMP JUMPDEST PUSH2 0x1BF9 JUMP JUMPDEST PUSH1 0x40 MLOAD PUSH2 0x306 SWAP5 SWAP4 SWAP3 SWAP2 SWAP1 PUSH2 0x3C68 JUMP JUMPDEST PUSH1 0x40 MLOAD DUP1 SWAP2 SUB SWAP1 RETURN JUMPDEST CALLVALUE DUP1 ISZERO PUSH2 0x31B JUMPI PUSH1 0x0 DUP1 REVERT JUMPDEST POP PUSH2 0x336 PUSH1 0x4 DUP1 CALLDATASIZE SUB DUP2 ADD SWAP1 PUSH2 0x331 SWAP2 SWAP1 PUSH2 0x3609 JUMP JUMPDEST PUSH2 0x1FBF JUMP JUMPDEST STOP JUMPDEST CALLVALUE DUP1 ISZERO PUSH2 0x344 JUMPI PUSH1 0x0 DUP1 REVERT JUMPDEST POP PUSH2 0x34D PUSH2 0x220A JUMP JUMPDEST PUSH1 0x40 MLOAD PUSH2 0x35A SWAP2 SWAP1 PUSH2 0x3C4D JUMP JUMPDEST PUSH1 0x40 MLOAD DUP1 SWAP2 SUB SWAP1 RETURN JUMPDEST CALLVALUE DUP1 ISZERO PUSH2 0x36F JUMPI PUSH1 0x0 DUP1 REVERT JUMPDEST POP PUSH2 0x38A PUSH1 0x4 DUP1 CALLDATASIZE SUB DUP2 ADD SWAP1 PUSH2 0x385 SWAP2 SWAP1 PUSH2 0x37E1 JUMP JUMPDEST PUSH2 0x2230 JUMP JUMPDEST STOP JUMPDEST CALLVALUE DUP1 ISZERO PUSH2 0x398 JUMPI PUSH1 0x0 DUP1 REVERT JUMPDEST POP PUSH2 0x3B3 PUSH1 0x4 DUP1 CALLDATASIZE SUB DUP2 ADD SWAP1 PUSH2 0x3AE SWAP2 SWAP1 PUSH2 0x3727 JUMP JUMPDEST PUSH2 0x261E JUMP JUMPDEST PUSH1 0x40 MLOAD PUSH2 0x3C0 SWAP2 SWAP1 PUSH2 0x3F46 JUMP JUMPDEST PUSH1 0x40 MLOAD DUP1 SWAP2 SUB SWAP1 RETURN JUMPDEST PUSH2 0x3E3 PUSH1 0x4 DUP1 CALLDATASIZE SUB DUP2 ADD SWAP1 PUSH2 0x3DE SWAP2 SWAP1 PUSH2 0x377A JUMP JUMPDEST PUSH2 0x2825 JUMP JUMPDEST STOP JUMPDEST CALLVALUE DUP1 ISZERO PUSH2 0x3F1 JUMPI PUSH1 0x0 DUP1 REVERT JUMPDEST POP PUSH2 0x40C PUSH1 0x4 DUP1 CALLDATASIZE SUB DUP2 ADD SWAP1 PUSH2 0x407 SWAP2 SWAP1 PUSH2 0x35AF JUMP JUMPDEST PUSH2 0x2DCE JUMP JUMPDEST PUSH1 0x40 MLOAD PUSH2 0x419 SWAP2 SWAP1 PUSH2 0x3CE4 JUMP JUMPDEST PUSH1 0x40 MLOAD DUP1 SWAP2 SUB SWAP1 RETURN JUMPDEST CALLVALUE DUP1 ISZERO PUSH2 0x42E JUMPI PUSH1 0x0 DUP1 REVERT JUMPDEST POP PUSH2 0x449 PUSH1 0x4 DUP1 CALLDATASIZE SUB DUP2 ADD SWAP1 PUSH2 0x444 SWAP2 SWAP1 PUSH2 0x35DC JUMP JUMPDEST PUSH2 0x2E6E JUMP JUMPDEST PUSH1 0x40 MLOAD PUSH2 0x45A SWAP6 SWAP5 SWAP4 SWAP3 SWAP2 SWAP1 PUSH2 0x3F61 JUMP JUMPDEST PUSH1 0x40 MLOAD DUP1 SWAP2 SUB SWAP1 RETURN JUMPDEST PUSH1 0x0 DUP2 DUP2 SLOAD DUP2 LT PUSH2 0x473 JUMPI PUSH1 0x0 DUP1 REVERT JUMPDEST SWAP1 PUSH1 0x0 MSTORE PUSH1 0x20 PUSH1 0x0 KECCAK256 SWAP1 PUSH1 0x7 MUL ADD PUSH1 0x0 SWAP2 POP SWAP1 POP DUP1 PUSH1 0x0 ADD SLOAD SWAP1 DUP1 PUSH1 0x1 ADD SLOAD SWAP1 DUP1 PUSH1 0x2 ADD SLOAD SWAP1 DUP1 PUSH1 0x3 ADD SLOAD SWAP1 DUP1 PUSH1 0x4 ADD PUSH1 0x0 SWAP1 SLOAD SWAP1 PUSH2 0x100 EXP SWAP1 DIV PUSH20 0xFFFFFFFFFFFFFFFFFFFFFFFFFFFFFFFFFFFFFFFF AND SWAP1 DUP1 PUSH1 0x4 ADD PUSH1 0x14 SWAP1 SLOAD SWAP1 PUSH2 0x100 EXP SWAP1 DIV PUSH1 0xFF AND SWAP1 DUP1 PUSH1 0x5 ADD DUP1 SLOAD PUSH2 0x4E7 SWAP1 PUSH2 0x42A6 JUMP JUMPDEST DUP1 PUSH1 0x1F ADD PUSH1 0x20 DUP1 SWAP2 DIV MUL PUSH1 0x20 ADD PUSH1 0x40 MLOAD SWAP1 DUP2 ADD PUSH1 0x40 MSTORE DUP1 SWAP3 SWAP2 SWAP1 DUP2 DUP2 MSTORE PUSH1 0x20 ADD DUP3 DUP1 SLOAD PUSH2 0x513 SWAP1 PUSH2 0x42A6 JUMP JUMPDEST DUP1 ISZERO PUSH2 0x560 JUMPI DUP1 PUSH1 0x1F LT PUSH2 0x535 JUMPI PUSH2 0x100 DUP1 DUP4 SLOAD DIV MUL DUP4 MSTORE SWAP2 PUSH1 0x20 ADD SWAP2 PUSH2 0x560 JUMP JUMPDEST DUP3 ADD SWAP2 SWAP1 PUSH1 0x0 MSTORE PUSH1 0x20 PUSH1 0x0 KECCAK256 SWAP1 JUMPDEST DUP2 SLOAD DUP2 MSTORE SWAP1 PUSH1 0x1 ADD SWAP1 PUSH1 0x20 ADD DUP1 DUP4 GT PUSH2 0x543 JUMPI DUP3 SWAP1 SUB PUSH1 0x1F AND DUP3 ADD SWAP2 JUMPDEST POP POP POP POP POP SWAP1 DUP1 PUSH1 0x6 ADD PUSH1 0x0 SWAP1 SLOAD SWAP1 PUSH2 0x100 EXP SWAP1 DIV PUSH1 0xFF AND SWAP1 POP DUP9 JUMP JUMPDEST PUSH1 0x2 PUSH1 0x0 SWAP1 SLOAD SWAP1 PUSH2 0x100 EXP SWAP1 DIV PUSH20 0xFFFFFFFFFFFFFFFFFFFFFFFFFFFFFFFFFFFFFFFF AND PUSH20 0xFFFFFFFFFFFFFFFFFFFFFFFFFFFFFFFFFFFFFFFF AND CALLER PUSH20 0xFFFFFFFFFFFFFFFFFFFFFFFFFFFFFFFFFFFFFFFF AND EQ PUSH1 0x40 MLOAD DUP1 PUSH1 0x60 ADD PUSH1 0x40 MSTORE DUP1 PUSH1 0x33 DUP2 MSTORE PUSH1 0x20 ADD PUSH2 0x49FF PUSH1 0x33 SWAP2 CODECOPY SWAP1 PUSH2 0x628 JUMPI PUSH1 0x40 MLOAD PUSH32 0x8C379A000000000000000000000000000000000000000000000000000000000 DUP2 MSTORE PUSH1 0x4 ADD PUSH2 0x61F SWAP2 SWAP1 PUSH2 0x3CE4 JUMP JUMPDEST PUSH1 0x40 MLOAD DUP1 SWAP2 SUB SWAP1 REVERT JUMPDEST POP PUSH1 0x0 PUSH1 0x40 MLOAD DUP1 PUSH1 0xA0 ADD PUSH1 0x40 MSTORE DUP1 DUP6 DUP2 MSTORE PUSH1 0x20 ADD PUSH1 0x0 ISZERO ISZERO DUP2 MSTORE PUSH1 0x20 ADD PUSH1 0x40 MLOAD DUP1 PUSH1 0x20 ADD PUSH1 0x40 MSTORE DUP1 PUSH1 0x0 DUP2 MSTORE POP DUP2 MSTORE PUSH1 0x20 ADD DUP5 DUP2 MSTORE PUSH1 0x20 ADD DUP4 PUSH20 0xFFFFFFFFFFFFFFFFFFFFFFFFFFFFFFFFFFFFFFFF AND DUP2 MSTORE POP SWAP1 POP PUSH1 0x1 DUP2 SWAP1 DUP1 PUSH1 0x1 DUP2 SLOAD ADD DUP1 DUP3 SSTORE DUP1 SWAP2 POP POP PUSH1 0x1 SWAP1 SUB SWAP1 PUSH1 0x0 MSTORE PUSH1 0x20 PUSH1 0x0 KECCAK256 SWAP1 PUSH1 0x5 MUL ADD PUSH1 0x0 SWAP1 SWAP2 SWAP1 SWAP2 SWAP1 SWAP2 POP PUSH1 0x0 DUP3 ADD MLOAD DUP2 PUSH1 0x0 ADD SSTORE PUSH1 0x20 DUP3 ADD MLOAD DUP2 PUSH1 0x1 ADD PUSH1 0x0 PUSH2 0x100 EXP DUP2 SLOAD DUP2 PUSH1 0xFF MUL NOT AND SWAP1 DUP4 ISZERO ISZERO MUL OR SWAP1 SSTORE POP PUSH1 0x40 DUP3 ADD MLOAD DUP2 PUSH1 0x2 ADD SWAP1 DUP1 MLOAD SWAP1 PUSH1 0x20 ADD SWAP1 PUSH2 0x6EE SWAP3 SWAP2 SWAP1 PUSH2 0x3433 JUMP JUMPDEST POP PUSH1 0x60 DUP3 ADD MLOAD DUP2 PUSH1 0x3 ADD SWAP1 DUP1 MLOAD SWAP1 PUSH1 0x20 ADD SWAP1 PUSH2 0x70B SWAP3 SWAP2 SWAP1 PUSH2 0x3433 JUMP JUMPDEST POP PUSH1 0x80 DUP3 ADD MLOAD DUP2 PUSH1 0x4 ADD PUSH1 0x0 PUSH2 0x100 EXP DUP2 SLOAD DUP2 PUSH20 0xFFFFFFFFFFFFFFFFFFFFFFFFFFFFFFFFFFFFFFFF MUL NOT AND SWAP1 DUP4 PUSH20 0xFFFFFFFFFFFFFFFFFFFFFFFFFFFFFFFFFFFFFFFF AND MUL OR SWAP1 SSTORE POP POP POP POP POP POP POP JUMP JUMPDEST PUSH1 0x0 DUP1 PUSH1 0x0 DUP1 SLOAD SWAP1 POP GT PUSH2 0x7A4 JUMPI PUSH1 0x40 MLOAD PUSH32 0x8C379A000000000000000000000000000000000000000000000000000000000 DUP2 MSTORE PUSH1 0x4 ADD PUSH2 0x79B SWAP1 PUSH2 0x3E26 JUMP JUMPDEST PUSH1 0x40 MLOAD DUP1 SWAP2 SUB SWAP1 REVERT JUMPDEST PUSH1 0x0 PUSH1 0x3 PUSH1 0x0 DUP6 DUP2 MSTORE PUSH1 0x20 ADD SWAP1 DUP2 MSTORE PUSH1 0x20 ADD PUSH1 0x0 KECCAK256 SWAP1 POP PUSH1 0x0 DUP2 DUP1 SLOAD SWAP1 POP GT PUSH2 0x802 JUMPI PUSH1 0x40 MLOAD PUSH32 0x8C379A000000000000000000000000000000000000000000000000000000000 DUP2 MSTORE PUSH1 0x4 ADD PUSH2 0x7F9 SWAP1 PUSH2 0x3D06 JUMP JUMPDEST PUSH1 0x40 MLOAD DUP1 SWAP2 SUB SWAP1 REVERT JUMPDEST PUSH1 0x0 JUMPDEST DUP2 DUP1 SLOAD SWAP1 POP DUP2 LT ISZERO PUSH2 0x8B5 JUMPI DUP4 DUP3 DUP3 DUP2 SLOAD DUP2 LT PUSH2 0x825 JUMPI PUSH2 0x824 PUSH2 0x43DF JUMP JUMPDEST JUMPDEST SWAP1 PUSH1 0x0 MSTORE PUSH1 0x20 PUSH1 0x0 KECCAK256 SWAP1 PUSH1 0x7 MUL ADD PUSH1 0x0 ADD SLOAD EQ ISZERO PUSH2 0x8A2 JUMPI DUP2 DUP2 DUP2 SLOAD DUP2 LT PUSH2 0x850 JUMPI PUSH2 0x84F PUSH2 0x43DF JUMP JUMPDEST JUMPDEST SWAP1 PUSH1 0x0 MSTORE PUSH1 0x20 PUSH1 0x0 KECCAK256 SWAP1 PUSH1 0x7 MUL ADD PUSH1 0x4 ADD PUSH1 0x0 SWAP1 SLOAD SWAP1 PUSH2 0x100 EXP SWAP1 DIV PUSH20 0xFFFFFFFFFFFFFFFFFFFFFFFFFFFFFFFFFFFFFFFF AND PUSH20 0xFFFFFFFFFFFFFFFFFFFFFFFFFFFFFFFFFFFFFFFF AND BALANCE SWAP3 POP POP POP PUSH2 0x8F1 JUMP JUMPDEST DUP1 DUP1 PUSH2 0x8AD SWAP1 PUSH2 0x4309 JUMP JUMPDEST SWAP2 POP POP PUSH2 0x805 JUMP JUMPDEST POP PUSH1 0x40 MLOAD PUSH32 0x8C379A000000000000000000000000000000000000000000000000000000000 DUP2 MSTORE PUSH1 0x4 ADD PUSH2 0x8E8 SWAP1 PUSH2 0x3EC6 JUMP JUMPDEST PUSH1 0x40 MLOAD DUP1 SWAP2 SUB SWAP1 REVERT JUMPDEST SWAP3 SWAP2 POP POP JUMP JUMPDEST PUSH1 0x6 PUSH1 0x0 SWAP1 SLOAD SWAP1 PUSH2 0x100 EXP SWAP1 DIV PUSH1 0xFF AND DUP2 JUMP JUMPDEST PUSH1 0x0 DUP1 PUSH1 0x0 DUP1 PUSH1 0x0 DUP1 SLOAD SWAP1 POP GT PUSH2 0x956 JUMPI PUSH1 0x40 MLOAD PUSH32 0x8C379A000000000000000000000000000000000000000000000000000000000 DUP2 MSTORE PUSH1 0x4 ADD PUSH2 0x94D SWAP1 PUSH2 0x3E26 JUMP JUMPDEST PUSH1 0x40 MLOAD DUP1 SWAP2 SUB SWAP1 REVERT JUMPDEST PUSH1 0x0 PUSH1 0x3 PUSH1 0x0 DUP8 DUP2 MSTORE PUSH1 0x20 ADD SWAP1 DUP2 MSTORE PUSH1 0x20 ADD PUSH1 0x0 KECCAK256 SWAP1 POP PUSH1 0x0 DUP2 DUP1 SLOAD SWAP1 POP GT PUSH2 0x9B4 JUMPI PUSH1 0x40 MLOAD PUSH32 0x8C379A000000000000000000000000000000000000000000000000000000000 DUP2 MSTORE PUSH1 0x4 ADD PUSH2 0x9AB SWAP1 PUSH2 0x3D06 JUMP JUMPDEST PUSH1 0x40 MLOAD DUP1 SWAP2 SUB SWAP1 REVERT JUMPDEST PUSH1 0x0 JUMPDEST DUP2 DUP1 SLOAD SWAP1 POP DUP2 LT ISZERO PUSH2 0xAAD JUMPI DUP6 DUP3 DUP3 DUP2 SLOAD DUP2 LT PUSH2 0x9D7 JUMPI PUSH2 0x9D6 PUSH2 0x43DF JUMP JUMPDEST JUMPDEST SWAP1 PUSH1 0x0 MSTORE PUSH1 0x20 PUSH1 0x0 KECCAK256 SWAP1 PUSH1 0x7 MUL ADD PUSH1 0x0 ADD SLOAD EQ ISZERO PUSH2 0xA9A JUMPI DUP2 DUP2 DUP2 SLOAD DUP2 LT PUSH2 0xA02 JUMPI PUSH2 0xA01 PUSH2 0x43DF JUMP JUMPDEST JUMPDEST SWAP1 PUSH1 0x0 MSTORE PUSH1 0x20 PUSH1 0x0 KECCAK256 SWAP1 PUSH1 0x7 MUL ADD PUSH1 0x2 ADD SLOAD DUP3 DUP3 DUP2 SLOAD DUP2 LT PUSH2 0xA27 JUMPI PUSH2 0xA26 PUSH2 0x43DF JUMP JUMPDEST JUMPDEST SWAP1 PUSH1 0x0 MSTORE PUSH1 0x20 PUSH1 0x0 KECCAK256 SWAP1 PUSH1 0x7 MUL ADD PUSH1 0x3 ADD SLOAD DUP4 DUP4 DUP2 SLOAD DUP2 LT PUSH2 0xA4C JUMPI PUSH2 0xA4B PUSH2 0x43DF JUMP JUMPDEST JUMPDEST SWAP1 PUSH1 0x0 MSTORE PUSH1 0x20 PUSH1 0x0 KECCAK256 SWAP1 PUSH1 0x7 MUL ADD PUSH1 0x3 ADD SLOAD DUP5 DUP5 DUP2 SLOAD DUP2 LT PUSH2 0xA71 JUMPI PUSH2 0xA70 PUSH2 0x43DF JUMP JUMPDEST JUMPDEST SWAP1 PUSH1 0x0 MSTORE PUSH1 0x20 PUSH1 0x0 KECCAK256 SWAP1 PUSH1 0x7 MUL ADD PUSH1 0x2 ADD SLOAD PUSH2 0xA8D SWAP2 SWAP1 PUSH2 0x41B6 JUMP JUMPDEST SWAP5 POP SWAP5 POP SWAP5 POP POP POP PUSH2 0xAE9 JUMP JUMPDEST DUP1 DUP1 PUSH2 0xAA5 SWAP1 PUSH2 0x4309 JUMP JUMPDEST SWAP2 POP POP PUSH2 0x9B7 JUMP JUMPDEST POP PUSH1 0x40 MLOAD PUSH32 0x8C379A000000000000000000000000000000000000000000000000000000000 DUP2 MSTORE PUSH1 0x4 ADD PUSH2 0xAE0 SWAP1 PUSH2 0x3EC6 JUMP JUMPDEST PUSH1 0x40 MLOAD DUP1 SWAP2 SUB SWAP1 REVERT JUMPDEST SWAP3 POP SWAP3 POP SWAP3 JUMP JUMPDEST PUSH1 0x2 PUSH1 0x0 SWAP1 SLOAD SWAP1 PUSH2 0x100 EXP SWAP1 DIV PUSH20 0xFFFFFFFFFFFFFFFFFFFFFFFFFFFFFFFFFFFFFFFF AND PUSH20 0xFFFFFFFFFFFFFFFFFFFFFFFFFFFFFFFFFFFFFFFF AND CALLER PUSH20 0xFFFFFFFFFFFFFFFFFFFFFFFFFFFFFFFFFFFFFFFF AND EQ PUSH1 0x40 MLOAD DUP1 PUSH1 0x60 ADD PUSH1 0x40 MSTORE DUP1 PUSH1 0x33 DUP2 MSTORE PUSH1 0x20 ADD PUSH2 0x49FF PUSH1 0x33 SWAP2 CODECOPY SWAP1 PUSH2 0xB9B JUMPI PUSH1 0x40 MLOAD PUSH32 0x8C379A000000000000000000000000000000000000000000000000000000000 DUP2 MSTORE PUSH1 0x4 ADD PUSH2 0xB92 SWAP2 SWAP1 PUSH2 0x3CE4 JUMP JUMPDEST PUSH1 0x40 MLOAD DUP1 SWAP2 SUB SWAP1 REVERT JUMPDEST POP PUSH1 0x0 DUP1 DUP1 SLOAD SWAP1 POP GT PUSH2 0xBE3 JUMPI PUSH1 0x40 MLOAD PUSH32 0x8C379A000000000000000000000000000000000000000000000000000000000 DUP2 MSTORE PUSH1 0x4 ADD PUSH2 0xBDA SWAP1 PUSH2 0x3E26 JUMP JUMPDEST PUSH1 0x40 MLOAD DUP1 SWAP2 SUB SWAP1 REVERT JUMPDEST PUSH1 0x0 PUSH1 0x9 DUP2 GT ISZERO PUSH2 0xBF7 JUMPI PUSH2 0xBF6 PUSH2 0x4381 JUMP JUMPDEST JUMPDEST DUP2 PUSH1 0xFF AND PUSH1 0x9 DUP2 GT ISZERO PUSH2 0xC0D JUMPI PUSH2 0xC0C PUSH2 0x4381 JUMP JUMPDEST JUMPDEST PUSH1 0x9 DUP2 GT ISZERO PUSH2 0xC1F JUMPI PUSH2 0xC1E PUSH2 0x4381 JUMP JUMPDEST JUMPDEST EQ ISZERO PUSH1 0x40 MLOAD DUP1 PUSH1 0x60 ADD PUSH1 0x40 MSTORE DUP1 PUSH1 0x31 DUP2 MSTORE PUSH1 0x20 ADD PUSH2 0x4A32 PUSH1 0x31 SWAP2 CODECOPY SWAP1 PUSH2 0xC7B JUMPI PUSH1 0x40 MLOAD PUSH32 0x8C379A000000000000000000000000000000000000000000000000000000000 DUP2 MSTORE PUSH1 0x4 ADD PUSH2 0xC72 SWAP2 SWAP1 PUSH2 0x3CE4 JUMP JUMPDEST PUSH1 0x40 MLOAD DUP1 SWAP2 SUB SWAP1 REVERT JUMPDEST POP PUSH1 0x2 PUSH1 0x9 DUP2 GT ISZERO PUSH2 0xC90 JUMPI PUSH2 0xC8F PUSH2 0x4381 JUMP JUMPDEST JUMPDEST DUP2 PUSH1 0xFF AND PUSH1 0x9 DUP2 GT ISZERO PUSH2 0xCA6 JUMPI PUSH2 0xCA5 PUSH2 0x4381 JUMP JUMPDEST JUMPDEST PUSH1 0x9 DUP2 GT ISZERO PUSH2 0xCB8 JUMPI PUSH2 0xCB7 PUSH2 0x4381 JUMP JUMPDEST JUMPDEST EQ ISZERO PUSH1 0x40 MLOAD DUP1 PUSH1 0x60 ADD PUSH1 0x40 MSTORE DUP1 PUSH1 0x31 DUP2 MSTORE PUSH1 0x20 ADD PUSH2 0x4A32 PUSH1 0x31 SWAP2 CODECOPY SWAP1 PUSH2 0xD14 JUMPI PUSH1 0x40 MLOAD PUSH32 0x8C379A000000000000000000000000000000000000000000000000000000000 DUP2 MSTORE PUSH1 0x4 ADD PUSH2 0xD0B SWAP2 SWAP1 PUSH2 0x3CE4 JUMP JUMPDEST PUSH1 0x40 MLOAD DUP1 SWAP2 SUB SWAP1 REVERT JUMPDEST POP PUSH1 0x3 PUSH1 0x9 DUP2 GT ISZERO PUSH2 0xD29 JUMPI PUSH2 0xD28 PUSH2 0x4381 JUMP JUMPDEST JUMPDEST DUP2 PUSH1 0xFF AND PUSH1 0x9 DUP2 GT ISZERO PUSH2 0xD3F JUMPI PUSH2 0xD3E PUSH2 0x4381 JUMP JUMPDEST JUMPDEST PUSH1 0x9 DUP2 GT ISZERO PUSH2 0xD51 JUMPI PUSH2 0xD50 PUSH2 0x4381 JUMP JUMPDEST JUMPDEST EQ ISZERO PUSH1 0x40 MLOAD DUP1 PUSH1 0x60 ADD PUSH1 0x40 MSTORE DUP1 PUSH1 0x31 DUP2 MSTORE PUSH1 0x20 ADD PUSH2 0x4A32 PUSH1 0x31 SWAP2 CODECOPY SWAP1 PUSH2 0xDAD JUMPI PUSH1 0x40 MLOAD PUSH32 0x8C379A000000000000000000000000000000000000000000000000000000000 DUP2 MSTORE PUSH1 0x4 ADD PUSH2 0xDA4 SWAP2 SWAP1 PUSH2 0x3CE4 JUMP JUMPDEST PUSH1 0x40 MLOAD DUP1 SWAP2 SUB SWAP1 REVERT JUMPDEST POP PUSH1 0x4 PUSH1 0x9 DUP2 GT ISZERO PUSH2 0xDC2 JUMPI PUSH2 0xDC1 PUSH2 0x4381 JUMP JUMPDEST JUMPDEST DUP2 PUSH1 0xFF AND PUSH1 0x9 DUP2 GT ISZERO PUSH2 0xDD8 JUMPI PUSH2 0xDD7 PUSH2 0x4381 JUMP JUMPDEST JUMPDEST PUSH1 0x9 DUP2 GT ISZERO PUSH2 0xDEA JUMPI PUSH2 0xDE9 PUSH2 0x4381 JUMP JUMPDEST JUMPDEST EQ ISZERO PUSH1 0x40 MLOAD DUP1 PUSH1 0x60 ADD PUSH1 0x40 MSTORE DUP1 PUSH1 0x31 DUP2 MSTORE PUSH1 0x20 ADD PUSH2 0x4A32 PUSH1 0x31 SWAP2 CODECOPY SWAP1 PUSH2 0xE46 JUMPI PUSH1 0x40 MLOAD PUSH32 0x8C379A000000000000000000000000000000000000000000000000000000000 DUP2 MSTORE PUSH1 0x4 ADD PUSH2 0xE3D SWAP2 SWAP1 PUSH2 0x3CE4 JUMP JUMPDEST PUSH1 0x40 MLOAD DUP1 SWAP2 SUB SWAP1 REVERT JUMPDEST POP PUSH1 0x0 PUSH1 0x3 PUSH1 0x0 DUP5 DUP2 MSTORE PUSH1 0x20 ADD SWAP1 DUP2 MSTORE PUSH1 0x20 ADD PUSH1 0x0 KECCAK256 SWAP1 POP PUSH1 0x0 DUP2 DUP1 SLOAD SWAP1 POP GT PUSH2 0xEA5 JUMPI PUSH1 0x40 MLOAD PUSH32 0x8C379A000000000000000000000000000000000000000000000000000000000 DUP2 MSTORE PUSH1 0x4 ADD PUSH2 0xE9C SWAP1 PUSH2 0x3E86 JUMP JUMPDEST PUSH1 0x40 MLOAD DUP1 SWAP2 SUB SWAP1 REVERT JUMPDEST PUSH1 0x0 JUMPDEST DUP2 DUP1 SLOAD SWAP1 POP DUP2 LT ISZERO PUSH2 0xFC5 JUMPI DUP5 DUP3 DUP3 DUP2 SLOAD DUP2 LT PUSH2 0xEC8 JUMPI PUSH2 0xEC7 PUSH2 0x43DF JUMP JUMPDEST JUMPDEST SWAP1 PUSH1 0x0 MSTORE PUSH1 0x20 PUSH1 0x0 KECCAK256 SWAP1 PUSH1 0x7 MUL ADD PUSH1 0x0 ADD SLOAD EQ ISZERO PUSH2 0xFB2 JUMPI DUP3 PUSH1 0xFF AND PUSH1 0x9 DUP2 GT ISZERO PUSH2 0xEF6 JUMPI PUSH2 0xEF5 PUSH2 0x4381 JUMP JUMPDEST JUMPDEST DUP3 DUP3 DUP2 SLOAD DUP2 LT PUSH2 0xF09 JUMPI PUSH2 0xF08 PUSH2 0x43DF JUMP JUMPDEST JUMPDEST SWAP1 PUSH1 0x0 MSTORE PUSH1 0x20 PUSH1 0x0 KECCAK256 SWAP1 PUSH1 0x7 MUL ADD PUSH1 0x6 ADD PUSH1 0x0 PUSH2 0x100 EXP DUP2 SLOAD DUP2 PUSH1 0xFF MUL NOT AND SWAP1 DUP4 PUSH1 0x9 DUP2 GT ISZERO PUSH2 0xF3C JUMPI PUSH2 0xF3B PUSH2 0x4381 JUMP JUMPDEST JUMPDEST MUL OR SWAP1 SSTORE POP PUSH32 0x42B0281EF1BA120F08AE315789F8639D48731DB33EAAC502B629A775C997471B DUP5 DUP7 DUP5 DUP5 DUP2 SLOAD DUP2 LT PUSH2 0xF77 JUMPI PUSH2 0xF76 PUSH2 0x43DF JUMP JUMPDEST JUMPDEST SWAP1 PUSH1 0x0 MSTORE PUSH1 0x20 PUSH1 0x0 KECCAK256 SWAP1 PUSH1 0x7 MUL ADD PUSH1 0x6 ADD PUSH1 0x0 SWAP1 SLOAD SWAP1 PUSH2 0x100 EXP SWAP1 DIV PUSH1 0xFF AND PUSH1 0x40 MLOAD PUSH2 0xFA5 SWAP4 SWAP3 SWAP2 SWAP1 PUSH2 0x3FC2 JUMP JUMPDEST PUSH1 0x40 MLOAD DUP1 SWAP2 SUB SWAP1 LOG1 PUSH2 0xFC5 JUMP JUMPDEST DUP1 DUP1 PUSH2 0xFBD SWAP1 PUSH2 0x4309 JUMP JUMPDEST SWAP2 POP POP PUSH2 0xEA8 JUMP JUMPDEST POP POP POP POP POP JUMP JUMPDEST PUSH1 0x2 PUSH1 0x0 SWAP1 SLOAD SWAP1 PUSH2 0x100 EXP SWAP1 DIV PUSH20 0xFFFFFFFFFFFFFFFFFFFFFFFFFFFFFFFFFFFFFFFF AND PUSH20 0xFFFFFFFFFFFFFFFFFFFFFFFFFFFFFFFFFFFFFFFF AND CALLER PUSH20 0xFFFFFFFFFFFFFFFFFFFFFFFFFFFFFFFFFFFFFFFF AND EQ ISZERO PUSH1 0x40 MLOAD DUP1 PUSH1 0x60 ADD PUSH1 0x40 MSTORE DUP1 PUSH1 0x2F DUP2 MSTORE PUSH1 0x20 ADD PUSH2 0x4A63 PUSH1 0x2F SWAP2 CODECOPY SWAP1 PUSH2 0x1078 JUMPI PUSH1 0x40 MLOAD PUSH32 0x8C379A000000000000000000000000000000000000000000000000000000000 DUP2 MSTORE PUSH1 0x4 ADD PUSH2 0x106F SWAP2 SWAP1 PUSH2 0x3CE4 JUMP JUMPDEST PUSH1 0x40 MLOAD DUP1 SWAP2 SUB SWAP1 REVERT JUMPDEST POP PUSH1 0x0 PUSH1 0x3 PUSH1 0x9 DUP2 GT ISZERO PUSH2 0x108F JUMPI PUSH2 0x108E PUSH2 0x4381 JUMP JUMPDEST JUMPDEST DUP3 PUSH1 0xFF AND PUSH1 0x9 DUP2 GT ISZERO PUSH2 0x10A5 JUMPI PUSH2 0x10A4 PUSH2 0x4381 JUMP JUMPDEST JUMPDEST PUSH1 0x9 DUP2 GT ISZERO PUSH2 0x10B7 JUMPI PUSH2 0x10B6 PUSH2 0x4381 JUMP JUMPDEST JUMPDEST EQ ISZERO PUSH1 0x40 MLOAD DUP1 PUSH1 0x60 ADD PUSH1 0x40 MSTORE DUP1 PUSH1 0x31 DUP2 MSTORE PUSH1 0x20 ADD PUSH2 0x4A32 PUSH1 0x31 SWAP2 CODECOPY SWAP1 PUSH2 0x1113 JUMPI PUSH1 0x40 MLOAD PUSH32 0x8C379A000000000000000000000000000000000000000000000000000000000 DUP2 MSTORE PUSH1 0x4 ADD PUSH2 0x110A SWAP2 SWAP1 PUSH2 0x3CE4 JUMP JUMPDEST PUSH1 0x40 MLOAD DUP1 SWAP2 SUB SWAP1 REVERT JUMPDEST POP PUSH1 0x5 PUSH1 0x9 DUP2 GT ISZERO PUSH2 0x1128 JUMPI PUSH2 0x1127 PUSH2 0x4381 JUMP JUMPDEST JUMPDEST DUP3 PUSH1 0xFF AND PUSH1 0x9 DUP2 GT ISZERO PUSH2 0x113E JUMPI PUSH2 0x113D PUSH2 0x4381 JUMP JUMPDEST JUMPDEST PUSH1 0x9 DUP2 GT ISZERO PUSH2 0x1150 JUMPI PUSH2 0x114F PUSH2 0x4381 JUMP JUMPDEST JUMPDEST EQ ISZERO PUSH1 0x40 MLOAD DUP1 PUSH1 0x60 ADD PUSH1 0x40 MSTORE DUP1 PUSH1 0x31 DUP2 MSTORE PUSH1 0x20 ADD PUSH2 0x4A32 PUSH1 0x31 SWAP2 CODECOPY SWAP1 PUSH2 0x11AC JUMPI PUSH1 0x40 MLOAD PUSH32 0x8C379A000000000000000000000000000000000000000000000000000000000 DUP2 MSTORE PUSH1 0x4 ADD PUSH2 0x11A3 SWAP2 SWAP1 PUSH2 0x3CE4 JUMP JUMPDEST PUSH1 0x40 MLOAD DUP1 SWAP2 SUB SWAP1 REVERT JUMPDEST POP PUSH1 0x0 PUSH1 0x3 PUSH1 0x0 DUP6 DUP2 MSTORE PUSH1 0x20 ADD SWAP1 DUP2 MSTORE PUSH1 0x20 ADD PUSH1 0x0 KECCAK256 SWAP1 POP PUSH1 0x0 DUP2 DUP1 SLOAD SWAP1 POP GT PUSH2 0x120B JUMPI PUSH1 0x40 MLOAD PUSH32 0x8C379A000000000000000000000000000000000000000000000000000000000 DUP2 MSTORE PUSH1 0x4 ADD PUSH2 0x1202 SWAP1 PUSH2 0x3E66 JUMP JUMPDEST PUSH1 0x40 MLOAD DUP1 SWAP2 SUB SWAP1 REVERT JUMPDEST PUSH1 0x0 JUMPDEST DUP2 DUP1 SLOAD SWAP1 POP DUP2 LT ISZERO PUSH2 0x1579 JUMPI DUP6 DUP3 DUP3 DUP2 SLOAD DUP2 LT PUSH2 0x122E JUMPI PUSH2 0x122D PUSH2 0x43DF JUMP JUMPDEST JUMPDEST SWAP1 PUSH1 0x0 MSTORE PUSH1 0x20 PUSH1 0x0 KECCAK256 SWAP1 PUSH1 0x7 MUL ADD PUSH1 0x0 ADD SLOAD EQ ISZERO PUSH2 0x155B JUMPI PUSH1 0x1 SWAP3 POP PUSH1 0x0 DUP3 DUP3 DUP2 SLOAD DUP2 LT PUSH2 0x125F JUMPI PUSH2 0x125E PUSH2 0x43DF JUMP JUMPDEST JUMPDEST SWAP1 PUSH1 0x0 MSTORE PUSH1 0x20 PUSH1 0x0 KECCAK256 SWAP1 PUSH1 0x7 MUL ADD PUSH1 0x4 ADD PUSH1 0x14 PUSH2 0x100 EXP DUP2 SLOAD DUP2 PUSH1 0xFF MUL NOT AND SWAP1 DUP4 ISZERO ISZERO MUL OR SWAP1 SSTORE POP PUSH1 0x7 PUSH1 0x9 DUP2 GT ISZERO PUSH2 0x129B JUMPI PUSH2 0x129A PUSH2 0x4381 JUMP JUMPDEST JUMPDEST DUP5 PUSH1 0xFF AND PUSH1 0x9 DUP2 GT ISZERO PUSH2 0x12B1 JUMPI PUSH2 0x12B0 PUSH2 0x4381 JUMP JUMPDEST JUMPDEST PUSH1 0x9 DUP2 GT ISZERO PUSH2 0x12C3 JUMPI PUSH2 0x12C2 PUSH2 0x4381 JUMP JUMPDEST JUMPDEST EQ DUP1 PUSH2 0x1308 JUMPI POP PUSH1 0x6 PUSH1 0x9 DUP2 GT ISZERO PUSH2 0x12DE JUMPI PUSH2 0x12DD PUSH2 0x4381 JUMP JUMPDEST JUMPDEST DUP5 PUSH1 0xFF AND PUSH1 0x9 DUP2 GT ISZERO PUSH2 0x12F4 JUMPI PUSH2 0x12F3 PUSH2 0x4381 JUMP JUMPDEST JUMPDEST PUSH1 0x9 DUP2 GT ISZERO PUSH2 0x1306 JUMPI PUSH2 0x1305 PUSH2 0x4381 JUMP JUMPDEST JUMPDEST EQ JUMPDEST ISZERO PUSH2 0x1479 JUMPI PUSH32 0x2DE098063448DBE8B26FA82794CD68CF748EDB4F3E2CC43166E3AD659757019E DUP6 DUP8 DUP7 PUSH1 0xFF AND PUSH1 0x9 DUP2 GT ISZERO PUSH2 0x1346 JUMPI PUSH2 0x1345 PUSH2 0x4381 JUMP JUMPDEST JUMPDEST PUSH1 0x40 MLOAD PUSH2 0x1355 SWAP4 SWAP3 SWAP2 SWAP1 PUSH2 0x3FC2 JUMP JUMPDEST PUSH1 0x40 MLOAD DUP1 SWAP2 SUB SWAP1 LOG1 PUSH1 0x7 PUSH1 0x9 DUP2 GT ISZERO PUSH2 0x1371 JUMPI PUSH2 0x1370 PUSH2 0x4381 JUMP JUMPDEST JUMPDEST DUP5 PUSH1 0xFF AND PUSH1 0x9 DUP2 GT ISZERO PUSH2 0x1387 JUMPI PUSH2 0x1386 PUSH2 0x4381 JUMP JUMPDEST JUMPDEST PUSH1 0x9 DUP2 GT ISZERO PUSH2 0x1399 JUMPI PUSH2 0x1398 PUSH2 0x4381 JUMP JUMPDEST JUMPDEST EQ ISZERO PUSH2 0x13EA JUMPI PUSH2 0x13A9 DUP6 DUP8 PUSH2 0x2FF1 JUMP JUMPDEST PUSH32 0xBD0E0CBB7F526D9C7052B56C5D1873EE7B834959CD785B696DD0F9D418D9617A DUP6 DUP8 PUSH1 0x8 PUSH1 0x40 MLOAD PUSH2 0x13DD SWAP4 SWAP3 SWAP2 SWAP1 PUSH2 0x3FC2 JUMP JUMPDEST PUSH1 0x40 MLOAD DUP1 SWAP2 SUB SWAP1 LOG1 PUSH2 0x1474 JUMP JUMPDEST PUSH1 0x6 PUSH1 0x9 DUP2 GT ISZERO PUSH2 0x13FE JUMPI PUSH2 0x13FD PUSH2 0x4381 JUMP JUMPDEST JUMPDEST DUP5 PUSH1 0xFF AND PUSH1 0x9 DUP2 GT ISZERO PUSH2 0x1414 JUMPI PUSH2 0x1413 PUSH2 0x4381 JUMP JUMPDEST JUMPDEST PUSH1 0x9 DUP2 GT ISZERO PUSH2 0x1426 JUMPI PUSH2 0x1425 PUSH2 0x4381 JUMP JUMPDEST JUMPDEST EQ ISZERO PUSH2 0x1473 JUMPI PUSH2 0x1436 DUP6 DUP8 PUSH2 0x3287 JUMP JUMPDEST PUSH32 0xBD0E0CBB7F526D9C7052B56C5D1873EE7B834959CD785B696DD0F9D418D9617A DUP6 DUP8 PUSH1 0x9 PUSH1 0x40 MLOAD PUSH2 0x146A SWAP4 SWAP3 SWAP2 SWAP1 PUSH2 0x3FC2 JUMP JUMPDEST PUSH1 0x40 MLOAD DUP1 SWAP2 SUB SWAP1 LOG1 JUMPDEST JUMPDEST PUSH2 0x155A JUMP JUMPDEST DUP4 PUSH1 0xFF AND PUSH1 0x9 DUP2 GT ISZERO PUSH2 0x148F JUMPI PUSH2 0x148E PUSH2 0x4381 JUMP JUMPDEST JUMPDEST DUP3 DUP3 DUP2 SLOAD DUP2 LT PUSH2 0x14A2 JUMPI PUSH2 0x14A1 PUSH2 0x43DF JUMP JUMPDEST JUMPDEST SWAP1 PUSH1 0x0 MSTORE PUSH1 0x20 PUSH1 0x0 KECCAK256 SWAP1 PUSH1 0x7 MUL ADD PUSH1 0x6 ADD PUSH1 0x0 PUSH2 0x100 EXP DUP2 SLOAD DUP2 PUSH1 0xFF MUL NOT AND SWAP1 DUP4 PUSH1 0x9 DUP2 GT ISZERO PUSH2 0x14D5 JUMPI PUSH2 0x14D4 PUSH2 0x4381 JUMP JUMPDEST JUMPDEST MUL OR SWAP1 SSTORE POP PUSH1 0x4 PUSH1 0x9 DUP2 GT ISZERO PUSH2 0x14EE JUMPI PUSH2 0x14ED PUSH2 0x4381 JUMP JUMPDEST JUMPDEST DUP5 PUSH1 0xFF AND PUSH1 0x9 DUP2 GT ISZERO PUSH2 0x1504 JUMPI PUSH2 0x1503 PUSH2 0x4381 JUMP JUMPDEST JUMPDEST PUSH1 0x9 DUP2 GT ISZERO PUSH2 0x1516 JUMPI PUSH2 0x1515 PUSH2 0x4381 JUMP JUMPDEST JUMPDEST EQ ISZERO PUSH2 0x1559 JUMPI PUSH32 0xD49FC9FA26FA9FC112EFD004ACB9EEABF80810373D2CBB1A7884D4D64E8E8D2B DUP6 DUP8 PUSH1 0x4 PUSH1 0x40 MLOAD PUSH2 0x1550 SWAP4 SWAP3 SWAP2 SWAP1 PUSH2 0x3FC2 JUMP JUMPDEST PUSH1 0x40 MLOAD DUP1 SWAP2 SUB SWAP1 LOG1 JUMPDEST JUMPDEST JUMPDEST DUP3 ISZERO PUSH2 0x1566 JUMPI PUSH2 0x1579 JUMP JUMPDEST DUP1 DUP1 PUSH2 0x1571 SWAP1 PUSH2 0x4309 JUMP JUMPDEST SWAP2 POP POP PUSH2 0x120E JUMP JUMPDEST POP POP POP POP POP POP JUMP JUMPDEST PUSH1 0x0 DUP1 PUSH1 0x0 PUSH1 0x3 PUSH1 0x0 DUP7 DUP2 MSTORE PUSH1 0x20 ADD SWAP1 DUP2 MSTORE PUSH1 0x20 ADD PUSH1 0x0 KECCAK256 SWAP1 POP PUSH1 0x0 DUP2 DUP1 SLOAD SWAP1 POP GT PUSH2 0x15E2 JUMPI PUSH1 0x40 MLOAD PUSH32 0x8C379A000000000000000000000000000000000000000000000000000000000 DUP2 MSTORE PUSH1 0x4 ADD PUSH2 0x15D9 SWAP1 PUSH2 0x3D06 JUMP JUMPDEST PUSH1 0x40 MLOAD DUP1 SWAP2 SUB SWAP1 REVERT JUMPDEST PUSH1 0x0 PUSH1 0x5 PUSH1 0x0 DUP7 DUP2 MSTORE PUSH1 0x20 ADD SWAP1 DUP2 MSTORE PUSH1 0x20 ADD PUSH1 0x0 KECCAK256 SWAP1 POP PUSH1 0x0 JUMPDEST DUP2 DUP1 SLOAD SWAP1 POP DUP2 LT ISZERO PUSH2 0x19C6 JUMPI CALLER PUSH20 0xFFFFFFFFFFFFFFFFFFFFFFFFFFFFFFFFFFFFFFFF AND DUP3 DUP3 DUP2 SLOAD DUP2 LT PUSH2 0x1632 JUMPI PUSH2 0x1631 PUSH2 0x43DF JUMP JUMPDEST JUMPDEST SWAP1 PUSH1 0x0 MSTORE PUSH1 0x20 PUSH1 0x0 KECCAK256 SWAP1 PUSH1 0x3 MUL ADD PUSH1 0x1 ADD PUSH1 0x0 SWAP1 SLOAD SWAP1 PUSH2 0x100 EXP SWAP1 DIV PUSH20 0xFFFFFFFFFFFFFFFFFFFFFFFFFFFFFFFFFFFFFFFF AND PUSH20 0xFFFFFFFFFFFFFFFFFFFFFFFFFFFFFFFFFFFFFFFF AND EQ DUP1 ISZERO PUSH2 0x16BC JUMPI POP PUSH1 0x0 DUP3 DUP3 DUP2 SLOAD DUP2 LT PUSH2 0x1697 JUMPI PUSH2 0x1696 PUSH2 0x43DF JUMP JUMPDEST JUMPDEST SWAP1 PUSH1 0x0 MSTORE PUSH1 0x20 PUSH1 0x0 KECCAK256 SWAP1 PUSH1 0x3 MUL ADD PUSH1 0x2 ADD PUSH1 0x0 DUP9 DUP2 MSTORE PUSH1 0x20 ADD SWAP1 DUP2 MSTORE PUSH1 0x20 ADD PUSH1 0x0 KECCAK256 SLOAD GT JUMPDEST ISZERO PUSH2 0x19B3 JUMPI PUSH1 0x0 JUMPDEST DUP4 DUP1 SLOAD SWAP1 POP DUP2 LT ISZERO PUSH2 0x18B2 JUMPI DUP7 DUP5 DUP3 DUP2 SLOAD DUP2 LT PUSH2 0x16E4 JUMPI PUSH2 0x16E3 PUSH2 0x43DF JUMP JUMPDEST JUMPDEST SWAP1 PUSH1 0x0 MSTORE PUSH1 0x20 PUSH1 0x0 KECCAK256 SWAP1 PUSH1 0x7 MUL ADD PUSH1 0x0 ADD SLOAD EQ ISZERO PUSH2 0x189F JUMPI PUSH1 0x3 PUSH1 0x9 DUP2 GT ISZERO PUSH2 0x1710 JUMPI PUSH2 0x170F PUSH2 0x4381 JUMP JUMPDEST JUMPDEST DUP5 DUP3 DUP2 SLOAD DUP2 LT PUSH2 0x1723 JUMPI PUSH2 0x1722 PUSH2 0x43DF JUMP JUMPDEST JUMPDEST SWAP1 PUSH1 0x0 MSTORE PUSH1 0x20 PUSH1 0x0 KECCAK256 SWAP1 PUSH1 0x7 MUL ADD PUSH1 0x6 ADD PUSH1 0x0 SWAP1 SLOAD SWAP1 PUSH2 0x100 EXP SWAP1 DIV PUSH1 0xFF AND PUSH1 0x9 DUP2 GT ISZERO PUSH2 0x1754 JUMPI PUSH2 0x1753 PUSH2 0x4381 JUMP JUMPDEST JUMPDEST GT ISZERO PUSH2 0x1795 JUMPI PUSH1 0x40 MLOAD PUSH32 0x8C379A000000000000000000000000000000000000000000000000000000000 DUP2 MSTORE PUSH1 0x4 ADD PUSH2 0x178C SWAP1 PUSH2 0x3E06 JUMP JUMPDEST PUSH1 0x40 MLOAD DUP1 SWAP2 SUB SWAP1 REVERT JUMPDEST DUP3 DUP3 DUP2 SLOAD DUP2 LT PUSH2 0x17A8 JUMPI PUSH2 0x17A7 PUSH2 0x43DF JUMP JUMPDEST JUMPDEST SWAP1 PUSH1 0x0 MSTORE PUSH1 0x20 PUSH1 0x0 KECCAK256 SWAP1 PUSH1 0x3 MUL ADD PUSH1 0x2 ADD PUSH1 0x0 DUP9 DUP2 MSTORE PUSH1 0x20 ADD SWAP1 DUP2 MSTORE PUSH1 0x20 ADD PUSH1 0x0 KECCAK256 SLOAD DUP5 DUP3 DUP2 SLOAD DUP2 LT PUSH2 0x17DE JUMPI PUSH2 0x17DD PUSH2 0x43DF JUMP JUMPDEST JUMPDEST SWAP1 PUSH1 0x0 MSTORE PUSH1 0x20 PUSH1 0x0 KECCAK256 SWAP1 PUSH1 0x7 MUL ADD PUSH1 0x3 ADD SLOAD PUSH2 0x17FA SWAP2 SWAP1 PUSH2 0x41B6 JUMP JUMPDEST DUP5 DUP3 DUP2 SLOAD DUP2 LT PUSH2 0x180D JUMPI PUSH2 0x180C PUSH2 0x43DF JUMP JUMPDEST JUMPDEST SWAP1 PUSH1 0x0 MSTORE PUSH1 0x20 PUSH1 0x0 KECCAK256 SWAP1 PUSH1 0x7 MUL ADD PUSH1 0x3 ADD DUP2 SWAP1 SSTORE POP DUP4 DUP2 DUP2 SLOAD DUP2 LT PUSH2 0x1835 JUMPI PUSH2 0x1834 PUSH2 0x43DF JUMP JUMPDEST JUMPDEST SWAP1 PUSH1 0x0 MSTORE PUSH1 0x20 PUSH1 0x0 KECCAK256 SWAP1 PUSH1 0x7 MUL ADD PUSH1 0x4 ADD PUSH1 0x14 SWAP1 SLOAD SWAP1 PUSH2 0x100 EXP SWAP1 DIV PUSH1 0xFF AND PUSH2 0x1896 JUMPI PUSH1 0x1 DUP5 DUP3 DUP2 SLOAD DUP2 LT PUSH2 0x186D JUMPI PUSH2 0x186C PUSH2 0x43DF JUMP JUMPDEST JUMPDEST SWAP1 PUSH1 0x0 MSTORE PUSH1 0x20 PUSH1 0x0 KECCAK256 SWAP1 PUSH1 0x7 MUL ADD PUSH1 0x4 ADD PUSH1 0x14 PUSH2 0x100 EXP DUP2 SLOAD DUP2 PUSH1 0xFF MUL NOT AND SWAP1 DUP4 ISZERO ISZERO MUL OR SWAP1 SSTORE POP JUMPDEST PUSH1 0x1 SWAP6 POP PUSH2 0x18B2 JUMP JUMPDEST DUP1 DUP1 PUSH2 0x18AA SWAP1 PUSH2 0x4309 JUMP JUMPDEST SWAP2 POP POP PUSH2 0x16C4 JUMP JUMPDEST POP DUP5 PUSH2 0x18F3 JUMPI PUSH1 0x40 MLOAD PUSH32 0x8C379A000000000000000000000000000000000000000000000000000000000 DUP2 MSTORE PUSH1 0x4 ADD PUSH2 0x18EA SWAP1 PUSH2 0x3EA6 JUMP JUMPDEST PUSH1 0x40 MLOAD DUP1 SWAP2 SUB SWAP1 REVERT JUMPDEST CALLER PUSH20 0xFFFFFFFFFFFFFFFFFFFFFFFFFFFFFFFFFFFFFFFF AND PUSH2 0x8FC DUP4 DUP4 DUP2 SLOAD DUP2 LT PUSH2 0x1920 JUMPI PUSH2 0x191F PUSH2 0x43DF JUMP JUMPDEST JUMPDEST SWAP1 PUSH1 0x0 MSTORE PUSH1 0x20 PUSH1 0x0 KECCAK256 SWAP1 PUSH1 0x3 MUL ADD PUSH1 0x2 ADD PUSH1 0x0 DUP10 DUP2 MSTORE PUSH1 0x20 ADD SWAP1 DUP2 MSTORE PUSH1 0x20 ADD PUSH1 0x0 KECCAK256 SLOAD SWAP1 DUP2 ISZERO MUL SWAP1 PUSH1 0x40 MLOAD PUSH1 0x0 PUSH1 0x40 MLOAD DUP1 DUP4 SUB DUP2 DUP6 DUP9 DUP9 CALL SWAP4 POP POP POP POP ISZERO DUP1 ISZERO PUSH2 0x196E JUMPI RETURNDATASIZE PUSH1 0x0 DUP1 RETURNDATACOPY RETURNDATASIZE PUSH1 0x0 REVERT JUMPDEST POP PUSH1 0x0 DUP3 DUP3 DUP2 SLOAD DUP2 LT PUSH2 0x1984 JUMPI PUSH2 0x1983 PUSH2 0x43DF JUMP JUMPDEST JUMPDEST SWAP1 PUSH1 0x0 MSTORE PUSH1 0x20 PUSH1 0x0 KECCAK256 SWAP1 PUSH1 0x3 MUL ADD PUSH1 0x2 ADD PUSH1 0x0 DUP9 DUP2 MSTORE PUSH1 0x20 ADD SWAP1 DUP2 MSTORE PUSH1 0x20 ADD PUSH1 0x0 KECCAK256 DUP2 SWAP1 SSTORE POP PUSH1 0x1 SWAP4 POP PUSH2 0x19C6 JUMP JUMPDEST DUP1 DUP1 PUSH2 0x19BE SWAP1 PUSH2 0x4309 JUMP JUMPDEST SWAP2 POP POP PUSH2 0x15FC JUMP JUMPDEST POP DUP3 PUSH2 0x1A07 JUMPI PUSH1 0x40 MLOAD PUSH32 0x8C379A000000000000000000000000000000000000000000000000000000000 DUP2 MSTORE PUSH1 0x4 ADD PUSH2 0x19FE SWAP1 PUSH2 0x3DC6 JUMP JUMPDEST PUSH1 0x40 MLOAD DUP1 SWAP2 SUB SWAP1 REVERT JUMPDEST POP POP POP POP POP POP JUMP JUMPDEST PUSH1 0x60 PUSH1 0x0 PUSH1 0x3 PUSH1 0x0 DUP6 DUP2 MSTORE PUSH1 0x20 ADD SWAP1 DUP2 MSTORE PUSH1 0x20 ADD PUSH1 0x0 KECCAK256 SWAP1 POP PUSH1 0x0 DUP2 DUP1 SLOAD SWAP1 POP GT PUSH2 0x1A6F JUMPI PUSH1 0x40 MLOAD PUSH32 0x8C379A000000000000000000000000000000000000000000000000000000000 DUP2 MSTORE PUSH1 0x4 ADD PUSH2 0x1A66 SWAP1 PUSH2 0x3D06 JUMP JUMPDEST PUSH1 0x40 MLOAD DUP1 SWAP2 SUB SWAP1 REVERT JUMPDEST PUSH1 0x0 JUMPDEST DUP2 DUP1 SLOAD SWAP1 POP DUP2 LT ISZERO PUSH2 0x1BB7 JUMPI DUP4 DUP3 DUP3 DUP2 SLOAD DUP2 LT PUSH2 0x1A92 JUMPI PUSH2 0x1A91 PUSH2 0x43DF JUMP JUMPDEST JUMPDEST SWAP1 PUSH1 0x0 MSTORE PUSH1 0x20 PUSH1 0x0 KECCAK256 SWAP1 PUSH1 0x7 MUL ADD PUSH1 0x0 ADD SLOAD EQ ISZERO PUSH2 0x1BA4 JUMPI PUSH1 0x7 PUSH1 0x0 DUP4 DUP4 DUP2 SLOAD DUP2 LT PUSH2 0x1AC1 JUMPI PUSH2 0x1AC0 PUSH2 0x43DF JUMP JUMPDEST JUMPDEST SWAP1 PUSH1 0x0 MSTORE PUSH1 0x20 PUSH1 0x0 KECCAK256 SWAP1 PUSH1 0x7 MUL ADD PUSH1 0x6 ADD PUSH1 0x0 SWAP1 SLOAD SWAP1 PUSH2 0x100 EXP SWAP1 DIV PUSH1 0xFF AND PUSH1 0x9 DUP2 GT ISZERO PUSH2 0x1AF2 JUMPI PUSH2 0x1AF1 PUSH2 0x4381 JUMP JUMPDEST JUMPDEST PUSH1 0x9 DUP2 GT ISZERO PUSH2 0x1B04 JUMPI PUSH2 0x1B03 PUSH2 0x4381 JUMP JUMPDEST JUMPDEST DUP2 MSTORE PUSH1 0x20 ADD SWAP1 DUP2 MSTORE PUSH1 0x20 ADD PUSH1 0x0 KECCAK256 DUP1 SLOAD PUSH2 0x1B1D SWAP1 PUSH2 0x42A6 JUMP JUMPDEST DUP1 PUSH1 0x1F ADD PUSH1 0x20 DUP1 SWAP2 DIV MUL PUSH1 0x20 ADD PUSH1 0x40 MLOAD SWAP1 DUP2 ADD PUSH1 0x40 MSTORE DUP1 SWAP3 SWAP2 SWAP1 DUP2 DUP2 MSTORE PUSH1 0x20 ADD DUP3 DUP1 SLOAD PUSH2 0x1B49 SWAP1 PUSH2 0x42A6 JUMP JUMPDEST DUP1 ISZERO PUSH2 0x1B96 JUMPI DUP1 PUSH1 0x1F LT PUSH2 0x1B6B JUMPI PUSH2 0x100 DUP1 DUP4 SLOAD DIV MUL DUP4 MSTORE SWAP2 PUSH1 0x20 ADD SWAP2 PUSH2 0x1B96 JUMP JUMPDEST DUP3 ADD SWAP2 SWAP1 PUSH1 0x0 MSTORE PUSH1 0x20 PUSH1 0x0 KECCAK256 SWAP1 JUMPDEST DUP2 SLOAD DUP2 MSTORE SWAP1 PUSH1 0x1 ADD SWAP1 PUSH1 0x20 ADD DUP1 DUP4 GT PUSH2 0x1B79 JUMPI DUP3 SWAP1 SUB PUSH1 0x1F AND DUP3 ADD SWAP2 JUMPDEST POP POP POP POP POP SWAP3 POP POP POP PUSH2 0x1BF3 JUMP JUMPDEST DUP1 DUP1 PUSH2 0x1BAF SWAP1 PUSH2 0x4309 JUMP JUMPDEST SWAP2 POP POP PUSH2 0x1A72 JUMP JUMPDEST POP PUSH1 0x40 MLOAD PUSH32 0x8C379A000000000000000000000000000000000000000000000000000000000 DUP2 MSTORE PUSH1 0x4 ADD PUSH2 0x1BEA SWAP1 PUSH2 0x3EC6 JUMP JUMPDEST PUSH1 0x40 MLOAD DUP1 SWAP2 SUB SWAP1 REVERT JUMPDEST SWAP3 SWAP2 POP POP JUMP JUMPDEST PUSH1 0x60 DUP1 PUSH1 0x60 DUP1 PUSH1 0x0 DUP1 DUP1 SLOAD SWAP1 POP GT PUSH2 0x1C46 JUMPI PUSH1 0x40 MLOAD PUSH32 0x8C379A000000000000000000000000000000000000000000000000000000000 DUP2 MSTORE PUSH1 0x4 ADD PUSH2 0x1C3D SWAP1 PUSH2 0x3E26 JUMP JUMPDEST PUSH1 0x40 MLOAD DUP1 SWAP2 SUB SWAP1 REVERT JUMPDEST PUSH1 0x0 PUSH1 0x3 PUSH1 0x0 DUP8 DUP2 MSTORE PUSH1 0x20 ADD SWAP1 DUP2 MSTORE PUSH1 0x20 ADD PUSH1 0x0 KECCAK256 SWAP1 POP PUSH1 0x0 DUP2 DUP1 SLOAD SWAP1 POP GT PUSH2 0x1CA4 JUMPI PUSH1 0x40 MLOAD PUSH32 0x8C379A000000000000000000000000000000000000000000000000000000000 DUP2 MSTORE PUSH1 0x4 ADD PUSH2 0x1C9B SWAP1 PUSH2 0x3D86 JUMP JUMPDEST PUSH1 0x40 MLOAD DUP1 SWAP2 SUB SWAP1 REVERT JUMPDEST PUSH1 0x0 DUP2 DUP1 SLOAD SWAP1 POP PUSH8 0xFFFFFFFFFFFFFFFF DUP2 GT ISZERO PUSH2 0x1CC4 JUMPI PUSH2 0x1CC3 PUSH2 0x440E JUMP JUMPDEST JUMPDEST PUSH1 0x40 MLOAD SWAP1 DUP1 DUP3 MSTORE DUP1 PUSH1 0x20 MUL PUSH1 0x20 ADD DUP3 ADD PUSH1 0x40 MSTORE DUP1 ISZERO PUSH2 0x1CF2 JUMPI DUP2 PUSH1 0x20 ADD PUSH1 0x20 DUP3 MUL DUP1 CALLDATASIZE DUP4 CALLDATACOPY DUP1 DUP3 ADD SWAP2 POP POP SWAP1 POP JUMPDEST POP SWAP1 POP PUSH1 0x0 DUP3 DUP1 SLOAD SWAP1 POP PUSH8 0xFFFFFFFFFFFFFFFF DUP2 GT ISZERO PUSH2 0x1D15 JUMPI PUSH2 0x1D14 PUSH2 0x440E JUMP JUMPDEST JUMPDEST PUSH1 0x40 MLOAD SWAP1 DUP1 DUP3 MSTORE DUP1 PUSH1 0x20 MUL PUSH1 0x20 ADD DUP3 ADD PUSH1 0x40 MSTORE DUP1 ISZERO PUSH2 0x1D43 JUMPI DUP2 PUSH1 0x20 ADD PUSH1 0x20 DUP3 MUL DUP1 CALLDATASIZE DUP4 CALLDATACOPY DUP1 DUP3 ADD SWAP2 POP POP SWAP1 POP JUMPDEST POP SWAP1 POP PUSH1 0x0 DUP4 DUP1 SLOAD SWAP1 POP PUSH8 0xFFFFFFFFFFFFFFFF DUP2 GT ISZERO PUSH2 0x1D66 JUMPI PUSH2 0x1D65 PUSH2 0x440E JUMP JUMPDEST JUMPDEST PUSH1 0x40 MLOAD SWAP1 DUP1 DUP3 MSTORE DUP1 PUSH1 0x20 MUL PUSH1 0x20 ADD DUP3 ADD PUSH1 0x40 MSTORE DUP1 ISZERO PUSH2 0x1D94 JUMPI DUP2 PUSH1 0x20 ADD PUSH1 0x20 DUP3 MUL DUP1 CALLDATASIZE DUP4 CALLDATACOPY DUP1 DUP3 ADD SWAP2 POP POP SWAP1 POP JUMPDEST POP SWAP1 POP PUSH1 0x0 DUP5 DUP1 SLOAD SWAP1 POP PUSH8 0xFFFFFFFFFFFFFFFF DUP2 GT ISZERO PUSH2 0x1DB7 JUMPI PUSH2 0x1DB6 PUSH2 0x440E JUMP JUMPDEST JUMPDEST PUSH1 0x40 MLOAD SWAP1 DUP1 DUP3 MSTORE DUP1 PUSH1 0x20 MUL PUSH1 0x20 ADD DUP3 ADD PUSH1 0x40 MSTORE DUP1 ISZERO PUSH2 0x1DE5 JUMPI DUP2 PUSH1 0x20 ADD PUSH1 0x20 DUP3 MUL DUP1 CALLDATASIZE DUP4 CALLDATACOPY DUP1 DUP3 ADD SWAP2 POP POP SWAP1 POP JUMPDEST POP SWAP1 POP PUSH1 0x0 DUP1 JUMPDEST DUP7 DUP1 SLOAD SWAP1 POP DUP2 LT ISZERO PUSH2 0x1F61 JUMPI DUP7 DUP2 DUP2 SLOAD DUP2 LT PUSH2 0x1E0B JUMPI PUSH2 0x1E0A PUSH2 0x43DF JUMP JUMPDEST JUMPDEST SWAP1 PUSH1 0x0 MSTORE PUSH1 0x20 PUSH1 0x0 KECCAK256 SWAP1 PUSH1 0x7 MUL ADD PUSH1 0x4 ADD PUSH1 0x14 SWAP1 SLOAD SWAP1 PUSH2 0x100 EXP SWAP1 DIV PUSH1 0xFF AND ISZERO PUSH2 0x1F4E JUMPI DUP7 DUP2 DUP2 SLOAD DUP2 LT PUSH2 0x1E42 JUMPI PUSH2 0x1E41 PUSH2 0x43DF JUMP JUMPDEST JUMPDEST SWAP1 PUSH1 0x0 MSTORE PUSH1 0x20 PUSH1 0x0 KECCAK256 SWAP1 PUSH1 0x7 MUL ADD PUSH1 0x0 ADD SLOAD DUP7 DUP4 DUP2 MLOAD DUP2 LT PUSH2 0x1E67 JUMPI PUSH2 0x1E66 PUSH2 0x43DF JUMP JUMPDEST JUMPDEST PUSH1 0x20 MUL PUSH1 0x20 ADD ADD DUP2 DUP2 MSTORE POP POP DUP7 DUP2 DUP2 SLOAD DUP2 LT PUSH2 0x1E86 JUMPI PUSH2 0x1E85 PUSH2 0x43DF JUMP JUMPDEST JUMPDEST SWAP1 PUSH1 0x0 MSTORE PUSH1 0x20 PUSH1 0x0 KECCAK256 SWAP1 PUSH1 0x7 MUL ADD PUSH1 0x1 ADD SLOAD DUP6 DUP4 DUP2 MLOAD DUP2 LT PUSH2 0x1EAB JUMPI PUSH2 0x1EAA PUSH2 0x43DF JUMP JUMPDEST JUMPDEST PUSH1 0x20 MUL PUSH1 0x20 ADD ADD DUP2 DUP2 MSTORE POP POP DUP7 DUP2 DUP2 SLOAD DUP2 LT PUSH2 0x1ECA JUMPI PUSH2 0x1EC9 PUSH2 0x43DF JUMP JUMPDEST JUMPDEST SWAP1 PUSH1 0x0 MSTORE PUSH1 0x20 PUSH1 0x0 KECCAK256 SWAP1 PUSH1 0x7 MUL ADD PUSH1 0x2 ADD SLOAD DUP5 DUP4 DUP2 MLOAD DUP2 LT PUSH2 0x1EEF JUMPI PUSH2 0x1EEE PUSH2 0x43DF JUMP JUMPDEST JUMPDEST PUSH1 0x20 MUL PUSH1 0x20 ADD ADD DUP2 DUP2 MSTORE POP POP DUP7 DUP2 DUP2 SLOAD DUP2 LT PUSH2 0x1F0E JUMPI PUSH2 0x1F0D PUSH2 0x43DF JUMP JUMPDEST JUMPDEST SWAP1 PUSH1 0x0 MSTORE PUSH1 0x20 PUSH1 0x0 KECCAK256 SWAP1 PUSH1 0x7 MUL ADD PUSH1 0x3 ADD SLOAD DUP4 DUP4 DUP2 MLOAD DUP2 LT PUSH2 0x1F33 JUMPI PUSH2 0x1F32 PUSH2 0x43DF JUMP JUMPDEST JUMPDEST PUSH1 0x20 MUL PUSH1 0x20 ADD ADD DUP2 DUP2 MSTORE POP POP DUP2 DUP1 PUSH2 0x1F4A SWAP1 PUSH2 0x4309 JUMP JUMPDEST SWAP3 POP POP JUMPDEST DUP1 DUP1 PUSH2 0x1F59 SWAP1 PUSH2 0x4309 JUMP JUMPDEST SWAP2 POP POP PUSH2 0x1DEC JUMP JUMPDEST POP PUSH1 0x0 DUP6 MLOAD GT PUSH2 0x1FA6 JUMPI PUSH1 0x40 MLOAD PUSH32 0x8C379A000000000000000000000000000000000000000000000000000000000 DUP2 MSTORE PUSH1 0x4 ADD PUSH2 0x1F9D SWAP1 PUSH2 0x3D26 JUMP JUMPDEST PUSH1 0x40 MLOAD DUP1 SWAP2 SUB SWAP1 REVERT JUMPDEST DUP5 DUP5 DUP5 DUP5 SWAP10 POP SWAP10 POP SWAP10 POP SWAP10 POP POP POP POP POP POP POP SWAP2 SWAP4 POP SWAP2 SWAP4 JUMP JUMPDEST PUSH1 0x2 PUSH1 0x0 SWAP1 SLOAD SWAP1 PUSH2 0x100 EXP SWAP1 DIV PUSH20 0xFFFFFFFFFFFFFFFFFFFFFFFFFFFFFFFFFFFFFFFF AND PUSH20 0xFFFFFFFFFFFFFFFFFFFFFFFFFFFFFFFFFFFFFFFF AND CALLER PUSH20 0xFFFFFFFFFFFFFFFFFFFFFFFFFFFFFFFFFFFFFFFF AND EQ PUSH1 0x40 MLOAD DUP1 PUSH1 0x60 ADD PUSH1 0x40 MSTORE DUP1 PUSH1 0x33 DUP2 MSTORE PUSH1 0x20 ADD PUSH2 0x49FF PUSH1 0x33 SWAP2 CODECOPY SWAP1 PUSH2 0x206A JUMPI PUSH1 0x40 MLOAD PUSH32 0x8C379A000000000000000000000000000000000000000000000000000000000 DUP2 MSTORE PUSH1 0x4 ADD PUSH2 0x2061 SWAP2 SWAP1 PUSH2 0x3CE4 JUMP JUMPDEST PUSH1 0x40 MLOAD DUP1 SWAP2 SUB SWAP1 REVERT JUMPDEST POP PUSH1 0x0 PUSH1 0x1 DUP1 SLOAD SWAP1 POP GT PUSH2 0x20B3 JUMPI PUSH1 0x40 MLOAD PUSH32 0x8C379A000000000000000000000000000000000000000000000000000000000 DUP2 MSTORE PUSH1 0x4 ADD PUSH2 0x20AA SWAP1 PUSH2 0x3F06 JUMP JUMPDEST PUSH1 0x40 MLOAD DUP1 SWAP2 SUB SWAP1 REVERT JUMPDEST PUSH1 0x0 DUP1 JUMPDEST PUSH1 0x1 DUP1 SLOAD SWAP1 POP DUP2 LT ISZERO PUSH2 0x21C3 JUMPI DUP5 PUSH1 0x1 DUP3 DUP2 SLOAD DUP2 LT PUSH2 0x20D9 JUMPI PUSH2 0x20D8 PUSH2 0x43DF JUMP JUMPDEST JUMPDEST SWAP1 PUSH1 0x0 MSTORE PUSH1 0x20 PUSH1 0x0 KECCAK256 SWAP1 PUSH1 0x5 MUL ADD PUSH1 0x0 ADD SLOAD EQ ISZERO PUSH2 0x21B0 JUMPI DUP4 PUSH1 0x1 DUP3 DUP2 SLOAD DUP2 LT PUSH2 0x2106 JUMPI PUSH2 0x2105 PUSH2 0x43DF JUMP JUMPDEST JUMPDEST SWAP1 PUSH1 0x0 MSTORE PUSH1 0x20 PUSH1 0x0 KECCAK256 SWAP1 PUSH1 0x5 MUL ADD PUSH1 0x1 ADD PUSH1 0x0 PUSH2 0x100 EXP DUP2 SLOAD DUP2 PUSH1 0xFF MUL NOT AND SWAP1 DUP4 ISZERO ISZERO MUL OR SWAP1 SSTORE POP PUSH1 0x1 ISZERO ISZERO DUP5 ISZERO ISZERO EQ ISZERO PUSH2 0x216C JUMPI PUSH1 0x1 PUSH1 0x4 PUSH1 0x0 DUP8 DUP2 MSTORE PUSH1 0x20 ADD SWAP1 DUP2 MSTORE PUSH1 0x20 ADD PUSH1 0x0 KECCAK256 PUSH1 0x0 PUSH2 0x100 EXP DUP2 SLOAD DUP2 PUSH1 0xFF MUL NOT AND SWAP1 DUP4 ISZERO ISZERO MUL OR SWAP1 SSTORE POP PUSH2 0x21A7 JUMP JUMPDEST DUP3 PUSH1 0x1 DUP3 DUP2 SLOAD DUP2 LT PUSH2 0x2181 JUMPI PUSH2 0x2180 PUSH2 0x43DF JUMP JUMPDEST JUMPDEST SWAP1 PUSH1 0x0 MSTORE PUSH1 0x20 PUSH1 0x0 KECCAK256 SWAP1 PUSH1 0x5 MUL ADD PUSH1 0x2 ADD SWAP1 DUP1 MLOAD SWAP1 PUSH1 0x20 ADD SWAP1 PUSH2 0x21A5 SWAP3 SWAP2 SWAP1 PUSH2 0x3433 JUMP JUMPDEST POP JUMPDEST PUSH1 0x1 SWAP2 POP PUSH2 0x21C3 JUMP JUMPDEST DUP1 DUP1 PUSH2 0x21BB SWAP1 PUSH2 0x4309 JUMP JUMPDEST SWAP2 POP POP PUSH2 0x20B7 JUMP JUMPDEST POP DUP1 PUSH2 0x2204 JUMPI PUSH1 0x40 MLOAD PUSH32 0x8C379A000000000000000000000000000000000000000000000000000000000 DUP2 MSTORE PUSH1 0x4 ADD PUSH2 0x21FB SWAP1 PUSH2 0x3DA6 JUMP JUMPDEST PUSH1 0x40 MLOAD DUP1 SWAP2 SUB SWAP1 REVERT JUMPDEST POP POP POP POP JUMP JUMPDEST PUSH1 0x2 PUSH1 0x0 SWAP1 SLOAD SWAP1 PUSH2 0x100 EXP SWAP1 DIV PUSH20 0xFFFFFFFFFFFFFFFFFFFFFFFFFFFFFFFFFFFFFFFF AND DUP2 JUMP JUMPDEST PUSH1 0x2 PUSH1 0x0 SWAP1 SLOAD SWAP1 PUSH2 0x100 EXP SWAP1 DIV PUSH20 0xFFFFFFFFFFFFFFFFFFFFFFFFFFFFFFFFFFFFFFFF AND PUSH20 0xFFFFFFFFFFFFFFFFFFFFFFFFFFFFFFFFFFFFFFFF AND CALLER PUSH20 0xFFFFFFFFFFFFFFFFFFFFFFFFFFFFFFFFFFFFFFFF AND EQ ISZERO PUSH1 0x40 MLOAD DUP1 PUSH1 0x60 ADD PUSH1 0x40 MSTORE DUP1 PUSH1 0x2F DUP2 MSTORE PUSH1 0x20 ADD PUSH2 0x4A63 PUSH1 0x2F SWAP2 CODECOPY SWAP1 PUSH2 0x22DC JUMPI PUSH1 0x40 MLOAD PUSH32 0x8C379A000000000000000000000000000000000000000000000000000000000 DUP2 MSTORE PUSH1 0x4 ADD PUSH2 0x22D3 SWAP2 SWAP1 PUSH2 0x3CE4 JUMP JUMPDEST PUSH1 0x40 MLOAD DUP1 SWAP2 SUB SWAP1 REVERT JUMPDEST POP PUSH1 0x0 PUSH1 0x1 DUP1 SLOAD SWAP1 POP GT PUSH2 0x2325 JUMPI PUSH1 0x40 MLOAD PUSH32 0x8C379A000000000000000000000000000000000000000000000000000000000 DUP2 MSTORE PUSH1 0x4 ADD PUSH2 0x231C SWAP1 PUSH2 0x3F06 JUMP JUMPDEST PUSH1 0x40 MLOAD DUP1 SWAP2 SUB SWAP1 REVERT JUMPDEST PUSH1 0x4 PUSH1 0x0 DUP8 DUP2 MSTORE PUSH1 0x20 ADD SWAP1 DUP2 MSTORE PUSH1 0x20 ADD PUSH1 0x0 KECCAK256 PUSH1 0x0 SWAP1 SLOAD SWAP1 PUSH2 0x100 EXP SWAP1 DIV PUSH1 0xFF AND PUSH2 0x2385 JUMPI PUSH1 0x40 MLOAD PUSH32 0x8C379A000000000000000000000000000000000000000000000000000000000 DUP2 MSTORE PUSH1 0x4 ADD PUSH2 0x237C SWAP1 PUSH2 0x3EE6 JUMP JUMPDEST PUSH1 0x40 MLOAD DUP1 SWAP2 SUB SWAP1 REVERT JUMPDEST PUSH1 0x0 PUSH1 0x40 MLOAD DUP1 PUSH2 0x100 ADD PUSH1 0x40 MSTORE DUP1 DUP8 DUP2 MSTORE PUSH1 0x20 ADD DUP7 DUP2 MSTORE PUSH1 0x20 ADD DUP6 DUP2 MSTORE PUSH1 0x20 ADD PUSH1 0x0 DUP2 MSTORE PUSH1 0x20 ADD DUP5 PUSH20 0xFFFFFFFFFFFFFFFFFFFFFFFFFFFFFFFFFFFFFFFF AND DUP2 MSTORE PUSH1 0x20 ADD PUSH1 0x1 ISZERO ISZERO DUP2 MSTORE PUSH1 0x20 ADD DUP4 DUP2 MSTORE PUSH1 0x20 ADD PUSH1 0x2 PUSH1 0x9 DUP2 GT ISZERO PUSH2 0x23EB JUMPI PUSH2 0x23EA PUSH2 0x4381 JUMP JUMPDEST JUMPDEST DUP2 MSTORE POP SWAP1 POP PUSH1 0x0 DUP2 SWAP1 DUP1 PUSH1 0x1 DUP2 SLOAD ADD DUP1 DUP3 SSTORE DUP1 SWAP2 POP POP PUSH1 0x1 SWAP1 SUB SWAP1 PUSH1 0x0 MSTORE PUSH1 0x20 PUSH1 0x0 KECCAK256 SWAP1 PUSH1 0x7 MUL ADD PUSH1 0x0 SWAP1 SWAP2 SWAP1 SWAP2 SWAP1 SWAP2 POP PUSH1 0x0 DUP3 ADD MLOAD DUP2 PUSH1 0x0 ADD SSTORE PUSH1 0x20 DUP3 ADD MLOAD DUP2 PUSH1 0x1 ADD SSTORE PUSH1 0x40 DUP3 ADD MLOAD DUP2 PUSH1 0x2 ADD SSTORE PUSH1 0x60 DUP3 ADD MLOAD DUP2 PUSH1 0x3 ADD SSTORE PUSH1 0x80 DUP3 ADD MLOAD DUP2 PUSH1 0x4 ADD PUSH1 0x0 PUSH2 0x100 EXP DUP2 SLOAD DUP2 PUSH20 0xFFFFFFFFFFFFFFFFFFFFFFFFFFFFFFFFFFFFFFFF MUL NOT AND SWAP1 DUP4 PUSH20 0xFFFFFFFFFFFFFFFFFFFFFFFFFFFFFFFFFFFFFFFF AND MUL OR SWAP1 SSTORE POP PUSH1 0xA0 DUP3 ADD MLOAD DUP2 PUSH1 0x4 ADD PUSH1 0x14 PUSH2 0x100 EXP DUP2 SLOAD DUP2 PUSH1 0xFF MUL NOT AND SWAP1 DUP4 ISZERO ISZERO MUL OR SWAP1 SSTORE POP PUSH1 0xC0 DUP3 ADD MLOAD DUP2 PUSH1 0x5 ADD SWAP1 DUP1 MLOAD SWAP1 PUSH1 0x20 ADD SWAP1 PUSH2 0x24C7 SWAP3 SWAP2 SWAP1 PUSH2 0x3433 JUMP JUMPDEST POP PUSH1 0xE0 DUP3 ADD MLOAD DUP2 PUSH1 0x6 ADD PUSH1 0x0 PUSH2 0x100 EXP DUP2 SLOAD DUP2 PUSH1 0xFF MUL NOT AND SWAP1 DUP4 PUSH1 0x9 DUP2 GT ISZERO PUSH2 0x24F3 JUMPI PUSH2 0x24F2 PUSH2 0x4381 JUMP JUMPDEST JUMPDEST MUL OR SWAP1 SSTORE POP POP POP PUSH1 0x3 PUSH1 0x0 DUP9 DUP2 MSTORE PUSH1 0x20 ADD SWAP1 DUP2 MSTORE PUSH1 0x20 ADD PUSH1 0x0 KECCAK256 DUP2 SWAP1 DUP1 PUSH1 0x1 DUP2 SLOAD ADD DUP1 DUP3 SSTORE DUP1 SWAP2 POP POP PUSH1 0x1 SWAP1 SUB SWAP1 PUSH1 0x0 MSTORE PUSH1 0x20 PUSH1 0x0 KECCAK256 SWAP1 PUSH1 0x7 MUL ADD PUSH1 0x0 SWAP1 SWAP2 SWAP1 SWAP2 SWAP1 SWAP2 POP PUSH1 0x0 DUP3 ADD MLOAD DUP2 PUSH1 0x0 ADD SSTORE PUSH1 0x20 DUP3 ADD MLOAD DUP2 PUSH1 0x1 ADD SSTORE PUSH1 0x40 DUP3 ADD MLOAD DUP2 PUSH1 0x2 ADD SSTORE PUSH1 0x60 DUP3 ADD MLOAD DUP2 PUSH1 0x3 ADD SSTORE PUSH1 0x80 DUP3 ADD MLOAD DUP2 PUSH1 0x4 ADD PUSH1 0x0 PUSH2 0x100 EXP DUP2 SLOAD DUP2 PUSH20 0xFFFFFFFFFFFFFFFFFFFFFFFFFFFFFFFFFFFFFFFF MUL NOT AND SWAP1 DUP4 PUSH20 0xFFFFFFFFFFFFFFFFFFFFFFFFFFFFFFFFFFFFFFFF AND MUL OR SWAP1 SSTORE POP PUSH1 0xA0 DUP3 ADD MLOAD DUP2 PUSH1 0x4 ADD PUSH1 0x14 PUSH2 0x100 EXP DUP2 SLOAD DUP2 PUSH1 0xFF MUL NOT AND SWAP1 DUP4 ISZERO ISZERO MUL OR SWAP1 SSTORE POP PUSH1 0xC0 DUP3 ADD MLOAD DUP2 PUSH1 0x5 ADD SWAP1 DUP1 MLOAD SWAP1 PUSH1 0x20 ADD SWAP1 PUSH2 0x25E2 SWAP3 SWAP2 SWAP1 PUSH2 0x3433 JUMP JUMPDEST POP PUSH1 0xE0 DUP3 ADD MLOAD DUP2 PUSH1 0x6 ADD PUSH1 0x0 PUSH2 0x100 EXP DUP2 SLOAD DUP2 PUSH1 0xFF MUL NOT AND SWAP1 DUP4 PUSH1 0x9 DUP2 GT ISZERO PUSH2 0x260E JUMPI PUSH2 0x260D PUSH2 0x4381 JUMP JUMPDEST JUMPDEST MUL OR SWAP1 SSTORE POP POP POP POP POP POP POP POP POP POP JUMP JUMPDEST PUSH1 0x0 DUP1 PUSH1 0x0 DUP1 SLOAD SWAP1 POP GT PUSH2 0x2667 JUMPI PUSH1 0x40 MLOAD PUSH32 0x8C379A000000000000000000000000000000000000000000000000000000000 DUP2 MSTORE PUSH1 0x4 ADD PUSH2 0x265E SWAP1 PUSH2 0x3E26 JUMP JUMPDEST PUSH1 0x40 MLOAD DUP1 SWAP2 SUB SWAP1 REVERT JUMPDEST PUSH1 0x0 PUSH1 0x3 PUSH1 0x0 DUP7 DUP2 MSTORE PUSH1 0x20 ADD SWAP1 DUP2 MSTORE PUSH1 0x20 ADD PUSH1 0x0 KECCAK256 SWAP1 POP PUSH1 0x0 DUP2 DUP1 SLOAD SWAP1 POP GT PUSH2 0x26C5 JUMPI PUSH1 0x40 MLOAD PUSH32 0x8C379A000000000000000000000000000000000000000000000000000000000 DUP2 MSTORE PUSH1 0x4 ADD PUSH2 0x26BC SWAP1 PUSH2 0x3D06 JUMP JUMPDEST PUSH1 0x40 MLOAD DUP1 SWAP2 SUB SWAP1 REVERT JUMPDEST PUSH1 0x0 JUMPDEST DUP2 DUP1 SLOAD SWAP1 POP DUP2 LT ISZERO PUSH2 0x27E2 JUMPI DUP5 DUP3 DUP3 DUP2 SLOAD DUP2 LT PUSH2 0x26E8 JUMPI PUSH2 0x26E7 PUSH2 0x43DF JUMP JUMPDEST JUMPDEST SWAP1 PUSH1 0x0 MSTORE PUSH1 0x20 PUSH1 0x0 KECCAK256 SWAP1 PUSH1 0x7 MUL ADD PUSH1 0x0 ADD SLOAD EQ ISZERO PUSH2 0x27CF JUMPI PUSH1 0x0 PUSH1 0x5 PUSH1 0x0 DUP8 DUP2 MSTORE PUSH1 0x20 ADD SWAP1 DUP2 MSTORE PUSH1 0x20 ADD PUSH1 0x0 KECCAK256 SWAP1 POP PUSH1 0x0 JUMPDEST DUP2 DUP1 SLOAD SWAP1 POP DUP2 LT ISZERO PUSH2 0x27CC JUMPI DUP6 DUP3 DUP3 DUP2 SLOAD DUP2 LT PUSH2 0x273A JUMPI PUSH2 0x2739 PUSH2 0x43DF JUMP JUMPDEST JUMPDEST SWAP1 PUSH1 0x0 MSTORE PUSH1 0x20 PUSH1 0x0 KECCAK256 SWAP1 PUSH1 0x3 MUL ADD PUSH1 0x0 ADD SLOAD EQ ISZERO PUSH2 0x27B9 JUMPI DUP2 DUP2 DUP2 SLOAD DUP2 LT PUSH2 0x2765 JUMPI PUSH2 0x2764 PUSH2 0x43DF JUMP JUMPDEST JUMPDEST SWAP1 PUSH1 0x0 MSTORE PUSH1 0x20 PUSH1 0x0 KECCAK256 SWAP1 PUSH1 0x3 MUL ADD PUSH1 0x1 ADD PUSH1 0x0 SWAP1 SLOAD SWAP1 PUSH2 0x100 EXP SWAP1 DIV PUSH20 0xFFFFFFFFFFFFFFFFFFFFFFFFFFFFFFFFFFFFFFFF AND PUSH20 0xFFFFFFFFFFFFFFFFFFFFFFFFFFFFFFFFFFFFFFFF AND BALANCE SWAP5 POP POP POP POP POP PUSH2 0x281E JUMP JUMPDEST DUP1 DUP1 PUSH2 0x27C4 SWAP1 PUSH2 0x4309 JUMP JUMPDEST SWAP2 POP POP PUSH2 0x271A JUMP JUMPDEST POP POP JUMPDEST DUP1 DUP1 PUSH2 0x27DA SWAP1 PUSH2 0x4309 JUMP JUMPDEST SWAP2 POP POP PUSH2 0x26C8 JUMP JUMPDEST POP PUSH1 0x40 MLOAD PUSH32 0x8C379A000000000000000000000000000000000000000000000000000000000 DUP2 MSTORE PUSH1 0x4 ADD PUSH2 0x2815 SWAP1 PUSH2 0x3D46 JUMP JUMPDEST PUSH1 0x40 MLOAD DUP1 SWAP2 SUB SWAP1 REVERT JUMPDEST SWAP4 SWAP3 POP POP POP JUMP JUMPDEST PUSH1 0x0 DUP1 PUSH1 0x3 PUSH1 0x0 DUP8 DUP2 MSTORE PUSH1 0x20 ADD SWAP1 DUP2 MSTORE PUSH1 0x20 ADD PUSH1 0x0 KECCAK256 SWAP1 POP PUSH1 0x0 DUP2 DUP1 SLOAD SWAP1 POP GT PUSH2 0x2884 JUMPI PUSH1 0x40 MLOAD PUSH32 0x8C379A000000000000000000000000000000000000000000000000000000000 DUP2 MSTORE PUSH1 0x4 ADD PUSH2 0x287B SWAP1 PUSH2 0x3D06 JUMP JUMPDEST PUSH1 0x40 MLOAD DUP1 SWAP2 SUB SWAP1 REVERT JUMPDEST PUSH1 0x0 JUMPDEST DUP2 DUP1 SLOAD SWAP1 POP DUP2 LT ISZERO PUSH2 0x2D85 JUMPI DUP6 DUP3 DUP3 DUP2 SLOAD DUP2 LT PUSH2 0x28A7 JUMPI PUSH2 0x28A6 PUSH2 0x43DF JUMP JUMPDEST JUMPDEST SWAP1 PUSH1 0x0 MSTORE PUSH1 0x20 PUSH1 0x0 KECCAK256 SWAP1 PUSH1 0x7 MUL ADD PUSH1 0x0 ADD SLOAD EQ ISZERO PUSH2 0x2D72 JUMPI DUP2 DUP2 DUP2 SLOAD DUP2 LT PUSH2 0x28D2 JUMPI PUSH2 0x28D1 PUSH2 0x43DF JUMP JUMPDEST JUMPDEST SWAP1 PUSH1 0x0 MSTORE PUSH1 0x20 PUSH1 0x0 KECCAK256 SWAP1 PUSH1 0x7 MUL ADD PUSH1 0x4 ADD PUSH1 0x14 SWAP1 SLOAD SWAP1 PUSH2 0x100 EXP SWAP1 DIV PUSH1 0xFF AND ISZERO PUSH2 0x2D2E JUMPI DUP2 DUP2 DUP2 SLOAD DUP2 LT PUSH2 0x2909 JUMPI PUSH2 0x2908 PUSH2 0x43DF JUMP JUMPDEST JUMPDEST SWAP1 PUSH1 0x0 MSTORE PUSH1 0x20 PUSH1 0x0 KECCAK256 SWAP1 PUSH1 0x7 MUL ADD PUSH1 0x1 ADD SLOAD DUP5 LT ISZERO PUSH2 0x295D JUMPI PUSH1 0x40 MLOAD PUSH32 0x8C379A000000000000000000000000000000000000000000000000000000000 DUP2 MSTORE PUSH1 0x4 ADD PUSH2 0x2954 SWAP1 PUSH2 0x3DE6 JUMP JUMPDEST PUSH1 0x40 MLOAD DUP1 SWAP2 SUB SWAP1 REVERT JUMPDEST DUP2 DUP2 DUP2 SLOAD DUP2 LT PUSH2 0x2970 JUMPI PUSH2 0x296F PUSH2 0x43DF JUMP JUMPDEST JUMPDEST SWAP1 PUSH1 0x0 MSTORE PUSH1 0x20 PUSH1 0x0 KECCAK256 SWAP1 PUSH1 0x7 MUL ADD PUSH1 0x2 ADD SLOAD DUP3 DUP3 DUP2 SLOAD DUP2 LT PUSH2 0x2995 JUMPI PUSH2 0x2994 PUSH2 0x43DF JUMP JUMPDEST JUMPDEST SWAP1 PUSH1 0x0 MSTORE PUSH1 0x20 PUSH1 0x0 KECCAK256 SWAP1 PUSH1 0x7 MUL ADD PUSH1 0x3 ADD SLOAD DUP6 PUSH2 0x29B2 SWAP2 SWAP1 PUSH2 0x4160 JUMP JUMPDEST GT ISZERO PUSH2 0x29F3 JUMPI PUSH1 0x40 MLOAD PUSH32 0x8C379A000000000000000000000000000000000000000000000000000000000 DUP2 MSTORE PUSH1 0x4 ADD PUSH2 0x29EA SWAP1 PUSH2 0x3D66 JUMP JUMPDEST PUSH1 0x40 MLOAD DUP1 SWAP2 SUB SWAP1 REVERT JUMPDEST DUP4 DUP3 DUP3 DUP2 SLOAD DUP2 LT PUSH2 0x2A07 JUMPI PUSH2 0x2A06 PUSH2 0x43DF JUMP JUMPDEST JUMPDEST SWAP1 PUSH1 0x0 MSTORE PUSH1 0x20 PUSH1 0x0 KECCAK256 SWAP1 PUSH1 0x7 MUL ADD PUSH1 0x3 ADD SLOAD PUSH2 0x2A23 SWAP2 SWAP1 PUSH2 0x4160 JUMP JUMPDEST DUP3 DUP3 DUP2 SLOAD DUP2 LT PUSH2 0x2A36 JUMPI PUSH2 0x2A35 PUSH2 0x43DF JUMP JUMPDEST JUMPDEST SWAP1 PUSH1 0x0 MSTORE PUSH1 0x20 PUSH1 0x0 KECCAK256 SWAP1 PUSH1 0x7 MUL ADD PUSH1 0x3 ADD DUP2 SWAP1 SSTORE POP PUSH1 0x0 PUSH1 0x5 PUSH1 0x0 DUP9 DUP2 MSTORE PUSH1 0x20 ADD SWAP1 DUP2 MSTORE PUSH1 0x20 ADD PUSH1 0x0 KECCAK256 SWAP1 POP PUSH1 0x0 DUP2 DUP1 SLOAD SWAP1 POP SWAP1 POP PUSH1 0x0 DUP1 PUSH1 0x0 SWAP1 POP JUMPDEST DUP4 DUP1 SLOAD SWAP1 POP DUP2 LT ISZERO PUSH2 0x2B5F JUMPI CALLER PUSH20 0xFFFFFFFFFFFFFFFFFFFFFFFFFFFFFFFFFFFFFFFF AND DUP5 DUP3 DUP2 SLOAD DUP2 LT PUSH2 0x2AA9 JUMPI PUSH2 0x2AA8 PUSH2 0x43DF JUMP JUMPDEST JUMPDEST SWAP1 PUSH1 0x0 MSTORE PUSH1 0x20 PUSH1 0x0 KECCAK256 SWAP1 PUSH1 0x3 MUL ADD PUSH1 0x1 ADD PUSH1 0x0 SWAP1 SLOAD SWAP1 PUSH2 0x100 EXP SWAP1 DIV PUSH20 0xFFFFFFFFFFFFFFFFFFFFFFFFFFFFFFFFFFFFFFFF AND PUSH20 0xFFFFFFFFFFFFFFFFFFFFFFFFFFFFFFFFFFFFFFFF AND EQ ISZERO PUSH2 0x2B4C JUMPI DUP8 DUP5 DUP3 DUP2 SLOAD DUP2 LT PUSH2 0x2B0B JUMPI PUSH2 0x2B0A PUSH2 0x43DF JUMP JUMPDEST JUMPDEST SWAP1 PUSH1 0x0 MSTORE PUSH1 0x20 PUSH1 0x0 KECCAK256 SWAP1 PUSH1 0x3 MUL ADD PUSH1 0x2 ADD PUSH1 0x0 DUP13 DUP2 MSTORE PUSH1 0x20 ADD SWAP1 DUP2 MSTORE PUSH1 0x20 ADD PUSH1 0x0 KECCAK256 PUSH1 0x0 DUP3 DUP3 SLOAD PUSH2 0x2B3C SWAP2 SWAP1 PUSH2 0x4160 JUMP JUMPDEST SWAP3 POP POP DUP2 SWAP1 SSTORE POP PUSH1 0x1 SWAP2 POP PUSH2 0x2B5F JUMP JUMPDEST DUP1 DUP1 PUSH2 0x2B57 SWAP1 PUSH2 0x4309 JUMP JUMPDEST SWAP2 POP POP PUSH2 0x2A73 JUMP JUMPDEST POP DUP1 PUSH2 0x2C0F JUMPI DUP3 PUSH1 0x1 DUP2 PUSH1 0x1 DUP2 SLOAD ADD DUP1 DUP3 SSTORE DUP1 SWAP2 POP POP SUB SWAP1 PUSH1 0x0 MSTORE PUSH1 0x20 PUSH1 0x0 KECCAK256 SWAP1 POP POP PUSH1 0x0 DUP4 DUP4 DUP2 SLOAD DUP2 LT PUSH2 0x2B97 JUMPI PUSH2 0x2B96 PUSH2 0x43DF JUMP JUMPDEST JUMPDEST SWAP1 PUSH1 0x0 MSTORE PUSH1 0x20 PUSH1 0x0 KECCAK256 SWAP1 PUSH1 0x3 MUL ADD SWAP1 POP DUP9 DUP2 PUSH1 0x0 ADD DUP2 SWAP1 SSTORE POP CALLER DUP2 PUSH1 0x1 ADD PUSH1 0x0 PUSH2 0x100 EXP DUP2 SLOAD DUP2 PUSH20 0xFFFFFFFFFFFFFFFFFFFFFFFFFFFFFFFFFFFFFFFF MUL NOT AND SWAP1 DUP4 PUSH20 0xFFFFFFFFFFFFFFFFFFFFFFFFFFFFFFFFFFFFFFFF AND MUL OR SWAP1 SSTORE POP DUP8 DUP2 PUSH1 0x2 ADD PUSH1 0x0 DUP13 DUP2 MSTORE PUSH1 0x20 ADD SWAP1 DUP2 MSTORE PUSH1 0x20 ADD PUSH1 0x0 KECCAK256 DUP2 SWAP1 SSTORE POP POP JUMPDEST DUP5 DUP5 DUP2 SLOAD DUP2 LT PUSH2 0x2C22 JUMPI PUSH2 0x2C21 PUSH2 0x43DF JUMP JUMPDEST JUMPDEST SWAP1 PUSH1 0x0 MSTORE PUSH1 0x20 PUSH1 0x0 KECCAK256 SWAP1 PUSH1 0x7 MUL ADD PUSH1 0x2 ADD SLOAD DUP6 DUP6 DUP2 SLOAD DUP2 LT PUSH2 0x2C47 JUMPI PUSH2 0x2C46 PUSH2 0x43DF JUMP JUMPDEST JUMPDEST SWAP1 PUSH1 0x0 MSTORE PUSH1 0x20 PUSH1 0x0 KECCAK256 SWAP1 PUSH1 0x7 MUL ADD PUSH1 0x3 ADD SLOAD EQ ISZERO PUSH2 0x2D26 JUMPI PUSH1 0x3 DUP6 DUP6 DUP2 SLOAD DUP2 LT PUSH2 0x2C74 JUMPI PUSH2 0x2C73 PUSH2 0x43DF JUMP JUMPDEST JUMPDEST SWAP1 PUSH1 0x0 MSTORE PUSH1 0x20 PUSH1 0x0 KECCAK256 SWAP1 PUSH1 0x7 MUL ADD PUSH1 0x6 ADD PUSH1 0x0 PUSH2 0x100 EXP DUP2 SLOAD DUP2 PUSH1 0xFF MUL NOT AND SWAP1 DUP4 PUSH1 0x9 DUP2 GT ISZERO PUSH2 0x2CA7 JUMPI PUSH2 0x2CA6 PUSH2 0x4381 JUMP JUMPDEST JUMPDEST MUL OR SWAP1 SSTORE POP PUSH1 0x0 DUP6 DUP6 DUP2 SLOAD DUP2 LT PUSH2 0x2CC1 JUMPI PUSH2 0x2CC0 PUSH2 0x43DF JUMP JUMPDEST JUMPDEST SWAP1 PUSH1 0x0 MSTORE PUSH1 0x20 PUSH1 0x0 KECCAK256 SWAP1 PUSH1 0x7 MUL ADD PUSH1 0x4 ADD PUSH1 0x14 PUSH2 0x100 EXP DUP2 SLOAD DUP2 PUSH1 0xFF MUL NOT AND SWAP1 DUP4 ISZERO ISZERO MUL OR SWAP1 SSTORE POP PUSH32 0x4460A3075D16E0C301975989C352ADF5EFEF3F00E4B1CD798431DDDDA7179E58 DUP11 DUP11 PUSH1 0x3 PUSH1 0x40 MLOAD PUSH2 0x2D1D SWAP4 SWAP3 SWAP2 SWAP1 PUSH2 0x3FC2 JUMP JUMPDEST PUSH1 0x40 MLOAD DUP1 SWAP2 SUB SWAP1 LOG1 JUMPDEST POP POP POP PUSH2 0x2D69 JUMP JUMPDEST PUSH1 0x40 MLOAD PUSH32 0x8C379A000000000000000000000000000000000000000000000000000000000 DUP2 MSTORE PUSH1 0x4 ADD PUSH2 0x2D60 SWAP1 PUSH2 0x3F26 JUMP JUMPDEST PUSH1 0x40 MLOAD DUP1 SWAP2 SUB SWAP1 REVERT JUMPDEST PUSH1 0x1 SWAP3 POP PUSH2 0x2D85 JUMP JUMPDEST DUP1 DUP1 PUSH2 0x2D7D SWAP1 PUSH2 0x4309 JUMP JUMPDEST SWAP2 POP POP PUSH2 0x2887 JUMP JUMPDEST POP DUP2 PUSH2 0x2DC6 JUMPI PUSH1 0x40 MLOAD PUSH32 0x8C379A000000000000000000000000000000000000000000000000000000000 DUP2 MSTORE PUSH1 0x4 ADD PUSH2 0x2DBD SWAP1 PUSH2 0x3EC6 JUMP JUMPDEST PUSH1 0x40 MLOAD DUP1 SWAP2 SUB SWAP1 REVERT JUMPDEST POP POP POP POP POP POP JUMP JUMPDEST PUSH1 0x7 PUSH1 0x20 MSTORE DUP1 PUSH1 0x0 MSTORE PUSH1 0x40 PUSH1 0x0 KECCAK256 PUSH1 0x0 SWAP2 POP SWAP1 POP DUP1 SLOAD PUSH2 0x2DED SWAP1 PUSH2 0x42A6 JUMP JUMPDEST DUP1 PUSH1 0x1F ADD PUSH1 0x20 DUP1 SWAP2 DIV MUL PUSH1 0x20 ADD PUSH1 0x40 MLOAD SWAP1 DUP2 ADD PUSH1 0x40 MSTORE DUP1 SWAP3 SWAP2 SWAP1 DUP2 DUP2 MSTORE PUSH1 0x20 ADD DUP3 DUP1 SLOAD PUSH2 0x2E19 SWAP1 PUSH2 0x42A6 JUMP JUMPDEST DUP1 ISZERO PUSH2 0x2E66 JUMPI DUP1 PUSH1 0x1F LT PUSH2 0x2E3B JUMPI PUSH2 0x100 DUP1 DUP4 SLOAD DIV MUL DUP4 MSTORE SWAP2 PUSH1 0x20 ADD SWAP2 PUSH2 0x2E66 JUMP JUMPDEST DUP3 ADD SWAP2 SWAP1 PUSH1 0x0 MSTORE PUSH1 0x20 PUSH1 0x0 KECCAK256 SWAP1 JUMPDEST DUP2 SLOAD DUP2 MSTORE SWAP1 PUSH1 0x1 ADD SWAP1 PUSH1 0x20 ADD DUP1 DUP4 GT PUSH2 0x2E49 JUMPI DUP3 SWAP1 SUB PUSH1 0x1F AND DUP3 ADD SWAP2 JUMPDEST POP POP POP POP POP DUP2 JUMP JUMPDEST PUSH1 0x1 DUP2 DUP2 SLOAD DUP2 LT PUSH2 0x2E7E JUMPI PUSH1 0x0 DUP1 REVERT JUMPDEST SWAP1 PUSH1 0x0 MSTORE PUSH1 0x20 PUSH1 0x0 KECCAK256 SWAP1 PUSH1 0x5 MUL ADD PUSH1 0x0 SWAP2 POP SWAP1 POP DUP1 PUSH1 0x0 ADD SLOAD SWAP1 DUP1 PUSH1 0x1 ADD PUSH1 0x0 SWAP1 SLOAD SWAP1 PUSH2 0x100 EXP SWAP1 DIV PUSH1 0xFF AND SWAP1 DUP1 PUSH1 0x2 ADD DUP1 SLOAD PUSH2 0x2EBA SWAP1 PUSH2 0x42A6 JUMP JUMPDEST DUP1 PUSH1 0x1F ADD PUSH1 0x20 DUP1 SWAP2 DIV MUL PUSH1 0x20 ADD PUSH1 0x40 MLOAD SWAP1 DUP2 ADD PUSH1 0x40 MSTORE DUP1 SWAP3 SWAP2 SWAP1 DUP2 DUP2 MSTORE PUSH1 0x20 ADD DUP3 DUP1 SLOAD PUSH2 0x2EE6 SWAP1 PUSH2 0x42A6 JUMP JUMPDEST DUP1 ISZERO PUSH2 0x2F33 JUMPI DUP1 PUSH1 0x1F LT PUSH2 0x2F08 JUMPI PUSH2 0x100 DUP1 DUP4 SLOAD DIV MUL DUP4 MSTORE SWAP2 PUSH1 0x20 ADD SWAP2 PUSH2 0x2F33 JUMP JUMPDEST DUP3 ADD SWAP2 SWAP1 PUSH1 0x0 MSTORE PUSH1 0x20 PUSH1 0x0 KECCAK256 SWAP1 JUMPDEST DUP2 SLOAD DUP2 MSTORE SWAP1 PUSH1 0x1 ADD SWAP1 PUSH1 0x20 ADD DUP1 DUP4 GT PUSH2 0x2F16 JUMPI DUP3 SWAP1 SUB PUSH1 0x1F AND DUP3 ADD SWAP2 JUMPDEST POP POP POP POP POP SWAP1 DUP1 PUSH1 0x3 ADD DUP1 SLOAD PUSH2 0x2F48 SWAP1 PUSH2 0x42A6 JUMP JUMPDEST DUP1 PUSH1 0x1F ADD PUSH1 0x20 DUP1 SWAP2 DIV MUL PUSH1 0x20 ADD PUSH1 0x40 MLOAD SWAP1 DUP2 ADD PUSH1 0x40 MSTORE DUP1 SWAP3 SWAP2 SWAP1 DUP2 DUP2 MSTORE PUSH1 0x20 ADD DUP3 DUP1 SLOAD PUSH2 0x2F74 SWAP1 PUSH2 0x42A6 JUMP JUMPDEST DUP1 ISZERO PUSH2 0x2FC1 JUMPI DUP1 PUSH1 0x1F LT PUSH2 0x2F96 JUMPI PUSH2 0x100 DUP1 DUP4 SLOAD DIV MUL DUP4 MSTORE SWAP2 PUSH1 0x20 ADD SWAP2 PUSH2 0x2FC1 JUMP JUMPDEST DUP3 ADD SWAP2 SWAP1 PUSH1 0x0 MSTORE PUSH1 0x20 PUSH1 0x0 KECCAK256 SWAP1 JUMPDEST DUP2 SLOAD DUP2 MSTORE SWAP1 PUSH1 0x1 ADD SWAP1 PUSH1 0x20 ADD DUP1 DUP4 GT PUSH2 0x2FA4 JUMPI DUP3 SWAP1 SUB PUSH1 0x1F AND DUP3 ADD SWAP2 JUMPDEST POP POP POP POP POP SWAP1 DUP1 PUSH1 0x4 ADD PUSH1 0x0 SWAP1 SLOAD SWAP1 PUSH2 0x100 EXP SWAP1 DIV PUSH20 0xFFFFFFFFFFFFFFFFFFFFFFFFFFFFFFFFFFFFFFFF AND SWAP1 POP DUP6 JUMP JUMPDEST PUSH1 0x0 DUP1 PUSH1 0x3 PUSH1 0x0 DUP6 DUP2 MSTORE PUSH1 0x20 ADD SWAP1 DUP2 MSTORE PUSH1 0x20 ADD PUSH1 0x0 KECCAK256 SWAP1 POP PUSH1 0x0 DUP2 DUP1 SLOAD SWAP1 POP GT PUSH2 0x3050 JUMPI PUSH1 0x40 MLOAD PUSH32 0x8C379A000000000000000000000000000000000000000000000000000000000 DUP2 MSTORE PUSH1 0x4 ADD PUSH2 0x3047 SWAP1 PUSH2 0x3D06 JUMP JUMPDEST PUSH1 0x40 MLOAD DUP1 SWAP2 SUB SWAP1 REVERT JUMPDEST PUSH1 0x0 JUMPDEST DUP2 DUP1 SLOAD SWAP1 POP DUP2 LT ISZERO PUSH2 0x3240 JUMPI DUP4 DUP3 DUP3 DUP2 SLOAD DUP2 LT PUSH2 0x3073 JUMPI PUSH2 0x3072 PUSH2 0x43DF JUMP JUMPDEST JUMPDEST SWAP1 PUSH1 0x0 MSTORE PUSH1 0x20 PUSH1 0x0 KECCAK256 SWAP1 PUSH1 0x7 MUL ADD PUSH1 0x0 ADD SLOAD EQ ISZERO PUSH2 0x322D JUMPI PUSH1 0x7 PUSH1 0x9 DUP2 GT ISZERO PUSH2 0x309F JUMPI PUSH2 0x309E PUSH2 0x4381 JUMP JUMPDEST JUMPDEST DUP3 DUP3 DUP2 SLOAD DUP2 LT PUSH2 0x30B2 JUMPI PUSH2 0x30B1 PUSH2 0x43DF JUMP JUMPDEST JUMPDEST SWAP1 PUSH1 0x0 MSTORE PUSH1 0x20 PUSH1 0x0 KECCAK256 SWAP1 PUSH1 0x7 MUL ADD PUSH1 0x6 ADD PUSH1 0x0 SWAP1 SLOAD SWAP1 PUSH2 0x100 EXP SWAP1 DIV PUSH1 0xFF AND PUSH1 0x9 DUP2 GT ISZERO PUSH2 0x30E3 JUMPI PUSH2 0x30E2 PUSH2 0x4381 JUMP JUMPDEST JUMPDEST EQ PUSH2 0x3123 JUMPI PUSH1 0x40 MLOAD PUSH32 0x8C379A000000000000000000000000000000000000000000000000000000000 DUP2 MSTORE PUSH1 0x4 ADD PUSH2 0x311A SWAP1 PUSH2 0x3E46 JUMP JUMPDEST PUSH1 0x40 MLOAD DUP1 SWAP2 SUB SWAP1 REVERT JUMPDEST PUSH1 0x0 PUSH1 0x5 PUSH1 0x0 DUP7 DUP2 MSTORE PUSH1 0x20 ADD SWAP1 DUP2 MSTORE PUSH1 0x20 ADD PUSH1 0x0 KECCAK256 SWAP1 POP PUSH1 0x0 JUMPDEST DUP2 DUP1 SLOAD SWAP1 POP DUP2 LT ISZERO PUSH2 0x3222 JUMPI PUSH1 0x0 DUP3 DUP3 DUP2 SLOAD DUP2 LT PUSH2 0x315E JUMPI PUSH2 0x315D PUSH2 0x43DF JUMP JUMPDEST JUMPDEST SWAP1 PUSH1 0x0 MSTORE PUSH1 0x20 PUSH1 0x0 KECCAK256 SWAP1 PUSH1 0x3 MUL ADD PUSH1 0x2 ADD PUSH1 0x0 DUP9 DUP2 MSTORE PUSH1 0x20 ADD SWAP1 DUP2 MSTORE PUSH1 0x20 ADD PUSH1 0x0 KECCAK256 SLOAD SWAP1 POP DUP3 DUP3 DUP2 SLOAD DUP2 LT PUSH2 0x3196 JUMPI PUSH2 0x3195 PUSH2 0x43DF JUMP JUMPDEST JUMPDEST SWAP1 PUSH1 0x0 MSTORE PUSH1 0x20 PUSH1 0x0 KECCAK256 SWAP1 PUSH1 0x3 MUL ADD PUSH1 0x1 ADD PUSH1 0x0 SWAP1 SLOAD SWAP1 PUSH2 0x100 EXP SWAP1 DIV PUSH20 0xFFFFFFFFFFFFFFFFFFFFFFFFFFFFFFFFFFFFFFFF AND PUSH20 0xFFFFFFFFFFFFFFFFFFFFFFFFFFFFFFFFFFFFFFFF AND PUSH2 0x8FC DUP3 SWAP1 DUP2 ISZERO MUL SWAP1 PUSH1 0x40 MLOAD PUSH1 0x0 PUSH1 0x40 MLOAD DUP1 DUP4 SUB DUP2 DUP6 DUP9 DUP9 CALL SWAP4 POP POP POP POP ISZERO DUP1 ISZERO PUSH2 0x320D JUMPI RETURNDATASIZE PUSH1 0x0 DUP1 RETURNDATACOPY RETURNDATASIZE PUSH1 0x0 REVERT JUMPDEST POP POP DUP1 DUP1 PUSH2 0x321A SWAP1 PUSH2 0x4309 JUMP JUMPDEST SWAP2 POP POP PUSH2 0x313D JUMP JUMPDEST POP PUSH1 0x1 SWAP4 POP POP PUSH2 0x3240 JUMP JUMPDEST DUP1 DUP1 PUSH2 0x3238 SWAP1 PUSH2 0x4309 JUMP JUMPDEST SWAP2 POP POP PUSH2 0x3053 JUMP JUMPDEST POP DUP2 PUSH2 0x3281 JUMPI PUSH1 0x40 MLOAD PUSH32 0x8C379A000000000000000000000000000000000000000000000000000000000 DUP2 MSTORE PUSH1 0x4 ADD PUSH2 0x3278 SWAP1 PUSH2 0x3EA6 JUMP JUMPDEST PUSH1 0x40 MLOAD DUP1 SWAP2 SUB SWAP1 REVERT JUMPDEST POP POP POP POP JUMP JUMPDEST PUSH1 0x0 DUP1 PUSH1 0x3 PUSH1 0x0 DUP6 DUP2 MSTORE PUSH1 0x20 ADD SWAP1 DUP2 MSTORE PUSH1 0x20 ADD PUSH1 0x0 KECCAK256 SWAP1 POP PUSH1 0x0 DUP2 DUP1 SLOAD SWAP1 POP GT PUSH2 0x32E6 JUMPI PUSH1 0x40 MLOAD PUSH32 0x8C379A000000000000000000000000000000000000000000000000000000000 DUP2 MSTORE PUSH1 0x4 ADD PUSH2 0x32DD SWAP1 PUSH2 0x3D06 JUMP JUMPDEST PUSH1 0x40 MLOAD DUP1 SWAP2 SUB SWAP1 REVERT JUMPDEST PUSH1 0x0 JUMPDEST DUP2 DUP1 SLOAD SWAP1 POP DUP2 LT ISZERO PUSH2 0x33EC JUMPI DUP4 DUP3 DUP3 DUP2 SLOAD DUP2 LT PUSH2 0x3309 JUMPI PUSH2 0x3308 PUSH2 0x43DF JUMP JUMPDEST JUMPDEST SWAP1 PUSH1 0x0 MSTORE PUSH1 0x20 PUSH1 0x0 KECCAK256 SWAP1 PUSH1 0x7 MUL ADD PUSH1 0x0 ADD SLOAD EQ ISZERO PUSH2 0x33D9 JUMPI DUP2 DUP2 DUP2 SLOAD DUP2 LT PUSH2 0x3334 JUMPI PUSH2 0x3333 PUSH2 0x43DF JUMP JUMPDEST JUMPDEST SWAP1 PUSH1 0x0 MSTORE PUSH1 0x20 PUSH1 0x0 KECCAK256 SWAP1 PUSH1 0x7 MUL ADD PUSH1 0x4 ADD PUSH1 0x0 SWAP1 SLOAD SWAP1 PUSH2 0x100 EXP SWAP1 DIV PUSH20 0xFFFFFFFFFFFFFFFFFFFFFFFFFFFFFFFFFFFFFFFF AND PUSH20 0xFFFFFFFFFFFFFFFFFFFFFFFFFFFFFFFFFFFFFFFF AND PUSH2 0x8FC DUP4 DUP4 DUP2 SLOAD DUP2 LT PUSH2 0x3392 JUMPI PUSH2 0x3391 PUSH2 0x43DF JUMP JUMPDEST JUMPDEST SWAP1 PUSH1 0x0 MSTORE PUSH1 0x20 PUSH1 0x0 KECCAK256 SWAP1 PUSH1 0x7 MUL ADD PUSH1 0x3 ADD SLOAD SWAP1 DUP2 ISZERO MUL SWAP1 PUSH1 0x40 MLOAD PUSH1 0x0 PUSH1 0x40 MLOAD DUP1 DUP4 SUB DUP2 DUP6 DUP9 DUP9 CALL SWAP4 POP POP POP POP ISZERO DUP1 ISZERO PUSH2 0x33CF JUMPI RETURNDATASIZE PUSH1 0x0 DUP1 RETURNDATACOPY RETURNDATASIZE PUSH1 0x0 REVERT JUMPDEST POP PUSH1 0x1 SWAP3 POP PUSH2 0x33EC JUMP JUMPDEST DUP1 DUP1 PUSH2 0x33E4 SWAP1 PUSH2 0x4309 JUMP JUMPDEST SWAP2 POP POP PUSH2 0x32E9 JUMP JUMPDEST POP DUP2 PUSH2 0x342D JUMPI PUSH1 0x40 MLOAD PUSH32 0x8C379A000000000000000000000000000000000000000000000000000000000 DUP2 MSTORE PUSH1 0x4 ADD PUSH2 0x3424 SWAP1 PUSH2 0x3EA6 JUMP JUMPDEST PUSH1 0x40 MLOAD DUP1 SWAP2 SUB SWAP1 REVERT JUMPDEST POP POP POP POP JUMP JUMPDEST DUP3 DUP1 SLOAD PUSH2 0x343F SWAP1 PUSH2 0x42A6 JUMP JUMPDEST SWAP1 PUSH1 0x0 MSTORE PUSH1 0x20 PUSH1 0x0 KECCAK256 SWAP1 PUSH1 0x1F ADD PUSH1 0x20 SWAP1 DIV DUP2 ADD SWAP3 DUP3 PUSH2 0x3461 JUMPI PUSH1 0x0 DUP6 SSTORE PUSH2 0x34A8 JUMP JUMPDEST DUP3 PUSH1 0x1F LT PUSH2 0x347A JUMPI DUP1 MLOAD PUSH1 0xFF NOT AND DUP4 DUP1 ADD OR DUP6 SSTORE PUSH2 0x34A8 JUMP JUMPDEST DUP3 DUP1 ADD PUSH1 0x1 ADD DUP6 SSTORE DUP3 ISZERO PUSH2 0x34A8 JUMPI SWAP2 DUP3 ADD JUMPDEST DUP3 DUP2 GT ISZERO PUSH2 0x34A7 JUMPI DUP3 MLOAD DUP3 SSTORE SWAP2 PUSH1 0x20 ADD SWAP2 SWAP1 PUSH1 0x1 ADD SWAP1 PUSH2 0x348C JUMP JUMPDEST JUMPDEST POP SWAP1 POP PUSH2 0x34B5 SWAP2 SWAP1 PUSH2 0x34B9 JUMP JUMPDEST POP SWAP1 JUMP JUMPDEST JUMPDEST DUP1 DUP3 GT ISZERO PUSH2 0x34D2 JUMPI PUSH1 0x0 DUP2 PUSH1 0x0 SWAP1 SSTORE POP PUSH1 0x1 ADD PUSH2 0x34BA JUMP JUMPDEST POP SWAP1 JUMP JUMPDEST PUSH1 0x0 PUSH2 0x34E9 PUSH2 0x34E4 DUP5 PUSH2 0x40DA JUMP JUMPDEST PUSH2 0x40B5 JUMP JUMPDEST SWAP1 POP DUP3 DUP2 MSTORE PUSH1 0x20 DUP2 ADD DUP5 DUP5 DUP5 ADD GT ISZERO PUSH2 0x3505 JUMPI PUSH2 0x3504 PUSH2 0x4442 JUMP JUMPDEST JUMPDEST PUSH2 0x3510 DUP5 DUP3 DUP6 PUSH2 0x4264 JUMP JUMPDEST POP SWAP4 SWAP3 POP POP POP JUMP JUMPDEST PUSH1 0x0 DUP2 CALLDATALOAD SWAP1 POP PUSH2 0x3527 DUP2 PUSH2 0x4992 JUMP JUMPDEST SWAP3 SWAP2 POP POP JUMP JUMPDEST PUSH1 0x0 DUP2 CALLDATALOAD SWAP1 POP PUSH2 0x353C DUP2 PUSH2 0x49A9 JUMP JUMPDEST SWAP3 SWAP2 POP POP JUMP JUMPDEST PUSH1 0x0 DUP2 CALLDATALOAD SWAP1 POP PUSH2 0x3551 DUP2 PUSH2 0x49C0 JUMP JUMPDEST SWAP3 SWAP2 POP POP JUMP JUMPDEST PUSH1 0x0 DUP3 PUSH1 0x1F DUP4 ADD SLT PUSH2 0x356C JUMPI PUSH2 0x356B PUSH2 0x443D JUMP JUMPDEST JUMPDEST DUP2 CALLDATALOAD PUSH2 0x357C DUP5 DUP3 PUSH1 0x20 DUP7 ADD PUSH2 0x34D6 JUMP JUMPDEST SWAP2 POP POP SWAP3 SWAP2 POP POP JUMP JUMPDEST PUSH1 0x0 DUP2 CALLDATALOAD SWAP1 POP PUSH2 0x3594 DUP2 PUSH2 0x49D0 JUMP JUMPDEST SWAP3 SWAP2 POP POP JUMP JUMPDEST PUSH1 0x0 DUP2 CALLDATALOAD SWAP1 POP PUSH2 0x35A9 DUP2 PUSH2 0x49E7 JUMP JUMPDEST SWAP3 SWAP2 POP POP JUMP JUMPDEST PUSH1 0x0 PUSH1 0x20 DUP3 DUP5 SUB SLT ISZERO PUSH2 0x35C5 JUMPI PUSH2 0x35C4 PUSH2 0x444C JUMP JUMPDEST JUMPDEST PUSH1 0x0 PUSH2 0x35D3 DUP5 DUP3 DUP6 ADD PUSH2 0x3542 JUMP JUMPDEST SWAP2 POP POP SWAP3 SWAP2 POP POP JUMP JUMPDEST PUSH1 0x0 PUSH1 0x20 DUP3 DUP5 SUB SLT ISZERO PUSH2 0x35F2 JUMPI PUSH2 0x35F1 PUSH2 0x444C JUMP JUMPDEST JUMPDEST PUSH1 0x0 PUSH2 0x3600 DUP5 DUP3 DUP6 ADD PUSH2 0x3585 JUMP JUMPDEST SWAP2 POP POP SWAP3 SWAP2 POP POP JUMP JUMPDEST PUSH1 0x0 DUP1 PUSH1 0x0 PUSH1 0x60 DUP5 DUP7 SUB SLT ISZERO PUSH2 0x3622 JUMPI PUSH2 0x3621 PUSH2 0x444C JUMP JUMPDEST JUMPDEST PUSH1 0x0 PUSH2 0x3630 DUP7 DUP3 DUP8 ADD PUSH2 0x3585 JUMP JUMPDEST SWAP4 POP POP PUSH1 0x20 PUSH2 0x3641 DUP7 DUP3 DUP8 ADD PUSH2 0x352D JUMP JUMPDEST SWAP3 POP POP PUSH1 0x40 DUP5 ADD CALLDATALOAD PUSH8 0xFFFFFFFFFFFFFFFF DUP2 GT ISZERO PUSH2 0x3662 JUMPI PUSH2 0x3661 PUSH2 0x4447 JUMP JUMPDEST JUMPDEST PUSH2 0x366E DUP7 DUP3 DUP8 ADD PUSH2 0x3557 JUMP JUMPDEST SWAP2 POP POP SWAP3 POP SWAP3 POP SWAP3 JUMP JUMPDEST PUSH1 0x0 DUP1 PUSH1 0x0 PUSH1 0x60 DUP5 DUP7 SUB SLT ISZERO PUSH2 0x3691 JUMPI PUSH2 0x3690 PUSH2 0x444C JUMP JUMPDEST JUMPDEST PUSH1 0x0 PUSH2 0x369F DUP7 DUP3 DUP8 ADD PUSH2 0x3585 JUMP JUMPDEST SWAP4 POP POP PUSH1 0x20 DUP5 ADD CALLDATALOAD PUSH8 0xFFFFFFFFFFFFFFFF DUP2 GT ISZERO PUSH2 0x36C0 JUMPI PUSH2 0x36BF PUSH2 0x4447 JUMP JUMPDEST JUMPDEST PUSH2 0x36CC DUP7 DUP3 DUP8 ADD PUSH2 0x3557 JUMP JUMPDEST SWAP3 POP POP PUSH1 0x40 PUSH2 0x36DD DUP7 DUP3 DUP8 ADD PUSH2 0x3518 JUMP JUMPDEST SWAP2 POP POP SWAP3 POP SWAP3 POP SWAP3 JUMP JUMPDEST PUSH1 0x0 DUP1 PUSH1 0x40 DUP4 DUP6 SUB SLT ISZERO PUSH2 0x36FE JUMPI PUSH2 0x36FD PUSH2 0x444C JUMP JUMPDEST JUMPDEST PUSH1 0x0 PUSH2 0x370C DUP6 DUP3 DUP7 ADD PUSH2 0x3585 JUMP JUMPDEST SWAP3 POP POP PUSH1 0x20 PUSH2 0x371D DUP6 DUP3 DUP7 ADD PUSH2 0x3585 JUMP JUMPDEST SWAP2 POP POP SWAP3 POP SWAP3 SWAP1 POP JUMP JUMPDEST PUSH1 0x0 DUP1 PUSH1 0x0 PUSH1 0x60 DUP5 DUP7 SUB SLT ISZERO PUSH2 0x3740 JUMPI PUSH2 0x373F PUSH2 0x444C JUMP JUMPDEST JUMPDEST PUSH1 0x0 PUSH2 0x374E DUP7 DUP3 DUP8 ADD PUSH2 0x3585 JUMP JUMPDEST SWAP4 POP POP PUSH1 0x20 PUSH2 0x375F DUP7 DUP3 DUP8 ADD PUSH2 0x3585 JUMP JUMPDEST SWAP3 POP POP PUSH1 0x40 PUSH2 0x3770 DUP7 DUP3 DUP8 ADD PUSH2 0x3585 JUMP JUMPDEST SWAP2 POP POP SWAP3 POP SWAP3 POP SWAP3 JUMP JUMPDEST PUSH1 0x0 DUP1 PUSH1 0x0 DUP1 PUSH1 0x80 DUP6 DUP8 SUB SLT ISZERO PUSH2 0x3794 JUMPI PUSH2 0x3793 PUSH2 0x444C JUMP JUMPDEST JUMPDEST PUSH1 0x0 PUSH2 0x37A2 DUP8 DUP3 DUP9 ADD PUSH2 0x3585 JUMP JUMPDEST SWAP5 POP POP PUSH1 0x20 PUSH2 0x37B3 DUP8 DUP3 DUP9 ADD PUSH2 0x3585 JUMP JUMPDEST SWAP4 POP POP PUSH1 0x40 PUSH2 0x37C4 DUP8 DUP3 DUP9 ADD PUSH2 0x3585 JUMP JUMPDEST SWAP3 POP POP PUSH1 0x60 PUSH2 0x37D5 DUP8 DUP3 DUP9 ADD PUSH2 0x3585 JUMP JUMPDEST SWAP2 POP POP SWAP3 SWAP6 SWAP2 SWAP5 POP SWAP3 POP JUMP JUMPDEST PUSH1 0x0 DUP1 PUSH1 0x0 DUP1 PUSH1 0x0 DUP1 PUSH1 0xC0 DUP8 DUP10 SUB SLT ISZERO PUSH2 0x37FE JUMPI PUSH2 0x37FD PUSH2 0x444C JUMP JUMPDEST JUMPDEST PUSH1 0x0 PUSH2 0x380C DUP10 DUP3 DUP11 ADD PUSH2 0x3585 JUMP JUMPDEST SWAP7 POP POP PUSH1 0x20 PUSH2 0x381D DUP10 DUP3 DUP11 ADD PUSH2 0x3585 JUMP JUMPDEST SWAP6 POP POP PUSH1 0x40 PUSH2 0x382E DUP10 DUP3 DUP11 ADD PUSH2 0x3585 JUMP JUMPDEST SWAP5 POP POP PUSH1 0x60 PUSH2 0x383F DUP10 DUP3 DUP11 ADD PUSH2 0x3585 JUMP JUMPDEST SWAP4 POP POP PUSH1 0x80 PUSH2 0x3850 DUP10 DUP3 DUP11 ADD PUSH2 0x3518 JUMP JUMPDEST SWAP3 POP POP PUSH1 0xA0 DUP8 ADD CALLDATALOAD PUSH8 0xFFFFFFFFFFFFFFFF DUP2 GT ISZERO PUSH2 0x3871 JUMPI PUSH2 0x3870 PUSH2 0x4447 JUMP JUMPDEST JUMPDEST PUSH2 0x387D DUP10 DUP3 DUP11 ADD PUSH2 0x3557 JUMP JUMPDEST SWAP2 POP POP SWAP3 SWAP6 POP SWAP3 SWAP6 POP SWAP3 SWAP6 JUMP JUMPDEST PUSH1 0x0 DUP1 PUSH1 0x0 PUSH1 0x60 DUP5 DUP7 SUB SLT ISZERO PUSH2 0x38A3 JUMPI PUSH2 0x38A2 PUSH2 0x444C JUMP JUMPDEST JUMPDEST PUSH1 0x0 PUSH2 0x38B1 DUP7 DUP3 DUP8 ADD PUSH2 0x3585 JUMP JUMPDEST SWAP4 POP POP PUSH1 0x20 PUSH2 0x38C2 DUP7 DUP3 DUP8 ADD PUSH2 0x3585 JUMP JUMPDEST SWAP3 POP POP PUSH1 0x40 PUSH2 0x38D3 DUP7 DUP3 DUP8 ADD PUSH2 0x359A JUMP JUMPDEST SWAP2 POP POP SWAP3 POP SWAP3 POP SWAP3 JUMP JUMPDEST PUSH1 0x0 PUSH2 0x38E9 DUP4 DUP4 PUSH2 0x3C2F JUMP JUMPDEST PUSH1 0x20 DUP4 ADD SWAP1 POP SWAP3 SWAP2 POP POP JUMP JUMPDEST PUSH2 0x38FE DUP2 PUSH2 0x41EA JUMP JUMPDEST DUP3 MSTORE POP POP JUMP JUMPDEST PUSH1 0x0 PUSH2 0x390F DUP3 PUSH2 0x411B JUMP JUMPDEST PUSH2 0x3919 DUP2 DUP6 PUSH2 0x413E JUMP JUMPDEST SWAP4 POP PUSH2 0x3924 DUP4 PUSH2 0x410B JUMP JUMPDEST DUP1 PUSH1 0x0 JUMPDEST DUP4 DUP2 LT ISZERO PUSH2 0x3955 JUMPI DUP2 MLOAD PUSH2 0x393C DUP9 DUP3 PUSH2 0x38DD JUMP JUMPDEST SWAP8 POP PUSH2 0x3947 DUP4 PUSH2 0x4131 JUMP JUMPDEST SWAP3 POP POP PUSH1 0x1 DUP2 ADD SWAP1 POP PUSH2 0x3928 JUMP JUMPDEST POP DUP6 SWAP4 POP POP POP POP SWAP3 SWAP2 POP POP JUMP JUMPDEST PUSH2 0x396B DUP2 PUSH2 0x41FC JUMP JUMPDEST DUP3 MSTORE POP POP JUMP JUMPDEST PUSH2 0x397A DUP2 PUSH2 0x4252 JUMP JUMPDEST DUP3 MSTORE POP POP JUMP JUMPDEST PUSH1 0x0 PUSH2 0x398B DUP3 PUSH2 0x4126 JUMP JUMPDEST PUSH2 0x3995 DUP2 DUP6 PUSH2 0x414F JUMP JUMPDEST SWAP4 POP PUSH2 0x39A5 DUP2 DUP6 PUSH1 0x20 DUP7 ADD PUSH2 0x4273 JUMP JUMPDEST PUSH2 0x39AE DUP2 PUSH2 0x4451 JUMP JUMPDEST DUP5 ADD SWAP2 POP POP SWAP3 SWAP2 POP POP JUMP JUMPDEST PUSH1 0x0 PUSH2 0x39C6 PUSH1 0x11 DUP4 PUSH2 0x414F JUMP JUMPDEST SWAP2 POP PUSH2 0x39D1 DUP3 PUSH2 0x4462 JUMP JUMPDEST PUSH1 0x20 DUP3 ADD SWAP1 POP SWAP2 SWAP1 POP JUMP JUMPDEST PUSH1 0x0 PUSH2 0x39E9 PUSH1 0x2D DUP4 PUSH2 0x414F JUMP JUMPDEST SWAP2 POP PUSH2 0x39F4 DUP3 PUSH2 0x448B JUMP JUMPDEST PUSH1 0x40 DUP3 ADD SWAP1 POP SWAP2 SWAP1 POP JUMP JUMPDEST PUSH1 0x0 PUSH2 0x3A0C PUSH1 0x39 DUP4 PUSH2 0x414F JUMP JUMPDEST SWAP2 POP PUSH2 0x3A17 DUP3 PUSH2 0x44DA JUMP JUMPDEST PUSH1 0x40 DUP3 ADD SWAP1 POP SWAP2 SWAP1 POP JUMP JUMPDEST PUSH1 0x0 PUSH2 0x3A2F PUSH1 0x2A DUP4 PUSH2 0x414F JUMP JUMPDEST SWAP2 POP PUSH2 0x3A3A DUP3 PUSH2 0x4529 JUMP JUMPDEST PUSH1 0x40 DUP3 ADD SWAP1 POP SWAP2 SWAP1 POP JUMP JUMPDEST PUSH1 0x0 PUSH2 0x3A52 PUSH1 0x24 DUP4 PUSH2 0x414F JUMP JUMPDEST SWAP2 POP PUSH2 0x3A5D DUP3 PUSH2 0x4578 JUMP JUMPDEST PUSH1 0x40 DUP3 ADD SWAP1 POP SWAP2 SWAP1 POP JUMP JUMPDEST PUSH1 0x0 PUSH2 0x3A75 PUSH1 0x26 DUP4 PUSH2 0x414F JUMP JUMPDEST SWAP2 POP PUSH2 0x3A80 DUP3 PUSH2 0x45C7 JUMP JUMPDEST PUSH1 0x40 DUP3 ADD SWAP1 POP SWAP2 SWAP1 POP JUMP JUMPDEST PUSH1 0x0 PUSH2 0x3A98 PUSH1 0x28 DUP4 PUSH2 0x414F JUMP JUMPDEST SWAP2 POP PUSH2 0x3AA3 DUP3 PUSH2 0x4616 JUMP JUMPDEST PUSH1 0x40 DUP3 ADD SWAP1 POP SWAP2 SWAP1 POP JUMP JUMPDEST PUSH1 0x0 PUSH2 0x3ABB PUSH1 0x31 DUP4 PUSH2 0x414F JUMP JUMPDEST SWAP2 POP PUSH2 0x3AC6 DUP3 PUSH2 0x4665 JUMP JUMPDEST PUSH1 0x40 DUP3 ADD SWAP1 POP SWAP2 SWAP1 POP JUMP JUMPDEST PUSH1 0x0 PUSH2 0x3ADE PUSH1 0x41 DUP4 PUSH2 0x414F JUMP JUMPDEST SWAP2 POP PUSH2 0x3AE9 DUP3 PUSH2 0x46B4 JUMP JUMPDEST PUSH1 0x60 DUP3 ADD SWAP1 POP SWAP2 SWAP1 POP JUMP JUMPDEST PUSH1 0x0 PUSH2 0x3B01 PUSH1 0x19 DUP4 PUSH2 0x414F JUMP JUMPDEST SWAP2 POP PUSH2 0x3B0C DUP3 PUSH2 0x4729 JUMP JUMPDEST PUSH1 0x20 DUP3 ADD SWAP1 POP SWAP2 SWAP1 POP JUMP JUMPDEST PUSH1 0x0 PUSH2 0x3B24 PUSH1 0x3E DUP4 PUSH2 0x414F JUMP JUMPDEST SWAP2 POP PUSH2 0x3B2F DUP3 PUSH2 0x4752 JUMP JUMPDEST PUSH1 0x40 DUP3 ADD SWAP1 POP SWAP2 SWAP1 POP JUMP JUMPDEST PUSH1 0x0 PUSH2 0x3B47 PUSH1 0x26 DUP4 PUSH2 0x414F JUMP JUMPDEST SWAP2 POP PUSH2 0x3B52 DUP3 PUSH2 0x47A1 JUMP JUMPDEST PUSH1 0x40 DUP3 ADD SWAP1 POP SWAP2 SWAP1 POP JUMP JUMPDEST PUSH1 0x0 PUSH2 0x3B6A PUSH1 0x23 DUP4 PUSH2 0x414F JUMP JUMPDEST SWAP2 POP PUSH2 0x3B75 DUP3 PUSH2 0x47F0 JUMP JUMPDEST PUSH1 0x40 DUP3 ADD SWAP1 POP SWAP2 SWAP1 POP JUMP JUMPDEST PUSH1 0x0 PUSH2 0x3B8D PUSH1 0x25 DUP4 PUSH2 0x414F JUMP JUMPDEST SWAP2 POP PUSH2 0x3B98 DUP3 PUSH2 0x483F JUMP JUMPDEST PUSH1 0x40 DUP3 ADD SWAP1 POP SWAP2 SWAP1 POP JUMP JUMPDEST PUSH1 0x0 PUSH2 0x3BB0 PUSH1 0x28 DUP4 PUSH2 0x414F JUMP JUMPDEST SWAP2 POP PUSH2 0x3BBB DUP3 PUSH2 0x488E JUMP JUMPDEST PUSH1 0x40 DUP3 ADD SWAP1 POP SWAP2 SWAP1 POP JUMP JUMPDEST PUSH1 0x0 PUSH2 0x3BD3 PUSH1 0x20 DUP4 PUSH2 0x414F JUMP JUMPDEST SWAP2 POP PUSH2 0x3BDE DUP3 PUSH2 0x48DD JUMP JUMPDEST PUSH1 0x20 DUP3 ADD SWAP1 POP SWAP2 SWAP1 POP JUMP JUMPDEST PUSH1 0x0 PUSH2 0x3BF6 PUSH1 0x1C DUP4 PUSH2 0x414F JUMP JUMPDEST SWAP2 POP PUSH2 0x3C01 DUP3 PUSH2 0x4906 JUMP JUMPDEST PUSH1 0x20 DUP3 ADD SWAP1 POP SWAP2 SWAP1 POP JUMP JUMPDEST PUSH1 0x0 PUSH2 0x3C19 PUSH1 0x2C DUP4 PUSH2 0x414F JUMP JUMPDEST SWAP2 POP PUSH2 0x3C24 DUP3 PUSH2 0x492F JUMP JUMPDEST PUSH1 0x40 DUP3 ADD SWAP1 POP SWAP2 SWAP1 POP JUMP JUMPDEST PUSH2 0x3C38 DUP2 PUSH2 0x423B JUMP JUMPDEST DUP3 MSTORE POP POP JUMP JUMPDEST PUSH2 0x3C47 DUP2 PUSH2 0x423B JUMP JUMPDEST DUP3 MSTORE POP POP JUMP JUMPDEST PUSH1 0x0 PUSH1 0x20 DUP3 ADD SWAP1 POP PUSH2 0x3C62 PUSH1 0x0 DUP4 ADD DUP5 PUSH2 0x38F5 JUMP JUMPDEST SWAP3 SWAP2 POP POP JUMP JUMPDEST PUSH1 0x0 PUSH1 0x80 DUP3 ADD SWAP1 POP DUP2 DUP2 SUB PUSH1 0x0 DUP4 ADD MSTORE PUSH2 0x3C82 DUP2 DUP8 PUSH2 0x3904 JUMP JUMPDEST SWAP1 POP DUP2 DUP2 SUB PUSH1 0x20 DUP4 ADD MSTORE PUSH2 0x3C96 DUP2 DUP7 PUSH2 0x3904 JUMP JUMPDEST SWAP1 POP DUP2 DUP2 SUB PUSH1 0x40 DUP4 ADD MSTORE PUSH2 0x3CAA DUP2 DUP6 PUSH2 0x3904 JUMP JUMPDEST SWAP1 POP DUP2 DUP2 SUB PUSH1 0x60 DUP4 ADD MSTORE PUSH2 0x3CBE DUP2 DUP5 PUSH2 0x3904 JUMP JUMPDEST SWAP1 POP SWAP6 SWAP5 POP POP POP POP POP JUMP JUMPDEST PUSH1 0x0 PUSH1 0x20 DUP3 ADD SWAP1 POP PUSH2 0x3CDE PUSH1 0x0 DUP4 ADD DUP5 PUSH2 0x3971 JUMP JUMPDEST SWAP3 SWAP2 POP POP JUMP JUMPDEST PUSH1 0x0 PUSH1 0x20 DUP3 ADD SWAP1 POP DUP2 DUP2 SUB PUSH1 0x0 DUP4 ADD MSTORE PUSH2 0x3CFE DUP2 DUP5 PUSH2 0x3980 JUMP JUMPDEST SWAP1 POP SWAP3 SWAP2 POP POP JUMP JUMPDEST PUSH1 0x0 PUSH1 0x20 DUP3 ADD SWAP1 POP DUP2 DUP2 SUB PUSH1 0x0 DUP4 ADD MSTORE PUSH2 0x3D1F DUP2 PUSH2 0x39B9 JUMP JUMPDEST SWAP1 POP SWAP2 SWAP1 POP JUMP JUMPDEST PUSH1 0x0 PUSH1 0x20 DUP3 ADD SWAP1 POP DUP2 DUP2 SUB PUSH1 0x0 DUP4 ADD MSTORE PUSH2 0x3D3F DUP2 PUSH2 0x39DC JUMP JUMPDEST SWAP1 POP SWAP2 SWAP1 POP JUMP JUMPDEST PUSH1 0x0 PUSH1 0x20 DUP3 ADD SWAP1 POP DUP2 DUP2 SUB PUSH1 0x0 DUP4 ADD MSTORE PUSH2 0x3D5F DUP2 PUSH2 0x39FF JUMP JUMPDEST SWAP1 POP SWAP2 SWAP1 POP JUMP JUMPDEST PUSH1 0x0 PUSH1 0x20 DUP3 ADD SWAP1 POP DUP2 DUP2 SUB PUSH1 0x0 DUP4 ADD MSTORE PUSH2 0x3D7F DUP2 PUSH2 0x3A22 JUMP JUMPDEST SWAP1 POP SWAP2 SWAP1 POP JUMP JUMPDEST PUSH1 0x0 PUSH1 0x20 DUP3 ADD SWAP1 POP DUP2 DUP2 SUB PUSH1 0x0 DUP4 ADD MSTORE PUSH2 0x3D9F DUP2 PUSH2 0x3A45 JUMP JUMPDEST SWAP1 POP SWAP2 SWAP1 POP JUMP JUMPDEST PUSH1 0x0 PUSH1 0x20 DUP3 ADD SWAP1 POP DUP2 DUP2 SUB PUSH1 0x0 DUP4 ADD MSTORE PUSH2 0x3DBF DUP2 PUSH2 0x3A68 JUMP JUMPDEST SWAP1 POP SWAP2 SWAP1 POP JUMP JUMPDEST PUSH1 0x0 PUSH1 0x20 DUP3 ADD SWAP1 POP DUP2 DUP2 SUB PUSH1 0x0 DUP4 ADD MSTORE PUSH2 0x3DDF DUP2 PUSH2 0x3A8B JUMP JUMPDEST SWAP1 POP SWAP2 SWAP1 POP JUMP JUMPDEST PUSH1 0x0 PUSH1 0x20 DUP3 ADD SWAP1 POP DUP2 DUP2 SUB PUSH1 0x0 DUP4 ADD MSTORE PUSH2 0x3DFF DUP2 PUSH2 0x3AAE JUMP JUMPDEST SWAP1 POP SWAP2 SWAP1 POP JUMP JUMPDEST PUSH1 0x0 PUSH1 0x20 DUP3 ADD SWAP1 POP DUP2 DUP2 SUB PUSH1 0x0 DUP4 ADD MSTORE PUSH2 0x3E1F DUP2 PUSH2 0x3AD1 JUMP JUMPDEST SWAP1 POP SWAP2 SWAP1 POP JUMP JUMPDEST PUSH1 0x0 PUSH1 0x20 DUP3 ADD SWAP1 POP DUP2 DUP2 SUB PUSH1 0x0 DUP4 ADD MSTORE PUSH2 0x3E3F DUP2 PUSH2 0x3AF4 JUMP JUMPDEST SWAP1 POP SWAP2 SWAP1 POP JUMP JUMPDEST PUSH1 0x0 PUSH1 0x20 DUP3 ADD SWAP1 POP DUP2 DUP2 SUB PUSH1 0x0 DUP4 ADD MSTORE PUSH2 0x3E5F DUP2 PUSH2 0x3B17 JUMP JUMPDEST SWAP1 POP SWAP2 SWAP1 POP JUMP JUMPDEST PUSH1 0x0 PUSH1 0x20 DUP3 ADD SWAP1 POP DUP2 DUP2 SUB PUSH1 0x0 DUP4 ADD MSTORE PUSH2 0x3E7F DUP2 PUSH2 0x3B3A JUMP JUMPDEST SWAP1 POP SWAP2 SWAP1 POP JUMP JUMPDEST PUSH1 0x0 PUSH1 0x20 DUP3 ADD SWAP1 POP DUP2 DUP2 SUB PUSH1 0x0 DUP4 ADD MSTORE PUSH2 0x3E9F DUP2 PUSH2 0x3B5D JUMP JUMPDEST SWAP1 POP SWAP2 SWAP1 POP JUMP JUMPDEST PUSH1 0x0 PUSH1 0x20 DUP3 ADD SWAP1 POP DUP2 DUP2 SUB PUSH1 0x0 DUP4 ADD MSTORE PUSH2 0x3EBF DUP2 PUSH2 0x3B80 JUMP JUMPDEST SWAP1 POP SWAP2 SWAP1 POP JUMP JUMPDEST PUSH1 0x0 PUSH1 0x20 DUP3 ADD SWAP1 POP DUP2 DUP2 SUB PUSH1 0x0 DUP4 ADD MSTORE PUSH2 0x3EDF DUP2 PUSH2 0x3BA3 JUMP JUMPDEST SWAP1 POP SWAP2 SWAP1 POP JUMP JUMPDEST PUSH1 0x0 PUSH1 0x20 DUP3 ADD SWAP1 POP DUP2 DUP2 SUB PUSH1 0x0 DUP4 ADD MSTORE PUSH2 0x3EFF DUP2 PUSH2 0x3BC6 JUMP JUMPDEST SWAP1 POP SWAP2 SWAP1 POP JUMP JUMPDEST PUSH1 0x0 PUSH1 0x20 DUP3 ADD SWAP1 POP DUP2 DUP2 SUB PUSH1 0x0 DUP4 ADD MSTORE PUSH2 0x3F1F DUP2 PUSH2 0x3BE9 JUMP JUMPDEST SWAP1 POP SWAP2 SWAP1 POP JUMP JUMPDEST PUSH1 0x0 PUSH1 0x20 DUP3 ADD SWAP1 POP DUP2 DUP2 SUB PUSH1 0x0 DUP4 ADD MSTORE PUSH2 0x3F3F DUP2 PUSH2 0x3C0C JUMP JUMPDEST SWAP1 POP SWAP2 SWAP1 POP JUMP JUMPDEST PUSH1 0x0 PUSH1 0x20 DUP3 ADD SWAP1 POP PUSH2 0x3F5B PUSH1 0x0 DUP4 ADD DUP5 PUSH2 0x3C3E JUMP JUMPDEST SWAP3 SWAP2 POP POP JUMP JUMPDEST PUSH1 0x0 PUSH1 0xA0 DUP3 ADD SWAP1 POP PUSH2 0x3F76 PUSH1 0x0 DUP4 ADD DUP9 PUSH2 0x3C3E JUMP JUMPDEST PUSH2 0x3F83 PUSH1 0x20 DUP4 ADD DUP8 PUSH2 0x3962 JUMP JUMPDEST DUP2 DUP2 SUB PUSH1 0x40 DUP4 ADD MSTORE PUSH2 0x3F95 DUP2 DUP7 PUSH2 0x3980 JUMP JUMPDEST SWAP1 POP DUP2 DUP2 SUB PUSH1 0x60 DUP4 ADD MSTORE PUSH2 0x3FA9 DUP2 DUP6 PUSH2 0x3980 JUMP JUMPDEST SWAP1 POP PUSH2 0x3FB8 PUSH1 0x80 DUP4 ADD DUP5 PUSH2 0x38F5 JUMP JUMPDEST SWAP7 SWAP6 POP POP POP POP POP POP JUMP JUMPDEST PUSH1 0x0 PUSH1 0x60 DUP3 ADD SWAP1 POP PUSH2 0x3FD7 PUSH1 0x0 DUP4 ADD DUP7 PUSH2 0x3C3E JUMP JUMPDEST PUSH2 0x3FE4 PUSH1 0x20 DUP4 ADD DUP6 PUSH2 0x3C3E JUMP JUMPDEST PUSH2 0x3FF1 PUSH1 0x40 DUP4 ADD DUP5 PUSH2 0x3971 JUMP JUMPDEST SWAP5 SWAP4 POP POP POP POP JUMP JUMPDEST PUSH1 0x0 PUSH1 0x60 DUP3 ADD SWAP1 POP PUSH2 0x400E PUSH1 0x0 DUP4 ADD DUP7 PUSH2 0x3C3E JUMP JUMPDEST PUSH2 0x401B PUSH1 0x20 DUP4 ADD DUP6 PUSH2 0x3C3E JUMP JUMPDEST PUSH2 0x4028 PUSH1 0x40 DUP4 ADD DUP5 PUSH2 0x3C3E JUMP JUMPDEST SWAP5 SWAP4 POP POP POP POP JUMP JUMPDEST PUSH1 0x0 PUSH2 0x100 DUP3 ADD SWAP1 POP PUSH2 0x4046 PUSH1 0x0 DUP4 ADD DUP12 PUSH2 0x3C3E JUMP JUMPDEST PUSH2 0x4053 PUSH1 0x20 DUP4 ADD DUP11 PUSH2 0x3C3E JUMP JUMPDEST PUSH2 0x4060 PUSH1 0x40 DUP4 ADD DUP10 PUSH2 0x3C3E JUMP JUMPDEST PUSH2 0x406D PUSH1 0x60 DUP4 ADD DUP9 PUSH2 0x3C3E JUMP JUMPDEST PUSH2 0x407A PUSH1 0x80 DUP4 ADD DUP8 PUSH2 0x38F5 JUMP JUMPDEST PUSH2 0x4087 PUSH1 0xA0 DUP4 ADD DUP7 PUSH2 0x3962 JUMP JUMPDEST DUP2 DUP2 SUB PUSH1 0xC0 DUP4 ADD MSTORE PUSH2 0x4099 DUP2 DUP6 PUSH2 0x3980 JUMP JUMPDEST SWAP1 POP PUSH2 0x40A8 PUSH1 0xE0 DUP4 ADD DUP5 PUSH2 0x3971 JUMP JUMPDEST SWAP10 SWAP9 POP POP POP POP POP POP POP POP POP JUMP JUMPDEST PUSH1 0x0 PUSH2 0x40BF PUSH2 0x40D0 JUMP JUMPDEST SWAP1 POP PUSH2 0x40CB DUP3 DUP3 PUSH2 0x42D8 JUMP JUMPDEST SWAP2 SWAP1 POP JUMP JUMPDEST PUSH1 0x0 PUSH1 0x40 MLOAD SWAP1 POP SWAP1 JUMP JUMPDEST PUSH1 0x0 PUSH8 0xFFFFFFFFFFFFFFFF DUP3 GT ISZERO PUSH2 0x40F5 JUMPI PUSH2 0x40F4 PUSH2 0x440E JUMP JUMPDEST JUMPDEST PUSH2 0x40FE DUP3 PUSH2 0x4451 JUMP JUMPDEST SWAP1 POP PUSH1 0x20 DUP2 ADD SWAP1 POP SWAP2 SWAP1 POP JUMP JUMPDEST PUSH1 0x0 DUP2 SWAP1 POP PUSH1 0x20 DUP3 ADD SWAP1 POP SWAP2 SWAP1 POP JUMP JUMPDEST PUSH1 0x0 DUP2 MLOAD SWAP1 POP SWAP2 SWAP1 POP JUMP JUMPDEST PUSH1 0x0 DUP2 MLOAD SWAP1 POP SWAP2 SWAP1 POP JUMP JUMPDEST PUSH1 0x0 PUSH1 0x20 DUP3 ADD SWAP1 POP SWAP2 SWAP1 POP JUMP JUMPDEST PUSH1 0x0 DUP3 DUP3 MSTORE PUSH1 0x20 DUP3 ADD SWAP1 POP SWAP3 SWAP2 POP POP JUMP JUMPDEST PUSH1 0x0 DUP3 DUP3 MSTORE PUSH1 0x20 DUP3 ADD SWAP1 POP SWAP3 SWAP2 POP POP JUMP JUMPDEST PUSH1 0x0 PUSH2 0x416B DUP3 PUSH2 0x423B JUMP JUMPDEST SWAP2 POP PUSH2 0x4176 DUP4 PUSH2 0x423B JUMP JUMPDEST SWAP3 POP DUP3 PUSH32 0xFFFFFFFFFFFFFFFFFFFFFFFFFFFFFFFFFFFFFFFFFFFFFFFFFFFFFFFFFFFFFFFF SUB DUP3 GT ISZERO PUSH2 0x41AB JUMPI PUSH2 0x41AA PUSH2 0x4352 JUMP JUMPDEST JUMPDEST DUP3 DUP3 ADD SWAP1 POP SWAP3 SWAP2 POP POP JUMP JUMPDEST PUSH1 0x0 PUSH2 0x41C1 DUP3 PUSH2 0x423B JUMP JUMPDEST SWAP2 POP PUSH2 0x41CC DUP4 PUSH2 0x423B JUMP JUMPDEST SWAP3 POP DUP3 DUP3 LT ISZERO PUSH2 0x41DF JUMPI PUSH2 0x41DE PUSH2 0x4352 JUMP JUMPDEST JUMPDEST DUP3 DUP3 SUB SWAP1 POP SWAP3 SWAP2 POP POP JUMP JUMPDEST PUSH1 0x0 PUSH2 0x41F5 DUP3 PUSH2 0x421B JUMP JUMPDEST SWAP1 POP SWAP2 SWAP1 POP JUMP JUMPDEST PUSH1 0x0 DUP2 ISZERO ISZERO SWAP1 POP SWAP2 SWAP1 POP JUMP JUMPDEST PUSH1 0x0 DUP2 SWAP1 POP PUSH2 0x4216 DUP3 PUSH2 0x497E JUMP JUMPDEST SWAP2 SWAP1 POP JUMP JUMPDEST PUSH1 0x0 PUSH20 0xFFFFFFFFFFFFFFFFFFFFFFFFFFFFFFFFFFFFFFFF DUP3 AND SWAP1 POP SWAP2 SWAP1 POP JUMP JUMPDEST PUSH1 0x0 DUP2 SWAP1 POP SWAP2 SWAP1 POP JUMP JUMPDEST PUSH1 0x0 PUSH1 0xFF DUP3 AND SWAP1 POP SWAP2 SWAP1 POP JUMP JUMPDEST PUSH1 0x0 PUSH2 0x425D DUP3 PUSH2 0x4208 JUMP JUMPDEST SWAP1 POP SWAP2 SWAP1 POP JUMP JUMPDEST DUP3 DUP2 DUP4 CALLDATACOPY PUSH1 0x0 DUP4 DUP4 ADD MSTORE POP POP POP JUMP JUMPDEST PUSH1 0x0 JUMPDEST DUP4 DUP2 LT ISZERO PUSH2 0x4291 JUMPI DUP1 DUP3 ADD MLOAD DUP2 DUP5 ADD MSTORE PUSH1 0x20 DUP2 ADD SWAP1 POP PUSH2 0x4276 JUMP JUMPDEST DUP4 DUP2 GT ISZERO PUSH2 0x42A0 JUMPI PUSH1 0x0 DUP5 DUP5 ADD MSTORE JUMPDEST POP POP POP POP JUMP JUMPDEST PUSH1 0x0 PUSH1 0x2 DUP3 DIV SWAP1 POP PUSH1 0x1 DUP3 AND DUP1 PUSH2 0x42BE JUMPI PUSH1 0x7F DUP3 AND SWAP2 POP JUMPDEST PUSH1 0x20 DUP3 LT DUP2 EQ ISZERO PUSH2 0x42D2 JUMPI PUSH2 0x42D1 PUSH2 0x43B0 JUMP JUMPDEST JUMPDEST POP SWAP2 SWAP1 POP JUMP JUMPDEST PUSH2 0x42E1 DUP3 PUSH2 0x4451 JUMP JUMPDEST DUP2 ADD DUP2 DUP2 LT PUSH8 0xFFFFFFFFFFFFFFFF DUP3 GT OR ISZERO PUSH2 0x4300 JUMPI PUSH2 0x42FF PUSH2 0x440E JUMP JUMPDEST JUMPDEST DUP1 PUSH1 0x40 MSTORE POP POP POP JUMP JUMPDEST PUSH1 0x0 PUSH2 0x4314 DUP3 PUSH2 0x423B JUMP JUMPDEST SWAP2 POP PUSH32 0xFFFFFFFFFFFFFFFFFFFFFFFFFFFFFFFFFFFFFFFFFFFFFFFFFFFFFFFFFFFFFFFF DUP3 EQ ISZERO PUSH2 0x4347 JUMPI PUSH2 0x4346 PUSH2 0x4352 JUMP JUMPDEST JUMPDEST PUSH1 0x1 DUP3 ADD SWAP1 POP SWAP2 SWAP1 POP JUMP JUMPDEST PUSH32 0x4E487B7100000000000000000000000000000000000000000000000000000000 PUSH1 0x0 MSTORE PUSH1 0x11 PUSH1 0x4 MSTORE PUSH1 0x24 PUSH1 0x0 REVERT JUMPDEST PUSH32 0x4E487B7100000000000000000000000000000000000000000000000000000000 PUSH1 0x0 MSTORE PUSH1 0x21 PUSH1 0x4 MSTORE PUSH1 0x24 PUSH1 0x0 REVERT JUMPDEST PUSH32 0x4E487B7100000000000000000000000000000000000000000000000000000000 PUSH1 0x0 MSTORE PUSH1 0x22 PUSH1 0x4 MSTORE PUSH1 0x24 PUSH1 0x0 REVERT JUMPDEST PUSH32 0x4E487B7100000000000000000000000000000000000000000000000000000000 PUSH1 0x0 MSTORE PUSH1 0x32 PUSH1 0x4 MSTORE PUSH1 0x24 PUSH1 0x0 REVERT JUMPDEST PUSH32 0x4E487B7100000000000000000000000000000000000000000000000000000000 PUSH1 0x0 MSTORE PUSH1 0x41 PUSH1 0x4 MSTORE PUSH1 0x24 PUSH1 0x0 REVERT JUMPDEST PUSH1 0x0 DUP1 REVERT JUMPDEST PUSH1 0x0 DUP1 REVERT JUMPDEST PUSH1 0x0 DUP1 REVERT JUMPDEST PUSH1 0x0 DUP1 REVERT JUMPDEST PUSH1 0x0 PUSH1 0x1F NOT PUSH1 0x1F DUP4 ADD AND SWAP1 POP SWAP2 SWAP1 POP JUMP JUMPDEST PUSH32 0x43686172697479206E6F7420666F756E64000000000000000000000000000000 PUSH1 0x0 DUP3 ADD MSTORE POP JUMP JUMPDEST PUSH32 0x4E6F2070726F6A6563747320617661696C61626C6520666F7220616363657074 PUSH1 0x0 DUP3 ADD MSTORE PUSH32 0x696E6720646F6E6174696F6E7300000000000000000000000000000000000000 PUSH1 0x20 DUP3 ADD MSTORE POP JUMP JUMPDEST PUSH32 0x4E6F207375636820646F6E6F7220657869737420756E64657220746869732070 PUSH1 0x0 DUP3 ADD MSTORE PUSH32 0x726F6A65637420756E6465722074686973206368617269747900000000000000 PUSH1 0x20 DUP3 ADD MSTORE POP JUMP JUMPDEST PUSH32 0x596F757220636F6E747269627574696F6E206578636565647320726571756972 PUSH1 0x0 DUP3 ADD MSTORE PUSH32 0x656420616D6F756E742E00000000000000000000000000000000000000000000 PUSH1 0x20 DUP3 ADD MSTORE POP JUMP JUMPDEST PUSH32 0x4E6F2070726F6A6563747320666F756E6420756E646572207468697320636861 PUSH1 0x0 DUP3 ADD MSTORE PUSH32 0x7269747900000000000000000000000000000000000000000000000000000000 PUSH1 0x20 DUP3 ADD MSTORE POP JUMP JUMPDEST PUSH32 0x4E6F206368617269747920657869737420756E64657220746869732063686172 PUSH1 0x0 DUP3 ADD MSTORE PUSH32 0x6974792069640000000000000000000000000000000000000000000000000000 PUSH1 0x20 DUP3 ADD MSTORE POP JUMP JUMPDEST PUSH32 0x596F7520686176656E277420636F6E747269627574656420666F722074686973 PUSH1 0x0 DUP3 ADD MSTORE PUSH32 0x2070726F6A656374000000000000000000000000000000000000000000000000 PUSH1 0x20 DUP3 ADD MSTORE POP JUMP JUMPDEST PUSH32 0x53686F756C642062652067726561746572207468616E206F7220657175616C20 PUSH1 0x0 DUP3 ADD MSTORE PUSH32 0x746F206D696E696D756D20616D6F756E74000000000000000000000000000000 PUSH1 0x20 DUP3 ADD MSTORE POP JUMP JUMPDEST PUSH32 0x43616E277420726566756E642061732065786368616E67652072657175657374 PUSH1 0x0 DUP3 ADD MSTORE PUSH32 0x2077617320616C726561647920696E69746961746564207769746820626F6172 PUSH1 0x20 DUP3 ADD MSTORE PUSH32 0x6400000000000000000000000000000000000000000000000000000000000000 PUSH1 0x40 DUP3 ADD MSTORE POP JUMP JUMPDEST PUSH32 0x4E6F2070726F6A65637420697320637265617465642079657400000000000000 PUSH1 0x0 DUP3 ADD MSTORE POP JUMP JUMPDEST PUSH32 0x43616E277420726566756E642061732065786368616E67652072657175657374 PUSH1 0x0 DUP3 ADD MSTORE PUSH32 0x20776173206E6F742072656A65637465642062792074686520626F6172640000 PUSH1 0x20 DUP3 ADD MSTORE POP JUMP JUMPDEST PUSH32 0x4E6F2070726F6A65637420657869737420756E64657220746869732070726F6A PUSH1 0x0 DUP3 ADD MSTORE PUSH32 0x6563742069640000000000000000000000000000000000000000000000000000 PUSH1 0x20 DUP3 ADD MSTORE POP JUMP JUMPDEST PUSH32 0x4E6F2070726F6A65637420657869737420756E64657220746869732063686172 PUSH1 0x0 DUP3 ADD MSTORE PUSH32 0x6974790000000000000000000000000000000000000000000000000000000000 PUSH1 0x20 DUP3 ADD MSTORE POP JUMP JUMPDEST PUSH32 0x4E6F2070726F6A65637420657869737420756E64657220746869732070726F6A PUSH1 0x0 DUP3 ADD MSTORE PUSH32 0x6563744964000000000000000000000000000000000000000000000000000000 PUSH1 0x20 DUP3 ADD MSTORE POP JUMP JUMPDEST PUSH32 0x4E6F20737563682070726F6A65637420657869737420756E6465722074686973 PUSH1 0x0 DUP3 ADD MSTORE PUSH32 0x2063686172697479000000000000000000000000000000000000000000000000 PUSH1 0x20 DUP3 ADD MSTORE POP JUMP JUMPDEST PUSH32 0x546869732063686172697479206973206E6F742079657420617070726F766564 PUSH1 0x0 DUP3 ADD MSTORE POP JUMP JUMPDEST PUSH32 0x4E6F206368617269747920697320726567697374657265642079657400000000 PUSH1 0x0 DUP3 ADD MSTORE POP JUMP JUMPDEST PUSH32 0x4E6F206D6F726520646F6E6174696F6E7320616363657074656420666F722074 PUSH1 0x0 DUP3 ADD MSTORE PUSH32 0x6869732070726F6A6563742E0000000000000000000000000000000000000000 PUSH1 0x20 DUP3 ADD MSTORE POP JUMP JUMPDEST PUSH1 0xA DUP2 LT PUSH2 0x498F JUMPI PUSH2 0x498E PUSH2 0x4381 JUMP JUMPDEST JUMPDEST POP JUMP JUMPDEST PUSH2 0x499B DUP2 PUSH2 0x41EA JUMP JUMPDEST DUP2 EQ PUSH2 0x49A6 JUMPI PUSH1 0x0 DUP1 REVERT JUMPDEST POP JUMP JUMPDEST PUSH2 0x49B2 DUP2 PUSH2 0x41FC JUMP JUMPDEST DUP2 EQ PUSH2 0x49BD JUMPI PUSH1 0x0 DUP1 REVERT JUMPDEST POP JUMP JUMPDEST PUSH1 0xA DUP2 LT PUSH2 0x49CD JUMPI PUSH1 0x0 DUP1 REVERT JUMPDEST POP JUMP JUMPDEST PUSH2 0x49D9 DUP2 PUSH2 0x423B JUMP JUMPDEST DUP2 EQ PUSH2 0x49E4 JUMPI PUSH1 0x0 DUP1 REVERT JUMPDEST POP JUMP JUMPDEST PUSH2 0x49F0 DUP2 PUSH2 0x4245 JUMP JUMPDEST DUP2 EQ PUSH2 0x49FB JUMPI PUSH1 0x0 DUP1 REVERT JUMPDEST POP JUMP INVALID SLOAD PUSH9 0x6973206F7065726174 PUSH10 0x6F6E2063616E20626520 PUSH17 0x6572666F726D6564206F6E6C7920627920 TIMESTAMP PUSH16 0x6172642061646D696E596F7520617265 KECCAK256 PUSH15 0x6F7420617574686F72697A65642074 PUSH16 0x20757064617465207769746820746869 PUSH20 0x2073746174757354686973206F7065726174696F PUSH15 0x2063616E20626520706572666F726D PUSH6 0x64206F6E6C79 KECCAK256 PUSH3 0x792043 PUSH9 0x6172697479A2646970 PUSH7 0x73582212202F04 PUSH16 0xB7037B8E69E95199C1964EB040B5E45F 0x23 0xC8 0xEE 0xC5 0xD1 0xC8 CALLDATACOPY SHL LOG4 SLOAD 0xED AND EXTCODESIZE PUSH5 0x736F6C6343 STOP ADDMOD SMOD STOP CALLER "
		},
		"gasEstimates": {
			"creation": {
				"codeDepositCost": "3828600",
				"executionCost": "infinite",
				"totalCost": "infinite"
			},
			"external": {
				"boardAdmin()": "2603",
				"charities(uint256)": "infinite",
				"createCharity(uint256,string,address)": "infinite",
				"createProject(uint256,uint256,uint256,uint256,address,string)": "infinite",
				"donate(uint256,uint256,uint256,uint256)": "infinite",
				"getDonorBalance(uint256,uint256,uint256)": "infinite",
				"getProjectFundDetails(uint256,uint256)": "infinite",
				"getProjectListByCharity(uint256)": "infinite",
				"getProjectOwnerBalance(uint256,uint256)": "infinite",
				"getProjectStatus(uint256,uint256)": "infinite",
				"getRefund(uint256,uint256)": "infinite",
				"projectStatus()": "2650",
				"projectStatuses(uint8)": "infinite",
				"projects(uint256)": "infinite",
				"updateCharityStatus(uint256,bool,string)": "infinite",
				"updateProjectStatusByAdmin(uint256,uint256,uint8)": "infinite",
				"updateProjectStatusByCharity(uint256,uint256,uint8)": "infinite"
			},
			"internal": {
				"refundToAllDonors(uint256,uint256)": "infinite",
				"tranferToReceiver(uint256,uint256)": "infinite"
			}
		},
		"methodIdentifiers": {
			"boardAdmin()": "b61a7f76",
			"charities(uint256)": "fb709d2e",
			"createCharity(uint256,string,address)": "141020cc",
			"createProject(uint256,uint256,uint256,uint256,address,string)": "b9d093bf",
			"donate(uint256,uint256,uint256,uint256)": "e8620d14",
			"getDonorBalance(uint256,uint256,uint256)": "cfc3d434",
			"getProjectFundDetails(uint256,uint256)": "1ed056d8",
			"getProjectListByCharity(uint256)": "a0fd6622",
			"getProjectOwnerBalance(uint256,uint256)": "17f308b5",
			"getProjectStatus(uint256,uint256)": "9d8e7e89",
			"getRefund(uint256,uint256)": "85fa74bc",
			"projectStatus()": "1ab33308",
			"projectStatuses(uint8)": "ef6add32",
			"projects(uint256)": "107046bd",
			"updateCharityStatus(uint256,bool,string)": "ace1bcf8",
			"updateProjectStatusByAdmin(uint256,uint256,uint8)": "5ea34326",
			"updateProjectStatusByCharity(uint256,uint256,uint8)": "85a93223"
		}
	},
	"abi": [
		{
			"inputs": [],
			"stateMutability": "nonpayable",
			"type": "constructor"
		},
		{
			"anonymous": false,
			"inputs": [
				{
					"indexed": false,
					"internalType": "uint256",
					"name": "charityId",
					"type": "uint256"
				},
				{
					"indexed": false,
					"internalType": "uint256",
					"name": "projectId",
					"type": "uint256"
				},
				{
					"indexed": false,
					"internalType": "enum CrowdFund.ProjectStatus",
					"name": "projectStatus",
					"type": "uint8"
				}
			],
			"name": "BoardMessageToCharity",
			"type": "event"
		},
		{
			"anonymous": false,
			"inputs": [
				{
					"indexed": false,
					"internalType": "uint256",
					"name": "charityId",
					"type": "uint256"
				},
				{
					"indexed": false,
					"internalType": "uint256",
					"name": "projectId",
					"type": "uint256"
				},
				{
					"indexed": false,
					"internalType": "enum CrowdFund.ProjectStatus",
					"name": "projectStatus",
					"type": "uint8"
				}
			],
			"name": "CharityMessageToBoard",
			"type": "event"
		},
		{
			"anonymous": false,
			"inputs": [
				{
					"indexed": false,
					"internalType": "uint256",
					"name": "charityId",
					"type": "uint256"
				},
				{
					"indexed": false,
					"internalType": "uint256",
					"name": "projectId",
					"type": "uint256"
				},
				{
					"indexed": false,
					"internalType": "enum CrowdFund.ProjectStatus",
					"name": "projectStatus",
					"type": "uint8"
				}
			],
			"name": "CharityMessageToDonor",
			"type": "event"
		},
		{
			"anonymous": false,
			"inputs": [
				{
					"indexed": false,
					"internalType": "uint256",
					"name": "charityId",
					"type": "uint256"
				},
				{
					"indexed": false,
					"internalType": "uint256",
					"name": "projectId",
					"type": "uint256"
				},
				{
					"indexed": false,
					"internalType": "enum CrowdFund.ProjectStatus",
					"name": "projectStatus",
					"type": "uint8"
				}
			],
			"name": "CharityMessageToReceiver",
			"type": "event"
		},
		{
			"anonymous": false,
			"inputs": [
				{
					"indexed": false,
					"internalType": "uint256",
					"name": "charityId",
					"type": "uint256"
				},
				{
					"indexed": false,
					"internalType": "uint256",
					"name": "projectId",
					"type": "uint256"
				},
				{
					"indexed": false,
					"internalType": "enum CrowdFund.ProjectStatus",
					"name": "projectStatus",
					"type": "uint8"
				}
			],
			"name": "ReceiverMessageToCharity",
			"type": "event"
		},
		{
			"inputs": [],
			"name": "boardAdmin",
			"outputs": [
				{
					"internalType": "address",
					"name": "",
					"type": "address"
				}
			],
			"stateMutability": "view",
			"type": "function"
		},
		{
			"inputs": [
				{
					"internalType": "uint256",
					"name": "",
					"type": "uint256"
				}
			],
			"name": "charities",
			"outputs": [
				{
					"internalType": "uint256",
					"name": "charityId",
					"type": "uint256"
				},
				{
					"internalType": "bool",
					"name": "approved",
					"type": "bool"
				},
				{
					"internalType": "string",
					"name": "reason",
					"type": "string"
				},
				{
					"internalType": "string",
					"name": "licenseDocsLink",
					"type": "string"
				},
				{
					"internalType": "address",
					"name": "owner",
					"type": "address"
				}
			],
			"stateMutability": "view",
			"type": "function"
		},
		{
			"inputs": [
				{
					"internalType": "uint256",
					"name": "_charityId",
					"type": "uint256"
				},
				{
					"internalType": "string",
					"name": "_licenseDocsLink",
					"type": "string"
				},
				{
					"internalType": "address",
					"name": "charity",
					"type": "address"
				}
			],
			"name": "createCharity",
			"outputs": [],
			"stateMutability": "nonpayable",
			"type": "function"
		},
		{
			"inputs": [
				{
					"internalType": "uint256",
					"name": "charityId",
					"type": "uint256"
				},
				{
					"internalType": "uint256",
					"name": "_projectId",
					"type": "uint256"
				},
				{
					"internalType": "uint256",
					"name": "_minimumAmount",
					"type": "uint256"
				},
				{
					"internalType": "uint256",
					"name": "_goal",
					"type": "uint256"
				},
				{
					"internalType": "address",
					"name": "owner",
					"type": "address"
				},
				{
					"internalType": "string",
					"name": "_documentLink",
					"type": "string"
				}
			],
			"name": "createProject",
			"outputs": [],
			"stateMutability": "nonpayable",
			"type": "function"
		},
		{
			"inputs": [
				{
					"internalType": "uint256",
					"name": "charityId",
					"type": "uint256"
				},
				{
					"internalType": "uint256",
					"name": "projectId",
					"type": "uint256"
				},
				{
					"internalType": "uint256",
					"name": "donorId",
					"type": "uint256"
				},
				{
					"internalType": "uint256",
					"name": "amount",
					"type": "uint256"
				}
			],
			"name": "donate",
			"outputs": [],
			"stateMutability": "payable",
			"type": "function"
		},
		{
			"inputs": [
				{
					"internalType": "uint256",
					"name": "charityId",
					"type": "uint256"
				},
				{
					"internalType": "uint256",
					"name": "projectId",
					"type": "uint256"
				},
				{
					"internalType": "uint256",
					"name": "donorId",
					"type": "uint256"
				}
			],
			"name": "getDonorBalance",
			"outputs": [
				{
					"internalType": "uint256",
					"name": "",
					"type": "uint256"
				}
			],
			"stateMutability": "view",
			"type": "function"
		},
		{
			"inputs": [
				{
					"internalType": "uint256",
					"name": "charityId",
					"type": "uint256"
				},
				{
					"internalType": "uint256",
					"name": "projectId",
					"type": "uint256"
				}
			],
			"name": "getProjectFundDetails",
			"outputs": [
				{
					"internalType": "uint256",
					"name": "",
					"type": "uint256"
				},
				{
					"internalType": "uint256",
					"name": "",
					"type": "uint256"
				},
				{
					"internalType": "uint256",
					"name": "",
					"type": "uint256"
				}
			],
			"stateMutability": "view",
			"type": "function"
		},
		{
			"inputs": [
				{
					"internalType": "uint256",
					"name": "charityId",
					"type": "uint256"
				}
			],
			"name": "getProjectListByCharity",
			"outputs": [
				{
					"internalType": "uint256[]",
					"name": "_projectIds",
					"type": "uint256[]"
				},
				{
					"internalType": "uint256[]",
					"name": "_minimumAmounts",
					"type": "uint256[]"
				},
				{
					"internalType": "uint256[]",
					"name": "_goals",
					"type": "uint256[]"
				},
				{
					"internalType": "uint256[]",
					"name": "_raisedAmounts",
					"type": "uint256[]"
				}
			],
			"stateMutability": "view",
			"type": "function"
		},
		{
			"inputs": [
				{
					"internalType": "uint256",
					"name": "charityId",
					"type": "uint256"
				},
				{
					"internalType": "uint256",
					"name": "projectId",
					"type": "uint256"
				}
			],
			"name": "getProjectOwnerBalance",
			"outputs": [
				{
					"internalType": "uint256",
					"name": "",
					"type": "uint256"
				}
			],
			"stateMutability": "view",
			"type": "function"
		},
		{
			"inputs": [
				{
					"internalType": "uint256",
					"name": "charityId",
					"type": "uint256"
				},
				{
					"internalType": "uint256",
					"name": "projectId",
					"type": "uint256"
				}
			],
			"name": "getProjectStatus",
			"outputs": [
				{
					"internalType": "string",
					"name": "",
					"type": "string"
				}
			],
			"stateMutability": "view",
			"type": "function"
		},
		{
			"inputs": [
				{
					"internalType": "uint256",
					"name": "charityId",
					"type": "uint256"
				},
				{
					"internalType": "uint256",
					"name": "projectId",
					"type": "uint256"
				}
			],
			"name": "getRefund",
			"outputs": [],
			"stateMutability": "nonpayable",
			"type": "function"
		},
		{
			"inputs": [],
			"name": "projectStatus",
			"outputs": [
				{
					"internalType": "enum CrowdFund.ProjectStatus",
					"name": "",
					"type": "uint8"
				}
			],
			"stateMutability": "view",
			"type": "function"
		},
		{
			"inputs": [
				{
					"internalType": "enum CrowdFund.ProjectStatus",
					"name": "",
					"type": "uint8"
				}
			],
			"name": "projectStatuses",
			"outputs": [
				{
					"internalType": "string",
					"name": "",
					"type": "string"
				}
			],
			"stateMutability": "view",
			"type": "function"
		},
		{
			"inputs": [
				{
					"internalType": "uint256",
					"name": "",
					"type": "uint256"
				}
			],
			"name": "projects",
			"outputs": [
				{
					"internalType": "uint256",
					"name": "projectId",
					"type": "uint256"
				},
				{
					"internalType": "uint256",
					"name": "minimumAmount",
					"type": "uint256"
				},
				{
					"internalType": "uint256",
					"name": "goal",
					"type": "uint256"
				},
				{
					"internalType": "uint256",
					"name": "raisedAmount",
					"type": "uint256"
				},
				{
					"internalType": "address",
					"name": "owner",
					"type": "address"
				},
				{
					"internalType": "bool",
					"name": "acceptDonation",
					"type": "bool"
				},
				{
					"internalType": "string",
					"name": "documentLink",
					"type": "string"
				},
				{
					"internalType": "enum CrowdFund.ProjectStatus",
					"name": "projectStatus",
					"type": "uint8"
				}
			],
			"stateMutability": "view",
			"type": "function"
		},
		{
			"inputs": [
				{
					"internalType": "uint256",
					"name": "charityId",
					"type": "uint256"
				},
				{
					"internalType": "bool",
					"name": "status",
					"type": "bool"
				},
				{
					"internalType": "string",
					"name": "reason",
					"type": "string"
				}
			],
			"name": "updateCharityStatus",
			"outputs": [],
			"stateMutability": "nonpayable",
			"type": "function"
		},
		{
			"inputs": [
				{
					"internalType": "uint256",
					"name": "projectId",
					"type": "uint256"
				},
				{
					"internalType": "uint256",
					"name": "charityId",
					"type": "uint256"
				},
				{
					"internalType": "uint8",
					"name": "enumValue",
					"type": "uint8"
				}
			],
			"name": "updateProjectStatusByAdmin",
			"outputs": [],
			"stateMutability": "nonpayable",
			"type": "function"
		},
		{
			"inputs": [
				{
					"internalType": "uint256",
					"name": "projectId",
					"type": "uint256"
				},
				{
					"internalType": "uint256",
					"name": "charityId",
					"type": "uint256"
				},
				{
					"internalType": "uint8",
					"name": "enumValue",
					"type": "uint8"
				}
			],
			"name": "updateProjectStatusByCharity",
			"outputs": [],
			"stateMutability": "nonpayable",
			"type": "function"
		}
	]
}