{
	"data": {
		"bytecode": {
			"linkReferences": {},
			"object": "60806040523480156200001157600080fd5b5033600260006101000a81548173ffffffffffffffffffffffffffffffffffffffff021916908373ffffffffffffffffffffffffffffffffffffffff1602179055506040518060400160405280601481526020017f57616974696e6720666f7220617070726f76616c00000000000000000000000081525060076000806009811115620000a357620000a2620006a1565b5b6009811115620000b857620000b7620006a1565b5b81526020019081526020016000209080519060200190620000db929190620005bb565b506040518060400160405280600881526020017f417070726f76656400000000000000000000000000000000000000000000000081525060076000600260098111156200012d576200012c620006a1565b5b6009811115620001425762000141620006a1565b5b8152602001908152602001600020908051906020019062000165929190620005bb565b506040518060400160405280601381526020017f52656a65637465642062792063686172697479000000000000000000000000008152506007600060016009811115620001b757620001b6620006a1565b5b6009811115620001cc57620001cb620006a1565b5b81526020019081526020016000209080519060200190620001ef929190620005bb565b506040518060400160405280601581526020017f50726f6a65637420676f616c20616368696576656400000000000000000000008152506007600060036009811115620002415762000240620006a1565b5b6009811115620002565762000255620006a1565b5b8152602001908152602001600020908051906020019062000279929190620005bb565b506040518060400160405280601281526020017f45786368616e67652072657175657374656400000000000000000000000000008152506007600060046009811115620002cb57620002ca620006a1565b5b6009811115620002e057620002df620006a1565b5b8152602001908152602001600020908051906020019062000303929190620005bb565b506040518060400160405280601981526020017f45786368616e67652072657175657374207265636569766564000000000000008152506007600060056009811115620003555762000354620006a1565b5b60098111156200036a5762000369620006a1565b5b815260200190815260200160002090805190602001906200038d929190620005bb565b506040518060400160405280601981526020017f45786368616e6765207265717565737420617070726f766564000000000000008152506007600060066009811115620003df57620003de620006a1565b5b6009811115620003f457620003f3620006a1565b5b8152602001908152602001600020908051906020019062000417929190620005bb565b506040518060400160405280601981526020017f45786368616e676520726571756573742072656a6563746564000000000000008152506007600060076009811115620004695762000468620006a1565b5b60098111156200047e576200047d620006a1565b5b81526020019081526020016000209080519060200190620004a1929190620005bb565b506040518060400160405280600e81526020017f46756e647320726566756e6465640000000000000000000000000000000000008152506007600060086009811115620004f357620004f2620006a1565b5b6009811115620005085762000507620006a1565b5b815260200190815260200160002090805190602001906200052b929190620005bb565b506040518060400160405280600e81526020017f50726f6a65637420636c6f736564000000000000000000000000000000000000815250600760006009808111156200057c576200057b620006a1565b5b6009811115620005915762000590620006a1565b5b81526020019081526020016000209080519060200190620005b4929190620005bb565b50620006ff565b828054620005c9906200066b565b90600052602060002090601f016020900481019282620005ed576000855562000639565b82601f106200060857805160ff191683800117855562000639565b8280016001018555821562000639579182015b82811115620006385782518255916020019190600101906200061b565b5b5090506200064891906200064c565b5090565b5b80821115620006675760008160009055506001016200064d565b5090565b600060028204905060018216806200068457607f821691505b602082108114156200069b576200069a620006d0565b5b50919050565b7f4e487b7100000000000000000000000000000000000000000000000000000000600052602160045260246000fd5b7f4e487b7100000000000000000000000000000000000000000000000000000000600052602260045260246000fd5b6135af806200070f6000396000f3fe6080604052600436106100e85760003560e01c806397ed410c1161008a578063daf3823211610059578063daf38232146102f9578063ef6add3214610322578063ef88f48b1461035f578063fb709d2e1461037b576100e8565b806397ed410c1461023f5780639d8e7e8914610268578063a6dbec73146102a5578063b61a7f76146102ce576100e8565b80631ed056d8116100c65780631ed056d8146101855780632c3730ef146101c45780633a8565f0146101ed57806395dcc36614610216576100e8565b8063107046bd146100ed578063141020cc146101315780631ab333081461015a575b600080fd5b3480156100f957600080fd5b50610114600480360381019061010f919061269f565b6103bc565b604051610128989796959493929190612d91565b60405180910390f35b34801561013d57600080fd5b5061015860048036038101906101539190612728565b6104d6565b005b34801561016657600080fd5b5061016f6106e0565b60405161017c9190612b25565b60405180910390f35b34801561019157600080fd5b506101ac60048036038101906101a79190612797565b6106f3565b6040516101bb93929190612d5a565b60405180910390f35b3480156101d057600080fd5b506101eb60048036038101906101e691906128c1565b610891565b005b3480156101f957600080fd5b50610214600480360381019061020f91906128c1565b610d26565b005b34801561022257600080fd5b5061023d6004803603810190610238919061282a565b6112e3565b005b34801561024b57600080fd5b5061026660048036038101906102619190612797565b61168b565b005b34801561027457600080fd5b5061028f600480360381019061028a9190612797565b6117ab565b60405161029c9190612b40565b60405180910390f35b3480156102b157600080fd5b506102cc60048036038101906102c791906127d7565b611995565b005b3480156102da57600080fd5b506102e3611d4a565b6040516102f09190612b0a565b60405180910390f35b34801561030557600080fd5b50610320600480360381019061031b91906126cc565b611d70565b005b34801561032e57600080fd5b5061034960048036038101906103449190612672565b611e7d565b6040516103569190612b40565b60405180910390f35b610379600480360381019061037491906127d7565b611f1d565b005b34801561038757600080fd5b506103a2600480360381019061039d919061269f565b612388565b6040516103b3959493929190612cc2565b60405180910390f35b600081815481106103cc57600080fd5b90600052602060002090600702016000915090508060000154908060010154908060020154908060030154908060040160009054906101000a900473ffffffffffffffffffffffffffffffffffffffff16908060040160149054906101000a900460ff169080600501805461044090612fce565b80601f016020809104026020016040519081016040528092919081815260200182805461046c90612fce565b80156104b95780601f1061048e576101008083540402835291602001916104b9565b820191906000526020600020905b81548152906001019060200180831161049c57829003601f168201915b5050505050908060060160009054906101000a900460ff16905088565b600260009054906101000a900473ffffffffffffffffffffffffffffffffffffffff1673ffffffffffffffffffffffffffffffffffffffff163373ffffffffffffffffffffffffffffffffffffffff16146040518060600160405280603381526020016134e76033913990610581576040517f08c379a00000000000000000000000000000000000000000000000000000000081526004016105789190612b40565b60405180910390fd5b5060006040518060a001604052808581526020016001151581526020016040518060200160405280600081525081526020018481526020018373ffffffffffffffffffffffffffffffffffffffff16815250905060018190806001815401808255809150506001900390600052602060002090600502016000909190919091506000820151816000015560208201518160010160006101000a81548160ff021916908315150217905550604082015181600201908051906020019061064792919061250b565b50606082015181600301908051906020019061066492919061250b565b5060808201518160040160006101000a81548173ffffffffffffffffffffffffffffffffffffffff021916908373ffffffffffffffffffffffffffffffffffffffff160217905550505060016005600086815260200190815260200160002060006101000a81548160ff02191690831515021790555050505050565b600660009054906101000a900460ff1681565b6000806000806004600087815260200190815260200160002090506000818054905011610755576040517f08c379a000000000000000000000000000000000000000000000000000000000815260040161074c90612c42565b60405180910390fd5b60005b818054905081101561084e578582828154811061077857610777613107565b5b906000526020600020906007020160000154141561083b578181815481106107a3576107a2613107565b5b9060005260206000209060070201600201548282815481106107c8576107c7613107565b5b9060005260206000209060070201600301548383815481106107ed576107ec613107565b5b90600052602060002090600702016003015484848154811061081257610811613107565b5b90600052602060002090600702016002015461082e9190612ede565b945094509450505061088a565b808061084690613031565b915050610758565b506040517f08c379a000000000000000000000000000000000000000000000000000000000815260040161088190612c82565b60405180910390fd5b9250925092565b600260009054906101000a900473ffffffffffffffffffffffffffffffffffffffff1673ffffffffffffffffffffffffffffffffffffffff163373ffffffffffffffffffffffffffffffffffffffff16146040518060600160405280603381526020016134e7603391399061093c576040517f08c379a00000000000000000000000000000000000000000000000000000000081526004016109339190612b40565b60405180910390fd5b5060006009811115610951576109506130a9565b5b8160ff166009811115610967576109666130a9565b5b6009811115610979576109786130a9565b5b141560405180606001604052806031815260200161351a60319139906109d5576040517f08c379a00000000000000000000000000000000000000000000000000000000081526004016109cc9190612b40565b60405180910390fd5b50600260098111156109ea576109e96130a9565b5b8160ff166009811115610a00576109ff6130a9565b5b6009811115610a1257610a116130a9565b5b141560405180606001604052806031815260200161351a6031913990610a6e576040517f08c379a0000000000000000000000000000000000000000000000000000000008152600401610a659190612b40565b60405180910390fd5b5060036009811115610a8357610a826130a9565b5b8160ff166009811115610a9957610a986130a9565b5b6009811115610aab57610aaa6130a9565b5b141560405180606001604052806031815260200161351a6031913990610b07576040517f08c379a0000000000000000000000000000000000000000000000000000000008152600401610afe9190612b40565b60405180910390fd5b5060046009811115610b1c57610b1b6130a9565b5b8160ff166009811115610b3257610b316130a9565b5b6009811115610b4457610b436130a9565b5b141560405180606001604052806031815260200161351a6031913990610ba0576040517f08c379a0000000000000000000000000000000000000000000000000000000008152600401610b979190612b40565b60405180910390fd5b5060006004600084815260200190815260200160002090506000818054905011610bff576040517f08c379a0000000000000000000000000000000000000000000000000000000008152600401610bf690612c22565b60405180910390fd5b60005b8180549050811015610d1f5784828281548110610c2257610c21613107565b5b9060005260206000209060070201600001541415610d0c578260ff166009811115610c5057610c4f6130a9565b5b828281548110610c6357610c62613107565b5b906000526020600020906007020160060160006101000a81548160ff02191690836009811115610c9657610c956130a9565b5b02179055507f42b0281ef1ba120f08ae315789f8639d48731db33eaac502b629a775c997471b8486848481548110610cd157610cd0613107565b5b906000526020600020906007020160060160009054906101000a900460ff16604051610cff93929190612d23565b60405180910390a1610d1f565b8080610d1790613031565b915050610c02565b5050505050565b600260009054906101000a900473ffffffffffffffffffffffffffffffffffffffff1673ffffffffffffffffffffffffffffffffffffffff163373ffffffffffffffffffffffffffffffffffffffff1614156040518060600160405280602f815260200161354b602f913990610dd2576040517f08c379a0000000000000000000000000000000000000000000000000000000008152600401610dc99190612b40565b60405180910390fd5b50600060036009811115610de957610de86130a9565b5b8260ff166009811115610dff57610dfe6130a9565b5b6009811115610e1157610e106130a9565b5b141560405180606001604052806031815260200161351a6031913990610e6d576040517f08c379a0000000000000000000000000000000000000000000000000000000008152600401610e649190612b40565b60405180910390fd5b5060056009811115610e8257610e816130a9565b5b8260ff166009811115610e9857610e976130a9565b5b6009811115610eaa57610ea96130a9565b5b141560405180606001604052806031815260200161351a6031913990610f06576040517f08c379a0000000000000000000000000000000000000000000000000000000008152600401610efd9190612b40565b60405180910390fd5b5060066009811115610f1b57610f1a6130a9565b5b8260ff166009811115610f3157610f306130a9565b5b6009811115610f4357610f426130a9565b5b141560405180606001604052806031815260200161351a6031913990610f9f576040517f08c379a0000000000000000000000000000000000000000000000000000000008152600401610f969190612b40565b60405180910390fd5b5060006004600085815260200190815260200160002090506000818054905011610ffe576040517f08c379a0000000000000000000000000000000000000000000000000000000008152600401610ff590612be2565b60405180910390fd5b60005b81805490508110156112db578582828154811061102157611020613107565b5b90600052602060002090600702016000015414156112bd5760019250600082828154811061105257611051613107565b5b906000526020600020906007020160040160146101000a81548160ff0219169083151502179055506007600981111561108e5761108d6130a9565b5b8460ff1660098111156110a4576110a36130a9565b5b60098111156110b6576110b56130a9565b5b14806110fb5750600660098111156110d1576110d06130a9565b5b8460ff1660098111156110e7576110e66130a9565b5b60098111156110f9576110f86130a9565b5b145b156111db577f2de098063448dbe8b26fa82794cd68cf748edb4f3e2cc43166e3ad659757019e85878660ff166009811115611139576111386130a9565b5b60405161114893929190612d23565b60405180910390a160076009811115611164576111636130a9565b5b8460ff16600981111561117a576111796130a9565b5b600981111561118c5761118b6130a9565b5b1415611197576111d6565b600660098111156111ab576111aa6130a9565b5b8460ff1660098111156111c1576111c06130a9565b5b60098111156111d3576111d26130a9565b5b50505b6112bc565b8360ff1660098111156111f1576111f06130a9565b5b82828154811061120457611203613107565b5b906000526020600020906007020160060160006101000a81548160ff02191690836009811115611237576112366130a9565b5b0217905550600460098111156112505761124f6130a9565b5b8460ff166009811115611266576112656130a9565b5b6009811115611278576112776130a9565b5b14156112bb577fd49fc9fa26fa9fc112efd004acb9eeabf80810373d2cbb1a7884d4d64e8e8d2b858760046040516112b293929190612d23565b60405180910390a15b5b5b82156112c8576112db565b80806112d390613031565b915050611001565b505050505050565b600260009054906101000a900473ffffffffffffffffffffffffffffffffffffffff1673ffffffffffffffffffffffffffffffffffffffff163373ffffffffffffffffffffffffffffffffffffffff1614156040518060600160405280602f815260200161354b602f91399061138f576040517f08c379a00000000000000000000000000000000000000000000000000000000081526004016113869190612b40565b60405180910390fd5b506005600086815260200190815260200160002060009054906101000a900460ff166113f0576040517f08c379a00000000000000000000000000000000000000000000000000000000081526004016113e790612c02565b60405180910390fd5b6000604051806101000160405280868152602001620f42408152602001858152602001600081526020018473ffffffffffffffffffffffffffffffffffffffff16815260200160011515815260200183815260200160026009811115611459576114586130a9565b5b815250905060008190806001815401808255809150506001900390600052602060002090600702016000909190919091506000820151816000015560208201518160010155604082015181600201556060820151816003015560808201518160040160006101000a81548173ffffffffffffffffffffffffffffffffffffffff021916908373ffffffffffffffffffffffffffffffffffffffff16021790555060a08201518160040160146101000a81548160ff02191690831515021790555060c082015181600501908051906020019061153592919061250b565b5060e08201518160060160006101000a81548160ff02191690836009811115611561576115606130a9565b5b02179055505050600460008781526020019081526020016000208190806001815401808255809150506001900390600052602060002090600702016000909190919091506000820151816000015560208201518160010155604082015181600201556060820151816003015560808201518160040160006101000a81548173ffffffffffffffffffffffffffffffffffffffff021916908373ffffffffffffffffffffffffffffffffffffffff16021790555060a08201518160040160146101000a81548160ff02191690831515021790555060c082015181600501908051906020019061165092919061250b565b5060e08201518160060160006101000a81548160ff0219169083600981111561167c5761167b6130a9565b5b02179055505050505050505050565b600260009054906101000a900473ffffffffffffffffffffffffffffffffffffffff1673ffffffffffffffffffffffffffffffffffffffff163373ffffffffffffffffffffffffffffffffffffffff16146040518060600160405280603381526020016134e76033913990611736576040517f08c379a000000000000000000000000000000000000000000000000000000000815260040161172d9190612b40565b60405180910390fd5b5060006001838154811061174d5761174c613107565b5b9060005260206000209060050201905060018160010160006101000a81548160ff02191690831515021790555060016005600084815260200190815260200160002060006101000a81548160ff021916908315150217905550505050565b60606000600460008581526020019081526020016000209050600081805490501161180b576040517f08c379a000000000000000000000000000000000000000000000000000000000815260040161180290612b62565b60405180910390fd5b60005b8180549050811015611953578382828154811061182e5761182d613107565b5b9060005260206000209060070201600001541415611940576007600083838154811061185d5761185c613107565b5b906000526020600020906007020160060160009054906101000a900460ff16600981111561188e5761188d6130a9565b5b60098111156118a05761189f6130a9565b5b815260200190815260200160002080546118b990612fce565b80601f01602080910402602001604051908101604052809291908181526020018280546118e590612fce565b80156119325780601f1061190757610100808354040283529160200191611932565b820191906000526020600020905b81548152906001019060200180831161191557829003601f168201915b50505050509250505061198f565b808061194b90613031565b91505061180e565b506040517f08c379a000000000000000000000000000000000000000000000000000000000815260040161198690612c82565b60405180910390fd5b92915050565b600060046000858152602001908152602001600020905060008180549050116119f3576040517f08c379a00000000000000000000000000000000000000000000000000000000081526004016119ea90612b62565b60405180910390fd5b60006003600084815260200190815260200160002090503373ffffffffffffffffffffffffffffffffffffffff168160010160009054906101000a900473ffffffffffffffffffffffffffffffffffffffff1673ffffffffffffffffffffffffffffffffffffffff16148015611a7e5750600081600201600086815260200190815260200160002054115b15611d085760005b8280549050811015611c8b5784838281548110611aa657611aa5613107565b5b9060005260206000209060070201600001541415611c3d5760036009811115611ad257611ad16130a9565b5b838281548110611ae557611ae4613107565b5b906000526020600020906007020160060160009054906101000a900460ff166009811115611b1657611b156130a9565b5b1115611b57576040517f08c379a0000000000000000000000000000000000000000000000000000000008152600401611b4e90612bc2565b60405180910390fd5b81600201600086815260200190815260200160002054838281548110611b8057611b7f613107565b5b906000526020600020906007020160030154611b9c9190612ede565b838281548110611baf57611bae613107565b5b906000526020600020906007020160030181905550828181548110611bd757611bd6613107565b5b906000526020600020906007020160040160149054906101000a900460ff16611c38576001838281548110611c0f57611c0e613107565b5b906000526020600020906007020160040160146101000a81548160ff0219169083151502179055505b611c78565b6040517f08c379a0000000000000000000000000000000000000000000000000000000008152600401611c6f90612c62565b60405180910390fd5b8080611c8390613031565b915050611a86565b503373ffffffffffffffffffffffffffffffffffffffff166108fc826002016000878152602001908152602001600020549081150290604051600060405180830381858888f19350505050158015611ce7573d6000803e3d6000fd5b50600081600201600086815260200190815260200160002081905550611d43565b6040517f08c379a0000000000000000000000000000000000000000000000000000000008152600401611d3a90612b82565b60405180910390fd5b5050505050565b600260009054906101000a900473ffffffffffffffffffffffffffffffffffffffff1681565b600260009054906101000a900473ffffffffffffffffffffffffffffffffffffffff1673ffffffffffffffffffffffffffffffffffffffff163373ffffffffffffffffffffffffffffffffffffffff16146040518060600160405280603381526020016134e76033913990611e1b576040517f08c379a0000000000000000000000000000000000000000000000000000000008152600401611e129190612b40565b60405180910390fd5b50600060018381548110611e3257611e31613107565b5b9060005260206000209060050201905060008160010160006101000a81548160ff02191690831515021790555081816002019080519060200190611e7792919061250b565b50505050565b60076020528060005260406000206000915090508054611e9c90612fce565b80601f0160208091040260200160405190810160405280929190818152602001828054611ec890612fce565b8015611f155780601f10611eea57610100808354040283529160200191611f15565b820191906000526020600020905b815481529060010190602001808311611ef857829003601f168201915b505050505081565b6000806004600086815260200190815260200160002090506000818054905011611f7c576040517f08c379a0000000000000000000000000000000000000000000000000000000008152600401611f7390612b62565b60405180910390fd5b60005b81805490508110156123405784828281548110611f9f57611f9e613107565b5b906000526020600020906007020160000154141561232d57818181548110611fca57611fc9613107565b5b906000526020600020906007020160040160149054906101000a900460ff16156122e95781818154811061200157612000613107565b5b906000526020600020906007020160010154341015612055576040517f08c379a000000000000000000000000000000000000000000000000000000000815260040161204c90612ba2565b60405180910390fd5b3482828154811061206957612068613107565b5b9060005260206000209060070201600301546120859190612e88565b82828154811061209857612097613107565b5b90600052602060002090600702016003018190555060006003600086815260200190815260200160002090503373ffffffffffffffffffffffffffffffffffffffff168160010160009054906101000a900473ffffffffffffffffffffffffffffffffffffffff1673ffffffffffffffffffffffffffffffffffffffff16141561214d573481600201600088815260200190815260200160002060008282546121419190612e88565b925050819055506121cc565b6000600360008781526020019081526020016000209050858160000181905550338160010160006101000a81548173ffffffffffffffffffffffffffffffffffffffff021916908373ffffffffffffffffffffffffffffffffffffffff1602179055503481600201600089815260200190815260200160002081905550505b8282815481106121df576121de613107565b5b90600052602060002090600702016002015483838154811061220457612203613107565b5b90600052602060002090600702016003015414156122e357600383838154811061223157612230613107565b5b906000526020600020906007020160060160006101000a81548160ff02191690836009811115612264576122636130a9565b5b0217905550600083838154811061227e5761227d613107565b5b906000526020600020906007020160040160146101000a81548160ff0219169083151502179055507f4460a3075d16e0c301975989c352adf5efef3f00e4b1cd798431dddda7179e58878760036040516122da93929190612d23565b60405180910390a15b50612324565b6040517f08c379a000000000000000000000000000000000000000000000000000000000815260040161231b90612ca2565b60405180910390fd5b60019250612340565b808061233890613031565b915050611f7f565b5081612381576040517f08c379a000000000000000000000000000000000000000000000000000000000815260040161237890612c82565b60405180910390fd5b5050505050565b6001818154811061239857600080fd5b90600052602060002090600502016000915090508060000154908060010160009054906101000a900460ff16908060020180546123d490612fce565b80601f016020809104026020016040519081016040528092919081815260200182805461240090612fce565b801561244d5780601f106124225761010080835404028352916020019161244d565b820191906000526020600020905b81548152906001019060200180831161243057829003601f168201915b50505050509080600301805461246290612fce565b80601f016020809104026020016040519081016040528092919081815260200182805461248e90612fce565b80156124db5780601f106124b0576101008083540402835291602001916124db565b820191906000526020600020905b8154815290600101906020018083116124be57829003601f168201915b5050505050908060040160009054906101000a900473ffffffffffffffffffffffffffffffffffffffff16905085565b82805461251790612fce565b90600052602060002090601f0160209004810192826125395760008555612580565b82601f1061255257805160ff1916838001178555612580565b82800160010185558215612580579182015b8281111561257f578251825591602001919060010190612564565b5b50905061258d9190612591565b5090565b5b808211156125aa576000816000905550600101612592565b5090565b60006125c16125bc84612e3b565b612e16565b9050828152602081018484840111156125dd576125dc61316a565b5b6125e8848285612f8c565b509392505050565b6000813590506125ff81613491565b92915050565b600081359050612614816134a8565b92915050565b600082601f83011261262f5761262e613165565b5b813561263f8482602086016125ae565b91505092915050565b600081359050612657816134b8565b92915050565b60008135905061266c816134cf565b92915050565b60006020828403121561268857612687613174565b5b600061269684828501612605565b91505092915050565b6000602082840312156126b5576126b4613174565b5b60006126c384828501612648565b91505092915050565b600080604083850312156126e3576126e2613174565b5b60006126f185828601612648565b925050602083013567ffffffffffffffff8111156127125761271161316f565b5b61271e8582860161261a565b9150509250929050565b60008060006060848603121561274157612740613174565b5b600061274f86828701612648565b935050602084013567ffffffffffffffff8111156127705761276f61316f565b5b61277c8682870161261a565b925050604061278d868287016125f0565b9150509250925092565b600080604083850312156127ae576127ad613174565b5b60006127bc85828601612648565b92505060206127cd85828601612648565b9150509250929050565b6000806000606084860312156127f0576127ef613174565b5b60006127fe86828701612648565b935050602061280f86828701612648565b925050604061282086828701612648565b9150509250925092565b600080600080600060a0868803121561284657612845613174565b5b600061285488828901612648565b955050602061286588828901612648565b945050604061287688828901612648565b9350506060612887888289016125f0565b925050608086013567ffffffffffffffff8111156128a8576128a761316f565b5b6128b48882890161261a565b9150509295509295909350565b6000806000606084860312156128da576128d9613174565b5b60006128e886828701612648565b93505060206128f986828701612648565b925050604061290a8682870161265d565b9150509250925092565b61291d81612f12565b82525050565b61292c81612f24565b82525050565b61293b81612f7a565b82525050565b600061294c82612e6c565b6129568185612e77565b9350612966818560208601612f9b565b61296f81613179565b840191505092915050565b6000612987601183612e77565b91506129928261318a565b602082019050919050565b60006129aa602883612e77565b91506129b5826131b3565b604082019050919050565b60006129cd602583612e77565b91506129d882613202565b604082019050919050565b60006129f0604183612e77565b91506129fb82613251565b606082019050919050565b6000612a13601583612e77565b9150612a1e826132c6565b602082019050919050565b6000612a36601b83612e77565b9150612a41826132ef565b602082019050919050565b6000612a59602383612e77565b9150612a6482613318565b604082019050919050565b6000612a7c601583612e77565b9150612a8782613367565b602082019050919050565b6000612a9f602583612e77565b9150612aaa82613390565b604082019050919050565b6000612ac2602883612e77565b9150612acd826133df565b604082019050919050565b6000612ae5602c83612e77565b9150612af08261342e565b604082019050919050565b612b0481612f63565b82525050565b6000602082019050612b1f6000830184612914565b92915050565b6000602082019050612b3a6000830184612932565b92915050565b60006020820190508181036000830152612b5a8184612941565b905092915050565b60006020820190508181036000830152612b7b8161297a565b9050919050565b60006020820190508181036000830152612b9b8161299d565b9050919050565b60006020820190508181036000830152612bbb816129c0565b9050919050565b60006020820190508181036000830152612bdb816129e3565b9050919050565b60006020820190508181036000830152612bfb81612a06565b9050919050565b60006020820190508181036000830152612c1b81612a29565b9050919050565b60006020820190508181036000830152612c3b81612a4c565b9050919050565b60006020820190508181036000830152612c5b81612a6f565b9050919050565b60006020820190508181036000830152612c7b81612a92565b9050919050565b60006020820190508181036000830152612c9b81612ab5565b9050919050565b60006020820190508181036000830152612cbb81612ad8565b9050919050565b600060a082019050612cd76000830188612afb565b612ce46020830187612923565b8181036040830152612cf68186612941565b90508181036060830152612d0a8185612941565b9050612d196080830184612914565b9695505050505050565b6000606082019050612d386000830186612afb565b612d456020830185612afb565b612d526040830184612932565b949350505050565b6000606082019050612d6f6000830186612afb565b612d7c6020830185612afb565b612d896040830184612afb565b949350505050565b600061010082019050612da7600083018b612afb565b612db4602083018a612afb565b612dc16040830189612afb565b612dce6060830188612afb565b612ddb6080830187612914565b612de860a0830186612923565b81810360c0830152612dfa8185612941565b9050612e0960e0830184612932565b9998505050505050505050565b6000612e20612e31565b9050612e2c8282613000565b919050565b6000604051905090565b600067ffffffffffffffff821115612e5657612e55613136565b5b612e5f82613179565b9050602081019050919050565b600081519050919050565b600082825260208201905092915050565b6000612e9382612f63565b9150612e9e83612f63565b9250827fffffffffffffffffffffffffffffffffffffffffffffffffffffffffffffffff03821115612ed357612ed261307a565b5b828201905092915050565b6000612ee982612f63565b9150612ef483612f63565b925082821015612f0757612f0661307a565b5b828203905092915050565b6000612f1d82612f43565b9050919050565b60008115159050919050565b6000819050612f3e8261347d565b919050565b600073ffffffffffffffffffffffffffffffffffffffff82169050919050565b6000819050919050565b600060ff82169050919050565b6000612f8582612f30565b9050919050565b82818337600083830152505050565b60005b83811015612fb9578082015181840152602081019050612f9e565b83811115612fc8576000848401525b50505050565b60006002820490506001821680612fe657607f821691505b60208210811415612ffa57612ff96130d8565b5b50919050565b61300982613179565b810181811067ffffffffffffffff8211171561302857613027613136565b5b80604052505050565b600061303c82612f63565b91507fffffffffffffffffffffffffffffffffffffffffffffffffffffffffffffffff82141561306f5761306e61307a565b5b600182019050919050565b7f4e487b7100000000000000000000000000000000000000000000000000000000600052601160045260246000fd5b7f4e487b7100000000000000000000000000000000000000000000000000000000600052602160045260246000fd5b7f4e487b7100000000000000000000000000000000000000000000000000000000600052602260045260246000fd5b7f4e487b7100000000000000000000000000000000000000000000000000000000600052603260045260246000fd5b7f4e487b7100000000000000000000000000000000000000000000000000000000600052604160045260246000fd5b600080fd5b600080fd5b600080fd5b600080fd5b6000601f19601f8301169050919050565b7f43686172697479206e6f7420666f756e64000000000000000000000000000000600082015250565b7f596f7520686176656e277420636f6e747269627574656420666f72207468697360008201527f2070726f6a656374000000000000000000000000000000000000000000000000602082015250565b7f53686f756c642062652067726561746572207468616e206d696e696d756d206160008201527f6d6f756e74000000000000000000000000000000000000000000000000000000602082015250565b7f43616e277420726566756e642061732065786368616e6765207265717565737460008201527f2077617320616c726561647920696e69746961746564207769746820626f617260208201527f6400000000000000000000000000000000000000000000000000000000000000604082015250565b7f50726f6a65637420646f65736e27742065786973740000000000000000000000600082015250565b7f43686172697479206973206e6f742079657420617070726f7665640000000000600082015250565b7f4e6f2070726f6a65637420657869737420756e6465722074686973206368617260008201527f6974790000000000000000000000000000000000000000000000000000000000602082015250565b7f4368617269747920646f65736e27742065786973740000000000000000000000600082015250565b7f4e6f2070726f6a65637420657869737420756e64657220746869732070726f6a60008201527f6563744964000000000000000000000000000000000000000000000000000000602082015250565b7f4e6f20737563682070726f6a65637420657869737420756e646572207468697360008201527f2063686172697479000000000000000000000000000000000000000000000000602082015250565b7f4e6f206d6f726520646f6e6174696f6e7320616363657074656420666f72207460008201527f6869732070726f6a6563742e0000000000000000000000000000000000000000602082015250565b600a811061348e5761348d6130a9565b5b50565b61349a81612f12565b81146134a557600080fd5b50565b600a81106134b557600080fd5b50565b6134c181612f63565b81146134cc57600080fd5b50565b6134d881612f6d565b81146134e357600080fd5b5056fe54686973206f7065726174696f6e2063616e20626520706572666f726d6564206f6e6c7920627920426f6172642061646d696e596f7520617265206e6f7420617574686f72697a656420746f20757064617465207769746820746869732073746174757354686973206f7065726174696f6e2063616e20626520706572666f726d6564206f6e6c792062792043686172697479a2646970667358221220332dfc10c10a6303871d631895ff158842aacde1d202c6fcc293426a20a803c864736f6c63430008070033",
			"opcodes": "PUSH1 0x80 PUSH1 0x40 MSTORE CALLVALUE DUP1 ISZERO PUSH3 0x11 JUMPI PUSH1 0x0 DUP1 REVERT JUMPDEST POP CALLER PUSH1 0x2 PUSH1 0x0 PUSH2 0x100 EXP DUP2 SLOAD DUP2 PUSH20 0xFFFFFFFFFFFFFFFFFFFFFFFFFFFFFFFFFFFFFFFF MUL NOT AND SWAP1 DUP4 PUSH20 0xFFFFFFFFFFFFFFFFFFFFFFFFFFFFFFFFFFFFFFFF AND MUL OR SWAP1 SSTORE POP PUSH1 0x40 MLOAD DUP1 PUSH1 0x40 ADD PUSH1 0x40 MSTORE DUP1 PUSH1 0x14 DUP2 MSTORE PUSH1 0x20 ADD PUSH32 0x57616974696E6720666F7220617070726F76616C000000000000000000000000 DUP2 MSTORE POP PUSH1 0x7 PUSH1 0x0 DUP1 PUSH1 0x9 DUP2 GT ISZERO PUSH3 0xA3 JUMPI PUSH3 0xA2 PUSH3 0x6A1 JUMP JUMPDEST JUMPDEST PUSH1 0x9 DUP2 GT ISZERO PUSH3 0xB8 JUMPI PUSH3 0xB7 PUSH3 0x6A1 JUMP JUMPDEST JUMPDEST DUP2 MSTORE PUSH1 0x20 ADD SWAP1 DUP2 MSTORE PUSH1 0x20 ADD PUSH1 0x0 KECCAK256 SWAP1 DUP1 MLOAD SWAP1 PUSH1 0x20 ADD SWAP1 PUSH3 0xDB SWAP3 SWAP2 SWAP1 PUSH3 0x5BB JUMP JUMPDEST POP PUSH1 0x40 MLOAD DUP1 PUSH1 0x40 ADD PUSH1 0x40 MSTORE DUP1 PUSH1 0x8 DUP2 MSTORE PUSH1 0x20 ADD PUSH32 0x417070726F766564000000000000000000000000000000000000000000000000 DUP2 MSTORE POP PUSH1 0x7 PUSH1 0x0 PUSH1 0x2 PUSH1 0x9 DUP2 GT ISZERO PUSH3 0x12D JUMPI PUSH3 0x12C PUSH3 0x6A1 JUMP JUMPDEST JUMPDEST PUSH1 0x9 DUP2 GT ISZERO PUSH3 0x142 JUMPI PUSH3 0x141 PUSH3 0x6A1 JUMP JUMPDEST JUMPDEST DUP2 MSTORE PUSH1 0x20 ADD SWAP1 DUP2 MSTORE PUSH1 0x20 ADD PUSH1 0x0 KECCAK256 SWAP1 DUP1 MLOAD SWAP1 PUSH1 0x20 ADD SWAP1 PUSH3 0x165 SWAP3 SWAP2 SWAP1 PUSH3 0x5BB JUMP JUMPDEST POP PUSH1 0x40 MLOAD DUP1 PUSH1 0x40 ADD PUSH1 0x40 MSTORE DUP1 PUSH1 0x13 DUP2 MSTORE PUSH1 0x20 ADD PUSH32 0x52656A6563746564206279206368617269747900000000000000000000000000 DUP2 MSTORE POP PUSH1 0x7 PUSH1 0x0 PUSH1 0x1 PUSH1 0x9 DUP2 GT ISZERO PUSH3 0x1B7 JUMPI PUSH3 0x1B6 PUSH3 0x6A1 JUMP JUMPDEST JUMPDEST PUSH1 0x9 DUP2 GT ISZERO PUSH3 0x1CC JUMPI PUSH3 0x1CB PUSH3 0x6A1 JUMP JUMPDEST JUMPDEST DUP2 MSTORE PUSH1 0x20 ADD SWAP1 DUP2 MSTORE PUSH1 0x20 ADD PUSH1 0x0 KECCAK256 SWAP1 DUP1 MLOAD SWAP1 PUSH1 0x20 ADD SWAP1 PUSH3 0x1EF SWAP3 SWAP2 SWAP1 PUSH3 0x5BB JUMP JUMPDEST POP PUSH1 0x40 MLOAD DUP1 PUSH1 0x40 ADD PUSH1 0x40 MSTORE DUP1 PUSH1 0x15 DUP2 MSTORE PUSH1 0x20 ADD PUSH32 0x50726F6A65637420676F616C2061636869657665640000000000000000000000 DUP2 MSTORE POP PUSH1 0x7 PUSH1 0x0 PUSH1 0x3 PUSH1 0x9 DUP2 GT ISZERO PUSH3 0x241 JUMPI PUSH3 0x240 PUSH3 0x6A1 JUMP JUMPDEST JUMPDEST PUSH1 0x9 DUP2 GT ISZERO PUSH3 0x256 JUMPI PUSH3 0x255 PUSH3 0x6A1 JUMP JUMPDEST JUMPDEST DUP2 MSTORE PUSH1 0x20 ADD SWAP1 DUP2 MSTORE PUSH1 0x20 ADD PUSH1 0x0 KECCAK256 SWAP1 DUP1 MLOAD SWAP1 PUSH1 0x20 ADD SWAP1 PUSH3 0x279 SWAP3 SWAP2 SWAP1 PUSH3 0x5BB JUMP JUMPDEST POP PUSH1 0x40 MLOAD DUP1 PUSH1 0x40 ADD PUSH1 0x40 MSTORE DUP1 PUSH1 0x12 DUP2 MSTORE PUSH1 0x20 ADD PUSH32 0x45786368616E6765207265717565737465640000000000000000000000000000 DUP2 MSTORE POP PUSH1 0x7 PUSH1 0x0 PUSH1 0x4 PUSH1 0x9 DUP2 GT ISZERO PUSH3 0x2CB JUMPI PUSH3 0x2CA PUSH3 0x6A1 JUMP JUMPDEST JUMPDEST PUSH1 0x9 DUP2 GT ISZERO PUSH3 0x2E0 JUMPI PUSH3 0x2DF PUSH3 0x6A1 JUMP JUMPDEST JUMPDEST DUP2 MSTORE PUSH1 0x20 ADD SWAP1 DUP2 MSTORE PUSH1 0x20 ADD PUSH1 0x0 KECCAK256 SWAP1 DUP1 MLOAD SWAP1 PUSH1 0x20 ADD SWAP1 PUSH3 0x303 SWAP3 SWAP2 SWAP1 PUSH3 0x5BB JUMP JUMPDEST POP PUSH1 0x40 MLOAD DUP1 PUSH1 0x40 ADD PUSH1 0x40 MSTORE DUP1 PUSH1 0x19 DUP2 MSTORE PUSH1 0x20 ADD PUSH32 0x45786368616E6765207265717565737420726563656976656400000000000000 DUP2 MSTORE POP PUSH1 0x7 PUSH1 0x0 PUSH1 0x5 PUSH1 0x9 DUP2 GT ISZERO PUSH3 0x355 JUMPI PUSH3 0x354 PUSH3 0x6A1 JUMP JUMPDEST JUMPDEST PUSH1 0x9 DUP2 GT ISZERO PUSH3 0x36A JUMPI PUSH3 0x369 PUSH3 0x6A1 JUMP JUMPDEST JUMPDEST DUP2 MSTORE PUSH1 0x20 ADD SWAP1 DUP2 MSTORE PUSH1 0x20 ADD PUSH1 0x0 KECCAK256 SWAP1 DUP1 MLOAD SWAP1 PUSH1 0x20 ADD SWAP1 PUSH3 0x38D SWAP3 SWAP2 SWAP1 PUSH3 0x5BB JUMP JUMPDEST POP PUSH1 0x40 MLOAD DUP1 PUSH1 0x40 ADD PUSH1 0x40 MSTORE DUP1 PUSH1 0x19 DUP2 MSTORE PUSH1 0x20 ADD PUSH32 0x45786368616E6765207265717565737420617070726F76656400000000000000 DUP2 MSTORE POP PUSH1 0x7 PUSH1 0x0 PUSH1 0x6 PUSH1 0x9 DUP2 GT ISZERO PUSH3 0x3DF JUMPI PUSH3 0x3DE PUSH3 0x6A1 JUMP JUMPDEST JUMPDEST PUSH1 0x9 DUP2 GT ISZERO PUSH3 0x3F4 JUMPI PUSH3 0x3F3 PUSH3 0x6A1 JUMP JUMPDEST JUMPDEST DUP2 MSTORE PUSH1 0x20 ADD SWAP1 DUP2 MSTORE PUSH1 0x20 ADD PUSH1 0x0 KECCAK256 SWAP1 DUP1 MLOAD SWAP1 PUSH1 0x20 ADD SWAP1 PUSH3 0x417 SWAP3 SWAP2 SWAP1 PUSH3 0x5BB JUMP JUMPDEST POP PUSH1 0x40 MLOAD DUP1 PUSH1 0x40 ADD PUSH1 0x40 MSTORE DUP1 PUSH1 0x19 DUP2 MSTORE PUSH1 0x20 ADD PUSH32 0x45786368616E676520726571756573742072656A656374656400000000000000 DUP2 MSTORE POP PUSH1 0x7 PUSH1 0x0 PUSH1 0x7 PUSH1 0x9 DUP2 GT ISZERO PUSH3 0x469 JUMPI PUSH3 0x468 PUSH3 0x6A1 JUMP JUMPDEST JUMPDEST PUSH1 0x9 DUP2 GT ISZERO PUSH3 0x47E JUMPI PUSH3 0x47D PUSH3 0x6A1 JUMP JUMPDEST JUMPDEST DUP2 MSTORE PUSH1 0x20 ADD SWAP1 DUP2 MSTORE PUSH1 0x20 ADD PUSH1 0x0 KECCAK256 SWAP1 DUP1 MLOAD SWAP1 PUSH1 0x20 ADD SWAP1 PUSH3 0x4A1 SWAP3 SWAP2 SWAP1 PUSH3 0x5BB JUMP JUMPDEST POP PUSH1 0x40 MLOAD DUP1 PUSH1 0x40 ADD PUSH1 0x40 MSTORE DUP1 PUSH1 0xE DUP2 MSTORE PUSH1 0x20 ADD PUSH32 0x46756E647320726566756E646564000000000000000000000000000000000000 DUP2 MSTORE POP PUSH1 0x7 PUSH1 0x0 PUSH1 0x8 PUSH1 0x9 DUP2 GT ISZERO PUSH3 0x4F3 JUMPI PUSH3 0x4F2 PUSH3 0x6A1 JUMP JUMPDEST JUMPDEST PUSH1 0x9 DUP2 GT ISZERO PUSH3 0x508 JUMPI PUSH3 0x507 PUSH3 0x6A1 JUMP JUMPDEST JUMPDEST DUP2 MSTORE PUSH1 0x20 ADD SWAP1 DUP2 MSTORE PUSH1 0x20 ADD PUSH1 0x0 KECCAK256 SWAP1 DUP1 MLOAD SWAP1 PUSH1 0x20 ADD SWAP1 PUSH3 0x52B SWAP3 SWAP2 SWAP1 PUSH3 0x5BB JUMP JUMPDEST POP PUSH1 0x40 MLOAD DUP1 PUSH1 0x40 ADD PUSH1 0x40 MSTORE DUP1 PUSH1 0xE DUP2 MSTORE PUSH1 0x20 ADD PUSH32 0x50726F6A65637420636C6F736564000000000000000000000000000000000000 DUP2 MSTORE POP PUSH1 0x7 PUSH1 0x0 PUSH1 0x9 DUP1 DUP2 GT ISZERO PUSH3 0x57C JUMPI PUSH3 0x57B PUSH3 0x6A1 JUMP JUMPDEST JUMPDEST PUSH1 0x9 DUP2 GT ISZERO PUSH3 0x591 JUMPI PUSH3 0x590 PUSH3 0x6A1 JUMP JUMPDEST JUMPDEST DUP2 MSTORE PUSH1 0x20 ADD SWAP1 DUP2 MSTORE PUSH1 0x20 ADD PUSH1 0x0 KECCAK256 SWAP1 DUP1 MLOAD SWAP1 PUSH1 0x20 ADD SWAP1 PUSH3 0x5B4 SWAP3 SWAP2 SWAP1 PUSH3 0x5BB JUMP JUMPDEST POP PUSH3 0x6FF JUMP JUMPDEST DUP3 DUP1 SLOAD PUSH3 0x5C9 SWAP1 PUSH3 0x66B JUMP JUMPDEST SWAP1 PUSH1 0x0 MSTORE PUSH1 0x20 PUSH1 0x0 KECCAK256 SWAP1 PUSH1 0x1F ADD PUSH1 0x20 SWAP1 DIV DUP2 ADD SWAP3 DUP3 PUSH3 0x5ED JUMPI PUSH1 0x0 DUP6 SSTORE PUSH3 0x639 JUMP JUMPDEST DUP3 PUSH1 0x1F LT PUSH3 0x608 JUMPI DUP1 MLOAD PUSH1 0xFF NOT AND DUP4 DUP1 ADD OR DUP6 SSTORE PUSH3 0x639 JUMP JUMPDEST DUP3 DUP1 ADD PUSH1 0x1 ADD DUP6 SSTORE DUP3 ISZERO PUSH3 0x639 JUMPI SWAP2 DUP3 ADD JUMPDEST DUP3 DUP2 GT ISZERO PUSH3 0x638 JUMPI DUP3 MLOAD DUP3 SSTORE SWAP2 PUSH1 0x20 ADD SWAP2 SWAP1 PUSH1 0x1 ADD SWAP1 PUSH3 0x61B JUMP JUMPDEST JUMPDEST POP SWAP1 POP PUSH3 0x648 SWAP2 SWAP1 PUSH3 0x64C JUMP JUMPDEST POP SWAP1 JUMP JUMPDEST JUMPDEST DUP1 DUP3 GT ISZERO PUSH3 0x667 JUMPI PUSH1 0x0 DUP2 PUSH1 0x0 SWAP1 SSTORE POP PUSH1 0x1 ADD PUSH3 0x64D JUMP JUMPDEST POP SWAP1 JUMP JUMPDEST PUSH1 0x0 PUSH1 0x2 DUP3 DIV SWAP1 POP PUSH1 0x1 DUP3 AND DUP1 PUSH3 0x684 JUMPI PUSH1 0x7F DUP3 AND SWAP2 POP JUMPDEST PUSH1 0x20 DUP3 LT DUP2 EQ ISZERO PUSH3 0x69B JUMPI PUSH3 0x69A PUSH3 0x6D0 JUMP JUMPDEST JUMPDEST POP SWAP2 SWAP1 POP JUMP JUMPDEST PUSH32 0x4E487B7100000000000000000000000000000000000000000000000000000000 PUSH1 0x0 MSTORE PUSH1 0x21 PUSH1 0x4 MSTORE PUSH1 0x24 PUSH1 0x0 REVERT JUMPDEST PUSH32 0x4E487B7100000000000000000000000000000000000000000000000000000000 PUSH1 0x0 MSTORE PUSH1 0x22 PUSH1 0x4 MSTORE PUSH1 0x24 PUSH1 0x0 REVERT JUMPDEST PUSH2 0x35AF DUP1 PUSH3 0x70F PUSH1 0x0 CODECOPY PUSH1 0x0 RETURN INVALID PUSH1 0x80 PUSH1 0x40 MSTORE PUSH1 0x4 CALLDATASIZE LT PUSH2 0xE8 JUMPI PUSH1 0x0 CALLDATALOAD PUSH1 0xE0 SHR DUP1 PUSH4 0x97ED410C GT PUSH2 0x8A JUMPI DUP1 PUSH4 0xDAF38232 GT PUSH2 0x59 JUMPI DUP1 PUSH4 0xDAF38232 EQ PUSH2 0x2F9 JUMPI DUP1 PUSH4 0xEF6ADD32 EQ PUSH2 0x322 JUMPI DUP1 PUSH4 0xEF88F48B EQ PUSH2 0x35F JUMPI DUP1 PUSH4 0xFB709D2E EQ PUSH2 0x37B JUMPI PUSH2 0xE8 JUMP JUMPDEST DUP1 PUSH4 0x97ED410C EQ PUSH2 0x23F JUMPI DUP1 PUSH4 0x9D8E7E89 EQ PUSH2 0x268 JUMPI DUP1 PUSH4 0xA6DBEC73 EQ PUSH2 0x2A5 JUMPI DUP1 PUSH4 0xB61A7F76 EQ PUSH2 0x2CE JUMPI PUSH2 0xE8 JUMP JUMPDEST DUP1 PUSH4 0x1ED056D8 GT PUSH2 0xC6 JUMPI DUP1 PUSH4 0x1ED056D8 EQ PUSH2 0x185 JUMPI DUP1 PUSH4 0x2C3730EF EQ PUSH2 0x1C4 JUMPI DUP1 PUSH4 0x3A8565F0 EQ PUSH2 0x1ED JUMPI DUP1 PUSH4 0x95DCC366 EQ PUSH2 0x216 JUMPI PUSH2 0xE8 JUMP JUMPDEST DUP1 PUSH4 0x107046BD EQ PUSH2 0xED JUMPI DUP1 PUSH4 0x141020CC EQ PUSH2 0x131 JUMPI DUP1 PUSH4 0x1AB33308 EQ PUSH2 0x15A JUMPI JUMPDEST PUSH1 0x0 DUP1 REVERT JUMPDEST CALLVALUE DUP1 ISZERO PUSH2 0xF9 JUMPI PUSH1 0x0 DUP1 REVERT JUMPDEST POP PUSH2 0x114 PUSH1 0x4 DUP1 CALLDATASIZE SUB DUP2 ADD SWAP1 PUSH2 0x10F SWAP2 SWAP1 PUSH2 0x269F JUMP JUMPDEST PUSH2 0x3BC JUMP JUMPDEST PUSH1 0x40 MLOAD PUSH2 0x128 SWAP9 SWAP8 SWAP7 SWAP6 SWAP5 SWAP4 SWAP3 SWAP2 SWAP1 PUSH2 0x2D91 JUMP JUMPDEST PUSH1 0x40 MLOAD DUP1 SWAP2 SUB SWAP1 RETURN JUMPDEST CALLVALUE DUP1 ISZERO PUSH2 0x13D JUMPI PUSH1 0x0 DUP1 REVERT JUMPDEST POP PUSH2 0x158 PUSH1 0x4 DUP1 CALLDATASIZE SUB DUP2 ADD SWAP1 PUSH2 0x153 SWAP2 SWAP1 PUSH2 0x2728 JUMP JUMPDEST PUSH2 0x4D6 JUMP JUMPDEST STOP JUMPDEST CALLVALUE DUP1 ISZERO PUSH2 0x166 JUMPI PUSH1 0x0 DUP1 REVERT JUMPDEST POP PUSH2 0x16F PUSH2 0x6E0 JUMP JUMPDEST PUSH1 0x40 MLOAD PUSH2 0x17C SWAP2 SWAP1 PUSH2 0x2B25 JUMP JUMPDEST PUSH1 0x40 MLOAD DUP1 SWAP2 SUB SWAP1 RETURN JUMPDEST CALLVALUE DUP1 ISZERO PUSH2 0x191 JUMPI PUSH1 0x0 DUP1 REVERT JUMPDEST POP PUSH2 0x1AC PUSH1 0x4 DUP1 CALLDATASIZE SUB DUP2 ADD SWAP1 PUSH2 0x1A7 SWAP2 SWAP1 PUSH2 0x2797 JUMP JUMPDEST PUSH2 0x6F3 JUMP JUMPDEST PUSH1 0x40 MLOAD PUSH2 0x1BB SWAP4 SWAP3 SWAP2 SWAP1 PUSH2 0x2D5A JUMP JUMPDEST PUSH1 0x40 MLOAD DUP1 SWAP2 SUB SWAP1 RETURN JUMPDEST CALLVALUE DUP1 ISZERO PUSH2 0x1D0 JUMPI PUSH1 0x0 DUP1 REVERT JUMPDEST POP PUSH2 0x1EB PUSH1 0x4 DUP1 CALLDATASIZE SUB DUP2 ADD SWAP1 PUSH2 0x1E6 SWAP2 SWAP1 PUSH2 0x28C1 JUMP JUMPDEST PUSH2 0x891 JUMP JUMPDEST STOP JUMPDEST CALLVALUE DUP1 ISZERO PUSH2 0x1F9 JUMPI PUSH1 0x0 DUP1 REVERT JUMPDEST POP PUSH2 0x214 PUSH1 0x4 DUP1 CALLDATASIZE SUB DUP2 ADD SWAP1 PUSH2 0x20F SWAP2 SWAP1 PUSH2 0x28C1 JUMP JUMPDEST PUSH2 0xD26 JUMP JUMPDEST STOP JUMPDEST CALLVALUE DUP1 ISZERO PUSH2 0x222 JUMPI PUSH1 0x0 DUP1 REVERT JUMPDEST POP PUSH2 0x23D PUSH1 0x4 DUP1 CALLDATASIZE SUB DUP2 ADD SWAP1 PUSH2 0x238 SWAP2 SWAP1 PUSH2 0x282A JUMP JUMPDEST PUSH2 0x12E3 JUMP JUMPDEST STOP JUMPDEST CALLVALUE DUP1 ISZERO PUSH2 0x24B JUMPI PUSH1 0x0 DUP1 REVERT JUMPDEST POP PUSH2 0x266 PUSH1 0x4 DUP1 CALLDATASIZE SUB DUP2 ADD SWAP1 PUSH2 0x261 SWAP2 SWAP1 PUSH2 0x2797 JUMP JUMPDEST PUSH2 0x168B JUMP JUMPDEST STOP JUMPDEST CALLVALUE DUP1 ISZERO PUSH2 0x274 JUMPI PUSH1 0x0 DUP1 REVERT JUMPDEST POP PUSH2 0x28F PUSH1 0x4 DUP1 CALLDATASIZE SUB DUP2 ADD SWAP1 PUSH2 0x28A SWAP2 SWAP1 PUSH2 0x2797 JUMP JUMPDEST PUSH2 0x17AB JUMP JUMPDEST PUSH1 0x40 MLOAD PUSH2 0x29C SWAP2 SWAP1 PUSH2 0x2B40 JUMP JUMPDEST PUSH1 0x40 MLOAD DUP1 SWAP2 SUB SWAP1 RETURN JUMPDEST CALLVALUE DUP1 ISZERO PUSH2 0x2B1 JUMPI PUSH1 0x0 DUP1 REVERT JUMPDEST POP PUSH2 0x2CC PUSH1 0x4 DUP1 CALLDATASIZE SUB DUP2 ADD SWAP1 PUSH2 0x2C7 SWAP2 SWAP1 PUSH2 0x27D7 JUMP JUMPDEST PUSH2 0x1995 JUMP JUMPDEST STOP JUMPDEST CALLVALUE DUP1 ISZERO PUSH2 0x2DA JUMPI PUSH1 0x0 DUP1 REVERT JUMPDEST POP PUSH2 0x2E3 PUSH2 0x1D4A JUMP JUMPDEST PUSH1 0x40 MLOAD PUSH2 0x2F0 SWAP2 SWAP1 PUSH2 0x2B0A JUMP JUMPDEST PUSH1 0x40 MLOAD DUP1 SWAP2 SUB SWAP1 RETURN JUMPDEST CALLVALUE DUP1 ISZERO PUSH2 0x305 JUMPI PUSH1 0x0 DUP1 REVERT JUMPDEST POP PUSH2 0x320 PUSH1 0x4 DUP1 CALLDATASIZE SUB DUP2 ADD SWAP1 PUSH2 0x31B SWAP2 SWAP1 PUSH2 0x26CC JUMP JUMPDEST PUSH2 0x1D70 JUMP JUMPDEST STOP JUMPDEST CALLVALUE DUP1 ISZERO PUSH2 0x32E JUMPI PUSH1 0x0 DUP1 REVERT JUMPDEST POP PUSH2 0x349 PUSH1 0x4 DUP1 CALLDATASIZE SUB DUP2 ADD SWAP1 PUSH2 0x344 SWAP2 SWAP1 PUSH2 0x2672 JUMP JUMPDEST PUSH2 0x1E7D JUMP JUMPDEST PUSH1 0x40 MLOAD PUSH2 0x356 SWAP2 SWAP1 PUSH2 0x2B40 JUMP JUMPDEST PUSH1 0x40 MLOAD DUP1 SWAP2 SUB SWAP1 RETURN JUMPDEST PUSH2 0x379 PUSH1 0x4 DUP1 CALLDATASIZE SUB DUP2 ADD SWAP1 PUSH2 0x374 SWAP2 SWAP1 PUSH2 0x27D7 JUMP JUMPDEST PUSH2 0x1F1D JUMP JUMPDEST STOP JUMPDEST CALLVALUE DUP1 ISZERO PUSH2 0x387 JUMPI PUSH1 0x0 DUP1 REVERT JUMPDEST POP PUSH2 0x3A2 PUSH1 0x4 DUP1 CALLDATASIZE SUB DUP2 ADD SWAP1 PUSH2 0x39D SWAP2 SWAP1 PUSH2 0x269F JUMP JUMPDEST PUSH2 0x2388 JUMP JUMPDEST PUSH1 0x40 MLOAD PUSH2 0x3B3 SWAP6 SWAP5 SWAP4 SWAP3 SWAP2 SWAP1 PUSH2 0x2CC2 JUMP JUMPDEST PUSH1 0x40 MLOAD DUP1 SWAP2 SUB SWAP1 RETURN JUMPDEST PUSH1 0x0 DUP2 DUP2 SLOAD DUP2 LT PUSH2 0x3CC JUMPI PUSH1 0x0 DUP1 REVERT JUMPDEST SWAP1 PUSH1 0x0 MSTORE PUSH1 0x20 PUSH1 0x0 KECCAK256 SWAP1 PUSH1 0x7 MUL ADD PUSH1 0x0 SWAP2 POP SWAP1 POP DUP1 PUSH1 0x0 ADD SLOAD SWAP1 DUP1 PUSH1 0x1 ADD SLOAD SWAP1 DUP1 PUSH1 0x2 ADD SLOAD SWAP1 DUP1 PUSH1 0x3 ADD SLOAD SWAP1 DUP1 PUSH1 0x4 ADD PUSH1 0x0 SWAP1 SLOAD SWAP1 PUSH2 0x100 EXP SWAP1 DIV PUSH20 0xFFFFFFFFFFFFFFFFFFFFFFFFFFFFFFFFFFFFFFFF AND SWAP1 DUP1 PUSH1 0x4 ADD PUSH1 0x14 SWAP1 SLOAD SWAP1 PUSH2 0x100 EXP SWAP1 DIV PUSH1 0xFF AND SWAP1 DUP1 PUSH1 0x5 ADD DUP1 SLOAD PUSH2 0x440 SWAP1 PUSH2 0x2FCE JUMP JUMPDEST DUP1 PUSH1 0x1F ADD PUSH1 0x20 DUP1 SWAP2 DIV MUL PUSH1 0x20 ADD PUSH1 0x40 MLOAD SWAP1 DUP2 ADD PUSH1 0x40 MSTORE DUP1 SWAP3 SWAP2 SWAP1 DUP2 DUP2 MSTORE PUSH1 0x20 ADD DUP3 DUP1 SLOAD PUSH2 0x46C SWAP1 PUSH2 0x2FCE JUMP JUMPDEST DUP1 ISZERO PUSH2 0x4B9 JUMPI DUP1 PUSH1 0x1F LT PUSH2 0x48E JUMPI PUSH2 0x100 DUP1 DUP4 SLOAD DIV MUL DUP4 MSTORE SWAP2 PUSH1 0x20 ADD SWAP2 PUSH2 0x4B9 JUMP JUMPDEST DUP3 ADD SWAP2 SWAP1 PUSH1 0x0 MSTORE PUSH1 0x20 PUSH1 0x0 KECCAK256 SWAP1 JUMPDEST DUP2 SLOAD DUP2 MSTORE SWAP1 PUSH1 0x1 ADD SWAP1 PUSH1 0x20 ADD DUP1 DUP4 GT PUSH2 0x49C JUMPI DUP3 SWAP1 SUB PUSH1 0x1F AND DUP3 ADD SWAP2 JUMPDEST POP POP POP POP POP SWAP1 DUP1 PUSH1 0x6 ADD PUSH1 0x0 SWAP1 SLOAD SWAP1 PUSH2 0x100 EXP SWAP1 DIV PUSH1 0xFF AND SWAP1 POP DUP9 JUMP JUMPDEST PUSH1 0x2 PUSH1 0x0 SWAP1 SLOAD SWAP1 PUSH2 0x100 EXP SWAP1 DIV PUSH20 0xFFFFFFFFFFFFFFFFFFFFFFFFFFFFFFFFFFFFFFFF AND PUSH20 0xFFFFFFFFFFFFFFFFFFFFFFFFFFFFFFFFFFFFFFFF AND CALLER PUSH20 0xFFFFFFFFFFFFFFFFFFFFFFFFFFFFFFFFFFFFFFFF AND EQ PUSH1 0x40 MLOAD DUP1 PUSH1 0x60 ADD PUSH1 0x40 MSTORE DUP1 PUSH1 0x33 DUP2 MSTORE PUSH1 0x20 ADD PUSH2 0x34E7 PUSH1 0x33 SWAP2 CODECOPY SWAP1 PUSH2 0x581 JUMPI PUSH1 0x40 MLOAD PUSH32 0x8C379A000000000000000000000000000000000000000000000000000000000 DUP2 MSTORE PUSH1 0x4 ADD PUSH2 0x578 SWAP2 SWAP1 PUSH2 0x2B40 JUMP JUMPDEST PUSH1 0x40 MLOAD DUP1 SWAP2 SUB SWAP1 REVERT JUMPDEST POP PUSH1 0x0 PUSH1 0x40 MLOAD DUP1 PUSH1 0xA0 ADD PUSH1 0x40 MSTORE DUP1 DUP6 DUP2 MSTORE PUSH1 0x20 ADD PUSH1 0x1 ISZERO ISZERO DUP2 MSTORE PUSH1 0x20 ADD PUSH1 0x40 MLOAD DUP1 PUSH1 0x20 ADD PUSH1 0x40 MSTORE DUP1 PUSH1 0x0 DUP2 MSTORE POP DUP2 MSTORE PUSH1 0x20 ADD DUP5 DUP2 MSTORE PUSH1 0x20 ADD DUP4 PUSH20 0xFFFFFFFFFFFFFFFFFFFFFFFFFFFFFFFFFFFFFFFF AND DUP2 MSTORE POP SWAP1 POP PUSH1 0x1 DUP2 SWAP1 DUP1 PUSH1 0x1 DUP2 SLOAD ADD DUP1 DUP3 SSTORE DUP1 SWAP2 POP POP PUSH1 0x1 SWAP1 SUB SWAP1 PUSH1 0x0 MSTORE PUSH1 0x20 PUSH1 0x0 KECCAK256 SWAP1 PUSH1 0x5 MUL ADD PUSH1 0x0 SWAP1 SWAP2 SWAP1 SWAP2 SWAP1 SWAP2 POP PUSH1 0x0 DUP3 ADD MLOAD DUP2 PUSH1 0x0 ADD SSTORE PUSH1 0x20 DUP3 ADD MLOAD DUP2 PUSH1 0x1 ADD PUSH1 0x0 PUSH2 0x100 EXP DUP2 SLOAD DUP2 PUSH1 0xFF MUL NOT AND SWAP1 DUP4 ISZERO ISZERO MUL OR SWAP1 SSTORE POP PUSH1 0x40 DUP3 ADD MLOAD DUP2 PUSH1 0x2 ADD SWAP1 DUP1 MLOAD SWAP1 PUSH1 0x20 ADD SWAP1 PUSH2 0x647 SWAP3 SWAP2 SWAP1 PUSH2 0x250B JUMP JUMPDEST POP PUSH1 0x60 DUP3 ADD MLOAD DUP2 PUSH1 0x3 ADD SWAP1 DUP1 MLOAD SWAP1 PUSH1 0x20 ADD SWAP1 PUSH2 0x664 SWAP3 SWAP2 SWAP1 PUSH2 0x250B JUMP JUMPDEST POP PUSH1 0x80 DUP3 ADD MLOAD DUP2 PUSH1 0x4 ADD PUSH1 0x0 PUSH2 0x100 EXP DUP2 SLOAD DUP2 PUSH20 0xFFFFFFFFFFFFFFFFFFFFFFFFFFFFFFFFFFFFFFFF MUL NOT AND SWAP1 DUP4 PUSH20 0xFFFFFFFFFFFFFFFFFFFFFFFFFFFFFFFFFFFFFFFF AND MUL OR SWAP1 SSTORE POP POP POP PUSH1 0x1 PUSH1 0x5 PUSH1 0x0 DUP7 DUP2 MSTORE PUSH1 0x20 ADD SWAP1 DUP2 MSTORE PUSH1 0x20 ADD PUSH1 0x0 KECCAK256 PUSH1 0x0 PUSH2 0x100 EXP DUP2 SLOAD DUP2 PUSH1 0xFF MUL NOT AND SWAP1 DUP4 ISZERO ISZERO MUL OR SWAP1 SSTORE POP POP POP POP POP JUMP JUMPDEST PUSH1 0x6 PUSH1 0x0 SWAP1 SLOAD SWAP1 PUSH2 0x100 EXP SWAP1 DIV PUSH1 0xFF AND DUP2 JUMP JUMPDEST PUSH1 0x0 DUP1 PUSH1 0x0 DUP1 PUSH1 0x4 PUSH1 0x0 DUP8 DUP2 MSTORE PUSH1 0x20 ADD SWAP1 DUP2 MSTORE PUSH1 0x20 ADD PUSH1 0x0 KECCAK256 SWAP1 POP PUSH1 0x0 DUP2 DUP1 SLOAD SWAP1 POP GT PUSH2 0x755 JUMPI PUSH1 0x40 MLOAD PUSH32 0x8C379A000000000000000000000000000000000000000000000000000000000 DUP2 MSTORE PUSH1 0x4 ADD PUSH2 0x74C SWAP1 PUSH2 0x2C42 JUMP JUMPDEST PUSH1 0x40 MLOAD DUP1 SWAP2 SUB SWAP1 REVERT JUMPDEST PUSH1 0x0 JUMPDEST DUP2 DUP1 SLOAD SWAP1 POP DUP2 LT ISZERO PUSH2 0x84E JUMPI DUP6 DUP3 DUP3 DUP2 SLOAD DUP2 LT PUSH2 0x778 JUMPI PUSH2 0x777 PUSH2 0x3107 JUMP JUMPDEST JUMPDEST SWAP1 PUSH1 0x0 MSTORE PUSH1 0x20 PUSH1 0x0 KECCAK256 SWAP1 PUSH1 0x7 MUL ADD PUSH1 0x0 ADD SLOAD EQ ISZERO PUSH2 0x83B JUMPI DUP2 DUP2 DUP2 SLOAD DUP2 LT PUSH2 0x7A3 JUMPI PUSH2 0x7A2 PUSH2 0x3107 JUMP JUMPDEST JUMPDEST SWAP1 PUSH1 0x0 MSTORE PUSH1 0x20 PUSH1 0x0 KECCAK256 SWAP1 PUSH1 0x7 MUL ADD PUSH1 0x2 ADD SLOAD DUP3 DUP3 DUP2 SLOAD DUP2 LT PUSH2 0x7C8 JUMPI PUSH2 0x7C7 PUSH2 0x3107 JUMP JUMPDEST JUMPDEST SWAP1 PUSH1 0x0 MSTORE PUSH1 0x20 PUSH1 0x0 KECCAK256 SWAP1 PUSH1 0x7 MUL ADD PUSH1 0x3 ADD SLOAD DUP4 DUP4 DUP2 SLOAD DUP2 LT PUSH2 0x7ED JUMPI PUSH2 0x7EC PUSH2 0x3107 JUMP JUMPDEST JUMPDEST SWAP1 PUSH1 0x0 MSTORE PUSH1 0x20 PUSH1 0x0 KECCAK256 SWAP1 PUSH1 0x7 MUL ADD PUSH1 0x3 ADD SLOAD DUP5 DUP5 DUP2 SLOAD DUP2 LT PUSH2 0x812 JUMPI PUSH2 0x811 PUSH2 0x3107 JUMP JUMPDEST JUMPDEST SWAP1 PUSH1 0x0 MSTORE PUSH1 0x20 PUSH1 0x0 KECCAK256 SWAP1 PUSH1 0x7 MUL ADD PUSH1 0x2 ADD SLOAD PUSH2 0x82E SWAP2 SWAP1 PUSH2 0x2EDE JUMP JUMPDEST SWAP5 POP SWAP5 POP SWAP5 POP POP POP PUSH2 0x88A JUMP JUMPDEST DUP1 DUP1 PUSH2 0x846 SWAP1 PUSH2 0x3031 JUMP JUMPDEST SWAP2 POP POP PUSH2 0x758 JUMP JUMPDEST POP PUSH1 0x40 MLOAD PUSH32 0x8C379A000000000000000000000000000000000000000000000000000000000 DUP2 MSTORE PUSH1 0x4 ADD PUSH2 0x881 SWAP1 PUSH2 0x2C82 JUMP JUMPDEST PUSH1 0x40 MLOAD DUP1 SWAP2 SUB SWAP1 REVERT JUMPDEST SWAP3 POP SWAP3 POP SWAP3 JUMP JUMPDEST PUSH1 0x2 PUSH1 0x0 SWAP1 SLOAD SWAP1 PUSH2 0x100 EXP SWAP1 DIV PUSH20 0xFFFFFFFFFFFFFFFFFFFFFFFFFFFFFFFFFFFFFFFF AND PUSH20 0xFFFFFFFFFFFFFFFFFFFFFFFFFFFFFFFFFFFFFFFF AND CALLER PUSH20 0xFFFFFFFFFFFFFFFFFFFFFFFFFFFFFFFFFFFFFFFF AND EQ PUSH1 0x40 MLOAD DUP1 PUSH1 0x60 ADD PUSH1 0x40 MSTORE DUP1 PUSH1 0x33 DUP2 MSTORE PUSH1 0x20 ADD PUSH2 0x34E7 PUSH1 0x33 SWAP2 CODECOPY SWAP1 PUSH2 0x93C JUMPI PUSH1 0x40 MLOAD PUSH32 0x8C379A000000000000000000000000000000000000000000000000000000000 DUP2 MSTORE PUSH1 0x4 ADD PUSH2 0x933 SWAP2 SWAP1 PUSH2 0x2B40 JUMP JUMPDEST PUSH1 0x40 MLOAD DUP1 SWAP2 SUB SWAP1 REVERT JUMPDEST POP PUSH1 0x0 PUSH1 0x9 DUP2 GT ISZERO PUSH2 0x951 JUMPI PUSH2 0x950 PUSH2 0x30A9 JUMP JUMPDEST JUMPDEST DUP2 PUSH1 0xFF AND PUSH1 0x9 DUP2 GT ISZERO PUSH2 0x967 JUMPI PUSH2 0x966 PUSH2 0x30A9 JUMP JUMPDEST JUMPDEST PUSH1 0x9 DUP2 GT ISZERO PUSH2 0x979 JUMPI PUSH2 0x978 PUSH2 0x30A9 JUMP JUMPDEST JUMPDEST EQ ISZERO PUSH1 0x40 MLOAD DUP1 PUSH1 0x60 ADD PUSH1 0x40 MSTORE DUP1 PUSH1 0x31 DUP2 MSTORE PUSH1 0x20 ADD PUSH2 0x351A PUSH1 0x31 SWAP2 CODECOPY SWAP1 PUSH2 0x9D5 JUMPI PUSH1 0x40 MLOAD PUSH32 0x8C379A000000000000000000000000000000000000000000000000000000000 DUP2 MSTORE PUSH1 0x4 ADD PUSH2 0x9CC SWAP2 SWAP1 PUSH2 0x2B40 JUMP JUMPDEST PUSH1 0x40 MLOAD DUP1 SWAP2 SUB SWAP1 REVERT JUMPDEST POP PUSH1 0x2 PUSH1 0x9 DUP2 GT ISZERO PUSH2 0x9EA JUMPI PUSH2 0x9E9 PUSH2 0x30A9 JUMP JUMPDEST JUMPDEST DUP2 PUSH1 0xFF AND PUSH1 0x9 DUP2 GT ISZERO PUSH2 0xA00 JUMPI PUSH2 0x9FF PUSH2 0x30A9 JUMP JUMPDEST JUMPDEST PUSH1 0x9 DUP2 GT ISZERO PUSH2 0xA12 JUMPI PUSH2 0xA11 PUSH2 0x30A9 JUMP JUMPDEST JUMPDEST EQ ISZERO PUSH1 0x40 MLOAD DUP1 PUSH1 0x60 ADD PUSH1 0x40 MSTORE DUP1 PUSH1 0x31 DUP2 MSTORE PUSH1 0x20 ADD PUSH2 0x351A PUSH1 0x31 SWAP2 CODECOPY SWAP1 PUSH2 0xA6E JUMPI PUSH1 0x40 MLOAD PUSH32 0x8C379A000000000000000000000000000000000000000000000000000000000 DUP2 MSTORE PUSH1 0x4 ADD PUSH2 0xA65 SWAP2 SWAP1 PUSH2 0x2B40 JUMP JUMPDEST PUSH1 0x40 MLOAD DUP1 SWAP2 SUB SWAP1 REVERT JUMPDEST POP PUSH1 0x3 PUSH1 0x9 DUP2 GT ISZERO PUSH2 0xA83 JUMPI PUSH2 0xA82 PUSH2 0x30A9 JUMP JUMPDEST JUMPDEST DUP2 PUSH1 0xFF AND PUSH1 0x9 DUP2 GT ISZERO PUSH2 0xA99 JUMPI PUSH2 0xA98 PUSH2 0x30A9 JUMP JUMPDEST JUMPDEST PUSH1 0x9 DUP2 GT ISZERO PUSH2 0xAAB JUMPI PUSH2 0xAAA PUSH2 0x30A9 JUMP JUMPDEST JUMPDEST EQ ISZERO PUSH1 0x40 MLOAD DUP1 PUSH1 0x60 ADD PUSH1 0x40 MSTORE DUP1 PUSH1 0x31 DUP2 MSTORE PUSH1 0x20 ADD PUSH2 0x351A PUSH1 0x31 SWAP2 CODECOPY SWAP1 PUSH2 0xB07 JUMPI PUSH1 0x40 MLOAD PUSH32 0x8C379A000000000000000000000000000000000000000000000000000000000 DUP2 MSTORE PUSH1 0x4 ADD PUSH2 0xAFE SWAP2 SWAP1 PUSH2 0x2B40 JUMP JUMPDEST PUSH1 0x40 MLOAD DUP1 SWAP2 SUB SWAP1 REVERT JUMPDEST POP PUSH1 0x4 PUSH1 0x9 DUP2 GT ISZERO PUSH2 0xB1C JUMPI PUSH2 0xB1B PUSH2 0x30A9 JUMP JUMPDEST JUMPDEST DUP2 PUSH1 0xFF AND PUSH1 0x9 DUP2 GT ISZERO PUSH2 0xB32 JUMPI PUSH2 0xB31 PUSH2 0x30A9 JUMP JUMPDEST JUMPDEST PUSH1 0x9 DUP2 GT ISZERO PUSH2 0xB44 JUMPI PUSH2 0xB43 PUSH2 0x30A9 JUMP JUMPDEST JUMPDEST EQ ISZERO PUSH1 0x40 MLOAD DUP1 PUSH1 0x60 ADD PUSH1 0x40 MSTORE DUP1 PUSH1 0x31 DUP2 MSTORE PUSH1 0x20 ADD PUSH2 0x351A PUSH1 0x31 SWAP2 CODECOPY SWAP1 PUSH2 0xBA0 JUMPI PUSH1 0x40 MLOAD PUSH32 0x8C379A000000000000000000000000000000000000000000000000000000000 DUP2 MSTORE PUSH1 0x4 ADD PUSH2 0xB97 SWAP2 SWAP1 PUSH2 0x2B40 JUMP JUMPDEST PUSH1 0x40 MLOAD DUP1 SWAP2 SUB SWAP1 REVERT JUMPDEST POP PUSH1 0x0 PUSH1 0x4 PUSH1 0x0 DUP5 DUP2 MSTORE PUSH1 0x20 ADD SWAP1 DUP2 MSTORE PUSH1 0x20 ADD PUSH1 0x0 KECCAK256 SWAP1 POP PUSH1 0x0 DUP2 DUP1 SLOAD SWAP1 POP GT PUSH2 0xBFF JUMPI PUSH1 0x40 MLOAD PUSH32 0x8C379A000000000000000000000000000000000000000000000000000000000 DUP2 MSTORE PUSH1 0x4 ADD PUSH2 0xBF6 SWAP1 PUSH2 0x2C22 JUMP JUMPDEST PUSH1 0x40 MLOAD DUP1 SWAP2 SUB SWAP1 REVERT JUMPDEST PUSH1 0x0 JUMPDEST DUP2 DUP1 SLOAD SWAP1 POP DUP2 LT ISZERO PUSH2 0xD1F JUMPI DUP5 DUP3 DUP3 DUP2 SLOAD DUP2 LT PUSH2 0xC22 JUMPI PUSH2 0xC21 PUSH2 0x3107 JUMP JUMPDEST JUMPDEST SWAP1 PUSH1 0x0 MSTORE PUSH1 0x20 PUSH1 0x0 KECCAK256 SWAP1 PUSH1 0x7 MUL ADD PUSH1 0x0 ADD SLOAD EQ ISZERO PUSH2 0xD0C JUMPI DUP3 PUSH1 0xFF AND PUSH1 0x9 DUP2 GT ISZERO PUSH2 0xC50 JUMPI PUSH2 0xC4F PUSH2 0x30A9 JUMP JUMPDEST JUMPDEST DUP3 DUP3 DUP2 SLOAD DUP2 LT PUSH2 0xC63 JUMPI PUSH2 0xC62 PUSH2 0x3107 JUMP JUMPDEST JUMPDEST SWAP1 PUSH1 0x0 MSTORE PUSH1 0x20 PUSH1 0x0 KECCAK256 SWAP1 PUSH1 0x7 MUL ADD PUSH1 0x6 ADD PUSH1 0x0 PUSH2 0x100 EXP DUP2 SLOAD DUP2 PUSH1 0xFF MUL NOT AND SWAP1 DUP4 PUSH1 0x9 DUP2 GT ISZERO PUSH2 0xC96 JUMPI PUSH2 0xC95 PUSH2 0x30A9 JUMP JUMPDEST JUMPDEST MUL OR SWAP1 SSTORE POP PUSH32 0x42B0281EF1BA120F08AE315789F8639D48731DB33EAAC502B629A775C997471B DUP5 DUP7 DUP5 DUP5 DUP2 SLOAD DUP2 LT PUSH2 0xCD1 JUMPI PUSH2 0xCD0 PUSH2 0x3107 JUMP JUMPDEST JUMPDEST SWAP1 PUSH1 0x0 MSTORE PUSH1 0x20 PUSH1 0x0 KECCAK256 SWAP1 PUSH1 0x7 MUL ADD PUSH1 0x6 ADD PUSH1 0x0 SWAP1 SLOAD SWAP1 PUSH2 0x100 EXP SWAP1 DIV PUSH1 0xFF AND PUSH1 0x40 MLOAD PUSH2 0xCFF SWAP4 SWAP3 SWAP2 SWAP1 PUSH2 0x2D23 JUMP JUMPDEST PUSH1 0x40 MLOAD DUP1 SWAP2 SUB SWAP1 LOG1 PUSH2 0xD1F JUMP JUMPDEST DUP1 DUP1 PUSH2 0xD17 SWAP1 PUSH2 0x3031 JUMP JUMPDEST SWAP2 POP POP PUSH2 0xC02 JUMP JUMPDEST POP POP POP POP POP JUMP JUMPDEST PUSH1 0x2 PUSH1 0x0 SWAP1 SLOAD SWAP1 PUSH2 0x100 EXP SWAP1 DIV PUSH20 0xFFFFFFFFFFFFFFFFFFFFFFFFFFFFFFFFFFFFFFFF AND PUSH20 0xFFFFFFFFFFFFFFFFFFFFFFFFFFFFFFFFFFFFFFFF AND CALLER PUSH20 0xFFFFFFFFFFFFFFFFFFFFFFFFFFFFFFFFFFFFFFFF AND EQ ISZERO PUSH1 0x40 MLOAD DUP1 PUSH1 0x60 ADD PUSH1 0x40 MSTORE DUP1 PUSH1 0x2F DUP2 MSTORE PUSH1 0x20 ADD PUSH2 0x354B PUSH1 0x2F SWAP2 CODECOPY SWAP1 PUSH2 0xDD2 JUMPI PUSH1 0x40 MLOAD PUSH32 0x8C379A000000000000000000000000000000000000000000000000000000000 DUP2 MSTORE PUSH1 0x4 ADD PUSH2 0xDC9 SWAP2 SWAP1 PUSH2 0x2B40 JUMP JUMPDEST PUSH1 0x40 MLOAD DUP1 SWAP2 SUB SWAP1 REVERT JUMPDEST POP PUSH1 0x0 PUSH1 0x3 PUSH1 0x9 DUP2 GT ISZERO PUSH2 0xDE9 JUMPI PUSH2 0xDE8 PUSH2 0x30A9 JUMP JUMPDEST JUMPDEST DUP3 PUSH1 0xFF AND PUSH1 0x9 DUP2 GT ISZERO PUSH2 0xDFF JUMPI PUSH2 0xDFE PUSH2 0x30A9 JUMP JUMPDEST JUMPDEST PUSH1 0x9 DUP2 GT ISZERO PUSH2 0xE11 JUMPI PUSH2 0xE10 PUSH2 0x30A9 JUMP JUMPDEST JUMPDEST EQ ISZERO PUSH1 0x40 MLOAD DUP1 PUSH1 0x60 ADD PUSH1 0x40 MSTORE DUP1 PUSH1 0x31 DUP2 MSTORE PUSH1 0x20 ADD PUSH2 0x351A PUSH1 0x31 SWAP2 CODECOPY SWAP1 PUSH2 0xE6D JUMPI PUSH1 0x40 MLOAD PUSH32 0x8C379A000000000000000000000000000000000000000000000000000000000 DUP2 MSTORE PUSH1 0x4 ADD PUSH2 0xE64 SWAP2 SWAP1 PUSH2 0x2B40 JUMP JUMPDEST PUSH1 0x40 MLOAD DUP1 SWAP2 SUB SWAP1 REVERT JUMPDEST POP PUSH1 0x5 PUSH1 0x9 DUP2 GT ISZERO PUSH2 0xE82 JUMPI PUSH2 0xE81 PUSH2 0x30A9 JUMP JUMPDEST JUMPDEST DUP3 PUSH1 0xFF AND PUSH1 0x9 DUP2 GT ISZERO PUSH2 0xE98 JUMPI PUSH2 0xE97 PUSH2 0x30A9 JUMP JUMPDEST JUMPDEST PUSH1 0x9 DUP2 GT ISZERO PUSH2 0xEAA JUMPI PUSH2 0xEA9 PUSH2 0x30A9 JUMP JUMPDEST JUMPDEST EQ ISZERO PUSH1 0x40 MLOAD DUP1 PUSH1 0x60 ADD PUSH1 0x40 MSTORE DUP1 PUSH1 0x31 DUP2 MSTORE PUSH1 0x20 ADD PUSH2 0x351A PUSH1 0x31 SWAP2 CODECOPY SWAP1 PUSH2 0xF06 JUMPI PUSH1 0x40 MLOAD PUSH32 0x8C379A000000000000000000000000000000000000000000000000000000000 DUP2 MSTORE PUSH1 0x4 ADD PUSH2 0xEFD SWAP2 SWAP1 PUSH2 0x2B40 JUMP JUMPDEST PUSH1 0x40 MLOAD DUP1 SWAP2 SUB SWAP1 REVERT JUMPDEST POP PUSH1 0x6 PUSH1 0x9 DUP2 GT ISZERO PUSH2 0xF1B JUMPI PUSH2 0xF1A PUSH2 0x30A9 JUMP JUMPDEST JUMPDEST DUP3 PUSH1 0xFF AND PUSH1 0x9 DUP2 GT ISZERO PUSH2 0xF31 JUMPI PUSH2 0xF30 PUSH2 0x30A9 JUMP JUMPDEST JUMPDEST PUSH1 0x9 DUP2 GT ISZERO PUSH2 0xF43 JUMPI PUSH2 0xF42 PUSH2 0x30A9 JUMP JUMPDEST JUMPDEST EQ ISZERO PUSH1 0x40 MLOAD DUP1 PUSH1 0x60 ADD PUSH1 0x40 MSTORE DUP1 PUSH1 0x31 DUP2 MSTORE PUSH1 0x20 ADD PUSH2 0x351A PUSH1 0x31 SWAP2 CODECOPY SWAP1 PUSH2 0xF9F JUMPI PUSH1 0x40 MLOAD PUSH32 0x8C379A000000000000000000000000000000000000000000000000000000000 DUP2 MSTORE PUSH1 0x4 ADD PUSH2 0xF96 SWAP2 SWAP1 PUSH2 0x2B40 JUMP JUMPDEST PUSH1 0x40 MLOAD DUP1 SWAP2 SUB SWAP1 REVERT JUMPDEST POP PUSH1 0x0 PUSH1 0x4 PUSH1 0x0 DUP6 DUP2 MSTORE PUSH1 0x20 ADD SWAP1 DUP2 MSTORE PUSH1 0x20 ADD PUSH1 0x0 KECCAK256 SWAP1 POP PUSH1 0x0 DUP2 DUP1 SLOAD SWAP1 POP GT PUSH2 0xFFE JUMPI PUSH1 0x40 MLOAD PUSH32 0x8C379A000000000000000000000000000000000000000000000000000000000 DUP2 MSTORE PUSH1 0x4 ADD PUSH2 0xFF5 SWAP1 PUSH2 0x2BE2 JUMP JUMPDEST PUSH1 0x40 MLOAD DUP1 SWAP2 SUB SWAP1 REVERT JUMPDEST PUSH1 0x0 JUMPDEST DUP2 DUP1 SLOAD SWAP1 POP DUP2 LT ISZERO PUSH2 0x12DB JUMPI DUP6 DUP3 DUP3 DUP2 SLOAD DUP2 LT PUSH2 0x1021 JUMPI PUSH2 0x1020 PUSH2 0x3107 JUMP JUMPDEST JUMPDEST SWAP1 PUSH1 0x0 MSTORE PUSH1 0x20 PUSH1 0x0 KECCAK256 SWAP1 PUSH1 0x7 MUL ADD PUSH1 0x0 ADD SLOAD EQ ISZERO PUSH2 0x12BD JUMPI PUSH1 0x1 SWAP3 POP PUSH1 0x0 DUP3 DUP3 DUP2 SLOAD DUP2 LT PUSH2 0x1052 JUMPI PUSH2 0x1051 PUSH2 0x3107 JUMP JUMPDEST JUMPDEST SWAP1 PUSH1 0x0 MSTORE PUSH1 0x20 PUSH1 0x0 KECCAK256 SWAP1 PUSH1 0x7 MUL ADD PUSH1 0x4 ADD PUSH1 0x14 PUSH2 0x100 EXP DUP2 SLOAD DUP2 PUSH1 0xFF MUL NOT AND SWAP1 DUP4 ISZERO ISZERO MUL OR SWAP1 SSTORE POP PUSH1 0x7 PUSH1 0x9 DUP2 GT ISZERO PUSH2 0x108E JUMPI PUSH2 0x108D PUSH2 0x30A9 JUMP JUMPDEST JUMPDEST DUP5 PUSH1 0xFF AND PUSH1 0x9 DUP2 GT ISZERO PUSH2 0x10A4 JUMPI PUSH2 0x10A3 PUSH2 0x30A9 JUMP JUMPDEST JUMPDEST PUSH1 0x9 DUP2 GT ISZERO PUSH2 0x10B6 JUMPI PUSH2 0x10B5 PUSH2 0x30A9 JUMP JUMPDEST JUMPDEST EQ DUP1 PUSH2 0x10FB JUMPI POP PUSH1 0x6 PUSH1 0x9 DUP2 GT ISZERO PUSH2 0x10D1 JUMPI PUSH2 0x10D0 PUSH2 0x30A9 JUMP JUMPDEST JUMPDEST DUP5 PUSH1 0xFF AND PUSH1 0x9 DUP2 GT ISZERO PUSH2 0x10E7 JUMPI PUSH2 0x10E6 PUSH2 0x30A9 JUMP JUMPDEST JUMPDEST PUSH1 0x9 DUP2 GT ISZERO PUSH2 0x10F9 JUMPI PUSH2 0x10F8 PUSH2 0x30A9 JUMP JUMPDEST JUMPDEST EQ JUMPDEST ISZERO PUSH2 0x11DB JUMPI PUSH32 0x2DE098063448DBE8B26FA82794CD68CF748EDB4F3E2CC43166E3AD659757019E DUP6 DUP8 DUP7 PUSH1 0xFF AND PUSH1 0x9 DUP2 GT ISZERO PUSH2 0x1139 JUMPI PUSH2 0x1138 PUSH2 0x30A9 JUMP JUMPDEST JUMPDEST PUSH1 0x40 MLOAD PUSH2 0x1148 SWAP4 SWAP3 SWAP2 SWAP1 PUSH2 0x2D23 JUMP JUMPDEST PUSH1 0x40 MLOAD DUP1 SWAP2 SUB SWAP1 LOG1 PUSH1 0x7 PUSH1 0x9 DUP2 GT ISZERO PUSH2 0x1164 JUMPI PUSH2 0x1163 PUSH2 0x30A9 JUMP JUMPDEST JUMPDEST DUP5 PUSH1 0xFF AND PUSH1 0x9 DUP2 GT ISZERO PUSH2 0x117A JUMPI PUSH2 0x1179 PUSH2 0x30A9 JUMP JUMPDEST JUMPDEST PUSH1 0x9 DUP2 GT ISZERO PUSH2 0x118C JUMPI PUSH2 0x118B PUSH2 0x30A9 JUMP JUMPDEST JUMPDEST EQ ISZERO PUSH2 0x1197 JUMPI PUSH2 0x11D6 JUMP JUMPDEST PUSH1 0x6 PUSH1 0x9 DUP2 GT ISZERO PUSH2 0x11AB JUMPI PUSH2 0x11AA PUSH2 0x30A9 JUMP JUMPDEST JUMPDEST DUP5 PUSH1 0xFF AND PUSH1 0x9 DUP2 GT ISZERO PUSH2 0x11C1 JUMPI PUSH2 0x11C0 PUSH2 0x30A9 JUMP JUMPDEST JUMPDEST PUSH1 0x9 DUP2 GT ISZERO PUSH2 0x11D3 JUMPI PUSH2 0x11D2 PUSH2 0x30A9 JUMP JUMPDEST JUMPDEST POP POP JUMPDEST PUSH2 0x12BC JUMP JUMPDEST DUP4 PUSH1 0xFF AND PUSH1 0x9 DUP2 GT ISZERO PUSH2 0x11F1 JUMPI PUSH2 0x11F0 PUSH2 0x30A9 JUMP JUMPDEST JUMPDEST DUP3 DUP3 DUP2 SLOAD DUP2 LT PUSH2 0x1204 JUMPI PUSH2 0x1203 PUSH2 0x3107 JUMP JUMPDEST JUMPDEST SWAP1 PUSH1 0x0 MSTORE PUSH1 0x20 PUSH1 0x0 KECCAK256 SWAP1 PUSH1 0x7 MUL ADD PUSH1 0x6 ADD PUSH1 0x0 PUSH2 0x100 EXP DUP2 SLOAD DUP2 PUSH1 0xFF MUL NOT AND SWAP1 DUP4 PUSH1 0x9 DUP2 GT ISZERO PUSH2 0x1237 JUMPI PUSH2 0x1236 PUSH2 0x30A9 JUMP JUMPDEST JUMPDEST MUL OR SWAP1 SSTORE POP PUSH1 0x4 PUSH1 0x9 DUP2 GT ISZERO PUSH2 0x1250 JUMPI PUSH2 0x124F PUSH2 0x30A9 JUMP JUMPDEST JUMPDEST DUP5 PUSH1 0xFF AND PUSH1 0x9 DUP2 GT ISZERO PUSH2 0x1266 JUMPI PUSH2 0x1265 PUSH2 0x30A9 JUMP JUMPDEST JUMPDEST PUSH1 0x9 DUP2 GT ISZERO PUSH2 0x1278 JUMPI PUSH2 0x1277 PUSH2 0x30A9 JUMP JUMPDEST JUMPDEST EQ ISZERO PUSH2 0x12BB JUMPI PUSH32 0xD49FC9FA26FA9FC112EFD004ACB9EEABF80810373D2CBB1A7884D4D64E8E8D2B DUP6 DUP8 PUSH1 0x4 PUSH1 0x40 MLOAD PUSH2 0x12B2 SWAP4 SWAP3 SWAP2 SWAP1 PUSH2 0x2D23 JUMP JUMPDEST PUSH1 0x40 MLOAD DUP1 SWAP2 SUB SWAP1 LOG1 JUMPDEST JUMPDEST JUMPDEST DUP3 ISZERO PUSH2 0x12C8 JUMPI PUSH2 0x12DB JUMP JUMPDEST DUP1 DUP1 PUSH2 0x12D3 SWAP1 PUSH2 0x3031 JUMP JUMPDEST SWAP2 POP POP PUSH2 0x1001 JUMP JUMPDEST POP POP POP POP POP POP JUMP JUMPDEST PUSH1 0x2 PUSH1 0x0 SWAP1 SLOAD SWAP1 PUSH2 0x100 EXP SWAP1 DIV PUSH20 0xFFFFFFFFFFFFFFFFFFFFFFFFFFFFFFFFFFFFFFFF AND PUSH20 0xFFFFFFFFFFFFFFFFFFFFFFFFFFFFFFFFFFFFFFFF AND CALLER PUSH20 0xFFFFFFFFFFFFFFFFFFFFFFFFFFFFFFFFFFFFFFFF AND EQ ISZERO PUSH1 0x40 MLOAD DUP1 PUSH1 0x60 ADD PUSH1 0x40 MSTORE DUP1 PUSH1 0x2F DUP2 MSTORE PUSH1 0x20 ADD PUSH2 0x354B PUSH1 0x2F SWAP2 CODECOPY SWAP1 PUSH2 0x138F JUMPI PUSH1 0x40 MLOAD PUSH32 0x8C379A000000000000000000000000000000000000000000000000000000000 DUP2 MSTORE PUSH1 0x4 ADD PUSH2 0x1386 SWAP2 SWAP1 PUSH2 0x2B40 JUMP JUMPDEST PUSH1 0x40 MLOAD DUP1 SWAP2 SUB SWAP1 REVERT JUMPDEST POP PUSH1 0x5 PUSH1 0x0 DUP7 DUP2 MSTORE PUSH1 0x20 ADD SWAP1 DUP2 MSTORE PUSH1 0x20 ADD PUSH1 0x0 KECCAK256 PUSH1 0x0 SWAP1 SLOAD SWAP1 PUSH2 0x100 EXP SWAP1 DIV PUSH1 0xFF AND PUSH2 0x13F0 JUMPI PUSH1 0x40 MLOAD PUSH32 0x8C379A000000000000000000000000000000000000000000000000000000000 DUP2 MSTORE PUSH1 0x4 ADD PUSH2 0x13E7 SWAP1 PUSH2 0x2C02 JUMP JUMPDEST PUSH1 0x40 MLOAD DUP1 SWAP2 SUB SWAP1 REVERT JUMPDEST PUSH1 0x0 PUSH1 0x40 MLOAD DUP1 PUSH2 0x100 ADD PUSH1 0x40 MSTORE DUP1 DUP7 DUP2 MSTORE PUSH1 0x20 ADD PUSH3 0xF4240 DUP2 MSTORE PUSH1 0x20 ADD DUP6 DUP2 MSTORE PUSH1 0x20 ADD PUSH1 0x0 DUP2 MSTORE PUSH1 0x20 ADD DUP5 PUSH20 0xFFFFFFFFFFFFFFFFFFFFFFFFFFFFFFFFFFFFFFFF AND DUP2 MSTORE PUSH1 0x20 ADD PUSH1 0x1 ISZERO ISZERO DUP2 MSTORE PUSH1 0x20 ADD DUP4 DUP2 MSTORE PUSH1 0x20 ADD PUSH1 0x2 PUSH1 0x9 DUP2 GT ISZERO PUSH2 0x1459 JUMPI PUSH2 0x1458 PUSH2 0x30A9 JUMP JUMPDEST JUMPDEST DUP2 MSTORE POP SWAP1 POP PUSH1 0x0 DUP2 SWAP1 DUP1 PUSH1 0x1 DUP2 SLOAD ADD DUP1 DUP3 SSTORE DUP1 SWAP2 POP POP PUSH1 0x1 SWAP1 SUB SWAP1 PUSH1 0x0 MSTORE PUSH1 0x20 PUSH1 0x0 KECCAK256 SWAP1 PUSH1 0x7 MUL ADD PUSH1 0x0 SWAP1 SWAP2 SWAP1 SWAP2 SWAP1 SWAP2 POP PUSH1 0x0 DUP3 ADD MLOAD DUP2 PUSH1 0x0 ADD SSTORE PUSH1 0x20 DUP3 ADD MLOAD DUP2 PUSH1 0x1 ADD SSTORE PUSH1 0x40 DUP3 ADD MLOAD DUP2 PUSH1 0x2 ADD SSTORE PUSH1 0x60 DUP3 ADD MLOAD DUP2 PUSH1 0x3 ADD SSTORE PUSH1 0x80 DUP3 ADD MLOAD DUP2 PUSH1 0x4 ADD PUSH1 0x0 PUSH2 0x100 EXP DUP2 SLOAD DUP2 PUSH20 0xFFFFFFFFFFFFFFFFFFFFFFFFFFFFFFFFFFFFFFFF MUL NOT AND SWAP1 DUP4 PUSH20 0xFFFFFFFFFFFFFFFFFFFFFFFFFFFFFFFFFFFFFFFF AND MUL OR SWAP1 SSTORE POP PUSH1 0xA0 DUP3 ADD MLOAD DUP2 PUSH1 0x4 ADD PUSH1 0x14 PUSH2 0x100 EXP DUP2 SLOAD DUP2 PUSH1 0xFF MUL NOT AND SWAP1 DUP4 ISZERO ISZERO MUL OR SWAP1 SSTORE POP PUSH1 0xC0 DUP3 ADD MLOAD DUP2 PUSH1 0x5 ADD SWAP1 DUP1 MLOAD SWAP1 PUSH1 0x20 ADD SWAP1 PUSH2 0x1535 SWAP3 SWAP2 SWAP1 PUSH2 0x250B JUMP JUMPDEST POP PUSH1 0xE0 DUP3 ADD MLOAD DUP2 PUSH1 0x6 ADD PUSH1 0x0 PUSH2 0x100 EXP DUP2 SLOAD DUP2 PUSH1 0xFF MUL NOT AND SWAP1 DUP4 PUSH1 0x9 DUP2 GT ISZERO PUSH2 0x1561 JUMPI PUSH2 0x1560 PUSH2 0x30A9 JUMP JUMPDEST JUMPDEST MUL OR SWAP1 SSTORE POP POP POP PUSH1 0x4 PUSH1 0x0 DUP8 DUP2 MSTORE PUSH1 0x20 ADD SWAP1 DUP2 MSTORE PUSH1 0x20 ADD PUSH1 0x0 KECCAK256 DUP2 SWAP1 DUP1 PUSH1 0x1 DUP2 SLOAD ADD DUP1 DUP3 SSTORE DUP1 SWAP2 POP POP PUSH1 0x1 SWAP1 SUB SWAP1 PUSH1 0x0 MSTORE PUSH1 0x20 PUSH1 0x0 KECCAK256 SWAP1 PUSH1 0x7 MUL ADD PUSH1 0x0 SWAP1 SWAP2 SWAP1 SWAP2 SWAP1 SWAP2 POP PUSH1 0x0 DUP3 ADD MLOAD DUP2 PUSH1 0x0 ADD SSTORE PUSH1 0x20 DUP3 ADD MLOAD DUP2 PUSH1 0x1 ADD SSTORE PUSH1 0x40 DUP3 ADD MLOAD DUP2 PUSH1 0x2 ADD SSTORE PUSH1 0x60 DUP3 ADD MLOAD DUP2 PUSH1 0x3 ADD SSTORE PUSH1 0x80 DUP3 ADD MLOAD DUP2 PUSH1 0x4 ADD PUSH1 0x0 PUSH2 0x100 EXP DUP2 SLOAD DUP2 PUSH20 0xFFFFFFFFFFFFFFFFFFFFFFFFFFFFFFFFFFFFFFFF MUL NOT AND SWAP1 DUP4 PUSH20 0xFFFFFFFFFFFFFFFFFFFFFFFFFFFFFFFFFFFFFFFF AND MUL OR SWAP1 SSTORE POP PUSH1 0xA0 DUP3 ADD MLOAD DUP2 PUSH1 0x4 ADD PUSH1 0x14 PUSH2 0x100 EXP DUP2 SLOAD DUP2 PUSH1 0xFF MUL NOT AND SWAP1 DUP4 ISZERO ISZERO MUL OR SWAP1 SSTORE POP PUSH1 0xC0 DUP3 ADD MLOAD DUP2 PUSH1 0x5 ADD SWAP1 DUP1 MLOAD SWAP1 PUSH1 0x20 ADD SWAP1 PUSH2 0x1650 SWAP3 SWAP2 SWAP1 PUSH2 0x250B JUMP JUMPDEST POP PUSH1 0xE0 DUP3 ADD MLOAD DUP2 PUSH1 0x6 ADD PUSH1 0x0 PUSH2 0x100 EXP DUP2 SLOAD DUP2 PUSH1 0xFF MUL NOT AND SWAP1 DUP4 PUSH1 0x9 DUP2 GT ISZERO PUSH2 0x167C JUMPI PUSH2 0x167B PUSH2 0x30A9 JUMP JUMPDEST JUMPDEST MUL OR SWAP1 SSTORE POP POP POP POP POP POP POP POP POP JUMP JUMPDEST PUSH1 0x2 PUSH1 0x0 SWAP1 SLOAD SWAP1 PUSH2 0x100 EXP SWAP1 DIV PUSH20 0xFFFFFFFFFFFFFFFFFFFFFFFFFFFFFFFFFFFFFFFF AND PUSH20 0xFFFFFFFFFFFFFFFFFFFFFFFFFFFFFFFFFFFFFFFF AND CALLER PUSH20 0xFFFFFFFFFFFFFFFFFFFFFFFFFFFFFFFFFFFFFFFF AND EQ PUSH1 0x40 MLOAD DUP1 PUSH1 0x60 ADD PUSH1 0x40 MSTORE DUP1 PUSH1 0x33 DUP2 MSTORE PUSH1 0x20 ADD PUSH2 0x34E7 PUSH1 0x33 SWAP2 CODECOPY SWAP1 PUSH2 0x1736 JUMPI PUSH1 0x40 MLOAD PUSH32 0x8C379A000000000000000000000000000000000000000000000000000000000 DUP2 MSTORE PUSH1 0x4 ADD PUSH2 0x172D SWAP2 SWAP1 PUSH2 0x2B40 JUMP JUMPDEST PUSH1 0x40 MLOAD DUP1 SWAP2 SUB SWAP1 REVERT JUMPDEST POP PUSH1 0x0 PUSH1 0x1 DUP4 DUP2 SLOAD DUP2 LT PUSH2 0x174D JUMPI PUSH2 0x174C PUSH2 0x3107 JUMP JUMPDEST JUMPDEST SWAP1 PUSH1 0x0 MSTORE PUSH1 0x20 PUSH1 0x0 KECCAK256 SWAP1 PUSH1 0x5 MUL ADD SWAP1 POP PUSH1 0x1 DUP2 PUSH1 0x1 ADD PUSH1 0x0 PUSH2 0x100 EXP DUP2 SLOAD DUP2 PUSH1 0xFF MUL NOT AND SWAP1 DUP4 ISZERO ISZERO MUL OR SWAP1 SSTORE POP PUSH1 0x1 PUSH1 0x5 PUSH1 0x0 DUP5 DUP2 MSTORE PUSH1 0x20 ADD SWAP1 DUP2 MSTORE PUSH1 0x20 ADD PUSH1 0x0 KECCAK256 PUSH1 0x0 PUSH2 0x100 EXP DUP2 SLOAD DUP2 PUSH1 0xFF MUL NOT AND SWAP1 DUP4 ISZERO ISZERO MUL OR SWAP1 SSTORE POP POP POP POP JUMP JUMPDEST PUSH1 0x60 PUSH1 0x0 PUSH1 0x4 PUSH1 0x0 DUP6 DUP2 MSTORE PUSH1 0x20 ADD SWAP1 DUP2 MSTORE PUSH1 0x20 ADD PUSH1 0x0 KECCAK256 SWAP1 POP PUSH1 0x0 DUP2 DUP1 SLOAD SWAP1 POP GT PUSH2 0x180B JUMPI PUSH1 0x40 MLOAD PUSH32 0x8C379A000000000000000000000000000000000000000000000000000000000 DUP2 MSTORE PUSH1 0x4 ADD PUSH2 0x1802 SWAP1 PUSH2 0x2B62 JUMP JUMPDEST PUSH1 0x40 MLOAD DUP1 SWAP2 SUB SWAP1 REVERT JUMPDEST PUSH1 0x0 JUMPDEST DUP2 DUP1 SLOAD SWAP1 POP DUP2 LT ISZERO PUSH2 0x1953 JUMPI DUP4 DUP3 DUP3 DUP2 SLOAD DUP2 LT PUSH2 0x182E JUMPI PUSH2 0x182D PUSH2 0x3107 JUMP JUMPDEST JUMPDEST SWAP1 PUSH1 0x0 MSTORE PUSH1 0x20 PUSH1 0x0 KECCAK256 SWAP1 PUSH1 0x7 MUL ADD PUSH1 0x0 ADD SLOAD EQ ISZERO PUSH2 0x1940 JUMPI PUSH1 0x7 PUSH1 0x0 DUP4 DUP4 DUP2 SLOAD DUP2 LT PUSH2 0x185D JUMPI PUSH2 0x185C PUSH2 0x3107 JUMP JUMPDEST JUMPDEST SWAP1 PUSH1 0x0 MSTORE PUSH1 0x20 PUSH1 0x0 KECCAK256 SWAP1 PUSH1 0x7 MUL ADD PUSH1 0x6 ADD PUSH1 0x0 SWAP1 SLOAD SWAP1 PUSH2 0x100 EXP SWAP1 DIV PUSH1 0xFF AND PUSH1 0x9 DUP2 GT ISZERO PUSH2 0x188E JUMPI PUSH2 0x188D PUSH2 0x30A9 JUMP JUMPDEST JUMPDEST PUSH1 0x9 DUP2 GT ISZERO PUSH2 0x18A0 JUMPI PUSH2 0x189F PUSH2 0x30A9 JUMP JUMPDEST JUMPDEST DUP2 MSTORE PUSH1 0x20 ADD SWAP1 DUP2 MSTORE PUSH1 0x20 ADD PUSH1 0x0 KECCAK256 DUP1 SLOAD PUSH2 0x18B9 SWAP1 PUSH2 0x2FCE JUMP JUMPDEST DUP1 PUSH1 0x1F ADD PUSH1 0x20 DUP1 SWAP2 DIV MUL PUSH1 0x20 ADD PUSH1 0x40 MLOAD SWAP1 DUP2 ADD PUSH1 0x40 MSTORE DUP1 SWAP3 SWAP2 SWAP1 DUP2 DUP2 MSTORE PUSH1 0x20 ADD DUP3 DUP1 SLOAD PUSH2 0x18E5 SWAP1 PUSH2 0x2FCE JUMP JUMPDEST DUP1 ISZERO PUSH2 0x1932 JUMPI DUP1 PUSH1 0x1F LT PUSH2 0x1907 JUMPI PUSH2 0x100 DUP1 DUP4 SLOAD DIV MUL DUP4 MSTORE SWAP2 PUSH1 0x20 ADD SWAP2 PUSH2 0x1932 JUMP JUMPDEST DUP3 ADD SWAP2 SWAP1 PUSH1 0x0 MSTORE PUSH1 0x20 PUSH1 0x0 KECCAK256 SWAP1 JUMPDEST DUP2 SLOAD DUP2 MSTORE SWAP1 PUSH1 0x1 ADD SWAP1 PUSH1 0x20 ADD DUP1 DUP4 GT PUSH2 0x1915 JUMPI DUP3 SWAP1 SUB PUSH1 0x1F AND DUP3 ADD SWAP2 JUMPDEST POP POP POP POP POP SWAP3 POP POP POP PUSH2 0x198F JUMP JUMPDEST DUP1 DUP1 PUSH2 0x194B SWAP1 PUSH2 0x3031 JUMP JUMPDEST SWAP2 POP POP PUSH2 0x180E JUMP JUMPDEST POP PUSH1 0x40 MLOAD PUSH32 0x8C379A000000000000000000000000000000000000000000000000000000000 DUP2 MSTORE PUSH1 0x4 ADD PUSH2 0x1986 SWAP1 PUSH2 0x2C82 JUMP JUMPDEST PUSH1 0x40 MLOAD DUP1 SWAP2 SUB SWAP1 REVERT JUMPDEST SWAP3 SWAP2 POP POP JUMP JUMPDEST PUSH1 0x0 PUSH1 0x4 PUSH1 0x0 DUP6 DUP2 MSTORE PUSH1 0x20 ADD SWAP1 DUP2 MSTORE PUSH1 0x20 ADD PUSH1 0x0 KECCAK256 SWAP1 POP PUSH1 0x0 DUP2 DUP1 SLOAD SWAP1 POP GT PUSH2 0x19F3 JUMPI PUSH1 0x40 MLOAD PUSH32 0x8C379A000000000000000000000000000000000000000000000000000000000 DUP2 MSTORE PUSH1 0x4 ADD PUSH2 0x19EA SWAP1 PUSH2 0x2B62 JUMP JUMPDEST PUSH1 0x40 MLOAD DUP1 SWAP2 SUB SWAP1 REVERT JUMPDEST PUSH1 0x0 PUSH1 0x3 PUSH1 0x0 DUP5 DUP2 MSTORE PUSH1 0x20 ADD SWAP1 DUP2 MSTORE PUSH1 0x20 ADD PUSH1 0x0 KECCAK256 SWAP1 POP CALLER PUSH20 0xFFFFFFFFFFFFFFFFFFFFFFFFFFFFFFFFFFFFFFFF AND DUP2 PUSH1 0x1 ADD PUSH1 0x0 SWAP1 SLOAD SWAP1 PUSH2 0x100 EXP SWAP1 DIV PUSH20 0xFFFFFFFFFFFFFFFFFFFFFFFFFFFFFFFFFFFFFFFF AND PUSH20 0xFFFFFFFFFFFFFFFFFFFFFFFFFFFFFFFFFFFFFFFF AND EQ DUP1 ISZERO PUSH2 0x1A7E JUMPI POP PUSH1 0x0 DUP2 PUSH1 0x2 ADD PUSH1 0x0 DUP7 DUP2 MSTORE PUSH1 0x20 ADD SWAP1 DUP2 MSTORE PUSH1 0x20 ADD PUSH1 0x0 KECCAK256 SLOAD GT JUMPDEST ISZERO PUSH2 0x1D08 JUMPI PUSH1 0x0 JUMPDEST DUP3 DUP1 SLOAD SWAP1 POP DUP2 LT ISZERO PUSH2 0x1C8B JUMPI DUP5 DUP4 DUP3 DUP2 SLOAD DUP2 LT PUSH2 0x1AA6 JUMPI PUSH2 0x1AA5 PUSH2 0x3107 JUMP JUMPDEST JUMPDEST SWAP1 PUSH1 0x0 MSTORE PUSH1 0x20 PUSH1 0x0 KECCAK256 SWAP1 PUSH1 0x7 MUL ADD PUSH1 0x0 ADD SLOAD EQ ISZERO PUSH2 0x1C3D JUMPI PUSH1 0x3 PUSH1 0x9 DUP2 GT ISZERO PUSH2 0x1AD2 JUMPI PUSH2 0x1AD1 PUSH2 0x30A9 JUMP JUMPDEST JUMPDEST DUP4 DUP3 DUP2 SLOAD DUP2 LT PUSH2 0x1AE5 JUMPI PUSH2 0x1AE4 PUSH2 0x3107 JUMP JUMPDEST JUMPDEST SWAP1 PUSH1 0x0 MSTORE PUSH1 0x20 PUSH1 0x0 KECCAK256 SWAP1 PUSH1 0x7 MUL ADD PUSH1 0x6 ADD PUSH1 0x0 SWAP1 SLOAD SWAP1 PUSH2 0x100 EXP SWAP1 DIV PUSH1 0xFF AND PUSH1 0x9 DUP2 GT ISZERO PUSH2 0x1B16 JUMPI PUSH2 0x1B15 PUSH2 0x30A9 JUMP JUMPDEST JUMPDEST GT ISZERO PUSH2 0x1B57 JUMPI PUSH1 0x40 MLOAD PUSH32 0x8C379A000000000000000000000000000000000000000000000000000000000 DUP2 MSTORE PUSH1 0x4 ADD PUSH2 0x1B4E SWAP1 PUSH2 0x2BC2 JUMP JUMPDEST PUSH1 0x40 MLOAD DUP1 SWAP2 SUB SWAP1 REVERT JUMPDEST DUP2 PUSH1 0x2 ADD PUSH1 0x0 DUP7 DUP2 MSTORE PUSH1 0x20 ADD SWAP1 DUP2 MSTORE PUSH1 0x20 ADD PUSH1 0x0 KECCAK256 SLOAD DUP4 DUP3 DUP2 SLOAD DUP2 LT PUSH2 0x1B80 JUMPI PUSH2 0x1B7F PUSH2 0x3107 JUMP JUMPDEST JUMPDEST SWAP1 PUSH1 0x0 MSTORE PUSH1 0x20 PUSH1 0x0 KECCAK256 SWAP1 PUSH1 0x7 MUL ADD PUSH1 0x3 ADD SLOAD PUSH2 0x1B9C SWAP2 SWAP1 PUSH2 0x2EDE JUMP JUMPDEST DUP4 DUP3 DUP2 SLOAD DUP2 LT PUSH2 0x1BAF JUMPI PUSH2 0x1BAE PUSH2 0x3107 JUMP JUMPDEST JUMPDEST SWAP1 PUSH1 0x0 MSTORE PUSH1 0x20 PUSH1 0x0 KECCAK256 SWAP1 PUSH1 0x7 MUL ADD PUSH1 0x3 ADD DUP2 SWAP1 SSTORE POP DUP3 DUP2 DUP2 SLOAD DUP2 LT PUSH2 0x1BD7 JUMPI PUSH2 0x1BD6 PUSH2 0x3107 JUMP JUMPDEST JUMPDEST SWAP1 PUSH1 0x0 MSTORE PUSH1 0x20 PUSH1 0x0 KECCAK256 SWAP1 PUSH1 0x7 MUL ADD PUSH1 0x4 ADD PUSH1 0x14 SWAP1 SLOAD SWAP1 PUSH2 0x100 EXP SWAP1 DIV PUSH1 0xFF AND PUSH2 0x1C38 JUMPI PUSH1 0x1 DUP4 DUP3 DUP2 SLOAD DUP2 LT PUSH2 0x1C0F JUMPI PUSH2 0x1C0E PUSH2 0x3107 JUMP JUMPDEST JUMPDEST SWAP1 PUSH1 0x0 MSTORE PUSH1 0x20 PUSH1 0x0 KECCAK256 SWAP1 PUSH1 0x7 MUL ADD PUSH1 0x4 ADD PUSH1 0x14 PUSH2 0x100 EXP DUP2 SLOAD DUP2 PUSH1 0xFF MUL NOT AND SWAP1 DUP4 ISZERO ISZERO MUL OR SWAP1 SSTORE POP JUMPDEST PUSH2 0x1C78 JUMP JUMPDEST PUSH1 0x40 MLOAD PUSH32 0x8C379A000000000000000000000000000000000000000000000000000000000 DUP2 MSTORE PUSH1 0x4 ADD PUSH2 0x1C6F SWAP1 PUSH2 0x2C62 JUMP JUMPDEST PUSH1 0x40 MLOAD DUP1 SWAP2 SUB SWAP1 REVERT JUMPDEST DUP1 DUP1 PUSH2 0x1C83 SWAP1 PUSH2 0x3031 JUMP JUMPDEST SWAP2 POP POP PUSH2 0x1A86 JUMP JUMPDEST POP CALLER PUSH20 0xFFFFFFFFFFFFFFFFFFFFFFFFFFFFFFFFFFFFFFFF AND PUSH2 0x8FC DUP3 PUSH1 0x2 ADD PUSH1 0x0 DUP8 DUP2 MSTORE PUSH1 0x20 ADD SWAP1 DUP2 MSTORE PUSH1 0x20 ADD PUSH1 0x0 KECCAK256 SLOAD SWAP1 DUP2 ISZERO MUL SWAP1 PUSH1 0x40 MLOAD PUSH1 0x0 PUSH1 0x40 MLOAD DUP1 DUP4 SUB DUP2 DUP6 DUP9 DUP9 CALL SWAP4 POP POP POP POP ISZERO DUP1 ISZERO PUSH2 0x1CE7 JUMPI RETURNDATASIZE PUSH1 0x0 DUP1 RETURNDATACOPY RETURNDATASIZE PUSH1 0x0 REVERT JUMPDEST POP PUSH1 0x0 DUP2 PUSH1 0x2 ADD PUSH1 0x0 DUP7 DUP2 MSTORE PUSH1 0x20 ADD SWAP1 DUP2 MSTORE PUSH1 0x20 ADD PUSH1 0x0 KECCAK256 DUP2 SWAP1 SSTORE POP PUSH2 0x1D43 JUMP JUMPDEST PUSH1 0x40 MLOAD PUSH32 0x8C379A000000000000000000000000000000000000000000000000000000000 DUP2 MSTORE PUSH1 0x4 ADD PUSH2 0x1D3A SWAP1 PUSH2 0x2B82 JUMP JUMPDEST PUSH1 0x40 MLOAD DUP1 SWAP2 SUB SWAP1 REVERT JUMPDEST POP POP POP POP POP JUMP JUMPDEST PUSH1 0x2 PUSH1 0x0 SWAP1 SLOAD SWAP1 PUSH2 0x100 EXP SWAP1 DIV PUSH20 0xFFFFFFFFFFFFFFFFFFFFFFFFFFFFFFFFFFFFFFFF AND DUP2 JUMP JUMPDEST PUSH1 0x2 PUSH1 0x0 SWAP1 SLOAD SWAP1 PUSH2 0x100 EXP SWAP1 DIV PUSH20 0xFFFFFFFFFFFFFFFFFFFFFFFFFFFFFFFFFFFFFFFF AND PUSH20 0xFFFFFFFFFFFFFFFFFFFFFFFFFFFFFFFFFFFFFFFF AND CALLER PUSH20 0xFFFFFFFFFFFFFFFFFFFFFFFFFFFFFFFFFFFFFFFF AND EQ PUSH1 0x40 MLOAD DUP1 PUSH1 0x60 ADD PUSH1 0x40 MSTORE DUP1 PUSH1 0x33 DUP2 MSTORE PUSH1 0x20 ADD PUSH2 0x34E7 PUSH1 0x33 SWAP2 CODECOPY SWAP1 PUSH2 0x1E1B JUMPI PUSH1 0x40 MLOAD PUSH32 0x8C379A000000000000000000000000000000000000000000000000000000000 DUP2 MSTORE PUSH1 0x4 ADD PUSH2 0x1E12 SWAP2 SWAP1 PUSH2 0x2B40 JUMP JUMPDEST PUSH1 0x40 MLOAD DUP1 SWAP2 SUB SWAP1 REVERT JUMPDEST POP PUSH1 0x0 PUSH1 0x1 DUP4 DUP2 SLOAD DUP2 LT PUSH2 0x1E32 JUMPI PUSH2 0x1E31 PUSH2 0x3107 JUMP JUMPDEST JUMPDEST SWAP1 PUSH1 0x0 MSTORE PUSH1 0x20 PUSH1 0x0 KECCAK256 SWAP1 PUSH1 0x5 MUL ADD SWAP1 POP PUSH1 0x0 DUP2 PUSH1 0x1 ADD PUSH1 0x0 PUSH2 0x100 EXP DUP2 SLOAD DUP2 PUSH1 0xFF MUL NOT AND SWAP1 DUP4 ISZERO ISZERO MUL OR SWAP1 SSTORE POP DUP2 DUP2 PUSH1 0x2 ADD SWAP1 DUP1 MLOAD SWAP1 PUSH1 0x20 ADD SWAP1 PUSH2 0x1E77 SWAP3 SWAP2 SWAP1 PUSH2 0x250B JUMP JUMPDEST POP POP POP POP JUMP JUMPDEST PUSH1 0x7 PUSH1 0x20 MSTORE DUP1 PUSH1 0x0 MSTORE PUSH1 0x40 PUSH1 0x0 KECCAK256 PUSH1 0x0 SWAP2 POP SWAP1 POP DUP1 SLOAD PUSH2 0x1E9C SWAP1 PUSH2 0x2FCE JUMP JUMPDEST DUP1 PUSH1 0x1F ADD PUSH1 0x20 DUP1 SWAP2 DIV MUL PUSH1 0x20 ADD PUSH1 0x40 MLOAD SWAP1 DUP2 ADD PUSH1 0x40 MSTORE DUP1 SWAP3 SWAP2 SWAP1 DUP2 DUP2 MSTORE PUSH1 0x20 ADD DUP3 DUP1 SLOAD PUSH2 0x1EC8 SWAP1 PUSH2 0x2FCE JUMP JUMPDEST DUP1 ISZERO PUSH2 0x1F15 JUMPI DUP1 PUSH1 0x1F LT PUSH2 0x1EEA JUMPI PUSH2 0x100 DUP1 DUP4 SLOAD DIV MUL DUP4 MSTORE SWAP2 PUSH1 0x20 ADD SWAP2 PUSH2 0x1F15 JUMP JUMPDEST DUP3 ADD SWAP2 SWAP1 PUSH1 0x0 MSTORE PUSH1 0x20 PUSH1 0x0 KECCAK256 SWAP1 JUMPDEST DUP2 SLOAD DUP2 MSTORE SWAP1 PUSH1 0x1 ADD SWAP1 PUSH1 0x20 ADD DUP1 DUP4 GT PUSH2 0x1EF8 JUMPI DUP3 SWAP1 SUB PUSH1 0x1F AND DUP3 ADD SWAP2 JUMPDEST POP POP POP POP POP DUP2 JUMP JUMPDEST PUSH1 0x0 DUP1 PUSH1 0x4 PUSH1 0x0 DUP7 DUP2 MSTORE PUSH1 0x20 ADD SWAP1 DUP2 MSTORE PUSH1 0x20 ADD PUSH1 0x0 KECCAK256 SWAP1 POP PUSH1 0x0 DUP2 DUP1 SLOAD SWAP1 POP GT PUSH2 0x1F7C JUMPI PUSH1 0x40 MLOAD PUSH32 0x8C379A000000000000000000000000000000000000000000000000000000000 DUP2 MSTORE PUSH1 0x4 ADD PUSH2 0x1F73 SWAP1 PUSH2 0x2B62 JUMP JUMPDEST PUSH1 0x40 MLOAD DUP1 SWAP2 SUB SWAP1 REVERT JUMPDEST PUSH1 0x0 JUMPDEST DUP2 DUP1 SLOAD SWAP1 POP DUP2 LT ISZERO PUSH2 0x2340 JUMPI DUP5 DUP3 DUP3 DUP2 SLOAD DUP2 LT PUSH2 0x1F9F JUMPI PUSH2 0x1F9E PUSH2 0x3107 JUMP JUMPDEST JUMPDEST SWAP1 PUSH1 0x0 MSTORE PUSH1 0x20 PUSH1 0x0 KECCAK256 SWAP1 PUSH1 0x7 MUL ADD PUSH1 0x0 ADD SLOAD EQ ISZERO PUSH2 0x232D JUMPI DUP2 DUP2 DUP2 SLOAD DUP2 LT PUSH2 0x1FCA JUMPI PUSH2 0x1FC9 PUSH2 0x3107 JUMP JUMPDEST JUMPDEST SWAP1 PUSH1 0x0 MSTORE PUSH1 0x20 PUSH1 0x0 KECCAK256 SWAP1 PUSH1 0x7 MUL ADD PUSH1 0x4 ADD PUSH1 0x14 SWAP1 SLOAD SWAP1 PUSH2 0x100 EXP SWAP1 DIV PUSH1 0xFF AND ISZERO PUSH2 0x22E9 JUMPI DUP2 DUP2 DUP2 SLOAD DUP2 LT PUSH2 0x2001 JUMPI PUSH2 0x2000 PUSH2 0x3107 JUMP JUMPDEST JUMPDEST SWAP1 PUSH1 0x0 MSTORE PUSH1 0x20 PUSH1 0x0 KECCAK256 SWAP1 PUSH1 0x7 MUL ADD PUSH1 0x1 ADD SLOAD CALLVALUE LT ISZERO PUSH2 0x2055 JUMPI PUSH1 0x40 MLOAD PUSH32 0x8C379A000000000000000000000000000000000000000000000000000000000 DUP2 MSTORE PUSH1 0x4 ADD PUSH2 0x204C SWAP1 PUSH2 0x2BA2 JUMP JUMPDEST PUSH1 0x40 MLOAD DUP1 SWAP2 SUB SWAP1 REVERT JUMPDEST CALLVALUE DUP3 DUP3 DUP2 SLOAD DUP2 LT PUSH2 0x2069 JUMPI PUSH2 0x2068 PUSH2 0x3107 JUMP JUMPDEST JUMPDEST SWAP1 PUSH1 0x0 MSTORE PUSH1 0x20 PUSH1 0x0 KECCAK256 SWAP1 PUSH1 0x7 MUL ADD PUSH1 0x3 ADD SLOAD PUSH2 0x2085 SWAP2 SWAP1 PUSH2 0x2E88 JUMP JUMPDEST DUP3 DUP3 DUP2 SLOAD DUP2 LT PUSH2 0x2098 JUMPI PUSH2 0x2097 PUSH2 0x3107 JUMP JUMPDEST JUMPDEST SWAP1 PUSH1 0x0 MSTORE PUSH1 0x20 PUSH1 0x0 KECCAK256 SWAP1 PUSH1 0x7 MUL ADD PUSH1 0x3 ADD DUP2 SWAP1 SSTORE POP PUSH1 0x0 PUSH1 0x3 PUSH1 0x0 DUP7 DUP2 MSTORE PUSH1 0x20 ADD SWAP1 DUP2 MSTORE PUSH1 0x20 ADD PUSH1 0x0 KECCAK256 SWAP1 POP CALLER PUSH20 0xFFFFFFFFFFFFFFFFFFFFFFFFFFFFFFFFFFFFFFFF AND DUP2 PUSH1 0x1 ADD PUSH1 0x0 SWAP1 SLOAD SWAP1 PUSH2 0x100 EXP SWAP1 DIV PUSH20 0xFFFFFFFFFFFFFFFFFFFFFFFFFFFFFFFFFFFFFFFF AND PUSH20 0xFFFFFFFFFFFFFFFFFFFFFFFFFFFFFFFFFFFFFFFF AND EQ ISZERO PUSH2 0x214D JUMPI CALLVALUE DUP2 PUSH1 0x2 ADD PUSH1 0x0 DUP9 DUP2 MSTORE PUSH1 0x20 ADD SWAP1 DUP2 MSTORE PUSH1 0x20 ADD PUSH1 0x0 KECCAK256 PUSH1 0x0 DUP3 DUP3 SLOAD PUSH2 0x2141 SWAP2 SWAP1 PUSH2 0x2E88 JUMP JUMPDEST SWAP3 POP POP DUP2 SWAP1 SSTORE POP PUSH2 0x21CC JUMP JUMPDEST PUSH1 0x0 PUSH1 0x3 PUSH1 0x0 DUP8 DUP2 MSTORE PUSH1 0x20 ADD SWAP1 DUP2 MSTORE PUSH1 0x20 ADD PUSH1 0x0 KECCAK256 SWAP1 POP DUP6 DUP2 PUSH1 0x0 ADD DUP2 SWAP1 SSTORE POP CALLER DUP2 PUSH1 0x1 ADD PUSH1 0x0 PUSH2 0x100 EXP DUP2 SLOAD DUP2 PUSH20 0xFFFFFFFFFFFFFFFFFFFFFFFFFFFFFFFFFFFFFFFF MUL NOT AND SWAP1 DUP4 PUSH20 0xFFFFFFFFFFFFFFFFFFFFFFFFFFFFFFFFFFFFFFFF AND MUL OR SWAP1 SSTORE POP CALLVALUE DUP2 PUSH1 0x2 ADD PUSH1 0x0 DUP10 DUP2 MSTORE PUSH1 0x20 ADD SWAP1 DUP2 MSTORE PUSH1 0x20 ADD PUSH1 0x0 KECCAK256 DUP2 SWAP1 SSTORE POP POP JUMPDEST DUP3 DUP3 DUP2 SLOAD DUP2 LT PUSH2 0x21DF JUMPI PUSH2 0x21DE PUSH2 0x3107 JUMP JUMPDEST JUMPDEST SWAP1 PUSH1 0x0 MSTORE PUSH1 0x20 PUSH1 0x0 KECCAK256 SWAP1 PUSH1 0x7 MUL ADD PUSH1 0x2 ADD SLOAD DUP4 DUP4 DUP2 SLOAD DUP2 LT PUSH2 0x2204 JUMPI PUSH2 0x2203 PUSH2 0x3107 JUMP JUMPDEST JUMPDEST SWAP1 PUSH1 0x0 MSTORE PUSH1 0x20 PUSH1 0x0 KECCAK256 SWAP1 PUSH1 0x7 MUL ADD PUSH1 0x3 ADD SLOAD EQ ISZERO PUSH2 0x22E3 JUMPI PUSH1 0x3 DUP4 DUP4 DUP2 SLOAD DUP2 LT PUSH2 0x2231 JUMPI PUSH2 0x2230 PUSH2 0x3107 JUMP JUMPDEST JUMPDEST SWAP1 PUSH1 0x0 MSTORE PUSH1 0x20 PUSH1 0x0 KECCAK256 SWAP1 PUSH1 0x7 MUL ADD PUSH1 0x6 ADD PUSH1 0x0 PUSH2 0x100 EXP DUP2 SLOAD DUP2 PUSH1 0xFF MUL NOT AND SWAP1 DUP4 PUSH1 0x9 DUP2 GT ISZERO PUSH2 0x2264 JUMPI PUSH2 0x2263 PUSH2 0x30A9 JUMP JUMPDEST JUMPDEST MUL OR SWAP1 SSTORE POP PUSH1 0x0 DUP4 DUP4 DUP2 SLOAD DUP2 LT PUSH2 0x227E JUMPI PUSH2 0x227D PUSH2 0x3107 JUMP JUMPDEST JUMPDEST SWAP1 PUSH1 0x0 MSTORE PUSH1 0x20 PUSH1 0x0 KECCAK256 SWAP1 PUSH1 0x7 MUL ADD PUSH1 0x4 ADD PUSH1 0x14 PUSH2 0x100 EXP DUP2 SLOAD DUP2 PUSH1 0xFF MUL NOT AND SWAP1 DUP4 ISZERO ISZERO MUL OR SWAP1 SSTORE POP PUSH32 0x4460A3075D16E0C301975989C352ADF5EFEF3F00E4B1CD798431DDDDA7179E58 DUP8 DUP8 PUSH1 0x3 PUSH1 0x40 MLOAD PUSH2 0x22DA SWAP4 SWAP3 SWAP2 SWAP1 PUSH2 0x2D23 JUMP JUMPDEST PUSH1 0x40 MLOAD DUP1 SWAP2 SUB SWAP1 LOG1 JUMPDEST POP PUSH2 0x2324 JUMP JUMPDEST PUSH1 0x40 MLOAD PUSH32 0x8C379A000000000000000000000000000000000000000000000000000000000 DUP2 MSTORE PUSH1 0x4 ADD PUSH2 0x231B SWAP1 PUSH2 0x2CA2 JUMP JUMPDEST PUSH1 0x40 MLOAD DUP1 SWAP2 SUB SWAP1 REVERT JUMPDEST PUSH1 0x1 SWAP3 POP PUSH2 0x2340 JUMP JUMPDEST DUP1 DUP1 PUSH2 0x2338 SWAP1 PUSH2 0x3031 JUMP JUMPDEST SWAP2 POP POP PUSH2 0x1F7F JUMP JUMPDEST POP DUP2 PUSH2 0x2381 JUMPI PUSH1 0x40 MLOAD PUSH32 0x8C379A000000000000000000000000000000000000000000000000000000000 DUP2 MSTORE PUSH1 0x4 ADD PUSH2 0x2378 SWAP1 PUSH2 0x2C82 JUMP JUMPDEST PUSH1 0x40 MLOAD DUP1 SWAP2 SUB SWAP1 REVERT JUMPDEST POP POP POP POP POP JUMP JUMPDEST PUSH1 0x1 DUP2 DUP2 SLOAD DUP2 LT PUSH2 0x2398 JUMPI PUSH1 0x0 DUP1 REVERT JUMPDEST SWAP1 PUSH1 0x0 MSTORE PUSH1 0x20 PUSH1 0x0 KECCAK256 SWAP1 PUSH1 0x5 MUL ADD PUSH1 0x0 SWAP2 POP SWAP1 POP DUP1 PUSH1 0x0 ADD SLOAD SWAP1 DUP1 PUSH1 0x1 ADD PUSH1 0x0 SWAP1 SLOAD SWAP1 PUSH2 0x100 EXP SWAP1 DIV PUSH1 0xFF AND SWAP1 DUP1 PUSH1 0x2 ADD DUP1 SLOAD PUSH2 0x23D4 SWAP1 PUSH2 0x2FCE JUMP JUMPDEST DUP1 PUSH1 0x1F ADD PUSH1 0x20 DUP1 SWAP2 DIV MUL PUSH1 0x20 ADD PUSH1 0x40 MLOAD SWAP1 DUP2 ADD PUSH1 0x40 MSTORE DUP1 SWAP3 SWAP2 SWAP1 DUP2 DUP2 MSTORE PUSH1 0x20 ADD DUP3 DUP1 SLOAD PUSH2 0x2400 SWAP1 PUSH2 0x2FCE JUMP JUMPDEST DUP1 ISZERO PUSH2 0x244D JUMPI DUP1 PUSH1 0x1F LT PUSH2 0x2422 JUMPI PUSH2 0x100 DUP1 DUP4 SLOAD DIV MUL DUP4 MSTORE SWAP2 PUSH1 0x20 ADD SWAP2 PUSH2 0x244D JUMP JUMPDEST DUP3 ADD SWAP2 SWAP1 PUSH1 0x0 MSTORE PUSH1 0x20 PUSH1 0x0 KECCAK256 SWAP1 JUMPDEST DUP2 SLOAD DUP2 MSTORE SWAP1 PUSH1 0x1 ADD SWAP1 PUSH1 0x20 ADD DUP1 DUP4 GT PUSH2 0x2430 JUMPI DUP3 SWAP1 SUB PUSH1 0x1F AND DUP3 ADD SWAP2 JUMPDEST POP POP POP POP POP SWAP1 DUP1 PUSH1 0x3 ADD DUP1 SLOAD PUSH2 0x2462 SWAP1 PUSH2 0x2FCE JUMP JUMPDEST DUP1 PUSH1 0x1F ADD PUSH1 0x20 DUP1 SWAP2 DIV MUL PUSH1 0x20 ADD PUSH1 0x40 MLOAD SWAP1 DUP2 ADD PUSH1 0x40 MSTORE DUP1 SWAP3 SWAP2 SWAP1 DUP2 DUP2 MSTORE PUSH1 0x20 ADD DUP3 DUP1 SLOAD PUSH2 0x248E SWAP1 PUSH2 0x2FCE JUMP JUMPDEST DUP1 ISZERO PUSH2 0x24DB JUMPI DUP1 PUSH1 0x1F LT PUSH2 0x24B0 JUMPI PUSH2 0x100 DUP1 DUP4 SLOAD DIV MUL DUP4 MSTORE SWAP2 PUSH1 0x20 ADD SWAP2 PUSH2 0x24DB JUMP JUMPDEST DUP3 ADD SWAP2 SWAP1 PUSH1 0x0 MSTORE PUSH1 0x20 PUSH1 0x0 KECCAK256 SWAP1 JUMPDEST DUP2 SLOAD DUP2 MSTORE SWAP1 PUSH1 0x1 ADD SWAP1 PUSH1 0x20 ADD DUP1 DUP4 GT PUSH2 0x24BE JUMPI DUP3 SWAP1 SUB PUSH1 0x1F AND DUP3 ADD SWAP2 JUMPDEST POP POP POP POP POP SWAP1 DUP1 PUSH1 0x4 ADD PUSH1 0x0 SWAP1 SLOAD SWAP1 PUSH2 0x100 EXP SWAP1 DIV PUSH20 0xFFFFFFFFFFFFFFFFFFFFFFFFFFFFFFFFFFFFFFFF AND SWAP1 POP DUP6 JUMP JUMPDEST DUP3 DUP1 SLOAD PUSH2 0x2517 SWAP1 PUSH2 0x2FCE JUMP JUMPDEST SWAP1 PUSH1 0x0 MSTORE PUSH1 0x20 PUSH1 0x0 KECCAK256 SWAP1 PUSH1 0x1F ADD PUSH1 0x20 SWAP1 DIV DUP2 ADD SWAP3 DUP3 PUSH2 0x2539 JUMPI PUSH1 0x0 DUP6 SSTORE PUSH2 0x2580 JUMP JUMPDEST DUP3 PUSH1 0x1F LT PUSH2 0x2552 JUMPI DUP1 MLOAD PUSH1 0xFF NOT AND DUP4 DUP1 ADD OR DUP6 SSTORE PUSH2 0x2580 JUMP JUMPDEST DUP3 DUP1 ADD PUSH1 0x1 ADD DUP6 SSTORE DUP3 ISZERO PUSH2 0x2580 JUMPI SWAP2 DUP3 ADD JUMPDEST DUP3 DUP2 GT ISZERO PUSH2 0x257F JUMPI DUP3 MLOAD DUP3 SSTORE SWAP2 PUSH1 0x20 ADD SWAP2 SWAP1 PUSH1 0x1 ADD SWAP1 PUSH2 0x2564 JUMP JUMPDEST JUMPDEST POP SWAP1 POP PUSH2 0x258D SWAP2 SWAP1 PUSH2 0x2591 JUMP JUMPDEST POP SWAP1 JUMP JUMPDEST JUMPDEST DUP1 DUP3 GT ISZERO PUSH2 0x25AA JUMPI PUSH1 0x0 DUP2 PUSH1 0x0 SWAP1 SSTORE POP PUSH1 0x1 ADD PUSH2 0x2592 JUMP JUMPDEST POP SWAP1 JUMP JUMPDEST PUSH1 0x0 PUSH2 0x25C1 PUSH2 0x25BC DUP5 PUSH2 0x2E3B JUMP JUMPDEST PUSH2 0x2E16 JUMP JUMPDEST SWAP1 POP DUP3 DUP2 MSTORE PUSH1 0x20 DUP2 ADD DUP5 DUP5 DUP5 ADD GT ISZERO PUSH2 0x25DD JUMPI PUSH2 0x25DC PUSH2 0x316A JUMP JUMPDEST JUMPDEST PUSH2 0x25E8 DUP5 DUP3 DUP6 PUSH2 0x2F8C JUMP JUMPDEST POP SWAP4 SWAP3 POP POP POP JUMP JUMPDEST PUSH1 0x0 DUP2 CALLDATALOAD SWAP1 POP PUSH2 0x25FF DUP2 PUSH2 0x3491 JUMP JUMPDEST SWAP3 SWAP2 POP POP JUMP JUMPDEST PUSH1 0x0 DUP2 CALLDATALOAD SWAP1 POP PUSH2 0x2614 DUP2 PUSH2 0x34A8 JUMP JUMPDEST SWAP3 SWAP2 POP POP JUMP JUMPDEST PUSH1 0x0 DUP3 PUSH1 0x1F DUP4 ADD SLT PUSH2 0x262F JUMPI PUSH2 0x262E PUSH2 0x3165 JUMP JUMPDEST JUMPDEST DUP2 CALLDATALOAD PUSH2 0x263F DUP5 DUP3 PUSH1 0x20 DUP7 ADD PUSH2 0x25AE JUMP JUMPDEST SWAP2 POP POP SWAP3 SWAP2 POP POP JUMP JUMPDEST PUSH1 0x0 DUP2 CALLDATALOAD SWAP1 POP PUSH2 0x2657 DUP2 PUSH2 0x34B8 JUMP JUMPDEST SWAP3 SWAP2 POP POP JUMP JUMPDEST PUSH1 0x0 DUP2 CALLDATALOAD SWAP1 POP PUSH2 0x266C DUP2 PUSH2 0x34CF JUMP JUMPDEST SWAP3 SWAP2 POP POP JUMP JUMPDEST PUSH1 0x0 PUSH1 0x20 DUP3 DUP5 SUB SLT ISZERO PUSH2 0x2688 JUMPI PUSH2 0x2687 PUSH2 0x3174 JUMP JUMPDEST JUMPDEST PUSH1 0x0 PUSH2 0x2696 DUP5 DUP3 DUP6 ADD PUSH2 0x2605 JUMP JUMPDEST SWAP2 POP POP SWAP3 SWAP2 POP POP JUMP JUMPDEST PUSH1 0x0 PUSH1 0x20 DUP3 DUP5 SUB SLT ISZERO PUSH2 0x26B5 JUMPI PUSH2 0x26B4 PUSH2 0x3174 JUMP JUMPDEST JUMPDEST PUSH1 0x0 PUSH2 0x26C3 DUP5 DUP3 DUP6 ADD PUSH2 0x2648 JUMP JUMPDEST SWAP2 POP POP SWAP3 SWAP2 POP POP JUMP JUMPDEST PUSH1 0x0 DUP1 PUSH1 0x40 DUP4 DUP6 SUB SLT ISZERO PUSH2 0x26E3 JUMPI PUSH2 0x26E2 PUSH2 0x3174 JUMP JUMPDEST JUMPDEST PUSH1 0x0 PUSH2 0x26F1 DUP6 DUP3 DUP7 ADD PUSH2 0x2648 JUMP JUMPDEST SWAP3 POP POP PUSH1 0x20 DUP4 ADD CALLDATALOAD PUSH8 0xFFFFFFFFFFFFFFFF DUP2 GT ISZERO PUSH2 0x2712 JUMPI PUSH2 0x2711 PUSH2 0x316F JUMP JUMPDEST JUMPDEST PUSH2 0x271E DUP6 DUP3 DUP7 ADD PUSH2 0x261A JUMP JUMPDEST SWAP2 POP POP SWAP3 POP SWAP3 SWAP1 POP JUMP JUMPDEST PUSH1 0x0 DUP1 PUSH1 0x0 PUSH1 0x60 DUP5 DUP7 SUB SLT ISZERO PUSH2 0x2741 JUMPI PUSH2 0x2740 PUSH2 0x3174 JUMP JUMPDEST JUMPDEST PUSH1 0x0 PUSH2 0x274F DUP7 DUP3 DUP8 ADD PUSH2 0x2648 JUMP JUMPDEST SWAP4 POP POP PUSH1 0x20 DUP5 ADD CALLDATALOAD PUSH8 0xFFFFFFFFFFFFFFFF DUP2 GT ISZERO PUSH2 0x2770 JUMPI PUSH2 0x276F PUSH2 0x316F JUMP JUMPDEST JUMPDEST PUSH2 0x277C DUP7 DUP3 DUP8 ADD PUSH2 0x261A JUMP JUMPDEST SWAP3 POP POP PUSH1 0x40 PUSH2 0x278D DUP7 DUP3 DUP8 ADD PUSH2 0x25F0 JUMP JUMPDEST SWAP2 POP POP SWAP3 POP SWAP3 POP SWAP3 JUMP JUMPDEST PUSH1 0x0 DUP1 PUSH1 0x40 DUP4 DUP6 SUB SLT ISZERO PUSH2 0x27AE JUMPI PUSH2 0x27AD PUSH2 0x3174 JUMP JUMPDEST JUMPDEST PUSH1 0x0 PUSH2 0x27BC DUP6 DUP3 DUP7 ADD PUSH2 0x2648 JUMP JUMPDEST SWAP3 POP POP PUSH1 0x20 PUSH2 0x27CD DUP6 DUP3 DUP7 ADD PUSH2 0x2648 JUMP JUMPDEST SWAP2 POP POP SWAP3 POP SWAP3 SWAP1 POP JUMP JUMPDEST PUSH1 0x0 DUP1 PUSH1 0x0 PUSH1 0x60 DUP5 DUP7 SUB SLT ISZERO PUSH2 0x27F0 JUMPI PUSH2 0x27EF PUSH2 0x3174 JUMP JUMPDEST JUMPDEST PUSH1 0x0 PUSH2 0x27FE DUP7 DUP3 DUP8 ADD PUSH2 0x2648 JUMP JUMPDEST SWAP4 POP POP PUSH1 0x20 PUSH2 0x280F DUP7 DUP3 DUP8 ADD PUSH2 0x2648 JUMP JUMPDEST SWAP3 POP POP PUSH1 0x40 PUSH2 0x2820 DUP7 DUP3 DUP8 ADD PUSH2 0x2648 JUMP JUMPDEST SWAP2 POP POP SWAP3 POP SWAP3 POP SWAP3 JUMP JUMPDEST PUSH1 0x0 DUP1 PUSH1 0x0 DUP1 PUSH1 0x0 PUSH1 0xA0 DUP7 DUP9 SUB SLT ISZERO PUSH2 0x2846 JUMPI PUSH2 0x2845 PUSH2 0x3174 JUMP JUMPDEST JUMPDEST PUSH1 0x0 PUSH2 0x2854 DUP9 DUP3 DUP10 ADD PUSH2 0x2648 JUMP JUMPDEST SWAP6 POP POP PUSH1 0x20 PUSH2 0x2865 DUP9 DUP3 DUP10 ADD PUSH2 0x2648 JUMP JUMPDEST SWAP5 POP POP PUSH1 0x40 PUSH2 0x2876 DUP9 DUP3 DUP10 ADD PUSH2 0x2648 JUMP JUMPDEST SWAP4 POP POP PUSH1 0x60 PUSH2 0x2887 DUP9 DUP3 DUP10 ADD PUSH2 0x25F0 JUMP JUMPDEST SWAP3 POP POP PUSH1 0x80 DUP7 ADD CALLDATALOAD PUSH8 0xFFFFFFFFFFFFFFFF DUP2 GT ISZERO PUSH2 0x28A8 JUMPI PUSH2 0x28A7 PUSH2 0x316F JUMP JUMPDEST JUMPDEST PUSH2 0x28B4 DUP9 DUP3 DUP10 ADD PUSH2 0x261A JUMP JUMPDEST SWAP2 POP POP SWAP3 SWAP6 POP SWAP3 SWAP6 SWAP1 SWAP4 POP JUMP JUMPDEST PUSH1 0x0 DUP1 PUSH1 0x0 PUSH1 0x60 DUP5 DUP7 SUB SLT ISZERO PUSH2 0x28DA JUMPI PUSH2 0x28D9 PUSH2 0x3174 JUMP JUMPDEST JUMPDEST PUSH1 0x0 PUSH2 0x28E8 DUP7 DUP3 DUP8 ADD PUSH2 0x2648 JUMP JUMPDEST SWAP4 POP POP PUSH1 0x20 PUSH2 0x28F9 DUP7 DUP3 DUP8 ADD PUSH2 0x2648 JUMP JUMPDEST SWAP3 POP POP PUSH1 0x40 PUSH2 0x290A DUP7 DUP3 DUP8 ADD PUSH2 0x265D JUMP JUMPDEST SWAP2 POP POP SWAP3 POP SWAP3 POP SWAP3 JUMP JUMPDEST PUSH2 0x291D DUP2 PUSH2 0x2F12 JUMP JUMPDEST DUP3 MSTORE POP POP JUMP JUMPDEST PUSH2 0x292C DUP2 PUSH2 0x2F24 JUMP JUMPDEST DUP3 MSTORE POP POP JUMP JUMPDEST PUSH2 0x293B DUP2 PUSH2 0x2F7A JUMP JUMPDEST DUP3 MSTORE POP POP JUMP JUMPDEST PUSH1 0x0 PUSH2 0x294C DUP3 PUSH2 0x2E6C JUMP JUMPDEST PUSH2 0x2956 DUP2 DUP6 PUSH2 0x2E77 JUMP JUMPDEST SWAP4 POP PUSH2 0x2966 DUP2 DUP6 PUSH1 0x20 DUP7 ADD PUSH2 0x2F9B JUMP JUMPDEST PUSH2 0x296F DUP2 PUSH2 0x3179 JUMP JUMPDEST DUP5 ADD SWAP2 POP POP SWAP3 SWAP2 POP POP JUMP JUMPDEST PUSH1 0x0 PUSH2 0x2987 PUSH1 0x11 DUP4 PUSH2 0x2E77 JUMP JUMPDEST SWAP2 POP PUSH2 0x2992 DUP3 PUSH2 0x318A JUMP JUMPDEST PUSH1 0x20 DUP3 ADD SWAP1 POP SWAP2 SWAP1 POP JUMP JUMPDEST PUSH1 0x0 PUSH2 0x29AA PUSH1 0x28 DUP4 PUSH2 0x2E77 JUMP JUMPDEST SWAP2 POP PUSH2 0x29B5 DUP3 PUSH2 0x31B3 JUMP JUMPDEST PUSH1 0x40 DUP3 ADD SWAP1 POP SWAP2 SWAP1 POP JUMP JUMPDEST PUSH1 0x0 PUSH2 0x29CD PUSH1 0x25 DUP4 PUSH2 0x2E77 JUMP JUMPDEST SWAP2 POP PUSH2 0x29D8 DUP3 PUSH2 0x3202 JUMP JUMPDEST PUSH1 0x40 DUP3 ADD SWAP1 POP SWAP2 SWAP1 POP JUMP JUMPDEST PUSH1 0x0 PUSH2 0x29F0 PUSH1 0x41 DUP4 PUSH2 0x2E77 JUMP JUMPDEST SWAP2 POP PUSH2 0x29FB DUP3 PUSH2 0x3251 JUMP JUMPDEST PUSH1 0x60 DUP3 ADD SWAP1 POP SWAP2 SWAP1 POP JUMP JUMPDEST PUSH1 0x0 PUSH2 0x2A13 PUSH1 0x15 DUP4 PUSH2 0x2E77 JUMP JUMPDEST SWAP2 POP PUSH2 0x2A1E DUP3 PUSH2 0x32C6 JUMP JUMPDEST PUSH1 0x20 DUP3 ADD SWAP1 POP SWAP2 SWAP1 POP JUMP JUMPDEST PUSH1 0x0 PUSH2 0x2A36 PUSH1 0x1B DUP4 PUSH2 0x2E77 JUMP JUMPDEST SWAP2 POP PUSH2 0x2A41 DUP3 PUSH2 0x32EF JUMP JUMPDEST PUSH1 0x20 DUP3 ADD SWAP1 POP SWAP2 SWAP1 POP JUMP JUMPDEST PUSH1 0x0 PUSH2 0x2A59 PUSH1 0x23 DUP4 PUSH2 0x2E77 JUMP JUMPDEST SWAP2 POP PUSH2 0x2A64 DUP3 PUSH2 0x3318 JUMP JUMPDEST PUSH1 0x40 DUP3 ADD SWAP1 POP SWAP2 SWAP1 POP JUMP JUMPDEST PUSH1 0x0 PUSH2 0x2A7C PUSH1 0x15 DUP4 PUSH2 0x2E77 JUMP JUMPDEST SWAP2 POP PUSH2 0x2A87 DUP3 PUSH2 0x3367 JUMP JUMPDEST PUSH1 0x20 DUP3 ADD SWAP1 POP SWAP2 SWAP1 POP JUMP JUMPDEST PUSH1 0x0 PUSH2 0x2A9F PUSH1 0x25 DUP4 PUSH2 0x2E77 JUMP JUMPDEST SWAP2 POP PUSH2 0x2AAA DUP3 PUSH2 0x3390 JUMP JUMPDEST PUSH1 0x40 DUP3 ADD SWAP1 POP SWAP2 SWAP1 POP JUMP JUMPDEST PUSH1 0x0 PUSH2 0x2AC2 PUSH1 0x28 DUP4 PUSH2 0x2E77 JUMP JUMPDEST SWAP2 POP PUSH2 0x2ACD DUP3 PUSH2 0x33DF JUMP JUMPDEST PUSH1 0x40 DUP3 ADD SWAP1 POP SWAP2 SWAP1 POP JUMP JUMPDEST PUSH1 0x0 PUSH2 0x2AE5 PUSH1 0x2C DUP4 PUSH2 0x2E77 JUMP JUMPDEST SWAP2 POP PUSH2 0x2AF0 DUP3 PUSH2 0x342E JUMP JUMPDEST PUSH1 0x40 DUP3 ADD SWAP1 POP SWAP2 SWAP1 POP JUMP JUMPDEST PUSH2 0x2B04 DUP2 PUSH2 0x2F63 JUMP JUMPDEST DUP3 MSTORE POP POP JUMP JUMPDEST PUSH1 0x0 PUSH1 0x20 DUP3 ADD SWAP1 POP PUSH2 0x2B1F PUSH1 0x0 DUP4 ADD DUP5 PUSH2 0x2914 JUMP JUMPDEST SWAP3 SWAP2 POP POP JUMP JUMPDEST PUSH1 0x0 PUSH1 0x20 DUP3 ADD SWAP1 POP PUSH2 0x2B3A PUSH1 0x0 DUP4 ADD DUP5 PUSH2 0x2932 JUMP JUMPDEST SWAP3 SWAP2 POP POP JUMP JUMPDEST PUSH1 0x0 PUSH1 0x20 DUP3 ADD SWAP1 POP DUP2 DUP2 SUB PUSH1 0x0 DUP4 ADD MSTORE PUSH2 0x2B5A DUP2 DUP5 PUSH2 0x2941 JUMP JUMPDEST SWAP1 POP SWAP3 SWAP2 POP POP JUMP JUMPDEST PUSH1 0x0 PUSH1 0x20 DUP3 ADD SWAP1 POP DUP2 DUP2 SUB PUSH1 0x0 DUP4 ADD MSTORE PUSH2 0x2B7B DUP2 PUSH2 0x297A JUMP JUMPDEST SWAP1 POP SWAP2 SWAP1 POP JUMP JUMPDEST PUSH1 0x0 PUSH1 0x20 DUP3 ADD SWAP1 POP DUP2 DUP2 SUB PUSH1 0x0 DUP4 ADD MSTORE PUSH2 0x2B9B DUP2 PUSH2 0x299D JUMP JUMPDEST SWAP1 POP SWAP2 SWAP1 POP JUMP JUMPDEST PUSH1 0x0 PUSH1 0x20 DUP3 ADD SWAP1 POP DUP2 DUP2 SUB PUSH1 0x0 DUP4 ADD MSTORE PUSH2 0x2BBB DUP2 PUSH2 0x29C0 JUMP JUMPDEST SWAP1 POP SWAP2 SWAP1 POP JUMP JUMPDEST PUSH1 0x0 PUSH1 0x20 DUP3 ADD SWAP1 POP DUP2 DUP2 SUB PUSH1 0x0 DUP4 ADD MSTORE PUSH2 0x2BDB DUP2 PUSH2 0x29E3 JUMP JUMPDEST SWAP1 POP SWAP2 SWAP1 POP JUMP JUMPDEST PUSH1 0x0 PUSH1 0x20 DUP3 ADD SWAP1 POP DUP2 DUP2 SUB PUSH1 0x0 DUP4 ADD MSTORE PUSH2 0x2BFB DUP2 PUSH2 0x2A06 JUMP JUMPDEST SWAP1 POP SWAP2 SWAP1 POP JUMP JUMPDEST PUSH1 0x0 PUSH1 0x20 DUP3 ADD SWAP1 POP DUP2 DUP2 SUB PUSH1 0x0 DUP4 ADD MSTORE PUSH2 0x2C1B DUP2 PUSH2 0x2A29 JUMP JUMPDEST SWAP1 POP SWAP2 SWAP1 POP JUMP JUMPDEST PUSH1 0x0 PUSH1 0x20 DUP3 ADD SWAP1 POP DUP2 DUP2 SUB PUSH1 0x0 DUP4 ADD MSTORE PUSH2 0x2C3B DUP2 PUSH2 0x2A4C JUMP JUMPDEST SWAP1 POP SWAP2 SWAP1 POP JUMP JUMPDEST PUSH1 0x0 PUSH1 0x20 DUP3 ADD SWAP1 POP DUP2 DUP2 SUB PUSH1 0x0 DUP4 ADD MSTORE PUSH2 0x2C5B DUP2 PUSH2 0x2A6F JUMP JUMPDEST SWAP1 POP SWAP2 SWAP1 POP JUMP JUMPDEST PUSH1 0x0 PUSH1 0x20 DUP3 ADD SWAP1 POP DUP2 DUP2 SUB PUSH1 0x0 DUP4 ADD MSTORE PUSH2 0x2C7B DUP2 PUSH2 0x2A92 JUMP JUMPDEST SWAP1 POP SWAP2 SWAP1 POP JUMP JUMPDEST PUSH1 0x0 PUSH1 0x20 DUP3 ADD SWAP1 POP DUP2 DUP2 SUB PUSH1 0x0 DUP4 ADD MSTORE PUSH2 0x2C9B DUP2 PUSH2 0x2AB5 JUMP JUMPDEST SWAP1 POP SWAP2 SWAP1 POP JUMP JUMPDEST PUSH1 0x0 PUSH1 0x20 DUP3 ADD SWAP1 POP DUP2 DUP2 SUB PUSH1 0x0 DUP4 ADD MSTORE PUSH2 0x2CBB DUP2 PUSH2 0x2AD8 JUMP JUMPDEST SWAP1 POP SWAP2 SWAP1 POP JUMP JUMPDEST PUSH1 0x0 PUSH1 0xA0 DUP3 ADD SWAP1 POP PUSH2 0x2CD7 PUSH1 0x0 DUP4 ADD DUP9 PUSH2 0x2AFB JUMP JUMPDEST PUSH2 0x2CE4 PUSH1 0x20 DUP4 ADD DUP8 PUSH2 0x2923 JUMP JUMPDEST DUP2 DUP2 SUB PUSH1 0x40 DUP4 ADD MSTORE PUSH2 0x2CF6 DUP2 DUP7 PUSH2 0x2941 JUMP JUMPDEST SWAP1 POP DUP2 DUP2 SUB PUSH1 0x60 DUP4 ADD MSTORE PUSH2 0x2D0A DUP2 DUP6 PUSH2 0x2941 JUMP JUMPDEST SWAP1 POP PUSH2 0x2D19 PUSH1 0x80 DUP4 ADD DUP5 PUSH2 0x2914 JUMP JUMPDEST SWAP7 SWAP6 POP POP POP POP POP POP JUMP JUMPDEST PUSH1 0x0 PUSH1 0x60 DUP3 ADD SWAP1 POP PUSH2 0x2D38 PUSH1 0x0 DUP4 ADD DUP7 PUSH2 0x2AFB JUMP JUMPDEST PUSH2 0x2D45 PUSH1 0x20 DUP4 ADD DUP6 PUSH2 0x2AFB JUMP JUMPDEST PUSH2 0x2D52 PUSH1 0x40 DUP4 ADD DUP5 PUSH2 0x2932 JUMP JUMPDEST SWAP5 SWAP4 POP POP POP POP JUMP JUMPDEST PUSH1 0x0 PUSH1 0x60 DUP3 ADD SWAP1 POP PUSH2 0x2D6F PUSH1 0x0 DUP4 ADD DUP7 PUSH2 0x2AFB JUMP JUMPDEST PUSH2 0x2D7C PUSH1 0x20 DUP4 ADD DUP6 PUSH2 0x2AFB JUMP JUMPDEST PUSH2 0x2D89 PUSH1 0x40 DUP4 ADD DUP5 PUSH2 0x2AFB JUMP JUMPDEST SWAP5 SWAP4 POP POP POP POP JUMP JUMPDEST PUSH1 0x0 PUSH2 0x100 DUP3 ADD SWAP1 POP PUSH2 0x2DA7 PUSH1 0x0 DUP4 ADD DUP12 PUSH2 0x2AFB JUMP JUMPDEST PUSH2 0x2DB4 PUSH1 0x20 DUP4 ADD DUP11 PUSH2 0x2AFB JUMP JUMPDEST PUSH2 0x2DC1 PUSH1 0x40 DUP4 ADD DUP10 PUSH2 0x2AFB JUMP JUMPDEST PUSH2 0x2DCE PUSH1 0x60 DUP4 ADD DUP9 PUSH2 0x2AFB JUMP JUMPDEST PUSH2 0x2DDB PUSH1 0x80 DUP4 ADD DUP8 PUSH2 0x2914 JUMP JUMPDEST PUSH2 0x2DE8 PUSH1 0xA0 DUP4 ADD DUP7 PUSH2 0x2923 JUMP JUMPDEST DUP2 DUP2 SUB PUSH1 0xC0 DUP4 ADD MSTORE PUSH2 0x2DFA DUP2 DUP6 PUSH2 0x2941 JUMP JUMPDEST SWAP1 POP PUSH2 0x2E09 PUSH1 0xE0 DUP4 ADD DUP5 PUSH2 0x2932 JUMP JUMPDEST SWAP10 SWAP9 POP POP POP POP POP POP POP POP POP JUMP JUMPDEST PUSH1 0x0 PUSH2 0x2E20 PUSH2 0x2E31 JUMP JUMPDEST SWAP1 POP PUSH2 0x2E2C DUP3 DUP3 PUSH2 0x3000 JUMP JUMPDEST SWAP2 SWAP1 POP JUMP JUMPDEST PUSH1 0x0 PUSH1 0x40 MLOAD SWAP1 POP SWAP1 JUMP JUMPDEST PUSH1 0x0 PUSH8 0xFFFFFFFFFFFFFFFF DUP3 GT ISZERO PUSH2 0x2E56 JUMPI PUSH2 0x2E55 PUSH2 0x3136 JUMP JUMPDEST JUMPDEST PUSH2 0x2E5F DUP3 PUSH2 0x3179 JUMP JUMPDEST SWAP1 POP PUSH1 0x20 DUP2 ADD SWAP1 POP SWAP2 SWAP1 POP JUMP JUMPDEST PUSH1 0x0 DUP2 MLOAD SWAP1 POP SWAP2 SWAP1 POP JUMP JUMPDEST PUSH1 0x0 DUP3 DUP3 MSTORE PUSH1 0x20 DUP3 ADD SWAP1 POP SWAP3 SWAP2 POP POP JUMP JUMPDEST PUSH1 0x0 PUSH2 0x2E93 DUP3 PUSH2 0x2F63 JUMP JUMPDEST SWAP2 POP PUSH2 0x2E9E DUP4 PUSH2 0x2F63 JUMP JUMPDEST SWAP3 POP DUP3 PUSH32 0xFFFFFFFFFFFFFFFFFFFFFFFFFFFFFFFFFFFFFFFFFFFFFFFFFFFFFFFFFFFFFFFF SUB DUP3 GT ISZERO PUSH2 0x2ED3 JUMPI PUSH2 0x2ED2 PUSH2 0x307A JUMP JUMPDEST JUMPDEST DUP3 DUP3 ADD SWAP1 POP SWAP3 SWAP2 POP POP JUMP JUMPDEST PUSH1 0x0 PUSH2 0x2EE9 DUP3 PUSH2 0x2F63 JUMP JUMPDEST SWAP2 POP PUSH2 0x2EF4 DUP4 PUSH2 0x2F63 JUMP JUMPDEST SWAP3 POP DUP3 DUP3 LT ISZERO PUSH2 0x2F07 JUMPI PUSH2 0x2F06 PUSH2 0x307A JUMP JUMPDEST JUMPDEST DUP3 DUP3 SUB SWAP1 POP SWAP3 SWAP2 POP POP JUMP JUMPDEST PUSH1 0x0 PUSH2 0x2F1D DUP3 PUSH2 0x2F43 JUMP JUMPDEST SWAP1 POP SWAP2 SWAP1 POP JUMP JUMPDEST PUSH1 0x0 DUP2 ISZERO ISZERO SWAP1 POP SWAP2 SWAP1 POP JUMP JUMPDEST PUSH1 0x0 DUP2 SWAP1 POP PUSH2 0x2F3E DUP3 PUSH2 0x347D JUMP JUMPDEST SWAP2 SWAP1 POP JUMP JUMPDEST PUSH1 0x0 PUSH20 0xFFFFFFFFFFFFFFFFFFFFFFFFFFFFFFFFFFFFFFFF DUP3 AND SWAP1 POP SWAP2 SWAP1 POP JUMP JUMPDEST PUSH1 0x0 DUP2 SWAP1 POP SWAP2 SWAP1 POP JUMP JUMPDEST PUSH1 0x0 PUSH1 0xFF DUP3 AND SWAP1 POP SWAP2 SWAP1 POP JUMP JUMPDEST PUSH1 0x0 PUSH2 0x2F85 DUP3 PUSH2 0x2F30 JUMP JUMPDEST SWAP1 POP SWAP2 SWAP1 POP JUMP JUMPDEST DUP3 DUP2 DUP4 CALLDATACOPY PUSH1 0x0 DUP4 DUP4 ADD MSTORE POP POP POP JUMP JUMPDEST PUSH1 0x0 JUMPDEST DUP4 DUP2 LT ISZERO PUSH2 0x2FB9 JUMPI DUP1 DUP3 ADD MLOAD DUP2 DUP5 ADD MSTORE PUSH1 0x20 DUP2 ADD SWAP1 POP PUSH2 0x2F9E JUMP JUMPDEST DUP4 DUP2 GT ISZERO PUSH2 0x2FC8 JUMPI PUSH1 0x0 DUP5 DUP5 ADD MSTORE JUMPDEST POP POP POP POP JUMP JUMPDEST PUSH1 0x0 PUSH1 0x2 DUP3 DIV SWAP1 POP PUSH1 0x1 DUP3 AND DUP1 PUSH2 0x2FE6 JUMPI PUSH1 0x7F DUP3 AND SWAP2 POP JUMPDEST PUSH1 0x20 DUP3 LT DUP2 EQ ISZERO PUSH2 0x2FFA JUMPI PUSH2 0x2FF9 PUSH2 0x30D8 JUMP JUMPDEST JUMPDEST POP SWAP2 SWAP1 POP JUMP JUMPDEST PUSH2 0x3009 DUP3 PUSH2 0x3179 JUMP JUMPDEST DUP2 ADD DUP2 DUP2 LT PUSH8 0xFFFFFFFFFFFFFFFF DUP3 GT OR ISZERO PUSH2 0x3028 JUMPI PUSH2 0x3027 PUSH2 0x3136 JUMP JUMPDEST JUMPDEST DUP1 PUSH1 0x40 MSTORE POP POP POP JUMP JUMPDEST PUSH1 0x0 PUSH2 0x303C DUP3 PUSH2 0x2F63 JUMP JUMPDEST SWAP2 POP PUSH32 0xFFFFFFFFFFFFFFFFFFFFFFFFFFFFFFFFFFFFFFFFFFFFFFFFFFFFFFFFFFFFFFFF DUP3 EQ ISZERO PUSH2 0x306F JUMPI PUSH2 0x306E PUSH2 0x307A JUMP JUMPDEST JUMPDEST PUSH1 0x1 DUP3 ADD SWAP1 POP SWAP2 SWAP1 POP JUMP JUMPDEST PUSH32 0x4E487B7100000000000000000000000000000000000000000000000000000000 PUSH1 0x0 MSTORE PUSH1 0x11 PUSH1 0x4 MSTORE PUSH1 0x24 PUSH1 0x0 REVERT JUMPDEST PUSH32 0x4E487B7100000000000000000000000000000000000000000000000000000000 PUSH1 0x0 MSTORE PUSH1 0x21 PUSH1 0x4 MSTORE PUSH1 0x24 PUSH1 0x0 REVERT JUMPDEST PUSH32 0x4E487B7100000000000000000000000000000000000000000000000000000000 PUSH1 0x0 MSTORE PUSH1 0x22 PUSH1 0x4 MSTORE PUSH1 0x24 PUSH1 0x0 REVERT JUMPDEST PUSH32 0x4E487B7100000000000000000000000000000000000000000000000000000000 PUSH1 0x0 MSTORE PUSH1 0x32 PUSH1 0x4 MSTORE PUSH1 0x24 PUSH1 0x0 REVERT JUMPDEST PUSH32 0x4E487B7100000000000000000000000000000000000000000000000000000000 PUSH1 0x0 MSTORE PUSH1 0x41 PUSH1 0x4 MSTORE PUSH1 0x24 PUSH1 0x0 REVERT JUMPDEST PUSH1 0x0 DUP1 REVERT JUMPDEST PUSH1 0x0 DUP1 REVERT JUMPDEST PUSH1 0x0 DUP1 REVERT JUMPDEST PUSH1 0x0 DUP1 REVERT JUMPDEST PUSH1 0x0 PUSH1 0x1F NOT PUSH1 0x1F DUP4 ADD AND SWAP1 POP SWAP2 SWAP1 POP JUMP JUMPDEST PUSH32 0x43686172697479206E6F7420666F756E64000000000000000000000000000000 PUSH1 0x0 DUP3 ADD MSTORE POP JUMP JUMPDEST PUSH32 0x596F7520686176656E277420636F6E747269627574656420666F722074686973 PUSH1 0x0 DUP3 ADD MSTORE PUSH32 0x2070726F6A656374000000000000000000000000000000000000000000000000 PUSH1 0x20 DUP3 ADD MSTORE POP JUMP JUMPDEST PUSH32 0x53686F756C642062652067726561746572207468616E206D696E696D756D2061 PUSH1 0x0 DUP3 ADD MSTORE PUSH32 0x6D6F756E74000000000000000000000000000000000000000000000000000000 PUSH1 0x20 DUP3 ADD MSTORE POP JUMP JUMPDEST PUSH32 0x43616E277420726566756E642061732065786368616E67652072657175657374 PUSH1 0x0 DUP3 ADD MSTORE PUSH32 0x2077617320616C726561647920696E69746961746564207769746820626F6172 PUSH1 0x20 DUP3 ADD MSTORE PUSH32 0x6400000000000000000000000000000000000000000000000000000000000000 PUSH1 0x40 DUP3 ADD MSTORE POP JUMP JUMPDEST PUSH32 0x50726F6A65637420646F65736E27742065786973740000000000000000000000 PUSH1 0x0 DUP3 ADD MSTORE POP JUMP JUMPDEST PUSH32 0x43686172697479206973206E6F742079657420617070726F7665640000000000 PUSH1 0x0 DUP3 ADD MSTORE POP JUMP JUMPDEST PUSH32 0x4E6F2070726F6A65637420657869737420756E64657220746869732063686172 PUSH1 0x0 DUP3 ADD MSTORE PUSH32 0x6974790000000000000000000000000000000000000000000000000000000000 PUSH1 0x20 DUP3 ADD MSTORE POP JUMP JUMPDEST PUSH32 0x4368617269747920646F65736E27742065786973740000000000000000000000 PUSH1 0x0 DUP3 ADD MSTORE POP JUMP JUMPDEST PUSH32 0x4E6F2070726F6A65637420657869737420756E64657220746869732070726F6A PUSH1 0x0 DUP3 ADD MSTORE PUSH32 0x6563744964000000000000000000000000000000000000000000000000000000 PUSH1 0x20 DUP3 ADD MSTORE POP JUMP JUMPDEST PUSH32 0x4E6F20737563682070726F6A65637420657869737420756E6465722074686973 PUSH1 0x0 DUP3 ADD MSTORE PUSH32 0x2063686172697479000000000000000000000000000000000000000000000000 PUSH1 0x20 DUP3 ADD MSTORE POP JUMP JUMPDEST PUSH32 0x4E6F206D6F726520646F6E6174696F6E7320616363657074656420666F722074 PUSH1 0x0 DUP3 ADD MSTORE PUSH32 0x6869732070726F6A6563742E0000000000000000000000000000000000000000 PUSH1 0x20 DUP3 ADD MSTORE POP JUMP JUMPDEST PUSH1 0xA DUP2 LT PUSH2 0x348E JUMPI PUSH2 0x348D PUSH2 0x30A9 JUMP JUMPDEST JUMPDEST POP JUMP JUMPDEST PUSH2 0x349A DUP2 PUSH2 0x2F12 JUMP JUMPDEST DUP2 EQ PUSH2 0x34A5 JUMPI PUSH1 0x0 DUP1 REVERT JUMPDEST POP JUMP JUMPDEST PUSH1 0xA DUP2 LT PUSH2 0x34B5 JUMPI PUSH1 0x0 DUP1 REVERT JUMPDEST POP JUMP JUMPDEST PUSH2 0x34C1 DUP2 PUSH2 0x2F63 JUMP JUMPDEST DUP2 EQ PUSH2 0x34CC JUMPI PUSH1 0x0 DUP1 REVERT JUMPDEST POP JUMP JUMPDEST PUSH2 0x34D8 DUP2 PUSH2 0x2F6D JUMP JUMPDEST DUP2 EQ PUSH2 0x34E3 JUMPI PUSH1 0x0 DUP1 REVERT JUMPDEST POP JUMP INVALID SLOAD PUSH9 0x6973206F7065726174 PUSH10 0x6F6E2063616E20626520 PUSH17 0x6572666F726D6564206F6E6C7920627920 TIMESTAMP PUSH16 0x6172642061646D696E596F7520617265 KECCAK256 PUSH15 0x6F7420617574686F72697A65642074 PUSH16 0x20757064617465207769746820746869 PUSH20 0x2073746174757354686973206F7065726174696F PUSH15 0x2063616E20626520706572666F726D PUSH6 0x64206F6E6C79 KECCAK256 PUSH3 0x792043 PUSH9 0x6172697479A2646970 PUSH7 0x7358221220332D 0xFC LT 0xC1 EXP PUSH4 0x3871D63 XOR SWAP6 SELFDESTRUCT ISZERO DUP9 TIMESTAMP 0xAA 0xCD 0xE1 0xD2 MUL 0xC6 0xFC 0xC2 SWAP4 TIMESTAMP PUSH11 0x20A803C864736F6C634300 ADDMOD SMOD STOP CALLER "
		},
		"gasEstimates": {
			"creation": {
				"codeDepositCost": "2748600",
				"executionCost": "infinite",
				"totalCost": "infinite"
			},
			"external": {
				"approveCharity(uint256,uint256)": "infinite",
				"boardAdmin()": "2603",
				"changeProjectStatus(uint256,uint256,uint8)": "infinite",
				"charities(uint256)": "infinite",
				"createCharity(uint256,string,address)": "infinite",
				"createProject(uint256,uint256,uint256,address,string)": "infinite",
				"donate(uint256,uint256,uint256)": "infinite",
				"getProjectFundDetails(uint256,uint256)": "infinite",
				"getProjectStatus(uint256,uint256)": "infinite",
				"getRefund(uint256,uint256,uint256)": "infinite",
				"projectStatus()": "2628",
				"projectStatuses(uint8)": "infinite",
				"projects(uint256)": "infinite",
				"rejectCharity(uint256,string)": "infinite",
				"updateProjectStatus(uint256,uint256,uint8)": "infinite"
			}
		},
		"methodIdentifiers": {
			"approveCharity(uint256,uint256)": "97ed410c",
			"boardAdmin()": "b61a7f76",
			"changeProjectStatus(uint256,uint256,uint8)": "3a8565f0",
			"charities(uint256)": "fb709d2e",
			"createCharity(uint256,string,address)": "141020cc",
			"createProject(uint256,uint256,uint256,address,string)": "95dcc366",
			"donate(uint256,uint256,uint256)": "ef88f48b",
			"getProjectFundDetails(uint256,uint256)": "1ed056d8",
			"getProjectStatus(uint256,uint256)": "9d8e7e89",
			"getRefund(uint256,uint256,uint256)": "a6dbec73",
			"projectStatus()": "1ab33308",
			"projectStatuses(uint8)": "ef6add32",
			"projects(uint256)": "107046bd",
			"rejectCharity(uint256,string)": "daf38232",
			"updateProjectStatus(uint256,uint256,uint8)": "2c3730ef"
		}
	},
	"abi": [
		{
			"inputs": [],
			"stateMutability": "nonpayable",
			"type": "constructor"
		},
		{
			"anonymous": false,
			"inputs": [
				{
					"indexed": false,
					"internalType": "uint256",
					"name": "charityId",
					"type": "uint256"
				},
				{
					"indexed": false,
					"internalType": "uint256",
					"name": "projectId",
					"type": "uint256"
				},
				{
					"indexed": false,
					"internalType": "enum CrowdFund.ProjectStatus",
					"name": "projectStatus",
					"type": "uint8"
				}
			],
			"name": "BoardMessageToCharity",
			"type": "event"
		},
		{
			"anonymous": false,
			"inputs": [
				{
					"indexed": false,
					"internalType": "uint256",
					"name": "charityId",
					"type": "uint256"
				},
				{
					"indexed": false,
					"internalType": "uint256",
					"name": "projectId",
					"type": "uint256"
				},
				{
					"indexed": false,
					"internalType": "enum CrowdFund.ProjectStatus",
					"name": "projectStatus",
					"type": "uint8"
				}
			],
			"name": "CharityMessageToBoard",
			"type": "event"
		},
		{
			"anonymous": false,
			"inputs": [
				{
					"indexed": false,
					"internalType": "uint256",
					"name": "charityId",
					"type": "uint256"
				},
				{
					"indexed": false,
					"internalType": "uint256",
					"name": "projectId",
					"type": "uint256"
				},
				{
					"indexed": false,
					"internalType": "enum CrowdFund.ProjectStatus",
					"name": "projectStatus",
					"type": "uint8"
				}
			],
			"name": "CharityMessageToReceiver",
			"type": "event"
		},
		{
			"anonymous": false,
			"inputs": [
				{
					"indexed": false,
					"internalType": "uint256",
					"name": "charityId",
					"type": "uint256"
				},
				{
					"indexed": false,
					"internalType": "uint256",
					"name": "projectId",
					"type": "uint256"
				},
				{
					"indexed": false,
					"internalType": "enum CrowdFund.ProjectStatus",
					"name": "projectStatus",
					"type": "uint8"
				}
			],
			"name": "ReceiverMessageToCharity",
			"type": "event"
		},
		{
			"inputs": [
				{
					"internalType": "uint256",
					"name": "index",
					"type": "uint256"
				},
				{
					"internalType": "uint256",
					"name": "charityId",
					"type": "uint256"
				}
			],
			"name": "approveCharity",
			"outputs": [],
			"stateMutability": "nonpayable",
			"type": "function"
		},
		{
			"inputs": [],
			"name": "boardAdmin",
			"outputs": [
				{
					"internalType": "address",
					"name": "",
					"type": "address"
				}
			],
			"stateMutability": "view",
			"type": "function"
		},
		{
			"inputs": [
				{
					"internalType": "uint256",
					"name": "projectId",
					"type": "uint256"
				},
				{
					"internalType": "uint256",
					"name": "charityId",
					"type": "uint256"
				},
				{
					"internalType": "uint8",
					"name": "enumValue",
					"type": "uint8"
				}
			],
			"name": "changeProjectStatus",
			"outputs": [],
			"stateMutability": "nonpayable",
			"type": "function"
		},
		{
			"inputs": [
				{
					"internalType": "uint256",
					"name": "",
					"type": "uint256"
				}
			],
			"name": "charities",
			"outputs": [
				{
					"internalType": "uint256",
					"name": "charityId",
					"type": "uint256"
				},
				{
					"internalType": "bool",
					"name": "approved",
					"type": "bool"
				},
				{
					"internalType": "string",
					"name": "reason",
					"type": "string"
				},
				{
					"internalType": "string",
					"name": "licenseDocsLink",
					"type": "string"
				},
				{
					"internalType": "address",
					"name": "owner",
					"type": "address"
				}
			],
			"stateMutability": "view",
			"type": "function"
		},
		{
			"inputs": [
				{
					"internalType": "uint256",
					"name": "_charityId",
					"type": "uint256"
				},
				{
					"internalType": "string",
					"name": "_licenseDocsLink",
					"type": "string"
				},
				{
					"internalType": "address",
					"name": "charity",
					"type": "address"
				}
			],
			"name": "createCharity",
			"outputs": [],
			"stateMutability": "nonpayable",
			"type": "function"
		},
		{
			"inputs": [
				{
					"internalType": "uint256",
					"name": "charityId",
					"type": "uint256"
				},
				{
					"internalType": "uint256",
					"name": "_projectId",
					"type": "uint256"
				},
				{
					"internalType": "uint256",
					"name": "_goal",
					"type": "uint256"
				},
				{
					"internalType": "address",
					"name": "owner",
					"type": "address"
				},
				{
					"internalType": "string",
					"name": "_documentLink",
					"type": "string"
				}
			],
			"name": "createProject",
			"outputs": [],
			"stateMutability": "nonpayable",
			"type": "function"
		},
		{
			"inputs": [
				{
					"internalType": "uint256",
					"name": "charityId",
					"type": "uint256"
				},
				{
					"internalType": "uint256",
					"name": "projectId",
					"type": "uint256"
				},
				{
					"internalType": "uint256",
					"name": "donorId",
					"type": "uint256"
				}
			],
			"name": "donate",
			"outputs": [],
			"stateMutability": "payable",
			"type": "function"
		},
		{
			"inputs": [
				{
					"internalType": "uint256",
					"name": "charityId",
					"type": "uint256"
				},
				{
					"internalType": "uint256",
					"name": "projectId",
					"type": "uint256"
				}
			],
			"name": "getProjectFundDetails",
			"outputs": [
				{
					"internalType": "uint256",
					"name": "",
					"type": "uint256"
				},
				{
					"internalType": "uint256",
					"name": "",
					"type": "uint256"
				},
				{
					"internalType": "uint256",
					"name": "",
					"type": "uint256"
				}
			],
			"stateMutability": "view",
			"type": "function"
		},
		{
			"inputs": [
				{
					"internalType": "uint256",
					"name": "charityId",
					"type": "uint256"
				},
				{
					"internalType": "uint256",
					"name": "projectId",
					"type": "uint256"
				}
			],
			"name": "getProjectStatus",
			"outputs": [
				{
					"internalType": "string",
					"name": "",
					"type": "string"
				}
			],
			"stateMutability": "view",
			"type": "function"
		},
		{
			"inputs": [
				{
					"internalType": "uint256",
					"name": "charityId",
					"type": "uint256"
				},
				{
					"internalType": "uint256",
					"name": "projectId",
					"type": "uint256"
				},
				{
					"internalType": "uint256",
					"name": "donorId",
					"type": "uint256"
				}
			],
			"name": "getRefund",
			"outputs": [],
			"stateMutability": "nonpayable",
			"type": "function"
		},
		{
			"inputs": [],
			"name": "projectStatus",
			"outputs": [
				{
					"internalType": "enum CrowdFund.ProjectStatus",
					"name": "",
					"type": "uint8"
				}
			],
			"stateMutability": "view",
			"type": "function"
		},
		{
			"inputs": [
				{
					"internalType": "enum CrowdFund.ProjectStatus",
					"name": "",
					"type": "uint8"
				}
			],
			"name": "projectStatuses",
			"outputs": [
				{
					"internalType": "string",
					"name": "",
					"type": "string"
				}
			],
			"stateMutability": "view",
			"type": "function"
		},
		{
			"inputs": [
				{
					"internalType": "uint256",
					"name": "",
					"type": "uint256"
				}
			],
			"name": "projects",
			"outputs": [
				{
					"internalType": "uint256",
					"name": "projectId",
					"type": "uint256"
				},
				{
					"internalType": "uint256",
					"name": "minimumAmount",
					"type": "uint256"
				},
				{
					"internalType": "uint256",
					"name": "goal",
					"type": "uint256"
				},
				{
					"internalType": "uint256",
					"name": "raisedAmount",
					"type": "uint256"
				},
				{
					"internalType": "address",
					"name": "owner",
					"type": "address"
				},
				{
					"internalType": "bool",
					"name": "acceptDonation",
					"type": "bool"
				},
				{
					"internalType": "string",
					"name": "documentLink",
					"type": "string"
				},
				{
					"internalType": "enum CrowdFund.ProjectStatus",
					"name": "projectStatus",
					"type": "uint8"
				}
			],
			"stateMutability": "view",
			"type": "function"
		},
		{
			"inputs": [
				{
					"internalType": "uint256",
					"name": "index",
					"type": "uint256"
				},
				{
					"internalType": "string",
					"name": "reason",
					"type": "string"
				}
			],
			"name": "rejectCharity",
			"outputs": [],
			"stateMutability": "nonpayable",
			"type": "function"
		},
		{
			"inputs": [
				{
					"internalType": "uint256",
					"name": "projectId",
					"type": "uint256"
				},
				{
					"internalType": "uint256",
					"name": "charityId",
					"type": "uint256"
				},
				{
					"internalType": "uint8",
					"name": "enumValue",
					"type": "uint8"
				}
			],
			"name": "updateProjectStatus",
			"outputs": [],
			"stateMutability": "nonpayable",
			"type": "function"
		}
	]
}